{
  "_format": "hh-sol-artifact-1",
  "contractName": "ERC1155Prize",
  "sourceName": "contracts/ERC1155Prize.sol",
  "abi": [
    {
      "inputs": [],
      "stateMutability": "nonpayable",
      "type": "constructor"
    },
    {
      "anonymous": false,
      "inputs": [
        {
          "indexed": true,
          "internalType": "address",
          "name": "account",
          "type": "address"
        },
        {
          "indexed": true,
          "internalType": "address",
          "name": "operator",
          "type": "address"
        },
        {
          "indexed": false,
          "internalType": "bool",
          "name": "approved",
          "type": "bool"
        }
      ],
      "name": "ApprovalForAll",
      "type": "event"
    },
    {
      "anonymous": false,
      "inputs": [],
      "name": "CollectionRevealed",
      "type": "event"
    },
    {
      "anonymous": false,
      "inputs": [],
      "name": "MinterApprovalLocked",
      "type": "event"
    },
    {
      "anonymous": false,
      "inputs": [],
      "name": "MinterApprovalUnlocked",
      "type": "event"
    },
    {
      "anonymous": false,
      "inputs": [
        {
          "indexed": true,
          "internalType": "address",
          "name": "previousOwner",
          "type": "address"
        },
        {
          "indexed": true,
          "internalType": "address",
          "name": "newOwner",
          "type": "address"
        }
      ],
      "name": "OwnershipTransferred",
      "type": "event"
    },
    {
      "anonymous": false,
      "inputs": [
        {
          "indexed": true,
          "internalType": "address",
          "name": "minter",
          "type": "address"
        },
        {
          "indexed": true,
          "internalType": "uint256",
          "name": "tokenId",
          "type": "uint256"
        },
        {
          "indexed": false,
          "internalType": "uint256",
          "name": "amount",
          "type": "uint256"
        }
      ],
      "name": "PrizeMinted",
      "type": "event"
    },
    {
      "anonymous": false,
      "inputs": [
        {
          "indexed": false,
          "internalType": "uint256",
          "name": "price",
          "type": "uint256"
        },
        {
          "indexed": false,
          "internalType": "uint256",
          "name": "maxPerWallet",
          "type": "uint256"
        }
      ],
      "name": "PublicSaleConfigured",
      "type": "event"
    },
    {
      "anonymous": false,
      "inputs": [
        {
          "indexed": false,
          "internalType": "bool",
          "name": "isActive",
          "type": "bool"
        }
      ],
      "name": "SaleStateChanged",
      "type": "event"
    },
    {
      "anonymous": false,
      "inputs": [
        {
          "indexed": true,
          "internalType": "address",
          "name": "operator",
          "type": "address"
        },
        {
          "indexed": true,
          "internalType": "address",
          "name": "from",
          "type": "address"
        },
        {
          "indexed": true,
          "internalType": "address",
          "name": "to",
          "type": "address"
        },
        {
          "indexed": false,
          "internalType": "uint256[]",
          "name": "ids",
          "type": "uint256[]"
        },
        {
          "indexed": false,
          "internalType": "uint256[]",
          "name": "values",
          "type": "uint256[]"
        }
      ],
      "name": "TransferBatch",
      "type": "event"
    },
    {
      "anonymous": false,
      "inputs": [
        {
          "indexed": true,
          "internalType": "address",
          "name": "operator",
          "type": "address"
        },
        {
          "indexed": true,
          "internalType": "address",
          "name": "from",
          "type": "address"
        },
        {
          "indexed": true,
          "internalType": "address",
          "name": "to",
          "type": "address"
        },
        {
          "indexed": false,
          "internalType": "uint256",
          "name": "id",
          "type": "uint256"
        },
        {
          "indexed": false,
          "internalType": "uint256",
          "name": "value",
          "type": "uint256"
        }
      ],
      "name": "TransferSingle",
      "type": "event"
    },
    {
      "anonymous": false,
      "inputs": [
        {
          "indexed": false,
          "internalType": "string",
          "name": "value",
          "type": "string"
        },
        {
          "indexed": true,
          "internalType": "uint256",
          "name": "id",
          "type": "uint256"
        }
      ],
      "name": "URI",
      "type": "event"
    },
    {
      "inputs": [
        {
          "internalType": "uint256",
          "name": "id",
          "type": "uint256"
        }
      ],
      "name": "availableSupply",
      "outputs": [
        {
          "internalType": "uint256",
          "name": "",
          "type": "uint256"
        }
      ],
      "stateMutability": "view",
      "type": "function"
    },
    {
      "inputs": [
        {
          "internalType": "address",
          "name": "account",
          "type": "address"
        },
        {
          "internalType": "uint256",
          "name": "id",
          "type": "uint256"
        }
      ],
      "name": "balanceOf",
      "outputs": [
        {
          "internalType": "uint256",
          "name": "",
          "type": "uint256"
        }
      ],
      "stateMutability": "view",
      "type": "function"
    },
    {
      "inputs": [
        {
          "internalType": "address[]",
          "name": "accounts",
          "type": "address[]"
        },
        {
          "internalType": "uint256[]",
          "name": "ids",
          "type": "uint256[]"
        }
      ],
      "name": "balanceOfBatch",
      "outputs": [
        {
          "internalType": "uint256[]",
          "name": "",
          "type": "uint256[]"
        }
      ],
      "stateMutability": "view",
      "type": "function"
    },
    {
      "inputs": [
        {
          "internalType": "uint256",
          "name": "_mintPrice",
          "type": "uint256"
        },
        {
          "internalType": "uint256",
          "name": "_maxMintPerWallet",
          "type": "uint256"
        }
      ],
      "name": "configurePublicSale",
      "outputs": [],
      "stateMutability": "nonpayable",
      "type": "function"
    },
    {
      "inputs": [
        {
          "internalType": "address",
          "name": "to",
          "type": "address"
        },
        {
          "internalType": "uint256",
          "name": "id",
          "type": "uint256"
        },
        {
          "internalType": "uint256",
          "name": "quantity",
          "type": "uint256"
        }
      ],
      "name": "creatorMint",
      "outputs": [],
      "stateMutability": "nonpayable",
      "type": "function"
    },
    {
      "inputs": [],
      "name": "creatorMintedCount",
      "outputs": [
        {
          "internalType": "uint256",
          "name": "",
          "type": "uint256"
        }
      ],
      "stateMutability": "view",
      "type": "function"
    },
    {
      "inputs": [],
      "name": "factorySignature",
      "outputs": [
        {
          "internalType": "bytes32",
          "name": "",
          "type": "bytes32"
        }
      ],
      "stateMutability": "view",
      "type": "function"
    },
    {
      "inputs": [
        {
          "internalType": "string",
          "name": "uri_",
          "type": "string"
        },
        {
          "internalType": "address",
          "name": "initialOwner",
          "type": "address"
        },
        {
          "internalType": "uint256",
          "name": "_royaltyPercentage",
          "type": "uint256"
        },
        {
          "internalType": "address",
          "name": "_royaltyRecipient",
          "type": "address"
        },
        {
          "internalType": "bytes32",
          "name": "_factorySignature",
          "type": "bytes32"
        },
        {
          "internalType": "address",
          "name": "_raffleManager",
          "type": "address"
        },
        {
          "internalType": "uint256",
          "name": "_prizeTokenId",
          "type": "uint256"
        },
        {
          "internalType": "uint256",
          "name": "_prizeMaxSupply",
          "type": "uint256"
        },
        {
          "internalType": "enum PrizeTypes.RevealType",
          "name": "_revealType",
          "type": "uint8"
        },
        {
          "internalType": "string",
          "name": "_unrevealedURI",
          "type": "string"
        },
        {
          "internalType": "uint256",
          "name": "_revealTime",
          "type": "uint256"
        },
        {
          "internalType": "address",
          "name": "preApprovedMinter",
          "type": "address"
        }
      ],
      "name": "initialize",
      "outputs": [],
      "stateMutability": "nonpayable",
      "type": "function"
    },
    {
      "inputs": [
        {
          "internalType": "address",
          "name": "account",
          "type": "address"
        },
        {
          "internalType": "address",
          "name": "operator",
          "type": "address"
        }
      ],
      "name": "isApprovedForAll",
      "outputs": [
        {
          "internalType": "bool",
          "name": "",
          "type": "bool"
        }
      ],
      "stateMutability": "view",
      "type": "function"
    },
    {
      "inputs": [],
      "name": "isGenuineProtocolContract",
      "outputs": [
        {
          "internalType": "bool",
          "name": "",
          "type": "bool"
        }
      ],
      "stateMutability": "view",
      "type": "function"
    },
    {
      "inputs": [],
      "name": "isRevealed",
      "outputs": [
        {
          "internalType": "bool",
          "name": "",
          "type": "bool"
        }
      ],
      "stateMutability": "view",
      "type": "function"
    },
    {
      "inputs": [],
      "name": "lockMinterApproval",
      "outputs": [],
      "stateMutability": "nonpayable",
      "type": "function"
    },
    {
      "inputs": [],
      "name": "maxMintPerWallet",
      "outputs": [
        {
          "internalType": "uint256",
          "name": "",
          "type": "uint256"
        }
      ],
      "stateMutability": "view",
      "type": "function"
    },
    {
      "inputs": [
        {
          "internalType": "uint256",
          "name": "",
          "type": "uint256"
        }
      ],
      "name": "maxSupply",
      "outputs": [
        {
          "internalType": "uint256",
          "name": "",
          "type": "uint256"
        }
      ],
      "stateMutability": "view",
      "type": "function"
    },
    {
      "inputs": [
        {
          "internalType": "address",
          "name": "to",
          "type": "address"
        },
        {
          "internalType": "uint256",
          "name": "id",
          "type": "uint256"
        },
        {
          "internalType": "uint256",
          "name": "amount",
          "type": "uint256"
        }
      ],
      "name": "mint",
      "outputs": [],
      "stateMutability": "nonpayable",
      "type": "function"
    },
    {
      "inputs": [
        {
          "internalType": "address",
          "name": "to",
          "type": "address"
        },
        {
          "internalType": "uint256",
          "name": "id",
          "type": "uint256"
        },
        {
          "internalType": "uint256",
          "name": "quantity",
          "type": "uint256"
        },
        {
          "internalType": "uint256",
          "name": "amountPerMint",
          "type": "uint256"
        }
      ],
      "name": "mintMultiple",
      "outputs": [],
      "stateMutability": "nonpayable",
      "type": "function"
    },
    {
      "inputs": [],
      "name": "mintPrice",
      "outputs": [
        {
          "internalType": "uint256",
          "name": "",
          "type": "uint256"
        }
      ],
      "stateMutability": "view",
      "type": "function"
    },
    {
      "inputs": [],
      "name": "minter",
      "outputs": [
        {
          "internalType": "address",
          "name": "",
          "type": "address"
        }
      ],
      "stateMutability": "view",
      "type": "function"
    },
    {
      "inputs": [],
      "name": "minterLocked",
      "outputs": [
        {
          "internalType": "bool",
          "name": "",
          "type": "bool"
        }
      ],
      "stateMutability": "view",
      "type": "function"
    },
    {
      "inputs": [
        {
          "internalType": "address",
          "name": "",
          "type": "address"
        },
        {
          "internalType": "address",
          "name": "",
          "type": "address"
        },
        {
          "internalType": "uint256[]",
          "name": "",
          "type": "uint256[]"
        },
        {
          "internalType": "uint256[]",
          "name": "",
          "type": "uint256[]"
        },
        {
          "internalType": "bytes",
          "name": "",
          "type": "bytes"
        }
      ],
      "name": "onERC1155BatchReceived",
      "outputs": [
        {
          "internalType": "bytes4",
          "name": "",
          "type": "bytes4"
        }
      ],
      "stateMutability": "pure",
      "type": "function"
    },
    {
      "inputs": [
        {
          "internalType": "address",
          "name": "",
          "type": "address"
        },
        {
          "internalType": "address",
          "name": "",
          "type": "address"
        },
        {
          "internalType": "uint256",
          "name": "",
          "type": "uint256"
        },
        {
          "internalType": "uint256",
          "name": "",
          "type": "uint256"
        },
        {
          "internalType": "bytes",
          "name": "",
          "type": "bytes"
        }
      ],
      "name": "onERC1155Received",
      "outputs": [
        {
          "internalType": "bytes4",
          "name": "",
          "type": "bytes4"
        }
      ],
      "stateMutability": "pure",
      "type": "function"
    },
    {
      "inputs": [],
      "name": "owner",
      "outputs": [
        {
          "internalType": "address",
          "name": "",
          "type": "address"
        }
      ],
      "stateMutability": "view",
      "type": "function"
    },
    {
      "inputs": [
        {
          "internalType": "uint256",
          "name": "id",
          "type": "uint256"
        },
        {
          "internalType": "uint256",
          "name": "quantity",
          "type": "uint256"
        }
      ],
      "name": "publicMint",
      "outputs": [],
      "stateMutability": "payable",
      "type": "function"
    },
    {
      "inputs": [],
      "name": "raffleManager",
      "outputs": [
        {
          "internalType": "address",
          "name": "",
          "type": "address"
        }
      ],
      "stateMutability": "view",
      "type": "function"
    },
    {
      "inputs": [
        {
          "internalType": "address",
          "name": "newMinter",
          "type": "address"
        }
      ],
      "name": "reassignAndLockMinter",
      "outputs": [],
      "stateMutability": "nonpayable",
      "type": "function"
    },
    {
      "inputs": [],
      "name": "renounceOwnership",
      "outputs": [],
      "stateMutability": "nonpayable",
      "type": "function"
    },
    {
      "inputs": [],
      "name": "reveal",
      "outputs": [],
      "stateMutability": "nonpayable",
      "type": "function"
    },
    {
      "inputs": [],
      "name": "revealTime",
      "outputs": [
        {
          "internalType": "uint256",
          "name": "",
          "type": "uint256"
        }
      ],
      "stateMutability": "view",
      "type": "function"
    },
    {
      "inputs": [],
      "name": "revealType",
      "outputs": [
        {
          "internalType": "enum PrizeTypes.RevealType",
          "name": "",
          "type": "uint8"
        }
      ],
      "stateMutability": "view",
      "type": "function"
    },
    {
      "inputs": [
        {
          "internalType": "uint256",
          "name": "",
          "type": "uint256"
        },
        {
          "internalType": "uint256",
          "name": "salePrice",
          "type": "uint256"
        }
      ],
      "name": "royaltyInfo",
      "outputs": [
        {
          "internalType": "address",
          "name": "",
          "type": "address"
        },
        {
          "internalType": "uint256",
          "name": "",
          "type": "uint256"
        }
      ],
      "stateMutability": "view",
      "type": "function"
    },
    {
      "inputs": [],
      "name": "royaltyPercentage",
      "outputs": [
        {
          "internalType": "uint256",
          "name": "",
          "type": "uint256"
        }
      ],
      "stateMutability": "view",
      "type": "function"
    },
    {
      "inputs": [],
      "name": "royaltyRecipient",
      "outputs": [
        {
          "internalType": "address",
          "name": "",
          "type": "address"
        }
      ],
      "stateMutability": "view",
      "type": "function"
    },
    {
      "inputs": [
        {
          "internalType": "address",
          "name": "from",
          "type": "address"
        },
        {
          "internalType": "address",
          "name": "to",
          "type": "address"
        },
        {
          "internalType": "uint256[]",
          "name": "ids",
          "type": "uint256[]"
        },
        {
          "internalType": "uint256[]",
          "name": "amounts",
          "type": "uint256[]"
        },
        {
          "internalType": "bytes",
          "name": "data",
          "type": "bytes"
        }
      ],
      "name": "safeBatchTransferFrom",
      "outputs": [],
      "stateMutability": "nonpayable",
      "type": "function"
    },
    {
      "inputs": [
        {
          "internalType": "address",
          "name": "from",
          "type": "address"
        },
        {
          "internalType": "address",
          "name": "to",
          "type": "address"
        },
        {
          "internalType": "uint256",
          "name": "id",
          "type": "uint256"
        },
        {
          "internalType": "uint256",
          "name": "amount",
          "type": "uint256"
        },
        {
          "internalType": "bytes",
          "name": "data",
          "type": "bytes"
        }
      ],
      "name": "safeTransferFrom",
      "outputs": [],
      "stateMutability": "nonpayable",
      "type": "function"
    },
    {
      "inputs": [],
      "name": "saleIsActive",
      "outputs": [
        {
          "internalType": "bool",
          "name": "",
          "type": "bool"
        }
      ],
      "stateMutability": "view",
      "type": "function"
    },
    {
      "inputs": [
        {
          "internalType": "address",
          "name": "operator",
          "type": "address"
        },
        {
          "internalType": "bool",
          "name": "approved",
          "type": "bool"
        }
      ],
      "name": "setApprovalForAll",
      "outputs": [],
      "stateMutability": "nonpayable",
      "type": "function"
    },
    {
      "inputs": [
        {
          "internalType": "address",
          "name": "_minter",
          "type": "address"
        },
        {
          "internalType": "bool",
          "name": "approved",
          "type": "bool"
        }
      ],
      "name": "setMinterApproval",
      "outputs": [],
      "stateMutability": "nonpayable",
      "type": "function"
    },
    {
      "inputs": [
        {
          "internalType": "uint256",
          "name": "_royaltyPercentage",
          "type": "uint256"
        },
        {
          "internalType": "address",
          "name": "_royaltyRecipient",
          "type": "address"
        }
      ],
      "name": "setRoyalty",
      "outputs": [],
      "stateMutability": "nonpayable",
      "type": "function"
    },
    {
      "inputs": [
        {
          "internalType": "bytes4",
          "name": "interfaceId",
          "type": "bytes4"
        }
      ],
      "name": "supportsInterface",
      "outputs": [
        {
          "internalType": "bool",
          "name": "",
          "type": "bool"
        }
      ],
      "stateMutability": "view",
      "type": "function"
    },
    {
      "inputs": [],
      "name": "toggleSaleState",
      "outputs": [],
      "stateMutability": "nonpayable",
      "type": "function"
    },
    {
      "inputs": [
        {
          "internalType": "uint256",
          "name": "",
          "type": "uint256"
        }
      ],
      "name": "totalSupply",
      "outputs": [
        {
          "internalType": "uint256",
          "name": "",
          "type": "uint256"
        }
      ],
      "stateMutability": "view",
      "type": "function"
    },
    {
      "inputs": [
        {
          "internalType": "address",
          "name": "newOwner",
          "type": "address"
        }
      ],
      "name": "transferOwnership",
      "outputs": [],
      "stateMutability": "nonpayable",
      "type": "function"
    },
    {
      "inputs": [],
      "name": "unlockMinterApproval",
      "outputs": [],
      "stateMutability": "nonpayable",
      "type": "function"
    },
    {
      "inputs": [],
      "name": "unrevealedURI",
      "outputs": [
        {
          "internalType": "string",
          "name": "",
          "type": "string"
        }
      ],
      "stateMutability": "view",
      "type": "function"
    },
    {
      "inputs": [
        {
          "internalType": "uint256",
          "name": "",
          "type": "uint256"
        }
      ],
      "name": "uri",
      "outputs": [
        {
          "internalType": "string",
          "name": "",
          "type": "string"
        }
      ],
      "stateMutability": "view",
      "type": "function"
    },
    {
      "inputs": [
        {
          "internalType": "address",
          "name": "",
          "type": "address"
        },
        {
          "internalType": "uint256",
          "name": "",
          "type": "uint256"
        }
      ],
      "name": "walletMintedCount",
      "outputs": [
        {
          "internalType": "uint256",
          "name": "",
          "type": "uint256"
        }
      ],
      "stateMutability": "view",
      "type": "function"
    },
    {
      "inputs": [],
      "name": "withdraw",
      "outputs": [],
      "stateMutability": "nonpayable",
      "type": "function"
    }
  ],
  "bytecode": "0x6080346200013057602081016001600160401b038111828210176200011a5760405260008091526002546001908181811c911680156200010f575b6020821014620000fb57601f8111620000ad575b50600282905560038054336001600160a01b031982168117909255604051936001600160a01b03909116907f8be0079c531659141344cd1fd0a4f28419497f9722a3daafe3b4186f6b6457e09080a36004556132a79081620001368239f35b60028352601f0160051c7f405787fa12a823e0f2b7631cc41b3ba8828b3321ca811111fa75cd3aa3bb5ace9081019082905b828110620000ef5750506200004e565b848155018290620000df565b634e487b7160e01b83526022600452602483fd5b90607f16906200003a565b634e487b7160e01b600052604160045260246000fd5b600080fdfe6080604052600436101561001257600080fd5b60003560e01c8062fdd58e146125aa57806301ffc9a71461250b57806307546172146124de5780630de54ba01461244d5780630e89341c14612431578063156e29f6146123e35780631c382589146122255780631d40445014611cb757806323b934b214611bc95780632a55205a14611b8f5780632eb2c2d61461185c5780633ccfd60b1461176e57806340e3276b146117165780634c00de82146116ed5780634d991b71146116cf5780634e1273f41461153157806353cb5d511461133357806354214f69146113105780636817c76c146112f25780636f88bd8a146112d45780637035bf18146112a0578063715018a61461124357806372b308fa14611186578063869f75941461115a5780638a71bb2d1461113c5780638da5cb5b14611113578063968c063a1461101457806398ae99a814610d7b578063a22cb46514610caa578063a2af294f14610c80578063a475b5dd14610b06578063aa6527d914610add578063b228d92514610abf578063ba829d7114610aa1578063bc197c8114610a16578063bcaa7f0014610845578063bd85b03914610819578063cc54cce3146107f3578063d5c32ca4146107cd578063daaeec86146106f5578063dc817c2e14610640578063e377b67c146105f8578063e985e9c5146105a2578063eb8d24441461057c578063f23a6e6114610526578063f242432a146102b45763f2fde38b1461022057600080fd5b346102af5760203660031901126102af576102396125d1565b610241612948565b6001600160a01b0381161561025b57610259906129a0565b005b60405162461bcd60e51b815260206004820152602660248201527f4f776e61626c653a206e6577206f776e657220697320746865207a65726f206160448201526564647265737360d01b6064820152608490fd5b600080fd5b346102af5760a03660031901126102af576102cd6125d1565b6102d56125e7565b906064356044356084356001600160401b0381116102af576102fb9036906004016126ed565b6001600160a01b039384169333851480156104fd575b61031a90612abd565b8516610327811515612b20565b61033083612d33565b5061033a84612d33565b50826000526020956000875260406000208660005287528460406000205461036482821015612b7a565b85600052600089526040600020886000528952036040600020558360005260008752604060002082600052875260406000206103a1868254612bd9565b90558186604051868152878a8201527fc3d58168c5ae7397731d063d5bbf3d657854427343f4c083240f7aacaa2d0f6260403392a43b6103dd57005b61042193600087946040519687958694859363f23a6e6160e01b9b8c865233600487015260248601526044850152606484015260a0608484015260a483019061262c565b03925af1600091816104ce575b506104a4575050600190610440612c4f565b6308c379a01461046f575b5061045257005b60405162461bcd60e51b81528061046b60048201612cde565b0390fd5b610477612c6d565b9081610483575061044b565b61046b60405192839262461bcd60e51b84526004840152602483019061262c565b6001600160e01b0319161490506102595760405162461bcd60e51b81528061046b60048201612c06565b6104ef919250843d86116104f6575b6104e781836126b1565b810190612be6565b908461042e565b503d6104dd565b5084600052600160205260406000203360005260205261031a60ff604060002054169050610311565b346102af5760a03660031901126102af5761053f6125d1565b506105486125e7565b506084356001600160401b0381116102af5761056890369060040161291b565b505060405163f23a6e6160e01b8152602090f35b346102af5760003660031901126102af57602060ff600e5460b01c166040519015158152f35b346102af5760403660031901126102af576105bb6125d1565b6105c36125e7565b9060018060a01b03809116600052600160205260406000209116600052602052602060ff604060002054166040519015158152f35b346102af5760403660031901126102af576001600160a01b036106196125d1565b16600052601160205260406000206024356000526020526020604060002054604051908152f35b346102af5760003660031901126102af57610659612948565b600e54600881901c6001600160a01b0316156106a65760ff60a81b1916600160a81b17600e557fd5cb2e985e95fd394547f9c7ee44d15aeb87738279930d016adf6a6c3f1a25c1600080a1005b60405162461bcd60e51b815260206004820152602160248201527f43616e6e6f74206c6f636b2061207a65726f2061646472657373206d696e74656044820152603960f91b6064820152608490fd5b346102af5760003660031901126102af5761070e612948565b600e54600881901c6001600160a01b03166107765760207fe333f8a36ee86e754548af2d6f50c73ff0d501e22e6c784662123dbbe493c6029160ff60b01b60ff8260b01c161560b01b169060ff60b01b19161780600e5560ff6040519160b01c1615158152a1005b60405162461bcd60e51b815260206004820152602960248201527f43616e6e6f7420746f67676c652073616c65207768696c65207469656420746f604482015268206120726166666c6560b81b6064820152608490fd5b346102af5760203660031901126102af5760206107eb6004356131ff565b604051908152f35b346102af5760003660031901126102af57602060ff600e5460a81c166040519015158152f35b346102af5760203660031901126102af57600435600052600a6020526020604060002054604051908152f35b346102af5760003660031901126102af5761085e612948565b600e54600881901c6001600160a01b031680156109db5760206004916040519283809263c19d93fb60e01b82525afa9081156109cf57600091610995575b50600981101590816109605760078114918215610987575b8215610976575b821561094f575b5050156108fe57610100600160b01b031916600e557f5e7f52ff86abf7b572123888a9e67a9ff6c324bc8cf6217f0ee997b28531fa8e600080a1005b60405162461bcd60e51b815260206004820152602360248201527f526166666c65206e6f7420696e20612073616665207465726d696e616c20737460448201526261746560e81b6064820152608490fd5b9091506109605760081482806108c2565b634e487b7160e01b600052602160045260246000fd5b8092506109605760068114916108bb565b5060058114915060006108b4565b90506020813d82116109c7575b816109af602093836126b1565b810103126102af575160098110156102af578261089c565b3d91506109a2565b6040513d6000823e3d90fd5b60405162461bcd60e51b81526020600482015260136024820152724e6f206d696e74657220746f20756e6c6f636b60681b6044820152606490fd5b346102af5760a03660031901126102af57610a2f6125d1565b50610a386125e7565b506001600160401b036044358181116102af57610a599036906004016128eb565b50506064358181116102af57610a739036906004016128eb565b50506084359081116102af57610a8d90369060040161291b565b505060405163bc197c8160e01b8152602090f35b346102af5760003660031901126102af576020600d54604051908152f35b346102af5760003660031901126102af576020601054604051908152f35b346102af5760003660031901126102af576008546040516001600160a01b039091168152602090f35b346102af5760003660031901126102af57610b1f612948565b600e5460ff8116610c3b5760ff600b541660038110156109605760028103610bc35750600d544210610b7e576001905b60ff191617600e557f4884a1e8d033385ee80fa3d769d1ba3c44e18291db0f726e436a01997d3df36a600080a1005b60405162461bcd60e51b815260206004820152601e60248201527f52657665616c2074696d6520686173206e6f74207965742070617373656400006044820152606490fd5b15610bd057600190610b4f565b60405162461bcd60e51b815260206004820152603e60248201527f496e7374616e742072657665616c20636f6c6c656374696f6e7320646f206e6f60448201527f74206e65656420746f206265206d616e75616c6c792072657665616c656400006064820152608490fd5b60405162461bcd60e51b815260206004820152601e60248201527f436f6c6c656374696f6e20697320616c72656164792072657665616c656400006044820152606490fd5b346102af5760003660031901126102af5760ff600b54166040516003821015610960576020918152f35b346102af57610cb8366125fd565b6001600160a01b0390911690338214610d245733600052600160205260406000208260005260205260406000209015159060ff1981541660ff83161790556040519081527f17307eab39ab6107e8899845ad3d59bd9653f200f220920489ca2b5937696c3160203392a3005b60405162461bcd60e51b815260206004820152602960248201527f455243313135353a2073657474696e6720617070726f76616c20737461747573604482015268103337b91039b2b63360b91b6064820152608490fd5b610d8436612734565b610d8c612f52565b600e5460ff8160b01c1615610fcf5760081c6001600160a01b0316610f78578015610f3357610dbd81600f546131a0565b3403610eee57336000526020601181526040600020836000528152610de782604060002054612bd9565b60105410610eaa577faafa1dbc87d0d4fc4b41b7ea689f27064944bce2e8d5dd922ba7c35a463606d89083600052600a8152610e40610e2b84604060002054612bd9565b856000526009835260406000205410156131b3565b336000526011815260406000208460005281526040600020610e63848254612bd9565b905583600052600a81526040600020610e7d848254612bd9565b9055610e9a604051610e8e81612696565b60008152848633612fa8565b6040519283523392a36001600455005b6064906040519062461bcd60e51b82526004820152601c60248201527f45786365656473206d6178206d696e7473207065722077616c6c6574000000006044820152fd5b60405162461bcd60e51b815260206004820152601860248201527f496e636f7272656374207061796d656e7420616d6f756e7400000000000000006044820152606490fd5b60405162461bcd60e51b815260206004820152601f60248201527f5175616e74697479206d7573742062652067726561746572207468616e2030006044820152606490fd5b60405162461bcd60e51b815260206004820152602960248201527f43616e6e6f74207075626c6963206d696e74207768696c65207469656420746f604482015268206120726166666c6560b81b6064820152608490fd5b60405162461bcd60e51b815260206004820152601960248201527f5075626c69632073616c65206973206e6f7420616374697665000000000000006044820152606490fd5b346102af5760803660031901126102af5761102d6125d1565b60243590611039612f52565b61105160018060a01b03600e5460081c163314612e83565b6110e06110626064356044356131a0565b9183600052600960205261107c6040600020541515612ec5565b83600052600a6020526110ad61109784604060002054612bd9565b8560005260096020526040600020541015612f11565b83600052600a60205260406000206110c6848254612bd9565b90558284604051926110d784612696565b60008452612fa8565b6040519081527faafa1dbc87d0d4fc4b41b7ea689f27064944bce2e8d5dd922ba7c35a463606d860203392a36001600455005b346102af5760003660031901126102af576003546040516001600160a01b039091168152602090f35b346102af5760003660031901126102af576020600654604051908152f35b346102af5760203660031901126102af5760043560005260096020526020604060002054604051908152f35b346102af5761119436612734565b61119c612948565b600e5460081c6001600160a01b03166111e957816040917f37cd71faac1e03245089e1f80709a8db3925386e5e5f01e3958dafa369a34b3693600f558060105582519182526020820152a1005b60405162461bcd60e51b815260206004820152602c60248201527f43616e6e6f7420636f6e6669677572652073616c65207768696c65207469656460448201526b20746f206120726166666c6560a01b6064820152608490fd5b346102af5760003660031901126102af5761125c612948565b600380546001600160a01b031981169091556000906001600160a01b03167f8be0079c531659141344cd1fd0a4f28419497f9722a3daafe3b4186f6b6457e08280a3005b346102af5760003660031901126102af576112d06112bc61282d565b60405191829160208352602083019061262c565b0390f35b346102af5760003660031901126102af576020600554604051908152f35b346102af5760003660031901126102af576020600f54604051908152f35b346102af5760003660031901126102af57602060ff600e54166040519015158152f35b346102af576113413661266c565b611349612948565b611351612f52565b600e546001600160a01b0390600881901c8216159081611522575b50156114c5578260005260209060098252600a60406000205404948315611489576012549561139b8588612bd9565b11611444576113fc8486977faafa1dbc87d0d4fc4b41b7ea689f27064944bce2e8d5dd922ba7c35a463606d89697600052600a86526113f76113e283604060002054612bd9565b8a6000526009885260406000205410156131b3565b612bd9565b60125585600052600a83526040600020611417868254612bd9565b905561143460405161142881612696565b60008152868884612fa8565b6040519485521692a36001600455005b60405162461bcd60e51b815260048101849052601e60248201527f45786365656473203130252063726561746f7220616c6c6f636174696f6e00006044820152606490fd5b60405162461bcd60e51b815260048101849052601460248201527305175616e74697479206d757374206265203e20360641b6044820152606490fd5b60405162461bcd60e51b815260206004820152602f60248201527f43726561746f72206d696e74696e672064697361626c6564207768696c65207460448201526e69656420746f206120726166666c6560881b6064820152608490fd5b60ff915060a81c16158561136c565b346102af5760403660031901126102af576004356001600160401b038082116102af57366023830112156102af5781600401359061156e8261274a565b9261157c60405194856126b1565b82845260209260248486019160051b830101913683116102af57602401905b8282106116b0575050506024359081116102af576115bd903690600401612761565b8251815103611659578251926115d28461274a565b936115e060405195866126b1565b8085526115ef601f199161274a565b01368486013760005b81518110156116425761163d9061162d6001600160a01b0361161a8386612a93565b51166116268387612a93565b51906129e9565b6116378288612a93565b52612a6e565b6115f8565b5050506112d06040519282849384528301906127bf565b60405162461bcd60e51b815260048101839052602960248201527f455243313135353a206163636f756e747320616e6420696473206c656e677468604482015268040dad2e6dac2e8c6d60bb1b6064820152608490fd5b81356001600160a01b03811681036102af57815290840190840161159b565b346102af5760003660031901126102af576020601254604051908152f35b346102af5760003660031901126102af576007546040516001600160a01b039091168152602090f35b346102af5760403660031901126102af576004356117326125e7565b9061173b612948565b6117496103e8821115612d68565b600655600780546001600160a01b0319166001600160a01b0392909216919091179055005b346102af5760003660031901126102af57611787612948565b61178f612f52565b478015611820576003546000918291829182916001600160a01b03165af13d1561181b573d6117bd816126d2565b906117cb60405192836126b1565b8152600060203d92013e5b156117e2576001600455005b60405162461bcd60e51b815260206004820152601160248201527015da5d1a191c985dd85b0819985a5b1959607a1b6044820152606490fd5b6117d6565b60405162461bcd60e51b81526020600482015260146024820152734e6f2066756e647320746f20776974686472617760601b6044820152606490fd5b346102af5760031960a0368201126102af576118766125d1565b9061187f6125e7565b906001600160401b03906044358281116102af576118a1903690600401612761565b6064358381116102af576118b9903690600401612761565b926084359081116102af576118d29036906004016126ed565b6001600160a01b03958616959092903387148015611b66575b6118f490612abd565b8251855103611b105785169261190b841515612b20565b60005b83518110156119a4578061192561199f9286612a93565b516119308289612a93565b5190806000526020906000825260406000208c60005282528260406000205461195b82821015612b7a565b82600052600084528d6040600020906000528452036040600020556000526000815260406000209088600052526119986040600020918254612bd9565b9055612a6e565b61190e565b509094939291938287604051604081527f4a39dc06d4c0dbc64b70af90fd698a233a518aa5d07e595d983b8c0526c8f7fb6119e2604083018a6127bf565b918083036020820152806119f733948b6127bf565b0390a43b611a0157005b6000602094611a62611a5397611a4394604051998a988997889663bc197c8160e01b9e8f89523360048a0152602489015260a0604489015260a48801906127bf565b90848783030160648801526127bf565b9184830301608485015261262c565b03925af160009181611af0575b50611ac85750506001611a80612c4f565b6308c379a014611a91575b61045257005b611a99612c6d565b80611aa45750611a8b565b60405162461bcd60e51b81526020600482015290819061046b90602483019061262c565b6001600160e01b031916146102595760405162461bcd60e51b81528061046b60048201612c06565b611b0991925060203d81116104f6576104e781836126b1565b9083611a6f565b60405162461bcd60e51b815260206004820152602860248201527f455243313135353a2069647320616e6420616d6f756e7473206c656e677468206044820152670dad2e6dac2e8c6d60c31b6064820152608490fd5b508660005260016020526040600020336000526020526118f460ff6040600020541690506118eb565b346102af576040611b9f36612734565b9050612710611bbc60018060a01b036007541692600654906131a0565b0482519182526020820152f35b346102af5760003660031901126102af5760085460405163d63843cd60e01b81526020916001600160a01b03919083908290600490829086165afa80156109cf578391600091611c8a575b506044600554604051948593849263ea4dae9160e01b84523060048501526024840152165afa9081156109cf57600091611c54575b506040519015158152f35b90508181813d8311611c83575b611c6b81836126b1565b810103126102af575180151581036102af5782611c49565b503d611c61565b611caa9150823d8411611cb0575b611ca281836126b1565b810190612e64565b84611c14565b503d611c98565b346102af576101803660031901126102af576004356001600160401b0381116102af57611ce89036906004016126ed565b611cf06125e7565b906001600160a01b03906064359082821682036102af5760a43583811681036102af5760036101043510156102af57610124356001600160401b0381116102af57611d3f9036906004016126ed565b9484610164351661016435036102af5784600354166121ea576005546121ad57611d6f6103e86044351115612d68565b60e4351561216f5782516001600160401b038111612059578593611d946002546127f3565b601f81116120f5575b50602090601f831160011461207a57611dd59392916000918361206f575b50508160011b916000199060031b1c1916176002556129a0565b604435600655816bffffffffffffffffffffffff60a01b93168360075416176007556084356005551690600854161760085560c435600052600960205260e43560406000205560ff1980600b541660ff610104351617600b556101043515600014611ea3576001919250600e541617600e555b6101643516611e5357005b600e8054610100600160b01b0319166101643560081b610100600160a81b031617600160a81b1790557fd5cb2e985e95fd394547f9c7ee44d15aeb87738279930d016adf6a6c3f1a25c1600080a1005b5081516001600160401b03811161205957611ebf600c546127f3565b601f8111611ff4575b50602092601f8211600114611f725792819293600092611f67575b50508160011b916000199060031b1c191617600c555b60026101043503611e48576101443542811115611f1857600d55611e48565b60405162461bcd60e51b815260206004820152602160248201527f52657665616c2074696d65206d75737420626520696e207468652066757475726044820152606560f81b6064820152608490fd5b015190508380611ee3565b601f19821693600c6000527fdf6966c971051c3d54ec59162606531493a51404a002842f56009d7e5cf4a8c79160005b868110611fdc5750836001959610611fc3575b505050811b01600c55611ef9565b015160001960f88460031b161c19169055838080611fb5565b91926020600181928685015181550194019201611fa2565b600c6000527fdf6966c971051c3d54ec59162606531493a51404a002842f56009d7e5cf4a8c7601f830160051c8101916020841061204f575b601f0160051c01905b8181106120435750611ec8565b60008155600101612036565b909150819061202d565b634e487b7160e01b600052604160045260246000fd5b015190508980611dbb565b906002600052600080516020613252833981519152916000601f198516905b8181106120da5750916001939185611dd5979694106120c1575b505050811b016002556129a0565b015160001960f88460031b161c191690558980806120b3565b8284015185558a985060019094019360209384019301612099565b9091929394506002600052601f830160051c600080516020613252833981519152016020841061215a575b908795949392915b601f820160051c60008051602061325283398151915201811061214b5750611d9d565b60008155889650600101612128565b50600080516020613252833981519152612120565b60405162461bcd60e51b815260206004820152601660248201527504d617820737570706c79206d757374206265203e20360541b6044820152606490fd5b60405162461bcd60e51b815260206004820152601560248201527414da59db985d1d5c9948185b1c9958591e481cd95d605a1b6044820152606490fd5b60405162461bcd60e51b8152602060048201526013602482015272105b1c9958591e481a5b9a5d1a585b1a5e9959606a1b6044820152606490fd5b346102af576020806003193601126102af5761223f6125d1565b600854604051631d4bb73d60e01b815291926001600160a01b0392909182908290600490829087165afa9081156109cf576000916123c6575b50823391160361238c57600e5491808360081c16612336578316156122e45750610100600160b01b03191660089190911b610100600160a81b031617600160a81b17600e557fd5cb2e985e95fd394547f9c7ee44d15aeb87738279930d016adf6a6c3f1a25c1600080a1005b6084906040519062461bcd60e51b82526004820152602560248201527f4e6577206d696e7465722063616e6e6f7420626520746865207a65726f206164604482015264647265737360d81b6064820152fd5b60405162461bcd60e51b815260048101839052602860248201527f436f6e747261637420697320616c72656164792061737369676e656420746f20604482015267309036b4b73a32b960c11b6064820152608490fd5b6064906040519062461bcd60e51b82526004820152601360248201527227b7363c902930b3333632a232b83637bcb2b960691b6044820152fd5b6123dd9150823d8411611cb057611ca281836126b1565b84612278565b346102af576110e06123f43661266c565b91612400939193612f52565b61241860018060a01b03600e5460081c163314612e83565b83600052600960205261107c6040600020541515612ec5565b346102af5760203660031901126102af576112d06112bc612daa565b346102af5761245b366125fd565b90612464612948565b600e549160ff8360a81c166124a4571561249c575b610100600160a81b031990911660089190911b610100600160a81b031617600e55005b506000612479565b60405162461bcd60e51b8152602060048201526012602482015271105c1c1c9bdd985b081a5cc81b1bd8dad95960721b6044820152606490fd5b346102af5760003660031901126102af57600e5460405160089190911c6001600160a01b03168152602090f35b346102af5760203660031901126102af5760043563ffffffff60e01b81168091036102af5760209063152a902d60e11b8114908115612599575b811561255657506040519015158152f35b636cdb3d1360e11b811491508115612588575b8115612577575b5082611c49565b6301ffc9a760e01b14905082612570565b6303a24d0760e21b81149150612569565b6320f88bf360e21b81149150612545565b346102af5760403660031901126102af5760206107eb6125c86125d1565b602435906129e9565b600435906001600160a01b03821682036102af57565b602435906001600160a01b03821682036102af57565b60409060031901126102af576004356001600160a01b03811681036102af579060243580151581036102af5790565b919082519283825260005b848110612658575050826000602080949584010152601f8019910116010190565b602081830181015184830182015201612637565b60609060031901126102af576004356001600160a01b03811681036102af57906024359060443590565b602081019081106001600160401b0382111761205957604052565b90601f801991011681019081106001600160401b0382111761205957604052565b6001600160401b03811161205957601f01601f191660200190565b81601f820112156102af57803590612704826126d2565b9261271260405194856126b1565b828452602083830101116102af57816000926020809301838601378301015290565b60409060031901126102af576004359060243590565b6001600160401b0381116120595760051b60200190565b81601f820112156102af578035916127788361274a565b9261278660405194856126b1565b808452602092838086019260051b8201019283116102af578301905b8282106127b0575050505090565b813581529083019083016127a2565b90815180825260208080930193019160005b8281106127df575050505090565b8351855293810193928101926001016127d1565b90600182811c92168015612823575b602083101461280d57565b634e487b7160e01b600052602260045260246000fd5b91607f1691612802565b60405190600082600c5491612841836127f3565b808352926001908181169081156128c9575060011461286a575b50612868925003836126b1565b565b600c600090815291507fdf6966c971051c3d54ec59162606531493a51404a002842f56009d7e5cf4a8c75b8483106128ae575061286893505081016020013861285b565b81935090816020925483858a01015201910190918592612895565b90506020925061286894915060ff191682840152151560051b8201013861285b565b9181601f840112156102af578235916001600160401b0383116102af576020808501948460051b0101116102af57565b9181601f840112156102af578235916001600160401b0383116102af57602083818601950101116102af57565b6003546001600160a01b0316330361295c57565b606460405162461bcd60e51b815260206004820152602060248201527f4f776e61626c653a2063616c6c6572206973206e6f7420746865206f776e65726044820152fd5b600380546001600160a01b039283166001600160a01b0319821681179092559091167f8be0079c531659141344cd1fd0a4f28419497f9722a3daafe3b4186f6b6457e0600080a3565b6001600160a01b0316908115612a1657600052600060205260406000209060005260205260406000205490565b60405162461bcd60e51b815260206004820152602a60248201527f455243313135353a2061646472657373207a65726f206973206e6f742061207660448201526930b634b21037bbb732b960b11b6064820152608490fd5b6000198114612a7d5760010190565b634e487b7160e01b600052601160045260246000fd5b8051821015612aa75760209160051b010190565b634e487b7160e01b600052603260045260246000fd5b15612ac457565b60405162461bcd60e51b815260206004820152602e60248201527f455243313135353a2063616c6c6572206973206e6f7420746f6b656e206f776e60448201526d195c881bdc88185c1c1c9bdd995960921b6064820152608490fd5b15612b2757565b60405162461bcd60e51b815260206004820152602560248201527f455243313135353a207472616e7366657220746f20746865207a65726f206164604482015264647265737360d81b6064820152608490fd5b15612b8157565b60405162461bcd60e51b815260206004820152602a60248201527f455243313135353a20696e73756666696369656e742062616c616e636520666f60448201526939103a3930b739b332b960b11b6064820152608490fd5b91908201809211612a7d57565b908160209103126102af57516001600160e01b0319811681036102af5790565b60809060208152602860208201527f455243313135353a204552433131353552656365697665722072656a656374656040820152676420746f6b656e7360c01b60608201520190565b60009060033d11612c5c57565b905060046000803e60005160e01c90565b600060443d10612cca57604051600319913d83016004833e81516001600160401b03918282113d602484011117612ccd57818401948551938411612cd5573d85010160208487010111612ccd5750612cca929101602001906126b1565b90565b949350505050565b50949350505050565b60809060208152603460208201527f455243313135353a207472616e7366657220746f206e6f6e2d455243313135356040820152732932b1b2b4bb32b91034b6b83632b6b2b73a32b960611b60608201520190565b60405190604082018281106001600160401b038211176120595760405260018252602082016020368237825115612aa7575290565b15612d6f57565b60405162461bcd60e51b8152602060048201526013602482015272526f79616c747920657863656564732031302560681b6044820152606490fd5b60ff600e5416612dbc57612cca61282d565b604051600254816000612dce836127f3565b80835292600190818116908115612e425750600114612df5575b50612cca925003826126b1565b6002600090815291506000805160206132528339815191525b848310612e275750612cca935050810160200138612de8565b81935090816020925483858901015201910190918492612e0e565b905060209250612cca94915060ff191682840152151560051b82010138612de8565b908160209103126102af57516001600160a01b03811681036102af5790565b15612e8a57565b60405162461bcd60e51b81526020600482015260136024820152722ab730baba3437b934bd32b21036b4b73a32b960691b6044820152606490fd5b15612ecc57565b60405162461bcd60e51b815260206004820152601a60248201527f537570706c79206e6f742073657420666f7220746869732049440000000000006044820152606490fd5b15612f1857565b60405162461bcd60e51b815260206004820152601260248201527145786365656473206d617820737570706c7960701b6044820152606490fd5b600260045414612f63576002600455565b60405162461bcd60e51b815260206004820152601f60248201527f5265656e7472616e637947756172643a207265656e7472616e742063616c6c006044820152606490fd5b9291906001600160a01b038416801561315157612fc482612d33565b50612fce83612d33565b506000928284526020948486526040968786208487528752878620612ff4848254612bd9565b905583868951878152858a8201527fc3d58168c5ae7397731d063d5bbf3d657854427343f4c083240f7aacaa2d0f628b3392a43b613036575b50505050505050565b61307892869286895180968195829463f23a6e6160e01b9a8b85523360048601528560248601526044850152606484015260a0608484015260a483019061262c565b03925af1839181613132575b50613102575050600191613096612c4f565b6308c379a0146130cc575b50506130b557505b3880808080808061302d565b5162461bcd60e51b81528061046b60048201612cde565b6130d4612c6d565b91826130e057506130a1565b8461046b91505192839262461bcd60e51b84526004840152602483019061262c565b6001600160e01b03191603915061311b905057506130a9565b5162461bcd60e51b81528061046b60048201612c06565b61314a919250853d87116104f6576104e781836126b1565b9038613084565b60405162461bcd60e51b815260206004820152602160248201527f455243313135353a206d696e7420746f20746865207a65726f206164647265736044820152607360f81b6064820152608490fd5b81810292918115918404141715612a7d57565b156131ba57565b60405162461bcd60e51b815260206004820152601f60248201527f4d696e74696e6720776f756c6420657863656564206d617820737570706c79006044820152606490fd5b6000908152600a602052604081205490600960205260408120548092101561324c57600a60205260408120548203918211613238575090565b634e487b7160e01b81526011600452602490fd5b90509056fe405787fa12a823e0f2b7631cc41b3ba8828b3321ca811111fa75cd3aa3bb5acea26469706673582212203a6b2edf8908e3c5445f520e1915c86bb6af60df5c8f807dc0bd935c4b096e4c64736f6c63430008130033",
  "linkReferences": {},
  "deployedLinkReferences": {}
}