{
  "_format": "hh-sol-artifact-1",
  "contractName": "ERC721Prize",
  "sourceName": "contracts/ERC721Prize.sol",
  "abi": [
    {
      "inputs": [],
      "stateMutability": "nonpayable",
      "type": "constructor"
    },
    {
      "anonymous": false,
      "inputs": [
        {
          "indexed": true,
          "internalType": "address",
          "name": "owner",
          "type": "address"
        },
        {
          "indexed": true,
          "internalType": "address",
          "name": "approved",
          "type": "address"
        },
        {
          "indexed": true,
          "internalType": "uint256",
          "name": "tokenId",
          "type": "uint256"
        }
      ],
      "name": "Approval",
      "type": "event"
    },
    {
      "anonymous": false,
      "inputs": [
        {
          "indexed": true,
          "internalType": "address",
          "name": "owner",
          "type": "address"
        },
        {
          "indexed": true,
          "internalType": "address",
          "name": "operator",
          "type": "address"
        },
        {
          "indexed": false,
          "internalType": "bool",
          "name": "approved",
          "type": "bool"
        }
      ],
      "name": "ApprovalForAll",
      "type": "event"
    },
    {
      "anonymous": false,
      "inputs": [],
      "name": "CollectionRevealed",
      "type": "event"
    },
    {
      "anonymous": false,
      "inputs": [],
      "name": "MinterApprovalLocked",
      "type": "event"
    },
    {
      "anonymous": false,
      "inputs": [],
      "name": "MinterApprovalUnlocked",
      "type": "event"
    },
    {
      "anonymous": false,
      "inputs": [
        {
          "indexed": true,
          "internalType": "address",
          "name": "previousOwner",
          "type": "address"
        },
        {
          "indexed": true,
          "internalType": "address",
          "name": "newOwner",
          "type": "address"
        }
      ],
      "name": "OwnershipTransferred",
      "type": "event"
    },
    {
      "anonymous": false,
      "inputs": [
        {
          "indexed": true,
          "internalType": "address",
          "name": "winner",
          "type": "address"
        },
        {
          "indexed": false,
          "internalType": "uint256",
          "name": "tokenId",
          "type": "uint256"
        }
      ],
      "name": "PrizeMinted",
      "type": "event"
    },
    {
      "anonymous": false,
      "inputs": [
        {
          "indexed": false,
          "internalType": "uint256",
          "name": "price",
          "type": "uint256"
        },
        {
          "indexed": false,
          "internalType": "uint256",
          "name": "maxPerWallet",
          "type": "uint256"
        }
      ],
      "name": "PublicSaleConfigured",
      "type": "event"
    },
    {
      "anonymous": false,
      "inputs": [
        {
          "indexed": false,
          "internalType": "bool",
          "name": "isActive",
          "type": "bool"
        }
      ],
      "name": "SaleStateChanged",
      "type": "event"
    },
    {
      "anonymous": false,
      "inputs": [
        {
          "indexed": true,
          "internalType": "address",
          "name": "from",
          "type": "address"
        },
        {
          "indexed": true,
          "internalType": "address",
          "name": "to",
          "type": "address"
        },
        {
          "indexed": true,
          "internalType": "uint256",
          "name": "tokenId",
          "type": "uint256"
        }
      ],
      "name": "Transfer",
      "type": "event"
    },
    {
      "inputs": [
        {
          "internalType": "address",
          "name": "to",
          "type": "address"
        },
        {
          "internalType": "uint256",
          "name": "tokenId",
          "type": "uint256"
        }
      ],
      "name": "approve",
      "outputs": [],
      "stateMutability": "nonpayable",
      "type": "function"
    },
    {
      "inputs": [],
      "name": "availableSupply",
      "outputs": [
        {
          "internalType": "uint256",
          "name": "",
          "type": "uint256"
        }
      ],
      "stateMutability": "view",
      "type": "function"
    },
    {
      "inputs": [
        {
          "internalType": "address",
          "name": "owner",
          "type": "address"
        }
      ],
      "name": "balanceOf",
      "outputs": [
        {
          "internalType": "uint256",
          "name": "",
          "type": "uint256"
        }
      ],
      "stateMutability": "view",
      "type": "function"
    },
    {
      "inputs": [
        {
          "internalType": "uint256",
          "name": "_mintPrice",
          "type": "uint256"
        },
        {
          "internalType": "uint256",
          "name": "_maxMintPerWallet",
          "type": "uint256"
        }
      ],
      "name": "configurePublicSale",
      "outputs": [],
      "stateMutability": "nonpayable",
      "type": "function"
    },
    {
      "inputs": [
        {
          "internalType": "address",
          "name": "to",
          "type": "address"
        },
        {
          "internalType": "uint256",
          "name": "quantity",
          "type": "uint256"
        }
      ],
      "name": "creatorMint",
      "outputs": [],
      "stateMutability": "nonpayable",
      "type": "function"
    },
    {
      "inputs": [],
      "name": "creatorMintedCount",
      "outputs": [
        {
          "internalType": "uint256",
          "name": "",
          "type": "uint256"
        }
      ],
      "stateMutability": "view",
      "type": "function"
    },
    {
      "inputs": [],
      "name": "factorySignature",
      "outputs": [
        {
          "internalType": "bytes32",
          "name": "",
          "type": "bytes32"
        }
      ],
      "stateMutability": "view",
      "type": "function"
    },
    {
      "inputs": [
        {
          "internalType": "uint256",
          "name": "tokenId",
          "type": "uint256"
        }
      ],
      "name": "getApproved",
      "outputs": [
        {
          "internalType": "address",
          "name": "",
          "type": "address"
        }
      ],
      "stateMutability": "view",
      "type": "function"
    },
    {
      "inputs": [
        {
          "internalType": "string",
          "name": "name_",
          "type": "string"
        },
        {
          "internalType": "string",
          "name": "symbol_",
          "type": "string"
        },
        {
          "internalType": "string",
          "name": "baseURI",
          "type": "string"
        },
        {
          "internalType": "address",
          "name": "initialOwner",
          "type": "address"
        },
        {
          "internalType": "address",
          "name": "_raffleManager",
          "type": "address"
        },
        {
          "internalType": "uint256",
          "name": "_royaltyPercentage",
          "type": "uint256"
        },
        {
          "internalType": "address",
          "name": "_royaltyRecipient",
          "type": "address"
        },
        {
          "internalType": "bytes32",
          "name": "_factorySignature",
          "type": "bytes32"
        },
        {
          "internalType": "uint256",
          "name": "_maxSupply",
          "type": "uint256"
        },
        {
          "internalType": "address",
          "name": "preApprovedMinter",
          "type": "address"
        },
        {
          "internalType": "enum PrizeTypes.RevealType",
          "name": "_revealType",
          "type": "uint8"
        },
        {
          "internalType": "string",
          "name": "_unrevealedBaseURI",
          "type": "string"
        },
        {
          "internalType": "uint256",
          "name": "_revealTime",
          "type": "uint256"
        }
      ],
      "name": "initialize",
      "outputs": [],
      "stateMutability": "nonpayable",
      "type": "function"
    },
    {
      "inputs": [
        {
          "internalType": "address",
          "name": "owner",
          "type": "address"
        },
        {
          "internalType": "address",
          "name": "operator",
          "type": "address"
        }
      ],
      "name": "isApprovedForAll",
      "outputs": [
        {
          "internalType": "bool",
          "name": "",
          "type": "bool"
        }
      ],
      "stateMutability": "view",
      "type": "function"
    },
    {
      "inputs": [],
      "name": "isGenuineProtocolContract",
      "outputs": [
        {
          "internalType": "bool",
          "name": "",
          "type": "bool"
        }
      ],
      "stateMutability": "view",
      "type": "function"
    },
    {
      "inputs": [],
      "name": "isRevealed",
      "outputs": [
        {
          "internalType": "bool",
          "name": "",
          "type": "bool"
        }
      ],
      "stateMutability": "view",
      "type": "function"
    },
    {
      "inputs": [],
      "name": "lockMinterApproval",
      "outputs": [],
      "stateMutability": "nonpayable",
      "type": "function"
    },
    {
      "inputs": [],
      "name": "maxMintPerWallet",
      "outputs": [
        {
          "internalType": "uint256",
          "name": "",
          "type": "uint256"
        }
      ],
      "stateMutability": "view",
      "type": "function"
    },
    {
      "inputs": [],
      "name": "maxSupply",
      "outputs": [
        {
          "internalType": "uint256",
          "name": "",
          "type": "uint256"
        }
      ],
      "stateMutability": "view",
      "type": "function"
    },
    {
      "inputs": [
        {
          "internalType": "address",
          "name": "to",
          "type": "address"
        }
      ],
      "name": "mint",
      "outputs": [
        {
          "internalType": "uint256",
          "name": "",
          "type": "uint256"
        }
      ],
      "stateMutability": "nonpayable",
      "type": "function"
    },
    {
      "inputs": [
        {
          "internalType": "address",
          "name": "to",
          "type": "address"
        },
        {
          "internalType": "uint256",
          "name": "quantity",
          "type": "uint256"
        }
      ],
      "name": "mintMultiple",
      "outputs": [],
      "stateMutability": "nonpayable",
      "type": "function"
    },
    {
      "inputs": [],
      "name": "mintPrice",
      "outputs": [
        {
          "internalType": "uint256",
          "name": "",
          "type": "uint256"
        }
      ],
      "stateMutability": "view",
      "type": "function"
    },
    {
      "inputs": [],
      "name": "minter",
      "outputs": [
        {
          "internalType": "address",
          "name": "",
          "type": "address"
        }
      ],
      "stateMutability": "view",
      "type": "function"
    },
    {
      "inputs": [],
      "name": "minterLocked",
      "outputs": [
        {
          "internalType": "bool",
          "name": "",
          "type": "bool"
        }
      ],
      "stateMutability": "view",
      "type": "function"
    },
    {
      "inputs": [],
      "name": "name",
      "outputs": [
        {
          "internalType": "string",
          "name": "",
          "type": "string"
        }
      ],
      "stateMutability": "view",
      "type": "function"
    },
    {
      "inputs": [
        {
          "internalType": "address",
          "name": "",
          "type": "address"
        },
        {
          "internalType": "address",
          "name": "",
          "type": "address"
        },
        {
          "internalType": "uint256",
          "name": "",
          "type": "uint256"
        },
        {
          "internalType": "bytes",
          "name": "",
          "type": "bytes"
        }
      ],
      "name": "onERC721Received",
      "outputs": [
        {
          "internalType": "bytes4",
          "name": "",
          "type": "bytes4"
        }
      ],
      "stateMutability": "pure",
      "type": "function"
    },
    {
      "inputs": [],
      "name": "owner",
      "outputs": [
        {
          "internalType": "address",
          "name": "",
          "type": "address"
        }
      ],
      "stateMutability": "view",
      "type": "function"
    },
    {
      "inputs": [
        {
          "internalType": "uint256",
          "name": "tokenId",
          "type": "uint256"
        }
      ],
      "name": "ownerOf",
      "outputs": [
        {
          "internalType": "address",
          "name": "",
          "type": "address"
        }
      ],
      "stateMutability": "view",
      "type": "function"
    },
    {
      "inputs": [
        {
          "internalType": "uint256",
          "name": "quantity",
          "type": "uint256"
        }
      ],
      "name": "publicMint",
      "outputs": [],
      "stateMutability": "payable",
      "type": "function"
    },
    {
      "inputs": [],
      "name": "raffleManager",
      "outputs": [
        {
          "internalType": "address",
          "name": "",
          "type": "address"
        }
      ],
      "stateMutability": "view",
      "type": "function"
    },
    {
      "inputs": [
        {
          "internalType": "address",
          "name": "newMinter",
          "type": "address"
        }
      ],
      "name": "reassignAndLockMinter",
      "outputs": [],
      "stateMutability": "nonpayable",
      "type": "function"
    },
    {
      "inputs": [],
      "name": "renounceOwnership",
      "outputs": [],
      "stateMutability": "nonpayable",
      "type": "function"
    },
    {
      "inputs": [],
      "name": "reveal",
      "outputs": [],
      "stateMutability": "nonpayable",
      "type": "function"
    },
    {
      "inputs": [],
      "name": "revealTime",
      "outputs": [
        {
          "internalType": "uint256",
          "name": "",
          "type": "uint256"
        }
      ],
      "stateMutability": "view",
      "type": "function"
    },
    {
      "inputs": [],
      "name": "revealType",
      "outputs": [
        {
          "internalType": "enum PrizeTypes.RevealType",
          "name": "",
          "type": "uint8"
        }
      ],
      "stateMutability": "view",
      "type": "function"
    },
    {
      "inputs": [
        {
          "internalType": "uint256",
          "name": "",
          "type": "uint256"
        },
        {
          "internalType": "uint256",
          "name": "salePrice",
          "type": "uint256"
        }
      ],
      "name": "royaltyInfo",
      "outputs": [
        {
          "internalType": "address",
          "name": "",
          "type": "address"
        },
        {
          "internalType": "uint256",
          "name": "",
          "type": "uint256"
        }
      ],
      "stateMutability": "view",
      "type": "function"
    },
    {
      "inputs": [],
      "name": "royaltyPercentage",
      "outputs": [
        {
          "internalType": "uint256",
          "name": "",
          "type": "uint256"
        }
      ],
      "stateMutability": "view",
      "type": "function"
    },
    {
      "inputs": [],
      "name": "royaltyRecipient",
      "outputs": [
        {
          "internalType": "address",
          "name": "",
          "type": "address"
        }
      ],
      "stateMutability": "view",
      "type": "function"
    },
    {
      "inputs": [
        {
          "internalType": "address",
          "name": "from",
          "type": "address"
        },
        {
          "internalType": "address",
          "name": "to",
          "type": "address"
        },
        {
          "internalType": "uint256",
          "name": "tokenId",
          "type": "uint256"
        }
      ],
      "name": "safeTransferFrom",
      "outputs": [],
      "stateMutability": "nonpayable",
      "type": "function"
    },
    {
      "inputs": [
        {
          "internalType": "address",
          "name": "from",
          "type": "address"
        },
        {
          "internalType": "address",
          "name": "to",
          "type": "address"
        },
        {
          "internalType": "uint256",
          "name": "tokenId",
          "type": "uint256"
        },
        {
          "internalType": "bytes",
          "name": "data",
          "type": "bytes"
        }
      ],
      "name": "safeTransferFrom",
      "outputs": [],
      "stateMutability": "nonpayable",
      "type": "function"
    },
    {
      "inputs": [],
      "name": "saleIsActive",
      "outputs": [
        {
          "internalType": "bool",
          "name": "",
          "type": "bool"
        }
      ],
      "stateMutability": "view",
      "type": "function"
    },
    {
      "inputs": [
        {
          "internalType": "address",
          "name": "operator",
          "type": "address"
        },
        {
          "internalType": "bool",
          "name": "approved",
          "type": "bool"
        }
      ],
      "name": "setApprovalForAll",
      "outputs": [],
      "stateMutability": "nonpayable",
      "type": "function"
    },
    {
      "inputs": [
        {
          "internalType": "address",
          "name": "_minter",
          "type": "address"
        },
        {
          "internalType": "bool",
          "name": "approved",
          "type": "bool"
        }
      ],
      "name": "setMinterApproval",
      "outputs": [],
      "stateMutability": "nonpayable",
      "type": "function"
    },
    {
      "inputs": [
        {
          "internalType": "uint256",
          "name": "_royaltyPercentage",
          "type": "uint256"
        },
        {
          "internalType": "address",
          "name": "_royaltyRecipient",
          "type": "address"
        }
      ],
      "name": "setRoyalty",
      "outputs": [],
      "stateMutability": "nonpayable",
      "type": "function"
    },
    {
      "inputs": [
        {
          "internalType": "bytes4",
          "name": "interfaceId",
          "type": "bytes4"
        }
      ],
      "name": "supportsInterface",
      "outputs": [
        {
          "internalType": "bool",
          "name": "",
          "type": "bool"
        }
      ],
      "stateMutability": "view",
      "type": "function"
    },
    {
      "inputs": [],
      "name": "symbol",
      "outputs": [
        {
          "internalType": "string",
          "name": "",
          "type": "string"
        }
      ],
      "stateMutability": "view",
      "type": "function"
    },
    {
      "inputs": [],
      "name": "toggleSaleState",
      "outputs": [],
      "stateMutability": "nonpayable",
      "type": "function"
    },
    {
      "inputs": [
        {
          "internalType": "uint256",
          "name": "tokenId",
          "type": "uint256"
        }
      ],
      "name": "tokenURI",
      "outputs": [
        {
          "internalType": "string",
          "name": "",
          "type": "string"
        }
      ],
      "stateMutability": "view",
      "type": "function"
    },
    {
      "inputs": [
        {
          "internalType": "address",
          "name": "from",
          "type": "address"
        },
        {
          "internalType": "address",
          "name": "to",
          "type": "address"
        },
        {
          "internalType": "uint256",
          "name": "tokenId",
          "type": "uint256"
        }
      ],
      "name": "transferFrom",
      "outputs": [],
      "stateMutability": "nonpayable",
      "type": "function"
    },
    {
      "inputs": [
        {
          "internalType": "address",
          "name": "newOwner",
          "type": "address"
        }
      ],
      "name": "transferOwnership",
      "outputs": [],
      "stateMutability": "nonpayable",
      "type": "function"
    },
    {
      "inputs": [],
      "name": "unlockMinterApproval",
      "outputs": [],
      "stateMutability": "nonpayable",
      "type": "function"
    },
    {
      "inputs": [],
      "name": "unrevealedBaseURI",
      "outputs": [
        {
          "internalType": "string",
          "name": "",
          "type": "string"
        }
      ],
      "stateMutability": "view",
      "type": "function"
    },
    {
      "inputs": [
        {
          "internalType": "address",
          "name": "",
          "type": "address"
        }
      ],
      "name": "walletMintedCount",
      "outputs": [
        {
          "internalType": "uint256",
          "name": "",
          "type": "uint256"
        }
      ],
      "stateMutability": "view",
      "type": "function"
    },
    {
      "inputs": [],
      "name": "withdraw",
      "outputs": [],
      "stateMutability": "nonpayable",
      "type": "function"
    }
  ],
  "bytecode": "0x6080604052346200032757620000146200032c565b6200001e6200032c565b81519091906001600160401b0380821162000311576000928354906001938483811c931691821562000306575b60209283851014620002f2578190601f948581116200029f575b5083908583116001146200023b5788926200022f575b5050600019600383901b1c191690851b1785555b85519283116200021b5783548481811c9116801562000210575b82821014620001fc57828111620001b4575b50809183116001146200014e575083948293949262000142575b5050600019600383901b1c191690821b1781555b60065560078054336001600160a01b031982168117909255604051926001600160a01b03909116907f8be0079c531659141344cd1fd0a4f28419497f9722a3daafe3b4186f6b6457e09080a361330b9081620003518239f35b015190503880620000d5565b90601f198316958486528286209286905b8882106200019c575050838596971062000182575b505050811b018155620000e9565b015160001960f88460031b161c1916905538808062000174565b8087859682949686015181550195019301906200015f565b8486528186208380860160051c820192848710620001f2575b0160051c019085905b828110620001e6575050620000bb565b878155018590620001d6565b92508192620001cd565b634e487b7160e01b86526022600452602486fd5b90607f1690620000a9565b634e487b7160e01b85526041600452602485fd5b0151905038806200007b565b8880528489208894509190601f1984168a5b878282106200028857505084116200026e575b505050811b0185556200008f565b015160001960f88460031b161c1916905538808062000260565b8385015186558b979095019493840193016200024d565b9091508780528388208580850160051c820192868610620002e8575b918991869594930160051c01915b828110620002d957505062000065565b8a8155859450899101620002c9565b92508192620002bb565b634e487b7160e01b87526022600452602487fd5b92607f16926200004b565b634e487b7160e01b600052604160045260246000fd5b600080fd5b60405190602082016001600160401b0381118382101762000311576040526000825256fe6080604052600436101561001257600080fd5b60003560e01c8063017123ac14611de857806301ffc9a714611d4957806306fdde0314611cb55780630754617214611c8c578063081812fc14611c6e578063095ea7b314611af45780630de54ba014611a6d578063150b7a0214611a04578063182ee4851461184a5780631c3825891461166d5780631cdccaff1461165157806323b872dd1461162d57806323b934b21461153f578063249f851b146115055780632a55205a146114cb5780632db11544146112bd5780633ccfd60b146111f457806340e3276b1461119c57806342842e0e146111695780634c00de82146111405780634d991b711461112257806354214f69146110ff5780636352211e146110cf5780636817c76c146110b15780636a62784214610fbd5780636f88bd8a14610f9f57806370a0823114610f08578063715018a614610eab57806372b308fa14610df15780637ecc2b5614610dce5780638a71bb2d14610db05780638da5cb5b14610d8757806395d89b4114610cb7578063a22cb46514610bf8578063a2af294f14610bce578063a475b5dd14610a54578063aa6527d914610a2b578063b228d92514610a0d578063b3fa4a4c14610930578063b88d4fde146108ab578063ba829d711461088d578063bcaa7f00146106c1578063c87b56dd146104a8578063cc54cce314610482578063d5abeb0114610464578063daaeec86146103a2578063dc817c2e1461034f578063e985e9c5146102f9578063eb8d2444146102d65763f2fde38b1461024257600080fd5b346102d15760203660031901126102d15761025b6126b0565b610263612896565b6001600160a01b0381161561027d5761027b906128ee565b005b60405162461bcd60e51b815260206004820152602660248201527f4f776e61626c653a206e6577206f776e657220697320746865207a65726f206160448201526564647265737360d01b6064820152608490fd5b600080fd5b346102d15760003660031901126102d157602060ff601354166040519015158152f35b346102d15760403660031901126102d1576103126126b0565b61031a6126c6565b9060018060a01b03809116600052600560205260406000209116600052602052602060ff604060002054166040519015158152f35b346102d15760003660031901126102d157610368612896565b600e805460ff60a01b1916600160a01b1790557fd5cb2e985e95fd394547f9c7ee44d15aeb87738279930d016adf6a6c3f1a25c1600080a1005b346102d15760003660031901126102d1576103bb612896565b600e546001600160a01b031661040d577fe333f8a36ee86e754548af2d6f50c73ff0d501e22e6c784662123dbbe493c602602060135460ff8082161516809160ff1916176013556040519015158152a1005b60405162461bcd60e51b815260206004820152602960248201527f43616e6e6f7420746f67676c652073616c65207768696c65207469656420746f604482015268206120726166666c6560b81b6064820152608490fd5b346102d15760003660031901126102d1576020601154604051908152f35b346102d15760003660031901126102d157602060ff600e5460a01c166040519015158152f35b346102d1576020806003193601126102d1576004356000818152600260205260409020546104e0906001600160a01b03161515612937565b816104e9612e7e565b8051909290156106a857600090807a184f03e93ff9f4daa797ed6e38ed64bf6a1f010000000000000000818181101561069a575b5050836d04ee2d6d415b85acef81000000008083101561068e575b5050662386f26fc1000080821015610681575b506305f5e10080821015610674575b5061271080821015610667575b506064811015610659575b600a8091101561064f575b6001808401928160216105a861059287612640565b966105a0604051988961261f565b808852612640565b8689019790601f1901368937860101905b610619575b50505050926105ff92916105f39460405195836105e488955180928880890191016126dc565b840191518093868401906126dc565b0103808452018261261f565b905b6106156040519282849384528301906126ff565b0390f35b600019019083906f181899199a1a9b1b9c1cb0b131b232b360811b8282061a83530491821561064a579190826105b9565b6105be565b916001019161057d565b606460029104920191610572565b6004910492019186610567565b600891049201918661055a565b601091049201918661054b565b93019290048387610538565b60409450049050868061051d565b5050506040516106b781612604565b6000815290610601565b346102d15760003660031901126102d1576106da612896565b600e546001600160a01b03811680156108525760206004916040519283809263c19d93fb60e01b82525afa9081156108465760009161080c575b50600981101590816107d757600781149182156107fe575b82156107ed575b82156107c6575b505015610775576001600160a81b031916600e557f5e7f52ff86abf7b572123888a9e67a9ff6c324bc8cf6217f0ee997b28531fa8e600080a1005b60405162461bcd60e51b815260206004820152602360248201527f526166666c65206e6f7420696e20612073616665207465726d696e616c20737460448201526261746560e81b6064820152608490fd5b9091506107d757600814828061073a565b634e487b7160e01b600052602160045260246000fd5b8092506107d7576006811491610733565b50600581149150600061072c565b90506020813d821161083e575b816108266020938361261f565b810103126102d1575160098110156102d15782610714565b3d9150610819565b6040513d6000823e3d90fd5b60405162461bcd60e51b81526020600482015260136024820152724e6f206d696e74657220746f20756e6c6f636b60681b6044820152606490fd5b346102d15760003660031901126102d1576020601954604051908152f35b346102d15760803660031901126102d1576108c46126b0565b6108cc6126c6565b90606435906044356001600160401b0383116102d157366023840112156102d15761027b9361090861092b94369060248160040135910161265b565b9261091b6109168433612abd565b6129e4565b610926838383612b85565b612dc1565b612a99565b346102d15760403660031901126102d1576109496126b0565b602435610954612fa8565b600e546001600160a01b03919061096e9083163314612f57565b61097981151561315f565b600b92835460001981019081116109f75761099a836109a4929594956131ab565b60115410156131b8565b6000918116915b8381106109b9576001600655005b6109f29083600080516020613276833981519152602088546109da81612f99565b8a556109e68188612ffe565b604051908152a2612f99565b6109ab565b634e487b7160e01b600052601160045260246000fd5b346102d15760003660031901126102d1576020601554604051908152f35b346102d15760003660031901126102d1576010546040516001600160a01b039091168152602090f35b346102d15760003660031901126102d157610a6d612896565b601a5460ff8116610b895760ff6017541660038110156107d75760028103610b1157506019544210610acc576001905b60ff191617601a557f4884a1e8d033385ee80fa3d769d1ba3c44e18291db0f726e436a01997d3df36a600080a1005b60405162461bcd60e51b815260206004820152601e60248201527f52657665616c2074696d6520686173206e6f74207965742070617373656400006044820152606490fd5b15610b1e57600190610a9d565b60405162461bcd60e51b815260206004820152603e60248201527f496e7374616e742072657665616c20636f6c6c656374696f6e7320646f206e6f60448201527f74206e65656420746f206265206d616e75616c6c792072657665616c656400006064820152608490fd5b60405162461bcd60e51b815260206004820152601e60248201527f436f6c6c656374696f6e20697320616c72656164792072657665616c656400006044820152606490fd5b346102d15760003660031901126102d15760ff6017541660405160038210156107d7576020918152f35b346102d157610c0636612724565b6001600160a01b0390911690338214610c725733600052600560205260406000208260005260205260406000209015159060ff1981541660ff83161790556040519081527f17307eab39ab6107e8899845ad3d59bd9653f200f220920489ca2b5937696c3160203392a3005b60405162461bcd60e51b815260206004820152601960248201527f4552433732313a20617070726f766520746f2063616c6c6572000000000000006044820152606490fd5b346102d15760003660031901126102d1576040516000600954610cd981612753565b80845290600190818116908115610d605750600114610d17575b61061584610d038186038261261f565b6040519182916020835260208301906126ff565b6009600090815292506000805160206132b68339815191525b828410610d48575050508101602001610d0382610cf3565b80546020858701810191909152909301928101610d30565b60ff191660208087019190915292151560051b85019092019250610d039150839050610cf3565b346102d15760003660031901126102d1576007546040516001600160a01b039091168152602090f35b346102d15760003660031901126102d1576020600c54604051908152f35b346102d15760003660031901126102d1576020610de9613217565b604051908152f35b346102d157610dff36612880565b610e07612896565b600e546001600160a01b0316610e5157816040917f37cd71faac1e03245089e1f80709a8db3925386e5e5f01e3958dafa369a34b36936014558060155582519182526020820152a1005b60405162461bcd60e51b815260206004820152602c60248201527f43616e6e6f7420636f6e6669677572652073616c65207768696c65207469656460448201526b20746f206120726166666c6560a01b6064820152608490fd5b346102d15760003660031901126102d157610ec4612896565b600780546001600160a01b031981169091556000906001600160a01b03167f8be0079c531659141344cd1fd0a4f28419497f9722a3daafe3b4186f6b6457e08280a3005b346102d15760203660031901126102d1576001600160a01b03610f296126b0565b168015610f485760005260036020526020604060002054604051908152f35b60405162461bcd60e51b815260206004820152602960248201527f4552433732313a2061646472657373207a65726f206973206e6f7420612076616044820152683634b21037bbb732b960b91b6064820152608490fd5b346102d15760003660031901126102d1576020600f54604051908152f35b346102d15760203660031901126102d157610fd66126b0565b610fde612fa8565b600e546001600160a01b03919082163381148015611093575b6110019150612f57565b600b5490601154821161104e576000805160206132768339815191526020809461102a85612f99565b600b556110378585612ffe565b604051938585521692a26001600655604051908152f35b60405162461bcd60e51b815260206004820152601b60248201527f416c6c20746f6b656e732068617665206265656e206d696e74656400000000006044820152606490fd5b5015806110a4575b61100190610ff7565b506007548216331461109b565b346102d15760003660031901126102d1576020601454604051908152f35b346102d15760203660031901126102d15760206110ed600435612983565b6040516001600160a01b039091168152f35b346102d15760003660031901126102d157602060ff601a54166040519015158152f35b346102d15760003660031901126102d1576020601254604051908152f35b346102d15760003660031901126102d157600d546040516001600160a01b039091168152602090f35b346102d15761027b61092b61117d3661284b565b906040519261118b84612604565b6000845261091b6109168433612abd565b346102d15760403660031901126102d1576004356111b86126c6565b906111c1612896565b6111cf6103e8821115612e3c565b600c55600d80546001600160a01b0319166001600160a01b0392909216919091179055005b346102d15760003660031901126102d15761120d612896565b611215612fa8565b478015611281576007546000918291829182916001600160a01b03165af161123b612c96565b5015611248576001600655005b60405162461bcd60e51b815260206004820152601160248201527015da5d1a191c985dd85b0819985a5b1959607a1b6044820152606490fd5b60405162461bcd60e51b81526020600482015260146024820152734e6f2066756e647320746f20776974686472617760601b6044820152606490fd5b6020806003193601126102d1576004356112d5612fa8565b60ff601354161561148657600e546001600160a01b031661142f576112fb81151561315f565b61130781601454613204565b34036113ea573360005260168252611324816040600020546131ab565b601554106113a557600b61133c61099a8383546131ab565b336000526016835260406000206113548382546131ab565b905560005b828110611367576001600655005b6113a090825461137681612f99565b84556113828133612ffe565b604051908152600080516020613276833981519152863392a2612f99565b611359565b60405162461bcd60e51b815260048101839052601c60248201527f45786365656473206d6178206d696e7473207065722077616c6c6574000000006044820152606490fd5b60405162461bcd60e51b815260048101839052601860248201527f496e636f7272656374207061796d656e7420616d6f756e7400000000000000006044820152606490fd5b60405162461bcd60e51b815260048101839052602960248201527f43616e6e6f74207075626c6963206d696e74207768696c65207469656420746f604482015268206120726166666c6560b81b6064820152608490fd5b60405162461bcd60e51b815260048101839052601960248201527f5075626c69632073616c65206973206e6f7420616374697665000000000000006044820152606490fd5b346102d15760406114db36612880565b90506127106114f860018060a01b03600d541692600c5490613204565b0482519182526020820152f35b346102d15760203660031901126102d1576001600160a01b036115266126b0565b1660005260166020526020604060002054604051908152f35b346102d15760003660031901126102d15760105460405163d63843cd60e01b81526020916001600160a01b03919083908290600490829086165afa8015610846578391600091611600575b506044600f54604051948593849263ea4dae9160e01b84523060048501526024840152165afa908115610846576000916115ca575b506040519015158152f35b90508181813d83116115f9575b6115e1818361261f565b810103126102d1575180151581036102d157826115bf565b503d6115d7565b6116209150823d8411611626575b611618818361261f565b810190612f38565b8461158a565b503d61160e565b346102d15761027b61163e3661284b565b9161164c6109168433612abd565b612b85565b346102d15760003660031901126102d157610615610d0361278d565b346102d1576020806003193601126102d1576116876126b0565b601054604051631d4bb73d60e01b81529192916001600160a01b039183908290600490829086165afa9081156108465760009161182d575b5081339116036117c257600e549281841661176c571690811561171a57506001600160a81b031990911617600160a01b17600e557fd5cb2e985e95fd394547f9c7ee44d15aeb87738279930d016adf6a6c3f1a25c1600080a1005b6084906040519062461bcd60e51b82526004820152602560248201527f4e6577206d696e7465722063616e6e6f7420626520746865207a65726f206164604482015264647265737360d81b6064820152fd5b60405162461bcd60e51b815260048101849052602860248201527f436f6e747261637420697320616c72656164792061737369676e656420746f20604482015267309036b4b73a32b960c11b6064820152608490fd5b60405162461bcd60e51b815260048101839052603a60248201527f4f6e6c79207468652070726f746f636f6c277320526166666c654465706c6f7960448201527f65722063616e2063616c6c20746869732066756e6374696f6e2e0000000000006064820152608490fd5b6118449150833d851161162657611618818361261f565b846116bf565b346102d15760403660031901126102d1576118636126b0565b60243561186e612896565b611876612fa8565b600e546001600160a01b0391908281161590816119f5575b50156119985760115492811561195c57601254600a85046118af84836131ab565b1161191757826118d9916118d4600b969596976118cd848a546131ab565b11156131b8565b6131ab565b6012556000918116915b8381106118f1576001600655005b6119129083600080516020613276833981519152602088546109da81612f99565b6118e3565b60405162461bcd60e51b815260206004820152601e60248201527f45786365656473203130252063726561746f7220616c6c6f636174696f6e00006044820152606490fd5b60405162461bcd60e51b815260206004820152601460248201527305175616e74697479206d757374206265203e20360641b6044820152606490fd5b60405162461bcd60e51b815260206004820152602f60248201527f43726561746f72206d696e74696e672064697361626c6564207768696c65207460448201526e69656420746f206120726166666c6560881b6064820152608490fd5b60ff915060a01c16158461188e565b346102d15760803660031901126102d157611a1d6126b0565b50611a266126c6565b506064356001600160401b038082116102d157366023830112156102d15781600401359081116102d157369101602401116102d157604051630a85bd0160e11b8152602090f35b346102d157611a7b36612724565b90611a84612896565b600e549160ff8360a01c16611abd5715611ab5575b6001600160a01b03166001600160a01b03199190911617600e55005b506000611a99565b60405162461bcd60e51b815260206004820152600f60248201526e105c1c1c9bdd985b081b1bd8dad959608a1b6044820152606490fd5b346102d15760403660031901126102d157611b0d6126b0565b602435906001600160a01b038080611b2485612983565b16921691808314611c1f57803314908115611bfa575b5015611b8f57600083815260046020526040902080546001600160a01b03191683179055611b6783612983565b167f8c5be1e5ebec7d5bd14f71427d1e84f3dd0314c0f7b2291e5b200ac8c7c3b925600080a4005b60405162461bcd60e51b815260206004820152603d60248201527f4552433732313a20617070726f76652063616c6c6572206973206e6f7420746f60448201527f6b656e206f776e6572206f7220617070726f76656420666f7220616c6c0000006064820152608490fd5b9050600052600560205260406000203360005260205260ff6040600020541684611b3a565b60405162461bcd60e51b815260206004820152602160248201527f4552433732313a20617070726f76616c20746f2063757272656e74206f776e656044820152603960f91b6064820152608490fd5b346102d15760203660031901126102d15760206110ed6004356129a6565b346102d15760003660031901126102d157600e546040516001600160a01b039091168152602090f35b346102d15760003660031901126102d1576040516000600854611cd781612753565b80845290600190818116908115610d605750600114611d005761061584610d038186038261261f565b6008600090815292506000805160206132968339815191525b828410611d31575050508101602001610d0382610cf3565b80546020858701810191909152909301928101611d19565b346102d15760203660031901126102d15760043563ffffffff60e01b81168091036102d157602090632cfe929360e21b8114908115611dd7575b8115611d9457506040519015158152f35b6380ac58cd60e01b811491508115611dc6575b8115611db5575b50826115bf565b6301ffc9a760e01b14905082611dae565b635b5e139f60e01b81149150611da7565b63152a902d60e11b81149150611d83565b346102d1576101a03660031901126102d1576004356001600160401b0381116102d157611e19903690600401612692565b6024356001600160401b0381116102d157611e38903690600401612692565b906044356001600160401b0381116102d157611e58903690600401612692565b6001600160a01b03919060643580841690036102d1576084359083821682036102d15760c43584811681036102d157610124359585871687036102d15760036101443510156102d157610164356001600160401b0381116102d157611ec1903690600401612692565b9486600754166125c95760115461258f57600f5461255257611ee96103e860a4351115612e3c565b8051906001600160401b03821161225a578190611f07600854612753565b601f81116124de575b50602090601f831160011461246a5760009261245f575b50508160011b916000199060031b1c1916176008555b8051906001600160401b03821161225a578190611f5b600954612753565b601f81116123eb575b50602090601f83116001146123775760009261236c575b50508160011b916000199060031b1c1916176009555b81516001600160401b03811161225a578592611fae600a54612753565b601f81116122f4575b50602090601f831160011461227b576000919083612270575b50508160011b916000199060031b1c191617600a555b816001600160601b0360a01b93168360105416176010556120086064356128ee565b60a435600c551690600d541617600d5560e435600f556101043560115560019081600b5560ff1990816017541660ff61014435161760175561014435156000146120a15750601a541617601a555b80821661205f57005b600e80546001600160a81b0319169190921617600160a01b1790557fd5cb2e985e95fd394547f9c7ee44d15aeb87738279930d016adf6a6c3f1a25c1600080a1005b805191506001600160401b03821161225a576120be601854612753565b601f81116121f2575b50602090601f831160011461217057928293918392600094612165575b50501b916000199060031b1c1916176018555b6002610144350361205657610184354281111561211657601955612056565b60405162461bcd60e51b815260206004820152602160248201527f52657665616c2074696d65206d75737420626520696e207468652066757475726044820152606560f81b6064820152608490fd5b0151925086806120e4565b90601f198316916018600052837fb13d2d76d1f4b7be834882e410b3e3a8afaf69f83600ae24db354391d2378d2e9360005b878282106121d9575050106121c0575b505050811b016018556120f7565b015160001960f88460031b161c191690558480806121b2565b84860151875590950194602094850194879350016121a2565b60186000527fb13d2d76d1f4b7be834882e410b3e3a8afaf69f83600ae24db354391d2378d2e601f840160051c81019160208510612250575b601f0160051c019084905b8281106122445750506120c7565b60008155018490612236565b909150819061222b565b634e487b7160e01b600052604160045260246000fd5b015190508880611fd0565b93929190601f19821690600a6000526000805160206132568339815191529160005b8181106122d9575095836001959697106122c0575b505050811b01600a55611fe6565b015160001960f88460031b161c191690558880806122b2565b8783015184558a96506001909301926020928301920161229d565b9091929350600a600052601f830160051c6000805160206132568339815191520160208410612357575b9087949392915b601f820160051c6000805160206132568339815191520181106123485750611fb7565b60008155889550600101612325565b5060008051602061325683398151915261231e565b015190508880611f7b565b600960009081526000805160206132b68339815191529350601f198516905b8181106123d357509084600195949392106123ba575b505050811b01600955611f91565b015160001960f88460031b161c191690558880806123ac565b92936020600181928786015181550195019301612396565b9091506009600052601f830160051c6000805160206132b6833981519152016020841061244a575b908392915b601f820160051c6000805160206132b683398151915201811061243b5750611f64565b60008155849350600101612418565b506000805160206132b6833981519152612413565b015190508980611f27565b600860009081526000805160206132968339815191529350601f198516905b8181106124c657509084600195949392106124ad575b505050811b01600855611f3d565b015160001960f88460031b161c1916905589808061249f565b92936020600181928786015181550195019301612489565b9091506008600052601f830160051c600080516020613296833981519152016020841061253d575b908392915b601f820160051c60008051602061329683398151915201811061252e5750611f10565b6000815584935060010161250b565b50600080516020613296833981519152612506565b60405162461bcd60e51b815260206004820152601560248201527414da59db985d1d5c9948185b1c9958591e481cd95d605a1b6044820152606490fd5b60405162461bcd60e51b815260206004820152601260248201527114dd5c1c1b1e48185b1c9958591e481cd95d60721b6044820152606490fd5b60405162461bcd60e51b8152602060048201526013602482015272105b1c9958591e481a5b9a5d1a585b1a5e9959606a1b6044820152606490fd5b602081019081106001600160401b0382111761225a57604052565b90601f801991011681019081106001600160401b0382111761225a57604052565b6001600160401b03811161225a57601f01601f191660200190565b92919261266782612640565b91612675604051938461261f565b8294818452818301116102d1578281602093846000960137010152565b9080601f830112156102d1578160206126ad9335910161265b565b90565b600435906001600160a01b03821682036102d157565b602435906001600160a01b03821682036102d157565b60005b8381106126ef5750506000910152565b81810151838201526020016126df565b90602091612718815180928185528580860191016126dc565b601f01601f1916010190565b60409060031901126102d1576004356001600160a01b03811681036102d1579060243580151581036102d15790565b90600182811c92168015612783575b602083101461276d57565b634e487b7160e01b600052602260045260246000fd5b91607f1691612762565b60405190600082601854916127a183612753565b8083529260019081811690811561282957506001146127ca575b506127c89250038361261f565b565b6018600090815291507fb13d2d76d1f4b7be834882e410b3e3a8afaf69f83600ae24db354391d2378d2e5b84831061280e57506127c89350508101602001386127bb565b81935090816020925483858a010152019101909185926127f5565b9050602092506127c894915060ff191682840152151560051b820101386127bb565b60609060031901126102d1576001600160a01b039060043582811681036102d1579160243590811681036102d1579060443590565b60409060031901126102d1576004359060243590565b6007546001600160a01b031633036128aa57565b606460405162461bcd60e51b815260206004820152602060248201527f4f776e61626c653a2063616c6c6572206973206e6f7420746865206f776e65726044820152fd5b600780546001600160a01b039283166001600160a01b0319821681179092559091167f8be0079c531659141344cd1fd0a4f28419497f9722a3daafe3b4186f6b6457e0600080a3565b1561293e57565b60405162461bcd60e51b815260206004820152601860248201527f4552433732313a20696e76616c696420746f6b656e20494400000000000000006044820152606490fd5b6000908152600260205260409020546001600160a01b03166126ad811515612937565b6000818152600260205260409020546129c9906001600160a01b03161515612937565b6000908152600460205260409020546001600160a01b031690565b156129eb57565b60405162461bcd60e51b815260206004820152602d60248201527f4552433732313a2063616c6c6572206973206e6f7420746f6b656e206f776e6560448201526c1c881bdc88185c1c1c9bdd9959609a1b6064820152608490fd5b60809060208152603260208201527f4552433732313a207472616e7366657220746f206e6f6e20455243373231526560408201527131b2b4bb32b91034b6b83632b6b2b73a32b960711b60608201520190565b15612aa057565b60405162461bcd60e51b815280612ab960048201612a46565b0390fd5b906001600160a01b038080612ad184612983565b16931691838314938415612b04575b508315612aee575b50505090565b612afa919293506129a6565b1614388080612ae8565b909350600052600560205260406000208260005260205260ff604060002054169238612ae0565b15612b3257565b60405162461bcd60e51b815260206004820152602560248201527f4552433732313a207472616e736665722066726f6d20696e636f72726563742060448201526437bbb732b960d91b6064820152608490fd5b90612bad91612b9384612983565b6001600160a01b0393918416928492909183168414612b2b565b16918215612c455781612bca91612bc386612983565b1614612b2b565b7fddf252ad1be2c89b69c2b068fc378daa952ba7f163c4a11628f55a4df523b3ef60008481526004602052604081206001600160601b0360a01b9081815416905583825260036020526040822060001981540190558482526040822060018154019055858252600260205284604083209182541617905580a4565b60405162461bcd60e51b8152602060048201526024808201527f4552433732313a207472616e7366657220746f20746865207a65726f206164646044820152637265737360e01b6064820152608490fd5b3d15612cc1573d90612ca782612640565b91612cb5604051938461261f565b82523d6000602084013e565b606090565b9091600091803b15612db857612d116020918493604051948580948193630a85bd0160e11b9a8b845233600485015284602485015260448401526080606484015260848301906126ff565b03926001600160a01b03165af190829082612d69575b5050612d5b57612d35612c96565b80519081612d565760405162461bcd60e51b815280612ab960048201612a46565b602001fd5b6001600160e01b0319161490565b909192506020813d8211612db0575b81612d856020938361261f565b81010312612dac5751906001600160e01b031982168203612da95750903880612d27565b80fd5b5080fd5b3d9150612d78565b50505050600190565b91926000929190813b15612e3257602091612e179185604051958680958194630a85bd0160e11b9b8c845233600485015260018060a01b03809516602485015260448401526080606484015260848301906126ff565b0393165af190829082612d69575050612d5b57612d35612c96565b5050505050600190565b15612e4357565b60405162461bcd60e51b8152602060048201526013602482015272526f79616c747920657863656564732031302560681b6044820152606490fd5b60ff601a5416612e90576126ad61278d565b604051600a54816000612ea283612753565b80835292600190818116908115612f165750600114612ec9575b506126ad9250038261261f565b600a600090815291506000805160206132568339815191525b848310612efb57506126ad935050810160200138612ebc565b81935090816020925483858901015201910190918492612ee2565b9050602092506126ad94915060ff191682840152151560051b82010138612ebc565b908160209103126102d157516001600160a01b03811681036102d15790565b15612f5e57565b60405162461bcd60e51b81526020600482015260136024820152722ab730baba3437b934bd32b21036b4b73a32b960691b6044820152606490fd5b60001981146109f75760010190565b600260065414612fb9576002600655565b60405162461bcd60e51b815260206004820152601f60248201527f5265656e7472616e637947756172643a207265656e7472616e742063616c6c006044820152606490fd5b60405161300a81612604565b6000808252926001600160a01b0383169283156130cf578161092b946127c89661305261304c84600052600260205260018060a01b0360406000205416151590565b15613113565b600083815260026020526040902054613075906001600160a01b0316151561304c565b81815260036020526040812060018154019055828152600260205260408120826001600160601b0360a01b8254161790557fddf252ad1be2c89b69c2b068fc378daa952ba7f163c4a11628f55a4df523b3ef8180a4612cc6565b606460405162461bcd60e51b815260206004820152602060248201527f4552433732313a206d696e7420746f20746865207a65726f20616464726573736044820152fd5b1561311a57565b60405162461bcd60e51b815260206004820152601c60248201527f4552433732313a20746f6b656e20616c7265616479206d696e746564000000006044820152606490fd5b1561316657565b60405162461bcd60e51b815260206004820152601f60248201527f5175616e74697479206d7573742062652067726561746572207468616e2030006044820152606490fd5b919082018092116109f757565b156131bf57565b60405162461bcd60e51b815260206004820152601f60248201527f4d696e74696e6720776f756c6420657863656564206d617820737570706c79006044820152606490fd5b818102929181159184041417156109f757565b600b54801561324e576000198101908082116109f757601154809210156132475781036001019081116109f75790565b5050600090565b506011549056fec65a7bb8d6351c1cf70c95a316cc6a92839c986682d98bc35f958f4883f9d2a83b782080656380c62378fe492892b8dcb9c50affce49759e169b8c7e5ef270e7f3f7a9fe364faab93b216da50a3214154f22a0a2b415b23a84c8169e8b636ee36e1540171b6c0c960b71a7020d9f60077f6af931a8bbf590da0223dacf75c7afa26469706673582212208652611cf1d93490ab23c1e4e36a2863ff6a53e2fae8598c63520502947d69fe64736f6c63430008130033",
  "linkReferences": {},
  "deployedLinkReferences": {}
}