{
  "_format": "hh-sol-artifact-1",
  "contractName": "NFTFactory",
  "sourceName": "contracts/NFTFactory.sol",
  "abi": [
    {
      "inputs": [
        {
          "internalType": "address",
          "name": "_erc721Implementation",
          "type": "address"
        },
        {
          "internalType": "address",
          "name": "_erc1155Implementation",
          "type": "address"
        },
        {
          "internalType": "address",
          "name": "_raffleManager",
          "type": "address"
        }
      ],
      "stateMutability": "nonpayable",
      "type": "constructor"
    },
    {
      "anonymous": false,
      "inputs": [
        {
          "indexed": true,
          "internalType": "address",
          "name": "collection",
          "type": "address"
        },
        {
          "indexed": true,
          "internalType": "address",
          "name": "creator",
          "type": "address"
        },
        {
          "indexed": false,
          "internalType": "enum PrizeTypes.Standard",
          "name": "standard",
          "type": "uint8"
        }
      ],
      "name": "PrizeCollectionCreated",
      "type": "event"
    },
    {
      "inputs": [
        {
          "internalType": "enum PrizeTypes.Standard",
          "name": "standard",
          "type": "uint8"
        },
        {
          "internalType": "string",
          "name": "name",
          "type": "string"
        },
        {
          "internalType": "string",
          "name": "symbol",
          "type": "string"
        },
        {
          "internalType": "string",
          "name": "baseURI",
          "type": "string"
        },
        {
          "internalType": "address",
          "name": "initialOwner",
          "type": "address"
        },
        {
          "internalType": "uint256",
          "name": "royaltyPercentage",
          "type": "uint256"
        },
        {
          "internalType": "address",
          "name": "royaltyRecipient",
          "type": "address"
        },
        {
          "internalType": "uint256",
          "name": "maxSupply",
          "type": "uint256"
        },
        {
          "internalType": "address",
          "name": "raffleAddress",
          "type": "address"
        },
        {
          "internalType": "enum PrizeTypes.RevealType",
          "name": "revealType",
          "type": "uint8"
        },
        {
          "internalType": "string",
          "name": "unrevealedBaseURI",
          "type": "string"
        },
        {
          "internalType": "uint256",
          "name": "revealTime",
          "type": "uint256"
        }
      ],
      "name": "createPrizeCollection",
      "outputs": [
        {
          "internalType": "address",
          "name": "",
          "type": "address"
        }
      ],
      "stateMutability": "nonpayable",
      "type": "function"
    },
    {
      "inputs": [],
      "name": "erc1155Implementation",
      "outputs": [
        {
          "internalType": "address",
          "name": "",
          "type": "address"
        }
      ],
      "stateMutability": "view",
      "type": "function"
    },
    {
      "inputs": [],
      "name": "erc721Implementation",
      "outputs": [
        {
          "internalType": "address",
          "name": "",
          "type": "address"
        }
      ],
      "stateMutability": "view",
      "type": "function"
    },
    {
      "inputs": [],
      "name": "raffleManager",
      "outputs": [
        {
          "internalType": "address",
          "name": "",
          "type": "address"
        }
      ],
      "stateMutability": "view",
      "type": "function"
    },
    {
      "inputs": [
        {
          "internalType": "address",
          "name": "collection",
          "type": "address"
        },
        {
          "internalType": "bytes32",
          "name": "signature",
          "type": "bytes32"
        }
      ],
      "name": "validateSignature",
      "outputs": [
        {
          "internalType": "bool",
          "name": "",
          "type": "bool"
        }
      ],
      "stateMutability": "view",
      "type": "function"
    }
  ],
  "bytecode": "0x60c0346100b657601f610a9a38819003918201601f19168301916001600160401b038311848410176100bb578084926060946040528339810103126100b657610047816100d1565b906100606040610059602084016100d1565b92016100d1565b60809290925260a052600080546001600160a01b0319166001600160a01b039092169190911790556040516109b490816100e6823960805181818161011f0152610296015260a05181818160da01526105bf0152f35b600080fd5b634e487b7160e01b600052604160045260246000fd5b51906001600160a01b03821682036100b65756fe6080604052600436101561001257600080fd5b6000803560e01c8063311052911461014e5780634a80a319146101095780636e204c41146100c4578063aa6527d91461009d5763ea4dae911461005457600080fd5b3461009a57604036600319011261009a576004356001600160a01b038181169182900361009557604060209360243581526001855220541614604051908152f35b600080fd5b80fd5b503461009a578060031936011261009a57546040516001600160a01b039091168152602090f35b503461009a578060031936011261009a576040517f00000000000000000000000000000000000000000000000000000000000000006001600160a01b03168152602090f35b503461009a578060031936011261009a576040517f00000000000000000000000000000000000000000000000000000000000000006001600160a01b03168152602090f35b503461009a5761018036600319011261009a5760048035101561009a5767ffffffffffffffff906024358281116104f15761018d903690600401610830565b916044358181116107e0576101a6903690600401610830565b916064358281116104f1576101bf903690600401610830565b60843594906001600160a01b03861686036107e05760c435936001600160a01b03851685036107d85761010435906001600160a01b03821682036107dc5760036101243510156107dc5761014435116107d8576102223661014435600401610830565b8454604051631d4bb73d60e01b815291939190602090829060049082906001600160a01b03165afa9081156107cd578691610787575b50336001600160a01b039091160361072f578495859660043515600014610597575060e43515610552576001600160a01b0383161561050d576102ba7f00000000000000000000000000000000000000000000000000000000000000006108ea565b604051606082901b6bffffffffffffffffffffffff191660208201908152426034830152919991906102f981605481015b03601f19810183528261080e565b51902080885260016020526040882080546001600160a01b0319166001600160a01b038c8116918217909255895492959290911692903b1561050957946101a4948997946103fc946103938f9561038161036f9d9b6040519e8f9d8e9d8e625c48eb60e21b81526101a060048201520190610887565b8c81036003190160248e015290610887565b8a81036003190160448c015290610887565b9460018060a01b03166064890152608488015260a43560a488015260018060a01b031660c487015260e486015260e43561010486015260018060a01b03166101248501526103e86101448501610124356108c7565b610164926003198583030184860152610887565b90356101848301520381836001600160a01b0389165af180156104e6579082916104f5575b50505b80546001600160a01b031692833b156104f157604051634a2e22d360e01b81526001600160a01b03909116600482018190529382908290602490829084905af180156104e6579082916104d2575b5050604051916104be575060043581526020926001600160a01b03169082907fcb0d919df2a078ab469ae0bbf066a91eba015762d3990770470f01c860962cd4908590a3604051908152f35b634e487b7160e01b81526021600452602490fd5b6104db906107e4565b61009a578038610472565b6040513d84823e3d90fd5b5080fd5b6104fe906107e4565b61009a578038610421565b8880fd5b60405162461bcd60e51b815260206004820152601760248201527f526166666c6520616464726573732072657175697265640000000000000000006044820152606490fd5b60405162461bcd60e51b815260206004820152601e60248201527f4d617820737570706c7920726571756972656420666f722045524337323100006044820152606490fd5b975092935090945083946001600435146105b5575b50505050610424565b90919295506105e37f00000000000000000000000000000000000000000000000000000000000000006108ea565b604051606082901b6bffffffffffffffffffffffff1916602082019081524260348301529197919061061881605481016102eb565b51902080865260016020526040862080546001600160a01b0319166001600160a01b038a8116918217909255875490911691903b1561072b578987959361068395936106e293604051998a9889986301d4044560e41b8a5261018060048b01526101848a0190610887565b6001600160a01b0395861660248a015260a4803560448b01529190951660648901526084880191909152860152600160c486015260e48035908601526106d06101048601610124356108c7565b84820360031901610124860152610887565b61016480356101448501526001600160a01b039283169084015291909103908290849089165af180156104e65761071c575b8080806105ac565b610725906107e4565b38610714565b8680fd5b60405162461bcd60e51b815260206004820152602a60248201527f4f6e6c7920526166666c654465706c6f7965722063616e206465706c6f7920636044820152696f6c6c656374696f6e7360b01b6064820152608490fd5b90506020813d6020116107c5575b816107a26020938361080e565b810103126107c157516001600160a01b03811681036107c15738610258565b8580fd5b3d9150610795565b6040513d88823e3d90fd5b8380fd5b8480fd5b8280fd5b67ffffffffffffffff81116107f857604052565b634e487b7160e01b600052604160045260246000fd5b90601f8019910116810190811067ffffffffffffffff8211176107f857604052565b81601f820112156100955780359067ffffffffffffffff82116107f85760405192610865601f8401601f19166020018561080e565b8284526020838301011161009557816000926020809301838601378301015290565b919082519283825260005b8481106108b3575050826000602080949584010152601f8019910116010190565b602081830181015184830182015201610892565b9060038210156108d45752565b634e487b7160e01b600052602160045260246000fd5b6e5af43d82803e903d91602b57fd5bf390763d602d80600a3d3981f3363d3d373d3d3d363d7300000062ffffff8260881c161760005260781b17602052603760096000f0906001600160a01b0382161561094057565b60405162461bcd60e51b8152602060048201526016602482015275115490cc4c4d8dce8818dc99585d194819985a5b195960521b6044820152606490fdfea2646970667358221220b447049740b78bc998ebf8bbd757d2942371b992d118f48882c83c62edddadc364736f6c63430008130033",
  "linkReferences": {},
  "deployedLinkReferences": {}
}