{
  "_format": "hh-sol-artifact-1",
  "contractName": "Raffle",
  "sourceName": "contracts/Raffle.sol",
  "abi": [
    {
      "inputs": [],
      "stateMutability": "nonpayable",
      "type": "constructor"
    },
    {
      "inputs": [],
      "name": "InvalidState",
      "type": "error"
    },
    {
      "inputs": [],
      "name": "OnlyOperator",
      "type": "error"
    },
    {
      "anonymous": false,
      "inputs": [
        {
          "indexed": false,
          "internalType": "string",
          "name": "reason",
          "type": "string"
        }
      ],
      "name": "ActivationCleanupFailed",
      "type": "event"
    },
    {
      "anonymous": false,
      "inputs": [
        {
          "indexed": false,
          "internalType": "string",
          "name": "reason",
          "type": "string"
        }
      ],
      "name": "BatchProcessingFailed",
      "type": "event"
    },
    {
      "anonymous": false,
      "inputs": [
        {
          "indexed": false,
          "internalType": "bytes",
          "name": "lowLevelData",
          "type": "bytes"
        }
      ],
      "name": "BatchProcessingFailedBytes",
      "type": "event"
    },
    {
      "anonymous": false,
      "inputs": [
        {
          "indexed": true,
          "internalType": "address",
          "name": "participant",
          "type": "address"
        },
        {
          "indexed": false,
          "internalType": "uint256",
          "name": "amount",
          "type": "uint256"
        }
      ],
      "name": "DeletionRefund",
      "type": "event"
    },
    {
      "anonymous": false,
      "inputs": [],
      "name": "FullRefundEnabledForDeletion",
      "type": "event"
    },
    {
      "anonymous": false,
      "inputs": [
        {
          "indexed": true,
          "internalType": "address",
          "name": "participant",
          "type": "address"
        },
        {
          "indexed": false,
          "internalType": "uint256",
          "name": "amount",
          "type": "uint256"
        }
      ],
      "name": "FullRefundForDeletion",
      "type": "event"
    },
    {
      "anonymous": false,
      "inputs": [
        {
          "indexed": true,
          "internalType": "address",
          "name": "previousOwner",
          "type": "address"
        },
        {
          "indexed": true,
          "internalType": "address",
          "name": "newOwner",
          "type": "address"
        }
      ],
      "name": "OwnershipTransferred",
      "type": "event"
    },
    {
      "anonymous": false,
      "inputs": [
        {
          "indexed": false,
          "internalType": "address",
          "name": "account",
          "type": "address"
        }
      ],
      "name": "Paused",
      "type": "event"
    },
    {
      "anonymous": false,
      "inputs": [
        {
          "indexed": true,
          "internalType": "address",
          "name": "winner",
          "type": "address"
        },
        {
          "indexed": false,
          "internalType": "uint256",
          "name": "tokenId",
          "type": "uint256"
        }
      ],
      "name": "PrizeClaimed",
      "type": "event"
    },
    {
      "anonymous": false,
      "inputs": [
        {
          "indexed": true,
          "internalType": "address",
          "name": "creator",
          "type": "address"
        },
        {
          "indexed": false,
          "internalType": "enum PrizeTypes.Standard",
          "name": "standard",
          "type": "uint8"
        },
        {
          "indexed": false,
          "internalType": "uint256",
          "name": "amount",
          "type": "uint256"
        }
      ],
      "name": "PrizeDeposited",
      "type": "event"
    },
    {
      "anonymous": false,
      "inputs": [],
      "name": "RaffleActivated",
      "type": "event"
    },
    {
      "anonymous": false,
      "inputs": [
        {
          "indexed": false,
          "internalType": "string",
          "name": "reason",
          "type": "string"
        }
      ],
      "name": "RaffleActivationFailed",
      "type": "event"
    },
    {
      "anonymous": false,
      "inputs": [],
      "name": "RaffleDeleted",
      "type": "event"
    },
    {
      "anonymous": false,
      "inputs": [],
      "name": "RaffleEnded",
      "type": "event"
    },
    {
      "anonymous": false,
      "inputs": [],
      "name": "RaffleUnengaged",
      "type": "event"
    },
    {
      "anonymous": false,
      "inputs": [
        {
          "indexed": true,
          "internalType": "uint256",
          "name": "requestId",
          "type": "uint256"
        },
        {
          "indexed": false,
          "internalType": "uint256",
          "name": "randomWord",
          "type": "uint256"
        }
      ],
      "name": "RandomReceived",
      "type": "event"
    },
    {
      "anonymous": false,
      "inputs": [
        {
          "indexed": false,
          "internalType": "uint256",
          "name": "requestId",
          "type": "uint256"
        }
      ],
      "name": "RandomRequested",
      "type": "event"
    },
    {
      "anonymous": false,
      "inputs": [
        {
          "indexed": true,
          "internalType": "address",
          "name": "recipient",
          "type": "address"
        },
        {
          "indexed": false,
          "internalType": "uint256",
          "name": "amount",
          "type": "uint256"
        }
      ],
      "name": "RevenueWithdrawn",
      "type": "event"
    },
    {
      "anonymous": false,
      "inputs": [
        {
          "indexed": true,
          "internalType": "address",
          "name": "participant",
          "type": "address"
        },
        {
          "indexed": false,
          "internalType": "uint256",
          "name": "quantity",
          "type": "uint256"
        }
      ],
      "name": "TicketsPurchased",
      "type": "event"
    },
    {
      "anonymous": false,
      "inputs": [
        {
          "indexed": false,
          "internalType": "address",
          "name": "account",
          "type": "address"
        }
      ],
      "name": "Unpaused",
      "type": "event"
    },
    {
      "anonymous": false,
      "inputs": [
        {
          "indexed": false,
          "internalType": "string",
          "name": "reason",
          "type": "string"
        }
      ],
      "name": "VRFRequestFailed",
      "type": "event"
    },
    {
      "anonymous": false,
      "inputs": [
        {
          "indexed": false,
          "internalType": "bytes",
          "name": "lowLevelData",
          "type": "bytes"
        }
      ],
      "name": "VRFRequestFailedBytes",
      "type": "event"
    },
    {
      "anonymous": false,
      "inputs": [
        {
          "indexed": false,
          "internalType": "address[]",
          "name": "winners",
          "type": "address[]"
        }
      ],
      "name": "WinnersSelected",
      "type": "event"
    },
    {
      "inputs": [
        {
          "internalType": "uint256",
          "name": "batchRandomSeed",
          "type": "uint256"
        }
      ],
      "name": "_processBatchWithRandomness",
      "outputs": [],
      "stateMutability": "nonpayable",
      "type": "function"
    },
    {
      "inputs": [],
      "name": "activate",
      "outputs": [],
      "stateMutability": "nonpayable",
      "type": "function"
    },
    {
      "inputs": [],
      "name": "amountPerWinner",
      "outputs": [
        {
          "internalType": "uint256",
          "name": "",
          "type": "uint256"
        }
      ],
      "stateMutability": "view",
      "type": "function"
    },
    {
      "inputs": [],
      "name": "claimPrize",
      "outputs": [],
      "stateMutability": "nonpayable",
      "type": "function"
    },
    {
      "inputs": [],
      "name": "claimRefund",
      "outputs": [],
      "stateMutability": "nonpayable",
      "type": "function"
    },
    {
      "inputs": [
        {
          "internalType": "address",
          "name": "",
          "type": "address"
        }
      ],
      "name": "claimedWins",
      "outputs": [
        {
          "internalType": "uint256",
          "name": "",
          "type": "uint256"
        }
      ],
      "stateMutability": "view",
      "type": "function"
    },
    {
      "inputs": [],
      "name": "creationFeePercentage",
      "outputs": [
        {
          "internalType": "uint256",
          "name": "",
          "type": "uint256"
        }
      ],
      "stateMutability": "view",
      "type": "function"
    },
    {
      "inputs": [],
      "name": "creator",
      "outputs": [
        {
          "internalType": "address",
          "name": "",
          "type": "address"
        }
      ],
      "stateMutability": "view",
      "type": "function"
    },
    {
      "inputs": [],
      "name": "currentBatchSize",
      "outputs": [
        {
          "internalType": "uint256",
          "name": "",
          "type": "uint256"
        }
      ],
      "stateMutability": "view",
      "type": "function"
    },
    {
      "inputs": [],
      "name": "deleteRaffle",
      "outputs": [],
      "stateMutability": "nonpayable",
      "type": "function"
    },
    {
      "inputs": [],
      "name": "duration",
      "outputs": [
        {
          "internalType": "uint256",
          "name": "",
          "type": "uint256"
        }
      ],
      "stateMutability": "view",
      "type": "function"
    },
    {
      "inputs": [],
      "name": "endRaffle",
      "outputs": [],
      "stateMutability": "nonpayable",
      "type": "function"
    },
    {
      "inputs": [],
      "name": "endTime",
      "outputs": [
        {
          "internalType": "uint256",
          "name": "",
          "type": "uint256"
        }
      ],
      "stateMutability": "view",
      "type": "function"
    },
    {
      "inputs": [],
      "name": "erc20PrizeAmount",
      "outputs": [
        {
          "internalType": "uint256",
          "name": "",
          "type": "uint256"
        }
      ],
      "stateMutability": "view",
      "type": "function"
    },
    {
      "inputs": [],
      "name": "erc20PrizeToken",
      "outputs": [
        {
          "internalType": "address",
          "name": "",
          "type": "address"
        }
      ],
      "stateMutability": "view",
      "type": "function"
    },
    {
      "inputs": [],
      "name": "erc721EscrowClaimed",
      "outputs": [
        {
          "internalType": "bool",
          "name": "",
          "type": "bool"
        }
      ],
      "stateMutability": "view",
      "type": "function"
    },
    {
      "inputs": [],
      "name": "ethPrizeAmount",
      "outputs": [
        {
          "internalType": "uint256",
          "name": "",
          "type": "uint256"
        }
      ],
      "stateMutability": "view",
      "type": "function"
    },
    {
      "inputs": [],
      "name": "externalPrizeCollection",
      "outputs": [
        {
          "internalType": "address",
          "name": "",
          "type": "address"
        }
      ],
      "stateMutability": "view",
      "type": "function"
    },
    {
      "inputs": [],
      "name": "getMinTicketLimit",
      "outputs": [
        {
          "internalType": "uint256",
          "name": "",
          "type": "uint256"
        }
      ],
      "stateMutability": "view",
      "type": "function"
    },
    {
      "inputs": [
        {
          "internalType": "address",
          "name": "participant",
          "type": "address"
        }
      ],
      "name": "getRefundableAmount",
      "outputs": [
        {
          "internalType": "uint256",
          "name": "",
          "type": "uint256"
        }
      ],
      "stateMutability": "view",
      "type": "function"
    },
    {
      "inputs": [],
      "name": "i_vrfCoordinator",
      "outputs": [
        {
          "internalType": "contract VRFCoordinatorV2PlusInterface",
          "name": "",
          "type": "address"
        }
      ],
      "stateMutability": "view",
      "type": "function"
    },
    {
      "inputs": [
        {
          "internalType": "address",
          "name": "_manager",
          "type": "address"
        },
        {
          "internalType": "string",
          "name": "_name",
          "type": "string"
        },
        {
          "internalType": "bool",
          "name": "_isPrized",
          "type": "bool"
        },
        {
          "internalType": "uint256",
          "name": "_startTime",
          "type": "uint256"
        },
        {
          "internalType": "uint256",
          "name": "_duration",
          "type": "uint256"
        },
        {
          "internalType": "uint256",
          "name": "_winnersCount",
          "type": "uint256"
        },
        {
          "internalType": "bool",
          "name": "_isEscrowedPrize",
          "type": "bool"
        },
        {
          "internalType": "address",
          "name": "_prizeCollection",
          "type": "address"
        },
        {
          "internalType": "address",
          "name": "_creator",
          "type": "address"
        },
        {
          "internalType": "uint256",
          "name": "_ticketLimit",
          "type": "uint256"
        },
        {
          "internalType": "uint256",
          "name": "_ticketPrice",
          "type": "uint256"
        },
        {
          "internalType": "uint256",
          "name": "_maxTicketsPerParticipant",
          "type": "uint256"
        },
        {
          "internalType": "enum PrizeTypes.Standard",
          "name": "_standard",
          "type": "uint8"
        },
        {
          "internalType": "uint256",
          "name": "_prizeTokenId",
          "type": "uint256"
        },
        {
          "internalType": "uint256",
          "name": "_amountPerWinner",
          "type": "uint256"
        },
        {
          "internalType": "address",
          "name": "_erc20PrizeToken",
          "type": "address"
        },
        {
          "internalType": "uint256",
          "name": "_erc20PrizeAmount",
          "type": "uint256"
        },
        {
          "internalType": "uint256",
          "name": "_ethPrizeAmount",
          "type": "uint256"
        },
        {
          "internalType": "bool",
          "name": "_usesCustomPrice",
          "type": "bool"
        }
      ],
      "name": "initialize",
      "outputs": [],
      "stateMutability": "payable",
      "type": "function"
    },
    {
      "inputs": [],
      "name": "isEscrowedPrize",
      "outputs": [
        {
          "internalType": "bool",
          "name": "",
          "type": "bool"
        }
      ],
      "stateMutability": "view",
      "type": "function"
    },
    {
      "inputs": [],
      "name": "isExternallyPrized",
      "outputs": [
        {
          "internalType": "bool",
          "name": "",
          "type": "bool"
        }
      ],
      "stateMutability": "view",
      "type": "function"
    },
    {
      "inputs": [],
      "name": "isPrized",
      "outputs": [
        {
          "internalType": "bool",
          "name": "",
          "type": "bool"
        }
      ],
      "stateMutability": "view",
      "type": "function"
    },
    {
      "inputs": [],
      "name": "isRefundable",
      "outputs": [
        {
          "internalType": "bool",
          "name": "",
          "type": "bool"
        }
      ],
      "stateMutability": "view",
      "type": "function"
    },
    {
      "inputs": [],
      "name": "maxTicketsPerParticipant",
      "outputs": [
        {
          "internalType": "uint256",
          "name": "",
          "type": "uint256"
        }
      ],
      "stateMutability": "view",
      "type": "function"
    },
    {
      "inputs": [
        {
          "internalType": "address",
          "name": "winner",
          "type": "address"
        }
      ],
      "name": "mintToWinner",
      "outputs": [],
      "stateMutability": "nonpayable",
      "type": "function"
    },
    {
      "inputs": [],
      "name": "name",
      "outputs": [
        {
          "internalType": "string",
          "name": "",
          "type": "string"
        }
      ],
      "stateMutability": "view",
      "type": "function"
    },
    {
      "inputs": [
        {
          "internalType": "address",
          "name": "",
          "type": "address"
        },
        {
          "internalType": "address",
          "name": "",
          "type": "address"
        },
        {
          "internalType": "uint256[]",
          "name": "",
          "type": "uint256[]"
        },
        {
          "internalType": "uint256[]",
          "name": "",
          "type": "uint256[]"
        },
        {
          "internalType": "bytes",
          "name": "",
          "type": "bytes"
        }
      ],
      "name": "onERC1155BatchReceived",
      "outputs": [
        {
          "internalType": "bytes4",
          "name": "",
          "type": "bytes4"
        }
      ],
      "stateMutability": "pure",
      "type": "function"
    },
    {
      "inputs": [
        {
          "internalType": "address",
          "name": "",
          "type": "address"
        },
        {
          "internalType": "address",
          "name": "",
          "type": "address"
        },
        {
          "internalType": "uint256",
          "name": "",
          "type": "uint256"
        },
        {
          "internalType": "uint256",
          "name": "",
          "type": "uint256"
        },
        {
          "internalType": "bytes",
          "name": "",
          "type": "bytes"
        }
      ],
      "name": "onERC1155Received",
      "outputs": [
        {
          "internalType": "bytes4",
          "name": "",
          "type": "bytes4"
        }
      ],
      "stateMutability": "pure",
      "type": "function"
    },
    {
      "inputs": [
        {
          "internalType": "address",
          "name": "",
          "type": "address"
        },
        {
          "internalType": "address",
          "name": "",
          "type": "address"
        },
        {
          "internalType": "uint256",
          "name": "",
          "type": "uint256"
        },
        {
          "internalType": "bytes",
          "name": "",
          "type": "bytes"
        }
      ],
      "name": "onERC721Received",
      "outputs": [
        {
          "internalType": "bytes4",
          "name": "",
          "type": "bytes4"
        }
      ],
      "stateMutability": "pure",
      "type": "function"
    },
    {
      "inputs": [],
      "name": "owner",
      "outputs": [
        {
          "internalType": "address",
          "name": "",
          "type": "address"
        }
      ],
      "stateMutability": "view",
      "type": "function"
    },
    {
      "inputs": [
        {
          "internalType": "uint256",
          "name": "",
          "type": "uint256"
        }
      ],
      "name": "participants",
      "outputs": [
        {
          "internalType": "address",
          "name": "",
          "type": "address"
        }
      ],
      "stateMutability": "view",
      "type": "function"
    },
    {
      "inputs": [],
      "name": "paused",
      "outputs": [
        {
          "internalType": "bool",
          "name": "",
          "type": "bool"
        }
      ],
      "stateMutability": "view",
      "type": "function"
    },
    {
      "inputs": [],
      "name": "pendingProtocolFee",
      "outputs": [
        {
          "internalType": "uint256",
          "name": "",
          "type": "uint256"
        }
      ],
      "stateMutability": "view",
      "type": "function"
    },
    {
      "inputs": [],
      "name": "pendingRevenueForManager",
      "outputs": [
        {
          "internalType": "uint256",
          "name": "",
          "type": "uint256"
        }
      ],
      "stateMutability": "view",
      "type": "function"
    },
    {
      "inputs": [
        {
          "internalType": "address",
          "name": "participant",
          "type": "address"
        }
      ],
      "name": "prizeClaimed",
      "outputs": [
        {
          "internalType": "uint256",
          "name": "",
          "type": "uint256"
        }
      ],
      "stateMutability": "view",
      "type": "function"
    },
    {
      "inputs": [],
      "name": "prizeCollection",
      "outputs": [
        {
          "internalType": "address",
          "name": "",
          "type": "address"
        }
      ],
      "stateMutability": "view",
      "type": "function"
    },
    {
      "inputs": [],
      "name": "prizeTokenId",
      "outputs": [
        {
          "internalType": "uint256",
          "name": "",
          "type": "uint256"
        }
      ],
      "stateMutability": "view",
      "type": "function"
    },
    {
      "inputs": [],
      "name": "prizesClaimedCount",
      "outputs": [
        {
          "internalType": "uint256",
          "name": "",
          "type": "uint256"
        }
      ],
      "stateMutability": "view",
      "type": "function"
    },
    {
      "inputs": [],
      "name": "protocolFeePercentage",
      "outputs": [
        {
          "internalType": "uint256",
          "name": "",
          "type": "uint256"
        }
      ],
      "stateMutability": "view",
      "type": "function"
    },
    {
      "inputs": [],
      "name": "protocolFeeTaken",
      "outputs": [
        {
          "internalType": "bool",
          "name": "",
          "type": "bool"
        }
      ],
      "stateMutability": "view",
      "type": "function"
    },
    {
      "inputs": [
        {
          "internalType": "uint256",
          "name": "quantity",
          "type": "uint256"
        }
      ],
      "name": "purchaseTickets",
      "outputs": [],
      "stateMutability": "payable",
      "type": "function"
    },
    {
      "inputs": [],
      "name": "randomRequested",
      "outputs": [
        {
          "internalType": "bool",
          "name": "",
          "type": "bool"
        }
      ],
      "stateMutability": "view",
      "type": "function"
    },
    {
      "inputs": [],
      "name": "randomSeed",
      "outputs": [
        {
          "internalType": "uint256",
          "name": "",
          "type": "uint256"
        }
      ],
      "stateMutability": "view",
      "type": "function"
    },
    {
      "inputs": [
        {
          "internalType": "uint256",
          "name": "requestId",
          "type": "uint256"
        },
        {
          "internalType": "uint256[]",
          "name": "randomWords",
          "type": "uint256[]"
        }
      ],
      "name": "rawFulfillRandomWords",
      "outputs": [],
      "stateMutability": "nonpayable",
      "type": "function"
    },
    {
      "inputs": [
        {
          "internalType": "address",
          "name": "",
          "type": "address"
        }
      ],
      "name": "refundableAmount",
      "outputs": [
        {
          "internalType": "uint256",
          "name": "",
          "type": "uint256"
        }
      ],
      "stateMutability": "view",
      "type": "function"
    },
    {
      "inputs": [],
      "name": "refundablePercentage",
      "outputs": [
        {
          "internalType": "uint256",
          "name": "",
          "type": "uint256"
        }
      ],
      "stateMutability": "view",
      "type": "function"
    },
    {
      "inputs": [
        {
          "internalType": "address",
          "name": "",
          "type": "address"
        }
      ],
      "name": "refundedNonWinningTickets",
      "outputs": [
        {
          "internalType": "uint256",
          "name": "",
          "type": "uint256"
        }
      ],
      "stateMutability": "view",
      "type": "function"
    },
    {
      "inputs": [],
      "name": "renounceOwnership",
      "outputs": [],
      "stateMutability": "nonpayable",
      "type": "function"
    },
    {
      "inputs": [],
      "name": "requestRandomWords",
      "outputs": [],
      "stateMutability": "nonpayable",
      "type": "function"
    },
    {
      "inputs": [],
      "name": "revenueSentToManager",
      "outputs": [
        {
          "internalType": "bool",
          "name": "",
          "type": "bool"
        }
      ],
      "stateMutability": "view",
      "type": "function"
    },
    {
      "inputs": [],
      "name": "s_vrf_callbackGasLimit",
      "outputs": [
        {
          "internalType": "uint32",
          "name": "",
          "type": "uint32"
        }
      ],
      "stateMutability": "view",
      "type": "function"
    },
    {
      "inputs": [],
      "name": "s_vrf_keyHash",
      "outputs": [
        {
          "internalType": "bytes32",
          "name": "",
          "type": "bytes32"
        }
      ],
      "stateMutability": "view",
      "type": "function"
    },
    {
      "inputs": [],
      "name": "s_vrf_lastRequestId",
      "outputs": [
        {
          "internalType": "uint256",
          "name": "",
          "type": "uint256"
        }
      ],
      "stateMutability": "view",
      "type": "function"
    },
    {
      "inputs": [],
      "name": "s_vrf_requestConfirmations",
      "outputs": [
        {
          "internalType": "uint16",
          "name": "",
          "type": "uint16"
        }
      ],
      "stateMutability": "view",
      "type": "function"
    },
    {
      "inputs": [],
      "name": "s_vrf_subscriptionId",
      "outputs": [
        {
          "internalType": "uint256",
          "name": "",
          "type": "uint256"
        }
      ],
      "stateMutability": "view",
      "type": "function"
    },
    {
      "inputs": [
        {
          "internalType": "address",
          "name": "_prizeCollection",
          "type": "address"
        },
        {
          "internalType": "enum PrizeTypes.Standard",
          "name": "_standard",
          "type": "uint8"
        },
        {
          "internalType": "uint256",
          "name": "_prizeTokenId",
          "type": "uint256"
        },
        {
          "internalType": "uint256",
          "name": "_amountPerWinner",
          "type": "uint256"
        }
      ],
      "name": "setExternalPrize",
      "outputs": [],
      "stateMutability": "nonpayable",
      "type": "function"
    },
    {
      "inputs": [],
      "name": "shuffleStartIndex",
      "outputs": [
        {
          "internalType": "uint256",
          "name": "",
          "type": "uint256"
        }
      ],
      "stateMutability": "view",
      "type": "function"
    },
    {
      "inputs": [],
      "name": "standard",
      "outputs": [
        {
          "internalType": "enum PrizeTypes.Standard",
          "name": "",
          "type": "uint8"
        }
      ],
      "stateMutability": "view",
      "type": "function"
    },
    {
      "inputs": [],
      "name": "startTime",
      "outputs": [
        {
          "internalType": "uint256",
          "name": "",
          "type": "uint256"
        }
      ],
      "stateMutability": "view",
      "type": "function"
    },
    {
      "inputs": [],
      "name": "state",
      "outputs": [
        {
          "internalType": "enum IRaffle.RaffleState",
          "name": "",
          "type": "uint8"
        }
      ],
      "stateMutability": "view",
      "type": "function"
    },
    {
      "inputs": [
        {
          "internalType": "bytes4",
          "name": "interfaceId",
          "type": "bytes4"
        }
      ],
      "name": "supportsInterface",
      "outputs": [
        {
          "internalType": "bool",
          "name": "",
          "type": "bool"
        }
      ],
      "stateMutability": "view",
      "type": "function"
    },
    {
      "inputs": [],
      "name": "ticketLimit",
      "outputs": [
        {
          "internalType": "uint256",
          "name": "",
          "type": "uint256"
        }
      ],
      "stateMutability": "view",
      "type": "function"
    },
    {
      "inputs": [],
      "name": "ticketPrice",
      "outputs": [
        {
          "internalType": "uint256",
          "name": "",
          "type": "uint256"
        }
      ],
      "stateMutability": "view",
      "type": "function"
    },
    {
      "inputs": [
        {
          "internalType": "address",
          "name": "",
          "type": "address"
        }
      ],
      "name": "ticketsPurchased",
      "outputs": [
        {
          "internalType": "uint256",
          "name": "",
          "type": "uint256"
        }
      ],
      "stateMutability": "view",
      "type": "function"
    },
    {
      "inputs": [],
      "name": "totalCreatorRevenue",
      "outputs": [
        {
          "internalType": "uint256",
          "name": "",
          "type": "uint256"
        }
      ],
      "stateMutability": "view",
      "type": "function"
    },
    {
      "inputs": [],
      "name": "totalRefundableAmount",
      "outputs": [
        {
          "internalType": "uint256",
          "name": "",
          "type": "uint256"
        }
      ],
      "stateMutability": "view",
      "type": "function"
    },
    {
      "inputs": [
        {
          "internalType": "address",
          "name": "newOwner",
          "type": "address"
        }
      ],
      "name": "transferOwnership",
      "outputs": [],
      "stateMutability": "nonpayable",
      "type": "function"
    },
    {
      "inputs": [],
      "name": "transferProtocolFee",
      "outputs": [],
      "stateMutability": "nonpayable",
      "type": "function"
    },
    {
      "inputs": [],
      "name": "usesCustomPrice",
      "outputs": [
        {
          "internalType": "bool",
          "name": "",
          "type": "bool"
        }
      ],
      "stateMutability": "view",
      "type": "function"
    },
    {
      "inputs": [],
      "name": "wasDeletedForFullRefund",
      "outputs": [
        {
          "internalType": "bool",
          "name": "",
          "type": "bool"
        }
      ],
      "stateMutability": "view",
      "type": "function"
    },
    {
      "inputs": [
        {
          "internalType": "uint256",
          "name": "",
          "type": "uint256"
        }
      ],
      "name": "winners",
      "outputs": [
        {
          "internalType": "address",
          "name": "",
          "type": "address"
        }
      ],
      "stateMutability": "view",
      "type": "function"
    },
    {
      "inputs": [],
      "name": "winnersCount",
      "outputs": [
        {
          "internalType": "uint256",
          "name": "",
          "type": "uint256"
        }
      ],
      "stateMutability": "view",
      "type": "function"
    },
    {
      "inputs": [],
      "name": "winnersSelected",
      "outputs": [
        {
          "internalType": "uint256",
          "name": "",
          "type": "uint256"
        }
      ],
      "stateMutability": "view",
      "type": "function"
    },
    {
      "inputs": [
        {
          "internalType": "address",
          "name": "",
          "type": "address"
        }
      ],
      "name": "winsPerAddress",
      "outputs": [
        {
          "internalType": "uint256",
          "name": "",
          "type": "uint256"
        }
      ],
      "stateMutability": "view",
      "type": "function"
    },
    {
      "inputs": [],
      "name": "withdrawCreatorRevenue",
      "outputs": [],
      "stateMutability": "nonpayable",
      "type": "function"
    },
    {
      "inputs": [],
      "name": "withdrawEscrowedPrize",
      "outputs": [],
      "stateMutability": "nonpayable",
      "type": "function"
    }
  ],
  "bytecode": "0x6080806040523461006a5760008054336001600160a01b0319821681178355916001600160a01b03909116907f8be0079c531659141344cd1fd0a4f28419497f9722a3daafe3b4186f6b6457e09080a36001805560ff1960025416600255615f759081620000708239f35b600080fdfe608080604052600436101561001357600080fd5b600090813560e01c90816301ffc9a7146139aa5750806302d05d3f14613981578063045091f91461395b5780630631c5c21461393e57806306fdde03146138675780630b747d91146138495780630b78824b1461382b5780630f15f4c01461379c5780630fb5a6b41461377e578063116546a01461375b5780631209b1f61461373d578063150b7a02146136e65780631b355bd8146133aa5780631fe543e3146132cc578063262f5cf114612d845780632c1fecfe14612d5e5780633197cbb614612d40578063321679fa14612d2257806333ab13aa1461229a57806335c1d349146122565780633d1705e0146122385780634002143414611e6157806342b72afa14611e285780634457dba414611e0657806344a9098614611de857806348389ecb14611dbb5780634971381114611d9d5780634eca67f514611d7a578063521a9ab414611d5c578063578b3a2814611bc45780635a3b7e4214611b985780635c975abb14611b755780635d7dd42314611b575780635e321dfc14611b39578063677375c314611b1b578063683d193614611af8578063696917ba14611ad55780636ccda0a614611a9c5780636e61a16014611a7957806370740ac914611a3a578063715018a6146119e0578063740e2198146119b457806378e9792514611996578063813e88b91461197857806381fdc72b146118bb578063888dc1981461189d5780638bc532851461187f5780638d7fe4781461185c5780638da5cb5b146118355780638e50e5091461181757806396e1fc03146117f95780639dd62cfc146117d55780639ed5c1cc146117a8578063a127760014611392578063a2fb117514611336578063a7ed61a3146112fd578063aebc4550146112d0578063af17425d14610dde578063af78ed0a14610dc0578063b5545a3c14610986578063b5ad841214610878578063bc197c81146107e8578063c19d93fb146107a5578063c2e784bd14610787578063c3fa0e3b14610769578063c913d4ed1461074b578063cc7d49ec14610728578063d17d1359146106ef578063d447e9bc14610672578063d91043f2146106d1578063dbb832bd146106ab578063dc8a55c214610672578063e0c862891461063b578063ee095c0e1461055d578063f1d2a977146104bf578063f23a6e6114610464578063f2fde38b146103d3578063f649a3b9146103b55763fb687df41461038657600080fd5b346103b257806003193601126103b257600e5460405160089190911c6001600160a01b03168152602090f35b80fd5b50346103b257806003193601126103b2576020602e54604051908152f35b50346103b25760203660031901126103b2576103ed613afe565b6103f5613bd9565b6001600160a01b038116156104105761040d90613c31565b80f35b60405162461bcd60e51b815260206004820152602660248201527f4f776e61626c653a206e6577206f776e657220697320746865207a65726f206160448201526564647265737360d01b6064820152608490fd5b50346103b25760a03660031901126103b25761047e613afe565b50610487613b14565b506084356001600160401b0381116104bb576104a7903690600401613b2a565b505060405163f23a6e6160e01b8152602090f35b5080fd5b50346103b257806003193601126103b25760018060a01b039060208282541692600e5460081c1615156024604051809581936357a27bf960e11b835260048301525afa908115610551579061051a575b602090604051908152f35b506020813d8211610549575b8161053360209383613a9d565b81010312610544576020905161050f565b600080fd5b3d9150610526565b604051903d90823e3d90fd5b50346103b257806003193601126103b25760ff60195460b01c16600981101561062757600161058c9114614a77565b600a5442106105e257601a54600c54106105da576019805460ff60b01b1916600160b31b1790557f47d47f3f9acb18246ebd9ffa696c95f75f7dcb084ab80c02b3a1edb84ae0f0278180a180f35b61040d615218565b60405162461bcd60e51b815260206004820152601860248201527f526166666c6520686173206e6f7420656e6465642079657400000000000000006044820152606490fd5b634e487b7160e01b82526021600452602482fd5b50346103b257806003193601126103b25760ff60195460b01c16600981101561062757600261066a9114614a77565b61040d614b7f565b50346103b25760203660031901126103b2576020906040906001600160a01b0361069a613afe565b168152601683522054604051908152f35b50346103b257806003193601126103b257602060ff602a5460081c166040519015158152f35b50346103b257806003193601126103b2576020602554604051908152f35b50346103b25760203660031901126103b2576020906040906001600160a01b03610717613afe565b168152601583522054604051908152f35b50346103b257806003193601126103b257602060ff602a54166040519015158152f35b50346103b257806003193601126103b2576020600454604051908152f35b50346103b257806003193601126103b2576020603054604051908152f35b50346103b257806003193601126103b2576020600654604051908152f35b50346103b257806003193601126103b25760ff60195460b01c166040519060098110156107d457602092508152f35b634e487b7160e01b83526021600452602483fd5b50346103b25760a03660031901126103b257610802613afe565b5061080b613b14565b506001600160401b036044358181116108745761082c903690600401613b57565b505060643581811161087457610846903690600401613b57565b50506084359081116104bb57610860903690600401613b2a565b505060405163bc197c8160e01b8152602090f35b8280fd5b50346103b257806003193601126103b2576108916151c2565b600f546001600160a01b039190821633036103b25760ff60195460b01c16916009831015610627578260058394146109775760088114610977578060046108e1921490811561097b575b50615444565b60285480156109775782809291819261091761090d61271061090560255486613d16565b048094614ab3565b9284602855615487565b600f54165af1610925614b4f565b5015610932576001805580f35b60405162461bcd60e51b815260206004820152601a60248201527f5472616e7366657220746f2063726561746f72206661696c65640000000000006044820152606490fd5b5050fd5b6007915014386108db565b50346103b257806003193601126103b25761099f6151c2565b60ff8060195460b01c1660098110159081610d3a57600481148015610db2575b828115610da2575b8115610d92575b5015610d4e57839183602a5416600014610b2c57505050338252601c6020526040822054156104bb57806026541680610b21575b15610ac757338252601c602052610a206040832054600d5490613d16565b90338352601c602052826040812055610a488380808086335af1610a42614b4f565b50615256565b6040518281527f09ad5d6198f1a18763fefd71aa9d3c5f1baa44169a1992a0cb95ce389355704560203392a25b60195460b01c1660098110156107d457600514610a95575b506001805580f35b6040519081527f09ad5d6198f1a18763fefd71aa9d3c5f1baa44169a1992a0cb95ce389355704560203392a238610a8d565b60405162461bcd60e51b815260206004820152602c60248201527f526566756e6473206e6f74206170706c696361626c6520666f7220746869732060448201526b3930b3333632903a3cb8329760a11b6064820152608490fd5b5080600e5416610a02565b610d3a57600803610bdf5750338252601c6020526040822054801561087457600d54610b5791613d16565b9080600e5416600014610bd357602854828110610bcf5782610b7891614ab3565b6028555b338352601c602052826040812055610b9d8380808086335af1610a42614b4f565b6040518281527f09ad5d6198f1a18763fefd71aa9d3c5f1baa44169a1992a0cb95ce389355704560203392a25b610a75565b8380fd5b81471015610b7c578280fd5b90602654818082169182610d2e575b82610d21575b505080610d16575b15610a75579050338252601c60205260408220546015602052604083205490602f60205260408420549082811180610d04575b15610cec57610c4692610c4191614ab3565b614ab3565b90600d546023549061271091820390828211610cf057610c719291610c6a91613d16565b0483613d16565b91602954808411610cec5783610c8691614ab3565b602955338452602f602052610ca060408520918254613c8c565b90558280808085335af1610cb2614b4f565b50610bca5760405162461bcd60e51b815260206004820152600d60248201526c1499599d5b990819985a5b1959609a1b6044820152606490fd5b8480fd5b634e487b7160e01b86526011600452602486fd5b50610d0f8382614ab3565b8210610c2f565b506029541515610bfc565b60081c1690508138610bf4565b600e5482169250610bee565b634e487b7160e01b84526021600452602484fd5b606460405162461bcd60e51b815260206004820152602060248201527f526166666c65206e6f7420696e206120726566756e6461626c652073746174656044820152fd5b9050610d3a5760088114826109ce565b9050610d3a5760058114826109c7565b5060009150600781146109bf565b50346103b257806003193601126103b2576020602854604051908152f35b50346103b257806003193601126103b257610df76151c2565b600f546001600160a01b039081163381900361129c5760ff60195460b01c16600981101580611288576006821490811561127b575b8115611268575b50610e3e9150614a77565b602c5460081c821615610fc0575080602c5460081c16604051906370a0823160e01b82523060048301526020928383602481855afa928315610fb5578593610f86575b508215610f4e57600f5460405163a9059cbb60e01b815291166001600160a01b031660048201526024810192909252829082908186816044810103925af1908115610f43578391610f16575b5015610edc57505b6001805580f35b6064906040519062461bcd60e51b825260048201526013602482015272115490cc8c081c99599d5b990819985a5b1959606a1b6044820152fd5b610f369150823d8411610f3c575b610f2e8183613a9d565b810190613cde565b38610ecd565b503d610f24565b6040513d85823e3d90fd5b60405162461bcd60e51b815260048101859052601060248201526f4e6f2045524332302062616c616e636560801b6044820152606490fd5b9092508381813d8311610fae575b610f9e8183613a9d565b8101031261054457519138610e81565b503d610f94565b6040513d87823e3d90fd5b919060ff601254169260048410156107d457836003849514600014611072575047925050811561103c57828080938193600f54165af1610ffe614b4f565b50610ed55760405162461bcd60e51b8152602060048201526011602482015270115512081c99599d5b990819985a5b1959607a1b6044820152606490fd5b60405162461bcd60e51b815260206004820152600e60248201526d4e6f204554482062616c616e636560901b6044820152606490fd5b8061111257505080600e5460081c1690600f5416601354916040519061109782613a67565b848252803b15610cec576110dd9385809460405196879586948593635c46a7ef60e11b855230600486015260248501526044840152608060648401526084830190613abe565b03925af18015611107576110f3575b5050610ed5565b6110fc90613a39565b6103b25780386110ec565b6040513d84823e3d90fd5b90925060010361122d57600e54601354604051627eeac760e11b81523060048201526024810182905260089290921c929092169290602081604481875afa908115610fb55785916111fc575b5080156111c25784936040519361117485613a67565b858552813b156111be578580946110dd60405197889687958694637921219560e11b865230600487015260248601526044850152606484015260a0608484015260a4830190613abe565b8580fd5b60405162461bcd60e51b81526020600482015260126024820152714e6f20455243313135352062616c616e636560701b6044820152606490fd5b90506020813d8211611225575b8161121660209383613a9d565b8101031261054457513861115e565b3d9150611209565b60405162461bcd60e51b81526020600482015260136024820152724e6f20657363726f7761626c65207072697a6560681b6044820152606490fd5b9050610d3a576005610e3e911438610e33565b5050600881146000610e2c565b634e487b7160e01b85526021600452602485fd5b60405162461bcd60e51b815260206004820152600c60248201526b27b7363c9031b932b0ba37b960a11b6044820152606490fd5b50346103b257806003193601126103b25760025460405160089190911c6001600160a01b03168152602090f35b50346103b25760203660031901126103b2576020906040906001600160a01b03611325613afe565b168152602f83522054604051908152f35b50346103b25760203660031901126103b257600435601b548110156104bb57601b6000527f3ad8aa4f87544323a9d1e5dd902f40c356527a7955687113db5f9a85ad579dc101546040516001600160a01b039091168152602090f35b506020806003193601126104bb576004356113ab6151c2565b60ff918260195460b01c169260098410156112885760018094146113ce81614a77565b1561176f578454604051638da5cb5b60e01b81526001600160a01b039184908290600490829086165afa80156117645782918891611728575b50163314159081611719575b5015610cec573315610cec5782156116dd57600d5480156111be57600a5442101561169857338652601c835261144d846040882054613c8c565b60105410611653578361145f91613d16565b3403610cec57601a90611473848354613c8c565b601154106111be578060265416156115df575b338652601c83526040862061149c858254613c8c565b9055855b84811061157e575090817fe11731cb4f1eb3ec3dd09bdc96809bb07365f4c881cda3192b397a4bc0b6da40939260265416158015611572575b1561155557602c5416611547576114f234602b54613c8c565b80602b558154600c5410611528575b505b546011541461151b575b6040519283523392a2805580f35b611523615218565b61150d565b61153190615487565b85602b558460ff19602c541617602c5538611501565b61155034615487565b611503565b600e5416156115035761156a34602854613c8c565b602855611503565b5080600e5416156114d9565b825490600160401b8210156115c9576115bf6115a183896115c495018755613ba2565b81546001600160a01b0360039290921b91821b19163390911b179055565b615158565b6114a0565b634e487b7160e01b600052604160045260246000fd5b80600e54166111be5784840361160457338652601c8352604086205415611486578580fd5b60405162461bcd60e51b815260048101849052602160248201527f4e6f6e2d7072697a65643a204f6e6c792031207469636b657420616c6c6f77656044820152601960fa1b6064820152608490fd5b60405162461bcd60e51b815260048101849052601b60248201527f45786365656473206d617820706572207061727469636970616e7400000000006044820152606490fd5b60405162461bcd60e51b815260048101849052601760248201527f526166666c65206475726174696f6e20656c61707365640000000000000000006044820152606490fd5b60405162461bcd60e51b815260048101839052601460248201527305175616e74697479206d757374206265203e20360641b6044820152606490fd5b9050600f541633141538611413565b809250858092503d831161175d575b6117418183613a9d565b81010312611759576117538291613c78565b38611407565b8680fd5b503d611737565b6040513d89823e3d90fd5b60405162461bcd60e51b8152600481018390526011602482015270526166666c65206e6f742061637469766560781b6044820152606490fd5b50346103b257806003193601126103b257602c5460405160089190911c6001600160a01b03168152602090f35b50346103b257806003193601126103b257602063ffffffff60055416604051908152f35b50346103b257806003193601126103b2576020602b54604051908152f35b50346103b257806003193601126103b2576020602354604051908152f35b50346103b257806003193601126103b257546040516001600160a01b039091168152602090f35b50346103b257806003193601126103b257602060ff601f54166040519015158152f35b50346103b257806003193601126103b2576020602154604051908152f35b50346103b257806003193601126103b2576020601854604051908152f35b50346103b257806003193601126103b25780546040516336b87bd760e11b815233600482015290602090829060249082906001600160a01b03165afa90811561110757829161195a575b50156119485760ff60195460b01c166009811015610627576004036103b25760ff602a5460081c16156103b25760305480156104bb5761040d9082603055615487565b6040516327e1f1e560e01b8152600490fd5b611972915060203d8111610f3c57610f2e8183613a9d565b38611905565b50346103b257806003193601126103b2576020601454604051908152f35b50346103b257806003193601126103b2576020600954604051908152f35b50346103b25760203660031901126103b25760206119d86119d3613afe565b61529b565b604051908152f35b50346103b257806003193601126103b2576119f9613bd9565b600080546001600160a01b0319811682556001600160a01b03167f8be0079c531659141344cd1fd0a4f28419497f9722a3daafe3b4186f6b6457e08280a380f35b50346103b257806003193601126103b257611a536151c2565b60ff60195460b01c166009811015610627576004611a719114614a77565b610ed5615677565b50346103b257806003193601126103b257602060ff601754166040519015158152f35b50346103b25760203660031901126103b2576020906040906001600160a01b03611ac4613afe565b168152601c83522054604051908152f35b50346103b257806003193601126103b257602060ff601954166040519015158152f35b50346103b257806003193601126103b257602060ff602654166040519015158152f35b50346103b257806003193601126103b2576020602954604051908152f35b50346103b257806003193601126103b2576020601154604051908152f35b50346103b257806003193601126103b2576020600354604051908152f35b50346103b257806003193601126103b257602060ff600254166040519015158152f35b50346103b257806003193601126103b25760ff601254166040519060048110156107d457602092508152f35b50346103b25760803660031901126103b257611bde613afe565b60243590600482101561087457600f54606435926001600160a01b0392909183163303610cec576019549260ff8460b01c166009811015611d48576111be5760ff602654166111be5760208187541691602460405180948193631a74b3f360e01b8352871660048301525afa908115611d3d578691611d1f575b5015611cc45760018203611ca7578315610cec57611c9b925b610100600160b01b03191660089190911b610100600160a81b031617600160a81b17601955613caf565b60443560135560145580f35b8115611cb7575b611c9b92611c71565b6001840315611cae578480fd5b60405162461bcd60e51b815260206004820152602d60248201527f45787465726e616c207072697a65206d75737420626520616e20696e7465726e60448201526c30b61031b7b63632b1ba34b7b760991b6064820152608490fd5b611d37915060203d8111610f3c57610f2e8183613a9d565b38611c58565b6040513d88823e3d90fd5b634e487b7160e01b87526021600452602487fd5b50346103b257806003193601126103b2576020602454604051908152f35b50346103b257806003193601126103b257602060ff602c54166040519015158152f35b50346103b257806003193601126103b2576020600c54604051908152f35b50346103b257806003193601126103b25760195460405160089190911c6001600160a01b03168152602090f35b50346103b257806003193601126103b2576020602254604051908152f35b50346103b257806003193601126103b257602061ffff60075416604051908152f35b50346103b25760203660031901126103b2576020906040906001600160a01b03611e50613afe565b168152602783522054604051908152f35b50346103b2576020806003193601126104bb5760043591303303612202578091602292835494611ea9611e9387614fae565b96611ea16040519889613a9d565b808852614fae565b86840190601f190136823784925b8654841015611ff557878491601a54908388549283611ed591614ab3565b90611edf91614ab3565b6040518981019088825286604082015260408152611efc81613a4c565b519020611f098685613c8c565b91611f1391613cf6565b611f1c91613c8c565b91611f2683613ba2565b91909286600160a01b60019003809554600395861b1c16968791611f4991614fc5565b52611f5390615158565b98611f5d91613c8c565b611f6690613ba2565b9054911b1c1690611f7690613ba2565b611f97929082549060031b9160018060a01b03809116831b921b1916179055565b8082875490611fa591613c8c565b611fae90613ba2565b611fcf929082549060031b9160018060a01b03809116831b921b1916179055565b865260158552604086208054611fe490615158565b9055611fef90615158565b92611eb7565b84888792835b81811061216857508061201261201c928554613c8c565b8455602154613c8c565b9182602155604051918183019082845251809152604083019591855b82811061214b5786867f32a1b5731a757f192a06ca973715ca4dbc42c2d15323cabaa74e0a2d5dc088e4878b0388a1601f805460ff19169055600c5411612135576019805460ff60b01b1916600160b21b17905560265460ff81169081612128575b8161211a575b508061210a575b6120ae5780f35b6120c96120c0601a54600c5490614ab3565b600d5490613d16565b6127106120d860235483613d16565b046120ef6120e68284614ab3565b92602854614ab3565b60285560305560295561010061ff0019602a541617602a5580f35b5060ff602a5460081c16156120a7565b60ff915060081c16826120a0565b600e5460ff16915061209a565b6019805460ff60b01b1916600160b11b17905580f35b83516001600160a01b031688529681019692810192600101612038565b9192916001600160a01b0361217d8286614fc5565b511690601b918254600160401b8110156115c957600181018085558110156121ec576121e4936000527f3ad8aa4f87544323a9d1e5dd902f40c356527a7955687113db5f9a85ad579dc101906bffffffffffffffffffffffff60a01b825416179055615158565b929192611ffb565b634e487b7160e01b600052603260045260246000fd5b60405162461bcd60e51b815260048101839052600e60248201526d13db9b1e481cd95b198b58d85b1b60921b6044820152606490fd5b50346103b257806003193601126103b2576020601054604051908152f35b50346103b25760203660031901126103b25760043590601a548210156103b257602061228183613ba2565b905460405160039290921b1c6001600160a01b03168152f35b506102603660031901126103b2576122b0613afe565b6024356001600160401b038111610874573660238201121561087457828160040135916122dc83613b87565b926122ea6040519485613a9d565b8084523660248284010111610874578060246020930183860137830101526044359081151582036105445760c4359182151583036105445760e4356001600160a01b03811690036105445761010435916001600160a01b03831683036105445760046101843510156111be576101e4356001600160a01b038116900361054457610244359283151584036105445786546001600160a01b0316612ce75761239086613c31565b600f80546001600160a01b0319166001600160a01b0392831617905560405163ec644ddd60e01b81529060a090829060049082908a165afa801561176457878889918a948b94612c70575b5060028054610100600160a81b03191660089290921b610100600160a81b03169190911781556003919091556004919091556005805463ffffffff191663ffffffff909416939093179092556007805461ffff191661ffff929092169190911790557f8fdb7270afbd4b0444cd837c33ffc7ae2df2fe8a032123276a1c2c6d9eb4304c805460ff1990811660019081179092557f0e22fe64533f19e15e19ed1f9645a7a8c49594c067ae69370f8250157eb9bfc280548216831790557f1b1e95a884cf3bf82a7b71a414494373a35ea4943d73593061f7c8883f5881d480548216831790557f24b6d4deb7c0c59bed56a7f7f0d7f6e717a821815f9c30a2696a1e3df4500a0980548216831790557fb13ef369632268253fc1af9cde9c47d466ba9ee6cea111cddac17dcc1a92323b80548216831790557f7f5749df118109f30706c20a2849d50aab53dfac4c0c5897180034765c3fd79d80548216831790557f21af25f55f8a1b94fb152a74497d92d6228119ffa274996fd13a446d16fc593480548216831790557fe0a3ca3e0fdd0700a2fb579f60cae76a204c291392a6e380e9de980cd825d19780548216831790557f2814d8682ae7028f5d11be244e2f30446b17a7442e71bf2edae88f6cc440026180548216831790556000929092527f628971151cb24dee737f6abea9bff35ce226e4c8f5760305d49b3725728390906020527f3dc65145705e19446d2fa2f433d8e5cee856c17a67cbeb00d7c34cc380f93ad080549092161790558051906001600160401b038211612c5c5781906126276008546139ff565b601f8111612bea575b50602090601f8311600114612b74578892612b69575b50508160011b916000199060031b1c1916176008555b612673606435806009556084359081600b55613c8c565b600a5560a435600c5560ff801960265416911515161760265561014435600d5561016435601055604051631a35245160e31b815260608160048160018060a01b0388165afa908115610fb557859186918791612b28575b50602555602455602355600e805460e435600890811b610100600160a81b03908116610100600160a81b031993841690811790945561012435601155602c80549093166101e43590921b1617905561020435602d5561022435602e8190559290831561284e575050506101e4356001600160a01b03166108745760e4356001600160a01b0316610874576127619060a43590613cf6565b6104bb5760405163043ddbd760e51b815290602090829060049082906001600160a01b03165afa90811561110757829161281c575b5061014435036103b25761016435156103b257600360ff196012541617601255600160ff1960195416176019555b60265460ff811680612810575b1561280357506001600c541161ff006026549160081b169061ff001916176026555b6019805460ff60b01b1916905580f35b61ff0019166026556127f3565b5060ff600e54166127d1565b90506020813d602011612846575b8161283760209383613a9d565b81010312610544575138612796565b3d915061282a565b919250906101e4356001600160a01b031615612ab6575050604051630fc1bb8d60e01b81526001600160a01b036101e435811660048301529091506020908290602490829086165afa908115610f43578391612a97575b5015612a5a5760e4356001600160a01b03166104bb576102043515612a15576128d360a43561020435613cf6565b6129bf5760405163043ddbd760e51b815290602090829060049082906001600160a01b03165afa90811561110757829161298d575b50610144350361293a5761016435156103b257600260ff196012541617601255600160ff1960195416176019556127c4565b60405162461bcd60e51b815260206004820152602560248201527f455243323020726166666c65732075736520676c6f62616c207469636b657420604482015264707269636560d81b6064820152608490fd5b90506020813d6020116129b7575b816129a860209383613a9d565b81010312610544575138612908565b3d915061299b565b60405162461bcd60e51b815260206004820152602860248201527f4552433230207072697a65206d75737420626520646976697369626c652062796044820152672077696e6e65727360c01b6064820152608490fd5b60405162461bcd60e51b815260206004820152601b60248201527f4552433230207072697a6520616d6f756e7420726571756972656400000000006044820152606490fd5b60405162461bcd60e51b8152602060048201526015602482015274115490cc8c081b9bdd081dda1a5d195b1a5cdd1959605a1b6044820152606490fd5b612ab0915060203d602011610f3c57610f2e8183613a9d565b386128a5565b9192509060e4356001600160a01b031615612b0b575060ff801960195416911515161760195560ff8019600e54169115151617600e55612af861018435613caf565b6101a4356013556101c4356014556127c4565b91505060ff1960195416601955600e5580601355806014556127c4565b925050506060813d8211612b61575b81612b4460609383613a9d565b81010312610cec57805160406020830151920151909190386126ca565b3d9150612b37565b015190503880612646565b925060088852600080516020615f008339815191529088935b601f1984168510612bcf576001945083601f19811610612bb6575b505050811b0160085561265c565b015160001960f88460031b161c19169055388080612ba8565b81810151835560209485019460019093019290910190612b8d565b90915060088852601f830160051c600080516020615f008339815191520160208410612c47575b908392915b601f820160051c600080516020615f00833981519152018110612c395750612630565b898155849350600101612c16565b50600080516020615f00833981519152612c11565b634e487b7160e01b87526041600452602487fd5b94505050505060a0813d8211612cdf575b81612c8e60a09383613a9d565b8101031261175957612c9f81613c78565b60208201519060408301519260608101519063ffffffff82168203612cdb57608001519061ffff82168203612cdb57939092909161ffff6123db565b8a80fd5b3d9150612c81565b60405162461bcd60e51b8152602060048201526013602482015272105b1c9958591e481a5b9a5d1a585b1a5e9959606a1b6044820152606490fd5b50346103b257806003193601126103b2576020602d54604051908152f35b50346103b257806003193601126103b2576020600a54604051908152f35b50346103b257806003193601126103b257602060ff60265460081c166040519015158152f35b50346103b257602090816003193601126103b257612da0613afe565b612da86151c2565b6019549260ff8460b01c166009811015610d3a576004612dc89114615444565b8260ff8560a81c16806000146132b257601254600887901c6001600160a01b0316929060ff166004811015611d485780613245575050604051638da5cb5b60e01b81528381600481865afa908115611d3d578691613210575b50955b60018060a01b0396828880600f541633149283156131ab575b831561318a575b5050501561314f5760ff1615908115613147575b5015610bcf578416938415610bcf5782169384845260158252612e806040852054151561557a565b84845260158252612e9e604085205460168452604086205490614ab3565b928315610cec57612eb184601854613c8c565b600c5410610cec5760ff60125416600481101561313357806130245750908495949160018514600014612fa2575082906024604051809481936335313c2160e11b83528960048401525af1908115610fb5578591612f73575b509083612f4894600080516020615ee083398151915283601695604051908152a25b85525260408320612f3e828254613c8c565b9055601854613c8c565b80601855600c5414612f5b576001805580f35b6019805460ff60b01b1916600760b01b179055610ed5565b9180915082813d8311612f9b575b612f8b8183613a9d565b8101031261054457905183612f0a565b503d612f81565b90809593953b1561087457604051632cfe929360e21b81526001600160a01b039290921660048301526024820185905282908290604490829084905af1801561110757613010575b50508281601692600080516020615ee0833981519152612f4896604051898152a2612f2c565b61301990613a39565b610bcf578338612fea565b9091906001036130d85761303a84601454613d16565b9160135490823b1561175957604051630ab714fb60e11b81526001600160a01b039190911660048201526024810191909152604481019290925284908290606490829084905af180156130cd576130b5575b508084612f489495600080516020615ee0833981519152601694601354604051908152a2612f2c565b90612f48936130c5601693613a39565b93509061308c565b6040513d86823e3d90fd5b60405162461bcd60e51b815260048101849052602d60248201527f4d696e74696e67206e6f7420737570706f7274656420666f722074686973207060448201526c1c9a5e99481cdd185b99185c99609a1b6064820152608490fd5b634e487b7160e01b86526021600452602486fd5b905038612e58565b60405162461bcd60e51b81526004810185905260136024820152722ab730baba3437b934bd32b21031b0b63632b960691b6044820152606490fd5b919250908261319e575b5050828838612e44565b9091501633148738613194565b9250602491508690895416604051928380926336b87bd760e11b82523360048301525afa9081156132055784918a918a916131e8575b5092612e3d565b6131ff9150883d8a11610f3c57610f2e8183613a9d565b386131e1565b6040513d8a823e3d90fd5b90508381813d831161323e575b6132278183613a9d565b810103126111be5761323890613c78565b38612e21565b503d61321d565b90969060001901612e2457604051638da5cb5b60e01b81529096508381600481865afa908115611d3d57869161327d575b5095612e24565b90508381813d83116132ab575b6132948183613a9d565b810103126111be576132a590613c78565b38613276565b503d61328a565b600e54919560089290921c6001600160a01b031691612e24565b50346103b25760403660031901126103b2576024356001600160401b0381116104bb576132fd903690600401613b57565b60025460081c6001600160a01b031633036133655761331b81614fae565b916133296040519384613a9d565b8183526020918284019060051b8201913683116111be57905b828210613356578561040d86600435614fd9565b81358152908301908301613342565b60405162461bcd60e51b815260206004820181905260248201527f4f6e6c792056524620436f6f7264696e61746f722063616e2066756c66696c6c6044820152606490fd5b50346103b257806003193601126103b257602c546001600160a01b039060081c81166136a157602e5461365c57600a5442101561362457808254163314908115613616575b50156135e25760195460ff8160b01c1660098110156107d45780159081156135d7575b50156135835760265460ff168080613558575b8061354b575b6134e0571561349c57602a805460ff1916600117905560ff60b01b1916600560b01b176019557fe465c22b8ec96fc194d9a0791b76171272fb36c68a84e2c807ed610cb9c7b9b18180a17fc8f49e7f8c3de84987e9efaa8a2721980f588c4badeaf4790e2a60631648db7c8180a180f35b606460405162461bcd60e51b815260206004820152602060248201527f43616e6e6f742064656c657465206e6f6e2d7072697a656420726166666c65736044820152fd5b60405162461bcd60e51b815260206004820152603d60248201527f43616e6e6f742064656c657465204e4654207072697a656420726166666c657360448201527f20746861742075736520676c6f62616c207469636b65742070726963650000006064820152608490fd5b5060ff600e54161561342b565b5060ff601254166004811015610d3a578015908115613578575b50613425565b600191501438613572565b60405162461bcd60e51b815260206004820152602660248201527f526166666c652063616e6e6f742062652064656c65746564206174207468697360448201526520737461676560d01b6064820152608490fd5b600191501438613412565b60405162461bcd60e51b815260206004820152600c60248201526b155b985d5d1a1bdc9a5e995960a21b6044820152606490fd5b9050600f54163314386133ef565b60405162461bcd60e51b815260206004820152601060248201526f149859999b19481a185cc8195b99195960821b6044820152606490fd5b60405162461bcd60e51b815260206004820152601d60248201527f45544820726166666c65732063616e6e6f742062652064656c657465640000006044820152606490fd5b60405162461bcd60e51b815260206004820152601f60248201527f455243323020726166666c65732063616e6e6f742062652064656c65746564006044820152606490fd5b50346103b25760803660031901126103b257613700613afe565b50613709613b14565b506064356001600160401b0381116104bb57613729903690600401613b2a565b5050604051630a85bd0160e11b8152602090f35b50346103b257806003193601126103b2576020600d54604051908152f35b50346103b257806003193601126103b257602060ff600e54166040519015158152f35b50346103b257806003193601126103b2576020600b54604051908152f35b50346103b257806003193601126103b25760ff60195460b01c166009811015610627578152601d602052604081206001825260205260ff604082205416156137e65761040d613e3c565b60405162461bcd60e51b815260206004820152601860248201527f496e76616c6964207374617465207472616e736974696f6e00000000000000006044820152606490fd5b50346103b257806003193601126103b2576020601354604051908152f35b50346103b257806003193601126103b2576020601e54604051908152f35b50346103b257806003193601126103b2576040519080600854613889816139ff565b8085529160019180831690811561391457506001146138cb575b6138c7856138b381870382613a9d565b604051918291602083526020830190613abe565b0390f35b925060088352600080516020615f008339815191525b8284106138fc5750505081016020016138b3826138c76138a3565b805460208587018101919091529093019281016138e1565b8695506138c7969350602092506138b394915060ff191682840152151560051b82010192936138a3565b50346103b257806003193601126103b25760208054604051908152f35b50346103b257806003193601126103b257602060ff60195460a81c166040519015158152f35b50346103b257806003193601126103b257600f546040516001600160a01b039091168152602090f35b9050346104bb5760203660031901126104bb5760043563ffffffff60e01b81168091036108745760209250630a85bd0160e11b81149081156139ee575b5015158152f35b630271189760e51b149050386139e7565b90600182811c92168015613a2f575b6020831014613a1957565b634e487b7160e01b600052602260045260246000fd5b91607f1691613a0e565b6001600160401b0381116115c957604052565b606081019081106001600160401b038211176115c957604052565b602081019081106001600160401b038211176115c957604052565b604081019081106001600160401b038211176115c957604052565b90601f801991011681019081106001600160401b038211176115c957604052565b919082519283825260005b848110613aea575050826000602080949584010152601f8019910116010190565b602081830181015184830182015201613ac9565b600435906001600160a01b038216820361054457565b602435906001600160a01b038216820361054457565b9181601f84011215610544578235916001600160401b038311610544576020838186019501011161054457565b9181601f84011215610544578235916001600160401b038311610544576020808501948460051b01011161054457565b6001600160401b0381116115c957601f01601f191660200190565b601a548110156121ec57601a6000527f057c384a7d1c54f3a1b2e5e67b2617b8224fdfd1ea7234eea573a6ff665ff63e0190600090565b6000546001600160a01b03163303613bed57565b606460405162461bcd60e51b815260206004820152602060248201527f4f776e61626c653a2063616c6c6572206973206e6f7420746865206f776e65726044820152fd5b600080546001600160a01b039283166001600160a01b03198216811783559216907f8be0079c531659141344cd1fd0a4f28419497f9722a3daafe3b4186f6b6457e09080a3565b51906001600160a01b038216820361054457565b91908201809211613c9957565b634e487b7160e01b600052601160045260246000fd5b6004811015613cc85760ff801960125416911617601255565b634e487b7160e01b600052602160045260246000fd5b90816020910312610544575180151581036105445790565b8115613d00570690565b634e487b7160e01b600052601260045260246000fd5b81810292918115918404141715613c9957565b60405190613d3682613a82565b601d82527f45787465726e616c3a204d696e746572206e6f7420617070726f7665640000006020830152565b60405190613d6f82613a82565b601b82527f45787465726e616c3a204d696e746572206e6f74206c6f636b656400000000006020830152565b60405190613da882613a4c565b6023825262706c7960e81b6040837f45787465726e616c3a20496e73756666696369656e74207072697a652073757060208201520152565b60405190613ded82613a82565b6013825272135a5b9d195c881b9bdd08185c1c1c9bdd9959606a1b6020830152565b60405190613e1c82613a82565b6011825270135a5b9d195c881b9bdd081b1bd8dad959607a1b6020830152565b60ff601981815460b01c166009811015613cc857614a3b576009544210614a085760008054604080516316accbeb60e01b815230600480830191909152919560209593602493926001600160a01b039291889082908790829087165afa9081156149fe5787916149e1575b50156149b25760265481161561461457845481161561424157601254168281101561422f5760038103613f455750505050909147602e5411613f0b5750600080516020615f2083398151915292505b805460ff60b01b1916600160b01b17905580a1565b91505075115512081c1c9a5e99481b9bdd08195cd8dc9bddd95960521b613f43925191613f3783613a82565b60168352820152615171565b565b600281036140175750908593949591602c5460081c16928751809481936370a0823160e01b835230908301525afa90811561400d578491613fe0575b50602d5411613fa15750600080516020615f208339815191529250613ef6565b9150507f4552433230207072697a65206e6f7420657363726f7765640000000000000000613f43925191613fd483613a82565b60188352820152615171565b90508181813d8311614006575b613ff78183613a9d565b81010312610bcf575138613f81565b503d613fed565b85513d86823e3d90fd5b9091908061413c5750600e5460135488516331a9108f60e11b81529283015290928691849190829060081c85165afa849281614105575b5061408a575050505073115490cdcc8c481d1bdad95b881a5b9d985b1a5960621b613f4392519161407e83613a82565b60148352820152615171565b93919293309116036140ad5750600080516020615f208339815191529250613ef6565b915050701bdddb995908189e4818dbdb9d1c9858dd607a1b827f455243373231207072697a65206e6f7420657363726f776564202d206e6f7420613f439451936140f685613a4c565b60318552840152820152615171565b9092508581813d8311614135575b61411d8183613a9d565b81010312610cec5761412e90613c78565b913861404e565b503d614113565b60019193509593949514614164575b505050600080516020615f208339815191529250613ef6565b600e546013548751627eeac760e11b8152309481019485526020850191909152928492849260081c16908290819060400103915afa90811561400d578491614202575b506141b7600c5460145490613d16565b116141c357808061414b565b9150507f455243313135352062616c616e636520696e73756666696369656e7400000000613f439251916141f683613a82565b601c8352820152615171565b90508181813d8311614228575b6142198183613a9d565b81010312610bcf5751386141a7565b503d61420f565b634e487b7160e01b8652602183528386fd5b60129694959693919354168281101561460257806144015750509080600e5460081c16908651906303aa30b960e11b825284828581865afa9182156143f75787926143c0575b50309116036143af57855163cc54cce360e01b815283818481855afa9081156143a5578691614388575b5015614372578290865192838092633f6615ab60e11b82525afa90811561400d578491614345575b50600c54116142f95750600080516020615f208339815191529250613ef6565b915050646e6e65727360d81b827f496e73756666696369656e74207072697a6520737570706c7920666f72207769613f4394519361433685613a4c565b60258552840152820152615171565b90508181813d831161436b575b61435c8183613a9d565b81010312610bcf5751386142d9565b503d614352565b505050505050613f43614383613e0f565b615171565b61439f9150843d8611610f3c57610f2e8183613a9d565b386142b1565b87513d88823e3d90fd5b505050505050613f43614383613de0565b9091508481813d83116143f0575b6143d88183613a9d565b81010312611759576143e990613c78565b9038614287565b503d6143ce565b88513d89823e3d90fd5b6001036145c05782600e5460081c1691614420600c5460145490613d16565b88516303aa30b960e11b8152909486828481885afa9182156145b657899261457b575b503091160361456857875163cc54cce360e01b815285818381875afa90811561455e578891614541575b501561452e576013548851633570cb2960e21b815291820152918491839182905afa9081156145245785916144f7575b50106144ba5750600080516020615f208339815191529250613ef6565b7f496e73756666696369656e74207072697a6520737570706c7900000000000000919250613f439351926144ed84613a82565b8352820152615171565b90508281813d831161451d575b61450e8183613a9d565b81010312610cec57513861449d565b503d614504565b86513d87823e3d90fd5b5050505050505050613f43614383613e0f565b6145589150863d8811610f3c57610f2e8183613a9d565b3861446d565b89513d8a823e3d90fd5b5050505050505050613f43614383613de0565b9091508681813d83116145af575b6145938183613a9d565b810103126145ab576145a490613c78565b9038614443565b8880fd5b503d614589565b8a513d8b823e3d90fd5b5050509150507f496e76616c6964206d696e7461626c65207072697a65207374616e6461726400613f439251916145f683613a82565b601f8352820152615171565b50634e487b7160e01b86526021825285fd5b909193969495928754828160a81c16614644575b50505050505050600080516020615f2083398151915291613ef6565b60081c831691821561497757601254168581101561496557806147d65750505080865460081c16908451906303aa30b960e11b825283828681865afa9182156147cc578792614795575b503091160361478457835163cc54cce360e01b815282818581855afa90811561477a57869161475d575b501561474c578190845193848092633f6615ab60e11b82525afa92831561474357508392614715575b5050600c541161470857600080516020615f20833981519152915b91388080808080614628565b5050613f43614383613d9b565b90809250813d831161473c575b61472c8183613a9d565b810103126104bb575138806146e1565b503d614722565b513d85823e3d90fd5b505050505050613f43614383613d62565b6147749150833d8511610f3c57610f2e8183613a9d565b386146b8565b85513d88823e3d90fd5b505050505050613f43614383613d29565b9091508381813d83116147c5575b6147ad8183613a9d565b81010312611759576147be90613c78565b903861468e565b503d6147a3565b86513d89823e3d90fd5b6001909695919294939614614801575b505050505050600080516020615f20833981519152916146fc565b614810600c5460145490613d16565b85516303aa30b960e11b8152909684828481895afa91821561495b578992614924575b503091160361491157845163cc54cce360e01b815283818381885afa9081156149075788916148ea575b50156148d7576013548551633570cb2960e21b815291820152928291849182905afa9283156148ce575084926148a0575b505010614708573880808080806147e6565b90809250813d83116148c7575b6148b78183613a9d565b810103126108745751388061488e565b503d6148ad565b513d86823e3d90fd5b5050505050505050613f43614383613d62565b6149019150843d8611610f3c57610f2e8183613a9d565b3861485d565b86513d8a823e3d90fd5b5050505050505050613f43614383613d29565b9091508481813d8311614954575b61493c8183613a9d565b810103126145ab5761494d90613c78565b9038614833565b503d614932565b87513d8b823e3d90fd5b50634e487b7160e01b87526021855286fd5b865162461bcd60e51b815280870186905260168184015275115e1d195c9b985b081c1c9a5e99481b9bdd081cd95d60521b6044820152606490fd5b505050505050752737ba103932b3b4b9ba32b932b2103337b9102b292360511b613f43925191613f3783613a82565b6149f89150883d8a11610f3c57610f2e8183613a9d565b38613ea7565b89513d89823e3d90fd5b60405162461bcd60e51b815260206004820152600b60248201526a139bdd081cdd185c9d195960aa1b6044820152606490fd5b60405162461bcd60e51b81526020600482015260146024820152734e6f7420696e2070656e64696e6720737461746560601b6044820152606490fd5b15614a7e57565b60405162461bcd60e51b815260206004820152600d60248201526c496e76616c696420737461746560981b6044820152606490fd5b91908203918211613c9957565b60009060033d11614acd57565b905060046000803e60005160e01c90565b600060443d10614b3b57604051600319913d83016004833e81516001600160401b03918282113d602484011117614b3e57818401948551938411614b46573d85010160208487010111614b3e5750614b3b92910160200190613a9d565b90565b949350505050565b50949350505050565b3d15614b7a573d90614b6082613b87565b91614b6e6040519384613a9d565b82523d6000602084013e565b606090565b60008054604080516336b87bd760e11b8152336004808301919091526001600160a01b039460209490926024929186908290859082908b165afa90811561400d578491614f91575b508015614f84575b8015614f71575b15614f165760ff601f5416614ed657601a548015610bcf578554614bf991614ab3565b95614c09600c5460215490614ab3565b9680601998898111600014614ed15750885b8060225511614ec8575b5060225415614eae5760025460081c1681549160035461ffff9081600754169163ffffffff928360055416928a51978c8901986001600160401b03998181108b821117614e9c57908e979695949392918e528c81528d519763125fa26760e31b908901525115158b8801528a8752614c9c87613a4c565b8c519960c08b019081118b821017614e9c57948e9a9998959487948f948f99948e9b9887528d528a8d01908152858d0191825260608d0193845260808d01958d6001885260a001988952519e8f9d8e9c8d9b634d8e1c2f60e11b8d528c015251908a01525160448901525116606487015251166084850152511660a48301525160c4820160c0905260e48201614d3191613abe565b03925af1829181614e6d575b50614e1f5750600190614d4e614ac0565b6308c379a014614db6575b50614d6357505050565b7fab4c58d5f7fcd2f6f276017059fe707292278a4b150b6402c89eb3899a7494ec91614da0614d90614b4f565b9251928284938452830190613abe565b0390a1805460ff60b01b1916600160b11b179055565b614dbe614ade565b9081614dcb575b50614d59565b83518581529092507f1bc0b7451d1b26a4c7bfd7b118b2756c98249ac5f3d51e76be5f33aab5489902918190614e049087830190613abe565b0390a1835460ff60b01b1916600160b11b1784553880614dc5565b6006819055601f805460ff19166001179055845460ff60b01b1916600360b01b1790945550519182527ff81446731d23d202ea16cf590daf64c6087251171612b2adde6acbef4b37580291a1565b9091508481813d8311614e95575b614e858183613a9d565b8101031261087457519038614d3d565b503d614e7b565b634e487b7160e01b8d52604189528b8dfd5b5050845460ff60b01b1916600160b21b1790945550505050565b60225538614c25565b614c1b565b60196064928686519362461bcd60e51b85528401528201527f5265717565737420616c726561647920696e20666c69676874000000000000006044820152fd5b60326084928686519362461bcd60e51b85528401528201527f43616c6c6572206973206e6f7420616e206f70657261746f722c2063726561746044820152711bdc8b081bdc881c185c9d1a58da5c185b9d60721b6064820152fd5b50338352601c8552838320541515614bd6565b5085600f54163314614bcf565b614fa89150863d8811610f3c57610f2e8183613a9d565b38614bc7565b6001600160401b0381116115c95760051b60200190565b80518210156121ec5760209160051b010190565b600254600092919060081c6001600160a01b0316330361336557600654036151415780511561512d576020015190303b156103b25760405191631000850d60e21b83526004830152808260248183305af1918261511e575b509061511b57600190615042614ac0565b6308c379a0146150a2575b5061505457565b7fbccec8509a79ecd26780c2699a3ca2503c3a3455b361b5fcda5760593edb03c96150806138b3614b4f565b0390a16019805460ff60b01b1916600160b11b179055601f805460ff19169055565b6150aa614ade565b90816150b7575b5061504d565b7fbcd905a8eb4cc473497e2cd24cf41334ea7fad80c354380f8fff04a025b1e5f89192506150f49092604051918291602083526020830190613abe565b0390a16019805460ff60b01b1916600160b11b179055601f805460ff1916905538806150b1565b50565b61512790613a39565b38615031565b634e487b7160e01b82526032600452602482fd5b50506019805460ff60b01b1916600160b11b179055565b6000198114613c995760010190565b8115613d00570490565b6019805460ff60b01b1916600360b11b17905560405160208082527f515924659ee8a39e742910640f0276d96e2f177a5b04c956e3c18899d99bb2159282916151bd9190830190613abe565b0390a1565b6002600154146151d3576002600155565b60405162461bcd60e51b815260206004820152601f60248201527f5265656e7472616e637947756172643a207265656e7472616e742063616c6c006044820152606490fd5b6019805460ff60b01b1916600160b11b17905542600a557f502fd88d3ee98597d4546d25e71901684f153dccc5308b79f0f9ad3c660537a6600080a1565b1561525d57565b60405162461bcd60e51b81526020600482015260166024820152751499599d5b99081d1c985b9cd9995c8819985a5b195960521b6044820152606490fd5b60ff80602a54166153d6578060195460b01c166009811015613cc8576008146153a65760265490808216918261539a575b8261538d575b505080615382575b6152e45750600090565b9060009160018060a01b03168252601c602052604082205460156020526040832054602f60205260408420549181811180615370575b61532357505050565b6153319291610c4191614ab3565b600d54602354906127109182039482861161535c5750614b3b939461535591613d16565b0490613d16565b634e487b7160e01b81526011600452602490fd5b5061537b8282614ab3565b831061531a565b5060295415156152da565b60081c16905038806152d2565b600e54821692506152cc565b506001600160a01b03166000908152601c6020526040902054806153ca5750600090565b600d54614b3b91613d16565b80602654169081615438575b5080615417575b6153f35750600090565b6001600160a01b03166000908152601c6020526040902054600d54614b3b91613d16565b506001600160a01b0381166000908152601c602052604090205415156153e9565b9050600e5416386153e2565b1561544b57565b60405162461bcd60e51b8152602060048201526014602482015273149859999b19481b9bdd0818dbdb5c1b195d195960621b6044820152606490fd5b6000805460405163524d530b60e01b815260209390916001600160a01b039085908490600490829085165afa9283156130cd578493615543575b50821615610874579082916040519085820191635e5bc1c560e11b8352816024820152602481526154f181613a4c565b51925af16154fd614b4f565b50156155065750565b6064906040519062461bcd60e51b82526004820152601660248201527514995d995b9d594819195c1bdcda5d0819985a5b195960521b6044820152fd5b9092508481813d8311615573575b61555b8183613a9d565b81010312610bcf5761556c90613c78565b91386154c1565b503d615551565b1561558157565b60405162461bcd60e51b815260206004820152600c60248201526b2737ba1030903bb4b73732b960a11b6044820152606490fd5b156155bc57565b60405162461bcd60e51b815260206004820152602d60248201527f6572633131353544726f70207072697a6573206d757374206265204552432d3160448201526c189a9a9039ba30b73230b9321760991b6064820152608490fd5b1561561e57565b60405162461bcd60e51b815260206004820152602b60248201527f65726337323144726f70207072697a6573206d757374206265204552432d373260448201526a189039ba30b73230b9321760a91b6064820152608490fd5b6000903382526020601581526040908184205491601682528085205461569e84151561557a565b838110156111be576156b09084614ab3565b9283156111be57859033875260168452828720556156d084601854613c8c565b60185560199384549160ff92838160a81c16600014615968575085546001600160a01b03929060081c8316156145ab5783601254169360049485811015615955578061588a5750601254168481101561587757906157328a9594939215615617565b600181036157fb5750509060248592600e5460081c1691855194859384926335313c2160e11b845233908401525af19081156157f15786916157b1575b50939450600080516020615ee0833981519152925b601854600c541461579a575b50519283523392a2565b805460ff60b01b1916600760b01b17905538615790565b90508281813d83116157ea575b6157c88183613a9d565b810103126111be57519394508493600080516020615ee083398151915261576f565b503d6157be565b82513d88823e3d90fd5b90969391600e5460081c16803b15610874578551632cfe929360e21b8152339481019485526020850192909252909283919082908490829060400103925af1801561586d57600080516020615ee08339815191529596975061585e575b50615784565b61586790613a39565b38615858565b83513d89823e3d90fd5b634e487b7160e01b8a526021855260248afd5b60019150979493929714806158b6575b50505050600080516020615ee083398151915293949550615784565b8993949750906158c86158d0926155b5565b601454613d16565b90600e5460081c16601354813b15610bcf578551630ab714fb60e11b81523395810195865260208601919091526040850192909252909283919082908490829060600103925af180156157f157600080516020615ee083398151915294959650615946575b50601354925084933880808061589a565b61594f90613a39565b38615935565b634e487b7160e01b8b526021865260248bfd5b602c54979897959694956008946001600160a01b03939091861c841615615a895750505061599b602d54600c5490615167565b928315615a8557926159ba87936159e3938a96602c54901c1692613d16565b865163a9059cbb60e01b8152336004820152602481019190915293849283919082906044820190565b03925af1908115615a7b578591615a5e575b5015615a225790600080516020615ee08339815191529291601854600c541461579a5750519283523392a2565b815162461bcd60e51b8152600481018490526015602482015274115490cc8c081d1c985b9cd9995c8819985a5b1959605a1b6044820152606490fd5b615a759150843d8611610f3c57610f2e8183613a9d565b386159f5565b83513d87823e3d90fd5b8780fd5b601254600496949390831687811015615ecc5760038103615b3f57505050505050615ab9602e54600c5490615167565b8015611759578680615acd81948294613d16565b335af1615ad8614b4f565b5015615b06575090600080516020615ee08339815191529291601854600c541461579a5750519283523392a2565b825162461bcd60e51b81529081018490526013602482015272115512081d1c985b9cd9995c8819985a5b1959606a1b6044820152606490fd5b84600e9d9c9d9b9a99989795969b548c1c16918215615eb557848160b01c166009811015615eb9578803615eb557841615615cde575050506012541683811015615ccb578990615c4c5750506001600c5403615bf45790879160135496600e54901c16803b15610874576064839286519485938492632142170760e11b845230908401523360248401528a60448401525af1801561586d57600080516020615ee08339815191529596975061585e5750615784565b835162461bcd60e51b8152808301869052602c60248201527f45524337323120457363726f77207072697a652063616e206f6e6c792068617660448201526b329037b732903bb4b73732b960a11b6064820152608490fd5b91615c5f60139892985498601454613d16565b91600e54901c1692833b156108745760c4908387519586948593637921219560e11b855230908501523360248501528b6044850152606484015260a060848401528160a48401525af1801561586d57600080516020615ee08339815191529596975061585e5750615784565b634e487b7160e01b8a526021845260248afd5b809a9596979a9493929415600014615e0757505060125416858110156159555790615d0e8b969594939215615617565b60018103615da4575050859291602491600e54901c1691855194859384926335313c2160e11b845233908401525af19081156157f1578691615d64575b50939450600080516020615ee083398151915292615784565b90508281813d8311615d9d575b615d7b8183613a9d565b810103126111be57519394508493600080516020615ee0833981519152615d4b565b503d615d71565b91600e989593919854901c16803b15610874578551632cfe929360e21b8152339481019485526020850192909252909283919082908490829060400103925af1801561586d57600080516020615ee08339815191529596975061585e5750615784565b9150935060019192989594501480615e355750505050600080516020615ee083398151915293949550615784565b8993949750906158c8615e47926155b5565b90601354813b15610bcf578551630ab714fb60e11b81523395810195865260208601919091526040850192909252909283919082908490829060600103925af180156157f157600080516020615ee0833981519152949596506159465750601354925084933880808061589a565b8d80fd5b634e487b7160e01b8f526021895260248ffd5b634e487b7160e01b8c526021885260248cfdfe95681e512bc0fe659e195e06c283eada494316f3d801213e48e7101af92bf770f3f7a9fe364faab93b216da50a3214154f22a0a2b415b23a84c8169e8b636ee3eead26bfdc5d23664466d2cc00a3a33910b6133271f450ca9b4bb44bf191a754a264697066735822122068f5e07143d731028dcb867fb4d94609a4a57077a51d90ed552c1478278f7c1664736f6c63430008130033",
  "linkReferences": {},
  "deployedLinkReferences": {}
}