{
  "_format": "hh-sol-artifact-1",
  "contractName": "RaffleDeployer",
  "sourceName": "contracts/RaffleDeployer.sol",
  "abi": [
    {
      "inputs": [
        {
          "internalType": "address",
          "name": "_raffleImplementation",
          "type": "address"
        },
        {
          "internalType": "address",
          "name": "_manager",
          "type": "address"
        }
      ],
      "stateMutability": "nonpayable",
      "type": "constructor"
    },
    {
      "anonymous": false,
      "inputs": [
        {
          "indexed": true,
          "internalType": "address",
          "name": "previousOwner",
          "type": "address"
        },
        {
          "indexed": true,
          "internalType": "address",
          "name": "newOwner",
          "type": "address"
        }
      ],
      "name": "OwnershipTransferred",
      "type": "event"
    },
    {
      "anonymous": false,
      "inputs": [
        {
          "indexed": true,
          "internalType": "address",
          "name": "collection",
          "type": "address"
        }
      ],
      "name": "PrizeCollectionCreated",
      "type": "event"
    },
    {
      "anonymous": false,
      "inputs": [
        {
          "indexed": true,
          "internalType": "address",
          "name": "raffle",
          "type": "address"
        },
        {
          "indexed": true,
          "internalType": "address",
          "name": "creator",
          "type": "address"
        }
      ],
      "name": "RaffleCreated",
      "type": "event"
    },
    {
      "inputs": [
        {
          "components": [
            {
              "internalType": "string",
              "name": "name",
              "type": "string"
            },
            {
              "internalType": "uint256",
              "name": "startTime",
              "type": "uint256"
            },
            {
              "internalType": "uint256",
              "name": "duration",
              "type": "uint256"
            },
            {
              "internalType": "uint256",
              "name": "ticketLimit",
              "type": "uint256"
            },
            {
              "internalType": "uint256",
              "name": "winnersCount",
              "type": "uint256"
            },
            {
              "internalType": "uint256",
              "name": "maxTicketsPerParticipant",
              "type": "uint256"
            },
            {
              "internalType": "bool",
              "name": "isPrized",
              "type": "bool"
            },
            {
              "internalType": "uint256",
              "name": "customTicketPrice",
              "type": "uint256"
            },
            {
              "internalType": "bool",
              "name": "erc721Drop",
              "type": "bool"
            },
            {
              "internalType": "bool",
              "name": "erc1155Drop",
              "type": "bool"
            },
            {
              "internalType": "address",
              "name": "prizeCollection",
              "type": "address"
            },
            {
              "internalType": "enum PrizeTypes.Standard",
              "name": "standard",
              "type": "uint8"
            },
            {
              "internalType": "uint256",
              "name": "prizeTokenId",
              "type": "uint256"
            },
            {
              "internalType": "uint256",
              "name": "amountPerWinner",
              "type": "uint256"
            },
            {
              "internalType": "string",
              "name": "collectionName",
              "type": "string"
            },
            {
              "internalType": "string",
              "name": "collectionSymbol",
              "type": "string"
            },
            {
              "internalType": "string",
              "name": "collectionBaseURI",
              "type": "string"
            },
            {
              "internalType": "address",
              "name": "creator",
              "type": "address"
            },
            {
              "internalType": "uint256",
              "name": "royaltyPercentage",
              "type": "uint256"
            },
            {
              "internalType": "address",
              "name": "royaltyRecipient",
              "type": "address"
            },
            {
              "internalType": "uint256",
              "name": "maxSupply",
              "type": "uint256"
            },
            {
              "internalType": "address",
              "name": "erc20PrizeToken",
              "type": "address"
            },
            {
              "internalType": "uint256",
              "name": "erc20PrizeAmount",
              "type": "uint256"
            },
            {
              "internalType": "uint256",
              "name": "ethPrizeAmount",
              "type": "uint256"
            },
            {
              "internalType": "enum PrizeTypes.RevealType",
              "name": "revealType",
              "type": "uint8"
            },
            {
              "internalType": "string",
              "name": "unrevealedBaseURI",
              "type": "string"
            },
            {
              "internalType": "uint256",
              "name": "revealTime",
              "type": "uint256"
            }
          ],
          "internalType": "struct RaffleDeployer.RaffleParams",
          "name": "p",
          "type": "tuple"
        }
      ],
      "name": "createRaffle",
      "outputs": [
        {
          "internalType": "address",
          "name": "",
          "type": "address"
        }
      ],
      "stateMutability": "payable",
      "type": "function"
    },
    {
      "inputs": [],
      "name": "getEnumValues",
      "outputs": [
        {
          "internalType": "uint256",
          "name": "",
          "type": "uint256"
        },
        {
          "internalType": "uint256",
          "name": "",
          "type": "uint256"
        },
        {
          "internalType": "uint256",
          "name": "",
          "type": "uint256"
        },
        {
          "internalType": "uint256",
          "name": "",
          "type": "uint256"
        }
      ],
      "stateMutability": "pure",
      "type": "function"
    },
    {
      "inputs": [
        {
          "internalType": "address",
          "name": "",
          "type": "address"
        },
        {
          "internalType": "address",
          "name": "",
          "type": "address"
        },
        {
          "internalType": "uint256[]",
          "name": "",
          "type": "uint256[]"
        },
        {
          "internalType": "uint256[]",
          "name": "",
          "type": "uint256[]"
        },
        {
          "internalType": "bytes",
          "name": "",
          "type": "bytes"
        }
      ],
      "name": "onERC1155BatchReceived",
      "outputs": [
        {
          "internalType": "bytes4",
          "name": "",
          "type": "bytes4"
        }
      ],
      "stateMutability": "pure",
      "type": "function"
    },
    {
      "inputs": [
        {
          "internalType": "address",
          "name": "",
          "type": "address"
        },
        {
          "internalType": "address",
          "name": "",
          "type": "address"
        },
        {
          "internalType": "uint256",
          "name": "",
          "type": "uint256"
        },
        {
          "internalType": "uint256",
          "name": "",
          "type": "uint256"
        },
        {
          "internalType": "bytes",
          "name": "",
          "type": "bytes"
        }
      ],
      "name": "onERC1155Received",
      "outputs": [
        {
          "internalType": "bytes4",
          "name": "",
          "type": "bytes4"
        }
      ],
      "stateMutability": "pure",
      "type": "function"
    },
    {
      "inputs": [
        {
          "internalType": "address",
          "name": "",
          "type": "address"
        },
        {
          "internalType": "address",
          "name": "",
          "type": "address"
        },
        {
          "internalType": "uint256",
          "name": "",
          "type": "uint256"
        },
        {
          "internalType": "bytes",
          "name": "",
          "type": "bytes"
        }
      ],
      "name": "onERC721Received",
      "outputs": [
        {
          "internalType": "bytes4",
          "name": "",
          "type": "bytes4"
        }
      ],
      "stateMutability": "pure",
      "type": "function"
    },
    {
      "inputs": [],
      "name": "owner",
      "outputs": [
        {
          "internalType": "address",
          "name": "",
          "type": "address"
        }
      ],
      "stateMutability": "view",
      "type": "function"
    },
    {
      "inputs": [],
      "name": "raffleImplementation",
      "outputs": [
        {
          "internalType": "address",
          "name": "",
          "type": "address"
        }
      ],
      "stateMutability": "view",
      "type": "function"
    },
    {
      "inputs": [],
      "name": "raffleManager",
      "outputs": [
        {
          "internalType": "address",
          "name": "",
          "type": "address"
        }
      ],
      "stateMutability": "view",
      "type": "function"
    },
    {
      "inputs": [],
      "name": "renounceOwnership",
      "outputs": [],
      "stateMutability": "nonpayable",
      "type": "function"
    },
    {
      "inputs": [
        {
          "internalType": "bytes4",
          "name": "interfaceId",
          "type": "bytes4"
        }
      ],
      "name": "supportsInterface",
      "outputs": [
        {
          "internalType": "bool",
          "name": "",
          "type": "bool"
        }
      ],
      "stateMutability": "view",
      "type": "function"
    },
    {
      "inputs": [
        {
          "internalType": "address",
          "name": "newOwner",
          "type": "address"
        }
      ],
      "name": "transferOwnership",
      "outputs": [],
      "stateMutability": "nonpayable",
      "type": "function"
    },
    {
      "inputs": [],
      "name": "transferOwnershipToManager",
      "outputs": [],
      "stateMutability": "nonpayable",
      "type": "function"
    }
  ],
  "bytecode": "0x60a034620000d257601f6200368a38819003918201601f19168301916001600160401b03831184841017620000d7578084926040948552833981010312620000d2576200005a60206200005283620000ed565b9201620000ed565b600080546001600160a01b03198082163390811784556040519591946001600160a01b039490938516907f8be0079c531659141344cd1fd0a4f28419497f9722a3daafe3b4186f6b6457e09080a36080521690600154161760015561358790816200010382396080518181816104bf0152612f5d0152f35b600080fd5b634e487b7160e01b600052604160045260246000fd5b51906001600160a01b0382168203620000d25756fe608080604052600436101561001357600080fd5b60009081803560e01c91826301ffc9a714612fe357508163150b7a0214612f8c5781633d1da5ed14612f485781636c8da47214612f18578163715018a614612ebf5781638da5cb5b14612e99578163a9dd230514612e2f578163aa6527d914612e07578163b155093f1461022757508063bc197c8114610196578063f23a6e611461013a5763f2fde38b146100a757600080fd5b34610137576020366003190112610137576100c0613036565b6100c86130c1565b6001600160a01b038116156100e3576100e090613119565b80f35b60405162461bcd60e51b815260206004820152602660248201527f4f776e61626c653a206e6577206f776e657220697320746865207a65726f206160448201526564647265737360d01b6064820152608490fd5b80fd5b50346101375760a036600319011261013757610154613036565b5061015d61304c565b5060843567ffffffffffffffff81116101925761017e903690600401613062565b505060405163f23a6e6160e01b8152602090f35b5080fd5b50346101375760a0366003190112610137576101b0613036565b506101b961304c565b5067ffffffffffffffff604435818111610223576101db903690600401613090565b5050606435818111610223576101f5903690600401613090565b50506084359081116101925761020f903690600401613062565b505060405163bc197c8160e01b8152602090f35b8280fd5b905060203660031901126101375767ffffffffffffffff80600435116101925761036060043536036003190112610192576001546040516320a72b6560e11b81526001600160a01b039091169190602081600481865afa908115610e30578491612de8575b50612db15742602460043501351115612d6c576102ad60c4600435016131c4565b6040516357a27bf960e11b81529015156004820152602081602481865afa908115610e30578491612d3a575b50604080516360f1eaf560e01b8152919082600481875afa918215610956578592612d17575b506064600435013510612cd2576064600435013511612c8d576084600435013515612c4857606460043501356084600435013511612c0a576004356084013560648181029182049003612bf65760196064600435013581810292918184041490151715612be25711612b8b57604051908160a08101109060a083011117612b775760a081016040528281528260208201528260408201528260608201528260808201526040516360f1eaf560e01b8152604081600481865afa8015610e305784918591612b56575b506020830152815260408051632f3dc77560e11b81529081600481865afa8015610e305784918591612b25575b5060608301526040820152604051630ac2c18d60e01b8152602081600481865afa908115610e30578491612af3575b506080820152604081015160446004350135101580612adf575b15612aa75760a46004350135151580918192612a92575b5015612a4d5761046860c4600435016131c4565b1561276a57604051632bc3a32360e21b8152602081600481865afa908115610e3057849161274b575b50156126eb5760043560e40135801561268e575b925b8315612649576e5af43d82803e903d91602b57fd5bf37f0000000000000000000000000000000000000000000000000000000000000000763d602d80600a3d3981f3363d3d373d3d3d363d7300000062ffffff8260881c1617835260781b176020526037600982f06001600160a01b03811694909290851561260b57869161053461014460043501613210565b94849161054560c4600435016131c4565b610c46575b50506001546001600160a01b03166105666004803501806133cf565b91909361057760c4600435016131c4565b9061058761022460043501613210565b906004610164813501351015610c42576105a66102a460043501613210565b918c3b15610c3e5788966105dd604051998a9889986319d589d560e11b8a5260048a015261026060248a0152610264890191613402565b94151560448701526024600435013560648701526044600435013560848701526084600435013560a4870152151560c486015260018060a01b038b1660e486015260018060a01b03166101048501526064600435013561012485015261014484015260a460043501356101648401526101846101646004350135818501526101a49060043501358185015260043501356101c484015260018060a01b03166101e48301526102c460043501356102048301526102e4600435013561022483015260e46004350135151561024483015203816102e460043501358a5af18015610c3357610c1b575b5050806003610164600435013514600014610bc757346102e46004350135340311610bb35790859392916102e460043501353403610b16575b61070b60c4600435016131c4565b6107f1575b505050803b156101925760405163060bc28b60e11b815260048101849052828160248183865af19081156107d25783916107dd575b5050803b15610192578190602460405180948193638da33c0760e01b83528760048401525af180156107d2576107be575b602083836001600160a01b0361079160043561022401613210565b16817f9c47a29f5025e2caaa94993068aa476939fb2a69f283de301e96ce91e46e0c516040519480a38152f35b6107c88391613160565b6101925738610776565b6040513d85823e3d90fd5b6107e690613160565b610192578138610745565b610803610104600496949635016131c4565b9081610af4575b81610ae2575b501561096157506024905060206001600160a01b0361083460043561014401613210565b6040516301ffc9a760e01b8152632cfe929360e21b600482015293849290918391165afa908115610956578591610927575b50156108d65783916001600160a01b0381163b1561022357604051631c38258960e01b8152600481018590529083908290602490829084906001600160a01b03165af19081156107d25783916108c2575b50505b388080610710565b6108cb90613160565b6101925781386108b7565b60405162461bcd60e51b815260206004820152602360248201527f436f6c6c656374696f6e206c61636b73206261746368206d696e7420737570706044820152621bdc9d60ea1b6064820152608490fd5b610949915060203d60201161094f575b610941818361318a565b8101906131ac565b38610866565b503d610937565b6040513d87823e3d90fd5b610973610124600495939535016131c4565b9081610ac0575b81610aa9575b5061098c575b506108ba565b9150602460206001600160a01b036109a960043561014401613210565b6040516301ffc9a760e01b81526320f88bf360e21b600482015293849290918391165afa908115610956578591610a8a575b5015610a465783916001600160a01b0381163b1561022357604051631c38258960e01b8152600481018590529083908290602490829084906001600160a01b03165af19081156107d2578391610a32575b50610986565b610a3b90613160565b610192578138610a2c565b606460405162461bcd60e51b815260206004820152602060248201527f436f6c6c656374696f6e206c61636b73206d696e74696e6720737570706f72746044820152fd5b610aa3915060203d60201161094f57610941818361318a565b386109db565b905061022357600161016460043501351438610980565b90506001600160a01b03610ad960043561014401613210565b1615159061097a565b91505061016460043501351538610810565b90506001600160a01b03610b0d60043561014401613210565b1615159061080a565b938080806102e460043501353403610b3361022460043501613210565b5af13d15610bae573d610b4581613446565b90610b53604051928361318a565b81528760203d92013e5b15610b695785936106fd565b60405162461bcd60e51b815260206004820152601860248201527f4578636573732045544820726566756e64206661696c656400000000000000006044820152606490fd5b610b5d565b634e487b7160e01b86526011600452602486fd5b92919034610bd65785936106fd565b60405162461bcd60e51b815260206004820152601b60248201527f4554482073656e7420666f72206e6f6e2d45544820726166666c6500000000006044820152606490fd5b610c2490613160565b610c2f5784386106c4565b8480fd5b6040513d84823e3d90fd5b8880fd5b8780fd5b919093506004610164813501351015610c2f57600435610164013560020361104f5750610c786102a460043501613210565b604051630fc1bb8d60e01b81526001600160a01b0390911660048201526020816024818a5afa908115611044578991611025575b5015610fe8576001600160a01b03610cc960043561014401613210565b16610f97576102c4600435013515610f5257610cf2608460043501356102c46004350135613499565b610efc5760e46004350135610ea957610d0a906134b9565b6102e46004350135610e58578691600190836020610d896001600160a01b03610d386004356102a401613210565b16610d4861022460043501613210565b6040516323b872dd60e01b81526001600160a01b03909116600480830191909152306024830152356102c40135604482015293849283919082906064820190565b03925af18015610956578592602092610df992610e3b575b506001600160a01b03610db96004356102a401613210565b60405163a9059cbb60e01b81526001600160a01b03909316600480850191909152356102c401356024840152919485939190921691839182906044820190565b03925af18015610e3057610e11575b505b388061054a565b610e299060203d60201161094f57610941818361318a565b5038610e08565b6040513d86823e3d90fd5b610e5190843d861161094f57610941818361318a565b5038610da1565b60405162461bcd60e51b8152602060048201526024808201527f43616e6e6f742073657420626f746820455243323020616e6420455448207072604482015263697a657360e01b6064820152608490fd5b60405162461bcd60e51b815260206004820152602560248201527f455243323020726166666c65732075736520676c6f62616c207469636b657420604482015264707269636560d81b6064820152608490fd5b60405162461bcd60e51b815260206004820152602860248201527f4552433230207072697a65206d75737420626520646976697369626c652062796044820152672077696e6e65727360c01b6064820152608490fd5b60405162461bcd60e51b815260206004820152601b60248201527f4552433230207072697a6520616d6f756e7420726571756972656400000000006044820152606490fd5b60405162461bcd60e51b8152602060048201526024808201527f43616e6e6f742073657420626f746820455243323020616e64204e4654207072604482015263697a657360e01b6064820152608490fd5b60405162461bcd60e51b8152602060048201526015602482015274115490cc8c081b9bdd081dda1a5d195b1a5cdd1959605a1b6044820152606490fd5b61103e915060203d60201161094f57610941818361318a565b38610cac565b6040513d8b823e3d90fd5b909290600435610164013560030361121a57506001600160a01b03905061107b6004356102a401613210565b166111c9576001600160a01b0361109760043561014401613210565b16611179576110b3608460043501356102e46004350135613499565b6111255760e460043501356110d4576110cc87926134b9565b60015b610e0a565b60405162461bcd60e51b815260206004820152602360248201527f45544820726166666c65732075736520676c6f62616c207469636b657420707260448201526269636560e81b6064820152608490fd5b60405162461bcd60e51b815260206004820152602660248201527f455448207072697a65206d75737420626520646976697369626c652062792077604482015265696e6e65727360d01b6064820152608490fd5b60405162461bcd60e51b815260206004820152602260248201527f43616e6e6f742073657420626f74682045544820616e64204e4654207072697a604482015261657360f01b6064820152608490fd5b60405162461bcd60e51b8152602060048201526024808201527f43616e6e6f742073657420626f74682045544820616e64204552433230207072604482015263697a657360e01b6064820152608490fd5b9092506004356101640135611cb05760016101a4600435013503611c60576001600160a01b0361124f60043561014401613210565b16151580611c4a575b1561156357506001608460043501350361150f5761127b61014460043501613210565b604051630dedf14b60e41b81526001600160a01b039091166004820152602081602481895afa80156114e5576112b89189916114f0575b50613280565b602460206001600160a01b036112d360043561014401613210565b16604051928380926331a9108f60e11b8252610184600435013560048301525afa9081156114e55788916114b6575b506001600160a01b0361131a60043561022401613210565b166001600160a01b03909116036114575786916001906001600160a01b0361134760043561014401613210565b1661135761022460043501613210565b90803b1561145357604051632142170760e11b81526001600160a01b039092166004808401919091523060248401523561018401356044830152859082908183816064810103925af190811561095657859161143b575b506001600160a01b0390506113c860043561014401613210565b16803b15610c2f57604051632142170760e11b8152306004808301919091526001600160a01b039093166024820152913561018401356044830152849082908183816064810103925af1908115610e30578491611427575b5050610e0a565b61143090613160565b610223578238611420565b61144490613160565b61144f5783386113ae565b8380fd5b8580fd5b60405162461bcd60e51b815260206004820152603160248201527f43726561746f7220646f6573206e6f74206f776e20746865207370656369666960448201527032b21022a921969b991890383934bd329760791b6064820152608490fd5b6114d8915060203d6020116114de575b6114d0818361318a565b8101906132cc565b38611302565b503d6114c6565b6040513d8a823e3d90fd5b611509915060203d60201161094f57610941818361318a565b386112b2565b60405162461bcd60e51b815260206004820152602660248201527f457363726f7765642045524337323120737570706f727473206f6e6c792031206044820152653bb4b73732b960d11b6064820152608490fd5b9150866001600160a01b0361157d60043561014401613210565b16151580611c35575b156118ca5750604051637bf046a960e01b8152602081600481895afa80156114e5576115b99189916118ab575b50613224565b6115c861014460043501613210565b604051630dedf14b60e41b81526001600160a01b039091166004820152602081602481895afa80156114e5576116049189916114f05750613280565b600460206001600160a01b0361161e833561014401613210565b1660405192838092633f6615ab60e11b82525afa80156114e5578890611872575b6116529150608460043501351115613337565b600460206001600160a01b0361166c833561014401613210565b1660405192838092638da5cb5b60e01b82525afa9081156114e5578891611853575b506001600160a01b036116a660043561022401613210565b166001600160a01b03909116036117e8576116c661014460043501613210565b604051631a74b3f360e01b81526001600160a01b039091166004820152602081602481895afa9081156114e55788916117c9575b50156117735782611713600160846004350135116132eb565b61176f57610164600435013561172a578691610e0a565b60405162461bcd60e51b815260206004820152601a60248201527f65726337323144726f70206f6e6c7920666f72204552433732310000000000006044820152606490fd5b8680fd5b60405162461bcd60e51b815260206004820152602860248201527f65726337323144726f70206f6e6c7920666f7220696e7465726e616c20636f6c6044820152676c656374696f6e7360c01b6064820152608490fd5b6117e2915060203d60201161094f57610941818361318a565b386116fa565b60405162461bcd60e51b815260206004820152603f60248201527f43726561746f72206d75737420626520746865206f776e6572206f662074686560448201527f207072697a6520636f6e747261637420666f722065726337323144726f702e006064820152608490fd5b61186c915060203d6020116114de576114d0818361318a565b3861168e565b506020813d6020116118a3575b8161188c6020938361318a565b8101031261189e57611652905161163f565b600080fd5b3d915061187f565b6118c4915060203d60201161094f57610941818361318a565b386115b3565b916001600160a01b036118e260043561014401613210565b166110cf57509250506101646004350135611bda57611906610104600435016131c4565b611b6f5761191c600160846004350135116132eb565b6119356084600435013561028460043501351015613383565b8461194561022460043501613210565b61195461026460043501613210565b6119696101c4600435016004356004016133cf565b9061197f6101e4600435016004356004016133cf565b949093611997610204600435016004356004016133cf565b94600361030460043501351015610c3e576119e46119ec926119dc6004996119d46119ca6103248d35018d358e016133cf565b9a90963691613462565b9b3691613462565b973691613462565b943691613462565b60015460405163d63843cd60e01b81529197919660209188919082906001600160a01b03165afa9283156114e557611a7b978d8a946020998697611b3e575b5090611aee939291611a8d611a6998996040519d8e9c8d9b8c9a633110529160e01b8c52600060048d015261018060248d01526101848c0190613511565b8a81036003190160448c015290613511565b8881036003190160648a015290613511565b6001600160a01b03948516608488015260043561024481013560a48901529190941660c487015261028481013560e4870152610104860191909152611adc906101248601906103040135613423565b83820360031901610144850152613511565b600435610344013561016483015203926001600160a01b03165af1908115610c33578291611b1f575b509281610e0a565b611b38915060203d6020116114de576114d0818361318a565b38611b17565b611a69975090611a8d611b63611aee969594938d3d8f116114de576114d0818361318a565b98505090919293611a2b565b60405162461bcd60e51b815260206004820152603f60248201527f43616e6e6f7420757365206578697374696e672065726337323144726f70207760448201527f68656e206465706c6f79696e672061206e657720636f6c6c656374696f6e2e006064820152608490fd5b60405162461bcd60e51b815260206004820152602d60248201527f4e657720636f6c6c656374696f6e732063616e206f6e6c79206265204552432d60448201526c1b99189039ba30b73230b9321760991b6064820152608490fd5b50611c45610104600435016131c4565b611586565b50611c5a610104600435016131c4565b15611258565b60405162461bcd60e51b815260206004820152602260248201527f455243373231207265717569726573203120746f6b656e207065722077696e6e60448201526132b960f11b6064820152608490fd5b9093919060043561016401356001036125cd576101a46004350135156125885787906001600160a01b03611ce960043561014401613210565b16151580612572575b6001600160a01b03611d0960043561014401613210565b16611f1c575050505050611d25600160846004350135116132eb565b611d4e611d3f6101a46004350135608460043501356131e7565b61028460043501351015613383565b60405163d63843cd60e01b81528590602081600481885afa908115610c33578291611efd575b50611d8a6101c4600435016004356004016133cf565b9190611da16101e4600435016004356004016133cf565b9390611db8610204600435016004356004016133cf565b611dc761022460043501613210565b91611dd761026460043501613210565b90600361030460043501351015611ef957611dfb60048035610324810191016133cf565b604051633110529160e01b81526001600482015261018060248201529a8b998a999398929693611e31916101848c019190613402565b906003198a83030160448b0152611e4792613402565b90600319888303016064890152611e5d92613402565b6001600160a01b03938416608487015260043561024481013560a48801529190931660c486015261028481013560e486015261010485018d9052611eab906101248601906103040135613423565b83820360031901610144850152611ec192613402565b61034460043501356101648301526001600160a01b03909316920381855a94602095f1908115610c33578291611b1f57509281610e0a565b8980fd5b611f16915060203d6020116114de576114d0818361318a565b38611d74565b93959315612242575050611f3561014460043501613210565b604051630dedf14b60e41b81526001600160a01b039091166004820152602081602481895afa908115610e305790611f739185916114f05750613280565b611f8a6101a46004350135608460043501356131e7565b600181106121ef57611ff860206001600160a01b03611fae60043561014401613210565b16611fbe61022460043501613210565b604051627eeac760e11b81526001600160a01b03909116600480830191909152356101840135602482015292839190829081906044820190565b03915afa9081156109565790829186916121ba575b501061215a576001916001600160a01b0361202d60043561014401613210565b1661203d61022460043501613210565b813b1561176f57604051637921219560e11b81526001600160a01b0390911660048083019190915230602483015235610184013560448201526064810184905260a06084820152600060a4820152908690829081838160c4810103925af1801561214f57612136575b5088939291906001600160a01b036120c360043561014401613210565b1691823b1561145357604051637921219560e11b8152306004808301919091526001600160a01b039093166024820152913561018401356044830152606482015260a06084820152600060a4820152908490829081838160c4810103925af1908115610e30578491611427575050610e0a565b612144919493929950613160565b8397909192386120a6565b6040513d88823e3d90fd5b60405162461bcd60e51b815260206004820152603260248201527f43726561746f7227732062616c616e636520697320696e73756666696369656e6044820152713a103337b91030b636103bb4b73732b9399760711b6064820152608490fd5b9150506020813d6020116121e7575b816121d66020938361318a565b81010312610c2f578190513861200d565b3d91506121c9565b60405162461bcd60e51b815260206004820152602560248201527f546f74616c207072697a6520616d6f756e74206d757374206265206174206c65604482015264617374203160d81b6064820152608490fd5b909291506001600160a01b0361225d60043561014401613210565b1615158061255d575b156110cf5750604051637bf046a960e01b8152909150602081600481885afa9081156107d2579061229d9184916118ab5750613224565b6122ac61014460043501613210565b604051630dedf14b60e41b81526001600160a01b039091166004820152602081602481885afa9081156107d257906122ea9184916114f05750613280565b600460206001600160a01b03612304833561014401613210565b1660405192838092638da5cb5b60e01b82525afa9081156107d257839161253e575b506001600160a01b0361233e60043561022401613210565b166001600160a01b03909116036124d45761235e61014460043501613210565b604051631a74b3f360e01b81526001600160a01b039091166004820152602081602481885afa9081156107d25783916124b5575b501561245e576123aa600160846004350135116132eb565b6123c16101a46004350135608460043501356131e7565b602460206001600160a01b036123dc60043561014401613210565b1660405192838092633570cb2960e21b8252610184600435013560048301525afa908115610e305790889392918591612423575b509061241d911015613337565b82610e0a565b91929350506020813d602011612456575b816124416020938361318a565b8101031261144f57518792919061241d612410565b3d9150612434565b60405162461bcd60e51b815260206004820152602960248201527f6572633131353544726f70206f6e6c7920666f7220696e7465726e616c20636f6044820152686c6c656374696f6e7360b81b6064820152608490fd5b6124ce915060203d60201161094f57610941818361318a565b38612392565b608460405162461bcd60e51b815260206004820152604060248201527f43726561746f72206d75737420626520746865206f776e6572206f662074686560448201527f207072697a6520636f6e747261637420666f72206572633131353544726f702e6064820152fd5b612557915060203d6020116114de576114d0818361318a565b38612326565b5061256d610124600435016131c4565b612266565b50612582610124600435016131c4565b15611cf2565b60405162461bcd60e51b815260206004820152601d60248201527f416d6f756e74207065722077696e6e6572206d757374206265203e20300000006044820152606490fd5b60405162461bcd60e51b8152602060048201526016602482015275556e737570706f72746564207072697a65207479706560501b6044820152606490fd5b60405162461bcd60e51b8152602060048201526016602482015275115490cc4c4d8dce8818dc99585d194819985a5b195960521b6044820152606490fd5b60405162461bcd60e51b815260206004820152601860248201527f5469636b6574207072696365206d757374206265203e203000000000000000006044820152606490fd5b5060405163043ddbd760e51b8152602081600481865afa908115610e305784916126b9575b506104a5565b90506020813d6020116126e3575b816126d46020938361318a565b8101031261144f5751386126b3565b3d91506126c7565b60405162461bcd60e51b815260206004820152603260248201527f5072697a656420726166666c6573206172652063757272656e746c792064697360448201527130b13632b210313c903a34329030b236b4b760711b6064820152608490fd5b612764915060203d60201161094f57610941818361318a565b38610491565b60405163043ddbd760e51b8152602081600481865afa908115610e30578491612a1b575b509260e460043501356129c657600160a460043501350361295b576001600160a01b036127c060043561014401613210565b166128f0576127d4610104600435016131c4565b612895576101846004350135612842576101a46004350135156104a75760405162461bcd60e51b815260206004820152602360248201527f43616e6e6f74207370656369667920616d6f756e7420776974686f7574207072604482015262697a6560e81b6064820152608490fd5b60405162461bcd60e51b815260206004820152602560248201527f43616e6e6f74207370656369667920746f6b656e20494420776974686f7574206044820152647072697a6560d81b6064820152608490fd5b60405162461bcd60e51b815260206004820152602d60248201527f43616e6e6f74207573652065726337323144726f70206966206e6f207072697a60448201526c19481a5cc81cd95b1958dd1959609a1b6064820152608490fd5b60405162461bcd60e51b815260206004820152603760248201527f43616e6e6f742073706563696679207072697a6520636f6c6c656374696f6e2060448201527f6966206e6f207072697a652069732073656c65637465640000000000000000006064820152608490fd5b60405162461bcd60e51b815260206004820152603960248201527f4e6f6e2d7072697a656420726166666c6573206d7573742068617665206d617860448201527f2031207469636b657420706572207061727469636970616e74000000000000006064820152608490fd5b60405162461bcd60e51b815260206004820152602760248201527f4e6f6e2d7072697a656420726166666c65206d7573742075736520676c6f62616044820152666c20707269636560c81b6064820152608490fd5b90506020813d602011612a45575b81612a366020938361318a565b8101031261144f57513861278e565b3d9150612a29565b60405162461bcd60e51b815260206004820152601b60248201527f496e76616c6964206d617820706572207061727469636970616e7400000000006044820152606490fd5b60809150015160a46004350135111538610454565b60405162461bcd60e51b815260206004820152601060248201526f24b73b30b634b210323ab930ba34b7b760811b6044820152606490fd5b50606081015160446004350135111561043d565b90506020813d602011612b1d575b81612b0e6020938361318a565b8101031261144f575138610423565b3d9150612b01565b9050612b49915060403d604011612b4f575b612b41818361318a565b8101906131d1565b386103f4565b503d612b37565b9050612b71915060403d604011612b4f57612b41818361318a565b386103c7565b634e487b7160e01b83526041600452602483fd5b60405162461bcd60e51b815260206004820152602960248201527f57696e6e6572732063616e6e6f742065786365656420323525206f66207469636044820152681ad95d081b1a5b5a5d60ba1b6064820152608490fd5b634e487b7160e01b85526011600452602485fd5b634e487b7160e01b84526011600452602484fd5b60405162461bcd60e51b815260206004820152601660248201527557696e6e65727320657863656564207469636b65747360501b6044820152606490fd5b60405162461bcd60e51b815260206004820152601a60248201527f4174206c6561737420312077696e6e65722072657175697265640000000000006044820152606490fd5b60405162461bcd60e51b815260206004820152601a60248201527f5469636b6574206c696d69742061626f7665206d6178696d756d0000000000006044820152606490fd5b60405162461bcd60e51b815260206004820152601a60248201527f5469636b6574206c696d69742062656c6f77206d696e696d756d0000000000006044820152606490fd5b612d3191925060403d604011612b4f57612b41818361318a565b905090386102ff565b90506020813d602011612d64575b81612d556020938361318a565b8101031261144f5751386102d9565b3d9150612d48565b60405162461bcd60e51b815260206004820152601c60248201527f53746172742074696d65206d75737420626520696e20667574757265000000006044820152606490fd5b60405162461bcd60e51b815260206004820152600f60248201526e10dc99585d1a5bdb881c185d5cd959608a1b6044820152606490fd5b612e01915060203d60201161094f57610941818361318a565b3861028c565b346101375780600319360112610137576001546040516001600160a01b039091168152602090f35b3461013757806003193601126101375780546001600160a01b039081163303612e5f576100e09060015416613119565b60405162461bcd60e51b815260206004820152601260248201527127b7363c9034b734ba34b0b61037bbb732b960711b6044820152606490fd5b34610137578060031936011261013757546040516001600160a01b039091168152602090f35b34610137578060031936011261013757612ed76130c1565b80546001600160a01b03198116825581906001600160a01b03167f8be0079c531659141344cd1fd0a4f28419497f9722a3daafe3b4186f6b6457e08280a380f35b34610137578060031936011261013757608090604051908152600160208201526002604082015260036060820152f35b346101375780600319360112610137576040517f00000000000000000000000000000000000000000000000000000000000000006001600160a01b03168152602090f35b3461013757608036600319011261013757612fa5613036565b50612fae61304c565b5060643567ffffffffffffffff811161019257612fcf903690600401613062565b5050604051630a85bd0160e11b8152602090f35b346101925760203660031901126101925760043563ffffffff60e01b81168091036102235760209250630a85bd0160e11b8114908115613025575b5015158152f35b630271189760e51b1490508361301e565b600435906001600160a01b038216820361189e57565b602435906001600160a01b038216820361189e57565b9181601f8401121561189e5782359167ffffffffffffffff831161189e576020838186019501011161189e57565b9181601f8401121561189e5782359167ffffffffffffffff831161189e576020808501948460051b01011161189e57565b6000546001600160a01b031633036130d557565b606460405162461bcd60e51b815260206004820152602060248201527f4f776e61626c653a2063616c6c6572206973206e6f7420746865206f776e65726044820152fd5b600080546001600160a01b039283166001600160a01b03198216811783559216907f8be0079c531659141344cd1fd0a4f28419497f9722a3daafe3b4186f6b6457e09080a3565b67ffffffffffffffff811161317457604052565b634e487b7160e01b600052604160045260246000fd5b90601f8019910116810190811067ffffffffffffffff82111761317457604052565b9081602091031261189e5751801515810361189e5790565b35801515810361189e5790565b919082604091031261189e576020825192015190565b818102929181159184041417156131fa57565b634e487b7160e01b600052601160045260246000fd5b356001600160a01b038116810361189e5790565b1561322b57565b60405162461bcd60e51b815260206004820152602760248201527f5573696e67206578697374696e6720636f6c6c656374696f6e7320697320646960448201526639b0b13632b21760c91b6064820152608490fd5b1561328757565b60405162461bcd60e51b815260206004820152601760248201527f436f6c6c656374696f6e206e6f7420617070726f7665640000000000000000006044820152606490fd5b9081602091031261189e57516001600160a01b038116810361189e5790565b156132f257565b60405162461bcd60e51b815260206004820152601c60248201527f4d7573742068617665206d6f7265207468616e20312077696e6e6572000000006044820152606490fd5b1561333e57565b60405162461bcd60e51b815260206004820152601d60248201527f496e73756666696369656e7420617661696c61626c6520737570706c790000006044820152606490fd5b1561338a57565b60405162461bcd60e51b815260206004820152601d60248201527f4d617820737570706c79206d75737420636f7665722077696e6e6572730000006044820152606490fd5b903590601e198136030182121561189e570180359067ffffffffffffffff821161189e5760200191813603831361189e57565b908060209392818452848401376000828201840152601f01601f1916010190565b9060038210156134305752565b634e487b7160e01b600052602160045260246000fd5b67ffffffffffffffff811161317457601f01601f191660200190565b92919261346e82613446565b9161347c604051938461318a565b82948184528183011161189e578281602093846000960137010152565b81156134a3570690565b634e487b7160e01b600052601260045260246000fd5b156134c057565b60405162461bcd60e51b8152602060048201526024808201527f4d6178207469636b65747320706572207061727469636970616e7420726571756044820152631a5c995960e21b6064820152608490fd5b919082519283825260005b84811061353d575050826000602080949584010152601f8019910116010190565b60208183018101518483018201520161351c56fea2646970667358221220f84f65a0fc084faee13e821135bf455599e0deb5ec1dbf8d0c26f6fd34e5ea1364736f6c63430008130033",
  "linkReferences": {},
  "deployedLinkReferences": {}
}