{
  "_format": "hh-sol-artifact-1",
  "contractName": "RaffleManager",
  "sourceName": "contracts/RaffleManager.sol",
  "abi": [
    {
      "inputs": [
        {
          "internalType": "address",
          "name": "_vrfCoordinator",
          "type": "address"
        },
        {
          "internalType": "bytes32",
          "name": "_keyHash",
          "type": "bytes32"
        },
        {
          "internalType": "address",
          "name": "_linkToken",
          "type": "address"
        },
        {
          "internalType": "uint32",
          "name": "_callbackGasLimit",
          "type": "uint32"
        },
        {
          "internalType": "uint16",
          "name": "_requestConfirmations",
          "type": "uint16"
        }
      ],
      "stateMutability": "nonpayable",
      "type": "constructor"
    },
    {
      "anonymous": false,
      "inputs": [
        {
          "indexed": false,
          "internalType": "bool",
          "name": "status",
          "type": "bool"
        }
      ],
      "name": "AllowExistingCollectionsToggled",
      "type": "event"
    },
    {
      "anonymous": false,
      "inputs": [
        {
          "indexed": true,
          "internalType": "address",
          "name": "collection",
          "type": "address"
        },
        {
          "indexed": false,
          "internalType": "bool",
          "name": "isWhitelisted",
          "type": "bool"
        }
      ],
      "name": "CollectionWhitelistUpdated",
      "type": "event"
    },
    {
      "anonymous": false,
      "inputs": [
        {
          "indexed": false,
          "internalType": "string",
          "name": "contractType",
          "type": "string"
        },
        {
          "indexed": false,
          "internalType": "address",
          "name": "newAddress",
          "type": "address"
        }
      ],
      "name": "ContractReplaced",
      "type": "event"
    },
    {
      "anonymous": false,
      "inputs": [
        {
          "indexed": false,
          "internalType": "uint256",
          "name": "newPercentage",
          "type": "uint256"
        }
      ],
      "name": "CreationFeePercentageUpdated",
      "type": "event"
    },
    {
      "anonymous": false,
      "inputs": [
        {
          "indexed": false,
          "internalType": "uint256",
          "name": "min",
          "type": "uint256"
        },
        {
          "indexed": false,
          "internalType": "uint256",
          "name": "max",
          "type": "uint256"
        }
      ],
      "name": "DurationLimitsUpdated",
      "type": "event"
    },
    {
      "anonymous": false,
      "inputs": [
        {
          "indexed": true,
          "internalType": "address",
          "name": "token",
          "type": "address"
        },
        {
          "indexed": false,
          "internalType": "bool",
          "name": "whitelisted",
          "type": "bool"
        }
      ],
      "name": "ERC20PrizeWhitelisted",
      "type": "event"
    },
    {
      "anonymous": false,
      "inputs": [
        {
          "indexed": true,
          "internalType": "address",
          "name": "collection",
          "type": "address"
        }
      ],
      "name": "ExternalCollectionAdded",
      "type": "event"
    },
    {
      "anonymous": false,
      "inputs": [
        {
          "indexed": false,
          "internalType": "uint256",
          "name": "newPrice",
          "type": "uint256"
        }
      ],
      "name": "GlobalTicketPriceUpdated",
      "type": "event"
    },
    {
      "anonymous": false,
      "inputs": [
        {
          "indexed": true,
          "internalType": "address",
          "name": "collection",
          "type": "address"
        }
      ],
      "name": "InternalCollectionAdded",
      "type": "event"
    },
    {
      "anonymous": false,
      "inputs": [
        {
          "indexed": false,
          "internalType": "address",
          "name": "newLinkToken",
          "type": "address"
        }
      ],
      "name": "LinkTokenUpdated",
      "type": "event"
    },
    {
      "anonymous": false,
      "inputs": [
        {
          "indexed": false,
          "internalType": "uint256",
          "name": "newLimit",
          "type": "uint256"
        }
      ],
      "name": "MaxTicketsPerParticipantUpdated",
      "type": "event"
    },
    {
      "anonymous": false,
      "inputs": [
        {
          "indexed": false,
          "internalType": "uint256",
          "name": "newMin",
          "type": "uint256"
        }
      ],
      "name": "MinTicketLimitNonPrizedUpdated",
      "type": "event"
    },
    {
      "anonymous": false,
      "inputs": [
        {
          "indexed": false,
          "internalType": "address",
          "name": "operator",
          "type": "address"
        },
        {
          "indexed": false,
          "internalType": "bool",
          "name": "status",
          "type": "bool"
        }
      ],
      "name": "OperatorUpdated",
      "type": "event"
    },
    {
      "anonymous": false,
      "inputs": [
        {
          "indexed": true,
          "internalType": "address",
          "name": "previousOwner",
          "type": "address"
        },
        {
          "indexed": true,
          "internalType": "address",
          "name": "newOwner",
          "type": "address"
        }
      ],
      "name": "OwnershipTransferred",
      "type": "event"
    },
    {
      "anonymous": false,
      "inputs": [
        {
          "indexed": false,
          "internalType": "bool",
          "name": "status",
          "type": "bool"
        }
      ],
      "name": "PrizedRafflesToggled",
      "type": "event"
    },
    {
      "anonymous": false,
      "inputs": [
        {
          "indexed": false,
          "internalType": "uint256",
          "name": "newPercentage",
          "type": "uint256"
        }
      ],
      "name": "ProtocolFeeUpdated",
      "type": "event"
    },
    {
      "anonymous": false,
      "inputs": [
        {
          "indexed": false,
          "internalType": "bool",
          "name": "paused",
          "type": "bool"
        }
      ],
      "name": "RaffleCreationPaused",
      "type": "event"
    },
    {
      "anonymous": false,
      "inputs": [
        {
          "indexed": true,
          "internalType": "address",
          "name": "raffle",
          "type": "address"
        }
      ],
      "name": "RaffleRegistered",
      "type": "event"
    },
    {
      "anonymous": false,
      "inputs": [
        {
          "indexed": false,
          "internalType": "uint256",
          "name": "newPercentage",
          "type": "uint256"
        }
      ],
      "name": "RefundablePercentageUpdated",
      "type": "event"
    },
    {
      "anonymous": false,
      "inputs": [
        {
          "indexed": false,
          "internalType": "address",
          "name": "newAddress",
          "type": "address"
        }
      ],
      "name": "RevenueManagerUpdated",
      "type": "event"
    },
    {
      "anonymous": false,
      "inputs": [
        {
          "indexed": true,
          "internalType": "uint256",
          "name": "subscriptionId",
          "type": "uint256"
        }
      ],
      "name": "SubscriptionCreated",
      "type": "event"
    },
    {
      "anonymous": false,
      "inputs": [
        {
          "indexed": false,
          "internalType": "uint96",
          "name": "amount",
          "type": "uint96"
        }
      ],
      "name": "SubscriptionFunded",
      "type": "event"
    },
    {
      "anonymous": false,
      "inputs": [
        {
          "indexed": false,
          "internalType": "uint256",
          "name": "minTicketLimit",
          "type": "uint256"
        },
        {
          "indexed": false,
          "internalType": "uint256",
          "name": "maxTicketLimit",
          "type": "uint256"
        }
      ],
      "name": "TicketLimitsUpdated",
      "type": "event"
    },
    {
      "anonymous": false,
      "inputs": [
        {
          "indexed": true,
          "internalType": "address",
          "name": "consumer",
          "type": "address"
        }
      ],
      "name": "VRFConsumerAdded",
      "type": "event"
    },
    {
      "anonymous": false,
      "inputs": [
        {
          "indexed": true,
          "internalType": "address",
          "name": "consumer",
          "type": "address"
        }
      ],
      "name": "VRFConsumerRemoved",
      "type": "event"
    },
    {
      "anonymous": false,
      "inputs": [],
      "name": "VRFParamsUpdated",
      "type": "event"
    },
    {
      "anonymous": false,
      "inputs": [],
      "name": "VRFSubscriptionCancelled",
      "type": "event"
    },
    {
      "inputs": [
        {
          "internalType": "address",
          "name": "token",
          "type": "address"
        }
      ],
      "name": "addERC20Prize",
      "outputs": [],
      "stateMutability": "nonpayable",
      "type": "function"
    },
    {
      "inputs": [
        {
          "internalType": "address",
          "name": "_collection",
          "type": "address"
        }
      ],
      "name": "addExternalCollection",
      "outputs": [],
      "stateMutability": "nonpayable",
      "type": "function"
    },
    {
      "inputs": [
        {
          "internalType": "address",
          "name": "_collection",
          "type": "address"
        }
      ],
      "name": "addInternalCollection",
      "outputs": [],
      "stateMutability": "nonpayable",
      "type": "function"
    },
    {
      "inputs": [
        {
          "internalType": "address",
          "name": "consumer",
          "type": "address"
        }
      ],
      "name": "addVRFConsumer",
      "outputs": [],
      "stateMutability": "nonpayable",
      "type": "function"
    },
    {
      "inputs": [
        {
          "internalType": "uint256",
          "name": "",
          "type": "uint256"
        }
      ],
      "name": "allRaffles",
      "outputs": [
        {
          "internalType": "address",
          "name": "",
          "type": "address"
        }
      ],
      "stateMutability": "view",
      "type": "function"
    },
    {
      "inputs": [],
      "name": "allowExistingCollections",
      "outputs": [
        {
          "internalType": "bool",
          "name": "",
          "type": "bool"
        }
      ],
      "stateMutability": "view",
      "type": "function"
    },
    {
      "inputs": [
        {
          "internalType": "address",
          "name": "",
          "type": "address"
        }
      ],
      "name": "approvedCollections",
      "outputs": [
        {
          "internalType": "bool",
          "name": "",
          "type": "bool"
        }
      ],
      "stateMutability": "view",
      "type": "function"
    },
    {
      "inputs": [],
      "name": "callbackGasLimit",
      "outputs": [
        {
          "internalType": "uint32",
          "name": "",
          "type": "uint32"
        }
      ],
      "stateMutability": "view",
      "type": "function"
    },
    {
      "inputs": [],
      "name": "cancelVRFSubscription",
      "outputs": [],
      "stateMutability": "nonpayable",
      "type": "function"
    },
    {
      "inputs": [],
      "name": "createVRFSubscription",
      "outputs": [],
      "stateMutability": "nonpayable",
      "type": "function"
    },
    {
      "inputs": [],
      "name": "creationFeePercentage",
      "outputs": [
        {
          "internalType": "uint256",
          "name": "",
          "type": "uint256"
        }
      ],
      "stateMutability": "view",
      "type": "function"
    },
    {
      "inputs": [],
      "name": "creationPaused",
      "outputs": [
        {
          "internalType": "bool",
          "name": "",
          "type": "bool"
        }
      ],
      "stateMutability": "view",
      "type": "function"
    },
    {
      "inputs": [
        {
          "internalType": "address",
          "name": "",
          "type": "address"
        }
      ],
      "name": "erc20PrizeWhitelist",
      "outputs": [
        {
          "internalType": "bool",
          "name": "",
          "type": "bool"
        }
      ],
      "stateMutability": "view",
      "type": "function"
    },
    {
      "inputs": [
        {
          "internalType": "uint96",
          "name": "amount",
          "type": "uint96"
        }
      ],
      "name": "fundVRFSubscriptionWithLink",
      "outputs": [],
      "stateMutability": "nonpayable",
      "type": "function"
    },
    {
      "inputs": [
        {
          "internalType": "uint96",
          "name": "amount",
          "type": "uint96"
        }
      ],
      "name": "fundVRFSubscriptionWithNative",
      "outputs": [],
      "stateMutability": "payable",
      "type": "function"
    },
    {
      "inputs": [],
      "name": "getAllRaffles",
      "outputs": [
        {
          "internalType": "address[]",
          "name": "",
          "type": "address[]"
        }
      ],
      "stateMutability": "view",
      "type": "function"
    },
    {
      "inputs": [],
      "name": "getAllTicketLimits",
      "outputs": [
        {
          "internalType": "uint256",
          "name": "minPrized",
          "type": "uint256"
        },
        {
          "internalType": "uint256",
          "name": "minNonPrized",
          "type": "uint256"
        },
        {
          "internalType": "uint256",
          "name": "max",
          "type": "uint256"
        }
      ],
      "stateMutability": "view",
      "type": "function"
    },
    {
      "inputs": [],
      "name": "getCreationFeePercentage",
      "outputs": [
        {
          "internalType": "uint256",
          "name": "",
          "type": "uint256"
        }
      ],
      "stateMutability": "view",
      "type": "function"
    },
    {
      "inputs": [],
      "name": "getDurationLimits",
      "outputs": [
        {
          "internalType": "uint256",
          "name": "",
          "type": "uint256"
        },
        {
          "internalType": "uint256",
          "name": "",
          "type": "uint256"
        }
      ],
      "stateMutability": "view",
      "type": "function"
    },
    {
      "inputs": [],
      "name": "getMaxTicketsPerParticipant",
      "outputs": [
        {
          "internalType": "uint256",
          "name": "",
          "type": "uint256"
        }
      ],
      "stateMutability": "view",
      "type": "function"
    },
    {
      "inputs": [
        {
          "internalType": "bool",
          "name": "isPrized",
          "type": "bool"
        }
      ],
      "name": "getMinTicketLimit",
      "outputs": [
        {
          "internalType": "uint256",
          "name": "",
          "type": "uint256"
        }
      ],
      "stateMutability": "view",
      "type": "function"
    },
    {
      "inputs": [],
      "name": "getRaffleConfig",
      "outputs": [
        {
          "internalType": "uint256",
          "name": "",
          "type": "uint256"
        },
        {
          "internalType": "uint256",
          "name": "",
          "type": "uint256"
        },
        {
          "internalType": "uint256",
          "name": "",
          "type": "uint256"
        }
      ],
      "stateMutability": "view",
      "type": "function"
    },
    {
      "inputs": [],
      "name": "getRevenueManager",
      "outputs": [
        {
          "internalType": "address",
          "name": "",
          "type": "address"
        }
      ],
      "stateMutability": "view",
      "type": "function"
    },
    {
      "inputs": [],
      "name": "getRevenueParameters",
      "outputs": [
        {
          "internalType": "uint256",
          "name": "_protocolFee",
          "type": "uint256"
        },
        {
          "internalType": "uint256",
          "name": "_refundablePercentage",
          "type": "uint256"
        },
        {
          "internalType": "uint256",
          "name": "_creationFeePercentage",
          "type": "uint256"
        }
      ],
      "stateMutability": "view",
      "type": "function"
    },
    {
      "inputs": [],
      "name": "getRevenueShare",
      "outputs": [
        {
          "internalType": "bool",
          "name": "",
          "type": "bool"
        },
        {
          "internalType": "uint256",
          "name": "",
          "type": "uint256"
        }
      ],
      "stateMutability": "view",
      "type": "function"
    },
    {
      "inputs": [],
      "name": "getSubscriptionId",
      "outputs": [
        {
          "internalType": "uint256",
          "name": "",
          "type": "uint256"
        }
      ],
      "stateMutability": "view",
      "type": "function"
    },
    {
      "inputs": [],
      "name": "getTicketLimits",
      "outputs": [
        {
          "internalType": "uint256",
          "name": "",
          "type": "uint256"
        },
        {
          "internalType": "uint256",
          "name": "",
          "type": "uint256"
        }
      ],
      "stateMutability": "view",
      "type": "function"
    },
    {
      "inputs": [],
      "name": "getTicketPrice",
      "outputs": [
        {
          "internalType": "uint256",
          "name": "",
          "type": "uint256"
        }
      ],
      "stateMutability": "view",
      "type": "function"
    },
    {
      "inputs": [],
      "name": "getVRFParams",
      "outputs": [
        {
          "internalType": "address",
          "name": "",
          "type": "address"
        },
        {
          "internalType": "uint256",
          "name": "",
          "type": "uint256"
        },
        {
          "internalType": "bytes32",
          "name": "",
          "type": "bytes32"
        },
        {
          "internalType": "uint32",
          "name": "",
          "type": "uint32"
        },
        {
          "internalType": "uint16",
          "name": "",
          "type": "uint16"
        }
      ],
      "stateMutability": "view",
      "type": "function"
    },
    {
      "inputs": [],
      "name": "globalTicketPrice",
      "outputs": [
        {
          "internalType": "uint256",
          "name": "",
          "type": "uint256"
        }
      ],
      "stateMutability": "view",
      "type": "function"
    },
    {
      "inputs": [],
      "name": "initializeOwnership",
      "outputs": [],
      "stateMutability": "nonpayable",
      "type": "function"
    },
    {
      "inputs": [
        {
          "internalType": "address",
          "name": "_collection",
          "type": "address"
        }
      ],
      "name": "isCollectionApproved",
      "outputs": [
        {
          "internalType": "bool",
          "name": "",
          "type": "bool"
        }
      ],
      "stateMutability": "view",
      "type": "function"
    },
    {
      "inputs": [],
      "name": "isCreationPaused",
      "outputs": [
        {
          "internalType": "bool",
          "name": "",
          "type": "bool"
        }
      ],
      "stateMutability": "view",
      "type": "function"
    },
    {
      "inputs": [
        {
          "internalType": "address",
          "name": "token",
          "type": "address"
        }
      ],
      "name": "isERC20PrizeWhitelisted",
      "outputs": [
        {
          "internalType": "bool",
          "name": "",
          "type": "bool"
        }
      ],
      "stateMutability": "view",
      "type": "function"
    },
    {
      "inputs": [
        {
          "internalType": "address",
          "name": "",
          "type": "address"
        }
      ],
      "name": "isInternalCollection",
      "outputs": [
        {
          "internalType": "bool",
          "name": "",
          "type": "bool"
        }
      ],
      "stateMutability": "view",
      "type": "function"
    },
    {
      "inputs": [
        {
          "internalType": "address",
          "name": "operator",
          "type": "address"
        }
      ],
      "name": "isOperator",
      "outputs": [
        {
          "internalType": "bool",
          "name": "",
          "type": "bool"
        }
      ],
      "stateMutability": "view",
      "type": "function"
    },
    {
      "inputs": [
        {
          "internalType": "address",
          "name": "",
          "type": "address"
        }
      ],
      "name": "isVRFConsumer",
      "outputs": [
        {
          "internalType": "bool",
          "name": "",
          "type": "bool"
        }
      ],
      "stateMutability": "view",
      "type": "function"
    },
    {
      "inputs": [],
      "name": "keyHash",
      "outputs": [
        {
          "internalType": "bytes32",
          "name": "",
          "type": "bytes32"
        }
      ],
      "stateMutability": "view",
      "type": "function"
    },
    {
      "inputs": [],
      "name": "linkToken",
      "outputs": [
        {
          "internalType": "contract ILinkTransferAndCall",
          "name": "",
          "type": "address"
        }
      ],
      "stateMutability": "view",
      "type": "function"
    },
    {
      "inputs": [],
      "name": "maxRaffleDuration",
      "outputs": [
        {
          "internalType": "uint256",
          "name": "",
          "type": "uint256"
        }
      ],
      "stateMutability": "view",
      "type": "function"
    },
    {
      "inputs": [],
      "name": "maxTicketLimit",
      "outputs": [
        {
          "internalType": "uint256",
          "name": "",
          "type": "uint256"
        }
      ],
      "stateMutability": "view",
      "type": "function"
    },
    {
      "inputs": [],
      "name": "maxTicketsPerParticipant",
      "outputs": [
        {
          "internalType": "uint256",
          "name": "",
          "type": "uint256"
        }
      ],
      "stateMutability": "view",
      "type": "function"
    },
    {
      "inputs": [],
      "name": "minRaffleDuration",
      "outputs": [
        {
          "internalType": "uint256",
          "name": "",
          "type": "uint256"
        }
      ],
      "stateMutability": "view",
      "type": "function"
    },
    {
      "inputs": [],
      "name": "minTicketLimit",
      "outputs": [
        {
          "internalType": "uint256",
          "name": "",
          "type": "uint256"
        }
      ],
      "stateMutability": "view",
      "type": "function"
    },
    {
      "inputs": [],
      "name": "minTicketLimitNonPrized",
      "outputs": [
        {
          "internalType": "uint256",
          "name": "",
          "type": "uint256"
        }
      ],
      "stateMutability": "view",
      "type": "function"
    },
    {
      "inputs": [],
      "name": "nftFactory",
      "outputs": [
        {
          "internalType": "address",
          "name": "",
          "type": "address"
        }
      ],
      "stateMutability": "view",
      "type": "function"
    },
    {
      "inputs": [
        {
          "internalType": "address",
          "name": "",
          "type": "address"
        }
      ],
      "name": "operators",
      "outputs": [
        {
          "internalType": "bool",
          "name": "",
          "type": "bool"
        }
      ],
      "stateMutability": "view",
      "type": "function"
    },
    {
      "inputs": [],
      "name": "owner",
      "outputs": [
        {
          "internalType": "address",
          "name": "",
          "type": "address"
        }
      ],
      "stateMutability": "view",
      "type": "function"
    },
    {
      "inputs": [
        {
          "internalType": "bool",
          "name": "pause",
          "type": "bool"
        }
      ],
      "name": "pauseRaffleCreation",
      "outputs": [],
      "stateMutability": "nonpayable",
      "type": "function"
    },
    {
      "inputs": [],
      "name": "prizedRafflesEnabled",
      "outputs": [
        {
          "internalType": "bool",
          "name": "",
          "type": "bool"
        }
      ],
      "stateMutability": "view",
      "type": "function"
    },
    {
      "inputs": [],
      "name": "protocolFeePercentage",
      "outputs": [
        {
          "internalType": "uint256",
          "name": "",
          "type": "uint256"
        }
      ],
      "stateMutability": "view",
      "type": "function"
    },
    {
      "inputs": [],
      "name": "raffleDeployer",
      "outputs": [
        {
          "internalType": "address",
          "name": "",
          "type": "address"
        }
      ],
      "stateMutability": "view",
      "type": "function"
    },
    {
      "inputs": [],
      "name": "refundablePercentage",
      "outputs": [
        {
          "internalType": "uint256",
          "name": "",
          "type": "uint256"
        }
      ],
      "stateMutability": "view",
      "type": "function"
    },
    {
      "inputs": [
        {
          "internalType": "address",
          "name": "raffle",
          "type": "address"
        }
      ],
      "name": "registerRaffle",
      "outputs": [],
      "stateMutability": "nonpayable",
      "type": "function"
    },
    {
      "inputs": [
        {
          "internalType": "address",
          "name": "_collection",
          "type": "address"
        }
      ],
      "name": "removeApprovedCollection",
      "outputs": [],
      "stateMutability": "nonpayable",
      "type": "function"
    },
    {
      "inputs": [
        {
          "internalType": "address",
          "name": "token",
          "type": "address"
        }
      ],
      "name": "removeERC20Prize",
      "outputs": [],
      "stateMutability": "nonpayable",
      "type": "function"
    },
    {
      "inputs": [
        {
          "internalType": "address",
          "name": "consumer",
          "type": "address"
        }
      ],
      "name": "removeVRFConsumer",
      "outputs": [],
      "stateMutability": "nonpayable",
      "type": "function"
    },
    {
      "inputs": [],
      "name": "renounceOwnership",
      "outputs": [],
      "stateMutability": "nonpayable",
      "type": "function"
    },
    {
      "inputs": [
        {
          "internalType": "string",
          "name": "contractType",
          "type": "string"
        },
        {
          "internalType": "address",
          "name": "newAddress",
          "type": "address"
        }
      ],
      "name": "replaceContract",
      "outputs": [],
      "stateMutability": "nonpayable",
      "type": "function"
    },
    {
      "inputs": [],
      "name": "requestConfirmations",
      "outputs": [
        {
          "internalType": "uint16",
          "name": "",
          "type": "uint16"
        }
      ],
      "stateMutability": "view",
      "type": "function"
    },
    {
      "inputs": [],
      "name": "revenueManager",
      "outputs": [
        {
          "internalType": "address",
          "name": "",
          "type": "address"
        }
      ],
      "stateMutability": "view",
      "type": "function"
    },
    {
      "inputs": [],
      "name": "revenueSharePercentage",
      "outputs": [
        {
          "internalType": "uint256",
          "name": "",
          "type": "uint256"
        }
      ],
      "stateMutability": "view",
      "type": "function"
    },
    {
      "inputs": [],
      "name": "revenueSharingEnabled",
      "outputs": [
        {
          "internalType": "bool",
          "name": "",
          "type": "bool"
        }
      ],
      "stateMutability": "view",
      "type": "function"
    },
    {
      "inputs": [
        {
          "internalType": "uint256",
          "name": "_percentage",
          "type": "uint256"
        }
      ],
      "name": "setCreationFeePercentage",
      "outputs": [],
      "stateMutability": "nonpayable",
      "type": "function"
    },
    {
      "inputs": [
        {
          "internalType": "uint256",
          "name": "_min",
          "type": "uint256"
        },
        {
          "internalType": "uint256",
          "name": "_max",
          "type": "uint256"
        }
      ],
      "name": "setDurationLimits",
      "outputs": [],
      "stateMutability": "nonpayable",
      "type": "function"
    },
    {
      "inputs": [
        {
          "internalType": "uint256",
          "name": "_price",
          "type": "uint256"
        }
      ],
      "name": "setGlobalTicketPrice",
      "outputs": [],
      "stateMutability": "nonpayable",
      "type": "function"
    },
    {
      "inputs": [
        {
          "internalType": "address",
          "name": "_linkToken",
          "type": "address"
        }
      ],
      "name": "setLinkToken",
      "outputs": [],
      "stateMutability": "nonpayable",
      "type": "function"
    },
    {
      "inputs": [
        {
          "internalType": "uint256",
          "name": "_maxTickets",
          "type": "uint256"
        }
      ],
      "name": "setMaxTicketsPerParticipant",
      "outputs": [],
      "stateMutability": "nonpayable",
      "type": "function"
    },
    {
      "inputs": [
        {
          "internalType": "uint256",
          "name": "_min",
          "type": "uint256"
        }
      ],
      "name": "setMinTicketLimitNonPrized",
      "outputs": [],
      "stateMutability": "nonpayable",
      "type": "function"
    },
    {
      "inputs": [
        {
          "internalType": "address",
          "name": "_nftFactory",
          "type": "address"
        }
      ],
      "name": "setNFTFactory",
      "outputs": [],
      "stateMutability": "nonpayable",
      "type": "function"
    },
    {
      "inputs": [
        {
          "internalType": "address",
          "name": "operator",
          "type": "address"
        },
        {
          "internalType": "bool",
          "name": "status",
          "type": "bool"
        }
      ],
      "name": "setOperator",
      "outputs": [],
      "stateMutability": "nonpayable",
      "type": "function"
    },
    {
      "inputs": [
        {
          "internalType": "uint256",
          "name": "_percentage",
          "type": "uint256"
        }
      ],
      "name": "setProtocolFee",
      "outputs": [],
      "stateMutability": "nonpayable",
      "type": "function"
    },
    {
      "inputs": [
        {
          "internalType": "address",
          "name": "_raffleDeployer",
          "type": "address"
        }
      ],
      "name": "setRaffleDeployer",
      "outputs": [],
      "stateMutability": "nonpayable",
      "type": "function"
    },
    {
      "inputs": [
        {
          "internalType": "uint256",
          "name": "_percentage",
          "type": "uint256"
        }
      ],
      "name": "setRefundablePercentage",
      "outputs": [],
      "stateMutability": "nonpayable",
      "type": "function"
    },
    {
      "inputs": [
        {
          "internalType": "address",
          "name": "_revenueManager",
          "type": "address"
        }
      ],
      "name": "setRevenueManager",
      "outputs": [],
      "stateMutability": "nonpayable",
      "type": "function"
    },
    {
      "inputs": [
        {
          "internalType": "uint256",
          "name": "_min",
          "type": "uint256"
        },
        {
          "internalType": "uint256",
          "name": "_max",
          "type": "uint256"
        }
      ],
      "name": "setTicketLimits",
      "outputs": [],
      "stateMutability": "nonpayable",
      "type": "function"
    },
    {
      "inputs": [
        {
          "internalType": "address",
          "name": "_coordinator",
          "type": "address"
        },
        {
          "internalType": "bytes32",
          "name": "_keyHash",
          "type": "bytes32"
        },
        {
          "internalType": "uint32",
          "name": "_gasLimit",
          "type": "uint32"
        }
      ],
      "name": "setVRFParams",
      "outputs": [],
      "stateMutability": "nonpayable",
      "type": "function"
    },
    {
      "inputs": [
        {
          "internalType": "uint256",
          "name": "_subscriptionId",
          "type": "uint256"
        }
      ],
      "name": "setVRFSubscriptionId",
      "outputs": [],
      "stateMutability": "nonpayable",
      "type": "function"
    },
    {
      "inputs": [
        {
          "internalType": "bool",
          "name": "_status",
          "type": "bool"
        }
      ],
      "name": "toggleAllowExistingCollections",
      "outputs": [],
      "stateMutability": "nonpayable",
      "type": "function"
    },
    {
      "inputs": [
        {
          "internalType": "bool",
          "name": "_status",
          "type": "bool"
        }
      ],
      "name": "togglePrizedRaffles",
      "outputs": [],
      "stateMutability": "nonpayable",
      "type": "function"
    },
    {
      "inputs": [
        {
          "internalType": "address",
          "name": "newOwner",
          "type": "address"
        }
      ],
      "name": "transferOwnership",
      "outputs": [],
      "stateMutability": "nonpayable",
      "type": "function"
    },
    {
      "inputs": [],
      "name": "vrfCoordinator",
      "outputs": [
        {
          "internalType": "contract VRFCoordinatorV2PlusInterface",
          "name": "",
          "type": "address"
        }
      ],
      "stateMutability": "view",
      "type": "function"
    },
    {
      "inputs": [],
      "name": "vrfSubscriptionId",
      "outputs": [
        {
          "internalType": "uint256",
          "name": "",
          "type": "uint256"
        }
      ],
      "stateMutability": "view",
      "type": "function"
    }
  ],
  "bytecode": "0x60808060405234620001d75760a081620025ca8038038091620000238285620001dc565b833981010312620001d757620000398162000216565b60209081830151926200004f6040820162000216565b60608201519163ffffffff8316809303620001d757608001519261ffff84168403620001d757600485926000809881549460018060a01b03199733898816178455604051988997889660018060a01b0391823391167f8be0079c531659141344cd1fd0a4f28419497f9722a3daafe3b4186f6b6457e08980a3818954956001600b556001600c55612710600d55610e10600e5562278d00600f556509184e72a000601055600a6013551695868460015416176001556003551690600854161760085565ffff0000000060ff199a8b601b5416601b55891b169165ffffffffffff19161717845563288688f960e21b83525af1928315620001cc57849362000192575b505081600255600a5416600a557f6a2b70dde6ae0193f84b6a9eeb3b0ebdc3a35e99d9167b88c570158dd09cb0f76040519280a261239e90816200022c8239f35b9080929350813d8311620001c4575b620001ad8183620001dc565b81010312620001c0575190388062000151565b8280fd5b503d620001a1565b6040513d86823e3d90fd5b600080fd5b601f909101601f19168101906001600160401b038211908210176200020057604052565b634e487b7160e01b600052604160045260246000fd5b51906001600160a01b0382168203620001d75756fe608060408181526004918236101561001657600080fd5b600092833560e01c91826301b71a26146120f4575081630207999f146120c1578163026cf6011461207157816304199eeb146120155781630ac2c18d14611a675781630c17851614611e9c5781630fc1bb8d1461149657816313e7c9d8146116705781631454ac2614611e7d57816316accbeb14611e3f5781631a74b3f314611e015781631d4bb73d14611dd857816324f7469714611db4578163253ad0d514611d875781632c56011014611d395781632e4a33cb14611cca578163346f2d8d14611c19578163359123f914611b5f5781633aaa814714611a865781633d1705e014611a67578382633dc7aad4146119bd57508163414e56ca1461105d5781634a2e22d3146118ff578163521a9ab4146118e0578163524d530b146118b7578163558a729714611836578163565457bf1461181c57816357970e93146117f35781635b4c9295146117925781635d361470146117365781635e7b8eea1461171157816360f1eaf5146116ec57816361728f39146116cd5781636d61abb7146116ae5781636d70f7ae14611670578163715018a61461161657816374b40403146115b5578163787dce3d1461155957816378ee1749146114f85781637bf046a9146114d457816381b6ab821461149657816387bb7ae0146104725781638da33c07146113975781638da5cb5b1461136f5781638e50e50914611350578163933eea6b1461128b57816398c095531461126c5781639c24ea40146111fd5781639e55378e146111935781639eb0671814611152578163a3e56fa814611129578163a61b096c14611102578163af0e8c8c146110de578163af44f7f2146110a5578163b0fb162f14611081578163b5e1a3c014610a05578163bd12dd641461105d578163be83191914610f62578163bfcbfa5c14610f2f578163c1fa933814610ec0578163c94e9d6614610e56578163cb2d93ce14610dcc578163d144cbae14610d3e578163d1a9228814610d0b578163d63843cd14610ce2578163d7c7752414610a43578163d80aaa4514610a24578163d91043f214610a05578163de3d9fb714610777578163dedf14b0146107e9578163e57ac96e1461095c578163e95805c0146108b5578163ea7e3a3a14610827578163ec07fb74146107e9578163ec644ddd14610796578163ed647d2114610777578163ef11753c14610758578163f25949f9146105f5578163f2fde38b1461055f57838263f726272c1461049157508163f9f08bd914610472578163fd62120e146103e5575063ff3cd61e146103ba57600080fd5b346103e157816003193601126103e15760115490516001600160a01b039091168152602090f35b5080fd5b8390346103e15760603660031901126103e157610400612126565b6044359063ffffffff821680920361046e5761041a612198565b60018060a01b03166001600160601b0360a01b600154161760015560243560035563ffffffff198254161790557f4c6a50dab5e2b4bdf345de73b06a62ca5c45dde34eecef3c38eb568564f6547c8180a180f35b8380fd5b5050346103e157816003193601126103e1576020906010549051908152f35b8091843461055b578260031936011261055b576104ac612198565b60015460025484549093916001600160a01b039182169116803b15610557578351622b825560e61b81529283019485526001600160a01b03909116602085015290928491849182908490829060400103925af190811561054e5750610537575b506002557fad9127d67531701fd4222369e46413ad989a276f8ae432b7a2bb01a147a1be9e8180a180f35b61054090612237565b61054b57808261050c565b80fd5b513d84823e3d90fd5b8580fd5b5050fd5b9050346105f15760203660031901126105f15761057a612126565b91610583612198565b6001600160a01b0383161561059f578361059c846121f0565b80f35b906020608492519162461bcd60e51b8352820152602660248201527f4f776e61626c653a206e6577206f776e657220697320746865207a65726f206160448201526564647265737360d01b6064820152fd5b8280fd5b9050346105f157816003193601126105f15780359167ffffffffffffffff9182841161075457366023850112156107545783013591821161046e576024830192602483369201011161046e576024356001600160a01b038116919082900361074f5782606092817f1592f515c298c578903964a58733180fe97bdf05860fc70a7e21b61e8cc2d1b196610686612198565b7f86defe14b01ea99a14b4ea1aa7653acb785d64e243d89c26eb47fb36b2fc0c036106b2368484612309565b602081519101201460001461070057601880546001600160a01b031916841790555b84519685889687528601528585013782820184018790526020830152601f01601f19168101030190a180f35b7fd826c10e37a7770f02c01ddf03373f8c12e6ec73eac52b5d0ff825017dc682ef61072c368484612309565b60208151910120036106d457601980546001600160a01b031916841790556106d4565b600080fd5b8480fd5b5050346103e157816003193601126103e1576020906012549051908152f35b5050346103e157816003193601126103e1576020906002549051908152f35b9050823461054b578060031936011261054b575061ffff60a092600180851b036001541692600254916003549154928151958652602086015284015263ffffffff8116606084015260201c166080820152f35b5050346103e15760203660031901126103e15760209160ff9082906001600160a01b03610814612126565b1681526007855220541690519015158152f35b5050346103e15760203660031901126103e15760807f1592f515c298c578903964a58733180fe97bdf05860fc70a7e21b61e8cc2d1b191610866612126565b61086e612198565b60018060a01b0316806001600160601b0360a01b6018541617601855600e8251928084528301526d2930b3333632a232b83637bcb2b960911b60608301526020820152a180f35b919050346105f15760203660031901126105f1578135916108d4612198565b6108df831515612283565b600d54831161091a5750816020917f5e4e273fcfb2259b6f206e48e817145a6f970a00ed6159e73ea79ae4d03fa89493600c5551908152a180f35b6020606492519162461bcd60e51b8352820152601760248201527f43616e6e6f7420657863656564206d6178206c696d69740000000000000000006044820152fd5b8383346103e15761096c36612110565b93610975612198565b610980821515612283565b818511156109c257507f873847b0a596e4dab1719b7ac3b5bbc6f31d3534818784017ab5675cfc30a1b1929381600b5580600d5582519182526020820152a180f35b606490602084519162461bcd60e51b8352820152601c60248201527f4d6178206d7573742062652067726561746572207468616e206d696e000000006044820152fd5b5050346103e157816003193601126103e1576020906017549051908152f35b5050346103e157816003193601126103e157602090600c549051908152f35b839150346103e157602090816003193601126105f1578035906001600160601b03821680920361046e57610a75612198565b60085485516323b872dd60e01b81523383820152306024820152604481018490526001600160a01b03918590829060649082908a9087165af1908115610c10578691610cb5575b5015610c4c578060085416906001541660025491875192868401528583528783019183831067ffffffffffffffff841117610c375786918391828b52630200057560e51b8352604486015286606486015260606084860152888580518060a4830152825b818110610c1a575080820160c401839052601f01601f1916810103608401918391905af1918215610c105787908793610bdf575b50505015610b8857507f0148caca16863fb5a77543489023e89a5d3360fe9229a1e6f9d553b800aa9169929351908152a180f35b845162461bcd60e51b8152908101839052602b60248201527f4c494e4b207472616e73666572416e6443616c6c20746f20636f6f7264696e6160448201526a3a37b9103330b4b632b21760a91b6064820152608490fd5b610c00935086903d8811610c08575b610bf88285612261565b010190612350565b868681610b54565b3d9150610bee565b87513d88823e3d90fd5b9182018087015160c4909101528a958795508c9350889201610b20565b604185634e487b7160e01b6000525260246000fd5b855162461bcd60e51b8152808301859052603c60248201527f4c494e4b207472616e7366657246726f6d206661696c65642e2044696420796f60448201527f7520617070726f76652074686520526166666c654d616e616765723f000000006064820152608490fd5b610cd59150853d8711610cdb575b610ccd8183612261565b810190612350565b87610abc565b503d610cc3565b5050346103e157816003193601126103e15760195490516001600160a01b039091168152602090f35b82843461054b578060031936011261054b5750601554601654601754925191825260208201526040810191909152606090f35b919050346105f15760203660031901126105f157813591610d5d612198565b8215610d955750816020917f84b38766a68c6036a3921be35a68dbf02026b3465e3b9072ae266423ff54735f9360135551908152a180f35b6020606492519162461bcd60e51b835282015260126024820152714d757374206265206174206c65617374203160701b6044820152fd5b5050346103e15760203660031901126103e15760807f1592f515c298c578903964a58733180fe97bdf05860fc70a7e21b61e8cc2d1b191610e0b612126565b610e13612198565b60018060a01b0316806001600160601b0360a01b6019541617601955600a825192808452830152694e4654466163746f727960b01b60608301526020820152a180f35b5050346103e15760203660031901126103e1577f8e05385e03cf3487b0262a001148028e2b715d493381299784826bc072d3f1876020610e94612126565b610e9c612198565b6001600160a01b0316808552601c8252838520805460ff191690559251848152a280f35b9050346105f15760203660031901126105f157803591610ede612198565b8215610eec57505060025580f35b906020606492519162461bcd60e51b8352820152601e60248201527f537562736372697074696f6e2049442063616e6e6f74206265207a65726f00006044820152fd5b82843461054b578060031936011261054b5750600b54600d54601354925191825260208201526040810191909152606090f35b91905060203660031901126105f1578135916001600160601b03831680930361046e57610f8d612198565b82340361102457839060018060a01b036001541690600254823b1561046e57604484928787519586948593634cf94d8760e01b85528401528160248401525af1801561101a57611006575b507f0148caca16863fb5a77543489023e89a5d3360fe9229a1e6f9d553b800aa91696020848451908152a180f35b61100f90612237565b6105f1578238610fd8565b83513d84823e3d90fd5b6020606492519162461bcd60e51b83528201526014602482015273125b98dbdc9c9958dd0811551208185b5bdd5b9d60621b6044820152fd5b5050346103e157816003193601126103e15760209060ff6014541690519015158152f35b82843461054b578060031936011261054b575061ffff60209254915191831c168152f35b5050346103e15760203660031901126103e1576020916110c361213c565b1590506110d557600b54905b51908152f35b600c54906110cf565b5050346103e157816003193601126103e15760209060ff600a541690519015158152f35b5050346103e157816003193601126103e15760209060ff60115460a01c1690519015158152f35b5050346103e157816003193601126103e15760015490516001600160a01b039091168152602090f35b9050346105f15760203660031901126105f157359160095483101561054b575061117d60209261214b565b905491519160018060a01b039160031b1c168152f35b5050346103e15760203660031901126103e1577f40808e0b8abe11003e2600976ec5b2ce8528b142740576d0a00d80c2d37df8f260206111d1612126565b6111d9612198565b6001600160a01b031680855260078252838520805460ff191690559251848152a280f35b5050346103e15760203660031901126103e15760207fe2d763f65bbed04f8954b0f0a3af42f687469bdd154132ba533accf0f0291a2b9161123c612126565b611244612198565b600880546001600160a01b0319166001600160a01b039290921691821790559051908152a180f35b5050346103e157816003193601126103e157602090600d549051908152f35b82843461054b578060031936011261054b579080519182906009549182855260208095018093600984527f6e1540171b6c0c960b71a7020d9f60077f6af931a8bbf590da0223dacf75c7af90845b81811061133357505050816112ef910382612261565b83519485948186019282875251809352850193925b82811061131357505050500390f35b83516001600160a01b031685528695509381019392810192600101611304565b82546001600160a01b0316845292880192600192830192016112d9565b5050346103e157816003193601126103e1576020906015549051908152f35b5050346103e157816003193601126103e157905490516001600160a01b039091168152602090f35b9050346105f15760203660031901126105f1576113b2612126565b6018546001600160a01b039391929190841633036114425750600954906801000000000000000082101561142f57506113f281600185930160095561214b565b939092169282549060031b9184831b921b19161790557f633ce1c9388c97d7993f137095f9978b0605881949d6640da48ce48504fcaddd8280a280f35b634e487b7160e01b855260419052602484fd5b906020608492519162461bcd60e51b8352820152602860248201527f4f6e6c7920526166666c654465706c6f7965722063616e20726567697374657260448201526720726166666c657360c01b6064820152fd5b5050346103e15760203660031901126103e15760209160ff9082906001600160a01b036114c1612126565b168152601c855220541690519015158152f35b5050346103e157816003193601126103e15760209060ff601b541690519015158152f35b5050346103e15760203660031901126103e15760207fc6cdaeb4f6d727c3887c141f0d69c59a9aeb1d84417f954d3a95ebc11a9d4b4d9161153761213c565b61153f612198565b15159060ff196014541660ff83161760145551908152a180f35b9050346105f15760203660031901126105f1577fd10d75876659a287a59a6ccfa2e3fff42f84d94b542837acd30bc184d562de4091602091359061159b612198565b6115a96127108311156122c8565b8160155551908152a180f35b5050346103e15760203660031901126103e15760207f264b7be983e0a8040850b7692062142e84c1d518c32ed584b0c7c55a5c4906d5916115f461213c565b6115fc612198565b15159060ff19601b541660ff831617601b5551908152a180f35b833461054b578060031936011261054b5761162f612198565b600080546001600160a01b0319811682556001600160a01b03167f8be0079c531659141344cd1fd0a4f28419497f9722a3daafe3b4186f6b6457e08280a380f35b5050346103e15760203660031901126103e15760209160ff9082906001600160a01b0361169b612126565b168152601a855220541690519015158152f35b5050346103e157816003193601126103e157602090600b549051908152f35b5050346103e157816003193601126103e1576020906003549051908152f35b82843461054b578060031936011261054b5750600b54600d5482519182526020820152f35b82843461054b578060031936011261054b5750600e54600f5482519182526020820152f35b9050346105f15760203660031901126105f1577f685e2da338020bc51d1f76fac8327a4f82785d45131eb2ace71b8b45ff0ef1ed916020913590611778612198565b6117866127108311156122c8565b8160165551908152a180f35b5050346103e15760203660031901126103e15760207f83a18a8dea701f6d1f04c27670cb800d2a39a35cf130023c66472e9a581d7fba916117d161213c565b6117d9612198565b15159060ff19600a541660ff831617600a5551908152a180f35b5050346103e157816003193601126103e15760085490516001600160a01b039091168152602090f35b833461054b578060031936011261054b5761059c336121f0565b5050346103e157806003193601126103e157611850612126565b9060243580151580910361074f577f966c160e1c4dbc7df8d69af4ace01e9297c3cf016397b7914971f2fbfa32672d92611888612198565b60018060a01b031690818552601a60205282852060ff1981541660ff831617905582519182526020820152a180f35b5050346103e157816003193601126103e15760115490516001600160a01b039091168152602090f35b5050346103e157816003193601126103e1576020906016549051908152f35b9050346105f15760203660031901126105f15761191a612126565b6019546001600160a01b0392908316330361198757507f40808e0b8abe11003e2600976ec5b2ce8528b142740576d0a00d80c2d37df8f29160209116928385526007825280852060ff1990600182825416179055600683526001828720918254161790555160018152a280f35b606490602085519162461bcd60e51b8352820152601060248201526f4f6e6c79204e465420666163746f727960801b6044820152fd5b9150346103e157816003193601126103e1576020906119da612198565b600154845163288688f960e21b8152938492918391906001600160a01b03165af191821561054e57508291611a36575b50806002557f6a2b70dde6ae0193f84b6a9eeb3b0ebdc3a35e99d9167b88c570158dd09cb0f78280a280f35b90506020813d8211611a5f575b81611a5060209383612261565b810103126103e1575138611a0a565b3d9150611a43565b5050346103e157816003193601126103e1576020906013549051908152f35b9050346105f15760203660031901126105f157611aa1612126565b611aa9612198565b6001546002546001600160a01b0393869285169190823b1561046e57865163cb63179760e01b81529081019182526001600160a01b038516602083015291839183919082908490829060400103925af18015611b5557611b41575b5050168083526005602052908220805460ff191690557f8e6c0f1ad83e33fdf8ea1344afe3af950e6375009c970e534fef4c30358f10e58280a280f35b611b4a90612237565b61046e578338611b04565b85513d84823e3d90fd5b919050346105f15760203660031901126105f157611b7b612126565b611b83612198565b6001600160a01b0316918215611be5575060207f40808e0b8abe11003e2600976ec5b2ce8528b142740576d0a00d80c2d37df8f2918385526007825280852060ff1990600182825416179055600683528186209081541690555160018152a280f35b6020606492519162461bcd60e51b8352820152600f60248201526e496e76616c6964206164647265737360881b6044820152fd5b919050346105f15760203660031901126105f157611c35612126565b611c3d612198565b6001600160a01b0316918215611c90575060207f8e05385e03cf3487b0262a001148028e2b715d493381299784826bc072d3f18791838552601c8252808520600160ff198254161790555160018152a280f35b6020606492519162461bcd60e51b83528201526015602482015274496e76616c696420746f6b656e206164647265737360581b6044820152fd5b5050346103e15760203660031901126103e15760207ffd76f8ed4d910bcb9cc812e605a5c8b31f7b84ab658feb2d9bf60de6f7adf07291611d09612126565b611d11612198565b601180546001600160a01b0319166001600160a01b039290921691821790559051908152a180f35b9050346105f15760203660031901126105f1577f0674ce6599197c608dd416e0a77800f021cb3704437f8651d94e9a1a07f02af9916020913590611d7b612198565b8160105551908152a180f35b82843461054b578060031936011261054b575060ff60115460a01c16601254825191151582526020820152f35b82843461054b578060031936011261054b575063ffffffff60209254169051908152f35b5050346103e157816003193601126103e15760185490516001600160a01b039091168152602090f35b5050346103e15760203660031901126103e15760209160ff9082906001600160a01b03611e2c612126565b1681526006855220541690519015158152f35b5050346103e15760203660031901126103e15760209160ff9082906001600160a01b03611e6a612126565b1681526005855220541690519015158152f35b5050346103e157816003193601126103e157602090600e549051908152f35b919050346105f15760203660031901126105f157611eb8612126565b6018546001600160a01b0393919084163303611fc45783811693848652600560205260ff8487205416611f8c5790859160015416600254813b1561046e578551632fb1302360e21b81529485019081526001600160a01b039092166020830152839182908490829060400103925af18015611f8257611f6f575b5081835260056020528220805460ff191660011790557fb41d934a0dd6e1bf4c440ee1ddd56a658677c13e8e2bcc52f065e845995456bd8280a280f35b611f7b90939193612237565b9138611f32565b82513d86823e3d90fd5b835162461bcd60e51b8152602081850152601260248201527120b63932b0b23c90309031b7b739bab6b2b960711b6044820152606490fd5b506020608492519162461bcd60e51b8352820152602560248201527f4f6e6c7920526166666c654465706c6f7965722063616e2061646420636f6e73604482015264756d65727360d81b6064820152fd5b9050346105f15760203660031901126105f1577facd3908fc55d712582462490cee05d9057e65c26303b042525311532c62d20df916020913590612057612198565b6120656127108311156122c8565b8160175551908152a180f35b5050346103e1577f060e9bb7b24700e1f67f61d02209b1fb7e61dcb50699bd88a5004e8649f3e4ec906120a336612110565b6120ab612198565b81600e5580600f5582519182526020820152a180f35b82843461054b578060031936011261054b5750600b54600c54600d54925191825260208201526040810191909152606090f35b8490346103e157816003193601126103e157602090600f548152f35b604090600319011261074f576004359060243590565b600435906001600160a01b038216820361074f57565b60043590811515820361074f57565b6009548110156121825760096000527f6e1540171b6c0c960b71a7020d9f60077f6af931a8bbf590da0223dacf75c7af0190600090565b634e487b7160e01b600052603260045260246000fd5b6000546001600160a01b031633036121ac57565b606460405162461bcd60e51b815260206004820152602060248201527f4f776e61626c653a2063616c6c6572206973206e6f7420746865206f776e65726044820152fd5b600080546001600160a01b039283166001600160a01b03198216811783559216907f8be0079c531659141344cd1fd0a4f28419497f9722a3daafe3b4186f6b6457e09080a3565b67ffffffffffffffff811161224b57604052565b634e487b7160e01b600052604160045260246000fd5b90601f8019910116810190811067ffffffffffffffff82111761224b57604052565b1561228a57565b60405162461bcd60e51b81526020600482015260166024820152754d696e206d757374206265206174206c65617374203160501b6044820152606490fd5b156122cf57565b60405162461bcd60e51b815260206004820152601260248201527143616e6e6f7420657863656564203130302560701b6044820152606490fd5b92919267ffffffffffffffff821161224b5760405191612333601f8201601f191660200184612261565b82948184528183011161074f578281602093846000960137010152565b9081602091031261074f5751801515810361074f579056fea2646970667358221220114c86a3644622222bcbfdcd43fb62ea1cdaf8374a08dd77022ca4d65a518f0c64736f6c63430008130033",
  "linkReferences": {},
  "deployedLinkReferences": {}
}