{
  "_format": "hh-sol-artifact-1",
  "contractName": "DroprERC721A",
  "sourceName": "contracts/DroprERC721A.sol",
  "abi": [
    {
      "inputs": [
        {
          "internalType": "address",
          "name": "_factory",
          "type": "address"
        }
      ],
      "stateMutability": "nonpayable",
      "type": "constructor"
    },
    {
      "inputs": [],
      "name": "AlreadyInitialized",
      "type": "error"
    },
    {
      "inputs": [],
      "name": "ApprovalCallerNotOwnerNorApproved",
      "type": "error"
    },
    {
      "inputs": [],
      "name": "ApprovalQueryForNonexistentToken",
      "type": "error"
    },
    {
      "inputs": [],
      "name": "BalanceQueryForZeroAddress",
      "type": "error"
    },
    {
      "inputs": [],
      "name": "ExceedsMaxSupply",
      "type": "error"
    },
    {
      "inputs": [],
      "name": "InvalidRevealTime",
      "type": "error"
    },
    {
      "inputs": [],
      "name": "MintERC2309QuantityExceedsLimit",
      "type": "error"
    },
    {
      "inputs": [],
      "name": "MintToZeroAddress",
      "type": "error"
    },
    {
      "inputs": [],
      "name": "MintZeroQuantity",
      "type": "error"
    },
    {
      "inputs": [],
      "name": "NotCompatibleWithSpotMints",
      "type": "error"
    },
    {
      "inputs": [],
      "name": "OnlyFactory",
      "type": "error"
    },
    {
      "inputs": [],
      "name": "OwnerQueryForNonexistentToken",
      "type": "error"
    },
    {
      "inputs": [],
      "name": "OwnershipNotInitializedForExtraData",
      "type": "error"
    },
    {
      "inputs": [],
      "name": "SequentialMintExceedsLimit",
      "type": "error"
    },
    {
      "inputs": [],
      "name": "SequentialUpToTooSmall",
      "type": "error"
    },
    {
      "inputs": [],
      "name": "SpotMintTokenIdTooSmall",
      "type": "error"
    },
    {
      "inputs": [],
      "name": "SupplyAlreadySet",
      "type": "error"
    },
    {
      "inputs": [],
      "name": "TokenAlreadyExists",
      "type": "error"
    },
    {
      "inputs": [],
      "name": "TransferCallerNotOwnerNorApproved",
      "type": "error"
    },
    {
      "inputs": [],
      "name": "TransferFromIncorrectOwner",
      "type": "error"
    },
    {
      "inputs": [],
      "name": "TransferToNonERC721ReceiverImplementer",
      "type": "error"
    },
    {
      "inputs": [],
      "name": "TransferToZeroAddress",
      "type": "error"
    },
    {
      "inputs": [],
      "name": "URIQueryForNonexistentToken",
      "type": "error"
    },
    {
      "inputs": [],
      "name": "UnauthorizedMinter",
      "type": "error"
    },
    {
      "inputs": [],
      "name": "ZeroQuantity",
      "type": "error"
    },
    {
      "anonymous": false,
      "inputs": [
        {
          "indexed": true,
          "internalType": "address",
          "name": "owner",
          "type": "address"
        },
        {
          "indexed": true,
          "internalType": "address",
          "name": "approved",
          "type": "address"
        },
        {
          "indexed": true,
          "internalType": "uint256",
          "name": "tokenId",
          "type": "uint256"
        }
      ],
      "name": "Approval",
      "type": "event"
    },
    {
      "anonymous": false,
      "inputs": [
        {
          "indexed": true,
          "internalType": "address",
          "name": "owner",
          "type": "address"
        },
        {
          "indexed": true,
          "internalType": "address",
          "name": "operator",
          "type": "address"
        },
        {
          "indexed": false,
          "internalType": "bool",
          "name": "approved",
          "type": "bool"
        }
      ],
      "name": "ApprovalForAll",
      "type": "event"
    },
    {
      "anonymous": false,
      "inputs": [
        {
          "indexed": false,
          "internalType": "string",
          "name": "newBaseURI",
          "type": "string"
        }
      ],
      "name": "BaseURIUpdated",
      "type": "event"
    },
    {
      "anonymous": false,
      "inputs": [],
      "name": "CollectionRevealed",
      "type": "event"
    },
    {
      "anonymous": false,
      "inputs": [
        {
          "indexed": true,
          "internalType": "uint256",
          "name": "fromTokenId",
          "type": "uint256"
        },
        {
          "indexed": false,
          "internalType": "uint256",
          "name": "toTokenId",
          "type": "uint256"
        },
        {
          "indexed": true,
          "internalType": "address",
          "name": "from",
          "type": "address"
        },
        {
          "indexed": true,
          "internalType": "address",
          "name": "to",
          "type": "address"
        }
      ],
      "name": "ConsecutiveTransfer",
      "type": "event"
    },
    {
      "anonymous": false,
      "inputs": [
        {
          "indexed": false,
          "internalType": "uint256",
          "name": "allocation",
          "type": "uint256"
        }
      ],
      "name": "CreatorAllocationDeclared",
      "type": "event"
    },
    {
      "anonymous": false,
      "inputs": [
        {
          "indexed": false,
          "internalType": "uint256",
          "name": "newAllocation",
          "type": "uint256"
        },
        {
          "indexed": false,
          "internalType": "uint256",
          "name": "reductionAmount",
          "type": "uint256"
        }
      ],
      "name": "CreatorAllocationReduced",
      "type": "event"
    },
    {
      "anonymous": false,
      "inputs": [
        {
          "indexed": false,
          "internalType": "string",
          "name": "dropURI",
          "type": "string"
        }
      ],
      "name": "DropURIUpdated",
      "type": "event"
    },
    {
      "anonymous": false,
      "inputs": [
        {
          "indexed": true,
          "internalType": "address",
          "name": "kol",
          "type": "address"
        },
        {
          "indexed": false,
          "internalType": "uint256",
          "name": "poolLimit",
          "type": "uint256"
        },
        {
          "indexed": false,
          "internalType": "uint256",
          "name": "enforcedSlotFee",
          "type": "uint256"
        },
        {
          "indexed": false,
          "internalType": "uint256",
          "name": "winnerLimit",
          "type": "uint256"
        }
      ],
      "name": "KOLApproved",
      "type": "event"
    },
    {
      "anonymous": false,
      "inputs": [
        {
          "indexed": true,
          "internalType": "address",
          "name": "kol",
          "type": "address"
        },
        {
          "indexed": true,
          "internalType": "address",
          "name": "pool",
          "type": "address"
        }
      ],
      "name": "KOLPoolCreated",
      "type": "event"
    },
    {
      "anonymous": false,
      "inputs": [
        {
          "indexed": true,
          "internalType": "address",
          "name": "kol",
          "type": "address"
        }
      ],
      "name": "KOLRevoked",
      "type": "event"
    },
    {
      "anonymous": false,
      "inputs": [
        {
          "indexed": true,
          "internalType": "address",
          "name": "pool",
          "type": "address"
        },
        {
          "indexed": false,
          "internalType": "uint256",
          "name": "allocation",
          "type": "uint256"
        }
      ],
      "name": "MinterAllocationRestored",
      "type": "event"
    },
    {
      "anonymous": false,
      "inputs": [
        {
          "indexed": true,
          "internalType": "address",
          "name": "pool",
          "type": "address"
        },
        {
          "indexed": false,
          "internalType": "uint256",
          "name": "allocation",
          "type": "uint256"
        }
      ],
      "name": "MinterAndAllocationSet",
      "type": "event"
    },
    {
      "anonymous": false,
      "inputs": [
        {
          "indexed": true,
          "internalType": "address",
          "name": "previousOwner",
          "type": "address"
        },
        {
          "indexed": true,
          "internalType": "address",
          "name": "newOwner",
          "type": "address"
        }
      ],
      "name": "OwnershipTransferred",
      "type": "event"
    },
    {
      "anonymous": false,
      "inputs": [
        {
          "indexed": true,
          "internalType": "address",
          "name": "winner",
          "type": "address"
        },
        {
          "indexed": false,
          "internalType": "uint256",
          "name": "tokenId",
          "type": "uint256"
        }
      ],
      "name": "PrizeMinted",
      "type": "event"
    },
    {
      "anonymous": false,
      "inputs": [
        {
          "indexed": false,
          "internalType": "uint256",
          "name": "newMaxSupply",
          "type": "uint256"
        },
        {
          "indexed": false,
          "internalType": "uint256",
          "name": "newCreatorAllocation",
          "type": "uint256"
        }
      ],
      "name": "SupplyReduced",
      "type": "event"
    },
    {
      "anonymous": false,
      "inputs": [
        {
          "indexed": true,
          "internalType": "address",
          "name": "from",
          "type": "address"
        },
        {
          "indexed": true,
          "internalType": "address",
          "name": "to",
          "type": "address"
        },
        {
          "indexed": true,
          "internalType": "uint256",
          "name": "tokenId",
          "type": "uint256"
        }
      ],
      "name": "Transfer",
      "type": "event"
    },
    {
      "anonymous": false,
      "inputs": [
        {
          "indexed": false,
          "internalType": "uint256",
          "name": "cliffEnd",
          "type": "uint256"
        },
        {
          "indexed": false,
          "internalType": "uint256",
          "name": "numberOfUnlocks",
          "type": "uint256"
        },
        {
          "indexed": false,
          "internalType": "uint256",
          "name": "durationBetweenUnlocks",
          "type": "uint256"
        },
        {
          "indexed": false,
          "internalType": "uint256",
          "name": "amountPerUnlock",
          "type": "uint256"
        }
      ],
      "name": "VestingConfigured",
      "type": "event"
    },
    {
      "inputs": [
        {
          "internalType": "address",
          "name": "",
          "type": "address"
        }
      ],
      "name": "allocatedSupply",
      "outputs": [
        {
          "internalType": "uint256",
          "name": "",
          "type": "uint256"
        }
      ],
      "stateMutability": "view",
      "type": "function"
    },
    {
      "inputs": [
        {
          "internalType": "address",
          "name": "to",
          "type": "address"
        },
        {
          "internalType": "uint256",
          "name": "tokenId",
          "type": "uint256"
        }
      ],
      "name": "approve",
      "outputs": [],
      "stateMutability": "payable",
      "type": "function"
    },
    {
      "inputs": [
        {
          "internalType": "address",
          "name": "_kol",
          "type": "address"
        },
        {
          "internalType": "uint256",
          "name": "_poolLimit",
          "type": "uint256"
        },
        {
          "internalType": "uint256",
          "name": "_enforcedSlotFee",
          "type": "uint256"
        },
        {
          "internalType": "uint256",
          "name": "_winnerLimit",
          "type": "uint256"
        }
      ],
      "name": "approveKOL",
      "outputs": [],
      "stateMutability": "nonpayable",
      "type": "function"
    },
    {
      "inputs": [],
      "name": "availableSupply",
      "outputs": [
        {
          "internalType": "uint256",
          "name": "",
          "type": "uint256"
        }
      ],
      "stateMutability": "view",
      "type": "function"
    },
    {
      "inputs": [
        {
          "internalType": "address",
          "name": "owner",
          "type": "address"
        }
      ],
      "name": "balanceOf",
      "outputs": [
        {
          "internalType": "uint256",
          "name": "",
          "type": "uint256"
        }
      ],
      "stateMutability": "view",
      "type": "function"
    },
    {
      "inputs": [
        {
          "internalType": "uint256",
          "name": "cliffEnd",
          "type": "uint256"
        },
        {
          "internalType": "uint256",
          "name": "numberOfUnlocks",
          "type": "uint256"
        },
        {
          "internalType": "uint256",
          "name": "durationBetweenUnlocks",
          "type": "uint256"
        }
      ],
      "name": "configureCreatorVesting",
      "outputs": [],
      "stateMutability": "nonpayable",
      "type": "function"
    },
    {
      "inputs": [],
      "name": "creationTime",
      "outputs": [
        {
          "internalType": "uint256",
          "name": "",
          "type": "uint256"
        }
      ],
      "stateMutability": "view",
      "type": "function"
    },
    {
      "inputs": [],
      "name": "creatorAllocation",
      "outputs": [
        {
          "internalType": "uint256",
          "name": "",
          "type": "uint256"
        }
      ],
      "stateMutability": "view",
      "type": "function"
    },
    {
      "inputs": [],
      "name": "creatorAllocationDeclared",
      "outputs": [
        {
          "internalType": "bool",
          "name": "",
          "type": "bool"
        }
      ],
      "stateMutability": "view",
      "type": "function"
    },
    {
      "inputs": [],
      "name": "creatorClaimedCount",
      "outputs": [
        {
          "internalType": "uint256",
          "name": "",
          "type": "uint256"
        }
      ],
      "stateMutability": "view",
      "type": "function"
    },
    {
      "inputs": [
        {
          "internalType": "address",
          "name": "to",
          "type": "address"
        },
        {
          "internalType": "uint256",
          "name": "quantity",
          "type": "uint256"
        }
      ],
      "name": "creatorMint",
      "outputs": [],
      "stateMutability": "nonpayable",
      "type": "function"
    },
    {
      "inputs": [
        {
          "internalType": "uint256",
          "name": "_percentage",
          "type": "uint256"
        }
      ],
      "name": "cutSupply",
      "outputs": [],
      "stateMutability": "nonpayable",
      "type": "function"
    },
    {
      "inputs": [
        {
          "internalType": "uint256",
          "name": "_percentage",
          "type": "uint256"
        }
      ],
      "name": "declareCreatorAllocation",
      "outputs": [],
      "stateMutability": "nonpayable",
      "type": "function"
    },
    {
      "inputs": [
        {
          "internalType": "uint256",
          "name": "tokenId",
          "type": "uint256"
        }
      ],
      "name": "getApproved",
      "outputs": [
        {
          "internalType": "address",
          "name": "",
          "type": "address"
        }
      ],
      "stateMutability": "view",
      "type": "function"
    },
    {
      "inputs": [],
      "name": "getAvailableCreatorMint",
      "outputs": [
        {
          "internalType": "uint256",
          "name": "",
          "type": "uint256"
        }
      ],
      "stateMutability": "view",
      "type": "function"
    },
    {
      "inputs": [
        {
          "internalType": "address",
          "name": "_kol",
          "type": "address"
        }
      ],
      "name": "getKOLApprovalDetails",
      "outputs": [
        {
          "internalType": "bool",
          "name": "approved",
          "type": "bool"
        },
        {
          "internalType": "uint256",
          "name": "poolLimit",
          "type": "uint256"
        },
        {
          "internalType": "uint256",
          "name": "enforcedSlotFee",
          "type": "uint256"
        },
        {
          "internalType": "uint256",
          "name": "winnerLimit",
          "type": "uint256"
        },
        {
          "internalType": "uint256",
          "name": "poolCount",
          "type": "uint256"
        },
        {
          "internalType": "uint256",
          "name": "winnerCount",
          "type": "uint256"
        }
      ],
      "stateMutability": "view",
      "type": "function"
    },
    {
      "inputs": [],
      "name": "getUnlockedCreatorAllocation",
      "outputs": [
        {
          "internalType": "uint256",
          "name": "",
          "type": "uint256"
        }
      ],
      "stateMutability": "view",
      "type": "function"
    },
    {
      "inputs": [
        {
          "internalType": "address",
          "name": "_kol",
          "type": "address"
        },
        {
          "internalType": "uint256",
          "name": "_winnersCount",
          "type": "uint256"
        }
      ],
      "name": "incrementKOLApprovedCounts",
      "outputs": [],
      "stateMutability": "nonpayable",
      "type": "function"
    },
    {
      "inputs": [
        {
          "internalType": "string",
          "name": "name_",
          "type": "string"
        },
        {
          "internalType": "string",
          "name": "symbol_",
          "type": "string"
        },
        {
          "components": [
            {
              "internalType": "address",
              "name": "initialOwner",
              "type": "address"
            },
            {
              "internalType": "address",
              "name": "protocolManager",
              "type": "address"
            },
            {
              "internalType": "address",
              "name": "royaltyRecipient",
              "type": "address"
            },
            {
              "internalType": "uint256",
              "name": "royaltyPercentage",
              "type": "uint256"
            },
            {
              "internalType": "uint256",
              "name": "maxSupply",
              "type": "uint256"
            },
            {
              "internalType": "enum PrizeTypes.RevealType",
              "name": "revealType",
              "type": "uint8"
            },
            {
              "internalType": "uint256",
              "name": "revealTime",
              "type": "uint256"
            },
            {
              "internalType": "string",
              "name": "baseURI",
              "type": "string"
            },
            {
              "internalType": "string",
              "name": "unrevealedURI",
              "type": "string"
            },
            {
              "internalType": "string",
              "name": "dropURI",
              "type": "string"
            }
          ],
          "internalType": "struct DroprERC721A.InitializationData",
          "name": "data",
          "type": "tuple"
        }
      ],
      "name": "initialize",
      "outputs": [],
      "stateMutability": "nonpayable",
      "type": "function"
    },
    {
      "inputs": [
        {
          "internalType": "address",
          "name": "owner",
          "type": "address"
        },
        {
          "internalType": "address",
          "name": "operator",
          "type": "address"
        }
      ],
      "name": "isApprovedForAll",
      "outputs": [
        {
          "internalType": "bool",
          "name": "",
          "type": "bool"
        }
      ],
      "stateMutability": "view",
      "type": "function"
    },
    {
      "inputs": [],
      "name": "isRevealed",
      "outputs": [
        {
          "internalType": "bool",
          "name": "",
          "type": "bool"
        }
      ],
      "stateMutability": "view",
      "type": "function"
    },
    {
      "inputs": [
        {
          "internalType": "address",
          "name": "",
          "type": "address"
        }
      ],
      "name": "kolApprovals",
      "outputs": [
        {
          "internalType": "bool",
          "name": "approved",
          "type": "bool"
        },
        {
          "internalType": "uint256",
          "name": "poolLimit",
          "type": "uint256"
        },
        {
          "internalType": "uint256",
          "name": "enforcedSlotFee",
          "type": "uint256"
        },
        {
          "internalType": "uint256",
          "name": "winnerLimit",
          "type": "uint256"
        },
        {
          "internalType": "uint256",
          "name": "poolCount",
          "type": "uint256"
        },
        {
          "internalType": "uint256",
          "name": "winnerCount",
          "type": "uint256"
        }
      ],
      "stateMutability": "view",
      "type": "function"
    },
    {
      "inputs": [],
      "name": "maxSupply",
      "outputs": [
        {
          "internalType": "uint256",
          "name": "",
          "type": "uint256"
        }
      ],
      "stateMutability": "view",
      "type": "function"
    },
    {
      "inputs": [
        {
          "internalType": "address",
          "name": "to",
          "type": "address"
        },
        {
          "internalType": "uint256",
          "name": "quantity",
          "type": "uint256"
        }
      ],
      "name": "mint",
      "outputs": [],
      "stateMutability": "nonpayable",
      "type": "function"
    },
    {
      "inputs": [],
      "name": "name",
      "outputs": [
        {
          "internalType": "string",
          "name": "",
          "type": "string"
        }
      ],
      "stateMutability": "view",
      "type": "function"
    },
    {
      "inputs": [
        {
          "internalType": "address",
          "name": "",
          "type": "address"
        },
        {
          "internalType": "address",
          "name": "",
          "type": "address"
        },
        {
          "internalType": "uint256",
          "name": "",
          "type": "uint256"
        },
        {
          "internalType": "bytes",
          "name": "",
          "type": "bytes"
        }
      ],
      "name": "onERC721Received",
      "outputs": [
        {
          "internalType": "bytes4",
          "name": "",
          "type": "bytes4"
        }
      ],
      "stateMutability": "pure",
      "type": "function"
    },
    {
      "inputs": [],
      "name": "owner",
      "outputs": [
        {
          "internalType": "address",
          "name": "",
          "type": "address"
        }
      ],
      "stateMutability": "view",
      "type": "function"
    },
    {
      "inputs": [
        {
          "internalType": "uint256",
          "name": "tokenId",
          "type": "uint256"
        }
      ],
      "name": "ownerOf",
      "outputs": [
        {
          "internalType": "address",
          "name": "",
          "type": "address"
        }
      ],
      "stateMutability": "view",
      "type": "function"
    },
    {
      "inputs": [],
      "name": "protocolManager",
      "outputs": [
        {
          "internalType": "address",
          "name": "",
          "type": "address"
        }
      ],
      "stateMutability": "view",
      "type": "function"
    },
    {
      "inputs": [
        {
          "internalType": "uint256",
          "name": "_percentage",
          "type": "uint256"
        }
      ],
      "name": "reduceCreatorAllocation",
      "outputs": [],
      "stateMutability": "nonpayable",
      "type": "function"
    },
    {
      "inputs": [],
      "name": "renounceOwnership",
      "outputs": [],
      "stateMutability": "nonpayable",
      "type": "function"
    },
    {
      "inputs": [
        {
          "internalType": "address",
          "name": "pool",
          "type": "address"
        }
      ],
      "name": "restoreMinterAllocation",
      "outputs": [],
      "stateMutability": "nonpayable",
      "type": "function"
    },
    {
      "inputs": [],
      "name": "reveal",
      "outputs": [],
      "stateMutability": "nonpayable",
      "type": "function"
    },
    {
      "inputs": [],
      "name": "revealTime",
      "outputs": [
        {
          "internalType": "uint256",
          "name": "",
          "type": "uint256"
        }
      ],
      "stateMutability": "view",
      "type": "function"
    },
    {
      "inputs": [],
      "name": "revealType",
      "outputs": [
        {
          "internalType": "enum PrizeTypes.RevealType",
          "name": "",
          "type": "uint8"
        }
      ],
      "stateMutability": "view",
      "type": "function"
    },
    {
      "inputs": [
        {
          "internalType": "address",
          "name": "_kol",
          "type": "address"
        }
      ],
      "name": "revokeKOL",
      "outputs": [],
      "stateMutability": "nonpayable",
      "type": "function"
    },
    {
      "inputs": [
        {
          "internalType": "uint256",
          "name": "",
          "type": "uint256"
        },
        {
          "internalType": "uint256",
          "name": "salePrice",
          "type": "uint256"
        }
      ],
      "name": "royaltyInfo",
      "outputs": [
        {
          "internalType": "address",
          "name": "",
          "type": "address"
        },
        {
          "internalType": "uint256",
          "name": "",
          "type": "uint256"
        }
      ],
      "stateMutability": "view",
      "type": "function"
    },
    {
      "inputs": [],
      "name": "royaltyPercentage",
      "outputs": [
        {
          "internalType": "uint256",
          "name": "",
          "type": "uint256"
        }
      ],
      "stateMutability": "view",
      "type": "function"
    },
    {
      "inputs": [],
      "name": "royaltyRecipient",
      "outputs": [
        {
          "internalType": "address",
          "name": "",
          "type": "address"
        }
      ],
      "stateMutability": "view",
      "type": "function"
    },
    {
      "inputs": [
        {
          "internalType": "address",
          "name": "from",
          "type": "address"
        },
        {
          "internalType": "address",
          "name": "to",
          "type": "address"
        },
        {
          "internalType": "uint256",
          "name": "tokenId",
          "type": "uint256"
        }
      ],
      "name": "safeTransferFrom",
      "outputs": [],
      "stateMutability": "payable",
      "type": "function"
    },
    {
      "inputs": [
        {
          "internalType": "address",
          "name": "from",
          "type": "address"
        },
        {
          "internalType": "address",
          "name": "to",
          "type": "address"
        },
        {
          "internalType": "uint256",
          "name": "tokenId",
          "type": "uint256"
        },
        {
          "internalType": "bytes",
          "name": "data",
          "type": "bytes"
        }
      ],
      "name": "safeTransferFrom",
      "outputs": [],
      "stateMutability": "payable",
      "type": "function"
    },
    {
      "inputs": [
        {
          "internalType": "address",
          "name": "operator",
          "type": "address"
        },
        {
          "internalType": "bool",
          "name": "approved",
          "type": "bool"
        }
      ],
      "name": "setApprovalForAll",
      "outputs": [],
      "stateMutability": "nonpayable",
      "type": "function"
    },
    {
      "inputs": [
        {
          "internalType": "string",
          "name": "newBaseURI",
          "type": "string"
        }
      ],
      "name": "setBaseURI",
      "outputs": [],
      "stateMutability": "nonpayable",
      "type": "function"
    },
    {
      "inputs": [
        {
          "internalType": "address",
          "name": "pool",
          "type": "address"
        },
        {
          "internalType": "uint256",
          "name": "allocation",
          "type": "uint256"
        }
      ],
      "name": "setMinterAndAllocation",
      "outputs": [],
      "stateMutability": "nonpayable",
      "type": "function"
    },
    {
      "inputs": [
        {
          "internalType": "uint256",
          "name": "_royaltyPercentage",
          "type": "uint256"
        },
        {
          "internalType": "address",
          "name": "_royaltyRecipient",
          "type": "address"
        }
      ],
      "name": "setRoyalty",
      "outputs": [],
      "stateMutability": "nonpayable",
      "type": "function"
    },
    {
      "inputs": [],
      "name": "supplyCutTimestamp",
      "outputs": [
        {
          "internalType": "uint256",
          "name": "",
          "type": "uint256"
        }
      ],
      "stateMutability": "view",
      "type": "function"
    },
    {
      "inputs": [
        {
          "internalType": "bytes4",
          "name": "interfaceId",
          "type": "bytes4"
        }
      ],
      "name": "supportsInterface",
      "outputs": [
        {
          "internalType": "bool",
          "name": "",
          "type": "bool"
        }
      ],
      "stateMutability": "view",
      "type": "function"
    },
    {
      "inputs": [],
      "name": "symbol",
      "outputs": [
        {
          "internalType": "string",
          "name": "",
          "type": "string"
        }
      ],
      "stateMutability": "view",
      "type": "function"
    },
    {
      "inputs": [
        {
          "internalType": "uint256",
          "name": "tokenId",
          "type": "uint256"
        }
      ],
      "name": "tokenURI",
      "outputs": [
        {
          "internalType": "string",
          "name": "",
          "type": "string"
        }
      ],
      "stateMutability": "view",
      "type": "function"
    },
    {
      "inputs": [],
      "name": "totalAllocatedSupply",
      "outputs": [
        {
          "internalType": "uint256",
          "name": "",
          "type": "uint256"
        }
      ],
      "stateMutability": "view",
      "type": "function"
    },
    {
      "inputs": [],
      "name": "totalSupply",
      "outputs": [
        {
          "internalType": "uint256",
          "name": "",
          "type": "uint256"
        }
      ],
      "stateMutability": "view",
      "type": "function"
    },
    {
      "inputs": [
        {
          "internalType": "address",
          "name": "from",
          "type": "address"
        },
        {
          "internalType": "address",
          "name": "to",
          "type": "address"
        },
        {
          "internalType": "uint256",
          "name": "tokenId",
          "type": "uint256"
        }
      ],
      "name": "transferFrom",
      "outputs": [],
      "stateMutability": "payable",
      "type": "function"
    },
    {
      "inputs": [
        {
          "internalType": "address",
          "name": "newOwner",
          "type": "address"
        }
      ],
      "name": "transferOwnership",
      "outputs": [],
      "stateMutability": "nonpayable",
      "type": "function"
    },
    {
      "inputs": [],
      "name": "unlockedAmountAtCut",
      "outputs": [
        {
          "internalType": "uint256",
          "name": "",
          "type": "uint256"
        }
      ],
      "stateMutability": "view",
      "type": "function"
    },
    {
      "inputs": [],
      "name": "unrevealedBaseURI",
      "outputs": [
        {
          "internalType": "string",
          "name": "",
          "type": "string"
        }
      ],
      "stateMutability": "view",
      "type": "function"
    },
    {
      "inputs": [],
      "name": "vestingConfig",
      "outputs": [
        {
          "internalType": "uint256",
          "name": "cliffEnd",
          "type": "uint256"
        },
        {
          "internalType": "uint256",
          "name": "numberOfUnlocks",
          "type": "uint256"
        },
        {
          "internalType": "uint256",
          "name": "durationBetweenUnlocks",
          "type": "uint256"
        },
        {
          "internalType": "uint256",
          "name": "amountPerUnlock",
          "type": "uint256"
        }
      ],
      "stateMutability": "view",
      "type": "function"
    },
    {
      "inputs": [],
      "name": "vestingConfigured",
      "outputs": [
        {
          "internalType": "bool",
          "name": "",
          "type": "bool"
        }
      ],
      "stateMutability": "view",
      "type": "function"
    }
  ],
  "bytecode": "0x60a034620000b357601f62004b8938819003918201601f19168301916001600160401b03831184841017620000b857808492602094604052833981010312620000b357516001600160a01b03908181168103620000b357600160008181558154336001600160a01b0319821681179093556040519416907f8be0079c531659141344cd1fd0a4f28419497f9722a3daafe3b4186f6b6457e09080a3608052614aba9081620000cf823960805181612dc90152f35b600080fd5b634e487b7160e01b600052604160045260246000fdfe6080604052600436101561001257600080fd5b60003560e01c80620f2125146103a557806227675f146103a057806301ffc9a71461039b57806306fdde0314610396578063081812fc14610391578063095ea7b31461038c578063150b7a021461038757806317f639791461038257806318160ddd1461037d578063182ee485146103785780631cdccaff14610373578063219172db1461036e57806323b872dd14610369578063290f54ae146103645780632a55205a1461035f57806340c10f191461035a57806340e3276b1461035557806342842e0e146103505780634c00de821461034b57806354214f691461034657806355f804b3146103415780636352211e1461033c578063693866e31461033757806369d42c5e1461033257806370a082311461032d578063715018a6146103285780637ecc2b561461032357806381ae39001461031e5780638a71bb2d146103195780638da5cb5b146103145780638f152d0e1461030f5780639015d26b1461030a578063951100031461030557806395d89b4114610300578063a22cb465146102fb578063a2af294f146102f6578063a3622735146102f1578063a475b5dd146102ec578063a7df596e146102e7578063ab4b6692146102e2578063b4565180146102dd578063b5f1f247146102d8578063b88d4fde146102d3578063ba829d71146102ce578063c705fea2146102c9578063c87b56dd146102c4578063d5abeb01146102bf578063d6b6e203146102ba578063d8270dce146102b5578063e059b9c0146102b0578063e1258aaa146102ab578063e985e9c5146102a6578063f2fde38b146102a1578063f4c445691461029c578063fbddc05514610297578063fbf3aa21146102925763fcf2e55f1461028d57600080fd5b6128b6565b61287c565b6127f5565b61264e565b6125bd565b612578565b61241f565b612401565b6123e3565b6123a6565b612316565b6122f7565b61203b565b61201d565b611e77565b611d25565b611be8565b611bbf565b611ada565b6119da565b6119bc565b611992565b6118e5565b61182f565b6116c7565b6116a4565b611681565b611658565b61163a565b61161c565b611579565b61151b565b6114c1565b611434565b611419565b6113ea565b61127c565b6111db565b6111b2565b611039565b610f9e565b610e93565b610e57565b610e39565b610cee565b610ca4565b610c74565b610933565b610904565b61083b565b6107e1565b6106e7565b610687565b610590565b610494565b6103de565b346103c85760003660031901126103c85760206103c0613850565b604051908152f35b600080fd5b6001600160a01b038116036103c857565b346103c85760403660031901126103c8576004356103fb816103cd565b60105460405163188c824d60e11b81526001600160a01b0392916020908290600490829087165afa801561047d5761044b936104429260009261044d575b50163314613c89565b60243590613cfb565b005b61046f91925060203d8111610476575b6104678183610b0e565b810190613188565b9038610439565b503d61045d565b61319d565b6001600160e01b03198116036103c857565b346103c85760203660031901126103c85760206004356104b381610482565b63ffffffff60e01b16637c97ded960e11b8114908115610523575b81156104e0575b506040519015158152f35b6301ffc9a760e01b811491508115610512575b8115610501575b50386104d5565b635b5e139f60e01b149050386104fa565b6380ac58cd60e01b811491506104f3565b63152a902d60e11b811491506104ce565b60005b8381106105475750506000910152565b8181015183820152602001610537565b9060209161057081518092818552858086019101610534565b601f01601f1916010190565b90602061058d928181520190610557565b90565b346103c857600080600319360112610684576040519080600080516020614a25833981519152908154906105c382610a83565b8086529260019280841690811561065757506001146105fd575b6105f9866105ed81880382610b0e565b6040519182918261057c565b0390f35b815292507f933ecf8acb7824b680a8d16f3ff3db8864228d986aa4c2ebab1eeb2703b4beb35b82841061063f5750505081016020016105ed826105f9386105dd565b80546020858701810191909152909301928101610623565b90508695506105f9969350602092506105ed94915060ff191682840152151560051b8201019293386105dd565b80fd5b346103c85760203660031901126103c8576004356106a4816141a6565b156106d657600052600080516020614a05833981519152602052602060018060a01b0360406000205416604051908152f35b6333d1c03960e21b60005260046000fd5b60403660031901126103c8576004356106ff816103cd565b6001600160a01b03906024359082610716836146f8565b16803303610777575b600093838552600080516020614a0583398151915260205260408520921691826001600160601b0360a01b8254161790557f8c5be1e5ebec7d5bd14f71427d1e84f3dd0314c0f7b2291e5b200ac8c7c3b9258480a480f35b60ff61079d3361078684612334565b9060018060a01b0316600052602052604060002090565b541661071f576367d9dca160e11b60005260046000fd5b9181601f840112156103c8578235916001600160401b0383116103c857602083818601950101116103c857565b346103c85760803660031901126103c8576107fd6004356103cd565b6108086024356103cd565b6064356001600160401b0381116103c8576108279036906004016107b4565b5050604051630a85bd0160e11b8152602090f35b346103c85760203660031901126103c857600435610858816103cd565b60018060a01b03166000526002602052604060002060405161087981610ad3565b60ff825416151580825260a0600184015493846020850152600281015493846040820152600382015490816060820152600560048401549384608084015201549384910152836108fa575b6105f99394604051968796879260a094919796959260c08501981515855260208501526040840152606083015260808201520152565b80831093506108c4565b346103c85760003660031901126103c85760206000196000805160206149c58339815191525401604051908152f35b346103c8576040806003193601126103c85760043590610952826103cd565b6024359161095e612922565b6109666132dc565b610984600260165461097c600482161515613987565b1615156133bd565b61098f8315156139cc565b610a04836109ff6000196000805160206149c58339815191526109c26109b885848454016132cf565b6007541015613a0f565b6109d56109cd6138f2565b851115613a5b565b6109ee6109e4856013546132cf565b6011541015613ab5565b6109f88487614885565b54016132a3565b613482565b916001600160a01b039091169060005b848110610a3957610a2f610a2a866013546132cf565b601355565b61044b6001600055565b80837f3b782080656380c62378fe492892b8dcb9c50affce49759e169b8c7e5ef270e7610a7a610a6b600195896132cf565b86519081529081906020820190565b0390a201610a14565b90600182811c92168015610ab3575b6020831014610a9d57565b634e487b7160e01b600052602260045260246000fd5b91607f1691610a92565b634e487b7160e01b600052604160045260246000fd5b60c081019081106001600160401b03821117610aee57604052565b610abd565b602081019081106001600160401b03821117610aee57604052565b90601f801991011681019081106001600160401b03821117610aee57604052565b6040519060008260045491610b4383610a83565b80835292600190818116908115610bcb5750600114610b6c575b50610b6a92500383610b0e565b565b6004600090815291507f8a35acfbc15ff81a39ae7d344fd709f28e8600b4aa8c65c6b64bfe7fe36bd19b5b848310610bb05750610b6a935050810160200138610b5d565b81935090816020925483858a01015201910190918592610b97565b905060209250610b6a94915060ff191682840152151560051b82010138610b5d565b6040519060008260035491610c0183610a83565b80835292600190818116908115610bcb5750600114610c275750610b6a92500383610b0e565b6003600090815291506000805160206149a58339815191525b848310610c595750610b6a935050810160200138610b5d565b81935090816020925483858a01015201910190918592610c40565b346103c85760003660031901126103c8576105f9610c90610b2f565b604051918291602083526020830190610557565b346103c85760003660031901126103c8576020600b54604051908152f35b60609060031901126103c857600435610cda816103cd565b90602435610ce7816103cd565b9060443590565b610cf736610cc2565b9091610d02826146f8565b6001600160a01b0391821693909190818316859003610e34576000848152600080516020614a05833981519152602052604090208054610d556001600160a01b03881633908114908314171590565b1590565b610e0f575b610e05575b50610d698561236d565b8054600019019055610d7a8161236d565b8054600101905516928391600160e11b4260a01b84178117610d9b866146c9565b55811615610dc4575b50600080516020614a45833981519152600080a415610dbf57005b614972565b60018401610dd1816146c9565b5415610dde575b50610da4565b6000805160206149c5833981519152548114610dd857610dfd906146c9565b553880610dd8565b6000905538610d5f565b610e29610d51610e22336107868b612334565b5460ff1690565b15610d5a575b614961565b614951565b346103c85760003660031901126103c8576020601554604051908152f35b346103c85760403660031901126103c857604060018060a01b0360095416612710610e8660085460243561338a565b0482519182526020820152f35b346103c8576040806003193601126103c857600435610eb1816103cd565b602435610ebc6132dc565b336000908152600a60205260409020610ed790541515613206565b8015610f8d576000805160206149c583398151915254600754600019808301928490610f04848610613241565b010111610f7c57610f2090610f1b83859495614885565b6132a3565b926001600160a01b039091169060005b838110610f415761044b6001600055565b80837f3b782080656380c62378fe492892b8dcb9c50affce49759e169b8c7e5ef270e7610f73610a6b6001958a6132cf565b0390a201610f30565b835163c30436e960e01b8152600490fd5b825163f4f5b73360e01b8152600490fd5b346103c85760403660031901126103c857602435600435610fbe826103cd565b610fc6612922565b6127108111610ff457600855600980546001600160a01b0319166001600160a01b0392909216919091179055005b60405162461bcd60e51b815260206004820152601a60248201527f526f79616c74792063616e6e6f742065786365656420313030250000000000006044820152606490fd5b61104236610cc2565b9160405161104f81610af3565b60009384825261105e816146f8565b6001600160a01b0384811691808216839003610e345783918861109b84600052600080516020614a05833981519152602052604060002090815490565b6110b46001600160a01b03881633908114908314171590565b61118e575b611186575b50506110c98461236d565b80546000190190556110da8861236d565b805460010190558716928391600160e11b4260a01b841781176110fc866146c9565b55811615611145575b50600080516020614a458339815191528980a415610dbf57833b611127578480f35b61113493610d51936147cc565b61114057388080808480f35b614983565b60018401611152816146c9565b541561115f575b50611105565b6000805160206149c58339815191525481146111595761117e906146c9565b553880611159565b5588386110be565b915093506111a5610d51610e223361078689612334565b610e2f5785938a916110b9565b346103c85760003660031901126103c8576009546040516001600160a01b039091168152602090f35b346103c85760003660031901126103c85760206001601654161515604051908152f35b60405190608082018281106001600160401b03821117610aee57604052565b60405190610b6a82610ad3565b6001600160401b038111610aee57601f01601f191660200190565b9291926112518261122a565b9161125f6040519384610b0e565b8294818452818301116103c8578281602093846000960137010152565b346103c8576020806003193601126103c8576001600160401b036004358181116103c857366023820112156103c8576112bf903690602481600401359101611245565b916112c8612922565b8251918211610aee576112e5826112e0600354610a83565b6129f5565b80601f831160011461135257509181611342927f6741b2fc379fad678116fe3d4d4b9a1a184ab53ba36b86ad0fa66340b1ab41ad94600091611347575b508160011b916000199060031b1c1916176003556040519182918261057c565b0390a1005b905082015138611322565b600360005290601f1983166000805160206149a5833981519152926000905b8282106113d2575050927f6741b2fc379fad678116fe3d4d4b9a1a184ab53ba36b86ad0fa66340b1ab41ad94926001928261134296106113b9575b5050811b016003556105ed565b84015160001960f88460031b161c1916905538806113ac565b80600185968294968a01518155019501930190611371565b346103c85760203660031901126103c85760206001600160a01b036114106004356146f8565b16604051908152f35b346103c85760003660031901126103c85760206103c06138f2565b346103c85760403660031901126103c857600435611451816103cd565b60105460405163188c824d60e11b81526001600160a01b0392916020908290600490829087165afa801561047d5761044b93611498926000926114a1575b501633146131a9565b602435906143b1565b6114ba91925060203d8111610476576104678183610b0e565b903861148f565b346103c85760203660031901126103c8576004356114de816103cd565b6001600160a01b0381161561150a576001600160401b0361150060209261236d565b5416604051908152f35b6323d3ad8160e21b60005260046000fd5b346103c85760008060031936011261068457611535612922565b600180546001600160a01b0319811690915581906001600160a01b03167f8be0079c531659141344cd1fd0a4f28419497f9722a3daafe3b4186f6b6457e08280a380f35b346103c85760003660031901126103c857600b54601654600090600216156116165750601154905b600754918082018083116116115783106115d5576109ff6115c5926105f994613482565b6040519081529081906020820190565b60405162461bcd60e51b8152602060048201526014602482015273496e76616c696420737570706c7920737461746560601b6044820152606490fd5b61328d565b906115a1565b346103c85760003660031901126103c8576020601454604051908152f35b346103c85760003660031901126103c8576020600854604051908152f35b346103c85760003660031901126103c8576001546040516001600160a01b039091168152602090f35b346103c85760003660031901126103c85760206004601654161515604051908152f35b346103c85760003660031901126103c85760206002601654161515604051908152f35b346103c85760603660031901126103c8577f7e2a3374677a327cc55645e34396200e1c47056393c1e5dfa3e1f7a40384a33a60243560043561134260443561170d612922565b61178a84611785611780826016546117286004821615613585565b61173c60026012549261097c8415156135d1565b61176c611764601154926101f484106000146117f45761175f600286101561372a565b6132b1565b8a1015613781565b61177b62093a808810156137e6565b6132cf565b613473565b61339d565b906117c36117966111fe565b8581526020810187905260408101839052606001839052600c859055600d869055600e829055600f839055565b6117d1600460165417601655565b604051948594859094939260609260808301968352602083015260408201520152565b6103e884101561180b5761175f60048610156136d0565b6107d08410156118225761175f6008861015613675565b61175f600886101561361d565b346103c8576000806003193601126106845760405190806000805160206149e58339815191529081549061186282610a83565b80865292600192808416908115610657575060011461188b576105f9866105ed81880382610b0e565b815292507f617167b76dcc8247761fd21f427ad8ec3be6b3be203aed34e3aac08b4d31817c5b8284106118cd5750505081016020016105ed826105f9386105dd565b805460208587018101919091529093019281016118b1565b346103c85760403660031901126103c857600435611902816103cd565b60243590811515918281036103c857611933906119228361078633612334565b9060ff801983541691151516179055565b6040519182526001600160a01b03169033907f17307eab39ab6107e8899845ad3d59bd9653f200f220920489ca2b5937696c3190602090a3005b634e487b7160e01b600052602160045260246000fd5b6003111561198d57565b61196d565b346103c85760003660031901126103c85760ff60055416604051600382101561198d576020918152f35b346103c85760003660031901126103c8576020601154604051908152f35b346103c857600080600319360112610684576119f4612922565b611a0360016016541615612feb565b60055460ff16611a1281611983565b60028103611a5e5750611a29600654421015613037565b611a37600160165417601655565b7f4884a1e8d033385ee80fa3d769d1ba3c44e18291db0f726e436a01997d3df36a8180a180f35b611a6781611983565b611a295760405162461bcd60e51b815260206004820152603e60248201527f496e7374616e742072657665616c20636f6c6c656374696f6e7320646f206e6f60448201527f74206e65656420746f206265206d616e75616c6c792072657665616c656400006064820152608490fd5b0390fd5b346103c85760203660031901126103c857600435611af6612922565b600260165416611b6e57611b26611b1f82611b176014611b2b951115613332565b60075461338a565b6064900490565b601155565b611b39600260165417601655565b6011546040519081527f4f0ee8dede1f88eebce079d082b265aea42f0e2dd279124103655875097f43f4908060208101611342565b60405162461bcd60e51b815260206004820152602360248201527f43726561746f7220616c6c6f636174696f6e20616c7265616479206465636c616044820152621c995960ea1b6064820152608490fd5b346103c85760003660031901126103c8576010546040516001600160a01b039091168152602090f35b346103c85760203660031901126103c857600435611c04612922565b611c1460026016541615156133bd565b80151580611d1a575b611c269061341b565b6013546011549080820382811161161157818314611cc357611c6f611b1f7fd1f265823deafe8beac32429d528ba3d6f44b4c066c5935685cc34bde411795795611c7c9361338a565b80936109ff82151561348f565b90611c8682601155565b600460165416611cab575b506040805191825260208201929092529081908101611342565b611cb8611cbd9183613482565b6134ee565b38611c91565b60405162461bcd60e51b815260206004820152602960248201527f4e6f2072656d61696e696e672063726561746f7220616c6c6f636174696f6e20604482015268746f2072656475636560b81b6064820152608490fd5b506064811115611c1d565b346103c85760803660031901126103c857600435611d42816103cd565b606435604435602435611d53612922565b6001600160a01b038416938415611e3c577f70f501bd2f3c55f153861010e5184d8493b7b83ce7c4cb72fcc70fd07c1a240a93611e1a611e3792611d988515156141cb565b611da3831515614221565b611dcd611dc8610d51610e228460018060a01b03166000526002602052604060002090565b614279565b611e15611dd861121d565b600181529186602084015287604084015284606084015260006080840152600060a084015260018060a01b03166000526002602052604060002090565b6142bc565b604051938493846040919493926060820195825260208201520152565b0390a2005b60405162461bcd60e51b8152602060048201526013602482015272496e76616c6964204b4f4c206164647265737360681b6044820152606490fd5b60803660031901126103c857600435611e8f816103cd565b60243590611e9c826103cd565b6044356064356001600160401b0381116103c857366023820112156103c857611ecf903690602481600401359101611245565b90611ed9816146f8565b6001600160a01b0384811691808216839003610e34578391611f1583600052600080516020614a05833981519152602052604060002090815490565b611f2e6001600160a01b03871633908114908314171590565b611ffd575b611ff3575b50611f428461236d565b8054600019019055611f538861236d565b805460010190558716928391600160e11b4260a01b84178117611f75866146c9565b55811615611fb2575b50600080516020614a45833981519152600080a415610dbf57833b611f9f57005b611fac93610d51936147cc565b61114057005b60018401611fbf816146c9565b5415611fcc575b50611f7e565b6000805160206149c5833981519152548114611fc657611feb906146c9565b553880611fc6565b6000905538611f38565b9350612012610d51610e223361078689612334565b610e2f578593611f33565b346103c85760003660031901126103c8576020600654604051908152f35b346103c8576020806003193601126103c857600490813561205b816103cd565b6001600160a01b0381166000908152600a6020526040902061207f90541515613d95565b6001546001600160a01b0382811694913386149116331490801590816122f0575b6120a990613206565b816122e8575b5061221a575b6001600160a01b0382166000908152600a602052604090205492839160405163c19d93fb60e01b8152828183818a5afa600091816121eb575b50612155575091935050505b8161210157005b6001600160a01b03166000908152600a602052604081207ffa7ff84d4eb7d84d088489adf98dd5160bce4e75f6d0acd06e70a89654bb7d7f92611e37929091556115c561215082600b54613482565b600b55565b806121608392613de9565b1461216e575b5050506120fa565b8160409592939495518092638bc5328560e01b825281895afa92831561047d576000936121bc575b50508110156121b2576121a891613482565b905b388080612166565b50506000906121aa565b6121dc929350803d106121e4575b6121d48183610b0e565b810190613e5d565b903880612196565b503d6121ca565b61220c919250843d8611612213575b6122048183610b0e565b810190613dd1565b90386120ee565b503d6121fa565b60405163c19d93fb60e01b815290929190600083828681895afa9091816122c9575b5061228e57611ad68460405191829162461bcd60e51b8352820160609060208152601b60208201527f556e61626c6520746f2076657269667920706f6f6c207374617465000000000060408201520190565b6122b0909391929361229f81613de9565b8281149081156122b5575b50613df3565b6120b5565b600691506122c281613de9565b14386122aa565b6122e1919250843d8611612213576122048183610b0e565b903861223c565b9050386120af565b50816120a0565b346103c85760203660031901126103c8576105f9610c90600435613f67565b346103c85760003660031901126103c8576020600754604051908152f35b6001600160a01b031660009081527f2569078dfb4b0305704d3008e7403993ae9601b85f7ae5e742de3de8f8011c476020526040902090565b6001600160a01b031660009081527f2569078dfb4b0305704d3008e7403993ae9601b85f7ae5e742de3de8f8011c456020526040902090565b346103c85760203660031901126103c8576004356123c3816103cd565b60018060a01b0316600052600a6020526020604060002054604051908152f35b346103c85760003660031901126103c8576020601254604051908152f35b346103c85760003660031901126103c8576020601354604051908152f35b346103c8576003196060368201126103c8576001600160401b03906004358281116103c8576124529036906004016107b4565b916024358481116103c85761246b9036906004016107b4565b916044359586116103c8576101409086360301126103c857600080516020614a65833981519152549360ff8560081c16948560001461256f5750303b155b15612504576124c3941595866124e3575b60040193612dbc565b6124c957005b600080516020614a65833981519152805461ff0019169055005b600080516020614a65833981519152805461ffff19166101011790556124ba565b60405162461bcd60e51b815260206004820152603760248201527f455243373231415f5f496e697469616c697a61626c653a20636f6e747261637460448201527f20697320616c726561647920696e697469616c697a65640000000000000000006064820152608490fd5b60ff16156124a9565b346103c85760403660031901126103c857602060ff6125b160043561259c816103cd565b610786602435916125ac836103cd565b612334565b54166040519015158152f35b346103c85760203660031901126103c8576004356125da816103cd565b6125e2612922565b6001600160a01b038116156125fa5761044b9061297a565b60405162461bcd60e51b815260206004820152602660248201527f4f776e61626c653a206e6577206f776e657220697320746865207a65726f206160448201526564647265737360d01b6064820152608490fd5b346103c85760203660031901126103c8577fbba296472f2135056aa4038d0d43f8b8dd1ff674c970ca244557fda3bf2bdead60043561268b612922565b801515806127ea575b61269d9061341b565b6127096127016126f76011549360026016541661272d575b6126eb611b1f600754926126db600b54986126d1868b10613b73565b6109ff8a87613482565b6126e6811515613bbf565b61338a565b906109ff82151561348f565b92601154906132cf565b821015613c17565b61271281600755565b60115460408051928352602083019190915281908101611342565b60135461273a8187613482565b9081612748575b50506126b5565b6127aa90611b266127a161275a613850565b946000848711156127dc575061279b61277d6127768689613482565b8093613482565b9161279561278e611b1f8b8661338a565b91876132cf565b92613482565b906132cf565b91821015613b01565b6127b381601455565b6127bc42601555565b6004601654166127cd575b80612741565b6127d690613e6c565b386127c7565b61277d61279b918093613482565b506064811115612694565b346103c85760203660031901126103c857600435612812816103cd565b60018060a01b03166000526002602052604060002060ff8154166105f960018301549260028101549060038101546005600483015492015492604051968796879260a094919796959260c08501981515855260208501526040840152606083015260808201520152565b346103c85760003660031901126103c857600c54600d54600e54600f54604080519485526020850193909352918301526060820152608090f35b346103c85760203660031901126103c8576004356128d3816103cd565b6128db612922565b6001600160a01b03166000818152600260205260408120805460ff19169055907ffeb031b2d93541150a8571bc111b4dab4d98dfef15bcbe6e89653e385a5d980a8280a280f35b6001546001600160a01b0316330361293657565b606460405162461bcd60e51b815260206004820152602060248201527f4f776e61626c653a2063616c6c6572206973206e6f7420746865206f776e65726044820152fd5b600180546001600160a01b039283166001600160a01b0319821681179092559091167f8be0079c531659141344cd1fd0a4f28419497f9722a3daafe3b4186f6b6457e0600080a3565b903590601e19813603018212156103c857018035906001600160401b0382116103c8576020019181360383136103c857565b601f8111612a01575050565b600090600382526000805160206149a5833981519152906020601f850160051c83019410612a4a575b601f0160051c01915b828110612a3f57505050565b818155600101612a33565b9092508290612a2a565b601f8111612a60575050565b600090600080516020614a2583398151915282527f933ecf8acb7824b680a8d16f3ff3db8864228d986aa4c2ebab1eeb2703b4beb3906020601f850160051c83019410612ac8575b601f0160051c01915b828110612abd57505050565b818155600101612ab1565b9092508290612aa8565b601f8111612ade575050565b600090600482527f8a35acfbc15ff81a39ae7d344fd709f28e8600b4aa8c65c6b64bfe7fe36bd19b906020601f850160051c83019410612b39575b601f0160051c01915b828110612b2e57505050565b818155600101612b22565b9092508290612b19565b601f8111612b4f575050565b6000906000805160206149e583398151915282527f617167b76dcc8247761fd21f427ad8ec3be6b3be203aed34e3aac08b4d31817c906020601f850160051c83019410612bb7575b601f0160051c01915b828110612bac57505050565b818155600101612ba0565b9092508290612b97565b91906001600160401b038111610aee57612be0816112e0600354610a83565b6000601f8211600114612c1a57819293600092612c0f575b50508160011b916000199060031b1c191617600355565b013590503880612bf8565b6003600052601f198216936000805160206149a583398151915291805b868110612c6f5750836001959610612c55575b505050811b01600355565b0135600019600384901b60f8161c19169055388080612c4a565b90926020600181928686013581550194019101612c37565b91906001600160401b038111610aee57612cab81612ca6600454610a83565b612ad2565b6000601f8211600114612ce557819293600092612cda575b50508160011b916000199060031b1c191617600455565b013590503880612cc3565b6004600052601f198216937f8a35acfbc15ff81a39ae7d344fd709f28e8600b4aa8c65c6b64bfe7fe36bd19b91805b868110612d4c5750836001959610612d32575b505050811b01600455565b0135600019600384901b60f8161c19169055388080612d27565b90926020600181928686013581550194019101612d14565b90918060409360208452816020850152848401376000828201840152601f01601f1916010190565b3561058d816103cd565b3560038110156103c85790565b600381101561198d5760ff801960055416911617600555565b9092916001600160a01b037f000000000000000000000000000000000000000000000000000000000000000081163303612fd9576001546001600160a01b031616612fc857600754612fb657612eca612ed292612ed895612e29612e2360e08a018a6129c3565b90612bc1565b6101208801612e38818a6129c3565b9050612f72575b50612e6c612e4f60208a01612d8c565b60018060a01b03166001600160601b0360a01b6010541617601055565b612e7d612e7889612d8c565b61297a565b612e8a6060890135600855565b612eb6612e9960408a01612d8c565b60018060a01b03166001600160601b0360a01b6009541617600955565b612ec36080890135600755565b3691611245565b923691611245565b90614576565b612ee142601255565b60a08101612ef6612ef182612d96565b612da3565b612eff81612d96565b612f0881611983565b612f1c575050610b6a600160165417601655565b612f3e600291612f39612f336101008601866129c3565b90612c87565b612d96565b612f4781611983565b14612f4f5750565b60c0013542811115612f6057600655565b60405163cc447d1560e01b8152600490fd5b612f9d7f39431082055843edeaab7080d6df47e68cb965e9f9a9fe2949d8877823804fe0918a6129c3565b90612fad60405192839283612d64565b0390a138612e3f565b6040516348aa010560e11b8152600490fd5b60405162dc149f60e41b8152600490fd5b604051630636a15760e11b8152600490fd5b15612ff257565b60405162461bcd60e51b815260206004820152601e60248201527f436f6c6c656374696f6e20697320616c72656164792072657665616c656400006044820152606490fd5b1561303e57565b60405162461bcd60e51b815260206004820152601e60248201527f52657665616c2074696d6520686173206e6f74207965742070617373656400006044820152606490fd5b9081516001600160401b038111610aee576000805160206149e5833981519152906130b7816130b28454610a83565b612b43565b602080601f83116001146130f35750819293946000926130e8575b50508160011b916000199060031b1c1916179055565b0151905038806130d2565b90601f198316956131336000805160206149e58339815191526000527f617167b76dcc8247761fd21f427ad8ec3be6b3be203aed34e3aac08b4d31817c90565b926000905b88821061317057505083600195969710613157575b505050811b019055565b015160001960f88460031b161c1916905538808061314d565b80600185968294968601518155019501930190613138565b908160209103126103c8575161058d816103cd565b6040513d6000823e3d90fd5b156131b057565b60405162461bcd60e51b815260206004820152602860248201527f4f6e6c7920506f6f6c4465706c6f7965722063616e2063616c6c207468697320604482015267333ab731ba34b7b760c11b6064820152608490fd5b1561320d57565b60405162461bcd60e51b815260206004820152600c60248201526b155b985d5d1a1bdc9a5e995960a21b6044820152606490fd5b1561324857565b60405162461bcd60e51b815260206004820152601b60248201527f4e6f20737570706c7920617661696c61626c6520746f206d696e7400000000006044820152606490fd5b634e487b7160e01b600052601160045260246000fd5b600101908160011161161157565b9062093a80820180921161161157565b906001820180921161161157565b9190820180921161161157565b6002600054146132ed576002600055565b60405162461bcd60e51b815260206004820152601f60248201527f5265656e7472616e637947756172643a207265656e7472616e742063616c6c006044820152606490fd5b1561333957565b60405162461bcd60e51b8152602060048201526024808201527f43726561746f7220616c6c6f636174696f6e2063616e6e6f74206578636565646044820152632032302560e01b6064820152608490fd5b8181029291811591840414171561161157565b81156133a7570490565b634e487b7160e01b600052601260045260246000fd5b156133c457565b60405162461bcd60e51b815260206004820152602960248201527f43726561746f7220616c6c6f636174696f6e206d757374206265206465636c616044820152681c995908199a5c9cdd60ba1b6064820152608490fd5b1561342257565b60405162461bcd60e51b8152602060048201526024808201527f50657263656e74616765206d757374206265206265747765656e203120616e646044820152630203130360e41b6064820152608490fd5b60001981019190821161161157565b9190820391821161161157565b1561349657565b60405162461bcd60e51b815260206004820152602a60248201527f526564756374696f6e20616d6f756e74206d7573742062652067726561746572604482015269207468616e207a65726f60b01b6064820152608490fd5b801561357d57600d54600c5490600e5491613509838361338a565b81018082116116115742106135265750505050610b6a6000600f55565b61353e9281421060001461356a575050600090613482565b90811561355e5781611785611780610b6a94613559946132cf565b600f55565b5050610b6a6000600f55565b6117856135779242613482565b90613482565b506000600f55565b1561358c57565b60405162461bcd60e51b815260206004820152601a60248201527f56657374696e6720616c726561647920636f6e666967757265640000000000006044820152606490fd5b156135d857565b60405162461bcd60e51b815260206004820152601a60248201527f436f6c6c656374696f6e206e6f7420696e697469616c697a65640000000000006044820152606490fd5b1561362457565b60405162461bcd60e51b815260206004820152602360248201527f4d696e203820756e6c6f636b7320666f7220616c6c6f636174696f6e203e203260448201526203030360ec1b6064820152608490fd5b1561367c57565b60405162461bcd60e51b815260206004820152602660248201527f4d696e203820756e6c6f636b7320666f7220616c6c6f636174696f6e203130306044820152650302d323030360d41b6064820152608490fd5b156136d757565b60405162461bcd60e51b815260206004820152602560248201527f4d696e203420756e6c6f636b7320666f7220616c6c6f636174696f6e2035303060448201526402d313030360dc1b6064820152608490fd5b1561373157565b60405162461bcd60e51b815260206004820152602260248201527f4d696e203220756e6c6f636b7320666f7220616c6c6f636174696f6e203c2035604482015261030360f41b6064820152608490fd5b1561378857565b60405162461bcd60e51b815260206004820152603060248201527f436c696666206d757374206e6f74206265206c657373207468616e203720646160448201526f3cb990333937b69031b932b0ba34b7b760811b6064820152608490fd5b156137ed57565b60405162461bcd60e51b815260206004820152603560248201527f4475726174696f6e206265747765656e20756e6c6f636b73206d757374206e6f60448201527474206265206c657373207468616e2037206461797360581b6064820152608490fd5b6004601654161561389057600c544210613890576015546138735761058d613895565b61387b613895565b601454908181101561388b575090565b905090565b600090565b600c54420342811161161157600e546138ad9161339d565b6001810180911161161157600d548082116138ea575b81036138d0575060115490565b6138dc90600f5461338a565b60115480821161388b575090565b9050806138c3565b6004601654161561389057613905613850565b60135480821115613980578082106139235781039081116116115790565b60405162461bcd60e51b815260206004820152602f60248201527f41726974686d6574696320756e646572666c6f7720696e20676574417661696c60448201526e18589b1950dc99585d1bdc935a5b9d608a1b6064820152608490fd5b5050600090565b1561398e57565b60405162461bcd60e51b815260206004820152601660248201527515995cdd1a5b99c81b9bdd0818dbdb999a59dd5c995960521b6044820152606490fd5b156139d357565b60405162461bcd60e51b815260206004820152601460248201527305175616e74697479206d757374206265203e20360641b6044820152606490fd5b15613a1657565b60405162461bcd60e51b815260206004820152601f60248201527f4d696e74696e6720776f756c6420657863656564206d617820737570706c79006044820152606490fd5b15613a6257565b60405162461bcd60e51b815260206004820152602560248201527f4578636565647320617661696c61626c6520756e6c6f636b656420616c6c6f6360448201526430ba34b7b760d91b6064820152608490fd5b15613abc57565b60405162461bcd60e51b815260206004820152601a60248201527f457863656564732063726561746f7220616c6c6f636174696f6e0000000000006044820152606490fd5b15613b0857565b60405162461bcd60e51b815260206004820152603960248201527f4e65772063726561746f7220616c6c6f636174696f6e2063616e6e6f7420626560448201527f206c657373207468616e20636c61696d656420616d6f756e74000000000000006064820152608490fd5b15613b7a57565b60405162461bcd60e51b815260206004820152601860248201527f4e6f20737570706c79206c65667420746f2072656475636500000000000000006044820152606490fd5b15613bc657565b60405162461bcd60e51b8152602060048201526024808201527f4e6f20756e616c6c6f636174656420737570706c79206c65667420746f2072656044820152636475636560e01b6064820152608490fd5b15613c1e57565b60405162461bcd60e51b815260206004820152603c60248201527f4e6577206d617820737570706c792063616e6e6f74206265206c65737320746860448201527f616e206d696e746564202b20616c6c6f636174656420737570706c79000000006064820152608490fd5b15613c9057565b60405162461bcd60e51b815260206004820152603860248201527f4f6e6c79207468652070726f746f636f6c277320506f6f6c4465706c6f79657260448201527f2063616e2063616c6c20746869732066756e6374696f6e2e00000000000000006064820152608490fd5b6001600160a01b0316908115613d595781600052600a60205280604060002055600b54818101809111611611577f1ac3d1a84101f14877bbfafdcfd3b761954b8bb27df1f672b50d7e11d48d880c91602091600b55604051908152a2565b60405162461bcd60e51b8152602060048201526014602482015273496e76616c696420706f6f6c206164647265737360601b6044820152606490fd5b15613d9c57565b60405162461bcd60e51b815260206004820152600d60248201526c27379030b63637b1b0ba34b7b760991b6044820152606490fd5b908160209103126103c8575160088110156103c85790565b6008111561198d57565b15613dfa57565b60405162461bcd60e51b815260206004820152603560248201527f4f776e65722063616e206f6e6c7920726573746f726520616c6c6f636174696f6044820152746e20666f7220436f6d706c6574656420706f6f6c7360581b6064820152608490fd5b908160209103126103c8575190565b600c54804210600014613efb5750600d54905b81613edc575050613e906000600f55565b600c54600d54600e54600f546040805194855260208501939093529183015260608201527f7e2a3374677a327cc55645e34396200e1c47056393c1e5dfa3e1f7a40384a33a90608090a1565b81611785611780613ef69461177b61355995601154613482565b613e90565b613f14613f0b613f199242613482565b600e549061339d565b6132c1565b600d5490818110613f2e575050600090613e7f565b613f3791613482565b90613e7f565b60405190613f4a82610af3565b60008252565b90613f6360209282815194859201610534565b0190565b613f70816141a6565b15613fdc5760165460011615613fd357613f88610bed565b805190919015613fc957613fb591613fbb613fa561058d93614063565b6040519485936020850190613f50565b90613f50565b03601f198101835282610b0e565b505061058d613f3d565b5061058d610b2f565b60405162461bcd60e51b815260206004820152602760248201527f4552433732313a2055524920717565727920666f72206e6f6e6578697374656e6044820152663a103a37b5b2b760c91b6064820152608490fd5b9061403b8261122a565b6140486040519182610b0e565b8281528092614059601f199161122a565b0190602036910137565b806000917a184f03e93ff9f4daa797ed6e38ed64bf6a1f01000000000000000080821015614198575b506d04ee2d6d415b85acef810000000080831015614189575b50662386f26fc100008083101561417a575b506305f5e1008083101561416b575b506127108083101561415c575b50606482101561414c575b600a80921015614142575b6001908160216140fa828701614031565b95860101905b61410c575b5050505090565b600019019083906f181899199a1a9b1b9c1cb0b131b232b360811b8282061a83530491821561413d57919082614100565b614105565b91600101916140e9565b91906064600291049101916140de565b600491939204910191386140d3565b600891939204910191386140c6565b601091939204910191386140b7565b602091939204910191386140a5565b60409350810491503861408c565b600181101590816141b5575090565b90506000805160206149c5833981519152541190565b156141d257565b60405162461bcd60e51b815260206004820152602160248201527f506f6f6c206c696d6974206d7573742062652067726561746572207468616e206044820152600360fc1b6064820152608490fd5b1561422857565b60405162461bcd60e51b815260206004820152602360248201527f57696e6e6572206c696d6974206d75737420626520677265617465722074686160448201526206e20360ec1b6064820152608490fd5b1561428057565b60405162461bcd60e51b815260206004820152601460248201527312d3d308185b1c9958591e48185c1c1c9bdd995960621b6044820152606490fd5b9060a06005916142db81511515859060ff801983541691151516179055565b602081015160018501556040810151600285015560608101516003850155608081015160048501550151910155565b1561431157565b60405162461bcd60e51b815260206004820152601760248201527f4b4f4c20706f6f6c206c696d69742065786365656465640000000000000000006044820152606490fd5b1561435d57565b60405162461bcd60e51b815260206004820152601960248201527f4b4f4c2077696e6e6572206c696d6974206578636565646564000000000000006044820152606490fd5b60001981146116115760010190565b9060ff6143d08360018060a01b03166000526002602052604060002090565b5416156144d5576001600160a01b03821660009081526002602052604090206004810154600190910154614404911061430a565b6144536144308260056144298660018060a01b03166000526002602052604060002090565b01546132cf565b6001600160a01b0384166000908152600260205260409020600301541015614356565b6001600160a01b038216600090815260026020526040902060040161447881546143a2565b90556001600160a01b03821660009081526002602052604090206144a1906005019182546132cf565b905533906001600160a01b03167f5b7945a09273a36deae169b61c3f2f6e50c1a2030374353d76346822ae48f674600080a3565b60405162461bcd60e51b815260206004820152601060248201526f12d3d3081b9bdd08185c1c1c9bdd995960821b6044820152606490fd5b1561451457565b60405162461bcd60e51b815260206004820152603460248201527f455243373231415f5f496e697469616c697a61626c653a20636f6e7472616374604482015273206973206e6f7420696e697469616c697a696e6760601b6064820152608490fd5b919061459f60ff600080516020614a658339815191525460081c1661459a8161450d565b61450d565b82516001600160401b038111610aee57600080516020614a25833981519152906145d2816145cd8454610a83565b612a54565b602080601f831160011461462b575081906146099596600092614620575b50508160011b916000199060031b1c1916179055613083565b610b6a60016000805160206149c583398151915255565b0151905038806145f0565b90601f1983169661466b600080516020614a258339815191526000527f933ecf8acb7824b680a8d16f3ff3db8864228d986aa4c2ebab1eeb2703b4beb390565b926000905b8982106146b157505090839291600194614609989910614698575b505050811b019055613083565b015160001960f88460031b161c1916905538808061468b565b80600185968294968601518155019501930190614670565b6000527f2569078dfb4b0305704d3008e7403993ae9601b85f7ae5e742de3de8f8011c44602052604060002090565b6001908082116147765761470b816146c9565b54918215614728575b5050600160e01b81161561058d5780614776565b6000805160206149c5833981519152548210156147765790815b156147145790915060001901614757816146c9565b5491821561476f575050600160e01b81166147765790565b9081614742565b636f96cda160e11b60005260046000fd5b908160209103126103c8575161058d81610482565b3d156147c7573d906147ad8261122a565b916147bb6040519384610b0e565b82523d6000602084013e565b606090565b604051630a85bd0160e11b8082523360048301526001600160a01b0392831660248301526044820194909452608060648201529293602092849290918391600091839061481d906084830190610557565b0393165af160009181614855575b506148475761483861479c565b80511561114057805190602001fd5b6001600160e01b0319161490565b61487791925060203d811161487e575b61486f8183610b0e565b810190614787565b903861482b565b503d614865565b91906000805160206149c583398151915254908015614940576001936001600160a01b03811691906148cd904260a01b83881460e11b1784176148c7866146c9565b5561236d565b6801000000000000000182028154019055811561493b578201919380805b614907575b5050506000805160206149c5833981519152559050565b1561492a575b600081868483600080516020614a458339815191528180a46148eb565b8094019382850361490d57806148f0565b614994565b63b562e8dd60e01b60005260046000fd5b62a1148160e81b60005260046000fd5b632ce44b5f60e11b60005260046000fd5b633a954ecd60e21b60005260046000fd5b6368d2bf6b60e11b60005260046000fd5b622e076360e81b60005260046000fdfec2575a0e9e593c00f959f8c92f12db2869c3395a3b0502d05e2516446f71f85b2569078dfb4b0305704d3008e7403993ae9601b85f7ae5e742de3de8f8011c402569078dfb4b0305704d3008e7403993ae9601b85f7ae5e742de3de8f8011c432569078dfb4b0305704d3008e7403993ae9601b85f7ae5e742de3de8f8011c462569078dfb4b0305704d3008e7403993ae9601b85f7ae5e742de3de8f8011c42ddf252ad1be2c89b69c2b068fc378daa952ba7f163c4a11628f55a4df523b3efee151c8401928dc223602bb187aff91b9a56c7cae5476ef1b3287b085a16c85fa2646970667358221220675de9cf2de5b0cc52691abfc614887e993714a2c5dd0deb2f9f705294fa56a364736f6c63430008130033",
  "linkReferences": {},
  "deployedLinkReferences": {}
}