{
  "_format": "hh-sol-artifact-1",
  "contractName": "DroprERC1155",
  "sourceName": "contracts/DroprERC1155.sol",
  "abi": [
    {
      "inputs": [
        {
          "internalType": "address",
          "name": "_factory",
          "type": "address"
        }
      ],
      "stateMutability": "nonpayable",
      "type": "constructor"
    },
    {
      "inputs": [],
      "name": "AlreadyInitialized",
      "type": "error"
    },
    {
      "inputs": [],
      "name": "ExceedsMaxSupply",
      "type": "error"
    },
    {
      "inputs": [],
      "name": "InvalidMaxSupply",
      "type": "error"
    },
    {
      "inputs": [],
      "name": "InvalidRevealTime",
      "type": "error"
    },
    {
      "inputs": [],
      "name": "OnlyFactory",
      "type": "error"
    },
    {
      "inputs": [],
      "name": "SupplyNotSet",
      "type": "error"
    },
    {
      "anonymous": false,
      "inputs": [
        {
          "indexed": true,
          "internalType": "address",
          "name": "account",
          "type": "address"
        },
        {
          "indexed": true,
          "internalType": "address",
          "name": "operator",
          "type": "address"
        },
        {
          "indexed": false,
          "internalType": "bool",
          "name": "approved",
          "type": "bool"
        }
      ],
      "name": "ApprovalForAll",
      "type": "event"
    },
    {
      "anonymous": false,
      "inputs": [
        {
          "indexed": false,
          "internalType": "string",
          "name": "newBaseURI",
          "type": "string"
        }
      ],
      "name": "BaseURIUpdated",
      "type": "event"
    },
    {
      "anonymous": false,
      "inputs": [],
      "name": "CollectionRevealed",
      "type": "event"
    },
    {
      "anonymous": false,
      "inputs": [
        {
          "indexed": true,
          "internalType": "address",
          "name": "minter",
          "type": "address"
        },
        {
          "indexed": true,
          "internalType": "uint256",
          "name": "tokenId",
          "type": "uint256"
        },
        {
          "indexed": false,
          "internalType": "uint256",
          "name": "amount",
          "type": "uint256"
        }
      ],
      "name": "CreatorAllocationClaimed",
      "type": "event"
    },
    {
      "anonymous": false,
      "inputs": [
        {
          "indexed": true,
          "internalType": "uint256",
          "name": "tokenId",
          "type": "uint256"
        },
        {
          "indexed": false,
          "internalType": "uint256",
          "name": "allocation",
          "type": "uint256"
        }
      ],
      "name": "CreatorAllocationDeclared",
      "type": "event"
    },
    {
      "anonymous": false,
      "inputs": [
        {
          "indexed": true,
          "internalType": "uint256",
          "name": "tokenId",
          "type": "uint256"
        },
        {
          "indexed": false,
          "internalType": "uint256",
          "name": "newAllocation",
          "type": "uint256"
        },
        {
          "indexed": false,
          "internalType": "uint256",
          "name": "reductionAmount",
          "type": "uint256"
        }
      ],
      "name": "CreatorAllocationReduced",
      "type": "event"
    },
    {
      "anonymous": false,
      "inputs": [
        {
          "indexed": false,
          "internalType": "string",
          "name": "dropURI",
          "type": "string"
        }
      ],
      "name": "DropURIUpdated",
      "type": "event"
    },
    {
      "anonymous": false,
      "inputs": [
        {
          "indexed": true,
          "internalType": "address",
          "name": "kol",
          "type": "address"
        },
        {
          "indexed": false,
          "internalType": "uint256",
          "name": "poolLimit",
          "type": "uint256"
        },
        {
          "indexed": false,
          "internalType": "uint256",
          "name": "enforcedSlotFee",
          "type": "uint256"
        },
        {
          "indexed": false,
          "internalType": "uint256",
          "name": "winnerLimit",
          "type": "uint256"
        }
      ],
      "name": "KOLApproved",
      "type": "event"
    },
    {
      "anonymous": false,
      "inputs": [
        {
          "indexed": true,
          "internalType": "address",
          "name": "kol",
          "type": "address"
        },
        {
          "indexed": true,
          "internalType": "address",
          "name": "pool",
          "type": "address"
        }
      ],
      "name": "KOLPoolCreated",
      "type": "event"
    },
    {
      "anonymous": false,
      "inputs": [
        {
          "indexed": true,
          "internalType": "address",
          "name": "kol",
          "type": "address"
        }
      ],
      "name": "KOLRevoked",
      "type": "event"
    },
    {
      "anonymous": false,
      "inputs": [
        {
          "indexed": true,
          "internalType": "address",
          "name": "pool",
          "type": "address"
        },
        {
          "indexed": false,
          "internalType": "uint256",
          "name": "tokenId",
          "type": "uint256"
        },
        {
          "indexed": false,
          "internalType": "uint256",
          "name": "allocation",
          "type": "uint256"
        }
      ],
      "name": "MinterAllocationRestored",
      "type": "event"
    },
    {
      "anonymous": false,
      "inputs": [
        {
          "indexed": true,
          "internalType": "address",
          "name": "pool",
          "type": "address"
        },
        {
          "indexed": false,
          "internalType": "uint256",
          "name": "tokenId",
          "type": "uint256"
        },
        {
          "indexed": false,
          "internalType": "uint256",
          "name": "allocation",
          "type": "uint256"
        }
      ],
      "name": "MinterAndAllocationSet",
      "type": "event"
    },
    {
      "anonymous": false,
      "inputs": [
        {
          "indexed": true,
          "internalType": "uint256",
          "name": "tokenId",
          "type": "uint256"
        },
        {
          "indexed": false,
          "internalType": "uint256",
          "name": "maxSupply",
          "type": "uint256"
        }
      ],
      "name": "NewTokenAdded",
      "type": "event"
    },
    {
      "anonymous": false,
      "inputs": [
        {
          "indexed": true,
          "internalType": "address",
          "name": "previousOwner",
          "type": "address"
        },
        {
          "indexed": true,
          "internalType": "address",
          "name": "newOwner",
          "type": "address"
        }
      ],
      "name": "OwnershipTransferred",
      "type": "event"
    },
    {
      "anonymous": false,
      "inputs": [
        {
          "indexed": true,
          "internalType": "address",
          "name": "minter",
          "type": "address"
        },
        {
          "indexed": true,
          "internalType": "uint256",
          "name": "tokenId",
          "type": "uint256"
        },
        {
          "indexed": false,
          "internalType": "uint256",
          "name": "amount",
          "type": "uint256"
        }
      ],
      "name": "PrizeMinted",
      "type": "event"
    },
    {
      "anonymous": false,
      "inputs": [
        {
          "indexed": true,
          "internalType": "uint256",
          "name": "tokenId",
          "type": "uint256"
        },
        {
          "indexed": false,
          "internalType": "uint256",
          "name": "newMaxSupply",
          "type": "uint256"
        },
        {
          "indexed": false,
          "internalType": "uint256",
          "name": "newCreatorAllocation",
          "type": "uint256"
        }
      ],
      "name": "SupplyReduced",
      "type": "event"
    },
    {
      "anonymous": false,
      "inputs": [
        {
          "indexed": true,
          "internalType": "address",
          "name": "operator",
          "type": "address"
        },
        {
          "indexed": true,
          "internalType": "address",
          "name": "from",
          "type": "address"
        },
        {
          "indexed": true,
          "internalType": "address",
          "name": "to",
          "type": "address"
        },
        {
          "indexed": false,
          "internalType": "uint256[]",
          "name": "ids",
          "type": "uint256[]"
        },
        {
          "indexed": false,
          "internalType": "uint256[]",
          "name": "values",
          "type": "uint256[]"
        }
      ],
      "name": "TransferBatch",
      "type": "event"
    },
    {
      "anonymous": false,
      "inputs": [
        {
          "indexed": true,
          "internalType": "address",
          "name": "operator",
          "type": "address"
        },
        {
          "indexed": true,
          "internalType": "address",
          "name": "from",
          "type": "address"
        },
        {
          "indexed": true,
          "internalType": "address",
          "name": "to",
          "type": "address"
        },
        {
          "indexed": false,
          "internalType": "uint256",
          "name": "id",
          "type": "uint256"
        },
        {
          "indexed": false,
          "internalType": "uint256",
          "name": "value",
          "type": "uint256"
        }
      ],
      "name": "TransferSingle",
      "type": "event"
    },
    {
      "anonymous": false,
      "inputs": [
        {
          "indexed": false,
          "internalType": "string",
          "name": "value",
          "type": "string"
        },
        {
          "indexed": true,
          "internalType": "uint256",
          "name": "id",
          "type": "uint256"
        }
      ],
      "name": "URI",
      "type": "event"
    },
    {
      "anonymous": false,
      "inputs": [
        {
          "indexed": true,
          "internalType": "uint256",
          "name": "tokenId",
          "type": "uint256"
        },
        {
          "indexed": false,
          "internalType": "string",
          "name": "newURI",
          "type": "string"
        }
      ],
      "name": "URIUpdated",
      "type": "event"
    },
    {
      "anonymous": false,
      "inputs": [
        {
          "indexed": true,
          "internalType": "uint256",
          "name": "tokenId",
          "type": "uint256"
        },
        {
          "indexed": false,
          "internalType": "uint256",
          "name": "cliffEnd",
          "type": "uint256"
        },
        {
          "indexed": false,
          "internalType": "uint256",
          "name": "numberOfUnlocks",
          "type": "uint256"
        },
        {
          "indexed": false,
          "internalType": "uint256",
          "name": "durationBetweenUnlocks",
          "type": "uint256"
        },
        {
          "indexed": false,
          "internalType": "uint256",
          "name": "amountPerUnlock",
          "type": "uint256"
        }
      ],
      "name": "VestingConfiguredForToken",
      "type": "event"
    },
    {
      "inputs": [
        {
          "internalType": "address",
          "name": "",
          "type": "address"
        }
      ],
      "name": "allocatedSupply",
      "outputs": [
        {
          "internalType": "uint256",
          "name": "",
          "type": "uint256"
        }
      ],
      "stateMutability": "view",
      "type": "function"
    },
    {
      "inputs": [
        {
          "internalType": "address",
          "name": "_kol",
          "type": "address"
        },
        {
          "internalType": "uint256",
          "name": "_poolLimit",
          "type": "uint256"
        },
        {
          "internalType": "uint256",
          "name": "_enforcedSlotFee",
          "type": "uint256"
        },
        {
          "internalType": "uint256",
          "name": "_winnerLimit",
          "type": "uint256"
        }
      ],
      "name": "approveKOL",
      "outputs": [],
      "stateMutability": "nonpayable",
      "type": "function"
    },
    {
      "inputs": [
        {
          "internalType": "uint256",
          "name": "id",
          "type": "uint256"
        }
      ],
      "name": "availableSupply",
      "outputs": [
        {
          "internalType": "uint256",
          "name": "",
          "type": "uint256"
        }
      ],
      "stateMutability": "view",
      "type": "function"
    },
    {
      "inputs": [
        {
          "internalType": "address",
          "name": "account",
          "type": "address"
        },
        {
          "internalType": "uint256",
          "name": "id",
          "type": "uint256"
        }
      ],
      "name": "balanceOf",
      "outputs": [
        {
          "internalType": "uint256",
          "name": "",
          "type": "uint256"
        }
      ],
      "stateMutability": "view",
      "type": "function"
    },
    {
      "inputs": [
        {
          "internalType": "address[]",
          "name": "accounts",
          "type": "address[]"
        },
        {
          "internalType": "uint256[]",
          "name": "ids",
          "type": "uint256[]"
        }
      ],
      "name": "balanceOfBatch",
      "outputs": [
        {
          "internalType": "uint256[]",
          "name": "",
          "type": "uint256[]"
        }
      ],
      "stateMutability": "view",
      "type": "function"
    },
    {
      "inputs": [
        {
          "internalType": "uint256",
          "name": "tokenId",
          "type": "uint256"
        },
        {
          "internalType": "uint256",
          "name": "cliffEnd",
          "type": "uint256"
        },
        {
          "internalType": "uint256",
          "name": "numberOfUnlocks",
          "type": "uint256"
        },
        {
          "internalType": "uint256",
          "name": "durationBetweenUnlocks",
          "type": "uint256"
        }
      ],
      "name": "configureCreatorVesting",
      "outputs": [],
      "stateMutability": "nonpayable",
      "type": "function"
    },
    {
      "inputs": [
        {
          "internalType": "uint256",
          "name": "_tokenId",
          "type": "uint256"
        },
        {
          "internalType": "uint256",
          "name": "_maxSupply",
          "type": "uint256"
        }
      ],
      "name": "createNewToken",
      "outputs": [],
      "stateMutability": "nonpayable",
      "type": "function"
    },
    {
      "inputs": [
        {
          "internalType": "uint256",
          "name": "",
          "type": "uint256"
        }
      ],
      "name": "creatorAllocation",
      "outputs": [
        {
          "internalType": "uint256",
          "name": "",
          "type": "uint256"
        }
      ],
      "stateMutability": "view",
      "type": "function"
    },
    {
      "inputs": [
        {
          "internalType": "uint256",
          "name": "",
          "type": "uint256"
        }
      ],
      "name": "creatorAllocationDeclared",
      "outputs": [
        {
          "internalType": "bool",
          "name": "",
          "type": "bool"
        }
      ],
      "stateMutability": "view",
      "type": "function"
    },
    {
      "inputs": [
        {
          "internalType": "uint256",
          "name": "",
          "type": "uint256"
        }
      ],
      "name": "creatorClaimedCount",
      "outputs": [
        {
          "internalType": "uint256",
          "name": "",
          "type": "uint256"
        }
      ],
      "stateMutability": "view",
      "type": "function"
    },
    {
      "inputs": [
        {
          "internalType": "address",
          "name": "to",
          "type": "address"
        },
        {
          "internalType": "uint256",
          "name": "id",
          "type": "uint256"
        },
        {
          "internalType": "uint256",
          "name": "quantity",
          "type": "uint256"
        }
      ],
      "name": "creatorMint",
      "outputs": [],
      "stateMutability": "nonpayable",
      "type": "function"
    },
    {
      "inputs": [
        {
          "internalType": "uint256",
          "name": "tokenId",
          "type": "uint256"
        },
        {
          "internalType": "uint256",
          "name": "_percentage",
          "type": "uint256"
        }
      ],
      "name": "cutSupply",
      "outputs": [],
      "stateMutability": "nonpayable",
      "type": "function"
    },
    {
      "inputs": [
        {
          "internalType": "uint256",
          "name": "tokenId",
          "type": "uint256"
        },
        {
          "internalType": "uint256",
          "name": "_percentage",
          "type": "uint256"
        }
      ],
      "name": "declareCreatorAllocation",
      "outputs": [],
      "stateMutability": "nonpayable",
      "type": "function"
    },
    {
      "inputs": [
        {
          "internalType": "uint256",
          "name": "id",
          "type": "uint256"
        }
      ],
      "name": "exists",
      "outputs": [
        {
          "internalType": "bool",
          "name": "",
          "type": "bool"
        }
      ],
      "stateMutability": "view",
      "type": "function"
    },
    {
      "inputs": [],
      "name": "getAllTokenIds",
      "outputs": [
        {
          "internalType": "uint256[]",
          "name": "",
          "type": "uint256[]"
        }
      ],
      "stateMutability": "view",
      "type": "function"
    },
    {
      "inputs": [
        {
          "internalType": "uint256",
          "name": "tokenId",
          "type": "uint256"
        }
      ],
      "name": "getAvailableCreatorMint",
      "outputs": [
        {
          "internalType": "uint256",
          "name": "",
          "type": "uint256"
        }
      ],
      "stateMutability": "view",
      "type": "function"
    },
    {
      "inputs": [],
      "name": "getCollectionStats",
      "outputs": [
        {
          "internalType": "uint256",
          "name": "totalTokenTypes",
          "type": "uint256"
        },
        {
          "internalType": "uint256",
          "name": "totalTokensMinted",
          "type": "uint256"
        }
      ],
      "stateMutability": "view",
      "type": "function"
    },
    {
      "inputs": [
        {
          "internalType": "address",
          "name": "_kol",
          "type": "address"
        }
      ],
      "name": "getKOLApprovalDetails",
      "outputs": [
        {
          "internalType": "bool",
          "name": "approved",
          "type": "bool"
        },
        {
          "internalType": "uint256",
          "name": "poolLimit",
          "type": "uint256"
        },
        {
          "internalType": "uint256",
          "name": "enforcedSlotFee",
          "type": "uint256"
        },
        {
          "internalType": "uint256",
          "name": "winnerLimit",
          "type": "uint256"
        },
        {
          "internalType": "uint256",
          "name": "poolCount",
          "type": "uint256"
        },
        {
          "internalType": "uint256",
          "name": "winnerCount",
          "type": "uint256"
        }
      ],
      "stateMutability": "view",
      "type": "function"
    },
    {
      "inputs": [
        {
          "internalType": "uint256",
          "name": "tokenId",
          "type": "uint256"
        }
      ],
      "name": "getTokenInfo",
      "outputs": [
        {
          "internalType": "uint256",
          "name": "maxSupply_",
          "type": "uint256"
        },
        {
          "internalType": "uint256",
          "name": "currentSupply_",
          "type": "uint256"
        },
        {
          "internalType": "bool",
          "name": "exists_",
          "type": "bool"
        }
      ],
      "stateMutability": "view",
      "type": "function"
    },
    {
      "inputs": [
        {
          "internalType": "uint256",
          "name": "tokenId",
          "type": "uint256"
        }
      ],
      "name": "getUnlockedCreatorAllocation",
      "outputs": [
        {
          "internalType": "uint256",
          "name": "",
          "type": "uint256"
        }
      ],
      "stateMutability": "view",
      "type": "function"
    },
    {
      "inputs": [],
      "name": "getUnrevealedURI",
      "outputs": [
        {
          "internalType": "string",
          "name": "",
          "type": "string"
        }
      ],
      "stateMutability": "view",
      "type": "function"
    },
    {
      "inputs": [
        {
          "internalType": "address",
          "name": "_kol",
          "type": "address"
        },
        {
          "internalType": "uint256",
          "name": "_winnersCount",
          "type": "uint256"
        }
      ],
      "name": "incrementKOLApprovedCounts",
      "outputs": [],
      "stateMutability": "nonpayable",
      "type": "function"
    },
    {
      "inputs": [
        {
          "internalType": "uint256",
          "name": "_prizeTokenId",
          "type": "uint256"
        },
        {
          "components": [
            {
              "internalType": "address",
              "name": "initialOwner",
              "type": "address"
            },
            {
              "internalType": "address",
              "name": "protocolManager",
              "type": "address"
            },
            {
              "internalType": "address",
              "name": "royaltyRecipient",
              "type": "address"
            },
            {
              "internalType": "uint256",
              "name": "royaltyPercentage",
              "type": "uint256"
            },
            {
              "internalType": "uint256",
              "name": "maxSupply",
              "type": "uint256"
            },
            {
              "internalType": "enum PrizeTypes.RevealType",
              "name": "revealType",
              "type": "uint8"
            },
            {
              "internalType": "uint256",
              "name": "revealTime",
              "type": "uint256"
            },
            {
              "internalType": "string",
              "name": "baseURI",
              "type": "string"
            },
            {
              "internalType": "string",
              "name": "unrevealedURI",
              "type": "string"
            },
            {
              "internalType": "string",
              "name": "dropURI",
              "type": "string"
            }
          ],
          "internalType": "struct DroprERC1155.InitializationData",
          "name": "data",
          "type": "tuple"
        }
      ],
      "name": "initialize",
      "outputs": [],
      "stateMutability": "nonpayable",
      "type": "function"
    },
    {
      "inputs": [
        {
          "internalType": "address",
          "name": "account",
          "type": "address"
        },
        {
          "internalType": "address",
          "name": "operator",
          "type": "address"
        }
      ],
      "name": "isApprovedForAll",
      "outputs": [
        {
          "internalType": "bool",
          "name": "",
          "type": "bool"
        }
      ],
      "stateMutability": "view",
      "type": "function"
    },
    {
      "inputs": [],
      "name": "isRevealed",
      "outputs": [
        {
          "internalType": "bool",
          "name": "",
          "type": "bool"
        }
      ],
      "stateMutability": "view",
      "type": "function"
    },
    {
      "inputs": [
        {
          "internalType": "address",
          "name": "",
          "type": "address"
        }
      ],
      "name": "kolApprovals",
      "outputs": [
        {
          "internalType": "bool",
          "name": "approved",
          "type": "bool"
        },
        {
          "internalType": "uint256",
          "name": "poolLimit",
          "type": "uint256"
        },
        {
          "internalType": "uint256",
          "name": "enforcedSlotFee",
          "type": "uint256"
        },
        {
          "internalType": "uint256",
          "name": "winnerLimit",
          "type": "uint256"
        },
        {
          "internalType": "uint256",
          "name": "poolCount",
          "type": "uint256"
        },
        {
          "internalType": "uint256",
          "name": "winnerCount",
          "type": "uint256"
        }
      ],
      "stateMutability": "view",
      "type": "function"
    },
    {
      "inputs": [
        {
          "internalType": "uint256",
          "name": "",
          "type": "uint256"
        }
      ],
      "name": "maxSupply",
      "outputs": [
        {
          "internalType": "uint256",
          "name": "",
          "type": "uint256"
        }
      ],
      "stateMutability": "view",
      "type": "function"
    },
    {
      "inputs": [
        {
          "internalType": "address",
          "name": "to",
          "type": "address"
        },
        {
          "internalType": "uint256",
          "name": "id",
          "type": "uint256"
        },
        {
          "internalType": "uint256",
          "name": "amount",
          "type": "uint256"
        }
      ],
      "name": "mint",
      "outputs": [],
      "stateMutability": "nonpayable",
      "type": "function"
    },
    {
      "inputs": [
        {
          "internalType": "address",
          "name": "",
          "type": "address"
        },
        {
          "internalType": "address",
          "name": "",
          "type": "address"
        },
        {
          "internalType": "uint256[]",
          "name": "",
          "type": "uint256[]"
        },
        {
          "internalType": "uint256[]",
          "name": "",
          "type": "uint256[]"
        },
        {
          "internalType": "bytes",
          "name": "",
          "type": "bytes"
        }
      ],
      "name": "onERC1155BatchReceived",
      "outputs": [
        {
          "internalType": "bytes4",
          "name": "",
          "type": "bytes4"
        }
      ],
      "stateMutability": "pure",
      "type": "function"
    },
    {
      "inputs": [
        {
          "internalType": "address",
          "name": "",
          "type": "address"
        },
        {
          "internalType": "address",
          "name": "",
          "type": "address"
        },
        {
          "internalType": "uint256",
          "name": "",
          "type": "uint256"
        },
        {
          "internalType": "uint256",
          "name": "",
          "type": "uint256"
        },
        {
          "internalType": "bytes",
          "name": "",
          "type": "bytes"
        }
      ],
      "name": "onERC1155Received",
      "outputs": [
        {
          "internalType": "bytes4",
          "name": "",
          "type": "bytes4"
        }
      ],
      "stateMutability": "pure",
      "type": "function"
    },
    {
      "inputs": [],
      "name": "owner",
      "outputs": [
        {
          "internalType": "address",
          "name": "",
          "type": "address"
        }
      ],
      "stateMutability": "view",
      "type": "function"
    },
    {
      "inputs": [
        {
          "internalType": "address",
          "name": "",
          "type": "address"
        }
      ],
      "name": "poolTokenId",
      "outputs": [
        {
          "internalType": "uint256",
          "name": "",
          "type": "uint256"
        }
      ],
      "stateMutability": "view",
      "type": "function"
    },
    {
      "inputs": [],
      "name": "protocolManager",
      "outputs": [
        {
          "internalType": "address",
          "name": "",
          "type": "address"
        }
      ],
      "stateMutability": "view",
      "type": "function"
    },
    {
      "inputs": [
        {
          "internalType": "uint256",
          "name": "tokenId",
          "type": "uint256"
        },
        {
          "internalType": "uint256",
          "name": "_percentage",
          "type": "uint256"
        }
      ],
      "name": "reduceCreatorAllocation",
      "outputs": [],
      "stateMutability": "nonpayable",
      "type": "function"
    },
    {
      "inputs": [],
      "name": "renounceOwnership",
      "outputs": [],
      "stateMutability": "nonpayable",
      "type": "function"
    },
    {
      "inputs": [
        {
          "internalType": "address",
          "name": "pool",
          "type": "address"
        }
      ],
      "name": "restoreMinterAllocation",
      "outputs": [],
      "stateMutability": "nonpayable",
      "type": "function"
    },
    {
      "inputs": [],
      "name": "reveal",
      "outputs": [],
      "stateMutability": "nonpayable",
      "type": "function"
    },
    {
      "inputs": [],
      "name": "revealTime",
      "outputs": [
        {
          "internalType": "uint256",
          "name": "",
          "type": "uint256"
        }
      ],
      "stateMutability": "view",
      "type": "function"
    },
    {
      "inputs": [],
      "name": "revealType",
      "outputs": [
        {
          "internalType": "enum PrizeTypes.RevealType",
          "name": "",
          "type": "uint8"
        }
      ],
      "stateMutability": "view",
      "type": "function"
    },
    {
      "inputs": [
        {
          "internalType": "address",
          "name": "_kol",
          "type": "address"
        }
      ],
      "name": "revokeKOL",
      "outputs": [],
      "stateMutability": "nonpayable",
      "type": "function"
    },
    {
      "inputs": [
        {
          "internalType": "uint256",
          "name": "",
          "type": "uint256"
        },
        {
          "internalType": "uint256",
          "name": "salePrice",
          "type": "uint256"
        }
      ],
      "name": "royaltyInfo",
      "outputs": [
        {
          "internalType": "address",
          "name": "",
          "type": "address"
        },
        {
          "internalType": "uint256",
          "name": "",
          "type": "uint256"
        }
      ],
      "stateMutability": "view",
      "type": "function"
    },
    {
      "inputs": [],
      "name": "royaltyPercentage",
      "outputs": [
        {
          "internalType": "uint256",
          "name": "",
          "type": "uint256"
        }
      ],
      "stateMutability": "view",
      "type": "function"
    },
    {
      "inputs": [],
      "name": "royaltyRecipient",
      "outputs": [
        {
          "internalType": "address",
          "name": "",
          "type": "address"
        }
      ],
      "stateMutability": "view",
      "type": "function"
    },
    {
      "inputs": [
        {
          "internalType": "address",
          "name": "from",
          "type": "address"
        },
        {
          "internalType": "address",
          "name": "to",
          "type": "address"
        },
        {
          "internalType": "uint256[]",
          "name": "ids",
          "type": "uint256[]"
        },
        {
          "internalType": "uint256[]",
          "name": "amounts",
          "type": "uint256[]"
        },
        {
          "internalType": "bytes",
          "name": "data",
          "type": "bytes"
        }
      ],
      "name": "safeBatchTransferFrom",
      "outputs": [],
      "stateMutability": "nonpayable",
      "type": "function"
    },
    {
      "inputs": [
        {
          "internalType": "address",
          "name": "from",
          "type": "address"
        },
        {
          "internalType": "address",
          "name": "to",
          "type": "address"
        },
        {
          "internalType": "uint256",
          "name": "id",
          "type": "uint256"
        },
        {
          "internalType": "uint256",
          "name": "amount",
          "type": "uint256"
        },
        {
          "internalType": "bytes",
          "name": "data",
          "type": "bytes"
        }
      ],
      "name": "safeTransferFrom",
      "outputs": [],
      "stateMutability": "nonpayable",
      "type": "function"
    },
    {
      "inputs": [
        {
          "internalType": "address",
          "name": "operator",
          "type": "address"
        },
        {
          "internalType": "bool",
          "name": "approved",
          "type": "bool"
        }
      ],
      "name": "setApprovalForAll",
      "outputs": [],
      "stateMutability": "nonpayable",
      "type": "function"
    },
    {
      "inputs": [
        {
          "internalType": "string",
          "name": "newBaseURI",
          "type": "string"
        }
      ],
      "name": "setBaseURI",
      "outputs": [],
      "stateMutability": "nonpayable",
      "type": "function"
    },
    {
      "inputs": [
        {
          "internalType": "address",
          "name": "pool",
          "type": "address"
        },
        {
          "internalType": "uint256",
          "name": "tokenId",
          "type": "uint256"
        },
        {
          "internalType": "uint256",
          "name": "allocation",
          "type": "uint256"
        }
      ],
      "name": "setMinterAndAllocation",
      "outputs": [],
      "stateMutability": "nonpayable",
      "type": "function"
    },
    {
      "inputs": [
        {
          "internalType": "uint256",
          "name": "_royaltyPercentage",
          "type": "uint256"
        },
        {
          "internalType": "address",
          "name": "_royaltyRecipient",
          "type": "address"
        }
      ],
      "name": "setRoyalty",
      "outputs": [],
      "stateMutability": "nonpayable",
      "type": "function"
    },
    {
      "inputs": [
        {
          "internalType": "uint256",
          "name": "_tokenId",
          "type": "uint256"
        },
        {
          "internalType": "string",
          "name": "_uri",
          "type": "string"
        }
      ],
      "name": "setURI",
      "outputs": [],
      "stateMutability": "nonpayable",
      "type": "function"
    },
    {
      "inputs": [
        {
          "internalType": "uint256",
          "name": "",
          "type": "uint256"
        }
      ],
      "name": "supplyCutTimestamp",
      "outputs": [
        {
          "internalType": "uint256",
          "name": "",
          "type": "uint256"
        }
      ],
      "stateMutability": "view",
      "type": "function"
    },
    {
      "inputs": [
        {
          "internalType": "bytes4",
          "name": "interfaceId",
          "type": "bytes4"
        }
      ],
      "name": "supportsInterface",
      "outputs": [
        {
          "internalType": "bool",
          "name": "",
          "type": "bool"
        }
      ],
      "stateMutability": "view",
      "type": "function"
    },
    {
      "inputs": [
        {
          "internalType": "uint256",
          "name": "",
          "type": "uint256"
        }
      ],
      "name": "tokenAllocatedSupply",
      "outputs": [
        {
          "internalType": "uint256",
          "name": "",
          "type": "uint256"
        }
      ],
      "stateMutability": "view",
      "type": "function"
    },
    {
      "inputs": [
        {
          "internalType": "uint256",
          "name": "",
          "type": "uint256"
        }
      ],
      "name": "tokenCreationTime",
      "outputs": [
        {
          "internalType": "uint256",
          "name": "",
          "type": "uint256"
        }
      ],
      "stateMutability": "view",
      "type": "function"
    },
    {
      "inputs": [
        {
          "internalType": "uint256",
          "name": "id",
          "type": "uint256"
        }
      ],
      "name": "totalSupply",
      "outputs": [
        {
          "internalType": "uint256",
          "name": "",
          "type": "uint256"
        }
      ],
      "stateMutability": "view",
      "type": "function"
    },
    {
      "inputs": [
        {
          "internalType": "address",
          "name": "newOwner",
          "type": "address"
        }
      ],
      "name": "transferOwnership",
      "outputs": [],
      "stateMutability": "nonpayable",
      "type": "function"
    },
    {
      "inputs": [
        {
          "internalType": "uint256",
          "name": "",
          "type": "uint256"
        }
      ],
      "name": "unlockedAmountAtCut",
      "outputs": [
        {
          "internalType": "uint256",
          "name": "",
          "type": "uint256"
        }
      ],
      "stateMutability": "view",
      "type": "function"
    },
    {
      "inputs": [],
      "name": "unrevealedURI",
      "outputs": [
        {
          "internalType": "string",
          "name": "",
          "type": "string"
        }
      ],
      "stateMutability": "view",
      "type": "function"
    },
    {
      "inputs": [
        {
          "internalType": "uint256",
          "name": "_tokenId",
          "type": "uint256"
        }
      ],
      "name": "uri",
      "outputs": [
        {
          "internalType": "string",
          "name": "",
          "type": "string"
        }
      ],
      "stateMutability": "view",
      "type": "function"
    },
    {
      "inputs": [
        {
          "internalType": "uint256",
          "name": "",
          "type": "uint256"
        }
      ],
      "name": "vestingConfig",
      "outputs": [
        {
          "internalType": "uint256",
          "name": "cliffEnd",
          "type": "uint256"
        },
        {
          "internalType": "uint256",
          "name": "numberOfUnlocks",
          "type": "uint256"
        },
        {
          "internalType": "uint256",
          "name": "durationBetweenUnlocks",
          "type": "uint256"
        },
        {
          "internalType": "uint256",
          "name": "amountPerUnlock",
          "type": "uint256"
        }
      ],
      "stateMutability": "view",
      "type": "function"
    },
    {
      "inputs": [
        {
          "internalType": "uint256",
          "name": "",
          "type": "uint256"
        }
      ],
      "name": "vestingConfigured",
      "outputs": [
        {
          "internalType": "bool",
          "name": "",
          "type": "bool"
        }
      ],
      "stateMutability": "view",
      "type": "function"
    }
  ],
  "bytecode": "0x60a0346200017f576001600160401b0390601f6200520838819003918201601f19168301918483118484101762000169578084926020946040528339810103126200017f57516001600160a01b039182821682036200017f5760405190602082019081118282101762000169576040526000809152600254906001918281811c911680156200015e575b60208210146200014a57601f8111620000fc575b5080600255600454903360018060a01b03198316176004557f8be0079c531659141344cd1fd0a4f28419497f9722a3daafe3b4186f6b6457e0604051953393169180a36005556080526150839081620001858239608051816114470152f35b60028252601f0160051c7f405787fa12a823e0f2b7631cc41b3ba8828b3321ca811111fa75cd3aa3bb5ace9081019083905b8281106200013e5750506200009d565b8381550183906200012e565b634e487b7160e01b82526022600452602482fd5b90607f169062000089565b634e487b7160e01b600052604160045260246000fd5b600080fdfe6080604052600436101561001257600080fd5b60003560e01c8062fdd58e146103e157806301ffc9a7146103dc5780630e89341c146103d7578063156e29f6146103d257806317f63979146103cd5780631b9dfee7146103c85780631fc3689b146103c357806321e8b17e146103be57806329a77e26146103b95780632a55205a146103b45780632eb2c2d6146103af57806340e3276b146103aa5780634c00de82146103a55780634e1273f4146103a05780634f14ec3f1461039b5780634f558e791461039657806353cb5d511461039157806354214f691461038c57806355f804b3146103875780635894bd51146103825780635da7479c1461037d578063664077811461036e5780636981bb461461037857806369d42c5e146103735780637035bf181461036e578063715018a614610369578063862440e214610364578063869f75941461035f57806389f7842d1461035a5780638a5d6909146103555780638a71bb2d146103505780638be6dc1d1461034b5780638c7a63ae146103465780638da5cb5b146103415780639de21c101461033c578063a22cb46514610337578063a2af294f14610332578063a2d6ebf31461032d578063a475b5dd14610328578063a9c989dc14610323578063ab4b66921461031e578063ae0f954414610319578063b5f1f24714610314578063ba829d711461030f578063bc197c811461030a578063bd85b03914610305578063bdbed72214610300578063c705fea2146102fb578063cca6ffe2146102f6578063cdfaee4e146102f1578063d5c32ca4146102ec578063d6b6e203146102e7578063d7e1a400146102e2578063e642d3b1146102dd578063e8834c48146102d8578063e985e9c5146102d3578063f23a6e61146102ce578063f242432a146102c9578063f2fde38b146102c4578063fbddc055146102bf5763fcf2e55f146102ba57600080fd5b612d44565b612cbd565b612c2c565b6129e7565b61298d565b612925565b612842565b612811565b6127c2565b612785565b6126ea565b6126cc565b6126ae565b612597565b6124ff565b6124d3565b612444565b6123c9565b61227c565b611fe4565b611fbb565b611f8f565b611e8f565b611e63565b611e39565b611d25565b611c47565b611c1e565b611bd9565b611bad565b611b8f565b611b52565b611b26565b611afa565b61197f565b611921565b6116a8565b6116f0565b6116c4565b611403565b61137b565b611311565b6112ee565b611181565b611153565b611058565b610f9d565b610f2f565b610e94565b610cbc565b610b1c565b610aeb565b610abf565b610899565b610746565b61067d565b61058f565b610535565b610441565b6103fc565b6001600160a01b038116036103f757565b600080fd5b346103f75760403660031901126103f757602061042760043561041e816103e6565b60243590612e51565b604051908152f35b6001600160e01b03198116036103f757565b346103f75760203660031901126103f75760206004356104608161042f565b63ffffffff60e01b1663152a902d60e11b81149081156104d0575b811561048d575b506040519015158152f35b636cdb3d1360e11b8114915081156104bf575b81156104ae575b5038610482565b6301ffc9a760e01b149050386104a7565b6303a24d0760e21b811491506104a0565b6315ba79c360e11b8114915061047b565b919082519283825260005b84811061050d575050826000602080949584010152601f8019910116010190565b6020818301810151848301820152016104ec565b9060206105329281815201906104e1565b90565b346103f75760203660031901126103f757610568610554600435613b30565b6040519182916020835260208301906104e1565b0390f35b60609060031901126103f757600435610584816103e6565b906024359060443590565b346103f75761059d3661056c565b90916105a7613d33565b336000908152600b602052604090206105c290541515613c73565b6105d6836000526003602052604060002090565b546105eb84600052600a602052604060002090565b5490811561066b578061060083869310613cae565b01116106595761061a908284610614613d10565b92613d89565b60405190815233907faafa1dbc87d0d4fc4b41b7ea689f27064944bce2e8d5dd922ba7c35a463606d89080602081015b0390a36106576001600555565b005b60405163c30436e960e01b8152600490fd5b604051630fee82b160e01b8152600490fd5b346103f75760203660031901126103f75760043561069a816103e6565b60018060a01b0316600052600660205260406000206040516106bb81610b6e565b60ff825416151580825260a06001840154938460208501526002810154938460408201526003820154908160608201526005600484015493846080840152015493849101528361073c575b6105689394604051968796879260a094919796959260c08501981515855260208501526040840152606083015260808201520152565b8083109350610706565b346103f75760403660031901126103f7576004357fbb7617ce321e467e1dc6bad5c188dbe5c31dfe923c1283a07602d74040e0cb4a602435610786612db0565b8260005260146020526107a76107a2604060002060ff90541690565b613f93565b8015158061088e575b6107b990613ff1565b6107cd836000526017602052604060002090565b5461082061080e6108076107eb876000526013602052604060002090565b54946107f78587614058565b610802811515614065565b613f60565b6064900490565b809361081b8215156140c3565b614058565b9081610836866000526013602052604060002090565b5561085561084e866000526016602052604060002090565b5460ff1690565b610875575b5060408051918252602082019290925290819081015b0390a2005b6108826108889183614058565b85614122565b3861085a565b5060648111156107b0565b346103f75760803660031901126103f7576004357f088cab2409ca33ba4d1407cb6386b97a16192c0417c40ace27682534b193a0f76044356024356108706064356108e2612db0565b6109086109036108ff61084e896000526016602052604060002090565b1590565b6141e4565b61092761091f87600052600a602052604060002090565b541515613a4c565b61094661093e876000526015602052604060002090565b541515614242565b6109606107a261084e886000526014602052604060002090565b6109de846109d96109d4828a6109c06109b86109b2610989846000526013602052604060002090565b54936101f4851015610a7f576109a26002871015614393565b6000526015602052604060002090565b546134f8565b8a10156143ea565b6109cf62093a8088101561444f565b613516565b614049565b613f73565b90610a386109ea610bca565b858152866020820152826040820152836060820152610a1389600052601a602052604060002090565b9060606003918051845560208101516001850155604081015160028501550151910155565b610a5c610a4f886000526016602052604060002090565b805460ff19166001179055565b604051948594859094939260609260808301968352602083015260408201520152565b6103e8851015610a9b57610a966004871015614339565b6109a2565b6107d0851015610ab257610a9660088710156142de565b610a966008871015614286565b346103f75760203660031901126103f75760043560005260156020526020604060002054604051908152f35b346103f75760203660031901126103f7576004356000526014602052602060ff604060002054166040519015158152f35b346103f75760403660031901126103f757604060018060a01b0360085416612710610b4b600754602435613f60565b0482519182526020820152f35b634e487b7160e01b600052604160045260246000fd5b60c081019081106001600160401b03821117610b8957604052565b610b58565b608081019081106001600160401b03821117610b8957604052565b90601f801991011681019081106001600160401b03821117610b8957604052565b60405190610bd782610b8e565b565b60405190610bd782610b6e565b6001600160401b038111610b895760051b60200190565b81601f820112156103f757803591610c1483610be6565b92610c226040519485610ba9565b808452602092838086019260051b8201019283116103f7578301905b828210610c4c575050505090565b81358152908301908301610c3e565b9291926001600160401b038211610b895760405191610c84601f8201601f191660200184610ba9565b8294818452818301116103f7578281602093846000960137010152565b9080601f830112156103f75781602061053293359101610c5b565b346103f75760a03660031901126103f757600435610cd9816103e6565b60243590610ce6826103e6565b6001600160401b03906044358281116103f757610d07903690600401610bfd565b916064358181116103f757610d20903690600401610bfd565b906084359081116103f757610d39903690600401610ca1565b6001600160a01b038381169491903386148015610e71575b610d5a906133dc565b610d6783518551146138ec565b8616610d7481151561343f565b610d8084848988614b8e565b60005b8351811015610e2d5780610d9a610e289286612f7b565b51610e21610e198b610dce610daf868c612f7b565b51948c610e0887610de583610dce866000526000602052604060002090565b9060018060a01b0316600052602052604060002090565b54610df282821015613499565b0391610dce846000526000602052604060002090565b556000526000602052604060002090565b918254613516565b9055612f56565b610d83565b5093869194610657966040517f4a39dc06d4c0dbc64b70af90fd698a233a518aa5d07e595d983b8c0526c8f7fb339180610e688a8a83613949565b0390a4336139bc565b50600086815260016020908152604080832033845290915290205460ff16610d51565b346103f75760403660031901126103f757602435600435610eb4826103e6565b610ebc612db0565b6127108111610eea57600755600880546001600160a01b0319166001600160a01b0392909216919091179055005b60405162461bcd60e51b815260206004820152601a60248201527f526f79616c74792063616e6e6f742065786365656420313030250000000000006044820152606490fd5b346103f75760003660031901126103f7576008546040516001600160a01b039091168152602090f35b90815180825260208080930193019160005b828110610f78575050505090565b835185529381019392810192600101610f6a565b906020610532928181520190610f58565b346103f75760403660031901126103f7576004356001600160401b038082116103f757366023830112156103f7578160040135610fd981610be6565b92610fe76040519485610ba9565b81845260209160248386019160051b830101913683116103f757602401905b82821061103f57856024358681116103f7576105689161102d611033923690600401610bfd565b90612f94565b60405191829182610f8c565b838091833561104d816103e6565b815201910190611006565b346103f75760403660031901126103f757602435600435611077612db0565b6110d8610807600093838552600a60205261109760408620541515613a4c565b838552601460205260408520546110b19060ff1615613ea1565b6110be6014821115613f08565b6110d284600052600a602052604060002090565b54613f60565b6110ec826000526013602052604060002090565b55611104610a4f826000526014602052604060002090565b7fb9810d2bf7d3f589fcd8960a77553281c32552184a1a4aeb6998396dd1b1754261114d61113c836000526013602052604060002090565b546040519081529081906020820190565b0390a280f35b346103f75760203660031901126103f757600435600052600360205260206040600020541515604051908152f35b346103f75761064a7f22a0362337789c81f3cf44af8dd14037966fde16d43f0503e0d56955267667886111b33661056c565b92916111c0949194612db0565b6111c8613d33565b61124f6111df86600052600a602052604060002090565b54611248866111f8896000526003602052604060002090565b5461121861121361084e8c6000526016602052604060002090565b61469d565b6112326107a261084e8c6000526014602052604060002090565b61123d8415156146f7565b6109cf821515614743565b1115614786565b61126361125b8661464f565b8511156147c7565b6112a06112848561127e886000526017602052604060002090565b54613516565b611298876000526013602052604060002090565b541015614821565b6112b4856000526017602052604060002090565b6112bf858254613516565b90556112d46112cc613d10565b858784613d89565b6040519384526001600160a01b0316929081906020820190565b346103f75760003660031901126103f75760206001601154161515604051908152f35b346103f75760203660031901126103f7576004356001600160401b0381116103f7576113766113657f6741b2fc379fad678116fe3d4d4b9a1a184ab53ba36b86ad0fa66340b1ab41ad923690600401610ca1565b61136d612db0565b610554816132f3565b0390a1005b346103f75760008060031936011261140057808060015b6103e88111156113ac576040805183815260208101869052f35b8083526020600a81526040808520546113d0575b50506113cb90612f56565b611392565b90926113e0600391969396612f56565b938686525283205481018091116113fb57926113cb386113c0565b612f40565b80fd5b346103f757600319604036820181136103f7576004916024359083356001600160401b0383116103f7576101408386019284360301126103f7576001600160a01b037f0000000000000000000000000000000000000000000000000000000000000000811633036116985785546001600160a01b03161661168957608483013580156116795761159f7fc4b60435d5467f696f8dd268ffdd7fcff001c2937072bf65adb1ec5b426f8d70916114cd6114c86114c160e4890188613056565b3691610c5b565b6132f3565b61012486016114dc8187613056565b9050611636575b506114f56114f0866130b0565b612e08565b6115026064870135600755565b611533611511604488016130b0565b60018060a01b03166bffffffffffffffffffffffff60a01b6008541617600855565b611564611542602488016130b0565b60018060a01b03166bffffffffffffffffffffffff60a01b6009541617600955565b8061157985600052600a602052604060002090565b554261158f856000526015602052604060002090565b5586519081529081906020820190565b0390a260a48201906115b86115b3836130ba565b6130c7565b6115c1826130ba565b6115ca81611e19565b6115e1575050505050610657600160115417601155565b6002916115ff6115f961160493610104870190613056565b90613216565b6130ba565b61160d81611e19565b1461161457005b60c4013590428211156116275750601055005b5163cc447d1560e01b81529050fd5b6116617f39431082055843edeaab7080d6df47e68cb965e9f9a9fe2949d8877823804fe09187613056565b906116708a5192839283613088565b0390a1386114e3565b845163066f305360e21b81528690fd5b5050505162dc149f60e41b8152fd5b8451630636a15760e11b81528690fd5b346103f75760003660031901126103f7576105686105546117cc565b346103f75760203660031901126103f75760043560005260196020526020604060002054604051908152f35b346103f75760403660031901126103f75760043561170d816103e6565b60095460405163188c824d60e11b81526001600160a01b0392916020908290600490829087165afa801561178d57610657936117549260009261175d575b50163314613c16565b60243590614ef1565b61177f91925060203d8111611786575b6117778183610ba9565b810190613c01565b903861174b565b503d61176d565b61359c565b90600182811c921680156117c2575b60208310146117ac57565b634e487b7160e01b600052602260045260246000fd5b91607f16916117a1565b60405190600082600f54916117e083611792565b808352926001908181169081156118665750600114611807575b50610bd792500383610ba9565b600f600090815291507f8d1108e10bcb7c27dddfc02ed9d693a074039d026cf4ea4240b40f7d581ac8025b84831061184b5750610bd79350508101602001386117fa565b81935090816020925483858a01015201910190918592611832565b905060209250610bd794915060ff191682840152151560051b820101386117fa565b604051906000826002549161189c83611792565b8083529260019081811690811561186657506001146118c25750610bd792500383610ba9565b6002600090815291507f405787fa12a823e0f2b7631cc41b3ba8828b3321ca811111fa75cd3aa3bb5ace5b8483106119065750610bd79350508101602001386117fa565b81935090816020925483858a010152019101909185926118ed565b346103f7576000806003193601126114005761193b612db0565b600480546001600160a01b0319811690915581906001600160a01b03167f8be0079c531659141344cd1fd0a4f28419497f9722a3daafe3b4186f6b6457e08280a380f35b346103f75760403660031901126103f7576001600160401b036004356024358281116103f7576119b3903690600401610ca1565b6119bb612db0565b600092828452602090600a82526119d760408620541515613a4c565b8385526012825260408520918351918211610b8957611a00826119fa8554611792565b856131c2565b80601f8311600114611a68575091817fbf032ae7dcb484f99f9f3977ba9cde222756e7073de74244ceb89de862569bdb949261114d948891611a5d575b508160011b916000199060031b1c19161790555b60405191829182610521565b905083015138611a3d565b90601f198316611a7d85600052602060002090565b9288905b828210611ae25750509261114d9492600192827fbf032ae7dcb484f99f9f3977ba9cde222756e7073de74244ceb89de862569bdb989610611ac9575b5050811b019055611a51565b85015160001960f88460031b161c191690553880611abd565b80600185968294968b01518155019501930190611a81565b346103f75760203660031901126103f757600435600052600a6020526020604060002054604051908152f35b346103f75760203660031901126103f75760043560005260186020526020604060002054604051908152f35b346103f75760203660031901126103f757600435611b6f816103e6565b60018060a01b0316600052600d6020526020604060002054604051908152f35b346103f75760003660031901126103f7576020600754604051908152f35b346103f75760203660031901126103f75760043560005260176020526020604060002054604051908152f35b346103f75760203660031901126103f757600435600052600a602052606060406000205460036020526040600020549060405191818352602083015215156040820152f35b346103f75760003660031901126103f7576004546040516001600160a01b039091168152602090f35b346103f757611c553661056c565b90600460018060a01b03602081600954166040519384809263188c824d60e11b82525afa91821561178d57600092611d05575b5033911603611c9a5761065792614a58565b60405162461bcd60e51b815260206004820152603860248201527f4f6e6c79207468652070726f746f636f6c277320506f6f6c4465706c6f79657260448201527f2063616e2063616c6c20746869732066756e6374696f6e2e00000000000000006064820152608490fd5b611d1e91925060203d8111611786576117778183610ba9565b9038611c88565b346103f75760403660031901126103f757600435611d42816103e6565b60243580151581036103f7576001600160a01b03821691338314611dc257336000908152600160205260409020611d90918391611d7f9190610dce565b9060ff801983541691151516179055565b604051901515815233907f17307eab39ab6107e8899845ad3d59bd9653f200f220920489ca2b5937696c3190602090a3005b60405162461bcd60e51b815260206004820152602960248201527f455243313135353a2073657474696e6720617070726f76616c20737461747573604482015268103337b91039b2b63360b91b6064820152608490fd5b60031115611e2357565b634e487b7160e01b600052602160045260246000fd5b346103f75760003660031901126103f75760ff600e54166040516003821015611e23576020918152f35b346103f75760203660031901126103f757600435600052600c6020526020604060002054604051908152f35b346103f75760008060031936011261140057611ea9612db0565b611eb860016011541615613a98565b600e5460ff16611ec781611e19565b60028103611f135750611ede601054421015613ae4565b611eec600160115417601155565b7f4884a1e8d033385ee80fa3d769d1ba3c44e18291db0f726e436a01997d3df36a8180a180f35b611f1c81611e19565b611ede5760405162461bcd60e51b815260206004820152603e60248201527f496e7374616e742072657665616c20636f6c6c656374696f6e7320646f206e6f60448201527f74206e65656420746f206265206d616e75616c6c792072657665616c656400006064820152608490fd5b0390fd5b346103f75760203660031901126103f75760043560005260136020526020604060002054604051908152f35b346103f75760003660031901126103f7576009546040516001600160a01b039091168152602090f35b346103f75760403660031901126103f7576004357f4eb6d91f82d0f0a4ce5f3a9ef35cf77f613592659f0267b74e4c2b276e43e082602435612024612db0565b61203b61091f84600052600a602052604060002090565b80151580612271575b61204d90613ff1565b61210d6121056120e961206a866000526013602052604060002090565b549361208361084e886000526014602052604060002090565b612150575b6120dd6108076120a289600052600a602052604060002090565b54926120d26120bb8b600052600c602052604060002090565b54986120c8868b106148df565b61081b8a87614058565b61080281151561493b565b9061081b8215156140c3565b926120fe866000526013602052604060002090565b5490613516565b8210156149a3565b8061212284600052600a602052604060002090565b55612137836000526013602052604060002090565b5460408051928352602083019190915281908101610870565b612164876000526017602052604060002090565b546121838161217d8a6000526013602052604060002090565b54614058565b9081612191575b5050612088565b6121f06121e76121a08b6144b9565b9360008486111561226357506121e16121c36121bc8688614058565b8093614058565b916121db6121d46108078a86613f60565b9187613516565b92614058565b90613516565b9182101561486d565b612204896000526013602052604060002090565b558061221a896000526018602052604060002090565b5542612230896000526019602052604060002090565b5561224861084e896000526016602052604060002090565b612253575b8061218a565b61225d9088614c1c565b3861224d565b6121c36121e1918093614058565b506064811115612044565b346103f75760803660031901126103f757600435612299816103e6565b6064356044356024356122aa612db0565b6001600160a01b03841693841561238e577f70f501bd2f3c55f153861010e5184d8493b7b83ce7c4cb72fcc70fd07c1a240a93612371610870926122ef851515614d1a565b6122fa831515614d70565b61232461231f6108ff61084e8460018060a01b03166000526006602052604060002090565b614dc8565b61236c61232f610bd9565b600181529186602084015287604084015284606084015260006080840152600060a084015260018060a01b03166000526006602052604060002090565b614e0b565b604051938493846040919493926060820195825260208201520152565b60405162461bcd60e51b8152602060048201526013602482015272496e76616c6964204b4f4c206164647265737360681b6044820152606490fd5b346103f75760003660031901126103f7576020601054604051908152f35b9181601f840112156103f7578235916001600160401b0383116103f7576020808501948460051b0101116103f757565b9181601f840112156103f7578235916001600160401b0383116103f757602083818601950101116103f757565b346103f75760a03660031901126103f7576124606004356103e6565b61246b6024356103e6565b6001600160401b036044358181116103f75761248b9036906004016123e7565b50506064358181116103f7576124a59036906004016123e7565b50506084359081116103f7576124bf903690600401612417565b505060405163bc197c8160e01b8152602090f35b346103f75760203660031901126103f75760043560005260036020526020604060002054604051908152f35b346103f75760008060031936011261140057612519612ee1565b60018281805b612535575b848452604051806105688682610f8c565b6103e88111158061258d575b1561258857808252600a6020526040822054612567575b61256190612f56565b8261251f565b93612580818661257a6125619488612f7b565b52612f56565b949050612558565b612524565b5060648510612541565b346103f75760203660031901126103f7576004356125b4816103e6565b6001600160a01b03811633811480612697575b6125d090613c73565b7f86372a886a337455dd1cc469325e55aaf8068b361addb8fc08c3aa0bc904cc88600092828452600b6020526040842054908461265c6126228360018060a01b0316600052600d602052604060002090565b5492826126418260018060a01b0316600052600b602052604060002090565b556001600160a01b03166000908152600d6020526040902090565b5561267181600052600c602052604060002090565b61267c838254614058565b9055604080519182526020820192909252908190810161114d565b506000818152600b602052604090205415156125c7565b346103f75760203660031901126103f75760206104276004356144b9565b346103f75760203660031901126103f757602061042760043561464f565b346103f75760203660031901126103f75761056861276a60043561081b600091808352600c60205261217d604084205491601460205260ff60408620541660001461277a57601360205261275a604080872054965b838152600a60205220546127538786613516565b1115614a15565b600052600a602052604060002090565b6040519081529081906020820190565b61275a60408661273f565b346103f75760203660031901126103f7576004356127a2816103e6565b60018060a01b0316600052600b6020526020604060002054604051908152f35b346103f75760203660031901126103f7576004356000908152601a6020908152604091829020805460018201546002830154600390930154855192835293820152928301526060820152608090f35b346103f75760203660031901126103f7576004356000526016602052602060ff604060002054166040519015158152f35b346103f75760403660031901126103f757600435602435612861612db0565b81600052600a6020526040600020546128e057610870816128a47fc4b60435d5467f696f8dd268ffdd7fcff001c2937072bf65adb1ec5b426f8d709315156139f6565b806128b985600052600a602052604060002090565b55426128cf856000526015602052604060002090565b556040519081529081906020820190565b60405162461bcd60e51b815260206004820152601760248201527f546f6b656e20494420616c7265616479206578697374730000000000000000006044820152606490fd5b346103f75760403660031901126103f757602060ff612981600435612949816103e6565b60243590612956826103e6565b60018060a01b03166000526001845260406000209060018060a01b0316600052602052604060002090565b54166040519015158152f35b346103f75760a03660031901126103f7576129a96004356103e6565b6129b46024356103e6565b6084356001600160401b0381116103f7576129d3903690600401612417565b505060405163f23a6e6160e01b8152602090f35b346103f75760a03660031901126103f757600435612a04816103e6565b602435612a10816103e6565b6064356044356084356001600160401b0381116103f757612a35903690600401610ca1565b6001600160a01b0385811695919491903387148015612c09575b612a58906133dc565b8216801596612a67881561343f565b612a70856138b7565b97612a7a876138b7565b908215612bad575b612b2b575b50610657975085612aa684610dce886000526000602052604060002090565b54612ab382821015613499565b03612acc84610dce886000526000602052604060002090565b55612ae584610dce876000526000602052604060002090565b612af0878254613516565b9055604080518681526020810188905233917fc3d58168c5ae7397731d063d5bbf3d657854427343f4c083240f7aacaa2d0f6291a4336137df565b959391600097959391975b8951811015612b9a5780612b4d612b95928c612f7b565b51612b8f612b5b838c612f7b565b51612b70836000526003602052604060002090565b54612b7d82821015614b31565b03916000526003602052604060002090565b55612f56565b612b36565b5091939550919395610657975038612a87565b9896939095926000989592985b8851811015612bf9578089610e21610e19612be384612bdc612bf4978f612f7b565b5194612f7b565b516000526003602052604060002090565b612bba565b5092959093969897919497612a82565b50600087815260016020908152604080832033845290915290205460ff16612a4f565b346103f75760203660031901126103f757600435612c49816103e6565b612c51612db0565b6001600160a01b03811615612c695761065790612e08565b60405162461bcd60e51b815260206004820152602660248201527f4f776e61626c653a206e6577206f776e657220697320746865207a65726f206160448201526564647265737360d01b6064820152608490fd5b346103f75760203660031901126103f757600435612cda816103e6565b60018060a01b03166000526006602052604060002060ff81541661056860018301549260028101549060038101546005600483015492015492604051968796879260a094919796959260c08501981515855260208501526040840152606083015260808201520152565b346103f75760203660031901126103f757600435612d61816103e6565b612d69612db0565b6001600160a01b03166000818152600660205260408120805460ff19169055907ffeb031b2d93541150a8571bc111b4dab4d98dfef15bcbe6e89653e385a5d980a8280a280f35b6004546001600160a01b03163303612dc457565b606460405162461bcd60e51b815260206004820152602060248201527f4f776e61626c653a2063616c6c6572206973206e6f7420746865206f776e65726044820152fd5b600480546001600160a01b039283166001600160a01b0319821681179092559091167f8be0079c531659141344cd1fd0a4f28419497f9722a3daafe3b4186f6b6457e0600080a3565b6001600160a01b03811615612e89576000918252602082815260408084206001600160a01b03909316845291905290205490565b5490565b60405162461bcd60e51b815260206004820152602a60248201527f455243313135353a2061646472657373207a65726f206973206e6f742061207660448201526930b634b21037bbb732b960b11b6064820152608490fd5b60405190610ca082018281106001600160401b03821117610b895760405260648252610c80366020840137565b90612f1882610be6565b612f256040519182610ba9565b8281528092612f36601f1991610be6565b0190602036910137565b634e487b7160e01b600052601160045260246000fd5b60001981146113fb5760010190565b634e487b7160e01b600052603260045260246000fd5b8051821015612f8f5760209160051b010190565b612f65565b9190918051835103612fff57612faa8151612f0e565b9060005b8151811015612ff85780612fe9612fd8612fcb612ff39486612f7b565b516001600160a01b031690565b612fe28389612f7b565b5190612e51565b61257a8286612f7b565b612fae565b5090925050565b60405162461bcd60e51b815260206004820152602960248201527f455243313135353a206163636f756e747320616e6420696473206c656e677468604482015268040dad2e6dac2e8c6d60bb1b6064820152608490fd5b903590601e19813603018212156103f757018035906001600160401b0382116103f7576020019181360383136103f757565b90918060409360208452816020850152848401376000828201840152601f01601f1916010190565b35610532816103e6565b3560038110156103f75790565b6003811015611e235760ff8019600e5416911617600e55565b601f81116130ec575050565b600090600282527f405787fa12a823e0f2b7631cc41b3ba8828b3321ca811111fa75cd3aa3bb5ace906020601f850160051c83019410613147575b601f0160051c01915b82811061313c57505050565b818155600101613130565b9092508290613127565b601f811161315d575050565b600090600f82527f8d1108e10bcb7c27dddfc02ed9d693a074039d026cf4ea4240b40f7d581ac802906020601f850160051c830194106131b8575b601f0160051c01915b8281106131ad57505050565b8181556001016131a1565b9092508290613198565b90601f81116131d057505050565b600091825260208220906020601f850160051c8301941061320c575b601f0160051c01915b82811061320157505050565b8181556001016131f5565b90925082906131ec565b91906001600160401b038111610b895761323a81613235600f54611792565b613151565b6000601f821160011461327457819293600092613269575b50508160011b916000199060031b1c191617600f55565b013590503880613252565b600f600052601f198216937f8d1108e10bcb7c27dddfc02ed9d693a074039d026cf4ea4240b40f7d581ac80291805b8681106132db57508360019596106132c1575b505050811b01600f55565b0135600019600384901b60f8161c191690553880806132b6565b909260206001819286860135815501940191016132a3565b9081516001600160401b038111610b895761331881613313600254611792565b6130e0565b602080601f83116001146133545750819293600092613349575b50508160011b916000199060031b1c191617600255565b015190503880613332565b90601f1983169461338760026000527f405787fa12a823e0f2b7631cc41b3ba8828b3321ca811111fa75cd3aa3bb5ace90565b926000905b8782106133c45750508360019596106133ab575b505050811b01600255565b015160001960f88460031b161c191690553880806133a0565b8060018596829496860151815501950193019061338c565b156133e357565b60405162461bcd60e51b815260206004820152602e60248201527f455243313135353a2063616c6c6572206973206e6f7420746f6b656e206f776e60448201526d195c881bdc88185c1c1c9bdd995960921b6064820152608490fd5b1561344657565b60405162461bcd60e51b815260206004820152602560248201527f455243313135353a207472616e7366657220746f20746865207a65726f206164604482015264647265737360d81b6064820152608490fd5b156134a057565b60405162461bcd60e51b815260206004820152602a60248201527f455243313135353a20696e73756666696369656e742062616c616e636520666f60448201526939103a3930b739b332b960b11b6064820152608490fd5b9062093a8082018092116113fb57565b90600182018092116113fb57565b919082018092116113fb57565b908160209103126103f757516105328161042f565b909260a0926105329594600180861b03168352600060208401526040830152606082015281608082015201906104e1565b919261053295949160a094600180871b0380921685521660208401526040830152606082015281608082015201906104e1565b6040513d6000823e3d90fd5b60809060208152602860208201527f455243313135353a204552433131353552656365697665722072656a656374656040820152676420746f6b656e7360c01b60608201520190565b60009060033d116135fe57565b905060046000803e60005160e01c90565b600060443d1061053257604051600319913d83016004833e81516001600160401b03918282113d60248401111761366c57818401948551938411613674573d8501016020848701011161366c575061053292910160200190610ba9565b949350505050565b50949350505050565b9390803b61368d575b5050505050565b6136b59360006020946040519687958694859363f23a6e6160e01b9b8c865260048601613538565b03926001600160a01b03165af1600091816137af575b5061378757505060016136dc6135f1565b6308c379a014613758575b6136f6575b3880808080613686565b60405162461bcd60e51b815260206004820152603460248201527f455243313135353a207472616e7366657220746f206e6f6e2d455243313135356044820152732932b1b2b4bb32b91034b6b83632b6b2b73a32b960611b6064820152608490fd5b61376061360f565b8061376b57506136e7565b60405162461bcd60e51b8152908190611f8b9060048301610521565b6001600160e01b031916146136ec5760405162461bcd60e51b815280611f8b600482016135a8565b6137d191925060203d81116137d8575b6137c98183610ba9565b810190613523565b90386136cb565b503d6137bf565b9493919092813b6137f3575b505050505050565b600060209461381a6040519788968795869463f23a6e6160e01b9c8d875260048701613569565b03926001600160a01b03165af160009181613897575b5061386f57505060016138416135f1565b6308c379a01461385c575b6136f6575b3880808080806137eb565b61386461360f565b8061376b575061384c565b6001600160e01b031916146138515760405162461bcd60e51b815280611f8b600482016135a8565b6138b091925060203d81116137d8576137c98183610ba9565b9038613830565b60405190604082018281106001600160401b03821117610b895760405260018252602082016020368237825115612f8f575290565b156138f357565b60405162461bcd60e51b815260206004820152602860248201527f455243313135353a2069647320616e6420616d6f756e7473206c656e677468206044820152670dad2e6dac2e8c6d60c31b6064820152608490fd5b909161396061053293604084526040840190610f58565b916020818403910152610f58565b939061053295936139a0916139ae9460018060a01b03809216885216602087015260a0604087015260a0860190610f58565b908482036060860152610f58565b9160808184039101526104e1565b9493919092813b6139cf57505050505050565b600060209461381a6040519788968795869463bc197c8160e01b9c8d87526004870161396e565b156139fd57565b60405162461bcd60e51b815260206004820152602160248201527f4d617820737570706c79206d7573742062652067726561746572207468616e206044820152600360fc1b6064820152608490fd5b15613a5357565b60405162461bcd60e51b815260206004820152601760248201527f546f6b656e20494420646f6573206e6f742065786973740000000000000000006044820152606490fd5b15613a9f57565b60405162461bcd60e51b815260206004820152601e60248201527f436f6c6c656374696f6e20697320616c72656164792072657665616c656400006044820152606490fd5b15613aeb57565b60405162461bcd60e51b815260206004820152601e60248201527f52657665616c2074696d6520686173206e6f74207965742070617373656400006044820152606490fd5b6001806011541615613bf757600091825260209060128252604083209260405193849282825492613b6084611792565b80875293838116908115613bd35750600114613b96575b50505050613b8792500382610ba9565b80516105325750610532611888565b815285812095935091905b818310613bbb575050613b87935082010138808080613b77565b85548784018501529485019486945091830191613ba1565b9350505050613b8794925060ff191682840152151560051b82010138808080613b77565b50506105326117cc565b908160209103126103f75751610532816103e6565b15613c1d57565b60405162461bcd60e51b815260206004820152602860248201527f4f6e6c7920506f6f6c4465706c6f7965722063616e2063616c6c207468697320604482015267333ab731ba34b7b760c11b6064820152608490fd5b15613c7a57565b60405162461bcd60e51b815260206004820152600c60248201526b155b985d5d1a1bdc9a5e995960a21b6044820152606490fd5b15613cb557565b60405162461bcd60e51b815260206004820152602d60248201527f4e6f20737570706c7920617661696c61626c6520746f206d696e7420666f722060448201526c1d1a1a5cc81d1bdad95b881251609a1b6064820152608490fd5b60405190602082018281106001600160401b03821117610b895760405260008252565b600260055414613d44576002600555565b60405162461bcd60e51b815260206004820152601f60248201527f5265656e7472616e637947756172643a207265656e7472616e742063616c6c006044820152606490fd5b936001600160a01b0385169391929091908415613e5257613da9846138b7565b93613db3826138b7565b9660005b8651811015613de45780613dce613ddf928b612f7b565b51610e21610e19612be3848c612f7b565b613db7565b5091939650919350610bd794613e0882610dce856000526000602052604060002090565b613e13858254613516565b9055604080518481526020810186905260009133917fc3d58168c5ae7397731d063d5bbf3d657854427343f4c083240f7aacaa2d0f629190a43361367d565b60405162461bcd60e51b815260206004820152602160248201527f455243313135353a206d696e7420746f20746865207a65726f206164647265736044820152607360f81b6064820152608490fd5b15613ea857565b60405162461bcd60e51b815260206004820152603260248201527f43726561746f7220616c6c6f636174696f6e20616c7265616479206465636c616044820152713932b2103337b9103a3434b9903a37b5b2b760711b6064820152608490fd5b15613f0f57565b60405162461bcd60e51b8152602060048201526024808201527f43726561746f7220616c6c6f636174696f6e2063616e6e6f74206578636565646044820152632032302560e01b6064820152608490fd5b818102929181159184041417156113fb57565b8115613f7d570490565b634e487b7160e01b600052601260045260246000fd5b15613f9a57565b60405162461bcd60e51b815260206004820152602960248201527f43726561746f7220616c6c6f636174696f6e206d757374206265206465636c616044820152681c995908199a5c9cdd60ba1b6064820152608490fd5b15613ff857565b60405162461bcd60e51b8152602060048201526024808201527f50657263656e74616765206d757374206265206265747765656e203120616e646044820152630203130360e41b6064820152608490fd5b6000198101919082116113fb57565b919082039182116113fb57565b1561406c57565b60405162461bcd60e51b815260206004820152602960248201527f4e6f2072656d61696e696e672063726561746f7220616c6c6f636174696f6e20604482015268746f2072656475636560b81b6064820152608490fd5b156140ca57565b60405162461bcd60e51b815260206004820152602a60248201527f526564756374696f6e20616d6f756e74206d7573742062652067726561746572604482015269207468616e207a65726f60b01b6064820152608490fd5b81156141c65761413c90600052601a602052604060002090565b9060018201548254600284015461415c6141568285613f60565b83613516565b421061416f575050505060036000910155565b9061418992918142106000146141b3575050600090614058565b9081156141a857816109d96109d46003946141a394613516565b910155565b505060036000910155565b6109d96141c09242614058565b90614058565b600091506141e0600391600052601a602052604060002090565b0155565b156141eb57565b60405162461bcd60e51b815260206004820152602960248201527f56657374696e6720616c726561647920636f6e6669677572656420666f7220746044820152683434b9903a37b5b2b760b91b6064820152608490fd5b1561424957565b60405162461bcd60e51b8152602060048201526015602482015274151bdad95b881b9bdd081a5b9a5d1a585b1a5e9959605a1b6044820152606490fd5b1561428d57565b60405162461bcd60e51b815260206004820152602360248201527f4d696e203820756e6c6f636b7320666f7220616c6c6f636174696f6e203e203260448201526203030360ec1b6064820152608490fd5b156142e557565b60405162461bcd60e51b815260206004820152602660248201527f4d696e203820756e6c6f636b7320666f7220616c6c6f636174696f6e203130306044820152650302d323030360d41b6064820152608490fd5b1561434057565b60405162461bcd60e51b815260206004820152602560248201527f4d696e203420756e6c6f636b7320666f7220616c6c6f636174696f6e2035303060448201526402d313030360dc1b6064820152608490fd5b1561439a57565b60405162461bcd60e51b815260206004820152602260248201527f4d696e203220756e6c6f636b7320666f7220616c6c6f636174696f6e203c2035604482015261030360f41b6064820152608490fd5b156143f157565b60405162461bcd60e51b815260206004820152603060248201527f436c696666206d757374206e6f74206265206c657373207468616e203720646160448201526f3cb990333937b69031b932b0ba34b7b760811b6064820152608490fd5b1561445657565b60405162461bcd60e51b815260206004820152603560248201527f4475726174696f6e206265747765656e20756e6c6f636b73206d757374206e6f60448201527474206265206c657373207468616e2037206461797360581b6064820152608490fd5b80600052601660205260ff604060002054161561457a576144e481600052601a602052604060002090565b6040516144f081610b8e565b6060600383549384845260018101546020850152600281015460408501520154910152421061457a5761452d816000526019602052604060002090565b5461453b5761053290614580565b61454481614580565b90614559816000526018602052604060002090565b5482101561457657612e8591506000526018602052604060002090565b5090565b50600090565b80600052601a602052604060002060405161459a81610b8e565b6145e16145dc8354938484526145d46001820154956020860196875260606003600285015494604089019586520154960195865242614058565b905190613f73565b613508565b9151808311614647575b8203614607575050612e85906000526013602052604060002090565b906146129151613f60565b90614627816000526013602052604060002090565b548211614632575090565b612e8591506000526013602052604060002090565b9150816145eb565b6000818152601660205260ff604082205416156146985761466f826144b9565b918152601760205260408120549081831115614692575081039081116113fb5790565b91505090565b905090565b156146a457565b60405162461bcd60e51b815260206004820152602560248201527f56657374696e67206e6f7420636f6e6669677572656420666f722074686973206044820152643a37b5b2b760d91b6064820152608490fd5b156146fe57565b60405162461bcd60e51b815260206004820152601a60248201527f537570706c79206e6f742073657420666f7220746869732049440000000000006044820152606490fd5b1561474a57565b60405162461bcd60e51b815260206004820152601460248201527305175616e74697479206d757374206265203e20360641b6044820152606490fd5b1561478d57565b60405162461bcd60e51b815260206004820152601260248201527145786365656473206d617820737570706c7960701b6044820152606490fd5b156147ce57565b60405162461bcd60e51b815260206004820152602560248201527f4578636565647320617661696c61626c6520756e6c6f636b656420616c6c6f6360448201526430ba34b7b760d91b6064820152608490fd5b1561482857565b60405162461bcd60e51b815260206004820152601a60248201527f457863656564732063726561746f7220616c6c6f636174696f6e0000000000006044820152606490fd5b1561487457565b60405162461bcd60e51b815260206004820152603960248201527f4e65772063726561746f7220616c6c6f636174696f6e2063616e6e6f7420626560448201527f206c657373207468616e20636c61696d656420616d6f756e74000000000000006064820152608490fd5b156148e657565b60405162461bcd60e51b815260206004820152602760248201527f4e6f20737570706c79206c65667420746f2072656475636520666f722074686960448201526639903a37b5b2b760c91b6064820152608490fd5b1561494257565b60405162461bcd60e51b815260206004820152603360248201527f4e6f20756e616c6c6f636174656420737570706c79206c65667420746f207265604482015272323ab1b2903337b9103a3434b9903a37b5b2b760691b6064820152608490fd5b156149aa57565b60405162461bcd60e51b815260206004820152603c60248201527f4e6577206d617820737570706c792063616e6e6f74206265206c65737320746860448201527f616e206d696e746564202b20616c6c6f636174656420737570706c79000000006064820152608490fd5b15614a1c57565b60405162461bcd60e51b8152602060048201526014602482015273496e76616c696420737570706c7920737461746560601b6044820152606490fd5b6001600160a01b03811692908315614af5576001600160a01b0381166000908152600b602052604090208391614a8f918490612641565b55614aa482600052600c602052604060002090565b9182548281018091116113fb577f0605df730658c3d51d1de10eb38841dbacde4d3bd2e20e9cb4a23813065644b49355614af06040519283928360209093929193604081019481520152565b0390a2565b60405162461bcd60e51b8152602060048201526014602482015273496e76616c696420706f6f6c206164647265737360601b6044820152606490fd5b15614b3857565b60405162461bcd60e51b815260206004820152602860248201527f455243313135353a206275726e20616d6f756e74206578636565647320746f74604482015267616c537570706c7960c01b6064820152608490fd5b919392916001600160a01b039190821615614be2575b1615614baf57509050565b60005b8351811015614bdc5780614bc9614bd79286612f7b565b51612b8f612b5b8386612f7b565b614bb2565b50509050565b929060005b8551811015614c145780614bfe614c0f9286612f7b565b51610e21610e19612be3848b612f7b565b614be7565b509092614ba4565b907f088cab2409ca33ba4d1407cb6386b97a16192c0417c40ace27682534b193a0f790614c5383600052601a602052604060002090565b908154804210600014614cdb575060018201545b80614caf575050600060038201555b8054614af06001830154926003600282015491015490604051948594859094939260609260808301968352602083015260408201520152565b6109d96109d4826109cf614cd19561217d8a6000526013602052604060002090565b6003820155614c76565b6145dc614ceb614cf69242614058565b600285015490613f73565b600183015490818110614d0c5750506000614c67565b614d1591614058565b614c67565b15614d2157565b60405162461bcd60e51b815260206004820152602160248201527f506f6f6c206c696d6974206d7573742062652067726561746572207468616e206044820152600360fc1b6064820152608490fd5b15614d7757565b60405162461bcd60e51b815260206004820152602360248201527f57696e6e6572206c696d6974206d75737420626520677265617465722074686160448201526206e20360ec1b6064820152608490fd5b15614dcf57565b60405162461bcd60e51b815260206004820152601460248201527312d3d308185b1c9958591e48185c1c1c9bdd995960621b6044820152606490fd5b9060a0600591614e2a81511515859060ff801983541691151516179055565b602081015160018501556040810151600285015560608101516003850155608081015160048501550151910155565b15614e6057565b60405162461bcd60e51b815260206004820152601760248201527f4b4f4c20706f6f6c206c696d69742065786365656465640000000000000000006044820152606490fd5b15614eac57565b60405162461bcd60e51b815260206004820152601960248201527f4b4f4c2077696e6e6572206c696d6974206578636565646564000000000000006044820152606490fd5b9060ff614f108360018060a01b03166000526006602052604060002090565b541615615015576001600160a01b03821660009081526006602052604090206004810154600190910154614f449110614e59565b614f93614f70826005614f698660018060a01b03166000526006602052604060002090565b0154613516565b6001600160a01b0384166000908152600660205260409020600301541015614ea5565b6001600160a01b0382166000908152600660205260409020600401614fb88154612f56565b90556001600160a01b0382166000908152600660205260409020614fe190600501918254613516565b905533906001600160a01b03167f5b7945a09273a36deae169b61c3f2f6e50c1a2030374353d76346822ae48f674600080a3565b60405162461bcd60e51b815260206004820152601060248201526f12d3d3081b9bdd08185c1c1c9bdd995960821b6044820152606490fdfea2646970667358221220b88840b6372ac7ac5f5d2f3c445c9a3c23aacc6fedaf8722498004e19d66143464736f6c63430008130033",
  "linkReferences": {},
  "deployedLinkReferences": {}
}