{
  "_format": "hh-sol-artifact-1",
  "contractName": "DroprERC721A",
  "sourceName": "contracts/DroprERC721A.sol",
  "abi": [
    {
      "inputs": [
        {
          "internalType": "address",
          "name": "_factory",
          "type": "address"
        }
      ],
      "stateMutability": "nonpayable",
      "type": "constructor"
    },
    {
      "inputs": [],
      "name": "AlreadyInitialized",
      "type": "error"
    },
    {
      "inputs": [],
      "name": "ApprovalCallerNotOwnerNorApproved",
      "type": "error"
    },
    {
      "inputs": [],
      "name": "ApprovalQueryForNonexistentToken",
      "type": "error"
    },
    {
      "inputs": [],
      "name": "BalanceQueryForZeroAddress",
      "type": "error"
    },
    {
      "inputs": [],
      "name": "ExceedsMaxSupply",
      "type": "error"
    },
    {
      "inputs": [],
      "name": "InvalidRevealTime",
      "type": "error"
    },
    {
      "inputs": [],
      "name": "MintERC2309QuantityExceedsLimit",
      "type": "error"
    },
    {
      "inputs": [],
      "name": "MintToZeroAddress",
      "type": "error"
    },
    {
      "inputs": [],
      "name": "MintZeroQuantity",
      "type": "error"
    },
    {
      "inputs": [],
      "name": "NotCompatibleWithSpotMints",
      "type": "error"
    },
    {
      "inputs": [],
      "name": "OnlyFactory",
      "type": "error"
    },
    {
      "inputs": [],
      "name": "OwnerQueryForNonexistentToken",
      "type": "error"
    },
    {
      "inputs": [],
      "name": "OwnershipNotInitializedForExtraData",
      "type": "error"
    },
    {
      "inputs": [],
      "name": "SequentialMintExceedsLimit",
      "type": "error"
    },
    {
      "inputs": [],
      "name": "SequentialUpToTooSmall",
      "type": "error"
    },
    {
      "inputs": [],
      "name": "SpotMintTokenIdTooSmall",
      "type": "error"
    },
    {
      "inputs": [],
      "name": "SupplyAlreadySet",
      "type": "error"
    },
    {
      "inputs": [],
      "name": "TokenAlreadyExists",
      "type": "error"
    },
    {
      "inputs": [],
      "name": "TransferCallerNotOwnerNorApproved",
      "type": "error"
    },
    {
      "inputs": [],
      "name": "TransferFromIncorrectOwner",
      "type": "error"
    },
    {
      "inputs": [],
      "name": "TransferToNonERC721ReceiverImplementer",
      "type": "error"
    },
    {
      "inputs": [],
      "name": "TransferToZeroAddress",
      "type": "error"
    },
    {
      "inputs": [],
      "name": "URIQueryForNonexistentToken",
      "type": "error"
    },
    {
      "inputs": [],
      "name": "UnauthorizedMinter",
      "type": "error"
    },
    {
      "inputs": [],
      "name": "ZeroQuantity",
      "type": "error"
    },
    {
      "anonymous": false,
      "inputs": [
        {
          "indexed": true,
          "internalType": "address",
          "name": "owner",
          "type": "address"
        },
        {
          "indexed": true,
          "internalType": "address",
          "name": "approved",
          "type": "address"
        },
        {
          "indexed": true,
          "internalType": "uint256",
          "name": "tokenId",
          "type": "uint256"
        }
      ],
      "name": "Approval",
      "type": "event"
    },
    {
      "anonymous": false,
      "inputs": [
        {
          "indexed": true,
          "internalType": "address",
          "name": "owner",
          "type": "address"
        },
        {
          "indexed": true,
          "internalType": "address",
          "name": "operator",
          "type": "address"
        },
        {
          "indexed": false,
          "internalType": "bool",
          "name": "approved",
          "type": "bool"
        }
      ],
      "name": "ApprovalForAll",
      "type": "event"
    },
    {
      "anonymous": false,
      "inputs": [
        {
          "indexed": false,
          "internalType": "string",
          "name": "newBaseURI",
          "type": "string"
        }
      ],
      "name": "BaseURIUpdated",
      "type": "event"
    },
    {
      "anonymous": false,
      "inputs": [],
      "name": "CollectionRevealed",
      "type": "event"
    },
    {
      "anonymous": false,
      "inputs": [
        {
          "indexed": true,
          "internalType": "uint256",
          "name": "fromTokenId",
          "type": "uint256"
        },
        {
          "indexed": false,
          "internalType": "uint256",
          "name": "toTokenId",
          "type": "uint256"
        },
        {
          "indexed": true,
          "internalType": "address",
          "name": "from",
          "type": "address"
        },
        {
          "indexed": true,
          "internalType": "address",
          "name": "to",
          "type": "address"
        }
      ],
      "name": "ConsecutiveTransfer",
      "type": "event"
    },
    {
      "anonymous": false,
      "inputs": [
        {
          "indexed": false,
          "internalType": "uint256",
          "name": "allocation",
          "type": "uint256"
        }
      ],
      "name": "CreatorAllocationDeclared",
      "type": "event"
    },
    {
      "anonymous": false,
      "inputs": [
        {
          "indexed": false,
          "internalType": "uint256",
          "name": "newAllocation",
          "type": "uint256"
        },
        {
          "indexed": false,
          "internalType": "uint256",
          "name": "reductionAmount",
          "type": "uint256"
        }
      ],
      "name": "CreatorAllocationReduced",
      "type": "event"
    },
    {
      "anonymous": false,
      "inputs": [
        {
          "indexed": true,
          "internalType": "address",
          "name": "winner",
          "type": "address"
        },
        {
          "indexed": false,
          "internalType": "uint256",
          "name": "tokenId",
          "type": "uint256"
        }
      ],
      "name": "CreatorMinted",
      "type": "event"
    },
    {
      "anonymous": false,
      "inputs": [
        {
          "indexed": false,
          "internalType": "uint8",
          "name": "version",
          "type": "uint8"
        }
      ],
      "name": "Initialized",
      "type": "event"
    },
    {
      "anonymous": false,
      "inputs": [
        {
          "indexed": true,
          "internalType": "address",
          "name": "kol",
          "type": "address"
        },
        {
          "indexed": false,
          "internalType": "uint256",
          "name": "poolLimit",
          "type": "uint256"
        },
        {
          "indexed": false,
          "internalType": "uint256",
          "name": "enforcedSlotFee",
          "type": "uint256"
        },
        {
          "indexed": false,
          "internalType": "uint256",
          "name": "winnerLimit",
          "type": "uint256"
        }
      ],
      "name": "KOLApproved",
      "type": "event"
    },
    {
      "anonymous": false,
      "inputs": [
        {
          "indexed": true,
          "internalType": "address",
          "name": "kol",
          "type": "address"
        },
        {
          "indexed": true,
          "internalType": "address",
          "name": "pool",
          "type": "address"
        }
      ],
      "name": "KOLPoolCreated",
      "type": "event"
    },
    {
      "anonymous": false,
      "inputs": [
        {
          "indexed": true,
          "internalType": "address",
          "name": "kol",
          "type": "address"
        }
      ],
      "name": "KOLRevoked",
      "type": "event"
    },
    {
      "anonymous": false,
      "inputs": [
        {
          "indexed": true,
          "internalType": "address",
          "name": "pool",
          "type": "address"
        },
        {
          "indexed": false,
          "internalType": "uint256",
          "name": "allocation",
          "type": "uint256"
        }
      ],
      "name": "MinterAllocationRestored",
      "type": "event"
    },
    {
      "anonymous": false,
      "inputs": [
        {
          "indexed": true,
          "internalType": "address",
          "name": "pool",
          "type": "address"
        },
        {
          "indexed": false,
          "internalType": "uint256",
          "name": "allocation",
          "type": "uint256"
        }
      ],
      "name": "MinterAndAllocationSet",
      "type": "event"
    },
    {
      "anonymous": false,
      "inputs": [
        {
          "indexed": true,
          "internalType": "address",
          "name": "previousOwner",
          "type": "address"
        },
        {
          "indexed": true,
          "internalType": "address",
          "name": "newOwner",
          "type": "address"
        }
      ],
      "name": "OwnershipTransferred",
      "type": "event"
    },
    {
      "anonymous": false,
      "inputs": [
        {
          "indexed": false,
          "internalType": "uint256",
          "name": "newMaxSupply",
          "type": "uint256"
        },
        {
          "indexed": false,
          "internalType": "uint256",
          "name": "newCreatorAllocation",
          "type": "uint256"
        }
      ],
      "name": "SupplyReduced",
      "type": "event"
    },
    {
      "anonymous": false,
      "inputs": [
        {
          "indexed": true,
          "internalType": "address",
          "name": "from",
          "type": "address"
        },
        {
          "indexed": true,
          "internalType": "address",
          "name": "to",
          "type": "address"
        },
        {
          "indexed": true,
          "internalType": "uint256",
          "name": "tokenId",
          "type": "uint256"
        }
      ],
      "name": "Transfer",
      "type": "event"
    },
    {
      "anonymous": false,
      "inputs": [
        {
          "indexed": true,
          "internalType": "bytes32",
          "name": "uriHash",
          "type": "bytes32"
        },
        {
          "indexed": false,
          "internalType": "string",
          "name": "uri",
          "type": "string"
        }
      ],
      "name": "UnrevealedURISet",
      "type": "event"
    },
    {
      "anonymous": false,
      "inputs": [
        {
          "indexed": false,
          "internalType": "uint256",
          "name": "cliffEnd",
          "type": "uint256"
        },
        {
          "indexed": false,
          "internalType": "uint256",
          "name": "numberOfUnlocks",
          "type": "uint256"
        },
        {
          "indexed": false,
          "internalType": "uint256",
          "name": "durationBetweenUnlocks",
          "type": "uint256"
        },
        {
          "indexed": false,
          "internalType": "uint256",
          "name": "amountPerUnlock",
          "type": "uint256"
        }
      ],
      "name": "VestingConfigured",
      "type": "event"
    },
    {
      "inputs": [
        {
          "internalType": "address",
          "name": "",
          "type": "address"
        }
      ],
      "name": "allocatedSupply",
      "outputs": [
        {
          "internalType": "uint256",
          "name": "",
          "type": "uint256"
        }
      ],
      "stateMutability": "view",
      "type": "function"
    },
    {
      "inputs": [
        {
          "internalType": "address",
          "name": "to",
          "type": "address"
        },
        {
          "internalType": "uint256",
          "name": "tokenId",
          "type": "uint256"
        }
      ],
      "name": "approve",
      "outputs": [],
      "stateMutability": "payable",
      "type": "function"
    },
    {
      "inputs": [
        {
          "internalType": "address",
          "name": "_kol",
          "type": "address"
        },
        {
          "internalType": "uint256",
          "name": "_poolLimit",
          "type": "uint256"
        },
        {
          "internalType": "uint256",
          "name": "_enforcedSlotFee",
          "type": "uint256"
        },
        {
          "internalType": "uint256",
          "name": "_winnerLimit",
          "type": "uint256"
        }
      ],
      "name": "approveKOL",
      "outputs": [],
      "stateMutability": "nonpayable",
      "type": "function"
    },
    {
      "inputs": [],
      "name": "availableSupply",
      "outputs": [
        {
          "internalType": "uint256",
          "name": "",
          "type": "uint256"
        }
      ],
      "stateMutability": "view",
      "type": "function"
    },
    {
      "inputs": [
        {
          "internalType": "address",
          "name": "owner",
          "type": "address"
        }
      ],
      "name": "balanceOf",
      "outputs": [
        {
          "internalType": "uint256",
          "name": "",
          "type": "uint256"
        }
      ],
      "stateMutability": "view",
      "type": "function"
    },
    {
      "inputs": [
        {
          "internalType": "uint256",
          "name": "cliffEnd",
          "type": "uint256"
        },
        {
          "internalType": "uint256",
          "name": "numberOfUnlocks",
          "type": "uint256"
        },
        {
          "internalType": "uint256",
          "name": "durationBetweenUnlocks",
          "type": "uint256"
        }
      ],
      "name": "configureCreatorVesting",
      "outputs": [],
      "stateMutability": "nonpayable",
      "type": "function"
    },
    {
      "inputs": [],
      "name": "creationTime",
      "outputs": [
        {
          "internalType": "uint256",
          "name": "",
          "type": "uint256"
        }
      ],
      "stateMutability": "view",
      "type": "function"
    },
    {
      "inputs": [],
      "name": "creatorAllocation",
      "outputs": [
        {
          "internalType": "uint256",
          "name": "",
          "type": "uint256"
        }
      ],
      "stateMutability": "view",
      "type": "function"
    },
    {
      "inputs": [],
      "name": "creatorAllocationDeclared",
      "outputs": [
        {
          "internalType": "bool",
          "name": "",
          "type": "bool"
        }
      ],
      "stateMutability": "view",
      "type": "function"
    },
    {
      "inputs": [],
      "name": "creatorClaimedCount",
      "outputs": [
        {
          "internalType": "uint256",
          "name": "",
          "type": "uint256"
        }
      ],
      "stateMutability": "view",
      "type": "function"
    },
    {
      "inputs": [
        {
          "internalType": "address",
          "name": "to",
          "type": "address"
        },
        {
          "internalType": "uint256",
          "name": "quantity",
          "type": "uint256"
        }
      ],
      "name": "creatorMint",
      "outputs": [],
      "stateMutability": "nonpayable",
      "type": "function"
    },
    {
      "inputs": [
        {
          "internalType": "uint256",
          "name": "_percentage",
          "type": "uint256"
        }
      ],
      "name": "cutSupply",
      "outputs": [],
      "stateMutability": "nonpayable",
      "type": "function"
    },
    {
      "inputs": [
        {
          "internalType": "uint256",
          "name": "_percentage",
          "type": "uint256"
        }
      ],
      "name": "declareCreatorAllocation",
      "outputs": [],
      "stateMutability": "nonpayable",
      "type": "function"
    },
    {
      "inputs": [],
      "name": "dropURIHash",
      "outputs": [
        {
          "internalType": "bytes32",
          "name": "",
          "type": "bytes32"
        }
      ],
      "stateMutability": "view",
      "type": "function"
    },
    {
      "inputs": [
        {
          "internalType": "uint256",
          "name": "tokenId",
          "type": "uint256"
        }
      ],
      "name": "getApproved",
      "outputs": [
        {
          "internalType": "address",
          "name": "",
          "type": "address"
        }
      ],
      "stateMutability": "view",
      "type": "function"
    },
    {
      "inputs": [],
      "name": "getAvailableCreatorMint",
      "outputs": [
        {
          "internalType": "uint256",
          "name": "",
          "type": "uint256"
        }
      ],
      "stateMutability": "view",
      "type": "function"
    },
    {
      "inputs": [
        {
          "internalType": "address",
          "name": "_kol",
          "type": "address"
        }
      ],
      "name": "getKOLApprovalDetails",
      "outputs": [
        {
          "internalType": "bool",
          "name": "approved",
          "type": "bool"
        },
        {
          "internalType": "uint256",
          "name": "poolLimit",
          "type": "uint256"
        },
        {
          "internalType": "uint256",
          "name": "enforcedSlotFee",
          "type": "uint256"
        },
        {
          "internalType": "uint256",
          "name": "winnerLimit",
          "type": "uint256"
        },
        {
          "internalType": "uint256",
          "name": "poolCount",
          "type": "uint256"
        },
        {
          "internalType": "uint256",
          "name": "winnerCount",
          "type": "uint256"
        }
      ],
      "stateMutability": "view",
      "type": "function"
    },
    {
      "inputs": [],
      "name": "getUnlockedCreatorAllocation",
      "outputs": [
        {
          "internalType": "uint256",
          "name": "",
          "type": "uint256"
        }
      ],
      "stateMutability": "view",
      "type": "function"
    },
    {
      "inputs": [
        {
          "internalType": "address",
          "name": "_kol",
          "type": "address"
        },
        {
          "internalType": "uint256",
          "name": "_winnersCount",
          "type": "uint256"
        }
      ],
      "name": "incrementKOLApprovedCounts",
      "outputs": [],
      "stateMutability": "nonpayable",
      "type": "function"
    },
    {
      "inputs": [
        {
          "internalType": "string",
          "name": "name_",
          "type": "string"
        },
        {
          "internalType": "string",
          "name": "symbol_",
          "type": "string"
        },
        {
          "components": [
            {
              "internalType": "address",
              "name": "initialOwner",
              "type": "address"
            },
            {
              "internalType": "address",
              "name": "protocolManager",
              "type": "address"
            },
            {
              "internalType": "address",
              "name": "royaltyRecipient",
              "type": "address"
            },
            {
              "internalType": "uint96",
              "name": "royaltyBps",
              "type": "uint96"
            },
            {
              "internalType": "uint64",
              "name": "maxSupply",
              "type": "uint64"
            },
            {
              "internalType": "enum PrizeTypes.RevealType",
              "name": "revealType",
              "type": "uint8"
            },
            {
              "internalType": "uint48",
              "name": "revealTime",
              "type": "uint48"
            },
            {
              "internalType": "string",
              "name": "baseURI",
              "type": "string"
            },
            {
              "internalType": "bytes32",
              "name": "unrevealedURIHash",
              "type": "bytes32"
            },
            {
              "internalType": "bytes32",
              "name": "dropURIHash",
              "type": "bytes32"
            }
          ],
          "internalType": "struct DroprERC721A.InitializationData",
          "name": "data",
          "type": "tuple"
        }
      ],
      "name": "initialize",
      "outputs": [],
      "stateMutability": "nonpayable",
      "type": "function"
    },
    {
      "inputs": [
        {
          "internalType": "address",
          "name": "owner",
          "type": "address"
        },
        {
          "internalType": "address",
          "name": "operator",
          "type": "address"
        }
      ],
      "name": "isApprovedForAll",
      "outputs": [
        {
          "internalType": "bool",
          "name": "",
          "type": "bool"
        }
      ],
      "stateMutability": "view",
      "type": "function"
    },
    {
      "inputs": [],
      "name": "isRevealed",
      "outputs": [
        {
          "internalType": "bool",
          "name": "",
          "type": "bool"
        }
      ],
      "stateMutability": "view",
      "type": "function"
    },
    {
      "inputs": [
        {
          "internalType": "address",
          "name": "",
          "type": "address"
        }
      ],
      "name": "kolApprovals",
      "outputs": [
        {
          "internalType": "bool",
          "name": "approved",
          "type": "bool"
        },
        {
          "internalType": "uint256",
          "name": "poolLimit",
          "type": "uint256"
        },
        {
          "internalType": "uint256",
          "name": "enforcedSlotFee",
          "type": "uint256"
        },
        {
          "internalType": "uint256",
          "name": "winnerLimit",
          "type": "uint256"
        },
        {
          "internalType": "uint256",
          "name": "poolCount",
          "type": "uint256"
        },
        {
          "internalType": "uint256",
          "name": "winnerCount",
          "type": "uint256"
        }
      ],
      "stateMutability": "view",
      "type": "function"
    },
    {
      "inputs": [],
      "name": "maxSupply",
      "outputs": [
        {
          "internalType": "uint256",
          "name": "",
          "type": "uint256"
        }
      ],
      "stateMutability": "view",
      "type": "function"
    },
    {
      "inputs": [
        {
          "internalType": "address",
          "name": "to",
          "type": "address"
        },
        {
          "internalType": "uint256",
          "name": "quantity",
          "type": "uint256"
        }
      ],
      "name": "mint",
      "outputs": [],
      "stateMutability": "nonpayable",
      "type": "function"
    },
    {
      "inputs": [],
      "name": "name",
      "outputs": [
        {
          "internalType": "string",
          "name": "",
          "type": "string"
        }
      ],
      "stateMutability": "view",
      "type": "function"
    },
    {
      "inputs": [
        {
          "internalType": "address",
          "name": "",
          "type": "address"
        },
        {
          "internalType": "address",
          "name": "",
          "type": "address"
        },
        {
          "internalType": "uint256",
          "name": "",
          "type": "uint256"
        },
        {
          "internalType": "bytes",
          "name": "",
          "type": "bytes"
        }
      ],
      "name": "onERC721Received",
      "outputs": [
        {
          "internalType": "bytes4",
          "name": "",
          "type": "bytes4"
        }
      ],
      "stateMutability": "pure",
      "type": "function"
    },
    {
      "inputs": [],
      "name": "owner",
      "outputs": [
        {
          "internalType": "address",
          "name": "",
          "type": "address"
        }
      ],
      "stateMutability": "view",
      "type": "function"
    },
    {
      "inputs": [
        {
          "internalType": "uint256",
          "name": "tokenId",
          "type": "uint256"
        }
      ],
      "name": "ownerOf",
      "outputs": [
        {
          "internalType": "address",
          "name": "",
          "type": "address"
        }
      ],
      "stateMutability": "view",
      "type": "function"
    },
    {
      "inputs": [],
      "name": "protocolManager",
      "outputs": [
        {
          "internalType": "address",
          "name": "",
          "type": "address"
        }
      ],
      "stateMutability": "view",
      "type": "function"
    },
    {
      "inputs": [
        {
          "internalType": "uint256",
          "name": "_percentage",
          "type": "uint256"
        }
      ],
      "name": "reduceCreatorAllocation",
      "outputs": [],
      "stateMutability": "nonpayable",
      "type": "function"
    },
    {
      "inputs": [],
      "name": "renounceOwnership",
      "outputs": [],
      "stateMutability": "nonpayable",
      "type": "function"
    },
    {
      "inputs": [
        {
          "internalType": "address",
          "name": "pool",
          "type": "address"
        }
      ],
      "name": "restoreMinterAllocation",
      "outputs": [],
      "stateMutability": "nonpayable",
      "type": "function"
    },
    {
      "inputs": [],
      "name": "reveal",
      "outputs": [],
      "stateMutability": "nonpayable",
      "type": "function"
    },
    {
      "inputs": [],
      "name": "revealTime",
      "outputs": [
        {
          "internalType": "uint256",
          "name": "",
          "type": "uint256"
        }
      ],
      "stateMutability": "view",
      "type": "function"
    },
    {
      "inputs": [],
      "name": "revealType",
      "outputs": [
        {
          "internalType": "enum PrizeTypes.RevealType",
          "name": "",
          "type": "uint8"
        }
      ],
      "stateMutability": "view",
      "type": "function"
    },
    {
      "inputs": [
        {
          "internalType": "address",
          "name": "_kol",
          "type": "address"
        }
      ],
      "name": "revokeKOL",
      "outputs": [],
      "stateMutability": "nonpayable",
      "type": "function"
    },
    {
      "inputs": [
        {
          "internalType": "uint256",
          "name": "",
          "type": "uint256"
        },
        {
          "internalType": "uint256",
          "name": "salePrice",
          "type": "uint256"
        }
      ],
      "name": "royaltyInfo",
      "outputs": [
        {
          "internalType": "address",
          "name": "",
          "type": "address"
        },
        {
          "internalType": "uint256",
          "name": "",
          "type": "uint256"
        }
      ],
      "stateMutability": "view",
      "type": "function"
    },
    {
      "inputs": [],
      "name": "royaltyPercentage",
      "outputs": [
        {
          "internalType": "uint256",
          "name": "",
          "type": "uint256"
        }
      ],
      "stateMutability": "view",
      "type": "function"
    },
    {
      "inputs": [],
      "name": "royaltyRecipient",
      "outputs": [
        {
          "internalType": "address",
          "name": "",
          "type": "address"
        }
      ],
      "stateMutability": "view",
      "type": "function"
    },
    {
      "inputs": [
        {
          "internalType": "address",
          "name": "from",
          "type": "address"
        },
        {
          "internalType": "address",
          "name": "to",
          "type": "address"
        },
        {
          "internalType": "uint256",
          "name": "tokenId",
          "type": "uint256"
        }
      ],
      "name": "safeTransferFrom",
      "outputs": [],
      "stateMutability": "payable",
      "type": "function"
    },
    {
      "inputs": [
        {
          "internalType": "address",
          "name": "from",
          "type": "address"
        },
        {
          "internalType": "address",
          "name": "to",
          "type": "address"
        },
        {
          "internalType": "uint256",
          "name": "tokenId",
          "type": "uint256"
        },
        {
          "internalType": "bytes",
          "name": "data",
          "type": "bytes"
        }
      ],
      "name": "safeTransferFrom",
      "outputs": [],
      "stateMutability": "payable",
      "type": "function"
    },
    {
      "inputs": [
        {
          "internalType": "address",
          "name": "operator",
          "type": "address"
        },
        {
          "internalType": "bool",
          "name": "approved",
          "type": "bool"
        }
      ],
      "name": "setApprovalForAll",
      "outputs": [],
      "stateMutability": "nonpayable",
      "type": "function"
    },
    {
      "inputs": [
        {
          "internalType": "string",
          "name": "newBaseURI",
          "type": "string"
        }
      ],
      "name": "setBaseURI",
      "outputs": [],
      "stateMutability": "nonpayable",
      "type": "function"
    },
    {
      "inputs": [
        {
          "internalType": "address",
          "name": "pool",
          "type": "address"
        },
        {
          "internalType": "uint256",
          "name": "allocation",
          "type": "uint256"
        }
      ],
      "name": "setMinterAndAllocation",
      "outputs": [],
      "stateMutability": "nonpayable",
      "type": "function"
    },
    {
      "inputs": [
        {
          "internalType": "uint256",
          "name": "_royaltyPercentage",
          "type": "uint256"
        },
        {
          "internalType": "address",
          "name": "_royaltyRecipient",
          "type": "address"
        }
      ],
      "name": "setRoyalty",
      "outputs": [],
      "stateMutability": "nonpayable",
      "type": "function"
    },
    {
      "inputs": [
        {
          "internalType": "bytes32",
          "name": "uriHash",
          "type": "bytes32"
        },
        {
          "internalType": "string",
          "name": "uri",
          "type": "string"
        }
      ],
      "name": "setUnrevealedURIHash",
      "outputs": [],
      "stateMutability": "nonpayable",
      "type": "function"
    },
    {
      "inputs": [],
      "name": "supplyCutTimestamp",
      "outputs": [
        {
          "internalType": "uint256",
          "name": "",
          "type": "uint256"
        }
      ],
      "stateMutability": "view",
      "type": "function"
    },
    {
      "inputs": [
        {
          "internalType": "bytes4",
          "name": "interfaceId",
          "type": "bytes4"
        }
      ],
      "name": "supportsInterface",
      "outputs": [
        {
          "internalType": "bool",
          "name": "",
          "type": "bool"
        }
      ],
      "stateMutability": "view",
      "type": "function"
    },
    {
      "inputs": [],
      "name": "symbol",
      "outputs": [
        {
          "internalType": "string",
          "name": "",
          "type": "string"
        }
      ],
      "stateMutability": "view",
      "type": "function"
    },
    {
      "inputs": [
        {
          "internalType": "uint256",
          "name": "tokenId",
          "type": "uint256"
        }
      ],
      "name": "tokenURI",
      "outputs": [
        {
          "internalType": "string",
          "name": "",
          "type": "string"
        }
      ],
      "stateMutability": "view",
      "type": "function"
    },
    {
      "inputs": [],
      "name": "totalAllocatedSupply",
      "outputs": [
        {
          "internalType": "uint256",
          "name": "",
          "type": "uint256"
        }
      ],
      "stateMutability": "view",
      "type": "function"
    },
    {
      "inputs": [],
      "name": "totalSupply",
      "outputs": [
        {
          "internalType": "uint256",
          "name": "",
          "type": "uint256"
        }
      ],
      "stateMutability": "view",
      "type": "function"
    },
    {
      "inputs": [
        {
          "internalType": "address",
          "name": "from",
          "type": "address"
        },
        {
          "internalType": "address",
          "name": "to",
          "type": "address"
        },
        {
          "internalType": "uint256",
          "name": "tokenId",
          "type": "uint256"
        }
      ],
      "name": "transferFrom",
      "outputs": [],
      "stateMutability": "payable",
      "type": "function"
    },
    {
      "inputs": [
        {
          "internalType": "address",
          "name": "newOwner",
          "type": "address"
        }
      ],
      "name": "transferOwnership",
      "outputs": [],
      "stateMutability": "nonpayable",
      "type": "function"
    },
    {
      "inputs": [],
      "name": "unlockedAmountAtCut",
      "outputs": [
        {
          "internalType": "uint256",
          "name": "",
          "type": "uint256"
        }
      ],
      "stateMutability": "view",
      "type": "function"
    },
    {
      "inputs": [],
      "name": "unrevealedBaseURIHash",
      "outputs": [
        {
          "internalType": "bytes32",
          "name": "",
          "type": "bytes32"
        }
      ],
      "stateMutability": "view",
      "type": "function"
    },
    {
      "inputs": [],
      "name": "vestingConfig",
      "outputs": [
        {
          "internalType": "uint256",
          "name": "cliffEnd",
          "type": "uint256"
        },
        {
          "internalType": "uint256",
          "name": "numberOfUnlocks",
          "type": "uint256"
        },
        {
          "internalType": "uint256",
          "name": "durationBetweenUnlocks",
          "type": "uint256"
        },
        {
          "internalType": "uint256",
          "name": "amountPerUnlock",
          "type": "uint256"
        }
      ],
      "stateMutability": "view",
      "type": "function"
    },
    {
      "inputs": [],
      "name": "vestingConfigured",
      "outputs": [
        {
          "internalType": "bool",
          "name": "",
          "type": "bool"
        }
      ],
      "stateMutability": "view",
      "type": "function"
    }
  ],
  "bytecode": "0x60a034620000b357601f620050b038819003918201601f19168301916001600160401b03831184841017620000b857808492602094604052833981010312620000b357516001600160a01b03908181168103620000b3576001600955600a8054336001600160a01b03198216811790925560405193167f8be0079c531659141344cd1fd0a4f28419497f9722a3daafe3b4186f6b6457e0600080a3608052614fe19081620000cf82396080518161307b0152f35b600080fd5b634e487b7160e01b600052604160045260246000fdfe6080604052600436101561001257600080fd5b60003560e01c80620f2125146103c457806227675f146103bf578062ee5d7d146103ba57806301ffc9a7146103b557806306fdde03146103b0578063081812fc146103ab578063095ea7b3146103a6578063150b7a02146103a157806317f639791461039c57806318160ddd14610397578063182ee48514610392578063219172db1461038d57806323b872dd14610388578063290f54ae146103835780632a55205a1461037e57806340c10f191461037957806340e3276b1461037457806342842e0e1461036f5780634c00de821461036a57806354214f691461036557806355f804b3146103605780636352211e1461035b578063693866e31461035657806369d42c5e1461035157806370a082311461034c578063715018a6146103475780637ecc2b561461034257806381ae39001461033d5780638a71bb2d146103385780638da5cb5b146103335780638f152d0e1461032e5780639015d26b14610329578063951100031461032457806395d89b411461031f578063a22cb4651461031a578063a2af294f14610315578063a362273514610310578063a475b5dd1461030b578063a634739a14610306578063a7df596e14610301578063a8c8f3e2146102fc578063ab4b6692146102f7578063b4565180146102f2578063b5f1f247146102ed578063b88d4fde146102e8578063ba829d71146102e3578063c705fea2146102de578063c87b56dd146102d9578063d5abeb01146102d4578063d6b6e203146102cf578063d8270dce146102ca578063e059b9c0146102c5578063e985e9c5146102c0578063e9a20d03146102bb578063f2fde38b146102b6578063f4c44569146102b1578063fbddc055146102ac578063fbf3aa21146102a75763fcf2e55f146102a257600080fd5b612bb4565b612b7a565b612af3565b61284f565b6127be565b612680565b612618565b6125f1565b6125c8565b61258b565b612561565b61252e565b6121cb565b6121a5565b611faa565b611e58565b611d25565b611cfc565b611cde565b611b86565b611aa5565b61199a565b611970565b611943565b61187a565b6117d3565b611632565b61160c565b6115e6565b6115bd565b61159c565b611572565b6114eb565b61148d565b61142e565b6113a1565b611386565b611357565b6111e9565b6110b2565b611089565b610edd565b610e48565b610d6a565b610d2b565b610d02565b610b38565b610ae2565b610933565b610911565b610848565b6107ee565b610706565b6106b2565b6105cd565b6104d1565b6104a1565b6103fd565b346103e75760003660031901126103e75760206103df613cbf565b604051908152f35b600080fd5b6001600160a01b038116036103e757565b346103e75760403660031901126103e75760043561041a816103ec565b600d5460405163188c824d60e11b81526001600160a01b0392916020908290600490829087165afa801561049c5761046a936104619260009261046c575b50163314614193565b60243590614205565b005b61048e91925060203d8111610495575b6104868183611129565b8101906134ec565b9038610458565b503d61047c565b613501565b346103e75760003660031901126103e7576020601054604051908152f35b6001600160e01b03198116036103e757565b346103e75760203660031901126103e75760206004356104f0816104bf565b63ffffffff60e01b16637c97ded960e11b8114908115610560575b811561051d575b506040519015158152f35b6301ffc9a760e01b81149150811561054f575b811561053e575b5038610512565b635b5e139f60e01b14905038610537565b6380ac58cd60e01b81149150610530565b63152a902d60e11b8114915061050b565b60005b8381106105845750506000910152565b8181015183820152602001610574565b906020916105ad81518092818552858086019101610571565b601f01601f1916010190565b9060206105ca928181520190610594565b90565b346103e7576000806003193601126106af5760405190806003546105f081612d56565b80855291600191808316908115610685575060011461062a575b6106268561061a81870382611129565b604051918291826105b9565b0390f35b9250600383527fc2575a0e9e593c00f959f8c92f12db2869c3395a3b0502d05e2516446f71f85b5b82841061066d57505050810160200161061a8261062661060a565b80546020858701810191909152909301928101610652565b8695506106269693506020925061061a94915060ff191682840152151560051b820101929361060a565b80fd5b346103e75760203660031901126103e7576004356106cf81614856565b156106f4576000526007602052602060018060a01b0360406000205416604051908152f35b6040516333d1c03960e21b8152600490fd5b60403660031901126103e75760043561071e816103ec565b6024356001600160a01b038061073383614d1a565b169081330361078e575b600083815260076020526040812080546001600160a01b0319166001600160a01b0387161790559316907f8c5be1e5ebec7d5bd14f71427d1e84f3dd0314c0f7b2291e5b200ac8c7c3b9258480a480f35b600082815260086020908152604080832033845290915290205460ff1661073d576040516367d9dca160e11b8152600490fd5b9181601f840112156103e7578235916001600160401b0383116103e757602083818601950101116103e757565b346103e75760803660031901126103e75761080a6004356103ec565b6108156024356103ec565b6064356001600160401b0381116103e7576108349036906004016107c1565b5050604051630a85bd0160e11b8152602090f35b346103e75760203660031901126103e757600435610865816103ec565b60018060a01b0316600052600b6020526040600020604051610886816110ee565b60ff825416151580825260a060018401549384602085015260028101549384604082015260038201549081606082015260056004840154938460808401520154938491015283610907575b6106269394604051968796879260a094919796959260c08501981515855260208501526040840152606083015260808201520152565b80831093506108d1565b346103e75760003660031901126103e757602060001960015401604051908152f35b346103e7576040806003193601126103e757600435610951816103ec565b6024359061095d612c20565b61096561366f565b600d549261098860028560e81c610980600482161515613e33565b1615156137d1565b610993831515613e78565b60001991610a3c84610a376001956109c66109b184838a54016137c4565b6001600160401b03809b60a01c161015613ebb565b6109d96109d1613d95565b841115613f07565b610a25610a0684610a016109f5600f546001600160401b031690565b6001600160401b031690565b6137c4565b600e54610a1e9060a01c6001600160401b03166109f5565b1015613f61565b610a2f8386614eb2565b8654016137a8565b613662565b916001600160a01b039091169060005b858110610a9957610a8f610a73888816610a6e600f546001600160401b031690565b613fad565b6001600160401b03166001600160401b0319600f541617600f55565b61046a6001600955565b80837fafcc74601a5f3b68594abe471d29065468512ddf25d65b3bbf1811701d794c80610ad9610aca8995896137c4565b86519081529081906020820190565b0390a201610a4c565b346103e75760003660031901126103e75760206001600160401b03600e5460601c16604051908152f35b60609060031901126103e757600435610b24816103ec565b90602435610b31816103ec565b9060443590565b610b4136610b0c565b9190610b4c83614d1a565b6001600160a01b0383811692828216849003610cf157600086815260076020526040902080549092610b916001600160a01b03881633908114908414171590565b1590565b610c96575b8216958615610c8457610be993610bc792610c7a575b506001600160a01b0316600090815260066020526040902090565b80546000190190556001600160a01b0316600090815260066020526040902090565b80546001019055600160e11b804260a01b851717610c11866000526005602052604060002090565b55811615610c30575b50600080516020614f8c833981519152600080a4005b60018401610c48816000526005602052604060002090565b5415610c55575b50610c1a565b6001548114610c4f57610c72906000526005602052604060002090565b553880610c4f565b6000905538610bac565b604051633a954ecd60e21b8152600490fd5b610cda610b8d610cd333610cbc8b60018060a01b03166000526008602052604060002090565b9060018060a01b0316600052602052604060002090565b5460ff1690565b15610b9657604051632ce44b5f60e11b8152600490fd5b60405162a1148160e81b8152600490fd5b346103e75760003660031901126103e757602065ffffffffffff600f5460801c16604051908152f35b346103e75760403660031901126103e7576040600c54612710610d538260a01c602435613775565b83516001600160a01b039093168352046020820152f35b346103e75760403660031901126103e757600435610d87816103ec565b60243590610d9361366f565b336000526013602052610db8604060002054610db081151561356a565b8311156135a5565b8115610e3657600154600d54610dd99060a01c6001600160401b03166109f5565b908360001991610dec84848301106135f1565b010111610e245781610dfd91614eb2565b336000908152601360205260409020610e1890918254613662565b905561046a6001600955565b60405163c30436e960e01b8152600490fd5b60405163f4f5b73360e01b8152600490fd5b346103e75760403660031901126103e757602435600435610e68826103ec565b610e70612c20565b6127108111610e985760a01b6001600160a01b0319166001600160a01b039190911617600c55005b60405162461bcd60e51b815260206004820152601a60248201527f526f79616c74792063616e6e6f742065786365656420313030250000000000006044820152606490fd5b610ee636610b0c565b91604051610ef38161110e565b600093848252610f0281614d1a565b6001600160a01b0390848216818316819003610cf157600084815260076020526040902080549093909290610f466001600160a01b03891633908114908614171590565b61104c575b8816928315610c845785948a91611044575b50506001600160a01b0387811660009081526006602090815260408083208054600019019055928b168252828220805460010190558682526005905220600160e11b904260a01b851782179055811615610ffa575b50600080516020614f8c8339815191528880a4833b610fcf578480f35b610fdc93610b8d93614e09565b610fe857388080808480f35b6040516368d2bf6b60e11b8152600490fd5b60018401611012816000526005602052604060002090565b541561101f575b50610fb2565b60015481146110195761103c906000526005602052604060002090565b553880611019565b558838610f5d565b611072610b8d610cd333610cbc8c60018060a01b03166000526008602052604060002090565b15610f4b57604051632ce44b5f60e11b8152600490fd5b346103e75760003660031901126103e757600c546040516001600160a01b039091168152602090f35b346103e75760003660031901126103e75760206001600d5460e81c161515604051908152f35b634e487b7160e01b600052604160045260246000fd5b60c081019081106001600160401b0382111761110957604052565b6110d8565b602081019081106001600160401b0382111761110957604052565b90601f801991011681019081106001600160401b0382111761110957604052565b60405190608082018281106001600160401b0382111761110957604052565b60405190611176826110ee565b565b60405190604082018281106001600160401b0382111761110957604052565b6001600160401b03811161110957601f01601f191660200190565b9291926111be82611197565b916111cc6040519384611129565b8294818452818301116103e7578281602093846000960137010152565b346103e7576020806003193601126103e7576001600160401b036004358181116103e757366023820112156103e75761122c9036906024816004013591016111b2565b91611235612c20565b8251918211611109576112528261124d601254612d56565b612d90565b80601f83116001146112bf575091816112af927f6741b2fc379fad678116fe3d4d4b9a1a184ab53ba36b86ad0fa66340b1ab41ad946000916112b4575b508160011b916000199060031b1c191617601255604051918291826105b9565b0390a1005b90508201513861128f565b601260005290601f198316600080516020614f6c833981519152926000905b82821061133f575050927f6741b2fc379fad678116fe3d4d4b9a1a184ab53ba36b86ad0fa66340b1ab41ad9492600192826112af9610611326575b5050811b0160125561061a565b84015160001960f88460031b161c191690553880611319565b80600185968294968a015181550195019301906112de565b346103e75760203660031901126103e75760206001600160a01b0361137d600435614d1a565b16604051908152f35b346103e75760003660031901126103e75760206103df613d95565b346103e75760403660031901126103e7576004356113be816103ec565b600d5460405163188c824d60e11b81526001600160a01b0392916020908290600490829087165afa801561049c5761046a936114059260009261140e575b5016331461350d565b60243590614a54565b61142791925060203d8111610495576104868183611129565b90386113fc565b346103e75760203660031901126103e75760043561144b816103ec565b6001600160a01b0316801561147b57600052600660205260206001600160401b0360406000205416604051908152f35b6040516323d3ad8160e21b8152600490fd5b346103e7576000806003193601126106af576114a7612c20565b600a80546001600160a01b0319811690915581906001600160a01b03167f8be0079c531659141344cd1fd0a4f28419497f9722a3daafe3b4186f6b6457e08280a380f35b346103e75760003660031901126103e757600e546001600160401b0390818160601c16918080600d5493600060028660e81c16151560001461156a575060a01c165b169160a01c1690808301808411611565576106269383610a37610a3793611555961015614150565b6040519081529081906020820190565b61363d565b91505061152d565b346103e75760003660031901126103e7576020600f546001600160401b036040519160401c168152f35b346103e75760003660031901126103e7576020600c5460a01c604051908152f35b346103e75760003660031901126103e757600a546040516001600160a01b039091168152602090f35b346103e75760003660031901126103e75760206004600d5460e81c161515604051908152f35b346103e75760003660031901126103e75760206002600d5460e81c161515604051908152f35b346103e75760603660031901126103e7577f7e2a3374677a327cc55645e34396200e1c47056393c1e5dfa3e1f7a40384a33a6024356004356112af604435611678612c20565b6117148461170f61170a82600d5460e81c61169660048216156139db565b6116fb6116f36116e86001600160401b03600e546116c7600265ffffffffffff8360301c1697610980891515613a27565b60a01c16936101f4851015611798576116e36002871015613b80565b613bd7565b65ffffffffffff1690565b8a1015613bf0565b610a0162093a80881015613c55565b613653565b613788565b9061174d61172061114a565b85815260208101879052604081018390526060018390526014859055601586905560168290556017839055565b611775600d805460ff60e81b19811660e891821c60ff1660041790911b60ff60e81b16179055565b604051948594859094939260609260808301968352602083015260408201520152565b6103e88510156117af576116e36004871015613b26565b6107d08510156117c6576116e36008871015613acb565b6116e36008871015613a73565b346103e7576000806003193601126106af5760405190806004546117f681612d56565b80855291600191808316908115610685575060011461181f576106268561061a81870382611129565b9250600483527f8a35acfbc15ff81a39ae7d344fd709f28e8600b4aa8c65c6b64bfe7fe36bd19b5b82841061186257505050810160200161061a8261062661060a565b80546020858701810191909152909301928101611847565b346103e75760403660031901126103e757600435611897816103ec565b60243590811515918281036103e7576118e4903360005260086020526118d38360406000209060018060a01b0316600052602052604060002090565b9060ff801983541691151516179055565b6040519182526001600160a01b03169033907f17307eab39ab6107e8899845ad3d59bd9653f200f220920489ca2b5937696c3190602090a3005b634e487b7160e01b600052602160045260246000fd5b6003111561193e57565b61191e565b346103e75760003660031901126103e75760ff600d5460e01c16604051600382101561193e576020918152f35b346103e75760003660031901126103e75760206001600160401b03600e5460a01c16604051908152f35b346103e7576000806003193601126106af576119b4612c20565b60ff600d546119c960018260e81c161561336b565b60e01c166119d681611934565b60028103611a2d57506119fe6119f66116e8600e5465ffffffffffff1690565b4210156133b7565b611a06613346565b7f4884a1e8d033385ee80fa3d769d1ba3c44e18291db0f726e436a01997d3df36a8180a180f35b611a3681611934565b6119fe5760405162461bcd60e51b815260206004820152603e60248201527f496e7374616e742072657665616c20636f6c6c656374696f6e7320646f206e6f60448201527f74206e65656420746f206265206d616e75616c6c792072657665616c656400006064820152608490fd5b346103e7576040806003193601126103e7576004356024356001600160401b0381116103e757611ad99036906004016107c1565b90611ae2612c20565b6001600d5460e81c16611b42579282937fffdfec10187719774ffa3bff0a937003842c91246eb14a2acbdd7cd7c33aab699360115582825193849260208452816020850152848401376000828201840152601f01601f19168101030190a2005b835162461bcd60e51b815260206004820152601b60248201527f436f6c6c656374696f6e20616c72656164792072657665616c656400000000006044820152606490fd5b346103e75760203660031901126103e757600435611ba2612c20565b600d54611bb560028260e81c16156136c5565b611bc2601483111561371d565b611be4611bdd6001600160401b03809360a01c169384613775565b6064900490565b91611c0283610a016109f5600e546001600160401b039060601c1690565b11611c8057600e805467ffffffffffffffff60a01b191691831660a01b67ffffffffffffffff60a01b169190911790557f4f0ee8dede1f88eebce079d082b265aea42f0e2dd279124103655875097f43f4906112af90611555600d805460ff60e81b19811660e891821c60ff1660021790911b60ff60e81b16179055565b60405162461bcd60e51b815260206004820152603060248201527f43726561746f7220616c6c6f636174696f6e20776f756c64206578636565642060448201526f617661696c61626c6520737570706c7960801b6064820152608490fd5b346103e75760003660031901126103e7576020601154604051908152f35b346103e75760003660031901126103e757600d546040516001600160a01b039091168152602090f35b346103e75760203660031901126103e7577fd1f265823deafe8beac32429d528ba3d6f44b4c066c5935685cc34bde4117957600435611d62612c20565b611d756002600d5460e81c1615156137d1565b80151580611e4d575b611d879061382f565b6001600160401b0380600f5416611e0d611ddf611dd2611bdd611db786600e5460a01c166001600160401b031690565b96611dc28689613662565b611dcd811515613887565b613775565b8095610a378215156138e5565b600e805467ffffffffffffffff60a01b191694821660a01b67ffffffffffffffff60a01b1694909417909355565b6004600d5460e81c16611e35575b5060408051918252602082019290925290819081016112af565b611e42611e479183613662565b613944565b38611e1b565b506064811115611d7e565b346103e75760803660031901126103e757600435611e75816103ec565b606435604435602435611e86612c20565b6001600160a01b038416938415611f6f577f70f501bd2f3c55f153861010e5184d8493b7b83ce7c4cb72fcc70fd07c1a240a93611f4d611f6a92611ecb85151561486e565b611ed68315156148c4565b611f00611efb610b8d610cd38460018060a01b0316600052600b602052604060002090565b61491c565b611f48611f0b611169565b600181529186602084015287604084015284606084015260006080840152600060a084015260018060a01b0316600052600b602052604060002090565b61495f565b604051938493846040919493926060820195825260208201520152565b0390a2005b60405162461bcd60e51b8152602060048201526013602482015272496e76616c6964204b4f4c206164647265737360681b6044820152606490fd5b60803660031901126103e75760048035611fc3816103ec565b60243590611fd0826103ec565b6044356064356001600160401b0381116103e757366023820112156103e75761200290369060248188013591016111b2565b9061200c81614d1a565b6001600160a01b03848116828216819003612195576000848152600760205260409020805493909261204d6001600160a01b03891633908114908714171590565b612159575b881692831561214857859461213e575b506001600160a01b0387811660009081526006602090815260408083208054600019019055928b168252828220805460010190558682526005905220600160e11b904260a01b8517821790558116156120f4575b50600080516020614f8c833981519152600080a4833b6120d257005b6120df93610b8d93614e09565b6120e557005b6040516368d2bf6b60e11b8152fd5b6001840161210c816000526005602052604060002090565b5415612119575b506120b6565b600154811461211357612136906000526005602052604060002090565b553880612113565b6000905538612062565b604051633a954ecd60e21b81528a90fd5b61217f610b8d610cd333610cbc8c60018060a01b03166000526008602052604060002090565b1561205257604051632ce44b5f60e11b81528a90fd5b60405162a1148160e81b81528890fd5b346103e75760003660031901126103e757602065ffffffffffff600e5416604051908152f35b346103e7576020806003193601126103e75760049081356121eb816103ec565b60408051638bc5328560e01b81526001600160a01b0383169491939081818481895afa90811561049c57600091612511575b508451634971381160e01b8152828185818a5afa90811561049c576000916124e4575b506001600160a01b03851660009081526013602052604090205492612266841515614323565b600a54338914906001600160a01b0316331490801590816124dd575b61228b9061356a565b816124d5575b506123ff575b839487519163c19d93fb60e01b8352808383818d5afa9283916000946123d0575b5050612376575050505090505b806122cc57005b7ffa7ff84d4eb7d84d088489adf98dd5160bce4e75f6d0acd06e70a89654bb7d7f92600061230f611f6a9460018060a01b03166000526013602052604060002090565b5561236861233b6001600160401b038416612336600e546001600160401b039060601c1690565b614445565b600e805467ffffffffffffffff60601b191660609290921b67ffffffffffffffff60601b16919091179055565b519081529081906020820190565b61237f82614377565b81149081156123bc575b50612397575b5050506122c5565b919250908110156123b3576123ab91613662565b38808061238f565b505060006123ab565b600691506123c981614377565b1438612389565b6123f0929450803d106123f8575b6123e88183611129565b81019061435f565b9138806122b8565b503d6123de565b865163c19d93fb60e01b815294969594600082828a818d5afa9091816124b6575b5061247057865162461bcd60e51b81526020818a01818152601b918101919091527f556e61626c6520746f2076657269667920706f6f6c2073746174650000000000604082015281906060010390fd5b612492909795969761248181614377565b8681149081156124a2575b50614381565b61249d8284106143eb565b612297565b600691506124af81614377565b143861248c565b6124ce919250833d85116123f8576123e88183611129565b9038612420565b905038612291565b5081612282565b6125049150833d851161250a575b6124fc8183611129565b810190614314565b38612240565b503d6124f2565b6125289150823d841161250a576124fc8183611129565b3861221d565b346103e75760203660031901126103e75761062661254d60043561456a565b604051918291602083526020830190610594565b346103e75760003660031901126103e75760206001600160401b03600d5460a01c16604051908152f35b346103e75760203660031901126103e7576004356125a8816103ec565b60018060a01b031660005260136020526020604060002054604051908152f35b346103e75760003660031901126103e757602065ffffffffffff600e5460301c16604051908152f35b346103e75760003660031901126103e75760206001600160401b03600f5416604051908152f35b346103e75760403660031901126103e757602060ff61267460043561263c816103ec565b60243590612649826103ec565b60018060a01b03166000526008845260406000209060018060a01b0316600052602052604060002090565b54166040519015158152f35b346103e7576003196060368201126103e7576001600160401b03906004358281116103e7576126b39036906004016107c1565b916024358481116103e7576126cc9036906004016107c1565b916044359586116103e7576101409086360301126103e75761272e936000549561270d60ff8860081c1615809881996127b0575b8115612790575b50612cc1565b86612720600160ff196000541617600055565b612777575b6004019361306f565b61273457005b61274461ff001960005416600055565b604051600181527f7f26b83ff96e1f2b6a682f133852f6798a09c465da95921460cefb38474024989080602081016112af565b61278b61010061ff00196000541617600055565b612725565b303b159150816127a2575b5038612707565b6001915060ff16143861279b565b600160ff8216109150612700565b346103e75760203660031901126103e7576004356127db816103ec565b6127e3612c20565b6001600160a01b038116156127fb5761046a90612c78565b60405162461bcd60e51b815260206004820152602660248201527f4f776e61626c653a206e6577206f776e657220697320746865207a65726f206160448201526564647265737360d01b6064820152608490fd5b346103e75760203660031901126103e7577fbba296472f2135056aa4038d0d43f8b8dd1ff674c970ca244557fda3bf2bdead611bdd61297961292261294c6129446109f560043561289e612c20565b80151580612ae8575b6128b09061382f565b600e546128c89060a01c6001600160401b03166109f5565b906002600d5460e81c166129a8575b6129396128f36109f5600d546001600160401b039060a01c1690565b61292d600e549a8b946001600160401b039a8b809760601c1697612918868a1061403a565b610a378987613662565b611dcd811515614086565b90610a378215156138e5565b9760a01c1690613fad565b8410156140de565b600d805467ffffffffffffffff60a01b191691841660a01b67ffffffffffffffff60a01b16919091179055565b600e5460a01c6001600160401b0316604080519283526001600160401b039091166020830152819081016112af565b6129bd6109f5600f546001600160401b031690565b6129c78184613662565b90816129d5575b50506128d7565b612a9590612a37612a2e6129e7613cbf565b94600084871115612ada5750612a28612a0a612a038689613662565b8093613662565b91612a22612a1b611bdd8b86613775565b91876137c4565b92613662565b906137c4565b91821015613fc8565b600e805467ffffffffffffffff60a01b191660a09290921b67ffffffffffffffff60a01b169190911790556001600160401b03821667ffffffffffffffff60401b600f549160401b169067ffffffffffffffff60401b191617600f55565b600f805465ffffffffffff60801b19164260801b65ffffffffffff60801b161790556004600d5460e81c16612acb575b806129ce565b612ad49061445e565b38612ac5565b612a0a612a28918093613662565b5060648111156128a7565b346103e75760203660031901126103e757600435612b10816103ec565b60018060a01b0316600052600b602052604060002060ff81541661062660018301549260028101549060038101546005600483015492015492604051968796879260a094919796959260c08501981515855260208501526040840152606083015260808201520152565b346103e75760003660031901126103e757601454601554601654601754604080519485526020850193909352918301526060820152608090f35b346103e75760203660031901126103e757600435612bd1816103ec565b612bd9612c20565b6001600160a01b03166000818152600b60205260408120805460ff19169055907ffeb031b2d93541150a8571bc111b4dab4d98dfef15bcbe6e89653e385a5d980a8280a280f35b600a546001600160a01b03163303612c3457565b606460405162461bcd60e51b815260206004820152602060248201527f4f776e61626c653a2063616c6c6572206973206e6f7420746865206f776e65726044820152fd5b600a80546001600160a01b039283166001600160a01b0319821681179092559091167f8be0079c531659141344cd1fd0a4f28419497f9722a3daafe3b4186f6b6457e0600080a3565b15612cc857565b60405162461bcd60e51b815260206004820152602e60248201527f496e697469616c697a61626c653a20636f6e747261637420697320616c72656160448201526d191e481a5b9a5d1a585b1a5e995960921b6064820152608490fd5b903590601e19813603018212156103e757018035906001600160401b0382116103e7576020019181360383136103e757565b90600182811c92168015612d86575b6020831014612d7057565b634e487b7160e01b600052602260045260246000fd5b91607f1691612d65565b601f8111612d9c575050565b60009060128252600080516020614f6c833981519152906020601f850160051c83019410612de5575b601f0160051c01915b828110612dda57505050565b818155600101612dce565b9092508290612dc5565b601f8111612dfb575050565b600090600382527fc2575a0e9e593c00f959f8c92f12db2869c3395a3b0502d05e2516446f71f85b906020601f850160051c83019410612e56575b601f0160051c01915b828110612e4b57505050565b818155600101612e3f565b9092508290612e36565b601f8111612e6c575050565b600090600482527f8a35acfbc15ff81a39ae7d344fd709f28e8600b4aa8c65c6b64bfe7fe36bd19b906020601f850160051c83019410612ec7575b601f0160051c01915b828110612ebc57505050565b818155600101612eb0565b9092508290612ea7565b91906001600160401b03811161110957612ef08161124d601254612d56565b6000601f8211600114612f2a57819293600092612f1f575b50508160011b916000199060031b1c191617601255565b013590503880612f08565b6012600052601f19821693600080516020614f6c83398151915291805b868110612f7f5750836001959610612f65575b505050811b01601255565b0135600019600384901b60f8161c19169055388080612f5a565b90926020600181928686013581550194019101612f47565b356105ca816103ec565b356bffffffffffffffffffffffff811681036103e75790565b356001600160401b03811681036103e75790565b3560038110156103e75790565b600382101561193e5752565b60018060a01b03815116600d546001600160401b0360a01b602084015160a01b1692604081015191600383101561193e576060919091015160ff60e81b60e89190911b1660ff60e01b60e09390931b929092166001600160e81b0319909116929092179290921760ff60e81b19161717600d55565b3565ffffffffffff811681036103e75790565b90936001600160a01b037f00000000000000000000000000000000000000000000000000000000000000008116330361333457600a546001600160a01b03161661332357600d5460a01c6001600160401b0316613311576130dc6130d660e0830183612d24565b90612ed1565b61012081013580613308575b5061315d6130f860408301612f97565b61313661310760608501612fa1565b613121613112611178565b6001600160a01b039094168452565b6bffffffffffffffffffffffff166020830152565b805160209091015160a01b6001600160a01b0319166001600160a01b039190911617600c55565b61316960208201612f97565b6131cd61317860808401612fba565b916131c160a08501936131b861318d86612fce565b916131a861319961114a565b6001600160a01b039096168652565b6001600160401b03166020850152565b60408301612fdb565b60006060820152612fe7565b600e80546bffffffffffff00000000000019164260301b6bffffffffffff0000000000001617905565ffffffffffff9061320681612fce565b61320f81611934565b61324f57505061324992916111769561323a61323561324194613230613346565b612f97565b612c78565b36916111b2565b9236916111b2565b90614bb0565b613267600291610100850135806132ff575b50612fce565b61327081611934565b1461328f575b5061324992916111769561323a61323561324194612f97565b90929160c084019142906132a28461305c565b1611156132ed576111769561323a613235613249966132e06132c66132419761305c565b65ffffffffffff1665ffffffffffff19600e541617600e55565b9450505095509192613276565b60405163cc447d1560e01b8152600490fd5b60115538613261565b601055386130e8565b6040516348aa010560e11b8152600490fd5b60405162dc149f60e41b8152600490fd5b604051630636a15760e11b8152600490fd5b600d805460ff60e81b19811660e891821c60ff1660011790911b60ff60e81b16179055565b1561337257565b60405162461bcd60e51b815260206004820152601e60248201527f436f6c6c656374696f6e20697320616c72656164792072657665616c656400006044820152606490fd5b156133be57565b60405162461bcd60e51b815260206004820152601e60248201527f52657665616c2074696d6520686173206e6f74207965742070617373656400006044820152606490fd5b9081516001600160401b0381116111095761342881613423600454612d56565b612e60565b602080601f83116001146134645750819293600092613459575b50508160011b916000199060031b1c191617600455565b015190503880613442565b90601f1983169461349760046000527f8a35acfbc15ff81a39ae7d344fd709f28e8600b4aa8c65c6b64bfe7fe36bd19b90565b926000905b8782106134d45750508360019596106134bb575b505050811b01600455565b015160001960f88460031b161c191690553880806134b0565b8060018596829496860151815501950193019061349c565b908160209103126103e757516105ca816103ec565b6040513d6000823e3d90fd5b1561351457565b60405162461bcd60e51b815260206004820152602860248201527f4f6e6c7920506f6f6c4465706c6f7965722063616e2063616c6c207468697320604482015267333ab731ba34b7b760c11b6064820152608490fd5b1561357157565b60405162461bcd60e51b815260206004820152600c60248201526b155b985d5d1a1bdc9a5e995960a21b6044820152606490fd5b156135ac57565b60405162461bcd60e51b815260206004820152601860248201527f4578636565647320616c6c6f636174656420737570706c7900000000000000006044820152606490fd5b156135f857565b60405162461bcd60e51b815260206004820152601b60248201527f4e6f20737570706c7920617661696c61626c6520746f206d696e7400000000006044820152606490fd5b634e487b7160e01b600052601160045260246000fd5b60001981019190821161156557565b9190820391821161156557565b600260095414613680576002600955565b60405162461bcd60e51b815260206004820152601f60248201527f5265656e7472616e637947756172643a207265656e7472616e742063616c6c006044820152606490fd5b156136cc57565b60405162461bcd60e51b815260206004820152602360248201527f43726561746f7220616c6c6f636174696f6e20616c7265616479206465636c616044820152621c995960ea1b6064820152608490fd5b1561372457565b60405162461bcd60e51b8152602060048201526024808201527f43726561746f7220616c6c6f636174696f6e2063616e6e6f74206578636565646044820152632032302560e01b6064820152608490fd5b8181029291811591840414171561156557565b8115613792570490565b634e487b7160e01b600052601260045260246000fd5b600101908160011161156557565b906001820180921161156557565b9190820180921161156557565b156137d857565b60405162461bcd60e51b815260206004820152602960248201527f43726561746f7220616c6c6f636174696f6e206d757374206265206465636c616044820152681c995908199a5c9cdd60ba1b6064820152608490fd5b1561383657565b60405162461bcd60e51b8152602060048201526024808201527f50657263656e74616765206d757374206265206265747765656e203120616e646044820152630203130360e41b6064820152608490fd5b1561388e57565b60405162461bcd60e51b815260206004820152602960248201527f4e6f2072656d61696e696e672063726561746f7220616c6c6f636174696f6e20604482015268746f2072656475636560b81b6064820152608490fd5b156138ec57565b60405162461bcd60e51b815260206004820152602a60248201527f526564756374696f6e20616d6f756e74206d7573742062652067726561746572604482015269207468616e207a65726f60b01b6064820152608490fd5b80156139d357601554601454906016549161395f8383613775565b810180821161156557421061397c57505050506111766000601755565b613994928142106000146139c0575050600090613662565b9081156139b4578161170f61170a611176946139af946137c4565b601755565b50506111766000601755565b61170f6139cd9242613662565b90613662565b506000601755565b156139e257565b60405162461bcd60e51b815260206004820152601a60248201527f56657374696e6720616c726561647920636f6e666967757265640000000000006044820152606490fd5b15613a2e57565b60405162461bcd60e51b815260206004820152601a60248201527f436f6c6c656374696f6e206e6f7420696e697469616c697a65640000000000006044820152606490fd5b15613a7a57565b60405162461bcd60e51b815260206004820152602360248201527f4d696e203820756e6c6f636b7320666f7220616c6c6f636174696f6e203e203260448201526203030360ec1b6064820152608490fd5b15613ad257565b60405162461bcd60e51b815260206004820152602660248201527f4d696e203820756e6c6f636b7320666f7220616c6c6f636174696f6e203130306044820152650302d323030360d41b6064820152608490fd5b15613b2d57565b60405162461bcd60e51b815260206004820152602560248201527f4d696e203420756e6c6f636b7320666f7220616c6c6f636174696f6e2035303060448201526402d313030360dc1b6064820152608490fd5b15613b8757565b60405162461bcd60e51b815260206004820152602260248201527f4d696e203220756e6c6f636b7320666f7220616c6c6f636174696f6e203c2035604482015261030360f41b6064820152608490fd5b9062093a8065ffffffffffff8093160191821161156557565b15613bf757565b60405162461bcd60e51b815260206004820152603060248201527f436c696666206d757374206e6f74206265206c657373207468616e203720646160448201526f3cb990333937b69031b932b0ba34b7b760811b6064820152608490fd5b15613c5c57565b60405162461bcd60e51b815260206004820152603560248201527f4475726174696f6e206265747765656e20756e6c6f636b73206d757374206e6f60448201527474206265206c657373207468616e2037206461797360581b6064820152608490fd5b6004600d5460e81c1615613d1b576014544210613d1b57600f5465ffffffffffff8160801c16613cf257506105ca613d20565b6001600160401b03613d02613d20565b9160401c1690818110600014613d16575090565b905090565b600090565b601454420342811161156557601654613d3891613788565b6001810180911161156557601554808211613d8d575b8103613d675750600e5460a01c6001600160401b031690565b613d7390601754613775565b6001600160401b03600e5460a01c16808211613d16575090565b905080613d4e565b6004600d5460e81c1615613d1b57613dab613cbf565b6001600160401b03600f541680821115613e2c57808210613dcf576105ca91613662565b60405162461bcd60e51b815260206004820152602f60248201527f41726974686d6574696320756e646572666c6f7720696e20676574417661696c60448201526e18589b1950dc99585d1bdc935a5b9d608a1b6064820152608490fd5b5050600090565b15613e3a57565b60405162461bcd60e51b815260206004820152601660248201527515995cdd1a5b99c81b9bdd0818dbdb999a59dd5c995960521b6044820152606490fd5b15613e7f57565b60405162461bcd60e51b815260206004820152601460248201527305175616e74697479206d757374206265203e20360641b6044820152606490fd5b15613ec257565b60405162461bcd60e51b815260206004820152601f60248201527f4d696e74696e6720776f756c6420657863656564206d617820737570706c79006044820152606490fd5b15613f0e57565b60405162461bcd60e51b815260206004820152602560248201527f4578636565647320617661696c61626c6520756e6c6f636b656420616c6c6f6360448201526430ba34b7b760d91b6064820152608490fd5b15613f6857565b60405162461bcd60e51b815260206004820152601a60248201527f457863656564732063726561746f7220616c6c6f636174696f6e0000000000006044820152606490fd5b9190916001600160401b038080941691160191821161156557565b15613fcf57565b60405162461bcd60e51b815260206004820152603960248201527f4e65772063726561746f7220616c6c6f636174696f6e2063616e6e6f7420626560448201527f206c657373207468616e20636c61696d656420616d6f756e74000000000000006064820152608490fd5b1561404157565b60405162461bcd60e51b815260206004820152601860248201527f4e6f20737570706c79206c65667420746f2072656475636500000000000000006044820152606490fd5b1561408d57565b60405162461bcd60e51b8152602060048201526024808201527f4e6f20756e616c6c6f636174656420737570706c79206c65667420746f2072656044820152636475636560e01b6064820152608490fd5b156140e557565b60405162461bcd60e51b815260206004820152603c60248201527f4e6577206d617820737570706c792063616e6e6f74206265206c65737320746860448201527f616e206d696e746564202b20616c6c6f636174656420737570706c79000000006064820152608490fd5b1561415757565b60405162461bcd60e51b8152602060048201526014602482015273496e76616c696420737570706c7920737461746560601b6044820152606490fd5b1561419a57565b60405162461bcd60e51b815260206004820152603860248201527f4f6e6c79207468652070726f746f636f6c277320506f6f6c4465706c6f79657260448201527f2063616e2063616c6c20746869732066756e6374696f6e2e00000000000000006064820152608490fd5b6001600160a01b038116919082156142d8576001600160a01b03811660009081526013602052604090205461429f576001600160a01b031660009081526013602052604090207f1ac3d1a84101f14877bbfafdcfd3b761954b8bb27df1f672b50d7e11d48d880c9161429a9181905561155561233b6001600160401b038316610a6e600e546001600160401b039060601c1690565b0390a2565b60405162461bcd60e51b8152602060048201526011602482015270105b1c9958591e48185b1b1bd8d85d1959607a1b6044820152606490fd5b60405162461bcd60e51b8152602060048201526014602482015273496e76616c696420706f6f6c206164647265737360601b6044820152606490fd5b908160209103126103e7575190565b1561432a57565b60405162461bcd60e51b815260206004820152600d60248201526c27379030b63637b1b0ba34b7b760991b6044820152606490fd5b908160209103126103e7575160088110156103e75790565b6008111561193e57565b1561438857565b60405162461bcd60e51b815260206004820152603560248201527f4f776e65722063616e206f6e6c7920726573746f726520616c6c6f636174696f6044820152746e20666f7220436f6d706c6574656420706f6f6c7360581b6064820152608490fd5b156143f257565b60405162461bcd60e51b815260206004820152602560248201527f43616e6e6f7420726573746f7265207468697320706f6f6c277320616c6c6f6360448201526430ba34b7b760d91b6064820152608490fd5b6001600160401b03918216908216039190821161156557565b6014548042106000146144fe5750601554905b816144ce5750506144826000601755565b6014546015546016546017546040805194855260208501939093529183015260608201527f7e2a3374677a327cc55645e34396200e1c47056393c1e5dfa3e1f7a40384a33a90608090a1565b8161170f61170a6144f994610a016139af95610a376109f5600e546001600160401b039060a01c1690565b614482565b61451761450e61451c9242613662565b60165490613788565b6137b6565b60155490818110614531575050600090614471565b61453a91613662565b90614471565b6040519061454d8261110e565b60008252565b9061456660209282815194859201610571565b0190565b61457381614856565b156145e257600d5460e81c600116156145d95761458e6147ac565b8051909190156145cf576145bb916145c16145ab6105ca93614669565b6040519485936020850190614553565b90614553565b03601f198101835282611129565b50506105ca614540565b506105ca614540565b60405162461bcd60e51b815260206004820152602760248201527f4552433732313a2055524920717565727920666f72206e6f6e6578697374656e6044820152663a103a37b5b2b760c91b6064820152608490fd5b9061464182611197565b61464e6040519182611129565b828152809261465f601f1991611197565b0190602036910137565b806000917a184f03e93ff9f4daa797ed6e38ed64bf6a1f0100000000000000008082101561479e575b506d04ee2d6d415b85acef81000000008083101561478f575b50662386f26fc1000080831015614780575b506305f5e10080831015614771575b5061271080831015614762575b506064821015614752575b600a80921015614748575b600190816021614700828701614637565b95860101905b614712575b5050505090565b600019019083906f181899199a1a9b1b9c1cb0b131b232b360811b8282061a83530491821561474357919082614706565b61470b565b91600101916146ef565b91906064600291049101916146e4565b600491939204910191386146d9565b600891939204910191386146cc565b601091939204910191386146bd565b602091939204910191386146ab565b604093508104915038614692565b60405190600082601254916147c083612d56565b8083529260019081811690811561483457506001146147e7575b5061117692500383611129565b601260009081529150600080516020614f6c8339815191525b84831061481957506111769350508101602001386147da565b81935090816020925483858a01015201910190918592614800565b90506020925061117694915060ff191682840152151560051b820101386147da565b60018110159081614865575090565b90506001541190565b1561487557565b60405162461bcd60e51b815260206004820152602160248201527f506f6f6c206c696d6974206d7573742062652067726561746572207468616e206044820152600360fc1b6064820152608490fd5b156148cb57565b60405162461bcd60e51b815260206004820152602360248201527f57696e6e6572206c696d6974206d75737420626520677265617465722074686160448201526206e20360ec1b6064820152608490fd5b1561492357565b60405162461bcd60e51b815260206004820152601460248201527312d3d308185b1c9958591e48185c1c1c9bdd995960621b6044820152606490fd5b9060a060059161497e81511515859060ff801983541691151516179055565b602081015160018501556040810151600285015560608101516003850155608081015160048501550151910155565b156149b457565b60405162461bcd60e51b815260206004820152601760248201527f4b4f4c20706f6f6c206c696d69742065786365656465640000000000000000006044820152606490fd5b15614a0057565b60405162461bcd60e51b815260206004820152601960248201527f4b4f4c2077696e6e6572206c696d6974206578636565646564000000000000006044820152606490fd5b60001981146115655760010190565b9060ff614a738360018060a01b0316600052600b602052604060002090565b541615614b78576001600160a01b0382166000908152600b602052604090206004810154600190910154614aa791106149ad565b614af6614ad3826005614acc8660018060a01b0316600052600b602052604060002090565b01546137c4565b6001600160a01b0384166000908152600b602052604090206003015410156149f9565b6001600160a01b0382166000908152600b60205260409020600401614b1b8154614a45565b90556001600160a01b0382166000908152600b60205260409020614b44906005019182546137c4565b905533906001600160a01b03167f5b7945a09273a36deae169b61c3f2f6e50c1a2030374353d76346822ae48f674600080a3565b60405162461bcd60e51b815260206004820152601060248201526f12d3d3081b9bdd08185c1c1c9bdd995960821b6044820152606490fd5b9060ff60005460081c1615614cc15781516001600160401b03811161110957614be381614bde600354612d56565b612def565b602080601f8311600114614c2e57508190614c1a94600092614c23575b50508160011b916000199060031b1c191617600355613403565b61117660018055565b015190503880614c00565b919293601f198416614c6260036000527fc2575a0e9e593c00f959f8c92f12db2869c3395a3b0502d05e2516446f71f85b90565b936000905b828210614ca9575050916001939185614c1a97969410614c90575b505050811b01600355613403565b015160001960f88460031b161c19169055388080614c82565b80600186978294978701518155019601940190614c67565b60405162461bcd60e51b815260206004820152602b60248201527f496e697469616c697a61626c653a20636f6e7472616374206973206e6f74206960448201526a6e697469616c697a696e6760a81b6064820152608490fd5b6000818060011115614d39575b604051636f96cda160e11b8152600490fd5b600154811015614d275781526005906020918083526040928383205494600160e01b861615614d6a57505050614d27565b93929190935b8515614d7e57505050505090565b60001901808352818552838320549550614d70565b908160209103126103e757516105ca816104bf565b6001600160a01b0391821681529116602082015260408101919091526080606082018190526105ca92910190610594565b3d15614e04573d90614dea82611197565b91614df86040519384611129565b82523d6000602084013e565b606090565b92602091614e32936000604051809681958294630a85bd0160e11b9a8b85523360048601614da8565b03926001600160a01b03165af160009181614e82575b50614e7457614e55614dd9565b80519081614e6f576040516368d2bf6b60e11b8152600490fd5b602001fd5b6001600160e01b0319161490565b614ea491925060203d8111614eab575b614e9c8183611129565b810190614d93565b9038614e48565b503d614e92565b9060018054928215614f59576001600160a01b031660008181526006602090815260408083208054680100000000000000018802019055868352600590915290209092904260a01b83831460e11b1784179055830192600082600080516020614f8c83398151915292808684868180a4015b858103614f4a575050505015614f3957600155565b604051622e076360e81b8152600490fd5b8084918684868180a401614f24565b60405163b562e8dd60e01b8152600490fdfebb8a6a4669ba250d26cd7a459eca9d215f8307e33aebe50379bc5a3617ec3444ddf252ad1be2c89b69c2b068fc378daa952ba7f163c4a11628f55a4df523b3efa264697066735822122071b97397db9211386a2651cd0dcab724cc65ad8247e836048f7162ae8994046a64736f6c63430008130033",
  "linkReferences": {},
  "deployedLinkReferences": {}
}