{
  "_format": "hh-sol-artifact-1",
  "contractName": "ERC1155Prize",
  "sourceName": "contracts/ERC1155Prize.sol",
  "abi": [
    {
      "inputs": [
        {
          "internalType": "address",
          "name": "_factory",
          "type": "address"
        }
      ],
      "stateMutability": "nonpayable",
      "type": "constructor"
    },
    {
      "anonymous": false,
      "inputs": [
        {
          "indexed": true,
          "internalType": "address",
          "name": "account",
          "type": "address"
        },
        {
          "indexed": true,
          "internalType": "address",
          "name": "operator",
          "type": "address"
        },
        {
          "indexed": false,
          "internalType": "bool",
          "name": "approved",
          "type": "bool"
        }
      ],
      "name": "ApprovalForAll",
      "type": "event"
    },
    {
      "anonymous": false,
      "inputs": [
        {
          "indexed": false,
          "internalType": "string",
          "name": "newBaseURI",
          "type": "string"
        }
      ],
      "name": "BaseURIUpdated",
      "type": "event"
    },
    {
      "anonymous": false,
      "inputs": [],
      "name": "CollectionRevealed",
      "type": "event"
    },
    {
      "anonymous": false,
      "inputs": [],
      "name": "EmergencyBypassDisabled",
      "type": "event"
    },
    {
      "anonymous": false,
      "inputs": [],
      "name": "EmergencyBypassEnabled",
      "type": "event"
    },
    {
      "anonymous": false,
      "inputs": [
        {
          "indexed": true,
          "internalType": "address",
          "name": "kol",
          "type": "address"
        },
        {
          "indexed": false,
          "internalType": "uint256",
          "name": "poolLimit",
          "type": "uint256"
        },
        {
          "indexed": false,
          "internalType": "uint256",
          "name": "enforcedSlotFee",
          "type": "uint256"
        }
      ],
      "name": "KOLApproved",
      "type": "event"
    },
    {
      "anonymous": false,
      "inputs": [
        {
          "indexed": true,
          "internalType": "address",
          "name": "kol",
          "type": "address"
        },
        {
          "indexed": true,
          "internalType": "address",
          "name": "pool",
          "type": "address"
        }
      ],
      "name": "KOLPoolCreated",
      "type": "event"
    },
    {
      "anonymous": false,
      "inputs": [
        {
          "indexed": true,
          "internalType": "address",
          "name": "kol",
          "type": "address"
        }
      ],
      "name": "KOLRevoked",
      "type": "event"
    },
    {
      "anonymous": false,
      "inputs": [
        {
          "indexed": true,
          "internalType": "address",
          "name": "marketplace",
          "type": "address"
        }
      ],
      "name": "MarketplaceAdded",
      "type": "event"
    },
    {
      "anonymous": false,
      "inputs": [
        {
          "indexed": true,
          "internalType": "address",
          "name": "marketplace",
          "type": "address"
        }
      ],
      "name": "MarketplaceRemoved",
      "type": "event"
    },
    {
      "anonymous": false,
      "inputs": [],
      "name": "MinterApprovalLocked",
      "type": "event"
    },
    {
      "anonymous": false,
      "inputs": [],
      "name": "MinterApprovalUnlocked",
      "type": "event"
    },
    {
      "anonymous": false,
      "inputs": [
        {
          "indexed": true,
          "internalType": "uint256",
          "name": "tokenId",
          "type": "uint256"
        },
        {
          "indexed": false,
          "internalType": "uint256",
          "name": "maxSupply",
          "type": "uint256"
        }
      ],
      "name": "NewTokenAdded",
      "type": "event"
    },
    {
      "anonymous": false,
      "inputs": [
        {
          "indexed": true,
          "internalType": "address",
          "name": "previousOwner",
          "type": "address"
        },
        {
          "indexed": true,
          "internalType": "address",
          "name": "newOwner",
          "type": "address"
        }
      ],
      "name": "OwnershipTransferred",
      "type": "event"
    },
    {
      "anonymous": false,
      "inputs": [
        {
          "indexed": true,
          "internalType": "address",
          "name": "minter",
          "type": "address"
        },
        {
          "indexed": true,
          "internalType": "uint256",
          "name": "tokenId",
          "type": "uint256"
        },
        {
          "indexed": false,
          "internalType": "uint256",
          "name": "amount",
          "type": "uint256"
        }
      ],
      "name": "PrizeMinted",
      "type": "event"
    },
    {
      "anonymous": false,
      "inputs": [
        {
          "indexed": true,
          "internalType": "address",
          "name": "account",
          "type": "address"
        },
        {
          "indexed": false,
          "internalType": "bool",
          "name": "exempt",
          "type": "bool"
        }
      ],
      "name": "RoyaltyEnforcementExemptionUpdated",
      "type": "event"
    },
    {
      "anonymous": false,
      "inputs": [
        {
          "indexed": false,
          "internalType": "bool",
          "name": "enabled",
          "type": "bool"
        }
      ],
      "name": "RoyaltyEnforcementToggled",
      "type": "event"
    },
    {
      "anonymous": false,
      "inputs": [
        {
          "indexed": true,
          "internalType": "address",
          "name": "operator",
          "type": "address"
        },
        {
          "indexed": true,
          "internalType": "address",
          "name": "from",
          "type": "address"
        },
        {
          "indexed": true,
          "internalType": "address",
          "name": "to",
          "type": "address"
        },
        {
          "indexed": false,
          "internalType": "uint256[]",
          "name": "ids",
          "type": "uint256[]"
        },
        {
          "indexed": false,
          "internalType": "uint256[]",
          "name": "values",
          "type": "uint256[]"
        }
      ],
      "name": "TransferBatch",
      "type": "event"
    },
    {
      "anonymous": false,
      "inputs": [
        {
          "indexed": true,
          "internalType": "address",
          "name": "operator",
          "type": "address"
        },
        {
          "indexed": true,
          "internalType": "address",
          "name": "from",
          "type": "address"
        },
        {
          "indexed": true,
          "internalType": "address",
          "name": "to",
          "type": "address"
        },
        {
          "indexed": false,
          "internalType": "uint256",
          "name": "id",
          "type": "uint256"
        },
        {
          "indexed": false,
          "internalType": "uint256",
          "name": "value",
          "type": "uint256"
        }
      ],
      "name": "TransferSingle",
      "type": "event"
    },
    {
      "anonymous": false,
      "inputs": [
        {
          "indexed": false,
          "internalType": "string",
          "name": "value",
          "type": "string"
        },
        {
          "indexed": true,
          "internalType": "uint256",
          "name": "id",
          "type": "uint256"
        }
      ],
      "name": "URI",
      "type": "event"
    },
    {
      "anonymous": false,
      "inputs": [
        {
          "indexed": true,
          "internalType": "uint256",
          "name": "tokenId",
          "type": "uint256"
        },
        {
          "indexed": false,
          "internalType": "string",
          "name": "newURI",
          "type": "string"
        }
      ],
      "name": "URIUpdated",
      "type": "event"
    },
    {
      "inputs": [
        {
          "internalType": "address",
          "name": "marketplace",
          "type": "address"
        }
      ],
      "name": "addAllowedMarketplace",
      "outputs": [],
      "stateMutability": "nonpayable",
      "type": "function"
    },
    {
      "inputs": [
        {
          "internalType": "address",
          "name": "_kol",
          "type": "address"
        },
        {
          "internalType": "uint256",
          "name": "_poolLimit",
          "type": "uint256"
        },
        {
          "internalType": "uint256",
          "name": "_enforcedSlotFee",
          "type": "uint256"
        }
      ],
      "name": "approveKOL",
      "outputs": [],
      "stateMutability": "nonpayable",
      "type": "function"
    },
    {
      "inputs": [
        {
          "internalType": "uint256",
          "name": "id",
          "type": "uint256"
        }
      ],
      "name": "availableSupply",
      "outputs": [
        {
          "internalType": "uint256",
          "name": "",
          "type": "uint256"
        }
      ],
      "stateMutability": "view",
      "type": "function"
    },
    {
      "inputs": [
        {
          "internalType": "address",
          "name": "account",
          "type": "address"
        },
        {
          "internalType": "uint256",
          "name": "id",
          "type": "uint256"
        }
      ],
      "name": "balanceOf",
      "outputs": [
        {
          "internalType": "uint256",
          "name": "",
          "type": "uint256"
        }
      ],
      "stateMutability": "view",
      "type": "function"
    },
    {
      "inputs": [
        {
          "internalType": "address[]",
          "name": "accounts",
          "type": "address[]"
        },
        {
          "internalType": "uint256[]",
          "name": "ids",
          "type": "uint256[]"
        }
      ],
      "name": "balanceOfBatch",
      "outputs": [
        {
          "internalType": "uint256[]",
          "name": "",
          "type": "uint256[]"
        }
      ],
      "stateMutability": "view",
      "type": "function"
    },
    {
      "inputs": [
        {
          "internalType": "uint256",
          "name": "_tokenId",
          "type": "uint256"
        },
        {
          "internalType": "uint256",
          "name": "_maxSupply",
          "type": "uint256"
        }
      ],
      "name": "createNewToken",
      "outputs": [],
      "stateMutability": "nonpayable",
      "type": "function"
    },
    {
      "inputs": [
        {
          "internalType": "address",
          "name": "to",
          "type": "address"
        },
        {
          "internalType": "uint256",
          "name": "id",
          "type": "uint256"
        },
        {
          "internalType": "uint256",
          "name": "quantity",
          "type": "uint256"
        }
      ],
      "name": "creatorMint",
      "outputs": [],
      "stateMutability": "nonpayable",
      "type": "function"
    },
    {
      "inputs": [
        {
          "internalType": "uint256",
          "name": "",
          "type": "uint256"
        }
      ],
      "name": "creatorMintedCount",
      "outputs": [
        {
          "internalType": "uint256",
          "name": "",
          "type": "uint256"
        }
      ],
      "stateMutability": "view",
      "type": "function"
    },
    {
      "inputs": [],
      "name": "disableEmergencyBypass",
      "outputs": [],
      "stateMutability": "nonpayable",
      "type": "function"
    },
    {
      "inputs": [],
      "name": "emergencyBypassEnabled",
      "outputs": [
        {
          "internalType": "bool",
          "name": "",
          "type": "bool"
        }
      ],
      "stateMutability": "view",
      "type": "function"
    },
    {
      "inputs": [],
      "name": "enableEmergencyBypass",
      "outputs": [],
      "stateMutability": "nonpayable",
      "type": "function"
    },
    {
      "inputs": [],
      "name": "factorySignature",
      "outputs": [
        {
          "internalType": "bytes32",
          "name": "",
          "type": "bytes32"
        }
      ],
      "stateMutability": "view",
      "type": "function"
    },
    {
      "inputs": [
        {
          "internalType": "address",
          "name": "_kol",
          "type": "address"
        }
      ],
      "name": "getKOLApprovalDetails",
      "outputs": [
        {
          "internalType": "bool",
          "name": "approved",
          "type": "bool"
        },
        {
          "internalType": "uint256",
          "name": "poolLimit",
          "type": "uint256"
        },
        {
          "internalType": "uint256",
          "name": "enforcedSlotFee",
          "type": "uint256"
        },
        {
          "internalType": "uint256",
          "name": "poolCount",
          "type": "uint256"
        }
      ],
      "stateMutability": "view",
      "type": "function"
    },
    {
      "inputs": [],
      "name": "getUnrevealedURI",
      "outputs": [
        {
          "internalType": "string",
          "name": "",
          "type": "string"
        }
      ],
      "stateMutability": "view",
      "type": "function"
    },
    {
      "inputs": [
        {
          "internalType": "address",
          "name": "_kol",
          "type": "address"
        }
      ],
      "name": "incrementKOLPoolCount",
      "outputs": [],
      "stateMutability": "nonpayable",
      "type": "function"
    },
    {
      "inputs": [
        {
          "internalType": "string",
          "name": "uri_",
          "type": "string"
        },
        {
          "internalType": "address",
          "name": "initialOwner",
          "type": "address"
        },
        {
          "internalType": "uint256",
          "name": "_royaltyPercentage",
          "type": "uint256"
        },
        {
          "internalType": "address",
          "name": "_royaltyRecipient",
          "type": "address"
        },
        {
          "internalType": "bytes32",
          "name": "_factorySignature",
          "type": "bytes32"
        },
        {
          "internalType": "address",
          "name": "_protocolManager",
          "type": "address"
        },
        {
          "internalType": "uint256",
          "name": "_prizeTokenId",
          "type": "uint256"
        },
        {
          "internalType": "uint256",
          "name": "_prizeMaxSupply",
          "type": "uint256"
        },
        {
          "internalType": "enum PrizeTypes.RevealType",
          "name": "_revealType",
          "type": "uint8"
        },
        {
          "internalType": "string",
          "name": "_unrevealedURI",
          "type": "string"
        },
        {
          "internalType": "uint256",
          "name": "_revealTime",
          "type": "uint256"
        },
        {
          "internalType": "address",
          "name": "preApprovedMinter",
          "type": "address"
        }
      ],
      "name": "initialize",
      "outputs": [],
      "stateMutability": "nonpayable",
      "type": "function"
    },
    {
      "inputs": [
        {
          "internalType": "address",
          "name": "account",
          "type": "address"
        },
        {
          "internalType": "address",
          "name": "operator",
          "type": "address"
        }
      ],
      "name": "isApprovedForAll",
      "outputs": [
        {
          "internalType": "bool",
          "name": "",
          "type": "bool"
        }
      ],
      "stateMutability": "view",
      "type": "function"
    },
    {
      "inputs": [],
      "name": "isGenuineProtocolContract",
      "outputs": [
        {
          "internalType": "bool",
          "name": "",
          "type": "bool"
        }
      ],
      "stateMutability": "view",
      "type": "function"
    },
    {
      "inputs": [
        {
          "internalType": "address",
          "name": "marketplace",
          "type": "address"
        }
      ],
      "name": "isMarketplaceAllowed",
      "outputs": [
        {
          "internalType": "bool",
          "name": "",
          "type": "bool"
        }
      ],
      "stateMutability": "view",
      "type": "function"
    },
    {
      "inputs": [],
      "name": "isRevealed",
      "outputs": [
        {
          "internalType": "bool",
          "name": "",
          "type": "bool"
        }
      ],
      "stateMutability": "view",
      "type": "function"
    },
    {
      "inputs": [
        {
          "internalType": "address",
          "name": "account",
          "type": "address"
        }
      ],
      "name": "isRoyaltyEnforcementExempt",
      "outputs": [
        {
          "internalType": "bool",
          "name": "",
          "type": "bool"
        }
      ],
      "stateMutability": "view",
      "type": "function"
    },
    {
      "inputs": [
        {
          "internalType": "address",
          "name": "",
          "type": "address"
        }
      ],
      "name": "kolApprovals",
      "outputs": [
        {
          "internalType": "bool",
          "name": "approved",
          "type": "bool"
        },
        {
          "internalType": "uint256",
          "name": "poolLimit",
          "type": "uint256"
        },
        {
          "internalType": "uint256",
          "name": "enforcedSlotFee",
          "type": "uint256"
        },
        {
          "internalType": "uint256",
          "name": "poolCount",
          "type": "uint256"
        }
      ],
      "stateMutability": "view",
      "type": "function"
    },
    {
      "inputs": [],
      "name": "lockMinterApproval",
      "outputs": [],
      "stateMutability": "nonpayable",
      "type": "function"
    },
    {
      "inputs": [
        {
          "internalType": "uint256",
          "name": "",
          "type": "uint256"
        }
      ],
      "name": "maxSupply",
      "outputs": [
        {
          "internalType": "uint256",
          "name": "",
          "type": "uint256"
        }
      ],
      "stateMutability": "view",
      "type": "function"
    },
    {
      "inputs": [
        {
          "internalType": "address",
          "name": "to",
          "type": "address"
        },
        {
          "internalType": "uint256",
          "name": "id",
          "type": "uint256"
        },
        {
          "internalType": "uint256",
          "name": "amount",
          "type": "uint256"
        }
      ],
      "name": "mint",
      "outputs": [],
      "stateMutability": "nonpayable",
      "type": "function"
    },
    {
      "inputs": [],
      "name": "minter",
      "outputs": [
        {
          "internalType": "address",
          "name": "",
          "type": "address"
        }
      ],
      "stateMutability": "view",
      "type": "function"
    },
    {
      "inputs": [],
      "name": "minterLocked",
      "outputs": [
        {
          "internalType": "bool",
          "name": "",
          "type": "bool"
        }
      ],
      "stateMutability": "view",
      "type": "function"
    },
    {
      "inputs": [
        {
          "internalType": "address",
          "name": "",
          "type": "address"
        },
        {
          "internalType": "address",
          "name": "",
          "type": "address"
        },
        {
          "internalType": "uint256[]",
          "name": "",
          "type": "uint256[]"
        },
        {
          "internalType": "uint256[]",
          "name": "",
          "type": "uint256[]"
        },
        {
          "internalType": "bytes",
          "name": "",
          "type": "bytes"
        }
      ],
      "name": "onERC1155BatchReceived",
      "outputs": [
        {
          "internalType": "bytes4",
          "name": "",
          "type": "bytes4"
        }
      ],
      "stateMutability": "pure",
      "type": "function"
    },
    {
      "inputs": [
        {
          "internalType": "address",
          "name": "",
          "type": "address"
        },
        {
          "internalType": "address",
          "name": "",
          "type": "address"
        },
        {
          "internalType": "uint256",
          "name": "",
          "type": "uint256"
        },
        {
          "internalType": "uint256",
          "name": "",
          "type": "uint256"
        },
        {
          "internalType": "bytes",
          "name": "",
          "type": "bytes"
        }
      ],
      "name": "onERC1155Received",
      "outputs": [
        {
          "internalType": "bytes4",
          "name": "",
          "type": "bytes4"
        }
      ],
      "stateMutability": "pure",
      "type": "function"
    },
    {
      "inputs": [],
      "name": "owner",
      "outputs": [
        {
          "internalType": "address",
          "name": "",
          "type": "address"
        }
      ],
      "stateMutability": "view",
      "type": "function"
    },
    {
      "inputs": [],
      "name": "protocolManager",
      "outputs": [
        {
          "internalType": "address",
          "name": "",
          "type": "address"
        }
      ],
      "stateMutability": "view",
      "type": "function"
    },
    {
      "inputs": [
        {
          "internalType": "address",
          "name": "newMinter",
          "type": "address"
        }
      ],
      "name": "reassignAndLockMinter",
      "outputs": [],
      "stateMutability": "nonpayable",
      "type": "function"
    },
    {
      "inputs": [
        {
          "internalType": "address",
          "name": "marketplace",
          "type": "address"
        }
      ],
      "name": "removeAllowedMarketplace",
      "outputs": [],
      "stateMutability": "nonpayable",
      "type": "function"
    },
    {
      "inputs": [],
      "name": "renounceOwnership",
      "outputs": [],
      "stateMutability": "nonpayable",
      "type": "function"
    },
    {
      "inputs": [],
      "name": "reveal",
      "outputs": [],
      "stateMutability": "nonpayable",
      "type": "function"
    },
    {
      "inputs": [],
      "name": "revealTime",
      "outputs": [
        {
          "internalType": "uint256",
          "name": "",
          "type": "uint256"
        }
      ],
      "stateMutability": "view",
      "type": "function"
    },
    {
      "inputs": [],
      "name": "revealType",
      "outputs": [
        {
          "internalType": "enum PrizeTypes.RevealType",
          "name": "",
          "type": "uint8"
        }
      ],
      "stateMutability": "view",
      "type": "function"
    },
    {
      "inputs": [
        {
          "internalType": "address",
          "name": "_kol",
          "type": "address"
        }
      ],
      "name": "revokeKOL",
      "outputs": [],
      "stateMutability": "nonpayable",
      "type": "function"
    },
    {
      "inputs": [],
      "name": "royaltyEnforcementEnabled",
      "outputs": [
        {
          "internalType": "bool",
          "name": "",
          "type": "bool"
        }
      ],
      "stateMutability": "view",
      "type": "function"
    },
    {
      "inputs": [
        {
          "internalType": "uint256",
          "name": "",
          "type": "uint256"
        },
        {
          "internalType": "uint256",
          "name": "salePrice",
          "type": "uint256"
        }
      ],
      "name": "royaltyInfo",
      "outputs": [
        {
          "internalType": "address",
          "name": "",
          "type": "address"
        },
        {
          "internalType": "uint256",
          "name": "",
          "type": "uint256"
        }
      ],
      "stateMutability": "view",
      "type": "function"
    },
    {
      "inputs": [],
      "name": "royaltyPercentage",
      "outputs": [
        {
          "internalType": "uint256",
          "name": "",
          "type": "uint256"
        }
      ],
      "stateMutability": "view",
      "type": "function"
    },
    {
      "inputs": [],
      "name": "royaltyRecipient",
      "outputs": [
        {
          "internalType": "address",
          "name": "",
          "type": "address"
        }
      ],
      "stateMutability": "view",
      "type": "function"
    },
    {
      "inputs": [
        {
          "internalType": "address",
          "name": "from",
          "type": "address"
        },
        {
          "internalType": "address",
          "name": "to",
          "type": "address"
        },
        {
          "internalType": "uint256[]",
          "name": "ids",
          "type": "uint256[]"
        },
        {
          "internalType": "uint256[]",
          "name": "amounts",
          "type": "uint256[]"
        },
        {
          "internalType": "bytes",
          "name": "data",
          "type": "bytes"
        }
      ],
      "name": "safeBatchTransferFrom",
      "outputs": [],
      "stateMutability": "nonpayable",
      "type": "function"
    },
    {
      "inputs": [
        {
          "internalType": "address",
          "name": "from",
          "type": "address"
        },
        {
          "internalType": "address",
          "name": "to",
          "type": "address"
        },
        {
          "internalType": "uint256",
          "name": "id",
          "type": "uint256"
        },
        {
          "internalType": "uint256",
          "name": "amount",
          "type": "uint256"
        },
        {
          "internalType": "bytes",
          "name": "data",
          "type": "bytes"
        }
      ],
      "name": "safeTransferFrom",
      "outputs": [],
      "stateMutability": "nonpayable",
      "type": "function"
    },
    {
      "inputs": [
        {
          "internalType": "address",
          "name": "operator",
          "type": "address"
        },
        {
          "internalType": "bool",
          "name": "approved",
          "type": "bool"
        }
      ],
      "name": "setApprovalForAll",
      "outputs": [],
      "stateMutability": "nonpayable",
      "type": "function"
    },
    {
      "inputs": [
        {
          "internalType": "string",
          "name": "newBaseURI",
          "type": "string"
        }
      ],
      "name": "setBaseURI",
      "outputs": [],
      "stateMutability": "nonpayable",
      "type": "function"
    },
    {
      "inputs": [
        {
          "internalType": "address",
          "name": "_minter",
          "type": "address"
        },
        {
          "internalType": "bool",
          "name": "approved",
          "type": "bool"
        }
      ],
      "name": "setMinterApproval",
      "outputs": [],
      "stateMutability": "nonpayable",
      "type": "function"
    },
    {
      "inputs": [
        {
          "internalType": "uint256",
          "name": "_royaltyPercentage",
          "type": "uint256"
        },
        {
          "internalType": "address",
          "name": "_royaltyRecipient",
          "type": "address"
        }
      ],
      "name": "setRoyalty",
      "outputs": [],
      "stateMutability": "nonpayable",
      "type": "function"
    },
    {
      "inputs": [
        {
          "internalType": "address",
          "name": "account",
          "type": "address"
        },
        {
          "internalType": "bool",
          "name": "exempt",
          "type": "bool"
        }
      ],
      "name": "setRoyaltyEnforcementExemption",
      "outputs": [],
      "stateMutability": "nonpayable",
      "type": "function"
    },
    {
      "inputs": [
        {
          "internalType": "uint256",
          "name": "_tokenId",
          "type": "uint256"
        },
        {
          "internalType": "string",
          "name": "_uri",
          "type": "string"
        }
      ],
      "name": "setURI",
      "outputs": [],
      "stateMutability": "nonpayable",
      "type": "function"
    },
    {
      "inputs": [
        {
          "internalType": "bytes4",
          "name": "interfaceId",
          "type": "bytes4"
        }
      ],
      "name": "supportsInterface",
      "outputs": [
        {
          "internalType": "bool",
          "name": "",
          "type": "bool"
        }
      ],
      "stateMutability": "view",
      "type": "function"
    },
    {
      "inputs": [
        {
          "internalType": "bool",
          "name": "enabled",
          "type": "bool"
        }
      ],
      "name": "toggleRoyaltyEnforcement",
      "outputs": [],
      "stateMutability": "nonpayable",
      "type": "function"
    },
    {
      "inputs": [
        {
          "internalType": "uint256",
          "name": "",
          "type": "uint256"
        }
      ],
      "name": "totalSupply",
      "outputs": [
        {
          "internalType": "uint256",
          "name": "",
          "type": "uint256"
        }
      ],
      "stateMutability": "view",
      "type": "function"
    },
    {
      "inputs": [
        {
          "internalType": "address",
          "name": "newOwner",
          "type": "address"
        }
      ],
      "name": "transferOwnership",
      "outputs": [],
      "stateMutability": "nonpayable",
      "type": "function"
    },
    {
      "inputs": [],
      "name": "unlockMinterApproval",
      "outputs": [],
      "stateMutability": "nonpayable",
      "type": "function"
    },
    {
      "inputs": [],
      "name": "unrevealedURI",
      "outputs": [
        {
          "internalType": "string",
          "name": "",
          "type": "string"
        }
      ],
      "stateMutability": "view",
      "type": "function"
    },
    {
      "inputs": [
        {
          "internalType": "uint256",
          "name": "_tokenId",
          "type": "uint256"
        }
      ],
      "name": "uri",
      "outputs": [
        {
          "internalType": "string",
          "name": "",
          "type": "string"
        }
      ],
      "stateMutability": "view",
      "type": "function"
    },
    {
      "inputs": [
        {
          "internalType": "address",
          "name": "",
          "type": "address"
        },
        {
          "internalType": "uint256",
          "name": "",
          "type": "uint256"
        }
      ],
      "name": "walletMintedCount",
      "outputs": [
        {
          "internalType": "uint256",
          "name": "",
          "type": "uint256"
        }
      ],
      "stateMutability": "view",
      "type": "function"
    }
  ],
  "bytecode": "0x60a0346200017f576001600160401b0390601f6200401438819003918201601f19168301918483118484101762000169578084926020946040528339810103126200017f57516001600160a01b039182821682036200017f5760405190602082019081118282101762000169576040526000809152600254906001918281811c911680156200015e575b60208210146200014a57601f8111620000fc575b5080600255600354903360018060a01b03198316176003557f8be0079c531659141344cd1fd0a4f28419497f9722a3daafe3b4186f6b6457e0604051953393169180a3600455608052613e8f9081620001858239608051816125e80152f35b60028252601f0160051c7f405787fa12a823e0f2b7631cc41b3ba8828b3321ca811111fa75cd3aa3bb5ace9081019083905b8281106200013e5750506200009d565b8381550183906200012e565b634e487b7160e01b82526022600452602482fd5b90607f169062000089565b634e487b7160e01b600052604160045260246000fd5b600080fdfe604060a081526004908136101561001557600080fd5b600091823560e01c908162fdd58e14612fe957816301ffc9a714612f475781630754617214612f1a5781630de54ba014612e745781630e89341c14612e535781631012248814612de657816310c7e4a214612da8578163156e29f614612c9a57816317f6397914612bf95781631c38258914612a3f5781631d4044501461254d57816323b934b21461246d57816324e0eba9146124205781632633f8b1146123605781632a55205a146123065781632eb2c2d614611f995781632f7e4c3414611e5557816340e3276b14611dbb5781634c00de8214611d925781634e1273f414611bf957816353cb5d51146119ec57816354214f69146119c857816355f804b31461194957816366407781146118f95781636f88bd8a1461192a5781637035bf18146118f9578163715018a61461189c57816371c333591461185e5781637ff89fce1461169e57816383e46c5614611677578163862440e214611468578163869f7594146114405781638a71bb2d146114215781638da5cb5b146113f857816397c82b66146112f0578163a22cb465146111af578163a2af294f14611170578163a475b5dd14610ff6578163ab4b669214610fcd578163b0c74aff14610fa5578163ba829d7114610f86578163bc197c8114610efd578163bcaa7f0014610d24578163bd85b03914610cfc578163cc54cce314610cd5578163cee8e0fe14610cae578163d0aa96c014610c5b578163d5c32ca414610c34578163dc817c2e14610b7d578163e377b67c14610b3c578163e8834c4814610a42578163e985e9c5146109f4578163f23a6e611461099b578163f242432a146106d1578163f2fde38b1461063f578163faf5a1241461037857508063fbddc055146103085763fcf2e55f146102a057600080fd5b34610304576020366003190112610304576102b9613012565b6102c1613393565b6001600160a01b03168083526005602052908220805460ff191690557ffeb031b2d93541150a8571bc111b4dab4d98dfef15bcbe6e89653e385a5d980a8280a280f35b5080fd5b5034610304576020366003190112610304579081906001600160a01b0361032d613012565b1681526005602052209061037460ff835416916001840154936003600282015491015491519485948590949392606092608083019615158352602083015260408201520152565b0390f35b9190503461063b578060031936011261063b57610393613012565b9061039c613043565b600954825163188c824d60e11b81526020946001600160a01b039283169493929186818981895afa908115610631578991610604575b5082806003541633149182156105f7575b50501561059f5716948587526010855260ff8388205416158015610597575b15610539578115938480610525575b610464575b50509061045b7f61630ccfd9f6a7f081736c73f365b44d23ac1af5e8d23c9eeba86f0cc3cfefbe949392868852601085528288209060ff801983541691151516179055565b5190158152a280f35b85602491855192838092633247c33f60e21b82528b878301525afa90811561051b5788916104ee575b506104985780610416565b825162461bcd60e51b8152908101859052602a60248201527f43616e6e6f742072656d6f7665206578656d7074696f6e20666f7220706f6f6c60448201526920636f6e74726163747360b01b6064820152608490fd5b61050e9150863d8811610514575b6105068183613108565b810190613671565b3861048d565b503d6104fc565b84513d8a823e3d90fd5b508688526010865260ff8489205416610411565b825162461bcd60e51b8152908101859052603260248201527f4164647265737320697320616c7265616479206578656d70742066726f6d20726044820152711bde585b1d1e48195b999bdc98d95b595b9d60721b6064820152608490fd5b508115610402565b835162461bcd60e51b8152808801879052602c60248201527f4f6e6c79206f776e6572206f7220506f6f6c4465706c6f7965722063616e207360448201526b32ba1032bc32b6b83a34b7b760a11b6064820152608490fd5b90915016331482386103e3565b6106249150873d891161062a575b61061c8183613108565b810190613652565b386103d2565b503d610612565b85513d8b823e3d90fd5b8280fd5b90503461063b57602036600319011261063b5761065a613012565b91610663613393565b6001600160a01b0383161561067f578361067c846133eb565b80f35b906020608492519162461bcd60e51b8352820152602660248201527f4f776e61626c653a206e6577206f776e657220697320746865207a65726f206160448201526564647265737360d01b6064820152fd5b9190503461063b5760a036600319011261063b576106ed613012565b836106f661302d565b91604435906064356084356001600160401b0381116109975761071c9036908901613129565b92600f5460ff8160b01c169081610988575b5080610972575b610956575b6001600160a01b03928316923384148015610937575b610759906136fb565b86169061076782151561375e565b61077081613971565b5061077a83613971565b508086526020968688528887208588528852838988205461079d828210156137b8565b838952888a528a8920878a528a52038988205581875286885288872083885288528887206107cc858254613817565b905582858a51848152868b8201527fc3d58168c5ae7397731d063d5bbf3d657854427343f4c083240f7aacaa2d0f628c3392a43b610808578580f35b889587946108498a519788968795869463f23a6e6160e01b9c8d8752339087015260248601526044850152606484015260a0608484015260a4830190613052565b03925af1869181610908575b506108d757505060019061086761388d565b6308c379a0146108a4575b506108875750505b3880808381808080808580f35b5162461bcd60e51b8152915081906108a090820161391c565b0390fd5b6108ac6138ab565b806108b75750610872565b6108a08591855193849362461bcd60e51b85528401526024830190613052565b6001600160e01b0319160390506108ef57505061087a565b5162461bcd60e51b8152915081906108a0908201613844565b610929919250843d8611610930575b6109218183613108565b810190613824565b9038610855565b503d610917565b508386526001602090815288872033885290528786205460ff16610750565b338552601160205261096d60ff8887205416613689565b61073a565b50338552601060205260ff878620541615610735565b60ff915060b81c16153861072e565b8480fd5b8284346109f15760a03660031901126109f1576109b6613012565b506109bf61302d565b50608435906001600160401b0382116109f157506020926109e291369101613366565b50505163f23a6e6160e01b8152f35b80fd5b50503461030457806003193601126103045760ff81602093610a14613012565b610a1c61302d565b6001600160a01b0391821683526001875283832091168252855220549151911615158152f35b9190503461063b57610a533661317f565b919092610a5e613393565b838552600a60205281852054610afa578215610aae57507fc4b60435d5467f696f8dd268ffdd7fcff001c2937072bf65adb1ec5b426f8d7091602091848652600a8352818187205551908152a280f35b6020608492519162461bcd60e51b8352820152602160248201527f4d617820737570706c79206d7573742062652067726561746572207468616e206044820152600360fc1b6064820152fd5b6020606492519162461bcd60e51b8352820152601760248201527f546f6b656e20494420616c7265616479206578697374730000000000000000006044820152fd5b50503461030457806003193601126103045760209181906001600160a01b03610b63613012565b168152601284528181206024358252845220549051908152f35b90503461063b578260031936011261063b57610b97613393565b600f5491600883901c6001600160a01b031615610be757505060ff60a81b1916600160a81b17600f557fd5cb2e985e95fd394547f9c7ee44d15aeb87738279930d016adf6a6c3f1a25c18180a180f35b906020608492519162461bcd60e51b8352820152602160248201527f43616e6e6f74206c6f636b2061207a65726f2061646472657373206d696e74656044820152603960f91b6064820152fd5b8284346109f15760203660031901126109f15750610c5460209235613e07565b9051908152f35b83346109f157806003193601126109f157610c74613393565b600f805460ff60b81b1916600160b81b1790557f192c3f8649694bd147faa743027e4c232721f15ec16032c1c34b414c47a90df38180a180f35b50503461030457816003193601126103045760209060ff600f5460b81c1690519015158152f35b50503461030457816003193601126103045760209060ff600f5460a81c1690519015158152f35b90503461063b57602036600319011261063b576020928291358152600b845220549051908152f35b90503461063b578260031936011261063b57610d3e613393565b600f5491600883901c6001600160a01b03168015610ec4576020839183519283809263c19d93fb60e01b82525afa908115610eba578591610e80575b5060098110159081610e605760078114918215610e73575b8215610e4f575b8215610e2b575b505015610dde575050610100600160b01b031916600f557f5e7f52ff86abf7b572123888a9e67a9ff6c324bc8cf6217f0ee997b28531fa8e8180a180f35b906020608492519162461bcd60e51b8352820152602160248201527f506f6f6c206e6f7420696e20612073616665207465726d696e616c20737461746044820152606560f81b6064820152fd5b909150610e3c576008143880610da0565b634e487b7160e01b855260218352602485fd5b809250610e60576006811491610d99565b634e487b7160e01b865260218452602486fd5b5060058114915085610d92565b90506020813d8211610eb2575b81610e9a60209383613108565b81010312610997575160098110156109975738610d7a565b3d9150610e8d565b82513d87823e3d90fd5b815162461bcd60e51b815260208185015260136024820152724e6f206d696e74657220746f20756e6c6f636b60681b6044820152606490fd5b8284346109f15760a03660031901126109f157610f18613012565b50610f2161302d565b506001600160401b039060443582811161030457610f429036908601613336565b505060643582811161030457610f5b9036908601613336565b50506084359182116109f15750602092610f7791369101613366565b50505163bc197c8160e01b8152f35b505034610304578160031936011261030457602090600e549051908152f35b90503461063b57602036600319011261063b5760209282913581526014845220549051908152f35b50503461030457816003193601126103045760095490516001600160a01b039091168152602090f35b90503461063b578260031936011261063b57611010613393565b600f549160ff831661112d5760ff600c54166003811015610e3c57600281036110b55750600e5442106110725750506001905b60ff191617600f557f4884a1e8d033385ee80fa3d769d1ba3c44e18291db0f726e436a01997d3df36a8180a180f35b906020606492519162461bcd60e51b8352820152601e60248201527f52657665616c2074696d6520686173206e6f74207965742070617373656400006044820152fd5b156110c4575050600190611043565b906020608492519162461bcd60e51b8352820152603e60248201527f496e7374616e742072657665616c20636f6c6c656374696f6e7320646f206e6f60448201527f74206e65656420746f206265206d616e75616c6c792072657665616c656400006064820152fd5b906020606492519162461bcd60e51b8352820152601e60248201527f436f6c6c656374696f6e20697320616c72656164792072657665616c656400006044820152fd5b83833461030457816003193601126103045760ff600c5416905191600382101561119c57602083838152f35b634e487b7160e01b815260218452602490fd5b9190503461063b578060031936011261063b576111ca613012565b906111d3613043565b91600f5460ff8160b01c1690816112e1575b50806112cb575b6112af575b6001600160a01b03169233841461125b5750338452600160205280842083855260205261122c828286209060ff801983541691151516179055565b5190151581527f17307eab39ab6107e8899845ad3d59bd9653f200f220920489ca2b5937696c3160203392a380f35b6020608492519162461bcd60e51b8352820152602960248201527f455243313135353a2073657474696e6720617070726f76616c20737461747573604482015268103337b91039b2b63360b91b6064820152fd5b33855260116020526112c660ff8387205416613689565b6111f1565b50338552601060205260ff8286205416156111ec565b60ff915060b81c1615386111e5565b9190503461063b57602036600319011261063b5761130c613012565b611314613393565b6001600160a01b03169182156113b657828452601160205260ff8285205416611374575081835260116020528220805460ff191660011790557f119567ed9b6c3d3a90f367bc09314fc6cd50ab2434a5b4f73688a2c1ea1498388280a280f35b6020606492519162461bcd60e51b8352820152601b60248201527f4d61726b6574706c61636520616c726561647920616c6c6f77656400000000006044820152fd5b6020606492519162461bcd60e51b8352820152601b60248201527f496e76616c6964206d61726b6574706c616365206164647265737300000000006044820152fd5b50503461030457816003193601126103045760035490516001600160a01b039091168152602090f35b5050346103045781600319360112610304576020906007549051908152f35b90503461063b57602036600319011261063b576020928291358152600a845220549051908152f35b90503461063b578160031936011261063b578035916001600160401b03906024358281116116735761149d9036908501613129565b926114a6613393565b848652602092600a84528287205415611631578587526013845282872091855191821161161e57506114d8825461323e565b601f81116115db575b5083601f82116001146115545791817fbf032ae7dcb484f99f9f3977ba9cde222756e7073de74244ceb89de862569bdb96959492611543948a91611549575b508160011b916000199060031b1c19161790555b51928284938452830190613052565b0390a280f35b905086015138611520565b82885284882090601f198316895b8181106115c45750926115439492600192827fbf032ae7dcb484f99f9f3977ba9cde222756e7073de74244ceb89de862569bdb9a999896106115ab575b5050811b019055611534565b88015160001960f88460031b161c19169055388061159f565b91928760018192868c015181550194019201611562565b828852848820601f830160051c810191868410611614575b601f0160051c01905b81811061160957506114e1565b8881556001016115fc565b90915081906115f3565b634e487b7160e01b885260419052602487fd5b5082606492519162461bcd60e51b8352820152601760248201527f546f6b656e20494420646f6573206e6f742065786973740000000000000000006044820152fd5b8580fd5b50503461030457816003193601126103045760209060ff600f5460b01c1690519015158152f35b9190503461063b5760208060031936011261185a576116bb613012565b600954835163188c824d60e11b81526001600160a01b039291849082908890829087165afa908115611850578791611833575b5082339116036117df5716928385526005825260ff8386205416156117ab578385526005825282852060016003820154910154111561176a57509060056003928486525283200161173f81546134b9565b905533907f5b7945a09273a36deae169b61c3f2f6e50c1a2030374353d76346822ae48f6748380a380f35b915162461bcd60e51b815291820152601760248201527f4b4f4c20706f6f6c206c696d69742065786365656465640000000000000000006044820152606490fd5b915162461bcd60e51b815291820152601060248201526f12d3d3081b9bdd08185c1c1c9bdd995960821b6044820152606490fd5b835162461bcd60e51b8152808601849052602860248201527f4f6e6c7920506f6f6c4465706c6f7965722063616e2063616c6c207468697320604482015267333ab731ba34b7b760c11b6064820152608490fd5b61184a9150843d861161062a5761061c8183613108565b386116ee565b85513d89823e3d90fd5b8380fd5b5050346103045760203660031901126103045760209160ff9082906001600160a01b03611889613012565b1681526011855220541690519015158152f35b83346109f157806003193601126109f1576118b5613393565b600380546001600160a01b0319811690915581906001600160a01b03167f8be0079c531659141344cd1fd0a4f28419497f9722a3daafe3b4186f6b6457e08280a380f35b50503461030457816003193601126103045761037490611917613278565b9051918291602083526020830190613052565b5050346103045781600319360112610304576020906006549051908152f35b90503461063b57602036600319011261063b578035916001600160401b03831161185a5761199e6119c2927f6741b2fc379fad678116fe3d4d4b9a1a184ab53ba36b86ad0fa66340b1ab41ad94369101613129565b906119a7613393565b6119b082613508565b51918291602083526020830190613052565b0390a180f35b50503461030457816003193601126103045760209060ff600f541690519015158152f35b83915034610304576119fd36613092565b9091611a07613393565b611a0f613bb9565b828552602090600a8252611a27878720541515613b2c565b8215611bbf57838652600b8252611a56611a448489892054613817565b858852600a8452888820541015613b78565b600f546001600160a01b039190600881901c8316159081611bb0575b5015611b5957848752600a83526014888820540460148452611a97858a8a2054613817565b11611b1657907faafa1dbc87d0d4fc4b41b7ea689f27064944bce2e8d5dd922ba7c35a463606d892918798866001995260148452808a20611ad9878254613817565b9055868a52600b8452808a20611af0878254613817565b9055611b0b8151611b00816130ed565b8b8152878985613c0f565b519485521692a35580f35b875162461bcd60e51b8152808701849052601e60248201527f45786365656473203230252063726561746f7220616c6c6f636174696f6e00006044820152606490fd5b875162461bcd60e51b8152808701849052602b60248201527f5468697320636f6c6c656374696f6e2069732063757272656e746c792074696560448201526a19081d1bc818481c1bdbdb60aa1b6064820152608490fd5b60ff915060a81c161589611a72565b865162461bcd60e51b8152808601839052601460248201527305175616e74697479206d757374206265203e20360641b6044820152606490fd5b90503461063b578160031936011261063b5780356001600160401b038082116109975736602383011215610997578183013590611c3582613195565b92611c4286519485613108565b82845260209260248486019160051b83010191368311611d8e57602401905b828210611d6b5750505060243590811161167357611c8290369085016131ac565b928251845103611d185750815194611c9986613195565b95611ca686519788613108565b808752611cb5601f1991613195565b0136838801375b8251811015611d0657611d0190611cf16001600160a01b03611cde83876134de565b5116611cea83886134de565b5190613434565b611cfb82896134de565b526134b9565b611cbc565b8451828152806103748185018961320a565b60849185519162461bcd60e51b8352820152602960248201527f455243313135353a206163636f756e747320616e6420696473206c656e677468604482015268040dad2e6dac2e8c6d60bb1b6064820152fd5b81356001600160a01b0381168103611d8a578152908401908401611c61565b8980fd5b8880fd5b50503461030457816003193601126103045760085490516001600160a01b039091168152602090f35b90503461063b578160031936011261063b57803590611dd861302d565b92611de1613393565b6127108311611e1257505060075560018060a01b03166bffffffffffffffffffffffff60a01b600854161760085580f35b906020606492519162461bcd60e51b8352820152601a60248201527f526f79616c74792063616e6e6f742065786365656420313030250000000000006044820152fd5b9190503461063b57611e6636613092565b9091611e70613393565b6001600160a01b0316938415611f60578215611f1357509082917fbd25804f3c6494eaf033b140d2a3804fdfa470d085698013cd44b8a8f9be85529351611eb6816130bc565b6001815260036020820184815285830184815260608401918a8352898b526005602052611ef5888c2095511515869060ff801983541691151516179055565b5160018501555160028401555191015582519182526020820152a280f35b608490602085519162461bcd60e51b8352820152602160248201527f506f6f6c206c696d6974206d7573742062652067726561746572207468616e206044820152600360fc1b6064820152fd5b606490602085519162461bcd60e51b83528201526013602482015272496e76616c6964204b4f4c206164647265737360681b6044820152fd5b90503461063b576003199160a03684011261185a57611fb6613012565b92611fbf61302d565b936001600160401b039360443585811161230257611fe090369083016131ac565b90606435868111611d8e57611ff890369083016131ac565b95608435908111611d8e576120109036908301613129565b93600f5460ff8160b01c1690816122f3575b50806122dd575b6122c1575b6001600160a01b039384169333851480156122a2575b61204d906136fb565b835188510361224e5788169461206486151561375e565b895b8a85518210156120ea5790896120de8a6120e59461208f85612088818d6134de565b51956134de565b51938082526020908282528383208d84528252858d85852054906120b5838310156137b8565b838652858552868620908652845203848420558252818152828220908d83525220918254613817565b90556134b9565b612066565b50509094939596929197848789518a81527f4a39dc06d4c0dbc64b70af90fd698a233a518aa5d07e595d983b8c0526c8f7fb6121288c83018861320a565b9180830360208201528061213d33948b61320a565b0390a43b612149578880f35b8651948593849363bc197c8160e01b98898652338c87015260248601526044850160a0905260a4850161217b9161320a565b8285820301606486015261218e9161320a565b908382030160848401526121a191613052565b0381885a94602095f185918161222e575b5061221857505060016121c361388d565b6308c379a0146121e1575b6108875750505b38808080808080808880f35b6121e96138ab565b806121f457506121ce565b90506108a091602094505193849362461bcd60e51b85528401526024830190613052565b6001600160e01b031916036108ef5750506121d5565b61224791925060203d8111610930576109218183613108565b90386121b2565b865162461bcd60e51b8152602081850152602860248201527f455243313135353a2069647320616e6420616d6f756e7473206c656e677468206044820152670dad2e6dac2e8c6d60c31b6064820152608490fd5b50848a5260016020908152878b20338c529052868a205460ff16612044565b33895260116020526122d860ff878b205416613689565b61202e565b50338952601060205260ff868a20541615612029565b60ff915060b81c161538612022565b8780fd5b905082346109f1576123173661317f565b91905060018060a01b0360085416926007549283810293818504149015171561234d575050612710908351928352046020820152f35b634e487b7160e01b825260119052602490fd5b9190503461063b57602036600319011261063b5761237c613012565b612384613393565b6001600160a01b031680845260116020528184205490929060ff16156123de575081835260116020528220805460ff191690557feac9a18305649744c83ff9f4d60058552b03f4e8df46a1cb28f7563fbd179b428280a280f35b6020606492519162461bcd60e51b8352820152601f60248201527f4d61726b6574706c616365206e6f7420696e20616c6c6f776564206c697374006044820152fd5b83346109f157806003193601126109f157612439613393565b600f805460ff60b81b191690557fa0e4442ee881786834ee773b9ed42c22dff390d3d3318996679777915e63be348180a180f35b838334610304578160031936011261030457600954815163d63843cd60e01b815260209490916001600160a01b039190869084908390829086165afa92831561254357908692918694612521575b50604490600654928651958694859363ea4dae9160e01b855230908501526024840152165afa92831561251657926124f7575b50519015158152f35b61250f919250833d8511610514576105068183613108565b90836124ee565b8251903d90823e3d90fd5b604491945061253c90843d861161062a5761061c8183613108565b93906124bb565b84513d87823e3d90fd5b83833461030457610180366003190112610304576001600160401b0390833582811161185a576125809036908601613129565b61258861302d565b6064356001600160a01b0381811693909291849003612a3b5760a4359383851680950361230257610104356003811015611d8e5761012435888111611d8a576125d49036908c01613129565b97610164359386851693848603612a3757877f00000000000000000000000000000000000000000000000000000000000000001633036129f45787600354166129bb576006546129805760e4359182156129445791897fc4b60435d5467f696f8dd268ffdd7fcff001c2937072bf65adb1ec5b426f8d70926126568f95613508565b61265f8a6133eb565b6044356007556bffffffffffffffffffffffff60a01b908160085416176008556084356006556009541617600955808b60c435948581526020608052600a6080515220558a5190815260805190a260ff199889600c541660ff841617600c55821560001461276e575050508697985060018097600f541617600f555b61271f575b5061ffff60b01b19600f5416600f5516855260106080515281852083858254161790558452808420828482541617905530845283209182541617905580f35b600f548660a81b916101008860a81b039060081b16906101008860b01b0319161717600f557fd5cb2e985e95fd394547f9c7ee44d15aeb87738279930d016adf6a6c3f1a25c18780a1876126e0565b805191821161293157612782600d5461323e565b601f81116128cf575b5060805190601f83116001146128485760029392918c918361283d575b50508160011b916000199060031b1c191617600d555b146127cf575b6001969798506126db565b6101443598428a11156127ee57506001969798600e55889796506127c4565b60849087519062461bcd60e51b825260805190820152602160248201527f52657665616c2074696d65206d75737420626520696e207468652066757475726044820152606560f81b6064820152fd5b015190508d806127a8565b600d8c527fd7b6990105719101dabeb77144f2a3385c8033acd3af97e9423a695e81ad1eb59190601f1984168d5b8181106128b6575091600193918560029796941061289d575b505050811b01600d556127be565b015160001960f88460031b161c191690558d808061288f565b8284015185556080516001909501949384019301612876565b600d8c527fd7b6990105719101dabeb77144f2a3385c8033acd3af97e9423a695e81ad1eb5601f840160051c8101608051851061292a575b601f90920160051c01905b81811061291f575061278b565b8c8155600101612912565b5080612907565b634e487b7160e01b8b5260418c5260248bfd5b60648e60208d519162461bcd60e51b8352820152601660248201527504d617820737570706c79206d757374206265203e20360541b6044820152fd5b895162461bcd60e51b81526020818f0152601560248201527414da59db985d1d5c9948185b1c9958591e481cd95d605a1b6044820152606490fd5b895162461bcd60e51b81526020818f01526013602482015272105b1c9958591e481a5b9a5d1a585b1a5e9959606a1b6044820152606490fd5b895162461bcd60e51b81526020818f0152601b60248201527f4f6e6c7920666163746f72792063616e20696e697469616c697a6500000000006044820152606490fd5b8b80fd5b8680fd5b9190503461063b576020918260031936011261185a57612a5d613012565b9260018060a01b03928282856009541683519283809263188c824d60e11b82525afa908115612bef578791612bd2575b508433911603612b9d57600f5493808560081c16612b4a57851615612afb57505050610100600160b01b03191660089190911b610100600160a81b031617600160a81b17600f557fd5cb2e985e95fd394547f9c7ee44d15aeb87738279930d016adf6a6c3f1a25c18180a180f35b5162461bcd60e51b815291820152602560248201527f4e6577206d696e7465722063616e6e6f7420626520746865207a65726f206164604482015264647265737360d81b606482015260849150fd5b505162461bcd60e51b815291820152602860248201527f436f6e747261637420697320616c72656164792061737369676e656420746f20604482015267309036b4b73a32b960c11b606482015260849150fd5b5162461bcd60e51b815291820152601160248201527027b7363c902837b7b62232b83637bcb2b960791b604482015260649150fd5b612be99150833d851161062a5761061c8183613108565b38612a8d565b82513d89823e3d90fd5b505034610304576020366003190112610304579081906001600160a01b03612c1f613012565b16815260056020522090805191612c35836130bc565b606060ff825416151591828552600181015494856020820152600360028301549283878401520154928391015282612c90575b6103749293519485948590949392606092608083019615158352602083015260408201520152565b8482109250612c68565b8391503461030457612cab36613092565b9091612cb5613bb9565b600f5460081c6001600160a01b03163303612d6f5794612d4185968460019752600a602052612ce8838920541515613b2c565b848852600b602052612d13612d0085858b2054613817565b868a52600a602052848a20541015613b78565b848852600b602052828820612d29858254613817565b90558385845192612d39846130ed565b8a8452613c0f565b519081527faafa1dbc87d0d4fc4b41b7ea689f27064944bce2e8d5dd922ba7c35a463606d860203392a35580f35b855162461bcd60e51b815260208186015260136024820152722ab730baba3437b934bd32b21036b4b73a32b960691b6044820152606490fd5b5050346103045760203660031901126103045760209160ff9082906001600160a01b03612dd3613012565b1681526010855220541690519015158152f35b90503461063b57602036600319011261063b57359081151580920361063b577ff4fe92c76f5b8827e8fd9eac2c7181b6b2c22b10543b969fa2d9a26cdcd56bd291602091612e32613393565b600f805460ff60b01b191660b084901b60ff60b01b1617905551908152a180f35b8284346109f15760203660031901126109f1575061191761037492356139a6565b90503461063b578160031936011261063b57612e8e613012565b90612e97613043565b90612ea0613393565b600f549360ff8560a81c16612ee257505015612edb575b610100600160a81b031990911660089190911b610100600160a81b031617600f5580f35b5081612eb7565b906020606492519162461bcd60e51b83528201526012602482015271105c1c1c9bdd985b081a5cc81b1bd8dad95960721b6044820152fd5b505034610304578160031936011261030457600f54905160089190911c6001600160a01b03168152602090f35b90503461063b57602036600319011261063b57359063ffffffff60e01b821680920361063b576020925063152a902d60e11b8214918215612fd8575b8215612f925750519015158152f35b909150636cdb3d1360e11b8114908115612fc7575b8115612fb6575b5090386124ee565b6301ffc9a760e01b14905038612fae565b6303a24d0760e21b81149150612fa7565b630ab714fb60e11b81149250612f83565b505034610304578060031936011261030457602090610c54613009613012565b60243590613434565b600435906001600160a01b038216820361302857565b600080fd5b602435906001600160a01b038216820361302857565b60243590811515820361302857565b919082519283825260005b84811061307e575050826000602080949584010152601f8019910116010190565b60208183018101518483018201520161305d565b6060906003190112613028576004356001600160a01b038116810361302857906024359060443590565b608081019081106001600160401b038211176130d757604052565b634e487b7160e01b600052604160045260246000fd5b602081019081106001600160401b038211176130d757604052565b90601f801991011681019081106001600160401b038211176130d757604052565b81601f82011215613028578035906001600160401b0382116130d7576040519261315d601f8401601f191660200185613108565b8284526020838301011161302857816000926020809301838601378301015290565b6040906003190112613028576004359060243590565b6001600160401b0381116130d75760051b60200190565b81601f82011215613028578035916131c383613195565b926131d16040519485613108565b808452602092838086019260051b820101928311613028578301905b8282106131fb575050505090565b813581529083019083016131ed565b90815180825260208080930193019160005b82811061322a575050505090565b83518552938101939281019260010161321c565b90600182811c9216801561326e575b602083101461325857565b634e487b7160e01b600052602260045260246000fd5b91607f169161324d565b60405190600082600d549161328c8361323e565b8083529260019081811690811561331457506001146132b5575b506132b392500383613108565b565b600d600090815291507fd7b6990105719101dabeb77144f2a3385c8033acd3af97e9423a695e81ad1eb55b8483106132f957506132b39350508101602001386132a6565b81935090816020925483858a010152019101909185926132e0565b9050602092506132b394915060ff191682840152151560051b820101386132a6565b9181601f84011215613028578235916001600160401b038311613028576020808501948460051b01011161302857565b9181601f84011215613028578235916001600160401b038311613028576020838186019501011161302857565b6003546001600160a01b031633036133a757565b606460405162461bcd60e51b815260206004820152602060248201527f4f776e61626c653a2063616c6c6572206973206e6f7420746865206f776e65726044820152fd5b600380546001600160a01b039283166001600160a01b0319821681179092559091167f8be0079c531659141344cd1fd0a4f28419497f9722a3daafe3b4186f6b6457e0600080a3565b6001600160a01b031690811561346157600052600060205260406000209060005260205260406000205490565b60405162461bcd60e51b815260206004820152602a60248201527f455243313135353a2061646472657373207a65726f206973206e6f742061207660448201526930b634b21037bbb732b960b11b6064820152608490fd5b60001981146134c85760010190565b634e487b7160e01b600052601160045260246000fd5b80518210156134f25760209160051b010190565b634e487b7160e01b600052603260045260246000fd5b9081516001600160401b0381116130d75761352460025461323e565b601f81116135ec575b50602080601f831160011461356a575081929360009261355f575b50508160011b916000199060031b1c191617600255565b015190503880613548565b90601f1983169460026000527f405787fa12a823e0f2b7631cc41b3ba8828b3321ca811111fa75cd3aa3bb5ace926000905b8782106135d45750508360019596106135bb575b505050811b01600255565b015160001960f88460031b161c191690553880806135b0565b8060018596829496860151815501950193019061359c565b6000600281527f405787fa12a823e0f2b7631cc41b3ba8828b3321ca811111fa75cd3aa3bb5ace601f840160051c81019260208510613648575b601f0160051c01915b82811061363d57505061352d565b81815560010161362f565b9092508290613626565b9081602091031261302857516001600160a01b03811681036130285790565b90816020910312613028575180151581036130285790565b1561369057565b60405162461bcd60e51b815260206004820152603e60248201527f45524331313535633a204f7065726174696f6e206f6e6c7920616c6c6f77656460448201527f207468726f75676820617070726f766564206d61726b6574706c6163657300006064820152608490fd5b1561370257565b60405162461bcd60e51b815260206004820152602e60248201527f455243313135353a2063616c6c6572206973206e6f7420746f6b656e206f776e60448201526d195c881bdc88185c1c1c9bdd995960921b6064820152608490fd5b1561376557565b60405162461bcd60e51b815260206004820152602560248201527f455243313135353a207472616e7366657220746f20746865207a65726f206164604482015264647265737360d81b6064820152608490fd5b156137bf57565b60405162461bcd60e51b815260206004820152602a60248201527f455243313135353a20696e73756666696369656e742062616c616e636520666f60448201526939103a3930b739b332b960b11b6064820152608490fd5b919082018092116134c857565b9081602091031261302857516001600160e01b0319811681036130285790565b60809060208152602860208201527f455243313135353a204552433131353552656365697665722072656a656374656040820152676420746f6b656e7360c01b60608201520190565b60009060033d1161389a57565b905060046000803e60005160e01c90565b600060443d1061390857604051600319913d83016004833e81516001600160401b03918282113d60248401111761390b57818401948551938411613913573d8501016020848701011161390b575061390892910160200190613108565b90565b949350505050565b50949350505050565b60809060208152603460208201527f455243313135353a207472616e7366657220746f206e6f6e2d455243313135356040820152732932b1b2b4bb32b91034b6b83632b6b2b73a32b960611b60608201520190565b60405190604082018281106001600160401b038211176130d757604052600182526020820160203682378251156134f2575290565b60ff600f541615613b2357600090815260206013815260408220916040518193818154956139d38761323e565b92838352600197878982169182600014613b03575050600114613ac5575b506139fe92500382613108565b8051613abe5750604051928184929160025491613a1a8361323e565b80865292828116908115613a9c5750600114613a40575b50505061390892500382613108565b600281527f405787fa12a823e0f2b7631cc41b3ba8828b3321ca811111fa75cd3aa3bb5ace95935091905b818310613a845750506139089350820101388080613a31565b85548784018501529485019486945091830191613a6b565b9250505061390894925060ff191682840152151560051b820101388080613a31565b9250505090565b915050835281848085208786915b858310613aea5750506139fe9350820101386139f1565b8091929450548385880101520191018590878593613ad3565b60ff1916858201526139fe95151560051b85010192503891506139f19050565b50613908613278565b15613b3357565b60405162461bcd60e51b815260206004820152601a60248201527f537570706c79206e6f742073657420666f7220746869732049440000000000006044820152606490fd5b15613b7f57565b60405162461bcd60e51b815260206004820152601260248201527145786365656473206d617820737570706c7960701b6044820152606490fd5b600260045414613bca576002600455565b60405162461bcd60e51b815260206004820152601f60248201527f5265656e7472616e637947756172643a207265656e7472616e742063616c6c006044820152606490fd5b9291906001600160a01b0384168015613db857613c2b82613971565b50613c3583613971565b506000928284526020948486526040968786208487528752878620613c5b848254613817565b905583868951878152858a8201527fc3d58168c5ae7397731d063d5bbf3d657854427343f4c083240f7aacaa2d0f628b3392a43b613c9d575b50505050505050565b613cdf92869286895180968195829463f23a6e6160e01b9a8b85523360048601528560248601526044850152606484015260a0608484015260a4830190613052565b03925af1839181613d99575b50613d69575050600191613cfd61388d565b6308c379a014613d33575b5050613d1c57505b38808080808080613c94565b5162461bcd60e51b8152806108a06004820161391c565b613d3b6138ab565b9182613d475750613d08565b846108a091505192839262461bcd60e51b845260048401526024830190613052565b6001600160e01b031916039150613d8290505750613d10565b5162461bcd60e51b8152806108a060048201613844565b613db1919250853d8711610930576109218183613108565b9038613ceb565b60405162461bcd60e51b815260206004820152602160248201527f455243313135353a206d696e7420746f20746865207a65726f206164647265736044820152607360f81b6064820152608490fd5b6000908152600b602052604081205490600a602052604081205480921015613e5457600b60205260408120548203918211613e40575090565b634e487b7160e01b81526011600452602490fd5b90509056fea2646970667358221220ef52c779f52ca9a1d147415e4ff2c9b3f02d0c00bf04c998db9ee31732c12cbb64736f6c63430008130033",
  "linkReferences": {},
  "deployedLinkReferences": {}
}