{
  "_format": "hh-sol-artifact-1",
  "contractName": "ERC1155Prize",
  "sourceName": "contracts/ERC1155Prize.sol",
  "abi": [
    {
      "inputs": [
        {
          "internalType": "address",
          "name": "_factory",
          "type": "address"
        }
      ],
      "stateMutability": "nonpayable",
      "type": "constructor"
    },
    {
      "inputs": [],
      "name": "ExceedsMaxSupply",
      "type": "error"
    },
    {
      "inputs": [],
      "name": "SupplyNotSet",
      "type": "error"
    },
    {
      "inputs": [],
      "name": "UnauthorizedMinter",
      "type": "error"
    },
    {
      "anonymous": false,
      "inputs": [
        {
          "indexed": true,
          "internalType": "address",
          "name": "account",
          "type": "address"
        },
        {
          "indexed": true,
          "internalType": "address",
          "name": "operator",
          "type": "address"
        },
        {
          "indexed": false,
          "internalType": "bool",
          "name": "approved",
          "type": "bool"
        }
      ],
      "name": "ApprovalForAll",
      "type": "event"
    },
    {
      "anonymous": false,
      "inputs": [
        {
          "indexed": false,
          "internalType": "string",
          "name": "newBaseURI",
          "type": "string"
        }
      ],
      "name": "BaseURIUpdated",
      "type": "event"
    },
    {
      "anonymous": false,
      "inputs": [],
      "name": "CollectionRevealed",
      "type": "event"
    },
    {
      "anonymous": false,
      "inputs": [
        {
          "indexed": true,
          "internalType": "address",
          "name": "minter",
          "type": "address"
        },
        {
          "indexed": true,
          "internalType": "uint256",
          "name": "tokenId",
          "type": "uint256"
        },
        {
          "indexed": false,
          "internalType": "uint256",
          "name": "amount",
          "type": "uint256"
        }
      ],
      "name": "CreatorAllocationClaimed",
      "type": "event"
    },
    {
      "anonymous": false,
      "inputs": [
        {
          "indexed": true,
          "internalType": "uint256",
          "name": "tokenId",
          "type": "uint256"
        },
        {
          "indexed": false,
          "internalType": "uint256",
          "name": "allocation",
          "type": "uint256"
        }
      ],
      "name": "CreatorAllocationDeclared",
      "type": "event"
    },
    {
      "anonymous": false,
      "inputs": [],
      "name": "EmergencyBypassDisabled",
      "type": "event"
    },
    {
      "anonymous": false,
      "inputs": [],
      "name": "EmergencyBypassEnabled",
      "type": "event"
    },
    {
      "anonymous": false,
      "inputs": [
        {
          "indexed": true,
          "internalType": "address",
          "name": "kol",
          "type": "address"
        },
        {
          "indexed": false,
          "internalType": "uint256",
          "name": "poolLimit",
          "type": "uint256"
        },
        {
          "indexed": false,
          "internalType": "uint256",
          "name": "enforcedSlotFee",
          "type": "uint256"
        },
        {
          "indexed": false,
          "internalType": "uint256",
          "name": "winnerLimit",
          "type": "uint256"
        }
      ],
      "name": "KOLApproved",
      "type": "event"
    },
    {
      "anonymous": false,
      "inputs": [
        {
          "indexed": true,
          "internalType": "address",
          "name": "kol",
          "type": "address"
        },
        {
          "indexed": true,
          "internalType": "address",
          "name": "pool",
          "type": "address"
        }
      ],
      "name": "KOLPoolCreated",
      "type": "event"
    },
    {
      "anonymous": false,
      "inputs": [
        {
          "indexed": true,
          "internalType": "address",
          "name": "kol",
          "type": "address"
        }
      ],
      "name": "KOLRevoked",
      "type": "event"
    },
    {
      "anonymous": false,
      "inputs": [
        {
          "indexed": true,
          "internalType": "address",
          "name": "marketplace",
          "type": "address"
        }
      ],
      "name": "MarketplaceAdded",
      "type": "event"
    },
    {
      "anonymous": false,
      "inputs": [
        {
          "indexed": true,
          "internalType": "address",
          "name": "marketplace",
          "type": "address"
        }
      ],
      "name": "MarketplaceRemoved",
      "type": "event"
    },
    {
      "anonymous": false,
      "inputs": [],
      "name": "MinterApprovalLocked",
      "type": "event"
    },
    {
      "anonymous": false,
      "inputs": [],
      "name": "MinterApprovalUnlocked",
      "type": "event"
    },
    {
      "anonymous": false,
      "inputs": [
        {
          "indexed": true,
          "internalType": "uint256",
          "name": "tokenId",
          "type": "uint256"
        },
        {
          "indexed": false,
          "internalType": "uint256",
          "name": "maxSupply",
          "type": "uint256"
        }
      ],
      "name": "NewTokenAdded",
      "type": "event"
    },
    {
      "anonymous": false,
      "inputs": [
        {
          "indexed": true,
          "internalType": "address",
          "name": "previousOwner",
          "type": "address"
        },
        {
          "indexed": true,
          "internalType": "address",
          "name": "newOwner",
          "type": "address"
        }
      ],
      "name": "OwnershipTransferred",
      "type": "event"
    },
    {
      "anonymous": false,
      "inputs": [
        {
          "indexed": true,
          "internalType": "address",
          "name": "minter",
          "type": "address"
        },
        {
          "indexed": true,
          "internalType": "uint256",
          "name": "tokenId",
          "type": "uint256"
        },
        {
          "indexed": false,
          "internalType": "uint256",
          "name": "amount",
          "type": "uint256"
        }
      ],
      "name": "PrizeMinted",
      "type": "event"
    },
    {
      "anonymous": false,
      "inputs": [
        {
          "indexed": true,
          "internalType": "address",
          "name": "account",
          "type": "address"
        },
        {
          "indexed": false,
          "internalType": "bool",
          "name": "exempt",
          "type": "bool"
        }
      ],
      "name": "RoyaltyEnforcementExemptionUpdated",
      "type": "event"
    },
    {
      "anonymous": false,
      "inputs": [
        {
          "indexed": false,
          "internalType": "bool",
          "name": "enabled",
          "type": "bool"
        }
      ],
      "name": "RoyaltyEnforcementToggled",
      "type": "event"
    },
    {
      "anonymous": false,
      "inputs": [
        {
          "indexed": true,
          "internalType": "uint256",
          "name": "tokenId",
          "type": "uint256"
        },
        {
          "indexed": false,
          "internalType": "uint256",
          "name": "newMaxSupply",
          "type": "uint256"
        },
        {
          "indexed": false,
          "internalType": "uint256",
          "name": "newCreatorAllocation",
          "type": "uint256"
        }
      ],
      "name": "SupplyReduced",
      "type": "event"
    },
    {
      "anonymous": false,
      "inputs": [
        {
          "indexed": true,
          "internalType": "address",
          "name": "operator",
          "type": "address"
        },
        {
          "indexed": true,
          "internalType": "address",
          "name": "from",
          "type": "address"
        },
        {
          "indexed": true,
          "internalType": "address",
          "name": "to",
          "type": "address"
        },
        {
          "indexed": false,
          "internalType": "uint256[]",
          "name": "ids",
          "type": "uint256[]"
        },
        {
          "indexed": false,
          "internalType": "uint256[]",
          "name": "values",
          "type": "uint256[]"
        }
      ],
      "name": "TransferBatch",
      "type": "event"
    },
    {
      "anonymous": false,
      "inputs": [
        {
          "indexed": true,
          "internalType": "address",
          "name": "operator",
          "type": "address"
        },
        {
          "indexed": true,
          "internalType": "address",
          "name": "from",
          "type": "address"
        },
        {
          "indexed": true,
          "internalType": "address",
          "name": "to",
          "type": "address"
        },
        {
          "indexed": false,
          "internalType": "uint256",
          "name": "id",
          "type": "uint256"
        },
        {
          "indexed": false,
          "internalType": "uint256",
          "name": "value",
          "type": "uint256"
        }
      ],
      "name": "TransferSingle",
      "type": "event"
    },
    {
      "anonymous": false,
      "inputs": [
        {
          "indexed": false,
          "internalType": "string",
          "name": "value",
          "type": "string"
        },
        {
          "indexed": true,
          "internalType": "uint256",
          "name": "id",
          "type": "uint256"
        }
      ],
      "name": "URI",
      "type": "event"
    },
    {
      "anonymous": false,
      "inputs": [
        {
          "indexed": true,
          "internalType": "uint256",
          "name": "tokenId",
          "type": "uint256"
        },
        {
          "indexed": false,
          "internalType": "string",
          "name": "newURI",
          "type": "string"
        }
      ],
      "name": "URIUpdated",
      "type": "event"
    },
    {
      "anonymous": false,
      "inputs": [
        {
          "indexed": true,
          "internalType": "uint256",
          "name": "tokenId",
          "type": "uint256"
        },
        {
          "indexed": false,
          "internalType": "uint256",
          "name": "cliffEnd",
          "type": "uint256"
        },
        {
          "indexed": false,
          "internalType": "uint256",
          "name": "numberOfUnlocks",
          "type": "uint256"
        },
        {
          "indexed": false,
          "internalType": "uint256",
          "name": "durationBetweenUnlocks",
          "type": "uint256"
        },
        {
          "indexed": false,
          "internalType": "uint256",
          "name": "amountPerUnlock",
          "type": "uint256"
        }
      ],
      "name": "VestingConfiguredForToken",
      "type": "event"
    },
    {
      "inputs": [
        {
          "internalType": "address",
          "name": "marketplace",
          "type": "address"
        }
      ],
      "name": "addAllowedMarketplace",
      "outputs": [],
      "stateMutability": "nonpayable",
      "type": "function"
    },
    {
      "inputs": [
        {
          "internalType": "address",
          "name": "_kol",
          "type": "address"
        },
        {
          "internalType": "uint256",
          "name": "_poolLimit",
          "type": "uint256"
        },
        {
          "internalType": "uint256",
          "name": "_enforcedSlotFee",
          "type": "uint256"
        },
        {
          "internalType": "uint256",
          "name": "_winnerLimit",
          "type": "uint256"
        }
      ],
      "name": "approveKOL",
      "outputs": [],
      "stateMutability": "nonpayable",
      "type": "function"
    },
    {
      "inputs": [
        {
          "internalType": "uint256",
          "name": "id",
          "type": "uint256"
        }
      ],
      "name": "availableSupply",
      "outputs": [
        {
          "internalType": "uint256",
          "name": "",
          "type": "uint256"
        }
      ],
      "stateMutability": "view",
      "type": "function"
    },
    {
      "inputs": [
        {
          "internalType": "address",
          "name": "account",
          "type": "address"
        },
        {
          "internalType": "uint256",
          "name": "id",
          "type": "uint256"
        }
      ],
      "name": "balanceOf",
      "outputs": [
        {
          "internalType": "uint256",
          "name": "",
          "type": "uint256"
        }
      ],
      "stateMutability": "view",
      "type": "function"
    },
    {
      "inputs": [
        {
          "internalType": "address[]",
          "name": "accounts",
          "type": "address[]"
        },
        {
          "internalType": "uint256[]",
          "name": "ids",
          "type": "uint256[]"
        }
      ],
      "name": "balanceOfBatch",
      "outputs": [
        {
          "internalType": "uint256[]",
          "name": "",
          "type": "uint256[]"
        }
      ],
      "stateMutability": "view",
      "type": "function"
    },
    {
      "inputs": [
        {
          "internalType": "uint256",
          "name": "tokenId",
          "type": "uint256"
        },
        {
          "internalType": "uint256",
          "name": "cliffEnd",
          "type": "uint256"
        },
        {
          "internalType": "uint256",
          "name": "numberOfUnlocks",
          "type": "uint256"
        },
        {
          "internalType": "uint256",
          "name": "durationBetweenUnlocks",
          "type": "uint256"
        }
      ],
      "name": "configureCreatorVesting",
      "outputs": [],
      "stateMutability": "nonpayable",
      "type": "function"
    },
    {
      "inputs": [
        {
          "internalType": "uint256",
          "name": "_tokenId",
          "type": "uint256"
        },
        {
          "internalType": "uint256",
          "name": "_maxSupply",
          "type": "uint256"
        }
      ],
      "name": "createNewToken",
      "outputs": [],
      "stateMutability": "nonpayable",
      "type": "function"
    },
    {
      "inputs": [
        {
          "internalType": "uint256",
          "name": "",
          "type": "uint256"
        }
      ],
      "name": "creatorAllocation",
      "outputs": [
        {
          "internalType": "uint256",
          "name": "",
          "type": "uint256"
        }
      ],
      "stateMutability": "view",
      "type": "function"
    },
    {
      "inputs": [
        {
          "internalType": "uint256",
          "name": "",
          "type": "uint256"
        }
      ],
      "name": "creatorAllocationDeclared",
      "outputs": [
        {
          "internalType": "bool",
          "name": "",
          "type": "bool"
        }
      ],
      "stateMutability": "view",
      "type": "function"
    },
    {
      "inputs": [
        {
          "internalType": "uint256",
          "name": "",
          "type": "uint256"
        }
      ],
      "name": "creatorClaimedCount",
      "outputs": [
        {
          "internalType": "uint256",
          "name": "",
          "type": "uint256"
        }
      ],
      "stateMutability": "view",
      "type": "function"
    },
    {
      "inputs": [
        {
          "internalType": "address",
          "name": "to",
          "type": "address"
        },
        {
          "internalType": "uint256",
          "name": "id",
          "type": "uint256"
        },
        {
          "internalType": "uint256",
          "name": "quantity",
          "type": "uint256"
        }
      ],
      "name": "creatorMint",
      "outputs": [],
      "stateMutability": "nonpayable",
      "type": "function"
    },
    {
      "inputs": [
        {
          "internalType": "uint256",
          "name": "tokenId",
          "type": "uint256"
        },
        {
          "internalType": "uint256",
          "name": "_percentage",
          "type": "uint256"
        }
      ],
      "name": "cutSupply",
      "outputs": [],
      "stateMutability": "nonpayable",
      "type": "function"
    },
    {
      "inputs": [
        {
          "internalType": "uint256",
          "name": "tokenId",
          "type": "uint256"
        },
        {
          "internalType": "uint256",
          "name": "_percentage",
          "type": "uint256"
        }
      ],
      "name": "declareCreatorAllocation",
      "outputs": [],
      "stateMutability": "nonpayable",
      "type": "function"
    },
    {
      "inputs": [],
      "name": "disableEmergencyBypass",
      "outputs": [],
      "stateMutability": "nonpayable",
      "type": "function"
    },
    {
      "inputs": [],
      "name": "emergencyBypassEnabled",
      "outputs": [
        {
          "internalType": "bool",
          "name": "",
          "type": "bool"
        }
      ],
      "stateMutability": "view",
      "type": "function"
    },
    {
      "inputs": [],
      "name": "enableEmergencyBypass",
      "outputs": [],
      "stateMutability": "nonpayable",
      "type": "function"
    },
    {
      "inputs": [
        {
          "internalType": "uint256",
          "name": "id",
          "type": "uint256"
        }
      ],
      "name": "exists",
      "outputs": [
        {
          "internalType": "bool",
          "name": "",
          "type": "bool"
        }
      ],
      "stateMutability": "view",
      "type": "function"
    },
    {
      "inputs": [],
      "name": "getAllTokenIds",
      "outputs": [
        {
          "internalType": "uint256[]",
          "name": "",
          "type": "uint256[]"
        }
      ],
      "stateMutability": "view",
      "type": "function"
    },
    {
      "inputs": [
        {
          "internalType": "uint256",
          "name": "tokenId",
          "type": "uint256"
        }
      ],
      "name": "getAvailableCreatorMint",
      "outputs": [
        {
          "internalType": "uint256",
          "name": "",
          "type": "uint256"
        }
      ],
      "stateMutability": "view",
      "type": "function"
    },
    {
      "inputs": [],
      "name": "getCollectionStats",
      "outputs": [
        {
          "internalType": "uint256",
          "name": "totalTokenTypes",
          "type": "uint256"
        },
        {
          "internalType": "uint256",
          "name": "totalTokensMinted",
          "type": "uint256"
        }
      ],
      "stateMutability": "view",
      "type": "function"
    },
    {
      "inputs": [
        {
          "internalType": "address",
          "name": "_kol",
          "type": "address"
        }
      ],
      "name": "getKOLApprovalDetails",
      "outputs": [
        {
          "internalType": "bool",
          "name": "approved",
          "type": "bool"
        },
        {
          "internalType": "uint256",
          "name": "poolLimit",
          "type": "uint256"
        },
        {
          "internalType": "uint256",
          "name": "enforcedSlotFee",
          "type": "uint256"
        },
        {
          "internalType": "uint256",
          "name": "winnerLimit",
          "type": "uint256"
        },
        {
          "internalType": "uint256",
          "name": "poolCount",
          "type": "uint256"
        },
        {
          "internalType": "uint256",
          "name": "winnerCount",
          "type": "uint256"
        }
      ],
      "stateMutability": "view",
      "type": "function"
    },
    {
      "inputs": [
        {
          "internalType": "uint256",
          "name": "tokenId",
          "type": "uint256"
        }
      ],
      "name": "getTokenInfo",
      "outputs": [
        {
          "internalType": "uint256",
          "name": "maxSupply_",
          "type": "uint256"
        },
        {
          "internalType": "uint256",
          "name": "currentSupply_",
          "type": "uint256"
        },
        {
          "internalType": "bool",
          "name": "exists_",
          "type": "bool"
        }
      ],
      "stateMutability": "view",
      "type": "function"
    },
    {
      "inputs": [
        {
          "internalType": "uint256",
          "name": "tokenId",
          "type": "uint256"
        }
      ],
      "name": "getUnlockedAmount",
      "outputs": [
        {
          "internalType": "uint256",
          "name": "",
          "type": "uint256"
        }
      ],
      "stateMutability": "view",
      "type": "function"
    },
    {
      "inputs": [],
      "name": "getUnrevealedURI",
      "outputs": [
        {
          "internalType": "string",
          "name": "",
          "type": "string"
        }
      ],
      "stateMutability": "view",
      "type": "function"
    },
    {
      "inputs": [
        {
          "internalType": "address",
          "name": "_kol",
          "type": "address"
        },
        {
          "internalType": "uint256",
          "name": "_winnersCount",
          "type": "uint256"
        }
      ],
      "name": "incrementKOLApprovedCounts",
      "outputs": [],
      "stateMutability": "nonpayable",
      "type": "function"
    },
    {
      "inputs": [
        {
          "internalType": "string",
          "name": "uri_",
          "type": "string"
        },
        {
          "internalType": "address",
          "name": "initialOwner",
          "type": "address"
        },
        {
          "internalType": "uint256",
          "name": "_royaltyPercentage",
          "type": "uint256"
        },
        {
          "internalType": "address",
          "name": "_royaltyRecipient",
          "type": "address"
        },
        {
          "internalType": "address",
          "name": "_protocolManager",
          "type": "address"
        },
        {
          "internalType": "uint256",
          "name": "_prizeTokenId",
          "type": "uint256"
        },
        {
          "internalType": "uint256",
          "name": "_prizeMaxSupply",
          "type": "uint256"
        },
        {
          "internalType": "enum PrizeTypes.RevealType",
          "name": "_revealType",
          "type": "uint8"
        },
        {
          "internalType": "string",
          "name": "_unrevealedURI",
          "type": "string"
        },
        {
          "internalType": "uint256",
          "name": "_revealTime",
          "type": "uint256"
        },
        {
          "internalType": "address",
          "name": "preApprovedMinter",
          "type": "address"
        }
      ],
      "name": "initialize",
      "outputs": [],
      "stateMutability": "nonpayable",
      "type": "function"
    },
    {
      "inputs": [
        {
          "internalType": "address",
          "name": "account",
          "type": "address"
        },
        {
          "internalType": "address",
          "name": "operator",
          "type": "address"
        }
      ],
      "name": "isApprovedForAll",
      "outputs": [
        {
          "internalType": "bool",
          "name": "",
          "type": "bool"
        }
      ],
      "stateMutability": "view",
      "type": "function"
    },
    {
      "inputs": [
        {
          "internalType": "address",
          "name": "marketplace",
          "type": "address"
        }
      ],
      "name": "isMarketplaceAllowed",
      "outputs": [
        {
          "internalType": "bool",
          "name": "",
          "type": "bool"
        }
      ],
      "stateMutability": "view",
      "type": "function"
    },
    {
      "inputs": [],
      "name": "isRevealed",
      "outputs": [
        {
          "internalType": "bool",
          "name": "",
          "type": "bool"
        }
      ],
      "stateMutability": "view",
      "type": "function"
    },
    {
      "inputs": [
        {
          "internalType": "address",
          "name": "account",
          "type": "address"
        }
      ],
      "name": "isRoyaltyEnforcementExempt",
      "outputs": [
        {
          "internalType": "bool",
          "name": "",
          "type": "bool"
        }
      ],
      "stateMutability": "view",
      "type": "function"
    },
    {
      "inputs": [
        {
          "internalType": "address",
          "name": "",
          "type": "address"
        }
      ],
      "name": "kolApprovals",
      "outputs": [
        {
          "internalType": "bool",
          "name": "approved",
          "type": "bool"
        },
        {
          "internalType": "uint256",
          "name": "poolLimit",
          "type": "uint256"
        },
        {
          "internalType": "uint256",
          "name": "enforcedSlotFee",
          "type": "uint256"
        },
        {
          "internalType": "uint256",
          "name": "winnerLimit",
          "type": "uint256"
        },
        {
          "internalType": "uint256",
          "name": "poolCount",
          "type": "uint256"
        },
        {
          "internalType": "uint256",
          "name": "winnerCount",
          "type": "uint256"
        }
      ],
      "stateMutability": "view",
      "type": "function"
    },
    {
      "inputs": [],
      "name": "lockMinterApproval",
      "outputs": [],
      "stateMutability": "nonpayable",
      "type": "function"
    },
    {
      "inputs": [
        {
          "internalType": "uint256",
          "name": "",
          "type": "uint256"
        }
      ],
      "name": "maxSupply",
      "outputs": [
        {
          "internalType": "uint256",
          "name": "",
          "type": "uint256"
        }
      ],
      "stateMutability": "view",
      "type": "function"
    },
    {
      "inputs": [
        {
          "internalType": "address",
          "name": "to",
          "type": "address"
        },
        {
          "internalType": "uint256",
          "name": "id",
          "type": "uint256"
        },
        {
          "internalType": "uint256",
          "name": "amount",
          "type": "uint256"
        }
      ],
      "name": "mint",
      "outputs": [],
      "stateMutability": "nonpayable",
      "type": "function"
    },
    {
      "inputs": [],
      "name": "minter",
      "outputs": [
        {
          "internalType": "address",
          "name": "",
          "type": "address"
        }
      ],
      "stateMutability": "view",
      "type": "function"
    },
    {
      "inputs": [],
      "name": "minterLocked",
      "outputs": [
        {
          "internalType": "bool",
          "name": "",
          "type": "bool"
        }
      ],
      "stateMutability": "view",
      "type": "function"
    },
    {
      "inputs": [
        {
          "internalType": "address",
          "name": "",
          "type": "address"
        },
        {
          "internalType": "address",
          "name": "",
          "type": "address"
        },
        {
          "internalType": "uint256[]",
          "name": "",
          "type": "uint256[]"
        },
        {
          "internalType": "uint256[]",
          "name": "",
          "type": "uint256[]"
        },
        {
          "internalType": "bytes",
          "name": "",
          "type": "bytes"
        }
      ],
      "name": "onERC1155BatchReceived",
      "outputs": [
        {
          "internalType": "bytes4",
          "name": "",
          "type": "bytes4"
        }
      ],
      "stateMutability": "pure",
      "type": "function"
    },
    {
      "inputs": [
        {
          "internalType": "address",
          "name": "",
          "type": "address"
        },
        {
          "internalType": "address",
          "name": "",
          "type": "address"
        },
        {
          "internalType": "uint256",
          "name": "",
          "type": "uint256"
        },
        {
          "internalType": "uint256",
          "name": "",
          "type": "uint256"
        },
        {
          "internalType": "bytes",
          "name": "",
          "type": "bytes"
        }
      ],
      "name": "onERC1155Received",
      "outputs": [
        {
          "internalType": "bytes4",
          "name": "",
          "type": "bytes4"
        }
      ],
      "stateMutability": "pure",
      "type": "function"
    },
    {
      "inputs": [],
      "name": "owner",
      "outputs": [
        {
          "internalType": "address",
          "name": "",
          "type": "address"
        }
      ],
      "stateMutability": "view",
      "type": "function"
    },
    {
      "inputs": [],
      "name": "protocolManager",
      "outputs": [
        {
          "internalType": "address",
          "name": "",
          "type": "address"
        }
      ],
      "stateMutability": "view",
      "type": "function"
    },
    {
      "inputs": [
        {
          "internalType": "address",
          "name": "newMinter",
          "type": "address"
        }
      ],
      "name": "reassignAndLockMinter",
      "outputs": [],
      "stateMutability": "nonpayable",
      "type": "function"
    },
    {
      "inputs": [
        {
          "internalType": "address",
          "name": "marketplace",
          "type": "address"
        }
      ],
      "name": "removeAllowedMarketplace",
      "outputs": [],
      "stateMutability": "nonpayable",
      "type": "function"
    },
    {
      "inputs": [],
      "name": "renounceOwnership",
      "outputs": [],
      "stateMutability": "nonpayable",
      "type": "function"
    },
    {
      "inputs": [],
      "name": "reveal",
      "outputs": [],
      "stateMutability": "nonpayable",
      "type": "function"
    },
    {
      "inputs": [],
      "name": "revealTime",
      "outputs": [
        {
          "internalType": "uint256",
          "name": "",
          "type": "uint256"
        }
      ],
      "stateMutability": "view",
      "type": "function"
    },
    {
      "inputs": [],
      "name": "revealType",
      "outputs": [
        {
          "internalType": "enum PrizeTypes.RevealType",
          "name": "",
          "type": "uint8"
        }
      ],
      "stateMutability": "view",
      "type": "function"
    },
    {
      "inputs": [
        {
          "internalType": "address",
          "name": "_kol",
          "type": "address"
        }
      ],
      "name": "revokeKOL",
      "outputs": [],
      "stateMutability": "nonpayable",
      "type": "function"
    },
    {
      "inputs": [],
      "name": "royaltyEnforcementEnabled",
      "outputs": [
        {
          "internalType": "bool",
          "name": "",
          "type": "bool"
        }
      ],
      "stateMutability": "view",
      "type": "function"
    },
    {
      "inputs": [
        {
          "internalType": "uint256",
          "name": "",
          "type": "uint256"
        },
        {
          "internalType": "uint256",
          "name": "salePrice",
          "type": "uint256"
        }
      ],
      "name": "royaltyInfo",
      "outputs": [
        {
          "internalType": "address",
          "name": "",
          "type": "address"
        },
        {
          "internalType": "uint256",
          "name": "",
          "type": "uint256"
        }
      ],
      "stateMutability": "view",
      "type": "function"
    },
    {
      "inputs": [],
      "name": "royaltyPercentage",
      "outputs": [
        {
          "internalType": "uint256",
          "name": "",
          "type": "uint256"
        }
      ],
      "stateMutability": "view",
      "type": "function"
    },
    {
      "inputs": [],
      "name": "royaltyRecipient",
      "outputs": [
        {
          "internalType": "address",
          "name": "",
          "type": "address"
        }
      ],
      "stateMutability": "view",
      "type": "function"
    },
    {
      "inputs": [
        {
          "internalType": "address",
          "name": "from",
          "type": "address"
        },
        {
          "internalType": "address",
          "name": "to",
          "type": "address"
        },
        {
          "internalType": "uint256[]",
          "name": "ids",
          "type": "uint256[]"
        },
        {
          "internalType": "uint256[]",
          "name": "amounts",
          "type": "uint256[]"
        },
        {
          "internalType": "bytes",
          "name": "data",
          "type": "bytes"
        }
      ],
      "name": "safeBatchTransferFrom",
      "outputs": [],
      "stateMutability": "nonpayable",
      "type": "function"
    },
    {
      "inputs": [
        {
          "internalType": "address",
          "name": "from",
          "type": "address"
        },
        {
          "internalType": "address",
          "name": "to",
          "type": "address"
        },
        {
          "internalType": "uint256",
          "name": "id",
          "type": "uint256"
        },
        {
          "internalType": "uint256",
          "name": "amount",
          "type": "uint256"
        },
        {
          "internalType": "bytes",
          "name": "data",
          "type": "bytes"
        }
      ],
      "name": "safeTransferFrom",
      "outputs": [],
      "stateMutability": "nonpayable",
      "type": "function"
    },
    {
      "inputs": [
        {
          "internalType": "address",
          "name": "operator",
          "type": "address"
        },
        {
          "internalType": "bool",
          "name": "approved",
          "type": "bool"
        }
      ],
      "name": "setApprovalForAll",
      "outputs": [],
      "stateMutability": "nonpayable",
      "type": "function"
    },
    {
      "inputs": [
        {
          "internalType": "string",
          "name": "newBaseURI",
          "type": "string"
        }
      ],
      "name": "setBaseURI",
      "outputs": [],
      "stateMutability": "nonpayable",
      "type": "function"
    },
    {
      "inputs": [
        {
          "internalType": "address",
          "name": "_minter",
          "type": "address"
        },
        {
          "internalType": "bool",
          "name": "approved",
          "type": "bool"
        }
      ],
      "name": "setMinterApproval",
      "outputs": [],
      "stateMutability": "nonpayable",
      "type": "function"
    },
    {
      "inputs": [
        {
          "internalType": "uint256",
          "name": "_royaltyPercentage",
          "type": "uint256"
        },
        {
          "internalType": "address",
          "name": "_royaltyRecipient",
          "type": "address"
        }
      ],
      "name": "setRoyalty",
      "outputs": [],
      "stateMutability": "nonpayable",
      "type": "function"
    },
    {
      "inputs": [
        {
          "internalType": "address",
          "name": "account",
          "type": "address"
        },
        {
          "internalType": "bool",
          "name": "exempt",
          "type": "bool"
        }
      ],
      "name": "setRoyaltyEnforcementExemption",
      "outputs": [],
      "stateMutability": "nonpayable",
      "type": "function"
    },
    {
      "inputs": [
        {
          "internalType": "uint256",
          "name": "_tokenId",
          "type": "uint256"
        },
        {
          "internalType": "string",
          "name": "_uri",
          "type": "string"
        }
      ],
      "name": "setURI",
      "outputs": [],
      "stateMutability": "nonpayable",
      "type": "function"
    },
    {
      "inputs": [
        {
          "internalType": "bytes4",
          "name": "interfaceId",
          "type": "bytes4"
        }
      ],
      "name": "supportsInterface",
      "outputs": [
        {
          "internalType": "bool",
          "name": "",
          "type": "bool"
        }
      ],
      "stateMutability": "view",
      "type": "function"
    },
    {
      "inputs": [
        {
          "internalType": "bool",
          "name": "enabled",
          "type": "bool"
        }
      ],
      "name": "toggleRoyaltyEnforcement",
      "outputs": [],
      "stateMutability": "nonpayable",
      "type": "function"
    },
    {
      "inputs": [
        {
          "internalType": "uint256",
          "name": "",
          "type": "uint256"
        }
      ],
      "name": "tokenCreationTime",
      "outputs": [
        {
          "internalType": "uint256",
          "name": "",
          "type": "uint256"
        }
      ],
      "stateMutability": "view",
      "type": "function"
    },
    {
      "inputs": [
        {
          "internalType": "uint256",
          "name": "id",
          "type": "uint256"
        }
      ],
      "name": "totalSupply",
      "outputs": [
        {
          "internalType": "uint256",
          "name": "",
          "type": "uint256"
        }
      ],
      "stateMutability": "view",
      "type": "function"
    },
    {
      "inputs": [
        {
          "internalType": "address",
          "name": "newOwner",
          "type": "address"
        }
      ],
      "name": "transferOwnership",
      "outputs": [],
      "stateMutability": "nonpayable",
      "type": "function"
    },
    {
      "inputs": [],
      "name": "unlockMinterApproval",
      "outputs": [],
      "stateMutability": "nonpayable",
      "type": "function"
    },
    {
      "inputs": [],
      "name": "unrevealedURI",
      "outputs": [
        {
          "internalType": "string",
          "name": "",
          "type": "string"
        }
      ],
      "stateMutability": "view",
      "type": "function"
    },
    {
      "inputs": [
        {
          "internalType": "uint256",
          "name": "_tokenId",
          "type": "uint256"
        }
      ],
      "name": "uri",
      "outputs": [
        {
          "internalType": "string",
          "name": "",
          "type": "string"
        }
      ],
      "stateMutability": "view",
      "type": "function"
    },
    {
      "inputs": [
        {
          "internalType": "uint256",
          "name": "",
          "type": "uint256"
        }
      ],
      "name": "vestingConfig",
      "outputs": [
        {
          "internalType": "uint256",
          "name": "cliffEnd",
          "type": "uint256"
        },
        {
          "internalType": "uint256",
          "name": "numberOfUnlocks",
          "type": "uint256"
        },
        {
          "internalType": "uint256",
          "name": "durationBetweenUnlocks",
          "type": "uint256"
        },
        {
          "internalType": "uint256",
          "name": "amountPerUnlock",
          "type": "uint256"
        }
      ],
      "stateMutability": "view",
      "type": "function"
    },
    {
      "inputs": [
        {
          "internalType": "uint256",
          "name": "",
          "type": "uint256"
        }
      ],
      "name": "vestingConfigured",
      "outputs": [
        {
          "internalType": "bool",
          "name": "",
          "type": "bool"
        }
      ],
      "stateMutability": "view",
      "type": "function"
    },
    {
      "inputs": [
        {
          "internalType": "address",
          "name": "",
          "type": "address"
        },
        {
          "internalType": "uint256",
          "name": "",
          "type": "uint256"
        }
      ],
      "name": "walletMintedCount",
      "outputs": [
        {
          "internalType": "uint256",
          "name": "",
          "type": "uint256"
        }
      ],
      "stateMutability": "view",
      "type": "function"
    }
  ],
  "bytecode": "0x60a0346200017f576001600160401b0390601f62005d3138819003918201601f19168301918483118484101762000169578084926020946040528339810103126200017f57516001600160a01b039182821682036200017f5760405190602082019081118282101762000169576040526000809152600254906001918281811c911680156200015e575b60208210146200014a57601f8111620000fc575b5080600255600454903360018060a01b03198316176004557f8be0079c531659141344cd1fd0a4f28419497f9722a3daafe3b4186f6b6457e0604051953393169180a3600555608052615bac9081620001858239608051816137860152f35b60028252601f0160051c7f405787fa12a823e0f2b7631cc41b3ba8828b3321ca811111fa75cd3aa3bb5ace9081019083905b8281106200013e5750506200009d565b8381550183906200012e565b634e487b7160e01b82526022600452602482fd5b90607f169062000089565b634e487b7160e01b600052604160045260246000fd5b600080fdfe6080604052600436101561001257600080fd5b60003560e01c8062fdd58e1461047157806301ffc9a71461046c57806307546172146104675780630de54ba0146104625780630e89341c1461045d578063101224881461045857806310c7e4a214610453578063156e29f61461044e57806317f63979146104495780631c382589146104445780631fc3689b1461043f57806321e8b17e1461043a57806324e0eba9146104355780632633f8b11461043057806329a77e261461042b5780632a55205a146104265780632eb2c2d61461042157806340e3276b1461041c5780634c00de82146104175780634e1273f4146104125780634f14ec3f1461040d5780634f558e791461040857806353cb5d511461040357806354214f69146103fe57806355f804b3146103f95780635894bd51146103f457806366407781146103ea57806369d42c5e146103ef5780637035bf18146103ea578063715018a6146103e557806371c33359146103e057806383e46c56146103db578063862440e2146103d6578063869f7594146103d15780638a71bb2d146103cc5780638be6dc1d146103c75780638c7a63ae146103c25780638da5cb5b146103bd57806397c82b66146103b85780639f4e3c47146103b3578063a22cb465146103ae578063a2af294f146103a9578063a475b5dd146103a4578063a9c989dc1461039f578063ab4b66921461039a578063ae0f954414610395578063b5f1f24714610390578063ba829d711461038b578063bc197c8114610386578063bcaa7f0014610381578063bd85b0391461037c578063bdbed72214610377578063bea9cd6514610372578063cc54cce31461036d578063cdfaee4e14610368578063cee8e0fe14610363578063d0aa96c01461035e578063d5c32ca414610359578063d7e1a40014610354578063dc817c2e1461034f578063e377b67c1461034a578063e642d3b114610345578063e8834c4814610340578063e985e9c51461033b578063f23a6e6114610336578063f242432a14610331578063f2fde38b1461032c578063faf5a12414610327578063fbddc055146103225763fcf2e55f1461031d57600080fd5b6130fa565b613073565b612e59565b612dc8565b612d0d565b612cb3565b612c4b565b612b68565b612b37565b612aec565b612a21565b6129d2565b6129b4565b612954565b612931565b612913565b6128f0565b61285b565b6127b4565b612788565b612651565b6125c2565b612547565b6123fa565b612198565b61216f565b612143565b61202d565b612003565b611e99565b611e7b565b611d8e565b611d65565b611d20565b611cf4565b611cd6565b611caa565b611b2f565b611b0c565b611aca565b611a6c565b611834565b611850565b6117af565b611745565b611722565b611595565b611567565b611465565b6113aa565b61133c565b6112a1565b611069565b610ed3565b610ea2565b610dce565b610d65565b610d39565b610b03565b6109e4565b61091b565b610813565b6107ae565b61070b565b6106d4565b6105f6565b61059b565b6104fb565b6104b6565b6001600160a01b0381160361048757565b600080fd5b6064359061049982610476565b565b6084359061049982610476565b610144359061049982610476565b346104875760403660031901126104875760206104e16004356104d881610476565b60243590613207565b604051908152f35b6001600160e01b031981160361048757565b3461048757602036600319011261048757602060043561051a816104e9565b63ffffffff60e01b1663152a902d60e11b811490811561058a575b8115610547575b506040519015158152f35b636cdb3d1360e11b811491508115610579575b8115610568575b503861053c565b6301ffc9a760e01b14905038610561565b6303a24d0760e21b8114915061055a565b630ab714fb60e11b81149150610535565b3461048757600036600319011261048757600e546040516001600160a01b039091168152602090f35b8015150361048757565b6040906003190112610487576004356105e681610476565b906024356105f3816105c4565b90565b3461048757610604366105ce565b61060c613166565b600260115416610649576000901561064257505b600e80546001600160a01b0319166001600160a01b0392909216919091179055005b9050610620565b60405162461bcd60e51b8152602060048201526012602482015271105c1c1c9bdd985b081a5cc81b1bd8dad95960721b6044820152606490fd5b919082519283825260005b8481106106af575050826000602080949584010152601f8019910116010190565b60208183018101518483018201520161068e565b9060206105f3928181520190610683565b34610487576020366003190112610487576107076106f360043561460c565b604051918291602083526020830190610683565b0390f35b34610487576020366003190112610487577ff4fe92c76f5b8827e8fd9eac2c7181b6b2c22b10543b969fa2d9a26cdcd56bd2602060043561074b816105c4565b610753613166565b80156107845760046011546001600160801b038116906001600160801b03191617176011555b6040519015158152a1005b6011546ffffffffffffffffffffffffffffffffb8116906001600160801b03191617601155610779565b34610487576020366003190112610487576004356107cb81610476565b60018060a01b0316600052600f602052602060ff604060002054166040519015158152f35b60609060031901126104875760043561080881610476565b906024359060443590565b3461048757610821366107f0565b909161082b6147bf565b600e54610848906001600160a01b03165b6001600160a01b031690565b330361090957610862836000526003602052604060002090565b5461087784600052600a602052604060002090565b549081156108f7578061088c8386931061473a565b01116108e5576108a69082846108a061479c565b92614815565b60405190815233907faafa1dbc87d0d4fc4b41b7ea689f27064944bce2e8d5dd922ba7c35a463606d89080602081015b0390a36108e36001600555565b005b60405163c30436e960e01b8152600490fd5b604051630fee82b160e01b8152600490fd5b60405163955c501b60e01b8152600490fd5b346104875760203660031901126104875760043561093881610476565b60018060a01b03166000526006602052604060002060405161095981610f25565b60ff825416151580825260a0600184015493846020850152600281015493846040820152600382015490816060820152600560048401549384608084015201549384910152836109da575b6107079394604051968796879260a094919796959260c08501981515855260208501526040840152606083015260808201520152565b80831093506109a4565b346104875760203660031901126104875760048035610a0281610476565b600954602090610a1c9061083c906001600160a01b031681565b60405163188c824d60e11b815293849182905afa918215610afe57610aa192610a7f91600091610ad0575b506001600160a01b0390610a5e9082163314615368565b600e54610a769082166001600160a01b0316156153a8565b82161515615405565b60018060a01b03166bffffffffffffffffffffffff60a01b600e541617600e55565b610aa9613a8c565b7fd5cb2e985e95fd394547f9c7ee44d15aeb87738279930d016adf6a6c3f1a25c1600080a1005b610af1915060203d8111610af7575b610ae98183610f45565b810190613aad565b38610a47565b503d610adf565b613ac2565b34610487576080366003190112610487576004357f088cab2409ca33ba4d1407cb6386b97a16192c0417c40ace27682534b193a0f7604435602435610cf4606435610b4c613166565b610b79610b74610b70610b69896000526017602052604060002090565b5460ff1690565b1590565b614a1f565b610b98610b9087600052600a602052604060002090565b541515614528565b610bb7610baf876000526016602052604060002090565b541515614a7d565b610bd6610bd1610b69886000526015602052604060002090565b614ac1565b610c5384610c4e610c49828a610c36610c2e610c28610bff846000526014602052604060002090565b54936101f4851015610cf957610c186002871015614c2c565b6000526016602052604060002090565b54613fe1565b8a1015614c83565b610c44610e10881015614ce8565b613ffe565b614d52565b6149ff565b90610cad610c5f610f66565b858152866020820152826040820152836060820152610c88896000526019602052604060002090565b9060606003918051845560208101516001850155604081015160028501550151910155565b610cd1610cc4886000526017602052604060002090565b805460ff19166001179055565b604051948594859094939260609260808301968352602083015260408201520152565b0390a2005b6103e8851015610d1557610d106004871015614bd2565b610c18565b6107d0851015610d2c57610d106008871015614b77565b610d106008871015614b1f565b346104875760203660031901126104875760043560005260166020526020604060002054604051908152f35b3461048757600080600319360112610dcb57610d7f613166565b6011546ffffffffffffffffffffffffffffffff78116906001600160801b031916176011557fa0e4442ee881786834ee773b9ed42c22dff390d3d3318996679777915e63be348180a180f35b80fd5b3461048757602036600319011261048757600435610deb81610476565b610df3613166565b6001600160a01b03811660008181526010602052604081205490929060ff1615610e5d576001600160a01b03166000908152601060205260409020805460ff191690557feac9a18305649744c83ff9f4d60058552b03f4e8df46a1cb28f7563fbd179b428280a280f35b60405162461bcd60e51b815260206004820152601f60248201527f4d61726b6574706c616365206e6f7420696e20616c6c6f776564206c697374006044820152606490fd5b34610487576020366003190112610487576004356000526015602052602060ff604060002054166040519015158152f35b3461048757604036600319011261048757604060018060a01b0360085416612710610f026007546024356149ec565b0482519182526020820152f35b634e487b7160e01b600052604160045260246000fd5b60c081019081106001600160401b03821117610f4057604052565b610f0f565b90601f801991011681019081106001600160401b03821117610f4057604052565b60405190608082018281106001600160401b03821117610f4057604052565b6040519061049982610f25565b6001600160401b038111610f405760051b60200190565b81601f8201121561048757803591610fc083610f92565b92610fce6040519485610f45565b808452602092838086019260051b820101928311610487578301905b828210610ff8575050505090565b81358152908301908301610fea565b6001600160401b038111610f4057601f01601f191660200190565b81601f820112156104875780359061103982611007565b926110476040519485610f45565b8284526020838301011161048757816000926020809301838601378301015290565b346104875760a03660031901126104875760043561108681610476565b6024359061109382610476565b6001600160401b0390604435828111610487576110b4903690600401610fa9565b91606435818111610487576110cd903690600401610fa9565b90608435908111610487576110e6903690600401611022565b926011546004811615159081611295575b508061127c575b61125d575b6001600160a01b038381169490338614801561123a575b61112390613cc8565b61113083518551146143c8565b861661113d811515613f28565b6111498484898861569a565b60005b83518110156111f657806111636111f19286613331565b516111ea6111e28b611197611178868c613331565b51948c6111d1876111ae83611197866000526000602052604060002090565b9060018060a01b0316600052602052604060002090565b546111bb82821015613f82565b0391611197846000526000602052604060002090565b556000526000602052604060002090565b918254613ffe565b905561330c565b61114c565b50938691946108e3966040517f4a39dc06d4c0dbc64b70af90fd698a233a518aa5d07e595d983b8c0526c8f7fb3391806112318a8a83614425565b0390a433614498565b50600086815260016020908152604080832033845290915290205460ff1661111a565b33600052601060205261127760ff60406000205416613c56565b611103565b5033600052600f60205260ff60406000205416156110fe565b600891501615386110f7565b34610487576040366003190112610487576024356004356112c182610476565b6112c9613166565b61271081116112f757600755600880546001600160a01b0319166001600160a01b0392909216919091179055005b60405162461bcd60e51b815260206004820152601a60248201527f526f79616c74792063616e6e6f742065786365656420313030250000000000006044820152606490fd5b34610487576000366003190112610487576008546040516001600160a01b039091168152602090f35b90815180825260208080930193019160005b828110611385575050505090565b835185529381019392810192600101611377565b9060206105f3928181520190611365565b34610487576040366003190112610487576004356001600160401b0380821161048757366023830112156104875781600401356113e681610f92565b926113f46040519485610f45565b81845260209160248386019160051b8301019136831161048757602401905b82821061144c5785602435868111610487576107079161143a611440923690600401610fa9565b9061334a565b60405191829182611399565b838091833561145a81610476565b815201910190611413565b3461048757604036600319011261048757602435600435611484613166565b6114ec6114e5600093838552600a6020526114a460408620541515614528565b838552601560205260408520546114be9060ff161561492d565b6114cb6014821115614994565b6114df84600052600a602052604060002090565b546149ec565b6064900490565b611500826000526014602052604060002090565b55611518610cc4826000526015602052604060002090565b7fb9810d2bf7d3f589fcd8960a77553281c32552184a1a4aeb6998396dd1b17542611561611550836000526014602052604060002090565b546040519081529081906020820190565b0390a280f35b3461048757602036600319011261048757600435600052600360205260206040600020541515604051908152f35b34610487577f22a0362337789c81f3cf44af8dd14037966fde16d43f0503e0d56955267667886115c4366107f0565b916115d0939193613166565b6115d86147bf565b61165f6115ef85600052600a602052604060002090565b5461165885611608886000526003602052604060002090565b54611628611623610b698b6000526017602052604060002090565b614ee4565b611642610bd1610b698b6000526015602052604060002090565b61164d841515614f3e565b610c44821515614f8a565b1115614fcd565b600e546001600160a01b03919082161580611715575b61167e9061500e565b61169261168a86614e96565b85111561506e565b6116cf6116b3856116ad886000526018602052604060002090565b54613ffe565b6116c7876000526014602052604060002090565b5410156150c8565b6116e3856000526018602052604060002090565b6116ee858254613ffe565b90556117036116fb61479c565b858784614815565b604051938452169180602081016108d6565b5060115460021615611675565b346104875760003660031901126104875760206001601154161515604051908152f35b34610487576020366003190112610487576004356001600160401b038111610487576117aa6117997f6741b2fc379fad678116fe3d4d4b9a1a184ab53ba36b86ad0fa66340b1ab41ad923690600401611022565b6117a1613166565b6106f3816139a3565b0390a1005b3461048757600080600319360112610dcb57808060015b6103e88111156117e0576040805183815260208101869052f35b8083526020600a8152604080852054611804575b50506117ff9061330c565b6117c6565b909261181460039196939661330c565b9386865252832054810180911161182f57926117ff386117f4565b6132f6565b34610487576000366003190112610487576107076106f3611917565b346104875760403660031901126104875760043561186d81610476565b60095460405163188c824d60e11b81526001600160a01b0392916020908290600490829087165afa8015610afe576108e3936118b4926000926118bd575b501633146146dd565b60243590615a1a565b6118d691925060203d8111610af757610ae98183610f45565b90386118ab565b90600182811c9216801561190d575b60208310146118f757565b634e487b7160e01b600052602260045260246000fd5b91607f16916118ec565b60405190600082600c549161192b836118dd565b808352926001908181169081156119b15750600114611952575b5061049992500383610f45565b600c600090815291507fdf6966c971051c3d54ec59162606531493a51404a002842f56009d7e5cf4a8c75b8483106119965750610499935050810160200138611945565b81935090816020925483858a0101520191019091859261197d565b90506020925061049994915060ff191682840152151560051b82010138611945565b60405190600082600254916119e7836118dd565b808352926001908181169081156119b15750600114611a0d575061049992500383610f45565b6002600090815291507f405787fa12a823e0f2b7631cc41b3ba8828b3321ca811111fa75cd3aa3bb5ace5b848310611a515750610499935050810160200138611945565b81935090816020925483858a01015201910190918592611a38565b3461048757600080600319360112610dcb57611a86613166565b600480546001600160a01b0319811690915581906001600160a01b03167f8be0079c531659141344cd1fd0a4f28419497f9722a3daafe3b4186f6b6457e08280a380f35b3461048757602036600319011261048757600435611ae781610476565b60018060a01b03166000526010602052602060ff604060002054166040519015158152f35b346104875760003660031901126104875760206004601154161515604051908152f35b34610487576040366003190112610487576001600160401b0360043560243582811161048757611b63903690600401611022565b611b6b613166565b600092828452602090600a8252611b8760408620541515614528565b8385526013825260408520918351918211610f4057611bb082611baa85546118dd565b856135da565b80601f8311600114611c18575091817fbf032ae7dcb484f99f9f3977ba9cde222756e7073de74244ceb89de862569bdb9492611561948891611c0d575b508160011b916000199060031b1c19161790555b604051918291826106c3565b905083015138611bed565b90601f198316611c2d85600052602060002090565b9288905b828210611c92575050926115619492600192827fbf032ae7dcb484f99f9f3977ba9cde222756e7073de74244ceb89de862569bdb989610611c79575b5050811b019055611c01565b85015160001960f88460031b161c191690553880611c6d565b80600185968294968b01518155019501930190611c31565b3461048757602036600319011261048757600435600052600a6020526020604060002054604051908152f35b34610487576000366003190112610487576020600754604051908152f35b346104875760203660031901126104875760043560005260186020526020604060002054604051908152f35b3461048757602036600319011261048757600435600052600a602052606060406000205460036020526040600020549060405191818352602083015215156040820152f35b34610487576000366003190112610487576004546040516001600160a01b039091168152602090f35b3461048757602036600319011261048757600435611dab81610476565b611db3613166565b6001600160a01b038116908115611e3657610cc481611df5611df0610b70610b69611e0f9660018060a01b03166000526010602052604060002090565b613c0a565b6001600160a01b0316600090815260106020526040902090565b7f119567ed9b6c3d3a90f367bc09314fc6cd50ab2434a5b4f73688a2c1ea149838600080a2005b60405162461bcd60e51b815260206004820152601b60248201527f496e76616c6964206d61726b6574706c616365206164647265737300000000006044820152606490fd5b346104875760203660031901126104875760206104e1600435614db0565b3461048757611ea7366105ce565b6011546004811615159081611fd2575b5080611fb9575b611f9a575b6001600160a01b03821691338314611f435781611f02611f139233600052600160205260406000209060018060a01b0316600052602052604060002090565b9060ff801983541691151516179055565b60405190151581527f17307eab39ab6107e8899845ad3d59bd9653f200f220920489ca2b5937696c3160203392a3005b60405162461bcd60e51b815260206004820152602960248201527f455243313135353a2073657474696e6720617070726f76616c20737461747573604482015268103337b91039b2b63360b91b6064820152608490fd5b336000526010602052611fb460ff60406000205416613c56565b611ec3565b5033600052600f60205260ff6040600020541615611ebe565b60089150161538611eb7565b634e487b7160e01b600052602160045260246000fd5b60031115611ffe57565b611fde565b346104875760003660031901126104875760ff600b54166040516003821015611ffe576020918152f35b3461048757600080600319360112610dcb57612047613166565b61205660016011541615614574565b600b5460ff1661206581611ff4565b600281036120c7575061207c600d544210156145c0565b6120a060016011546001600160801b038116906001600160801b0319161717601155565b7f4884a1e8d033385ee80fa3d769d1ba3c44e18291db0f726e436a01997d3df36a8180a180f35b6120d081611ff4565b61207c5760405162461bcd60e51b815260206004820152603e60248201527f496e7374616e742072657665616c20636f6c6c656374696f6e7320646f206e6f60448201527f74206e65656420746f206265206d616e75616c6c792072657665616c656400006064820152608490fd5b0390fd5b346104875760203660031901126104875760043560005260146020526020604060002054604051908152f35b34610487576000366003190112610487576009546040516001600160a01b039091168152602090f35b34610487576040366003190112610487576004357f4eb6d91f82d0f0a4ce5f3a9ef35cf77f613592659f0267b74e4c2b276e43e0826024356121d8613166565b600e546001600160a01b031615806123ed575b6121f490615114565b61220b610b9084600052600a602052604060002090565b801515806123e2575b61221d9061517d565b612231836000526003602052604060002090565b549061228961228061224d86600052600a602052604060002090565b546122598186106151d5565b61226f6114e58561226a8885614d61565b6149ec565b9061227b821515615231565b614d61565b92831015615290565b61229d846000526014602052604060002090565b5490826122b486600052600a602052604060002090565b556122cc610b69866000526015602052604060002090565b612300575b50506122e7836000526014602052604060002090565b5460408051928352602083019190915281908101610cf4565b612314856000526018602052604060002090565b54906123348261232e886000526014602052604060002090565b54614d61565b80612395575b505050612354610b69856000526017602052604060002090565b9081612376575b50612368575b38806122d1565b61237183615728565b612361565b905061238c846000526014602052604060002090565b5414153861235b565b6123a86114e56123c5936123bc936149ec565b61232e886000526014602052604060002090565b918210156152f6565b6123d9856000526014602052604060002090565b5538808061233a565b506064811115612214565b50601154600216156121eb565b346104875760803660031901126104875760043561241781610476565b606435604435602435612428613166565b6001600160a01b03841693841561250c577f70f501bd2f3c55f153861010e5184d8493b7b83ce7c4cb72fcc70fd07c1a240a936124ef610cf49261246d851515615843565b612478831515615899565b6124a261249d610b70610b698460018060a01b03166000526006602052604060002090565b6158f1565b6124ea6124ad610f85565b600181529186602084015287604084015284606084015260006080840152600060a084015260018060a01b03166000526006602052604060002090565b615934565b604051938493846040919493926060820195825260208201520152565b60405162461bcd60e51b8152602060048201526013602482015272496e76616c6964204b4f4c206164647265737360681b6044820152606490fd5b34610487576000366003190112610487576020600d54604051908152f35b9181601f84011215610487578235916001600160401b038311610487576020808501948460051b01011161048757565b9181601f84011215610487578235916001600160401b038311610487576020838186019501011161048757565b346104875760a0366003190112610487576125de600435610476565b6125e9602435610476565b6001600160401b0360443581811161048757612609903690600401612565565b505060643581811161048757612623903690600401612565565b50506084359081116104875761263d903690600401612595565b505060405163bc197c8160e01b8152602090f35b3461048757600080600319360112610dcb5761266b613166565b600e546004906020906001600160a01b031661268881151561545f565b60405163c19d93fb60e01b815292839182905afa8015610afe576126d091839161275a575b506126b7816154b9565b60068114908115612745575b8115612731575b506154c3565b6126fa6011546ffffffffffffffffffffffffffffffffd8116906001600160801b03191617601155565b600e80546001600160a01b03191690557f5e7f52ff86abf7b572123888a9e67a9ff6c324bc8cf6217f0ee997b28531fa8e8180a180f35b6007915061273e816154b9565b14386126ca565b9050612750816154b9565b60058114906126c3565b61277b915060203d8111612781575b6127738183610f45565b8101906154a1565b386126ad565b503d612769565b346104875760203660031901126104875760043560005260036020526020604060002054604051908152f35b3461048757600080600319360112610dcb576127ce613297565b60018281805b6127ea575b848452604051806107078682611399565b6103e881111580612842575b1561283d57808252600a602052604082205461281c575b6128169061330c565b826127d4565b93612835818661282f6128169488613331565b5261330c565b94905061280d565b6127d9565b50606485106127f6565b60e43590600382101561048757565b3461048757610160366003190112610487576001600160401b036004358181116104875761288d903690600401611022565b60243561289981610476565b6128a161048c565b906128aa61049b565b926128b361284c565b9061010435958611610487576128d06108e3963690600401611022565b926128d96104a8565b95610124359560c4359360a435936044359161376d565b346104875760003660031901126104875760206002601154161515604051908152f35b346104875760203660031901126104875760206104e1600435614e96565b346104875760003660031901126104875760206008601154161515604051908152f35b3461048757600080600319360112610dcb5761296e613166565b60086011546001600160801b038116906001600160801b03191617176011557f192c3f8649694bd147faa743027e4c232721f15ec16032c1c34b414c47a90df38180a180f35b346104875760203660031901126104875760206104e1600435615605565b3461048757602036600319011261048757600435600090815260196020908152604091829020805460018201546002830154600390930154855192835293820152928301526060820152608090f35b3461048757600080600319360112610dcb57612a3b613166565b600e54612aa390829081906001600160a01b0316612a5a811515615519565b6040516301ffc9a760e01b602082019081526368955ab760e01b602480840191909152825290612a8b604482610f45565b51915afa612a9761556f565b81612ad2575b5061559f565b612aab613a8c565b7fd5cb2e985e95fd394547f9c7ee44d15aeb87738279930d016adf6a6c3f1a25c18180a180f35b612ae6915060208082518301019101613b96565b38612a9d565b3461048757604036600319011261048757600435612b0981610476565b60018060a01b0316600052601260205260406000206024356000526020526020604060002054604051908152f35b34610487576020366003190112610487576004356000526017602052602060ff604060002054166040519015158152f35b3461048757604036600319011261048757600435602435612b87613166565b81600052600a602052604060002054612c0657610cf481612bca7fc4b60435d5467f696f8dd268ffdd7fcff001c2937072bf65adb1ec5b426f8d709315156144d2565b80612bdf85600052600a602052604060002090565b5542612bf5856000526016602052604060002090565b556040519081529081906020820190565b60405162461bcd60e51b815260206004820152601760248201527f546f6b656e20494420616c7265616479206578697374730000000000000000006044820152606490fd5b3461048757604036600319011261048757602060ff612ca7600435612c6f81610476565b60243590612c7c82610476565b60018060a01b03166000526001845260406000209060018060a01b0316600052602052604060002090565b54166040519015158152f35b346104875760a036600319011261048757612ccf600435610476565b612cda602435610476565b6084356001600160401b03811161048757612cf9903690600401612595565b505060405163f23a6e6160e01b8152602090f35b346104875760a036600319011261048757600435612d2a81610476565b60243590612d3782610476565b608435916001600160401b03831161048757612d5a6108e3933690600401611022565b916011546004811615159081612dbc575b5080612da3575b612d84575b6064359160443591613d2b565b336000526010602052612d9e60ff60406000205416613c56565b612d77565b5033600052600f60205260ff6040600020541615612d72565b60089150161538612d6b565b3461048757602036600319011261048757600435612de581610476565b612ded613166565b6001600160a01b03811615612e05576108e3906131be565b60405162461bcd60e51b815260206004820152602660248201527f4f776e61626c653a206e6577206f776e657220697320746865207a65726f206160448201526564647265737360d01b6064820152608490fd5b3461048757612e67366105ce565b600954909190612e819061083c906001600160a01b031681565b60405163188c824d60e11b8152602091908281600481855afa8015610afe57612ed291600091613056575b50600454612ec2906001600160a01b031661083c565b3314908115613043575b50613ace565b6001600160a01b0383166000908152600f60205260409020612ef790610b7090610b69565b801561303b575b612f0790613b2f565b831580613014575b612f76575b837f61630ccfd9f6a7f081736c73f365b44d23ac1af5e8d23c9eeba86f0cc3cfefbe610cf485612f5a84611f028360018060a01b0316600052600f602052604060002090565b60405193151584526001600160a01b0316929081906020820190565b604051633247c33f60e21b81526001600160a01b03841660048201529192908390839060249082905afa928315610afe577f61630ccfd9f6a7f081736c73f365b44d23ac1af5e8d23c9eeba86f0cc3cfefbe93610cf493612fe192600092612fe7575b505015613bab565b91612f14565b6130069250803d1061300d575b612ffe8183610f45565b810190613b96565b3880612fd9565b503d612ff4565b506001600160a01b0383166000908152600f6020526040902061303690610b69565b612f0f565b508315612efe565b6001600160a01b03163314905038612ecc565b61306d9150843d8611610af757610ae98183610f45565b38612eac565b346104875760203660031901126104875760043561309081610476565b60018060a01b03166000526006602052604060002060ff81541661070760018301549260028101549060038101546005600483015492015492604051968796879260a094919796959260c08501981515855260208501526040840152606083015260808201520152565b346104875760203660031901126104875760043561311781610476565b61311f613166565b6001600160a01b03166000818152600660205260408120805460ff19169055907ffeb031b2d93541150a8571bc111b4dab4d98dfef15bcbe6e89653e385a5d980a8280a280f35b6004546001600160a01b0316330361317a57565b606460405162461bcd60e51b815260206004820152602060248201527f4f776e61626c653a2063616c6c6572206973206e6f7420746865206f776e65726044820152fd5b600480546001600160a01b039283166001600160a01b0319821681179092559091167f8be0079c531659141344cd1fd0a4f28419497f9722a3daafe3b4186f6b6457e0600080a3565b6001600160a01b0381161561323f576000918252602082815260408084206001600160a01b03909316845291905290205490565b5490565b60405162461bcd60e51b815260206004820152602a60248201527f455243313135353a2061646472657373207a65726f206973206e6f742061207660448201526930b634b21037bbb732b960b11b6064820152608490fd5b60405190610ca082018281106001600160401b03821117610f405760405260648252610c80366020840137565b906132ce82610f92565b6132db6040519182610f45565b82815280926132ec601f1991610f92565b0190602036910137565b634e487b7160e01b600052601160045260246000fd5b600019811461182f5760010190565b634e487b7160e01b600052603260045260246000fd5b80518210156133455760209160051b010190565b61331b565b91909180518351036133b55761336081516132c4565b9060005b81518110156133ae578061339f61338e6133816133a99486613331565b516001600160a01b031690565b6133988389613331565b5190613207565b61282f8286613331565b613364565b5090925050565b60405162461bcd60e51b815260206004820152602960248201527f455243313135353a206163636f756e747320616e6420696473206c656e677468604482015268040dad2e6dac2e8c6d60bb1b6064820152608490fd5b1561341357565b60405162461bcd60e51b815260206004820152601b60248201527f4f6e6c7920666163746f72792063616e20696e697469616c697a6500000000006044820152606490fd5b1561345f57565b60405162461bcd60e51b8152602060048201526013602482015272105b1c9958591e481a5b9a5d1a585b1a5e9959606a1b6044820152606490fd5b156134a157565b60405162461bcd60e51b815260206004820152601660248201527504d617820737570706c79206d757374206265203e20360541b6044820152606490fd5b6003811015611ffe5760ff8019600b5416911617600b55565b601f8111613504575050565b600090600282527f405787fa12a823e0f2b7631cc41b3ba8828b3321ca811111fa75cd3aa3bb5ace906020601f850160051c8301941061355f575b601f0160051c01915b82811061355457505050565b818155600101613548565b909250829061353f565b601f8111613575575050565b600090600c82527fdf6966c971051c3d54ec59162606531493a51404a002842f56009d7e5cf4a8c7906020601f850160051c830194106135d0575b601f0160051c01915b8281106135c557505050565b8181556001016135b9565b90925082906135b0565b90601f81116135e857505050565b600091825260208220906020601f850160051c83019410613624575b601f0160051c01915b82811061361957505050565b81815560010161360d565b9092508290613604565b9081516001600160401b038111610f40576136538161364e600c546118dd565b613569565b602080601f831160011461368f5750819293600092613684575b50508160011b916000199060031b1c191617600c55565b01519050388061366d565b90601f198316946136c2600c6000527fdf6966c971051c3d54ec59162606531493a51404a002842f56009d7e5cf4a8c790565b926000905b8782106136ff5750508360019596106136e6575b505050811b01600c55565b015160001960f88460031b161c191690553880806136db565b806001859682949686015181550195019301906136c7565b1561371e57565b60405162461bcd60e51b815260206004820152602160248201527f52657665616c2074696d65206d75737420626520696e207468652066757475726044820152606560f81b6064820152608490fd5b6001600160a01b039a949897969195939192906137ad337f00000000000000000000000000000000000000000000000000000000000000008e161461340c565b6004546137c5908d166001600160a01b031615613458565b6137d084151561349a565b6137d9906139a3565b6137e2866131be565b600755600880546001600160a01b0319166001600160a01b03909216919091179055600980546001600160a01b0319166001600160a01b0389161790558061383483600052600a602052604060002090565b554261384a836000526016602052604060002090565b556040519081527fc4b60435d5467f696f8dd268ffdd7fcff001c2937072bf65adb1ec5b426f8d7090602090a2613880836134df565b61388983611ff4565b6138ff96610cc4966138e595889580613969575050506138c360016011546001600160801b038116906001600160801b0319161717601155565b8116613917575b506001600160a01b03166000908152600f6020526040902090565b6001600160a01b03166000908152600f6020526040902090565b306000908152600f6020526040902061049990610cc4565b600e80546001600160a01b0319166001600160a01b0390921691909117905561393e613a8c565b7fd5cb2e985e95fd394547f9c7ee44d15aeb87738279930d016adf6a6c3f1a25c1600080a1386138ca565b61397460029261362e565b61397d81611ff4565b14613989575b506138c3565b61399d90613998428211613717565b600d55565b38613983565b9081516001600160401b038111610f40576139c8816139c36002546118dd565b6134f8565b602080601f8311600114613a0457508192936000926139f9575b50508160011b916000199060031b1c191617600255565b0151905038806139e2565b90601f19831694613a3760026000527f405787fa12a823e0f2b7631cc41b3ba8828b3321ca811111fa75cd3aa3bb5ace90565b926000905b878210613a74575050836001959610613a5b575b505050811b01600255565b015160001960f88460031b161c19169055388080613a50565b80600185968294968601518155019501930190613a3c565b60026011546001600160801b038116906001600160801b0319161717601155565b9081602091031261048757516105f381610476565b6040513d6000823e3d90fd5b15613ad557565b60405162461bcd60e51b815260206004820152602c60248201527f4f6e6c79206f776e6572206f7220506f6f6c4465706c6f7965722063616e207360448201526b32ba1032bc32b6b83a34b7b760a11b6064820152608490fd5b15613b3657565b60405162461bcd60e51b815260206004820152603260248201527f4164647265737320697320616c7265616479206578656d70742066726f6d20726044820152711bde585b1d1e48195b999bdc98d95b595b9d60721b6064820152608490fd5b9081602091031261048757516105f3816105c4565b15613bb257565b60405162461bcd60e51b815260206004820152602a60248201527f43616e6e6f742072656d6f7665206578656d7074696f6e20666f7220706f6f6c60448201526920636f6e74726163747360b01b6064820152608490fd5b15613c1157565b60405162461bcd60e51b815260206004820152601b60248201527f4d61726b6574706c61636520616c726561647920616c6c6f77656400000000006044820152606490fd5b15613c5d57565b60405162461bcd60e51b815260206004820152603e60248201527f45524331313535633a204f7065726174696f6e206f6e6c7920616c6c6f77656460448201527f207468726f75676820617070726f766564206d61726b6574706c6163657300006064820152608490fd5b15613ccf57565b60405162461bcd60e51b815260206004820152602e60248201527f455243313135353a2063616c6c6572206973206e6f7420746f6b656e206f776e60448201526d195c881bdc88185c1c1c9bdd995960921b6064820152608490fd5b6001600160a01b03808216969594939291903388148015613f05575b613d5090613cc8565b8216801597613d5f8915613f28565b613d6885614393565b98613d7287614393565b908215613ea8575b613e24575b5061049997985085613d9f84611197886000526000602052604060002090565b54613dac82821015613f82565b03613dc584611197886000526000602052604060002090565b55613dde84611197876000526000602052604060002090565b613de9878254613ffe565b9055604080518681526020810188905233917fc3d58168c5ae7397731d063d5bbf3d657854427343f4c083240f7aacaa2d0f6291a4336142bb565b969492909795939160005b8a51811015613e935780613e46613e8e928d613331565b51613e88613e54838d613331565b51613e69836000526003602052604060002090565b54613e768282101561563d565b03916000526003602052604060002090565b5561330c565b613e2f565b50919395985091939550610499968897613d7f565b98969492909795939160005b8b8051821015613ef55790613ef0916111ea6111e2613edf848f81613ed891613331565b5194613331565b516000526003602052604060002090565b613eb4565b5050919395979092949698613d7a565b50600088815260016020908152604080832033845290915290205460ff16613d47565b15613f2f57565b60405162461bcd60e51b815260206004820152602560248201527f455243313135353a207472616e7366657220746f20746865207a65726f206164604482015264647265737360d81b6064820152608490fd5b15613f8957565b60405162461bcd60e51b815260206004820152602a60248201527f455243313135353a20696e73756666696369656e742062616c616e636520666f60448201526939103a3930b739b332b960b11b6064820152608490fd5b90610e10820180921161182f57565b906001820180921161182f57565b9190820180921161182f57565b9081602091031261048757516105f3816104e9565b909260a0926105f39594600180861b0316835260006020840152604083015260608201528160808201520190610683565b91926105f395949160a094600180871b038092168552166020840152604083015260608201528160808201520190610683565b60809060208152602860208201527f455243313135353a204552433131353552656365697665722072656a656374656040820152676420746f6b656e7360c01b60608201520190565b60009060033d116140da57565b905060046000803e60005160e01c90565b600060443d106105f357604051600319913d83016004833e81516001600160401b03918282113d60248401111761414857818401948551938411614150573d8501016020848701011161414857506105f392910160200190610f45565b949350505050565b50949350505050565b9390803b614169575b5050505050565b6141919360006020946040519687958694859363f23a6e6160e01b9b8c865260048601614020565b03926001600160a01b03165af16000918161428b575b5061426357505060016141b86140cd565b6308c379a014614234575b6141d2575b3880808080614162565b60405162461bcd60e51b815260206004820152603460248201527f455243313135353a207472616e7366657220746f206e6f6e2d455243313135356044820152732932b1b2b4bb32b91034b6b83632b6b2b73a32b960611b6064820152608490fd5b61423c6140eb565b8061424757506141c3565b60405162461bcd60e51b815290819061213f90600483016106c3565b6001600160e01b031916146141c85760405162461bcd60e51b81528061213f60048201614084565b6142ad91925060203d81116142b4575b6142a58183610f45565b81019061400b565b90386141a7565b503d61429b565b9493919092813b6142cf575b505050505050565b60006020946142f66040519788968795869463f23a6e6160e01b9c8d875260048701614051565b03926001600160a01b03165af160009181614373575b5061434b575050600161431d6140cd565b6308c379a014614338575b6141d2575b3880808080806142c7565b6143406140eb565b806142475750614328565b6001600160e01b0319161461432d5760405162461bcd60e51b81528061213f60048201614084565b61438c91925060203d81116142b4576142a58183610f45565b903861430c565b60405190604082018281106001600160401b03821117610f405760405260018252602082016020368237825115613345575290565b156143cf57565b60405162461bcd60e51b815260206004820152602860248201527f455243313135353a2069647320616e6420616d6f756e7473206c656e677468206044820152670dad2e6dac2e8c6d60c31b6064820152608490fd5b909161443c6105f393604084526040840190611365565b916020818403910152611365565b93906105f3959361447c9161448a9460018060a01b03809216885216602087015260a0604087015260a0860190611365565b908482036060860152611365565b916080818403910152610683565b9493919092813b6144ab57505050505050565b60006020946142f66040519788968795869463bc197c8160e01b9c8d87526004870161444a565b156144d957565b60405162461bcd60e51b815260206004820152602160248201527f4d617820737570706c79206d7573742062652067726561746572207468616e206044820152600360fc1b6064820152608490fd5b1561452f57565b60405162461bcd60e51b815260206004820152601760248201527f546f6b656e20494420646f6573206e6f742065786973740000000000000000006044820152606490fd5b1561457b57565b60405162461bcd60e51b815260206004820152601e60248201527f436f6c6c656374696f6e20697320616c72656164792072657665616c656400006044820152606490fd5b156145c757565b60405162461bcd60e51b815260206004820152601e60248201527f52657665616c2074696d6520686173206e6f74207965742070617373656400006044820152606490fd5b60018060115416156146d35760009182526020906013825260408320926040519384928282549261463c846118dd565b808752938381169081156146af5750600114614672575b5050505061466392500382610f45565b80516105f357506105f36119d3565b815285812095935091905b818310614697575050614663935082010138808080614653565b8554878401850152948501948694509183019161467d565b935050505061466394925060ff191682840152151560051b82010138808080614653565b50506105f3611917565b156146e457565b60405162461bcd60e51b815260206004820152602860248201527f4f6e6c7920506f6f6c4465706c6f7965722063616e2063616c6c207468697320604482015267333ab731ba34b7b760c11b6064820152608490fd5b1561474157565b60405162461bcd60e51b815260206004820152602d60248201527f4e6f20737570706c7920617661696c61626c6520746f206d696e7420666f722060448201526c1d1a1a5cc81d1bdad95b881251609a1b6064820152608490fd5b60405190602082018281106001600160401b03821117610f405760405260008252565b6002600554146147d0576002600555565b60405162461bcd60e51b815260206004820152601f60248201527f5265656e7472616e637947756172643a207265656e7472616e742063616c6c006044820152606490fd5b936001600160a01b03851693919290919084156148de5761483584614393565b9361483f82614393565b9660005b8651811015614870578061485a61486b928b613331565b516111ea6111e2613edf848c613331565b614843565b50919396509193506104999461489482611197856000526000602052604060002090565b61489f858254613ffe565b9055604080518481526020810186905260009133917fc3d58168c5ae7397731d063d5bbf3d657854427343f4c083240f7aacaa2d0f629190a433614159565b60405162461bcd60e51b815260206004820152602160248201527f455243313135353a206d696e7420746f20746865207a65726f206164647265736044820152607360f81b6064820152608490fd5b1561493457565b60405162461bcd60e51b815260206004820152603260248201527f43726561746f7220616c6c6f636174696f6e20616c7265616479206465636c616044820152713932b2103337b9103a3434b9903a37b5b2b760711b6064820152608490fd5b1561499b57565b60405162461bcd60e51b8152602060048201526024808201527f43726561746f7220616c6c6f636174696f6e2063616e6e6f74206578636565646044820152632032302560e01b6064820152608490fd5b8181029291811591840414171561182f57565b8115614a09570490565b634e487b7160e01b600052601260045260246000fd5b15614a2657565b60405162461bcd60e51b815260206004820152602960248201527f56657374696e6720616c726561647920636f6e6669677572656420666f7220746044820152683434b9903a37b5b2b760b91b6064820152608490fd5b15614a8457565b60405162461bcd60e51b8152602060048201526015602482015274151bdad95b881b9bdd081a5b9a5d1a585b1a5e9959605a1b6044820152606490fd5b15614ac857565b60405162461bcd60e51b815260206004820152602960248201527f43726561746f7220616c6c6f636174696f6e206d757374206265206465636c616044820152681c995908199a5c9cdd60ba1b6064820152608490fd5b15614b2657565b60405162461bcd60e51b815260206004820152602360248201527f4d696e203820756e6c6f636b7320666f7220616c6c6f636174696f6e203e203260448201526203030360ec1b6064820152608490fd5b15614b7e57565b60405162461bcd60e51b815260206004820152602660248201527f4d696e203820756e6c6f636b7320666f7220616c6c6f636174696f6e203130306044820152650302d323030360d41b6064820152608490fd5b15614bd957565b60405162461bcd60e51b815260206004820152602560248201527f4d696e203420756e6c6f636b7320666f7220616c6c6f636174696f6e2035303060448201526402d313030360dc1b6064820152608490fd5b15614c3357565b60405162461bcd60e51b815260206004820152602260248201527f4d696e203220756e6c6f636b7320666f7220616c6c6f636174696f6e203c2035604482015261030360f41b6064820152608490fd5b15614c8a57565b60405162461bcd60e51b815260206004820152603060248201527f436c696666206d757374206e6f74206265206c657373207468616e203120686f60448201526f3ab910333937b69031b932b0ba34b7b760811b6064820152608490fd5b15614cef57565b60405162461bcd60e51b815260206004820152603560248201527f4475726174696f6e206265747765656e20756e6c6f636b73206d757374206e6f6044820152743a103132903632b9b9903a3430b71018903437bab960591b6064820152608490fd5b60001981019190821161182f57565b9190820391821161182f57565b90604051608081018181106001600160401b03821117610f40576040526060600382948054845260018101546020850152600281015460408501520154910152565b614dca610b70610b69836000526017602052604060002090565b614e9057614dea614de5826000526019602052604060002090565b614d6e565b8051804210614e8857614e0e614e03614e139242614d61565b6040840151906149ff565b613ff0565b906020810151808311614e80575b8203614e3d57505061323b906000526014602052604060002090565b906060614e4b9201516149ec565b90614e60816000526014602052604060002090565b548211614e6b575090565b61323b91506000526014602052604060002090565b915081614e21565b505050600090565b50600090565b6000818152601760205260ff60408220541615614edf57614eb682614db0565b918152601860205260408120549081831115614ed95750810390811161182f5790565b91505090565b905090565b15614eeb57565b60405162461bcd60e51b815260206004820152602560248201527f56657374696e67206e6f7420636f6e6669677572656420666f722074686973206044820152643a37b5b2b760d91b6064820152608490fd5b15614f4557565b60405162461bcd60e51b815260206004820152601a60248201527f537570706c79206e6f742073657420666f7220746869732049440000000000006044820152606490fd5b15614f9157565b60405162461bcd60e51b815260206004820152601460248201527305175616e74697479206d757374206265203e20360641b6044820152606490fd5b15614fd457565b60405162461bcd60e51b815260206004820152601260248201527145786365656473206d617820737570706c7960701b6044820152606490fd5b1561501557565b60405162461bcd60e51b815260206004820152602b60248201527f5468697320636f6c6c656374696f6e2069732063757272656e746c792074696560448201526a19081d1bc818481c1bdbdb60aa1b6064820152608490fd5b1561507557565b60405162461bcd60e51b815260206004820152602560248201527f4578636565647320617661696c61626c6520756e6c6f636b656420616c6c6f6360448201526430ba34b7b760d91b6064820152608490fd5b156150cf57565b60405162461bcd60e51b815260206004820152601a60248201527f457863656564732063726561746f7220616c6c6f636174696f6e0000000000006044820152606490fd5b1561511b57565b60405162461bcd60e51b815260206004820152603460248201527f43616e6e6f742063757420737570706c79207768696c6520636f6e7472616374604482015273206973207469656420746f206120726166666c6560601b6064820152608490fd5b1561518457565b60405162461bcd60e51b8152602060048201526024808201527f50657263656e74616765206d757374206265206265747765656e203120616e646044820152630203130360e41b6064820152608490fd5b156151dc57565b60405162461bcd60e51b815260206004820152602760248201527f4e6f20737570706c79206c65667420746f2072656475636520666f722074686960448201526639903a37b5b2b760c91b6064820152608490fd5b1561523857565b60405162461bcd60e51b815260206004820152602a60248201527f526564756374696f6e20616d6f756e74206d7573742062652067726561746572604482015269207468616e207a65726f60b01b6064820152608490fd5b1561529757565b60405162461bcd60e51b815260206004820152603160248201527f4e6577206d617820737570706c792063616e6e6f74206265206c657373207468604482015270185b88185b1c9958591e481b5a5b9d1959607a1b6064820152608490fd5b156152fd57565b60405162461bcd60e51b815260206004820152603960248201527f4e65772063726561746f7220616c6c6f636174696f6e2063616e6e6f7420626560448201527f206c657373207468616e20636c61696d656420616d6f756e74000000000000006064820152608490fd5b1561536f57565b60405162461bcd60e51b815260206004820152601160248201527027b7363c902837b7b62232b83637bcb2b960791b6044820152606490fd5b156153af57565b60405162461bcd60e51b815260206004820152602860248201527f436f6e747261637420697320616c72656164792061737369676e656420746f20604482015267309036b4b73a32b960c11b6064820152608490fd5b1561540c57565b60405162461bcd60e51b815260206004820152602560248201527f4e6577206d696e7465722063616e6e6f7420626520746865207a65726f206164604482015264647265737360d81b6064820152608490fd5b1561546657565b60405162461bcd60e51b81526020600482015260136024820152724e6f206d696e74657220746f20756e6c6f636b60681b6044820152606490fd5b90816020910312610487575160088110156104875790565b60081115611ffe57565b156154ca57565b60405162461bcd60e51b815260206004820152602160248201527f506f6f6c206e6f7420696e20612073616665207465726d696e616c20737461746044820152606560f81b6064820152608490fd5b1561552057565b60405162461bcd60e51b815260206004820152602160248201527f43616e6e6f74206c6f636b2061207a65726f2061646472657373206d696e74656044820152603960f91b6064820152608490fd5b3d1561559a573d9061558082611007565b9161558e6040519384610f45565b82523d6000602084013e565b606090565b156155a657565b60405162461bcd60e51b815260206004820152603160248201527f43616e206f6e6c79206c6f636b206d696e74657220617070726f76616c20746f60448201527020726166666c6520636f6e74726163747360781b6064820152608490fd5b6000526003602052604060002054600a60205260406000205480911015614e90576003602052604060002054810390811161182f5790565b1561564457565b60405162461bcd60e51b815260206004820152602860248201527f455243313135353a206275726e20616d6f756e74206578636565647320746f74604482015267616c537570706c7960c01b6064820152608490fd5b919392916001600160a01b0391908216156156ee575b16156156bb57509050565b60005b83518110156156e857806156d56156e39286613331565b51613e88613e548386613331565b6156be565b50509050565b929060005b8551811015615720578061570a61571b9286613331565b516111ea6111e2613edf848b613331565b6156f3565b5090926156b0565b7f088cab2409ca33ba4d1407cb6386b97a16192c0417c40ace27682534b193a0f761575d826000526019602052604060002090565b8054804210600014615804575060018101545b806157bc5750600060038201555b80546157b76001830154926003600282015491015490604051948594859094939260609260808301968352602083015260408201520152565b0390a2565b80610c4e610c496157fa93610c446157de896000526014602052604060002090565b546157f38a6000526018602052604060002090565b5490614d61565b600382015561577e565b614e0e61581461581f9242614d61565b6002840154906149ff565b6001820154908181106158355750506000615770565b61583e91614d61565b615770565b1561584a57565b60405162461bcd60e51b815260206004820152602160248201527f506f6f6c206c696d6974206d7573742062652067726561746572207468616e206044820152600360fc1b6064820152608490fd5b156158a057565b60405162461bcd60e51b815260206004820152602360248201527f57696e6e6572206c696d6974206d75737420626520677265617465722074686160448201526206e20360ec1b6064820152608490fd5b156158f857565b60405162461bcd60e51b815260206004820152601460248201527312d3d308185b1c9958591e48185c1c1c9bdd995960621b6044820152606490fd5b9060a060059161595381511515859060ff801983541691151516179055565b602081015160018501556040810151600285015560608101516003850155608081015160048501550151910155565b1561598957565b60405162461bcd60e51b815260206004820152601760248201527f4b4f4c20706f6f6c206c696d69742065786365656465640000000000000000006044820152606490fd5b156159d557565b60405162461bcd60e51b815260206004820152601960248201527f4b4f4c2077696e6e6572206c696d6974206578636565646564000000000000006044820152606490fd5b9060ff615a398360018060a01b03166000526006602052604060002090565b541615615b3e576001600160a01b03821660009081526006602052604090206004810154600190910154615a6d9110615982565b615abc615a99826005615a928660018060a01b03166000526006602052604060002090565b0154613ffe565b6001600160a01b03841660009081526006602052604090206003015410156159ce565b6001600160a01b0382166000908152600660205260409020600401615ae1815461330c565b90556001600160a01b0382166000908152600660205260409020615b0a90600501918254613ffe565b905533906001600160a01b03167f5b7945a09273a36deae169b61c3f2f6e50c1a2030374353d76346822ae48f674600080a3565b60405162461bcd60e51b815260206004820152601060248201526f12d3d3081b9bdd08185c1c1c9bdd995960821b6044820152606490fdfea26469706673582212203a75157dc876d2847d2f098326caeb7cc2538db1cfc9362d8119e359d4b5da1d64736f6c63430008130033",
  "linkReferences": {},
  "deployedLinkReferences": {}
}