{
  "_format": "hh-sol-artifact-1",
  "contractName": "ERC1155Prize",
  "sourceName": "contracts/ERC1155Prize.sol",
  "abi": [
    {
      "inputs": [
        {
          "internalType": "address",
          "name": "_factory",
          "type": "address"
        }
      ],
      "stateMutability": "nonpayable",
      "type": "constructor"
    },
    {
      "inputs": [],
      "name": "ExceedsMaxSupply",
      "type": "error"
    },
    {
      "inputs": [],
      "name": "SupplyNotSet",
      "type": "error"
    },
    {
      "anonymous": false,
      "inputs": [
        {
          "indexed": true,
          "internalType": "address",
          "name": "account",
          "type": "address"
        },
        {
          "indexed": true,
          "internalType": "address",
          "name": "operator",
          "type": "address"
        },
        {
          "indexed": false,
          "internalType": "bool",
          "name": "approved",
          "type": "bool"
        }
      ],
      "name": "ApprovalForAll",
      "type": "event"
    },
    {
      "anonymous": false,
      "inputs": [
        {
          "indexed": false,
          "internalType": "string",
          "name": "newBaseURI",
          "type": "string"
        }
      ],
      "name": "BaseURIUpdated",
      "type": "event"
    },
    {
      "anonymous": false,
      "inputs": [],
      "name": "CollectionRevealed",
      "type": "event"
    },
    {
      "anonymous": false,
      "inputs": [
        {
          "indexed": true,
          "internalType": "address",
          "name": "minter",
          "type": "address"
        },
        {
          "indexed": true,
          "internalType": "uint256",
          "name": "tokenId",
          "type": "uint256"
        },
        {
          "indexed": false,
          "internalType": "uint256",
          "name": "amount",
          "type": "uint256"
        }
      ],
      "name": "CreatorAllocationClaimed",
      "type": "event"
    },
    {
      "anonymous": false,
      "inputs": [
        {
          "indexed": true,
          "internalType": "uint256",
          "name": "tokenId",
          "type": "uint256"
        },
        {
          "indexed": false,
          "internalType": "uint256",
          "name": "allocation",
          "type": "uint256"
        }
      ],
      "name": "CreatorAllocationDeclared",
      "type": "event"
    },
    {
      "anonymous": false,
      "inputs": [
        {
          "indexed": true,
          "internalType": "uint256",
          "name": "tokenId",
          "type": "uint256"
        },
        {
          "indexed": false,
          "internalType": "uint256",
          "name": "newAllocation",
          "type": "uint256"
        },
        {
          "indexed": false,
          "internalType": "uint256",
          "name": "reductionAmount",
          "type": "uint256"
        }
      ],
      "name": "CreatorAllocationReduced",
      "type": "event"
    },
    {
      "anonymous": false,
      "inputs": [],
      "name": "EmergencyBypassDisabled",
      "type": "event"
    },
    {
      "anonymous": false,
      "inputs": [],
      "name": "EmergencyBypassEnabled",
      "type": "event"
    },
    {
      "anonymous": false,
      "inputs": [
        {
          "indexed": true,
          "internalType": "address",
          "name": "kol",
          "type": "address"
        },
        {
          "indexed": false,
          "internalType": "uint256",
          "name": "poolLimit",
          "type": "uint256"
        },
        {
          "indexed": false,
          "internalType": "uint256",
          "name": "enforcedSlotFee",
          "type": "uint256"
        },
        {
          "indexed": false,
          "internalType": "uint256",
          "name": "winnerLimit",
          "type": "uint256"
        }
      ],
      "name": "KOLApproved",
      "type": "event"
    },
    {
      "anonymous": false,
      "inputs": [
        {
          "indexed": true,
          "internalType": "address",
          "name": "kol",
          "type": "address"
        },
        {
          "indexed": true,
          "internalType": "address",
          "name": "pool",
          "type": "address"
        }
      ],
      "name": "KOLPoolCreated",
      "type": "event"
    },
    {
      "anonymous": false,
      "inputs": [
        {
          "indexed": true,
          "internalType": "address",
          "name": "kol",
          "type": "address"
        }
      ],
      "name": "KOLRevoked",
      "type": "event"
    },
    {
      "anonymous": false,
      "inputs": [
        {
          "indexed": true,
          "internalType": "address",
          "name": "marketplace",
          "type": "address"
        }
      ],
      "name": "MarketplaceAdded",
      "type": "event"
    },
    {
      "anonymous": false,
      "inputs": [
        {
          "indexed": true,
          "internalType": "address",
          "name": "marketplace",
          "type": "address"
        }
      ],
      "name": "MarketplaceRemoved",
      "type": "event"
    },
    {
      "anonymous": false,
      "inputs": [
        {
          "indexed": true,
          "internalType": "address",
          "name": "pool",
          "type": "address"
        },
        {
          "indexed": false,
          "internalType": "uint256",
          "name": "tokenId",
          "type": "uint256"
        },
        {
          "indexed": false,
          "internalType": "uint256",
          "name": "allocation",
          "type": "uint256"
        }
      ],
      "name": "MinterAllocationRestored",
      "type": "event"
    },
    {
      "anonymous": false,
      "inputs": [
        {
          "indexed": true,
          "internalType": "address",
          "name": "pool",
          "type": "address"
        },
        {
          "indexed": false,
          "internalType": "uint256",
          "name": "tokenId",
          "type": "uint256"
        },
        {
          "indexed": false,
          "internalType": "uint256",
          "name": "allocation",
          "type": "uint256"
        }
      ],
      "name": "MinterAndAllocationSet",
      "type": "event"
    },
    {
      "anonymous": false,
      "inputs": [
        {
          "indexed": true,
          "internalType": "uint256",
          "name": "tokenId",
          "type": "uint256"
        },
        {
          "indexed": false,
          "internalType": "uint256",
          "name": "maxSupply",
          "type": "uint256"
        }
      ],
      "name": "NewTokenAdded",
      "type": "event"
    },
    {
      "anonymous": false,
      "inputs": [
        {
          "indexed": true,
          "internalType": "address",
          "name": "previousOwner",
          "type": "address"
        },
        {
          "indexed": true,
          "internalType": "address",
          "name": "newOwner",
          "type": "address"
        }
      ],
      "name": "OwnershipTransferred",
      "type": "event"
    },
    {
      "anonymous": false,
      "inputs": [
        {
          "indexed": true,
          "internalType": "address",
          "name": "minter",
          "type": "address"
        },
        {
          "indexed": true,
          "internalType": "uint256",
          "name": "tokenId",
          "type": "uint256"
        },
        {
          "indexed": false,
          "internalType": "uint256",
          "name": "amount",
          "type": "uint256"
        }
      ],
      "name": "PrizeMinted",
      "type": "event"
    },
    {
      "anonymous": false,
      "inputs": [
        {
          "indexed": true,
          "internalType": "address",
          "name": "account",
          "type": "address"
        },
        {
          "indexed": false,
          "internalType": "bool",
          "name": "exempt",
          "type": "bool"
        }
      ],
      "name": "RoyaltyEnforcementExemptionUpdated",
      "type": "event"
    },
    {
      "anonymous": false,
      "inputs": [
        {
          "indexed": false,
          "internalType": "bool",
          "name": "enabled",
          "type": "bool"
        }
      ],
      "name": "RoyaltyEnforcementToggled",
      "type": "event"
    },
    {
      "anonymous": false,
      "inputs": [
        {
          "indexed": true,
          "internalType": "uint256",
          "name": "tokenId",
          "type": "uint256"
        },
        {
          "indexed": false,
          "internalType": "uint256",
          "name": "newMaxSupply",
          "type": "uint256"
        },
        {
          "indexed": false,
          "internalType": "uint256",
          "name": "newCreatorAllocation",
          "type": "uint256"
        }
      ],
      "name": "SupplyReduced",
      "type": "event"
    },
    {
      "anonymous": false,
      "inputs": [
        {
          "indexed": true,
          "internalType": "address",
          "name": "operator",
          "type": "address"
        },
        {
          "indexed": true,
          "internalType": "address",
          "name": "from",
          "type": "address"
        },
        {
          "indexed": true,
          "internalType": "address",
          "name": "to",
          "type": "address"
        },
        {
          "indexed": false,
          "internalType": "uint256[]",
          "name": "ids",
          "type": "uint256[]"
        },
        {
          "indexed": false,
          "internalType": "uint256[]",
          "name": "values",
          "type": "uint256[]"
        }
      ],
      "name": "TransferBatch",
      "type": "event"
    },
    {
      "anonymous": false,
      "inputs": [
        {
          "indexed": true,
          "internalType": "address",
          "name": "operator",
          "type": "address"
        },
        {
          "indexed": true,
          "internalType": "address",
          "name": "from",
          "type": "address"
        },
        {
          "indexed": true,
          "internalType": "address",
          "name": "to",
          "type": "address"
        },
        {
          "indexed": false,
          "internalType": "uint256",
          "name": "id",
          "type": "uint256"
        },
        {
          "indexed": false,
          "internalType": "uint256",
          "name": "value",
          "type": "uint256"
        }
      ],
      "name": "TransferSingle",
      "type": "event"
    },
    {
      "anonymous": false,
      "inputs": [
        {
          "indexed": false,
          "internalType": "string",
          "name": "value",
          "type": "string"
        },
        {
          "indexed": true,
          "internalType": "uint256",
          "name": "id",
          "type": "uint256"
        }
      ],
      "name": "URI",
      "type": "event"
    },
    {
      "anonymous": false,
      "inputs": [
        {
          "indexed": true,
          "internalType": "uint256",
          "name": "tokenId",
          "type": "uint256"
        },
        {
          "indexed": false,
          "internalType": "string",
          "name": "newURI",
          "type": "string"
        }
      ],
      "name": "URIUpdated",
      "type": "event"
    },
    {
      "anonymous": false,
      "inputs": [
        {
          "indexed": true,
          "internalType": "uint256",
          "name": "tokenId",
          "type": "uint256"
        },
        {
          "indexed": false,
          "internalType": "uint256",
          "name": "cliffEnd",
          "type": "uint256"
        },
        {
          "indexed": false,
          "internalType": "uint256",
          "name": "numberOfUnlocks",
          "type": "uint256"
        },
        {
          "indexed": false,
          "internalType": "uint256",
          "name": "durationBetweenUnlocks",
          "type": "uint256"
        },
        {
          "indexed": false,
          "internalType": "uint256",
          "name": "amountPerUnlock",
          "type": "uint256"
        }
      ],
      "name": "VestingConfiguredForToken",
      "type": "event"
    },
    {
      "inputs": [
        {
          "internalType": "address",
          "name": "marketplace",
          "type": "address"
        }
      ],
      "name": "addAllowedMarketplace",
      "outputs": [],
      "stateMutability": "nonpayable",
      "type": "function"
    },
    {
      "inputs": [
        {
          "internalType": "address",
          "name": "",
          "type": "address"
        }
      ],
      "name": "allocatedSupply",
      "outputs": [
        {
          "internalType": "uint256",
          "name": "",
          "type": "uint256"
        }
      ],
      "stateMutability": "view",
      "type": "function"
    },
    {
      "inputs": [
        {
          "internalType": "address",
          "name": "_kol",
          "type": "address"
        },
        {
          "internalType": "uint256",
          "name": "_poolLimit",
          "type": "uint256"
        },
        {
          "internalType": "uint256",
          "name": "_enforcedSlotFee",
          "type": "uint256"
        },
        {
          "internalType": "uint256",
          "name": "_winnerLimit",
          "type": "uint256"
        }
      ],
      "name": "approveKOL",
      "outputs": [],
      "stateMutability": "nonpayable",
      "type": "function"
    },
    {
      "inputs": [
        {
          "internalType": "uint256",
          "name": "id",
          "type": "uint256"
        }
      ],
      "name": "availableSupply",
      "outputs": [
        {
          "internalType": "uint256",
          "name": "",
          "type": "uint256"
        }
      ],
      "stateMutability": "view",
      "type": "function"
    },
    {
      "inputs": [
        {
          "internalType": "address",
          "name": "account",
          "type": "address"
        },
        {
          "internalType": "uint256",
          "name": "id",
          "type": "uint256"
        }
      ],
      "name": "balanceOf",
      "outputs": [
        {
          "internalType": "uint256",
          "name": "",
          "type": "uint256"
        }
      ],
      "stateMutability": "view",
      "type": "function"
    },
    {
      "inputs": [
        {
          "internalType": "address[]",
          "name": "accounts",
          "type": "address[]"
        },
        {
          "internalType": "uint256[]",
          "name": "ids",
          "type": "uint256[]"
        }
      ],
      "name": "balanceOfBatch",
      "outputs": [
        {
          "internalType": "uint256[]",
          "name": "",
          "type": "uint256[]"
        }
      ],
      "stateMutability": "view",
      "type": "function"
    },
    {
      "inputs": [
        {
          "internalType": "uint256",
          "name": "tokenId",
          "type": "uint256"
        },
        {
          "internalType": "uint256",
          "name": "cliffEnd",
          "type": "uint256"
        },
        {
          "internalType": "uint256",
          "name": "numberOfUnlocks",
          "type": "uint256"
        },
        {
          "internalType": "uint256",
          "name": "durationBetweenUnlocks",
          "type": "uint256"
        }
      ],
      "name": "configureCreatorVesting",
      "outputs": [],
      "stateMutability": "nonpayable",
      "type": "function"
    },
    {
      "inputs": [
        {
          "internalType": "uint256",
          "name": "_tokenId",
          "type": "uint256"
        },
        {
          "internalType": "uint256",
          "name": "_maxSupply",
          "type": "uint256"
        }
      ],
      "name": "createNewToken",
      "outputs": [],
      "stateMutability": "nonpayable",
      "type": "function"
    },
    {
      "inputs": [
        {
          "internalType": "uint256",
          "name": "",
          "type": "uint256"
        }
      ],
      "name": "creatorAllocation",
      "outputs": [
        {
          "internalType": "uint256",
          "name": "",
          "type": "uint256"
        }
      ],
      "stateMutability": "view",
      "type": "function"
    },
    {
      "inputs": [
        {
          "internalType": "uint256",
          "name": "",
          "type": "uint256"
        }
      ],
      "name": "creatorAllocationDeclared",
      "outputs": [
        {
          "internalType": "bool",
          "name": "",
          "type": "bool"
        }
      ],
      "stateMutability": "view",
      "type": "function"
    },
    {
      "inputs": [
        {
          "internalType": "uint256",
          "name": "",
          "type": "uint256"
        }
      ],
      "name": "creatorClaimedCount",
      "outputs": [
        {
          "internalType": "uint256",
          "name": "",
          "type": "uint256"
        }
      ],
      "stateMutability": "view",
      "type": "function"
    },
    {
      "inputs": [
        {
          "internalType": "address",
          "name": "to",
          "type": "address"
        },
        {
          "internalType": "uint256",
          "name": "id",
          "type": "uint256"
        },
        {
          "internalType": "uint256",
          "name": "quantity",
          "type": "uint256"
        }
      ],
      "name": "creatorMint",
      "outputs": [],
      "stateMutability": "nonpayable",
      "type": "function"
    },
    {
      "inputs": [
        {
          "internalType": "uint256",
          "name": "tokenId",
          "type": "uint256"
        },
        {
          "internalType": "uint256",
          "name": "_percentage",
          "type": "uint256"
        }
      ],
      "name": "cutSupply",
      "outputs": [],
      "stateMutability": "nonpayable",
      "type": "function"
    },
    {
      "inputs": [
        {
          "internalType": "uint256",
          "name": "tokenId",
          "type": "uint256"
        },
        {
          "internalType": "uint256",
          "name": "_percentage",
          "type": "uint256"
        }
      ],
      "name": "declareCreatorAllocation",
      "outputs": [],
      "stateMutability": "nonpayable",
      "type": "function"
    },
    {
      "inputs": [],
      "name": "disableEmergencyBypass",
      "outputs": [],
      "stateMutability": "nonpayable",
      "type": "function"
    },
    {
      "inputs": [],
      "name": "emergencyBypassEnabled",
      "outputs": [
        {
          "internalType": "bool",
          "name": "",
          "type": "bool"
        }
      ],
      "stateMutability": "view",
      "type": "function"
    },
    {
      "inputs": [],
      "name": "enableEmergencyBypass",
      "outputs": [],
      "stateMutability": "nonpayable",
      "type": "function"
    },
    {
      "inputs": [
        {
          "internalType": "uint256",
          "name": "id",
          "type": "uint256"
        }
      ],
      "name": "exists",
      "outputs": [
        {
          "internalType": "bool",
          "name": "",
          "type": "bool"
        }
      ],
      "stateMutability": "view",
      "type": "function"
    },
    {
      "inputs": [],
      "name": "getAllTokenIds",
      "outputs": [
        {
          "internalType": "uint256[]",
          "name": "",
          "type": "uint256[]"
        }
      ],
      "stateMutability": "view",
      "type": "function"
    },
    {
      "inputs": [
        {
          "internalType": "uint256",
          "name": "tokenId",
          "type": "uint256"
        }
      ],
      "name": "getAvailableCreatorMint",
      "outputs": [
        {
          "internalType": "uint256",
          "name": "",
          "type": "uint256"
        }
      ],
      "stateMutability": "view",
      "type": "function"
    },
    {
      "inputs": [],
      "name": "getCollectionStats",
      "outputs": [
        {
          "internalType": "uint256",
          "name": "totalTokenTypes",
          "type": "uint256"
        },
        {
          "internalType": "uint256",
          "name": "totalTokensMinted",
          "type": "uint256"
        }
      ],
      "stateMutability": "view",
      "type": "function"
    },
    {
      "inputs": [
        {
          "internalType": "address",
          "name": "_kol",
          "type": "address"
        }
      ],
      "name": "getKOLApprovalDetails",
      "outputs": [
        {
          "internalType": "bool",
          "name": "approved",
          "type": "bool"
        },
        {
          "internalType": "uint256",
          "name": "poolLimit",
          "type": "uint256"
        },
        {
          "internalType": "uint256",
          "name": "enforcedSlotFee",
          "type": "uint256"
        },
        {
          "internalType": "uint256",
          "name": "winnerLimit",
          "type": "uint256"
        },
        {
          "internalType": "uint256",
          "name": "poolCount",
          "type": "uint256"
        },
        {
          "internalType": "uint256",
          "name": "winnerCount",
          "type": "uint256"
        }
      ],
      "stateMutability": "view",
      "type": "function"
    },
    {
      "inputs": [
        {
          "internalType": "uint256",
          "name": "tokenId",
          "type": "uint256"
        }
      ],
      "name": "getTokenInfo",
      "outputs": [
        {
          "internalType": "uint256",
          "name": "maxSupply_",
          "type": "uint256"
        },
        {
          "internalType": "uint256",
          "name": "currentSupply_",
          "type": "uint256"
        },
        {
          "internalType": "bool",
          "name": "exists_",
          "type": "bool"
        }
      ],
      "stateMutability": "view",
      "type": "function"
    },
    {
      "inputs": [
        {
          "internalType": "uint256",
          "name": "tokenId",
          "type": "uint256"
        }
      ],
      "name": "getUnlockedCreatorAllocation",
      "outputs": [
        {
          "internalType": "uint256",
          "name": "",
          "type": "uint256"
        }
      ],
      "stateMutability": "view",
      "type": "function"
    },
    {
      "inputs": [],
      "name": "getUnrevealedURI",
      "outputs": [
        {
          "internalType": "string",
          "name": "",
          "type": "string"
        }
      ],
      "stateMutability": "view",
      "type": "function"
    },
    {
      "inputs": [
        {
          "internalType": "address",
          "name": "_kol",
          "type": "address"
        },
        {
          "internalType": "uint256",
          "name": "_winnersCount",
          "type": "uint256"
        }
      ],
      "name": "incrementKOLApprovedCounts",
      "outputs": [],
      "stateMutability": "nonpayable",
      "type": "function"
    },
    {
      "inputs": [
        {
          "internalType": "uint256",
          "name": "_prizeTokenId",
          "type": "uint256"
        },
        {
          "components": [
            {
              "internalType": "address",
              "name": "initialOwner",
              "type": "address"
            },
            {
              "internalType": "address",
              "name": "protocolManager",
              "type": "address"
            },
            {
              "internalType": "address",
              "name": "royaltyRecipient",
              "type": "address"
            },
            {
              "internalType": "uint256",
              "name": "royaltyPercentage",
              "type": "uint256"
            },
            {
              "internalType": "uint256",
              "name": "maxSupply",
              "type": "uint256"
            },
            {
              "internalType": "enum PrizeTypes.RevealType",
              "name": "revealType",
              "type": "uint8"
            },
            {
              "internalType": "uint256",
              "name": "revealTime",
              "type": "uint256"
            }
          ],
          "internalType": "struct ERC1155Prize.PrizeInitParams",
          "name": "params",
          "type": "tuple"
        },
        {
          "components": [
            {
              "internalType": "string",
              "name": "baseURI",
              "type": "string"
            },
            {
              "internalType": "string",
              "name": "unrevealedURI",
              "type": "string"
            }
          ],
          "internalType": "struct ERC1155Prize.URIs",
          "name": "uris",
          "type": "tuple"
        }
      ],
      "name": "initialize",
      "outputs": [],
      "stateMutability": "nonpayable",
      "type": "function"
    },
    {
      "inputs": [
        {
          "internalType": "address",
          "name": "account",
          "type": "address"
        },
        {
          "internalType": "address",
          "name": "operator",
          "type": "address"
        }
      ],
      "name": "isApprovedForAll",
      "outputs": [
        {
          "internalType": "bool",
          "name": "",
          "type": "bool"
        }
      ],
      "stateMutability": "view",
      "type": "function"
    },
    {
      "inputs": [
        {
          "internalType": "address",
          "name": "marketplace",
          "type": "address"
        }
      ],
      "name": "isMarketplaceAllowed",
      "outputs": [
        {
          "internalType": "bool",
          "name": "",
          "type": "bool"
        }
      ],
      "stateMutability": "view",
      "type": "function"
    },
    {
      "inputs": [],
      "name": "isRevealed",
      "outputs": [
        {
          "internalType": "bool",
          "name": "",
          "type": "bool"
        }
      ],
      "stateMutability": "view",
      "type": "function"
    },
    {
      "inputs": [
        {
          "internalType": "address",
          "name": "account",
          "type": "address"
        }
      ],
      "name": "isRoyaltyEnforcementExempt",
      "outputs": [
        {
          "internalType": "bool",
          "name": "",
          "type": "bool"
        }
      ],
      "stateMutability": "view",
      "type": "function"
    },
    {
      "inputs": [
        {
          "internalType": "address",
          "name": "",
          "type": "address"
        }
      ],
      "name": "kolApprovals",
      "outputs": [
        {
          "internalType": "bool",
          "name": "approved",
          "type": "bool"
        },
        {
          "internalType": "uint256",
          "name": "poolLimit",
          "type": "uint256"
        },
        {
          "internalType": "uint256",
          "name": "enforcedSlotFee",
          "type": "uint256"
        },
        {
          "internalType": "uint256",
          "name": "winnerLimit",
          "type": "uint256"
        },
        {
          "internalType": "uint256",
          "name": "poolCount",
          "type": "uint256"
        },
        {
          "internalType": "uint256",
          "name": "winnerCount",
          "type": "uint256"
        }
      ],
      "stateMutability": "view",
      "type": "function"
    },
    {
      "inputs": [
        {
          "internalType": "uint256",
          "name": "",
          "type": "uint256"
        }
      ],
      "name": "maxSupply",
      "outputs": [
        {
          "internalType": "uint256",
          "name": "",
          "type": "uint256"
        }
      ],
      "stateMutability": "view",
      "type": "function"
    },
    {
      "inputs": [
        {
          "internalType": "address",
          "name": "to",
          "type": "address"
        },
        {
          "internalType": "uint256",
          "name": "id",
          "type": "uint256"
        },
        {
          "internalType": "uint256",
          "name": "amount",
          "type": "uint256"
        }
      ],
      "name": "mint",
      "outputs": [],
      "stateMutability": "nonpayable",
      "type": "function"
    },
    {
      "inputs": [],
      "name": "minterLocked",
      "outputs": [
        {
          "internalType": "bool",
          "name": "",
          "type": "bool"
        }
      ],
      "stateMutability": "view",
      "type": "function"
    },
    {
      "inputs": [
        {
          "internalType": "address",
          "name": "",
          "type": "address"
        },
        {
          "internalType": "address",
          "name": "",
          "type": "address"
        },
        {
          "internalType": "uint256[]",
          "name": "",
          "type": "uint256[]"
        },
        {
          "internalType": "uint256[]",
          "name": "",
          "type": "uint256[]"
        },
        {
          "internalType": "bytes",
          "name": "",
          "type": "bytes"
        }
      ],
      "name": "onERC1155BatchReceived",
      "outputs": [
        {
          "internalType": "bytes4",
          "name": "",
          "type": "bytes4"
        }
      ],
      "stateMutability": "pure",
      "type": "function"
    },
    {
      "inputs": [
        {
          "internalType": "address",
          "name": "",
          "type": "address"
        },
        {
          "internalType": "address",
          "name": "",
          "type": "address"
        },
        {
          "internalType": "uint256",
          "name": "",
          "type": "uint256"
        },
        {
          "internalType": "uint256",
          "name": "",
          "type": "uint256"
        },
        {
          "internalType": "bytes",
          "name": "",
          "type": "bytes"
        }
      ],
      "name": "onERC1155Received",
      "outputs": [
        {
          "internalType": "bytes4",
          "name": "",
          "type": "bytes4"
        }
      ],
      "stateMutability": "pure",
      "type": "function"
    },
    {
      "inputs": [],
      "name": "owner",
      "outputs": [
        {
          "internalType": "address",
          "name": "",
          "type": "address"
        }
      ],
      "stateMutability": "view",
      "type": "function"
    },
    {
      "inputs": [
        {
          "internalType": "address",
          "name": "",
          "type": "address"
        }
      ],
      "name": "poolTokenId",
      "outputs": [
        {
          "internalType": "uint256",
          "name": "",
          "type": "uint256"
        }
      ],
      "stateMutability": "view",
      "type": "function"
    },
    {
      "inputs": [],
      "name": "protocolManager",
      "outputs": [
        {
          "internalType": "address",
          "name": "",
          "type": "address"
        }
      ],
      "stateMutability": "view",
      "type": "function"
    },
    {
      "inputs": [
        {
          "internalType": "uint256",
          "name": "tokenId",
          "type": "uint256"
        },
        {
          "internalType": "uint256",
          "name": "_percentage",
          "type": "uint256"
        }
      ],
      "name": "reduceCreatorAllocation",
      "outputs": [],
      "stateMutability": "nonpayable",
      "type": "function"
    },
    {
      "inputs": [
        {
          "internalType": "address",
          "name": "marketplace",
          "type": "address"
        }
      ],
      "name": "removeAllowedMarketplace",
      "outputs": [],
      "stateMutability": "nonpayable",
      "type": "function"
    },
    {
      "inputs": [],
      "name": "renounceOwnership",
      "outputs": [],
      "stateMutability": "nonpayable",
      "type": "function"
    },
    {
      "inputs": [
        {
          "internalType": "address",
          "name": "pool",
          "type": "address"
        }
      ],
      "name": "restoreMinterAllocation",
      "outputs": [],
      "stateMutability": "nonpayable",
      "type": "function"
    },
    {
      "inputs": [],
      "name": "reveal",
      "outputs": [],
      "stateMutability": "nonpayable",
      "type": "function"
    },
    {
      "inputs": [],
      "name": "revealTime",
      "outputs": [
        {
          "internalType": "uint256",
          "name": "",
          "type": "uint256"
        }
      ],
      "stateMutability": "view",
      "type": "function"
    },
    {
      "inputs": [],
      "name": "revealType",
      "outputs": [
        {
          "internalType": "enum PrizeTypes.RevealType",
          "name": "",
          "type": "uint8"
        }
      ],
      "stateMutability": "view",
      "type": "function"
    },
    {
      "inputs": [
        {
          "internalType": "address",
          "name": "_kol",
          "type": "address"
        }
      ],
      "name": "revokeKOL",
      "outputs": [],
      "stateMutability": "nonpayable",
      "type": "function"
    },
    {
      "inputs": [],
      "name": "royaltyEnforcementEnabled",
      "outputs": [
        {
          "internalType": "bool",
          "name": "",
          "type": "bool"
        }
      ],
      "stateMutability": "view",
      "type": "function"
    },
    {
      "inputs": [
        {
          "internalType": "uint256",
          "name": "",
          "type": "uint256"
        },
        {
          "internalType": "uint256",
          "name": "salePrice",
          "type": "uint256"
        }
      ],
      "name": "royaltyInfo",
      "outputs": [
        {
          "internalType": "address",
          "name": "",
          "type": "address"
        },
        {
          "internalType": "uint256",
          "name": "",
          "type": "uint256"
        }
      ],
      "stateMutability": "view",
      "type": "function"
    },
    {
      "inputs": [],
      "name": "royaltyPercentage",
      "outputs": [
        {
          "internalType": "uint256",
          "name": "",
          "type": "uint256"
        }
      ],
      "stateMutability": "view",
      "type": "function"
    },
    {
      "inputs": [],
      "name": "royaltyRecipient",
      "outputs": [
        {
          "internalType": "address",
          "name": "",
          "type": "address"
        }
      ],
      "stateMutability": "view",
      "type": "function"
    },
    {
      "inputs": [
        {
          "internalType": "address",
          "name": "from",
          "type": "address"
        },
        {
          "internalType": "address",
          "name": "to",
          "type": "address"
        },
        {
          "internalType": "uint256[]",
          "name": "ids",
          "type": "uint256[]"
        },
        {
          "internalType": "uint256[]",
          "name": "amounts",
          "type": "uint256[]"
        },
        {
          "internalType": "bytes",
          "name": "data",
          "type": "bytes"
        }
      ],
      "name": "safeBatchTransferFrom",
      "outputs": [],
      "stateMutability": "nonpayable",
      "type": "function"
    },
    {
      "inputs": [
        {
          "internalType": "address",
          "name": "from",
          "type": "address"
        },
        {
          "internalType": "address",
          "name": "to",
          "type": "address"
        },
        {
          "internalType": "uint256",
          "name": "id",
          "type": "uint256"
        },
        {
          "internalType": "uint256",
          "name": "amount",
          "type": "uint256"
        },
        {
          "internalType": "bytes",
          "name": "data",
          "type": "bytes"
        }
      ],
      "name": "safeTransferFrom",
      "outputs": [],
      "stateMutability": "nonpayable",
      "type": "function"
    },
    {
      "inputs": [
        {
          "internalType": "address",
          "name": "operator",
          "type": "address"
        },
        {
          "internalType": "bool",
          "name": "approved",
          "type": "bool"
        }
      ],
      "name": "setApprovalForAll",
      "outputs": [],
      "stateMutability": "nonpayable",
      "type": "function"
    },
    {
      "inputs": [
        {
          "internalType": "string",
          "name": "newBaseURI",
          "type": "string"
        }
      ],
      "name": "setBaseURI",
      "outputs": [],
      "stateMutability": "nonpayable",
      "type": "function"
    },
    {
      "inputs": [
        {
          "internalType": "address",
          "name": "pool",
          "type": "address"
        },
        {
          "internalType": "uint256",
          "name": "tokenId",
          "type": "uint256"
        },
        {
          "internalType": "uint256",
          "name": "allocation",
          "type": "uint256"
        }
      ],
      "name": "setMinterAndAllocation",
      "outputs": [],
      "stateMutability": "nonpayable",
      "type": "function"
    },
    {
      "inputs": [
        {
          "internalType": "uint256",
          "name": "_royaltyPercentage",
          "type": "uint256"
        },
        {
          "internalType": "address",
          "name": "_royaltyRecipient",
          "type": "address"
        }
      ],
      "name": "setRoyalty",
      "outputs": [],
      "stateMutability": "nonpayable",
      "type": "function"
    },
    {
      "inputs": [
        {
          "internalType": "address",
          "name": "account",
          "type": "address"
        },
        {
          "internalType": "bool",
          "name": "exempt",
          "type": "bool"
        }
      ],
      "name": "setRoyaltyEnforcementExemption",
      "outputs": [],
      "stateMutability": "nonpayable",
      "type": "function"
    },
    {
      "inputs": [
        {
          "internalType": "uint256",
          "name": "_tokenId",
          "type": "uint256"
        },
        {
          "internalType": "string",
          "name": "_uri",
          "type": "string"
        }
      ],
      "name": "setURI",
      "outputs": [],
      "stateMutability": "nonpayable",
      "type": "function"
    },
    {
      "inputs": [
        {
          "internalType": "uint256",
          "name": "",
          "type": "uint256"
        }
      ],
      "name": "supplyCutTimestamp",
      "outputs": [
        {
          "internalType": "uint256",
          "name": "",
          "type": "uint256"
        }
      ],
      "stateMutability": "view",
      "type": "function"
    },
    {
      "inputs": [
        {
          "internalType": "bytes4",
          "name": "interfaceId",
          "type": "bytes4"
        }
      ],
      "name": "supportsInterface",
      "outputs": [
        {
          "internalType": "bool",
          "name": "",
          "type": "bool"
        }
      ],
      "stateMutability": "view",
      "type": "function"
    },
    {
      "inputs": [
        {
          "internalType": "bool",
          "name": "enabled",
          "type": "bool"
        }
      ],
      "name": "toggleRoyaltyEnforcement",
      "outputs": [],
      "stateMutability": "nonpayable",
      "type": "function"
    },
    {
      "inputs": [
        {
          "internalType": "uint256",
          "name": "",
          "type": "uint256"
        }
      ],
      "name": "tokenAllocatedSupply",
      "outputs": [
        {
          "internalType": "uint256",
          "name": "",
          "type": "uint256"
        }
      ],
      "stateMutability": "view",
      "type": "function"
    },
    {
      "inputs": [
        {
          "internalType": "uint256",
          "name": "",
          "type": "uint256"
        }
      ],
      "name": "tokenCreationTime",
      "outputs": [
        {
          "internalType": "uint256",
          "name": "",
          "type": "uint256"
        }
      ],
      "stateMutability": "view",
      "type": "function"
    },
    {
      "inputs": [
        {
          "internalType": "uint256",
          "name": "id",
          "type": "uint256"
        }
      ],
      "name": "totalSupply",
      "outputs": [
        {
          "internalType": "uint256",
          "name": "",
          "type": "uint256"
        }
      ],
      "stateMutability": "view",
      "type": "function"
    },
    {
      "inputs": [
        {
          "internalType": "address",
          "name": "newOwner",
          "type": "address"
        }
      ],
      "name": "transferOwnership",
      "outputs": [],
      "stateMutability": "nonpayable",
      "type": "function"
    },
    {
      "inputs": [
        {
          "internalType": "uint256",
          "name": "",
          "type": "uint256"
        }
      ],
      "name": "unlockedAmountAtCut",
      "outputs": [
        {
          "internalType": "uint256",
          "name": "",
          "type": "uint256"
        }
      ],
      "stateMutability": "view",
      "type": "function"
    },
    {
      "inputs": [],
      "name": "unrevealedURI",
      "outputs": [
        {
          "internalType": "string",
          "name": "",
          "type": "string"
        }
      ],
      "stateMutability": "view",
      "type": "function"
    },
    {
      "inputs": [
        {
          "internalType": "uint256",
          "name": "_tokenId",
          "type": "uint256"
        }
      ],
      "name": "uri",
      "outputs": [
        {
          "internalType": "string",
          "name": "",
          "type": "string"
        }
      ],
      "stateMutability": "view",
      "type": "function"
    },
    {
      "inputs": [
        {
          "internalType": "uint256",
          "name": "",
          "type": "uint256"
        }
      ],
      "name": "vestingConfig",
      "outputs": [
        {
          "internalType": "uint256",
          "name": "cliffEnd",
          "type": "uint256"
        },
        {
          "internalType": "uint256",
          "name": "numberOfUnlocks",
          "type": "uint256"
        },
        {
          "internalType": "uint256",
          "name": "durationBetweenUnlocks",
          "type": "uint256"
        },
        {
          "internalType": "uint256",
          "name": "amountPerUnlock",
          "type": "uint256"
        }
      ],
      "stateMutability": "view",
      "type": "function"
    },
    {
      "inputs": [
        {
          "internalType": "uint256",
          "name": "",
          "type": "uint256"
        }
      ],
      "name": "vestingConfigured",
      "outputs": [
        {
          "internalType": "bool",
          "name": "",
          "type": "bool"
        }
      ],
      "stateMutability": "view",
      "type": "function"
    },
    {
      "inputs": [
        {
          "internalType": "address",
          "name": "",
          "type": "address"
        },
        {
          "internalType": "uint256",
          "name": "",
          "type": "uint256"
        }
      ],
      "name": "walletMintedCount",
      "outputs": [
        {
          "internalType": "uint256",
          "name": "",
          "type": "uint256"
        }
      ],
      "stateMutability": "view",
      "type": "function"
    }
  ],
  "bytecode": "0x60a0346200017f576001600160401b0390601f62005f0d38819003918201601f19168301918483118484101762000169578084926020946040528339810103126200017f57516001600160a01b039182821682036200017f5760405190602082019081118282101762000169576040526000809152600254906001918281811c911680156200015e575b60208210146200014a57601f8111620000fc575b5080600255600454903360018060a01b03198316176004557f8be0079c531659141344cd1fd0a4f28419497f9722a3daafe3b4186f6b6457e0604051953393169180a3600555608052615d889081620001858239608051816139b70152f35b60028252601f0160051c7f405787fa12a823e0f2b7631cc41b3ba8828b3321ca811111fa75cd3aa3bb5ace9081019083905b8281106200013e5750506200009d565b8381550183906200012e565b634e487b7160e01b82526022600452602482fd5b90607f169062000089565b634e487b7160e01b600052604160045260246000fd5b600080fdfe6080604052600436101561001257600080fd5b60003560e01c8062fdd58e146104a157806301ffc9a71461049c5780630e89341c14610497578063101224881461049257806310c7e4a21461048d578063156e29f61461048857806317f63979146104835780631b9dfee71461047e5780631fc3689b1461047957806321e8b17e1461047457806324e0eba91461046f5780632633f8b11461046a57806329a77e26146104655780632a55205a146104605780632eb2c2d61461045b57806340e3276b146104565780634c00de82146104515780634e1273f41461044c5780634f14ec3f146104475780634f558e791461044257806353cb5d511461043d57806354214f691461043857806355f804b3146104335780635894bd511461042e578063664077811461041f5780636981bb461461042957806369d42c5e146104245780637035bf181461041f578063715018a61461041a57806371c333591461041557806383e46c5614610410578063862440e21461040b578063869f75941461040657806389f7842d146104015780638a5d6909146103fc5780638a71bb2d146103f75780638be6dc1d146103f25780638c7a63ae146103ed5780638da5cb5b146103e857806397c82b66146103e35780639de21c10146103de578063a22cb465146103d9578063a2af294f146103d4578063a2d6ebf3146103cf578063a475b5dd146103ca578063a9c989dc146103c5578063ab4b6692146103c0578063ae0f9544146103bb578063b5f1f247146103b6578063ba829d71146103b1578063bc197c81146103ac578063bd85b039146103a7578063bdbed722146103a2578063c705fea21461039d578063cc54cce314610398578063cca6ffe214610393578063cdfaee4e1461038e578063cee8e0fe14610389578063d0aa96c014610384578063d5c32ca41461037f578063d6b6e2031461037a578063d7e1a40014610375578063daaa25fd14610370578063e377b67c1461036b578063e642d3b114610366578063e8834c4814610361578063e985e9c51461035c578063f23a6e6114610357578063f242432a14610352578063f2fde38b1461034d578063faf5a12414610348578063fbddc055146103435763fcf2e55f1461033e57600080fd5b613330565b6132a9565b61308f565b612ffe565b612f43565b612ee9565b612e81565b612d9e565b612d6d565b612d22565b612c7a565b612bba565b612b7d565b612ae2565b612a82565b612a5f565b612a41565b612a23565b612a00565b612842565b6127aa565b61277e565b6126ef565b612674565b612527565b61228f565b612266565b61223a565b612124565b6120f8565b6120ce565b611f64565b611e61565b611d74565b611d4b565b611d06565b611cda565b611cbc565b611c7f565b611c53565b611c27565b611aac565b611a89565b611a47565b6119e9565b611770565b6117b8565b61178c565b6116eb565b611686565b611663565b6114f6565b6114c8565b6113cd565b611312565b6112a4565b611209565b610fd1565b610e23565b610df2565b610d1e565b610cb5565b610c89565b610a64565b610911565b610848565b61075a565b6106f5565b610645565b610604565b610510565b6104cb565b6001600160a01b038116036104b757565b600080fd5b606435906104c9826104a6565b565b346104b75760403660031901126104b75760206104f66004356104ed816104a6565b6024359061343d565b604051908152f35b6001600160e01b03198116036104b757565b346104b75760203660031901126104b757602060043561052f816104fe565b63ffffffff60e01b1663152a902d60e11b811490811561059f575b811561055c575b506040519015158152f35b636cdb3d1360e11b81149150811561058e575b811561057d575b5038610551565b6301ffc9a760e01b14905038610576565b6303a24d0760e21b8114915061056f565b63349af5d560e21b8114915061054a565b919082519283825260005b8481106105dc575050826000602080949584010152601f8019910116010190565b6020818301810151848301820152016105bb565b9060206106019281815201906105b0565b90565b346104b75760203660031901126104b7576106376106236004356147dc565b6040519182916020835260208301906105b0565b0390f35b801515036104b757565b346104b75760203660031901126104b7577ff4fe92c76f5b8827e8fd9eac2c7181b6b2c22b10543b969fa2d9a26cdcd56bd26106c66004356106868161063b565b61068e61339c565b80156106cb5760026013546001600160801b038116906001600160801b03191617176013555b60405190151581529081906020820190565b0390a1005b6013546ffffffffffffffffffffffffffffffffd8116906001600160801b031916176013556106b4565b346104b75760203660031901126104b757600435610712816104a6565b60018060a01b03166000526011602052602060ff604060002054166040519015158152f35b60609060031901126104b75760043561074f816104a6565b906024359060443590565b346104b75761076836610737565b90916107726149ca565b336000908152600b6020526040902061078d9054151561490a565b6107a1836000526003602052604060002090565b546107b684600052600a602052604060002090565b5490811561083657806107cb83869310614945565b0111610824576107e59082846107df6149a7565b92614a20565b60405190815233907faafa1dbc87d0d4fc4b41b7ea689f27064944bce2e8d5dd922ba7c35a463606d89080602081015b0390a36108226001600555565b005b60405163c30436e960e01b8152600490fd5b604051630fee82b160e01b8152600490fd5b346104b75760203660031901126104b757600435610865816104a6565b60018060a01b03166000526006602052604060002060405161088681610e75565b60ff825416151580825260a060018401549384602085015260028101549384604082015260038201549081606082015260056004840154938460808401520154938491015283610907575b6106379394604051968796879260a094919796959260c08501981515855260208501526040840152606083015260808201520152565b80831093506108d1565b346104b75760403660031901126104b7576004357fbb7617ce321e467e1dc6bad5c188dbe5c31dfe923c1283a07602d74040e0cb4a60243561095161339c565b82600052601760205261097261096d604060002060ff90541690565b614c2a565b80151580610a59575b61098490614c88565b61099883600052601a602052604060002090565b546109eb6109d96109d26109b6876000526016602052604060002090565b54946109c28587614cef565b6109cd811515614cfc565b614bf7565b6064900490565b80936109e6821515614d5a565b614cef565b9081610a01866000526016602052604060002090565b55610a20610a19866000526019602052604060002090565b5460ff1690565b610a40575b5060408051918252602082019290925290819081015b0390a2005b610a4d610a539183614cef565b85614db9565b38610a25565b50606481111561097b565b346104b75760803660031901126104b7576004357f088cab2409ca33ba4d1407cb6386b97a16192c0417c40ace27682534b193a0f7604435602435610a3b606435610aad61339c565b610ad3610ace610aca610a19896000526019602052604060002090565b1590565b614e7b565b610af2610aea87600052600a602052604060002090565b5415156146f8565b610b11610b09876000526018602052604060002090565b541515614ed9565b610b2b61096d610a19886000526017602052604060002090565b610ba884610ba3610b9e828a610b8b610b83610b7d610b54846000526016602052604060002090565b54936101f4851015610c4957610b6d600287101561502a565b6000526018602052604060002090565b546141b1565b8a1015615081565b610b99610e108810156150e6565b6141ce565b614ce0565b614c0a565b90610c02610bb4610eec565b858152866020820152826040820152836060820152610bdd89600052601d602052604060002090565b9060606003918051845560208101516001850155604081015160028501550151910155565b610c26610c19886000526019602052604060002090565b805460ff19166001179055565b604051948594859094939260609260808301968352602083015260408201520152565b6103e8851015610c6557610c606004871015614fd0565b610b6d565b6107d0851015610c7c57610c606008871015614f75565b610c606008871015614f1d565b346104b75760203660031901126104b75760043560005260186020526020604060002054604051908152f35b346104b757600080600319360112610d1b57610ccf61339c565b6013546ffffffffffffffffffffffffffffffffb8116906001600160801b031916176013557fa0e4442ee881786834ee773b9ed42c22dff390d3d3318996679777915e63be348180a180f35b80fd5b346104b75760203660031901126104b757600435610d3b816104a6565b610d4361339c565b6001600160a01b03811660008181526012602052604081205490929060ff1615610dad576001600160a01b03166000908152601260205260409020805460ff191690557feac9a18305649744c83ff9f4d60058552b03f4e8df46a1cb28f7563fbd179b428280a280f35b60405162461bcd60e51b815260206004820152601f60248201527f4d61726b6574706c616365206e6f7420696e20616c6c6f776564206c697374006044820152606490fd5b346104b75760203660031901126104b7576004356000526017602052602060ff604060002054166040519015158152f35b346104b75760403660031901126104b757604060018060a01b0360085416612710610e52600754602435614bf7565b0482519182526020820152f35b634e487b7160e01b600052604160045260246000fd5b60c081019081106001600160401b03821117610e9057604052565b610e5f565b60e081019081106001600160401b03821117610e9057604052565b608081019081106001600160401b03821117610e9057604052565b90601f801991011681019081106001600160401b03821117610e9057604052565b604051906104c982610eb0565b604051906104c982610e75565b6001600160401b038111610e905760051b60200190565b81601f820112156104b757803591610f3483610f06565b92610f426040519485610ecb565b808452602092838086019260051b8201019283116104b7578301905b828210610f6c575050505090565b81358152908301908301610f5e565b81601f820112156104b7578035906001600160401b038211610e905760405192610faf601f8401601f191660200185610ecb565b828452602083830101116104b757816000926020809301838601378301015290565b346104b75760a03660031901126104b757600435610fee816104a6565b60243590610ffb826104a6565b6001600160401b03906044358281116104b75761101c903690600401610f1d565b916064358181116104b757611035903690600401610f1d565b906084359081116104b75761104e903690600401610f7b565b9260135460048116151590816111fd575b50806111e4575b6111c5575b6001600160a01b03838116949033861480156111a2575b61108b90613e98565b6110988351855114614598565b86166110a58115156140f8565b6110b184848988615893565b60005b835181101561115e57806110cb6111599286613567565b5161115261114a8b6110ff6110e0868c613567565b51948c61113987611116836110ff866000526000602052604060002090565b9060018060a01b0316600052602052604060002090565b5461112382821015614152565b03916110ff846000526000602052604060002090565b556000526000602052604060002090565b9182546141ce565b9055613542565b6110b4565b5093869194610822966040517f4a39dc06d4c0dbc64b70af90fd698a233a518aa5d07e595d983b8c0526c8f7fb3391806111998a8a836145f5565b0390a433614668565b50600086815260016020908152604080832033845290915290205460ff16611082565b3360005260126020526111df60ff60406000205416613e26565b61106b565b5033600052601160205260ff6040600020541615611066565b6008915016153861105f565b346104b75760403660031901126104b757602435600435611229826104a6565b61123161339c565b612710811161125f57600755600880546001600160a01b0319166001600160a01b0392909216919091179055005b60405162461bcd60e51b815260206004820152601a60248201527f526f79616c74792063616e6e6f742065786365656420313030250000000000006044820152606490fd5b346104b75760003660031901126104b7576008546040516001600160a01b039091168152602090f35b90815180825260208080930193019160005b8281106112ed575050505090565b8351855293810193928101926001016112df565b9060206106019281815201906112cd565b346104b75760403660031901126104b7576004356001600160401b038082116104b757366023830112156104b757816004013561134e81610f06565b9261135c6040519485610ecb565b81845260209160248386019160051b830101913683116104b757602401905b8282106113b457856024358681116104b757610637916113a26113a8923690600401610f1d565b90613580565b60405191829182611301565b83809183356113c2816104a6565b81520191019061137b565b346104b75760403660031901126104b7576024356004356113ec61339c565b61144d6109d2600093838552600a60205261140c604086205415156146f8565b838552601760205260408520546114269060ff1615614b38565b6114336014821115614b9f565b61144784600052600a602052604060002090565b54614bf7565b611461826000526016602052604060002090565b55611479610c19826000526017602052604060002090565b7fb9810d2bf7d3f589fcd8960a77553281c32552184a1a4aeb6998396dd1b175426114c26114b1836000526016602052604060002090565b546040519081529081906020820190565b0390a280f35b346104b75760203660031901126104b757600435600052600360205260206040600020541515604051908152f35b346104b7576108157f22a0362337789c81f3cf44af8dd14037966fde16d43f0503e0d569552676678861152836610737565b929161153594919461339c565b61153d6149ca565b6115c461155486600052600a602052604060002090565b546115bd8661156d896000526003602052604060002090565b5461158d611588610a198c6000526019602052604060002090565b615334565b6115a761096d610a198c6000526017602052604060002090565b6115b284151561538e565b610b998215156153da565b111561541d565b6115d86115d0866152e6565b85111561545e565b6116156115f9856115f388600052601a602052604060002090565b546141ce565b61160d876000526016602052604060002090565b5410156154b8565b61162985600052601a602052604060002090565b6116348582546141ce565b90556116496116416149a7565b858784614a20565b6040519384526001600160a01b0316929081906020820190565b346104b75760003660031901126104b75760206001601354161515604051908152f35b346104b75760203660031901126104b7576004356001600160401b0381116104b7576106c66116da7f6741b2fc379fad678116fe3d4d4b9a1a184ab53ba36b86ad0fa66340b1ab41ad923690600401610f7b565b6116e261339c565b61062381613b94565b346104b757600080600319360112610d1b57808060015b6103e881111561171c576040805183815260208101869052f35b8083526020600a8152604080852054611740575b505061173b90613542565b611702565b9092611750600391969396613542565b9386865252832054810180911161176b579261173b38611730565b61352c565b346104b75760003660031901126104b757610637610623611894565b346104b75760203660031901126104b757600435600052601c6020526020604060002054604051908152f35b346104b75760403660031901126104b7576004356117d5816104a6565b60095460405163188c824d60e11b81526001600160a01b0392916020908290600490829087165afa8015611855576108229361181c92600092611825575b501633146148ad565b60243590615bf6565b61184791925060203d811161184e575b61183f8183610ecb565b810190613c7d565b9038611813565b503d611835565b613c92565b90600182811c9216801561188a575b602083101461187457565b634e487b7160e01b600052602260045260246000fd5b91607f1691611869565b60405190600082600f54916118a88361185a565b8083529260019081811690811561192e57506001146118cf575b506104c992500383610ecb565b600f600090815291507f8d1108e10bcb7c27dddfc02ed9d693a074039d026cf4ea4240b40f7d581ac8025b84831061191357506104c99350508101602001386118c2565b81935090816020925483858a010152019101909185926118fa565b9050602092506104c994915060ff191682840152151560051b820101386118c2565b60405190600082600254916119648361185a565b8083529260019081811690811561192e575060011461198a57506104c992500383610ecb565b6002600090815291507f405787fa12a823e0f2b7631cc41b3ba8828b3321ca811111fa75cd3aa3bb5ace5b8483106119ce57506104c99350508101602001386118c2565b81935090816020925483858a010152019101909185926119b5565b346104b757600080600319360112610d1b57611a0361339c565b600480546001600160a01b0319811690915581906001600160a01b03167f8be0079c531659141344cd1fd0a4f28419497f9722a3daafe3b4186f6b6457e08280a380f35b346104b75760203660031901126104b757600435611a64816104a6565b60018060a01b03166000526012602052602060ff604060002054166040519015158152f35b346104b75760003660031901126104b75760206004601354161515604051908152f35b346104b75760403660031901126104b7576001600160401b036004356024358281116104b757611ae0903690600401610f7b565b611ae861339c565b600092828452602090600a8252611b04604086205415156146f8565b8385526015825260408520918351918211610e9057611b2d82611b27855461185a565b85613810565b80601f8311600114611b95575091817fbf032ae7dcb484f99f9f3977ba9cde222756e7073de74244ceb89de862569bdb94926114c2948891611b8a575b508160011b916000199060031b1c19161790555b604051918291826105f0565b905083015138611b6a565b90601f198316611baa85600052602060002090565b9288905b828210611c0f575050926114c29492600192827fbf032ae7dcb484f99f9f3977ba9cde222756e7073de74244ceb89de862569bdb989610611bf6575b5050811b019055611b7e565b85015160001960f88460031b161c191690553880611bea565b80600185968294968b01518155019501930190611bae565b346104b75760203660031901126104b757600435600052600a6020526020604060002054604051908152f35b346104b75760203660031901126104b757600435600052601b6020526020604060002054604051908152f35b346104b75760203660031901126104b757600435611c9c816104a6565b60018060a01b0316600052600d6020526020604060002054604051908152f35b346104b75760003660031901126104b7576020600754604051908152f35b346104b75760203660031901126104b757600435600052601a6020526020604060002054604051908152f35b346104b75760203660031901126104b757600435600052600a602052606060406000205460036020526040600020549060405191818352602083015215156040820152f35b346104b75760003660031901126104b7576004546040516001600160a01b039091168152602090f35b346104b75760203660031901126104b757600435611d91816104a6565b611d9961339c565b6001600160a01b038116908115611e1c57610c1981611ddb611dd6610aca610a19611df59660018060a01b03166000526012602052604060002090565b613dda565b6001600160a01b0316600090815260126020526040902090565b7f119567ed9b6c3d3a90f367bc09314fc6cd50ab2434a5b4f73688a2c1ea149838600080a2005b60405162461bcd60e51b815260206004820152601b60248201527f496e76616c6964206d61726b6574706c616365206164647265737300000000006044820152606490fd5b346104b757611e6f36610737565b90600460018060a01b03602081600954166040519384809263188c824d60e11b82525afa91821561185557600092611f1f575b5033911603611eb457610822926156ef565b60405162461bcd60e51b815260206004820152603860248201527f4f6e6c79207468652070726f746f636f6c277320506f6f6c4465706c6f79657260448201527f2063616e2063616c6c20746869732066756e6374696f6e2e00000000000000006064820152608490fd5b611f3891925060203d811161184e5761183f8183610ecb565b9038611ea2565b60409060031901126104b757600435611f57816104a6565b906024356106018161063b565b346104b757611f7236611f3f565b601354600481161515908161209d575b5080612084575b612065575b6001600160a01b0382169133831461200e5781611fcd611fde9233600052600160205260406000209060018060a01b0316600052602052604060002090565b9060ff801983541691151516179055565b60405190151581527f17307eab39ab6107e8899845ad3d59bd9653f200f220920489ca2b5937696c3160203392a3005b60405162461bcd60e51b815260206004820152602960248201527f455243313135353a2073657474696e6720617070726f76616c20737461747573604482015268103337b91039b2b63360b91b6064820152608490fd5b33600052601260205261207f60ff60406000205416613e26565b611f8e565b5033600052601160205260ff6040600020541615611f89565b60089150161538611f82565b634e487b7160e01b600052602160045260246000fd5b600311156120c957565b6120a9565b346104b75760003660031901126104b75760ff600e541660405160038210156120c9576020918152f35b346104b75760203660031901126104b757600435600052600c6020526020604060002054604051908152f35b346104b757600080600319360112610d1b5761213e61339c565b61214d60016013541615614744565b600e5460ff1661215c816120bf565b600281036121be5750612173601054421015614790565b61219760016013546001600160801b038116906001600160801b0319161717601355565b7f4884a1e8d033385ee80fa3d769d1ba3c44e18291db0f726e436a01997d3df36a8180a180f35b6121c7816120bf565b6121735760405162461bcd60e51b815260206004820152603e60248201527f496e7374616e742072657665616c20636f6c6c656374696f6e7320646f206e6f60448201527f74206e65656420746f206265206d616e75616c6c792072657665616c656400006064820152608490fd5b0390fd5b346104b75760203660031901126104b75760043560005260166020526020604060002054604051908152f35b346104b75760003660031901126104b7576009546040516001600160a01b039091168152602090f35b346104b75760403660031901126104b7576004357f4eb6d91f82d0f0a4ce5f3a9ef35cf77f613592659f0267b74e4c2b276e43e0826024356122cf61339c565b6122e6610aea84600052600a602052604060002090565b8015158061251c575b6122f890614c88565b6123b86123b0612394612315866000526016602052604060002090565b549361232e610a19886000526017602052604060002090565b6123fb575b6123886109d261234d89600052600a602052604060002090565b549261237d6123668b600052600c602052604060002090565b5498612373868b10615576565b6109e68a87614cef565b6109cd8115156155d2565b906109e6821515614d5a565b926123a9866000526016602052604060002090565b54906141ce565b82101561563a565b806123cd84600052600a602052604060002090565b556123e2836000526016602052604060002090565b5460408051928352602083019190915281908101610a3b565b61240f87600052601a602052604060002090565b5461242e816124288a6000526016602052604060002090565b54614cef565b908161243c575b5050612333565b61249b61249261244b8b615150565b9360008486111561250e575061248c61246e6124678688614cef565b8093614cef565b9161248661247f6109d28a86614bf7565b91876141ce565b92614cef565b906141ce565b91821015615504565b6124af896000526016602052604060002090565b55806124c589600052601b602052604060002090565b55426124db89600052601c602052604060002090565b556124f3610a19896000526019602052604060002090565b6124fe575b80612435565b6125089088615921565b386124f8565b61246e61248c918093614cef565b5060648111156122ef565b346104b75760803660031901126104b757600435612544816104a6565b60643560443560243561255561339c565b6001600160a01b038416938415612639577f70f501bd2f3c55f153861010e5184d8493b7b83ce7c4cb72fcc70fd07c1a240a9361261c610a3b9261259a851515615a1f565b6125a5831515615a75565b6125cf6125ca610aca610a198460018060a01b03166000526006602052604060002090565b615acd565b6126176125da610ef9565b600181529186602084015287604084015284606084015260006080840152600060a084015260018060a01b03166000526006602052604060002090565b615b10565b604051938493846040919493926060820195825260208201520152565b60405162461bcd60e51b8152602060048201526013602482015272496e76616c6964204b4f4c206164647265737360681b6044820152606490fd5b346104b75760003660031901126104b7576020601054604051908152f35b9181601f840112156104b7578235916001600160401b0383116104b7576020808501948460051b0101116104b757565b9181601f840112156104b7578235916001600160401b0383116104b757602083818601950101116104b757565b346104b75760a03660031901126104b75761270b6004356104a6565b6127166024356104a6565b6001600160401b036044358181116104b757612736903690600401612692565b50506064358181116104b757612750903690600401612692565b50506084359081116104b75761276a9036906004016126c2565b505060405163bc197c8160e01b8152602090f35b346104b75760203660031901126104b75760043560005260036020526020604060002054604051908152f35b346104b757600080600319360112610d1b576127c46134cd565b60018281805b6127e0575b848452604051806106378682611301565b6103e881111580612838575b1561283357808252600a6020526040822054612812575b61280c90613542565b826127ca565b9361282b818661282561280c9488613567565b52613542565b949050612803565b6127cf565b50606485106127ec565b346104b75760203660031901126104b75760043561285f816104a6565b60045461287c906001600160a01b03165b6001600160a01b031690565b331480156129cc575b61288e9061490a565b60405163c19d93fb60e01b81526001600160a01b03821691602082600481865afa918215611855577f86372a886a337455dd1cc469325e55aaf8068b361addb8fc08c3aa0bc904cc88926129009160009161299e575b506128ee816157e0565b6005811490811561298a575b506157ea565b6001600160a01b0381166000908152600b602081815260408084208054600d845291852054939092529391929161294f9183905b556001600160a01b03166000908152600d6020526040902090565b5561296481600052600c602052604060002090565b61296f838254614cef565b90556040805191825260208201929092529081908101610a3b565b60079150612997816157e0565b14386128fa565b6129bf915060203d81116129c5575b6129b78183610ecb565b8101906157c8565b386128e4565b503d6129ad565b50336001600160a01b03821614801561288557506001600160a01b0381166000908152600b60205260409020541515612885565b346104b75760003660031901126104b75760206002601354161515604051908152f35b346104b75760203660031901126104b75760206104f6600435615150565b346104b75760203660031901126104b75760206104f66004356152e6565b346104b75760003660031901126104b75760206008601354161515604051908152f35b346104b757600080600319360112610d1b57612a9c61339c565b60046013546001600160801b038116906001600160801b03191617176013557f192c3f8649694bd147faa743027e4c232721f15ec16032c1c34b414c47a90df38180a180f35b346104b75760203660031901126104b757610637612b626004356109e6600091808352600c602052612428604084205491601760205260ff604086205416600014612b72576016602052612b52604080872054965b838152600a6020522054612b4b87866141ce565b11156156ac565b600052600a602052604060002090565b6040519081529081906020820190565b612b52604086612b37565b346104b75760203660031901126104b757600435612b9a816104a6565b60018060a01b0316600052600b6020526020604060002054604051908152f35b346104b75760203660031901126104b7576004356000908152601d6020908152604091829020805460018201546002830154600390930154855192835293820152928301526060820152608090f35b60c4359060038210156104b757565b9190916040818403126104b75760408051916001600160401b0391830182811184821017610e9057604052829481358381116104b75781612c5a918401610f7b565b845260208201359283116104b757602092612c759201610f7b565b910152565b346104b7576101203660031901126104b75760e03660231901126104b757604051612ca481610e95565b602435612cb0816104a6565b8152604435612cbe816104a6565b6020820152612ccb6104bc565b6040820152608435606082015260a4356080820152612ce8612c09565b60a082015260e43560c082015261010435906001600160401b0382116104b757612d19610822923690600401612c18565b906004356139a3565b346104b75760403660031901126104b757600435612d3f816104a6565b60018060a01b0316600052601460205260406000206024356000526020526020604060002054604051908152f35b346104b75760203660031901126104b7576004356000526019602052602060ff604060002054166040519015158152f35b346104b75760403660031901126104b757600435602435612dbd61339c565b81600052600a602052604060002054612e3c57610a3b81612e007fc4b60435d5467f696f8dd268ffdd7fcff001c2937072bf65adb1ec5b426f8d709315156146a2565b80612e1585600052600a602052604060002090565b5542612e2b856000526018602052604060002090565b556040519081529081906020820190565b60405162461bcd60e51b815260206004820152601760248201527f546f6b656e20494420616c7265616479206578697374730000000000000000006044820152606490fd5b346104b75760403660031901126104b757602060ff612edd600435612ea5816104a6565b60243590612eb2826104a6565b60018060a01b03166000526001845260406000209060018060a01b0316600052602052604060002090565b54166040519015158152f35b346104b75760a03660031901126104b757612f056004356104a6565b612f106024356104a6565b6084356001600160401b0381116104b757612f2f9036906004016126c2565b505060405163f23a6e6160e01b8152602090f35b346104b75760a03660031901126104b757600435612f60816104a6565b60243590612f6d826104a6565b608435916001600160401b0383116104b757612f90610822933690600401610f7b565b916013546004811615159081612ff2575b5080612fd9575b612fba575b6064359160443591613efb565b336000526012602052612fd460ff60406000205416613e26565b612fad565b5033600052601160205260ff6040600020541615612fa8565b60089150161538612fa1565b346104b75760203660031901126104b75760043561301b816104a6565b61302361339c565b6001600160a01b0381161561303b57610822906133f4565b60405162461bcd60e51b815260206004820152602660248201527f4f776e61626c653a206e6577206f776e657220697320746865207a65726f206160448201526564647265737360d01b6064820152608490fd5b346104b75761309d36611f3f565b6009549091906130b790612870906001600160a01b031681565b60405163188c824d60e11b8152602091908281600481855afa8015611855576131089160009161328c575b506004546130f8906001600160a01b0316612870565b3314908115613279575b50613c9e565b6001600160a01b038316600090815260116020526040902061312d90610aca90610a19565b8015613271575b61313d90613cff565b83158061324a575b6131ac575b837f61630ccfd9f6a7f081736c73f365b44d23ac1af5e8d23c9eeba86f0cc3cfefbe610a3b8561319084611fcd8360018060a01b03166000526011602052604060002090565b60405193151584526001600160a01b0316929081906020820190565b604051633247c33f60e21b81526001600160a01b03841660048201529192908390839060249082905afa928315611855577f61630ccfd9f6a7f081736c73f365b44d23ac1af5e8d23c9eeba86f0cc3cfefbe93610a3b936132179260009261321d575b505015613d7b565b9161314a565b61323c9250803d10613243575b6132348183610ecb565b810190613d66565b388061320f565b503d61322a565b506001600160a01b038316600090815260116020526040902061326c90610a19565b613145565b508315613134565b6001600160a01b03163314905038613102565b6132a39150843d861161184e5761183f8183610ecb565b386130e2565b346104b75760203660031901126104b7576004356132c6816104a6565b60018060a01b03166000526006602052604060002060ff81541661063760018301549260028101549060038101546005600483015492015492604051968796879260a094919796959260c08501981515855260208501526040840152606083015260808201520152565b346104b75760203660031901126104b75760043561334d816104a6565b61335561339c565b6001600160a01b03166000818152600660205260408120805460ff19169055907ffeb031b2d93541150a8571bc111b4dab4d98dfef15bcbe6e89653e385a5d980a8280a280f35b6004546001600160a01b031633036133b057565b606460405162461bcd60e51b815260206004820152602060248201527f4f776e61626c653a2063616c6c6572206973206e6f7420746865206f776e65726044820152fd5b600480546001600160a01b039283166001600160a01b0319821681179092559091167f8be0079c531659141344cd1fd0a4f28419497f9722a3daafe3b4186f6b6457e0600080a3565b6001600160a01b03811615613475576000918252602082815260408084206001600160a01b03909316845291905290205490565b5490565b60405162461bcd60e51b815260206004820152602a60248201527f455243313135353a2061646472657373207a65726f206973206e6f742061207660448201526930b634b21037bbb732b960b11b6064820152608490fd5b60405190610ca082018281106001600160401b03821117610e905760405260648252610c80366020840137565b9061350482610f06565b6135116040519182610ecb565b8281528092613522601f1991610f06565b0190602036910137565b634e487b7160e01b600052601160045260246000fd5b600019811461176b5760010190565b634e487b7160e01b600052603260045260246000fd5b805182101561357b5760209160051b010190565b613551565b91909180518351036135eb5761359681516134fa565b9060005b81518110156135e457806135d56135c46135b76135df9486613567565b516001600160a01b031690565b6135ce8389613567565b519061343d565b6128258286613567565b61359a565b5090925050565b60405162461bcd60e51b815260206004820152602960248201527f455243313135353a206163636f756e747320616e6420696473206c656e677468604482015268040dad2e6dac2e8c6d60bb1b6064820152608490fd5b1561364957565b60405162461bcd60e51b815260206004820152601b60248201527f4f6e6c7920666163746f72792063616e20696e697469616c697a6500000000006044820152606490fd5b1561369557565b60405162461bcd60e51b8152602060048201526013602482015272105b1c9958591e481a5b9a5d1a585b1a5e9959606a1b6044820152606490fd5b156136d757565b60405162461bcd60e51b815260206004820152601660248201527504d617820737570706c79206d757374206265203e20360541b6044820152606490fd5b60038110156120c95760ff8019600e5416911617600e55565b601f811161373a575050565b600090600282527f405787fa12a823e0f2b7631cc41b3ba8828b3321ca811111fa75cd3aa3bb5ace906020601f850160051c83019410613795575b601f0160051c01915b82811061378a57505050565b81815560010161377e565b9092508290613775565b601f81116137ab575050565b600090600f82527f8d1108e10bcb7c27dddfc02ed9d693a074039d026cf4ea4240b40f7d581ac802906020601f850160051c83019410613806575b601f0160051c01915b8281106137fb57505050565b8181556001016137ef565b90925082906137e6565b90601f811161381e57505050565b600091825260208220906020601f850160051c8301941061385a575b601f0160051c01915b82811061384f57505050565b818155600101613843565b909250829061383a565b9081516001600160401b038111610e905761388981613884600f5461185a565b61379f565b602080601f83116001146138c557508192936000926138ba575b50508160011b916000199060031b1c191617600f55565b0151905038806138a3565b90601f198316946138f8600f6000527f8d1108e10bcb7c27dddfc02ed9d693a074039d026cf4ea4240b40f7d581ac80290565b926000905b87821061393557505083600195961061391c575b505050811b01600f55565b015160001960f88460031b161c19169055388080613911565b806001859682949686015181550195019301906138fd565b1561395457565b60405162461bcd60e51b815260206004820152602160248201527f52657665616c2074696d65206d75737420626520696e207468652066757475726044820152606560f81b6064820152608490fd5b9091906139f16001600160a01b036139de337f0000000000000000000000000000000000000000000000000000000000000000831614613642565b6004546001600160a01b0316161561368e565b7fc4b60435d5467f696f8dd268ffdd7fcff001c2937072bf65adb1ec5b426f8d70613ad660808501613a25815115156136d0565b613a2f8551613b94565b8551613a43906001600160a01b03166133f4565b613a506060870151600755565b6040860151600880546001600160a01b0319166001600160a01b039092169190911790556020860151600980546001600160a01b0319166001600160a01b039092169190911790558051613aae85600052600a602052604060002090565b5542613ac4856000526018602052604060002090565b55516040519081529081906020820190565b0390a260a08201613af08151613aeb816120bf565b613715565b8051613afb816120bf565b613b04816120bf565b613b4757505050613b2f60016013546001600160801b038116906001600160801b0319161717601355565b3060009081526011602052604090206104c990610c19565b613b5660206002930151613864565b51613b60816120bf565b613b69816120bf565b14613b75575b50613b2f565b60c0613b8e9101613b884282511161394d565b51601055565b38613b6f565b9081516001600160401b038111610e9057613bb981613bb460025461185a565b61372e565b602080601f8311600114613bf55750819293600092613bea575b50508160011b916000199060031b1c191617600255565b015190503880613bd3565b90601f19831694613c2860026000527f405787fa12a823e0f2b7631cc41b3ba8828b3321ca811111fa75cd3aa3bb5ace90565b926000905b878210613c65575050836001959610613c4c575b505050811b01600255565b015160001960f88460031b161c19169055388080613c41565b80600185968294968601518155019501930190613c2d565b908160209103126104b75751610601816104a6565b6040513d6000823e3d90fd5b15613ca557565b60405162461bcd60e51b815260206004820152602c60248201527f4f6e6c79206f776e6572206f7220506f6f6c4465706c6f7965722063616e207360448201526b32ba1032bc32b6b83a34b7b760a11b6064820152608490fd5b15613d0657565b60405162461bcd60e51b815260206004820152603260248201527f4164647265737320697320616c7265616479206578656d70742066726f6d20726044820152711bde585b1d1e48195b999bdc98d95b595b9d60721b6064820152608490fd5b908160209103126104b757516106018161063b565b15613d8257565b60405162461bcd60e51b815260206004820152602a60248201527f43616e6e6f742072656d6f7665206578656d7074696f6e20666f7220706f6f6c60448201526920636f6e74726163747360b01b6064820152608490fd5b15613de157565b60405162461bcd60e51b815260206004820152601b60248201527f4d61726b6574706c61636520616c726561647920616c6c6f77656400000000006044820152606490fd5b15613e2d57565b60405162461bcd60e51b815260206004820152603e60248201527f45524331313535633a204f7065726174696f6e206f6e6c7920616c6c6f77656460448201527f207468726f75676820617070726f766564206d61726b6574706c6163657300006064820152608490fd5b15613e9f57565b60405162461bcd60e51b815260206004820152602e60248201527f455243313135353a2063616c6c6572206973206e6f7420746f6b656e206f776e60448201526d195c881bdc88185c1c1c9bdd995960921b6064820152608490fd5b6001600160a01b038082169695949392919033881480156140d5575b613f2090613e98565b8216801597613f2f89156140f8565b613f3885614563565b98613f4287614563565b908215614078575b613ff4575b506104c997985085613f6f846110ff886000526000602052604060002090565b54613f7c82821015614152565b03613f95846110ff886000526000602052604060002090565b55613fae846110ff876000526000602052604060002090565b613fb98782546141ce565b9055604080518681526020810188905233917fc3d58168c5ae7397731d063d5bbf3d657854427343f4c083240f7aacaa2d0f6291a43361448b565b969492909795939160005b8a51811015614063578061401661405e928d613567565b51614058614024838d613567565b51614039836000526003602052604060002090565b5461404682821015615836565b03916000526003602052604060002090565b55613542565b613fff565b509193959850919395506104c9968897613f4f565b98969492909795939160005b8b80518210156140c557906140c09161115261114a6140af848f816140a891613567565b5194613567565b516000526003602052604060002090565b614084565b5050919395979092949698613f4a565b50600088815260016020908152604080832033845290915290205460ff16613f17565b156140ff57565b60405162461bcd60e51b815260206004820152602560248201527f455243313135353a207472616e7366657220746f20746865207a65726f206164604482015264647265737360d81b6064820152608490fd5b1561415957565b60405162461bcd60e51b815260206004820152602a60248201527f455243313135353a20696e73756666696369656e742062616c616e636520666f60448201526939103a3930b739b332b960b11b6064820152608490fd5b90610e10820180921161176b57565b906001820180921161176b57565b9190820180921161176b57565b908160209103126104b75751610601816104fe565b909260a0926106019594600180861b03168352600060208401526040830152606082015281608082015201906105b0565b919261060195949160a094600180871b0380921685521660208401526040830152606082015281608082015201906105b0565b60809060208152602860208201527f455243313135353a204552433131353552656365697665722072656a656374656040820152676420746f6b656e7360c01b60608201520190565b60009060033d116142aa57565b905060046000803e60005160e01c90565b600060443d1061060157604051600319913d83016004833e81516001600160401b03918282113d60248401111761431857818401948551938411614320573d85010160208487010111614318575061060192910160200190610ecb565b949350505050565b50949350505050565b9390803b614339575b5050505050565b6143619360006020946040519687958694859363f23a6e6160e01b9b8c8652600486016141f0565b03926001600160a01b03165af16000918161445b575b50614433575050600161438861429d565b6308c379a014614404575b6143a2575b3880808080614332565b60405162461bcd60e51b815260206004820152603460248201527f455243313135353a207472616e7366657220746f206e6f6e2d455243313135356044820152732932b1b2b4bb32b91034b6b83632b6b2b73a32b960611b6064820152608490fd5b61440c6142bb565b806144175750614393565b60405162461bcd60e51b815290819061223690600483016105f0565b6001600160e01b031916146143985760405162461bcd60e51b81528061223660048201614254565b61447d91925060203d8111614484575b6144758183610ecb565b8101906141db565b9038614377565b503d61446b565b9493919092813b61449f575b505050505050565b60006020946144c66040519788968795869463f23a6e6160e01b9c8d875260048701614221565b03926001600160a01b03165af160009181614543575b5061451b57505060016144ed61429d565b6308c379a014614508575b6143a2575b388080808080614497565b6145106142bb565b8061441757506144f8565b6001600160e01b031916146144fd5760405162461bcd60e51b81528061223660048201614254565b61455c91925060203d8111614484576144758183610ecb565b90386144dc565b60405190604082018281106001600160401b03821117610e90576040526001825260208201602036823782511561357b575290565b1561459f57565b60405162461bcd60e51b815260206004820152602860248201527f455243313135353a2069647320616e6420616d6f756e7473206c656e677468206044820152670dad2e6dac2e8c6d60c31b6064820152608490fd5b909161460c610601936040845260408401906112cd565b9160208184039101526112cd565b9390610601959361464c9161465a9460018060a01b03809216885216602087015260a0604087015260a08601906112cd565b9084820360608601526112cd565b9160808184039101526105b0565b9493919092813b61467b57505050505050565b60006020946144c66040519788968795869463bc197c8160e01b9c8d87526004870161461a565b156146a957565b60405162461bcd60e51b815260206004820152602160248201527f4d617820737570706c79206d7573742062652067726561746572207468616e206044820152600360fc1b6064820152608490fd5b156146ff57565b60405162461bcd60e51b815260206004820152601760248201527f546f6b656e20494420646f6573206e6f742065786973740000000000000000006044820152606490fd5b1561474b57565b60405162461bcd60e51b815260206004820152601e60248201527f436f6c6c656374696f6e20697320616c72656164792072657665616c656400006044820152606490fd5b1561479757565b60405162461bcd60e51b815260206004820152601e60248201527f52657665616c2074696d6520686173206e6f74207965742070617373656400006044820152606490fd5b60018060135416156148a35760009182526020906015825260408320926040519384928282549261480c8461185a565b8087529383811690811561487f5750600114614842575b5050505061483392500382610ecb565b80516106015750610601611950565b815285812095935091905b818310614867575050614833935082010138808080614823565b8554878401850152948501948694509183019161484d565b935050505061483394925060ff191682840152151560051b82010138808080614823565b5050610601611894565b156148b457565b60405162461bcd60e51b815260206004820152602860248201527f4f6e6c7920506f6f6c4465706c6f7965722063616e2063616c6c207468697320604482015267333ab731ba34b7b760c11b6064820152608490fd5b1561491157565b60405162461bcd60e51b815260206004820152600c60248201526b155b985d5d1a1bdc9a5e995960a21b6044820152606490fd5b1561494c57565b60405162461bcd60e51b815260206004820152602d60248201527f4e6f20737570706c7920617661696c61626c6520746f206d696e7420666f722060448201526c1d1a1a5cc81d1bdad95b881251609a1b6064820152608490fd5b60405190602082018281106001600160401b03821117610e905760405260008252565b6002600554146149db576002600555565b60405162461bcd60e51b815260206004820152601f60248201527f5265656e7472616e637947756172643a207265656e7472616e742063616c6c006044820152606490fd5b936001600160a01b0385169391929091908415614ae957614a4084614563565b93614a4a82614563565b9660005b8651811015614a7b5780614a65614a76928b613567565b5161115261114a6140af848c613567565b614a4e565b50919396509193506104c994614a9f826110ff856000526000602052604060002090565b614aaa8582546141ce565b9055604080518481526020810186905260009133917fc3d58168c5ae7397731d063d5bbf3d657854427343f4c083240f7aacaa2d0f629190a433614329565b60405162461bcd60e51b815260206004820152602160248201527f455243313135353a206d696e7420746f20746865207a65726f206164647265736044820152607360f81b6064820152608490fd5b15614b3f57565b60405162461bcd60e51b815260206004820152603260248201527f43726561746f7220616c6c6f636174696f6e20616c7265616479206465636c616044820152713932b2103337b9103a3434b9903a37b5b2b760711b6064820152608490fd5b15614ba657565b60405162461bcd60e51b8152602060048201526024808201527f43726561746f7220616c6c6f636174696f6e2063616e6e6f74206578636565646044820152632032302560e01b6064820152608490fd5b8181029291811591840414171561176b57565b8115614c14570490565b634e487b7160e01b600052601260045260246000fd5b15614c3157565b60405162461bcd60e51b815260206004820152602960248201527f43726561746f7220616c6c6f636174696f6e206d757374206265206465636c616044820152681c995908199a5c9cdd60ba1b6064820152608490fd5b15614c8f57565b60405162461bcd60e51b8152602060048201526024808201527f50657263656e74616765206d757374206265206265747765656e203120616e646044820152630203130360e41b6064820152608490fd5b60001981019190821161176b57565b9190820391821161176b57565b15614d0357565b60405162461bcd60e51b815260206004820152602960248201527f4e6f2072656d61696e696e672063726561746f7220616c6c6f636174696f6e20604482015268746f2072656475636560b81b6064820152608490fd5b15614d6157565b60405162461bcd60e51b815260206004820152602a60248201527f526564756374696f6e20616d6f756e74206d7573742062652067726561746572604482015269207468616e207a65726f60b01b6064820152608490fd5b8115614e5d57614dd390600052601d602052604060002090565b90600182015482546002840154614df3614ded8285614bf7565b836141ce565b4210614e06575050505060036000910155565b90614e209291814210600014614e4a575050600090614cef565b908115614e3f5781610ba3610b9e600394614e3a946141ce565b910155565b505060036000910155565b610ba3614e579242614cef565b90614cef565b60009150614e77600391600052601d602052604060002090565b0155565b15614e8257565b60405162461bcd60e51b815260206004820152602960248201527f56657374696e6720616c726561647920636f6e6669677572656420666f7220746044820152683434b9903a37b5b2b760b91b6064820152608490fd5b15614ee057565b60405162461bcd60e51b8152602060048201526015602482015274151bdad95b881b9bdd081a5b9a5d1a585b1a5e9959605a1b6044820152606490fd5b15614f2457565b60405162461bcd60e51b815260206004820152602360248201527f4d696e203820756e6c6f636b7320666f7220616c6c6f636174696f6e203e203260448201526203030360ec1b6064820152608490fd5b15614f7c57565b60405162461bcd60e51b815260206004820152602660248201527f4d696e203820756e6c6f636b7320666f7220616c6c6f636174696f6e203130306044820152650302d323030360d41b6064820152608490fd5b15614fd757565b60405162461bcd60e51b815260206004820152602560248201527f4d696e203420756e6c6f636b7320666f7220616c6c6f636174696f6e2035303060448201526402d313030360dc1b6064820152608490fd5b1561503157565b60405162461bcd60e51b815260206004820152602260248201527f4d696e203220756e6c6f636b7320666f7220616c6c6f636174696f6e203c2035604482015261030360f41b6064820152608490fd5b1561508857565b60405162461bcd60e51b815260206004820152603060248201527f436c696666206d757374206e6f74206265206c657373207468616e203120686f60448201526f3ab910333937b69031b932b0ba34b7b760811b6064820152608490fd5b156150ed57565b60405162461bcd60e51b815260206004820152603560248201527f4475726174696f6e206265747765656e20756e6c6f636b73206d757374206e6f6044820152743a103132903632b9b9903a3430b71018903437bab960591b6064820152608490fd5b80600052601960205260ff60406000205416156152115761517b81600052601d602052604060002090565b60405161518781610eb0565b60606003835493848452600181015460208501526002810154604085015201549101524210615211576151c481600052601c602052604060002090565b546151d25761060190615217565b6151db81615217565b906151f081600052601b602052604060002090565b5482101561520d576134719150600052601b602052604060002090565b5090565b50600090565b80600052601d602052604060002060405161523181610eb0565b61527861527383549384845261526b6001820154956020860196875260606003600285015494604089019586520154960195865242614cef565b905190614c0a565b6141c0565b91518083116152de575b820361529e575050613471906000526016602052604060002090565b906152a99151614bf7565b906152be816000526016602052604060002090565b5482116152c9575090565b61347191506000526016602052604060002090565b915081615282565b6000818152601960205260ff6040822054161561532f5761530682615150565b918152601a602052604081205490818311156153295750810390811161176b5790565b91505090565b905090565b1561533b57565b60405162461bcd60e51b815260206004820152602560248201527f56657374696e67206e6f7420636f6e6669677572656420666f722074686973206044820152643a37b5b2b760d91b6064820152608490fd5b1561539557565b60405162461bcd60e51b815260206004820152601a60248201527f537570706c79206e6f742073657420666f7220746869732049440000000000006044820152606490fd5b156153e157565b60405162461bcd60e51b815260206004820152601460248201527305175616e74697479206d757374206265203e20360641b6044820152606490fd5b1561542457565b60405162461bcd60e51b815260206004820152601260248201527145786365656473206d617820737570706c7960701b6044820152606490fd5b1561546557565b60405162461bcd60e51b815260206004820152602560248201527f4578636565647320617661696c61626c6520756e6c6f636b656420616c6c6f6360448201526430ba34b7b760d91b6064820152608490fd5b156154bf57565b60405162461bcd60e51b815260206004820152601a60248201527f457863656564732063726561746f7220616c6c6f636174696f6e0000000000006044820152606490fd5b1561550b57565b60405162461bcd60e51b815260206004820152603960248201527f4e65772063726561746f7220616c6c6f636174696f6e2063616e6e6f7420626560448201527f206c657373207468616e20636c61696d656420616d6f756e74000000000000006064820152608490fd5b1561557d57565b60405162461bcd60e51b815260206004820152602760248201527f4e6f20737570706c79206c65667420746f2072656475636520666f722074686960448201526639903a37b5b2b760c91b6064820152608490fd5b156155d957565b60405162461bcd60e51b815260206004820152603360248201527f4e6f20756e616c6c6f636174656420737570706c79206c65667420746f207265604482015272323ab1b2903337b9103a3434b9903a37b5b2b760691b6064820152608490fd5b1561564157565b60405162461bcd60e51b815260206004820152603c60248201527f4e6577206d617820737570706c792063616e6e6f74206265206c65737320746860448201527f616e206d696e746564202b20616c6c6f636174656420737570706c79000000006064820152608490fd5b156156b357565b60405162461bcd60e51b8152602060048201526014602482015273496e76616c696420737570706c7920737461746560601b6044820152606490fd5b6001600160a01b0381169290831561578c576001600160a01b0381166000908152600b602052604090208391615726918490612934565b5561573b82600052600c602052604060002090565b91825482810180911161176b577f0605df730658c3d51d1de10eb38841dbacde4d3bd2e20e9cb4a23813065644b493556157876040519283928360209093929193604081019481520152565b0390a2565b60405162461bcd60e51b8152602060048201526014602482015273496e76616c696420706f6f6c206164647265737360601b6044820152606490fd5b908160209103126104b7575160088110156104b75790565b600811156120c957565b156157f157565b60405162461bcd60e51b815260206004820152601860248201527f506f6f6c206e6f7420696e206661696c656420737461746500000000000000006044820152606490fd5b1561583d57565b60405162461bcd60e51b815260206004820152602860248201527f455243313135353a206275726e20616d6f756e74206578636565647320746f74604482015267616c537570706c7960c01b6064820152608490fd5b919392916001600160a01b0391908216156158e7575b16156158b457509050565b60005b83518110156158e157806158ce6158dc9286613567565b516140586140248386613567565b6158b7565b50509050565b929060005b855181101561591957806159036159149286613567565b5161115261114a6140af848b613567565b6158ec565b5090926158a9565b907f088cab2409ca33ba4d1407cb6386b97a16192c0417c40ace27682534b193a0f79061595883600052601d602052604060002090565b9081548042106000146159e0575060018201545b806159b4575050600060038201555b80546157876001830154926003600282015491015490604051948594859094939260609260808301968352602083015260408201520152565b610ba3610b9e82610b996159d6956124288a6000526016602052604060002090565b600382015561597b565b6152736159f06159fb9242614cef565b600285015490614c0a565b600183015490818110615a11575050600061596c565b615a1a91614cef565b61596c565b15615a2657565b60405162461bcd60e51b815260206004820152602160248201527f506f6f6c206c696d6974206d7573742062652067726561746572207468616e206044820152600360fc1b6064820152608490fd5b15615a7c57565b60405162461bcd60e51b815260206004820152602360248201527f57696e6e6572206c696d6974206d75737420626520677265617465722074686160448201526206e20360ec1b6064820152608490fd5b15615ad457565b60405162461bcd60e51b815260206004820152601460248201527312d3d308185b1c9958591e48185c1c1c9bdd995960621b6044820152606490fd5b9060a0600591615b2f81511515859060ff801983541691151516179055565b602081015160018501556040810151600285015560608101516003850155608081015160048501550151910155565b15615b6557565b60405162461bcd60e51b815260206004820152601760248201527f4b4f4c20706f6f6c206c696d69742065786365656465640000000000000000006044820152606490fd5b15615bb157565b60405162461bcd60e51b815260206004820152601960248201527f4b4f4c2077696e6e6572206c696d6974206578636565646564000000000000006044820152606490fd5b9060ff615c158360018060a01b03166000526006602052604060002090565b541615615d1a576001600160a01b03821660009081526006602052604090206004810154600190910154615c499110615b5e565b615c98615c75826005615c6e8660018060a01b03166000526006602052604060002090565b01546141ce565b6001600160a01b0384166000908152600660205260409020600301541015615baa565b6001600160a01b0382166000908152600660205260409020600401615cbd8154613542565b90556001600160a01b0382166000908152600660205260409020615ce6906005019182546141ce565b905533906001600160a01b03167f5b7945a09273a36deae169b61c3f2f6e50c1a2030374353d76346822ae48f674600080a3565b60405162461bcd60e51b815260206004820152601060248201526f12d3d3081b9bdd08185c1c1c9bdd995960821b6044820152606490fdfea2646970667358221220ac35f8393173a4b4565fa72cefc71e4ee5ca3621793647808b7416bced516c1564736f6c63430008130033",
  "linkReferences": {},
  "deployedLinkReferences": {}
}