{
  "_format": "hh-sol-artifact-1",
  "contractName": "ERC1155Prize",
  "sourceName": "contracts/ERC1155Prize.sol",
  "abi": [
    {
      "inputs": [
        {
          "internalType": "address",
          "name": "_factory",
          "type": "address"
        }
      ],
      "stateMutability": "nonpayable",
      "type": "constructor"
    },
    {
      "inputs": [],
      "name": "ExceedsMaxSupply",
      "type": "error"
    },
    {
      "inputs": [],
      "name": "SupplyNotSet",
      "type": "error"
    },
    {
      "inputs": [],
      "name": "UnauthorizedMinter",
      "type": "error"
    },
    {
      "anonymous": false,
      "inputs": [
        {
          "indexed": true,
          "internalType": "address",
          "name": "account",
          "type": "address"
        },
        {
          "indexed": true,
          "internalType": "address",
          "name": "operator",
          "type": "address"
        },
        {
          "indexed": false,
          "internalType": "bool",
          "name": "approved",
          "type": "bool"
        }
      ],
      "name": "ApprovalForAll",
      "type": "event"
    },
    {
      "anonymous": false,
      "inputs": [
        {
          "indexed": false,
          "internalType": "string",
          "name": "newBaseURI",
          "type": "string"
        }
      ],
      "name": "BaseURIUpdated",
      "type": "event"
    },
    {
      "anonymous": false,
      "inputs": [],
      "name": "CollectionRevealed",
      "type": "event"
    },
    {
      "anonymous": false,
      "inputs": [
        {
          "indexed": true,
          "internalType": "address",
          "name": "minter",
          "type": "address"
        },
        {
          "indexed": true,
          "internalType": "uint256",
          "name": "tokenId",
          "type": "uint256"
        },
        {
          "indexed": false,
          "internalType": "uint256",
          "name": "amount",
          "type": "uint256"
        }
      ],
      "name": "CreatorAllocationClaimed",
      "type": "event"
    },
    {
      "anonymous": false,
      "inputs": [
        {
          "indexed": true,
          "internalType": "uint256",
          "name": "tokenId",
          "type": "uint256"
        },
        {
          "indexed": false,
          "internalType": "uint256",
          "name": "allocation",
          "type": "uint256"
        }
      ],
      "name": "CreatorAllocationDeclared",
      "type": "event"
    },
    {
      "anonymous": false,
      "inputs": [
        {
          "indexed": true,
          "internalType": "uint256",
          "name": "tokenId",
          "type": "uint256"
        },
        {
          "indexed": false,
          "internalType": "uint256",
          "name": "newAllocation",
          "type": "uint256"
        },
        {
          "indexed": false,
          "internalType": "uint256",
          "name": "reductionAmount",
          "type": "uint256"
        }
      ],
      "name": "CreatorAllocationReduced",
      "type": "event"
    },
    {
      "anonymous": false,
      "inputs": [],
      "name": "EmergencyBypassDisabled",
      "type": "event"
    },
    {
      "anonymous": false,
      "inputs": [],
      "name": "EmergencyBypassEnabled",
      "type": "event"
    },
    {
      "anonymous": false,
      "inputs": [
        {
          "indexed": true,
          "internalType": "address",
          "name": "kol",
          "type": "address"
        },
        {
          "indexed": false,
          "internalType": "uint256",
          "name": "poolLimit",
          "type": "uint256"
        },
        {
          "indexed": false,
          "internalType": "uint256",
          "name": "enforcedSlotFee",
          "type": "uint256"
        },
        {
          "indexed": false,
          "internalType": "uint256",
          "name": "winnerLimit",
          "type": "uint256"
        }
      ],
      "name": "KOLApproved",
      "type": "event"
    },
    {
      "anonymous": false,
      "inputs": [
        {
          "indexed": true,
          "internalType": "address",
          "name": "kol",
          "type": "address"
        },
        {
          "indexed": true,
          "internalType": "address",
          "name": "pool",
          "type": "address"
        }
      ],
      "name": "KOLPoolCreated",
      "type": "event"
    },
    {
      "anonymous": false,
      "inputs": [
        {
          "indexed": true,
          "internalType": "address",
          "name": "kol",
          "type": "address"
        }
      ],
      "name": "KOLRevoked",
      "type": "event"
    },
    {
      "anonymous": false,
      "inputs": [
        {
          "indexed": true,
          "internalType": "address",
          "name": "marketplace",
          "type": "address"
        }
      ],
      "name": "MarketplaceAdded",
      "type": "event"
    },
    {
      "anonymous": false,
      "inputs": [
        {
          "indexed": true,
          "internalType": "address",
          "name": "marketplace",
          "type": "address"
        }
      ],
      "name": "MarketplaceRemoved",
      "type": "event"
    },
    {
      "anonymous": false,
      "inputs": [
        {
          "indexed": true,
          "internalType": "address",
          "name": "pool",
          "type": "address"
        },
        {
          "indexed": false,
          "internalType": "uint256",
          "name": "tokenId",
          "type": "uint256"
        },
        {
          "indexed": false,
          "internalType": "uint256",
          "name": "allocation",
          "type": "uint256"
        }
      ],
      "name": "MinterAllocationRestored",
      "type": "event"
    },
    {
      "anonymous": false,
      "inputs": [
        {
          "indexed": true,
          "internalType": "address",
          "name": "pool",
          "type": "address"
        },
        {
          "indexed": false,
          "internalType": "uint256",
          "name": "tokenId",
          "type": "uint256"
        },
        {
          "indexed": false,
          "internalType": "uint256",
          "name": "allocation",
          "type": "uint256"
        }
      ],
      "name": "MinterAndAllocationSet",
      "type": "event"
    },
    {
      "anonymous": false,
      "inputs": [
        {
          "indexed": true,
          "internalType": "uint256",
          "name": "tokenId",
          "type": "uint256"
        },
        {
          "indexed": false,
          "internalType": "uint256",
          "name": "maxSupply",
          "type": "uint256"
        }
      ],
      "name": "NewTokenAdded",
      "type": "event"
    },
    {
      "anonymous": false,
      "inputs": [
        {
          "indexed": true,
          "internalType": "address",
          "name": "previousOwner",
          "type": "address"
        },
        {
          "indexed": true,
          "internalType": "address",
          "name": "newOwner",
          "type": "address"
        }
      ],
      "name": "OwnershipTransferred",
      "type": "event"
    },
    {
      "anonymous": false,
      "inputs": [
        {
          "indexed": true,
          "internalType": "address",
          "name": "minter",
          "type": "address"
        },
        {
          "indexed": true,
          "internalType": "uint256",
          "name": "tokenId",
          "type": "uint256"
        },
        {
          "indexed": false,
          "internalType": "uint256",
          "name": "amount",
          "type": "uint256"
        }
      ],
      "name": "PrizeMinted",
      "type": "event"
    },
    {
      "anonymous": false,
      "inputs": [
        {
          "indexed": true,
          "internalType": "address",
          "name": "account",
          "type": "address"
        },
        {
          "indexed": false,
          "internalType": "bool",
          "name": "exempt",
          "type": "bool"
        }
      ],
      "name": "RoyaltyEnforcementExemptionUpdated",
      "type": "event"
    },
    {
      "anonymous": false,
      "inputs": [
        {
          "indexed": false,
          "internalType": "bool",
          "name": "enabled",
          "type": "bool"
        }
      ],
      "name": "RoyaltyEnforcementToggled",
      "type": "event"
    },
    {
      "anonymous": false,
      "inputs": [
        {
          "indexed": true,
          "internalType": "uint256",
          "name": "tokenId",
          "type": "uint256"
        },
        {
          "indexed": false,
          "internalType": "uint256",
          "name": "newMaxSupply",
          "type": "uint256"
        },
        {
          "indexed": false,
          "internalType": "uint256",
          "name": "newCreatorAllocation",
          "type": "uint256"
        }
      ],
      "name": "SupplyReduced",
      "type": "event"
    },
    {
      "anonymous": false,
      "inputs": [
        {
          "indexed": true,
          "internalType": "address",
          "name": "operator",
          "type": "address"
        },
        {
          "indexed": true,
          "internalType": "address",
          "name": "from",
          "type": "address"
        },
        {
          "indexed": true,
          "internalType": "address",
          "name": "to",
          "type": "address"
        },
        {
          "indexed": false,
          "internalType": "uint256[]",
          "name": "ids",
          "type": "uint256[]"
        },
        {
          "indexed": false,
          "internalType": "uint256[]",
          "name": "values",
          "type": "uint256[]"
        }
      ],
      "name": "TransferBatch",
      "type": "event"
    },
    {
      "anonymous": false,
      "inputs": [
        {
          "indexed": true,
          "internalType": "address",
          "name": "operator",
          "type": "address"
        },
        {
          "indexed": true,
          "internalType": "address",
          "name": "from",
          "type": "address"
        },
        {
          "indexed": true,
          "internalType": "address",
          "name": "to",
          "type": "address"
        },
        {
          "indexed": false,
          "internalType": "uint256",
          "name": "id",
          "type": "uint256"
        },
        {
          "indexed": false,
          "internalType": "uint256",
          "name": "value",
          "type": "uint256"
        }
      ],
      "name": "TransferSingle",
      "type": "event"
    },
    {
      "anonymous": false,
      "inputs": [
        {
          "indexed": false,
          "internalType": "string",
          "name": "value",
          "type": "string"
        },
        {
          "indexed": true,
          "internalType": "uint256",
          "name": "id",
          "type": "uint256"
        }
      ],
      "name": "URI",
      "type": "event"
    },
    {
      "anonymous": false,
      "inputs": [
        {
          "indexed": true,
          "internalType": "uint256",
          "name": "tokenId",
          "type": "uint256"
        },
        {
          "indexed": false,
          "internalType": "string",
          "name": "newURI",
          "type": "string"
        }
      ],
      "name": "URIUpdated",
      "type": "event"
    },
    {
      "anonymous": false,
      "inputs": [
        {
          "indexed": true,
          "internalType": "uint256",
          "name": "tokenId",
          "type": "uint256"
        },
        {
          "indexed": false,
          "internalType": "uint256",
          "name": "cliffEnd",
          "type": "uint256"
        },
        {
          "indexed": false,
          "internalType": "uint256",
          "name": "numberOfUnlocks",
          "type": "uint256"
        },
        {
          "indexed": false,
          "internalType": "uint256",
          "name": "durationBetweenUnlocks",
          "type": "uint256"
        },
        {
          "indexed": false,
          "internalType": "uint256",
          "name": "amountPerUnlock",
          "type": "uint256"
        }
      ],
      "name": "VestingConfiguredForToken",
      "type": "event"
    },
    {
      "inputs": [
        {
          "internalType": "address",
          "name": "marketplace",
          "type": "address"
        }
      ],
      "name": "addAllowedMarketplace",
      "outputs": [],
      "stateMutability": "nonpayable",
      "type": "function"
    },
    {
      "inputs": [
        {
          "internalType": "address",
          "name": "",
          "type": "address"
        }
      ],
      "name": "allocatedSupply",
      "outputs": [
        {
          "internalType": "uint256",
          "name": "",
          "type": "uint256"
        }
      ],
      "stateMutability": "view",
      "type": "function"
    },
    {
      "inputs": [
        {
          "internalType": "address",
          "name": "_kol",
          "type": "address"
        },
        {
          "internalType": "uint256",
          "name": "_poolLimit",
          "type": "uint256"
        },
        {
          "internalType": "uint256",
          "name": "_enforcedSlotFee",
          "type": "uint256"
        },
        {
          "internalType": "uint256",
          "name": "_winnerLimit",
          "type": "uint256"
        }
      ],
      "name": "approveKOL",
      "outputs": [],
      "stateMutability": "nonpayable",
      "type": "function"
    },
    {
      "inputs": [
        {
          "internalType": "uint256",
          "name": "id",
          "type": "uint256"
        }
      ],
      "name": "availableSupply",
      "outputs": [
        {
          "internalType": "uint256",
          "name": "",
          "type": "uint256"
        }
      ],
      "stateMutability": "view",
      "type": "function"
    },
    {
      "inputs": [
        {
          "internalType": "address",
          "name": "account",
          "type": "address"
        },
        {
          "internalType": "uint256",
          "name": "id",
          "type": "uint256"
        }
      ],
      "name": "balanceOf",
      "outputs": [
        {
          "internalType": "uint256",
          "name": "",
          "type": "uint256"
        }
      ],
      "stateMutability": "view",
      "type": "function"
    },
    {
      "inputs": [
        {
          "internalType": "address[]",
          "name": "accounts",
          "type": "address[]"
        },
        {
          "internalType": "uint256[]",
          "name": "ids",
          "type": "uint256[]"
        }
      ],
      "name": "balanceOfBatch",
      "outputs": [
        {
          "internalType": "uint256[]",
          "name": "",
          "type": "uint256[]"
        }
      ],
      "stateMutability": "view",
      "type": "function"
    },
    {
      "inputs": [
        {
          "internalType": "uint256",
          "name": "tokenId",
          "type": "uint256"
        },
        {
          "internalType": "uint256",
          "name": "cliffEnd",
          "type": "uint256"
        },
        {
          "internalType": "uint256",
          "name": "numberOfUnlocks",
          "type": "uint256"
        },
        {
          "internalType": "uint256",
          "name": "durationBetweenUnlocks",
          "type": "uint256"
        }
      ],
      "name": "configureCreatorVesting",
      "outputs": [],
      "stateMutability": "nonpayable",
      "type": "function"
    },
    {
      "inputs": [
        {
          "internalType": "uint256",
          "name": "_tokenId",
          "type": "uint256"
        },
        {
          "internalType": "uint256",
          "name": "_maxSupply",
          "type": "uint256"
        }
      ],
      "name": "createNewToken",
      "outputs": [],
      "stateMutability": "nonpayable",
      "type": "function"
    },
    {
      "inputs": [
        {
          "internalType": "uint256",
          "name": "",
          "type": "uint256"
        }
      ],
      "name": "creatorAllocation",
      "outputs": [
        {
          "internalType": "uint256",
          "name": "",
          "type": "uint256"
        }
      ],
      "stateMutability": "view",
      "type": "function"
    },
    {
      "inputs": [
        {
          "internalType": "uint256",
          "name": "",
          "type": "uint256"
        }
      ],
      "name": "creatorAllocationDeclared",
      "outputs": [
        {
          "internalType": "bool",
          "name": "",
          "type": "bool"
        }
      ],
      "stateMutability": "view",
      "type": "function"
    },
    {
      "inputs": [
        {
          "internalType": "uint256",
          "name": "",
          "type": "uint256"
        }
      ],
      "name": "creatorClaimedCount",
      "outputs": [
        {
          "internalType": "uint256",
          "name": "",
          "type": "uint256"
        }
      ],
      "stateMutability": "view",
      "type": "function"
    },
    {
      "inputs": [
        {
          "internalType": "address",
          "name": "to",
          "type": "address"
        },
        {
          "internalType": "uint256",
          "name": "id",
          "type": "uint256"
        },
        {
          "internalType": "uint256",
          "name": "quantity",
          "type": "uint256"
        }
      ],
      "name": "creatorMint",
      "outputs": [],
      "stateMutability": "nonpayable",
      "type": "function"
    },
    {
      "inputs": [
        {
          "internalType": "uint256",
          "name": "tokenId",
          "type": "uint256"
        },
        {
          "internalType": "uint256",
          "name": "_percentage",
          "type": "uint256"
        }
      ],
      "name": "cutSupply",
      "outputs": [],
      "stateMutability": "nonpayable",
      "type": "function"
    },
    {
      "inputs": [
        {
          "internalType": "uint256",
          "name": "tokenId",
          "type": "uint256"
        },
        {
          "internalType": "uint256",
          "name": "_percentage",
          "type": "uint256"
        }
      ],
      "name": "declareCreatorAllocation",
      "outputs": [],
      "stateMutability": "nonpayable",
      "type": "function"
    },
    {
      "inputs": [],
      "name": "disableEmergencyBypass",
      "outputs": [],
      "stateMutability": "nonpayable",
      "type": "function"
    },
    {
      "inputs": [],
      "name": "emergencyBypassEnabled",
      "outputs": [
        {
          "internalType": "bool",
          "name": "",
          "type": "bool"
        }
      ],
      "stateMutability": "view",
      "type": "function"
    },
    {
      "inputs": [],
      "name": "enableEmergencyBypass",
      "outputs": [],
      "stateMutability": "nonpayable",
      "type": "function"
    },
    {
      "inputs": [
        {
          "internalType": "uint256",
          "name": "id",
          "type": "uint256"
        }
      ],
      "name": "exists",
      "outputs": [
        {
          "internalType": "bool",
          "name": "",
          "type": "bool"
        }
      ],
      "stateMutability": "view",
      "type": "function"
    },
    {
      "inputs": [],
      "name": "getAllTokenIds",
      "outputs": [
        {
          "internalType": "uint256[]",
          "name": "",
          "type": "uint256[]"
        }
      ],
      "stateMutability": "view",
      "type": "function"
    },
    {
      "inputs": [
        {
          "internalType": "uint256",
          "name": "tokenId",
          "type": "uint256"
        }
      ],
      "name": "getAvailableCreatorMint",
      "outputs": [
        {
          "internalType": "uint256",
          "name": "",
          "type": "uint256"
        }
      ],
      "stateMutability": "view",
      "type": "function"
    },
    {
      "inputs": [],
      "name": "getCollectionStats",
      "outputs": [
        {
          "internalType": "uint256",
          "name": "totalTokenTypes",
          "type": "uint256"
        },
        {
          "internalType": "uint256",
          "name": "totalTokensMinted",
          "type": "uint256"
        }
      ],
      "stateMutability": "view",
      "type": "function"
    },
    {
      "inputs": [
        {
          "internalType": "address",
          "name": "_kol",
          "type": "address"
        }
      ],
      "name": "getKOLApprovalDetails",
      "outputs": [
        {
          "internalType": "bool",
          "name": "approved",
          "type": "bool"
        },
        {
          "internalType": "uint256",
          "name": "poolLimit",
          "type": "uint256"
        },
        {
          "internalType": "uint256",
          "name": "enforcedSlotFee",
          "type": "uint256"
        },
        {
          "internalType": "uint256",
          "name": "winnerLimit",
          "type": "uint256"
        },
        {
          "internalType": "uint256",
          "name": "poolCount",
          "type": "uint256"
        },
        {
          "internalType": "uint256",
          "name": "winnerCount",
          "type": "uint256"
        }
      ],
      "stateMutability": "view",
      "type": "function"
    },
    {
      "inputs": [
        {
          "internalType": "uint256",
          "name": "tokenId",
          "type": "uint256"
        }
      ],
      "name": "getTokenInfo",
      "outputs": [
        {
          "internalType": "uint256",
          "name": "maxSupply_",
          "type": "uint256"
        },
        {
          "internalType": "uint256",
          "name": "currentSupply_",
          "type": "uint256"
        },
        {
          "internalType": "bool",
          "name": "exists_",
          "type": "bool"
        }
      ],
      "stateMutability": "view",
      "type": "function"
    },
    {
      "inputs": [
        {
          "internalType": "uint256",
          "name": "tokenId",
          "type": "uint256"
        }
      ],
      "name": "getUnlockedCreatorAllocation",
      "outputs": [
        {
          "internalType": "uint256",
          "name": "",
          "type": "uint256"
        }
      ],
      "stateMutability": "view",
      "type": "function"
    },
    {
      "inputs": [],
      "name": "getUnrevealedURI",
      "outputs": [
        {
          "internalType": "string",
          "name": "",
          "type": "string"
        }
      ],
      "stateMutability": "view",
      "type": "function"
    },
    {
      "inputs": [
        {
          "internalType": "address",
          "name": "_kol",
          "type": "address"
        },
        {
          "internalType": "uint256",
          "name": "_winnersCount",
          "type": "uint256"
        }
      ],
      "name": "incrementKOLApprovedCounts",
      "outputs": [],
      "stateMutability": "nonpayable",
      "type": "function"
    },
    {
      "inputs": [
        {
          "internalType": "string",
          "name": "uri_",
          "type": "string"
        },
        {
          "internalType": "address",
          "name": "initialOwner",
          "type": "address"
        },
        {
          "internalType": "uint256",
          "name": "_royaltyPercentage",
          "type": "uint256"
        },
        {
          "internalType": "address",
          "name": "_royaltyRecipient",
          "type": "address"
        },
        {
          "internalType": "address",
          "name": "_protocolManager",
          "type": "address"
        },
        {
          "internalType": "uint256",
          "name": "_prizeTokenId",
          "type": "uint256"
        },
        {
          "internalType": "uint256",
          "name": "_prizeMaxSupply",
          "type": "uint256"
        },
        {
          "internalType": "enum PrizeTypes.RevealType",
          "name": "_revealType",
          "type": "uint8"
        },
        {
          "internalType": "string",
          "name": "_unrevealedURI",
          "type": "string"
        },
        {
          "internalType": "uint256",
          "name": "_revealTime",
          "type": "uint256"
        }
      ],
      "name": "initialize",
      "outputs": [],
      "stateMutability": "nonpayable",
      "type": "function"
    },
    {
      "inputs": [
        {
          "internalType": "address",
          "name": "account",
          "type": "address"
        },
        {
          "internalType": "address",
          "name": "operator",
          "type": "address"
        }
      ],
      "name": "isApprovedForAll",
      "outputs": [
        {
          "internalType": "bool",
          "name": "",
          "type": "bool"
        }
      ],
      "stateMutability": "view",
      "type": "function"
    },
    {
      "inputs": [
        {
          "internalType": "address",
          "name": "marketplace",
          "type": "address"
        }
      ],
      "name": "isMarketplaceAllowed",
      "outputs": [
        {
          "internalType": "bool",
          "name": "",
          "type": "bool"
        }
      ],
      "stateMutability": "view",
      "type": "function"
    },
    {
      "inputs": [
        {
          "internalType": "address",
          "name": "",
          "type": "address"
        }
      ],
      "name": "isMinter",
      "outputs": [
        {
          "internalType": "bool",
          "name": "",
          "type": "bool"
        }
      ],
      "stateMutability": "view",
      "type": "function"
    },
    {
      "inputs": [],
      "name": "isRevealed",
      "outputs": [
        {
          "internalType": "bool",
          "name": "",
          "type": "bool"
        }
      ],
      "stateMutability": "view",
      "type": "function"
    },
    {
      "inputs": [
        {
          "internalType": "address",
          "name": "account",
          "type": "address"
        }
      ],
      "name": "isRoyaltyEnforcementExempt",
      "outputs": [
        {
          "internalType": "bool",
          "name": "",
          "type": "bool"
        }
      ],
      "stateMutability": "view",
      "type": "function"
    },
    {
      "inputs": [
        {
          "internalType": "address",
          "name": "",
          "type": "address"
        }
      ],
      "name": "kolApprovals",
      "outputs": [
        {
          "internalType": "bool",
          "name": "approved",
          "type": "bool"
        },
        {
          "internalType": "uint256",
          "name": "poolLimit",
          "type": "uint256"
        },
        {
          "internalType": "uint256",
          "name": "enforcedSlotFee",
          "type": "uint256"
        },
        {
          "internalType": "uint256",
          "name": "winnerLimit",
          "type": "uint256"
        },
        {
          "internalType": "uint256",
          "name": "poolCount",
          "type": "uint256"
        },
        {
          "internalType": "uint256",
          "name": "winnerCount",
          "type": "uint256"
        }
      ],
      "stateMutability": "view",
      "type": "function"
    },
    {
      "inputs": [
        {
          "internalType": "uint256",
          "name": "",
          "type": "uint256"
        }
      ],
      "name": "maxSupply",
      "outputs": [
        {
          "internalType": "uint256",
          "name": "",
          "type": "uint256"
        }
      ],
      "stateMutability": "view",
      "type": "function"
    },
    {
      "inputs": [
        {
          "internalType": "address",
          "name": "to",
          "type": "address"
        },
        {
          "internalType": "uint256",
          "name": "id",
          "type": "uint256"
        },
        {
          "internalType": "uint256",
          "name": "amount",
          "type": "uint256"
        }
      ],
      "name": "mint",
      "outputs": [],
      "stateMutability": "nonpayable",
      "type": "function"
    },
    {
      "inputs": [],
      "name": "minterLocked",
      "outputs": [
        {
          "internalType": "bool",
          "name": "",
          "type": "bool"
        }
      ],
      "stateMutability": "view",
      "type": "function"
    },
    {
      "inputs": [
        {
          "internalType": "address",
          "name": "",
          "type": "address"
        },
        {
          "internalType": "address",
          "name": "",
          "type": "address"
        },
        {
          "internalType": "uint256[]",
          "name": "",
          "type": "uint256[]"
        },
        {
          "internalType": "uint256[]",
          "name": "",
          "type": "uint256[]"
        },
        {
          "internalType": "bytes",
          "name": "",
          "type": "bytes"
        }
      ],
      "name": "onERC1155BatchReceived",
      "outputs": [
        {
          "internalType": "bytes4",
          "name": "",
          "type": "bytes4"
        }
      ],
      "stateMutability": "pure",
      "type": "function"
    },
    {
      "inputs": [
        {
          "internalType": "address",
          "name": "",
          "type": "address"
        },
        {
          "internalType": "address",
          "name": "",
          "type": "address"
        },
        {
          "internalType": "uint256",
          "name": "",
          "type": "uint256"
        },
        {
          "internalType": "uint256",
          "name": "",
          "type": "uint256"
        },
        {
          "internalType": "bytes",
          "name": "",
          "type": "bytes"
        }
      ],
      "name": "onERC1155Received",
      "outputs": [
        {
          "internalType": "bytes4",
          "name": "",
          "type": "bytes4"
        }
      ],
      "stateMutability": "pure",
      "type": "function"
    },
    {
      "inputs": [],
      "name": "owner",
      "outputs": [
        {
          "internalType": "address",
          "name": "",
          "type": "address"
        }
      ],
      "stateMutability": "view",
      "type": "function"
    },
    {
      "inputs": [
        {
          "internalType": "address",
          "name": "",
          "type": "address"
        }
      ],
      "name": "poolTokenId",
      "outputs": [
        {
          "internalType": "uint256",
          "name": "",
          "type": "uint256"
        }
      ],
      "stateMutability": "view",
      "type": "function"
    },
    {
      "inputs": [],
      "name": "protocolManager",
      "outputs": [
        {
          "internalType": "address",
          "name": "",
          "type": "address"
        }
      ],
      "stateMutability": "view",
      "type": "function"
    },
    {
      "inputs": [
        {
          "internalType": "uint256",
          "name": "tokenId",
          "type": "uint256"
        },
        {
          "internalType": "uint256",
          "name": "_percentage",
          "type": "uint256"
        }
      ],
      "name": "reduceCreatorAllocation",
      "outputs": [],
      "stateMutability": "nonpayable",
      "type": "function"
    },
    {
      "inputs": [
        {
          "internalType": "address",
          "name": "marketplace",
          "type": "address"
        }
      ],
      "name": "removeAllowedMarketplace",
      "outputs": [],
      "stateMutability": "nonpayable",
      "type": "function"
    },
    {
      "inputs": [],
      "name": "renounceOwnership",
      "outputs": [],
      "stateMutability": "nonpayable",
      "type": "function"
    },
    {
      "inputs": [
        {
          "internalType": "address",
          "name": "pool",
          "type": "address"
        }
      ],
      "name": "restoreMinterAllocation",
      "outputs": [],
      "stateMutability": "nonpayable",
      "type": "function"
    },
    {
      "inputs": [],
      "name": "reveal",
      "outputs": [],
      "stateMutability": "nonpayable",
      "type": "function"
    },
    {
      "inputs": [],
      "name": "revealTime",
      "outputs": [
        {
          "internalType": "uint256",
          "name": "",
          "type": "uint256"
        }
      ],
      "stateMutability": "view",
      "type": "function"
    },
    {
      "inputs": [],
      "name": "revealType",
      "outputs": [
        {
          "internalType": "enum PrizeTypes.RevealType",
          "name": "",
          "type": "uint8"
        }
      ],
      "stateMutability": "view",
      "type": "function"
    },
    {
      "inputs": [
        {
          "internalType": "address",
          "name": "_kol",
          "type": "address"
        }
      ],
      "name": "revokeKOL",
      "outputs": [],
      "stateMutability": "nonpayable",
      "type": "function"
    },
    {
      "inputs": [],
      "name": "royaltyEnforcementEnabled",
      "outputs": [
        {
          "internalType": "bool",
          "name": "",
          "type": "bool"
        }
      ],
      "stateMutability": "view",
      "type": "function"
    },
    {
      "inputs": [
        {
          "internalType": "uint256",
          "name": "",
          "type": "uint256"
        },
        {
          "internalType": "uint256",
          "name": "salePrice",
          "type": "uint256"
        }
      ],
      "name": "royaltyInfo",
      "outputs": [
        {
          "internalType": "address",
          "name": "",
          "type": "address"
        },
        {
          "internalType": "uint256",
          "name": "",
          "type": "uint256"
        }
      ],
      "stateMutability": "view",
      "type": "function"
    },
    {
      "inputs": [],
      "name": "royaltyPercentage",
      "outputs": [
        {
          "internalType": "uint256",
          "name": "",
          "type": "uint256"
        }
      ],
      "stateMutability": "view",
      "type": "function"
    },
    {
      "inputs": [],
      "name": "royaltyRecipient",
      "outputs": [
        {
          "internalType": "address",
          "name": "",
          "type": "address"
        }
      ],
      "stateMutability": "view",
      "type": "function"
    },
    {
      "inputs": [
        {
          "internalType": "address",
          "name": "from",
          "type": "address"
        },
        {
          "internalType": "address",
          "name": "to",
          "type": "address"
        },
        {
          "internalType": "uint256[]",
          "name": "ids",
          "type": "uint256[]"
        },
        {
          "internalType": "uint256[]",
          "name": "amounts",
          "type": "uint256[]"
        },
        {
          "internalType": "bytes",
          "name": "data",
          "type": "bytes"
        }
      ],
      "name": "safeBatchTransferFrom",
      "outputs": [],
      "stateMutability": "nonpayable",
      "type": "function"
    },
    {
      "inputs": [
        {
          "internalType": "address",
          "name": "from",
          "type": "address"
        },
        {
          "internalType": "address",
          "name": "to",
          "type": "address"
        },
        {
          "internalType": "uint256",
          "name": "id",
          "type": "uint256"
        },
        {
          "internalType": "uint256",
          "name": "amount",
          "type": "uint256"
        },
        {
          "internalType": "bytes",
          "name": "data",
          "type": "bytes"
        }
      ],
      "name": "safeTransferFrom",
      "outputs": [],
      "stateMutability": "nonpayable",
      "type": "function"
    },
    {
      "inputs": [
        {
          "internalType": "address",
          "name": "operator",
          "type": "address"
        },
        {
          "internalType": "bool",
          "name": "approved",
          "type": "bool"
        }
      ],
      "name": "setApprovalForAll",
      "outputs": [],
      "stateMutability": "nonpayable",
      "type": "function"
    },
    {
      "inputs": [
        {
          "internalType": "string",
          "name": "newBaseURI",
          "type": "string"
        }
      ],
      "name": "setBaseURI",
      "outputs": [],
      "stateMutability": "nonpayable",
      "type": "function"
    },
    {
      "inputs": [
        {
          "internalType": "address",
          "name": "pool",
          "type": "address"
        },
        {
          "internalType": "uint256",
          "name": "tokenId",
          "type": "uint256"
        },
        {
          "internalType": "uint256",
          "name": "allocation",
          "type": "uint256"
        }
      ],
      "name": "setMinterAndAllocation",
      "outputs": [],
      "stateMutability": "nonpayable",
      "type": "function"
    },
    {
      "inputs": [
        {
          "internalType": "uint256",
          "name": "_royaltyPercentage",
          "type": "uint256"
        },
        {
          "internalType": "address",
          "name": "_royaltyRecipient",
          "type": "address"
        }
      ],
      "name": "setRoyalty",
      "outputs": [],
      "stateMutability": "nonpayable",
      "type": "function"
    },
    {
      "inputs": [
        {
          "internalType": "address",
          "name": "account",
          "type": "address"
        },
        {
          "internalType": "bool",
          "name": "exempt",
          "type": "bool"
        }
      ],
      "name": "setRoyaltyEnforcementExemption",
      "outputs": [],
      "stateMutability": "nonpayable",
      "type": "function"
    },
    {
      "inputs": [
        {
          "internalType": "uint256",
          "name": "_tokenId",
          "type": "uint256"
        },
        {
          "internalType": "string",
          "name": "_uri",
          "type": "string"
        }
      ],
      "name": "setURI",
      "outputs": [],
      "stateMutability": "nonpayable",
      "type": "function"
    },
    {
      "inputs": [
        {
          "internalType": "uint256",
          "name": "",
          "type": "uint256"
        }
      ],
      "name": "supplyCutTimestamp",
      "outputs": [
        {
          "internalType": "uint256",
          "name": "",
          "type": "uint256"
        }
      ],
      "stateMutability": "view",
      "type": "function"
    },
    {
      "inputs": [
        {
          "internalType": "bytes4",
          "name": "interfaceId",
          "type": "bytes4"
        }
      ],
      "name": "supportsInterface",
      "outputs": [
        {
          "internalType": "bool",
          "name": "",
          "type": "bool"
        }
      ],
      "stateMutability": "view",
      "type": "function"
    },
    {
      "inputs": [
        {
          "internalType": "bool",
          "name": "enabled",
          "type": "bool"
        }
      ],
      "name": "toggleRoyaltyEnforcement",
      "outputs": [],
      "stateMutability": "nonpayable",
      "type": "function"
    },
    {
      "inputs": [
        {
          "internalType": "uint256",
          "name": "",
          "type": "uint256"
        }
      ],
      "name": "tokenAllocatedSupply",
      "outputs": [
        {
          "internalType": "uint256",
          "name": "",
          "type": "uint256"
        }
      ],
      "stateMutability": "view",
      "type": "function"
    },
    {
      "inputs": [
        {
          "internalType": "uint256",
          "name": "",
          "type": "uint256"
        }
      ],
      "name": "tokenCreationTime",
      "outputs": [
        {
          "internalType": "uint256",
          "name": "",
          "type": "uint256"
        }
      ],
      "stateMutability": "view",
      "type": "function"
    },
    {
      "inputs": [
        {
          "internalType": "uint256",
          "name": "id",
          "type": "uint256"
        }
      ],
      "name": "totalSupply",
      "outputs": [
        {
          "internalType": "uint256",
          "name": "",
          "type": "uint256"
        }
      ],
      "stateMutability": "view",
      "type": "function"
    },
    {
      "inputs": [
        {
          "internalType": "address",
          "name": "newOwner",
          "type": "address"
        }
      ],
      "name": "transferOwnership",
      "outputs": [],
      "stateMutability": "nonpayable",
      "type": "function"
    },
    {
      "inputs": [
        {
          "internalType": "uint256",
          "name": "",
          "type": "uint256"
        }
      ],
      "name": "unlockedAmountAtCut",
      "outputs": [
        {
          "internalType": "uint256",
          "name": "",
          "type": "uint256"
        }
      ],
      "stateMutability": "view",
      "type": "function"
    },
    {
      "inputs": [],
      "name": "unrevealedURI",
      "outputs": [
        {
          "internalType": "string",
          "name": "",
          "type": "string"
        }
      ],
      "stateMutability": "view",
      "type": "function"
    },
    {
      "inputs": [
        {
          "internalType": "uint256",
          "name": "_tokenId",
          "type": "uint256"
        }
      ],
      "name": "uri",
      "outputs": [
        {
          "internalType": "string",
          "name": "",
          "type": "string"
        }
      ],
      "stateMutability": "view",
      "type": "function"
    },
    {
      "inputs": [
        {
          "internalType": "uint256",
          "name": "",
          "type": "uint256"
        }
      ],
      "name": "vestingConfig",
      "outputs": [
        {
          "internalType": "uint256",
          "name": "cliffEnd",
          "type": "uint256"
        },
        {
          "internalType": "uint256",
          "name": "numberOfUnlocks",
          "type": "uint256"
        },
        {
          "internalType": "uint256",
          "name": "durationBetweenUnlocks",
          "type": "uint256"
        },
        {
          "internalType": "uint256",
          "name": "amountPerUnlock",
          "type": "uint256"
        }
      ],
      "stateMutability": "view",
      "type": "function"
    },
    {
      "inputs": [
        {
          "internalType": "uint256",
          "name": "",
          "type": "uint256"
        }
      ],
      "name": "vestingConfigured",
      "outputs": [
        {
          "internalType": "bool",
          "name": "",
          "type": "bool"
        }
      ],
      "stateMutability": "view",
      "type": "function"
    },
    {
      "inputs": [
        {
          "internalType": "address",
          "name": "",
          "type": "address"
        },
        {
          "internalType": "uint256",
          "name": "",
          "type": "uint256"
        }
      ],
      "name": "walletMintedCount",
      "outputs": [
        {
          "internalType": "uint256",
          "name": "",
          "type": "uint256"
        }
      ],
      "stateMutability": "view",
      "type": "function"
    }
  ],
  "bytecode": "0x60a0346200017f576001600160401b0390601f62005fa138819003918201601f19168301918483118484101762000169578084926020946040528339810103126200017f57516001600160a01b039182821682036200017f5760405190602082019081118282101762000169576040526000809152600254906001918281811c911680156200015e575b60208210146200014a57601f8111620000fc575b5080600255600454903360018060a01b03198316176004557f8be0079c531659141344cd1fd0a4f28419497f9722a3daafe3b4186f6b6457e0604051953393169180a3600555608052615e1c908162000185823960805181613aa60152f35b60028252601f0160051c7f405787fa12a823e0f2b7631cc41b3ba8828b3321ca811111fa75cd3aa3bb5ace9081019083905b8281106200013e5750506200009d565b8381550183906200012e565b634e487b7160e01b82526022600452602482fd5b90607f169062000089565b634e487b7160e01b600052604160045260246000fd5b600080fdfe6080604052600436101561001257600080fd5b60003560e01c8062fdd58e146104b157806301ffc9a7146104ac5780630e89341c146104a757806310122488146104a257806310c7e4a21461049d578063156e29f61461049857806317f63979146104935780631b9dfee71461048e5780631fc3689b1461048957806321e8b17e1461048457806324e0eba91461047f5780632633f8b11461047a57806329a77e26146104755780632a55205a146104705780632eb2c2d61461046b5780633e871c001461046657806340e3276b146104615780634c00de821461045c5780634e1273f4146104575780634f14ec3f146104525780634f558e791461044d57806353cb5d511461044857806354214f691461044357806355f804b31461043e5780635894bd5114610439578063664077811461042a5780636981bb461461043457806369d42c5e1461042f5780637035bf181461042a578063715018a61461042557806371c333591461042057806383e46c561461041b578063862440e214610416578063869f75941461041157806389f7842d1461040c5780638a5d6909146104075780638a71bb2d146104025780638be6dc1d146103fd5780638c7a63ae146103f85780638da5cb5b146103f357806397c82b66146103ee5780639de21c10146103e9578063a22cb465146103e4578063a2af294f146103df578063a2d6ebf3146103da578063a475b5dd146103d5578063a9c989dc146103d0578063aa271e1a146103cb578063ab4b6692146103c6578063ae0f9544146103c1578063b5f1f247146103bc578063ba829d71146103b7578063bc197c81146103b2578063bd85b039146103ad578063bdbed722146103a8578063c705fea2146103a3578063cc54cce31461039e578063cca6ffe214610399578063cdfaee4e14610394578063cee8e0fe1461038f578063d0aa96c01461038a578063d5c32ca414610385578063d6b6e20314610380578063d7e1a4001461037b578063e377b67c14610376578063e642d3b114610371578063e8834c481461036c578063e985e9c514610367578063f23a6e6114610362578063f242432a1461035d578063f2fde38b14610358578063faf5a12414610353578063fbddc0551461034e5763fcf2e55f1461034957600080fd5b613403565b61337c565b613156565b6130c5565b61300a565b612fb0565b612f48565b612e65565b612e34565b612de9565b612d9a565b612d5d565b612c9d565b612c3d565b612c1a565b612bfc565b612bde565b612bbb565b612a1f565b612987565b61295b565b6128cc565b612851565b612704565b612449565b612420565b6123de565b6123b2565b61229c565b612270565b612246565b6120dc565b611fd9565b611eec565b611ec3565b611e7e565b611e52565b611e34565b611df7565b611db1565b611d85565b611c0a565b611be7565b611ba5565b611b47565b61181f565b61190b565b6118df565b61179a565b611735565b611712565b6115a5565b611577565b61147c565b6113c1565b611353565b6112b8565b611227565b610fe0565b610e4d565b610e1c565b610d41565b610cd8565b610cac565b610a8b565b61093f565b610876565b61076a565b610705565b610655565b610614565b610520565b6104db565b6001600160a01b038116036104c757565b600080fd5b608435906104d9826104b6565b565b346104c75760403660031901126104c75760206105066004356104fd816104b6565b60243590613510565b604051908152f35b6001600160e01b03198116036104c757565b346104c75760203660031901126104c757602060043561053f8161050e565b63ffffffff60e01b1663152a902d60e11b81149081156105af575b811561056c575b506040519015158152f35b636cdb3d1360e11b81149150811561059e575b811561058d575b5038610561565b6301ffc9a760e01b14905038610586565b6303a24d0760e21b8114915061057f565b630ab714fb60e11b8114915061055a565b919082519283825260005b8481106105ec575050826000602080949584010152601f8019910116010190565b6020818301810151848301820152016105cb565b9060206106119281815201906105c0565b90565b346104c75760203660031901126104c757610647610633600435614830565b6040519182916020835260208301906105c0565b0390f35b801515036104c757565b346104c75760203660031901126104c7577ff4fe92c76f5b8827e8fd9eac2c7181b6b2c22b10543b969fa2d9a26cdcd56bd26106d66004356106968161064b565b61069e61346f565b80156106db5760026014546001600160801b038116906001600160801b03191617176014555b60405190151581529081906020820190565b0390a1005b6014546ffffffffffffffffffffffffffffffffd8116906001600160801b031916176014556106c4565b346104c75760203660031901126104c757600435610722816104b6565b60018060a01b03166000526012602052602060ff604060002054166040519015158152f35b60609060031901126104c75760043561075f816104b6565b906024359060443590565b346104c75761077836610747565b90916107826149ec565b336000908152600a602052604090206107a5906107a1905b5460ff1690565b1590565b610864576107bd836000526003602052604060002090565b546107d284600052600b602052604060002090565b5490811561085257806107e783869310614967565b0111610840576108019082846107fb6149c9565b92614a42565b60405190815233907faafa1dbc87d0d4fc4b41b7ea689f27064944bce2e8d5dd922ba7c35a463606d89080602081015b0390a361083e6001600555565b005b60405163c30436e960e01b8152600490fd5b604051630fee82b160e01b8152600490fd5b60405163955c501b60e01b8152600490fd5b346104c75760203660031901126104c757600435610893816104b6565b60018060a01b0316600052600660205260406000206040516108b481610e9f565b60ff825416151580825260a060018401549384602085015260028101549384604082015260038201549081606082015260056004840154938460808401520154938491015283610935575b6106479394604051968796879260a094919796959260c08501981515855260208501526040840152606083015260808201520152565b80831093506108ff565b346104c75760403660031901126104c7576004357fbb7617ce321e467e1dc6bad5c188dbe5c31dfe923c1283a07602d74040e0cb4a60243561097f61346f565b8260005260186020526109a061099b604060002060ff90541690565b614c4c565b80151580610a80575b6109b290614caa565b6109c683600052601b602052604060002090565b54610a19610a07610a006109e4876000526017602052604060002090565b54946109f08587614d11565b6109fb811515614d1e565b614c19565b6064900490565b8093610a14821515614d7c565b614d11565b9081610a2f866000526017602052604060002090565b55610a4761079a86600052601a602052604060002090565b610a67575b5060408051918252602082019290925290819081015b0390a2005b610a74610a7a9183614d11565b85614ddb565b38610a4c565b5060648111156109a9565b346104c75760803660031901126104c7576004357f088cab2409ca33ba4d1407cb6386b97a16192c0417c40ace27682534b193a0f7604435602435610a62606435610ad461346f565b610af6610af16107a161079a89600052601a602052604060002090565b614e9d565b610b15610b0d87600052600b602052604060002090565b54151561474c565b610b34610b2c876000526019602052604060002090565b541515614efb565b610b4e61099b61079a886000526018602052604060002090565b610bcb84610bc6610bc1828a610bae610ba6610ba0610b77846000526017602052604060002090565b54936101f4851015610c6c57610b90600287101561504c565b6000526019602052604060002090565b54614205565b8a10156150a3565b610bbc610e10881015615108565b614222565b614d02565b614c2c565b90610c25610bd7610efb565b858152866020820152826040820152836060820152610c0089600052601e602052604060002090565b9060606003918051845560208101516001850155604081015160028501550151910155565b610c49610c3c88600052601a602052604060002090565b805460ff19166001179055565b604051948594859094939260609260808301968352602083015260408201520152565b6103e8851015610c8857610c836004871015614ff2565b610b90565b6107d0851015610c9f57610c836008871015614f97565b610c836008871015614f3f565b346104c75760203660031901126104c75760043560005260196020526020604060002054604051908152f35b346104c757600080600319360112610d3e57610cf261346f565b6014546ffffffffffffffffffffffffffffffffb8116906001600160801b031916176014557fa0e4442ee881786834ee773b9ed42c22dff390d3d3318996679777915e63be348180a180f35b80fd5b346104c75760203660031901126104c757600435610d5e816104b6565b610d6661346f565b6001600160a01b03811660008181526013602052604081205490929060ff1615610dd7576001600160a01b03166000908152601360205260409020610db0905b805460ff19169055565b7feac9a18305649744c83ff9f4d60058552b03f4e8df46a1cb28f7563fbd179b428280a280f35b60405162461bcd60e51b815260206004820152601f60248201527f4d61726b6574706c616365206e6f7420696e20616c6c6f776564206c697374006044820152606490fd5b346104c75760203660031901126104c7576004356000526018602052602060ff604060002054166040519015158152f35b346104c75760403660031901126104c757604060018060a01b0360085416612710610e7c600754602435614c19565b0482519182526020820152f35b634e487b7160e01b600052604160045260246000fd5b60c081019081106001600160401b03821117610eba57604052565b610e89565b608081019081106001600160401b03821117610eba57604052565b90601f801991011681019081106001600160401b03821117610eba57604052565b604051906104d982610ebf565b604051906104d982610e9f565b6001600160401b038111610eba5760051b60200190565b81601f820112156104c757803591610f4383610f15565b92610f516040519485610eda565b808452602092838086019260051b8201019283116104c7578301905b828210610f7b575050505090565b81358152908301908301610f6d565b81601f820112156104c7578035906001600160401b038211610eba5760405192610fbe601f8401601f191660200185610eda565b828452602083830101116104c757816000926020809301838601378301015290565b346104c75760a03660031901126104c757600435610ffd816104b6565b6024359061100a826104b6565b6001600160401b03906044358281116104c75761102b903690600401610f2c565b916064358181116104c757611044903690600401610f2c565b906084359081116104c75761105d903690600401610f8a565b92601454600481161515908161120c575b50806111f3575b6111d4575b6001600160a01b03838116949033861480156111b1575b61109a90613eec565b6110a783518551146145ec565b86166110b481151561414c565b6110c084848988615907565b60005b835181101561116d57806110da611168928661363a565b516111616111598b61110e6110ef868c61363a565b51948c611148876111258361110e866000526000602052604060002090565b9060018060a01b0316600052602052604060002090565b54611132828210156141a6565b039161110e846000526000602052604060002090565b556000526000602052604060002090565b918254614222565b9055613615565b6110c3565b509386919461083e966040517f4a39dc06d4c0dbc64b70af90fd698a233a518aa5d07e595d983b8c0526c8f7fb3391806111a88a8a83614649565b0390a4336146bc565b50600086815260016020908152604080832033845290915290205460ff16611091565b3360005260136020526111ee60ff60406000205416613e7a565b61107a565b5033600052601260205260ff6040600020541615611075565b6008915016153861106e565b60e4359060038210156104c757565b346104c7576101403660031901126104c7576001600160401b036004358181116104c757611259903690600401610f8a565b60243590611266826104b6565b60643591611273836104b6565b61127b6104cc565b91611284611218565b91610104359586116104c7576112a161083e963690600401610f8a565b93610124359560c4359360a4359360443591613a52565b346104c75760403660031901126104c7576024356004356112d8826104b6565b6112e061346f565b612710811161130e57600755600880546001600160a01b0319166001600160a01b0392909216919091179055005b60405162461bcd60e51b815260206004820152601a60248201527f526f79616c74792063616e6e6f742065786365656420313030250000000000006044820152606490fd5b346104c75760003660031901126104c7576008546040516001600160a01b039091168152602090f35b90815180825260208080930193019160005b82811061139c575050505090565b83518552938101939281019260010161138e565b90602061061192818152019061137c565b346104c75760403660031901126104c7576004356001600160401b038082116104c757366023830112156104c75781600401356113fd81610f15565b9261140b6040519485610eda565b81845260209160248386019160051b830101913683116104c757602401905b82821061146357856024358681116104c75761064791611451611457923690600401610f2c565b90613653565b604051918291826113b0565b8380918335611471816104b6565b81520191019061142a565b346104c75760403660031901126104c75760243560043561149b61346f565b6114fc610a00600093838552600b6020526114bb6040862054151561474c565b838552601860205260408520546114d59060ff1615614b5a565b6114e26014821115614bc1565b6114f684600052600b602052604060002090565b54614c19565b611510826000526017602052604060002090565b55611528610c3c826000526018602052604060002090565b7fb9810d2bf7d3f589fcd8960a77553281c32552184a1a4aeb6998396dd1b17542611571611560836000526017602052604060002090565b546040519081529081906020820190565b0390a280f35b346104c75760203660031901126104c757600435600052600360205260206040600020541515604051908152f35b346104c7576108317f22a0362337789c81f3cf44af8dd14037966fde16d43f0503e0d56955267667886115d736610747565b92916115e494919461346f565b6115ec6149ec565b61167361160386600052600b602052604060002090565b5461166c8661161c896000526003602052604060002090565b5461163c61163761079a8c600052601a602052604060002090565b615356565b61165661099b61079a8c6000526018602052604060002090565b6116618415156153b0565b610bbc8215156153fc565b111561543f565b61168761167f86615308565b851115615480565b6116c46116a8856116a288600052601b602052604060002090565b54614222565b6116bc876000526017602052604060002090565b5410156154da565b6116d885600052601b602052604060002090565b6116e3858254614222565b90556116f86116f06149c9565b858784614a42565b6040519384526001600160a01b0316929081906020820190565b346104c75760003660031901126104c75760206001601454161515604051908152f35b346104c75760203660031901126104c7576004356001600160401b0381116104c7576106d66117897f6741b2fc379fad678116fe3d4d4b9a1a184ab53ba36b86ad0fa66340b1ab41ad923690600401610f8a565b61179161346f565b61063381613be8565b346104c757600080600319360112610d3e57808060015b6103e88111156117cb576040805183815260208101869052f35b8083526020600b81526040808520546117ef575b50506117ea90613615565b6117b1565b90926117ff600391969396613615565b9386865252832054810180911161181a57926117ea386117df565b6135ff565b346104c757600080600319360112610d3e576040519080601054611842816119ad565b808552916001918083169081156118b5575060011461186c575b6106478561063381870382610eda565b925060108352600080516020615dc78339815191525b82841061189d5750505081016020016106338261064761185c565b80546020858701810191909152909301928101611882565b8695506106479693506020925061063394915060ff191682840152151560051b820101929361185c565b346104c75760203660031901126104c757600435600052601d6020526020604060002054604051908152f35b346104c75760403660031901126104c757600435611928816104b6565b60095460405163188c824d60e11b81526001600160a01b0392916020908290600490829087165afa80156119a85761083e9361196f92600092611978575b5016331461490a565b60243590615c6a565b61199a91925060203d81116119a1575b6119928183610eda565b810190613cd1565b9038611966565b503d611988565b613ce6565b90600182811c921680156119dd575b60208310146119c757565b634e487b7160e01b600052602260045260246000fd5b91607f16916119bc565b60405190600082600254916119fb836119ad565b80835292600190818116908115611a815750600114611a22575b506104d992500383610eda565b6002600090815291507f405787fa12a823e0f2b7631cc41b3ba8828b3321ca811111fa75cd3aa3bb5ace5b848310611a6657506104d9935050810160200138611a15565b81935090816020925483858a01015201910190918592611a4d565b9050602092506104d994915060ff191682840152151560051b82010138611a15565b9060405191826000825492611ab7846119ad565b908184526001948581169081600014611b245750600114611ae1575b50506104d992500383610eda565b9093915060005260209081600020936000915b818310611b0c5750506104d993508201013880611ad3565b85548884018501529485019487945091830191611af4565b9150506104d994506020925060ff191682840152151560051b8201013880611ad3565b346104c757600080600319360112610d3e57611b6161346f565b600480546001600160a01b0319811690915581906001600160a01b03167f8be0079c531659141344cd1fd0a4f28419497f9722a3daafe3b4186f6b6457e08280a380f35b346104c75760203660031901126104c757600435611bc2816104b6565b60018060a01b03166000526013602052602060ff604060002054166040519015158152f35b346104c75760003660031901126104c75760206004601454161515604051908152f35b346104c75760403660031901126104c7576001600160401b036004356024358281116104c757611c3e903690600401610f8a565b611c4661346f565b600092828452602090600b8252611c626040862054151561474c565b8385526016825260408520918351918211610eba57611c8b82611c8585546119ad565b856138d1565b80601f8311600114611cf3575091817fbf032ae7dcb484f99f9f3977ba9cde222756e7073de74244ceb89de862569bdb9492611571948891611ce8575b508160011b916000199060031b1c19161790555b60405191829182610600565b905083015138611cc8565b90601f198316611d0885600052602060002090565b9288905b828210611d6d575050926115719492600192827fbf032ae7dcb484f99f9f3977ba9cde222756e7073de74244ceb89de862569bdb989610611d54575b5050811b019055611cdc565b85015160001960f88460031b161c191690553880611d48565b80600185968294968b01518155019501930190611d0c565b346104c75760203660031901126104c757600435600052600b6020526020604060002054604051908152f35b346104c75760203660031901126104c757600435600052601c6020526020604060002054604051908152f35b6001600160a01b0316600090815260126020526040902090565b346104c75760203660031901126104c757600435611e14816104b6565b60018060a01b0316600052600e6020526020604060002054604051908152f35b346104c75760003660031901126104c7576020600754604051908152f35b346104c75760203660031901126104c757600435600052601b6020526020604060002054604051908152f35b346104c75760203660031901126104c757600435600052600b602052606060406000205460036020526040600020549060405191818352602083015215156040820152f35b346104c75760003660031901126104c7576004546040516001600160a01b039091168152602090f35b346104c75760203660031901126104c757600435611f09816104b6565b611f1161346f565b6001600160a01b038116908115611f9457610c3c81611f53611f4e6107a161079a611f6d9660018060a01b03166000526013602052604060002090565b613e2e565b6001600160a01b0316600090815260136020526040902090565b7f119567ed9b6c3d3a90f367bc09314fc6cd50ab2434a5b4f73688a2c1ea149838600080a2005b60405162461bcd60e51b815260206004820152601b60248201527f496e76616c6964206d61726b6574706c616365206164647265737300000000006044820152606490fd5b346104c757611fe736610747565b90600460018060a01b03602081600954166040519384809263188c824d60e11b82525afa9182156119a857600092612097575b503391160361202c5761083e92615711565b60405162461bcd60e51b815260206004820152603860248201527f4f6e6c79207468652070726f746f636f6c277320506f6f6c4465706c6f79657260448201527f2063616e2063616c6c20746869732066756e6374696f6e2e00000000000000006064820152608490fd5b6120b091925060203d81116119a1576119928183610eda565b903861201a565b60409060031901126104c7576004356120cf816104b6565b906024356106118161064b565b346104c7576120ea366120b7565b6014546004811615159081612215575b50806121fc575b6121dd575b6001600160a01b0382169133831461218657816121456121569233600052600160205260406000209060018060a01b0316600052602052604060002090565b9060ff801983541691151516179055565b60405190151581527f17307eab39ab6107e8899845ad3d59bd9653f200f220920489ca2b5937696c3160203392a3005b60405162461bcd60e51b815260206004820152602960248201527f455243313135353a2073657474696e6720617070726f76616c20737461747573604482015268103337b91039b2b63360b91b6064820152608490fd5b3360005260136020526121f760ff60406000205416613e7a565b612106565b5033600052601260205260ff6040600020541615612101565b600891501615386120fa565b634e487b7160e01b600052602160045260246000fd5b6003111561224157565b612221565b346104c75760003660031901126104c75760ff600f54166040516003821015612241576020918152f35b346104c75760203660031901126104c757600435600052600d6020526020604060002054604051908152f35b346104c757600080600319360112610d3e576122b661346f565b6122c560016014541615614798565b600f5460ff166122d481612237565b6002810361233657506122eb6011544210156147e4565b61230f60016014546001600160801b038116906001600160801b0319161717601455565b7f4884a1e8d033385ee80fa3d769d1ba3c44e18291db0f726e436a01997d3df36a8180a180f35b61233f81612237565b6122eb5760405162461bcd60e51b815260206004820152603e60248201527f496e7374616e742072657665616c20636f6c6c656374696f6e7320646f206e6f60448201527f74206e65656420746f206265206d616e75616c6c792072657665616c656400006064820152608490fd5b0390fd5b346104c75760203660031901126104c75760043560005260176020526020604060002054604051908152f35b346104c75760203660031901126104c7576004356123fb816104b6565b60018060a01b0316600052600a602052602060ff604060002054166040519015158152f35b346104c75760003660031901126104c7576009546040516001600160a01b039091168152602090f35b346104c75760403660031901126104c7576004357f4eb6d91f82d0f0a4ce5f3a9ef35cf77f613592659f0267b74e4c2b276e43e08260243561248961346f565b6124a0610b0d84600052600b602052604060002090565b801515806126f9575b6124b290614caa565b61259561258d612572610a1461256c87612560610a006124dc836000526017602052604060002090565b54986124f561079a856000526018602052604060002090565b6125d8575b612555612511856000526003602052604060002090565b549a610a148c61254061252e89600052600b602052604060002090565b5498600052600d602052604060002090565b54998161254f8a8d9410615598565b89614d11565b6109fb8115156155f4565b90610a14821515614d7c565b94614222565b612586866000526017602052604060002090565b5490614222565b82101561565c565b806125aa84600052600b602052604060002090565b556125bf836000526017602052604060002090565b5460408051928352602083019190915281908101610a62565b6125ec84600052601b602052604060002090565b5461260b81612605876000526017602052604060002090565b54614d11565b9081612619575b50506124fa565b61267861266f61262888615172565b936000848611156126eb575061266961264b6126448688614d11565b8093614d11565b9161266361265c610a008a86614c19565b9187614222565b92614d11565b90614222565b91821015615526565b61268c866000526017602052604060002090565b55806126a286600052601c602052604060002090565b55426126b886600052601d602052604060002090565b556126d061079a86600052601a602052604060002090565b6126db575b80612612565b6126e59085615995565b386126d5565b61264b612669918093614d11565b5060648111156124a9565b346104c75760803660031901126104c757600435612721816104b6565b60643560443560243561273261346f565b6001600160a01b038416938415612816577f70f501bd2f3c55f153861010e5184d8493b7b83ce7c4cb72fcc70fd07c1a240a936127f9610a6292612777851515615a93565b612782831515615ae9565b6127ac6127a76107a161079a8460018060a01b03166000526006602052604060002090565b615b41565b6127f46127b7610f08565b600181529186602084015287604084015284606084015260006080840152600060a084015260018060a01b03166000526006602052604060002090565b615b84565b604051938493846040919493926060820195825260208201520152565b60405162461bcd60e51b8152602060048201526013602482015272496e76616c6964204b4f4c206164647265737360681b6044820152606490fd5b346104c75760003660031901126104c7576020601154604051908152f35b9181601f840112156104c7578235916001600160401b0383116104c7576020808501948460051b0101116104c757565b9181601f840112156104c7578235916001600160401b0383116104c757602083818601950101116104c757565b346104c75760a03660031901126104c7576128e86004356104b6565b6128f36024356104b6565b6001600160401b036044358181116104c75761291390369060040161286f565b50506064358181116104c75761292d90369060040161286f565b50506084359081116104c75761294790369060040161289f565b505060405163bc197c8160e01b8152602090f35b346104c75760203660031901126104c75760043560005260036020526020604060002054604051908152f35b346104c757600080600319360112610d3e576129a16135a0565b60018281805b6129bd575b8484526040518061064786826113b0565b6103e881111580612a15575b15612a1057808252600b60205260408220546129ef575b6129e990613615565b826129a7565b93612a088186612a026129e9948861363a565b52613615565b9490506129e0565b6129ac565b50606485106129c9565b346104c75760203660031901126104c757600435612a3c816104b6565b612a4461346f565b6001600160a01b0381166000908152600a60205260409020612a6e90612a699061079a565b6157f9565b60405163c19d93fb60e01b81526001600160a01b03821691602082600481865afa9182156119a8577f86372a886a337455dd1cc469325e55aaf8068b361addb8fc08c3aa0bc904cc8892612ae091600091612b8d575b50612ace81615854565b60058114908115612b79575b5061585e565b6001600160a01b0381166000908152600c602090815260408083208054600e84528285205491859055600a9093529083209193909291612b3e9190612b2490610da6565b6001600160a01b03166000908152600e6020526040902090565b55612b5381600052600d602052604060002090565b612b5e838254614d11565b90556040805191825260208201929092529081908101610a62565b60079150612b8681615854565b1438612ada565b612bae915060203d8111612bb4575b612ba68183610eda565b81019061583c565b38612ac4565b503d612b9c565b346104c75760003660031901126104c75760206002601454161515604051908152f35b346104c75760203660031901126104c7576020610506600435615172565b346104c75760203660031901126104c7576020610506600435615308565b346104c75760003660031901126104c75760206008601454161515604051908152f35b346104c757600080600319360112610d3e57612c5761346f565b60046014546001600160801b038116906001600160801b03191617176014557f192c3f8649694bd147faa743027e4c232721f15ec16032c1c34b414c47a90df38180a180f35b346104c75760203660031901126104c757610647612d43600435610a1460008281526003602052610a146040822054600d602052604083205492601860205260ff604082205416600014612d535750612605612d03866000526017602052604060002090565b54955b612d33612d1d82600052600b602052604060002090565b54612d2c89610bbc8988614222565b11156156ce565b600052600b602052604060002090565b6040519081529081906020820190565b6126059095612d06565b346104c75760203660031901126104c757600435612d7a816104b6565b60018060a01b0316600052600c6020526020604060002054604051908152f35b346104c75760203660031901126104c7576004356000908152601e6020908152604091829020805460018201546002830154600390930154855192835293820152928301526060820152608090f35b346104c75760403660031901126104c757600435612e06816104b6565b60018060a01b0316600052601560205260406000206024356000526020526020604060002054604051908152f35b346104c75760203660031901126104c757600435600052601a602052602060ff604060002054166040519015158152f35b346104c75760403660031901126104c757600435602435612e8461346f565b81600052600b602052604060002054612f0357610a6281612ec77fc4b60435d5467f696f8dd268ffdd7fcff001c2937072bf65adb1ec5b426f8d709315156146f6565b80612edc85600052600b602052604060002090565b5542612ef2856000526019602052604060002090565b556040519081529081906020820190565b60405162461bcd60e51b815260206004820152601760248201527f546f6b656e20494420616c7265616479206578697374730000000000000000006044820152606490fd5b346104c75760403660031901126104c757602060ff612fa4600435612f6c816104b6565b60243590612f79826104b6565b60018060a01b03166000526001845260406000209060018060a01b0316600052602052604060002090565b54166040519015158152f35b346104c75760a03660031901126104c757612fcc6004356104b6565b612fd76024356104b6565b6084356001600160401b0381116104c757612ff690369060040161289f565b505060405163f23a6e6160e01b8152602090f35b346104c75760a03660031901126104c757600435613027816104b6565b60243590613034826104b6565b608435916001600160401b0383116104c75761305761083e933690600401610f8a565b9160145460048116151590816130b9575b50806130a0575b613081575b6064359160443591613f4f565b33600052601360205261309b60ff60406000205416613e7a565b613074565b5033600052601260205260ff604060002054161561306f565b60089150161538613068565b346104c75760203660031901126104c7576004356130e2816104b6565b6130ea61346f565b6001600160a01b038116156131025761083e906134c7565b60405162461bcd60e51b815260206004820152602660248201527f4f776e61626c653a206e6577206f776e657220697320746865207a65726f206160448201526564647265737360d01b6064820152608490fd5b346104c757613164366120b7565b60095490919061318a9061317e906001600160a01b031681565b6001600160a01b031690565b60405163188c824d60e11b8152602091908281600481855afa80156119a8576131db9160009161335f575b506004546131cb906001600160a01b031661317e565b331490811561334c575b50613cf2565b6001600160a01b0383166000908152601260205260409020613200906107a19061079a565b8015613344575b61321090613d53565b83158061331d575b61327f575b837f61630ccfd9f6a7f081736c73f365b44d23ac1af5e8d23c9eeba86f0cc3cfefbe610a6285613263846121458360018060a01b03166000526012602052604060002090565b60405193151584526001600160a01b0316929081906020820190565b604051633247c33f60e21b81526001600160a01b03841660048201529192908390839060249082905afa9283156119a8577f61630ccfd9f6a7f081736c73f365b44d23ac1af5e8d23c9eeba86f0cc3cfefbe93610a62936132ea926000926132f0575b505015613dcf565b9161321d565b61330f9250803d10613316575b6133078183610eda565b810190613dba565b38806132e2565b503d6132fd565b506001600160a01b038316600090815260126020526040902061333f9061079a565b613218565b508315613207565b6001600160a01b031633149050386131d5565b6133769150843d86116119a1576119928183610eda565b386131b5565b346104c75760203660031901126104c757600435613399816104b6565b60018060a01b03166000526006602052604060002060ff81541661064760018301549260028101549060038101546005600483015492015492604051968796879260a094919796959260c08501981515855260208501526040840152606083015260808201520152565b346104c75760203660031901126104c757600435613420816104b6565b61342861346f565b6001600160a01b03166000818152600660205260408120805460ff19169055907ffeb031b2d93541150a8571bc111b4dab4d98dfef15bcbe6e89653e385a5d980a8280a280f35b6004546001600160a01b0316330361348357565b606460405162461bcd60e51b815260206004820152602060248201527f4f776e61626c653a2063616c6c6572206973206e6f7420746865206f776e65726044820152fd5b600480546001600160a01b039283166001600160a01b0319821681179092559091167f8be0079c531659141344cd1fd0a4f28419497f9722a3daafe3b4186f6b6457e0600080a3565b6001600160a01b03811615613548576000918252602082815260408084206001600160a01b03909316845291905290205490565b5490565b60405162461bcd60e51b815260206004820152602a60248201527f455243313135353a2061646472657373207a65726f206973206e6f742061207660448201526930b634b21037bbb732b960b11b6064820152608490fd5b60405190610ca082018281106001600160401b03821117610eba5760405260648252610c80366020840137565b906135d782610f15565b6135e46040519182610eda565b82815280926135f5601f1991610f15565b0190602036910137565b634e487b7160e01b600052601160045260246000fd5b600019811461181a5760010190565b634e487b7160e01b600052603260045260246000fd5b805182101561364e5760209160051b010190565b613624565b91909180518351036136be5761366981516135cd565b9060005b81518110156136b757806136a861369761368a6136b2948661363a565b516001600160a01b031690565b6136a1838961363a565b5190613510565b612a02828661363a565b61366d565b5090925050565b60405162461bcd60e51b815260206004820152602960248201527f455243313135353a206163636f756e747320616e6420696473206c656e677468604482015268040dad2e6dac2e8c6d60bb1b6064820152608490fd5b1561371c57565b60405162461bcd60e51b815260206004820152601b60248201527f4f6e6c7920666163746f72792063616e20696e697469616c697a6500000000006044820152606490fd5b1561376857565b60405162461bcd60e51b8152602060048201526013602482015272105b1c9958591e481a5b9a5d1a585b1a5e9959606a1b6044820152606490fd5b156137aa57565b60405162461bcd60e51b815260206004820152601660248201527504d617820737570706c79206d757374206265203e20360541b6044820152606490fd5b60038110156122415760ff8019600f5416911617600f55565b601f811161380d575050565b600090600282527f405787fa12a823e0f2b7631cc41b3ba8828b3321ca811111fa75cd3aa3bb5ace906020601f850160051c83019410613868575b601f0160051c01915b82811061385d57505050565b818155600101613851565b9092508290613848565b601f811161387e575050565b60009060108252600080516020615dc7833981519152906020601f850160051c830194106138c7575b601f0160051c01915b8281106138bc57505050565b8181556001016138b0565b90925082906138a7565b90601f81116138df57505050565b600091825260208220906020601f850160051c8301941061391b575b601f0160051c01915b82811061391057505050565b818155600101613904565b90925082906138fb565b9081516001600160401b038111610eba5761394a816139456010546119ad565b613872565b602080601f8311600114613986575081929360009261397b575b50508160011b916000199060031b1c191617601055565b015190503880613964565b90601f198316946139a76010600052600080516020615dc783398151915290565b926000905b8782106139e45750508360019596106139cb575b505050811b01601055565b015160001960f88460031b161c191690553880806139c0565b806001859682949686015181550195019301906139ac565b15613a0357565b60405162461bcd60e51b815260206004820152602160248201527f52657665616c2074696d65206d75737420626520696e207468652066757475726044820152606560f81b6064820152608490fd5b947fc4b60435d5467f696f8dd268ffdd7fcff001c2937072bf65adb1ec5b426f8d70613b40611ddd98613b20613b819d97613afe610c3c9e98613af09b9e989b610c3c9d613ae060018060a01b03613acd817f0000000000000000000000000000000000000000000000000000000000000000163314613715565b6004546001600160a01b03161615613761565b613aeb8715156137a3565b613be8565b613af98c6134c7565b600755565b60018060a01b03166bffffffffffffffffffffffff60a01b6008541617600855565b600980546001600160a01b0319166001600160a01b038d16179055612ec7565b0390a2613b4c816137e8565b613b5581612237565b80613b9957505050611ddd60016014546001600160801b038116906001600160801b0319161717601455565b3060009081526012602052604090206104d990610c3c565b613ba4600292613925565b613bad81612237565b14613bce575b506001600160a01b0316600090815260126020526040902090565b613be290613bdd4282116139fc565b601155565b38613bb3565b9081516001600160401b038111610eba57613c0d81613c086002546119ad565b613801565b602080601f8311600114613c495750819293600092613c3e575b50508160011b916000199060031b1c191617600255565b015190503880613c27565b90601f19831694613c7c60026000527f405787fa12a823e0f2b7631cc41b3ba8828b3321ca811111fa75cd3aa3bb5ace90565b926000905b878210613cb9575050836001959610613ca0575b505050811b01600255565b015160001960f88460031b161c19169055388080613c95565b80600185968294968601518155019501930190613c81565b908160209103126104c75751610611816104b6565b6040513d6000823e3d90fd5b15613cf957565b60405162461bcd60e51b815260206004820152602c60248201527f4f6e6c79206f776e6572206f7220506f6f6c4465706c6f7965722063616e207360448201526b32ba1032bc32b6b83a34b7b760a11b6064820152608490fd5b15613d5a57565b60405162461bcd60e51b815260206004820152603260248201527f4164647265737320697320616c7265616479206578656d70742066726f6d20726044820152711bde585b1d1e48195b999bdc98d95b595b9d60721b6064820152608490fd5b908160209103126104c757516106118161064b565b15613dd657565b60405162461bcd60e51b815260206004820152602a60248201527f43616e6e6f742072656d6f7665206578656d7074696f6e20666f7220706f6f6c60448201526920636f6e74726163747360b01b6064820152608490fd5b15613e3557565b60405162461bcd60e51b815260206004820152601b60248201527f4d61726b6574706c61636520616c726561647920616c6c6f77656400000000006044820152606490fd5b15613e8157565b60405162461bcd60e51b815260206004820152603e60248201527f45524331313535633a204f7065726174696f6e206f6e6c7920616c6c6f77656460448201527f207468726f75676820617070726f766564206d61726b6574706c6163657300006064820152608490fd5b15613ef357565b60405162461bcd60e51b815260206004820152602e60248201527f455243313135353a2063616c6c6572206973206e6f7420746f6b656e206f776e60448201526d195c881bdc88185c1c1c9bdd995960921b6064820152608490fd5b6001600160a01b03808216969594939291903388148015614129575b613f7490613eec565b8216801597613f83891561414c565b613f8c856145b7565b98613f96876145b7565b9082156140cc575b614048575b506104d997985085613fc38461110e886000526000602052604060002090565b54613fd0828210156141a6565b03613fe98461110e886000526000602052604060002090565b556140028461110e876000526000602052604060002090565b61400d878254614222565b9055604080518681526020810188905233917fc3d58168c5ae7397731d063d5bbf3d657854427343f4c083240f7aacaa2d0f6291a4336144df565b969492909795939160005b8a518110156140b7578061406a6140b2928d61363a565b516140ac614078838d61363a565b5161408d836000526003602052604060002090565b5461409a828210156158aa565b03916000526003602052604060002090565b55613615565b614053565b509193959850919395506104d9968897613fa3565b98969492909795939160005b8b8051821015614119579061411491611161611159614103848f816140fc9161363a565b519461363a565b516000526003602052604060002090565b6140d8565b5050919395979092949698613f9e565b50600088815260016020908152604080832033845290915290205460ff16613f6b565b1561415357565b60405162461bcd60e51b815260206004820152602560248201527f455243313135353a207472616e7366657220746f20746865207a65726f206164604482015264647265737360d81b6064820152608490fd5b156141ad57565b60405162461bcd60e51b815260206004820152602a60248201527f455243313135353a20696e73756666696369656e742062616c616e636520666f60448201526939103a3930b739b332b960b11b6064820152608490fd5b90610e10820180921161181a57565b906001820180921161181a57565b9190820180921161181a57565b908160209103126104c757516106118161050e565b909260a0926106119594600180861b03168352600060208401526040830152606082015281608082015201906105c0565b919261061195949160a094600180871b0380921685521660208401526040830152606082015281608082015201906105c0565b60809060208152602860208201527f455243313135353a204552433131353552656365697665722072656a656374656040820152676420746f6b656e7360c01b60608201520190565b60009060033d116142fe57565b905060046000803e60005160e01c90565b600060443d1061061157604051600319913d83016004833e81516001600160401b03918282113d60248401111761436c57818401948551938411614374573d8501016020848701011161436c575061061192910160200190610eda565b949350505050565b50949350505050565b9390803b61438d575b5050505050565b6143b59360006020946040519687958694859363f23a6e6160e01b9b8c865260048601614244565b03926001600160a01b03165af1600091816144af575b5061448757505060016143dc6142f1565b6308c379a014614458575b6143f6575b3880808080614386565b60405162461bcd60e51b815260206004820152603460248201527f455243313135353a207472616e7366657220746f206e6f6e2d455243313135356044820152732932b1b2b4bb32b91034b6b83632b6b2b73a32b960611b6064820152608490fd5b61446061430f565b8061446b57506143e7565b60405162461bcd60e51b81529081906123ae9060048301610600565b6001600160e01b031916146143ec5760405162461bcd60e51b8152806123ae600482016142a8565b6144d191925060203d81116144d8575b6144c98183610eda565b81019061422f565b90386143cb565b503d6144bf565b9493919092813b6144f3575b505050505050565b600060209461451a6040519788968795869463f23a6e6160e01b9c8d875260048701614275565b03926001600160a01b03165af160009181614597575b5061456f57505060016145416142f1565b6308c379a01461455c575b6143f6575b3880808080806144eb565b61456461430f565b8061446b575061454c565b6001600160e01b031916146145515760405162461bcd60e51b8152806123ae600482016142a8565b6145b091925060203d81116144d8576144c98183610eda565b9038614530565b60405190604082018281106001600160401b03821117610eba576040526001825260208201602036823782511561364e575290565b156145f357565b60405162461bcd60e51b815260206004820152602860248201527f455243313135353a2069647320616e6420616d6f756e7473206c656e677468206044820152670dad2e6dac2e8c6d60c31b6064820152608490fd5b90916146606106119360408452604084019061137c565b91602081840391015261137c565b939061061195936146a0916146ae9460018060a01b03809216885216602087015260a0604087015260a086019061137c565b90848203606086015261137c565b9160808184039101526105c0565b9493919092813b6146cf57505050505050565b600060209461451a6040519788968795869463bc197c8160e01b9c8d87526004870161466e565b156146fd57565b60405162461bcd60e51b815260206004820152602160248201527f4d617820737570706c79206d7573742062652067726561746572207468616e206044820152600360fc1b6064820152608490fd5b1561475357565b60405162461bcd60e51b815260206004820152601760248201527f546f6b656e20494420646f6573206e6f742065786973740000000000000000006044820152606490fd5b1561479f57565b60405162461bcd60e51b815260206004820152601e60248201527f436f6c6c656374696f6e20697320616c72656164792072657665616c656400006044820152606490fd5b156147eb57565b60405162461bcd60e51b815260206004820152601e60248201527f52657665616c2074696d6520686173206e6f74207965742070617373656400006044820152606490fd5b6001806014541615614861575060005260166020526148526040600020611aa3565b805161061157506106116119e7565b90506040519081600060105492614877846119ad565b808452938181169081156148e8575060011461489b575b5061061192500382610eda565b601060009081529150600080516020615dc78339815191525b8483106148cd575061061193505081016020013861488e565b819350908160209254838589010152019101909184926148b4565b90506020925061061194915060ff191682840152151560051b8201013861488e565b1561491157565b60405162461bcd60e51b815260206004820152602860248201527f4f6e6c7920506f6f6c4465706c6f7965722063616e2063616c6c207468697320604482015267333ab731ba34b7b760c11b6064820152608490fd5b1561496e57565b60405162461bcd60e51b815260206004820152602d60248201527f4e6f20737570706c7920617661696c61626c6520746f206d696e7420666f722060448201526c1d1a1a5cc81d1bdad95b881251609a1b6064820152608490fd5b60405190602082018281106001600160401b03821117610eba5760405260008252565b6002600554146149fd576002600555565b60405162461bcd60e51b815260206004820152601f60248201527f5265656e7472616e637947756172643a207265656e7472616e742063616c6c006044820152606490fd5b936001600160a01b0385169391929091908415614b0b57614a62846145b7565b93614a6c826145b7565b9660005b8651811015614a9d5780614a87614a98928b61363a565b51611161611159614103848c61363a565b614a70565b50919396509193506104d994614ac18261110e856000526000602052604060002090565b614acc858254614222565b9055604080518481526020810186905260009133917fc3d58168c5ae7397731d063d5bbf3d657854427343f4c083240f7aacaa2d0f629190a43361437d565b60405162461bcd60e51b815260206004820152602160248201527f455243313135353a206d696e7420746f20746865207a65726f206164647265736044820152607360f81b6064820152608490fd5b15614b6157565b60405162461bcd60e51b815260206004820152603260248201527f43726561746f7220616c6c6f636174696f6e20616c7265616479206465636c616044820152713932b2103337b9103a3434b9903a37b5b2b760711b6064820152608490fd5b15614bc857565b60405162461bcd60e51b8152602060048201526024808201527f43726561746f7220616c6c6f636174696f6e2063616e6e6f74206578636565646044820152632032302560e01b6064820152608490fd5b8181029291811591840414171561181a57565b8115614c36570490565b634e487b7160e01b600052601260045260246000fd5b15614c5357565b60405162461bcd60e51b815260206004820152602960248201527f43726561746f7220616c6c6f636174696f6e206d757374206265206465636c616044820152681c995908199a5c9cdd60ba1b6064820152608490fd5b15614cb157565b60405162461bcd60e51b8152602060048201526024808201527f50657263656e74616765206d757374206265206265747765656e203120616e646044820152630203130360e41b6064820152608490fd5b60001981019190821161181a57565b9190820391821161181a57565b15614d2557565b60405162461bcd60e51b815260206004820152602960248201527f4e6f2072656d61696e696e672063726561746f7220616c6c6f636174696f6e20604482015268746f2072656475636560b81b6064820152608490fd5b15614d8357565b60405162461bcd60e51b815260206004820152602a60248201527f526564756374696f6e20616d6f756e74206d7573742062652067726561746572604482015269207468616e207a65726f60b01b6064820152608490fd5b8115614e7f57614df590600052601e602052604060002090565b90600182015482546002840154614e15614e0f8285614c19565b83614222565b4210614e28575050505060036000910155565b90614e429291814210600014614e6c575050600090614d11565b908115614e615781610bc6610bc1600394614e5c94614222565b910155565b505060036000910155565b610bc6614e799242614d11565b90614d11565b60009150614e99600391600052601e602052604060002090565b0155565b15614ea457565b60405162461bcd60e51b815260206004820152602960248201527f56657374696e6720616c726561647920636f6e6669677572656420666f7220746044820152683434b9903a37b5b2b760b91b6064820152608490fd5b15614f0257565b60405162461bcd60e51b8152602060048201526015602482015274151bdad95b881b9bdd081a5b9a5d1a585b1a5e9959605a1b6044820152606490fd5b15614f4657565b60405162461bcd60e51b815260206004820152602360248201527f4d696e203820756e6c6f636b7320666f7220616c6c6f636174696f6e203e203260448201526203030360ec1b6064820152608490fd5b15614f9e57565b60405162461bcd60e51b815260206004820152602660248201527f4d696e203820756e6c6f636b7320666f7220616c6c6f636174696f6e203130306044820152650302d323030360d41b6064820152608490fd5b15614ff957565b60405162461bcd60e51b815260206004820152602560248201527f4d696e203420756e6c6f636b7320666f7220616c6c6f636174696f6e2035303060448201526402d313030360dc1b6064820152608490fd5b1561505357565b60405162461bcd60e51b815260206004820152602260248201527f4d696e203220756e6c6f636b7320666f7220616c6c6f636174696f6e203c2035604482015261030360f41b6064820152608490fd5b156150aa57565b60405162461bcd60e51b815260206004820152603060248201527f436c696666206d757374206e6f74206265206c657373207468616e203120686f60448201526f3ab910333937b69031b932b0ba34b7b760811b6064820152608490fd5b1561510f57565b60405162461bcd60e51b815260206004820152603560248201527f4475726174696f6e206265747765656e20756e6c6f636b73206d757374206e6f6044820152743a103132903632b9b9903a3430b71018903437bab960591b6064820152608490fd5b80600052601a60205260ff60406000205416156152335761519d81600052601e602052604060002090565b6040516151a981610ebf565b60606003835493848452600181015460208501526002810154604085015201549101524210615233576151e681600052601d602052604060002090565b546151f45761061190615239565b6151fd81615239565b9061521281600052601c602052604060002090565b5482101561522f576135449150600052601c602052604060002090565b5090565b50600090565b80600052601e602052604060002060405161525381610ebf565b61529a61529583549384845261528d6001820154956020860196875260606003600285015494604089019586520154960195865242614d11565b905190614c2c565b614214565b9151808311615300575b82036152c0575050613544906000526017602052604060002090565b906152cb9151614c19565b906152e0816000526017602052604060002090565b5482116152eb575090565b61354491506000526017602052604060002090565b9150816152a4565b6000818152601a60205260ff604082205416156153515761532882615172565b918152601b6020526040812054908183111561534b5750810390811161181a5790565b91505090565b905090565b1561535d57565b60405162461bcd60e51b815260206004820152602560248201527f56657374696e67206e6f7420636f6e6669677572656420666f722074686973206044820152643a37b5b2b760d91b6064820152608490fd5b156153b757565b60405162461bcd60e51b815260206004820152601a60248201527f537570706c79206e6f742073657420666f7220746869732049440000000000006044820152606490fd5b1561540357565b60405162461bcd60e51b815260206004820152601460248201527305175616e74697479206d757374206265203e20360641b6044820152606490fd5b1561544657565b60405162461bcd60e51b815260206004820152601260248201527145786365656473206d617820737570706c7960701b6044820152606490fd5b1561548757565b60405162461bcd60e51b815260206004820152602560248201527f4578636565647320617661696c61626c6520756e6c6f636b656420616c6c6f6360448201526430ba34b7b760d91b6064820152608490fd5b156154e157565b60405162461bcd60e51b815260206004820152601a60248201527f457863656564732063726561746f7220616c6c6f636174696f6e0000000000006044820152606490fd5b1561552d57565b60405162461bcd60e51b815260206004820152603960248201527f4e65772063726561746f7220616c6c6f636174696f6e2063616e6e6f7420626560448201527f206c657373207468616e20636c61696d656420616d6f756e74000000000000006064820152608490fd5b1561559f57565b60405162461bcd60e51b815260206004820152602760248201527f4e6f20737570706c79206c65667420746f2072656475636520666f722074686960448201526639903a37b5b2b760c91b6064820152608490fd5b156155fb57565b60405162461bcd60e51b815260206004820152603360248201527f4e6f20756e616c6c6f636174656420737570706c79206c65667420746f207265604482015272323ab1b2903337b9103a3434b9903a37b5b2b760691b6064820152608490fd5b1561566357565b60405162461bcd60e51b815260206004820152603c60248201527f4e6577206d617820737570706c792063616e6e6f74206265206c65737320746860448201527f616e206d696e746564202b20616c6c6f636174656420737570706c79000000006064820152608490fd5b156156d557565b60405162461bcd60e51b8152602060048201526014602482015273496e76616c696420737570706c7920737461746560601b6044820152606490fd5b6001600160a01b038116929083156157bd576001600160a01b0381166000908152600c60209081526040808320859055600a9091529020839161575791612b2490610c3c565b5561576c82600052600d602052604060002090565b91825482810180911161181a577f0605df730658c3d51d1de10eb38841dbacde4d3bd2e20e9cb4a23813065644b493556157b86040519283928360209093929193604081019481520152565b0390a2565b60405162461bcd60e51b8152602060048201526014602482015273496e76616c696420706f6f6c206164647265737360601b6044820152606490fd5b1561580057565b60405162461bcd60e51b81526020600482015260146024820152732837b7b61034b9903737ba10309036b4b73a32b960611b6044820152606490fd5b908160209103126104c7575160088110156104c75790565b6008111561224157565b1561586557565b60405162461bcd60e51b815260206004820152601860248201527f506f6f6c206e6f7420696e206661696c656420737461746500000000000000006044820152606490fd5b156158b157565b60405162461bcd60e51b815260206004820152602860248201527f455243313135353a206275726e20616d6f756e74206578636565647320746f74604482015267616c537570706c7960c01b6064820152608490fd5b919392916001600160a01b03919082161561595b575b161561592857509050565b60005b83518110156159555780615942615950928661363a565b516140ac614078838661363a565b61592b565b50509050565b929060005b855181101561598d5780615977615988928661363a565b51611161611159614103848b61363a565b615960565b50909261591d565b907f088cab2409ca33ba4d1407cb6386b97a16192c0417c40ace27682534b193a0f7906159cc83600052601e602052604060002090565b908154804210600014615a54575060018201545b80615a28575050600060038201555b80546157b86001830154926003600282015491015490604051948594859094939260609260808301968352602083015260408201520152565b610bc6610bc182610bbc615a4a956126058a6000526017602052604060002090565b60038201556159ef565b615295615a64615a6f9242614d11565b600285015490614c2c565b600183015490818110615a8557505060006159e0565b615a8e91614d11565b6159e0565b15615a9a57565b60405162461bcd60e51b815260206004820152602160248201527f506f6f6c206c696d6974206d7573742062652067726561746572207468616e206044820152600360fc1b6064820152608490fd5b15615af057565b60405162461bcd60e51b815260206004820152602360248201527f57696e6e6572206c696d6974206d75737420626520677265617465722074686160448201526206e20360ec1b6064820152608490fd5b15615b4857565b60405162461bcd60e51b815260206004820152601460248201527312d3d308185b1c9958591e48185c1c1c9bdd995960621b6044820152606490fd5b9060a0600591615ba381511515859060ff801983541691151516179055565b602081015160018501556040810151600285015560608101516003850155608081015160048501550151910155565b15615bd957565b60405162461bcd60e51b815260206004820152601760248201527f4b4f4c20706f6f6c206c696d69742065786365656465640000000000000000006044820152606490fd5b15615c2557565b60405162461bcd60e51b815260206004820152601960248201527f4b4f4c2077696e6e6572206c696d6974206578636565646564000000000000006044820152606490fd5b9060ff615c898360018060a01b03166000526006602052604060002090565b541615615d8e576001600160a01b03821660009081526006602052604090206004810154600190910154615cbd9110615bd2565b615d0c615ce9826005615ce28660018060a01b03166000526006602052604060002090565b0154614222565b6001600160a01b0384166000908152600660205260409020600301541015615c1e565b6001600160a01b0382166000908152600660205260409020600401615d318154613615565b90556001600160a01b0382166000908152600660205260409020615d5a90600501918254614222565b905533906001600160a01b03167f5b7945a09273a36deae169b61c3f2f6e50c1a2030374353d76346822ae48f674600080a3565b60405162461bcd60e51b815260206004820152601060248201526f12d3d3081b9bdd08185c1c1c9bdd995960821b6044820152606490fdfe1b6847dc741a1b0cd08d278845f9d819d87b734759afb55fe2de5cb82a9ae672a2646970667358221220962bd4d96b47b72c42f6bb102e46a66baf48cbf80124478915310014d8ec466764736f6c63430008130033",
  "linkReferences": {},
  "deployedLinkReferences": {}
}