{
  "_format": "hh-sol-artifact-1",
  "contractName": "ERC1155Prize",
  "sourceName": "contracts/ERC1155Prize.sol",
  "abi": [
    {
      "inputs": [
        {
          "internalType": "address",
          "name": "_factory",
          "type": "address"
        }
      ],
      "stateMutability": "nonpayable",
      "type": "constructor"
    },
    {
      "inputs": [],
      "name": "AlreadyInitialized",
      "type": "error"
    },
    {
      "inputs": [],
      "name": "ExceedsMaxSupply",
      "type": "error"
    },
    {
      "inputs": [],
      "name": "InvalidMaxSupply",
      "type": "error"
    },
    {
      "inputs": [],
      "name": "InvalidRevealTime",
      "type": "error"
    },
    {
      "inputs": [],
      "name": "OnlyFactory",
      "type": "error"
    },
    {
      "inputs": [],
      "name": "SupplyNotSet",
      "type": "error"
    },
    {
      "anonymous": false,
      "inputs": [
        {
          "indexed": true,
          "internalType": "address",
          "name": "account",
          "type": "address"
        },
        {
          "indexed": true,
          "internalType": "address",
          "name": "operator",
          "type": "address"
        },
        {
          "indexed": false,
          "internalType": "bool",
          "name": "approved",
          "type": "bool"
        }
      ],
      "name": "ApprovalForAll",
      "type": "event"
    },
    {
      "anonymous": false,
      "inputs": [
        {
          "indexed": false,
          "internalType": "string",
          "name": "newBaseURI",
          "type": "string"
        }
      ],
      "name": "BaseURIUpdated",
      "type": "event"
    },
    {
      "anonymous": false,
      "inputs": [],
      "name": "CollectionRevealed",
      "type": "event"
    },
    {
      "anonymous": false,
      "inputs": [
        {
          "indexed": true,
          "internalType": "address",
          "name": "minter",
          "type": "address"
        },
        {
          "indexed": true,
          "internalType": "uint256",
          "name": "tokenId",
          "type": "uint256"
        },
        {
          "indexed": false,
          "internalType": "uint256",
          "name": "amount",
          "type": "uint256"
        }
      ],
      "name": "CreatorAllocationClaimed",
      "type": "event"
    },
    {
      "anonymous": false,
      "inputs": [
        {
          "indexed": true,
          "internalType": "uint256",
          "name": "tokenId",
          "type": "uint256"
        },
        {
          "indexed": false,
          "internalType": "uint256",
          "name": "allocation",
          "type": "uint256"
        }
      ],
      "name": "CreatorAllocationDeclared",
      "type": "event"
    },
    {
      "anonymous": false,
      "inputs": [
        {
          "indexed": true,
          "internalType": "uint256",
          "name": "tokenId",
          "type": "uint256"
        },
        {
          "indexed": false,
          "internalType": "uint256",
          "name": "newAllocation",
          "type": "uint256"
        },
        {
          "indexed": false,
          "internalType": "uint256",
          "name": "reductionAmount",
          "type": "uint256"
        }
      ],
      "name": "CreatorAllocationReduced",
      "type": "event"
    },
    {
      "anonymous": false,
      "inputs": [
        {
          "indexed": true,
          "internalType": "address",
          "name": "kol",
          "type": "address"
        },
        {
          "indexed": false,
          "internalType": "uint256",
          "name": "poolLimit",
          "type": "uint256"
        },
        {
          "indexed": false,
          "internalType": "uint256",
          "name": "enforcedSlotFee",
          "type": "uint256"
        },
        {
          "indexed": false,
          "internalType": "uint256",
          "name": "winnerLimit",
          "type": "uint256"
        }
      ],
      "name": "KOLApproved",
      "type": "event"
    },
    {
      "anonymous": false,
      "inputs": [
        {
          "indexed": true,
          "internalType": "address",
          "name": "kol",
          "type": "address"
        },
        {
          "indexed": true,
          "internalType": "address",
          "name": "pool",
          "type": "address"
        }
      ],
      "name": "KOLPoolCreated",
      "type": "event"
    },
    {
      "anonymous": false,
      "inputs": [
        {
          "indexed": true,
          "internalType": "address",
          "name": "kol",
          "type": "address"
        }
      ],
      "name": "KOLRevoked",
      "type": "event"
    },
    {
      "anonymous": false,
      "inputs": [
        {
          "indexed": true,
          "internalType": "address",
          "name": "pool",
          "type": "address"
        },
        {
          "indexed": false,
          "internalType": "uint256",
          "name": "tokenId",
          "type": "uint256"
        },
        {
          "indexed": false,
          "internalType": "uint256",
          "name": "allocation",
          "type": "uint256"
        }
      ],
      "name": "MinterAllocationRestored",
      "type": "event"
    },
    {
      "anonymous": false,
      "inputs": [
        {
          "indexed": true,
          "internalType": "address",
          "name": "pool",
          "type": "address"
        },
        {
          "indexed": false,
          "internalType": "uint256",
          "name": "tokenId",
          "type": "uint256"
        },
        {
          "indexed": false,
          "internalType": "uint256",
          "name": "allocation",
          "type": "uint256"
        }
      ],
      "name": "MinterAndAllocationSet",
      "type": "event"
    },
    {
      "anonymous": false,
      "inputs": [
        {
          "indexed": true,
          "internalType": "uint256",
          "name": "tokenId",
          "type": "uint256"
        },
        {
          "indexed": false,
          "internalType": "uint256",
          "name": "maxSupply",
          "type": "uint256"
        }
      ],
      "name": "NewTokenAdded",
      "type": "event"
    },
    {
      "anonymous": false,
      "inputs": [
        {
          "indexed": true,
          "internalType": "address",
          "name": "previousOwner",
          "type": "address"
        },
        {
          "indexed": true,
          "internalType": "address",
          "name": "newOwner",
          "type": "address"
        }
      ],
      "name": "OwnershipTransferred",
      "type": "event"
    },
    {
      "anonymous": false,
      "inputs": [
        {
          "indexed": true,
          "internalType": "address",
          "name": "minter",
          "type": "address"
        },
        {
          "indexed": true,
          "internalType": "uint256",
          "name": "tokenId",
          "type": "uint256"
        },
        {
          "indexed": false,
          "internalType": "uint256",
          "name": "amount",
          "type": "uint256"
        }
      ],
      "name": "PrizeMinted",
      "type": "event"
    },
    {
      "anonymous": false,
      "inputs": [
        {
          "indexed": true,
          "internalType": "uint256",
          "name": "tokenId",
          "type": "uint256"
        },
        {
          "indexed": false,
          "internalType": "uint256",
          "name": "newMaxSupply",
          "type": "uint256"
        },
        {
          "indexed": false,
          "internalType": "uint256",
          "name": "newCreatorAllocation",
          "type": "uint256"
        }
      ],
      "name": "SupplyReduced",
      "type": "event"
    },
    {
      "anonymous": false,
      "inputs": [
        {
          "indexed": true,
          "internalType": "address",
          "name": "operator",
          "type": "address"
        },
        {
          "indexed": true,
          "internalType": "address",
          "name": "from",
          "type": "address"
        },
        {
          "indexed": true,
          "internalType": "address",
          "name": "to",
          "type": "address"
        },
        {
          "indexed": false,
          "internalType": "uint256[]",
          "name": "ids",
          "type": "uint256[]"
        },
        {
          "indexed": false,
          "internalType": "uint256[]",
          "name": "values",
          "type": "uint256[]"
        }
      ],
      "name": "TransferBatch",
      "type": "event"
    },
    {
      "anonymous": false,
      "inputs": [
        {
          "indexed": true,
          "internalType": "address",
          "name": "operator",
          "type": "address"
        },
        {
          "indexed": true,
          "internalType": "address",
          "name": "from",
          "type": "address"
        },
        {
          "indexed": true,
          "internalType": "address",
          "name": "to",
          "type": "address"
        },
        {
          "indexed": false,
          "internalType": "uint256",
          "name": "id",
          "type": "uint256"
        },
        {
          "indexed": false,
          "internalType": "uint256",
          "name": "value",
          "type": "uint256"
        }
      ],
      "name": "TransferSingle",
      "type": "event"
    },
    {
      "anonymous": false,
      "inputs": [
        {
          "indexed": false,
          "internalType": "string",
          "name": "value",
          "type": "string"
        },
        {
          "indexed": true,
          "internalType": "uint256",
          "name": "id",
          "type": "uint256"
        }
      ],
      "name": "URI",
      "type": "event"
    },
    {
      "anonymous": false,
      "inputs": [
        {
          "indexed": true,
          "internalType": "uint256",
          "name": "tokenId",
          "type": "uint256"
        },
        {
          "indexed": false,
          "internalType": "string",
          "name": "newURI",
          "type": "string"
        }
      ],
      "name": "URIUpdated",
      "type": "event"
    },
    {
      "anonymous": false,
      "inputs": [
        {
          "indexed": true,
          "internalType": "uint256",
          "name": "tokenId",
          "type": "uint256"
        },
        {
          "indexed": false,
          "internalType": "uint256",
          "name": "cliffEnd",
          "type": "uint256"
        },
        {
          "indexed": false,
          "internalType": "uint256",
          "name": "numberOfUnlocks",
          "type": "uint256"
        },
        {
          "indexed": false,
          "internalType": "uint256",
          "name": "durationBetweenUnlocks",
          "type": "uint256"
        },
        {
          "indexed": false,
          "internalType": "uint256",
          "name": "amountPerUnlock",
          "type": "uint256"
        }
      ],
      "name": "VestingConfiguredForToken",
      "type": "event"
    },
    {
      "inputs": [
        {
          "internalType": "address",
          "name": "",
          "type": "address"
        }
      ],
      "name": "allocatedSupply",
      "outputs": [
        {
          "internalType": "uint256",
          "name": "",
          "type": "uint256"
        }
      ],
      "stateMutability": "view",
      "type": "function"
    },
    {
      "inputs": [
        {
          "internalType": "address",
          "name": "_kol",
          "type": "address"
        },
        {
          "internalType": "uint256",
          "name": "_poolLimit",
          "type": "uint256"
        },
        {
          "internalType": "uint256",
          "name": "_enforcedSlotFee",
          "type": "uint256"
        },
        {
          "internalType": "uint256",
          "name": "_winnerLimit",
          "type": "uint256"
        }
      ],
      "name": "approveKOL",
      "outputs": [],
      "stateMutability": "nonpayable",
      "type": "function"
    },
    {
      "inputs": [
        {
          "internalType": "uint256",
          "name": "id",
          "type": "uint256"
        }
      ],
      "name": "availableSupply",
      "outputs": [
        {
          "internalType": "uint256",
          "name": "",
          "type": "uint256"
        }
      ],
      "stateMutability": "view",
      "type": "function"
    },
    {
      "inputs": [
        {
          "internalType": "address",
          "name": "account",
          "type": "address"
        },
        {
          "internalType": "uint256",
          "name": "id",
          "type": "uint256"
        }
      ],
      "name": "balanceOf",
      "outputs": [
        {
          "internalType": "uint256",
          "name": "",
          "type": "uint256"
        }
      ],
      "stateMutability": "view",
      "type": "function"
    },
    {
      "inputs": [
        {
          "internalType": "address[]",
          "name": "accounts",
          "type": "address[]"
        },
        {
          "internalType": "uint256[]",
          "name": "ids",
          "type": "uint256[]"
        }
      ],
      "name": "balanceOfBatch",
      "outputs": [
        {
          "internalType": "uint256[]",
          "name": "",
          "type": "uint256[]"
        }
      ],
      "stateMutability": "view",
      "type": "function"
    },
    {
      "inputs": [
        {
          "internalType": "uint256",
          "name": "tokenId",
          "type": "uint256"
        },
        {
          "internalType": "uint256",
          "name": "cliffEnd",
          "type": "uint256"
        },
        {
          "internalType": "uint256",
          "name": "numberOfUnlocks",
          "type": "uint256"
        },
        {
          "internalType": "uint256",
          "name": "durationBetweenUnlocks",
          "type": "uint256"
        }
      ],
      "name": "configureCreatorVesting",
      "outputs": [],
      "stateMutability": "nonpayable",
      "type": "function"
    },
    {
      "inputs": [
        {
          "internalType": "uint256",
          "name": "_tokenId",
          "type": "uint256"
        },
        {
          "internalType": "uint256",
          "name": "_maxSupply",
          "type": "uint256"
        }
      ],
      "name": "createNewToken",
      "outputs": [],
      "stateMutability": "nonpayable",
      "type": "function"
    },
    {
      "inputs": [
        {
          "internalType": "uint256",
          "name": "",
          "type": "uint256"
        }
      ],
      "name": "creatorAllocation",
      "outputs": [
        {
          "internalType": "uint256",
          "name": "",
          "type": "uint256"
        }
      ],
      "stateMutability": "view",
      "type": "function"
    },
    {
      "inputs": [
        {
          "internalType": "uint256",
          "name": "",
          "type": "uint256"
        }
      ],
      "name": "creatorAllocationDeclared",
      "outputs": [
        {
          "internalType": "bool",
          "name": "",
          "type": "bool"
        }
      ],
      "stateMutability": "view",
      "type": "function"
    },
    {
      "inputs": [
        {
          "internalType": "uint256",
          "name": "",
          "type": "uint256"
        }
      ],
      "name": "creatorClaimedCount",
      "outputs": [
        {
          "internalType": "uint256",
          "name": "",
          "type": "uint256"
        }
      ],
      "stateMutability": "view",
      "type": "function"
    },
    {
      "inputs": [
        {
          "internalType": "address",
          "name": "to",
          "type": "address"
        },
        {
          "internalType": "uint256",
          "name": "id",
          "type": "uint256"
        },
        {
          "internalType": "uint256",
          "name": "quantity",
          "type": "uint256"
        }
      ],
      "name": "creatorMint",
      "outputs": [],
      "stateMutability": "nonpayable",
      "type": "function"
    },
    {
      "inputs": [
        {
          "internalType": "uint256",
          "name": "tokenId",
          "type": "uint256"
        },
        {
          "internalType": "uint256",
          "name": "_percentage",
          "type": "uint256"
        }
      ],
      "name": "cutSupply",
      "outputs": [],
      "stateMutability": "nonpayable",
      "type": "function"
    },
    {
      "inputs": [
        {
          "internalType": "uint256",
          "name": "tokenId",
          "type": "uint256"
        },
        {
          "internalType": "uint256",
          "name": "_percentage",
          "type": "uint256"
        }
      ],
      "name": "declareCreatorAllocation",
      "outputs": [],
      "stateMutability": "nonpayable",
      "type": "function"
    },
    {
      "inputs": [
        {
          "internalType": "uint256",
          "name": "id",
          "type": "uint256"
        }
      ],
      "name": "exists",
      "outputs": [
        {
          "internalType": "bool",
          "name": "",
          "type": "bool"
        }
      ],
      "stateMutability": "view",
      "type": "function"
    },
    {
      "inputs": [],
      "name": "getAllTokenIds",
      "outputs": [
        {
          "internalType": "uint256[]",
          "name": "",
          "type": "uint256[]"
        }
      ],
      "stateMutability": "view",
      "type": "function"
    },
    {
      "inputs": [
        {
          "internalType": "uint256",
          "name": "tokenId",
          "type": "uint256"
        }
      ],
      "name": "getAvailableCreatorMint",
      "outputs": [
        {
          "internalType": "uint256",
          "name": "",
          "type": "uint256"
        }
      ],
      "stateMutability": "view",
      "type": "function"
    },
    {
      "inputs": [],
      "name": "getCollectionStats",
      "outputs": [
        {
          "internalType": "uint256",
          "name": "totalTokenTypes",
          "type": "uint256"
        },
        {
          "internalType": "uint256",
          "name": "totalTokensMinted",
          "type": "uint256"
        }
      ],
      "stateMutability": "view",
      "type": "function"
    },
    {
      "inputs": [],
      "name": "getDropURI",
      "outputs": [
        {
          "internalType": "string",
          "name": "",
          "type": "string"
        }
      ],
      "stateMutability": "view",
      "type": "function"
    },
    {
      "inputs": [
        {
          "internalType": "address",
          "name": "_kol",
          "type": "address"
        }
      ],
      "name": "getKOLApprovalDetails",
      "outputs": [
        {
          "internalType": "bool",
          "name": "approved",
          "type": "bool"
        },
        {
          "internalType": "uint256",
          "name": "poolLimit",
          "type": "uint256"
        },
        {
          "internalType": "uint256",
          "name": "enforcedSlotFee",
          "type": "uint256"
        },
        {
          "internalType": "uint256",
          "name": "winnerLimit",
          "type": "uint256"
        },
        {
          "internalType": "uint256",
          "name": "poolCount",
          "type": "uint256"
        },
        {
          "internalType": "uint256",
          "name": "winnerCount",
          "type": "uint256"
        }
      ],
      "stateMutability": "view",
      "type": "function"
    },
    {
      "inputs": [
        {
          "internalType": "uint256",
          "name": "tokenId",
          "type": "uint256"
        }
      ],
      "name": "getTokenInfo",
      "outputs": [
        {
          "internalType": "uint256",
          "name": "maxSupply_",
          "type": "uint256"
        },
        {
          "internalType": "uint256",
          "name": "currentSupply_",
          "type": "uint256"
        },
        {
          "internalType": "bool",
          "name": "exists_",
          "type": "bool"
        }
      ],
      "stateMutability": "view",
      "type": "function"
    },
    {
      "inputs": [
        {
          "internalType": "uint256",
          "name": "tokenId",
          "type": "uint256"
        }
      ],
      "name": "getUnlockedCreatorAllocation",
      "outputs": [
        {
          "internalType": "uint256",
          "name": "",
          "type": "uint256"
        }
      ],
      "stateMutability": "view",
      "type": "function"
    },
    {
      "inputs": [],
      "name": "getUnrevealedURI",
      "outputs": [
        {
          "internalType": "string",
          "name": "",
          "type": "string"
        }
      ],
      "stateMutability": "view",
      "type": "function"
    },
    {
      "inputs": [
        {
          "internalType": "address",
          "name": "_kol",
          "type": "address"
        },
        {
          "internalType": "uint256",
          "name": "_winnersCount",
          "type": "uint256"
        }
      ],
      "name": "incrementKOLApprovedCounts",
      "outputs": [],
      "stateMutability": "nonpayable",
      "type": "function"
    },
    {
      "inputs": [
        {
          "internalType": "uint256",
          "name": "_prizeTokenId",
          "type": "uint256"
        },
        {
          "components": [
            {
              "internalType": "address",
              "name": "initialOwner",
              "type": "address"
            },
            {
              "internalType": "address",
              "name": "protocolManager",
              "type": "address"
            },
            {
              "internalType": "address",
              "name": "royaltyRecipient",
              "type": "address"
            },
            {
              "internalType": "uint256",
              "name": "royaltyPercentage",
              "type": "uint256"
            },
            {
              "internalType": "uint256",
              "name": "maxSupply",
              "type": "uint256"
            },
            {
              "internalType": "enum PrizeTypes.RevealType",
              "name": "revealType",
              "type": "uint8"
            },
            {
              "internalType": "uint256",
              "name": "revealTime",
              "type": "uint256"
            },
            {
              "internalType": "string",
              "name": "baseURI",
              "type": "string"
            },
            {
              "internalType": "string",
              "name": "unrevealedURI",
              "type": "string"
            },
            {
              "internalType": "string",
              "name": "dropURI",
              "type": "string"
            }
          ],
          "internalType": "struct ERC1155Prize.InitializationData",
          "name": "data",
          "type": "tuple"
        }
      ],
      "name": "initialize",
      "outputs": [],
      "stateMutability": "nonpayable",
      "type": "function"
    },
    {
      "inputs": [
        {
          "internalType": "address",
          "name": "account",
          "type": "address"
        },
        {
          "internalType": "address",
          "name": "operator",
          "type": "address"
        }
      ],
      "name": "isApprovedForAll",
      "outputs": [
        {
          "internalType": "bool",
          "name": "",
          "type": "bool"
        }
      ],
      "stateMutability": "view",
      "type": "function"
    },
    {
      "inputs": [],
      "name": "isRevealed",
      "outputs": [
        {
          "internalType": "bool",
          "name": "",
          "type": "bool"
        }
      ],
      "stateMutability": "view",
      "type": "function"
    },
    {
      "inputs": [
        {
          "internalType": "address",
          "name": "",
          "type": "address"
        }
      ],
      "name": "kolApprovals",
      "outputs": [
        {
          "internalType": "bool",
          "name": "approved",
          "type": "bool"
        },
        {
          "internalType": "uint256",
          "name": "poolLimit",
          "type": "uint256"
        },
        {
          "internalType": "uint256",
          "name": "enforcedSlotFee",
          "type": "uint256"
        },
        {
          "internalType": "uint256",
          "name": "winnerLimit",
          "type": "uint256"
        },
        {
          "internalType": "uint256",
          "name": "poolCount",
          "type": "uint256"
        },
        {
          "internalType": "uint256",
          "name": "winnerCount",
          "type": "uint256"
        }
      ],
      "stateMutability": "view",
      "type": "function"
    },
    {
      "inputs": [
        {
          "internalType": "uint256",
          "name": "",
          "type": "uint256"
        }
      ],
      "name": "maxSupply",
      "outputs": [
        {
          "internalType": "uint256",
          "name": "",
          "type": "uint256"
        }
      ],
      "stateMutability": "view",
      "type": "function"
    },
    {
      "inputs": [
        {
          "internalType": "address",
          "name": "to",
          "type": "address"
        },
        {
          "internalType": "uint256",
          "name": "id",
          "type": "uint256"
        },
        {
          "internalType": "uint256",
          "name": "amount",
          "type": "uint256"
        }
      ],
      "name": "mint",
      "outputs": [],
      "stateMutability": "nonpayable",
      "type": "function"
    },
    {
      "inputs": [
        {
          "internalType": "address",
          "name": "",
          "type": "address"
        },
        {
          "internalType": "address",
          "name": "",
          "type": "address"
        },
        {
          "internalType": "uint256[]",
          "name": "",
          "type": "uint256[]"
        },
        {
          "internalType": "uint256[]",
          "name": "",
          "type": "uint256[]"
        },
        {
          "internalType": "bytes",
          "name": "",
          "type": "bytes"
        }
      ],
      "name": "onERC1155BatchReceived",
      "outputs": [
        {
          "internalType": "bytes4",
          "name": "",
          "type": "bytes4"
        }
      ],
      "stateMutability": "pure",
      "type": "function"
    },
    {
      "inputs": [
        {
          "internalType": "address",
          "name": "",
          "type": "address"
        },
        {
          "internalType": "address",
          "name": "",
          "type": "address"
        },
        {
          "internalType": "uint256",
          "name": "",
          "type": "uint256"
        },
        {
          "internalType": "uint256",
          "name": "",
          "type": "uint256"
        },
        {
          "internalType": "bytes",
          "name": "",
          "type": "bytes"
        }
      ],
      "name": "onERC1155Received",
      "outputs": [
        {
          "internalType": "bytes4",
          "name": "",
          "type": "bytes4"
        }
      ],
      "stateMutability": "pure",
      "type": "function"
    },
    {
      "inputs": [],
      "name": "owner",
      "outputs": [
        {
          "internalType": "address",
          "name": "",
          "type": "address"
        }
      ],
      "stateMutability": "view",
      "type": "function"
    },
    {
      "inputs": [
        {
          "internalType": "address",
          "name": "",
          "type": "address"
        }
      ],
      "name": "poolTokenId",
      "outputs": [
        {
          "internalType": "uint256",
          "name": "",
          "type": "uint256"
        }
      ],
      "stateMutability": "view",
      "type": "function"
    },
    {
      "inputs": [],
      "name": "protocolManager",
      "outputs": [
        {
          "internalType": "address",
          "name": "",
          "type": "address"
        }
      ],
      "stateMutability": "view",
      "type": "function"
    },
    {
      "inputs": [
        {
          "internalType": "uint256",
          "name": "tokenId",
          "type": "uint256"
        },
        {
          "internalType": "uint256",
          "name": "_percentage",
          "type": "uint256"
        }
      ],
      "name": "reduceCreatorAllocation",
      "outputs": [],
      "stateMutability": "nonpayable",
      "type": "function"
    },
    {
      "inputs": [],
      "name": "renounceOwnership",
      "outputs": [],
      "stateMutability": "nonpayable",
      "type": "function"
    },
    {
      "inputs": [
        {
          "internalType": "address",
          "name": "pool",
          "type": "address"
        }
      ],
      "name": "restoreMinterAllocation",
      "outputs": [],
      "stateMutability": "nonpayable",
      "type": "function"
    },
    {
      "inputs": [],
      "name": "reveal",
      "outputs": [],
      "stateMutability": "nonpayable",
      "type": "function"
    },
    {
      "inputs": [],
      "name": "revealTime",
      "outputs": [
        {
          "internalType": "uint256",
          "name": "",
          "type": "uint256"
        }
      ],
      "stateMutability": "view",
      "type": "function"
    },
    {
      "inputs": [],
      "name": "revealType",
      "outputs": [
        {
          "internalType": "enum PrizeTypes.RevealType",
          "name": "",
          "type": "uint8"
        }
      ],
      "stateMutability": "view",
      "type": "function"
    },
    {
      "inputs": [
        {
          "internalType": "address",
          "name": "_kol",
          "type": "address"
        }
      ],
      "name": "revokeKOL",
      "outputs": [],
      "stateMutability": "nonpayable",
      "type": "function"
    },
    {
      "inputs": [
        {
          "internalType": "uint256",
          "name": "",
          "type": "uint256"
        },
        {
          "internalType": "uint256",
          "name": "salePrice",
          "type": "uint256"
        }
      ],
      "name": "royaltyInfo",
      "outputs": [
        {
          "internalType": "address",
          "name": "",
          "type": "address"
        },
        {
          "internalType": "uint256",
          "name": "",
          "type": "uint256"
        }
      ],
      "stateMutability": "view",
      "type": "function"
    },
    {
      "inputs": [],
      "name": "royaltyPercentage",
      "outputs": [
        {
          "internalType": "uint256",
          "name": "",
          "type": "uint256"
        }
      ],
      "stateMutability": "view",
      "type": "function"
    },
    {
      "inputs": [],
      "name": "royaltyRecipient",
      "outputs": [
        {
          "internalType": "address",
          "name": "",
          "type": "address"
        }
      ],
      "stateMutability": "view",
      "type": "function"
    },
    {
      "inputs": [
        {
          "internalType": "address",
          "name": "from",
          "type": "address"
        },
        {
          "internalType": "address",
          "name": "to",
          "type": "address"
        },
        {
          "internalType": "uint256[]",
          "name": "ids",
          "type": "uint256[]"
        },
        {
          "internalType": "uint256[]",
          "name": "amounts",
          "type": "uint256[]"
        },
        {
          "internalType": "bytes",
          "name": "data",
          "type": "bytes"
        }
      ],
      "name": "safeBatchTransferFrom",
      "outputs": [],
      "stateMutability": "nonpayable",
      "type": "function"
    },
    {
      "inputs": [
        {
          "internalType": "address",
          "name": "from",
          "type": "address"
        },
        {
          "internalType": "address",
          "name": "to",
          "type": "address"
        },
        {
          "internalType": "uint256",
          "name": "id",
          "type": "uint256"
        },
        {
          "internalType": "uint256",
          "name": "amount",
          "type": "uint256"
        },
        {
          "internalType": "bytes",
          "name": "data",
          "type": "bytes"
        }
      ],
      "name": "safeTransferFrom",
      "outputs": [],
      "stateMutability": "nonpayable",
      "type": "function"
    },
    {
      "inputs": [
        {
          "internalType": "address",
          "name": "operator",
          "type": "address"
        },
        {
          "internalType": "bool",
          "name": "approved",
          "type": "bool"
        }
      ],
      "name": "setApprovalForAll",
      "outputs": [],
      "stateMutability": "nonpayable",
      "type": "function"
    },
    {
      "inputs": [
        {
          "internalType": "string",
          "name": "newBaseURI",
          "type": "string"
        }
      ],
      "name": "setBaseURI",
      "outputs": [],
      "stateMutability": "nonpayable",
      "type": "function"
    },
    {
      "inputs": [
        {
          "internalType": "address",
          "name": "pool",
          "type": "address"
        },
        {
          "internalType": "uint256",
          "name": "tokenId",
          "type": "uint256"
        },
        {
          "internalType": "uint256",
          "name": "allocation",
          "type": "uint256"
        }
      ],
      "name": "setMinterAndAllocation",
      "outputs": [],
      "stateMutability": "nonpayable",
      "type": "function"
    },
    {
      "inputs": [
        {
          "internalType": "uint256",
          "name": "_royaltyPercentage",
          "type": "uint256"
        },
        {
          "internalType": "address",
          "name": "_royaltyRecipient",
          "type": "address"
        }
      ],
      "name": "setRoyalty",
      "outputs": [],
      "stateMutability": "nonpayable",
      "type": "function"
    },
    {
      "inputs": [
        {
          "internalType": "uint256",
          "name": "_tokenId",
          "type": "uint256"
        },
        {
          "internalType": "string",
          "name": "_uri",
          "type": "string"
        }
      ],
      "name": "setURI",
      "outputs": [],
      "stateMutability": "nonpayable",
      "type": "function"
    },
    {
      "inputs": [
        {
          "internalType": "uint256",
          "name": "",
          "type": "uint256"
        }
      ],
      "name": "supplyCutTimestamp",
      "outputs": [
        {
          "internalType": "uint256",
          "name": "",
          "type": "uint256"
        }
      ],
      "stateMutability": "view",
      "type": "function"
    },
    {
      "inputs": [
        {
          "internalType": "bytes4",
          "name": "interfaceId",
          "type": "bytes4"
        }
      ],
      "name": "supportsInterface",
      "outputs": [
        {
          "internalType": "bool",
          "name": "",
          "type": "bool"
        }
      ],
      "stateMutability": "view",
      "type": "function"
    },
    {
      "inputs": [
        {
          "internalType": "uint256",
          "name": "",
          "type": "uint256"
        }
      ],
      "name": "tokenAllocatedSupply",
      "outputs": [
        {
          "internalType": "uint256",
          "name": "",
          "type": "uint256"
        }
      ],
      "stateMutability": "view",
      "type": "function"
    },
    {
      "inputs": [
        {
          "internalType": "uint256",
          "name": "",
          "type": "uint256"
        }
      ],
      "name": "tokenCreationTime",
      "outputs": [
        {
          "internalType": "uint256",
          "name": "",
          "type": "uint256"
        }
      ],
      "stateMutability": "view",
      "type": "function"
    },
    {
      "inputs": [
        {
          "internalType": "uint256",
          "name": "id",
          "type": "uint256"
        }
      ],
      "name": "totalSupply",
      "outputs": [
        {
          "internalType": "uint256",
          "name": "",
          "type": "uint256"
        }
      ],
      "stateMutability": "view",
      "type": "function"
    },
    {
      "inputs": [
        {
          "internalType": "address",
          "name": "newOwner",
          "type": "address"
        }
      ],
      "name": "transferOwnership",
      "outputs": [],
      "stateMutability": "nonpayable",
      "type": "function"
    },
    {
      "inputs": [
        {
          "internalType": "uint256",
          "name": "",
          "type": "uint256"
        }
      ],
      "name": "unlockedAmountAtCut",
      "outputs": [
        {
          "internalType": "uint256",
          "name": "",
          "type": "uint256"
        }
      ],
      "stateMutability": "view",
      "type": "function"
    },
    {
      "inputs": [],
      "name": "unrevealedURI",
      "outputs": [
        {
          "internalType": "string",
          "name": "",
          "type": "string"
        }
      ],
      "stateMutability": "view",
      "type": "function"
    },
    {
      "inputs": [
        {
          "internalType": "uint256",
          "name": "_tokenId",
          "type": "uint256"
        }
      ],
      "name": "uri",
      "outputs": [
        {
          "internalType": "string",
          "name": "",
          "type": "string"
        }
      ],
      "stateMutability": "view",
      "type": "function"
    },
    {
      "inputs": [
        {
          "internalType": "uint256",
          "name": "",
          "type": "uint256"
        }
      ],
      "name": "vestingConfig",
      "outputs": [
        {
          "internalType": "uint256",
          "name": "cliffEnd",
          "type": "uint256"
        },
        {
          "internalType": "uint256",
          "name": "numberOfUnlocks",
          "type": "uint256"
        },
        {
          "internalType": "uint256",
          "name": "durationBetweenUnlocks",
          "type": "uint256"
        },
        {
          "internalType": "uint256",
          "name": "amountPerUnlock",
          "type": "uint256"
        }
      ],
      "stateMutability": "view",
      "type": "function"
    },
    {
      "inputs": [
        {
          "internalType": "uint256",
          "name": "",
          "type": "uint256"
        }
      ],
      "name": "vestingConfigured",
      "outputs": [
        {
          "internalType": "bool",
          "name": "",
          "type": "bool"
        }
      ],
      "stateMutability": "view",
      "type": "function"
    }
  ],
  "bytecode": "0x60a0346200017f576001600160401b0390601f620053cd38819003918201601f19168301918483118484101762000169578084926020946040528339810103126200017f57516001600160a01b039182821682036200017f5760405190602082019081118282101762000169576040526000809152600254906001918281811c911680156200015e575b60208210146200014a57601f8111620000fc575b5080600255600454903360018060a01b03198316176004557f8be0079c531659141344cd1fd0a4f28419497f9722a3daafe3b4186f6b6457e0604051953393169180a36005556080526152489081620001858239608051816114570152f35b60028252601f0160051c7f405787fa12a823e0f2b7631cc41b3ba8828b3321ca811111fa75cd3aa3bb5ace9081019083905b8281106200013e5750506200009d565b8381550183906200012e565b634e487b7160e01b82526022600452602482fd5b90607f169062000089565b634e487b7160e01b600052604160045260246000fd5b600080fdfe6080604052600436101561001257600080fd5b60003560e01c8062fdd58e146103f157806301ffc9a7146103ec5780630e89341c146103e7578063156e29f6146103e257806317f63979146103dd5780631b9dfee7146103d85780631fc3689b146103d357806321e8b17e146103ce57806329a77e26146103c95780632a55205a146103c45780632eb2c2d6146103bf57806340e3276b146103ba5780634c00de82146103b55780634e1273f4146103b05780634f14ec3f146103ab5780634f558e79146103a657806353cb5d51146103a157806354214f691461039c57806355f804b3146103975780635894bd51146103925780635da7479c1461038d578063664077811461037e5780636981bb461461038857806369d42c5e146103835780637035bf181461037e578063715018a614610379578063862440e214610374578063869f75941461036f57806389f7842d1461036a5780638a5d6909146103655780638a71bb2d146103605780638be6dc1d1461035b5780638c7a63ae146103565780638da5cb5b146103515780639de21c101461034c578063a22cb46514610347578063a2af294f14610342578063a2d6ebf31461033d578063a475b5dd14610338578063a9c989dc14610333578063ab4b66921461032e578063ae0f954414610329578063b5f1f24714610324578063ba829d711461031f578063bc197c811461031a578063bd85b03914610315578063bdbed72214610310578063c705fea21461030b578063cca6ffe214610306578063cdfaee4e14610301578063d38d1926146102fc578063d5c32ca4146102f7578063d6b6e203146102f2578063d7e1a400146102ed578063e642d3b1146102e8578063e8834c48146102e3578063e985e9c5146102de578063f23a6e61146102d9578063f242432a146102d4578063f2fde38b146102cf578063fbddc055146102ca5763fcf2e55f146102c557600080fd5b612de3565b612d5c565b612ccb565b612a86565b612a2c565b6129c4565b6128e1565b6128b0565b612861565b612824565b612789565b6126b7565b612699565b61267b565b612564565b6124cc565b6124a0565b612411565b612396565b612249565b611fb1565b611f88565b611f5c565b611e5c565b611e30565b611e06565b611cf2565b611c14565b611beb565b611ba6565b611b7a565b611b5c565b611b1f565b611af3565b611ac7565b61194c565b6118ee565b611675565b6116bd565b611691565b611413565b61138b565b611321565b6112fe565b611191565b611163565b611068565b610fad565b610f3f565b610ea4565b610ccc565b610b2c565b610afb565b610acf565b6108a9565b610756565b61068d565b61059f565b610545565b610451565b61040c565b6001600160a01b0381160361040757565b600080fd5b3461040757604036600319011261040757602061043760043561042e816103f6565b60243590612ef0565b604051908152f35b6001600160e01b031981160361040757565b346104075760203660031901126104075760206004356104708161043f565b63ffffffff60e01b1663152a902d60e11b81149081156104e0575b811561049d575b506040519015158152f35b636cdb3d1360e11b8114915081156104cf575b81156104be575b5038610492565b6301ffc9a760e01b149050386104b7565b6303a24d0760e21b811491506104b0565b6315ba79c360e11b8114915061048b565b919082519283825260005b84811061051d575050826000602080949584010152601f8019910116010190565b6020818301810151848301820152016104fc565b9060206105429281815201906104f1565b90565b3461040757602036600319011261040757610578610564600435613cf5565b6040519182916020835260208301906104f1565b0390f35b606090600319011261040757600435610594816103f6565b906024359060443590565b34610407576105ad3661057c565b90916105b7613ef8565b336000908152600b602052604090206105d290541515613e38565b6105e6836000526003602052604060002090565b546105fb84600052600a602052604060002090565b5490811561067b578061061083869310613e73565b01116106695761062a908284610624613ed5565b92613f4e565b60405190815233907faafa1dbc87d0d4fc4b41b7ea689f27064944bce2e8d5dd922ba7c35a463606d89080602081015b0390a36106676001600555565b005b60405163c30436e960e01b8152600490fd5b604051630fee82b160e01b8152600490fd5b34610407576020366003190112610407576004356106aa816103f6565b60018060a01b0316600052600660205260406000206040516106cb81610b7e565b60ff825416151580825260a06001840154938460208501526002810154938460408201526003820154908160608201526005600484015493846080840152015493849101528361074c575b6105789394604051968796879260a094919796959260c08501981515855260208501526040840152606083015260808201520152565b8083109350610716565b34610407576040366003190112610407576004357fbb7617ce321e467e1dc6bad5c188dbe5c31dfe923c1283a07602d74040e0cb4a602435610796612e4f565b8260005260156020526107b76107b2604060002060ff90541690565b614158565b8015158061089e575b6107c9906141b6565b6107dd836000526018602052604060002090565b5461083061081e6108176107fb876000526014602052604060002090565b5494610807858761421d565b61081281151561422a565b614125565b6064900490565b809361082b821515614288565b61421d565b9081610846866000526014602052604060002090565b5561086561085e866000526017602052604060002090565b5460ff1690565b610885575b5060408051918252602082019290925290819081015b0390a2005b610892610898918361421d565b856142e7565b3861086a565b5060648111156107c0565b34610407576080366003190112610407576004357f088cab2409ca33ba4d1407cb6386b97a16192c0417c40ace27682534b193a0f76044356024356108806064356108f2612e4f565b61091861091361090f61085e896000526017602052604060002090565b1590565b6143a9565b61093761092f87600052600a602052604060002090565b541515613c11565b61095661094e876000526016602052604060002090565b541515614407565b6109706107b261085e886000526015602052604060002090565b6109ee846109e96109e4828a6109d06109c86109c2610999846000526014602052604060002090565b54936101f4851015610a8f576109b26002871015614558565b6000526016602052604060002090565b546136bd565b8a10156145af565b6109df62093a80881015614614565b6136db565b61420e565b614138565b90610a486109fa610bda565b858152866020820152826040820152836060820152610a2389600052601b602052604060002090565b9060606003918051845560208101516001850155604081015160028501550151910155565b610a6c610a5f886000526017602052604060002090565b805460ff19166001179055565b604051948594859094939260609260808301968352602083015260408201520152565b6103e8851015610aab57610aa660048710156144fe565b6109b2565b6107d0851015610ac257610aa660088710156144a3565b610aa6600887101561444b565b346104075760203660031901126104075760043560005260166020526020604060002054604051908152f35b34610407576020366003190112610407576004356000526015602052602060ff604060002054166040519015158152f35b3461040757604036600319011261040757604060018060a01b0360085416612710610b5b600754602435614125565b0482519182526020820152f35b634e487b7160e01b600052604160045260246000fd5b60c081019081106001600160401b03821117610b9957604052565b610b68565b608081019081106001600160401b03821117610b9957604052565b90601f801991011681019081106001600160401b03821117610b9957604052565b60405190610be782610b9e565b565b60405190610be782610b7e565b6001600160401b038111610b995760051b60200190565b81601f8201121561040757803591610c2483610bf6565b92610c326040519485610bb9565b808452602092838086019260051b820101928311610407578301905b828210610c5c575050505090565b81358152908301908301610c4e565b9291926001600160401b038211610b995760405191610c94601f8201601f191660200184610bb9565b829481845281830111610407578281602093846000960137010152565b9080601f830112156104075781602061054293359101610c6b565b346104075760a036600319011261040757600435610ce9816103f6565b60243590610cf6826103f6565b6001600160401b039060443582811161040757610d17903690600401610c0d565b9160643581811161040757610d30903690600401610c0d565b9060843590811161040757610d49903690600401610cb1565b6001600160a01b038381169491903386148015610e81575b610d6a906135a1565b610d778351855114613ab1565b8616610d84811515613604565b610d9084848988614d53565b60005b8351811015610e3d5780610daa610e38928661301a565b51610e31610e298b610dde610dbf868c61301a565b51948c610e1887610df583610dde866000526000602052604060002090565b9060018060a01b0316600052602052604060002090565b54610e028282101561365e565b0391610dde846000526000602052604060002090565b556000526000602052604060002090565b9182546136db565b9055612ff5565b610d93565b5093869194610667966040517f4a39dc06d4c0dbc64b70af90fd698a233a518aa5d07e595d983b8c0526c8f7fb339180610e788a8a83613b0e565b0390a433613b81565b50600086815260016020908152604080832033845290915290205460ff16610d61565b3461040757604036600319011261040757602435600435610ec4826103f6565b610ecc612e4f565b6127108111610efa57600755600880546001600160a01b0319166001600160a01b0392909216919091179055005b60405162461bcd60e51b815260206004820152601a60248201527f526f79616c74792063616e6e6f742065786365656420313030250000000000006044820152606490fd5b34610407576000366003190112610407576008546040516001600160a01b039091168152602090f35b90815180825260208080930193019160005b828110610f88575050505090565b835185529381019392810192600101610f7a565b906020610542928181520190610f68565b34610407576040366003190112610407576004356001600160401b038082116104075736602383011215610407578160040135610fe981610bf6565b92610ff76040519485610bb9565b81845260209160248386019160051b8301019136831161040757602401905b82821061104f5785602435868111610407576105789161103d611043923690600401610c0d565b90613033565b60405191829182610f9c565b838091833561105d816103f6565b815201910190611016565b3461040757604036600319011261040757602435600435611087612e4f565b6110e8610817600093838552600a6020526110a760408620541515613c11565b838552601560205260408520546110c19060ff1615614066565b6110ce60148211156140cd565b6110e284600052600a602052604060002090565b54614125565b6110fc826000526014602052604060002090565b55611114610a5f826000526015602052604060002090565b7fb9810d2bf7d3f589fcd8960a77553281c32552184a1a4aeb6998396dd1b1754261115d61114c836000526014602052604060002090565b546040519081529081906020820190565b0390a280f35b3461040757602036600319011261040757600435600052600360205260206040600020541515604051908152f35b346104075761065a7f22a0362337789c81f3cf44af8dd14037966fde16d43f0503e0d56955267667886111c33661057c565b92916111d0949194612e4f565b6111d8613ef8565b61125f6111ef86600052600a602052604060002090565b5461125886611208896000526003602052604060002090565b5461122861122361085e8c6000526017602052604060002090565b614862565b6112426107b261085e8c6000526015602052604060002090565b61124d8415156148bc565b6109df821515614908565b111561494b565b61127361126b86614814565b85111561498c565b6112b06112948561128e886000526018602052604060002090565b546136db565b6112a8876000526014602052604060002090565b5410156149e6565b6112c4856000526018602052604060002090565b6112cf8582546136db565b90556112e46112dc613ed5565b858784613f4e565b6040519384526001600160a01b0316929081906020820190565b346104075760003660031901126104075760206001601254161515604051908152f35b34610407576020366003190112610407576004356001600160401b038111610407576113866113757f6741b2fc379fad678116fe3d4d4b9a1a184ab53ba36b86ad0fa66340b1ab41ad923690600401610cb1565b61137d612e4f565b610564816134b8565b0390a1005b346104075760008060031936011261141057808060015b6103e88111156113bc576040805183815260208101869052f35b8083526020600a81526040808520546113e0575b50506113db90612ff5565b6113a2565b90926113f0600391969396612ff5565b9386865252832054810180911161140b57926113db386113d0565b612fdf565b80fd5b346104075760031960403682018113610407576004916024359083356001600160401b03831161040757610140838601928436030112610407576001600160a01b037f0000000000000000000000000000000000000000000000000000000000000000811633036116655785546001600160a01b0316166116565760848301358015611646576115af7fc4b60435d5467f696f8dd268ffdd7fcff001c2937072bf65adb1ec5b426f8d70916114dd6114d86114d160e48901886130f5565b3691610c6b565b6134b8565b6114f46114ee6101248801876130f5565b906132ce565b61150561150086613488565b612ea7565b6115126064870135600755565b61154361152160448801613488565b60018060a01b03166bffffffffffffffffffffffff60a01b6008541617600855565b61157461155260248801613488565b60018060a01b03166bffffffffffffffffffffffff60a01b6009541617600955565b8061158985600052600a602052604060002090565b554261159f856000526016602052604060002090565b5586519081529081906020820190565b0390a260a48201906115c86115c383613492565b61349f565b6115d182613492565b6115da81611de6565b6115f1575050505050610667600160125417601255565b60029161160f611609611614936101048701906130f5565b906133ab565b613492565b61161d81611de6565b1461162457005b60c4013590428211156116375750601055005b5163cc447d1560e01b81529050fd5b845163066f305360e21b81528690fd5b5050505162dc149f60e41b8152fd5b8451630636a15760e11b81528690fd5b3461040757600036600319011261040757610578610564611799565b3461040757602036600319011261040757600435600052601a6020526020604060002054604051908152f35b34610407576040366003190112610407576004356116da816103f6565b60095460405163188c824d60e11b81526001600160a01b0392916020908290600490829087165afa801561175a57610667936117219260009261172a575b50163314613ddb565b602435906150b6565b61174c91925060203d8111611753575b6117448183610bb9565b810190613dc6565b9038611718565b503d61173a565b613761565b90600182811c9216801561178f575b602083101461177957565b634e487b7160e01b600052602260045260246000fd5b91607f169161176e565b60405190600082600f54916117ad8361175f565b8083529260019081811690811561183357506001146117d4575b50610be792500383610bb9565b600f600090815291507f8d1108e10bcb7c27dddfc02ed9d693a074039d026cf4ea4240b40f7d581ac8025b8483106118185750610be79350508101602001386117c7565b81935090816020925483858a010152019101909185926117ff565b905060209250610be794915060ff191682840152151560051b820101386117c7565b60405190600082600254916118698361175f565b80835292600190818116908115611833575060011461188f5750610be792500383610bb9565b6002600090815291507f405787fa12a823e0f2b7631cc41b3ba8828b3321ca811111fa75cd3aa3bb5ace5b8483106118d35750610be79350508101602001386117c7565b81935090816020925483858a010152019101909185926118ba565b346104075760008060031936011261141057611908612e4f565b600480546001600160a01b0319811690915581906001600160a01b03167f8be0079c531659141344cd1fd0a4f28419497f9722a3daafe3b4186f6b6457e08280a380f35b34610407576040366003190112610407576001600160401b0360043560243582811161040757611980903690600401610cb1565b611988612e4f565b600092828452602090600a82526119a460408620541515613c11565b8385526013825260408520918351918211610b99576119cd826119c7855461175f565b8561327a565b80601f8311600114611a35575091817fbf032ae7dcb484f99f9f3977ba9cde222756e7073de74244ceb89de862569bdb949261115d948891611a2a575b508160011b916000199060031b1c19161790555b60405191829182610531565b905083015138611a0a565b90601f198316611a4a85600052602060002090565b9288905b828210611aaf5750509261115d9492600192827fbf032ae7dcb484f99f9f3977ba9cde222756e7073de74244ceb89de862569bdb989610611a96575b5050811b019055611a1e565b85015160001960f88460031b161c191690553880611a8a565b80600185968294968b01518155019501930190611a4e565b3461040757602036600319011261040757600435600052600a6020526020604060002054604051908152f35b346104075760203660031901126104075760043560005260196020526020604060002054604051908152f35b3461040757602036600319011261040757600435611b3c816103f6565b60018060a01b0316600052600d6020526020604060002054604051908152f35b34610407576000366003190112610407576020600754604051908152f35b346104075760203660031901126104075760043560005260186020526020604060002054604051908152f35b3461040757602036600319011261040757600435600052600a602052606060406000205460036020526040600020549060405191818352602083015215156040820152f35b34610407576000366003190112610407576004546040516001600160a01b039091168152602090f35b3461040757611c223661057c565b90600460018060a01b03602081600954166040519384809263188c824d60e11b82525afa91821561175a57600092611cd2575b5033911603611c675761066792614c1d565b60405162461bcd60e51b815260206004820152603860248201527f4f6e6c79207468652070726f746f636f6c277320506f6f6c4465706c6f79657260448201527f2063616e2063616c6c20746869732066756e6374696f6e2e00000000000000006064820152608490fd5b611ceb91925060203d8111611753576117448183610bb9565b9038611c55565b3461040757604036600319011261040757600435611d0f816103f6565b6024358015158103610407576001600160a01b03821691338314611d8f57336000908152600160205260409020611d5d918391611d4c9190610dde565b9060ff801983541691151516179055565b604051901515815233907f17307eab39ab6107e8899845ad3d59bd9653f200f220920489ca2b5937696c3190602090a3005b60405162461bcd60e51b815260206004820152602960248201527f455243313135353a2073657474696e6720617070726f76616c20737461747573604482015268103337b91039b2b63360b91b6064820152608490fd5b60031115611df057565b634e487b7160e01b600052602160045260246000fd5b346104075760003660031901126104075760ff600e54166040516003821015611df0576020918152f35b3461040757602036600319011261040757600435600052600c6020526020604060002054604051908152f35b346104075760008060031936011261141057611e76612e4f565b611e8560016012541615613c5d565b600e5460ff16611e9481611de6565b60028103611ee05750611eab601054421015613ca9565b611eb9600160125417601255565b7f4884a1e8d033385ee80fa3d769d1ba3c44e18291db0f726e436a01997d3df36a8180a180f35b611ee981611de6565b611eab5760405162461bcd60e51b815260206004820152603e60248201527f496e7374616e742072657665616c20636f6c6c656374696f6e7320646f206e6f60448201527f74206e65656420746f206265206d616e75616c6c792072657665616c656400006064820152608490fd5b0390fd5b346104075760203660031901126104075760043560005260146020526020604060002054604051908152f35b34610407576000366003190112610407576009546040516001600160a01b039091168152602090f35b34610407576040366003190112610407576004357f4eb6d91f82d0f0a4ce5f3a9ef35cf77f613592659f0267b74e4c2b276e43e082602435611ff1612e4f565b61200861092f84600052600a602052604060002090565b8015158061223e575b61201a906141b6565b6120da6120d26120b6612037866000526014602052604060002090565b549361205061085e886000526015602052604060002090565b61211d575b6120aa61081761206f89600052600a602052604060002090565b549261209f6120888b600052600c602052604060002090565b5498612095868b10614aa4565b61082b8a8761421d565b610812811515614b00565b9061082b821515614288565b926120cb866000526014602052604060002090565b54906136db565b821015614b68565b806120ef84600052600a602052604060002090565b55612104836000526014602052604060002090565b5460408051928352602083019190915281908101610880565b612131876000526018602052604060002090565b546121508161214a8a6000526014602052604060002090565b5461421d565b908161215e575b5050612055565b6121bd6121b461216d8b61467e565b9360008486111561223057506121ae612190612189868861421d565b809361421d565b916121a86121a16108178a86614125565b91876136db565b9261421d565b906136db565b91821015614a32565b6121d1896000526014602052604060002090565b55806121e7896000526019602052604060002090565b55426121fd89600052601a602052604060002090565b5561221561085e896000526017602052604060002090565b612220575b80612157565b61222a9088614de1565b3861221a565b6121906121ae91809361421d565b506064811115612011565b3461040757608036600319011261040757600435612266816103f6565b606435604435602435612277612e4f565b6001600160a01b03841693841561235b577f70f501bd2f3c55f153861010e5184d8493b7b83ce7c4cb72fcc70fd07c1a240a9361233e610880926122bc851515614edf565b6122c7831515614f35565b6122f16122ec61090f61085e8460018060a01b03166000526006602052604060002090565b614f8d565b6123396122fc610be9565b600181529186602084015287604084015284606084015260006080840152600060a084015260018060a01b03166000526006602052604060002090565b614fd0565b604051938493846040919493926060820195825260208201520152565b60405162461bcd60e51b8152602060048201526013602482015272496e76616c6964204b4f4c206164647265737360681b6044820152606490fd5b34610407576000366003190112610407576020601054604051908152f35b9181601f84011215610407578235916001600160401b038311610407576020808501948460051b01011161040757565b9181601f84011215610407578235916001600160401b038311610407576020838186019501011161040757565b346104075760a03660031901126104075761242d6004356103f6565b6124386024356103f6565b6001600160401b03604435818111610407576124589036906004016123b4565b5050606435818111610407576124729036906004016123b4565b50506084359081116104075761248c9036906004016123e4565b505060405163bc197c8160e01b8152602090f35b346104075760203660031901126104075760043560005260036020526020604060002054604051908152f35b3461040757600080600319360112611410576124e6612f80565b60018281805b612502575b848452604051806105788682610f9c565b6103e88111158061255a575b1561255557808252600a6020526040822054612534575b61252e90612ff5565b826124ec565b9361254d818661254761252e948861301a565b52612ff5565b949050612525565b6124f1565b506064851061250e565b3461040757602036600319011261040757600435612581816103f6565b6001600160a01b03811633811480612664575b61259d90613e38565b7f86372a886a337455dd1cc469325e55aaf8068b361addb8fc08c3aa0bc904cc88600092828452600b602052604084205490846126296125ef8360018060a01b0316600052600d602052604060002090565b54928261260e8260018060a01b0316600052600b602052604060002090565b556001600160a01b03166000908152600d6020526040902090565b5561263e81600052600c602052604060002090565b61264983825461421d565b9055604080519182526020820192909252908190810161115d565b506000818152600b60205260409020541515612594565b3461040757602036600319011261040757602061043760043561467e565b34610407576020366003190112610407576020610437600435614814565b34610407576000806003193601126114105760405190806011546126da8161175f565b8085529160019180831690811561275f5750600114612704575b61057885611a1e81870382610bb9565b9250601183527f31ecc21a745e3968a04e9570e4425bc18fa8019c68028196b546d1669c200c685b828410612747575050508101602001611a1e826105786126f4565b8054602085870181019190915290930192810161272c565b86955061057896935060209250611a1e94915060ff191682840152151560051b82010192936126f4565b346104075760203660031901126104075761057861280960043561082b600091808352600c60205261214a604084205491601560205260ff6040862054166000146128195760146020526127f9604080872054965b838152600a60205220546127f287866136db565b1115614bda565b600052600a602052604060002090565b6040519081529081906020820190565b6127f96040866127de565b3461040757602036600319011261040757600435612841816103f6565b60018060a01b0316600052600b6020526020604060002054604051908152f35b34610407576020366003190112610407576004356000908152601b6020908152604091829020805460018201546002830154600390930154855192835293820152928301526060820152608090f35b34610407576020366003190112610407576004356000526017602052602060ff604060002054166040519015158152f35b3461040757604036600319011261040757600435602435612900612e4f565b81600052600a60205260406000205461297f57610880816129437fc4b60435d5467f696f8dd268ffdd7fcff001c2937072bf65adb1ec5b426f8d70931515613bbb565b8061295885600052600a602052604060002090565b554261296e856000526016602052604060002090565b556040519081529081906020820190565b60405162461bcd60e51b815260206004820152601760248201527f546f6b656e20494420616c7265616479206578697374730000000000000000006044820152606490fd5b3461040757604036600319011261040757602060ff612a206004356129e8816103f6565b602435906129f5826103f6565b60018060a01b03166000526001845260406000209060018060a01b0316600052602052604060002090565b54166040519015158152f35b346104075760a036600319011261040757612a486004356103f6565b612a536024356103f6565b6084356001600160401b03811161040757612a729036906004016123e4565b505060405163f23a6e6160e01b8152602090f35b346104075760a036600319011261040757600435612aa3816103f6565b602435612aaf816103f6565b6064356044356084356001600160401b03811161040757612ad4903690600401610cb1565b6001600160a01b0385811695919491903387148015612ca8575b612af7906135a1565b8216801596612b068815613604565b612b0f85613a7c565b97612b1987613a7c565b908215612c4c575b612bca575b50610667975085612b4584610dde886000526000602052604060002090565b54612b528282101561365e565b03612b6b84610dde886000526000602052604060002090565b55612b8484610dde876000526000602052604060002090565b612b8f8782546136db565b9055604080518681526020810188905233917fc3d58168c5ae7397731d063d5bbf3d657854427343f4c083240f7aacaa2d0f6291a4336139a4565b959391600097959391975b8951811015612c395780612bec612c34928c61301a565b51612c2e612bfa838c61301a565b51612c0f836000526003602052604060002090565b54612c1c82821015614cf6565b03916000526003602052604060002090565b55612ff5565b612bd5565b5091939550919395610667975038612b26565b9896939095926000989592985b8851811015612c98578089610e31610e29612c8284612c7b612c93978f61301a565b519461301a565b516000526003602052604060002090565b612c59565b5092959093969897919497612b21565b50600087815260016020908152604080832033845290915290205460ff16612aee565b3461040757602036600319011261040757600435612ce8816103f6565b612cf0612e4f565b6001600160a01b03811615612d085761066790612ea7565b60405162461bcd60e51b815260206004820152602660248201527f4f776e61626c653a206e6577206f776e657220697320746865207a65726f206160448201526564647265737360d01b6064820152608490fd5b3461040757602036600319011261040757600435612d79816103f6565b60018060a01b03166000526006602052604060002060ff81541661057860018301549260028101549060038101546005600483015492015492604051968796879260a094919796959260c08501981515855260208501526040840152606083015260808201520152565b3461040757602036600319011261040757600435612e00816103f6565b612e08612e4f565b6001600160a01b03166000818152600660205260408120805460ff19169055907ffeb031b2d93541150a8571bc111b4dab4d98dfef15bcbe6e89653e385a5d980a8280a280f35b6004546001600160a01b03163303612e6357565b606460405162461bcd60e51b815260206004820152602060248201527f4f776e61626c653a2063616c6c6572206973206e6f7420746865206f776e65726044820152fd5b600480546001600160a01b039283166001600160a01b0319821681179092559091167f8be0079c531659141344cd1fd0a4f28419497f9722a3daafe3b4186f6b6457e0600080a3565b6001600160a01b03811615612f28576000918252602082815260408084206001600160a01b03909316845291905290205490565b5490565b60405162461bcd60e51b815260206004820152602a60248201527f455243313135353a2061646472657373207a65726f206973206e6f742061207660448201526930b634b21037bbb732b960b11b6064820152608490fd5b60405190610ca082018281106001600160401b03821117610b995760405260648252610c80366020840137565b90612fb782610bf6565b612fc46040519182610bb9565b8281528092612fd5601f1991610bf6565b0190602036910137565b634e487b7160e01b600052601160045260246000fd5b600019811461140b5760010190565b634e487b7160e01b600052603260045260246000fd5b805182101561302e5760209160051b010190565b613004565b919091805183510361309e576130498151612fad565b9060005b8151811015613097578061308861307761306a613092948661301a565b516001600160a01b031690565b613081838961301a565b5190612ef0565b612547828661301a565b61304d565b5090925050565b60405162461bcd60e51b815260206004820152602960248201527f455243313135353a206163636f756e747320616e6420696473206c656e677468604482015268040dad2e6dac2e8c6d60bb1b6064820152608490fd5b903590601e198136030182121561040757018035906001600160401b0382116104075760200191813603831361040757565b601f8111613133575050565b600090600282527f405787fa12a823e0f2b7631cc41b3ba8828b3321ca811111fa75cd3aa3bb5ace906020601f850160051c8301941061318e575b601f0160051c01915b82811061318357505050565b818155600101613177565b909250829061316e565b601f81116131a4575050565b600090601182527f31ecc21a745e3968a04e9570e4425bc18fa8019c68028196b546d1669c200c68906020601f850160051c830194106131ff575b601f0160051c01915b8281106131f457505050565b8181556001016131e8565b90925082906131df565b601f8111613215575050565b600090600f82527f8d1108e10bcb7c27dddfc02ed9d693a074039d026cf4ea4240b40f7d581ac802906020601f850160051c83019410613270575b601f0160051c01915b82811061326557505050565b818155600101613259565b9092508290613250565b90601f811161328857505050565b600091825260208220906020601f850160051c830194106132c4575b601f0160051c01915b8281106132b957505050565b8181556001016132ad565b90925082906132a4565b91906001600160401b038111610b99576132f2816132ed60115461175f565b613198565b6000601f821160011461332c57819293600092613321575b50508160011b916000199060031b1c191617601155565b01359050388061330a565b6011600052601f198216937f31ecc21a745e3968a04e9570e4425bc18fa8019c68028196b546d1669c200c6891805b8681106133935750836001959610613379575b505050811b01601155565b0135600019600384901b60f8161c1916905538808061336e565b9092602060018192868601358155019401910161335b565b91906001600160401b038111610b99576133cf816133ca600f5461175f565b613209565b6000601f8211600114613409578192936000926133fe575b50508160011b916000199060031b1c191617600f55565b0135905038806133e7565b600f600052601f198216937f8d1108e10bcb7c27dddfc02ed9d693a074039d026cf4ea4240b40f7d581ac80291805b8681106134705750836001959610613456575b505050811b01600f55565b0135600019600384901b60f8161c1916905538808061344b565b90926020600181928686013581550194019101613438565b35610542816103f6565b3560038110156104075790565b6003811015611df05760ff8019600e5416911617600e55565b9081516001600160401b038111610b99576134dd816134d860025461175f565b613127565b602080601f8311600114613519575081929360009261350e575b50508160011b916000199060031b1c191617600255565b0151905038806134f7565b90601f1983169461354c60026000527f405787fa12a823e0f2b7631cc41b3ba8828b3321ca811111fa75cd3aa3bb5ace90565b926000905b878210613589575050836001959610613570575b505050811b01600255565b015160001960f88460031b161c19169055388080613565565b80600185968294968601518155019501930190613551565b156135a857565b60405162461bcd60e51b815260206004820152602e60248201527f455243313135353a2063616c6c6572206973206e6f7420746f6b656e206f776e60448201526d195c881bdc88185c1c1c9bdd995960921b6064820152608490fd5b1561360b57565b60405162461bcd60e51b815260206004820152602560248201527f455243313135353a207472616e7366657220746f20746865207a65726f206164604482015264647265737360d81b6064820152608490fd5b1561366557565b60405162461bcd60e51b815260206004820152602a60248201527f455243313135353a20696e73756666696369656e742062616c616e636520666f60448201526939103a3930b739b332b960b11b6064820152608490fd5b9062093a80820180921161140b57565b906001820180921161140b57565b9190820180921161140b57565b9081602091031261040757516105428161043f565b909260a0926105429594600180861b03168352600060208401526040830152606082015281608082015201906104f1565b919261054295949160a094600180871b0380921685521660208401526040830152606082015281608082015201906104f1565b6040513d6000823e3d90fd5b60809060208152602860208201527f455243313135353a204552433131353552656365697665722072656a656374656040820152676420746f6b656e7360c01b60608201520190565b60009060033d116137c357565b905060046000803e60005160e01c90565b600060443d1061054257604051600319913d83016004833e81516001600160401b03918282113d60248401111761383157818401948551938411613839573d85010160208487010111613831575061054292910160200190610bb9565b949350505050565b50949350505050565b9390803b613852575b5050505050565b61387a9360006020946040519687958694859363f23a6e6160e01b9b8c8652600486016136fd565b03926001600160a01b03165af160009181613974575b5061394c57505060016138a16137b6565b6308c379a01461391d575b6138bb575b388080808061384b565b60405162461bcd60e51b815260206004820152603460248201527f455243313135353a207472616e7366657220746f206e6f6e2d455243313135356044820152732932b1b2b4bb32b91034b6b83632b6b2b73a32b960611b6064820152608490fd5b6139256137d4565b8061393057506138ac565b60405162461bcd60e51b8152908190611f589060048301610531565b6001600160e01b031916146138b15760405162461bcd60e51b815280611f586004820161376d565b61399691925060203d811161399d575b61398e8183610bb9565b8101906136e8565b9038613890565b503d613984565b9493919092813b6139b8575b505050505050565b60006020946139df6040519788968795869463f23a6e6160e01b9c8d87526004870161372e565b03926001600160a01b03165af160009181613a5c575b50613a345750506001613a066137b6565b6308c379a014613a21575b6138bb575b3880808080806139b0565b613a296137d4565b806139305750613a11565b6001600160e01b03191614613a165760405162461bcd60e51b815280611f586004820161376d565b613a7591925060203d811161399d5761398e8183610bb9565b90386139f5565b60405190604082018281106001600160401b03821117610b99576040526001825260208201602036823782511561302e575290565b15613ab857565b60405162461bcd60e51b815260206004820152602860248201527f455243313135353a2069647320616e6420616d6f756e7473206c656e677468206044820152670dad2e6dac2e8c6d60c31b6064820152608490fd5b9091613b2561054293604084526040840190610f68565b916020818403910152610f68565b93906105429593613b6591613b739460018060a01b03809216885216602087015260a0604087015260a0860190610f68565b908482036060860152610f68565b9160808184039101526104f1565b9493919092813b613b9457505050505050565b60006020946139df6040519788968795869463bc197c8160e01b9c8d875260048701613b33565b15613bc257565b60405162461bcd60e51b815260206004820152602160248201527f4d617820737570706c79206d7573742062652067726561746572207468616e206044820152600360fc1b6064820152608490fd5b15613c1857565b60405162461bcd60e51b815260206004820152601760248201527f546f6b656e20494420646f6573206e6f742065786973740000000000000000006044820152606490fd5b15613c6457565b60405162461bcd60e51b815260206004820152601e60248201527f436f6c6c656374696f6e20697320616c72656164792072657665616c656400006044820152606490fd5b15613cb057565b60405162461bcd60e51b815260206004820152601e60248201527f52657665616c2074696d6520686173206e6f74207965742070617373656400006044820152606490fd5b6001806012541615613dbc57600091825260209060138252604083209260405193849282825492613d258461175f565b80875293838116908115613d985750600114613d5b575b50505050613d4c92500382610bb9565b80516105425750610542611855565b815285812095935091905b818310613d80575050613d4c935082010138808080613d3c565b85548784018501529485019486945091830191613d66565b9350505050613d4c94925060ff191682840152151560051b82010138808080613d3c565b5050610542611799565b908160209103126104075751610542816103f6565b15613de257565b60405162461bcd60e51b815260206004820152602860248201527f4f6e6c7920506f6f6c4465706c6f7965722063616e2063616c6c207468697320604482015267333ab731ba34b7b760c11b6064820152608490fd5b15613e3f57565b60405162461bcd60e51b815260206004820152600c60248201526b155b985d5d1a1bdc9a5e995960a21b6044820152606490fd5b15613e7a57565b60405162461bcd60e51b815260206004820152602d60248201527f4e6f20737570706c7920617661696c61626c6520746f206d696e7420666f722060448201526c1d1a1a5cc81d1bdad95b881251609a1b6064820152608490fd5b60405190602082018281106001600160401b03821117610b995760405260008252565b600260055414613f09576002600555565b60405162461bcd60e51b815260206004820152601f60248201527f5265656e7472616e637947756172643a207265656e7472616e742063616c6c006044820152606490fd5b936001600160a01b038516939192909190841561401757613f6e84613a7c565b93613f7882613a7c565b9660005b8651811015613fa95780613f93613fa4928b61301a565b51610e31610e29612c82848c61301a565b613f7c565b5091939650919350610be794613fcd82610dde856000526000602052604060002090565b613fd88582546136db565b9055604080518481526020810186905260009133917fc3d58168c5ae7397731d063d5bbf3d657854427343f4c083240f7aacaa2d0f629190a433613842565b60405162461bcd60e51b815260206004820152602160248201527f455243313135353a206d696e7420746f20746865207a65726f206164647265736044820152607360f81b6064820152608490fd5b1561406d57565b60405162461bcd60e51b815260206004820152603260248201527f43726561746f7220616c6c6f636174696f6e20616c7265616479206465636c616044820152713932b2103337b9103a3434b9903a37b5b2b760711b6064820152608490fd5b156140d457565b60405162461bcd60e51b8152602060048201526024808201527f43726561746f7220616c6c6f636174696f6e2063616e6e6f74206578636565646044820152632032302560e01b6064820152608490fd5b8181029291811591840414171561140b57565b8115614142570490565b634e487b7160e01b600052601260045260246000fd5b1561415f57565b60405162461bcd60e51b815260206004820152602960248201527f43726561746f7220616c6c6f636174696f6e206d757374206265206465636c616044820152681c995908199a5c9cdd60ba1b6064820152608490fd5b156141bd57565b60405162461bcd60e51b8152602060048201526024808201527f50657263656e74616765206d757374206265206265747765656e203120616e646044820152630203130360e41b6064820152608490fd5b60001981019190821161140b57565b9190820391821161140b57565b1561423157565b60405162461bcd60e51b815260206004820152602960248201527f4e6f2072656d61696e696e672063726561746f7220616c6c6f636174696f6e20604482015268746f2072656475636560b81b6064820152608490fd5b1561428f57565b60405162461bcd60e51b815260206004820152602a60248201527f526564756374696f6e20616d6f756e74206d7573742062652067726561746572604482015269207468616e207a65726f60b01b6064820152608490fd5b811561438b5761430190600052601b602052604060002090565b9060018201548254600284015461432161431b8285614125565b836136db565b4210614334575050505060036000910155565b9061434e929181421060001461437857505060009061421d565b90811561436d57816109e96109e4600394614368946136db565b910155565b505060036000910155565b6109e9614385924261421d565b9061421d565b600091506143a5600391600052601b602052604060002090565b0155565b156143b057565b60405162461bcd60e51b815260206004820152602960248201527f56657374696e6720616c726561647920636f6e6669677572656420666f7220746044820152683434b9903a37b5b2b760b91b6064820152608490fd5b1561440e57565b60405162461bcd60e51b8152602060048201526015602482015274151bdad95b881b9bdd081a5b9a5d1a585b1a5e9959605a1b6044820152606490fd5b1561445257565b60405162461bcd60e51b815260206004820152602360248201527f4d696e203820756e6c6f636b7320666f7220616c6c6f636174696f6e203e203260448201526203030360ec1b6064820152608490fd5b156144aa57565b60405162461bcd60e51b815260206004820152602660248201527f4d696e203820756e6c6f636b7320666f7220616c6c6f636174696f6e203130306044820152650302d323030360d41b6064820152608490fd5b1561450557565b60405162461bcd60e51b815260206004820152602560248201527f4d696e203420756e6c6f636b7320666f7220616c6c6f636174696f6e2035303060448201526402d313030360dc1b6064820152608490fd5b1561455f57565b60405162461bcd60e51b815260206004820152602260248201527f4d696e203220756e6c6f636b7320666f7220616c6c6f636174696f6e203c2035604482015261030360f41b6064820152608490fd5b156145b657565b60405162461bcd60e51b815260206004820152603060248201527f436c696666206d757374206e6f74206265206c657373207468616e203720646160448201526f3cb990333937b69031b932b0ba34b7b760811b6064820152608490fd5b1561461b57565b60405162461bcd60e51b815260206004820152603560248201527f4475726174696f6e206265747765656e20756e6c6f636b73206d757374206e6f60448201527474206265206c657373207468616e2037206461797360581b6064820152608490fd5b80600052601760205260ff604060002054161561473f576146a981600052601b602052604060002090565b6040516146b581610b9e565b6060600383549384845260018101546020850152600281015460408501520154910152421061473f576146f281600052601a602052604060002090565b546147005761054290614745565b61470981614745565b9061471e816000526019602052604060002090565b5482101561473b57612f2491506000526019602052604060002090565b5090565b50600090565b80600052601b602052604060002060405161475f81610b9e565b6147a66147a1835493848452614799600182015495602086019687526060600360028501549460408901958652015496019586524261421d565b905190614138565b6136cd565b915180831161480c575b82036147cc575050612f24906000526014602052604060002090565b906147d79151614125565b906147ec816000526014602052604060002090565b5482116147f7575090565b612f2491506000526014602052604060002090565b9150816147b0565b6000818152601760205260ff6040822054161561485d576148348261467e565b9181526018602052604081205490818311156148575750810390811161140b5790565b91505090565b905090565b1561486957565b60405162461bcd60e51b815260206004820152602560248201527f56657374696e67206e6f7420636f6e6669677572656420666f722074686973206044820152643a37b5b2b760d91b6064820152608490fd5b156148c357565b60405162461bcd60e51b815260206004820152601a60248201527f537570706c79206e6f742073657420666f7220746869732049440000000000006044820152606490fd5b1561490f57565b60405162461bcd60e51b815260206004820152601460248201527305175616e74697479206d757374206265203e20360641b6044820152606490fd5b1561495257565b60405162461bcd60e51b815260206004820152601260248201527145786365656473206d617820737570706c7960701b6044820152606490fd5b1561499357565b60405162461bcd60e51b815260206004820152602560248201527f4578636565647320617661696c61626c6520756e6c6f636b656420616c6c6f6360448201526430ba34b7b760d91b6064820152608490fd5b156149ed57565b60405162461bcd60e51b815260206004820152601a60248201527f457863656564732063726561746f7220616c6c6f636174696f6e0000000000006044820152606490fd5b15614a3957565b60405162461bcd60e51b815260206004820152603960248201527f4e65772063726561746f7220616c6c6f636174696f6e2063616e6e6f7420626560448201527f206c657373207468616e20636c61696d656420616d6f756e74000000000000006064820152608490fd5b15614aab57565b60405162461bcd60e51b815260206004820152602760248201527f4e6f20737570706c79206c65667420746f2072656475636520666f722074686960448201526639903a37b5b2b760c91b6064820152608490fd5b15614b0757565b60405162461bcd60e51b815260206004820152603360248201527f4e6f20756e616c6c6f636174656420737570706c79206c65667420746f207265604482015272323ab1b2903337b9103a3434b9903a37b5b2b760691b6064820152608490fd5b15614b6f57565b60405162461bcd60e51b815260206004820152603c60248201527f4e6577206d617820737570706c792063616e6e6f74206265206c65737320746860448201527f616e206d696e746564202b20616c6c6f636174656420737570706c79000000006064820152608490fd5b15614be157565b60405162461bcd60e51b8152602060048201526014602482015273496e76616c696420737570706c7920737461746560601b6044820152606490fd5b6001600160a01b03811692908315614cba576001600160a01b0381166000908152600b602052604090208391614c5491849061260e565b55614c6982600052600c602052604060002090565b91825482810180911161140b577f0605df730658c3d51d1de10eb38841dbacde4d3bd2e20e9cb4a23813065644b49355614cb56040519283928360209093929193604081019481520152565b0390a2565b60405162461bcd60e51b8152602060048201526014602482015273496e76616c696420706f6f6c206164647265737360601b6044820152606490fd5b15614cfd57565b60405162461bcd60e51b815260206004820152602860248201527f455243313135353a206275726e20616d6f756e74206578636565647320746f74604482015267616c537570706c7960c01b6064820152608490fd5b919392916001600160a01b039190821615614da7575b1615614d7457509050565b60005b8351811015614da15780614d8e614d9c928661301a565b51612c2e612bfa838661301a565b614d77565b50509050565b929060005b8551811015614dd95780614dc3614dd4928661301a565b51610e31610e29612c82848b61301a565b614dac565b509092614d69565b907f088cab2409ca33ba4d1407cb6386b97a16192c0417c40ace27682534b193a0f790614e1883600052601b602052604060002090565b908154804210600014614ea0575060018201545b80614e74575050600060038201555b8054614cb56001830154926003600282015491015490604051948594859094939260609260808301968352602083015260408201520152565b6109e96109e4826109df614e969561214a8a6000526014602052604060002090565b6003820155614e3b565b6147a1614eb0614ebb924261421d565b600285015490614138565b600183015490818110614ed15750506000614e2c565b614eda9161421d565b614e2c565b15614ee657565b60405162461bcd60e51b815260206004820152602160248201527f506f6f6c206c696d6974206d7573742062652067726561746572207468616e206044820152600360fc1b6064820152608490fd5b15614f3c57565b60405162461bcd60e51b815260206004820152602360248201527f57696e6e6572206c696d6974206d75737420626520677265617465722074686160448201526206e20360ec1b6064820152608490fd5b15614f9457565b60405162461bcd60e51b815260206004820152601460248201527312d3d308185b1c9958591e48185c1c1c9bdd995960621b6044820152606490fd5b9060a0600591614fef81511515859060ff801983541691151516179055565b602081015160018501556040810151600285015560608101516003850155608081015160048501550151910155565b1561502557565b60405162461bcd60e51b815260206004820152601760248201527f4b4f4c20706f6f6c206c696d69742065786365656465640000000000000000006044820152606490fd5b1561507157565b60405162461bcd60e51b815260206004820152601960248201527f4b4f4c2077696e6e6572206c696d6974206578636565646564000000000000006044820152606490fd5b9060ff6150d58360018060a01b03166000526006602052604060002090565b5416156151da576001600160a01b03821660009081526006602052604090206004810154600190910154615109911061501e565b61515861513582600561512e8660018060a01b03166000526006602052604060002090565b01546136db565b6001600160a01b038416600090815260066020526040902060030154101561506a565b6001600160a01b038216600090815260066020526040902060040161517d8154612ff5565b90556001600160a01b03821660009081526006602052604090206151a6906005019182546136db565b905533906001600160a01b03167f5b7945a09273a36deae169b61c3f2f6e50c1a2030374353d76346822ae48f674600080a3565b60405162461bcd60e51b815260206004820152601060248201526f12d3d3081b9bdd08185c1c1c9bdd995960821b6044820152606490fdfea26469706673582212204c1baff824d133852cd75241b59fafca32bdef0e61cbd319862bcf5f3282f04c64736f6c63430008130033",
  "linkReferences": {},
  "deployedLinkReferences": {}
}