{
  "_format": "hh-sol-artifact-1",
  "contractName": "ERC721Prize",
  "sourceName": "contracts/ERC721Prize.sol",
  "abi": [
    {
      "inputs": [
        {
          "internalType": "address",
          "name": "_factory",
          "type": "address"
        }
      ],
      "stateMutability": "nonpayable",
      "type": "constructor"
    },
    {
      "inputs": [],
      "name": "ExceedsMaxSupply",
      "type": "error"
    },
    {
      "inputs": [],
      "name": "UnauthorizedMinter",
      "type": "error"
    },
    {
      "inputs": [],
      "name": "ZeroQuantity",
      "type": "error"
    },
    {
      "anonymous": false,
      "inputs": [
        {
          "indexed": true,
          "internalType": "address",
          "name": "owner",
          "type": "address"
        },
        {
          "indexed": true,
          "internalType": "address",
          "name": "approved",
          "type": "address"
        },
        {
          "indexed": true,
          "internalType": "uint256",
          "name": "tokenId",
          "type": "uint256"
        }
      ],
      "name": "Approval",
      "type": "event"
    },
    {
      "anonymous": false,
      "inputs": [
        {
          "indexed": true,
          "internalType": "address",
          "name": "owner",
          "type": "address"
        },
        {
          "indexed": true,
          "internalType": "address",
          "name": "operator",
          "type": "address"
        },
        {
          "indexed": false,
          "internalType": "bool",
          "name": "approved",
          "type": "bool"
        }
      ],
      "name": "ApprovalForAll",
      "type": "event"
    },
    {
      "anonymous": false,
      "inputs": [
        {
          "indexed": false,
          "internalType": "string",
          "name": "newBaseURI",
          "type": "string"
        }
      ],
      "name": "BaseURIUpdated",
      "type": "event"
    },
    {
      "anonymous": false,
      "inputs": [],
      "name": "CollectionRevealed",
      "type": "event"
    },
    {
      "anonymous": false,
      "inputs": [
        {
          "indexed": false,
          "internalType": "uint256",
          "name": "allocation",
          "type": "uint256"
        }
      ],
      "name": "CreatorAllocationDeclared",
      "type": "event"
    },
    {
      "anonymous": false,
      "inputs": [
        {
          "indexed": false,
          "internalType": "uint256",
          "name": "newAllocation",
          "type": "uint256"
        },
        {
          "indexed": false,
          "internalType": "uint256",
          "name": "reductionAmount",
          "type": "uint256"
        }
      ],
      "name": "CreatorAllocationReduced",
      "type": "event"
    },
    {
      "anonymous": false,
      "inputs": [],
      "name": "EmergencyBypassDisabled",
      "type": "event"
    },
    {
      "anonymous": false,
      "inputs": [],
      "name": "EmergencyBypassEnabled",
      "type": "event"
    },
    {
      "anonymous": false,
      "inputs": [
        {
          "indexed": true,
          "internalType": "address",
          "name": "kol",
          "type": "address"
        },
        {
          "indexed": false,
          "internalType": "uint256",
          "name": "poolLimit",
          "type": "uint256"
        },
        {
          "indexed": false,
          "internalType": "uint256",
          "name": "enforcedSlotFee",
          "type": "uint256"
        },
        {
          "indexed": false,
          "internalType": "uint256",
          "name": "winnerLimit",
          "type": "uint256"
        }
      ],
      "name": "KOLApproved",
      "type": "event"
    },
    {
      "anonymous": false,
      "inputs": [
        {
          "indexed": true,
          "internalType": "address",
          "name": "kol",
          "type": "address"
        },
        {
          "indexed": true,
          "internalType": "address",
          "name": "pool",
          "type": "address"
        }
      ],
      "name": "KOLPoolCreated",
      "type": "event"
    },
    {
      "anonymous": false,
      "inputs": [
        {
          "indexed": true,
          "internalType": "address",
          "name": "kol",
          "type": "address"
        }
      ],
      "name": "KOLRevoked",
      "type": "event"
    },
    {
      "anonymous": false,
      "inputs": [
        {
          "indexed": true,
          "internalType": "address",
          "name": "marketplace",
          "type": "address"
        }
      ],
      "name": "MarketplaceAdded",
      "type": "event"
    },
    {
      "anonymous": false,
      "inputs": [
        {
          "indexed": true,
          "internalType": "address",
          "name": "marketplace",
          "type": "address"
        }
      ],
      "name": "MarketplaceRemoved",
      "type": "event"
    },
    {
      "anonymous": false,
      "inputs": [
        {
          "indexed": true,
          "internalType": "address",
          "name": "pool",
          "type": "address"
        },
        {
          "indexed": false,
          "internalType": "uint256",
          "name": "allocation",
          "type": "uint256"
        }
      ],
      "name": "MinterAllocationRestored",
      "type": "event"
    },
    {
      "anonymous": false,
      "inputs": [
        {
          "indexed": true,
          "internalType": "address",
          "name": "pool",
          "type": "address"
        },
        {
          "indexed": false,
          "internalType": "uint256",
          "name": "allocation",
          "type": "uint256"
        }
      ],
      "name": "MinterAndAllocationSet",
      "type": "event"
    },
    {
      "anonymous": false,
      "inputs": [
        {
          "indexed": true,
          "internalType": "address",
          "name": "previousOwner",
          "type": "address"
        },
        {
          "indexed": true,
          "internalType": "address",
          "name": "newOwner",
          "type": "address"
        }
      ],
      "name": "OwnershipTransferred",
      "type": "event"
    },
    {
      "anonymous": false,
      "inputs": [
        {
          "indexed": true,
          "internalType": "address",
          "name": "winner",
          "type": "address"
        },
        {
          "indexed": false,
          "internalType": "uint256",
          "name": "tokenId",
          "type": "uint256"
        }
      ],
      "name": "PrizeMinted",
      "type": "event"
    },
    {
      "anonymous": false,
      "inputs": [
        {
          "indexed": true,
          "internalType": "address",
          "name": "account",
          "type": "address"
        },
        {
          "indexed": false,
          "internalType": "bool",
          "name": "exempt",
          "type": "bool"
        }
      ],
      "name": "RoyaltyEnforcementExemptionUpdated",
      "type": "event"
    },
    {
      "anonymous": false,
      "inputs": [
        {
          "indexed": false,
          "internalType": "bool",
          "name": "enabled",
          "type": "bool"
        }
      ],
      "name": "RoyaltyEnforcementToggled",
      "type": "event"
    },
    {
      "anonymous": false,
      "inputs": [
        {
          "indexed": false,
          "internalType": "uint256",
          "name": "newMaxSupply",
          "type": "uint256"
        },
        {
          "indexed": false,
          "internalType": "uint256",
          "name": "newCreatorAllocation",
          "type": "uint256"
        }
      ],
      "name": "SupplyReduced",
      "type": "event"
    },
    {
      "anonymous": false,
      "inputs": [
        {
          "indexed": true,
          "internalType": "address",
          "name": "from",
          "type": "address"
        },
        {
          "indexed": true,
          "internalType": "address",
          "name": "to",
          "type": "address"
        },
        {
          "indexed": true,
          "internalType": "uint256",
          "name": "tokenId",
          "type": "uint256"
        }
      ],
      "name": "Transfer",
      "type": "event"
    },
    {
      "anonymous": false,
      "inputs": [
        {
          "indexed": false,
          "internalType": "uint256",
          "name": "cliffEnd",
          "type": "uint256"
        },
        {
          "indexed": false,
          "internalType": "uint256",
          "name": "numberOfUnlocks",
          "type": "uint256"
        },
        {
          "indexed": false,
          "internalType": "uint256",
          "name": "durationBetweenUnlocks",
          "type": "uint256"
        },
        {
          "indexed": false,
          "internalType": "uint256",
          "name": "amountPerUnlock",
          "type": "uint256"
        }
      ],
      "name": "VestingConfigured",
      "type": "event"
    },
    {
      "inputs": [
        {
          "internalType": "address",
          "name": "marketplace",
          "type": "address"
        }
      ],
      "name": "addAllowedMarketplace",
      "outputs": [],
      "stateMutability": "nonpayable",
      "type": "function"
    },
    {
      "inputs": [
        {
          "internalType": "address",
          "name": "",
          "type": "address"
        }
      ],
      "name": "allocatedSupply",
      "outputs": [
        {
          "internalType": "uint256",
          "name": "",
          "type": "uint256"
        }
      ],
      "stateMutability": "view",
      "type": "function"
    },
    {
      "inputs": [
        {
          "internalType": "address",
          "name": "to",
          "type": "address"
        },
        {
          "internalType": "uint256",
          "name": "tokenId",
          "type": "uint256"
        }
      ],
      "name": "approve",
      "outputs": [],
      "stateMutability": "nonpayable",
      "type": "function"
    },
    {
      "inputs": [
        {
          "internalType": "address",
          "name": "_kol",
          "type": "address"
        },
        {
          "internalType": "uint256",
          "name": "_poolLimit",
          "type": "uint256"
        },
        {
          "internalType": "uint256",
          "name": "_enforcedSlotFee",
          "type": "uint256"
        },
        {
          "internalType": "uint256",
          "name": "_winnerLimit",
          "type": "uint256"
        }
      ],
      "name": "approveKOL",
      "outputs": [],
      "stateMutability": "nonpayable",
      "type": "function"
    },
    {
      "inputs": [],
      "name": "availableSupply",
      "outputs": [
        {
          "internalType": "uint256",
          "name": "",
          "type": "uint256"
        }
      ],
      "stateMutability": "view",
      "type": "function"
    },
    {
      "inputs": [
        {
          "internalType": "address",
          "name": "owner",
          "type": "address"
        }
      ],
      "name": "balanceOf",
      "outputs": [
        {
          "internalType": "uint256",
          "name": "",
          "type": "uint256"
        }
      ],
      "stateMutability": "view",
      "type": "function"
    },
    {
      "inputs": [
        {
          "internalType": "uint256",
          "name": "cliffEnd",
          "type": "uint256"
        },
        {
          "internalType": "uint256",
          "name": "numberOfUnlocks",
          "type": "uint256"
        },
        {
          "internalType": "uint256",
          "name": "durationBetweenUnlocks",
          "type": "uint256"
        }
      ],
      "name": "configureCreatorVesting",
      "outputs": [],
      "stateMutability": "nonpayable",
      "type": "function"
    },
    {
      "inputs": [],
      "name": "creationTime",
      "outputs": [
        {
          "internalType": "uint256",
          "name": "",
          "type": "uint256"
        }
      ],
      "stateMutability": "view",
      "type": "function"
    },
    {
      "inputs": [],
      "name": "creatorAllocation",
      "outputs": [
        {
          "internalType": "uint256",
          "name": "",
          "type": "uint256"
        }
      ],
      "stateMutability": "view",
      "type": "function"
    },
    {
      "inputs": [],
      "name": "creatorAllocationDeclared",
      "outputs": [
        {
          "internalType": "bool",
          "name": "",
          "type": "bool"
        }
      ],
      "stateMutability": "view",
      "type": "function"
    },
    {
      "inputs": [],
      "name": "creatorClaimedCount",
      "outputs": [
        {
          "internalType": "uint256",
          "name": "",
          "type": "uint256"
        }
      ],
      "stateMutability": "view",
      "type": "function"
    },
    {
      "inputs": [
        {
          "internalType": "address",
          "name": "to",
          "type": "address"
        },
        {
          "internalType": "uint256",
          "name": "quantity",
          "type": "uint256"
        }
      ],
      "name": "creatorMint",
      "outputs": [],
      "stateMutability": "nonpayable",
      "type": "function"
    },
    {
      "inputs": [
        {
          "internalType": "uint256",
          "name": "_percentage",
          "type": "uint256"
        }
      ],
      "name": "cutSupply",
      "outputs": [],
      "stateMutability": "nonpayable",
      "type": "function"
    },
    {
      "inputs": [
        {
          "internalType": "uint256",
          "name": "_percentage",
          "type": "uint256"
        }
      ],
      "name": "declareCreatorAllocation",
      "outputs": [],
      "stateMutability": "nonpayable",
      "type": "function"
    },
    {
      "inputs": [],
      "name": "disableEmergencyBypass",
      "outputs": [],
      "stateMutability": "nonpayable",
      "type": "function"
    },
    {
      "inputs": [],
      "name": "emergencyBypassEnabled",
      "outputs": [
        {
          "internalType": "bool",
          "name": "",
          "type": "bool"
        }
      ],
      "stateMutability": "view",
      "type": "function"
    },
    {
      "inputs": [],
      "name": "enableEmergencyBypass",
      "outputs": [],
      "stateMutability": "nonpayable",
      "type": "function"
    },
    {
      "inputs": [
        {
          "internalType": "uint256",
          "name": "tokenId",
          "type": "uint256"
        }
      ],
      "name": "getApproved",
      "outputs": [
        {
          "internalType": "address",
          "name": "",
          "type": "address"
        }
      ],
      "stateMutability": "view",
      "type": "function"
    },
    {
      "inputs": [],
      "name": "getAvailableCreatorMint",
      "outputs": [
        {
          "internalType": "uint256",
          "name": "",
          "type": "uint256"
        }
      ],
      "stateMutability": "view",
      "type": "function"
    },
    {
      "inputs": [
        {
          "internalType": "address",
          "name": "_kol",
          "type": "address"
        }
      ],
      "name": "getKOLApprovalDetails",
      "outputs": [
        {
          "internalType": "bool",
          "name": "approved",
          "type": "bool"
        },
        {
          "internalType": "uint256",
          "name": "poolLimit",
          "type": "uint256"
        },
        {
          "internalType": "uint256",
          "name": "enforcedSlotFee",
          "type": "uint256"
        },
        {
          "internalType": "uint256",
          "name": "winnerLimit",
          "type": "uint256"
        },
        {
          "internalType": "uint256",
          "name": "poolCount",
          "type": "uint256"
        },
        {
          "internalType": "uint256",
          "name": "winnerCount",
          "type": "uint256"
        }
      ],
      "stateMutability": "view",
      "type": "function"
    },
    {
      "inputs": [],
      "name": "getUnlockedCreatorAllocation",
      "outputs": [
        {
          "internalType": "uint256",
          "name": "",
          "type": "uint256"
        }
      ],
      "stateMutability": "view",
      "type": "function"
    },
    {
      "inputs": [
        {
          "internalType": "address",
          "name": "_kol",
          "type": "address"
        },
        {
          "internalType": "uint256",
          "name": "_winnersCount",
          "type": "uint256"
        }
      ],
      "name": "incrementKOLApprovedCounts",
      "outputs": [],
      "stateMutability": "nonpayable",
      "type": "function"
    },
    {
      "inputs": [
        {
          "internalType": "string",
          "name": "name_",
          "type": "string"
        },
        {
          "internalType": "string",
          "name": "symbol_",
          "type": "string"
        },
        {
          "components": [
            {
              "internalType": "address",
              "name": "initialOwner",
              "type": "address"
            },
            {
              "internalType": "address",
              "name": "protocolManager",
              "type": "address"
            },
            {
              "internalType": "address",
              "name": "royaltyRecipient",
              "type": "address"
            },
            {
              "internalType": "uint256",
              "name": "royaltyPercentage",
              "type": "uint256"
            },
            {
              "internalType": "uint256",
              "name": "maxSupply",
              "type": "uint256"
            },
            {
              "internalType": "enum PrizeTypes.RevealType",
              "name": "revealType",
              "type": "uint8"
            },
            {
              "internalType": "uint256",
              "name": "revealTime",
              "type": "uint256"
            }
          ],
          "internalType": "struct ERC721Prize.PrizeInitParams",
          "name": "params",
          "type": "tuple"
        },
        {
          "components": [
            {
              "internalType": "string",
              "name": "baseURI",
              "type": "string"
            },
            {
              "internalType": "string",
              "name": "unrevealedURI",
              "type": "string"
            }
          ],
          "internalType": "struct ERC721Prize.URIs",
          "name": "uris",
          "type": "tuple"
        }
      ],
      "name": "initialize",
      "outputs": [],
      "stateMutability": "nonpayable",
      "type": "function"
    },
    {
      "inputs": [
        {
          "internalType": "address",
          "name": "owner",
          "type": "address"
        },
        {
          "internalType": "address",
          "name": "operator",
          "type": "address"
        }
      ],
      "name": "isApprovedForAll",
      "outputs": [
        {
          "internalType": "bool",
          "name": "",
          "type": "bool"
        }
      ],
      "stateMutability": "view",
      "type": "function"
    },
    {
      "inputs": [
        {
          "internalType": "address",
          "name": "marketplace",
          "type": "address"
        }
      ],
      "name": "isMarketplaceAllowed",
      "outputs": [
        {
          "internalType": "bool",
          "name": "",
          "type": "bool"
        }
      ],
      "stateMutability": "view",
      "type": "function"
    },
    {
      "inputs": [],
      "name": "isRevealed",
      "outputs": [
        {
          "internalType": "bool",
          "name": "",
          "type": "bool"
        }
      ],
      "stateMutability": "view",
      "type": "function"
    },
    {
      "inputs": [
        {
          "internalType": "address",
          "name": "account",
          "type": "address"
        }
      ],
      "name": "isRoyaltyEnforcementExempt",
      "outputs": [
        {
          "internalType": "bool",
          "name": "",
          "type": "bool"
        }
      ],
      "stateMutability": "view",
      "type": "function"
    },
    {
      "inputs": [
        {
          "internalType": "address",
          "name": "",
          "type": "address"
        }
      ],
      "name": "kolApprovals",
      "outputs": [
        {
          "internalType": "bool",
          "name": "approved",
          "type": "bool"
        },
        {
          "internalType": "uint256",
          "name": "poolLimit",
          "type": "uint256"
        },
        {
          "internalType": "uint256",
          "name": "enforcedSlotFee",
          "type": "uint256"
        },
        {
          "internalType": "uint256",
          "name": "winnerLimit",
          "type": "uint256"
        },
        {
          "internalType": "uint256",
          "name": "poolCount",
          "type": "uint256"
        },
        {
          "internalType": "uint256",
          "name": "winnerCount",
          "type": "uint256"
        }
      ],
      "stateMutability": "view",
      "type": "function"
    },
    {
      "inputs": [],
      "name": "maxSupply",
      "outputs": [
        {
          "internalType": "uint256",
          "name": "",
          "type": "uint256"
        }
      ],
      "stateMutability": "view",
      "type": "function"
    },
    {
      "inputs": [
        {
          "internalType": "address",
          "name": "to",
          "type": "address"
        },
        {
          "internalType": "uint256",
          "name": "quantity",
          "type": "uint256"
        }
      ],
      "name": "mint",
      "outputs": [],
      "stateMutability": "nonpayable",
      "type": "function"
    },
    {
      "inputs": [],
      "name": "name",
      "outputs": [
        {
          "internalType": "string",
          "name": "",
          "type": "string"
        }
      ],
      "stateMutability": "view",
      "type": "function"
    },
    {
      "inputs": [
        {
          "internalType": "address",
          "name": "",
          "type": "address"
        },
        {
          "internalType": "address",
          "name": "",
          "type": "address"
        },
        {
          "internalType": "uint256",
          "name": "",
          "type": "uint256"
        },
        {
          "internalType": "bytes",
          "name": "",
          "type": "bytes"
        }
      ],
      "name": "onERC721Received",
      "outputs": [
        {
          "internalType": "bytes4",
          "name": "",
          "type": "bytes4"
        }
      ],
      "stateMutability": "pure",
      "type": "function"
    },
    {
      "inputs": [],
      "name": "owner",
      "outputs": [
        {
          "internalType": "address",
          "name": "",
          "type": "address"
        }
      ],
      "stateMutability": "view",
      "type": "function"
    },
    {
      "inputs": [
        {
          "internalType": "uint256",
          "name": "tokenId",
          "type": "uint256"
        }
      ],
      "name": "ownerOf",
      "outputs": [
        {
          "internalType": "address",
          "name": "",
          "type": "address"
        }
      ],
      "stateMutability": "view",
      "type": "function"
    },
    {
      "inputs": [],
      "name": "protocolManager",
      "outputs": [
        {
          "internalType": "address",
          "name": "",
          "type": "address"
        }
      ],
      "stateMutability": "view",
      "type": "function"
    },
    {
      "inputs": [
        {
          "internalType": "uint256",
          "name": "_percentage",
          "type": "uint256"
        }
      ],
      "name": "reduceCreatorAllocation",
      "outputs": [],
      "stateMutability": "nonpayable",
      "type": "function"
    },
    {
      "inputs": [
        {
          "internalType": "address",
          "name": "marketplace",
          "type": "address"
        }
      ],
      "name": "removeAllowedMarketplace",
      "outputs": [],
      "stateMutability": "nonpayable",
      "type": "function"
    },
    {
      "inputs": [],
      "name": "renounceOwnership",
      "outputs": [],
      "stateMutability": "nonpayable",
      "type": "function"
    },
    {
      "inputs": [
        {
          "internalType": "address",
          "name": "pool",
          "type": "address"
        }
      ],
      "name": "restoreMinterAllocation",
      "outputs": [],
      "stateMutability": "nonpayable",
      "type": "function"
    },
    {
      "inputs": [],
      "name": "reveal",
      "outputs": [],
      "stateMutability": "nonpayable",
      "type": "function"
    },
    {
      "inputs": [],
      "name": "revealTime",
      "outputs": [
        {
          "internalType": "uint256",
          "name": "",
          "type": "uint256"
        }
      ],
      "stateMutability": "view",
      "type": "function"
    },
    {
      "inputs": [],
      "name": "revealType",
      "outputs": [
        {
          "internalType": "enum PrizeTypes.RevealType",
          "name": "",
          "type": "uint8"
        }
      ],
      "stateMutability": "view",
      "type": "function"
    },
    {
      "inputs": [
        {
          "internalType": "address",
          "name": "_kol",
          "type": "address"
        }
      ],
      "name": "revokeKOL",
      "outputs": [],
      "stateMutability": "nonpayable",
      "type": "function"
    },
    {
      "inputs": [],
      "name": "royaltyEnforcementEnabled",
      "outputs": [
        {
          "internalType": "bool",
          "name": "",
          "type": "bool"
        }
      ],
      "stateMutability": "view",
      "type": "function"
    },
    {
      "inputs": [
        {
          "internalType": "uint256",
          "name": "",
          "type": "uint256"
        },
        {
          "internalType": "uint256",
          "name": "salePrice",
          "type": "uint256"
        }
      ],
      "name": "royaltyInfo",
      "outputs": [
        {
          "internalType": "address",
          "name": "",
          "type": "address"
        },
        {
          "internalType": "uint256",
          "name": "",
          "type": "uint256"
        }
      ],
      "stateMutability": "view",
      "type": "function"
    },
    {
      "inputs": [],
      "name": "royaltyPercentage",
      "outputs": [
        {
          "internalType": "uint256",
          "name": "",
          "type": "uint256"
        }
      ],
      "stateMutability": "view",
      "type": "function"
    },
    {
      "inputs": [],
      "name": "royaltyRecipient",
      "outputs": [
        {
          "internalType": "address",
          "name": "",
          "type": "address"
        }
      ],
      "stateMutability": "view",
      "type": "function"
    },
    {
      "inputs": [
        {
          "internalType": "address",
          "name": "from",
          "type": "address"
        },
        {
          "internalType": "address",
          "name": "to",
          "type": "address"
        },
        {
          "internalType": "uint256",
          "name": "tokenId",
          "type": "uint256"
        }
      ],
      "name": "safeTransferFrom",
      "outputs": [],
      "stateMutability": "nonpayable",
      "type": "function"
    },
    {
      "inputs": [
        {
          "internalType": "address",
          "name": "from",
          "type": "address"
        },
        {
          "internalType": "address",
          "name": "to",
          "type": "address"
        },
        {
          "internalType": "uint256",
          "name": "tokenId",
          "type": "uint256"
        },
        {
          "internalType": "bytes",
          "name": "data",
          "type": "bytes"
        }
      ],
      "name": "safeTransferFrom",
      "outputs": [],
      "stateMutability": "nonpayable",
      "type": "function"
    },
    {
      "inputs": [
        {
          "internalType": "address",
          "name": "operator",
          "type": "address"
        },
        {
          "internalType": "bool",
          "name": "approved",
          "type": "bool"
        }
      ],
      "name": "setApprovalForAll",
      "outputs": [],
      "stateMutability": "nonpayable",
      "type": "function"
    },
    {
      "inputs": [
        {
          "internalType": "string",
          "name": "newBaseURI",
          "type": "string"
        }
      ],
      "name": "setBaseURI",
      "outputs": [],
      "stateMutability": "nonpayable",
      "type": "function"
    },
    {
      "inputs": [
        {
          "internalType": "address",
          "name": "pool",
          "type": "address"
        },
        {
          "internalType": "uint256",
          "name": "allocation",
          "type": "uint256"
        }
      ],
      "name": "setMinterAndAllocation",
      "outputs": [],
      "stateMutability": "nonpayable",
      "type": "function"
    },
    {
      "inputs": [
        {
          "internalType": "uint256",
          "name": "_royaltyPercentage",
          "type": "uint256"
        },
        {
          "internalType": "address",
          "name": "_royaltyRecipient",
          "type": "address"
        }
      ],
      "name": "setRoyalty",
      "outputs": [],
      "stateMutability": "nonpayable",
      "type": "function"
    },
    {
      "inputs": [
        {
          "internalType": "address",
          "name": "account",
          "type": "address"
        },
        {
          "internalType": "bool",
          "name": "exempt",
          "type": "bool"
        }
      ],
      "name": "setRoyaltyEnforcementExemption",
      "outputs": [],
      "stateMutability": "nonpayable",
      "type": "function"
    },
    {
      "inputs": [],
      "name": "supplyCutTimestamp",
      "outputs": [
        {
          "internalType": "uint256",
          "name": "",
          "type": "uint256"
        }
      ],
      "stateMutability": "view",
      "type": "function"
    },
    {
      "inputs": [
        {
          "internalType": "bytes4",
          "name": "interfaceId",
          "type": "bytes4"
        }
      ],
      "name": "supportsInterface",
      "outputs": [
        {
          "internalType": "bool",
          "name": "",
          "type": "bool"
        }
      ],
      "stateMutability": "view",
      "type": "function"
    },
    {
      "inputs": [],
      "name": "symbol",
      "outputs": [
        {
          "internalType": "string",
          "name": "",
          "type": "string"
        }
      ],
      "stateMutability": "view",
      "type": "function"
    },
    {
      "inputs": [
        {
          "internalType": "bool",
          "name": "enabled",
          "type": "bool"
        }
      ],
      "name": "toggleRoyaltyEnforcement",
      "outputs": [],
      "stateMutability": "nonpayable",
      "type": "function"
    },
    {
      "inputs": [
        {
          "internalType": "uint256",
          "name": "tokenId",
          "type": "uint256"
        }
      ],
      "name": "tokenURI",
      "outputs": [
        {
          "internalType": "string",
          "name": "",
          "type": "string"
        }
      ],
      "stateMutability": "view",
      "type": "function"
    },
    {
      "inputs": [],
      "name": "totalAllocatedSupply",
      "outputs": [
        {
          "internalType": "uint256",
          "name": "",
          "type": "uint256"
        }
      ],
      "stateMutability": "view",
      "type": "function"
    },
    {
      "inputs": [],
      "name": "totalSupply",
      "outputs": [
        {
          "internalType": "uint256",
          "name": "",
          "type": "uint256"
        }
      ],
      "stateMutability": "view",
      "type": "function"
    },
    {
      "inputs": [
        {
          "internalType": "address",
          "name": "from",
          "type": "address"
        },
        {
          "internalType": "address",
          "name": "to",
          "type": "address"
        },
        {
          "internalType": "uint256",
          "name": "tokenId",
          "type": "uint256"
        }
      ],
      "name": "transferFrom",
      "outputs": [],
      "stateMutability": "nonpayable",
      "type": "function"
    },
    {
      "inputs": [
        {
          "internalType": "address",
          "name": "newOwner",
          "type": "address"
        }
      ],
      "name": "transferOwnership",
      "outputs": [],
      "stateMutability": "nonpayable",
      "type": "function"
    },
    {
      "inputs": [],
      "name": "unlockedAmountAtCut",
      "outputs": [
        {
          "internalType": "uint256",
          "name": "",
          "type": "uint256"
        }
      ],
      "stateMutability": "view",
      "type": "function"
    },
    {
      "inputs": [],
      "name": "unrevealedBaseURI",
      "outputs": [
        {
          "internalType": "string",
          "name": "",
          "type": "string"
        }
      ],
      "stateMutability": "view",
      "type": "function"
    },
    {
      "inputs": [],
      "name": "vestingConfig",
      "outputs": [
        {
          "internalType": "uint256",
          "name": "cliffEnd",
          "type": "uint256"
        },
        {
          "internalType": "uint256",
          "name": "numberOfUnlocks",
          "type": "uint256"
        },
        {
          "internalType": "uint256",
          "name": "durationBetweenUnlocks",
          "type": "uint256"
        },
        {
          "internalType": "uint256",
          "name": "amountPerUnlock",
          "type": "uint256"
        }
      ],
      "stateMutability": "view",
      "type": "function"
    },
    {
      "inputs": [],
      "name": "vestingConfigured",
      "outputs": [
        {
          "internalType": "bool",
          "name": "",
          "type": "bool"
        }
      ],
      "stateMutability": "view",
      "type": "function"
    },
    {
      "inputs": [
        {
          "internalType": "address",
          "name": "",
          "type": "address"
        }
      ],
      "name": "walletMintedCount",
      "outputs": [
        {
          "internalType": "uint256",
          "name": "",
          "type": "uint256"
        }
      ],
      "stateMutability": "view",
      "type": "function"
    }
  ],
  "bytecode": "0x60a0346200038257601f906001600160401b0390601f196200503d38819003858101831684018581118582101762000387578492829160405283396020938491810103126200038257516001600160a01b039490939085851685036200038257620000696200039d565b926000948585526200007a6200039d565b9186835285518581116200036e578754966001978881811c9116801562000363575b858210146200034f57908187849311620002fc575b5084908783116001146200029b578a926200028f575b5050600019600383901b1c191690871b1787555b82519485116200027b5785548681811c9116801562000270575b838210146200025c5790818587969594931162000203575b50819385116001146200019e575050859262000192575b5050600019600383901b1c191690821b1781555b600655600754903360018060a01b03198316176007557f8be0079c531659141344cd1fd0a4f28419497f9722a3daafe3b4186f6b6457e0604051943393169180a3608052614c7f9081620003be8239608051816108900152f35b01519050388062000124565b869593929193168588528388209388905b828210620001e95750508411620001cf575b505050811b01815562000138565b015160001960f88460031b161c19169055388080620001c1565b8484015186558897909501949384019390810190620001af565b9091929394508688528288208580880160051c82019285891062000252575b9188978a9297969594930160051c01915b828110620002435750506200010d565b8a815588975089910162000233565b9250819262000222565b634e487b7160e01b88526022600452602488fd5b90607f1690620000f5565b634e487b7160e01b87526041600452602487fd5b015190503880620000c7565b90848a9416918b8052868c20928c5b88828210620002e55750508411620002cb575b505050811b018755620000db565b015160001960f88460031b161c19169055388080620002bd565b8385015186558d97909501949384019301620002aa565b909150898052848a208780850160051c82019287861062000345575b918b91869594930160051c01915b82811062000336575050620000b1565b8c81558594508b910162000326565b9250819262000318565b634e487b7160e01b8a52602260045260248afd5b90607f16906200009c565b634e487b7160e01b88526041600452602488fd5b600080fd5b634e487b7160e01b600052604160045260246000fd5b60405190602082016001600160401b03811183821017620003875760405256fe6080604052600436101561001257600080fd5b60003560e01c80620f212514613baa57806227675f14613a4057806301ffc9a7146139a057806306fdde031461390c578063081812fc146138ee578063095ea7b314613714578063101224881461367057806310c7e4a214613631578063150b7a02146135c857806317f639791461350257806318160ddd146134e4578063182ee485146132865780631cdccaff1461326a578063219172db1461324c57806323b872dd146131c8578063249f851b1461318e57806324e0eba9146131295780632633f8b114613066578063290f54ae146130485780632a55205a1461300c57806340c10f1914612ed357806340e3276b14612e3b57806342842e0e14612d9c5780634c00de8214612d7357806354214f6914612d5157806355f804b314612ba85780636352211e14612b78578063693866e314612b5d57806369d42c5e1461290957806370a0823114612872578063715018a61461281557806371c33359146127d65780637ecc2b561461274357806381ae39001461272557806383e46c56146127025780638a71bb2d146126e45780638da5cb5b146126bb5780638f152d0e146126985780639015d26b14612675578063951100031461223157806395d89b411461217557806397c82b6614612065578063a22cb46514611f2e578063a2af294f14611f04578063a362273514611ee6578063a475b5dd14611d5d578063a7df596e14611c2e578063ab4b669214611c05578063b456518014611ad9578063b5f1f247146118b1578063b88d4fde146117b1578063ba829d7114611793578063c705fea214611618578063c87b56dd146115e5578063cee8e0fe146115c2578063d0aa96c014611563578063d5abeb0114611545578063d6b6e2031461150b578063d8270dce146114ed578063e059b9c0146114cf578063e985e9c514611479578063f2fde38b146113ea578063f4c445691461100b578063f56c998814610709578063faf5a12414610433578063fbddc055146103af578063fbf3aa21146103715763fcf2e55f1461030657600080fd5b3461036c57602036600319011261036c5761031f613bc5565b610327613e2a565b6001600160a01b03166000818152600860205260408120805460ff191690557ffeb031b2d93541150a8571bc111b4dab4d98dfef15bcbe6e89653e385a5d980a9080a2005b600080fd5b3461036c57600036600319011261036c57601c54601d54601e54601f54604080519485526020850193909352918301526060820152608090f35b0390f35b3461036c57602036600319011261036c576001600160a01b036103d0613bc5565b166000526008602052604060002060ff8154166103ab60018301549260028101549060038101546005600483015492015492604051968796879260a094919796959260c08501981515855260208501526040840152606083015260808201520152565b3461036c57604036600319011261036c5761044c613bc5565b610454613c39565b60145460405163188c824d60e11b815291926020926001600160a01b039283169291908481600481875afa9081156105ea576000916106dc575b5082806007541633149182156106cf575b505015610675571692836000526022835260ff6040600020541615801561066d575b1561060d5780159182806105f6575b610525575b509061051b7f61630ccfd9f6a7f081736c73f365b44d23ac1af5e8d23c9eeba86f0cc3cfefbe9392856000526022845260406000209060ff801983541691151516179055565b60405190158152a2005b8360249160405192838092633247c33f60e21b82528960048301525afa9081156105ea576000916105b4575b5061055c57846104d5565b60405162461bcd60e51b815260048101849052602a60248201527f43616e6e6f742072656d6f7665206578656d7074696f6e20666f7220706f6f6c60448201526920636f6e74726163747360b01b6064820152608490fd5b90508381813d83116105e3575b6105cb8183613cb8565b8101031261036c5751801515810361036c5785610551565b503d6105c1565b6040513d6000823e3d90fd5b50846000526022845260ff604060002054166104d0565b60405162461bcd60e51b815260048101849052603260248201527f4164647265737320697320616c7265616479206578656d70742066726f6d20726044820152711bde585b1d1e48195b999bdc98d95b595b9d60721b6064820152608490fd5b5080156104c1565b60405162461bcd60e51b815260048101859052602c60248201527f4f6e6c79206f776e6572206f7220506f6f6c4465706c6f7965722063616e207360448201526b32ba1032bc32b6b83a34b7b760a11b6064820152608490fd5b909150163314828761049f565b6106fc9150853d8711610702575b6106f48183613cb8565b810190613f78565b8661048e565b503d6106ea565b3461036c5761014036600319011261036c576004356001600160401b03811161036c5761073a903690600401613e0c565b6024356001600160401b03811161036c57610759903690600401613e0c565b60e036604319011261036c5760405160e081018181106001600160401b03821117610c82576040526044356001600160a01b038116810361036c5781526064356001600160a01b038116810361036c5760208201526084356001600160a01b038116810361036c57604082015260a435606082015260c435608082015260e435600381101561036c5760a08201526101043560c08201526001600160401b03610124351161036c576040610124353603600319011261036c57604051908160408101106001600160401b03604084011117610c82576040820160405261012435600401356001600160401b03811161036c5761085e9060043691610124350101613e0c565b825260246101243501356001600160401b03811161036c576108899060043691610124350101613e0c565b60208301527f00000000000000000000000000000000000000000000000000000000000000006001600160a01b03163303610fc6576007546001600160a01b0316610f8b57601554610f515783516001600160401b038111610c82576108f0600954613c48565b601f8111610ee8575b506020601f8211600114610e73578192939495600092610e68575b50508160011b916000199060031b1c1916176009555b82516001600160401b038111610c8257610945600a54613c48565b601f8111610dff575b506020601f8211600114610d8b5781929394600092610d80575b50508160011b916000199060031b1c191617600a555b81519182516001600160401b038111610c825761099c600b54613c48565b601f8111610d17575b506020601f8211600114610ca35781929394600092610c98575b50508160011b916000199060031b1c191617600b555b6020820151601480546001600160a01b03199081166001600160a01b039384161790915583519091610a079116613e82565b6060830151600f5560018060a01b0360408401511690601054161760105560808201516015556001600d554260185560a08201516003811015610b845760ff80196020541691161760205560a08201516003811015610b8457610aa6575050610a8a60206013546001600160801b038116906001600160801b0319161717601355565b306000908152602260205260409020805460ff19166001179055005b602001519081516001600160401b038111610c8257610ac6600c54613c48565b601f8111610c15575b50602092601f8211600114610ba55792819293600092610b9a575b50508160011b916000199060031b1c191617600c555b60a08101516003811015610b8457600214610b1c575b50610a8a565b4260c08201511115610b355760c0015160215580610b16565b60405162461bcd60e51b815260206004820152602160248201527f52657665616c2074696d65206d75737420626520696e207468652066757475726044820152606560f81b6064820152608490fd5b634e487b7160e01b600052602160045260246000fd5b015190508380610aea565b601f19821693600c600052600080516020614bca8339815191529160005b868110610bfd5750836001959610610be4575b505050811b01600c55610b00565b015160001960f88460031b161c19169055838080610bd6565b91926020600181928685015181550194019201610bc3565b600c600052601f820160051c600080516020614bca833981519152019060208310610c6c575b601f0160051c600080516020614bca83398151915201905b818110610c605750610acf565b60008155600101610c53565b600080516020614bca8339815191529150610c3b565b634e487b7160e01b600052604160045260246000fd5b0151905084806109bf565b600b600052600080516020614c2a8339815191529060005b601f1984168110610cff5750600193949583601f19811610610ce6575b505050811b01600b556109d5565b015160001960f88460031b161c19169055848080610cd8565b9091602060018192858a015181550193019101610cbb565b600b600052601f820160051c600080516020614c2a8339815191520160208310610d6b575b601f820160051c600080516020614c2a833981519152018110610d5f57506109a5565b60008155600101610d3c565b50600080516020614c2a833981519152610d3c565b015190508480610968565b600a600052600080516020614bea8339815191529060005b601f1984168110610de75750600193949583601f19811610610dce575b505050811b01600a5561097e565b015160001960f88460031b161c19169055848080610dc0565b9091602060018192858a015181550193019101610da3565b600a600052601f820160051c600080516020614bea8339815191520160208310610e53575b601f820160051c600080516020614bea833981519152018110610e47575061094e565b60008155600101610e24565b50600080516020614bea833981519152610e24565b015190508580610914565b6009600052600080516020614c0a8339815191529060005b601f1984168110610ed0575060019394959683601f19811610610eb7575b505050811b0160095561092a565b015160001960f88460031b161c19169055858080610ea9565b9091602060018192858b015181550193019101610e8b565b6009600052601f820160051c600080516020614c0a8339815191520160208310610f3c575b601f820160051c600080516020614c0a833981519152018110610f3057506108f9565b60008155600101610f0d565b50600080516020614c0a833981519152610f0d565b60405162461bcd60e51b815260206004820152601260248201527114dd5c1c1b1e48185b1c9958591e481cd95d60721b6044820152606490fd5b60405162461bcd60e51b8152602060048201526013602482015272105b1c9958591e481a5b9a5d1a585b1a5e9959606a1b6044820152606490fd5b60405162461bcd60e51b815260206004820152601b60248201527f4f6e6c7920666163746f72792063616e20696e697469616c697a6500000000006044820152606490fd5b3461036c5760208060031936011261036c57600435611028613e2a565b801515806113df575b61103a90614637565b60175490601354600281166111db575b506015549060125492828410156111965761106e90611069858561468f565b61468f565b80156111455761108461109193926064926145a6565b049061106982151561469c565b9061109f60175480926146fb565b82106110da57906040917fbba296472f2135056aa4038d0d43f8b8dd1ff674c970ca244557fda3bf2bdead93826015558351928352820152a1005b60405162461bcd60e51b815260048101849052603c60248201527f4e6577206d617820737570706c792063616e6e6f74206265206c65737320746860448201527f616e206d696e746564202b20616c6c6f636174656420737570706c79000000006064820152608490fd5b60405162461bcd60e51b8152600481018690526024808201527f4e6f20756e616c6c6f636174656420737570706c79206c65667420746f2072656044820152636475636560e01b6064820152608490fd5b60405162461bcd60e51b815260048101869052601860248201527f4e6f20737570706c79206c65667420746f2072656475636500000000000000006044820152606490fd5b6019546111e8818561468f565b91826111f6575b505061104a565b6112456112016147aa565b93838511156113d05761123f61122161121a868861468f565b809361468f565b9161123960646112318a866145a6565b0491876146fb565b9261468f565b906146fb565b918210611365576004908260175583601a5542601b5516611267575b806111ef565b601c548042106000146113205750601d54915b826112d9575050506000601f555b601c54601d54601e54601f546040805194855260208501939093529183015260608201527f7e2a3374677a327cc55645e34396200e1c47056393c1e5dfa3e1f7a40384a33a90608090a18380611261565b6112e783916112ec9361468f565b6146fb565b60001981019190821161130a57611302916145b9565b601f55611288565b634e487b7160e01b600052601160045260246000fd5b61132d611336914261468f565b601e54906145b9565b6001810180911161130a57601d549081811061135657505060009161127a565b61135f9161468f565b9161127a565b60405162461bcd60e51b815260048101879052603960248201527f4e65772063726561746f7220616c6c6f636174696f6e2063616e6e6f7420626560448201527f206c657373207468616e20636c61696d656420616d6f756e74000000000000006064820152608490fd5b61123f6112216000809361468f565b506064811115611031565b3461036c57602036600319011261036c57611403613bc5565b61140b613e2a565b6001600160a01b038116156114255761142390613e82565b005b60405162461bcd60e51b815260206004820152602660248201527f4f776e61626c653a206e6577206f776e657220697320746865207a65726f206160448201526564647265737360d01b6064820152608490fd5b3461036c57604036600319011261036c57611492613bc5565b61149a613bdb565b9060018060a01b03809116600052600560205260406000209116600052602052602060ff604060002054166040519015158152f35b3461036c57600036600319011261036c576020601954604051908152f35b3461036c57600036600319011261036c576020601854604051908152f35b3461036c57602036600319011261036c576001600160a01b0361152c613bc5565b1660005260116020526020604060002054604051908152f35b3461036c57600036600319011261036c576020601554604051908152f35b3461036c57600036600319011261036c5761157c613e2a565b60106013546001600160801b038116906001600160801b03191617176013557f192c3f8649694bd147faa743027e4c232721f15ec16032c1c34b414c47a90df3600080a1005b3461036c57600036600319011261036c5760206010601354161515604051908152f35b3461036c57602036600319011261036c576103ab6116046004356148d5565b604051918291602083526020830190613c14565b3461036c5760208060031936011261036c57611632613bc5565b6007546001600160a01b039190821633148015611767575b611653906143c1565b169060405163c19d93fb60e01b81528181600481865afa9081156105ea57600091611731575b506008811015610b845760058114908115611726575b50156116e2577ffa7ff84d4eb7d84d088489adf98dd5160bce4e75f6d0acd06e70a89654bb7d7f90826000526011815260406000206000815491556116d68160125461468f565b601255604051908152a2005b6064906040519062461bcd60e51b82526004820152601860248201527f506f6f6c206e6f7420696e206661696c656420737461746500000000000000006044820152fd5b60079150148361168f565b90508181813d8311611760575b6117488183613cb8565b8101031261036c5751600881101561036c5783611679565b503d61173e565b508181168033148061177b575b905061164a565b50600052601183526116536040600020541515611774565b3461036c57600036600319011261036c576020602154604051908152f35b3461036c57608036600319011261036c576117ca613bc5565b6117d2613bdb565b90604435606435926001600160401b03841161036c573660238501121561036c5761180a611849943690602481600401359101613dd5565b9260135460088116151590816118a5575b508061188c575b61186d575b611839611834843361406b565b614009565b611844838383614133565b61429c565b1561185057005b60405162461bcd60e51b81528061186960048201614249565b0390fd5b33600052602360205261188760ff60406000205416613f97565b611827565b5033600052602260205260ff6040600020541615611822565b6010915016158661181b565b3461036c57608036600319011261036c576118ca613bc5565b60243590604435606435916118dd613e2a565b6001600160a01b0316928315611a9e578015611a4f5782156119fe5783600052600860205260ff604060002054166119c2577f70f501bd2f3c55f153861010e5184d8493b7b83ce7c4cb72fcc70fd07c1a240a9260609260405161194081613c82565b600181526005602082018581526040830184815287840186815260808501916000835260a0860193600085528c6000526008602052611993604060002097511515889060ff801983541691151516179055565b5160018701555160028601555160038501555160048401555191015560405192835260208301526040820152a2005b60405162461bcd60e51b815260206004820152601460248201527312d3d308185b1c9958591e48185c1c1c9bdd995960621b6044820152606490fd5b60405162461bcd60e51b815260206004820152602360248201527f57696e6e6572206c696d6974206d75737420626520677265617465722074686160448201526206e20360ec1b6064820152608490fd5b60405162461bcd60e51b815260206004820152602160248201527f506f6f6c206c696d6974206d7573742062652067726561746572207468616e206044820152600360fc1b6064820152608490fd5b60405162461bcd60e51b8152602060048201526013602482015272496e76616c6964204b4f4c206164647265737360681b6044820152606490fd5b3461036c57602036600319011261036c57600435611af5613e2a565b601354611b066002821615156145d9565b81151580611bfa575b611b1890614637565b60195490601754611b29838261468f565b928315611ba3576004611b726064611b647fd1f265823deafe8beac32429d528ba3d6f44b4c066c5935685cc34bde4117957986040986145a6565b04809461106982151561469c565b938460175516611b8b575b5082519182526020820152a1005b611b98611b9d918461468f565b614708565b84611b7d565b60405162461bcd60e51b815260206004820152602960248201527f4e6f2072656d61696e696e672063726561746f7220616c6c6f636174696f6e20604482015268746f2072656475636560b81b6064820152608490fd5b506064821115611b0f565b3461036c57600036600319011261036c576014546040516001600160a01b039091168152602090f35b3461036c57602036600319011261036c57600435611c4a613e2a565b6013549060028216611d0c5760148111611cbb577f4f0ee8dede1f88eebce079d082b265aea42f0e2dd279124103655875097f43f49160026064611c926020946015546145a6565b0491826017556001600160801b038116906001600160801b0319161717601355604051908152a1005b60405162461bcd60e51b8152602060048201526024808201527f43726561746f7220616c6c6f636174696f6e2063616e6e6f74206578636565646044820152632032302560e01b6064820152608490fd5b60405162461bcd60e51b815260206004820152602360248201527f43726561746f7220616c6c6f636174696f6e20616c7265616479206465636c616044820152621c995960ea1b6064820152608490fd5b3461036c57600036600319011261036c57611d76613e2a565b602060135416611ea15760ff602054166003811015610b845760028103611e3257506021544210611ded575b611dc660206013546001600160801b038116906001600160801b0319161717601355565b7f4884a1e8d033385ee80fa3d769d1ba3c44e18291db0f726e436a01997d3df36a600080a1005b60405162461bcd60e51b815260206004820152601e60248201527f52657665616c2074696d6520686173206e6f74207965742070617373656400006044820152606490fd5b611da25760405162461bcd60e51b815260206004820152603e60248201527f496e7374616e742072657665616c20636f6c6c656374696f6e7320646f206e6f60448201527f74206e65656420746f206265206d616e75616c6c792072657665616c656400006064820152608490fd5b60405162461bcd60e51b815260206004820152601e60248201527f436f6c6c656374696f6e20697320616c72656164792072657665616c656400006044820152606490fd5b3461036c57600036600319011261036c576020601754604051908152f35b3461036c57600036600319011261036c5760ff602054166040516003821015610b84576020918152f35b3461036c57604036600319011261036c57611f47613bc5565b611f4f613c39565b906013546008811615159081612059575b5080612040575b612021575b6001600160a01b031690338214611fdc57336000526005602052604060002082600052602052611fac8160406000209060ff801983541691151516179055565b60405190151581527f17307eab39ab6107e8899845ad3d59bd9653f200f220920489ca2b5937696c3160203392a3005b60405162461bcd60e51b815260206004820152601960248201527f4552433732313a20617070726f766520746f2063616c6c6572000000000000006044820152606490fd5b33600052602360205261203b60ff60406000205416613f97565b611f6c565b5033600052602260205260ff6040600020541615611f67565b60109150161583611f60565b3461036c57602036600319011261036c5761207e613bc5565b612086613e2a565b6001600160a01b031680156121305780600052602360205260ff604060002054166120eb578060005260236020526040600020600160ff198254161790557f119567ed9b6c3d3a90f367bc09314fc6cd50ab2434a5b4f73688a2c1ea149838600080a2005b60405162461bcd60e51b815260206004820152601b60248201527f4d61726b6574706c61636520616c726561647920616c6c6f77656400000000006044820152606490fd5b60405162461bcd60e51b815260206004820152601b60248201527f496e76616c6964206d61726b6574706c616365206164647265737300000000006044820152606490fd5b3461036c57600036600319011261036c576040516000600a5461219781613c48565b8084529060019081811690811561220a57506001146121c1575b6103ab8461160481860382613cb8565b600a60009081529250600080516020614bea8339815191525b8284106121f2575050508101602001611604826121b1565b805460208587018101919091529093019281016121da565b60ff191660208087019190915292151560051b8501909201925061160491508390506121b1565b3461036c57606036600319011261036c57602480356004356044803590612256613e2a565b6013549060048216612632576018549081156125ef5761227a6002841615156145d9565b601754916101f48310156124c9576002871061247b575b60b4810180911161246657851061240757610e1084106123a65750846122b6916146fb565b600019810190811161239157846122cc916145b9565b946040519060808201908282106001600160401b0383111761237d575086927f7e2a3374677a327cc55645e34396200e1c47056393c1e5dfa3e1f7a40384a33a9760606123789694600494604052888152896020820152856040820152015285601c5586601d5582601e5583601f556001600160801b038116906001600160801b0319161717601355604051948594859094939260609260808301968352602083015260408201520152565b0390a1005b634e487b7160e01b60009081526041600452fd5b85634e487b7160e01b60005260116004526000fd5b867f4475726174696f6e206265747765656e20756e6c6f636b73206d757374206e6f60849260356040519362461bcd60e51b855260206004860152840152820152743a103132903632b9b9903a3430b71018903437bab960591b6064820152fd5b867f436c696666206d757374206e6f74206265206c657373207468616e2033206d6960849260336040519362461bcd60e51b85526020600486015284015282015272373aba32b990333937b69031b932b0ba34b7b760691b6064820152fd5b87634e487b7160e01b60005260116004526000fd5b60405162461bcd60e51b8152602060048201526022818a01527f4d696e203220756e6c6f636b7320666f7220616c6c6f636174696f6e203c20358184015261030360f41b6064820152608490fd5b6103e883101561253257600487106124e1575b612291565b60405162461bcd60e51b8152602060048201526025818a01527f4d696e203420756e6c6f636b7320666f7220616c6c6f636174696f6e20353030818401526402d313030360dc1b6064820152608490fd5b6107d08310156125975760088710156122915760405162461bcd60e51b8152602060048201526026818a01527f4d696e203820756e6c6f636b7320666f7220616c6c6f636174696f6e2031303081840152650302d323030360d41b6064820152608490fd5b60088710156124dc5760405162461bcd60e51b8152602060048201526023818a01527f4d696e203820756e6c6f636b7320666f7220616c6c6f636174696f6e203e2032818401526203030360ec1b6064820152608490fd5b867f436f6c6c656374696f6e206e6f7420696e697469616c697a6564000000000000606492601a6040519362461bcd60e51b855260206004860152840152820152fd5b857f56657374696e6720616c726561647920636f6e66696775726564000000000000606492601a6040519362461bcd60e51b855260206004860152840152820152fd5b3461036c57600036600319011261036c5760206002601354161515604051908152f35b3461036c57600036600319011261036c5760206004601354161515604051908152f35b3461036c57600036600319011261036c576007546040516001600160a01b039091168152602090f35b3461036c57600036600319011261036c576020600f54604051908152f35b3461036c57600036600319011261036c5760206008601354161515604051908152f35b3461036c57600036600319011261036c576020601a54604051908152f35b3461036c57600036600319011261036c57601254601354600216156127ce57601754905b6015549161277581836146fb565b83106127925761106961278a9260209461468f565b604051908152f35b60405162461bcd60e51b8152602060048201526014602482015273496e76616c696420737570706c7920737461746560601b6044820152606490fd5b600090612767565b3461036c57602036600319011261036c576001600160a01b036127f7613bc5565b166000526023602052602060ff604060002054166040519015158152f35b3461036c57600036600319011261036c5761282e613e2a565b600780546001600160a01b031981169091556000906001600160a01b03167f8be0079c531659141344cd1fd0a4f28419497f9722a3daafe3b4186f6b6457e08280a3005b3461036c57602036600319011261036c576001600160a01b03612893613bc5565b1680156128b25760005260036020526020604060002054604051908152f35b60405162461bcd60e51b815260206004820152602960248201527f4552433732313a2061646472657373207a65726f206973206e6f7420612076616044820152683634b21037bbb732b960b91b6064820152608490fd5b3461036c57604036600319011261036c57612922613bc5565b60145460405163188c824d60e11b8152602092602435926001600160a01b03929085908290600490829087165afa9081156105ea57600091612b40575b508233911603612aea5716918260005260089081815260ff6040600020541615612ab357836000528181526040600020600160048201549101541115612a6f57836000528181526129b8836005604060002001546146fb565b8460005282825260036040600020015410612a2b578360005281815260046040600020016129e681546143fc565b90558360005252612a0060056040600020019182546146fb565b905533907f5b7945a09273a36deae169b61c3f2f6e50c1a2030374353d76346822ae48f674600080a3005b6064906040519062461bcd60e51b82526004820152601960248201527f4b4f4c2077696e6e6572206c696d6974206578636565646564000000000000006044820152fd5b6064906040519062461bcd60e51b82526004820152601760248201527f4b4f4c20706f6f6c206c696d69742065786365656465640000000000000000006044820152fd5b6064906040519062461bcd60e51b82526004820152601060248201526f12d3d3081b9bdd08185c1c1c9bdd995960821b6044820152fd5b60405162461bcd60e51b815260048101859052602860248201527f4f6e6c7920506f6f6c4465706c6f7965722063616e2063616c6c207468697320604482015267333ab731ba34b7b760c11b6064820152608490fd5b612b579150853d8711610702576106f48183613cb8565b8561295f565b3461036c57600036600319011261036c57602061278a614843565b3461036c57602036600319011261036c576020612b96600435613f17565b6040516001600160a01b039091168152f35b3461036c5760208060031936011261036c576001600160401b039060043582811161036c57612bdb903690600401613e0c565b90612be4613e2a565b8151928311610c8257612bf8600b54613c48565b601f8111612cff575b508092601f8111600114612c6e57807f6741b2fc379fad678116fe3d4d4b9a1a184ab53ba36b86ad0fa66340b1ab41ad94600091612c63575b508160011b916000199060031b1c191617600b555b612378604051928284938452830190613c14565b905083015185612c3a565b601f19811693600b600052600080516020614c2a8339815191529460005b818110612ce857509482916001937f6741b2fc379fad678116fe3d4d4b9a1a184ab53ba36b86ad0fa66340b1ab41ad9710612ccf575b5050811b01600b55612c4f565b85015160001960f88460031b161c191690558580612cc2565b858301518755600190960195918401918401612c8c565b600b600052600080516020614c2a833981519152601f850160051c810191838610612d47575b601f0160051c01905b818110612d3b5750612c01565b60008155600101612d2e565b9091508190612d25565b3461036c57600036600319011261036c57602080601354161515604051908152f35b3461036c57600036600319011261036c576010546040516001600160a01b039091168152602090f35b3461036c57611849612dad36613d85565b9060135492600884161515808091612e30575b80612e17575b612df8575b60405194612dd886613c9d565b60008652816118a557508061188c5761186d57611839611834843361406b565b336000526023602052612e1260ff60406000205416613f97565b612dcb565b5033600052602260205260ff6040600020541615612dc6565b506010851615612dc0565b3461036c57604036600319011261036c57600435612e57613bdb565b90612e60613e2a565b6127108111612e8e57600f55601080546001600160a01b0319166001600160a01b0392909216919091179055005b60405162461bcd60e51b815260206004820152601a60248201527f526f79616c74792063616e6e6f742065786365656420313030250000000000006044820152606490fd5b3461036c57604036600319011261036c57612eec613bc5565b602435612ef761440b565b3360005260209160118352612f1260406000205415156143c1565b8115612ffa57600e9081546015549081811015612fb557840111612fa3576001600160a01b03811660005b848110612f4b576001600655005b600190600d612f5b8154866144ad565b612f8f8154857f3b782080656380c62378fe492892b8dcb9c50affce49759e169b8c7e5ef270e78b604051848152a26143fc565b9055612f9b85546143fc565b855501612f3d565b60405163c30436e960e01b8152600490fd5b60405162461bcd60e51b815260048101879052601b60248201527f4e6f20737570706c7920617661696c61626c6520746f206d696e7400000000006044820152606490fd5b60405163f4f5b73360e01b8152600490fd5b3461036c57604036600319011261036c57604060018060a01b036010541661271061303b600f546024356145a6565b0482519182526020820152f35b3461036c57600036600319011261036c576020601b54604051908152f35b3461036c57602036600319011261036c5761307f613bc5565b613087613e2a565b6001600160a01b031660008181526023602052604090205460ff16156130e457806000526023602052604060002060ff1981541690557feac9a18305649744c83ff9f4d60058552b03f4e8df46a1cb28f7563fbd179b42600080a2005b60405162461bcd60e51b815260206004820152601f60248201527f4d61726b6574706c616365206e6f7420696e20616c6c6f776564206c697374006044820152606490fd5b3461036c57600036600319011261036c57613142613e2a565b6013546fffffffffffffffffffffffffffffffef8116906001600160801b031916176013557fa0e4442ee881786834ee773b9ed42c22dff390d3d3318996679777915e63be34600080a1005b3461036c57602036600319011261036c576001600160a01b036131af613bc5565b1660005260166020526020604060002054604051908152f35b3461036c576114236131d936613d85565b916013546008811615159081613240575b5080613227575b613208575b613203611834843361406b565b614133565b33600052602360205261322260ff60406000205416613f97565b6131f6565b5033600052602260205260ff60406000205416156131f1565b601091501615856131ea565b3461036c57600036600319011261036c576020601254604051908152f35b3461036c57600036600319011261036c576103ab611604613cd9565b3461036c57604036600319011261036c5761329f613bc5565b6024908135916132ad613e2a565b6132b561440b565b60135460048116156134a75760026132cf911615156145d9565b821561346c57600e906132e38483546146fb565b60155410613428576132f3614843565b84116133d657613305846019546146fb565b6017541061339257506001600160a01b0382169160005b8481106133395761332f856019546146fb565b6019556001600655005b600190600d6133498154856144ad565b61337e8154877f3b782080656380c62378fe492892b8dcb9c50affce49759e169b8c7e5ef270e76020604051848152a26143fc565b905561338a84546143fc565b84550161331c565b606490601a6040519162461bcd60e51b8352602060048401528201527f457863656564732063726561746f7220616c6c6f636174696f6e0000000000006044820152fd5b60849060256040519162461bcd60e51b8352602060048401528201527f4578636565647320617661696c61626c6520756e6c6f636b656420616c6c6f6360448201526430ba34b7b760d91b6064820152fd5b606490601f6040519162461bcd60e51b8352602060048401528201527f4d696e74696e6720776f756c6420657863656564206d617820737570706c79006044820152fd5b60649060146040519162461bcd60e51b8352602060048401528201527305175616e74697479206d757374206265203e20360641b6044820152fd5b60405162461bcd60e51b8152602060048201526016818401527515995cdd1a5b99c81b9bdd0818dbdb999a59dd5c995960521b6044820152606490fd5b3461036c57600036600319011261036c576020600e54604051908152f35b3461036c57602036600319011261036c576001600160a01b03613523613bc5565b166000526008602052604060002060405161353d81613c82565b60ff825416151580825260a0600184015493846020850152600281015493846040820152600382015490816060820152600560048401549384608084015201549384910152836135be575b6103ab9394604051968796879260a094919796959260c08501981515855260208501526040840152606083015260808201520152565b8083109350613588565b3461036c57608036600319011261036c576135e1613bc5565b506135ea613bdb565b506064356001600160401b0380821161036c573660238301121561036c57816004013590811161036c573691016024011161036c57604051630a85bd0160e11b8152602090f35b3461036c57602036600319011261036c576001600160a01b03613652613bc5565b166000526022602052602060ff604060002054166040519015158152f35b3461036c57602036600319011261036c576004358015159081810361036c577ff4fe92c76f5b8827e8fd9eac2c7181b6b2c22b10543b969fa2d9a26cdcd56bd2916020916136bc613e2a565b156136ea5760086013546001600160801b038116906001600160801b03191617176013555b604051908152a1005b6013546ffffffffffffffffffffffffffffffff78116906001600160801b031916176013556136e1565b3461036c57604036600319011261036c5761372d613bc5565b6024359060135460088116151590816138e2575b50806138c9575b6138aa575b6001600160a01b03808061376085613f17565b1692169180831461385b57803314908115613836575b50156137cb57600083815260046020526040902080546001600160a01b031916831790556137a383613f17565b167f8c5be1e5ebec7d5bd14f71427d1e84f3dd0314c0f7b2291e5b200ac8c7c3b925600080a4005b60405162461bcd60e51b815260206004820152603d60248201527f4552433732313a20617070726f76652063616c6c6572206973206e6f7420746f60448201527f6b656e206f776e6572206f7220617070726f76656420666f7220616c6c0000006064820152608490fd5b9050600052600560205260406000203360005260205260ff6040600020541684613776565b60405162461bcd60e51b815260206004820152602160248201527f4552433732313a20617070726f76616c20746f2063757272656e74206f776e656044820152603960f91b6064820152608490fd5b3360005260236020526138c460ff60406000205416613f97565b61374d565b5033600052602260205260ff6040600020541615613748565b60109150161583613741565b3461036c57602036600319011261036c576020612b96600435613f3a565b3461036c57600036600319011261036c57604051600060095461392e81613c48565b8084529060019081811690811561220a5750600114613957576103ab8461160481860382613cb8565b600960009081529250600080516020614c0a8339815191525b828410613988575050508101602001611604826121b1565b80546020858701810191909152909301928101613970565b3461036c57602036600319011261036c5760043563ffffffff60e01b811680910361036c576020906387c4f1bb60e01b8114908115613a2f575b81156139ec575b506040519015158152f35b6380ac58cd60e01b811491508115613a1e575b8115613a0d575b50826139e1565b6301ffc9a760e01b14905082613a06565b635b5e139f60e01b811491506139ff565b63152a902d60e11b811491506139da565b3461036c57604036600319011261036c57613a59613bc5565b60145460405163188c824d60e11b8152602435926020926001600160a01b03929084908290600490829087165afa9081156105ea57600091613b8d575b508233911603613b225716918215613ae657907f1ac3d1a84101f14877bbfafdcfd3b761954b8bb27df1f672b50d7e11d48d880c918360005260118252806040600020556116d6816012546146fb565b60405162461bcd60e51b8152600481018390526014602482015273496e76616c696420706f6f6c206164647265737360601b6044820152606490fd5b60405162461bcd60e51b815260048101849052603860248201527f4f6e6c79207468652070726f746f636f6c277320506f6f6c4465706c6f79657260448201527f2063616e2063616c6c20746869732066756e6374696f6e2e00000000000000006064820152608490fd5b613ba49150843d8611610702576106f48183613cb8565b85613a96565b3461036c57600036600319011261036c57602061278a6147aa565b600435906001600160a01b038216820361036c57565b602435906001600160a01b038216820361036c57565b60005b838110613c045750506000910152565b8181015183820152602001613bf4565b90602091613c2d81518092818552858086019101613bf1565b601f01601f1916010190565b60243590811515820361036c57565b90600182811c92168015613c78575b6020831014613c6257565b634e487b7160e01b600052602260045260246000fd5b91607f1691613c57565b60c081019081106001600160401b03821117610c8257604052565b602081019081106001600160401b03821117610c8257604052565b90601f801991011681019081106001600160401b03821117610c8257604052565b60405190600082600c5491613ced83613c48565b80835292600190818116908115613d635750600114613d16575b50613d1492500383613cb8565b565b600c60009081529150600080516020614bca8339815191525b848310613d485750613d14935050810160200138613d07565b81935090816020925483858a01015201910190918592613d2f565b905060209250613d1494915060ff191682840152151560051b82010138613d07565b606090600319011261036c576001600160a01b0390600435828116810361036c5791602435908116810361036c579060443590565b6001600160401b038111610c8257601f01601f191660200190565b929192613de182613dba565b91613def6040519384613cb8565b82948184528183011161036c578281602093846000960137010152565b9080601f8301121561036c57816020613e2793359101613dd5565b90565b6007546001600160a01b03163303613e3e57565b606460405162461bcd60e51b815260206004820152602060248201527f4f776e61626c653a2063616c6c6572206973206e6f7420746865206f776e65726044820152fd5b600780546001600160a01b039283166001600160a01b0319821681179092559091167f8be0079c531659141344cd1fd0a4f28419497f9722a3daafe3b4186f6b6457e0600080a3565b15613ed257565b60405162461bcd60e51b815260206004820152601860248201527f4552433732313a20696e76616c696420746f6b656e20494400000000000000006044820152606490fd5b6000908152600260205260409020546001600160a01b0316613e27811515613ecb565b600081815260026020526040902054613f5d906001600160a01b03161515613ecb565b6000908152600460205260409020546001600160a01b031690565b9081602091031261036c57516001600160a01b038116810361036c5790565b15613f9e57565b60405162461bcd60e51b815260206004820152603d60248201527f455243373231633a204f7065726174696f6e206f6e6c7920616c6c6f7765642060448201527f7468726f75676820617070726f766564206d61726b6574706c616365730000006064820152608490fd5b1561401057565b60405162461bcd60e51b815260206004820152602d60248201527f4552433732313a2063616c6c6572206973206e6f7420746f6b656e206f776e6560448201526c1c881bdc88185c1c1c9bdd9959609a1b6064820152608490fd5b906001600160a01b03808061407f84613f17565b169316918383149384156140b2575b50831561409c575b50505090565b6140a891929350613f3a565b1614388080614096565b909350600052600560205260406000208260005260205260ff60406000205416923861408e565b156140e057565b60405162461bcd60e51b815260206004820152602560248201527f4552433732313a207472616e736665722066726f6d20696e636f72726563742060448201526437bbb732b960d91b6064820152608490fd5b9061415b9161414184613f17565b6001600160a01b03939184169284929091831684146140d9565b169182156141f857816141789161417186613f17565b16146140d9565b7fddf252ad1be2c89b69c2b068fc378daa952ba7f163c4a11628f55a4df523b3ef60008481526004602052604081206bffffffffffffffffffffffff60a01b9081815416905583825260036020526040822060001981540190558482526040822060018154019055858252600260205284604083209182541617905580a4565b60405162461bcd60e51b8152602060048201526024808201527f4552433732313a207472616e7366657220746f20746865207a65726f206164646044820152637265737360e01b6064820152608490fd5b60809060208152603260208201527f4552433732313a207472616e7366657220746f206e6f6e20455243373231526560408201527131b2b4bb32b91034b6b83632b6b2b73a32b960711b60608201520190565b9293600093909291803b156143b6579484916142f69660405180948193630a85bd0160e11b9788845233600485015260018060a01b0380921660248501526044840152608060648401528260209b8c976084830190613c14565b0393165af1849181614372575b50614361575050503d600014614359573d61431d81613dba565b9061432b6040519283613cb8565b81528091833d92013e5b805191826143565760405162461bcd60e51b81528061186960048201614249565b01fd5b506060614335565b6001600160e01b0319161492509050565b9091508581813d83116143af575b61438a8183613cb8565b810103126143ab57516001600160e01b0319811681036143ab579038614303565b8480fd5b503d614380565b505050915050600190565b156143c857565b60405162461bcd60e51b815260206004820152600c60248201526b155b985d5d1a1bdc9a5e995960a21b6044820152606490fd5b600019811461130a5760010190565b60026006541461441c576002600655565b60405162461bcd60e51b815260206004820152601f60248201527f5265656e7472616e637947756172643a207265656e7472616e742063616c6c006044820152606490fd5b1561446857565b60405162461bcd60e51b815260206004820152601c60248201527f4552433732313a20746f6b656e20616c7265616479206d696e746564000000006044820152606490fd5b6001600160a01b03168015614562576000828152600260205260409020546144e1906001600160a01b031615155b15614461565b600082815260026020526040902054614504906001600160a01b031615156144db565b600081815260036020526040812060018154019055828152600260205260408120826bffffffffffffffffffffffff60a01b8254161790557fddf252ad1be2c89b69c2b068fc378daa952ba7f163c4a11628f55a4df523b3ef8180a4565b606460405162461bcd60e51b815260206004820152602060248201527f4552433732313a206d696e7420746f20746865207a65726f20616464726573736044820152fd5b8181029291811591840414171561130a57565b81156145c3570490565b634e487b7160e01b600052601260045260246000fd5b156145e057565b60405162461bcd60e51b815260206004820152602960248201527f43726561746f7220616c6c6f636174696f6e206d757374206265206465636c616044820152681c995908199a5c9cdd60ba1b6064820152608490fd5b1561463e57565b60405162461bcd60e51b8152602060048201526024808201527f50657263656e74616765206d757374206265206265747765656e203120616e646044820152630203130360e41b6064820152608490fd5b9190820391821161130a57565b156146a357565b60405162461bcd60e51b815260206004820152602a60248201527f526564756374696f6e20616d6f756e74206d7573742062652067726561746572604482015269207468616e207a65726f60b01b6064820152608490fd5b9190820180921161130a57565b80156147a257601d54601c5490601e549161472c61472684846145a6565b826146fb565b421061473d57505050506000601f55565b6147559281421060001461478a57505060009061468f565b9081156147815781614766916146fb565b60001981019190821161130a5761477c916145b9565b601f55565b50506000601f55565b61479761479c924261468f565b6145b9565b9061468f565b506000601f55565b600460135416156147ea57601c5442106147ea57601b546147cd57613e276147ef565b6147d56147ef565b601a5490818110156147e5575090565b905090565b600090565b6147fe61132d601c544261468f565b6001810180911161130a57601d5480821161483b575b8103614821575060175490565b61482d90601f546145a6565b6017548082116147e5575090565b905080614814565b600460135416156147ea576148566147aa565b601954808211156148ce5780821061487157613e279161468f565b60405162461bcd60e51b815260206004820152602f60248201527f41726974686d6574696320756e646572666c6f7720696e20676574417661696c60448201526e18589b1950dc99585d1bdc935a5b9d608a1b6064820152608490fd5b5050600090565b6000818152600260205260409020546001600160a01b031615614b74576020806013541615614b6a57604051600b5492600061491085613c48565b8084528385810192600197878982169182600014614b4f575050600114614b03575b61493e92500384613cb8565b825160009015614aeb5750600091807a184f03e93ff9f4daa797ed6e38ed64bf6a1f0100000000000000008181811015614add575b5050856d04ee2d6d415b85acef810000000080841015614acf575b5050662386f26fc1000080831015614ac0575b506305f5e10080831015614ab1575b5061271080831015614aa2575b506064821015614a92575b86600a80931015614a88575b840196908160216149fd6149e78b613dba565b9a6149f56040519c8d613cb8565b808c52613dba565b8a8a019790601f19013689378a0101905b614a52575b5050505090614a3794614a46613e2795949360405197889551809288880190613bf1565b84019151809386840190613bf1565b01038084520182613cb8565b600019019083906f181899199a1a9b1b9c1cb0b131b232b360811b8282061a835304918215614a8357919082614a0e565b614a13565b90930192866149d4565b92906064600291049101926149c8565b600491949204910192386149bd565b600891949204910192386149b0565b601091949204910192386149a1565b94019390910490853861498e565b604095500491503880614973565b94505050505060405190614afe82613c9d565b815290565b5050600b6000528385600080516020614c2a833981519152886000915b858310614b3657505061493e9350820101614932565b80919294505483858a0101520191018690888793614b20565b60ff1916865261493e94151560051b84010191506149329050565b5050613e27613cd9565b60405162461bcd60e51b815260206004820152602760248201527f4552433732313a2055524920717565727920666f72206e6f6e6578697374656e6044820152663a103a37b5b2b760c91b6064820152608490fdfedf6966c971051c3d54ec59162606531493a51404a002842f56009d7e5cf4a8c7c65a7bb8d6351c1cf70c95a316cc6a92839c986682d98bc35f958f4883f9d2a86e1540171b6c0c960b71a7020d9f60077f6af931a8bbf590da0223dacf75c7af0175b7a638427703f0dbe7bb9bbf987a2551717b34e79f33b5b1008d1fa01db9a264697066735822122050a3a34a8bccd10958cd2033b6baf7e26220c0a1e27f818bb9b45ff209d151d964736f6c63430008130033",
  "linkReferences": {},
  "deployedLinkReferences": {}
}