{
  "_format": "hh-sol-artifact-1",
  "contractName": "ERC721Prize",
  "sourceName": "contracts/ERC721Prize.sol",
  "abi": [
    {
      "inputs": [
        {
          "internalType": "address",
          "name": "_factory",
          "type": "address"
        }
      ],
      "stateMutability": "nonpayable",
      "type": "constructor"
    },
    {
      "inputs": [],
      "name": "ExceedsMaxSupply",
      "type": "error"
    },
    {
      "inputs": [],
      "name": "UnauthorizedMinter",
      "type": "error"
    },
    {
      "inputs": [],
      "name": "ZeroQuantity",
      "type": "error"
    },
    {
      "anonymous": false,
      "inputs": [
        {
          "indexed": true,
          "internalType": "address",
          "name": "owner",
          "type": "address"
        },
        {
          "indexed": true,
          "internalType": "address",
          "name": "approved",
          "type": "address"
        },
        {
          "indexed": true,
          "internalType": "uint256",
          "name": "tokenId",
          "type": "uint256"
        }
      ],
      "name": "Approval",
      "type": "event"
    },
    {
      "anonymous": false,
      "inputs": [
        {
          "indexed": true,
          "internalType": "address",
          "name": "owner",
          "type": "address"
        },
        {
          "indexed": true,
          "internalType": "address",
          "name": "operator",
          "type": "address"
        },
        {
          "indexed": false,
          "internalType": "bool",
          "name": "approved",
          "type": "bool"
        }
      ],
      "name": "ApprovalForAll",
      "type": "event"
    },
    {
      "anonymous": false,
      "inputs": [
        {
          "indexed": false,
          "internalType": "string",
          "name": "newBaseURI",
          "type": "string"
        }
      ],
      "name": "BaseURIUpdated",
      "type": "event"
    },
    {
      "anonymous": false,
      "inputs": [],
      "name": "CollectionRevealed",
      "type": "event"
    },
    {
      "anonymous": false,
      "inputs": [
        {
          "indexed": false,
          "internalType": "uint256",
          "name": "allocation",
          "type": "uint256"
        }
      ],
      "name": "CreatorAllocationDeclared",
      "type": "event"
    },
    {
      "anonymous": false,
      "inputs": [
        {
          "indexed": false,
          "internalType": "uint256",
          "name": "newAllocation",
          "type": "uint256"
        },
        {
          "indexed": false,
          "internalType": "uint256",
          "name": "reductionAmount",
          "type": "uint256"
        }
      ],
      "name": "CreatorAllocationReduced",
      "type": "event"
    },
    {
      "anonymous": false,
      "inputs": [],
      "name": "EmergencyBypassDisabled",
      "type": "event"
    },
    {
      "anonymous": false,
      "inputs": [],
      "name": "EmergencyBypassEnabled",
      "type": "event"
    },
    {
      "anonymous": false,
      "inputs": [
        {
          "indexed": true,
          "internalType": "address",
          "name": "kol",
          "type": "address"
        },
        {
          "indexed": false,
          "internalType": "uint256",
          "name": "poolLimit",
          "type": "uint256"
        },
        {
          "indexed": false,
          "internalType": "uint256",
          "name": "enforcedSlotFee",
          "type": "uint256"
        },
        {
          "indexed": false,
          "internalType": "uint256",
          "name": "winnerLimit",
          "type": "uint256"
        }
      ],
      "name": "KOLApproved",
      "type": "event"
    },
    {
      "anonymous": false,
      "inputs": [
        {
          "indexed": true,
          "internalType": "address",
          "name": "kol",
          "type": "address"
        },
        {
          "indexed": true,
          "internalType": "address",
          "name": "pool",
          "type": "address"
        }
      ],
      "name": "KOLPoolCreated",
      "type": "event"
    },
    {
      "anonymous": false,
      "inputs": [
        {
          "indexed": true,
          "internalType": "address",
          "name": "kol",
          "type": "address"
        }
      ],
      "name": "KOLRevoked",
      "type": "event"
    },
    {
      "anonymous": false,
      "inputs": [
        {
          "indexed": true,
          "internalType": "address",
          "name": "marketplace",
          "type": "address"
        }
      ],
      "name": "MarketplaceAdded",
      "type": "event"
    },
    {
      "anonymous": false,
      "inputs": [
        {
          "indexed": true,
          "internalType": "address",
          "name": "marketplace",
          "type": "address"
        }
      ],
      "name": "MarketplaceRemoved",
      "type": "event"
    },
    {
      "anonymous": false,
      "inputs": [
        {
          "indexed": true,
          "internalType": "address",
          "name": "pool",
          "type": "address"
        },
        {
          "indexed": false,
          "internalType": "uint256",
          "name": "allocation",
          "type": "uint256"
        }
      ],
      "name": "MinterAllocationRestored",
      "type": "event"
    },
    {
      "anonymous": false,
      "inputs": [
        {
          "indexed": true,
          "internalType": "address",
          "name": "pool",
          "type": "address"
        },
        {
          "indexed": false,
          "internalType": "uint256",
          "name": "allocation",
          "type": "uint256"
        }
      ],
      "name": "MinterAndAllocationSet",
      "type": "event"
    },
    {
      "anonymous": false,
      "inputs": [
        {
          "indexed": true,
          "internalType": "address",
          "name": "previousOwner",
          "type": "address"
        },
        {
          "indexed": true,
          "internalType": "address",
          "name": "newOwner",
          "type": "address"
        }
      ],
      "name": "OwnershipTransferred",
      "type": "event"
    },
    {
      "anonymous": false,
      "inputs": [
        {
          "indexed": true,
          "internalType": "address",
          "name": "winner",
          "type": "address"
        },
        {
          "indexed": false,
          "internalType": "uint256",
          "name": "tokenId",
          "type": "uint256"
        }
      ],
      "name": "PrizeMinted",
      "type": "event"
    },
    {
      "anonymous": false,
      "inputs": [
        {
          "indexed": true,
          "internalType": "address",
          "name": "account",
          "type": "address"
        },
        {
          "indexed": false,
          "internalType": "bool",
          "name": "exempt",
          "type": "bool"
        }
      ],
      "name": "RoyaltyEnforcementExemptionUpdated",
      "type": "event"
    },
    {
      "anonymous": false,
      "inputs": [
        {
          "indexed": false,
          "internalType": "bool",
          "name": "enabled",
          "type": "bool"
        }
      ],
      "name": "RoyaltyEnforcementToggled",
      "type": "event"
    },
    {
      "anonymous": false,
      "inputs": [
        {
          "indexed": false,
          "internalType": "uint256",
          "name": "newMaxSupply",
          "type": "uint256"
        },
        {
          "indexed": false,
          "internalType": "uint256",
          "name": "newCreatorAllocation",
          "type": "uint256"
        }
      ],
      "name": "SupplyReduced",
      "type": "event"
    },
    {
      "anonymous": false,
      "inputs": [
        {
          "indexed": true,
          "internalType": "address",
          "name": "from",
          "type": "address"
        },
        {
          "indexed": true,
          "internalType": "address",
          "name": "to",
          "type": "address"
        },
        {
          "indexed": true,
          "internalType": "uint256",
          "name": "tokenId",
          "type": "uint256"
        }
      ],
      "name": "Transfer",
      "type": "event"
    },
    {
      "anonymous": false,
      "inputs": [
        {
          "indexed": false,
          "internalType": "uint256",
          "name": "cliffEnd",
          "type": "uint256"
        },
        {
          "indexed": false,
          "internalType": "uint256",
          "name": "numberOfUnlocks",
          "type": "uint256"
        },
        {
          "indexed": false,
          "internalType": "uint256",
          "name": "durationBetweenUnlocks",
          "type": "uint256"
        },
        {
          "indexed": false,
          "internalType": "uint256",
          "name": "amountPerUnlock",
          "type": "uint256"
        }
      ],
      "name": "VestingConfigured",
      "type": "event"
    },
    {
      "inputs": [
        {
          "internalType": "address",
          "name": "marketplace",
          "type": "address"
        }
      ],
      "name": "addAllowedMarketplace",
      "outputs": [],
      "stateMutability": "nonpayable",
      "type": "function"
    },
    {
      "inputs": [
        {
          "internalType": "address",
          "name": "",
          "type": "address"
        }
      ],
      "name": "allocatedSupply",
      "outputs": [
        {
          "internalType": "uint256",
          "name": "",
          "type": "uint256"
        }
      ],
      "stateMutability": "view",
      "type": "function"
    },
    {
      "inputs": [
        {
          "internalType": "address",
          "name": "to",
          "type": "address"
        },
        {
          "internalType": "uint256",
          "name": "tokenId",
          "type": "uint256"
        }
      ],
      "name": "approve",
      "outputs": [],
      "stateMutability": "nonpayable",
      "type": "function"
    },
    {
      "inputs": [
        {
          "internalType": "address",
          "name": "_kol",
          "type": "address"
        },
        {
          "internalType": "uint256",
          "name": "_poolLimit",
          "type": "uint256"
        },
        {
          "internalType": "uint256",
          "name": "_enforcedSlotFee",
          "type": "uint256"
        },
        {
          "internalType": "uint256",
          "name": "_winnerLimit",
          "type": "uint256"
        }
      ],
      "name": "approveKOL",
      "outputs": [],
      "stateMutability": "nonpayable",
      "type": "function"
    },
    {
      "inputs": [],
      "name": "availableSupply",
      "outputs": [
        {
          "internalType": "uint256",
          "name": "",
          "type": "uint256"
        }
      ],
      "stateMutability": "view",
      "type": "function"
    },
    {
      "inputs": [
        {
          "internalType": "address",
          "name": "owner",
          "type": "address"
        }
      ],
      "name": "balanceOf",
      "outputs": [
        {
          "internalType": "uint256",
          "name": "",
          "type": "uint256"
        }
      ],
      "stateMutability": "view",
      "type": "function"
    },
    {
      "inputs": [
        {
          "internalType": "uint256",
          "name": "cliffEnd",
          "type": "uint256"
        },
        {
          "internalType": "uint256",
          "name": "numberOfUnlocks",
          "type": "uint256"
        },
        {
          "internalType": "uint256",
          "name": "durationBetweenUnlocks",
          "type": "uint256"
        }
      ],
      "name": "configureCreatorVesting",
      "outputs": [],
      "stateMutability": "nonpayable",
      "type": "function"
    },
    {
      "inputs": [],
      "name": "creationTime",
      "outputs": [
        {
          "internalType": "uint256",
          "name": "",
          "type": "uint256"
        }
      ],
      "stateMutability": "view",
      "type": "function"
    },
    {
      "inputs": [],
      "name": "creatorAllocation",
      "outputs": [
        {
          "internalType": "uint256",
          "name": "",
          "type": "uint256"
        }
      ],
      "stateMutability": "view",
      "type": "function"
    },
    {
      "inputs": [],
      "name": "creatorAllocationDeclared",
      "outputs": [
        {
          "internalType": "bool",
          "name": "",
          "type": "bool"
        }
      ],
      "stateMutability": "view",
      "type": "function"
    },
    {
      "inputs": [],
      "name": "creatorClaimedCount",
      "outputs": [
        {
          "internalType": "uint256",
          "name": "",
          "type": "uint256"
        }
      ],
      "stateMutability": "view",
      "type": "function"
    },
    {
      "inputs": [
        {
          "internalType": "address",
          "name": "to",
          "type": "address"
        },
        {
          "internalType": "uint256",
          "name": "quantity",
          "type": "uint256"
        }
      ],
      "name": "creatorMint",
      "outputs": [],
      "stateMutability": "nonpayable",
      "type": "function"
    },
    {
      "inputs": [
        {
          "internalType": "uint256",
          "name": "_percentage",
          "type": "uint256"
        }
      ],
      "name": "cutSupply",
      "outputs": [],
      "stateMutability": "nonpayable",
      "type": "function"
    },
    {
      "inputs": [
        {
          "internalType": "uint256",
          "name": "_percentage",
          "type": "uint256"
        }
      ],
      "name": "declareCreatorAllocation",
      "outputs": [],
      "stateMutability": "nonpayable",
      "type": "function"
    },
    {
      "inputs": [],
      "name": "disableEmergencyBypass",
      "outputs": [],
      "stateMutability": "nonpayable",
      "type": "function"
    },
    {
      "inputs": [],
      "name": "emergencyBypassEnabled",
      "outputs": [
        {
          "internalType": "bool",
          "name": "",
          "type": "bool"
        }
      ],
      "stateMutability": "view",
      "type": "function"
    },
    {
      "inputs": [],
      "name": "enableEmergencyBypass",
      "outputs": [],
      "stateMutability": "nonpayable",
      "type": "function"
    },
    {
      "inputs": [
        {
          "internalType": "uint256",
          "name": "tokenId",
          "type": "uint256"
        }
      ],
      "name": "getApproved",
      "outputs": [
        {
          "internalType": "address",
          "name": "",
          "type": "address"
        }
      ],
      "stateMutability": "view",
      "type": "function"
    },
    {
      "inputs": [],
      "name": "getAvailableCreatorMint",
      "outputs": [
        {
          "internalType": "uint256",
          "name": "",
          "type": "uint256"
        }
      ],
      "stateMutability": "view",
      "type": "function"
    },
    {
      "inputs": [
        {
          "internalType": "address",
          "name": "_kol",
          "type": "address"
        }
      ],
      "name": "getKOLApprovalDetails",
      "outputs": [
        {
          "internalType": "bool",
          "name": "approved",
          "type": "bool"
        },
        {
          "internalType": "uint256",
          "name": "poolLimit",
          "type": "uint256"
        },
        {
          "internalType": "uint256",
          "name": "enforcedSlotFee",
          "type": "uint256"
        },
        {
          "internalType": "uint256",
          "name": "winnerLimit",
          "type": "uint256"
        },
        {
          "internalType": "uint256",
          "name": "poolCount",
          "type": "uint256"
        },
        {
          "internalType": "uint256",
          "name": "winnerCount",
          "type": "uint256"
        }
      ],
      "stateMutability": "view",
      "type": "function"
    },
    {
      "inputs": [],
      "name": "getUnlockedCreatorAllocation",
      "outputs": [
        {
          "internalType": "uint256",
          "name": "",
          "type": "uint256"
        }
      ],
      "stateMutability": "view",
      "type": "function"
    },
    {
      "inputs": [
        {
          "internalType": "address",
          "name": "_kol",
          "type": "address"
        },
        {
          "internalType": "uint256",
          "name": "_winnersCount",
          "type": "uint256"
        }
      ],
      "name": "incrementKOLApprovedCounts",
      "outputs": [],
      "stateMutability": "nonpayable",
      "type": "function"
    },
    {
      "inputs": [
        {
          "internalType": "string",
          "name": "name_",
          "type": "string"
        },
        {
          "internalType": "string",
          "name": "symbol_",
          "type": "string"
        },
        {
          "internalType": "string",
          "name": "baseURI",
          "type": "string"
        },
        {
          "internalType": "address",
          "name": "initialOwner",
          "type": "address"
        },
        {
          "internalType": "address",
          "name": "_protocolManager",
          "type": "address"
        },
        {
          "internalType": "uint256",
          "name": "_royaltyPercentage",
          "type": "uint256"
        },
        {
          "internalType": "address",
          "name": "_royaltyRecipient",
          "type": "address"
        },
        {
          "internalType": "uint256",
          "name": "_maxSupply",
          "type": "uint256"
        },
        {
          "internalType": "enum PrizeTypes.RevealType",
          "name": "_revealType",
          "type": "uint8"
        },
        {
          "internalType": "string",
          "name": "_unrevealedBaseURI",
          "type": "string"
        },
        {
          "internalType": "uint256",
          "name": "_revealTime",
          "type": "uint256"
        }
      ],
      "name": "initialize",
      "outputs": [],
      "stateMutability": "nonpayable",
      "type": "function"
    },
    {
      "inputs": [
        {
          "internalType": "address",
          "name": "owner",
          "type": "address"
        },
        {
          "internalType": "address",
          "name": "operator",
          "type": "address"
        }
      ],
      "name": "isApprovedForAll",
      "outputs": [
        {
          "internalType": "bool",
          "name": "",
          "type": "bool"
        }
      ],
      "stateMutability": "view",
      "type": "function"
    },
    {
      "inputs": [
        {
          "internalType": "address",
          "name": "marketplace",
          "type": "address"
        }
      ],
      "name": "isMarketplaceAllowed",
      "outputs": [
        {
          "internalType": "bool",
          "name": "",
          "type": "bool"
        }
      ],
      "stateMutability": "view",
      "type": "function"
    },
    {
      "inputs": [
        {
          "internalType": "address",
          "name": "",
          "type": "address"
        }
      ],
      "name": "isMinter",
      "outputs": [
        {
          "internalType": "bool",
          "name": "",
          "type": "bool"
        }
      ],
      "stateMutability": "view",
      "type": "function"
    },
    {
      "inputs": [],
      "name": "isRevealed",
      "outputs": [
        {
          "internalType": "bool",
          "name": "",
          "type": "bool"
        }
      ],
      "stateMutability": "view",
      "type": "function"
    },
    {
      "inputs": [
        {
          "internalType": "address",
          "name": "account",
          "type": "address"
        }
      ],
      "name": "isRoyaltyEnforcementExempt",
      "outputs": [
        {
          "internalType": "bool",
          "name": "",
          "type": "bool"
        }
      ],
      "stateMutability": "view",
      "type": "function"
    },
    {
      "inputs": [
        {
          "internalType": "address",
          "name": "",
          "type": "address"
        }
      ],
      "name": "kolApprovals",
      "outputs": [
        {
          "internalType": "bool",
          "name": "approved",
          "type": "bool"
        },
        {
          "internalType": "uint256",
          "name": "poolLimit",
          "type": "uint256"
        },
        {
          "internalType": "uint256",
          "name": "enforcedSlotFee",
          "type": "uint256"
        },
        {
          "internalType": "uint256",
          "name": "winnerLimit",
          "type": "uint256"
        },
        {
          "internalType": "uint256",
          "name": "poolCount",
          "type": "uint256"
        },
        {
          "internalType": "uint256",
          "name": "winnerCount",
          "type": "uint256"
        }
      ],
      "stateMutability": "view",
      "type": "function"
    },
    {
      "inputs": [],
      "name": "maxSupply",
      "outputs": [
        {
          "internalType": "uint256",
          "name": "",
          "type": "uint256"
        }
      ],
      "stateMutability": "view",
      "type": "function"
    },
    {
      "inputs": [
        {
          "internalType": "address",
          "name": "to",
          "type": "address"
        },
        {
          "internalType": "uint256",
          "name": "quantity",
          "type": "uint256"
        }
      ],
      "name": "mint",
      "outputs": [],
      "stateMutability": "nonpayable",
      "type": "function"
    },
    {
      "inputs": [],
      "name": "name",
      "outputs": [
        {
          "internalType": "string",
          "name": "",
          "type": "string"
        }
      ],
      "stateMutability": "view",
      "type": "function"
    },
    {
      "inputs": [
        {
          "internalType": "address",
          "name": "",
          "type": "address"
        },
        {
          "internalType": "address",
          "name": "",
          "type": "address"
        },
        {
          "internalType": "uint256",
          "name": "",
          "type": "uint256"
        },
        {
          "internalType": "bytes",
          "name": "",
          "type": "bytes"
        }
      ],
      "name": "onERC721Received",
      "outputs": [
        {
          "internalType": "bytes4",
          "name": "",
          "type": "bytes4"
        }
      ],
      "stateMutability": "pure",
      "type": "function"
    },
    {
      "inputs": [],
      "name": "owner",
      "outputs": [
        {
          "internalType": "address",
          "name": "",
          "type": "address"
        }
      ],
      "stateMutability": "view",
      "type": "function"
    },
    {
      "inputs": [
        {
          "internalType": "uint256",
          "name": "tokenId",
          "type": "uint256"
        }
      ],
      "name": "ownerOf",
      "outputs": [
        {
          "internalType": "address",
          "name": "",
          "type": "address"
        }
      ],
      "stateMutability": "view",
      "type": "function"
    },
    {
      "inputs": [],
      "name": "protocolManager",
      "outputs": [
        {
          "internalType": "address",
          "name": "",
          "type": "address"
        }
      ],
      "stateMutability": "view",
      "type": "function"
    },
    {
      "inputs": [
        {
          "internalType": "uint256",
          "name": "_percentage",
          "type": "uint256"
        }
      ],
      "name": "reduceCreatorAllocation",
      "outputs": [],
      "stateMutability": "nonpayable",
      "type": "function"
    },
    {
      "inputs": [
        {
          "internalType": "address",
          "name": "marketplace",
          "type": "address"
        }
      ],
      "name": "removeAllowedMarketplace",
      "outputs": [],
      "stateMutability": "nonpayable",
      "type": "function"
    },
    {
      "inputs": [],
      "name": "renounceOwnership",
      "outputs": [],
      "stateMutability": "nonpayable",
      "type": "function"
    },
    {
      "inputs": [
        {
          "internalType": "address",
          "name": "pool",
          "type": "address"
        }
      ],
      "name": "restoreMinterAllocation",
      "outputs": [],
      "stateMutability": "nonpayable",
      "type": "function"
    },
    {
      "inputs": [],
      "name": "reveal",
      "outputs": [],
      "stateMutability": "nonpayable",
      "type": "function"
    },
    {
      "inputs": [],
      "name": "revealTime",
      "outputs": [
        {
          "internalType": "uint256",
          "name": "",
          "type": "uint256"
        }
      ],
      "stateMutability": "view",
      "type": "function"
    },
    {
      "inputs": [],
      "name": "revealType",
      "outputs": [
        {
          "internalType": "enum PrizeTypes.RevealType",
          "name": "",
          "type": "uint8"
        }
      ],
      "stateMutability": "view",
      "type": "function"
    },
    {
      "inputs": [
        {
          "internalType": "address",
          "name": "_kol",
          "type": "address"
        }
      ],
      "name": "revokeKOL",
      "outputs": [],
      "stateMutability": "nonpayable",
      "type": "function"
    },
    {
      "inputs": [],
      "name": "royaltyEnforcementEnabled",
      "outputs": [
        {
          "internalType": "bool",
          "name": "",
          "type": "bool"
        }
      ],
      "stateMutability": "view",
      "type": "function"
    },
    {
      "inputs": [
        {
          "internalType": "uint256",
          "name": "",
          "type": "uint256"
        },
        {
          "internalType": "uint256",
          "name": "salePrice",
          "type": "uint256"
        }
      ],
      "name": "royaltyInfo",
      "outputs": [
        {
          "internalType": "address",
          "name": "",
          "type": "address"
        },
        {
          "internalType": "uint256",
          "name": "",
          "type": "uint256"
        }
      ],
      "stateMutability": "view",
      "type": "function"
    },
    {
      "inputs": [],
      "name": "royaltyPercentage",
      "outputs": [
        {
          "internalType": "uint256",
          "name": "",
          "type": "uint256"
        }
      ],
      "stateMutability": "view",
      "type": "function"
    },
    {
      "inputs": [],
      "name": "royaltyRecipient",
      "outputs": [
        {
          "internalType": "address",
          "name": "",
          "type": "address"
        }
      ],
      "stateMutability": "view",
      "type": "function"
    },
    {
      "inputs": [
        {
          "internalType": "address",
          "name": "from",
          "type": "address"
        },
        {
          "internalType": "address",
          "name": "to",
          "type": "address"
        },
        {
          "internalType": "uint256",
          "name": "tokenId",
          "type": "uint256"
        }
      ],
      "name": "safeTransferFrom",
      "outputs": [],
      "stateMutability": "nonpayable",
      "type": "function"
    },
    {
      "inputs": [
        {
          "internalType": "address",
          "name": "from",
          "type": "address"
        },
        {
          "internalType": "address",
          "name": "to",
          "type": "address"
        },
        {
          "internalType": "uint256",
          "name": "tokenId",
          "type": "uint256"
        },
        {
          "internalType": "bytes",
          "name": "data",
          "type": "bytes"
        }
      ],
      "name": "safeTransferFrom",
      "outputs": [],
      "stateMutability": "nonpayable",
      "type": "function"
    },
    {
      "inputs": [
        {
          "internalType": "address",
          "name": "operator",
          "type": "address"
        },
        {
          "internalType": "bool",
          "name": "approved",
          "type": "bool"
        }
      ],
      "name": "setApprovalForAll",
      "outputs": [],
      "stateMutability": "nonpayable",
      "type": "function"
    },
    {
      "inputs": [
        {
          "internalType": "string",
          "name": "newBaseURI",
          "type": "string"
        }
      ],
      "name": "setBaseURI",
      "outputs": [],
      "stateMutability": "nonpayable",
      "type": "function"
    },
    {
      "inputs": [
        {
          "internalType": "address",
          "name": "pool",
          "type": "address"
        },
        {
          "internalType": "uint256",
          "name": "allocation",
          "type": "uint256"
        }
      ],
      "name": "setMinterAndAllocation",
      "outputs": [],
      "stateMutability": "nonpayable",
      "type": "function"
    },
    {
      "inputs": [
        {
          "internalType": "uint256",
          "name": "_royaltyPercentage",
          "type": "uint256"
        },
        {
          "internalType": "address",
          "name": "_royaltyRecipient",
          "type": "address"
        }
      ],
      "name": "setRoyalty",
      "outputs": [],
      "stateMutability": "nonpayable",
      "type": "function"
    },
    {
      "inputs": [
        {
          "internalType": "address",
          "name": "account",
          "type": "address"
        },
        {
          "internalType": "bool",
          "name": "exempt",
          "type": "bool"
        }
      ],
      "name": "setRoyaltyEnforcementExemption",
      "outputs": [],
      "stateMutability": "nonpayable",
      "type": "function"
    },
    {
      "inputs": [],
      "name": "supplyCutTimestamp",
      "outputs": [
        {
          "internalType": "uint256",
          "name": "",
          "type": "uint256"
        }
      ],
      "stateMutability": "view",
      "type": "function"
    },
    {
      "inputs": [
        {
          "internalType": "bytes4",
          "name": "interfaceId",
          "type": "bytes4"
        }
      ],
      "name": "supportsInterface",
      "outputs": [
        {
          "internalType": "bool",
          "name": "",
          "type": "bool"
        }
      ],
      "stateMutability": "view",
      "type": "function"
    },
    {
      "inputs": [],
      "name": "symbol",
      "outputs": [
        {
          "internalType": "string",
          "name": "",
          "type": "string"
        }
      ],
      "stateMutability": "view",
      "type": "function"
    },
    {
      "inputs": [
        {
          "internalType": "bool",
          "name": "enabled",
          "type": "bool"
        }
      ],
      "name": "toggleRoyaltyEnforcement",
      "outputs": [],
      "stateMutability": "nonpayable",
      "type": "function"
    },
    {
      "inputs": [
        {
          "internalType": "uint256",
          "name": "tokenId",
          "type": "uint256"
        }
      ],
      "name": "tokenURI",
      "outputs": [
        {
          "internalType": "string",
          "name": "",
          "type": "string"
        }
      ],
      "stateMutability": "view",
      "type": "function"
    },
    {
      "inputs": [],
      "name": "totalAllocatedSupply",
      "outputs": [
        {
          "internalType": "uint256",
          "name": "",
          "type": "uint256"
        }
      ],
      "stateMutability": "view",
      "type": "function"
    },
    {
      "inputs": [],
      "name": "totalSupply",
      "outputs": [
        {
          "internalType": "uint256",
          "name": "",
          "type": "uint256"
        }
      ],
      "stateMutability": "view",
      "type": "function"
    },
    {
      "inputs": [
        {
          "internalType": "address",
          "name": "from",
          "type": "address"
        },
        {
          "internalType": "address",
          "name": "to",
          "type": "address"
        },
        {
          "internalType": "uint256",
          "name": "tokenId",
          "type": "uint256"
        }
      ],
      "name": "transferFrom",
      "outputs": [],
      "stateMutability": "nonpayable",
      "type": "function"
    },
    {
      "inputs": [
        {
          "internalType": "address",
          "name": "newOwner",
          "type": "address"
        }
      ],
      "name": "transferOwnership",
      "outputs": [],
      "stateMutability": "nonpayable",
      "type": "function"
    },
    {
      "inputs": [],
      "name": "unlockedAmountAtCut",
      "outputs": [
        {
          "internalType": "uint256",
          "name": "",
          "type": "uint256"
        }
      ],
      "stateMutability": "view",
      "type": "function"
    },
    {
      "inputs": [],
      "name": "unrevealedBaseURI",
      "outputs": [
        {
          "internalType": "string",
          "name": "",
          "type": "string"
        }
      ],
      "stateMutability": "view",
      "type": "function"
    },
    {
      "inputs": [],
      "name": "vestingConfig",
      "outputs": [
        {
          "internalType": "uint256",
          "name": "cliffEnd",
          "type": "uint256"
        },
        {
          "internalType": "uint256",
          "name": "numberOfUnlocks",
          "type": "uint256"
        },
        {
          "internalType": "uint256",
          "name": "durationBetweenUnlocks",
          "type": "uint256"
        },
        {
          "internalType": "uint256",
          "name": "amountPerUnlock",
          "type": "uint256"
        }
      ],
      "stateMutability": "view",
      "type": "function"
    },
    {
      "inputs": [],
      "name": "vestingConfigured",
      "outputs": [
        {
          "internalType": "bool",
          "name": "",
          "type": "bool"
        }
      ],
      "stateMutability": "view",
      "type": "function"
    },
    {
      "inputs": [
        {
          "internalType": "address",
          "name": "",
          "type": "address"
        }
      ],
      "name": "walletMintedCount",
      "outputs": [
        {
          "internalType": "uint256",
          "name": "",
          "type": "uint256"
        }
      ],
      "stateMutability": "view",
      "type": "function"
    }
  ],
  "bytecode": "0x60a0346200038257601f906001600160401b0390601f196200504438819003858101831684018581118582101762000387578492829160405283396020938491810103126200038257516001600160a01b039490939085851685036200038257620000696200039d565b926000948585526200007a6200039d565b9186835285518581116200036e578754966001978881811c9116801562000363575b858210146200034f57908187849311620002fc575b5084908783116001146200029b578a926200028f575b5050600019600383901b1c191690871b1787555b82519485116200027b5785548681811c9116801562000270575b838210146200025c5790818587969594931162000203575b50819385116001146200019e575050859262000192575b5050600019600383901b1c191690821b1781555b600655600754903360018060a01b03198316176007557f8be0079c531659141344cd1fd0a4f28419497f9722a3daafe3b4186f6b6457e0604051943393169180a3608052614c869081620003be82396080518161241c0152f35b01519050388062000124565b869593929193168588528388209388905b828210620001e95750508411620001cf575b505050811b01815562000138565b015160001960f88460031b161c19169055388080620001c1565b8484015186558897909501949384019390810190620001af565b9091929394508688528288208580880160051c82019285891062000252575b9188978a9297969594930160051c01915b828110620002435750506200010d565b8a815588975089910162000233565b9250819262000222565b634e487b7160e01b88526022600452602488fd5b90607f1690620000f5565b634e487b7160e01b87526041600452602487fd5b015190503880620000c7565b90848a9416918b8052868c20928c5b88828210620002e55750508411620002cb575b505050811b018755620000db565b015160001960f88460031b161c19169055388080620002bd565b8385015186558d97909501949384019301620002aa565b909150898052848a208780850160051c82019287861062000345575b918b91869594930160051c01915b82811062000336575050620000b1565b8c81558594508b910162000326565b9250819262000318565b634e487b7160e01b8a52602260045260248afd5b90607f16906200009c565b634e487b7160e01b88526041600452602488fd5b600080fd5b634e487b7160e01b600052604160045260246000fd5b60405190602082016001600160401b03811183821017620003875760405256fe6080604052600436101561001257600080fd5b60003560e01c80620f212514613bf657806227675f14613a7857806301ffc9a7146139d857806306fdde0314613944578063081812fc14613926578063095ea7b31461374c57806310122488146136a857806310c7e4a214613669578063150b7a021461360057806317f639791461353a57806318160ddd1461351c578063182ee485146132be5780631cdccaff146132a2578063219172db1461328457806323b872dd14613200578063249f851b146131c657806324e0eba9146131615780632633f8b11461309e578063290f54ae146130805780632a55205a1461304457806340c10f1914612eac57806340e3276b14612e1457806342842e0e14612d755780634c00de8214612d4c57806354214f6914612d2a57806355f804b314612b81578063599c64de1461234a5780636352211e1461231a578063693866e3146122ff57806369d42c5e146120ab57806370a0823114612014578063715018a614611fb757806371c3335914611f785780637ecc2b5614611ed957806381ae390014611ebb57806383e46c5614611e985780638a71bb2d14611e7a5780638da5cb5b14611e515780638f152d0e14611e2e5780639015d26b14611e0b57806395110003146119c757806395d89b411461190b57806397c82b66146117fb578063a22cb465146116c4578063a2af294f1461169a578063a36227351461167c578063a475b5dd146114f3578063a7df596e146113c4578063aa271e1a14611385578063ab4b66921461135c578063b456518014611230578063b5f1f24714611008578063b88d4fde14610f08578063ba829d7114610eea578063c705fea214610d32578063c87b56dd14610cff578063cee8e0fe14610cdc578063d0aa96c014610c7d578063d5abeb0114610c5f578063d6b6e20314610c25578063d8270dce14610c07578063e059b9c014610be9578063e985e9c514610b93578063f2fde38b14610b04578063f4c4456914610713578063faf5a1241461043d578063fbddc055146103b9578063fbf3aa211461037c5763fcf2e55f1461031157600080fd5b346103775760203660031901126103775761032a613c11565b610332613e76565b6001600160a01b03166000818152600860205260408120805460ff191690557ffeb031b2d93541150a8571bc111b4dab4d98dfef15bcbe6e89653e385a5d980a9080a2005b600080fd5b3461037757600036600319011261037757601d54601e54601f546020805460408051958652918501939093528301526060820152608090f35b0390f35b34610377576020366003190112610377576001600160a01b036103da613c11565b166000526008602052604060002060ff8154166103b560018301549260028101549060038101546005600483015492015492604051968796879260a094919796959260c08501981515855260208501526040840152606083015260808201520152565b3461037757604036600319011261037757610456613c11565b61045e613c85565b60155460405163188c824d60e11b815291926020926001600160a01b039283169291908481600481875afa9081156105f4576000916106e6575b5082806007541633149182156106d9575b50501561067f571692836000526023835260ff60406000205416158015610677575b15610617578015918280610600575b61052f575b50906105257f61630ccfd9f6a7f081736c73f365b44d23ac1af5e8d23c9eeba86f0cc3cfefbe9392856000526023845260406000209060ff801983541691151516179055565b60405190158152a2005b8360249160405192838092633247c33f60e21b82528960048301525afa9081156105f4576000916105be575b5061056657846104df565b60405162461bcd60e51b815260048101849052602a60248201527f43616e6e6f742072656d6f7665206578656d7074696f6e20666f7220706f6f6c60448201526920636f6e74726163747360b01b6064820152608490fd5b90508381813d83116105ed575b6105d58183613d04565b8101031261037757518015158103610377578561055b565b503d6105cb565b6040513d6000823e3d90fd5b50846000526023845260ff604060002054166104da565b60405162461bcd60e51b815260048101849052603260248201527f4164647265737320697320616c7265616479206578656d70742066726f6d20726044820152711bde585b1d1e48195b999bdc98d95b595b9d60721b6064820152608490fd5b5080156104cb565b60405162461bcd60e51b815260048101859052602c60248201527f4f6e6c79206f776e6572206f7220506f6f6c4465706c6f7965722063616e207360448201526b32ba1032bc32b6b83a34b7b760a11b6064820152608490fd5b90915016331482876104a9565b6107069150853d871161070c575b6106fe8183613d04565b810190613fc4565b86610498565b503d6106f4565b346103775760208060031936011261037757600435610730613e76565b80151580610af9575b6107429061463e565b601854601454600281166108f8575b50600e549160165490818410156108b35761078261076f8584614696565b9361077d6013548096614696565b614696565b80156108625791606461079c6107a9936107af96956145ad565b049061077d8215156146a3565b92614702565b6107bc6018548092614702565b82106107f757906040917fbba296472f2135056aa4038d0d43f8b8dd1ff674c970ca244557fda3bf2bdead93826016558351928352820152a1005b60405162461bcd60e51b815260048101849052603c60248201527f4e6577206d617820737570706c792063616e6e6f74206265206c65737320746860448201527f616e206d696e746564202b20616c6c6f636174656420737570706c79000000006064820152608490fd5b60405162461bcd60e51b8152600481018790526024808201527f4e6f20756e616c6c6f636174656420737570706c79206c65667420746f2072656044820152636475636560e01b6064820152608490fd5b60405162461bcd60e51b815260048101869052601860248201527f4e6f20737570706c79206c65667420746f2072656475636500000000000000006044820152606490fd5b601a546109058184614696565b9182610913575b5050610751565b61096261091e6147b1565b9383851115610aea5761095c61093e6109378688614696565b8093614696565b91610956606461094e8b866145ad565b049187614702565b92614696565b90614702565b918210610a7f576004908260185583601b5542601c5516610984575b8061090c565b601d54804210600014610a3a5750601e54915b826109f457505050600083555b601d54601e54601f5485546040805194855260208501939093529183015260608201527f7e2a3374677a327cc55645e34396200e1c47056393c1e5dfa3e1f7a40384a33a90608090a1838061097e565b610a028391610a0793614696565b614702565b600019810191908211610a2457610a1d916145c0565b83556109a4565b634e487b7160e01b600052601160045260246000fd5b610a47610a509142614696565b601f54906145c0565b60018101809111610a2457601e5490818110610a70575050600091610997565b610a7991614696565b91610997565b60405162461bcd60e51b815260048101879052603960248201527f4e65772063726561746f7220616c6c6f636174696f6e2063616e6e6f7420626560448201527f206c657373207468616e20636c61696d656420616d6f756e74000000000000006064820152608490fd5b61095c61093e60008093614696565b506064811115610739565b3461037757602036600319011261037757610b1d613c11565b610b25613e76565b6001600160a01b03811615610b3f57610b3d90613ece565b005b60405162461bcd60e51b815260206004820152602660248201527f4f776e61626c653a206e6577206f776e657220697320746865207a65726f206160448201526564647265737360d01b6064820152608490fd5b3461037757604036600319011261037757610bac613c11565b610bb4613c27565b9060018060a01b03809116600052600560205260406000209116600052602052602060ff604060002054166040519015158152f35b34610377576000366003190112610377576020601a54604051908152f35b34610377576000366003190112610377576020601954604051908152f35b34610377576020366003190112610377576001600160a01b03610c46613c11565b1660005260116020526020604060002054604051908152f35b34610377576000366003190112610377576020601654604051908152f35b3461037757600036600319011261037757610c96613e76565b60106014546001600160801b038116906001600160801b03191617176014557f192c3f8649694bd147faa743027e4c232721f15ec16032c1c34b414c47a90df3600080a1005b346103775760003660031901126103775760206010601454161515604051908152f35b34610377576020366003190112610377576103b5610d1e6004356148dc565b604051918291602083526020830190613c60565b346103775760208060031936011261037757610d4c613c11565b610d54613e76565b6001600160a01b0316600081815260128352604090205490919060ff1615610eaf5760405163c19d93fb60e01b81528181600481865afa9081156105f457600091610e79575b506008811015610e635760058114908115610e58575b5015610e14577ffa7ff84d4eb7d84d088489adf98dd5160bce4e75f6d0acd06e70a89654bb7d7f908260005260118152604060002060008154915560128252604060002060ff198154169055610e0881601354614696565b601355604051908152a2005b6064906040519062461bcd60e51b82526004820152601860248201527f506f6f6c206e6f7420696e206661696c656420737461746500000000000000006044820152fd5b600791501483610db0565b634e487b7160e01b600052602160045260246000fd5b90508181813d8311610ea8575b610e908183613d04565b81010312610377575160088110156103775783610d9a565b503d610e86565b6064906040519062461bcd60e51b8252600482015260146024820152732837b7b61034b9903737ba10309036b4b73a32b960611b6044820152fd5b34610377576000366003190112610377576020602254604051908152f35b3461037757608036600319011261037757610f21613c11565b610f29613c27565b90604435606435926001600160401b038411610377573660238501121561037757610f61610fa0943690602481600401359101613e21565b926014546008811615159081610ffc575b5080610fe3575b610fc4575b610f90610f8b84336140b7565b614055565b610f9b83838361417f565b6142e3565b15610fa757005b60405162461bcd60e51b815280610fc060048201614290565b0390fd5b336000526024602052610fde60ff60406000205416613fe3565b610f7e565b5033600052602360205260ff6040600020541615610f79565b60109150161586610f72565b3461037757608036600319011261037757611021613c11565b6024359060443560643591611034613e76565b6001600160a01b03169283156111f55780156111a65782156111555783600052600860205260ff60406000205416611119577f70f501bd2f3c55f153861010e5184d8493b7b83ce7c4cb72fcc70fd07c1a240a9260609260405161109781613cce565b600181526005602082018581526040830184815287840186815260808501916000835260a0860193600085528c60005260086020526110ea604060002097511515889060ff801983541691151516179055565b5160018701555160028601555160038501555160048401555191015560405192835260208301526040820152a2005b60405162461bcd60e51b815260206004820152601460248201527312d3d308185b1c9958591e48185c1c1c9bdd995960621b6044820152606490fd5b60405162461bcd60e51b815260206004820152602360248201527f57696e6e6572206c696d6974206d75737420626520677265617465722074686160448201526206e20360ec1b6064820152608490fd5b60405162461bcd60e51b815260206004820152602160248201527f506f6f6c206c696d6974206d7573742062652067726561746572207468616e206044820152600360fc1b6064820152608490fd5b60405162461bcd60e51b8152602060048201526013602482015272496e76616c6964204b4f4c206164647265737360681b6044820152606490fd5b346103775760203660031901126103775760043561124c613e76565b60145461125d6002821615156145e0565b81151580611351575b61126f9061463e565b601a54906018546112808382614696565b9283156112fa5760046112c960646112bb7fd1f265823deafe8beac32429d528ba3d6f44b4c066c5935685cc34bde4117957986040986145ad565b04809461077d8215156146a3565b9384601855166112e2575b5082519182526020820152a1005b6112ef6112f49184614696565b61470f565b846112d4565b60405162461bcd60e51b815260206004820152602960248201527f4e6f2072656d61696e696e672063726561746f7220616c6c6f636174696f6e20604482015268746f2072656475636560b81b6064820152608490fd5b506064821115611266565b34610377576000366003190112610377576015546040516001600160a01b039091168152602090f35b34610377576020366003190112610377576001600160a01b036113a6613c11565b166000526012602052602060ff604060002054166040519015158152f35b34610377576020366003190112610377576004356113e0613e76565b60145490600282166114a25760148111611451577f4f0ee8dede1f88eebce079d082b265aea42f0e2dd279124103655875097f43f491600260646114286020946016546145ad565b0491826018556001600160801b038116906001600160801b0319161717601455604051908152a1005b60405162461bcd60e51b8152602060048201526024808201527f43726561746f7220616c6c6f636174696f6e2063616e6e6f74206578636565646044820152632032302560e01b6064820152608490fd5b60405162461bcd60e51b815260206004820152602360248201527f43726561746f7220616c6c6f636174696f6e20616c7265616479206465636c616044820152621c995960ea1b6064820152608490fd5b346103775760003660031901126103775761150c613e76565b6020601454166116375760ff602154166003811015610e6357600281036115c857506022544210611583575b61155c60206014546001600160801b038116906001600160801b0319161717601455565b7f4884a1e8d033385ee80fa3d769d1ba3c44e18291db0f726e436a01997d3df36a600080a1005b60405162461bcd60e51b815260206004820152601e60248201527f52657665616c2074696d6520686173206e6f74207965742070617373656400006044820152606490fd5b6115385760405162461bcd60e51b815260206004820152603e60248201527f496e7374616e742072657665616c20636f6c6c656374696f6e7320646f206e6f60448201527f74206e65656420746f206265206d616e75616c6c792072657665616c656400006064820152608490fd5b60405162461bcd60e51b815260206004820152601e60248201527f436f6c6c656374696f6e20697320616c72656164792072657665616c656400006044820152606490fd5b34610377576000366003190112610377576020601854604051908152f35b346103775760003660031901126103775760ff602154166040516003821015610e63576020918152f35b34610377576040366003190112610377576116dd613c11565b6116e5613c85565b9060145460088116151590816117ef575b50806117d6575b6117b7575b6001600160a01b031690338214611772573360005260056020526040600020826000526020526117428160406000209060ff801983541691151516179055565b60405190151581527f17307eab39ab6107e8899845ad3d59bd9653f200f220920489ca2b5937696c3160203392a3005b60405162461bcd60e51b815260206004820152601960248201527f4552433732313a20617070726f766520746f2063616c6c6572000000000000006044820152606490fd5b3360005260246020526117d160ff60406000205416613fe3565b611702565b5033600052602360205260ff60406000205416156116fd565b601091501615836116f6565b3461037757602036600319011261037757611814613c11565b61181c613e76565b6001600160a01b031680156118c65780600052602460205260ff60406000205416611881578060005260246020526040600020600160ff198254161790557f119567ed9b6c3d3a90f367bc09314fc6cd50ab2434a5b4f73688a2c1ea149838600080a2005b60405162461bcd60e51b815260206004820152601b60248201527f4d61726b6574706c61636520616c726561647920616c6c6f77656400000000006044820152606490fd5b60405162461bcd60e51b815260206004820152601b60248201527f496e76616c6964206d61726b6574706c616365206164647265737300000000006044820152606490fd5b34610377576000366003190112610377576040516000600a5461192d81613c94565b808452906001908181169081156119a05750600114611957575b6103b584610d1e81860382613d04565b600a60009081529250600080516020614bf18339815191525b828410611988575050508101602001610d1e82611947565b80546020858701810191909152909301928101611970565b60ff191660208087019190915292151560051b85019092019250610d1e9150839050611947565b34610377576060366003190112610377576024803560043560448035906119ec613e76565b6014549060048216611dc857601954908115611d8557611a106002841615156145e0565b601854916101f4831015611c5f5760028710611c11575b60b48101809111611bfc578510611b9d57610e108410611b3c575084611a4c91614702565b6000198101908111611b275784611a62916145c0565b946040519060808201908282106001600160401b03831117611b13575086927f7e2a3374677a327cc55645e34396200e1c47056393c1e5dfa3e1f7a40384a33a976060611b0e9694600494604052888152896020820152856040820152015285601d5586601e5582601f55836020556001600160801b038116906001600160801b0319161717601455604051948594859094939260609260808301968352602083015260408201520152565b0390a1005b634e487b7160e01b60009081526041600452fd5b85634e487b7160e01b60005260116004526000fd5b867f4475726174696f6e206265747765656e20756e6c6f636b73206d757374206e6f60849260356040519362461bcd60e51b855260206004860152840152820152743a103132903632b9b9903a3430b71018903437bab960591b6064820152fd5b867f436c696666206d757374206e6f74206265206c657373207468616e2033206d6960849260336040519362461bcd60e51b85526020600486015284015282015272373aba32b990333937b69031b932b0ba34b7b760691b6064820152fd5b87634e487b7160e01b60005260116004526000fd5b60405162461bcd60e51b8152602060048201526022818a01527f4d696e203220756e6c6f636b7320666f7220616c6c6f636174696f6e203c20358184015261030360f41b6064820152608490fd5b6103e8831015611cc85760048710611c77575b611a27565b60405162461bcd60e51b8152602060048201526025818a01527f4d696e203420756e6c6f636b7320666f7220616c6c6f636174696f6e20353030818401526402d313030360dc1b6064820152608490fd5b6107d0831015611d2d576008871015611a275760405162461bcd60e51b8152602060048201526026818a01527f4d696e203820756e6c6f636b7320666f7220616c6c6f636174696f6e2031303081840152650302d323030360d41b6064820152608490fd5b6008871015611c725760405162461bcd60e51b8152602060048201526023818a01527f4d696e203820756e6c6f636b7320666f7220616c6c6f636174696f6e203e2032818401526203030360ec1b6064820152608490fd5b867f436f6c6c656374696f6e206e6f7420696e697469616c697a6564000000000000606492601a6040519362461bcd60e51b855260206004860152840152820152fd5b857f56657374696e6720616c726561647920636f6e66696775726564000000000000606492601a6040519362461bcd60e51b855260206004860152840152820152fd5b346103775760003660031901126103775760206002601454161515604051908152f35b346103775760003660031901126103775760206004601454161515604051908152f35b34610377576000366003190112610377576007546040516001600160a01b039091168152602090f35b34610377576000366003190112610377576020600f54604051908152f35b346103775760003660031901126103775760206008601454161515604051908152f35b34610377576000366003190112610377576020601b54604051908152f35b3461037757600036600319011261037757600e5460135460145490919060021615611f71576018545b60165491611f1482610a028684614702565b8310611f355760209361077d61077d92611f2d95614696565b604051908152f35b60405162461bcd60e51b8152602060048201526014602482015273496e76616c696420737570706c7920737461746560601b6044820152606490fd5b6000611f02565b34610377576020366003190112610377576001600160a01b03611f99613c11565b166000526024602052602060ff604060002054166040519015158152f35b3461037757600036600319011261037757611fd0613e76565b600780546001600160a01b031981169091556000906001600160a01b03167f8be0079c531659141344cd1fd0a4f28419497f9722a3daafe3b4186f6b6457e08280a3005b34610377576020366003190112610377576001600160a01b03612035613c11565b1680156120545760005260036020526020604060002054604051908152f35b60405162461bcd60e51b815260206004820152602960248201527f4552433732313a2061646472657373207a65726f206973206e6f7420612076616044820152683634b21037bbb732b960b91b6064820152608490fd5b34610377576040366003190112610377576120c4613c11565b60155460405163188c824d60e11b8152602092602435926001600160a01b03929085908290600490829087165afa9081156105f4576000916122e2575b50823391160361228c5716918260005260089081815260ff604060002054161561225557836000528181526040600020600160048201549101541115612211578360005281815261215a83600560406000200154614702565b84600052828252600360406000200154106121cd578360005281815260046040600020016121888154614408565b905583600052526121a26005604060002001918254614702565b905533907f5b7945a09273a36deae169b61c3f2f6e50c1a2030374353d76346822ae48f674600080a3005b6064906040519062461bcd60e51b82526004820152601960248201527f4b4f4c2077696e6e6572206c696d6974206578636565646564000000000000006044820152fd5b6064906040519062461bcd60e51b82526004820152601760248201527f4b4f4c20706f6f6c206c696d69742065786365656465640000000000000000006044820152fd5b6064906040519062461bcd60e51b82526004820152601060248201526f12d3d3081b9bdd08185c1c1c9bdd995960821b6044820152fd5b60405162461bcd60e51b815260048101859052602860248201527f4f6e6c7920506f6f6c4465706c6f7965722063616e2063616c6c207468697320604482015267333ab731ba34b7b760c11b6064820152608490fd5b6122f99150853d871161070c576106fe8183613d04565b85612101565b34610377576000366003190112610377576020611f2d61484a565b34610377576020366003190112610377576020612338600435613f63565b6040516001600160a01b039091168152f35b3461037757610160366003190112610377576004356001600160401b0381116103775761237b903690600401613e58565b6024356001600160401b0381116103775761239a903690600401613e58565b906044356001600160401b038111610377576123ba903690600401613e58565b6001600160a01b03929091906064358085169003610377576084359284841684036103775760c43591858316830361037757600361010435101561037757610124356001600160401b03811161037757612418903690600401613e58565b93867f0000000000000000000000000000000000000000000000000000000000000000163303612b3c578660075416612b0157601654612ac7578051906001600160401b0382116127cc578190612470600954613c94565b601f8111612a53575b50602090601f83116001146129db576000926129d0575b50508160011b916000199060031b1c1916176009555b8051906001600160401b0382116127cc5781906124c4600a54613c94565b601f811161295c575b50602090601f83116001146128e4576000926128d9575b50508160011b916000199060031b1c191617600a555b8051906001600160401b0382116127cc578190612518600b54613c94565b601f8111612865575b50602090601f83116001146127ed576000926127e2575b50508160011b916000199060031b1c191617600b555b836001600160601b0360a01b91818516836015541617601555612572606435613ece565b60a435600f551690601054161760105560e4356016556001600d554260195560ff196021541660ff610104351617602155610104351560001461261e57506125d460206014546001600160801b038116906001600160801b0319161717601455565b816064351660005260236020526040600020600160ff19825416179055166000526040600020600160ff19825416179055306000526040600020600160ff19825416179055600080f35b919082516001600160401b0381116127cc5761263b600c54613c94565b601f811161275f575b506020601f82116001146126ed57819293946000926126e2575b50508160011b916000199060031b1c191617600c555b600261010435036125d4576101443542811115612693576022556125d4565b60405162461bcd60e51b815260206004820152602160248201527f52657665616c2074696d65206d75737420626520696e207468652066757475726044820152606560f81b6064820152608490fd5b01519050848061265e565b601f19821690600c600052600080516020614bd18339815191529160005b8181106127475750958360019596971061272e575b505050811b01600c55612674565b015160001960f88460031b161c19169055848080612720565b9192602060018192868b01518155019401920161270b565b600c600052601f820160051c600080516020614bd18339815191520190602083106127b6575b601f0160051c600080516020614bd183398151915201905b8181106127aa5750612644565b6000815560010161279d565b600080516020614bd18339815191529150612785565b634e487b7160e01b600052604160045260246000fd5b015190508680612538565b9250600b600052600080516020614c31833981519152906000935b601f198416851061284a576001945083601f19811610612831575b505050811b01600b5561254e565b015160001960f88460031b161c19169055868080612823565b81810151835560209485019460019093019290910190612808565b909150600b600052601f830160051c600080516020614c3183398151915201602084106128c4575b908392915b601f820160051c600080516020614c318339815191520181106128b55750612521565b60008155849350600101612892565b50600080516020614c3183398151915261288d565b0151905087806124e4565b9250600a600052600080516020614bf1833981519152906000935b601f1984168510612941576001945083601f19811610612928575b505050811b01600a556124fa565b015160001960f88460031b161c1916905587808061291a565b818101518355602094850194600190930192909101906128ff565b909150600a600052601f830160051c600080516020614bf183398151915201602084106129bb575b908392915b601f820160051c600080516020614bf18339815191520181106129ac57506124cd565b60008155849350600101612989565b50600080516020614bf1833981519152612984565b015190508880612490565b92506009600052600080516020614c11833981519152906000935b601f1984168510612a38576001945083601f19811610612a1f575b505050811b016009556124a6565b015160001960f88460031b161c19169055888080612a11565b818101518355602094850194600190930192909101906129f6565b9091506009600052601f830160051c600080516020614c118339815191520160208410612ab2575b908392915b601f820160051c600080516020614c11833981519152018110612aa35750612479565b60008155849350600101612a80565b50600080516020614c11833981519152612a7b565b60405162461bcd60e51b815260206004820152601260248201527114dd5c1c1b1e48185b1c9958591e481cd95d60721b6044820152606490fd5b60405162461bcd60e51b8152602060048201526013602482015272105b1c9958591e481a5b9a5d1a585b1a5e9959606a1b6044820152606490fd5b60405162461bcd60e51b815260206004820152601b60248201527f4f6e6c7920666163746f72792063616e20696e697469616c697a6500000000006044820152606490fd5b3461037757602080600319360112610377576001600160401b039060043582811161037757612bb4903690600401613e58565b90612bbd613e76565b81519283116127cc57612bd1600b54613c94565b601f8111612cd8575b508092601f8111600114612c4757807f6741b2fc379fad678116fe3d4d4b9a1a184ab53ba36b86ad0fa66340b1ab41ad94600091612c3c575b508160011b916000199060031b1c191617600b555b611b0e604051928284938452830190613c60565b905083015185612c13565b601f19811693600b600052600080516020614c318339815191529460005b818110612cc157509482916001937f6741b2fc379fad678116fe3d4d4b9a1a184ab53ba36b86ad0fa66340b1ab41ad9710612ca8575b5050811b01600b55612c28565b85015160001960f88460031b161c191690558580612c9b565b858301518755600190960195918401918401612c65565b600b600052600080516020614c31833981519152601f850160051c810191838610612d20575b601f0160051c01905b818110612d145750612bda565b60008155600101612d07565b9091508190612cfe565b3461037757600036600319011261037757602080601454161515604051908152f35b34610377576000366003190112610377576010546040516001600160a01b039091168152602090f35b3461037757610fa0612d8636613dd1565b9060145492600884161515808091612e09575b80612df0575b612dd1575b60405194612db186613ce9565b6000865281610ffc575080610fe357610fc457610f90610f8b84336140b7565b336000526024602052612deb60ff60406000205416613fe3565b612da4565b5033600052602360205260ff6040600020541615612d9f565b506010851615612d99565b3461037757604036600319011261037757600435612e30613c27565b90612e39613e76565b6127108111612e6757600f55601080546001600160a01b0319166001600160a01b0392909216919091179055005b60405162461bcd60e51b815260206004820152601a60248201527f526f79616c74792063616e6e6f742065786365656420313030250000000000006044820152606490fd5b3461037757604036600319011261037757612ec5613c11565b602435612ed0614417565b336000526020916012835260ff6040600020541615612fe3578115612fd157600e9081546016549081811015612f8c57840111612f7a576001600160a01b03811660005b848110612f22576001600655005b600190600d612f328154866144b9565b612f668154857f3b782080656380c62378fe492892b8dcb9c50affce49759e169b8c7e5ef270e78b604051848152a2614408565b9055612f728554614408565b855501612f14565b60405163c30436e960e01b8152600490fd5b60405162461bcd60e51b815260048101879052601b60248201527f4e6f20737570706c7920617661696c61626c6520746f206d696e7400000000006044820152606490fd5b60405163f4f5b73360e01b8152600490fd5b60405162461bcd60e51b815260048101849052603360248201527f556e617574686f72697a65643a204f6e6c7920617574686f72697a6564206d696044820152721b9d195c9cc818d85b8818d85b1b081b5a5b9d606a1b6064820152608490fd5b3461037757604036600319011261037757604060018060a01b0360105416612710613073600f546024356145ad565b0482519182526020820152f35b34610377576000366003190112610377576020601c54604051908152f35b34610377576020366003190112610377576130b7613c11565b6130bf613e76565b6001600160a01b031660008181526024602052604090205460ff161561311c57806000526024602052604060002060ff1981541690557feac9a18305649744c83ff9f4d60058552b03f4e8df46a1cb28f7563fbd179b42600080a2005b60405162461bcd60e51b815260206004820152601f60248201527f4d61726b6574706c616365206e6f7420696e20616c6c6f776564206c697374006044820152606490fd5b346103775760003660031901126103775761317a613e76565b6014546fffffffffffffffffffffffffffffffef8116906001600160801b031916176014557fa0e4442ee881786834ee773b9ed42c22dff390d3d3318996679777915e63be34600080a1005b34610377576020366003190112610377576001600160a01b036131e7613c11565b1660005260176020526020604060002054604051908152f35b3461037757610b3d61321136613dd1565b916014546008811615159081613278575b508061325f575b613240575b61323b610f8b84336140b7565b61417f565b33600052602460205261325a60ff60406000205416613fe3565b61322e565b5033600052602360205260ff6040600020541615613229565b60109150161585613222565b34610377576000366003190112610377576020601354604051908152f35b34610377576000366003190112610377576103b5610d1e613d25565b34610377576040366003190112610377576132d7613c11565b6024908135916132e5613e76565b6132ed614417565b60145460048116156134df576002613307911615156145e0565b82156134a457600e9061331b848354614702565b601654106134605761332b61484a565b841161340e5761333d84601a54614702565b601854106133ca57506001600160a01b0382169160005b8481106133715761336785601a54614702565b601a556001600655005b600190600d6133818154856144b9565b6133b68154877f3b782080656380c62378fe492892b8dcb9c50affce49759e169b8c7e5ef270e76020604051848152a2614408565b90556133c28454614408565b845501613354565b606490601a6040519162461bcd60e51b8352602060048401528201527f457863656564732063726561746f7220616c6c6f636174696f6e0000000000006044820152fd5b60849060256040519162461bcd60e51b8352602060048401528201527f4578636565647320617661696c61626c6520756e6c6f636b656420616c6c6f6360448201526430ba34b7b760d91b6064820152fd5b606490601f6040519162461bcd60e51b8352602060048401528201527f4d696e74696e6720776f756c6420657863656564206d617820737570706c79006044820152fd5b60649060146040519162461bcd60e51b8352602060048401528201527305175616e74697479206d757374206265203e20360641b6044820152fd5b60405162461bcd60e51b8152602060048201526016818401527515995cdd1a5b99c81b9bdd0818dbdb999a59dd5c995960521b6044820152606490fd5b34610377576000366003190112610377576020600e54604051908152f35b34610377576020366003190112610377576001600160a01b0361355b613c11565b166000526008602052604060002060405161357581613cce565b60ff825416151580825260a0600184015493846020850152600281015493846040820152600382015490816060820152600560048401549384608084015201549384910152836135f6575b6103b59394604051968796879260a094919796959260c08501981515855260208501526040840152606083015260808201520152565b80831093506135c0565b3461037757608036600319011261037757613619613c11565b50613622613c27565b506064356001600160401b038082116103775736602383011215610377578160040135908111610377573691016024011161037757604051630a85bd0160e11b8152602090f35b34610377576020366003190112610377576001600160a01b0361368a613c11565b166000526023602052602060ff604060002054166040519015158152f35b346103775760203660031901126103775760043580151590818103610377577ff4fe92c76f5b8827e8fd9eac2c7181b6b2c22b10543b969fa2d9a26cdcd56bd2916020916136f4613e76565b156137225760086014546001600160801b038116906001600160801b03191617176014555b604051908152a1005b6014546ffffffffffffffffffffffffffffffff78116906001600160801b03191617601455613719565b3461037757604036600319011261037757613765613c11565b60243590601454600881161515908161391a575b5080613901575b6138e2575b6001600160a01b03808061379885613f63565b169216918083146138935780331490811561386e575b501561380357600083815260046020526040902080546001600160a01b031916831790556137db83613f63565b167f8c5be1e5ebec7d5bd14f71427d1e84f3dd0314c0f7b2291e5b200ac8c7c3b925600080a4005b60405162461bcd60e51b815260206004820152603d60248201527f4552433732313a20617070726f76652063616c6c6572206973206e6f7420746f60448201527f6b656e206f776e6572206f7220617070726f76656420666f7220616c6c0000006064820152608490fd5b9050600052600560205260406000203360005260205260ff60406000205416846137ae565b60405162461bcd60e51b815260206004820152602160248201527f4552433732313a20617070726f76616c20746f2063757272656e74206f776e656044820152603960f91b6064820152608490fd5b3360005260246020526138fc60ff60406000205416613fe3565b613785565b5033600052602360205260ff6040600020541615613780565b60109150161583613779565b34610377576020366003190112610377576020612338600435613f86565b3461037757600036600319011261037757604051600060095461396681613c94565b808452906001908181169081156119a0575060011461398f576103b584610d1e81860382613d04565b600960009081529250600080516020614c118339815191525b8284106139c0575050508101602001610d1e82611947565b805460208587018101919091529093019281016139a8565b346103775760203660031901126103775760043563ffffffff60e01b8116809103610377576020906340c10f1960e01b8114908115613a67575b8115613a24575b506040519015158152f35b6380ac58cd60e01b811491508115613a56575b8115613a45575b5082613a19565b6301ffc9a760e01b14905082613a3e565b635b5e139f60e01b81149150613a37565b63152a902d60e11b81149150613a12565b3461037757604036600319011261037757613a91613c11565b60155460405163188c824d60e11b8152602435926020926001600160a01b03929084908290600490829087165afa9081156105f457600091613bd9575b508233911603613b6e5716918215613b3257907f1ac3d1a84101f14877bbfafdcfd3b761954b8bb27df1f672b50d7e11d48d880c91836000526011825280604060002055601282526040600020600160ff19825416179055610e0881601354614702565b60405162461bcd60e51b8152600481018390526014602482015273496e76616c696420706f6f6c206164647265737360601b6044820152606490fd5b60405162461bcd60e51b815260048101849052603860248201527f4f6e6c79207468652070726f746f636f6c277320506f6f6c4465706c6f79657260448201527f2063616e2063616c6c20746869732066756e6374696f6e2e00000000000000006064820152608490fd5b613bf09150843d861161070c576106fe8183613d04565b85613ace565b34610377576000366003190112610377576020611f2d6147b1565b600435906001600160a01b038216820361037757565b602435906001600160a01b038216820361037757565b60005b838110613c505750506000910152565b8181015183820152602001613c40565b90602091613c7981518092818552858086019101613c3d565b601f01601f1916010190565b60243590811515820361037757565b90600182811c92168015613cc4575b6020831014613cae57565b634e487b7160e01b600052602260045260246000fd5b91607f1691613ca3565b60c081019081106001600160401b038211176127cc57604052565b602081019081106001600160401b038211176127cc57604052565b90601f801991011681019081106001600160401b038211176127cc57604052565b60405190600082600c5491613d3983613c94565b80835292600190818116908115613daf5750600114613d62575b50613d6092500383613d04565b565b600c60009081529150600080516020614bd18339815191525b848310613d945750613d60935050810160200138613d53565b81935090816020925483858a01015201910190918592613d7b565b905060209250613d6094915060ff191682840152151560051b82010138613d53565b6060906003190112610377576001600160a01b0390600435828116810361037757916024359081168103610377579060443590565b6001600160401b0381116127cc57601f01601f191660200190565b929192613e2d82613e06565b91613e3b6040519384613d04565b829481845281830111610377578281602093846000960137010152565b9080601f8301121561037757816020613e7393359101613e21565b90565b6007546001600160a01b03163303613e8a57565b606460405162461bcd60e51b815260206004820152602060248201527f4f776e61626c653a2063616c6c6572206973206e6f7420746865206f776e65726044820152fd5b600780546001600160a01b039283166001600160a01b0319821681179092559091167f8be0079c531659141344cd1fd0a4f28419497f9722a3daafe3b4186f6b6457e0600080a3565b15613f1e57565b60405162461bcd60e51b815260206004820152601860248201527f4552433732313a20696e76616c696420746f6b656e20494400000000000000006044820152606490fd5b6000908152600260205260409020546001600160a01b0316613e73811515613f17565b600081815260026020526040902054613fa9906001600160a01b03161515613f17565b6000908152600460205260409020546001600160a01b031690565b9081602091031261037757516001600160a01b03811681036103775790565b15613fea57565b60405162461bcd60e51b815260206004820152603d60248201527f455243373231633a204f7065726174696f6e206f6e6c7920616c6c6f7765642060448201527f7468726f75676820617070726f766564206d61726b6574706c616365730000006064820152608490fd5b1561405c57565b60405162461bcd60e51b815260206004820152602d60248201527f4552433732313a2063616c6c6572206973206e6f7420746f6b656e206f776e6560448201526c1c881bdc88185c1c1c9bdd9959609a1b6064820152608490fd5b906001600160a01b0380806140cb84613f63565b169316918383149384156140fe575b5083156140e8575b50505090565b6140f491929350613f86565b16143880806140e2565b909350600052600560205260406000208260005260205260ff6040600020541692386140da565b1561412c57565b60405162461bcd60e51b815260206004820152602560248201527f4552433732313a207472616e736665722066726f6d20696e636f72726563742060448201526437bbb732b960d91b6064820152608490fd5b906141a79161418d84613f63565b6001600160a01b0393918416928492909183168414614125565b1691821561423f57816141c4916141bd86613f63565b1614614125565b7fddf252ad1be2c89b69c2b068fc378daa952ba7f163c4a11628f55a4df523b3ef60008481526004602052604081206001600160601b0360a01b9081815416905583825260036020526040822060001981540190558482526040822060018154019055858252600260205284604083209182541617905580a4565b60405162461bcd60e51b8152602060048201526024808201527f4552433732313a207472616e7366657220746f20746865207a65726f206164646044820152637265737360e01b6064820152608490fd5b60809060208152603260208201527f4552433732313a207472616e7366657220746f206e6f6e20455243373231526560408201527131b2b4bb32b91034b6b83632b6b2b73a32b960711b60608201520190565b9293600093909291803b156143fd5794849161433d9660405180948193630a85bd0160e11b9788845233600485015260018060a01b0380921660248501526044840152608060648401528260209b8c976084830190613c60565b0393165af18491816143b9575b506143a8575050503d6000146143a0573d61436481613e06565b906143726040519283613d04565b81528091833d92013e5b8051918261439d5760405162461bcd60e51b815280610fc060048201614290565b01fd5b50606061437c565b6001600160e01b0319161492509050565b9091508581813d83116143f6575b6143d18183613d04565b810103126143f257516001600160e01b0319811681036143f257903861434a565b8480fd5b503d6143c7565b505050915050600190565b6000198114610a245760010190565b600260065414614428576002600655565b60405162461bcd60e51b815260206004820152601f60248201527f5265656e7472616e637947756172643a207265656e7472616e742063616c6c006044820152606490fd5b1561447457565b60405162461bcd60e51b815260206004820152601c60248201527f4552433732313a20746f6b656e20616c7265616479206d696e746564000000006044820152606490fd5b6001600160a01b03168015614569576000828152600260205260409020546144ed906001600160a01b031615155b1561446d565b600082815260026020526040902054614510906001600160a01b031615156144e7565b600081815260036020526040812060018154019055828152600260205260408120826001600160601b0360a01b8254161790557fddf252ad1be2c89b69c2b068fc378daa952ba7f163c4a11628f55a4df523b3ef8180a4565b606460405162461bcd60e51b815260206004820152602060248201527f4552433732313a206d696e7420746f20746865207a65726f20616464726573736044820152fd5b81810292918115918404141715610a2457565b81156145ca570490565b634e487b7160e01b600052601260045260246000fd5b156145e757565b60405162461bcd60e51b815260206004820152602960248201527f43726561746f7220616c6c6f636174696f6e206d757374206265206465636c616044820152681c995908199a5c9cdd60ba1b6064820152608490fd5b1561464557565b60405162461bcd60e51b8152602060048201526024808201527f50657263656e74616765206d757374206265206265747765656e203120616e646044820152630203130360e41b6064820152608490fd5b91908203918211610a2457565b156146aa57565b60405162461bcd60e51b815260206004820152602a60248201527f526564756374696f6e20616d6f756e74206d7573742062652067726561746572604482015269207468616e207a65726f60b01b6064820152608490fd5b91908201809211610a2457565b80156147a957601e54601d5490601f549161473361472d84846145ad565b82614702565b421061474457505050506000602055565b61475c92814210600014614791575050600090614696565b908115614788578161476d91614702565b600019810191908211610a2457614783916145c0565b602055565b50506000602055565b61479e6147a39242614696565b6145c0565b90614696565b506000602055565b600460145416156147f157601d5442106147f157601c546147d457613e736147f6565b6147dc6147f6565b601b5490818110156147ec575090565b905090565b600090565b614805610a47601d5442614696565b60018101809111610a2457601e54808211614842575b8103614828575060185490565b614834906020546145ad565b6018548082116147ec575090565b90508061481b565b600460145416156147f15761485d6147b1565b601a54808211156148d55780821061487857613e7391614696565b60405162461bcd60e51b815260206004820152602f60248201527f41726974686d6574696320756e646572666c6f7720696e20676574417661696c60448201526e18589b1950dc99585d1bdc935a5b9d608a1b6064820152608490fd5b5050600090565b6000818152600260205260409020546001600160a01b031615614b7b576020806014541615614b7157604051600b5492600061491785613c94565b8084528385810192600197878982169182600014614b56575050600114614b0a575b61494592500384613d04565b825160009015614af25750600091807a184f03e93ff9f4daa797ed6e38ed64bf6a1f0100000000000000008181811015614ae4575b5050856d04ee2d6d415b85acef810000000080841015614ad6575b5050662386f26fc1000080831015614ac7575b506305f5e10080831015614ab8575b5061271080831015614aa9575b506064821015614a99575b86600a80931015614a8f575b84019690816021614a046149ee8b613e06565b9a6149fc6040519c8d613d04565b808c52613e06565b8a8a019790601f19013689378a0101905b614a59575b5050505090614a3e94614a4d613e7395949360405197889551809288880190613c3d565b84019151809386840190613c3d565b01038084520182613d04565b600019019083906f181899199a1a9b1b9c1cb0b131b232b360811b8282061a835304918215614a8a57919082614a15565b614a1a565b90930192866149db565b92906064600291049101926149cf565b600491949204910192386149c4565b600891949204910192386149b7565b601091949204910192386149a8565b940193909104908538614995565b60409550049150388061497a565b94505050505060405190614b0582613ce9565b815290565b5050600b6000528385600080516020614c31833981519152886000915b858310614b3d5750506149459350820101614939565b80919294505483858a0101520191018690888793614b27565b60ff1916865261494594151560051b84010191506149399050565b5050613e73613d25565b60405162461bcd60e51b815260206004820152602760248201527f4552433732313a2055524920717565727920666f72206e6f6e6578697374656e6044820152663a103a37b5b2b760c91b6064820152608490fdfedf6966c971051c3d54ec59162606531493a51404a002842f56009d7e5cf4a8c7c65a7bb8d6351c1cf70c95a316cc6a92839c986682d98bc35f958f4883f9d2a86e1540171b6c0c960b71a7020d9f60077f6af931a8bbf590da0223dacf75c7af0175b7a638427703f0dbe7bb9bbf987a2551717b34e79f33b5b1008d1fa01db9a26469706673582212205698eab7614b6de91db3148654c8bf0a4224ab7202c5e0bdfa99a3d47a5f3d6f64736f6c63430008130033",
  "linkReferences": {},
  "deployedLinkReferences": {}
}