{
  "_format": "hh-sol-artifact-1",
  "contractName": "ERC721Prize",
  "sourceName": "contracts/ERC721Prize.sol",
  "abi": [
    {
      "inputs": [
        {
          "internalType": "address",
          "name": "_factory",
          "type": "address"
        }
      ],
      "stateMutability": "nonpayable",
      "type": "constructor"
    },
    {
      "inputs": [],
      "name": "ExceedsMaxSupply",
      "type": "error"
    },
    {
      "inputs": [],
      "name": "UnauthorizedMinter",
      "type": "error"
    },
    {
      "inputs": [],
      "name": "ZeroQuantity",
      "type": "error"
    },
    {
      "anonymous": false,
      "inputs": [
        {
          "indexed": true,
          "internalType": "address",
          "name": "owner",
          "type": "address"
        },
        {
          "indexed": true,
          "internalType": "address",
          "name": "approved",
          "type": "address"
        },
        {
          "indexed": true,
          "internalType": "uint256",
          "name": "tokenId",
          "type": "uint256"
        }
      ],
      "name": "Approval",
      "type": "event"
    },
    {
      "anonymous": false,
      "inputs": [
        {
          "indexed": true,
          "internalType": "address",
          "name": "owner",
          "type": "address"
        },
        {
          "indexed": true,
          "internalType": "address",
          "name": "operator",
          "type": "address"
        },
        {
          "indexed": false,
          "internalType": "bool",
          "name": "approved",
          "type": "bool"
        }
      ],
      "name": "ApprovalForAll",
      "type": "event"
    },
    {
      "anonymous": false,
      "inputs": [
        {
          "indexed": false,
          "internalType": "string",
          "name": "newBaseURI",
          "type": "string"
        }
      ],
      "name": "BaseURIUpdated",
      "type": "event"
    },
    {
      "anonymous": false,
      "inputs": [],
      "name": "CollectionRevealed",
      "type": "event"
    },
    {
      "anonymous": false,
      "inputs": [
        {
          "indexed": false,
          "internalType": "uint256",
          "name": "allocation",
          "type": "uint256"
        }
      ],
      "name": "CreatorAllocationDeclared",
      "type": "event"
    },
    {
      "anonymous": false,
      "inputs": [],
      "name": "EmergencyBypassDisabled",
      "type": "event"
    },
    {
      "anonymous": false,
      "inputs": [],
      "name": "EmergencyBypassEnabled",
      "type": "event"
    },
    {
      "anonymous": false,
      "inputs": [
        {
          "indexed": true,
          "internalType": "address",
          "name": "kol",
          "type": "address"
        },
        {
          "indexed": false,
          "internalType": "uint256",
          "name": "poolLimit",
          "type": "uint256"
        },
        {
          "indexed": false,
          "internalType": "uint256",
          "name": "enforcedSlotFee",
          "type": "uint256"
        },
        {
          "indexed": false,
          "internalType": "uint256",
          "name": "winnerLimit",
          "type": "uint256"
        }
      ],
      "name": "KOLApproved",
      "type": "event"
    },
    {
      "anonymous": false,
      "inputs": [
        {
          "indexed": true,
          "internalType": "address",
          "name": "kol",
          "type": "address"
        },
        {
          "indexed": true,
          "internalType": "address",
          "name": "pool",
          "type": "address"
        }
      ],
      "name": "KOLPoolCreated",
      "type": "event"
    },
    {
      "anonymous": false,
      "inputs": [
        {
          "indexed": true,
          "internalType": "address",
          "name": "kol",
          "type": "address"
        }
      ],
      "name": "KOLRevoked",
      "type": "event"
    },
    {
      "anonymous": false,
      "inputs": [
        {
          "indexed": true,
          "internalType": "address",
          "name": "marketplace",
          "type": "address"
        }
      ],
      "name": "MarketplaceAdded",
      "type": "event"
    },
    {
      "anonymous": false,
      "inputs": [
        {
          "indexed": true,
          "internalType": "address",
          "name": "marketplace",
          "type": "address"
        }
      ],
      "name": "MarketplaceRemoved",
      "type": "event"
    },
    {
      "anonymous": false,
      "inputs": [],
      "name": "MinterApprovalLocked",
      "type": "event"
    },
    {
      "anonymous": false,
      "inputs": [],
      "name": "MinterApprovalUnlocked",
      "type": "event"
    },
    {
      "anonymous": false,
      "inputs": [
        {
          "indexed": true,
          "internalType": "address",
          "name": "previousOwner",
          "type": "address"
        },
        {
          "indexed": true,
          "internalType": "address",
          "name": "newOwner",
          "type": "address"
        }
      ],
      "name": "OwnershipTransferred",
      "type": "event"
    },
    {
      "anonymous": false,
      "inputs": [
        {
          "indexed": true,
          "internalType": "address",
          "name": "winner",
          "type": "address"
        },
        {
          "indexed": false,
          "internalType": "uint256",
          "name": "tokenId",
          "type": "uint256"
        }
      ],
      "name": "PrizeMinted",
      "type": "event"
    },
    {
      "anonymous": false,
      "inputs": [
        {
          "indexed": true,
          "internalType": "address",
          "name": "account",
          "type": "address"
        },
        {
          "indexed": false,
          "internalType": "bool",
          "name": "exempt",
          "type": "bool"
        }
      ],
      "name": "RoyaltyEnforcementExemptionUpdated",
      "type": "event"
    },
    {
      "anonymous": false,
      "inputs": [
        {
          "indexed": false,
          "internalType": "bool",
          "name": "enabled",
          "type": "bool"
        }
      ],
      "name": "RoyaltyEnforcementToggled",
      "type": "event"
    },
    {
      "anonymous": false,
      "inputs": [
        {
          "indexed": false,
          "internalType": "uint256",
          "name": "newMaxSupply",
          "type": "uint256"
        },
        {
          "indexed": false,
          "internalType": "uint256",
          "name": "newCreatorAllocation",
          "type": "uint256"
        }
      ],
      "name": "SupplyReduced",
      "type": "event"
    },
    {
      "anonymous": false,
      "inputs": [
        {
          "indexed": true,
          "internalType": "address",
          "name": "from",
          "type": "address"
        },
        {
          "indexed": true,
          "internalType": "address",
          "name": "to",
          "type": "address"
        },
        {
          "indexed": true,
          "internalType": "uint256",
          "name": "tokenId",
          "type": "uint256"
        }
      ],
      "name": "Transfer",
      "type": "event"
    },
    {
      "anonymous": false,
      "inputs": [
        {
          "indexed": false,
          "internalType": "uint256",
          "name": "cliffEnd",
          "type": "uint256"
        },
        {
          "indexed": false,
          "internalType": "uint256",
          "name": "numberOfUnlocks",
          "type": "uint256"
        },
        {
          "indexed": false,
          "internalType": "uint256",
          "name": "durationBetweenUnlocks",
          "type": "uint256"
        },
        {
          "indexed": false,
          "internalType": "uint256",
          "name": "amountPerUnlock",
          "type": "uint256"
        }
      ],
      "name": "VestingConfigured",
      "type": "event"
    },
    {
      "inputs": [
        {
          "internalType": "address",
          "name": "marketplace",
          "type": "address"
        }
      ],
      "name": "addAllowedMarketplace",
      "outputs": [],
      "stateMutability": "nonpayable",
      "type": "function"
    },
    {
      "inputs": [
        {
          "internalType": "address",
          "name": "to",
          "type": "address"
        },
        {
          "internalType": "uint256",
          "name": "tokenId",
          "type": "uint256"
        }
      ],
      "name": "approve",
      "outputs": [],
      "stateMutability": "nonpayable",
      "type": "function"
    },
    {
      "inputs": [
        {
          "internalType": "address",
          "name": "_kol",
          "type": "address"
        },
        {
          "internalType": "uint256",
          "name": "_poolLimit",
          "type": "uint256"
        },
        {
          "internalType": "uint256",
          "name": "_enforcedSlotFee",
          "type": "uint256"
        },
        {
          "internalType": "uint256",
          "name": "_winnerLimit",
          "type": "uint256"
        }
      ],
      "name": "approveKOL",
      "outputs": [],
      "stateMutability": "nonpayable",
      "type": "function"
    },
    {
      "inputs": [],
      "name": "availableSupply",
      "outputs": [
        {
          "internalType": "uint256",
          "name": "",
          "type": "uint256"
        }
      ],
      "stateMutability": "view",
      "type": "function"
    },
    {
      "inputs": [
        {
          "internalType": "address",
          "name": "owner",
          "type": "address"
        }
      ],
      "name": "balanceOf",
      "outputs": [
        {
          "internalType": "uint256",
          "name": "",
          "type": "uint256"
        }
      ],
      "stateMutability": "view",
      "type": "function"
    },
    {
      "inputs": [
        {
          "internalType": "uint256",
          "name": "cliffEnd",
          "type": "uint256"
        },
        {
          "internalType": "uint256",
          "name": "numberOfUnlocks",
          "type": "uint256"
        },
        {
          "internalType": "uint256",
          "name": "durationBetweenUnlocks",
          "type": "uint256"
        }
      ],
      "name": "configureCreatorVesting",
      "outputs": [],
      "stateMutability": "nonpayable",
      "type": "function"
    },
    {
      "inputs": [],
      "name": "creationTime",
      "outputs": [
        {
          "internalType": "uint256",
          "name": "",
          "type": "uint256"
        }
      ],
      "stateMutability": "view",
      "type": "function"
    },
    {
      "inputs": [],
      "name": "creatorAllocation",
      "outputs": [
        {
          "internalType": "uint256",
          "name": "",
          "type": "uint256"
        }
      ],
      "stateMutability": "view",
      "type": "function"
    },
    {
      "inputs": [],
      "name": "creatorAllocationDeclared",
      "outputs": [
        {
          "internalType": "bool",
          "name": "",
          "type": "bool"
        }
      ],
      "stateMutability": "view",
      "type": "function"
    },
    {
      "inputs": [],
      "name": "creatorClaimedCount",
      "outputs": [
        {
          "internalType": "uint256",
          "name": "",
          "type": "uint256"
        }
      ],
      "stateMutability": "view",
      "type": "function"
    },
    {
      "inputs": [
        {
          "internalType": "address",
          "name": "to",
          "type": "address"
        },
        {
          "internalType": "uint256",
          "name": "quantity",
          "type": "uint256"
        }
      ],
      "name": "creatorMint",
      "outputs": [],
      "stateMutability": "nonpayable",
      "type": "function"
    },
    {
      "inputs": [
        {
          "internalType": "uint256",
          "name": "_percentage",
          "type": "uint256"
        }
      ],
      "name": "cutSupply",
      "outputs": [],
      "stateMutability": "nonpayable",
      "type": "function"
    },
    {
      "inputs": [
        {
          "internalType": "uint256",
          "name": "_percentage",
          "type": "uint256"
        }
      ],
      "name": "declareCreatorAllocation",
      "outputs": [],
      "stateMutability": "nonpayable",
      "type": "function"
    },
    {
      "inputs": [],
      "name": "disableEmergencyBypass",
      "outputs": [],
      "stateMutability": "nonpayable",
      "type": "function"
    },
    {
      "inputs": [],
      "name": "emergencyBypassEnabled",
      "outputs": [
        {
          "internalType": "bool",
          "name": "",
          "type": "bool"
        }
      ],
      "stateMutability": "view",
      "type": "function"
    },
    {
      "inputs": [],
      "name": "enableEmergencyBypass",
      "outputs": [],
      "stateMutability": "nonpayable",
      "type": "function"
    },
    {
      "inputs": [
        {
          "internalType": "uint256",
          "name": "tokenId",
          "type": "uint256"
        }
      ],
      "name": "getApproved",
      "outputs": [
        {
          "internalType": "address",
          "name": "",
          "type": "address"
        }
      ],
      "stateMutability": "view",
      "type": "function"
    },
    {
      "inputs": [],
      "name": "getAvailableCreatorMint",
      "outputs": [
        {
          "internalType": "uint256",
          "name": "",
          "type": "uint256"
        }
      ],
      "stateMutability": "view",
      "type": "function"
    },
    {
      "inputs": [
        {
          "internalType": "address",
          "name": "_kol",
          "type": "address"
        }
      ],
      "name": "getKOLApprovalDetails",
      "outputs": [
        {
          "internalType": "bool",
          "name": "approved",
          "type": "bool"
        },
        {
          "internalType": "uint256",
          "name": "poolLimit",
          "type": "uint256"
        },
        {
          "internalType": "uint256",
          "name": "enforcedSlotFee",
          "type": "uint256"
        },
        {
          "internalType": "uint256",
          "name": "winnerLimit",
          "type": "uint256"
        },
        {
          "internalType": "uint256",
          "name": "poolCount",
          "type": "uint256"
        },
        {
          "internalType": "uint256",
          "name": "winnerCount",
          "type": "uint256"
        }
      ],
      "stateMutability": "view",
      "type": "function"
    },
    {
      "inputs": [],
      "name": "getUnlockedAmount",
      "outputs": [
        {
          "internalType": "uint256",
          "name": "",
          "type": "uint256"
        }
      ],
      "stateMutability": "view",
      "type": "function"
    },
    {
      "inputs": [
        {
          "internalType": "address",
          "name": "_kol",
          "type": "address"
        },
        {
          "internalType": "uint256",
          "name": "_winnersCount",
          "type": "uint256"
        }
      ],
      "name": "incrementKOLApprovedCounts",
      "outputs": [],
      "stateMutability": "nonpayable",
      "type": "function"
    },
    {
      "inputs": [
        {
          "internalType": "string",
          "name": "name_",
          "type": "string"
        },
        {
          "internalType": "string",
          "name": "symbol_",
          "type": "string"
        },
        {
          "internalType": "string",
          "name": "baseURI",
          "type": "string"
        },
        {
          "internalType": "address",
          "name": "initialOwner",
          "type": "address"
        },
        {
          "internalType": "address",
          "name": "_protocolManager",
          "type": "address"
        },
        {
          "internalType": "uint256",
          "name": "_royaltyPercentage",
          "type": "uint256"
        },
        {
          "internalType": "address",
          "name": "_royaltyRecipient",
          "type": "address"
        },
        {
          "internalType": "uint256",
          "name": "_maxSupply",
          "type": "uint256"
        },
        {
          "internalType": "address",
          "name": "preApprovedMinter",
          "type": "address"
        },
        {
          "internalType": "enum PrizeTypes.RevealType",
          "name": "_revealType",
          "type": "uint8"
        },
        {
          "internalType": "string",
          "name": "_unrevealedBaseURI",
          "type": "string"
        },
        {
          "internalType": "uint256",
          "name": "_revealTime",
          "type": "uint256"
        }
      ],
      "name": "initialize",
      "outputs": [],
      "stateMutability": "nonpayable",
      "type": "function"
    },
    {
      "inputs": [
        {
          "internalType": "address",
          "name": "owner",
          "type": "address"
        },
        {
          "internalType": "address",
          "name": "operator",
          "type": "address"
        }
      ],
      "name": "isApprovedForAll",
      "outputs": [
        {
          "internalType": "bool",
          "name": "",
          "type": "bool"
        }
      ],
      "stateMutability": "view",
      "type": "function"
    },
    {
      "inputs": [
        {
          "internalType": "address",
          "name": "marketplace",
          "type": "address"
        }
      ],
      "name": "isMarketplaceAllowed",
      "outputs": [
        {
          "internalType": "bool",
          "name": "",
          "type": "bool"
        }
      ],
      "stateMutability": "view",
      "type": "function"
    },
    {
      "inputs": [],
      "name": "isRevealed",
      "outputs": [
        {
          "internalType": "bool",
          "name": "",
          "type": "bool"
        }
      ],
      "stateMutability": "view",
      "type": "function"
    },
    {
      "inputs": [
        {
          "internalType": "address",
          "name": "account",
          "type": "address"
        }
      ],
      "name": "isRoyaltyEnforcementExempt",
      "outputs": [
        {
          "internalType": "bool",
          "name": "",
          "type": "bool"
        }
      ],
      "stateMutability": "view",
      "type": "function"
    },
    {
      "inputs": [
        {
          "internalType": "address",
          "name": "",
          "type": "address"
        }
      ],
      "name": "kolApprovals",
      "outputs": [
        {
          "internalType": "bool",
          "name": "approved",
          "type": "bool"
        },
        {
          "internalType": "uint256",
          "name": "poolLimit",
          "type": "uint256"
        },
        {
          "internalType": "uint256",
          "name": "enforcedSlotFee",
          "type": "uint256"
        },
        {
          "internalType": "uint256",
          "name": "winnerLimit",
          "type": "uint256"
        },
        {
          "internalType": "uint256",
          "name": "poolCount",
          "type": "uint256"
        },
        {
          "internalType": "uint256",
          "name": "winnerCount",
          "type": "uint256"
        }
      ],
      "stateMutability": "view",
      "type": "function"
    },
    {
      "inputs": [],
      "name": "lockMinterApproval",
      "outputs": [],
      "stateMutability": "nonpayable",
      "type": "function"
    },
    {
      "inputs": [],
      "name": "maxSupply",
      "outputs": [
        {
          "internalType": "uint256",
          "name": "",
          "type": "uint256"
        }
      ],
      "stateMutability": "view",
      "type": "function"
    },
    {
      "inputs": [
        {
          "internalType": "address",
          "name": "to",
          "type": "address"
        },
        {
          "internalType": "uint256",
          "name": "quantity",
          "type": "uint256"
        }
      ],
      "name": "mint",
      "outputs": [],
      "stateMutability": "nonpayable",
      "type": "function"
    },
    {
      "inputs": [],
      "name": "minter",
      "outputs": [
        {
          "internalType": "address",
          "name": "",
          "type": "address"
        }
      ],
      "stateMutability": "view",
      "type": "function"
    },
    {
      "inputs": [],
      "name": "minterLocked",
      "outputs": [
        {
          "internalType": "bool",
          "name": "",
          "type": "bool"
        }
      ],
      "stateMutability": "view",
      "type": "function"
    },
    {
      "inputs": [],
      "name": "name",
      "outputs": [
        {
          "internalType": "string",
          "name": "",
          "type": "string"
        }
      ],
      "stateMutability": "view",
      "type": "function"
    },
    {
      "inputs": [
        {
          "internalType": "address",
          "name": "",
          "type": "address"
        },
        {
          "internalType": "address",
          "name": "",
          "type": "address"
        },
        {
          "internalType": "uint256",
          "name": "",
          "type": "uint256"
        },
        {
          "internalType": "bytes",
          "name": "",
          "type": "bytes"
        }
      ],
      "name": "onERC721Received",
      "outputs": [
        {
          "internalType": "bytes4",
          "name": "",
          "type": "bytes4"
        }
      ],
      "stateMutability": "pure",
      "type": "function"
    },
    {
      "inputs": [],
      "name": "owner",
      "outputs": [
        {
          "internalType": "address",
          "name": "",
          "type": "address"
        }
      ],
      "stateMutability": "view",
      "type": "function"
    },
    {
      "inputs": [
        {
          "internalType": "uint256",
          "name": "tokenId",
          "type": "uint256"
        }
      ],
      "name": "ownerOf",
      "outputs": [
        {
          "internalType": "address",
          "name": "",
          "type": "address"
        }
      ],
      "stateMutability": "view",
      "type": "function"
    },
    {
      "inputs": [],
      "name": "protocolManager",
      "outputs": [
        {
          "internalType": "address",
          "name": "",
          "type": "address"
        }
      ],
      "stateMutability": "view",
      "type": "function"
    },
    {
      "inputs": [
        {
          "internalType": "address",
          "name": "newMinter",
          "type": "address"
        }
      ],
      "name": "reassignAndLockMinter",
      "outputs": [],
      "stateMutability": "nonpayable",
      "type": "function"
    },
    {
      "inputs": [
        {
          "internalType": "address",
          "name": "marketplace",
          "type": "address"
        }
      ],
      "name": "removeAllowedMarketplace",
      "outputs": [],
      "stateMutability": "nonpayable",
      "type": "function"
    },
    {
      "inputs": [],
      "name": "renounceOwnership",
      "outputs": [],
      "stateMutability": "nonpayable",
      "type": "function"
    },
    {
      "inputs": [],
      "name": "reveal",
      "outputs": [],
      "stateMutability": "nonpayable",
      "type": "function"
    },
    {
      "inputs": [],
      "name": "revealTime",
      "outputs": [
        {
          "internalType": "uint256",
          "name": "",
          "type": "uint256"
        }
      ],
      "stateMutability": "view",
      "type": "function"
    },
    {
      "inputs": [],
      "name": "revealType",
      "outputs": [
        {
          "internalType": "enum PrizeTypes.RevealType",
          "name": "",
          "type": "uint8"
        }
      ],
      "stateMutability": "view",
      "type": "function"
    },
    {
      "inputs": [
        {
          "internalType": "address",
          "name": "_kol",
          "type": "address"
        }
      ],
      "name": "revokeKOL",
      "outputs": [],
      "stateMutability": "nonpayable",
      "type": "function"
    },
    {
      "inputs": [],
      "name": "royaltyEnforcementEnabled",
      "outputs": [
        {
          "internalType": "bool",
          "name": "",
          "type": "bool"
        }
      ],
      "stateMutability": "view",
      "type": "function"
    },
    {
      "inputs": [
        {
          "internalType": "uint256",
          "name": "",
          "type": "uint256"
        },
        {
          "internalType": "uint256",
          "name": "salePrice",
          "type": "uint256"
        }
      ],
      "name": "royaltyInfo",
      "outputs": [
        {
          "internalType": "address",
          "name": "",
          "type": "address"
        },
        {
          "internalType": "uint256",
          "name": "",
          "type": "uint256"
        }
      ],
      "stateMutability": "view",
      "type": "function"
    },
    {
      "inputs": [],
      "name": "royaltyPercentage",
      "outputs": [
        {
          "internalType": "uint256",
          "name": "",
          "type": "uint256"
        }
      ],
      "stateMutability": "view",
      "type": "function"
    },
    {
      "inputs": [],
      "name": "royaltyRecipient",
      "outputs": [
        {
          "internalType": "address",
          "name": "",
          "type": "address"
        }
      ],
      "stateMutability": "view",
      "type": "function"
    },
    {
      "inputs": [
        {
          "internalType": "address",
          "name": "from",
          "type": "address"
        },
        {
          "internalType": "address",
          "name": "to",
          "type": "address"
        },
        {
          "internalType": "uint256",
          "name": "tokenId",
          "type": "uint256"
        }
      ],
      "name": "safeTransferFrom",
      "outputs": [],
      "stateMutability": "nonpayable",
      "type": "function"
    },
    {
      "inputs": [
        {
          "internalType": "address",
          "name": "from",
          "type": "address"
        },
        {
          "internalType": "address",
          "name": "to",
          "type": "address"
        },
        {
          "internalType": "uint256",
          "name": "tokenId",
          "type": "uint256"
        },
        {
          "internalType": "bytes",
          "name": "data",
          "type": "bytes"
        }
      ],
      "name": "safeTransferFrom",
      "outputs": [],
      "stateMutability": "nonpayable",
      "type": "function"
    },
    {
      "inputs": [
        {
          "internalType": "address",
          "name": "operator",
          "type": "address"
        },
        {
          "internalType": "bool",
          "name": "approved",
          "type": "bool"
        }
      ],
      "name": "setApprovalForAll",
      "outputs": [],
      "stateMutability": "nonpayable",
      "type": "function"
    },
    {
      "inputs": [
        {
          "internalType": "string",
          "name": "newBaseURI",
          "type": "string"
        }
      ],
      "name": "setBaseURI",
      "outputs": [],
      "stateMutability": "nonpayable",
      "type": "function"
    },
    {
      "inputs": [
        {
          "internalType": "address",
          "name": "_minter",
          "type": "address"
        },
        {
          "internalType": "bool",
          "name": "approved",
          "type": "bool"
        }
      ],
      "name": "setMinterApproval",
      "outputs": [],
      "stateMutability": "nonpayable",
      "type": "function"
    },
    {
      "inputs": [
        {
          "internalType": "uint256",
          "name": "_royaltyPercentage",
          "type": "uint256"
        },
        {
          "internalType": "address",
          "name": "_royaltyRecipient",
          "type": "address"
        }
      ],
      "name": "setRoyalty",
      "outputs": [],
      "stateMutability": "nonpayable",
      "type": "function"
    },
    {
      "inputs": [
        {
          "internalType": "address",
          "name": "account",
          "type": "address"
        },
        {
          "internalType": "bool",
          "name": "exempt",
          "type": "bool"
        }
      ],
      "name": "setRoyaltyEnforcementExemption",
      "outputs": [],
      "stateMutability": "nonpayable",
      "type": "function"
    },
    {
      "inputs": [
        {
          "internalType": "bytes4",
          "name": "interfaceId",
          "type": "bytes4"
        }
      ],
      "name": "supportsInterface",
      "outputs": [
        {
          "internalType": "bool",
          "name": "",
          "type": "bool"
        }
      ],
      "stateMutability": "view",
      "type": "function"
    },
    {
      "inputs": [],
      "name": "symbol",
      "outputs": [
        {
          "internalType": "string",
          "name": "",
          "type": "string"
        }
      ],
      "stateMutability": "view",
      "type": "function"
    },
    {
      "inputs": [
        {
          "internalType": "bool",
          "name": "enabled",
          "type": "bool"
        }
      ],
      "name": "toggleRoyaltyEnforcement",
      "outputs": [],
      "stateMutability": "nonpayable",
      "type": "function"
    },
    {
      "inputs": [
        {
          "internalType": "uint256",
          "name": "tokenId",
          "type": "uint256"
        }
      ],
      "name": "tokenURI",
      "outputs": [
        {
          "internalType": "string",
          "name": "",
          "type": "string"
        }
      ],
      "stateMutability": "view",
      "type": "function"
    },
    {
      "inputs": [],
      "name": "totalSupply",
      "outputs": [
        {
          "internalType": "uint256",
          "name": "",
          "type": "uint256"
        }
      ],
      "stateMutability": "view",
      "type": "function"
    },
    {
      "inputs": [
        {
          "internalType": "address",
          "name": "from",
          "type": "address"
        },
        {
          "internalType": "address",
          "name": "to",
          "type": "address"
        },
        {
          "internalType": "uint256",
          "name": "tokenId",
          "type": "uint256"
        }
      ],
      "name": "transferFrom",
      "outputs": [],
      "stateMutability": "nonpayable",
      "type": "function"
    },
    {
      "inputs": [
        {
          "internalType": "address",
          "name": "newOwner",
          "type": "address"
        }
      ],
      "name": "transferOwnership",
      "outputs": [],
      "stateMutability": "nonpayable",
      "type": "function"
    },
    {
      "inputs": [],
      "name": "unlockMinterApproval",
      "outputs": [],
      "stateMutability": "nonpayable",
      "type": "function"
    },
    {
      "inputs": [],
      "name": "unrevealedBaseURI",
      "outputs": [
        {
          "internalType": "string",
          "name": "",
          "type": "string"
        }
      ],
      "stateMutability": "view",
      "type": "function"
    },
    {
      "inputs": [],
      "name": "vestingConfig",
      "outputs": [
        {
          "internalType": "uint256",
          "name": "cliffEnd",
          "type": "uint256"
        },
        {
          "internalType": "uint256",
          "name": "numberOfUnlocks",
          "type": "uint256"
        },
        {
          "internalType": "uint256",
          "name": "durationBetweenUnlocks",
          "type": "uint256"
        },
        {
          "internalType": "uint256",
          "name": "amountPerUnlock",
          "type": "uint256"
        }
      ],
      "stateMutability": "view",
      "type": "function"
    },
    {
      "inputs": [],
      "name": "vestingConfigured",
      "outputs": [
        {
          "internalType": "bool",
          "name": "",
          "type": "bool"
        }
      ],
      "stateMutability": "view",
      "type": "function"
    },
    {
      "inputs": [
        {
          "internalType": "address",
          "name": "",
          "type": "address"
        }
      ],
      "name": "walletMintedCount",
      "outputs": [
        {
          "internalType": "uint256",
          "name": "",
          "type": "uint256"
        }
      ],
      "stateMutability": "view",
      "type": "function"
    }
  ],
  "bytecode": "0x60a0346200038257601f906001600160401b0390601f19620050dc38819003858101831684018581118582101762000387578492829160405283396020938491810103126200038257516001600160a01b039490939085851685036200038257620000696200039d565b926000948585526200007a6200039d565b9186835285518581116200036e578754966001978881811c9116801562000363575b858210146200034f57908187849311620002fc575b5084908783116001146200029b578a926200028f575b5050600019600383901b1c191690871b1787555b82519485116200027b5785548681811c9116801562000270575b838210146200025c5790818587969594931162000203575b50819385116001146200019e575050859262000192575b5050600019600383901b1c191690821b1781555b600655600754903360018060a01b03198316176007557f8be0079c531659141344cd1fd0a4f28419497f9722a3daafe3b4186f6b6457e0604051943393169180a3608052614d1e9081620003be8239608051816120f00152f35b01519050388062000124565b869593929193168588528388209388905b828210620001e95750508411620001cf575b505050811b01815562000138565b015160001960f88460031b161c19169055388080620001c1565b8484015186558897909501949384019390810190620001af565b9091929394508688528288208580880160051c82019285891062000252575b9188978a9297969594930160051c01915b828110620002435750506200010d565b8a815588975089910162000233565b9250819262000222565b634e487b7160e01b88526022600452602488fd5b90607f1690620000f5565b634e487b7160e01b87526041600452602487fd5b015190503880620000c7565b90848a9416918b8052868c20928c5b88828210620002e55750508411620002cb575b505050811b018755620000db565b015160001960f88460031b161c19169055388080620002bd565b8385015186558d97909501949384019301620002aa565b909150898052848a208780850160051c82019287861062000345575b918b91869594930160051c01915b82811062000336575050620000b1565b8c81558594508b910162000326565b9250819262000318565b634e487b7160e01b8a52602260045260248afd5b90607f16906200009c565b634e487b7160e01b88526041600452602488fd5b600080fd5b634e487b7160e01b600052604160045260246000fd5b60405190602082016001600160401b03811183821017620003875760405256fe608080604052600436101561001357600080fd5b60003560e01c90816301ffc9a714613d445750806306fdde0314613cb05780630754617214613c87578063081812fc14613c69578063095ea7b314613a905780630de54ba0146139f6578063101224881461395257806310c7e4a214613913578063150b7a02146138aa57806317f63979146137e457806318160ddd146137c6578063182ee485146134ed5780631c3825891461333a5780631cdccaff1461331e57806323b872dd1461329b578063249f851b1461326157806324e0eba9146131fc57806324ea3626146131e15780632633f8b1146131205780632a55205a146130e457806340c10f1914612f5f57806340e3276b14612ec757806342842e0e14612e295780634c00de8214612e0057806354214f6914612dde57806355f804b314612c355780636352211e14612c05578063693866e314612bea57806369d42c5e1461299657806370a08231146128ff578063715018a6146128a257806371c333591461286457806376ae8607146120135780637ecc2b5614611f8057806383e46c5614611f5d5780638a71bb2d14611f3f5780638da5cb5b14611f165780638f152d0e14611ef35780639015d26b14611ed05780639511000314611a8c57806395d89b41146119d057806397c82b66146118c5578063a22cb4651461178f578063a2af294f14611765578063a362273514611747578063a475b5dd146115be578063a7df596e1461148f578063ab4b669214611466578063b5f1f2471461123e578063b88d4fde1461113f578063ba829d7114611121578063bcaa7f0014610f4c578063c87b56dd14610f19578063cc54cce314610ef6578063cee8e0fe14610ed3578063d0aa96c014610e74578063d5abeb0114610e56578063d8270dce14610e38578063dc817c2e14610ca5578063e059b9c014610c87578063e985e9c514610c31578063f2fde38b14610ba2578063f4c44569146106fa578063faf5a1241461042d578063fbddc055146103a9578063fbf3aa211461036b5763fcf2e55f1461030057600080fd5b3461036657602036600319011261036657610319613e29565b610321614046565b6001600160a01b03166000818152600860205260408120805460ff191690557ffeb031b2d93541150a8571bc111b4dab4d98dfef15bcbe6e89653e385a5d980a9080a2005b600080fd5b3461036657600036600319011261036657601954601a54601b54601c54604080519485526020850193909352918301526060820152608090f35b0390f35b34610366576020366003190112610366576001600160a01b036103ca613e29565b166000526008602052604060002060ff8154166103a560018301549260028101549060038101546005600483015492015492604051968796879260a094919796959260c08501981515855260208501526040840152606083015260808201520152565b3461036657604036600319011261036657610446613e29565b61044e613e55565b60135460405163188c824d60e11b815291926020926001600160a01b039283169291908481600481875afa9081156105db576000916106cd575b5082806007541633149182156106c0575b50501561066657169283600052601f835260ff6040600020541615801561065e575b156105fe5780159182806105e7575b61051f575b50906105157f61630ccfd9f6a7f081736c73f365b44d23ac1af5e8d23c9eeba86f0cc3cfefbe939285600052601f845260406000209060ff801983541691151516179055565b60405190158152a2005b8360249160405192838092633247c33f60e21b82528960048301525afa9081156105db576000916105ae575b5061055657846104cf565b60405162461bcd60e51b815260048101849052602a60248201527f43616e6e6f742072656d6f7665206578656d7074696f6e20666f7220706f6f6c60448201526920636f6e74726163747360b01b6064820152608490fd5b6105ce9150843d86116105d4575b6105c68183613ed4565b8101906141d4565b8561054b565b503d6105bc565b6040513d6000823e3d90fd5b5084600052601f845260ff604060002054166104ca565b60405162461bcd60e51b815260048101849052603260248201527f4164647265737320697320616c7265616479206578656d70742066726f6d20726044820152711bde585b1d1e48195b999bdc98d95b595b9d60721b6064820152608490fd5b5080156104bb565b60405162461bcd60e51b815260048101859052602c60248201527f4f6e6c79206f776e6572206f7220506f6f6c4465706c6f7965722063616e207360448201526b32ba1032bc32b6b83a34b7b760a11b6064820152608490fd5b9091501633148287610499565b6106ed9150853d87116106f3575b6106e58183613ed4565b8101906141b5565b86610488565b503d6106db565b346103665760208060031936011261036657600435610717614046565b6011546001600160a01b03161580610b95575b15610b335780151580610b28575b15610ad757600e549060145480831015610a925760646107618361075c868561485e565b6147c0565b04908115610a3a57906107739161485e565b9182106109db5760165482601455601254600281166107c1575b7fbba296472f2135056aa4038d0d43f8b8dd1ff674c970ca244557fda3bf2bdead60408587601654908351928352820152a1005b601854926107cf848461485e565b80610948575b50506004161515908161093b575b506107f0575b808061078d565b6019548042106000146108f65750601a54905b816108865750506040907fbba296472f2135056aa4038d0d43f8b8dd1ff674c970ca244557fda3bf2bdead926000601c555b601954601a54601b54601c5486519384526020840192909252604083015260608201527f7e2a3374677a327cc55645e34396200e1c47056393c1e5dfa3e1f7a40384a33a90608090a19250906107e9565b8161089961089e9260169594955461485e565b614851565b6000198101939084116108e0576108d86040937fbba296472f2135056aa4038d0d43f8b8dd1ff674c970ca244557fda3bf2bdead956147d3565b601c55610835565b634e487b7160e01b600052601160045260246000fd5b61090361090c914261485e565b601b54906147d3565b600181018091116108e057601a549081811061092c575050600090610803565b6109359161485e565b90610803565b90506016541415846107e3565b61095761095e926064926147c0565b048361485e565b838110610970576016556004866107d5565b60405162461bcd60e51b815260048101879052603960248201527f4e65772063726561746f7220616c6c6f636174696f6e2063616e6e6f7420626560448201527f206c657373207468616e20636c61696d656420616d6f756e74000000000000006064820152608490fd5b60405162461bcd60e51b815260048101849052603160248201527f4e6577206d617820737570706c792063616e6e6f74206265206c657373207468604482015270185b88185b1c9958591e481b5a5b9d1959607a1b6064820152608490fd5b60405162461bcd60e51b815260048101869052602a60248201527f526564756374696f6e20616d6f756e74206d7573742062652067726561746572604482015269207468616e207a65726f60b01b6064820152608490fd5b60405162461bcd60e51b815260048101859052601860248201527f4e6f20737570706c79206c65667420746f2072656475636500000000000000006044820152606490fd5b60405162461bcd60e51b8152600481018390526024808201527f50657263656e74616765206d757374206265206265747765656e203120616e646044820152630203130360e41b6064820152608490fd5b506064811115610738565b60405162461bcd60e51b815260048101839052603460248201527f43616e6e6f742063757420737570706c79207768696c6520636f6e7472616374604482015273206973207469656420746f206120726166666c6560601b6064820152608490fd5b506001601254161561072a565b3461036657602036600319011261036657610bbb613e29565b610bc3614046565b6001600160a01b03811615610bdd57610bdb9061409e565b005b60405162461bcd60e51b815260206004820152602660248201527f4f776e61626c653a206e6577206f776e657220697320746865207a65726f206160448201526564647265737360d01b6064820152608490fd5b3461036657604036600319011261036657610c4a613e29565b610c52613e3f565b9060018060a01b03809116600052600560205260406000209116600052602052602060ff604060002054166040519015158152f35b34610366576000366003190112610366576020601854604051908152f35b3461036657600036600319011261036657610cbe614046565b6011546001600160a01b03168015610de9576040519060208201906301ffc9a760e01b82526368955ab760e01b60248401526024835260608301918383106001600160401b03841117610dd357600093849360405251915afa610d1f6144ec565b81610db9575b5015610d5a57610d33614194565b7fd5cb2e985e95fd394547f9c7ee44d15aeb87738279930d016adf6a6c3f1a25c1600080a1005b60405162461bcd60e51b815260206004820152603160248201527f43616e206f6e6c79206c6f636b206d696e74657220617070726f76616c20746f60448201527020726166666c6520636f6e74726163747360781b6064820152608490fd5b610dcd9150602080825183010191016141d4565b81610d25565b634e487b7160e01b600052604160045260246000fd5b60405162461bcd60e51b815260206004820152602160248201527f43616e6e6f74206c6f636b2061207a65726f2061646472657373206d696e74656044820152603960f91b6064820152608490fd5b34610366576000366003190112610366576020601754604051908152f35b34610366576000366003190112610366576020601454604051908152f35b3461036657600036600319011261036657610e8d614046565b60106012546001600160801b038116906001600160801b03191617176012557f192c3f8649694bd147faa743027e4c232721f15ec16032c1c34b414c47a90df3600080a1005b346103665760003660031901126103665760206010601254161515604051908152f35b346103665760003660031901126103665760206001601254161515604051908152f35b34610366576020366003190112610366576103a5610f38600435614974565b604051918291602083526020830190613e04565b3461036657600036600319011261036657610f65614046565b6011546001600160a01b03811680156110e65760206004916040519283809263c19d93fb60e01b82525afa9081156105db576000916110ac575b5060088110159081611088576006811491821561109e575b8215611077575b50501561102857601280546fffffffffffffffffffffffffffffffff1981166ffffffffffffffffffffffffffffffffe9091161790556001600160a01b0319166011557f5e7f52ff86abf7b572123888a9e67a9ff6c324bc8cf6217f0ee997b28531fa8e600080a1005b60405162461bcd60e51b815260206004820152602160248201527f506f6f6c206e6f7420696e20612073616665207465726d696e616c20737461746044820152606560f81b6064820152608490fd5b909150611088576007148280610fbe565b634e487b7160e01b600052602160045260246000fd5b506005811491506000610fb7565b90506020813d82116110de575b816110c660209383613ed4565b81010312610366575160088110156103665782610f9f565b3d91506110b9565b60405162461bcd60e51b81526020600482015260136024820152724e6f206d696e74657220746f20756e6c6f636b60681b6044820152606490fd5b34610366576000366003190112610366576020601e54604051908152f35b3461036657608036600319011261036657611158613e29565b611160613e3f565b90604435606435926001600160401b0384116103665736602385011215610366576111986111d7943690602481600401359101613ff1565b926012546008811615159081611232575b5080611219575b6111fb575b6111c76111c284336142c0565b61425e565b6111d2838383614388565b61451c565b156111de57005b60405162461bcd60e51b8152806111f760048201614499565b0390fd5b336000526020805261121460ff604060002054166141ec565b6111b5565b5033600052601f60205260ff60406000205416156111b0565b601091501615866111a9565b3461036657608036600319011261036657611257613e29565b602435906044356064359161126a614046565b6001600160a01b031692831561142b5780156113dc57821561138b5783600052600860205260ff6040600020541661134f577f70f501bd2f3c55f153861010e5184d8493b7b83ce7c4cb72fcc70fd07c1a240a926060926040516112cd81613e9e565b600181526005602082018581526040830184815287840186815260808501916000835260a0860193600085528c6000526008602052611320604060002097511515889060ff801983541691151516179055565b5160018701555160028601555160038501555160048401555191015560405192835260208301526040820152a2005b60405162461bcd60e51b815260206004820152601460248201527312d3d308185b1c9958591e48185c1c1c9bdd995960621b6044820152606490fd5b60405162461bcd60e51b815260206004820152602360248201527f57696e6e6572206c696d6974206d75737420626520677265617465722074686160448201526206e20360ec1b6064820152608490fd5b60405162461bcd60e51b815260206004820152602160248201527f506f6f6c206c696d6974206d7573742062652067726561746572207468616e206044820152600360fc1b6064820152608490fd5b60405162461bcd60e51b8152602060048201526013602482015272496e76616c6964204b4f4c206164647265737360681b6044820152606490fd5b34610366576000366003190112610366576013546040516001600160a01b039091168152602090f35b34610366576020366003190112610366576004356114ab614046565b601254906002821661156d576014811161151c577f4f0ee8dede1f88eebce079d082b265aea42f0e2dd279124103655875097f43f491600260646114f36020946014546147c0565b0491826016556001600160801b038116906001600160801b0319161717601255604051908152a1005b60405162461bcd60e51b8152602060048201526024808201527f43726561746f7220616c6c6f636174696f6e2063616e6e6f74206578636565646044820152632032302560e01b6064820152608490fd5b60405162461bcd60e51b815260206004820152602360248201527f43726561746f7220616c6c6f636174696f6e20616c7265616479206465636c616044820152621c995960ea1b6064820152608490fd5b34610366576000366003190112610366576115d7614046565b6020601254166117025760ff601d5416600381101561108857600281036116935750601e54421061164e575b61162760206012546001600160801b038116906001600160801b0319161717601255565b7f4884a1e8d033385ee80fa3d769d1ba3c44e18291db0f726e436a01997d3df36a600080a1005b60405162461bcd60e51b815260206004820152601e60248201527f52657665616c2074696d6520686173206e6f74207965742070617373656400006044820152606490fd5b6116035760405162461bcd60e51b815260206004820152603e60248201527f496e7374616e742072657665616c20636f6c6c656374696f6e7320646f206e6f60448201527f74206e65656420746f206265206d616e75616c6c792072657665616c656400006064820152608490fd5b60405162461bcd60e51b815260206004820152601e60248201527f436f6c6c656374696f6e20697320616c72656164792072657665616c656400006044820152606490fd5b34610366576000366003190112610366576020601654604051908152f35b346103665760003660031901126103665760ff601d54166040516003821015611088576020918152f35b34610366576040366003190112610366576117a8613e29565b6117b0613e55565b9060125460088116151590816118b9575b50806118a0575b611882575b6001600160a01b03169033821461183d5733600052600560205260406000208260005260205261180d8160406000209060ff801983541691151516179055565b60405190151581527f17307eab39ab6107e8899845ad3d59bd9653f200f220920489ca2b5937696c3160203392a3005b60405162461bcd60e51b815260206004820152601960248201527f4552433732313a20617070726f766520746f2063616c6c6572000000000000006044820152606490fd5b336000526020805261189b60ff604060002054166141ec565b6117cd565b5033600052601f60205260ff60406000205416156117c8565b601091501615836117c1565b3461036657602080600319360112610366576118df613e29565b6118e7614046565b6001600160a01b031690811561198c578160005280805260ff60406000205416611948578160005280526040600020600160ff198254161790557f119567ed9b6c3d3a90f367bc09314fc6cd50ab2434a5b4f73688a2c1ea149838600080a2005b6064906040519062461bcd60e51b82526004820152601b60248201527f4d61726b6574706c61636520616c726561647920616c6c6f77656400000000006044820152fd5b6064906040519062461bcd60e51b82526004820152601b60248201527f496e76616c6964206d61726b6574706c616365206164647265737300000000006044820152fd5b34610366576000366003190112610366576040516000600a546119f281613e64565b80845290600190818116908115611a655750600114611a1c575b6103a584610f3881860382613ed4565b600a60009081529250600080516020614c898339815191525b828410611a4d575050508101602001610f3882611a0c565b80546020858701810191909152909301928101611a35565b60ff191660208087019190915292151560051b85019092019250610f389150839050611a0c565b3461036657606036600319011261036657602480356004356044803590611ab1614046565b6012549060048216611e8d57601754908115611e4a57611ad56002841615156147f3565b601654916101f4831015611d245760028710611cd6575b60b48101809111611cc1578510611c6257610e108410611c01575084611b1191614851565b6000198101908111611bec5784611b27916147d3565b946040519060808201908282106001600160401b03831117611bd8575086927f7e2a3374677a327cc55645e34396200e1c47056393c1e5dfa3e1f7a40384a33a976060611bd3969460049460405288815289602082015285604082015201528560195586601a5582601b5583601c556001600160801b038116906001600160801b0319161717601255604051948594859094939260609260808301968352602083015260408201520152565b0390a1005b634e487b7160e01b60009081526041600452fd5b85634e487b7160e01b60005260116004526000fd5b867f4475726174696f6e206265747765656e20756e6c6f636b73206d757374206e6f60849260356040519362461bcd60e51b855260206004860152840152820152743a103132903632b9b9903a3430b71018903437bab960591b6064820152fd5b867f436c696666206d757374206e6f74206265206c657373207468616e2033206d6960849260336040519362461bcd60e51b85526020600486015284015282015272373aba32b990333937b69031b932b0ba34b7b760691b6064820152fd5b87634e487b7160e01b60005260116004526000fd5b60405162461bcd60e51b8152602060048201526022818a01527f4d696e203220756e6c6f636b7320666f7220616c6c6f636174696f6e203c20358184015261030360f41b6064820152608490fd5b6103e8831015611d8d5760048710611d3c575b611aec565b60405162461bcd60e51b8152602060048201526025818a01527f4d696e203420756e6c6f636b7320666f7220616c6c6f636174696f6e20353030818401526402d313030360dc1b6064820152608490fd5b6107d0831015611df2576008871015611aec5760405162461bcd60e51b8152602060048201526026818a01527f4d696e203820756e6c6f636b7320666f7220616c6c6f636174696f6e2031303081840152650302d323030360d41b6064820152608490fd5b6008871015611d375760405162461bcd60e51b8152602060048201526023818a01527f4d696e203820756e6c6f636b7320666f7220616c6c6f636174696f6e203e2032818401526203030360ec1b6064820152608490fd5b867f436f6c6c656374696f6e206e6f7420696e697469616c697a6564000000000000606492601a6040519362461bcd60e51b855260206004860152840152820152fd5b857f56657374696e6720616c726561647920636f6e66696775726564000000000000606492601a6040519362461bcd60e51b855260206004860152840152820152fd5b346103665760003660031901126103665760206002601254161515604051908152f35b346103665760003660031901126103665760206004601254161515604051908152f35b34610366576000366003190112610366576007546040516001600160a01b039091168152602090f35b34610366576000366003190112610366576020600f54604051908152f35b346103665760003660031901126103665760206008601254161515604051908152f35b3461036657600036600319011261036657600e54601454818110611fb257602091611faa9161485e565b604051908152f35b60405162461bcd60e51b815260206004820152603360248201527f41726974686d6574696320756e646572666c6f7720696e20617661696c61626c60448201527232a9bab838363c9031b0b631bab630ba34b7b760691b6064820152608490fd5b3461036657610180366003190112610366576004356001600160401b03811161036657612044903690600401614028565b6024356001600160401b03811161036657612063903690600401614028565b906044356001600160401b03811161036657612083903690600401614028565b916001600160a01b03916064358084169003610366576084359083821682036103665760c4358481168103610366576101043593858516850361036657600361012435101561036657610144356001600160401b038111610366576120ec903690600401614028565b92867f000000000000000000000000000000000000000000000000000000000000000016330361281f5786600754166127e4576014546127aa578051906001600160401b038211610dd3578190612144600954613e64565b601f8111612736575b50602090601f83116001146126be576000926126b3575b50508160011b916000199060031b1c1916176009555b8051906001600160401b038211610dd3578190612198600a54613e64565b601f811161263f575b50602090601f83116001146125c7576000926125bc575b50508160011b916000199060031b1c191617600a555b85516001600160401b038111610dd3576121e9600b54613e64565b96601f881161256d575b869750600096959650602090601f83116001146124f25786939291600091836124e7575b50508160011b916000199060031b1c191617600b555b601380546001600160a01b03191685841617905561224c60643561409e565b60a435600f55166001600160601b0360a01b601054161760105560e4356014556001600d554260175560ff19601d541660ff610124351617601d55610124351560001461232257506122b860206012546001600160801b038116906001600160801b0319161717601255565b8160643516600052601f6020526040600020600160ff19825416179055166000526040600020600160ff19825416179055306000526040600020600160ff1982541617905581811661230657005b166001600160601b0360a01b6011541617601155610d33614194565b809250516001600160401b038111610dd3578492612341600c54613e64565b601f811161246f575b50602090601f83116001146123f65760009190836123eb575b50508160011b916000199060031b1c191617600c555b600261012435036122b8576101643591504282111561239c578391601e556122b8565b60405162461bcd60e51b815260206004820152602160248201527f52657665616c2074696d65206d75737420626520696e207468652066757475726044820152606560f81b6064820152608490fd5b015190508680612363565b93929190601f19821690600c600052600080516020614c698339815191529160005b8181106124545750958360019596971061243b575b505050811b01600c55612379565b015160001960f88460031b161c1916905586808061242d565b87830151845589965060019093019260209283019201612418565b9091929350600c600052601f830160051c600080516020614c6983398151915201602084106124d2575b9086949392915b601f820160051c600080516020614c698339815191520181106124c3575061234a565b600081558795506001016124a0565b50600080516020614c69833981519152612499565b015190508980612217565b90600b600052600080516020614cc98339815191529160005b601f19851681106125525750918391600193899695601f19811610612539575b505050811b01600b5561222d565b015160001960f88460031b161c1916905589808061252b565b8183015184558a98506001909301926020928301920161250b565b600b600052600080516020614cc9833981519152601f830160051c8101602084106125b5575b601f8a0160051c820181106125a95750506121f3565b60008155600101612593565b5080612593565b0151905088806121b8565b9250600a600052600080516020614c89833981519152906000935b601f1984168510612624576001945083601f1981161061260b575b505050811b01600a556121ce565b015160001960f88460031b161c191690558880806125fd565b818101518355602094850194600190930192909101906125e2565b909150600a600052601f830160051c600080516020614c89833981519152016020841061269e575b908392915b601f820160051c600080516020614c8983398151915201811061268f57506121a1565b6000815584935060010161266c565b50600080516020614c89833981519152612667565b015190508980612164565b92506009600052600080516020614ca9833981519152906000935b601f198416851061271b576001945083601f19811610612702575b505050811b0160095561217a565b015160001960f88460031b161c191690558980806126f4565b818101518355602094850194600190930192909101906126d9565b9091506009600052601f830160051c600080516020614ca98339815191520160208410612795575b908392915b601f820160051c600080516020614ca9833981519152018110612786575061214d565b60008155849350600101612763565b50600080516020614ca983398151915261275e565b60405162461bcd60e51b815260206004820152601260248201527114dd5c1c1b1e48185b1c9958591e481cd95d60721b6044820152606490fd5b60405162461bcd60e51b8152602060048201526013602482015272105b1c9958591e481a5b9a5d1a585b1a5e9959606a1b6044820152606490fd5b60405162461bcd60e51b815260206004820152601b60248201527f4f6e6c7920666163746f72792063616e20696e697469616c697a6500000000006044820152606490fd5b34610366576020366003190112610366576001600160a01b03612885613e29565b1660005260208052602060ff604060002054166040519015158152f35b34610366576000366003190112610366576128bb614046565b600780546001600160a01b031981169091556000906001600160a01b03167f8be0079c531659141344cd1fd0a4f28419497f9722a3daafe3b4186f6b6457e08280a3005b34610366576020366003190112610366576001600160a01b03612920613e29565b16801561293f5760005260036020526020604060002054604051908152f35b60405162461bcd60e51b815260206004820152602960248201527f4552433732313a2061646472657373207a65726f206973206e6f7420612076616044820152683634b21037bbb732b960b91b6064820152608490fd5b34610366576040366003190112610366576129af613e29565b60135460405163188c824d60e11b8152602092602435926001600160a01b03929085908290600490829087165afa9081156105db57600091612bcd575b508233911603612b775716918260005260089081815260ff6040600020541615612b4057836000528181526040600020600160048201549101541115612afc5783600052818152612a4583600560406000200154614851565b8460005282825260036040600020015410612ab857836000528181526004604060002001612a73815461461b565b90558360005252612a8d6005604060002001918254614851565b905533907f5b7945a09273a36deae169b61c3f2f6e50c1a2030374353d76346822ae48f674600080a3005b6064906040519062461bcd60e51b82526004820152601960248201527f4b4f4c2077696e6e6572206c696d6974206578636565646564000000000000006044820152fd5b6064906040519062461bcd60e51b82526004820152601760248201527f4b4f4c20706f6f6c206c696d69742065786365656465640000000000000000006044820152fd5b6064906040519062461bcd60e51b82526004820152601060248201526f12d3d3081b9bdd08185c1c1c9bdd995960821b6044820152fd5b60405162461bcd60e51b815260048101859052602860248201527f4f6e6c7920506f6f6c4465706c6f7965722063616e2063616c6c207468697320604482015267333ab731ba34b7b760c11b6064820152608490fd5b612be49150853d87116106f3576106e58183613ed4565b856129ec565b34610366576000366003190112610366576020611faa6148e2565b34610366576020366003190112610366576020612c23600435614133565b6040516001600160a01b039091168152f35b3461036657602080600319360112610366576001600160401b039060043582811161036657612c68903690600401614028565b90612c71614046565b8151928311610dd357612c85600b54613e64565b601f8111612d8c575b508092601f8111600114612cfb57807f6741b2fc379fad678116fe3d4d4b9a1a184ab53ba36b86ad0fa66340b1ab41ad94600091612cf0575b508160011b916000199060031b1c191617600b555b611bd3604051928284938452830190613e04565b905083015185612cc7565b601f19811693600b600052600080516020614cc98339815191529460005b818110612d7557509482916001937f6741b2fc379fad678116fe3d4d4b9a1a184ab53ba36b86ad0fa66340b1ab41ad9710612d5c575b5050811b01600b55612cdc565b85015160001960f88460031b161c191690558580612d4f565b858301518755600190960195918401918401612d19565b600b600052600080516020614cc9833981519152601f850160051c810191838610612dd4575b601f0160051c01905b818110612dc85750612c8e565b60008155600101612dbb565b9091508190612db2565b3461036657600036600319011261036657602080601254161515604051908152f35b34610366576000366003190112610366576010546040516001600160a01b039091168152602090f35b34610366576111d7612e3a36613fa1565b9060125492600884161515808091612ebc575b80612ea3575b612e85575b60405194612e6586613eb9565b6000865281611232575080611219576111fb576111c76111c284336142c0565b3360005260208052612e9e60ff604060002054166141ec565b612e58565b5033600052601f60205260ff6040600020541615612e53565b506010851615612e4d565b3461036657604036600319011261036657600435612ee3613e3f565b90612eec614046565b6127108111612f1a57600f55601080546001600160a01b0319166001600160a01b0392909216919091179055005b60405162461bcd60e51b815260206004820152601a60248201527f526f79616c74792063616e6e6f742065786365656420313030250000000000006044820152606490fd5b3461036657604036600319011261036657612f78613e29565b60243590612f8461462a565b6011546001600160a01b0391908216330361308f57821561307d57600e90815460145490818110156130385785011161302657600093928116935b838110612fcd576001600655005b600190600d612fdd8154856146cc565b6130128154887f3b782080656380c62378fe492892b8dcb9c50affce49759e169b8c7e5ef270e76020604051848152a261461b565b905561301e845461461b565b845501612fbf565b60405163c30436e960e01b8152600490fd5b60405162461bcd60e51b815260206004820152601b60248201527f4e6f20737570706c7920617661696c61626c6520746f206d696e7400000000006044820152606490fd5b60405163f4f5b73360e01b8152600490fd5b60405162461bcd60e51b815260206004820152602760248201527f556e617574686f72697a65643a204f6e6c79206d696e7465722063616e2063616044820152661b1b081b5a5b9d60ca1b6064820152608490fd5b3461036657604036600319011261036657604060018060a01b0360105416612710613113600f546024356147c0565b0482519182526020820152f35b34610366576020806003193601126103665761313a613e29565b613142614046565b6001600160a01b03166000818152828052604090205490919060ff161561319d57816000528052604060002060ff1981541690557feac9a18305649744c83ff9f4d60058552b03f4e8df46a1cb28f7563fbd179b42600080a2005b6064906040519062461bcd60e51b82526004820152601f60248201527f4d61726b6574706c616365206e6f7420696e20616c6c6f776564206c697374006044820152fd5b34610366576000366003190112610366576020611faa61486b565b3461036657600036600319011261036657613215614046565b6012546fffffffffffffffffffffffffffffffef8116906001600160801b031916176012557fa0e4442ee881786834ee773b9ed42c22dff390d3d3318996679777915e63be34600080a1005b34610366576020366003190112610366576001600160a01b03613282613e29565b1660005260156020526020604060002054604051908152f35b3461036657610bdb6132ac36613fa1565b916012546008811615159081613312575b50806132f9575b6132db575b6132d66111c284336142c0565b614388565b33600052602080526132f460ff604060002054166141ec565b6132c9565b5033600052601f60205260ff60406000205416156132c4565b601091501615856132bd565b34610366576000366003190112610366576103a5610f38613ef5565b346103665760208060031936011261036657613354613e29565b60135460405163188c824d60e11b81526001600160a01b039184908290600490829086165afa9081156105db576000916134d0575b508133911603613465576011549181831661340f57169182156133bd57506001600160a01b03191617601155610d33614194565b6084906040519062461bcd60e51b82526004820152602560248201527f4e6577206d696e7465722063616e6e6f7420626520746865207a65726f206164604482015264647265737360d81b6064820152fd5b60405162461bcd60e51b815260048101859052602860248201527f436f6e747261637420697320616c72656164792061737369676e656420746f20604482015267309036b4b73a32b960c11b6064820152608490fd5b60405162461bcd60e51b815260048101849052603860248201527f4f6e6c79207468652070726f746f636f6c277320506f6f6c4465706c6f79657260448201527f2063616e2063616c6c20746869732066756e6374696f6e2e00000000000000006064820152608490fd5b6134e79150843d86116106f3576106e58183613ed4565b84613389565b3461036657604036600319011261036657613506613e29565b602490813591613514614046565b61351c61462a565b601254916004831615613789576135376002841615156147f3565b831561374e57600e9161354b858454614851565b6014541061370a576011546001600160a01b03949085161590816136fe575b50156136a6576135786148e2565b85116136545761358a85601854614851565b6016541061361057506000928116925b8481106135b7576135ad85601854614851565b6018556001600655005b600190600d6135c78154856146cc565b6135fc8154877f3b782080656380c62378fe492892b8dcb9c50affce49759e169b8c7e5ef270e76020604051848152a261461b565b9055613608845461461b565b84550161359a565b606490601a6040519162461bcd60e51b8352602060048401528201527f457863656564732063726561746f7220616c6c6f636174696f6e0000000000006044820152fd5b60849060256040519162461bcd60e51b8352602060048401528201527f4578636565647320617661696c61626c6520756e6c6f636b656420616c6c6f6360448201526430ba34b7b760d91b6064820152fd5b608490602b6040519162461bcd60e51b8352602060048401528201527f5468697320636f6c6c656374696f6e2069732063757272656e746c792074696560448201526a19081d1bc818481c1bdbdb60aa1b6064820152fd5b6001915016158661356a565b606490601f6040519162461bcd60e51b8352602060048401528201527f4d696e74696e6720776f756c6420657863656564206d617820737570706c79006044820152fd5b60405162461bcd60e51b8152602060048201526014818401527305175616e74697479206d757374206265203e20360641b6044820152606490fd5b60405162461bcd60e51b8152602060048201526016818401527515995cdd1a5b99c81b9bdd0818dbdb999a59dd5c995960521b6044820152606490fd5b34610366576000366003190112610366576020600e54604051908152f35b34610366576020366003190112610366576001600160a01b03613805613e29565b166000526008602052604060002060405161381f81613e9e565b60ff825416151580825260a0600184015493846020850152600281015493846040820152600382015490816060820152600560048401549384608084015201549384910152836138a0575b6103a59394604051968796879260a094919796959260c08501981515855260208501526040840152606083015260808201520152565b808310935061386a565b34610366576080366003190112610366576138c3613e29565b506138cc613e3f565b506064356001600160401b038082116103665736602383011215610366578160040135908111610366573691016024011161036657604051630a85bd0160e11b8152602090f35b34610366576020366003190112610366576001600160a01b03613934613e29565b16600052601f602052602060ff604060002054166040519015158152f35b346103665760203660031901126103665760043580151590818103610366577ff4fe92c76f5b8827e8fd9eac2c7181b6b2c22b10543b969fa2d9a26cdcd56bd29160209161399e614046565b156139cc5760086012546001600160801b038116906001600160801b03191617176012555b604051908152a1005b6012546ffffffffffffffffffffffffffffffff78116906001600160801b031916176012556139c3565b3461036657604036600319011261036657613a0f613e29565b613a17613e55565b613a1f614046565b600160125416613a595715613a51575b601180546001600160a01b0319166001600160a01b0392909216919091179055005b506000613a2f565b60405162461bcd60e51b815260206004820152600f60248201526e105c1c1c9bdd985b081b1bd8dad959608a1b6044820152606490fd5b3461036657604036600319011261036657613aa9613e29565b602435906012546008811615159081613c5d575b5080613c44575b613c26575b6001600160a01b038080613adc85614133565b16921691808314613bd757803314908115613bb2575b5015613b4757600083815260046020526040902080546001600160a01b03191683179055613b1f83614133565b167f8c5be1e5ebec7d5bd14f71427d1e84f3dd0314c0f7b2291e5b200ac8c7c3b925600080a4005b60405162461bcd60e51b815260206004820152603d60248201527f4552433732313a20617070726f76652063616c6c6572206973206e6f7420746f60448201527f6b656e206f776e6572206f7220617070726f76656420666f7220616c6c0000006064820152608490fd5b9050600052600560205260406000203360005260205260ff6040600020541684613af2565b60405162461bcd60e51b815260206004820152602160248201527f4552433732313a20617070726f76616c20746f2063757272656e74206f776e656044820152603960f91b6064820152608490fd5b3360005260208052613c3f60ff604060002054166141ec565b613ac9565b5033600052601f60205260ff6040600020541615613ac4565b60109150161583613abd565b34610366576020366003190112610366576020612c23600435614156565b34610366576000366003190112610366576011546040516001600160a01b039091168152602090f35b34610366576000366003190112610366576040516000600954613cd281613e64565b80845290600190818116908115611a655750600114613cfb576103a584610f3881860382613ed4565b600960009081529250600080516020614ca98339815191525b828410613d2c575050508101602001610f3882611a0c565b80546020858701810191909152909301928101613d14565b34610366576020366003190112610366576004359063ffffffff60e01b8216809203610366576020916340c10f1960e01b8114908115613dd0575b8115613d8d575b5015158152f35b6380ac58cd60e01b811491508115613dbf575b8115613dae575b5083613d86565b6301ffc9a760e01b14905083613da7565b635b5e139f60e01b81149150613da0565b63152a902d60e11b81149150613d7f565b60005b838110613df45750506000910152565b8181015183820152602001613de4565b90602091613e1d81518092818552858086019101613de1565b601f01601f1916010190565b600435906001600160a01b038216820361036657565b602435906001600160a01b038216820361036657565b60243590811515820361036657565b90600182811c92168015613e94575b6020831014613e7e57565b634e487b7160e01b600052602260045260246000fd5b91607f1691613e73565b60c081019081106001600160401b03821117610dd357604052565b602081019081106001600160401b03821117610dd357604052565b90601f801991011681019081106001600160401b03821117610dd357604052565b60405190600082600c5491613f0983613e64565b80835292600190818116908115613f7f5750600114613f32575b50613f3092500383613ed4565b565b600c60009081529150600080516020614c698339815191525b848310613f645750613f30935050810160200138613f23565b81935090816020925483858a01015201910190918592613f4b565b905060209250613f3094915060ff191682840152151560051b82010138613f23565b6060906003190112610366576001600160a01b0390600435828116810361036657916024359081168103610366579060443590565b6001600160401b038111610dd357601f01601f191660200190565b929192613ffd82613fd6565b9161400b6040519384613ed4565b829481845281830111610366578281602093846000960137010152565b9080601f830112156103665781602061404393359101613ff1565b90565b6007546001600160a01b0316330361405a57565b606460405162461bcd60e51b815260206004820152602060248201527f4f776e61626c653a2063616c6c6572206973206e6f7420746865206f776e65726044820152fd5b600780546001600160a01b039283166001600160a01b0319821681179092559091167f8be0079c531659141344cd1fd0a4f28419497f9722a3daafe3b4186f6b6457e0600080a3565b156140ee57565b60405162461bcd60e51b815260206004820152601860248201527f4552433732313a20696e76616c696420746f6b656e20494400000000000000006044820152606490fd5b6000908152600260205260409020546001600160a01b03166140438115156140e7565b600081815260026020526040902054614179906001600160a01b031615156140e7565b6000908152600460205260409020546001600160a01b031690565b60016012546001600160801b038116906001600160801b0319161717601255565b9081602091031261036657516001600160a01b03811681036103665790565b90816020910312610366575180151581036103665790565b156141f357565b60405162461bcd60e51b815260206004820152603d60248201527f455243373231633a204f7065726174696f6e206f6e6c7920616c6c6f7765642060448201527f7468726f75676820617070726f766564206d61726b6574706c616365730000006064820152608490fd5b1561426557565b60405162461bcd60e51b815260206004820152602d60248201527f4552433732313a2063616c6c6572206973206e6f7420746f6b656e206f776e6560448201526c1c881bdc88185c1c1c9bdd9959609a1b6064820152608490fd5b906001600160a01b0380806142d484614133565b16931691838314938415614307575b5083156142f1575b50505090565b6142fd91929350614156565b16143880806142eb565b909350600052600560205260406000208260005260205260ff6040600020541692386142e3565b1561433557565b60405162461bcd60e51b815260206004820152602560248201527f4552433732313a207472616e736665722066726f6d20696e636f72726563742060448201526437bbb732b960d91b6064820152608490fd5b906143b09161439684614133565b6001600160a01b039391841692849290918316841461432e565b1691821561444857816143cd916143c686614133565b161461432e565b7fddf252ad1be2c89b69c2b068fc378daa952ba7f163c4a11628f55a4df523b3ef60008481526004602052604081206001600160601b0360a01b9081815416905583825260036020526040822060001981540190558482526040822060018154019055858252600260205284604083209182541617905580a4565b60405162461bcd60e51b8152602060048201526024808201527f4552433732313a207472616e7366657220746f20746865207a65726f206164646044820152637265737360e01b6064820152608490fd5b60809060208152603260208201527f4552433732313a207472616e7366657220746f206e6f6e20455243373231526560408201527131b2b4bb32b91034b6b83632b6b2b73a32b960711b60608201520190565b3d15614517573d906144fd82613fd6565b9161450b6040519384613ed4565b82523d6000602084013e565b606090565b91926000929190813b15614611576020916145729185604051958680958194630a85bd0160e11b9b8c845233600485015260018060a01b0380951660248501526044840152608060648401526084830190613e04565b0393165af1908290826145c2575b50506145b45761458e6144ec565b805190816145af5760405162461bcd60e51b8152806111f760048201614499565b602001fd5b6001600160e01b0319161490565b909192506020813d8211614609575b816145de60209383613ed4565b810103126146055751906001600160e01b0319821682036146025750903880614580565b80fd5b5080fd5b3d91506145d1565b5050505050600190565b60001981146108e05760010190565b60026006541461463b576002600655565b60405162461bcd60e51b815260206004820152601f60248201527f5265656e7472616e637947756172643a207265656e7472616e742063616c6c006044820152606490fd5b1561468757565b60405162461bcd60e51b815260206004820152601c60248201527f4552433732313a20746f6b656e20616c7265616479206d696e746564000000006044820152606490fd5b6001600160a01b0316801561477c57600082815260026020526040902054614700906001600160a01b031615155b15614680565b600082815260026020526040902054614723906001600160a01b031615156146fa565b600081815260036020526040812060018154019055828152600260205260408120826001600160601b0360a01b8254161790557fddf252ad1be2c89b69c2b068fc378daa952ba7f163c4a11628f55a4df523b3ef8180a4565b606460405162461bcd60e51b815260206004820152602060248201527f4552433732313a206d696e7420746f20746865207a65726f20616464726573736044820152fd5b818102929181159184041417156108e057565b81156147dd570490565b634e487b7160e01b600052601260045260246000fd5b156147fa57565b60405162461bcd60e51b815260206004820152602960248201527f43726561746f7220616c6c6f636174696f6e206d757374206265206465636c616044820152681c995908199a5c9cdd60ba1b6064820152608490fd5b919082018092116108e057565b919082039182116108e057565b600460125416156148dd576019548042106148d75761090361488d914261485e565b600181018091116108e057601a548082116148cf575b81036148b0575060165490565b6148bc90601c546147c0565b6016548082116148ca575090565b905090565b9050806148a3565b50600090565b600090565b600460125416156148dd576148f561486b565b6018548082111561496d57808210614910576140439161485e565b60405162461bcd60e51b815260206004820152602f60248201527f41726974686d6574696320756e646572666c6f7720696e20676574417661696c60448201526e18589b1950dc99585d1bdc935a5b9d608a1b6064820152608490fd5b5050600090565b6000818152600260205260409020546001600160a01b031615614c13576020806012541615614c0957604051600b549260006149af85613e64565b8084528385810192600197878982169182600014614bee575050600114614ba2575b6149dd92500384613ed4565b825160009015614b8a5750600091807a184f03e93ff9f4daa797ed6e38ed64bf6a1f0100000000000000008181811015614b7c575b5050856d04ee2d6d415b85acef810000000080841015614b6e575b5050662386f26fc1000080831015614b5f575b506305f5e10080831015614b50575b5061271080831015614b41575b506064821015614b31575b86600a80931015614b27575b84019690816021614a9c614a868b613fd6565b9a614a946040519c8d613ed4565b808c52613fd6565b8a8a019790601f19013689378a0101905b614af1575b5050505090614ad694614ae561404395949360405197889551809288880190613de1565b84019151809386840190613de1565b01038084520182613ed4565b600019019083906f181899199a1a9b1b9c1cb0b131b232b360811b8282061a835304918215614b2257919082614aad565b614ab2565b9093019286614a73565b9290606460029104910192614a67565b60049194920491019238614a5c565b60089194920491019238614a4f565b60109194920491019238614a40565b940193909104908538614a2d565b604095500491503880614a12565b94505050505060405190614b9d82613eb9565b815290565b5050600b6000528385600080516020614cc9833981519152886000915b858310614bd55750506149dd93508201016149d1565b80919294505483858a0101520191018690888793614bbf565b60ff191686526149dd94151560051b84010191506149d19050565b5050614043613ef5565b60405162461bcd60e51b815260206004820152602760248201527f4552433732313a2055524920717565727920666f72206e6f6e6578697374656e6044820152663a103a37b5b2b760c91b6064820152608490fdfedf6966c971051c3d54ec59162606531493a51404a002842f56009d7e5cf4a8c7c65a7bb8d6351c1cf70c95a316cc6a92839c986682d98bc35f958f4883f9d2a86e1540171b6c0c960b71a7020d9f60077f6af931a8bbf590da0223dacf75c7af0175b7a638427703f0dbe7bb9bbf987a2551717b34e79f33b5b1008d1fa01db9a26469706673582212205ce34ae37f1c6e756a14e16b52aa749e9eb3dbf65c12f9c4211905c9f61b194d64736f6c63430008130033",
  "linkReferences": {},
  "deployedLinkReferences": {}
}