{
  "_format": "hh-sol-artifact-1",
  "contractName": "ERC721Prize",
  "sourceName": "contracts/ERC721Prize.sol",
  "abi": [
    {
      "inputs": [
        {
          "internalType": "address",
          "name": "_factory",
          "type": "address"
        }
      ],
      "stateMutability": "nonpayable",
      "type": "constructor"
    },
    {
      "anonymous": false,
      "inputs": [
        {
          "indexed": true,
          "internalType": "address",
          "name": "owner",
          "type": "address"
        },
        {
          "indexed": true,
          "internalType": "address",
          "name": "approved",
          "type": "address"
        },
        {
          "indexed": true,
          "internalType": "uint256",
          "name": "tokenId",
          "type": "uint256"
        }
      ],
      "name": "Approval",
      "type": "event"
    },
    {
      "anonymous": false,
      "inputs": [
        {
          "indexed": true,
          "internalType": "address",
          "name": "owner",
          "type": "address"
        },
        {
          "indexed": true,
          "internalType": "address",
          "name": "operator",
          "type": "address"
        },
        {
          "indexed": false,
          "internalType": "bool",
          "name": "approved",
          "type": "bool"
        }
      ],
      "name": "ApprovalForAll",
      "type": "event"
    },
    {
      "anonymous": false,
      "inputs": [
        {
          "indexed": false,
          "internalType": "string",
          "name": "newBaseURI",
          "type": "string"
        }
      ],
      "name": "BaseURIUpdated",
      "type": "event"
    },
    {
      "anonymous": false,
      "inputs": [],
      "name": "CollectionRevealed",
      "type": "event"
    },
    {
      "anonymous": false,
      "inputs": [],
      "name": "EmergencyBypassDisabled",
      "type": "event"
    },
    {
      "anonymous": false,
      "inputs": [],
      "name": "EmergencyBypassEnabled",
      "type": "event"
    },
    {
      "anonymous": false,
      "inputs": [
        {
          "indexed": true,
          "internalType": "address",
          "name": "kol",
          "type": "address"
        },
        {
          "indexed": false,
          "internalType": "uint256",
          "name": "poolLimit",
          "type": "uint256"
        },
        {
          "indexed": false,
          "internalType": "uint256",
          "name": "enforcedSlotFee",
          "type": "uint256"
        }
      ],
      "name": "KOLApproved",
      "type": "event"
    },
    {
      "anonymous": false,
      "inputs": [
        {
          "indexed": true,
          "internalType": "address",
          "name": "kol",
          "type": "address"
        },
        {
          "indexed": true,
          "internalType": "address",
          "name": "pool",
          "type": "address"
        }
      ],
      "name": "KOLPoolCreated",
      "type": "event"
    },
    {
      "anonymous": false,
      "inputs": [
        {
          "indexed": true,
          "internalType": "address",
          "name": "kol",
          "type": "address"
        }
      ],
      "name": "KOLRevoked",
      "type": "event"
    },
    {
      "anonymous": false,
      "inputs": [
        {
          "indexed": true,
          "internalType": "address",
          "name": "marketplace",
          "type": "address"
        }
      ],
      "name": "MarketplaceAdded",
      "type": "event"
    },
    {
      "anonymous": false,
      "inputs": [
        {
          "indexed": true,
          "internalType": "address",
          "name": "marketplace",
          "type": "address"
        }
      ],
      "name": "MarketplaceRemoved",
      "type": "event"
    },
    {
      "anonymous": false,
      "inputs": [],
      "name": "MinterApprovalLocked",
      "type": "event"
    },
    {
      "anonymous": false,
      "inputs": [],
      "name": "MinterApprovalUnlocked",
      "type": "event"
    },
    {
      "anonymous": false,
      "inputs": [
        {
          "indexed": true,
          "internalType": "address",
          "name": "previousOwner",
          "type": "address"
        },
        {
          "indexed": true,
          "internalType": "address",
          "name": "newOwner",
          "type": "address"
        }
      ],
      "name": "OwnershipTransferred",
      "type": "event"
    },
    {
      "anonymous": false,
      "inputs": [
        {
          "indexed": true,
          "internalType": "address",
          "name": "winner",
          "type": "address"
        },
        {
          "indexed": false,
          "internalType": "uint256",
          "name": "tokenId",
          "type": "uint256"
        }
      ],
      "name": "PrizeMinted",
      "type": "event"
    },
    {
      "anonymous": false,
      "inputs": [
        {
          "indexed": true,
          "internalType": "address",
          "name": "account",
          "type": "address"
        },
        {
          "indexed": false,
          "internalType": "bool",
          "name": "exempt",
          "type": "bool"
        }
      ],
      "name": "RoyaltyEnforcementExemptionUpdated",
      "type": "event"
    },
    {
      "anonymous": false,
      "inputs": [
        {
          "indexed": false,
          "internalType": "bool",
          "name": "enabled",
          "type": "bool"
        }
      ],
      "name": "RoyaltyEnforcementToggled",
      "type": "event"
    },
    {
      "anonymous": false,
      "inputs": [
        {
          "indexed": true,
          "internalType": "address",
          "name": "from",
          "type": "address"
        },
        {
          "indexed": true,
          "internalType": "address",
          "name": "to",
          "type": "address"
        },
        {
          "indexed": true,
          "internalType": "uint256",
          "name": "tokenId",
          "type": "uint256"
        }
      ],
      "name": "Transfer",
      "type": "event"
    },
    {
      "inputs": [
        {
          "internalType": "address",
          "name": "marketplace",
          "type": "address"
        }
      ],
      "name": "addAllowedMarketplace",
      "outputs": [],
      "stateMutability": "nonpayable",
      "type": "function"
    },
    {
      "inputs": [
        {
          "internalType": "address",
          "name": "to",
          "type": "address"
        },
        {
          "internalType": "uint256",
          "name": "tokenId",
          "type": "uint256"
        }
      ],
      "name": "approve",
      "outputs": [],
      "stateMutability": "nonpayable",
      "type": "function"
    },
    {
      "inputs": [
        {
          "internalType": "address",
          "name": "_kol",
          "type": "address"
        },
        {
          "internalType": "uint256",
          "name": "_poolLimit",
          "type": "uint256"
        },
        {
          "internalType": "uint256",
          "name": "_enforcedSlotFee",
          "type": "uint256"
        }
      ],
      "name": "approveKOL",
      "outputs": [],
      "stateMutability": "nonpayable",
      "type": "function"
    },
    {
      "inputs": [],
      "name": "availableSupply",
      "outputs": [
        {
          "internalType": "uint256",
          "name": "",
          "type": "uint256"
        }
      ],
      "stateMutability": "view",
      "type": "function"
    },
    {
      "inputs": [
        {
          "internalType": "address",
          "name": "owner",
          "type": "address"
        }
      ],
      "name": "balanceOf",
      "outputs": [
        {
          "internalType": "uint256",
          "name": "",
          "type": "uint256"
        }
      ],
      "stateMutability": "view",
      "type": "function"
    },
    {
      "inputs": [
        {
          "internalType": "address",
          "name": "to",
          "type": "address"
        },
        {
          "internalType": "uint256",
          "name": "quantity",
          "type": "uint256"
        }
      ],
      "name": "creatorMint",
      "outputs": [],
      "stateMutability": "nonpayable",
      "type": "function"
    },
    {
      "inputs": [],
      "name": "creatorMintedCount",
      "outputs": [
        {
          "internalType": "uint256",
          "name": "",
          "type": "uint256"
        }
      ],
      "stateMutability": "view",
      "type": "function"
    },
    {
      "inputs": [],
      "name": "disableEmergencyBypass",
      "outputs": [],
      "stateMutability": "nonpayable",
      "type": "function"
    },
    {
      "inputs": [],
      "name": "emergencyBypassEnabled",
      "outputs": [
        {
          "internalType": "bool",
          "name": "",
          "type": "bool"
        }
      ],
      "stateMutability": "view",
      "type": "function"
    },
    {
      "inputs": [],
      "name": "enableEmergencyBypass",
      "outputs": [],
      "stateMutability": "nonpayable",
      "type": "function"
    },
    {
      "inputs": [],
      "name": "factorySignature",
      "outputs": [
        {
          "internalType": "bytes32",
          "name": "",
          "type": "bytes32"
        }
      ],
      "stateMutability": "view",
      "type": "function"
    },
    {
      "inputs": [
        {
          "internalType": "uint256",
          "name": "tokenId",
          "type": "uint256"
        }
      ],
      "name": "getApproved",
      "outputs": [
        {
          "internalType": "address",
          "name": "",
          "type": "address"
        }
      ],
      "stateMutability": "view",
      "type": "function"
    },
    {
      "inputs": [
        {
          "internalType": "address",
          "name": "_kol",
          "type": "address"
        }
      ],
      "name": "getKOLApprovalDetails",
      "outputs": [
        {
          "internalType": "bool",
          "name": "approved",
          "type": "bool"
        },
        {
          "internalType": "uint256",
          "name": "poolLimit",
          "type": "uint256"
        },
        {
          "internalType": "uint256",
          "name": "enforcedSlotFee",
          "type": "uint256"
        },
        {
          "internalType": "uint256",
          "name": "poolCount",
          "type": "uint256"
        }
      ],
      "stateMutability": "view",
      "type": "function"
    },
    {
      "inputs": [
        {
          "internalType": "address",
          "name": "_kol",
          "type": "address"
        }
      ],
      "name": "incrementKOLPoolCount",
      "outputs": [],
      "stateMutability": "nonpayable",
      "type": "function"
    },
    {
      "inputs": [
        {
          "internalType": "string",
          "name": "name_",
          "type": "string"
        },
        {
          "internalType": "string",
          "name": "symbol_",
          "type": "string"
        },
        {
          "internalType": "string",
          "name": "baseURI",
          "type": "string"
        },
        {
          "internalType": "address",
          "name": "initialOwner",
          "type": "address"
        },
        {
          "internalType": "address",
          "name": "_protocolManager",
          "type": "address"
        },
        {
          "internalType": "uint256",
          "name": "_royaltyPercentage",
          "type": "uint256"
        },
        {
          "internalType": "address",
          "name": "_royaltyRecipient",
          "type": "address"
        },
        {
          "internalType": "bytes32",
          "name": "_factorySignature",
          "type": "bytes32"
        },
        {
          "internalType": "uint256",
          "name": "_maxSupply",
          "type": "uint256"
        },
        {
          "internalType": "address",
          "name": "preApprovedMinter",
          "type": "address"
        },
        {
          "internalType": "enum PrizeTypes.RevealType",
          "name": "_revealType",
          "type": "uint8"
        },
        {
          "internalType": "string",
          "name": "_unrevealedBaseURI",
          "type": "string"
        },
        {
          "internalType": "uint256",
          "name": "_revealTime",
          "type": "uint256"
        }
      ],
      "name": "initialize",
      "outputs": [],
      "stateMutability": "nonpayable",
      "type": "function"
    },
    {
      "inputs": [
        {
          "internalType": "address",
          "name": "owner",
          "type": "address"
        },
        {
          "internalType": "address",
          "name": "operator",
          "type": "address"
        }
      ],
      "name": "isApprovedForAll",
      "outputs": [
        {
          "internalType": "bool",
          "name": "",
          "type": "bool"
        }
      ],
      "stateMutability": "view",
      "type": "function"
    },
    {
      "inputs": [],
      "name": "isGenuineProtocolContract",
      "outputs": [
        {
          "internalType": "bool",
          "name": "",
          "type": "bool"
        }
      ],
      "stateMutability": "view",
      "type": "function"
    },
    {
      "inputs": [
        {
          "internalType": "address",
          "name": "marketplace",
          "type": "address"
        }
      ],
      "name": "isMarketplaceAllowed",
      "outputs": [
        {
          "internalType": "bool",
          "name": "",
          "type": "bool"
        }
      ],
      "stateMutability": "view",
      "type": "function"
    },
    {
      "inputs": [],
      "name": "isRevealed",
      "outputs": [
        {
          "internalType": "bool",
          "name": "",
          "type": "bool"
        }
      ],
      "stateMutability": "view",
      "type": "function"
    },
    {
      "inputs": [
        {
          "internalType": "address",
          "name": "account",
          "type": "address"
        }
      ],
      "name": "isRoyaltyEnforcementExempt",
      "outputs": [
        {
          "internalType": "bool",
          "name": "",
          "type": "bool"
        }
      ],
      "stateMutability": "view",
      "type": "function"
    },
    {
      "inputs": [
        {
          "internalType": "address",
          "name": "",
          "type": "address"
        }
      ],
      "name": "kolApprovals",
      "outputs": [
        {
          "internalType": "bool",
          "name": "approved",
          "type": "bool"
        },
        {
          "internalType": "uint256",
          "name": "poolLimit",
          "type": "uint256"
        },
        {
          "internalType": "uint256",
          "name": "enforcedSlotFee",
          "type": "uint256"
        },
        {
          "internalType": "uint256",
          "name": "poolCount",
          "type": "uint256"
        }
      ],
      "stateMutability": "view",
      "type": "function"
    },
    {
      "inputs": [],
      "name": "lockMinterApproval",
      "outputs": [],
      "stateMutability": "nonpayable",
      "type": "function"
    },
    {
      "inputs": [],
      "name": "maxSupply",
      "outputs": [
        {
          "internalType": "uint256",
          "name": "",
          "type": "uint256"
        }
      ],
      "stateMutability": "view",
      "type": "function"
    },
    {
      "inputs": [
        {
          "internalType": "address",
          "name": "to",
          "type": "address"
        },
        {
          "internalType": "uint256",
          "name": "quantity",
          "type": "uint256"
        }
      ],
      "name": "mint",
      "outputs": [],
      "stateMutability": "nonpayable",
      "type": "function"
    },
    {
      "inputs": [],
      "name": "minter",
      "outputs": [
        {
          "internalType": "address",
          "name": "",
          "type": "address"
        }
      ],
      "stateMutability": "view",
      "type": "function"
    },
    {
      "inputs": [],
      "name": "minterLocked",
      "outputs": [
        {
          "internalType": "bool",
          "name": "",
          "type": "bool"
        }
      ],
      "stateMutability": "view",
      "type": "function"
    },
    {
      "inputs": [],
      "name": "name",
      "outputs": [
        {
          "internalType": "string",
          "name": "",
          "type": "string"
        }
      ],
      "stateMutability": "view",
      "type": "function"
    },
    {
      "inputs": [
        {
          "internalType": "address",
          "name": "",
          "type": "address"
        },
        {
          "internalType": "address",
          "name": "",
          "type": "address"
        },
        {
          "internalType": "uint256",
          "name": "",
          "type": "uint256"
        },
        {
          "internalType": "bytes",
          "name": "",
          "type": "bytes"
        }
      ],
      "name": "onERC721Received",
      "outputs": [
        {
          "internalType": "bytes4",
          "name": "",
          "type": "bytes4"
        }
      ],
      "stateMutability": "pure",
      "type": "function"
    },
    {
      "inputs": [],
      "name": "owner",
      "outputs": [
        {
          "internalType": "address",
          "name": "",
          "type": "address"
        }
      ],
      "stateMutability": "view",
      "type": "function"
    },
    {
      "inputs": [
        {
          "internalType": "uint256",
          "name": "tokenId",
          "type": "uint256"
        }
      ],
      "name": "ownerOf",
      "outputs": [
        {
          "internalType": "address",
          "name": "",
          "type": "address"
        }
      ],
      "stateMutability": "view",
      "type": "function"
    },
    {
      "inputs": [],
      "name": "protocolManager",
      "outputs": [
        {
          "internalType": "address",
          "name": "",
          "type": "address"
        }
      ],
      "stateMutability": "view",
      "type": "function"
    },
    {
      "inputs": [
        {
          "internalType": "address",
          "name": "newMinter",
          "type": "address"
        }
      ],
      "name": "reassignAndLockMinter",
      "outputs": [],
      "stateMutability": "nonpayable",
      "type": "function"
    },
    {
      "inputs": [
        {
          "internalType": "address",
          "name": "marketplace",
          "type": "address"
        }
      ],
      "name": "removeAllowedMarketplace",
      "outputs": [],
      "stateMutability": "nonpayable",
      "type": "function"
    },
    {
      "inputs": [],
      "name": "renounceOwnership",
      "outputs": [],
      "stateMutability": "nonpayable",
      "type": "function"
    },
    {
      "inputs": [],
      "name": "reveal",
      "outputs": [],
      "stateMutability": "nonpayable",
      "type": "function"
    },
    {
      "inputs": [],
      "name": "revealTime",
      "outputs": [
        {
          "internalType": "uint256",
          "name": "",
          "type": "uint256"
        }
      ],
      "stateMutability": "view",
      "type": "function"
    },
    {
      "inputs": [],
      "name": "revealType",
      "outputs": [
        {
          "internalType": "enum PrizeTypes.RevealType",
          "name": "",
          "type": "uint8"
        }
      ],
      "stateMutability": "view",
      "type": "function"
    },
    {
      "inputs": [
        {
          "internalType": "address",
          "name": "_kol",
          "type": "address"
        }
      ],
      "name": "revokeKOL",
      "outputs": [],
      "stateMutability": "nonpayable",
      "type": "function"
    },
    {
      "inputs": [],
      "name": "royaltyEnforcementEnabled",
      "outputs": [
        {
          "internalType": "bool",
          "name": "",
          "type": "bool"
        }
      ],
      "stateMutability": "view",
      "type": "function"
    },
    {
      "inputs": [
        {
          "internalType": "uint256",
          "name": "",
          "type": "uint256"
        },
        {
          "internalType": "uint256",
          "name": "salePrice",
          "type": "uint256"
        }
      ],
      "name": "royaltyInfo",
      "outputs": [
        {
          "internalType": "address",
          "name": "",
          "type": "address"
        },
        {
          "internalType": "uint256",
          "name": "",
          "type": "uint256"
        }
      ],
      "stateMutability": "view",
      "type": "function"
    },
    {
      "inputs": [],
      "name": "royaltyPercentage",
      "outputs": [
        {
          "internalType": "uint256",
          "name": "",
          "type": "uint256"
        }
      ],
      "stateMutability": "view",
      "type": "function"
    },
    {
      "inputs": [],
      "name": "royaltyRecipient",
      "outputs": [
        {
          "internalType": "address",
          "name": "",
          "type": "address"
        }
      ],
      "stateMutability": "view",
      "type": "function"
    },
    {
      "inputs": [
        {
          "internalType": "address",
          "name": "from",
          "type": "address"
        },
        {
          "internalType": "address",
          "name": "to",
          "type": "address"
        },
        {
          "internalType": "uint256",
          "name": "tokenId",
          "type": "uint256"
        }
      ],
      "name": "safeTransferFrom",
      "outputs": [],
      "stateMutability": "nonpayable",
      "type": "function"
    },
    {
      "inputs": [
        {
          "internalType": "address",
          "name": "from",
          "type": "address"
        },
        {
          "internalType": "address",
          "name": "to",
          "type": "address"
        },
        {
          "internalType": "uint256",
          "name": "tokenId",
          "type": "uint256"
        },
        {
          "internalType": "bytes",
          "name": "data",
          "type": "bytes"
        }
      ],
      "name": "safeTransferFrom",
      "outputs": [],
      "stateMutability": "nonpayable",
      "type": "function"
    },
    {
      "inputs": [
        {
          "internalType": "address",
          "name": "operator",
          "type": "address"
        },
        {
          "internalType": "bool",
          "name": "approved",
          "type": "bool"
        }
      ],
      "name": "setApprovalForAll",
      "outputs": [],
      "stateMutability": "nonpayable",
      "type": "function"
    },
    {
      "inputs": [
        {
          "internalType": "string",
          "name": "newBaseURI",
          "type": "string"
        }
      ],
      "name": "setBaseURI",
      "outputs": [],
      "stateMutability": "nonpayable",
      "type": "function"
    },
    {
      "inputs": [
        {
          "internalType": "address",
          "name": "_minter",
          "type": "address"
        },
        {
          "internalType": "bool",
          "name": "approved",
          "type": "bool"
        }
      ],
      "name": "setMinterApproval",
      "outputs": [],
      "stateMutability": "nonpayable",
      "type": "function"
    },
    {
      "inputs": [
        {
          "internalType": "uint256",
          "name": "_royaltyPercentage",
          "type": "uint256"
        },
        {
          "internalType": "address",
          "name": "_royaltyRecipient",
          "type": "address"
        }
      ],
      "name": "setRoyalty",
      "outputs": [],
      "stateMutability": "nonpayable",
      "type": "function"
    },
    {
      "inputs": [
        {
          "internalType": "address",
          "name": "account",
          "type": "address"
        },
        {
          "internalType": "bool",
          "name": "exempt",
          "type": "bool"
        }
      ],
      "name": "setRoyaltyEnforcementExemption",
      "outputs": [],
      "stateMutability": "nonpayable",
      "type": "function"
    },
    {
      "inputs": [
        {
          "internalType": "bytes4",
          "name": "interfaceId",
          "type": "bytes4"
        }
      ],
      "name": "supportsInterface",
      "outputs": [
        {
          "internalType": "bool",
          "name": "",
          "type": "bool"
        }
      ],
      "stateMutability": "view",
      "type": "function"
    },
    {
      "inputs": [],
      "name": "symbol",
      "outputs": [
        {
          "internalType": "string",
          "name": "",
          "type": "string"
        }
      ],
      "stateMutability": "view",
      "type": "function"
    },
    {
      "inputs": [
        {
          "internalType": "bool",
          "name": "enabled",
          "type": "bool"
        }
      ],
      "name": "toggleRoyaltyEnforcement",
      "outputs": [],
      "stateMutability": "nonpayable",
      "type": "function"
    },
    {
      "inputs": [
        {
          "internalType": "uint256",
          "name": "tokenId",
          "type": "uint256"
        }
      ],
      "name": "tokenURI",
      "outputs": [
        {
          "internalType": "string",
          "name": "",
          "type": "string"
        }
      ],
      "stateMutability": "view",
      "type": "function"
    },
    {
      "inputs": [
        {
          "internalType": "address",
          "name": "from",
          "type": "address"
        },
        {
          "internalType": "address",
          "name": "to",
          "type": "address"
        },
        {
          "internalType": "uint256",
          "name": "tokenId",
          "type": "uint256"
        }
      ],
      "name": "transferFrom",
      "outputs": [],
      "stateMutability": "nonpayable",
      "type": "function"
    },
    {
      "inputs": [
        {
          "internalType": "address",
          "name": "newOwner",
          "type": "address"
        }
      ],
      "name": "transferOwnership",
      "outputs": [],
      "stateMutability": "nonpayable",
      "type": "function"
    },
    {
      "inputs": [],
      "name": "unlockMinterApproval",
      "outputs": [],
      "stateMutability": "nonpayable",
      "type": "function"
    },
    {
      "inputs": [],
      "name": "unrevealedBaseURI",
      "outputs": [
        {
          "internalType": "string",
          "name": "",
          "type": "string"
        }
      ],
      "stateMutability": "view",
      "type": "function"
    },
    {
      "inputs": [
        {
          "internalType": "address",
          "name": "",
          "type": "address"
        }
      ],
      "name": "walletMintedCount",
      "outputs": [
        {
          "internalType": "uint256",
          "name": "",
          "type": "uint256"
        }
      ],
      "stateMutability": "view",
      "type": "function"
    }
  ],
  "bytecode": "0x60a0346200038257601f906001600160401b0390601f196200413838819003858101831684018581118582101762000387578492829160405283396020938491810103126200038257516001600160a01b039490939085851685036200038257620000696200039d565b926000948585526200007a6200039d565b9186835285518581116200036e578754966001978881811c9116801562000363575b858210146200034f57908187849311620002fc575b5084908783116001146200029b578a926200028f575b5050600019600383901b1c191690871b1787555b82519485116200027b5785548681811c9116801562000270575b838210146200025c5790818587969594931162000203575b50819385116001146200019e575050859262000192575b5050600019600383901b1c191690821b1781555b600655600754903360018060a01b03198316176007557f8be0079c531659141344cd1fd0a4f28419497f9722a3daafe3b4186f6b6457e0604051943393169180a3608052613d7a9081620003be8239608051816128f00152f35b01519050388062000124565b869593929193168588528388209388905b828210620001e95750508411620001cf575b505050811b01815562000138565b015160001960f88460031b161c19169055388080620001c1565b8484015186558897909501949384019390810190620001af565b9091929394508688528288208580880160051c82019285891062000252575b9188978a9297969594930160051c01915b828110620002435750506200010d565b8a815588975089910162000233565b9250819262000222565b634e487b7160e01b88526022600452602488fd5b90607f1690620000f5565b634e487b7160e01b87526041600452602487fd5b015190503880620000c7565b90848a9416918b8052868c20928c5b88828210620002e55750508411620002cb575b505050811b018755620000db565b015160001960f88460031b161c19169055388080620002bd565b8385015186558d97909501949384019301620002aa565b909150898052848a208780850160051c82019287861062000345575b918b91869594930160051c01915b82811062000336575050620000b1565b8c81558594508b910162000326565b9250819262000318565b634e487b7160e01b8a52602260045260248afd5b90607f16906200009c565b634e487b7160e01b88526041600452602488fd5b600080fd5b634e487b7160e01b600052604160045260246000fd5b60405190602082016001600160401b03811183821017620003875760405256fe6080604052600436101561001257600080fd5b60003560e01c8063017123ac1461281457806301ffc9a71461277557806306fdde03146126e157806307546172146126b8578063081812fc1461269a578063095ea7b3146124bf5780630de54ba01461242557806310122488146123c357806310c7e4a214612384578063150b7a021461231b57806317f6397914612278578063182ee485146120fc5780631c38258914611f1f5780631cdccaff14611f0357806323b872dd14611e7e57806323b934b214611db9578063249f851b14611d7f57806324e0eba914611d345780632633f8b114611c715780632a55205a14611c2a5780632f7e4c3414611ad357806340c10f19146119ee57806340e3276b1461195657806342842e0e1461186a5780634c00de82146118415780634d991b711461182357806354214f691461180057806355f804b31461163c5780636352211e1461160c5780636f88bd8a146115ee57806370a0823114611557578063715018a6146114fa57806371c33359146114bb5780637ecc2b561461147a5780637ff89fce146112b857806383e46c56146112955780638a71bb2d146112775780638da5cb5b1461124e57806395d89b411461117e57806397c82b661461106e578063a22cb46514610f36578063a2af294f14610f0c578063a475b5dd14610d92578063ab4b669214610d69578063b88d4fde14610c83578063ba829d7114610c65578063bcaa7f0014610aa7578063c87b56dd14610892578063cc54cce31461086c578063cee8e0fe14610846578063d0aa96c0146107f7578063d5abeb01146107d9578063dc817c2e14610728578063e985e9c5146106d2578063f2fde38b14610643578063faf5a12414610376578063fbddc055146103055763fcf2e55f1461029a57600080fd5b34610300576020366003190112610300576102b361318d565b6102bb61332b565b6001600160a01b03166000818152600860205260408120805460ff191690557ffeb031b2d93541150a8571bc111b4dab4d98dfef15bcbe6e89653e385a5d980a9080a2005b600080fd5b34610300576020366003190112610300576001600160a01b0361032661318d565b166000526008602052604060002060ff81541661037260018301549260036002820154910154906040519485948590949392606092608083019615158352602083015260408201520152565b0390f35b346103005760403660031901126103005761038f61318d565b610397613201565b60125460405163188c824d60e11b815291926020926001600160a01b039283169291908481600481875afa90811561052457600091610616575b508280600754163314918215610609575b5050156105af57169283600052601b835260ff604060002054161580156105a7575b15610547578015918280610530575b610468575b509061045e7f61630ccfd9f6a7f081736c73f365b44d23ac1af5e8d23c9eeba86f0cc3cfefbe939285600052601b845260406000209060ff801983541691151516179055565b60405190158152a2005b8360249160405192838092633247c33f60e21b82528960048301525afa908115610524576000916104f7575b5061049f5784610418565b60405162461bcd60e51b815260048101849052602a60248201527f43616e6e6f742072656d6f7665206578656d7074696f6e20666f7220706f6f6c60448201526920636f6e74726163747360b01b6064820152608490fd5b6105179150843d861161051d575b61050f81836130fc565b810190613498565b85610494565b503d610505565b6040513d6000823e3d90fd5b5084600052601b845260ff60406000205416610413565b60405162461bcd60e51b815260048101849052603260248201527f4164647265737320697320616c7265616479206578656d70742066726f6d20726044820152711bde585b1d1e48195b999bdc98d95b595b9d60721b6064820152608490fd5b508015610404565b60405162461bcd60e51b815260048101859052602c60248201527f4f6e6c79206f776e6572206f7220506f6f6c4465706c6f7965722063616e207360448201526b32ba1032bc32b6b83a34b7b760a11b6064820152608490fd5b90915016331482876103e2565b6106369150853d871161063c575b61062e81836130fc565b810190613479565b866103d1565b503d610624565b346103005760203660031901126103005761065c61318d565b61066461332b565b6001600160a01b0381161561067e5761067c90613383565b005b60405162461bcd60e51b815260206004820152602660248201527f4f776e61626c653a206e6577206f776e657220697320746865207a65726f206160448201526564647265737360d01b6064820152608490fd5b34610300576040366003190112610300576106eb61318d565b6106f36131a3565b9060018060a01b03809116600052600560205260406000209116600052602052602060ff604060002054166040519015158152f35b346103005760003660031901126103005761074161332b565b6010546001600160a01b0381161561078a5760ff60a01b1916600160a01b176010557fd5cb2e985e95fd394547f9c7ee44d15aeb87738279930d016adf6a6c3f1a25c1600080a1005b60405162461bcd60e51b815260206004820152602160248201527f43616e6e6f74206c6f636b2061207a65726f2061646472657373206d696e74656044820152603960f91b6064820152608490fd5b34610300576000366003190112610300576020601354604051908152f35b346103005760003660031901126103005761081061332b565b61010061ff0019601a541617601a557f192c3f8649694bd147faa743027e4c232721f15ec16032c1c34b414c47a90df3600080a1005b3461030057600036600319011261030057602060ff601a5460081c166040519015158152f35b3461030057600036600319011261030057602060ff60105460a01c166040519015158152f35b3461030057602080600319360112610300576004356000818152600260205260409020546108ca906001600160a01b031615156133cc565b816108d361397f565b805190929015610a8e57600090807a184f03e93ff9f4daa797ed6e38ed64bf6a1f0100000000000000008181811015610a80575b5050836d04ee2d6d415b85acef810000000080831015610a74575b5050662386f26fc1000080821015610a67575b506305f5e10080821015610a5a575b5061271080821015610a4d575b506064811015610a3f575b600a80911015610a35575b60018084019281602161099261097c8761311d565b9661098a60405198896130fc565b80885261311d565b8689019790601f1901368937860101905b6109ff575b50505050926109e992916109dd9460405195836109ce88955180928880890191016131b9565b840191518093868401906131b9565b010380845201826130fc565b905b6103726040519282849384528301906131dc565b600019019083906f181899199a1a9b1b9c1cb0b131b232b360811b8282061a835304918215610a30579190826109a3565b6109a8565b9160010191610967565b60646002910492019161095c565b6004910492019186610951565b6008910492019186610944565b6010910492019186610935565b93019290048387610922565b604094500490508680610907565b505050604051610a9d816130e1565b60008152906109eb565b3461030057600036600319011261030057610ac061332b565b6010546001600160a01b0381168015610c2a5760206004916040519283809263c19d93fb60e01b82525afa90811561052457600091610bf0575b5060098110159081610bbb5760078114918215610be2575b8215610bd1575b8215610baa575b505015610b5b576001600160a81b0319166010557f5e7f52ff86abf7b572123888a9e67a9ff6c324bc8cf6217f0ee997b28531fa8e600080a1005b60405162461bcd60e51b815260206004820152602160248201527f506f6f6c206e6f7420696e20612073616665207465726d696e616c20737461746044820152606560f81b6064820152608490fd5b909150610bbb576008148280610b20565b634e487b7160e01b600052602160045260246000fd5b809250610bbb576006811491610b19565b506005811491506000610b12565b90506020813d8211610c22575b81610c0a602093836130fc565b81010312610300575160098110156103005782610afa565b3d9150610bfd565b60405162461bcd60e51b81526020600482015260136024820152724e6f206d696e74657220746f20756e6c6f636b60681b6044820152606490fd5b34610300576000366003190112610300576020601754604051908152f35b3461030057608036600319011261030057610c9c61318d565b610ca46131a3565b90606435906044356001600160401b03831161030057366023840112156103005761067c93610ce0610d1d943690602481600401359101613138565b92601a5460ff81169081610d5a575b5080610d41575b610d22575b610d0d610d088433613584565b613522565b610d1883838361364c565b6138f4565b6137b0565b33600052601c602052610d3c60ff604060002054166134b0565b610cfb565b5033600052601b60205260ff6040600020541615610cf6565b60ff915060081c161587610cef565b34610300576000366003190112610300576012546040516001600160a01b039091168152602090f35b3461030057600036600319011261030057610dab61332b565b60185460ff8116610ec75760ff601654166003811015610bbb5760028103610e4f57506017544210610e0a576001905b60ff1916176018557f4884a1e8d033385ee80fa3d769d1ba3c44e18291db0f726e436a01997d3df36a600080a1005b60405162461bcd60e51b815260206004820152601e60248201527f52657665616c2074696d6520686173206e6f74207965742070617373656400006044820152606490fd5b15610e5c57600190610ddb565b60405162461bcd60e51b815260206004820152603e60248201527f496e7374616e742072657665616c20636f6c6c656374696f6e7320646f206e6f60448201527f74206e65656420746f206265206d616e75616c6c792072657665616c656400006064820152608490fd5b60405162461bcd60e51b815260206004820152601e60248201527f436f6c6c656374696f6e20697320616c72656164792072657665616c656400006044820152606490fd5b346103005760003660031901126103005760ff601654166040516003821015610bbb576020918152f35b3461030057604036600319011261030057610f4f61318d565b610f57613201565b90601a5460ff8116908161105f575b5080611046575b611027575b6001600160a01b031690338214610fe257336000526005602052604060002082600052602052610fb28160406000209060ff801983541691151516179055565b60405190151581527f17307eab39ab6107e8899845ad3d59bd9653f200f220920489ca2b5937696c3160203392a3005b60405162461bcd60e51b815260206004820152601960248201527f4552433732313a20617070726f766520746f2063616c6c6572000000000000006044820152606490fd5b33600052601c60205261104160ff604060002054166134b0565b610f72565b5033600052601b60205260ff6040600020541615610f6d565b60ff915060081c161583610f66565b346103005760203660031901126103005761108761318d565b61108f61332b565b6001600160a01b031680156111395780600052601c60205260ff604060002054166110f45780600052601c6020526040600020600160ff198254161790557f119567ed9b6c3d3a90f367bc09314fc6cd50ab2434a5b4f73688a2c1ea149838600080a2005b60405162461bcd60e51b815260206004820152601b60248201527f4d61726b6574706c61636520616c726561647920616c6c6f77656400000000006044820152606490fd5b60405162461bcd60e51b815260206004820152601b60248201527f496e76616c6964206d61726b6574706c616365206164647265737300000000006044820152606490fd5b34610300576000366003190112610300576040516000600a546111a081613210565b8084529060019081811690811561122757506001146111de575b610372846111ca818603826130fc565b6040519182916020835260208301906131dc565b600a60009081529250600080516020613ce58339815191525b82841061120f5750505081016020016111ca826111ba565b805460208587018101919091529093019281016111f7565b60ff191660208087019190915292151560051b850190920192506111ca91508390506111ba565b34610300576000366003190112610300576007546040516001600160a01b039091168152602090f35b34610300576000366003190112610300576020600e54604051908152f35b3461030057600036600319011261030057602060ff601a54166040519015158152f35b3461030057602080600319360112610300576112d261318d565b60125460405163188c824d60e11b81526001600160a01b03929184908290600490829087165afa9081156105245760009161145d575b508233911603611407571690816000526008815260ff60406000205416156113d0578160005260088152604060002060016003820154910154111561138c57600890826000525260036040600020016113618154613ae8565b905533907f5b7945a09273a36deae169b61c3f2f6e50c1a2030374353d76346822ae48f674600080a3005b6064906040519062461bcd60e51b82526004820152601760248201527f4b4f4c20706f6f6c206c696d69742065786365656465640000000000000000006044820152fd5b6064906040519062461bcd60e51b82526004820152601060248201526f12d3d3081b9bdd08185c1c1c9bdd995960821b6044820152fd5b60405162461bcd60e51b815260048101849052602860248201527f4f6e6c7920506f6f6c4465706c6f7965722063616e2063616c6c207468697320604482015267333ab731ba34b7b760c11b6064820152608490fd5b6114749150843d861161063c5761062e81836130fc565b84611308565b346103005760003660031901126103005760135460195481039081116114a557602090604051908152f35b634e487b7160e01b600052601160045260246000fd5b34610300576020366003190112610300576001600160a01b036114dc61318d565b16600052601c602052602060ff604060002054166040519015158152f35b346103005760003660031901126103005761151361332b565b600780546001600160a01b031981169091556000906001600160a01b03167f8be0079c531659141344cd1fd0a4f28419497f9722a3daafe3b4186f6b6457e08280a3005b34610300576020366003190112610300576001600160a01b0361157861318d565b1680156115975760005260036020526020604060002054604051908152f35b60405162461bcd60e51b815260206004820152602960248201527f4552433732313a2061646472657373207a65726f206973206e6f7420612076616044820152683634b21037bbb732b960b91b6064820152608490fd5b34610300576000366003190112610300576020601154604051908152f35b3461030057602036600319011261030057602061162a600435613418565b6040516001600160a01b039091168152f35b3461030057602080600319360112610300576001600160401b03906004358281116103005761166f90369060040161316f565b9061167861332b565b81519283116117ea5761168c600b54613210565b601f8111611798575b508092601f811160011461170757807f6741b2fc379fad678116fe3d4d4b9a1a184ab53ba36b86ad0fa66340b1ab41ad946000916116fc575b508160011b916000199060031b1c191617600b555b6116f76040519282849384528301906131dc565b0390a1005b9050830151856116ce565b601f19811693600b600052600080516020613d258339815191529460005b81811061178157509482916001937f6741b2fc379fad678116fe3d4d4b9a1a184ab53ba36b86ad0fa66340b1ab41ad9710611768575b5050811b01600b556116e3565b85015160001960f88460031b161c19169055858061175b565b858301518755600190960195918401918401611725565b600b600052600080516020613d25833981519152601f850160051c8101918386106117e0575b601f0160051c01905b8181106117d45750611695565b600081556001016117c7565b90915081906117be565b634e487b7160e01b600052604160045260246000fd5b3461030057600036600319011261030057602060ff601854166040519015158152f35b34610300576000366003190112610300576020601454604051908152f35b3461030057600036600319011261030057600f546040516001600160a01b039091168152602090f35b346103005761067c610d1d61187e366132f6565b90601a549260ff808516808091611949575b80611931575b611913575b81604051966118a9886130e1565b6000885282611905575b5050806118ed575b6118ce575b50610d0d610d088433613584565b6118e79033600052601c602052604060002054166134b0565b866118c0565b5033600052601b6020528060406000205416156118bb565b60081c1615905081896118b3565b33600052601c60205261192c82604060002054166134b0565b61189b565b5033600052601b602052816040600020541615611896565b50818660081c1615611890565b34610300576040366003190112610300576004356119726131a3565b9061197b61332b565b61271081116119a957600e55600f80546001600160a01b0319166001600160a01b0392909216919091179055005b60405162461bcd60e51b815260206004820152601a60248201527f526f79616c74792063616e6e6f742065786365656420313030250000000000006044820152606490fd5b3461030057604036600319011261030057611a0761318d565b602435611a12613a92565b6010546001600160a01b03163303611a98578015611a5357611a4c91611a47611a3d83601954613a39565b6013541015613a46565b613af7565b6001600655005b60405162461bcd60e51b815260206004820152601f60248201527f5175616e74697479206d7573742062652067726561746572207468616e2030006044820152606490fd5b60405162461bcd60e51b81526020600482015260136024820152722ab730baba3437b934bd32b21036b4b73a32b960691b6044820152606490fd5b3461030057606036600319011261030057611aec61318d565b60243560443591611afb61332b565b6001600160a01b0316918215611bef578115611ba0577fbd25804f3c6494eaf033b140d2a3804fdfa470d085698013cd44b8a8f9be8552916040918251611b41816130c6565b60018152600360208201848152858301848152606084019160008352896000526008602052611b838860002095511515869060ff801983541691151516179055565b5160018501555160028401555191015582519182526020820152a2005b60405162461bcd60e51b815260206004820152602160248201527f506f6f6c206c696d6974206d7573742062652067726561746572207468616e206044820152600360fc1b6064820152608490fd5b60405162461bcd60e51b8152602060048201526013602482015272496e76616c6964204b4f4c206164647265737360681b6044820152606490fd5b3461030057604036600319011261030057600f54600e54602435818102926001600160a01b03169181159184041417156114a5576127106040928351928352046020820152f35b3461030057602036600319011261030057611c8a61318d565b611c9261332b565b6001600160a01b03166000818152601c602052604090205460ff1615611cef5780600052601c602052604060002060ff1981541690557feac9a18305649744c83ff9f4d60058552b03f4e8df46a1cb28f7563fbd179b42600080a2005b60405162461bcd60e51b815260206004820152601f60248201527f4d61726b6574706c616365206e6f7420696e20616c6c6f776564206c697374006044820152606490fd5b3461030057600036600319011261030057611d4d61332b565b61ff0019601a5416601a557fa0e4442ee881786834ee773b9ed42c22dff390d3d3318996679777915e63be34600080a1005b34610300576020366003190112610300576001600160a01b03611da061318d565b1660005260156020526020604060002054604051908152f35b346103005760003660031901126103005760125460405163d63843cd60e01b81526020916001600160a01b03919083908290600490829086165afa8015610524578391600091611e61575b506044601154604051948593849263ea4dae9160e01b84523060048501526024840152165afa90811561052457600091611e44575b506040519015158152f35b611e5b9150823d841161051d5761050f81836130fc565b82611e39565b611e789150823d841161063c5761062e81836130fc565b84611e04565b346103005761067c611e8f366132f6565b91601a5460ff81169081611ef4575b5080611edb575b611ebc575b611eb7610d088433613584565b61364c565b33600052601c602052611ed660ff604060002054166134b0565b611eaa565b5033600052601b60205260ff6040600020541615611ea5565b60ff915060081c161585611e9e565b34610300576000366003190112610300576103726111ca61324a565b346103005760208060031936011261030057611f3961318d565b60125460405163188c824d60e11b81529192916001600160a01b039183908290600490829086165afa908115610524576000916120df575b508133911603612074576010549281841661201e5716908115611fcc57506001600160a81b031990911617600160a01b176010557fd5cb2e985e95fd394547f9c7ee44d15aeb87738279930d016adf6a6c3f1a25c1600080a1005b6084906040519062461bcd60e51b82526004820152602560248201527f4e6577206d696e7465722063616e6e6f7420626520746865207a65726f206164604482015264647265737360d81b6064820152fd5b60405162461bcd60e51b815260048101849052602860248201527f436f6e747261637420697320616c72656164792061737369676e656420746f20604482015267309036b4b73a32b960c11b6064820152608490fd5b60405162461bcd60e51b815260048101839052603860248201527f4f6e6c79207468652070726f746f636f6c277320506f6f6c4465706c6f79657260448201527f2063616e2063616c6c20746869732066756e6374696f6e2e00000000000000006064820152608490fd5b6120f69150833d851161063c5761062e81836130fc565b84611f71565b346103005760403660031901126103005761211561318d565b60243561212061332b565b612128613a92565b801561223c5761213a81601954613a39565b9161214a60135480941115613a46565b6010546001600160a01b03811615908161222d575b50156121d4576014805493046121758385613a39565b1161218f5761218782611a4c94613a39565b601455613af7565b60405162461bcd60e51b815260206004820152601e60248201527f45786365656473203230252063726561746f7220616c6c6f636174696f6e00006044820152606490fd5b60405162461bcd60e51b815260206004820152602b60248201527f5468697320636f6c6c656374696f6e2069732063757272656e746c792074696560448201526a19081d1bc818481c1bdbdb60aa1b6064820152608490fd5b60ff915060a01c16158461215f565b60405162461bcd60e51b815260206004820152601460248201527305175616e74697479206d757374206265203e20360641b6044820152606490fd5b34610300576020366003190112610300576001600160a01b0361229961318d565b1660005260086020526040600020604051906122b4826130c6565b60ff8154161515808352606060018301549384602082015260036002850154948560408401520154918291015281612311575b61037291926040519485948590949392606092608083019615158352602083015260408201520152565b83811091506122e7565b346103005760803660031901126103005761233461318d565b5061233d6131a3565b506064356001600160401b038082116103005736602383011215610300578160040135908111610300573691016024011161030057604051630a85bd0160e11b8152602090f35b34610300576020366003190112610300576001600160a01b036123a561318d565b16600052601b602052602060ff604060002054166040519015158152f35b34610300576020366003190112610300576004358015158091036103005760207ff4fe92c76f5b8827e8fd9eac2c7181b6b2c22b10543b969fa2d9a26cdcd56bd29161240d61332b565b60ff19601a541660ff821617601a55604051908152a1005b346103005760403660031901126103005761243e61318d565b612446613201565b9061244f61332b565b6010549160ff8360a01c166124885715612480575b6001600160a01b03166001600160a01b03199190911617601055005b506000612464565b60405162461bcd60e51b815260206004820152600f60248201526e105c1c1c9bdd985b081b1bd8dad959608a1b6044820152606490fd5b34610300576040366003190112610300576124d861318d565b60243590601a5460ff8116908161268b575b5080612672575b612653575b6001600160a01b03808061250985613418565b16921691808314612604578033149081156125df575b501561257457600083815260046020526040902080546001600160a01b0319168317905561254c83613418565b167f8c5be1e5ebec7d5bd14f71427d1e84f3dd0314c0f7b2291e5b200ac8c7c3b925600080a4005b60405162461bcd60e51b815260206004820152603d60248201527f4552433732313a20617070726f76652063616c6c6572206973206e6f7420746f60448201527f6b656e206f776e6572206f7220617070726f76656420666f7220616c6c0000006064820152608490fd5b9050600052600560205260406000203360005260205260ff604060002054168461251f565b60405162461bcd60e51b815260206004820152602160248201527f4552433732313a20617070726f76616c20746f2063757272656e74206f776e656044820152603960f91b6064820152608490fd5b33600052601c60205261266d60ff604060002054166134b0565b6124f6565b5033600052601b60205260ff60406000205416156124f1565b60ff915060081c1615836124ea565b3461030057602036600319011261030057602061162a60043561343b565b34610300576000366003190112610300576010546040516001600160a01b039091168152602090f35b3461030057600036600319011261030057604051600060095461270381613210565b80845290600190818116908115611227575060011461272c57610372846111ca818603826130fc565b600960009081529250600080516020613d058339815191525b82841061275d5750505081016020016111ca826111ba565b80546020858701810191909152909301928101612745565b346103005760203660031901126103005760043563ffffffff60e01b8116809103610300576020906340c10f1960e01b8114908115612803575b81156127c057506040519015158152f35b6380ac58cd60e01b8114915081156127f2575b81156127e1575b5082611e39565b6301ffc9a760e01b149050826127da565b635b5e139f60e01b811491506127d3565b63152a902d60e11b811491506127af565b34610300576101a0366003190112610300576004356001600160401b0381116103005761284590369060040161316f565b6024356001600160401b0381116103005761286490369060040161316f565b6044356001600160401b0381116103005761288390369060040161316f565b6001600160a01b03906064358083169003610300576084359082821682036103005760c435908382168203610300576101243594848616860361030057600361014435101561030057610164356001600160401b038111610300576128ec90369060040161316f565b96857f00000000000000000000000000000000000000000000000000000000000000001633036130815785600754166130465760135461300c57601154612fcf578051906001600160401b0382116117ea57819061294b600954613210565b601f8111612f5b575b50602090601f8311600114612ee357600092612ed8575b50508160011b916000199060031b1c1916176009555b8051906001600160401b0382116117ea57819061299f600a54613210565b601f8111612e64575b50602090601f8311600114612dec57600092612de1575b50508160011b916000199060031b1c191617600a555b8051906001600160401b0382116117ea5781906129f3600b54613210565b601f8111612d6d575b50602090601f8311600114612cf557600092612cea575b50508160011b916000199060031b1c191617600b555b826001600160601b0360a01b91818416836012541617601255612a4d606435613383565b60a435600e551690600f541617600f5560e435601155610104356013556001600d5560ff196016541660ff6101443516176016556101443515600014612b3a5781929350600160ff1960185416176018555b61ffff19601a5416601a558160643516600052601b6020526040600020600160ff19825416179055166000526040600020600160ff19825416179055306000526040600020600160ff19825416179055808216612af857005b601080546001600160a81b0319169190921617600160a01b1790557fd5cb2e985e95fd394547f9c7ee44d15aeb87738279930d016adf6a6c3f1a25c1600080a1005b83516001600160401b0381116117ea57612b55600c54613210565b601f8111612c81575b506020601f8211600114612c0c578190849596600092612c01575b50508160011b916000199060031b1c191617600c555b60026101443503612a9f5761018435915042821115612bb2578291601755612a9f565b60405162461bcd60e51b815260206004820152602160248201527f52657665616c2074696d65206d75737420626520696e207468652066757475726044820152606560f81b6064820152608490fd5b015190508680612b79565b600c600052600080516020613cc5833981519152956000601f198416905b818110612c6957509185969791846001959410612c50575b505050811b01600c55612b8f565b015160001960f88460031b161c19169055868080612c42565b83830151895560019098019760209384019301612c2a565b600c600052601f820160051c600080516020613cc58339815191520160208310612cd5575b601f820160051c600080516020613cc5833981519152018110612cc95750612b5e565b60008155600101612ca6565b50600080516020613cc5833981519152612ca6565b015190508780612a13565b9250600b600052600080516020613d25833981519152906000935b601f1984168510612d52576001945083601f19811610612d39575b505050811b01600b55612a29565b015160001960f88460031b161c19169055878080612d2b565b81810151835560209485019460019093019290910190612d10565b909150600b600052601f830160051c600080516020613d258339815191520160208410612dcc575b908392915b601f820160051c600080516020613d25833981519152018110612dbd57506129fc565b60008155849350600101612d9a565b50600080516020613d25833981519152612d95565b0151905088806129bf565b9250600a600052600080516020613ce5833981519152906000935b601f1984168510612e49576001945083601f19811610612e30575b505050811b01600a556129d5565b015160001960f88460031b161c19169055888080612e22565b81810151835560209485019460019093019290910190612e07565b909150600a600052601f830160051c600080516020613ce58339815191520160208410612ec3575b908392915b601f820160051c600080516020613ce5833981519152018110612eb457506129a8565b60008155849350600101612e91565b50600080516020613ce5833981519152612e8c565b01519050898061296b565b92506009600052600080516020613d05833981519152906000935b601f1984168510612f40576001945083601f19811610612f27575b505050811b01600955612981565b015160001960f88460031b161c19169055898080612f19565b81810151835560209485019460019093019290910190612efe565b9091506009600052601f830160051c600080516020613d058339815191520160208410612fba575b908392915b601f820160051c600080516020613d05833981519152018110612fab5750612954565b60008155849350600101612f88565b50600080516020613d05833981519152612f83565b60405162461bcd60e51b815260206004820152601560248201527414da59db985d1d5c9948185b1c9958591e481cd95d605a1b6044820152606490fd5b60405162461bcd60e51b815260206004820152601260248201527114dd5c1c1b1e48185b1c9958591e481cd95d60721b6044820152606490fd5b60405162461bcd60e51b8152602060048201526013602482015272105b1c9958591e481a5b9a5d1a585b1a5e9959606a1b6044820152606490fd5b60405162461bcd60e51b815260206004820152601b60248201527f4f6e6c7920666163746f72792063616e20696e697469616c697a6500000000006044820152606490fd5b608081019081106001600160401b038211176117ea57604052565b602081019081106001600160401b038211176117ea57604052565b90601f801991011681019081106001600160401b038211176117ea57604052565b6001600160401b0381116117ea57601f01601f191660200190565b9291926131448261311d565b9161315260405193846130fc565b829481845281830111610300578281602093846000960137010152565b9080601f830112156103005781602061318a93359101613138565b90565b600435906001600160a01b038216820361030057565b602435906001600160a01b038216820361030057565b60005b8381106131cc5750506000910152565b81810151838201526020016131bc565b906020916131f5815180928185528580860191016131b9565b601f01601f1916010190565b60243590811515820361030057565b90600182811c92168015613240575b602083101461322a57565b634e487b7160e01b600052602260045260246000fd5b91607f169161321f565b60405190600082600c549161325e83613210565b808352926001908181169081156132d45750600114613287575b50613285925003836130fc565b565b600c60009081529150600080516020613cc58339815191525b8483106132b95750613285935050810160200138613278565b81935090816020925483858a010152019101909185926132a0565b90506020925061328594915060ff191682840152151560051b82010138613278565b6060906003190112610300576001600160a01b0390600435828116810361030057916024359081168103610300579060443590565b6007546001600160a01b0316330361333f57565b606460405162461bcd60e51b815260206004820152602060248201527f4f776e61626c653a2063616c6c6572206973206e6f7420746865206f776e65726044820152fd5b600780546001600160a01b039283166001600160a01b0319821681179092559091167f8be0079c531659141344cd1fd0a4f28419497f9722a3daafe3b4186f6b6457e0600080a3565b156133d357565b60405162461bcd60e51b815260206004820152601860248201527f4552433732313a20696e76616c696420746f6b656e20494400000000000000006044820152606490fd5b6000908152600260205260409020546001600160a01b031661318a8115156133cc565b60008181526002602052604090205461345e906001600160a01b031615156133cc565b6000908152600460205260409020546001600160a01b031690565b9081602091031261030057516001600160a01b03811681036103005790565b90816020910312610300575180151581036103005790565b156134b757565b60405162461bcd60e51b815260206004820152603d60248201527f455243373231633a204f7065726174696f6e206f6e6c7920616c6c6f7765642060448201527f7468726f75676820617070726f766564206d61726b6574706c616365730000006064820152608490fd5b1561352957565b60405162461bcd60e51b815260206004820152602d60248201527f4552433732313a2063616c6c6572206973206e6f7420746f6b656e206f776e6560448201526c1c881bdc88185c1c1c9bdd9959609a1b6064820152608490fd5b906001600160a01b03808061359884613418565b169316918383149384156135cb575b5083156135b5575b50505090565b6135c19192935061343b565b16143880806135af565b909350600052600560205260406000208260005260205260ff6040600020541692386135a7565b156135f957565b60405162461bcd60e51b815260206004820152602560248201527f4552433732313a207472616e736665722066726f6d20696e636f72726563742060448201526437bbb732b960d91b6064820152608490fd5b906136749161365a84613418565b6001600160a01b03939184169284929091831684146135f2565b1691821561370c57816136919161368a86613418565b16146135f2565b7fddf252ad1be2c89b69c2b068fc378daa952ba7f163c4a11628f55a4df523b3ef60008481526004602052604081206001600160601b0360a01b9081815416905583825260036020526040822060001981540190558482526040822060018154019055858252600260205284604083209182541617905580a4565b60405162461bcd60e51b8152602060048201526024808201527f4552433732313a207472616e7366657220746f20746865207a65726f206164646044820152637265737360e01b6064820152608490fd5b60809060208152603260208201527f4552433732313a207472616e7366657220746f206e6f6e20455243373231526560408201527131b2b4bb32b91034b6b83632b6b2b73a32b960711b60608201520190565b156137b757565b60405162461bcd60e51b8152806137d06004820161375d565b0390fd5b9192600092909190803b156138ea57613822946040518092630a85bd0160e11b9485835233600484015287602484015260448301526080606483015281878160209a8b9660848301906131dc565b03926001600160a01b03165af18491816138a6575b50613895575050503d60001461388d573d6138518161311d565b9061385f60405192836130fc565b81528091833d92013e5b8051918261388a5760405162461bcd60e51b8152806137d06004820161375d565b01fd5b506060613869565b6001600160e01b0319161492509050565b9091508581813d83116138e3575b6138be81836130fc565b810103126138df57516001600160e01b0319811681036138df579038613837565b8480fd5b503d6138b4565b5050915050600190565b9293600093909291803b156139745794849161394e9660405180948193630a85bd0160e11b9788845233600485015260018060a01b0380921660248501526044840152608060648401528260209b8c9760848301906131dc565b0393165af18491816138a65750613895575050503d60001461388d573d6138518161311d565b505050915050600190565b60ff601854166139915761318a61324a565b604051600b548160006139a383613210565b80835292600190818116908115613a1757506001146139ca575b5061318a925003826130fc565b600b60009081529150600080516020613d258339815191525b8483106139fc575061318a9350508101602001386139bd565b819350908160209254838589010152019101909184926139e3565b90506020925061318a94915060ff191682840152151560051b820101386139bd565b919082018092116114a557565b15613a4d57565b60405162461bcd60e51b815260206004820152601f60248201527f4d696e74696e6720776f756c6420657863656564206d617820737570706c79006044820152606490fd5b600260065414613aa3576002600655565b60405162461bcd60e51b815260206004820152601f60248201527f5265656e7472616e637947756172643a207265656e7472616e742063616c6c006044820152606490fd5b60001981146114a55760010190565b9060005b818110613b0757505050565b600d805490613b1582613ae8565b90556019613b238154613ae8565b9055604090815190613b34826130e1565b600082526001600160a01b038616928315613c35579181613c30959493613b9a613b947f3b782080656380c62378fe492892b8dcb9c50affce49759e169b8c7e5ef270e795600052600260205260018060a01b0360406000205416151590565b15613c78565b600082815260026020526040902054613bbd906001600160a01b03161515613b94565b84600052613c26610d1d602094600386528360002060018154019055846000526002865283600020886001600160601b0360a01b825416179055848860007fddf252ad1be2c89b69c2b068fc378daa952ba7f163c4a11628f55a4df523b3ef8180a4848c6137d4565b51908152a2613ae8565b613afb565b5162461bcd60e51b815260206004820181905260248201527f4552433732313a206d696e7420746f20746865207a65726f20616464726573736044820152606490fd5b15613c7f57565b60405162461bcd60e51b815260206004820152601c60248201527f4552433732313a20746f6b656e20616c7265616479206d696e746564000000006044820152606490fdfedf6966c971051c3d54ec59162606531493a51404a002842f56009d7e5cf4a8c7c65a7bb8d6351c1cf70c95a316cc6a92839c986682d98bc35f958f4883f9d2a86e1540171b6c0c960b71a7020d9f60077f6af931a8bbf590da0223dacf75c7af0175b7a638427703f0dbe7bb9bbf987a2551717b34e79f33b5b1008d1fa01db9a2646970667358221220b62bcb39fb850b6948b85803f5fbc2cdbeab4a3d237c01b5f84fd814e5e7517264736f6c63430008130033",
  "linkReferences": {},
  "deployedLinkReferences": {}
}