{
  "_format": "hh-sol-artifact-1",
  "contractName": "ERC721Prize",
  "sourceName": "contracts/ERC721Prize.sol",
  "abi": [
    {
      "inputs": [
        {
          "internalType": "address",
          "name": "_factory",
          "type": "address"
        }
      ],
      "stateMutability": "nonpayable",
      "type": "constructor"
    },
    {
      "inputs": [],
      "name": "AlreadyInitialized",
      "type": "error"
    },
    {
      "inputs": [],
      "name": "ApprovalCallerNotOwnerNorApproved",
      "type": "error"
    },
    {
      "inputs": [],
      "name": "ApprovalQueryForNonexistentToken",
      "type": "error"
    },
    {
      "inputs": [],
      "name": "BalanceQueryForZeroAddress",
      "type": "error"
    },
    {
      "inputs": [],
      "name": "ExceedsMaxSupply",
      "type": "error"
    },
    {
      "inputs": [],
      "name": "InvalidRevealTime",
      "type": "error"
    },
    {
      "inputs": [],
      "name": "MintERC2309QuantityExceedsLimit",
      "type": "error"
    },
    {
      "inputs": [],
      "name": "MintToZeroAddress",
      "type": "error"
    },
    {
      "inputs": [],
      "name": "MintZeroQuantity",
      "type": "error"
    },
    {
      "inputs": [],
      "name": "NotCompatibleWithSpotMints",
      "type": "error"
    },
    {
      "inputs": [],
      "name": "OnlyFactory",
      "type": "error"
    },
    {
      "inputs": [],
      "name": "OwnerQueryForNonexistentToken",
      "type": "error"
    },
    {
      "inputs": [],
      "name": "OwnershipNotInitializedForExtraData",
      "type": "error"
    },
    {
      "inputs": [],
      "name": "SequentialMintExceedsLimit",
      "type": "error"
    },
    {
      "inputs": [],
      "name": "SequentialUpToTooSmall",
      "type": "error"
    },
    {
      "inputs": [],
      "name": "SpotMintTokenIdTooSmall",
      "type": "error"
    },
    {
      "inputs": [],
      "name": "SupplyAlreadySet",
      "type": "error"
    },
    {
      "inputs": [],
      "name": "TokenAlreadyExists",
      "type": "error"
    },
    {
      "inputs": [],
      "name": "TransferCallerNotOwnerNorApproved",
      "type": "error"
    },
    {
      "inputs": [],
      "name": "TransferFromIncorrectOwner",
      "type": "error"
    },
    {
      "inputs": [],
      "name": "TransferToNonERC721ReceiverImplementer",
      "type": "error"
    },
    {
      "inputs": [],
      "name": "TransferToZeroAddress",
      "type": "error"
    },
    {
      "inputs": [],
      "name": "URIQueryForNonexistentToken",
      "type": "error"
    },
    {
      "inputs": [],
      "name": "UnauthorizedMinter",
      "type": "error"
    },
    {
      "inputs": [],
      "name": "ZeroQuantity",
      "type": "error"
    },
    {
      "anonymous": false,
      "inputs": [
        {
          "indexed": true,
          "internalType": "address",
          "name": "owner",
          "type": "address"
        },
        {
          "indexed": true,
          "internalType": "address",
          "name": "approved",
          "type": "address"
        },
        {
          "indexed": true,
          "internalType": "uint256",
          "name": "tokenId",
          "type": "uint256"
        }
      ],
      "name": "Approval",
      "type": "event"
    },
    {
      "anonymous": false,
      "inputs": [
        {
          "indexed": true,
          "internalType": "address",
          "name": "owner",
          "type": "address"
        },
        {
          "indexed": true,
          "internalType": "address",
          "name": "operator",
          "type": "address"
        },
        {
          "indexed": false,
          "internalType": "bool",
          "name": "approved",
          "type": "bool"
        }
      ],
      "name": "ApprovalForAll",
      "type": "event"
    },
    {
      "anonymous": false,
      "inputs": [
        {
          "indexed": false,
          "internalType": "string",
          "name": "newBaseURI",
          "type": "string"
        }
      ],
      "name": "BaseURIUpdated",
      "type": "event"
    },
    {
      "anonymous": false,
      "inputs": [],
      "name": "CollectionRevealed",
      "type": "event"
    },
    {
      "anonymous": false,
      "inputs": [
        {
          "indexed": true,
          "internalType": "uint256",
          "name": "fromTokenId",
          "type": "uint256"
        },
        {
          "indexed": false,
          "internalType": "uint256",
          "name": "toTokenId",
          "type": "uint256"
        },
        {
          "indexed": true,
          "internalType": "address",
          "name": "from",
          "type": "address"
        },
        {
          "indexed": true,
          "internalType": "address",
          "name": "to",
          "type": "address"
        }
      ],
      "name": "ConsecutiveTransfer",
      "type": "event"
    },
    {
      "anonymous": false,
      "inputs": [
        {
          "indexed": false,
          "internalType": "uint256",
          "name": "allocation",
          "type": "uint256"
        }
      ],
      "name": "CreatorAllocationDeclared",
      "type": "event"
    },
    {
      "anonymous": false,
      "inputs": [
        {
          "indexed": false,
          "internalType": "uint256",
          "name": "newAllocation",
          "type": "uint256"
        },
        {
          "indexed": false,
          "internalType": "uint256",
          "name": "reductionAmount",
          "type": "uint256"
        }
      ],
      "name": "CreatorAllocationReduced",
      "type": "event"
    },
    {
      "anonymous": false,
      "inputs": [
        {
          "indexed": true,
          "internalType": "address",
          "name": "kol",
          "type": "address"
        },
        {
          "indexed": false,
          "internalType": "uint256",
          "name": "poolLimit",
          "type": "uint256"
        },
        {
          "indexed": false,
          "internalType": "uint256",
          "name": "enforcedSlotFee",
          "type": "uint256"
        },
        {
          "indexed": false,
          "internalType": "uint256",
          "name": "winnerLimit",
          "type": "uint256"
        }
      ],
      "name": "KOLApproved",
      "type": "event"
    },
    {
      "anonymous": false,
      "inputs": [
        {
          "indexed": true,
          "internalType": "address",
          "name": "kol",
          "type": "address"
        },
        {
          "indexed": true,
          "internalType": "address",
          "name": "pool",
          "type": "address"
        }
      ],
      "name": "KOLPoolCreated",
      "type": "event"
    },
    {
      "anonymous": false,
      "inputs": [
        {
          "indexed": true,
          "internalType": "address",
          "name": "kol",
          "type": "address"
        }
      ],
      "name": "KOLRevoked",
      "type": "event"
    },
    {
      "anonymous": false,
      "inputs": [
        {
          "indexed": true,
          "internalType": "address",
          "name": "pool",
          "type": "address"
        },
        {
          "indexed": false,
          "internalType": "uint256",
          "name": "allocation",
          "type": "uint256"
        }
      ],
      "name": "MinterAllocationRestored",
      "type": "event"
    },
    {
      "anonymous": false,
      "inputs": [
        {
          "indexed": true,
          "internalType": "address",
          "name": "pool",
          "type": "address"
        },
        {
          "indexed": false,
          "internalType": "uint256",
          "name": "allocation",
          "type": "uint256"
        }
      ],
      "name": "MinterAndAllocationSet",
      "type": "event"
    },
    {
      "anonymous": false,
      "inputs": [
        {
          "indexed": true,
          "internalType": "address",
          "name": "previousOwner",
          "type": "address"
        },
        {
          "indexed": true,
          "internalType": "address",
          "name": "newOwner",
          "type": "address"
        }
      ],
      "name": "OwnershipTransferred",
      "type": "event"
    },
    {
      "anonymous": false,
      "inputs": [
        {
          "indexed": true,
          "internalType": "address",
          "name": "winner",
          "type": "address"
        },
        {
          "indexed": false,
          "internalType": "uint256",
          "name": "tokenId",
          "type": "uint256"
        }
      ],
      "name": "PrizeMinted",
      "type": "event"
    },
    {
      "anonymous": false,
      "inputs": [
        {
          "indexed": false,
          "internalType": "uint256",
          "name": "newMaxSupply",
          "type": "uint256"
        },
        {
          "indexed": false,
          "internalType": "uint256",
          "name": "newCreatorAllocation",
          "type": "uint256"
        }
      ],
      "name": "SupplyReduced",
      "type": "event"
    },
    {
      "anonymous": false,
      "inputs": [
        {
          "indexed": true,
          "internalType": "address",
          "name": "from",
          "type": "address"
        },
        {
          "indexed": true,
          "internalType": "address",
          "name": "to",
          "type": "address"
        },
        {
          "indexed": true,
          "internalType": "uint256",
          "name": "tokenId",
          "type": "uint256"
        }
      ],
      "name": "Transfer",
      "type": "event"
    },
    {
      "anonymous": false,
      "inputs": [
        {
          "indexed": false,
          "internalType": "uint256",
          "name": "cliffEnd",
          "type": "uint256"
        },
        {
          "indexed": false,
          "internalType": "uint256",
          "name": "numberOfUnlocks",
          "type": "uint256"
        },
        {
          "indexed": false,
          "internalType": "uint256",
          "name": "durationBetweenUnlocks",
          "type": "uint256"
        },
        {
          "indexed": false,
          "internalType": "uint256",
          "name": "amountPerUnlock",
          "type": "uint256"
        }
      ],
      "name": "VestingConfigured",
      "type": "event"
    },
    {
      "inputs": [
        {
          "internalType": "address",
          "name": "",
          "type": "address"
        }
      ],
      "name": "allocatedSupply",
      "outputs": [
        {
          "internalType": "uint256",
          "name": "",
          "type": "uint256"
        }
      ],
      "stateMutability": "view",
      "type": "function"
    },
    {
      "inputs": [
        {
          "internalType": "address",
          "name": "to",
          "type": "address"
        },
        {
          "internalType": "uint256",
          "name": "tokenId",
          "type": "uint256"
        }
      ],
      "name": "approve",
      "outputs": [],
      "stateMutability": "payable",
      "type": "function"
    },
    {
      "inputs": [
        {
          "internalType": "address",
          "name": "_kol",
          "type": "address"
        },
        {
          "internalType": "uint256",
          "name": "_poolLimit",
          "type": "uint256"
        },
        {
          "internalType": "uint256",
          "name": "_enforcedSlotFee",
          "type": "uint256"
        },
        {
          "internalType": "uint256",
          "name": "_winnerLimit",
          "type": "uint256"
        }
      ],
      "name": "approveKOL",
      "outputs": [],
      "stateMutability": "nonpayable",
      "type": "function"
    },
    {
      "inputs": [],
      "name": "availableSupply",
      "outputs": [
        {
          "internalType": "uint256",
          "name": "",
          "type": "uint256"
        }
      ],
      "stateMutability": "view",
      "type": "function"
    },
    {
      "inputs": [
        {
          "internalType": "address",
          "name": "owner",
          "type": "address"
        }
      ],
      "name": "balanceOf",
      "outputs": [
        {
          "internalType": "uint256",
          "name": "",
          "type": "uint256"
        }
      ],
      "stateMutability": "view",
      "type": "function"
    },
    {
      "inputs": [
        {
          "internalType": "uint256",
          "name": "cliffEnd",
          "type": "uint256"
        },
        {
          "internalType": "uint256",
          "name": "numberOfUnlocks",
          "type": "uint256"
        },
        {
          "internalType": "uint256",
          "name": "durationBetweenUnlocks",
          "type": "uint256"
        }
      ],
      "name": "configureCreatorVesting",
      "outputs": [],
      "stateMutability": "nonpayable",
      "type": "function"
    },
    {
      "inputs": [],
      "name": "creationTime",
      "outputs": [
        {
          "internalType": "uint256",
          "name": "",
          "type": "uint256"
        }
      ],
      "stateMutability": "view",
      "type": "function"
    },
    {
      "inputs": [],
      "name": "creatorAllocation",
      "outputs": [
        {
          "internalType": "uint256",
          "name": "",
          "type": "uint256"
        }
      ],
      "stateMutability": "view",
      "type": "function"
    },
    {
      "inputs": [],
      "name": "creatorAllocationDeclared",
      "outputs": [
        {
          "internalType": "bool",
          "name": "",
          "type": "bool"
        }
      ],
      "stateMutability": "view",
      "type": "function"
    },
    {
      "inputs": [],
      "name": "creatorClaimedCount",
      "outputs": [
        {
          "internalType": "uint256",
          "name": "",
          "type": "uint256"
        }
      ],
      "stateMutability": "view",
      "type": "function"
    },
    {
      "inputs": [
        {
          "internalType": "address",
          "name": "to",
          "type": "address"
        },
        {
          "internalType": "uint256",
          "name": "quantity",
          "type": "uint256"
        }
      ],
      "name": "creatorMint",
      "outputs": [],
      "stateMutability": "nonpayable",
      "type": "function"
    },
    {
      "inputs": [
        {
          "internalType": "uint256",
          "name": "_percentage",
          "type": "uint256"
        }
      ],
      "name": "cutSupply",
      "outputs": [],
      "stateMutability": "nonpayable",
      "type": "function"
    },
    {
      "inputs": [
        {
          "internalType": "uint256",
          "name": "_percentage",
          "type": "uint256"
        }
      ],
      "name": "declareCreatorAllocation",
      "outputs": [],
      "stateMutability": "nonpayable",
      "type": "function"
    },
    {
      "inputs": [
        {
          "internalType": "uint256",
          "name": "tokenId",
          "type": "uint256"
        }
      ],
      "name": "getApproved",
      "outputs": [
        {
          "internalType": "address",
          "name": "",
          "type": "address"
        }
      ],
      "stateMutability": "view",
      "type": "function"
    },
    {
      "inputs": [],
      "name": "getAvailableCreatorMint",
      "outputs": [
        {
          "internalType": "uint256",
          "name": "",
          "type": "uint256"
        }
      ],
      "stateMutability": "view",
      "type": "function"
    },
    {
      "inputs": [],
      "name": "getDropURI",
      "outputs": [
        {
          "internalType": "string",
          "name": "",
          "type": "string"
        }
      ],
      "stateMutability": "view",
      "type": "function"
    },
    {
      "inputs": [
        {
          "internalType": "address",
          "name": "_kol",
          "type": "address"
        }
      ],
      "name": "getKOLApprovalDetails",
      "outputs": [
        {
          "internalType": "bool",
          "name": "approved",
          "type": "bool"
        },
        {
          "internalType": "uint256",
          "name": "poolLimit",
          "type": "uint256"
        },
        {
          "internalType": "uint256",
          "name": "enforcedSlotFee",
          "type": "uint256"
        },
        {
          "internalType": "uint256",
          "name": "winnerLimit",
          "type": "uint256"
        },
        {
          "internalType": "uint256",
          "name": "poolCount",
          "type": "uint256"
        },
        {
          "internalType": "uint256",
          "name": "winnerCount",
          "type": "uint256"
        }
      ],
      "stateMutability": "view",
      "type": "function"
    },
    {
      "inputs": [],
      "name": "getUnlockedCreatorAllocation",
      "outputs": [
        {
          "internalType": "uint256",
          "name": "",
          "type": "uint256"
        }
      ],
      "stateMutability": "view",
      "type": "function"
    },
    {
      "inputs": [
        {
          "internalType": "address",
          "name": "_kol",
          "type": "address"
        },
        {
          "internalType": "uint256",
          "name": "_winnersCount",
          "type": "uint256"
        }
      ],
      "name": "incrementKOLApprovedCounts",
      "outputs": [],
      "stateMutability": "nonpayable",
      "type": "function"
    },
    {
      "inputs": [
        {
          "internalType": "string",
          "name": "name_",
          "type": "string"
        },
        {
          "internalType": "string",
          "name": "symbol_",
          "type": "string"
        },
        {
          "components": [
            {
              "internalType": "address",
              "name": "initialOwner",
              "type": "address"
            },
            {
              "internalType": "address",
              "name": "protocolManager",
              "type": "address"
            },
            {
              "internalType": "address",
              "name": "royaltyRecipient",
              "type": "address"
            },
            {
              "internalType": "uint256",
              "name": "royaltyPercentage",
              "type": "uint256"
            },
            {
              "internalType": "uint256",
              "name": "maxSupply",
              "type": "uint256"
            },
            {
              "internalType": "enum PrizeTypes.RevealType",
              "name": "revealType",
              "type": "uint8"
            },
            {
              "internalType": "uint256",
              "name": "revealTime",
              "type": "uint256"
            },
            {
              "internalType": "string",
              "name": "baseURI",
              "type": "string"
            },
            {
              "internalType": "string",
              "name": "unrevealedURI",
              "type": "string"
            },
            {
              "internalType": "string",
              "name": "dropURI",
              "type": "string"
            }
          ],
          "internalType": "struct ERC721Prize.InitializationData",
          "name": "data",
          "type": "tuple"
        }
      ],
      "name": "initialize",
      "outputs": [],
      "stateMutability": "nonpayable",
      "type": "function"
    },
    {
      "inputs": [
        {
          "internalType": "address",
          "name": "owner",
          "type": "address"
        },
        {
          "internalType": "address",
          "name": "operator",
          "type": "address"
        }
      ],
      "name": "isApprovedForAll",
      "outputs": [
        {
          "internalType": "bool",
          "name": "",
          "type": "bool"
        }
      ],
      "stateMutability": "view",
      "type": "function"
    },
    {
      "inputs": [],
      "name": "isRevealed",
      "outputs": [
        {
          "internalType": "bool",
          "name": "",
          "type": "bool"
        }
      ],
      "stateMutability": "view",
      "type": "function"
    },
    {
      "inputs": [
        {
          "internalType": "address",
          "name": "",
          "type": "address"
        }
      ],
      "name": "kolApprovals",
      "outputs": [
        {
          "internalType": "bool",
          "name": "approved",
          "type": "bool"
        },
        {
          "internalType": "uint256",
          "name": "poolLimit",
          "type": "uint256"
        },
        {
          "internalType": "uint256",
          "name": "enforcedSlotFee",
          "type": "uint256"
        },
        {
          "internalType": "uint256",
          "name": "winnerLimit",
          "type": "uint256"
        },
        {
          "internalType": "uint256",
          "name": "poolCount",
          "type": "uint256"
        },
        {
          "internalType": "uint256",
          "name": "winnerCount",
          "type": "uint256"
        }
      ],
      "stateMutability": "view",
      "type": "function"
    },
    {
      "inputs": [],
      "name": "maxSupply",
      "outputs": [
        {
          "internalType": "uint256",
          "name": "",
          "type": "uint256"
        }
      ],
      "stateMutability": "view",
      "type": "function"
    },
    {
      "inputs": [
        {
          "internalType": "address",
          "name": "to",
          "type": "address"
        },
        {
          "internalType": "uint256",
          "name": "quantity",
          "type": "uint256"
        }
      ],
      "name": "mint",
      "outputs": [],
      "stateMutability": "nonpayable",
      "type": "function"
    },
    {
      "inputs": [],
      "name": "name",
      "outputs": [
        {
          "internalType": "string",
          "name": "",
          "type": "string"
        }
      ],
      "stateMutability": "view",
      "type": "function"
    },
    {
      "inputs": [
        {
          "internalType": "address",
          "name": "",
          "type": "address"
        },
        {
          "internalType": "address",
          "name": "",
          "type": "address"
        },
        {
          "internalType": "uint256",
          "name": "",
          "type": "uint256"
        },
        {
          "internalType": "bytes",
          "name": "",
          "type": "bytes"
        }
      ],
      "name": "onERC721Received",
      "outputs": [
        {
          "internalType": "bytes4",
          "name": "",
          "type": "bytes4"
        }
      ],
      "stateMutability": "pure",
      "type": "function"
    },
    {
      "inputs": [],
      "name": "owner",
      "outputs": [
        {
          "internalType": "address",
          "name": "",
          "type": "address"
        }
      ],
      "stateMutability": "view",
      "type": "function"
    },
    {
      "inputs": [
        {
          "internalType": "uint256",
          "name": "tokenId",
          "type": "uint256"
        }
      ],
      "name": "ownerOf",
      "outputs": [
        {
          "internalType": "address",
          "name": "",
          "type": "address"
        }
      ],
      "stateMutability": "view",
      "type": "function"
    },
    {
      "inputs": [],
      "name": "protocolManager",
      "outputs": [
        {
          "internalType": "address",
          "name": "",
          "type": "address"
        }
      ],
      "stateMutability": "view",
      "type": "function"
    },
    {
      "inputs": [
        {
          "internalType": "uint256",
          "name": "_percentage",
          "type": "uint256"
        }
      ],
      "name": "reduceCreatorAllocation",
      "outputs": [],
      "stateMutability": "nonpayable",
      "type": "function"
    },
    {
      "inputs": [],
      "name": "renounceOwnership",
      "outputs": [],
      "stateMutability": "nonpayable",
      "type": "function"
    },
    {
      "inputs": [
        {
          "internalType": "address",
          "name": "pool",
          "type": "address"
        }
      ],
      "name": "restoreMinterAllocation",
      "outputs": [],
      "stateMutability": "nonpayable",
      "type": "function"
    },
    {
      "inputs": [],
      "name": "reveal",
      "outputs": [],
      "stateMutability": "nonpayable",
      "type": "function"
    },
    {
      "inputs": [],
      "name": "revealTime",
      "outputs": [
        {
          "internalType": "uint256",
          "name": "",
          "type": "uint256"
        }
      ],
      "stateMutability": "view",
      "type": "function"
    },
    {
      "inputs": [],
      "name": "revealType",
      "outputs": [
        {
          "internalType": "enum PrizeTypes.RevealType",
          "name": "",
          "type": "uint8"
        }
      ],
      "stateMutability": "view",
      "type": "function"
    },
    {
      "inputs": [
        {
          "internalType": "address",
          "name": "_kol",
          "type": "address"
        }
      ],
      "name": "revokeKOL",
      "outputs": [],
      "stateMutability": "nonpayable",
      "type": "function"
    },
    {
      "inputs": [
        {
          "internalType": "uint256",
          "name": "",
          "type": "uint256"
        },
        {
          "internalType": "uint256",
          "name": "salePrice",
          "type": "uint256"
        }
      ],
      "name": "royaltyInfo",
      "outputs": [
        {
          "internalType": "address",
          "name": "",
          "type": "address"
        },
        {
          "internalType": "uint256",
          "name": "",
          "type": "uint256"
        }
      ],
      "stateMutability": "view",
      "type": "function"
    },
    {
      "inputs": [],
      "name": "royaltyPercentage",
      "outputs": [
        {
          "internalType": "uint256",
          "name": "",
          "type": "uint256"
        }
      ],
      "stateMutability": "view",
      "type": "function"
    },
    {
      "inputs": [],
      "name": "royaltyRecipient",
      "outputs": [
        {
          "internalType": "address",
          "name": "",
          "type": "address"
        }
      ],
      "stateMutability": "view",
      "type": "function"
    },
    {
      "inputs": [
        {
          "internalType": "address",
          "name": "from",
          "type": "address"
        },
        {
          "internalType": "address",
          "name": "to",
          "type": "address"
        },
        {
          "internalType": "uint256",
          "name": "tokenId",
          "type": "uint256"
        }
      ],
      "name": "safeTransferFrom",
      "outputs": [],
      "stateMutability": "payable",
      "type": "function"
    },
    {
      "inputs": [
        {
          "internalType": "address",
          "name": "from",
          "type": "address"
        },
        {
          "internalType": "address",
          "name": "to",
          "type": "address"
        },
        {
          "internalType": "uint256",
          "name": "tokenId",
          "type": "uint256"
        },
        {
          "internalType": "bytes",
          "name": "data",
          "type": "bytes"
        }
      ],
      "name": "safeTransferFrom",
      "outputs": [],
      "stateMutability": "payable",
      "type": "function"
    },
    {
      "inputs": [
        {
          "internalType": "address",
          "name": "operator",
          "type": "address"
        },
        {
          "internalType": "bool",
          "name": "approved",
          "type": "bool"
        }
      ],
      "name": "setApprovalForAll",
      "outputs": [],
      "stateMutability": "nonpayable",
      "type": "function"
    },
    {
      "inputs": [
        {
          "internalType": "string",
          "name": "newBaseURI",
          "type": "string"
        }
      ],
      "name": "setBaseURI",
      "outputs": [],
      "stateMutability": "nonpayable",
      "type": "function"
    },
    {
      "inputs": [
        {
          "internalType": "address",
          "name": "pool",
          "type": "address"
        },
        {
          "internalType": "uint256",
          "name": "allocation",
          "type": "uint256"
        }
      ],
      "name": "setMinterAndAllocation",
      "outputs": [],
      "stateMutability": "nonpayable",
      "type": "function"
    },
    {
      "inputs": [
        {
          "internalType": "uint256",
          "name": "_royaltyPercentage",
          "type": "uint256"
        },
        {
          "internalType": "address",
          "name": "_royaltyRecipient",
          "type": "address"
        }
      ],
      "name": "setRoyalty",
      "outputs": [],
      "stateMutability": "nonpayable",
      "type": "function"
    },
    {
      "inputs": [],
      "name": "supplyCutTimestamp",
      "outputs": [
        {
          "internalType": "uint256",
          "name": "",
          "type": "uint256"
        }
      ],
      "stateMutability": "view",
      "type": "function"
    },
    {
      "inputs": [
        {
          "internalType": "bytes4",
          "name": "interfaceId",
          "type": "bytes4"
        }
      ],
      "name": "supportsInterface",
      "outputs": [
        {
          "internalType": "bool",
          "name": "",
          "type": "bool"
        }
      ],
      "stateMutability": "view",
      "type": "function"
    },
    {
      "inputs": [],
      "name": "symbol",
      "outputs": [
        {
          "internalType": "string",
          "name": "",
          "type": "string"
        }
      ],
      "stateMutability": "view",
      "type": "function"
    },
    {
      "inputs": [
        {
          "internalType": "uint256",
          "name": "tokenId",
          "type": "uint256"
        }
      ],
      "name": "tokenURI",
      "outputs": [
        {
          "internalType": "string",
          "name": "",
          "type": "string"
        }
      ],
      "stateMutability": "view",
      "type": "function"
    },
    {
      "inputs": [],
      "name": "totalAllocatedSupply",
      "outputs": [
        {
          "internalType": "uint256",
          "name": "",
          "type": "uint256"
        }
      ],
      "stateMutability": "view",
      "type": "function"
    },
    {
      "inputs": [],
      "name": "totalSupply",
      "outputs": [
        {
          "internalType": "uint256",
          "name": "",
          "type": "uint256"
        }
      ],
      "stateMutability": "view",
      "type": "function"
    },
    {
      "inputs": [
        {
          "internalType": "address",
          "name": "from",
          "type": "address"
        },
        {
          "internalType": "address",
          "name": "to",
          "type": "address"
        },
        {
          "internalType": "uint256",
          "name": "tokenId",
          "type": "uint256"
        }
      ],
      "name": "transferFrom",
      "outputs": [],
      "stateMutability": "payable",
      "type": "function"
    },
    {
      "inputs": [
        {
          "internalType": "address",
          "name": "newOwner",
          "type": "address"
        }
      ],
      "name": "transferOwnership",
      "outputs": [],
      "stateMutability": "nonpayable",
      "type": "function"
    },
    {
      "inputs": [],
      "name": "unlockedAmountAtCut",
      "outputs": [
        {
          "internalType": "uint256",
          "name": "",
          "type": "uint256"
        }
      ],
      "stateMutability": "view",
      "type": "function"
    },
    {
      "inputs": [],
      "name": "unrevealedBaseURI",
      "outputs": [
        {
          "internalType": "string",
          "name": "",
          "type": "string"
        }
      ],
      "stateMutability": "view",
      "type": "function"
    },
    {
      "inputs": [],
      "name": "vestingConfig",
      "outputs": [
        {
          "internalType": "uint256",
          "name": "cliffEnd",
          "type": "uint256"
        },
        {
          "internalType": "uint256",
          "name": "numberOfUnlocks",
          "type": "uint256"
        },
        {
          "internalType": "uint256",
          "name": "durationBetweenUnlocks",
          "type": "uint256"
        },
        {
          "internalType": "uint256",
          "name": "amountPerUnlock",
          "type": "uint256"
        }
      ],
      "stateMutability": "view",
      "type": "function"
    },
    {
      "inputs": [],
      "name": "vestingConfigured",
      "outputs": [
        {
          "internalType": "bool",
          "name": "",
          "type": "bool"
        }
      ],
      "stateMutability": "view",
      "type": "function"
    }
  ],
  "bytecode": "0x60a034620000b357601f62004a4c38819003918201601f19168301916001600160401b03831184841017620000b857808492602094604052833981010312620000b357516001600160a01b03908181168103620000b357600160008181558154336001600160a01b0319821681179093556040519416907f8be0079c531659141344cd1fd0a4f28419497f9722a3daafe3b4186f6b6457e09080a360805261497d9081620000cf823960805181612da70152f35b600080fd5b634e487b7160e01b600052604160045260246000fdfe6080604052600436101561001257600080fd5b60003560e01c80620f2125146103b557806227675f146103b057806301ffc9a7146103ab57806306fdde03146103a6578063081812fc146103a1578063095ea7b31461039c578063150b7a021461039757806317f639791461039257806318160ddd1461038d578063182ee485146103885780631cdccaff14610383578063219172db1461037e57806323b872dd14610379578063290f54ae146103745780632a55205a1461036f57806340c10f191461036a57806340e3276b1461036557806342842e0e146103605780634c00de821461035b57806354214f691461035657806355f804b3146103515780636352211e1461034c578063693866e31461034757806369d42c5e1461034257806370a082311461033d578063715018a6146103385780637ecc2b561461033357806381ae39001461032e5780638a71bb2d146103295780638da5cb5b146103245780638f152d0e1461031f5780639015d26b1461031a578063951100031461031557806395d89b4114610310578063a22cb4651461030b578063a2af294f14610306578063a362273514610301578063a475b5dd146102fc578063a7df596e146102f7578063ab4b6692146102f2578063b4565180146102ed578063b5f1f247146102e8578063b88d4fde146102e3578063ba829d71146102de578063c705fea2146102d9578063c87b56dd146102d4578063d38d1926146102cf578063d5abeb01146102ca578063d6b6e203146102c5578063d8270dce146102c0578063e059b9c0146102bb578063e1258aaa146102b6578063e985e9c5146102b1578063f2fde38b146102ac578063f4c44569146102a7578063fbddc055146102a2578063fbf3aa211461029d5763fcf2e55f1461029857600080fd5b61276e565b612734565b6126ad565b612506565b612475565b612430565b6122d7565b6122b9565b61229b565b61225e565b6121ce565b6120fc565b6120dd565b612042565b612024565b611e7e565b611d2c565b611bef565b611bc6565b611ae1565b6119e5565b6119c7565b61199d565b6118f5565b61183f565b6116d7565b6116b4565b611691565b611668565b61164a565b61162c565b611589565b61152b565b6114d1565b611444565b611429565b6113fa565b61128c565b6111eb565b6111c2565b611049565b610fae565b610ea3565b610e67565b610e49565b610cfe565b610cb4565b610c84565b610943565b610914565b61084b565b6107f1565b6106f7565b610697565b6105a0565b6104a4565b6103ee565b346103d85760003660031901126103d85760206103d06137ea565b604051908152f35b600080fd5b6001600160a01b038116036103d857565b346103d85760403660031901126103d85760043561040b816103dd565b60115460405163188c824d60e11b81526001600160a01b0392916020908290600490829087165afa801561048d5761045b936104529260009261045d575b50163314613c23565b60243590613c95565b005b61047f91925060203d8111610486575b6104778183610b1e565b810190613122565b9038610449565b503d61046d565b613137565b6001600160e01b03198116036103d857565b346103d85760203660031901126103d85760206004356104c381610492565b63ffffffff60e01b16637c97ded960e11b8114908115610533575b81156104f0575b506040519015158152f35b6301ffc9a760e01b811491508115610522575b8115610511575b50386104e5565b635b5e139f60e01b1490503861050a565b6380ac58cd60e01b81149150610503565b63152a902d60e11b811491506104de565b60005b8381106105575750506000910152565b8181015183820152602001610547565b9060209161058081518092818552858086019101610544565b601f01601f1916010190565b90602061059d928181520190610567565b90565b346103d8576000806003193601126106945760405190806000805160206148e8833981519152908154906105d382610a93565b80865292600192808416908115610667575060011461060d575b610609866105fd81880382610b1e565b6040519182918261058c565b0390f35b815292507f933ecf8acb7824b680a8d16f3ff3db8864228d986aa4c2ebab1eeb2703b4beb35b82841061064f5750505081016020016105fd82610609386105ed565b80546020858701810191909152909301928101610633565b9050869550610609969350602092506105fd94915060ff191682840152151560051b8201019293386105ed565b80fd5b346103d85760203660031901126103d8576004356106b481614069565b156106e6576000526000805160206148c8833981519152602052602060018060a01b0360406000205416604051908152f35b6333d1c03960e21b60005260046000fd5b60403660031901126103d85760043561070f816103dd565b6001600160a01b03906024359082610726836145bb565b16803303610787575b6000938385526000805160206148c883398151915260205260408520921691826001600160601b0360a01b8254161790557f8c5be1e5ebec7d5bd14f71427d1e84f3dd0314c0f7b2291e5b200ac8c7c3b9258480a480f35b60ff6107ad33610796846121ec565b9060018060a01b0316600052602052604060002090565b541661072f576367d9dca160e11b60005260046000fd5b9181601f840112156103d8578235916001600160401b0383116103d857602083818601950101116103d857565b346103d85760803660031901126103d85761080d6004356103dd565b6108186024356103dd565b6064356001600160401b0381116103d8576108379036906004016107c4565b5050604051630a85bd0160e11b8152602090f35b346103d85760203660031901126103d857600435610868816103dd565b60018060a01b03166000526002602052604060002060405161088981610ae3565b60ff825416151580825260a06001840154938460208501526002810154938460408201526003820154908160608201526005600484015493846080840152015493849101528361090a575b6106099394604051968796879260a094919796959260c08501981515855260208501526040840152606083015260808201520152565b80831093506108d4565b346103d85760003660031901126103d85760206000196000805160206148888339815191525401604051908152f35b346103d8576040806003193601126103d85760043590610962826103dd565b6024359161096e6127da565b610976613276565b610994600260175461098c600482161515613921565b161515613357565b61099f831515613966565b610a1483610a0f6000196000805160206148888339815191526109d26109c88584845401613269565b60085410156139a9565b6109e56109dd61388c565b8511156139f5565b6109fe6109f485601454613269565b6012541015613a4f565b610a088487614748565b540161323d565b61341c565b916001600160a01b039091169060005b848110610a4957610a3f610a3a86601454613269565b601455565b61045b6001600055565b80837f3b782080656380c62378fe492892b8dcb9c50affce49759e169b8c7e5ef270e7610a8a610a7b60019589613269565b86519081529081906020820190565b0390a201610a24565b90600182811c92168015610ac3575b6020831014610aad57565b634e487b7160e01b600052602260045260246000fd5b91607f1691610aa2565b634e487b7160e01b600052604160045260246000fd5b60c081019081106001600160401b03821117610afe57604052565b610acd565b602081019081106001600160401b03821117610afe57604052565b90601f801991011681019081106001600160401b03821117610afe57604052565b6040519060008260045491610b5383610a93565b80835292600190818116908115610bdb5750600114610b7c575b50610b7a92500383610b1e565b565b6004600090815291507f8a35acfbc15ff81a39ae7d344fd709f28e8600b4aa8c65c6b64bfe7fe36bd19b5b848310610bc05750610b7a935050810160200138610b6d565b81935090816020925483858a01015201910190918592610ba7565b905060209250610b7a94915060ff191682840152151560051b82010138610b6d565b6040519060008260035491610c1183610a93565b80835292600190818116908115610bdb5750600114610c375750610b7a92500383610b1e565b6003600090815291506000805160206148688339815191525b848310610c695750610b7a935050810160200138610b6d565b81935090816020925483858a01015201910190918592610c50565b346103d85760003660031901126103d857610609610ca0610b3f565b604051918291602083526020830190610567565b346103d85760003660031901126103d8576020600c54604051908152f35b60609060031901126103d857600435610cea816103dd565b90602435610cf7816103dd565b9060443590565b610d0736610cd2565b9091610d12826145bb565b6001600160a01b0391821693909190818316859003610e445760008481526000805160206148c8833981519152602052604090208054610d656001600160a01b03881633908114908314171590565b1590565b610e1f575b610e15575b50610d7985612225565b8054600019019055610d8a81612225565b8054600101905516928391600160e11b4260a01b84178117610dab8661458c565b55811615610dd4575b50600080516020614908833981519152600080a415610dcf57005b614835565b60018401610de18161458c565b5415610dee575b50610db4565b600080516020614888833981519152548114610de857610e0d9061458c565b553880610de8565b6000905538610d6f565b610e39610d61610e32336107968b6121ec565b5460ff1690565b15610d6a575b614824565b614814565b346103d85760003660031901126103d8576020601654604051908152f35b346103d85760403660031901126103d857604060018060a01b03600a5416612710610e96600954602435613324565b0482519182526020820152f35b346103d8576040806003193601126103d857600435610ec1816103dd565b602435610ecc613276565b336000908152600b60205260409020610ee7905415156131a0565b8015610f9d5760008051602061488883398151915254600854600019808301928490610f148486106131db565b010111610f8c57610f3090610f2b83859495614748565b61323d565b926001600160a01b039091169060005b838110610f515761045b6001600055565b80837f3b782080656380c62378fe492892b8dcb9c50affce49759e169b8c7e5ef270e7610f83610a7b6001958a613269565b0390a201610f40565b835163c30436e960e01b8152600490fd5b825163f4f5b73360e01b8152600490fd5b346103d85760403660031901126103d857602435600435610fce826103dd565b610fd66127da565b612710811161100457600955600a80546001600160a01b0319166001600160a01b0392909216919091179055005b60405162461bcd60e51b815260206004820152601a60248201527f526f79616c74792063616e6e6f742065786365656420313030250000000000006044820152606490fd5b61105236610cd2565b9160405161105f81610b03565b60009384825261106e816145bb565b6001600160a01b0384811691808216839003610e44578391886110ab846000526000805160206148c8833981519152602052604060002090815490565b6110c46001600160a01b03881633908114908314171590565b61119e575b611196575b50506110d984612225565b80546000190190556110ea88612225565b805460010190558716928391600160e11b4260a01b8417811761110c8661458c565b55811615611155575b506000805160206149088339815191528980a415610dcf57833b611137578480f35b61114493610d619361468f565b61115057388080808480f35b614846565b600184016111628161458c565b541561116f575b50611115565b6000805160206148888339815191525481146111695761118e9061458c565b553880611169565b5588386110ce565b915093506111b5610d61610e3233610796896121ec565b610e3f5785938a916110c9565b346103d85760003660031901126103d857600a546040516001600160a01b039091168152602090f35b346103d85760003660031901126103d85760206001601754161515604051908152f35b60405190608082018281106001600160401b03821117610afe57604052565b60405190610b7a82610ae3565b6001600160401b038111610afe57601f01601f191660200190565b9291926112618261123a565b9161126f6040519384610b1e565b8294818452818301116103d8578281602093846000960137010152565b346103d8576020806003193601126103d8576001600160401b036004358181116103d857366023820112156103d8576112cf903690602481600401359101611255565b916112d86127da565b8251918211610afe576112f5826112f0600354610a93565b6128ad565b80601f831160011461136257509181611352927f6741b2fc379fad678116fe3d4d4b9a1a184ab53ba36b86ad0fa66340b1ab41ad94600091611357575b508160011b916000199060031b1c1916176003556040519182918261058c565b0390a1005b905082015138611332565b600360005290601f198316600080516020614868833981519152926000905b8282106113e2575050927f6741b2fc379fad678116fe3d4d4b9a1a184ab53ba36b86ad0fa66340b1ab41ad94926001928261135296106113c9575b5050811b016003556105fd565b84015160001960f88460031b161c1916905538806113bc565b80600185968294968a01518155019501930190611381565b346103d85760203660031901126103d85760206001600160a01b036114206004356145bb565b16604051908152f35b346103d85760003660031901126103d85760206103d061388c565b346103d85760403660031901126103d857600435611461816103dd565b60115460405163188c824d60e11b81526001600160a01b0392916020908290600490829087165afa801561048d5761045b936114a8926000926114b1575b50163314613143565b60243590614274565b6114ca91925060203d8111610486576104778183610b1e565b903861149f565b346103d85760203660031901126103d8576004356114ee816103dd565b6001600160a01b0381161561151a576001600160401b03611510602092612225565b5416604051908152f35b6323d3ad8160e21b60005260046000fd5b346103d857600080600319360112610694576115456127da565b600180546001600160a01b0319811690915581906001600160a01b03167f8be0079c531659141344cd1fd0a4f28419497f9722a3daafe3b4186f6b6457e08280a380f35b346103d85760003660031901126103d857600c54601754600090600216156116265750601254905b600854918082018083116116215783106115e557610a0f6115d5926106099461341c565b6040519081529081906020820190565b60405162461bcd60e51b8152602060048201526014602482015273496e76616c696420737570706c7920737461746560601b6044820152606490fd5b613227565b906115b1565b346103d85760003660031901126103d8576020601554604051908152f35b346103d85760003660031901126103d8576020600954604051908152f35b346103d85760003660031901126103d8576001546040516001600160a01b039091168152602090f35b346103d85760003660031901126103d85760206004601754161515604051908152f35b346103d85760003660031901126103d85760206002601754161515604051908152f35b346103d85760603660031901126103d8577f7e2a3374677a327cc55645e34396200e1c47056393c1e5dfa3e1f7a40384a33a60243560043561135260443561171d6127da565b61179a8461179561179082601754611738600482161561351f565b61174c60026013549261098c84151561356b565b61177c611774601254926101f484106000146118045761176f60028610156136c4565b61324b565b8a101561371b565b61178b62093a80881015613780565b613269565b61340d565b613337565b906117d36117a661120e565b8581526020810187905260408101839052606001839052600d859055600e869055600f8290556010839055565b6117e1600460175417601755565b604051948594859094939260609260808301968352602083015260408201520152565b6103e884101561181b5761176f600486101561366a565b6107d08410156118325761176f600886101561360f565b61176f60088610156135b7565b346103d8576000806003193601126106945760405190806000805160206148a88339815191529081549061187282610a93565b80865292600192808416908115610667575060011461189b57610609866105fd81880382610b1e565b815292507f617167b76dcc8247761fd21f427ad8ec3be6b3be203aed34e3aac08b4d31817c5b8284106118dd5750505081016020016105fd82610609386105ed565b805460208587018101919091529093019281016118c1565b346103d85760403660031901126103d857600435611912816103dd565b60243590811515918281036103d8576119439061193283610796336121ec565b9060ff801983541691151516179055565b6040519182526001600160a01b03169033907f17307eab39ab6107e8899845ad3d59bd9653f200f220920489ca2b5937696c3190602090a3005b6003111561198757565b634e487b7160e01b600052602160045260246000fd5b346103d85760003660031901126103d85760ff600654166040516003821015611987576020918152f35b346103d85760003660031901126103d8576020601254604051908152f35b346103d857600080600319360112610694576119ff6127da565b611a0e60016017541615612f85565b60065460ff16611a1d8161197d565b60028103611a695750611a34600754421015612fd1565b611a42600160175417601755565b7f4884a1e8d033385ee80fa3d769d1ba3c44e18291db0f726e436a01997d3df36a8180a180f35b611a728161197d565b611a345760405162461bcd60e51b815260206004820152603e60248201527f496e7374616e742072657665616c20636f6c6c656374696f6e7320646f206e6f60448201527f74206e65656420746f206265206d616e75616c6c792072657665616c656400006064820152608490fd5b346103d85760203660031901126103d857600435611afd6127da565b600260175416611b7557611b2d611b2682611b1e6014611b329511156132cc565b600854613324565b6064900490565b601255565b611b40600260175417601755565b6012546040519081527f4f0ee8dede1f88eebce079d082b265aea42f0e2dd279124103655875097f43f4908060208101611352565b60405162461bcd60e51b815260206004820152602360248201527f43726561746f7220616c6c6f636174696f6e20616c7265616479206465636c616044820152621c995960ea1b6064820152608490fd5b346103d85760003660031901126103d8576011546040516001600160a01b039091168152602090f35b346103d85760203660031901126103d857600435611c0b6127da565b611c1b6002601754161515613357565b80151580611d21575b611c2d906133b5565b6014546012549080820382811161162157818314611cca57611c76611b267fd1f265823deafe8beac32429d528ba3d6f44b4c066c5935685cc34bde411795795611c8393613324565b8093610a0f821515613429565b90611c8d82601255565b600460175416611cb2575b506040805191825260208201929092529081908101611352565b611cbf611cc4918361341c565b613488565b38611c98565b60405162461bcd60e51b815260206004820152602960248201527f4e6f2072656d61696e696e672063726561746f7220616c6c6f636174696f6e20604482015268746f2072656475636560b81b6064820152608490fd5b506064811115611c24565b346103d85760803660031901126103d857600435611d49816103dd565b606435604435602435611d5a6127da565b6001600160a01b038416938415611e43577f70f501bd2f3c55f153861010e5184d8493b7b83ce7c4cb72fcc70fd07c1a240a93611e21611e3e92611d9f85151561408e565b611daa8315156140e4565b611dd4611dcf610d61610e328460018060a01b03166000526002602052604060002090565b61413c565b611e1c611ddf61122d565b600181529186602084015287604084015284606084015260006080840152600060a084015260018060a01b03166000526002602052604060002090565b61417f565b604051938493846040919493926060820195825260208201520152565b0390a2005b60405162461bcd60e51b8152602060048201526013602482015272496e76616c6964204b4f4c206164647265737360681b6044820152606490fd5b60803660031901126103d857600435611e96816103dd565b60243590611ea3826103dd565b6044356064356001600160401b0381116103d857366023820112156103d857611ed6903690602481600401359101611255565b90611ee0816145bb565b6001600160a01b0384811691808216839003610e44578391611f1c836000526000805160206148c8833981519152602052604060002090815490565b611f356001600160a01b03871633908114908314171590565b612004575b611ffa575b50611f4984612225565b8054600019019055611f5a88612225565b805460010190558716928391600160e11b4260a01b84178117611f7c8661458c565b55811615611fb9575b50600080516020614908833981519152600080a415610dcf57833b611fa657005b611fb393610d619361468f565b61115057005b60018401611fc68161458c565b5415611fd3575b50611f85565b600080516020614888833981519152548114611fcd57611ff29061458c565b553880611fcd565b6000905538611f3f565b9350612019610d61610e3233610796896121ec565b610e3f578593611f3a565b346103d85760003660031901126103d8576020600754604051908152f35b346103d85760203660031901126103d85760043561205f816103dd565b6001600160a01b0316338114806120c6575b61207a906131a0565b80600052600b6020527ffa7ff84d4eb7d84d088489adf98dd5160bce4e75f6d0acd06e70a89654bb7d7f611e3e60406000206000815491556115d56120c182600c5461341c565b600c55565b506000818152600b60205260409020541515612071565b346103d85760203660031901126103d857610609610ca0600435613e2a565b346103d85760008060031936011261069457604051908060055461211f81610a93565b808552916001918083169081156121a45750600114612149575b610609856105fd81870382610b1e565b9250600583527f036b6384b5eca791c62761152d0c79bb0604c104a5fb6f4eb0703f3154bb3db05b82841061218c5750505081016020016105fd82610609612139565b80546020858701810191909152909301928101612171565b869550610609969350602092506105fd94915060ff191682840152151560051b8201019293612139565b346103d85760003660031901126103d8576020600854604051908152f35b6001600160a01b031660009081527f2569078dfb4b0305704d3008e7403993ae9601b85f7ae5e742de3de8f8011c476020526040902090565b6001600160a01b031660009081527f2569078dfb4b0305704d3008e7403993ae9601b85f7ae5e742de3de8f8011c456020526040902090565b346103d85760203660031901126103d85760043561227b816103dd565b60018060a01b0316600052600b6020526020604060002054604051908152f35b346103d85760003660031901126103d8576020601354604051908152f35b346103d85760003660031901126103d8576020601454604051908152f35b346103d8576003196060368201126103d8576001600160401b03906004358281116103d85761230a9036906004016107c4565b916024358481116103d8576123239036906004016107c4565b916044359586116103d8576101409086360301126103d857600080516020614928833981519152549360ff8560081c1694856000146124275750303b155b156123bc5761237b9415958661239b575b60040193612d9a565b61238157005b600080516020614928833981519152805461ff0019169055005b600080516020614928833981519152805461ffff1916610101179055612372565b60405162461bcd60e51b815260206004820152603760248201527f455243373231415f5f496e697469616c697a61626c653a20636f6e747261637460448201527f20697320616c726561647920696e697469616c697a65640000000000000000006064820152608490fd5b60ff1615612361565b346103d85760403660031901126103d857602060ff612469600435612454816103dd565b61079660243591612464836103dd565b6121ec565b54166040519015158152f35b346103d85760203660031901126103d857600435612492816103dd565b61249a6127da565b6001600160a01b038116156124b25761045b90612832565b60405162461bcd60e51b815260206004820152602660248201527f4f776e61626c653a206e6577206f776e657220697320746865207a65726f206160448201526564647265737360d01b6064820152608490fd5b346103d85760203660031901126103d8577fbba296472f2135056aa4038d0d43f8b8dd1ff674c970ca244557fda3bf2bdead6004356125436127da565b801515806126a2575b612555906133b5565b6125c16125b96125af601254936002601754166125e5575b6125a3611b2660085492612593600c5498612589868b10613b0d565b610a0f8a8761341c565b61259e811515613b59565b613324565b90610a0f821515613429565b9260125490613269565b821015613bb1565b6125ca81600855565b60125460408051928352602083019190915281908101611352565b6014546125f2818761341c565b9081612600575b505061256d565b61266290611b2d6126596126126137ea565b94600084871115612694575061265361263561262e868961341c565b809361341c565b9161264d612646611b268b86613324565b9187613269565b9261341c565b90613269565b91821015613a9b565b61266b81601555565b61267442601655565b600460175416612685575b806125f9565b61268e90613d2f565b3861267f565b61263561265391809361341c565b50606481111561254c565b346103d85760203660031901126103d8576004356126ca816103dd565b60018060a01b03166000526002602052604060002060ff81541661060960018301549260028101549060038101546005600483015492015492604051968796879260a094919796959260c08501981515855260208501526040840152606083015260808201520152565b346103d85760003660031901126103d857600d54600e54600f54601054604080519485526020850193909352918301526060820152608090f35b346103d85760203660031901126103d85760043561278b816103dd565b6127936127da565b6001600160a01b03166000818152600260205260408120805460ff19169055907ffeb031b2d93541150a8571bc111b4dab4d98dfef15bcbe6e89653e385a5d980a8280a280f35b6001546001600160a01b031633036127ee57565b606460405162461bcd60e51b815260206004820152602060248201527f4f776e61626c653a2063616c6c6572206973206e6f7420746865206f776e65726044820152fd5b600180546001600160a01b039283166001600160a01b0319821681179092559091167f8be0079c531659141344cd1fd0a4f28419497f9722a3daafe3b4186f6b6457e0600080a3565b903590601e19813603018212156103d857018035906001600160401b0382116103d8576020019181360383136103d857565b601f81116128b9575050565b60009060038252600080516020614868833981519152906020601f850160051c83019410612902575b601f0160051c01915b8281106128f757505050565b8181556001016128eb565b90925082906128e2565b601f8111612918575050565b6000906000805160206148e883398151915282527f933ecf8acb7824b680a8d16f3ff3db8864228d986aa4c2ebab1eeb2703b4beb3906020601f850160051c83019410612980575b601f0160051c01915b82811061297557505050565b818155600101612969565b9092508290612960565b601f8111612996575050565b600090600582527f036b6384b5eca791c62761152d0c79bb0604c104a5fb6f4eb0703f3154bb3db0906020601f850160051c830194106129f1575b601f0160051c01915b8281106129e657505050565b8181556001016129da565b90925082906129d1565b601f8111612a07575050565b600090600482527f8a35acfbc15ff81a39ae7d344fd709f28e8600b4aa8c65c6b64bfe7fe36bd19b906020601f850160051c83019410612a62575b601f0160051c01915b828110612a5757505050565b818155600101612a4b565b9092508290612a42565b601f8111612a78575050565b6000906000805160206148a883398151915282527f617167b76dcc8247761fd21f427ad8ec3be6b3be203aed34e3aac08b4d31817c906020601f850160051c83019410612ae0575b601f0160051c01915b828110612ad557505050565b818155600101612ac9565b9092508290612ac0565b91906001600160401b038111610afe57612b09816112f0600354610a93565b6000601f8211600114612b4357819293600092612b38575b50508160011b916000199060031b1c191617600355565b013590503880612b21565b6003600052601f1982169360008051602061486883398151915291805b868110612b985750836001959610612b7e575b505050811b01600355565b0135600019600384901b60f8161c19169055388080612b73565b90926020600181928686013581550194019101612b60565b91906001600160401b038111610afe57612bd481612bcf600554610a93565b61298a565b6000601f8211600114612c0e57819293600092612c03575b50508160011b916000199060031b1c191617600555565b013590503880612bec565b6005600052601f198216937f036b6384b5eca791c62761152d0c79bb0604c104a5fb6f4eb0703f3154bb3db091805b868110612c755750836001959610612c5b575b505050811b01600555565b0135600019600384901b60f8161c19169055388080612c50565b90926020600181928686013581550194019101612c3d565b91906001600160401b038111610afe57612cb181612cac600454610a93565b6129fb565b6000601f8211600114612ceb57819293600092612ce0575b50508160011b916000199060031b1c191617600455565b013590503880612cc9565b6004600052601f198216937f8a35acfbc15ff81a39ae7d344fd709f28e8600b4aa8c65c6b64bfe7fe36bd19b91805b868110612d525750836001959610612d38575b505050811b01600455565b0135600019600384901b60f8161c19169055388080612d2d565b90926020600181928686013581550194019101612d1a565b3561059d816103dd565b3560038110156103d85790565b60038110156119875760ff801960065416911617600655565b9092916001600160a01b037f000000000000000000000000000000000000000000000000000000000000000081163303612f73576001546001600160a01b031616612f6257600854612f5057612ea8612eb092612eb695612e07612e0160e08a018a61287b565b90612aea565b612e1e612e186101208a018a61287b565b90612bb0565b612e4a612e2d60208a01612d6a565b60018060a01b03166001600160601b0360a01b6011541617601155565b612e5b612e5689612d6a565b612832565b612e686060890135600955565b612e94612e7760408a01612d6a565b60018060a01b03166001600160601b0360a01b600a541617600a55565b612ea16080890135600855565b3691611255565b923691611255565b90614439565b612ebf42601355565b60a08101612ed4612ecf82612d74565b612d81565b612edd81612d74565b612ee68161197d565b612efa575050610b7a600160175417601755565b612f1c600291612f17612f1161010086018661287b565b90612c8d565b612d74565b612f258161197d565b14612f2d5750565b60c0013542811115612f3e57600755565b60405163cc447d1560e01b8152600490fd5b6040516348aa010560e11b8152600490fd5b60405162dc149f60e41b8152600490fd5b604051630636a15760e11b8152600490fd5b15612f8c57565b60405162461bcd60e51b815260206004820152601e60248201527f436f6c6c656374696f6e20697320616c72656164792072657665616c656400006044820152606490fd5b15612fd857565b60405162461bcd60e51b815260206004820152601e60248201527f52657665616c2074696d6520686173206e6f74207965742070617373656400006044820152606490fd5b9081516001600160401b038111610afe576000805160206148a8833981519152906130518161304c8454610a93565b612a6c565b602080601f831160011461308d575081929394600092613082575b50508160011b916000199060031b1c1916179055565b01519050388061306c565b90601f198316956130cd6000805160206148a88339815191526000527f617167b76dcc8247761fd21f427ad8ec3be6b3be203aed34e3aac08b4d31817c90565b926000905b88821061310a575050836001959697106130f1575b505050811b019055565b015160001960f88460031b161c191690553880806130e7565b806001859682949686015181550195019301906130d2565b908160209103126103d8575161059d816103dd565b6040513d6000823e3d90fd5b1561314a57565b60405162461bcd60e51b815260206004820152602860248201527f4f6e6c7920506f6f6c4465706c6f7965722063616e2063616c6c207468697320604482015267333ab731ba34b7b760c11b6064820152608490fd5b156131a757565b60405162461bcd60e51b815260206004820152600c60248201526b155b985d5d1a1bdc9a5e995960a21b6044820152606490fd5b156131e257565b60405162461bcd60e51b815260206004820152601b60248201527f4e6f20737570706c7920617661696c61626c6520746f206d696e7400000000006044820152606490fd5b634e487b7160e01b600052601160045260246000fd5b600101908160011161162157565b9062093a80820180921161162157565b906001820180921161162157565b9190820180921161162157565b600260005414613287576002600055565b60405162461bcd60e51b815260206004820152601f60248201527f5265656e7472616e637947756172643a207265656e7472616e742063616c6c006044820152606490fd5b156132d357565b60405162461bcd60e51b8152602060048201526024808201527f43726561746f7220616c6c6f636174696f6e2063616e6e6f74206578636565646044820152632032302560e01b6064820152608490fd5b8181029291811591840414171561162157565b8115613341570490565b634e487b7160e01b600052601260045260246000fd5b1561335e57565b60405162461bcd60e51b815260206004820152602960248201527f43726561746f7220616c6c6f636174696f6e206d757374206265206465636c616044820152681c995908199a5c9cdd60ba1b6064820152608490fd5b156133bc57565b60405162461bcd60e51b8152602060048201526024808201527f50657263656e74616765206d757374206265206265747765656e203120616e646044820152630203130360e41b6064820152608490fd5b60001981019190821161162157565b9190820391821161162157565b1561343057565b60405162461bcd60e51b815260206004820152602a60248201527f526564756374696f6e20616d6f756e74206d7573742062652067726561746572604482015269207468616e207a65726f60b01b6064820152608490fd5b801561351757600e54600d5490600f54916134a38383613324565b81018082116116215742106134c05750505050610b7a6000601055565b6134d89281421060001461350457505060009061341c565b9081156134f85781611795611790610b7a946134f394613269565b601055565b5050610b7a6000601055565b611795613511924261341c565b9061341c565b506000601055565b1561352657565b60405162461bcd60e51b815260206004820152601a60248201527f56657374696e6720616c726561647920636f6e666967757265640000000000006044820152606490fd5b1561357257565b60405162461bcd60e51b815260206004820152601a60248201527f436f6c6c656374696f6e206e6f7420696e697469616c697a65640000000000006044820152606490fd5b156135be57565b60405162461bcd60e51b815260206004820152602360248201527f4d696e203820756e6c6f636b7320666f7220616c6c6f636174696f6e203e203260448201526203030360ec1b6064820152608490fd5b1561361657565b60405162461bcd60e51b815260206004820152602660248201527f4d696e203820756e6c6f636b7320666f7220616c6c6f636174696f6e203130306044820152650302d323030360d41b6064820152608490fd5b1561367157565b60405162461bcd60e51b815260206004820152602560248201527f4d696e203420756e6c6f636b7320666f7220616c6c6f636174696f6e2035303060448201526402d313030360dc1b6064820152608490fd5b156136cb57565b60405162461bcd60e51b815260206004820152602260248201527f4d696e203220756e6c6f636b7320666f7220616c6c6f636174696f6e203c2035604482015261030360f41b6064820152608490fd5b1561372257565b60405162461bcd60e51b815260206004820152603060248201527f436c696666206d757374206e6f74206265206c657373207468616e203720646160448201526f3cb990333937b69031b932b0ba34b7b760811b6064820152608490fd5b1561378757565b60405162461bcd60e51b815260206004820152603560248201527f4475726174696f6e206265747765656e20756e6c6f636b73206d757374206e6f60448201527474206265206c657373207468616e2037206461797360581b6064820152608490fd5b6004601754161561382a57600d54421061382a5760165461380d5761059d61382f565b61381561382f565b6015549081811015613825575090565b905090565b600090565b600d54420342811161162157600f5461384791613337565b6001810180911161162157600e54808211613884575b810361386a575060125490565b61387690601054613324565b601254808211613825575090565b90508061385d565b6004601754161561382a5761389f6137ea565b6014548082111561391a578082106138bd5781039081116116215790565b60405162461bcd60e51b815260206004820152602f60248201527f41726974686d6574696320756e646572666c6f7720696e20676574417661696c60448201526e18589b1950dc99585d1bdc935a5b9d608a1b6064820152608490fd5b5050600090565b1561392857565b60405162461bcd60e51b815260206004820152601660248201527515995cdd1a5b99c81b9bdd0818dbdb999a59dd5c995960521b6044820152606490fd5b1561396d57565b60405162461bcd60e51b815260206004820152601460248201527305175616e74697479206d757374206265203e20360641b6044820152606490fd5b156139b057565b60405162461bcd60e51b815260206004820152601f60248201527f4d696e74696e6720776f756c6420657863656564206d617820737570706c79006044820152606490fd5b156139fc57565b60405162461bcd60e51b815260206004820152602560248201527f4578636565647320617661696c61626c6520756e6c6f636b656420616c6c6f6360448201526430ba34b7b760d91b6064820152608490fd5b15613a5657565b60405162461bcd60e51b815260206004820152601a60248201527f457863656564732063726561746f7220616c6c6f636174696f6e0000000000006044820152606490fd5b15613aa257565b60405162461bcd60e51b815260206004820152603960248201527f4e65772063726561746f7220616c6c6f636174696f6e2063616e6e6f7420626560448201527f206c657373207468616e20636c61696d656420616d6f756e74000000000000006064820152608490fd5b15613b1457565b60405162461bcd60e51b815260206004820152601860248201527f4e6f20737570706c79206c65667420746f2072656475636500000000000000006044820152606490fd5b15613b6057565b60405162461bcd60e51b8152602060048201526024808201527f4e6f20756e616c6c6f636174656420737570706c79206c65667420746f2072656044820152636475636560e01b6064820152608490fd5b15613bb857565b60405162461bcd60e51b815260206004820152603c60248201527f4e6577206d617820737570706c792063616e6e6f74206265206c65737320746860448201527f616e206d696e746564202b20616c6c6f636174656420737570706c79000000006064820152608490fd5b15613c2a57565b60405162461bcd60e51b815260206004820152603860248201527f4f6e6c79207468652070726f746f636f6c277320506f6f6c4465706c6f79657260448201527f2063616e2063616c6c20746869732066756e6374696f6e2e00000000000000006064820152608490fd5b6001600160a01b0316908115613cf35781600052600b60205280604060002055600c54818101809111611621577f1ac3d1a84101f14877bbfafdcfd3b761954b8bb27df1f672b50d7e11d48d880c91602091600c55604051908152a2565b60405162461bcd60e51b8152602060048201526014602482015273496e76616c696420706f6f6c206164647265737360601b6044820152606490fd5b600d54804210600014613dbe5750600e54905b81613d9f575050613d536000601055565b600d54600e54600f546010546040805194855260208501939093529183015260608201527f7e2a3374677a327cc55645e34396200e1c47056393c1e5dfa3e1f7a40384a33a90608090a1565b81611795611790613db99461178b6134f39560125461341c565b613d53565b613dd7613dce613ddc924261341c565b600f5490613337565b61325b565b600e5490818110613df1575050600090613d42565b613dfa9161341c565b90613d42565b60405190613e0d82610b03565b60008252565b90613e2660209282815194859201610544565b0190565b613e3381614069565b15613e9f5760175460011615613e9657613e4b610bfd565b805190919015613e8c57613e7891613e7e613e6861059d93613f26565b6040519485936020850190613e13565b90613e13565b03601f198101835282610b1e565b505061059d613e00565b5061059d610b3f565b60405162461bcd60e51b815260206004820152602760248201527f4552433732313a2055524920717565727920666f72206e6f6e6578697374656e6044820152663a103a37b5b2b760c91b6064820152608490fd5b90613efe8261123a565b613f0b6040519182610b1e565b8281528092613f1c601f199161123a565b0190602036910137565b806000917a184f03e93ff9f4daa797ed6e38ed64bf6a1f0100000000000000008082101561405b575b506d04ee2d6d415b85acef81000000008083101561404c575b50662386f26fc100008083101561403d575b506305f5e1008083101561402e575b506127108083101561401f575b50606482101561400f575b600a80921015614005575b600190816021613fbd828701613ef4565b95860101905b613fcf575b5050505090565b600019019083906f181899199a1a9b1b9c1cb0b131b232b360811b8282061a83530491821561400057919082613fc3565b613fc8565b9160010191613fac565b9190606460029104910191613fa1565b60049193920491019138613f96565b60089193920491019138613f89565b60109193920491019138613f7a565b60209193920491019138613f68565b604093508104915038613f4f565b60018110159081614078575090565b9050600080516020614888833981519152541190565b1561409557565b60405162461bcd60e51b815260206004820152602160248201527f506f6f6c206c696d6974206d7573742062652067726561746572207468616e206044820152600360fc1b6064820152608490fd5b156140eb57565b60405162461bcd60e51b815260206004820152602360248201527f57696e6e6572206c696d6974206d75737420626520677265617465722074686160448201526206e20360ec1b6064820152608490fd5b1561414357565b60405162461bcd60e51b815260206004820152601460248201527312d3d308185b1c9958591e48185c1c1c9bdd995960621b6044820152606490fd5b9060a060059161419e81511515859060ff801983541691151516179055565b602081015160018501556040810151600285015560608101516003850155608081015160048501550151910155565b156141d457565b60405162461bcd60e51b815260206004820152601760248201527f4b4f4c20706f6f6c206c696d69742065786365656465640000000000000000006044820152606490fd5b1561422057565b60405162461bcd60e51b815260206004820152601960248201527f4b4f4c2077696e6e6572206c696d6974206578636565646564000000000000006044820152606490fd5b60001981146116215760010190565b9060ff6142938360018060a01b03166000526002602052604060002090565b541615614398576001600160a01b038216600090815260026020526040902060048101546001909101546142c791106141cd565b6143166142f38260056142ec8660018060a01b03166000526002602052604060002090565b0154613269565b6001600160a01b0384166000908152600260205260409020600301541015614219565b6001600160a01b038216600090815260026020526040902060040161433b8154614265565b90556001600160a01b038216600090815260026020526040902061436490600501918254613269565b905533906001600160a01b03167f5b7945a09273a36deae169b61c3f2f6e50c1a2030374353d76346822ae48f674600080a3565b60405162461bcd60e51b815260206004820152601060248201526f12d3d3081b9bdd08185c1c1c9bdd995960821b6044820152606490fd5b156143d757565b60405162461bcd60e51b815260206004820152603460248201527f455243373231415f5f496e697469616c697a61626c653a20636f6e7472616374604482015273206973206e6f7420696e697469616c697a696e6760601b6064820152608490fd5b919061446260ff6000805160206149288339815191525460081c1661445d816143d0565b6143d0565b82516001600160401b038111610afe576000805160206148e883398151915290614495816144908454610a93565b61290c565b602080601f83116001146144ee575081906144cc95966000926144e3575b50508160011b916000199060031b1c191617905561301d565b610b7a600160008051602061488883398151915255565b0151905038806144b3565b90601f1983169661452e6000805160206148e88339815191526000527f933ecf8acb7824b680a8d16f3ff3db8864228d986aa4c2ebab1eeb2703b4beb390565b926000905b898210614574575050908392916001946144cc98991061455b575b505050811b01905561301d565b015160001960f88460031b161c1916905538808061454e565b80600185968294968601518155019501930190614533565b6000527f2569078dfb4b0305704d3008e7403993ae9601b85f7ae5e742de3de8f8011c44602052604060002090565b600190808211614639576145ce8161458c565b549182156145eb575b5050600160e01b81161561059d5780614639565b600080516020614888833981519152548210156146395790815b156145d7579091506000190161461a8161458c565b54918215614632575050600160e01b81166146395790565b9081614605565b636f96cda160e11b60005260046000fd5b908160209103126103d8575161059d81610492565b3d1561468a573d906146708261123a565b9161467e6040519384610b1e565b82523d6000602084013e565b606090565b604051630a85bd0160e11b8082523360048301526001600160a01b039283166024830152604482019490945260806064820152929360209284929091839160009183906146e0906084830190610567565b0393165af160009181614718575b5061470a576146fb61465f565b80511561115057805190602001fd5b6001600160e01b0319161490565b61473a91925060203d8111614741575b6147328183610b1e565b81019061464a565b90386146ee565b503d614728565b919060008051602061488883398151915254908015614803576001936001600160a01b0381169190614790904260a01b83881460e11b17841761478a8661458c565b55612225565b680100000000000000018202815401905581156147fe578201919380805b6147ca575b505050600080516020614888833981519152559050565b156147ed575b6000818684836000805160206149088339815191528180a46147ae565b809401938285036147d057806147b3565b614857565b63b562e8dd60e01b60005260046000fd5b62a1148160e81b60005260046000fd5b632ce44b5f60e11b60005260046000fd5b633a954ecd60e21b60005260046000fd5b6368d2bf6b60e11b60005260046000fd5b622e076360e81b60005260046000fdfec2575a0e9e593c00f959f8c92f12db2869c3395a3b0502d05e2516446f71f85b2569078dfb4b0305704d3008e7403993ae9601b85f7ae5e742de3de8f8011c402569078dfb4b0305704d3008e7403993ae9601b85f7ae5e742de3de8f8011c432569078dfb4b0305704d3008e7403993ae9601b85f7ae5e742de3de8f8011c462569078dfb4b0305704d3008e7403993ae9601b85f7ae5e742de3de8f8011c42ddf252ad1be2c89b69c2b068fc378daa952ba7f163c4a11628f55a4df523b3efee151c8401928dc223602bb187aff91b9a56c7cae5476ef1b3287b085a16c85fa2646970667358221220019c15ebff1204af52df16919fa6bdc95f7043ad483d3110d42ddb2185bb66ff64736f6c63430008130033",
  "linkReferences": {},
  "deployedLinkReferences": {}
}