{
  "_format": "hh-sol-artifact-1",
  "contractName": "ERC721Prize",
  "sourceName": "contracts/ERC721Prize.sol",
  "abi": [
    {
      "inputs": [
        {
          "internalType": "address",
          "name": "_factory",
          "type": "address"
        }
      ],
      "stateMutability": "nonpayable",
      "type": "constructor"
    },
    {
      "inputs": [],
      "name": "AlreadyInitialized",
      "type": "error"
    },
    {
      "inputs": [],
      "name": "ApprovalCallerNotOwnerNorApproved",
      "type": "error"
    },
    {
      "inputs": [],
      "name": "ApprovalQueryForNonexistentToken",
      "type": "error"
    },
    {
      "inputs": [],
      "name": "BalanceQueryForZeroAddress",
      "type": "error"
    },
    {
      "inputs": [],
      "name": "ExceedsMaxSupply",
      "type": "error"
    },
    {
      "inputs": [],
      "name": "InvalidRevealTime",
      "type": "error"
    },
    {
      "inputs": [],
      "name": "MintERC2309QuantityExceedsLimit",
      "type": "error"
    },
    {
      "inputs": [],
      "name": "MintToZeroAddress",
      "type": "error"
    },
    {
      "inputs": [],
      "name": "MintZeroQuantity",
      "type": "error"
    },
    {
      "inputs": [],
      "name": "NotCompatibleWithSpotMints",
      "type": "error"
    },
    {
      "inputs": [],
      "name": "OnlyFactory",
      "type": "error"
    },
    {
      "inputs": [],
      "name": "OwnerQueryForNonexistentToken",
      "type": "error"
    },
    {
      "inputs": [],
      "name": "OwnershipNotInitializedForExtraData",
      "type": "error"
    },
    {
      "inputs": [],
      "name": "SequentialMintExceedsLimit",
      "type": "error"
    },
    {
      "inputs": [],
      "name": "SequentialUpToTooSmall",
      "type": "error"
    },
    {
      "inputs": [],
      "name": "SpotMintTokenIdTooSmall",
      "type": "error"
    },
    {
      "inputs": [],
      "name": "SupplyAlreadySet",
      "type": "error"
    },
    {
      "inputs": [],
      "name": "TokenAlreadyExists",
      "type": "error"
    },
    {
      "inputs": [],
      "name": "TransferCallerNotOwnerNorApproved",
      "type": "error"
    },
    {
      "inputs": [],
      "name": "TransferFromIncorrectOwner",
      "type": "error"
    },
    {
      "inputs": [],
      "name": "TransferToNonERC721ReceiverImplementer",
      "type": "error"
    },
    {
      "inputs": [],
      "name": "TransferToZeroAddress",
      "type": "error"
    },
    {
      "inputs": [],
      "name": "URIQueryForNonexistentToken",
      "type": "error"
    },
    {
      "inputs": [],
      "name": "UnauthorizedMinter",
      "type": "error"
    },
    {
      "inputs": [],
      "name": "ZeroQuantity",
      "type": "error"
    },
    {
      "anonymous": false,
      "inputs": [
        {
          "indexed": true,
          "internalType": "address",
          "name": "owner",
          "type": "address"
        },
        {
          "indexed": true,
          "internalType": "address",
          "name": "approved",
          "type": "address"
        },
        {
          "indexed": true,
          "internalType": "uint256",
          "name": "tokenId",
          "type": "uint256"
        }
      ],
      "name": "Approval",
      "type": "event"
    },
    {
      "anonymous": false,
      "inputs": [
        {
          "indexed": true,
          "internalType": "address",
          "name": "owner",
          "type": "address"
        },
        {
          "indexed": true,
          "internalType": "address",
          "name": "operator",
          "type": "address"
        },
        {
          "indexed": false,
          "internalType": "bool",
          "name": "approved",
          "type": "bool"
        }
      ],
      "name": "ApprovalForAll",
      "type": "event"
    },
    {
      "anonymous": false,
      "inputs": [
        {
          "indexed": false,
          "internalType": "string",
          "name": "newBaseURI",
          "type": "string"
        }
      ],
      "name": "BaseURIUpdated",
      "type": "event"
    },
    {
      "anonymous": false,
      "inputs": [],
      "name": "CollectionRevealed",
      "type": "event"
    },
    {
      "anonymous": false,
      "inputs": [
        {
          "indexed": true,
          "internalType": "uint256",
          "name": "fromTokenId",
          "type": "uint256"
        },
        {
          "indexed": false,
          "internalType": "uint256",
          "name": "toTokenId",
          "type": "uint256"
        },
        {
          "indexed": true,
          "internalType": "address",
          "name": "from",
          "type": "address"
        },
        {
          "indexed": true,
          "internalType": "address",
          "name": "to",
          "type": "address"
        }
      ],
      "name": "ConsecutiveTransfer",
      "type": "event"
    },
    {
      "anonymous": false,
      "inputs": [
        {
          "indexed": false,
          "internalType": "uint256",
          "name": "allocation",
          "type": "uint256"
        }
      ],
      "name": "CreatorAllocationDeclared",
      "type": "event"
    },
    {
      "anonymous": false,
      "inputs": [
        {
          "indexed": false,
          "internalType": "uint256",
          "name": "newAllocation",
          "type": "uint256"
        },
        {
          "indexed": false,
          "internalType": "uint256",
          "name": "reductionAmount",
          "type": "uint256"
        }
      ],
      "name": "CreatorAllocationReduced",
      "type": "event"
    },
    {
      "anonymous": false,
      "inputs": [
        {
          "indexed": false,
          "internalType": "string",
          "name": "dropURI",
          "type": "string"
        }
      ],
      "name": "DropURISet",
      "type": "event"
    },
    {
      "anonymous": false,
      "inputs": [
        {
          "indexed": true,
          "internalType": "address",
          "name": "kol",
          "type": "address"
        },
        {
          "indexed": false,
          "internalType": "uint256",
          "name": "poolLimit",
          "type": "uint256"
        },
        {
          "indexed": false,
          "internalType": "uint256",
          "name": "enforcedSlotFee",
          "type": "uint256"
        },
        {
          "indexed": false,
          "internalType": "uint256",
          "name": "winnerLimit",
          "type": "uint256"
        }
      ],
      "name": "KOLApproved",
      "type": "event"
    },
    {
      "anonymous": false,
      "inputs": [
        {
          "indexed": true,
          "internalType": "address",
          "name": "kol",
          "type": "address"
        },
        {
          "indexed": true,
          "internalType": "address",
          "name": "pool",
          "type": "address"
        }
      ],
      "name": "KOLPoolCreated",
      "type": "event"
    },
    {
      "anonymous": false,
      "inputs": [
        {
          "indexed": true,
          "internalType": "address",
          "name": "kol",
          "type": "address"
        }
      ],
      "name": "KOLRevoked",
      "type": "event"
    },
    {
      "anonymous": false,
      "inputs": [
        {
          "indexed": true,
          "internalType": "address",
          "name": "pool",
          "type": "address"
        },
        {
          "indexed": false,
          "internalType": "uint256",
          "name": "allocation",
          "type": "uint256"
        }
      ],
      "name": "MinterAllocationRestored",
      "type": "event"
    },
    {
      "anonymous": false,
      "inputs": [
        {
          "indexed": true,
          "internalType": "address",
          "name": "pool",
          "type": "address"
        },
        {
          "indexed": false,
          "internalType": "uint256",
          "name": "allocation",
          "type": "uint256"
        }
      ],
      "name": "MinterAndAllocationSet",
      "type": "event"
    },
    {
      "anonymous": false,
      "inputs": [
        {
          "indexed": true,
          "internalType": "address",
          "name": "previousOwner",
          "type": "address"
        },
        {
          "indexed": true,
          "internalType": "address",
          "name": "newOwner",
          "type": "address"
        }
      ],
      "name": "OwnershipTransferred",
      "type": "event"
    },
    {
      "anonymous": false,
      "inputs": [
        {
          "indexed": true,
          "internalType": "address",
          "name": "winner",
          "type": "address"
        },
        {
          "indexed": false,
          "internalType": "uint256",
          "name": "tokenId",
          "type": "uint256"
        }
      ],
      "name": "PrizeMinted",
      "type": "event"
    },
    {
      "anonymous": false,
      "inputs": [
        {
          "indexed": false,
          "internalType": "uint256",
          "name": "newMaxSupply",
          "type": "uint256"
        },
        {
          "indexed": false,
          "internalType": "uint256",
          "name": "newCreatorAllocation",
          "type": "uint256"
        }
      ],
      "name": "SupplyReduced",
      "type": "event"
    },
    {
      "anonymous": false,
      "inputs": [
        {
          "indexed": true,
          "internalType": "address",
          "name": "from",
          "type": "address"
        },
        {
          "indexed": true,
          "internalType": "address",
          "name": "to",
          "type": "address"
        },
        {
          "indexed": true,
          "internalType": "uint256",
          "name": "tokenId",
          "type": "uint256"
        }
      ],
      "name": "Transfer",
      "type": "event"
    },
    {
      "anonymous": false,
      "inputs": [
        {
          "indexed": false,
          "internalType": "uint256",
          "name": "cliffEnd",
          "type": "uint256"
        },
        {
          "indexed": false,
          "internalType": "uint256",
          "name": "numberOfUnlocks",
          "type": "uint256"
        },
        {
          "indexed": false,
          "internalType": "uint256",
          "name": "durationBetweenUnlocks",
          "type": "uint256"
        },
        {
          "indexed": false,
          "internalType": "uint256",
          "name": "amountPerUnlock",
          "type": "uint256"
        }
      ],
      "name": "VestingConfigured",
      "type": "event"
    },
    {
      "inputs": [
        {
          "internalType": "address",
          "name": "",
          "type": "address"
        }
      ],
      "name": "allocatedSupply",
      "outputs": [
        {
          "internalType": "uint256",
          "name": "",
          "type": "uint256"
        }
      ],
      "stateMutability": "view",
      "type": "function"
    },
    {
      "inputs": [
        {
          "internalType": "address",
          "name": "to",
          "type": "address"
        },
        {
          "internalType": "uint256",
          "name": "tokenId",
          "type": "uint256"
        }
      ],
      "name": "approve",
      "outputs": [],
      "stateMutability": "payable",
      "type": "function"
    },
    {
      "inputs": [
        {
          "internalType": "address",
          "name": "_kol",
          "type": "address"
        },
        {
          "internalType": "uint256",
          "name": "_poolLimit",
          "type": "uint256"
        },
        {
          "internalType": "uint256",
          "name": "_enforcedSlotFee",
          "type": "uint256"
        },
        {
          "internalType": "uint256",
          "name": "_winnerLimit",
          "type": "uint256"
        }
      ],
      "name": "approveKOL",
      "outputs": [],
      "stateMutability": "nonpayable",
      "type": "function"
    },
    {
      "inputs": [],
      "name": "availableSupply",
      "outputs": [
        {
          "internalType": "uint256",
          "name": "",
          "type": "uint256"
        }
      ],
      "stateMutability": "view",
      "type": "function"
    },
    {
      "inputs": [
        {
          "internalType": "address",
          "name": "owner",
          "type": "address"
        }
      ],
      "name": "balanceOf",
      "outputs": [
        {
          "internalType": "uint256",
          "name": "",
          "type": "uint256"
        }
      ],
      "stateMutability": "view",
      "type": "function"
    },
    {
      "inputs": [
        {
          "internalType": "uint256",
          "name": "cliffEnd",
          "type": "uint256"
        },
        {
          "internalType": "uint256",
          "name": "numberOfUnlocks",
          "type": "uint256"
        },
        {
          "internalType": "uint256",
          "name": "durationBetweenUnlocks",
          "type": "uint256"
        }
      ],
      "name": "configureCreatorVesting",
      "outputs": [],
      "stateMutability": "nonpayable",
      "type": "function"
    },
    {
      "inputs": [],
      "name": "creationTime",
      "outputs": [
        {
          "internalType": "uint256",
          "name": "",
          "type": "uint256"
        }
      ],
      "stateMutability": "view",
      "type": "function"
    },
    {
      "inputs": [],
      "name": "creatorAllocation",
      "outputs": [
        {
          "internalType": "uint256",
          "name": "",
          "type": "uint256"
        }
      ],
      "stateMutability": "view",
      "type": "function"
    },
    {
      "inputs": [],
      "name": "creatorAllocationDeclared",
      "outputs": [
        {
          "internalType": "bool",
          "name": "",
          "type": "bool"
        }
      ],
      "stateMutability": "view",
      "type": "function"
    },
    {
      "inputs": [],
      "name": "creatorClaimedCount",
      "outputs": [
        {
          "internalType": "uint256",
          "name": "",
          "type": "uint256"
        }
      ],
      "stateMutability": "view",
      "type": "function"
    },
    {
      "inputs": [
        {
          "internalType": "address",
          "name": "to",
          "type": "address"
        },
        {
          "internalType": "uint256",
          "name": "quantity",
          "type": "uint256"
        }
      ],
      "name": "creatorMint",
      "outputs": [],
      "stateMutability": "nonpayable",
      "type": "function"
    },
    {
      "inputs": [
        {
          "internalType": "uint256",
          "name": "_percentage",
          "type": "uint256"
        }
      ],
      "name": "cutSupply",
      "outputs": [],
      "stateMutability": "nonpayable",
      "type": "function"
    },
    {
      "inputs": [
        {
          "internalType": "uint256",
          "name": "_percentage",
          "type": "uint256"
        }
      ],
      "name": "declareCreatorAllocation",
      "outputs": [],
      "stateMutability": "nonpayable",
      "type": "function"
    },
    {
      "inputs": [
        {
          "internalType": "uint256",
          "name": "tokenId",
          "type": "uint256"
        }
      ],
      "name": "getApproved",
      "outputs": [
        {
          "internalType": "address",
          "name": "",
          "type": "address"
        }
      ],
      "stateMutability": "view",
      "type": "function"
    },
    {
      "inputs": [],
      "name": "getAvailableCreatorMint",
      "outputs": [
        {
          "internalType": "uint256",
          "name": "",
          "type": "uint256"
        }
      ],
      "stateMutability": "view",
      "type": "function"
    },
    {
      "inputs": [
        {
          "internalType": "address",
          "name": "_kol",
          "type": "address"
        }
      ],
      "name": "getKOLApprovalDetails",
      "outputs": [
        {
          "internalType": "bool",
          "name": "approved",
          "type": "bool"
        },
        {
          "internalType": "uint256",
          "name": "poolLimit",
          "type": "uint256"
        },
        {
          "internalType": "uint256",
          "name": "enforcedSlotFee",
          "type": "uint256"
        },
        {
          "internalType": "uint256",
          "name": "winnerLimit",
          "type": "uint256"
        },
        {
          "internalType": "uint256",
          "name": "poolCount",
          "type": "uint256"
        },
        {
          "internalType": "uint256",
          "name": "winnerCount",
          "type": "uint256"
        }
      ],
      "stateMutability": "view",
      "type": "function"
    },
    {
      "inputs": [],
      "name": "getUnlockedCreatorAllocation",
      "outputs": [
        {
          "internalType": "uint256",
          "name": "",
          "type": "uint256"
        }
      ],
      "stateMutability": "view",
      "type": "function"
    },
    {
      "inputs": [
        {
          "internalType": "address",
          "name": "_kol",
          "type": "address"
        },
        {
          "internalType": "uint256",
          "name": "_winnersCount",
          "type": "uint256"
        }
      ],
      "name": "incrementKOLApprovedCounts",
      "outputs": [],
      "stateMutability": "nonpayable",
      "type": "function"
    },
    {
      "inputs": [
        {
          "internalType": "string",
          "name": "name_",
          "type": "string"
        },
        {
          "internalType": "string",
          "name": "symbol_",
          "type": "string"
        },
        {
          "components": [
            {
              "internalType": "address",
              "name": "initialOwner",
              "type": "address"
            },
            {
              "internalType": "address",
              "name": "protocolManager",
              "type": "address"
            },
            {
              "internalType": "address",
              "name": "royaltyRecipient",
              "type": "address"
            },
            {
              "internalType": "uint256",
              "name": "royaltyPercentage",
              "type": "uint256"
            },
            {
              "internalType": "uint256",
              "name": "maxSupply",
              "type": "uint256"
            },
            {
              "internalType": "enum PrizeTypes.RevealType",
              "name": "revealType",
              "type": "uint8"
            },
            {
              "internalType": "uint256",
              "name": "revealTime",
              "type": "uint256"
            },
            {
              "internalType": "string",
              "name": "baseURI",
              "type": "string"
            },
            {
              "internalType": "string",
              "name": "unrevealedURI",
              "type": "string"
            },
            {
              "internalType": "string",
              "name": "dropURI",
              "type": "string"
            }
          ],
          "internalType": "struct ERC721Prize.InitializationData",
          "name": "data",
          "type": "tuple"
        }
      ],
      "name": "initialize",
      "outputs": [],
      "stateMutability": "nonpayable",
      "type": "function"
    },
    {
      "inputs": [
        {
          "internalType": "address",
          "name": "owner",
          "type": "address"
        },
        {
          "internalType": "address",
          "name": "operator",
          "type": "address"
        }
      ],
      "name": "isApprovedForAll",
      "outputs": [
        {
          "internalType": "bool",
          "name": "",
          "type": "bool"
        }
      ],
      "stateMutability": "view",
      "type": "function"
    },
    {
      "inputs": [],
      "name": "isRevealed",
      "outputs": [
        {
          "internalType": "bool",
          "name": "",
          "type": "bool"
        }
      ],
      "stateMutability": "view",
      "type": "function"
    },
    {
      "inputs": [
        {
          "internalType": "address",
          "name": "",
          "type": "address"
        }
      ],
      "name": "kolApprovals",
      "outputs": [
        {
          "internalType": "bool",
          "name": "approved",
          "type": "bool"
        },
        {
          "internalType": "uint256",
          "name": "poolLimit",
          "type": "uint256"
        },
        {
          "internalType": "uint256",
          "name": "enforcedSlotFee",
          "type": "uint256"
        },
        {
          "internalType": "uint256",
          "name": "winnerLimit",
          "type": "uint256"
        },
        {
          "internalType": "uint256",
          "name": "poolCount",
          "type": "uint256"
        },
        {
          "internalType": "uint256",
          "name": "winnerCount",
          "type": "uint256"
        }
      ],
      "stateMutability": "view",
      "type": "function"
    },
    {
      "inputs": [],
      "name": "maxSupply",
      "outputs": [
        {
          "internalType": "uint256",
          "name": "",
          "type": "uint256"
        }
      ],
      "stateMutability": "view",
      "type": "function"
    },
    {
      "inputs": [
        {
          "internalType": "address",
          "name": "to",
          "type": "address"
        },
        {
          "internalType": "uint256",
          "name": "quantity",
          "type": "uint256"
        }
      ],
      "name": "mint",
      "outputs": [],
      "stateMutability": "nonpayable",
      "type": "function"
    },
    {
      "inputs": [],
      "name": "name",
      "outputs": [
        {
          "internalType": "string",
          "name": "",
          "type": "string"
        }
      ],
      "stateMutability": "view",
      "type": "function"
    },
    {
      "inputs": [
        {
          "internalType": "address",
          "name": "",
          "type": "address"
        },
        {
          "internalType": "address",
          "name": "",
          "type": "address"
        },
        {
          "internalType": "uint256",
          "name": "",
          "type": "uint256"
        },
        {
          "internalType": "bytes",
          "name": "",
          "type": "bytes"
        }
      ],
      "name": "onERC721Received",
      "outputs": [
        {
          "internalType": "bytes4",
          "name": "",
          "type": "bytes4"
        }
      ],
      "stateMutability": "pure",
      "type": "function"
    },
    {
      "inputs": [],
      "name": "owner",
      "outputs": [
        {
          "internalType": "address",
          "name": "",
          "type": "address"
        }
      ],
      "stateMutability": "view",
      "type": "function"
    },
    {
      "inputs": [
        {
          "internalType": "uint256",
          "name": "tokenId",
          "type": "uint256"
        }
      ],
      "name": "ownerOf",
      "outputs": [
        {
          "internalType": "address",
          "name": "",
          "type": "address"
        }
      ],
      "stateMutability": "view",
      "type": "function"
    },
    {
      "inputs": [],
      "name": "protocolManager",
      "outputs": [
        {
          "internalType": "address",
          "name": "",
          "type": "address"
        }
      ],
      "stateMutability": "view",
      "type": "function"
    },
    {
      "inputs": [
        {
          "internalType": "uint256",
          "name": "_percentage",
          "type": "uint256"
        }
      ],
      "name": "reduceCreatorAllocation",
      "outputs": [],
      "stateMutability": "nonpayable",
      "type": "function"
    },
    {
      "inputs": [],
      "name": "renounceOwnership",
      "outputs": [],
      "stateMutability": "nonpayable",
      "type": "function"
    },
    {
      "inputs": [
        {
          "internalType": "address",
          "name": "pool",
          "type": "address"
        }
      ],
      "name": "restoreMinterAllocation",
      "outputs": [],
      "stateMutability": "nonpayable",
      "type": "function"
    },
    {
      "inputs": [],
      "name": "reveal",
      "outputs": [],
      "stateMutability": "nonpayable",
      "type": "function"
    },
    {
      "inputs": [],
      "name": "revealTime",
      "outputs": [
        {
          "internalType": "uint256",
          "name": "",
          "type": "uint256"
        }
      ],
      "stateMutability": "view",
      "type": "function"
    },
    {
      "inputs": [],
      "name": "revealType",
      "outputs": [
        {
          "internalType": "enum PrizeTypes.RevealType",
          "name": "",
          "type": "uint8"
        }
      ],
      "stateMutability": "view",
      "type": "function"
    },
    {
      "inputs": [
        {
          "internalType": "address",
          "name": "_kol",
          "type": "address"
        }
      ],
      "name": "revokeKOL",
      "outputs": [],
      "stateMutability": "nonpayable",
      "type": "function"
    },
    {
      "inputs": [
        {
          "internalType": "uint256",
          "name": "",
          "type": "uint256"
        },
        {
          "internalType": "uint256",
          "name": "salePrice",
          "type": "uint256"
        }
      ],
      "name": "royaltyInfo",
      "outputs": [
        {
          "internalType": "address",
          "name": "",
          "type": "address"
        },
        {
          "internalType": "uint256",
          "name": "",
          "type": "uint256"
        }
      ],
      "stateMutability": "view",
      "type": "function"
    },
    {
      "inputs": [],
      "name": "royaltyPercentage",
      "outputs": [
        {
          "internalType": "uint256",
          "name": "",
          "type": "uint256"
        }
      ],
      "stateMutability": "view",
      "type": "function"
    },
    {
      "inputs": [],
      "name": "royaltyRecipient",
      "outputs": [
        {
          "internalType": "address",
          "name": "",
          "type": "address"
        }
      ],
      "stateMutability": "view",
      "type": "function"
    },
    {
      "inputs": [
        {
          "internalType": "address",
          "name": "from",
          "type": "address"
        },
        {
          "internalType": "address",
          "name": "to",
          "type": "address"
        },
        {
          "internalType": "uint256",
          "name": "tokenId",
          "type": "uint256"
        }
      ],
      "name": "safeTransferFrom",
      "outputs": [],
      "stateMutability": "payable",
      "type": "function"
    },
    {
      "inputs": [
        {
          "internalType": "address",
          "name": "from",
          "type": "address"
        },
        {
          "internalType": "address",
          "name": "to",
          "type": "address"
        },
        {
          "internalType": "uint256",
          "name": "tokenId",
          "type": "uint256"
        },
        {
          "internalType": "bytes",
          "name": "data",
          "type": "bytes"
        }
      ],
      "name": "safeTransferFrom",
      "outputs": [],
      "stateMutability": "payable",
      "type": "function"
    },
    {
      "inputs": [
        {
          "internalType": "address",
          "name": "operator",
          "type": "address"
        },
        {
          "internalType": "bool",
          "name": "approved",
          "type": "bool"
        }
      ],
      "name": "setApprovalForAll",
      "outputs": [],
      "stateMutability": "nonpayable",
      "type": "function"
    },
    {
      "inputs": [
        {
          "internalType": "string",
          "name": "newBaseURI",
          "type": "string"
        }
      ],
      "name": "setBaseURI",
      "outputs": [],
      "stateMutability": "nonpayable",
      "type": "function"
    },
    {
      "inputs": [
        {
          "internalType": "address",
          "name": "pool",
          "type": "address"
        },
        {
          "internalType": "uint256",
          "name": "allocation",
          "type": "uint256"
        }
      ],
      "name": "setMinterAndAllocation",
      "outputs": [],
      "stateMutability": "nonpayable",
      "type": "function"
    },
    {
      "inputs": [
        {
          "internalType": "uint256",
          "name": "_royaltyPercentage",
          "type": "uint256"
        },
        {
          "internalType": "address",
          "name": "_royaltyRecipient",
          "type": "address"
        }
      ],
      "name": "setRoyalty",
      "outputs": [],
      "stateMutability": "nonpayable",
      "type": "function"
    },
    {
      "inputs": [],
      "name": "supplyCutTimestamp",
      "outputs": [
        {
          "internalType": "uint256",
          "name": "",
          "type": "uint256"
        }
      ],
      "stateMutability": "view",
      "type": "function"
    },
    {
      "inputs": [
        {
          "internalType": "bytes4",
          "name": "interfaceId",
          "type": "bytes4"
        }
      ],
      "name": "supportsInterface",
      "outputs": [
        {
          "internalType": "bool",
          "name": "",
          "type": "bool"
        }
      ],
      "stateMutability": "view",
      "type": "function"
    },
    {
      "inputs": [],
      "name": "symbol",
      "outputs": [
        {
          "internalType": "string",
          "name": "",
          "type": "string"
        }
      ],
      "stateMutability": "view",
      "type": "function"
    },
    {
      "inputs": [
        {
          "internalType": "uint256",
          "name": "tokenId",
          "type": "uint256"
        }
      ],
      "name": "tokenURI",
      "outputs": [
        {
          "internalType": "string",
          "name": "",
          "type": "string"
        }
      ],
      "stateMutability": "view",
      "type": "function"
    },
    {
      "inputs": [],
      "name": "totalAllocatedSupply",
      "outputs": [
        {
          "internalType": "uint256",
          "name": "",
          "type": "uint256"
        }
      ],
      "stateMutability": "view",
      "type": "function"
    },
    {
      "inputs": [],
      "name": "totalSupply",
      "outputs": [
        {
          "internalType": "uint256",
          "name": "",
          "type": "uint256"
        }
      ],
      "stateMutability": "view",
      "type": "function"
    },
    {
      "inputs": [
        {
          "internalType": "address",
          "name": "from",
          "type": "address"
        },
        {
          "internalType": "address",
          "name": "to",
          "type": "address"
        },
        {
          "internalType": "uint256",
          "name": "tokenId",
          "type": "uint256"
        }
      ],
      "name": "transferFrom",
      "outputs": [],
      "stateMutability": "payable",
      "type": "function"
    },
    {
      "inputs": [
        {
          "internalType": "address",
          "name": "newOwner",
          "type": "address"
        }
      ],
      "name": "transferOwnership",
      "outputs": [],
      "stateMutability": "nonpayable",
      "type": "function"
    },
    {
      "inputs": [],
      "name": "unlockedAmountAtCut",
      "outputs": [
        {
          "internalType": "uint256",
          "name": "",
          "type": "uint256"
        }
      ],
      "stateMutability": "view",
      "type": "function"
    },
    {
      "inputs": [],
      "name": "unrevealedBaseURI",
      "outputs": [
        {
          "internalType": "string",
          "name": "",
          "type": "string"
        }
      ],
      "stateMutability": "view",
      "type": "function"
    },
    {
      "inputs": [],
      "name": "vestingConfig",
      "outputs": [
        {
          "internalType": "uint256",
          "name": "cliffEnd",
          "type": "uint256"
        },
        {
          "internalType": "uint256",
          "name": "numberOfUnlocks",
          "type": "uint256"
        },
        {
          "internalType": "uint256",
          "name": "durationBetweenUnlocks",
          "type": "uint256"
        },
        {
          "internalType": "uint256",
          "name": "amountPerUnlock",
          "type": "uint256"
        }
      ],
      "stateMutability": "view",
      "type": "function"
    },
    {
      "inputs": [],
      "name": "vestingConfigured",
      "outputs": [
        {
          "internalType": "bool",
          "name": "",
          "type": "bool"
        }
      ],
      "stateMutability": "view",
      "type": "function"
    }
  ],
  "bytecode": "0x60a034620000b357601f6200486f38819003918201601f19168301916001600160401b03831184841017620000b857808492602094604052833981010312620000b357516001600160a01b03908181168103620000b357600160008181558154336001600160a01b0319821681179093556040519416907f8be0079c531659141344cd1fd0a4f28419497f9722a3daafe3b4186f6b6457e09080a36080526147a09081620000cf823960805181612b9f0152f35b600080fd5b634e487b7160e01b600052604160045260246000fdfe6080604052600436101561001257600080fd5b60003560e01c80620f2125146103a557806227675f146103a057806301ffc9a71461039b57806306fdde0314610396578063081812fc14610391578063095ea7b31461038c578063150b7a021461038757806317f639791461038257806318160ddd1461037d578063182ee485146103785780631cdccaff14610373578063219172db1461036e57806323b872dd14610369578063290f54ae146103645780632a55205a1461035f57806340c10f191461035a57806340e3276b1461035557806342842e0e146103505780634c00de821461034b57806354214f691461034657806355f804b3146103415780636352211e1461033c578063693866e31461033757806369d42c5e1461033257806370a082311461032d578063715018a6146103285780637ecc2b561461032357806381ae39001461031e5780638a71bb2d146103195780638da5cb5b146103145780638f152d0e1461030f5780639015d26b1461030a578063951100031461030557806395d89b4114610300578063a22cb465146102fb578063a2af294f146102f6578063a3622735146102f1578063a475b5dd146102ec578063a7df596e146102e7578063ab4b6692146102e2578063b4565180146102dd578063b5f1f247146102d8578063b88d4fde146102d3578063ba829d71146102ce578063c705fea2146102c9578063c87b56dd146102c4578063d5abeb01146102bf578063d6b6e203146102ba578063d8270dce146102b5578063e059b9c0146102b0578063e1258aaa146102ab578063e985e9c5146102a6578063f2fde38b146102a1578063f4c445691461029c578063fbddc05514610297578063fbf3aa21146102925763fcf2e55f1461028d57600080fd5b61268c565b612652565b6125cb565b612424565b612393565b61234e565b6121f5565b6121d7565b6121b9565b61217c565b6120ec565b6120cd565b612032565b612014565b611e6e565b611d1c565b611bdf565b611bb6565b611ad1565b6119d5565b6119b7565b61198d565b6118e5565b61182f565b6116c7565b6116a4565b611681565b611658565b61163a565b61161c565b611579565b61151b565b6114c1565b611434565b611419565b6113ea565b61127c565b6111db565b6111b2565b611039565b610f9e565b610e93565b610e57565b610e39565b610cee565b610ca4565b610c74565b610933565b610904565b61083b565b6107e1565b6106e7565b610687565b610590565b610494565b6103de565b346103c85760003660031901126103c85760206103c061360d565b604051908152f35b600080fd5b6001600160a01b038116036103c857565b346103c85760403660031901126103c8576004356103fb816103cd565b60105460405163188c824d60e11b81526001600160a01b0392916020908290600490829087165afa801561047d5761044b936104429260009261044d575b50163314613a46565b60243590613ab8565b005b61046f91925060203d8111610476575b6104678183610b0e565b810190612f45565b9038610439565b503d61045d565b612f5a565b6001600160e01b03198116036103c857565b346103c85760203660031901126103c85760206004356104b381610482565b63ffffffff60e01b16637c97ded960e11b8114908115610523575b81156104e0575b506040519015158152f35b6301ffc9a760e01b811491508115610512575b8115610501575b50386104d5565b635b5e139f60e01b149050386104fa565b6380ac58cd60e01b811491506104f3565b63152a902d60e11b811491506104ce565b60005b8381106105475750506000910152565b8181015183820152602001610537565b9060209161057081518092818552858086019101610534565b601f01601f1916010190565b90602061058d928181520190610557565b90565b346103c85760008060031936011261068457604051908060008051602061470b833981519152908154906105c382610a83565b8086529260019280841690811561065757506001146105fd575b6105f9866105ed81880382610b0e565b6040519182918261057c565b0390f35b815292507f933ecf8acb7824b680a8d16f3ff3db8864228d986aa4c2ebab1eeb2703b4beb35b82841061063f5750505081016020016105ed826105f9386105dd565b80546020858701810191909152909301928101610623565b90508695506105f9969350602092506105ed94915060ff191682840152151560051b8201019293386105dd565b80fd5b346103c85760203660031901126103c8576004356106a481613e8c565b156106d6576000526000805160206146eb833981519152602052602060018060a01b0360406000205416604051908152f35b6333d1c03960e21b60005260046000fd5b60403660031901126103c8576004356106ff816103cd565b6001600160a01b03906024359082610716836143de565b16803303610777575b6000938385526000805160206146eb83398151915260205260408520921691826001600160601b0360a01b8254161790557f8c5be1e5ebec7d5bd14f71427d1e84f3dd0314c0f7b2291e5b200ac8c7c3b9258480a480f35b60ff61079d336107868461210a565b9060018060a01b0316600052602052604060002090565b541661071f576367d9dca160e11b60005260046000fd5b9181601f840112156103c8578235916001600160401b0383116103c857602083818601950101116103c857565b346103c85760803660031901126103c8576107fd6004356103cd565b6108086024356103cd565b6064356001600160401b0381116103c8576108279036906004016107b4565b5050604051630a85bd0160e11b8152602090f35b346103c85760203660031901126103c857600435610858816103cd565b60018060a01b03166000526002602052604060002060405161087981610ad3565b60ff825416151580825260a0600184015493846020850152600281015493846040820152600382015490816060820152600560048401549384608084015201549384910152836108fa575b6105f99394604051968796879260a094919796959260c08501981515855260208501526040840152606083015260808201520152565b80831093506108c4565b346103c85760003660031901126103c85760206000196000805160206146ab8339815191525401604051908152f35b346103c8576040806003193601126103c85760043590610952826103cd565b6024359161095e6126f8565b610966613099565b610984600260165461097c600482161515613744565b16151561317a565b61098f831515613789565b610a04836109ff6000196000805160206146ab8339815191526109c26109b8858484540161308c565b60075410156137cc565b6109d56109cd6136af565b851115613818565b6109ee6109e48560135461308c565b6011541015613872565b6109f8848761456b565b5401613060565b61323f565b916001600160a01b039091169060005b848110610a3957610a2f610a2a8660135461308c565b601355565b61044b6001600055565b80837f3b782080656380c62378fe492892b8dcb9c50affce49759e169b8c7e5ef270e7610a7a610a6b6001958961308c565b86519081529081906020820190565b0390a201610a14565b90600182811c92168015610ab3575b6020831014610a9d57565b634e487b7160e01b600052602260045260246000fd5b91607f1691610a92565b634e487b7160e01b600052604160045260246000fd5b60c081019081106001600160401b03821117610aee57604052565b610abd565b602081019081106001600160401b03821117610aee57604052565b90601f801991011681019081106001600160401b03821117610aee57604052565b6040519060008260045491610b4383610a83565b80835292600190818116908115610bcb5750600114610b6c575b50610b6a92500383610b0e565b565b6004600090815291507f8a35acfbc15ff81a39ae7d344fd709f28e8600b4aa8c65c6b64bfe7fe36bd19b5b848310610bb05750610b6a935050810160200138610b5d565b81935090816020925483858a01015201910190918592610b97565b905060209250610b6a94915060ff191682840152151560051b82010138610b5d565b6040519060008260035491610c0183610a83565b80835292600190818116908115610bcb5750600114610c275750610b6a92500383610b0e565b60036000908152915060008051602061468b8339815191525b848310610c595750610b6a935050810160200138610b5d565b81935090816020925483858a01015201910190918592610c40565b346103c85760003660031901126103c8576105f9610c90610b2f565b604051918291602083526020830190610557565b346103c85760003660031901126103c8576020600b54604051908152f35b60609060031901126103c857600435610cda816103cd565b90602435610ce7816103cd565b9060443590565b610cf736610cc2565b9091610d02826143de565b6001600160a01b0391821693909190818316859003610e345760008481526000805160206146eb833981519152602052604090208054610d556001600160a01b03881633908114908314171590565b1590565b610e0f575b610e05575b50610d6985612143565b8054600019019055610d7a81612143565b8054600101905516928391600160e11b4260a01b84178117610d9b866143af565b55811615610dc4575b5060008051602061472b833981519152600080a415610dbf57005b614658565b60018401610dd1816143af565b5415610dde575b50610da4565b6000805160206146ab833981519152548114610dd857610dfd906143af565b553880610dd8565b6000905538610d5f565b610e29610d51610e22336107868b61210a565b5460ff1690565b15610d5a575b614647565b614637565b346103c85760003660031901126103c8576020601554604051908152f35b346103c85760403660031901126103c857604060018060a01b0360095416612710610e86600854602435613147565b0482519182526020820152f35b346103c8576040806003193601126103c857600435610eb1816103cd565b602435610ebc613099565b336000908152600a60205260409020610ed790541515612fc3565b8015610f8d576000805160206146ab83398151915254600754600019808301928490610f04848610612ffe565b010111610f7c57610f2090610f1b8385949561456b565b613060565b926001600160a01b039091169060005b838110610f415761044b6001600055565b80837f3b782080656380c62378fe492892b8dcb9c50affce49759e169b8c7e5ef270e7610f73610a6b6001958a61308c565b0390a201610f30565b835163c30436e960e01b8152600490fd5b825163f4f5b73360e01b8152600490fd5b346103c85760403660031901126103c857602435600435610fbe826103cd565b610fc66126f8565b6127108111610ff457600855600980546001600160a01b0319166001600160a01b0392909216919091179055005b60405162461bcd60e51b815260206004820152601a60248201527f526f79616c74792063616e6e6f742065786365656420313030250000000000006044820152606490fd5b61104236610cc2565b9160405161104f81610af3565b60009384825261105e816143de565b6001600160a01b0384811691808216839003610e345783918861109b846000526000805160206146eb833981519152602052604060002090815490565b6110b46001600160a01b03881633908114908314171590565b61118e575b611186575b50506110c984612143565b80546000190190556110da88612143565b805460010190558716928391600160e11b4260a01b841781176110fc866143af565b55811615611145575b5060008051602061472b8339815191528980a415610dbf57833b611127578480f35b61113493610d51936144b2565b61114057388080808480f35b614669565b60018401611152816143af565b541561115f575b50611105565b6000805160206146ab8339815191525481146111595761117e906143af565b553880611159565b5588386110be565b915093506111a5610d51610e22336107868961210a565b610e2f5785938a916110b9565b346103c85760003660031901126103c8576009546040516001600160a01b039091168152602090f35b346103c85760003660031901126103c85760206001601654161515604051908152f35b60405190608082018281106001600160401b03821117610aee57604052565b60405190610b6a82610ad3565b6001600160401b038111610aee57601f01601f191660200190565b9291926112518261122a565b9161125f6040519384610b0e565b8294818452818301116103c8578281602093846000960137010152565b346103c8576020806003193601126103c8576001600160401b036004358181116103c857366023820112156103c8576112bf903690602481600401359101611245565b916112c86126f8565b8251918211610aee576112e5826112e0600354610a83565b6127cb565b80601f831160011461135257509181611342927f6741b2fc379fad678116fe3d4d4b9a1a184ab53ba36b86ad0fa66340b1ab41ad94600091611347575b508160011b916000199060031b1c1916176003556040519182918261057c565b0390a1005b905082015138611322565b600360005290601f19831660008051602061468b833981519152926000905b8282106113d2575050927f6741b2fc379fad678116fe3d4d4b9a1a184ab53ba36b86ad0fa66340b1ab41ad94926001928261134296106113b9575b5050811b016003556105ed565b84015160001960f88460031b161c1916905538806113ac565b80600185968294968a01518155019501930190611371565b346103c85760203660031901126103c85760206001600160a01b036114106004356143de565b16604051908152f35b346103c85760003660031901126103c85760206103c06136af565b346103c85760403660031901126103c857600435611451816103cd565b60105460405163188c824d60e11b81526001600160a01b0392916020908290600490829087165afa801561047d5761044b93611498926000926114a1575b50163314612f66565b60243590614097565b6114ba91925060203d8111610476576104678183610b0e565b903861148f565b346103c85760203660031901126103c8576004356114de816103cd565b6001600160a01b0381161561150a576001600160401b03611500602092612143565b5416604051908152f35b6323d3ad8160e21b60005260046000fd5b346103c857600080600319360112610684576115356126f8565b600180546001600160a01b0319811690915581906001600160a01b03167f8be0079c531659141344cd1fd0a4f28419497f9722a3daafe3b4186f6b6457e08280a380f35b346103c85760003660031901126103c857600b54601654600090600216156116165750601154905b600754918082018083116116115783106115d5576109ff6115c5926105f99461323f565b6040519081529081906020820190565b60405162461bcd60e51b8152602060048201526014602482015273496e76616c696420737570706c7920737461746560601b6044820152606490fd5b61304a565b906115a1565b346103c85760003660031901126103c8576020601454604051908152f35b346103c85760003660031901126103c8576020600854604051908152f35b346103c85760003660031901126103c8576001546040516001600160a01b039091168152602090f35b346103c85760003660031901126103c85760206004601654161515604051908152f35b346103c85760003660031901126103c85760206002601654161515604051908152f35b346103c85760603660031901126103c8577f7e2a3374677a327cc55645e34396200e1c47056393c1e5dfa3e1f7a40384a33a60243560043561134260443561170d6126f8565b61178a84611785611780826016546117286004821615613342565b61173c60026012549261097c84151561338e565b61176c611764601154926101f484106000146117f45761175f60028610156134e7565b61306e565b8a101561353e565b61177b62093a808810156135a3565b61308c565b613230565b61315a565b906117c36117966111fe565b8581526020810187905260408101839052606001839052600c859055600d869055600e829055600f839055565b6117d1600460165417601655565b604051948594859094939260609260808301968352602083015260408201520152565b6103e884101561180b5761175f600486101561348d565b6107d08410156118225761175f6008861015613432565b61175f60088610156133da565b346103c8576000806003193601126106845760405190806000805160206146cb8339815191529081549061186282610a83565b80865292600192808416908115610657575060011461188b576105f9866105ed81880382610b0e565b815292507f617167b76dcc8247761fd21f427ad8ec3be6b3be203aed34e3aac08b4d31817c5b8284106118cd5750505081016020016105ed826105f9386105dd565b805460208587018101919091529093019281016118b1565b346103c85760403660031901126103c857600435611902816103cd565b60243590811515918281036103c85761193390611922836107863361210a565b9060ff801983541691151516179055565b6040519182526001600160a01b03169033907f17307eab39ab6107e8899845ad3d59bd9653f200f220920489ca2b5937696c3190602090a3005b6003111561197757565b634e487b7160e01b600052602160045260246000fd5b346103c85760003660031901126103c85760ff600554166040516003821015611977576020918152f35b346103c85760003660031901126103c8576020601154604051908152f35b346103c857600080600319360112610684576119ef6126f8565b6119fe60016016541615612da8565b60055460ff16611a0d8161196d565b60028103611a595750611a24600654421015612df4565b611a32600160165417601655565b7f4884a1e8d033385ee80fa3d769d1ba3c44e18291db0f726e436a01997d3df36a8180a180f35b611a628161196d565b611a245760405162461bcd60e51b815260206004820152603e60248201527f496e7374616e742072657665616c20636f6c6c656374696f6e7320646f206e6f60448201527f74206e65656420746f206265206d616e75616c6c792072657665616c656400006064820152608490fd5b346103c85760203660031901126103c857600435611aed6126f8565b600260165416611b6557611b1d611b1682611b0e6014611b229511156130ef565b600754613147565b6064900490565b601155565b611b30600260165417601655565b6011546040519081527f4f0ee8dede1f88eebce079d082b265aea42f0e2dd279124103655875097f43f4908060208101611342565b60405162461bcd60e51b815260206004820152602360248201527f43726561746f7220616c6c6f636174696f6e20616c7265616479206465636c616044820152621c995960ea1b6064820152608490fd5b346103c85760003660031901126103c8576010546040516001600160a01b039091168152602090f35b346103c85760203660031901126103c857600435611bfb6126f8565b611c0b600260165416151561317a565b80151580611d11575b611c1d906131d8565b6013546011549080820382811161161157818314611cba57611c66611b167fd1f265823deafe8beac32429d528ba3d6f44b4c066c5935685cc34bde411795795611c7393613147565b80936109ff82151561324c565b90611c7d82601155565b600460165416611ca2575b506040805191825260208201929092529081908101611342565b611caf611cb4918361323f565b6132ab565b38611c88565b60405162461bcd60e51b815260206004820152602960248201527f4e6f2072656d61696e696e672063726561746f7220616c6c6f636174696f6e20604482015268746f2072656475636560b81b6064820152608490fd5b506064811115611c14565b346103c85760803660031901126103c857600435611d39816103cd565b606435604435602435611d4a6126f8565b6001600160a01b038416938415611e33577f70f501bd2f3c55f153861010e5184d8493b7b83ce7c4cb72fcc70fd07c1a240a93611e11611e2e92611d8f851515613eb1565b611d9a831515613f07565b611dc4611dbf610d51610e228460018060a01b03166000526002602052604060002090565b613f5f565b611e0c611dcf61121d565b600181529186602084015287604084015284606084015260006080840152600060a084015260018060a01b03166000526002602052604060002090565b613fa2565b604051938493846040919493926060820195825260208201520152565b0390a2005b60405162461bcd60e51b8152602060048201526013602482015272496e76616c6964204b4f4c206164647265737360681b6044820152606490fd5b60803660031901126103c857600435611e86816103cd565b60243590611e93826103cd565b6044356064356001600160401b0381116103c857366023820112156103c857611ec6903690602481600401359101611245565b90611ed0816143de565b6001600160a01b0384811691808216839003610e34578391611f0c836000526000805160206146eb833981519152602052604060002090815490565b611f256001600160a01b03871633908114908314171590565b611ff4575b611fea575b50611f3984612143565b8054600019019055611f4a88612143565b805460010190558716928391600160e11b4260a01b84178117611f6c866143af565b55811615611fa9575b5060008051602061472b833981519152600080a415610dbf57833b611f9657005b611fa393610d51936144b2565b61114057005b60018401611fb6816143af565b5415611fc3575b50611f75565b6000805160206146ab833981519152548114611fbd57611fe2906143af565b553880611fbd565b6000905538611f2f565b9350612009610d51610e22336107868961210a565b610e2f578593611f2a565b346103c85760003660031901126103c8576020600654604051908152f35b346103c85760203660031901126103c85760043561204f816103cd565b6001600160a01b0316338114806120b6575b61206a90612fc3565b80600052600a6020527ffa7ff84d4eb7d84d088489adf98dd5160bce4e75f6d0acd06e70a89654bb7d7f611e2e60406000206000815491556115c56120b182600b5461323f565b600b55565b506000818152600a60205260409020541515612061565b346103c85760203660031901126103c8576105f9610c90600435613c4d565b346103c85760003660031901126103c8576020600754604051908152f35b6001600160a01b031660009081527f2569078dfb4b0305704d3008e7403993ae9601b85f7ae5e742de3de8f8011c476020526040902090565b6001600160a01b031660009081527f2569078dfb4b0305704d3008e7403993ae9601b85f7ae5e742de3de8f8011c456020526040902090565b346103c85760203660031901126103c857600435612199816103cd565b60018060a01b0316600052600a6020526020604060002054604051908152f35b346103c85760003660031901126103c8576020601254604051908152f35b346103c85760003660031901126103c8576020601354604051908152f35b346103c8576003196060368201126103c8576001600160401b03906004358281116103c8576122289036906004016107b4565b916024358481116103c8576122419036906004016107b4565b916044359586116103c8576101409086360301126103c85760008051602061474b833981519152549360ff8560081c1694856000146123455750303b155b156122da57612299941595866122b9575b60040193612b92565b61229f57005b60008051602061474b833981519152805461ff0019169055005b60008051602061474b833981519152805461ffff1916610101179055612290565b60405162461bcd60e51b815260206004820152603760248201527f455243373231415f5f496e697469616c697a61626c653a20636f6e747261637460448201527f20697320616c726561647920696e697469616c697a65640000000000000000006064820152608490fd5b60ff161561227f565b346103c85760403660031901126103c857602060ff612387600435612372816103cd565b61078660243591612382836103cd565b61210a565b54166040519015158152f35b346103c85760203660031901126103c8576004356123b0816103cd565b6123b86126f8565b6001600160a01b038116156123d05761044b90612750565b60405162461bcd60e51b815260206004820152602660248201527f4f776e61626c653a206e6577206f776e657220697320746865207a65726f206160448201526564647265737360d01b6064820152608490fd5b346103c85760203660031901126103c8577fbba296472f2135056aa4038d0d43f8b8dd1ff674c970ca244557fda3bf2bdead6004356124616126f8565b801515806125c0575b612473906131d8565b6124df6124d76124cd60115493600260165416612503575b6124c1611b16600754926124b1600b54986124a7868b10613930565b6109ff8a8761323f565b6124bc81151561397c565b613147565b906109ff82151561324c565b926011549061308c565b8210156139d4565b6124e881600755565b60115460408051928352602083019190915281908101611342565b601354612510818761323f565b908161251e575b505061248b565b61258090611b1d61257761253061360d565b946000848711156125b2575061257161255361254c868961323f565b809361323f565b9161256b612564611b168b86613147565b918761308c565b9261323f565b9061308c565b918210156138be565b61258981601455565b61259242601555565b6004601654166125a3575b80612517565b6125ac90613b52565b3861259d565b61255361257191809361323f565b50606481111561246a565b346103c85760203660031901126103c8576004356125e8816103cd565b60018060a01b03166000526002602052604060002060ff8154166105f960018301549260028101549060038101546005600483015492015492604051968796879260a094919796959260c08501981515855260208501526040840152606083015260808201520152565b346103c85760003660031901126103c857600c54600d54600e54600f54604080519485526020850193909352918301526060820152608090f35b346103c85760203660031901126103c8576004356126a9816103cd565b6126b16126f8565b6001600160a01b03166000818152600260205260408120805460ff19169055907ffeb031b2d93541150a8571bc111b4dab4d98dfef15bcbe6e89653e385a5d980a8280a280f35b6001546001600160a01b0316330361270c57565b606460405162461bcd60e51b815260206004820152602060248201527f4f776e61626c653a2063616c6c6572206973206e6f7420746865206f776e65726044820152fd5b600180546001600160a01b039283166001600160a01b0319821681179092559091167f8be0079c531659141344cd1fd0a4f28419497f9722a3daafe3b4186f6b6457e0600080a3565b903590601e19813603018212156103c857018035906001600160401b0382116103c8576020019181360383136103c857565b601f81116127d7575050565b6000906003825260008051602061468b833981519152906020601f850160051c83019410612820575b601f0160051c01915b82811061281557505050565b818155600101612809565b9092508290612800565b601f8111612836575050565b60009060008051602061470b83398151915282527f933ecf8acb7824b680a8d16f3ff3db8864228d986aa4c2ebab1eeb2703b4beb3906020601f850160051c8301941061289e575b601f0160051c01915b82811061289357505050565b818155600101612887565b909250829061287e565b601f81116128b4575050565b600090600482527f8a35acfbc15ff81a39ae7d344fd709f28e8600b4aa8c65c6b64bfe7fe36bd19b906020601f850160051c8301941061290f575b601f0160051c01915b82811061290457505050565b8181556001016128f8565b90925082906128ef565b601f8111612925575050565b6000906000805160206146cb83398151915282527f617167b76dcc8247761fd21f427ad8ec3be6b3be203aed34e3aac08b4d31817c906020601f850160051c8301941061298d575b601f0160051c01915b82811061298257505050565b818155600101612976565b909250829061296d565b91906001600160401b038111610aee576129b6816112e0600354610a83565b6000601f82116001146129f0578192936000926129e5575b50508160011b916000199060031b1c191617600355565b0135905038806129ce565b6003600052601f1982169360008051602061468b83398151915291805b868110612a455750836001959610612a2b575b505050811b01600355565b0135600019600384901b60f8161c19169055388080612a20565b90926020600181928686013581550194019101612a0d565b91906001600160401b038111610aee57612a8181612a7c600454610a83565b6128a8565b6000601f8211600114612abb57819293600092612ab0575b50508160011b916000199060031b1c191617600455565b013590503880612a99565b6004600052601f198216937f8a35acfbc15ff81a39ae7d344fd709f28e8600b4aa8c65c6b64bfe7fe36bd19b91805b868110612b225750836001959610612b08575b505050811b01600455565b0135600019600384901b60f8161c19169055388080612afd565b90926020600181928686013581550194019101612aea565b90918060409360208452816020850152848401376000828201840152601f01601f1916010190565b3561058d816103cd565b3560038110156103c85790565b60038110156119775760ff801960055416911617600555565b9092916001600160a01b037f000000000000000000000000000000000000000000000000000000000000000081163303612d96576001546001600160a01b031616612d8557600754612d7357612ccb612cd392612cd995612bff612bf960e08a018a612799565b90612997565b7fced78f6acdf1e4173505ed5511128bdbfc77c3a17f38dff9f5bb217ea7667800612c2e6101208a018a612799565b90612c3e60405192839283612b3a565b0390a1612c6d612c5060208a01612b62565b60018060a01b03166001600160601b0360a01b6010541617601055565b612c7e612c7989612b62565b612750565b612c8b6060890135600855565b612cb7612c9a60408a01612b62565b60018060a01b03166001600160601b0360a01b6009541617600955565b612cc46080890135600755565b3691611245565b923691611245565b9061425c565b612ce242601255565b60a08101612cf7612cf282612b6c565b612b79565b612d0081612b6c565b612d098161196d565b612d1d575050610b6a600160165417601655565b612d3f600291612d3a612d34610100860186612799565b90612a5d565b612b6c565b612d488161196d565b14612d505750565b60c0013542811115612d6157600655565b60405163cc447d1560e01b8152600490fd5b6040516348aa010560e11b8152600490fd5b60405162dc149f60e41b8152600490fd5b604051630636a15760e11b8152600490fd5b15612daf57565b60405162461bcd60e51b815260206004820152601e60248201527f436f6c6c656374696f6e20697320616c72656164792072657665616c656400006044820152606490fd5b15612dfb57565b60405162461bcd60e51b815260206004820152601e60248201527f52657665616c2074696d6520686173206e6f74207965742070617373656400006044820152606490fd5b9081516001600160401b038111610aee576000805160206146cb83398151915290612e7481612e6f8454610a83565b612919565b602080601f8311600114612eb0575081929394600092612ea5575b50508160011b916000199060031b1c1916179055565b015190503880612e8f565b90601f19831695612ef06000805160206146cb8339815191526000527f617167b76dcc8247761fd21f427ad8ec3be6b3be203aed34e3aac08b4d31817c90565b926000905b888210612f2d57505083600195969710612f14575b505050811b019055565b015160001960f88460031b161c19169055388080612f0a565b80600185968294968601518155019501930190612ef5565b908160209103126103c8575161058d816103cd565b6040513d6000823e3d90fd5b15612f6d57565b60405162461bcd60e51b815260206004820152602860248201527f4f6e6c7920506f6f6c4465706c6f7965722063616e2063616c6c207468697320604482015267333ab731ba34b7b760c11b6064820152608490fd5b15612fca57565b60405162461bcd60e51b815260206004820152600c60248201526b155b985d5d1a1bdc9a5e995960a21b6044820152606490fd5b1561300557565b60405162461bcd60e51b815260206004820152601b60248201527f4e6f20737570706c7920617661696c61626c6520746f206d696e7400000000006044820152606490fd5b634e487b7160e01b600052601160045260246000fd5b600101908160011161161157565b9062093a80820180921161161157565b906001820180921161161157565b9190820180921161161157565b6002600054146130aa576002600055565b60405162461bcd60e51b815260206004820152601f60248201527f5265656e7472616e637947756172643a207265656e7472616e742063616c6c006044820152606490fd5b156130f657565b60405162461bcd60e51b8152602060048201526024808201527f43726561746f7220616c6c6f636174696f6e2063616e6e6f74206578636565646044820152632032302560e01b6064820152608490fd5b8181029291811591840414171561161157565b8115613164570490565b634e487b7160e01b600052601260045260246000fd5b1561318157565b60405162461bcd60e51b815260206004820152602960248201527f43726561746f7220616c6c6f636174696f6e206d757374206265206465636c616044820152681c995908199a5c9cdd60ba1b6064820152608490fd5b156131df57565b60405162461bcd60e51b8152602060048201526024808201527f50657263656e74616765206d757374206265206265747765656e203120616e646044820152630203130360e41b6064820152608490fd5b60001981019190821161161157565b9190820391821161161157565b1561325357565b60405162461bcd60e51b815260206004820152602a60248201527f526564756374696f6e20616d6f756e74206d7573742062652067726561746572604482015269207468616e207a65726f60b01b6064820152608490fd5b801561333a57600d54600c5490600e54916132c68383613147565b81018082116116115742106132e35750505050610b6a6000600f55565b6132fb9281421060001461332757505060009061323f565b90811561331b5781611785611780610b6a946133169461308c565b600f55565b5050610b6a6000600f55565b611785613334924261323f565b9061323f565b506000600f55565b1561334957565b60405162461bcd60e51b815260206004820152601a60248201527f56657374696e6720616c726561647920636f6e666967757265640000000000006044820152606490fd5b1561339557565b60405162461bcd60e51b815260206004820152601a60248201527f436f6c6c656374696f6e206e6f7420696e697469616c697a65640000000000006044820152606490fd5b156133e157565b60405162461bcd60e51b815260206004820152602360248201527f4d696e203820756e6c6f636b7320666f7220616c6c6f636174696f6e203e203260448201526203030360ec1b6064820152608490fd5b1561343957565b60405162461bcd60e51b815260206004820152602660248201527f4d696e203820756e6c6f636b7320666f7220616c6c6f636174696f6e203130306044820152650302d323030360d41b6064820152608490fd5b1561349457565b60405162461bcd60e51b815260206004820152602560248201527f4d696e203420756e6c6f636b7320666f7220616c6c6f636174696f6e2035303060448201526402d313030360dc1b6064820152608490fd5b156134ee57565b60405162461bcd60e51b815260206004820152602260248201527f4d696e203220756e6c6f636b7320666f7220616c6c6f636174696f6e203c2035604482015261030360f41b6064820152608490fd5b1561354557565b60405162461bcd60e51b815260206004820152603060248201527f436c696666206d757374206e6f74206265206c657373207468616e203720646160448201526f3cb990333937b69031b932b0ba34b7b760811b6064820152608490fd5b156135aa57565b60405162461bcd60e51b815260206004820152603560248201527f4475726174696f6e206265747765656e20756e6c6f636b73206d757374206e6f60448201527474206265206c657373207468616e2037206461797360581b6064820152608490fd5b6004601654161561364d57600c54421061364d576015546136305761058d613652565b613638613652565b6014549081811015613648575090565b905090565b600090565b600c54420342811161161157600e5461366a9161315a565b6001810180911161161157600d548082116136a7575b810361368d575060115490565b61369990600f54613147565b601154808211613648575090565b905080613680565b6004601654161561364d576136c261360d565b6013548082111561373d578082106136e05781039081116116115790565b60405162461bcd60e51b815260206004820152602f60248201527f41726974686d6574696320756e646572666c6f7720696e20676574417661696c60448201526e18589b1950dc99585d1bdc935a5b9d608a1b6064820152608490fd5b5050600090565b1561374b57565b60405162461bcd60e51b815260206004820152601660248201527515995cdd1a5b99c81b9bdd0818dbdb999a59dd5c995960521b6044820152606490fd5b1561379057565b60405162461bcd60e51b815260206004820152601460248201527305175616e74697479206d757374206265203e20360641b6044820152606490fd5b156137d357565b60405162461bcd60e51b815260206004820152601f60248201527f4d696e74696e6720776f756c6420657863656564206d617820737570706c79006044820152606490fd5b1561381f57565b60405162461bcd60e51b815260206004820152602560248201527f4578636565647320617661696c61626c6520756e6c6f636b656420616c6c6f6360448201526430ba34b7b760d91b6064820152608490fd5b1561387957565b60405162461bcd60e51b815260206004820152601a60248201527f457863656564732063726561746f7220616c6c6f636174696f6e0000000000006044820152606490fd5b156138c557565b60405162461bcd60e51b815260206004820152603960248201527f4e65772063726561746f7220616c6c6f636174696f6e2063616e6e6f7420626560448201527f206c657373207468616e20636c61696d656420616d6f756e74000000000000006064820152608490fd5b1561393757565b60405162461bcd60e51b815260206004820152601860248201527f4e6f20737570706c79206c65667420746f2072656475636500000000000000006044820152606490fd5b1561398357565b60405162461bcd60e51b8152602060048201526024808201527f4e6f20756e616c6c6f636174656420737570706c79206c65667420746f2072656044820152636475636560e01b6064820152608490fd5b156139db57565b60405162461bcd60e51b815260206004820152603c60248201527f4e6577206d617820737570706c792063616e6e6f74206265206c65737320746860448201527f616e206d696e746564202b20616c6c6f636174656420737570706c79000000006064820152608490fd5b15613a4d57565b60405162461bcd60e51b815260206004820152603860248201527f4f6e6c79207468652070726f746f636f6c277320506f6f6c4465706c6f79657260448201527f2063616e2063616c6c20746869732066756e6374696f6e2e00000000000000006064820152608490fd5b6001600160a01b0316908115613b165781600052600a60205280604060002055600b54818101809111611611577f1ac3d1a84101f14877bbfafdcfd3b761954b8bb27df1f672b50d7e11d48d880c91602091600b55604051908152a2565b60405162461bcd60e51b8152602060048201526014602482015273496e76616c696420706f6f6c206164647265737360601b6044820152606490fd5b600c54804210600014613be15750600d54905b81613bc2575050613b766000600f55565b600c54600d54600e54600f546040805194855260208501939093529183015260608201527f7e2a3374677a327cc55645e34396200e1c47056393c1e5dfa3e1f7a40384a33a90608090a1565b81611785611780613bdc9461177b6133169560115461323f565b613b76565b613bfa613bf1613bff924261323f565b600e549061315a565b61307e565b600d5490818110613c14575050600090613b65565b613c1d9161323f565b90613b65565b60405190613c3082610af3565b60008252565b90613c4960209282815194859201610534565b0190565b613c5681613e8c565b15613cc25760165460011615613cb957613c6e610bed565b805190919015613caf57613c9b91613ca1613c8b61058d93613d49565b6040519485936020850190613c36565b90613c36565b03601f198101835282610b0e565b505061058d613c23565b5061058d610b2f565b60405162461bcd60e51b815260206004820152602760248201527f4552433732313a2055524920717565727920666f72206e6f6e6578697374656e6044820152663a103a37b5b2b760c91b6064820152608490fd5b90613d218261122a565b613d2e6040519182610b0e565b8281528092613d3f601f199161122a565b0190602036910137565b806000917a184f03e93ff9f4daa797ed6e38ed64bf6a1f01000000000000000080821015613e7e575b506d04ee2d6d415b85acef810000000080831015613e6f575b50662386f26fc1000080831015613e60575b506305f5e10080831015613e51575b5061271080831015613e42575b506064821015613e32575b600a80921015613e28575b600190816021613de0828701613d17565b95860101905b613df2575b5050505090565b600019019083906f181899199a1a9b1b9c1cb0b131b232b360811b8282061a835304918215613e2357919082613de6565b613deb565b9160010191613dcf565b9190606460029104910191613dc4565b60049193920491019138613db9565b60089193920491019138613dac565b60109193920491019138613d9d565b60209193920491019138613d8b565b604093508104915038613d72565b60018110159081613e9b575090565b90506000805160206146ab833981519152541190565b15613eb857565b60405162461bcd60e51b815260206004820152602160248201527f506f6f6c206c696d6974206d7573742062652067726561746572207468616e206044820152600360fc1b6064820152608490fd5b15613f0e57565b60405162461bcd60e51b815260206004820152602360248201527f57696e6e6572206c696d6974206d75737420626520677265617465722074686160448201526206e20360ec1b6064820152608490fd5b15613f6657565b60405162461bcd60e51b815260206004820152601460248201527312d3d308185b1c9958591e48185c1c1c9bdd995960621b6044820152606490fd5b9060a0600591613fc181511515859060ff801983541691151516179055565b602081015160018501556040810151600285015560608101516003850155608081015160048501550151910155565b15613ff757565b60405162461bcd60e51b815260206004820152601760248201527f4b4f4c20706f6f6c206c696d69742065786365656465640000000000000000006044820152606490fd5b1561404357565b60405162461bcd60e51b815260206004820152601960248201527f4b4f4c2077696e6e6572206c696d6974206578636565646564000000000000006044820152606490fd5b60001981146116115760010190565b9060ff6140b68360018060a01b03166000526002602052604060002090565b5416156141bb576001600160a01b038216600090815260026020526040902060048101546001909101546140ea9110613ff0565b61413961411682600561410f8660018060a01b03166000526002602052604060002090565b015461308c565b6001600160a01b038416600090815260026020526040902060030154101561403c565b6001600160a01b038216600090815260026020526040902060040161415e8154614088565b90556001600160a01b03821660009081526002602052604090206141879060050191825461308c565b905533906001600160a01b03167f5b7945a09273a36deae169b61c3f2f6e50c1a2030374353d76346822ae48f674600080a3565b60405162461bcd60e51b815260206004820152601060248201526f12d3d3081b9bdd08185c1c1c9bdd995960821b6044820152606490fd5b156141fa57565b60405162461bcd60e51b815260206004820152603460248201527f455243373231415f5f496e697469616c697a61626c653a20636f6e7472616374604482015273206973206e6f7420696e697469616c697a696e6760601b6064820152608490fd5b919061428560ff60008051602061474b8339815191525460081c16614280816141f3565b6141f3565b82516001600160401b038111610aee5760008051602061470b833981519152906142b8816142b38454610a83565b61282a565b602080601f8311600114614311575081906142ef9596600092614306575b50508160011b916000199060031b1c1916179055612e40565b610b6a60016000805160206146ab83398151915255565b0151905038806142d6565b90601f1983169661435160008051602061470b8339815191526000527f933ecf8acb7824b680a8d16f3ff3db8864228d986aa4c2ebab1eeb2703b4beb390565b926000905b898210614397575050908392916001946142ef98991061437e575b505050811b019055612e40565b015160001960f88460031b161c19169055388080614371565b80600185968294968601518155019501930190614356565b6000527f2569078dfb4b0305704d3008e7403993ae9601b85f7ae5e742de3de8f8011c44602052604060002090565b60019080821161445c576143f1816143af565b5491821561440e575b5050600160e01b81161561058d578061445c565b6000805160206146ab8339815191525482101561445c5790815b156143fa579091506000190161443d816143af565b54918215614455575050600160e01b811661445c5790565b9081614428565b636f96cda160e11b60005260046000fd5b908160209103126103c8575161058d81610482565b3d156144ad573d906144938261122a565b916144a16040519384610b0e565b82523d6000602084013e565b606090565b604051630a85bd0160e11b8082523360048301526001600160a01b03928316602483015260448201949094526080606482015292936020928492909183916000918390614503906084830190610557565b0393165af16000918161453b575b5061452d5761451e614482565b80511561114057805190602001fd5b6001600160e01b0319161490565b61455d91925060203d8111614564575b6145558183610b0e565b81019061446d565b9038614511565b503d61454b565b91906000805160206146ab83398151915254908015614626576001936001600160a01b03811691906145b3904260a01b83881460e11b1784176145ad866143af565b55612143565b68010000000000000001820281540190558115614621578201919380805b6145ed575b5050506000805160206146ab833981519152559050565b15614610575b60008186848360008051602061472b8339815191528180a46145d1565b809401938285036145f357806145d6565b61467a565b63b562e8dd60e01b60005260046000fd5b62a1148160e81b60005260046000fd5b632ce44b5f60e11b60005260046000fd5b633a954ecd60e21b60005260046000fd5b6368d2bf6b60e11b60005260046000fd5b622e076360e81b60005260046000fdfec2575a0e9e593c00f959f8c92f12db2869c3395a3b0502d05e2516446f71f85b2569078dfb4b0305704d3008e7403993ae9601b85f7ae5e742de3de8f8011c402569078dfb4b0305704d3008e7403993ae9601b85f7ae5e742de3de8f8011c432569078dfb4b0305704d3008e7403993ae9601b85f7ae5e742de3de8f8011c462569078dfb4b0305704d3008e7403993ae9601b85f7ae5e742de3de8f8011c42ddf252ad1be2c89b69c2b068fc378daa952ba7f163c4a11628f55a4df523b3efee151c8401928dc223602bb187aff91b9a56c7cae5476ef1b3287b085a16c85fa2646970667358221220572bcb1a8dc2352a7e56b2dc4a8ce48e8ec45679fc32b92d51dcd0605c9afab664736f6c63430008130033",
  "linkReferences": {},
  "deployedLinkReferences": {}
}