{
  "_format": "hh-sol-artifact-1",
  "contractName": "NFTFactory",
  "sourceName": "contracts/NFTFactory.sol",
  "abi": [
    {
      "inputs": [
        {
          "internalType": "address",
          "name": "_erc721Implementation",
          "type": "address"
        },
        {
          "internalType": "address",
          "name": "_erc1155Implementation",
          "type": "address"
        },
        {
          "internalType": "address",
          "name": "_protocolManager",
          "type": "address"
        }
      ],
      "stateMutability": "nonpayable",
      "type": "constructor"
    },
    {
      "inputs": [],
      "name": "MaxSupplyRequired",
      "type": "error"
    },
    {
      "anonymous": false,
      "inputs": [
        {
          "indexed": true,
          "internalType": "address",
          "name": "erc721Implementation",
          "type": "address"
        },
        {
          "indexed": true,
          "internalType": "address",
          "name": "erc1155Implementation",
          "type": "address"
        }
      ],
      "name": "ImplementationAddressesUpdated",
      "type": "event"
    },
    {
      "anonymous": false,
      "inputs": [
        {
          "indexed": true,
          "internalType": "address",
          "name": "previousOwner",
          "type": "address"
        },
        {
          "indexed": true,
          "internalType": "address",
          "name": "newOwner",
          "type": "address"
        }
      ],
      "name": "OwnershipTransferred",
      "type": "event"
    },
    {
      "anonymous": false,
      "inputs": [
        {
          "indexed": true,
          "internalType": "address",
          "name": "collection",
          "type": "address"
        },
        {
          "indexed": true,
          "internalType": "address",
          "name": "creator",
          "type": "address"
        },
        {
          "indexed": false,
          "internalType": "enum PrizeTypes.Standard",
          "name": "standard",
          "type": "uint8"
        }
      ],
      "name": "PrizeCollectionCreated",
      "type": "event"
    },
    {
      "inputs": [
        {
          "internalType": "enum PrizeTypes.Standard",
          "name": "standard",
          "type": "uint8"
        },
        {
          "internalType": "string",
          "name": "name",
          "type": "string"
        },
        {
          "internalType": "string",
          "name": "symbol",
          "type": "string"
        },
        {
          "internalType": "string",
          "name": "baseURI",
          "type": "string"
        },
        {
          "internalType": "string",
          "name": "dropURI",
          "type": "string"
        },
        {
          "internalType": "address",
          "name": "initialOwner",
          "type": "address"
        },
        {
          "internalType": "uint256",
          "name": "royaltyPercentage",
          "type": "uint256"
        },
        {
          "internalType": "address",
          "name": "royaltyRecipient",
          "type": "address"
        },
        {
          "internalType": "uint256",
          "name": "maxSupply",
          "type": "uint256"
        },
        {
          "internalType": "enum PrizeTypes.RevealType",
          "name": "revealType",
          "type": "uint8"
        },
        {
          "internalType": "string",
          "name": "unrevealedBaseURI",
          "type": "string"
        },
        {
          "internalType": "uint256",
          "name": "revealTime",
          "type": "uint256"
        }
      ],
      "name": "deployCollection",
      "outputs": [
        {
          "internalType": "address",
          "name": "",
          "type": "address"
        }
      ],
      "stateMutability": "nonpayable",
      "type": "function"
    },
    {
      "inputs": [],
      "name": "erc1155Implementation",
      "outputs": [
        {
          "internalType": "address",
          "name": "",
          "type": "address"
        }
      ],
      "stateMutability": "view",
      "type": "function"
    },
    {
      "inputs": [],
      "name": "erc721Implementation",
      "outputs": [
        {
          "internalType": "address",
          "name": "",
          "type": "address"
        }
      ],
      "stateMutability": "view",
      "type": "function"
    },
    {
      "inputs": [],
      "name": "owner",
      "outputs": [
        {
          "internalType": "address",
          "name": "",
          "type": "address"
        }
      ],
      "stateMutability": "view",
      "type": "function"
    },
    {
      "inputs": [],
      "name": "protocolManager",
      "outputs": [
        {
          "internalType": "address",
          "name": "",
          "type": "address"
        }
      ],
      "stateMutability": "view",
      "type": "function"
    },
    {
      "inputs": [],
      "name": "renounceOwnership",
      "outputs": [],
      "stateMutability": "nonpayable",
      "type": "function"
    },
    {
      "inputs": [
        {
          "internalType": "address",
          "name": "newOwner",
          "type": "address"
        }
      ],
      "name": "transferOwnership",
      "outputs": [],
      "stateMutability": "nonpayable",
      "type": "function"
    },
    {
      "inputs": [
        {
          "internalType": "address",
          "name": "_erc721Implementation",
          "type": "address"
        },
        {
          "internalType": "address",
          "name": "_erc1155Implementation",
          "type": "address"
        }
      ],
      "name": "updateImplementationAddresses",
      "outputs": [],
      "stateMutability": "nonpayable",
      "type": "function"
    }
  ],
  "bytecode": "0x6080346100dc57601f610c0338819003918201601f19168301916001600160401b038311848410176100e1578084926060946040528339810103126100dc57610047816100f7565b61005f6040610058602085016100f7565b93016100f7565b600080546001600160a01b03198082163390811784556040519691956001600160a01b0395948694859391908416907f8be0079c531659141344cd1fd0a4f28419497f9722a3daafe3b4186f6b6457e09080a3168560015416176001551683600254161760025516906003541617600355610af7908161010c8239f35b600080fd5b634e487b7160e01b600052604160045260246000fd5b51906001600160a01b03821682036100dc5756fe6080604052600436101561001257600080fd5b6000803560e01c806335dae104146106b35780634a80a3191461068a5780636e204c4114610661578063715018a6146106075780638a9d7dbf146101925780638da5cb5b1461016b578063ab4b6692146101425763f2fde38b1461007557600080fd5b3461013f57602036600319011261013f5761008e6107cd565b610096610816565b6001600160a01b039081169081156100eb57600054826bffffffffffffffffffffffff60a01b821617600055167f8be0079c531659141344cd1fd0a4f28419497f9722a3daafe3b4186f6b6457e0600080a380f35b60405162461bcd60e51b815260206004820152602660248201527f4f776e61626c653a206e6577206f776e657220697320746865207a65726f206160448201526564647265737360d01b6064820152608490fd5b80fd5b503461013f578060031936011261013f576003546040516001600160a01b039091168152602090f35b503461013f578060031936011261013f57546040516001600160a01b039091168152602090f35b503461013f5761018036600319011261013f5760048035101561013f5767ffffffffffffffff90602435828111610487576101d19036906004016107e8565b929091604435828111610487576101ec9036906004016107e8565b90606435848111610603576102059036906004016107e8565b9590966084358681116105ff576102209036906004016107e8565b60a4359891906001600160a01b038a168a036105f75760e435986001600160a01b038a168a036105fb5760036101243510156105fb5761014435116105f757899a6102749a999a36610144356004016107e8565b90918a8b9c600435156000146104b557505061010435156104a3576001548e96906102a7906001600160a01b0316610a2d565b9d600160a01b6001900360035416604051986102c28a61086e565b6001600160a01b039081168a5260208a019190915216604088015260c43560608801526101043560808801526102fe6101243560a089016108b5565b6101643560c08801523690610312926108d7565b60e08601523690610322926108d7565b6101008401523690610333926108d7565b6101208201526001600160a01b03881693843b1561049f578694926103a4610380959361039288946040519a8b998a988997637092c55560e11b8952606060048a01526064890191610a0c565b86810360031901602488015291610a0c565b8381036003190160448501529061096a565b03925af1801561047c5790829161048b575b50505b6003546001600160a01b031692833b1561048757604051634a2e22d360e01b81526001600160a01b03909116600482018190529382908290602490829084905af1801561047c57908291610468575b505060405191610454575060043581526020926001600160a01b03169082907fcb0d919df2a078ab469ae0bbf066a91eba015762d3990770470f01c860962cd4908590a3604051908152f35b634e487b7160e01b81526021600452602490fd5b610471906108a1565b61013f578038610408565b6040513d84823e3d90fd5b5080fd5b610494906108a1565b61013f5780386103b6565b8680fd5b604051630c2aa09b60e41b8152600490fd5b99509c995092955092955092985087986001600435146104dd575b50505050505050506103b9565b61057f96979a506105729392916105669161050160018060a01b0360025416610a2d565b9c60018060a01b03600354166040519b61051a8d61086e565b6001600160a01b039081168d5260208d01919091521660408b015260c43560608b01526101043560808b01526105566101243560a08c016108b5565b6101643560c08b015236916108d7565b60e088015236916108d7565b61010085015236916108d7565b6101208201526001600160a01b03841690813b156105f3576105c983928392604051948580948193631769d1e760e21b83526001600484015260406024840152604483019061096a565b03925af1801561047c576105e4575b848180808080806104d0565b6105ed906108a1565b386105d8565b8280fd5b8780fd5b8880fd5b8580fd5b8380fd5b503461013f578060031936011261013f57610620610816565b80546001600160a01b03198116825581906001600160a01b03167f8be0079c531659141344cd1fd0a4f28419497f9722a3daafe3b4186f6b6457e08280a380f35b503461013f578060031936011261013f576002546040516001600160a01b039091168152602090f35b503461013f578060031936011261013f576001546040516001600160a01b039091168152602090f35b503461013f57604036600319011261013f576106cd6107cd565b6001600160a01b036024358181169290839003610603576106ec610816565b16801561078857811561074357816bffffffffffffffffffffffff60a01b8281600154161760015560025416176002557f8d89b7ca58fec8300cb972e8793011bccc6a8dcf68373e98115621d5cf0adc3c8380a380f35b60405162461bcd60e51b815260206004820152601e60248201527f496e76616c6964204552433131353520696d706c656d656e746174696f6e00006044820152606490fd5b60405162461bcd60e51b815260206004820152601d60248201527f496e76616c69642045524337323120696d706c656d656e746174696f6e0000006044820152606490fd5b600435906001600160a01b03821682036107e357565b600080fd5b9181601f840112156107e35782359167ffffffffffffffff83116107e357602083818601950101116107e357565b6000546001600160a01b0316330361082a57565b606460405162461bcd60e51b815260206004820152602060248201527f4f776e61626c653a2063616c6c6572206973206e6f7420746865206f776e65726044820152fd5b610140810190811067ffffffffffffffff82111761088b57604052565b634e487b7160e01b600052604160045260246000fd5b67ffffffffffffffff811161088b57604052565b60038210156108c15752565b634e487b7160e01b600052602160045260246000fd5b92919267ffffffffffffffff9182811161088b5760405192601f8201601f19908116603f011684019081118482101761088b576040528294818452818301116107e3578281602093846000960137010152565b919082519283825260005b848110610956575050826000602080949584010152601f8019910116010190565b602081830181015184830182015201610935565b9060018060a01b038083511682528060208401511660208301526040830151166040820152606082015160608201526080820151608082015260a08201519160038310156108c157610a099260a083015260c081015160c08301526109f56109e160e08301516101408060e087015285019061092a565b61010080840151908583039086015261092a565b91610120809201519181840391015261092a565b90565b908060209392818452848401376000828201840152601f01601f1916010190565b6e5af43d82803e903d91602b57fd5bf390763d602d80600a3d3981f3363d3d373d3d3d363d7300000062ffffff8260881c161760005260781b17602052603760096000f0906001600160a01b03821615610a8357565b60405162461bcd60e51b8152602060048201526016602482015275115490cc4c4d8dce8818dc99585d194819985a5b195960521b6044820152606490fdfea26469706673582212204e047b4e6991946fce7269df6a4847e5efd8f17f82fef9973a8d4a6d09fdd8bb64736f6c63430008130033",
  "linkReferences": {},
  "deployedLinkReferences": {}
}