{
  "_format": "hh-sol-artifact-1",
  "contractName": "NFTFactory",
  "sourceName": "contracts/NFTFactory.sol",
  "abi": [
    {
      "inputs": [
        {
          "internalType": "address",
          "name": "_erc721Implementation",
          "type": "address"
        },
        {
          "internalType": "address",
          "name": "_erc1155Implementation",
          "type": "address"
        },
        {
          "internalType": "address",
          "name": "_protocolManager",
          "type": "address"
        }
      ],
      "stateMutability": "nonpayable",
      "type": "constructor"
    },
    {
      "inputs": [],
      "name": "MaxSupplyRequired",
      "type": "error"
    },
    {
      "anonymous": false,
      "inputs": [
        {
          "indexed": true,
          "internalType": "address",
          "name": "collection",
          "type": "address"
        },
        {
          "indexed": false,
          "internalType": "string",
          "name": "dropURI",
          "type": "string"
        },
        {
          "indexed": false,
          "internalType": "string",
          "name": "unrevealedURI",
          "type": "string"
        },
        {
          "indexed": false,
          "internalType": "bytes32",
          "name": "dropURIHash",
          "type": "bytes32"
        },
        {
          "indexed": false,
          "internalType": "bytes32",
          "name": "unrevealedURIHash",
          "type": "bytes32"
        }
      ],
      "name": "CollectionURIsSet",
      "type": "event"
    },
    {
      "anonymous": false,
      "inputs": [
        {
          "indexed": true,
          "internalType": "address",
          "name": "erc721Implementation",
          "type": "address"
        },
        {
          "indexed": true,
          "internalType": "address",
          "name": "erc1155Implementation",
          "type": "address"
        }
      ],
      "name": "ImplementationAddressesUpdated",
      "type": "event"
    },
    {
      "anonymous": false,
      "inputs": [
        {
          "indexed": true,
          "internalType": "address",
          "name": "previousOwner",
          "type": "address"
        },
        {
          "indexed": true,
          "internalType": "address",
          "name": "newOwner",
          "type": "address"
        }
      ],
      "name": "OwnershipTransferred",
      "type": "event"
    },
    {
      "anonymous": false,
      "inputs": [
        {
          "indexed": true,
          "internalType": "address",
          "name": "collection",
          "type": "address"
        },
        {
          "indexed": true,
          "internalType": "address",
          "name": "creator",
          "type": "address"
        },
        {
          "indexed": false,
          "internalType": "enum PrizeTypes.Standard",
          "name": "standard",
          "type": "uint8"
        }
      ],
      "name": "PrizeCollectionCreated",
      "type": "event"
    },
    {
      "inputs": [
        {
          "internalType": "string",
          "name": "uri",
          "type": "string"
        }
      ],
      "name": "computeURIHash",
      "outputs": [
        {
          "internalType": "bytes32",
          "name": "",
          "type": "bytes32"
        }
      ],
      "stateMutability": "pure",
      "type": "function"
    },
    {
      "inputs": [
        {
          "internalType": "enum PrizeTypes.Standard",
          "name": "standard",
          "type": "uint8"
        },
        {
          "internalType": "string",
          "name": "name",
          "type": "string"
        },
        {
          "internalType": "string",
          "name": "symbol",
          "type": "string"
        },
        {
          "internalType": "string",
          "name": "baseURI",
          "type": "string"
        },
        {
          "internalType": "string",
          "name": "dropURI",
          "type": "string"
        },
        {
          "internalType": "bytes32",
          "name": "dropURIHash",
          "type": "bytes32"
        },
        {
          "internalType": "address",
          "name": "initialOwner",
          "type": "address"
        },
        {
          "internalType": "uint96",
          "name": "royaltyBps",
          "type": "uint96"
        },
        {
          "internalType": "address",
          "name": "royaltyRecipient",
          "type": "address"
        },
        {
          "internalType": "uint64",
          "name": "maxSupply",
          "type": "uint64"
        },
        {
          "internalType": "enum PrizeTypes.RevealType",
          "name": "revealType",
          "type": "uint8"
        },
        {
          "internalType": "string",
          "name": "unrevealedURI",
          "type": "string"
        },
        {
          "internalType": "bytes32",
          "name": "unrevealedURIHash",
          "type": "bytes32"
        },
        {
          "internalType": "uint48",
          "name": "revealTime",
          "type": "uint48"
        }
      ],
      "name": "deployCollection",
      "outputs": [
        {
          "internalType": "address",
          "name": "",
          "type": "address"
        }
      ],
      "stateMutability": "nonpayable",
      "type": "function"
    },
    {
      "inputs": [],
      "name": "erc1155Implementation",
      "outputs": [
        {
          "internalType": "address",
          "name": "",
          "type": "address"
        }
      ],
      "stateMutability": "view",
      "type": "function"
    },
    {
      "inputs": [],
      "name": "erc721Implementation",
      "outputs": [
        {
          "internalType": "address",
          "name": "",
          "type": "address"
        }
      ],
      "stateMutability": "view",
      "type": "function"
    },
    {
      "inputs": [],
      "name": "owner",
      "outputs": [
        {
          "internalType": "address",
          "name": "",
          "type": "address"
        }
      ],
      "stateMutability": "view",
      "type": "function"
    },
    {
      "inputs": [],
      "name": "protocolManager",
      "outputs": [
        {
          "internalType": "address",
          "name": "",
          "type": "address"
        }
      ],
      "stateMutability": "view",
      "type": "function"
    },
    {
      "inputs": [],
      "name": "renounceOwnership",
      "outputs": [],
      "stateMutability": "nonpayable",
      "type": "function"
    },
    {
      "inputs": [
        {
          "internalType": "address",
          "name": "newOwner",
          "type": "address"
        }
      ],
      "name": "transferOwnership",
      "outputs": [],
      "stateMutability": "nonpayable",
      "type": "function"
    },
    {
      "inputs": [
        {
          "internalType": "address",
          "name": "_erc721Implementation",
          "type": "address"
        },
        {
          "internalType": "address",
          "name": "_erc1155Implementation",
          "type": "address"
        }
      ],
      "name": "updateImplementationAddresses",
      "outputs": [],
      "stateMutability": "nonpayable",
      "type": "function"
    }
  ],
  "bytecode": "0x6080346100dc57601f610de938819003918201601f19168301916001600160401b038311848410176100e1578084926060946040528339810103126100dc57610047816100f7565b61005f6040610058602085016100f7565b93016100f7565b600080546001600160a01b03198082163390811784556040519691956001600160a01b0395948694859391908416907f8be0079c531659141344cd1fd0a4f28419497f9722a3daafe3b4186f6b6457e09080a3168560015416176001551683600254161760025516906003541617600355610cdd908161010c8239f35b600080fd5b634e487b7160e01b600052604160045260246000fd5b51906001600160a01b03821682036100dc5756fe6080604052600436101561001257600080fd5b6000803560e01c806335dae104146108ac57806343e8a303146108615780634a80a319146108385780636e204c411461080f578063715018a6146107b55780638da5cb5b1461078e578063ab4b669214610765578063db4a2fb9146101485763f2fde38b1461008057600080fd5b34610145576020366003190112610145576100996109c1565b6100a1610a09565b6001600160a01b039081169081156100f157600054826001600160601b0360a01b821617600055167f8be0079c531659141344cd1fd0a4f28419497f9722a3daafe3b4186f6b6457e0600080a380f35b60405162461bcd60e51b815260206004820152602660248201527f4f776e61626c653a206e6577206f776e657220697320746865207a65726f206160448201526564647265737360d01b6064820152608490fd5b80fd5b5034610145576101c036600319011261014557600480351015610145576024356001600160401b03811161052b576101849036906004016109dc565b90916044356001600160401b03811161052b576101a59036906004016109dc565b936064356001600160401b038111610761576101c59036906004016109dc565b90946084356001600160401b038111610543576101e69036906004016109dc565b95909360c435926001600160a01b03841684036106955760e4356001600160601b038116810361076157610104356001600160a01b0381169003610761576001600160401b036101243516610124350361076157600361014435101561076157610164356001600160401b03811161075d576102669036906004016109dc565b98909b6101a4359b65ffffffffffff8d168d03610759578b610700575b8d8b610699575b50869887996004351560001461055957506001600160401b03610124351615610547576001546102c2906001600160a01b0316610c13565b600354604051919f9196906001600160a01b03166102df88610a61565b6001600160a01b038c811689526020890191909152610104351660408801526001600160601b031660608701526001600160401b036101243516608087015261032e6101443560a08801610af8565b65ffffffffffff1660c0860152369061034692610aa6565b60e08401526101843561010084015260a4356101208401526001600160a01b038c163b15610543576103a094926103b28795936103c493604051988997889763e9a20d0360e01b8952606060048a01526064890191610bf2565b86810360031901602488015291610bf2565b83810360031901604485015290610b1a565b0381836001600160a01b038d165af180156105205790829161052f575b50505b6003546001600160a01b0316803b1561052b57604051634a2e22d360e01b81526001600160a01b03891660048201529082908290602490829084905af180156105205790829161050c575b5050604051926104f8575060043582526020967fc01b322eae12e38220a1cd26e36ca79cc0dc232ff84edb85f0bf8a3224d5d684946104c494919390926104b792916001600160a01b03918216918a16907fcb0d919df2a078ab469ae0bbf066a91eba015762d3990770470f01c860962cd4908c90a360405196608088526080880191610bf2565b9185830388870152610bf2565b60a43560408401526101843560608401526001600160a01b038416929081900390a26040516001600160a01b039091168152f35b634e487b7160e01b81526021600452602490fd5b61051590610a93565b61014557803861042f565b6040513d84823e3d90fd5b5080fd5b61053890610a93565b6101455780386103e1565b8580fd5b604051630c2aa09b60e41b8152600490fd5b9d9650985092935050508395600160043514610579575b505050506103e4565b61061392939a5065ffffffffffff61059a60018060a01b0360025416610c13565b600354604051919d91966001600160601b03916001600160a01b03166105bf89610a61565b6001600160a01b038b81168a5260208a019190915261010435166040890152166060870152610124356001600160401b031660808701526106066101443560a08801610af8565b1660c08501523691610aa6565b60e08201526101843561010082015260a4356101208201526001600160a01b03881690813b156106955761066f839283926040519485809481936311fb959d60e11b835260016004840152604060248401526044830190610b1a565b03925af1801561052057610686575b808080610570565b61068f90610a93565b3861067e565b8280fd5b6106a5908c3691610aa6565b8051602061018435920120036106bb578d61028a565b60405162461bcd60e51b815260206004820152601c60248201527f556e72657665616c6564205552492068617368206d69736d61746368000000006044820152606490fd5b61070b368d8c610aa6565b8051602060a43592012003156102835760405162461bcd60e51b8152602060048201526016602482015275088e4dee040aaa49240d0c2e6d040dad2e6dac2e8c6d60531b6044820152606490fd5b8680fd5b8480fd5b8380fd5b50346101455780600319360112610145576003546040516001600160a01b039091168152602090f35b5034610145578060031936011261014557546040516001600160a01b039091168152602090f35b50346101455780600319360112610145576107ce610a09565b80546001600160a01b03198116825581906001600160a01b03167f8be0079c531659141344cd1fd0a4f28419497f9722a3daafe3b4186f6b6457e08280a380f35b50346101455780600319360112610145576002546040516001600160a01b039091168152602090f35b50346101455780600319360112610145576001546040516001600160a01b039091168152602090f35b503461014557602036600319011261014557600435906001600160401b03821161014557602061089e61089736600486016109dc565b3691610aa6565b818151910120604051908152f35b5034610145576040366003190112610145576108c66109c1565b6001600160a01b036024358181169290839003610761576108e5610a09565b16801561097c57811561093757816001600160601b0360a01b8281600154161760015560025416176002557f8d89b7ca58fec8300cb972e8793011bccc6a8dcf68373e98115621d5cf0adc3c8380a380f35b60405162461bcd60e51b815260206004820152601e60248201527f496e76616c6964204552433131353520696d706c656d656e746174696f6e00006044820152606490fd5b60405162461bcd60e51b815260206004820152601d60248201527f496e76616c69642045524337323120696d706c656d656e746174696f6e0000006044820152606490fd5b600435906001600160a01b03821682036109d757565b600080fd5b9181601f840112156109d7578235916001600160401b0383116109d757602083818601950101116109d757565b6000546001600160a01b03163303610a1d57565b606460405162461bcd60e51b815260206004820152602060248201527f4f776e61626c653a2063616c6c6572206973206e6f7420746865206f776e65726044820152fd5b61014081019081106001600160401b03821117610a7d57604052565b634e487b7160e01b600052604160045260246000fd5b6001600160401b038111610a7d57604052565b9291926001600160401b0391828111610a7d5760405192601f8201601f19908116603f0116840190811184821017610a7d576040528294818452818301116109d7578281602093846000960137010152565b6003821015610b045752565b634e487b7160e01b600052602160045260246000fd5b9060018060a01b038083511682526020908082850151168284015260408401511660408301526001600160601b0360608401511660608301526001600160401b03608084015116608083015260a08301516003811015610b045760a083015265ffffffffffff60c08401511660c083015260e083015190610140918260e08501528051809385015260005b838110610bdd5750505061016092600084838501015261010080820151908401526101208091015190830152601f8019910116010190565b81810183015185820161016001528201610ba5565b908060209392818452848401376000828201840152601f01601f1916010190565b6e5af43d82803e903d91602b57fd5bf390763d602d80600a3d3981f3363d3d373d3d3d363d7300000062ffffff8260881c161760005260781b17602052603760096000f0906001600160a01b03821615610c6957565b60405162461bcd60e51b8152602060048201526016602482015275115490cc4c4d8dce8818dc99585d194819985a5b195960521b6044820152606490fdfea2646970667358221220aae6dc95f474c9c6c321d43bfe1a3074334f031f772fc01b94c699fac1c7c6f264736f6c63430008130033",
  "linkReferences": {},
  "deployedLinkReferences": {}
}