{
  "_format": "hh-sol-artifact-1",
  "contractName": "NFTFactory",
  "sourceName": "contracts/NFTFactory.sol",
  "abi": [
    {
      "inputs": [
        {
          "internalType": "address",
          "name": "_erc721Implementation",
          "type": "address"
        },
        {
          "internalType": "address",
          "name": "_erc1155Implementation",
          "type": "address"
        },
        {
          "internalType": "address",
          "name": "_protocolManager",
          "type": "address"
        }
      ],
      "stateMutability": "nonpayable",
      "type": "constructor"
    },
    {
      "anonymous": false,
      "inputs": [
        {
          "indexed": true,
          "internalType": "address",
          "name": "erc721Implementation",
          "type": "address"
        },
        {
          "indexed": true,
          "internalType": "address",
          "name": "erc1155Implementation",
          "type": "address"
        }
      ],
      "name": "ImplementationAddressesUpdated",
      "type": "event"
    },
    {
      "anonymous": false,
      "inputs": [
        {
          "indexed": true,
          "internalType": "address",
          "name": "previousOwner",
          "type": "address"
        },
        {
          "indexed": true,
          "internalType": "address",
          "name": "newOwner",
          "type": "address"
        }
      ],
      "name": "OwnershipTransferred",
      "type": "event"
    },
    {
      "anonymous": false,
      "inputs": [
        {
          "indexed": true,
          "internalType": "address",
          "name": "collection",
          "type": "address"
        },
        {
          "indexed": true,
          "internalType": "address",
          "name": "creator",
          "type": "address"
        },
        {
          "indexed": false,
          "internalType": "enum PrizeTypes.Standard",
          "name": "standard",
          "type": "uint8"
        }
      ],
      "name": "PrizeCollectionCreated",
      "type": "event"
    },
    {
      "inputs": [
        {
          "internalType": "enum PrizeTypes.Standard",
          "name": "standard",
          "type": "uint8"
        },
        {
          "internalType": "string",
          "name": "name",
          "type": "string"
        },
        {
          "internalType": "string",
          "name": "symbol",
          "type": "string"
        },
        {
          "internalType": "string",
          "name": "baseURI",
          "type": "string"
        },
        {
          "internalType": "address",
          "name": "initialOwner",
          "type": "address"
        },
        {
          "internalType": "uint256",
          "name": "royaltyPercentage",
          "type": "uint256"
        },
        {
          "internalType": "address",
          "name": "royaltyRecipient",
          "type": "address"
        },
        {
          "internalType": "uint256",
          "name": "maxSupply",
          "type": "uint256"
        },
        {
          "internalType": "address",
          "name": "poolAddress",
          "type": "address"
        },
        {
          "internalType": "enum PrizeTypes.RevealType",
          "name": "revealType",
          "type": "uint8"
        },
        {
          "internalType": "string",
          "name": "unrevealedBaseURI",
          "type": "string"
        },
        {
          "internalType": "uint256",
          "name": "revealTime",
          "type": "uint256"
        }
      ],
      "name": "createPrizeCollection",
      "outputs": [
        {
          "internalType": "address",
          "name": "",
          "type": "address"
        }
      ],
      "stateMutability": "nonpayable",
      "type": "function"
    },
    {
      "inputs": [],
      "name": "erc1155Implementation",
      "outputs": [
        {
          "internalType": "address",
          "name": "",
          "type": "address"
        }
      ],
      "stateMutability": "view",
      "type": "function"
    },
    {
      "inputs": [],
      "name": "erc721Implementation",
      "outputs": [
        {
          "internalType": "address",
          "name": "",
          "type": "address"
        }
      ],
      "stateMutability": "view",
      "type": "function"
    },
    {
      "inputs": [],
      "name": "owner",
      "outputs": [
        {
          "internalType": "address",
          "name": "",
          "type": "address"
        }
      ],
      "stateMutability": "view",
      "type": "function"
    },
    {
      "inputs": [],
      "name": "protocolManager",
      "outputs": [
        {
          "internalType": "address",
          "name": "",
          "type": "address"
        }
      ],
      "stateMutability": "view",
      "type": "function"
    },
    {
      "inputs": [],
      "name": "renounceOwnership",
      "outputs": [],
      "stateMutability": "nonpayable",
      "type": "function"
    },
    {
      "inputs": [
        {
          "internalType": "address",
          "name": "newOwner",
          "type": "address"
        }
      ],
      "name": "transferOwnership",
      "outputs": [],
      "stateMutability": "nonpayable",
      "type": "function"
    },
    {
      "inputs": [
        {
          "internalType": "address",
          "name": "_erc721Implementation",
          "type": "address"
        },
        {
          "internalType": "address",
          "name": "_erc1155Implementation",
          "type": "address"
        }
      ],
      "name": "updateImplementationAddresses",
      "outputs": [],
      "stateMutability": "nonpayable",
      "type": "function"
    }
  ],
  "bytecode": "0x6080346100dc57601f610c3c38819003918201601f19168301916001600160401b038311848410176100e1578084926060946040528339810103126100dc57610047816100f7565b61005f6040610058602085016100f7565b93016100f7565b600080546001600160a01b03198082163390811784556040519691956001600160a01b0395948694859391908416907f8be0079c531659141344cd1fd0a4f28419497f9722a3daafe3b4186f6b6457e09080a3168560015416176001551683600254161760025516906003541617600355610b30908161010c8239f35b600080fd5b634e487b7160e01b600052604160045260246000fd5b51906001600160a01b03821682036100dc5756fe6080604052600436101561001257600080fd5b6000803560e01c8063311052911461035d57806335dae1041461023e5780634a80a319146102155780636e204c41146101ec578063715018a6146101925780638da5cb5b1461016b578063ab4b6692146101425763f2fde38b1461007557600080fd5b3461013f57602036600319011261013f5761008e610995565b6100966109ab565b6001600160a01b039081169081156100eb57600054826bffffffffffffffffffffffff60a01b821617600055167f8be0079c531659141344cd1fd0a4f28419497f9722a3daafe3b4186f6b6457e0600080a380f35b60405162461bcd60e51b815260206004820152602660248201527f4f776e61626c653a206e6577206f776e657220697320746865207a65726f206160448201526564647265737360d01b6064820152608490fd5b80fd5b503461013f578060031936011261013f576003546040516001600160a01b039091168152602090f35b503461013f578060031936011261013f57546040516001600160a01b039091168152602090f35b503461013f578060031936011261013f576101ab6109ab565b600080546001600160a01b0319811682556001600160a01b03167f8be0079c531659141344cd1fd0a4f28419497f9722a3daafe3b4186f6b6457e08280a380f35b503461013f578060031936011261013f576002546040516001600160a01b039091168152602090f35b503461013f578060031936011261013f576001546040516001600160a01b039091168152602090f35b503461013f57604036600319011261013f57610258610995565b6001600160a01b036024358181169290839003610358576102776109ab565b1680156103135781156102ce57816bffffffffffffffffffffffff60a01b8281600154161760015560025416176002557f8d89b7ca58fec8300cb972e8793011bccc6a8dcf68373e98115621d5cf0adc3c8380a380f35b60405162461bcd60e51b815260206004820152601e60248201527f496e76616c6964204552433131353520696d706c656d656e746174696f6e00006044820152606490fd5b60405162461bcd60e51b815260206004820152601d60248201527f496e76616c69642045524337323120696d706c656d656e746174696f6e0000006044820152606490fd5b600080fd5b503461013f5761018036600319011261013f5760048035101561013f5767ffffffffffffffff9060243582811161067d5761039c90369060040161093e565b916044358181116108ee576103b590369060040161093e565b9160643582811161067d576103ce90369060040161093e565b608435949093906001600160a01b03861686036108ee5760c435946001600160a01b03861686036108e65761010435946001600160a01b03861686036108ea5760036101243510156108ea5761014435116108e657610433366101443560040161093e565b60035460405163188c824d60e11b815290602090829060049082906001600160a01b03165afa9081156108db578691610899575b50336001600160a01b039091160361084357849585966004351560001461071b575060e435156106d6576001600160a01b03811615610699576001546104b5906001600160a01b0316610a66565b60035490986001600160a01b039182169490918a163b15610695579261058692610508959261052c8a989661051a6040519b8c9a8b9a6376ae860760e01b8c5261018060048d01526101848c0190610a03565b8a81036003190160248c015290610a03565b8881036003190160448a015290610a03565b6001600160a01b03808f166064890152608488019590955260a480359088015290841660c487015260e480359087015292166101048501526105746101248086019035610a43565b83820360031901610144850152610a03565b6101648035908301520381836001600160a01b0389165af1801561067257908291610681575b50505b6003546001600160a01b031692833b1561067d57604051634a2e22d360e01b81526001600160a01b03909116600482018190529382908290602490829084905af180156106725790829161065e575b50506040519161064a575060043581526020926001600160a01b03169082907fcb0d919df2a078ab469ae0bbf066a91eba015762d3990770470f01c860962cd4908590a3604051908152f35b634e487b7160e01b81526021600452602490fd5b610667906108f2565b61013f5780386105fe565b6040513d84823e3d90fd5b5080fd5b61068a906108f2565b61013f5780386105ac565b8780fd5b60405162461bcd60e51b8152602060048201526015602482015274141bdbdb081859191c995cdcc81c995c5d5a5c9959605a1b6044820152606490fd5b60405162461bcd60e51b815260206004820152601e60248201527f4d617820737570706c7920726571756972656420666f722045524337323100006044820152606490fd5b97965091935091508394600160043514610739575b505050506105af565b909192955061075160018060a01b0360025416610a66565b60035490966001600160a01b0391821693909188163b1561083f5790859392916107f88a604051978896879663bea9cd6560e01b8852610160600489015261079f61016497888a0190610a03565b9360018060a01b0316602489015260a435604489015260018060a01b031660648801526084870152600160a487015260e43560c48701526107e660e4870161012435610a43565b85820360031901610104870152610a03565b91356101248401526001600160a01b03908116610144840152919003908290849089165af1801561067257610830575b808080610730565b610839906108f2565b38610828565b8580fd5b60405162461bcd60e51b815260206004820152602860248201527f4f6e6c7920506f6f6c4465706c6f7965722063616e206465706c6f7920636f6c6044820152676c656374696f6e7360c01b6064820152608490fd5b90506020813d6020116108d3575b816108b46020938361091c565b8101031261083f57516001600160a01b038116810361083f5738610467565b3d91506108a7565b6040513d88823e3d90fd5b8380fd5b8480fd5b8280fd5b67ffffffffffffffff811161090657604052565b634e487b7160e01b600052604160045260246000fd5b90601f8019910116810190811067ffffffffffffffff82111761090657604052565b81601f820112156103585780359067ffffffffffffffff82116109065760405192610973601f8401601f19166020018561091c565b8284526020838301011161035857816000926020809301838601378301015290565b600435906001600160a01b038216820361035857565b6000546001600160a01b031633036109bf57565b606460405162461bcd60e51b815260206004820152602060248201527f4f776e61626c653a2063616c6c6572206973206e6f7420746865206f776e65726044820152fd5b919082519283825260005b848110610a2f575050826000602080949584010152601f8019910116010190565b602081830181015184830182015201610a0e565b906003821015610a505752565b634e487b7160e01b600052602160045260246000fd5b6e5af43d82803e903d91602b57fd5bf390763d602d80600a3d3981f3363d3d373d3d3d363d7300000062ffffff8260881c161760005260781b17602052603760096000f0906001600160a01b03821615610abc57565b60405162461bcd60e51b8152602060048201526016602482015275115490cc4c4d8dce8818dc99585d194819985a5b195960521b6044820152606490fdfea2646970667358221220c7bf8d39604220cdbc948cc9626108245fcd42d3fc440ba6295b6a37f2ae8c7e64736f6c63430008130033",
  "linkReferences": {},
  "deployedLinkReferences": {}
}