{
  "_format": "hh-sol-artifact-1",
  "contractName": "NFTFactory",
  "sourceName": "contracts/NFTFactory.sol",
  "abi": [
    {
      "inputs": [
        {
          "internalType": "address",
          "name": "_erc721Implementation",
          "type": "address"
        },
        {
          "internalType": "address",
          "name": "_erc1155Implementation",
          "type": "address"
        },
        {
          "internalType": "address",
          "name": "_protocolManager",
          "type": "address"
        }
      ],
      "stateMutability": "nonpayable",
      "type": "constructor"
    },
    {
      "anonymous": false,
      "inputs": [
        {
          "indexed": true,
          "internalType": "address",
          "name": "erc721Implementation",
          "type": "address"
        },
        {
          "indexed": true,
          "internalType": "address",
          "name": "erc1155Implementation",
          "type": "address"
        }
      ],
      "name": "ImplementationAddressesUpdated",
      "type": "event"
    },
    {
      "anonymous": false,
      "inputs": [
        {
          "indexed": true,
          "internalType": "address",
          "name": "previousOwner",
          "type": "address"
        },
        {
          "indexed": true,
          "internalType": "address",
          "name": "newOwner",
          "type": "address"
        }
      ],
      "name": "OwnershipTransferred",
      "type": "event"
    },
    {
      "anonymous": false,
      "inputs": [
        {
          "indexed": true,
          "internalType": "address",
          "name": "collection",
          "type": "address"
        },
        {
          "indexed": true,
          "internalType": "address",
          "name": "creator",
          "type": "address"
        },
        {
          "indexed": false,
          "internalType": "enum PrizeTypes.Standard",
          "name": "standard",
          "type": "uint8"
        }
      ],
      "name": "PrizeCollectionCreated",
      "type": "event"
    },
    {
      "inputs": [
        {
          "internalType": "enum PrizeTypes.Standard",
          "name": "standard",
          "type": "uint8"
        },
        {
          "internalType": "string",
          "name": "name",
          "type": "string"
        },
        {
          "internalType": "string",
          "name": "symbol",
          "type": "string"
        },
        {
          "internalType": "string",
          "name": "baseURI",
          "type": "string"
        },
        {
          "internalType": "address",
          "name": "initialOwner",
          "type": "address"
        },
        {
          "internalType": "uint256",
          "name": "royaltyPercentage",
          "type": "uint256"
        },
        {
          "internalType": "address",
          "name": "royaltyRecipient",
          "type": "address"
        },
        {
          "internalType": "uint256",
          "name": "maxSupply",
          "type": "uint256"
        },
        {
          "internalType": "enum PrizeTypes.RevealType",
          "name": "revealType",
          "type": "uint8"
        },
        {
          "internalType": "string",
          "name": "unrevealedBaseURI",
          "type": "string"
        },
        {
          "internalType": "uint256",
          "name": "revealTime",
          "type": "uint256"
        }
      ],
      "name": "createPrizeCollection",
      "outputs": [
        {
          "internalType": "address",
          "name": "",
          "type": "address"
        }
      ],
      "stateMutability": "nonpayable",
      "type": "function"
    },
    {
      "inputs": [],
      "name": "erc1155Implementation",
      "outputs": [
        {
          "internalType": "address",
          "name": "",
          "type": "address"
        }
      ],
      "stateMutability": "view",
      "type": "function"
    },
    {
      "inputs": [],
      "name": "erc721Implementation",
      "outputs": [
        {
          "internalType": "address",
          "name": "",
          "type": "address"
        }
      ],
      "stateMutability": "view",
      "type": "function"
    },
    {
      "inputs": [],
      "name": "owner",
      "outputs": [
        {
          "internalType": "address",
          "name": "",
          "type": "address"
        }
      ],
      "stateMutability": "view",
      "type": "function"
    },
    {
      "inputs": [],
      "name": "protocolManager",
      "outputs": [
        {
          "internalType": "address",
          "name": "",
          "type": "address"
        }
      ],
      "stateMutability": "view",
      "type": "function"
    },
    {
      "inputs": [],
      "name": "renounceOwnership",
      "outputs": [],
      "stateMutability": "nonpayable",
      "type": "function"
    },
    {
      "inputs": [
        {
          "internalType": "address",
          "name": "newOwner",
          "type": "address"
        }
      ],
      "name": "transferOwnership",
      "outputs": [],
      "stateMutability": "nonpayable",
      "type": "function"
    },
    {
      "inputs": [
        {
          "internalType": "address",
          "name": "_erc721Implementation",
          "type": "address"
        },
        {
          "internalType": "address",
          "name": "_erc1155Implementation",
          "type": "address"
        }
      ],
      "name": "updateImplementationAddresses",
      "outputs": [],
      "stateMutability": "nonpayable",
      "type": "function"
    }
  ],
  "bytecode": "0x6080346100dc57601f610c9938819003918201601f19168301916001600160401b038311848410176100e1578084926060946040528339810103126100dc57610047816100f7565b61005f6040610058602085016100f7565b93016100f7565b600080546001600160a01b03198082163390811784556040519691956001600160a01b0395948694859391908416907f8be0079c531659141344cd1fd0a4f28419497f9722a3daafe3b4186f6b6457e09080a3168560015416176001551683600254161760025516906003541617600355610b8d908161010c8239f35b600080fd5b634e487b7160e01b600052604160045260246000fd5b51906001600160a01b03821682036100dc5756fe6080604052600436101561001257600080fd5b6000803560e01c806335dae104146107765780634a80a3191461074d5780636e204c4114610724578063715018a6146106ca57806381a991f1146101925780638da5cb5b1461016b578063ab4b6692146101425763f2fde38b1461007557600080fd5b3461013f57602036600319011261013f5761008e610890565b610096610986565b6001600160a01b039081169081156100eb57600054826bffffffffffffffffffffffff60a01b821617600055167f8be0079c531659141344cd1fd0a4f28419497f9722a3daafe3b4186f6b6457e0600080a380f35b60405162461bcd60e51b815260206004820152602660248201527f4f776e61626c653a206e6577206f776e657220697320746865207a65726f206160448201526564647265737360d01b6064820152608490fd5b80fd5b503461013f578060031936011261013f576003546040516001600160a01b039091168152602090f35b503461013f578060031936011261013f57546040516001600160a01b039091168152602090f35b503461013f5761016036600319011261013f5760048035101561013f5767ffffffffffffffff6024358181116106c6576101d090369060040161092f565b60443582811161061b576101e890369060040161092f565b926064358381116104955761020190369060040161092f565b60843594906001600160a01b03861686036106c65760c435946001600160a01b038616860361061b57600361010435101561061b576101243590811161061b5761024f90369060040161092f565b60035460405163188c824d60e11b815291959190602090829060049082906001600160a01b03165afa9081156106bb578591610675575b50336001600160a01b039091160361061f5783948495600435156000146104f6575060e435156104b1576001546102c5906001600160a01b0316610ac3565b6003546040519198906001600160a01b03166102e0836108ab565b6001600160a01b038b81168452602084019190915216604082015260a435606082015260e435608082015261031b6101043560a083016109de565b61014491823560c083015260405194610333866108dd565b855260208501526001600160a01b03881693843b156104ad578694926103b2610383959387936103a06103956040519b8c9a8b998a98631ead933160e31b8a5261014060048b0152890190610a56565b87810360031901602489015290610a56565b926044860190610a00565b83820360031901610124850152610a96565b03925af1801561048a57908291610499575b50505b6003546001600160a01b031692833b1561049557604051634a2e22d360e01b81526001600160a01b03909116600482018190529382908290602490829084905af1801561048a57908291610476575b505060405191610462575060043581526020926001600160a01b03169082907fcb0d919df2a078ab469ae0bbf066a91eba015762d3990770470f01c860962cd4908590a3604051908152f35b634e487b7160e01b81526021600452602490fd5b61047f906108f9565b61013f578038610416565b6040513d84823e3d90fd5b5080fd5b6104a2906108f9565b61013f5780386103c4565b8680fd5b60405162461bcd60e51b815260206004820152601e60248201527f4d617820737570706c7920726571756972656420666f722045524337323100006044820152606490fd5b9695509250508293600160043514610511575b5050506103c7565b600254929550909161052b906001600160a01b0316610ac3565b60035460405191969192906001600160a01b0316610548846108ab565b6001600160a01b038981168552602085019190915216604083015260a435606083015260e43560808301526105836101043560a084016109de565b6101443560c083015260405192610599846108dd565b835260208301526001600160a01b03851690813b1561061b579183916105e2836105f6956040519687958694859363daaa25fd60e01b8552600160048601526024850190610a00565b610120610104840152610124830190610a96565b03925af1801561048a5761060c575b8080610509565b610615906108f9565b38610605565b8380fd5b60405162461bcd60e51b815260206004820152602860248201527f4f6e6c7920506f6f6c4465706c6f7965722063616e206465706c6f7920636f6c6044820152676c656374696f6e7360c01b6064820152608490fd5b90506020813d6020116106b3575b816106906020938361090d565b810103126106af57516001600160a01b03811681036106af5738610286565b8480fd5b3d9150610683565b6040513d87823e3d90fd5b8280fd5b503461013f578060031936011261013f576106e3610986565b80546001600160a01b03198116825581906001600160a01b03167f8be0079c531659141344cd1fd0a4f28419497f9722a3daafe3b4186f6b6457e08280a380f35b503461013f578060031936011261013f576002546040516001600160a01b039091168152602090f35b503461013f578060031936011261013f576001546040516001600160a01b039091168152602090f35b503461013f57604036600319011261013f57610790610890565b6001600160a01b03602435818116929083900361061b576107af610986565b16801561084b57811561080657816bffffffffffffffffffffffff60a01b8281600154161760015560025416176002557f8d89b7ca58fec8300cb972e8793011bccc6a8dcf68373e98115621d5cf0adc3c8380a380f35b60405162461bcd60e51b815260206004820152601e60248201527f496e76616c6964204552433131353520696d706c656d656e746174696f6e00006044820152606490fd5b60405162461bcd60e51b815260206004820152601d60248201527f496e76616c69642045524337323120696d706c656d656e746174696f6e0000006044820152606490fd5b600435906001600160a01b03821682036108a657565b600080fd5b60e0810190811067ffffffffffffffff8211176108c757604052565b634e487b7160e01b600052604160045260246000fd5b6040810190811067ffffffffffffffff8211176108c757604052565b67ffffffffffffffff81116108c757604052565b90601f8019910116810190811067ffffffffffffffff8211176108c757604052565b81601f820112156108a65780359067ffffffffffffffff82116108c75760405192610964601f8401601f19166020018561090d565b828452602083830101116108a657816000926020809301838601378301015290565b6000546001600160a01b0316330361099a57565b606460405162461bcd60e51b815260206004820152602060248201527f4f776e61626c653a2063616c6c6572206973206e6f7420746865206f776e65726044820152fd5b60038210156109ea5752565b634e487b7160e01b600052602160045260246000fd5b60018060a01b038082511683528060208301511660208401526040820151166040830152606081015160608301526080810151608083015260a081015160038110156109ea5760a083015260c090810151910152565b919082519283825260005b848110610a82575050826000602080949584010152601f8019910116010190565b602081830181015184830182015201610a61565b610ac0916020610aaf8351604084526040840190610a56565b920151906020818403910152610a56565b90565b6e5af43d82803e903d91602b57fd5bf390763d602d80600a3d3981f3363d3d373d3d3d363d7300000062ffffff8260881c161760005260781b17602052603760096000f0906001600160a01b03821615610b1957565b60405162461bcd60e51b8152602060048201526016602482015275115490cc4c4d8dce8818dc99585d194819985a5b195960521b6044820152606490fdfea2646970667358221220c47e2ac882e151b10bddc67a6efbeef91e9b446f39ba709df3ccaefa06cd347e64736f6c63430008130033",
  "linkReferences": {},
  "deployedLinkReferences": {}
}