{
  "_format": "hh-sol-artifact-1",
  "contractName": "Pool",
  "sourceName": "contracts/Pool.sol",
  "abi": [
    {
      "inputs": [
        {
          "internalType": "address",
          "name": "_factory",
          "type": "address"
        }
      ],
      "stateMutability": "nonpayable",
      "type": "constructor"
    },
    {
      "inputs": [],
      "name": "ArrayLengthMismatch",
      "type": "error"
    },
    {
      "inputs": [],
      "name": "BatchTooLarge",
      "type": "error"
    },
    {
      "inputs": [],
      "name": "ContractsCannotPurchase",
      "type": "error"
    },
    {
      "inputs": [],
      "name": "CreatorNotAllowed",
      "type": "error"
    },
    {
      "inputs": [],
      "name": "ExceedsMaxSlots",
      "type": "error"
    },
    {
      "inputs": [],
      "name": "ExceedsSlotLimit",
      "type": "error"
    },
    {
      "inputs": [],
      "name": "ExceedsWinnersCount",
      "type": "error"
    },
    {
      "inputs": [],
      "name": "IncorrectPayment",
      "type": "error"
    },
    {
      "inputs": [],
      "name": "InvalidNonPrizedPurchase",
      "type": "error"
    },
    {
      "inputs": [],
      "name": "InvalidPoolState",
      "type": "error"
    },
    {
      "inputs": [],
      "name": "InvalidPrizeAmount",
      "type": "error"
    },
    {
      "inputs": [],
      "name": "InvalidPrizeCollection",
      "type": "error"
    },
    {
      "inputs": [],
      "name": "InvalidPrizeType",
      "type": "error"
    },
    {
      "inputs": [],
      "name": "InvalidState",
      "type": "error"
    },
    {
      "inputs": [],
      "name": "InvalidWinnerAddress",
      "type": "error"
    },
    {
      "inputs": [],
      "name": "MintingNotSupported",
      "type": "error"
    },
    {
      "inputs": [],
      "name": "NoPrizesClaimedYet",
      "type": "error"
    },
    {
      "inputs": [],
      "name": "NoPrizesToClaim",
      "type": "error"
    },
    {
      "inputs": [],
      "name": "NotAWinner",
      "type": "error"
    },
    {
      "inputs": [],
      "name": "OnlyOperator",
      "type": "error"
    },
    {
      "inputs": [],
      "name": "PoolDurationElapsed",
      "type": "error"
    },
    {
      "inputs": [],
      "name": "PoolNotActive",
      "type": "error"
    },
    {
      "inputs": [],
      "name": "PrizeTransferFailed",
      "type": "error"
    },
    {
      "inputs": [],
      "name": "ProtocolAdminNotAllowed",
      "type": "error"
    },
    {
      "inputs": [],
      "name": "SocialEngagementNotConfigured",
      "type": "error"
    },
    {
      "inputs": [],
      "name": "TimestampDelayIssue",
      "type": "error"
    },
    {
      "inputs": [],
      "name": "UnauthorizedCaller",
      "type": "error"
    },
    {
      "inputs": [],
      "name": "ZeroAddress",
      "type": "error"
    },
    {
      "inputs": [],
      "name": "ZeroQuantity",
      "type": "error"
    },
    {
      "inputs": [],
      "name": "ZeroSlotFee",
      "type": "error"
    },
    {
      "anonymous": false,
      "inputs": [
        {
          "indexed": false,
          "internalType": "string",
          "name": "reason",
          "type": "string"
        }
      ],
      "name": "BatchProcessingFailed",
      "type": "event"
    },
    {
      "anonymous": false,
      "inputs": [
        {
          "indexed": false,
          "internalType": "bytes",
          "name": "lowLevelData",
          "type": "bytes"
        }
      ],
      "name": "BatchProcessingFailedBytes",
      "type": "event"
    },
    {
      "anonymous": false,
      "inputs": [],
      "name": "FullRefundEnabledForDeletion",
      "type": "event"
    },
    {
      "anonymous": false,
      "inputs": [
        {
          "indexed": true,
          "internalType": "address",
          "name": "participant",
          "type": "address"
        },
        {
          "indexed": false,
          "internalType": "uint256",
          "name": "amount",
          "type": "uint256"
        }
      ],
      "name": "FullRefundForDeletion",
      "type": "event"
    },
    {
      "anonymous": false,
      "inputs": [
        {
          "indexed": true,
          "internalType": "address",
          "name": "winner",
          "type": "address"
        },
        {
          "indexed": false,
          "internalType": "string",
          "name": "reason",
          "type": "string"
        }
      ],
      "name": "MintingFailed",
      "type": "event"
    },
    {
      "anonymous": false,
      "inputs": [
        {
          "indexed": true,
          "internalType": "address",
          "name": "previousOwner",
          "type": "address"
        },
        {
          "indexed": true,
          "internalType": "address",
          "name": "newOwner",
          "type": "address"
        }
      ],
      "name": "OwnershipTransferred",
      "type": "event"
    },
    {
      "anonymous": false,
      "inputs": [
        {
          "indexed": false,
          "internalType": "address",
          "name": "account",
          "type": "address"
        }
      ],
      "name": "Paused",
      "type": "event"
    },
    {
      "anonymous": false,
      "inputs": [],
      "name": "PoolActivated",
      "type": "event"
    },
    {
      "anonymous": false,
      "inputs": [],
      "name": "PoolDeleted",
      "type": "event"
    },
    {
      "anonymous": false,
      "inputs": [],
      "name": "PoolEnded",
      "type": "event"
    },
    {
      "anonymous": false,
      "inputs": [],
      "name": "PoolUnengaged",
      "type": "event"
    },
    {
      "anonymous": false,
      "inputs": [
        {
          "indexed": true,
          "internalType": "address",
          "name": "winner",
          "type": "address"
        },
        {
          "indexed": false,
          "internalType": "uint256",
          "name": "tokenId",
          "type": "uint256"
        }
      ],
      "name": "PrizeClaimed",
      "type": "event"
    },
    {
      "anonymous": false,
      "inputs": [
        {
          "indexed": false,
          "internalType": "uint256",
          "name": "requestId",
          "type": "uint256"
        }
      ],
      "name": "RandomRequested",
      "type": "event"
    },
    {
      "anonymous": false,
      "inputs": [
        {
          "indexed": true,
          "internalType": "address",
          "name": "participant",
          "type": "address"
        },
        {
          "indexed": false,
          "internalType": "uint256",
          "name": "amount",
          "type": "uint256"
        }
      ],
      "name": "RefundClaimed",
      "type": "event"
    },
    {
      "anonymous": false,
      "inputs": [
        {
          "indexed": true,
          "internalType": "address",
          "name": "recipient",
          "type": "address"
        },
        {
          "indexed": false,
          "internalType": "uint256",
          "name": "amount",
          "type": "uint256"
        }
      ],
      "name": "RevenueWithdrawn",
      "type": "event"
    },
    {
      "anonymous": false,
      "inputs": [
        {
          "indexed": true,
          "internalType": "uint256",
          "name": "batchNumber",
          "type": "uint256"
        },
        {
          "indexed": false,
          "internalType": "uint256",
          "name": "participantCount",
          "type": "uint256"
        },
        {
          "indexed": false,
          "internalType": "uint256",
          "name": "shuffleStartIndex",
          "type": "uint256"
        },
        {
          "indexed": false,
          "internalType": "uint256",
          "name": "batchSize",
          "type": "uint256"
        }
      ],
      "name": "SelectionStarted",
      "type": "event"
    },
    {
      "anonymous": false,
      "inputs": [
        {
          "indexed": true,
          "internalType": "address",
          "name": "participant",
          "type": "address"
        },
        {
          "indexed": false,
          "internalType": "uint256",
          "name": "quantity",
          "type": "uint256"
        }
      ],
      "name": "SlotsPurchased",
      "type": "event"
    },
    {
      "anonymous": false,
      "inputs": [
        {
          "indexed": false,
          "internalType": "address",
          "name": "account",
          "type": "address"
        }
      ],
      "name": "Unpaused",
      "type": "event"
    },
    {
      "anonymous": false,
      "inputs": [
        {
          "indexed": false,
          "internalType": "string",
          "name": "reason",
          "type": "string"
        }
      ],
      "name": "VRFRequestFailed",
      "type": "event"
    },
    {
      "anonymous": false,
      "inputs": [
        {
          "indexed": false,
          "internalType": "bytes",
          "name": "lowLevelData",
          "type": "bytes"
        }
      ],
      "name": "VRFRequestFailedBytes",
      "type": "event"
    },
    {
      "anonymous": false,
      "inputs": [
        {
          "indexed": false,
          "internalType": "address[]",
          "name": "winners",
          "type": "address[]"
        }
      ],
      "name": "WinnersSelected",
      "type": "event"
    },
    {
      "inputs": [
        {
          "internalType": "uint256",
          "name": "batchRandomSeed",
          "type": "uint256"
        }
      ],
      "name": "_processBatchWithRandomness",
      "outputs": [],
      "stateMutability": "nonpayable",
      "type": "function"
    },
    {
      "inputs": [],
      "name": "amountPerWinner",
      "outputs": [
        {
          "internalType": "uint256",
          "name": "",
          "type": "uint256"
        }
      ],
      "stateMutability": "view",
      "type": "function"
    },
    {
      "inputs": [],
      "name": "batchCount",
      "outputs": [
        {
          "internalType": "uint256",
          "name": "",
          "type": "uint256"
        }
      ],
      "stateMutability": "view",
      "type": "function"
    },
    {
      "inputs": [
        {
          "internalType": "address[]",
          "name": "winnerAddresses",
          "type": "address[]"
        },
        {
          "internalType": "uint256[]",
          "name": "quantities",
          "type": "uint256[]"
        }
      ],
      "name": "batchMintToWinners",
      "outputs": [],
      "stateMutability": "nonpayable",
      "type": "function"
    },
    {
      "inputs": [
        {
          "internalType": "uint256",
          "name": "",
          "type": "uint256"
        }
      ],
      "name": "batchRandomSeeds",
      "outputs": [
        {
          "internalType": "uint256",
          "name": "",
          "type": "uint256"
        }
      ],
      "stateMutability": "view",
      "type": "function"
    },
    {
      "inputs": [],
      "name": "claimPrize",
      "outputs": [],
      "stateMutability": "nonpayable",
      "type": "function"
    },
    {
      "inputs": [],
      "name": "claimRefund",
      "outputs": [],
      "stateMutability": "nonpayable",
      "type": "function"
    },
    {
      "inputs": [
        {
          "internalType": "address",
          "name": "",
          "type": "address"
        }
      ],
      "name": "claimedWins",
      "outputs": [
        {
          "internalType": "uint256",
          "name": "",
          "type": "uint256"
        }
      ],
      "stateMutability": "view",
      "type": "function"
    },
    {
      "inputs": [],
      "name": "closePool",
      "outputs": [],
      "stateMutability": "nonpayable",
      "type": "function"
    },
    {
      "inputs": [],
      "name": "creationFeePercentage",
      "outputs": [
        {
          "internalType": "uint256",
          "name": "",
          "type": "uint256"
        }
      ],
      "stateMutability": "view",
      "type": "function"
    },
    {
      "inputs": [],
      "name": "creator",
      "outputs": [
        {
          "internalType": "address",
          "name": "",
          "type": "address"
        }
      ],
      "stateMutability": "view",
      "type": "function"
    },
    {
      "inputs": [],
      "name": "currentBatchSize",
      "outputs": [
        {
          "internalType": "uint256",
          "name": "",
          "type": "uint256"
        }
      ],
      "stateMutability": "view",
      "type": "function"
    },
    {
      "inputs": [],
      "name": "deletePool",
      "outputs": [],
      "stateMutability": "nonpayable",
      "type": "function"
    },
    {
      "inputs": [],
      "name": "duration",
      "outputs": [
        {
          "internalType": "uint256",
          "name": "",
          "type": "uint256"
        }
      ],
      "stateMutability": "view",
      "type": "function"
    },
    {
      "inputs": [],
      "name": "endTime",
      "outputs": [
        {
          "internalType": "uint256",
          "name": "",
          "type": "uint256"
        }
      ],
      "stateMutability": "view",
      "type": "function"
    },
    {
      "inputs": [],
      "name": "erc20PrizeAmount",
      "outputs": [
        {
          "internalType": "uint256",
          "name": "",
          "type": "uint256"
        }
      ],
      "stateMutability": "view",
      "type": "function"
    },
    {
      "inputs": [],
      "name": "erc20PrizeToken",
      "outputs": [
        {
          "internalType": "address",
          "name": "",
          "type": "address"
        }
      ],
      "stateMutability": "view",
      "type": "function"
    },
    {
      "inputs": [],
      "name": "erc721EscrowClaimed",
      "outputs": [
        {
          "internalType": "bool",
          "name": "",
          "type": "bool"
        }
      ],
      "stateMutability": "view",
      "type": "function"
    },
    {
      "inputs": [],
      "name": "getParticipantsCount",
      "outputs": [
        {
          "internalType": "uint256",
          "name": "",
          "type": "uint256"
        }
      ],
      "stateMutability": "view",
      "type": "function"
    },
    {
      "inputs": [
        {
          "internalType": "address",
          "name": "participant",
          "type": "address"
        }
      ],
      "name": "getRefundableAmount",
      "outputs": [
        {
          "internalType": "uint256",
          "name": "",
          "type": "uint256"
        }
      ],
      "stateMutability": "view",
      "type": "function"
    },
    {
      "inputs": [],
      "name": "getSlotLimit",
      "outputs": [
        {
          "internalType": "uint256",
          "name": "",
          "type": "uint256"
        }
      ],
      "stateMutability": "view",
      "type": "function"
    },
    {
      "inputs": [
        {
          "internalType": "address",
          "name": "participant",
          "type": "address"
        }
      ],
      "name": "getSlotsPurchased",
      "outputs": [
        {
          "internalType": "uint256",
          "name": "",
          "type": "uint256"
        }
      ],
      "stateMutability": "view",
      "type": "function"
    },
    {
      "inputs": [
        {
          "internalType": "address",
          "name": "",
          "type": "address"
        }
      ],
      "name": "hasClaimedFeeRefund",
      "outputs": [
        {
          "internalType": "bool",
          "name": "",
          "type": "bool"
        }
      ],
      "stateMutability": "view",
      "type": "function"
    },
    {
      "inputs": [
        {
          "internalType": "address",
          "name": "",
          "type": "address"
        }
      ],
      "name": "hasCompletedSocialEngagement",
      "outputs": [
        {
          "internalType": "bool",
          "name": "",
          "type": "bool"
        }
      ],
      "stateMutability": "view",
      "type": "function"
    },
    {
      "inputs": [],
      "name": "holderData",
      "outputs": [
        {
          "internalType": "address",
          "name": "holderTokenAddress",
          "type": "address"
        },
        {
          "internalType": "enum PrizeTypes.Standard",
          "name": "holderTokenStandard",
          "type": "uint8"
        },
        {
          "internalType": "uint256",
          "name": "minHolderTokenBalance",
          "type": "uint256"
        },
        {
          "internalType": "uint256",
          "name": "holderTokenId",
          "type": "uint256"
        }
      ],
      "stateMutability": "view",
      "type": "function"
    },
    {
      "inputs": [],
      "name": "holderTokenAddress",
      "outputs": [
        {
          "internalType": "address",
          "name": "",
          "type": "address"
        }
      ],
      "stateMutability": "view",
      "type": "function"
    },
    {
      "inputs": [],
      "name": "holderTokenId",
      "outputs": [
        {
          "internalType": "uint256",
          "name": "",
          "type": "uint256"
        }
      ],
      "stateMutability": "view",
      "type": "function"
    },
    {
      "inputs": [],
      "name": "holderTokenStandard",
      "outputs": [
        {
          "internalType": "enum PrizeTypes.Standard",
          "name": "",
          "type": "uint8"
        }
      ],
      "stateMutability": "view",
      "type": "function"
    },
    {
      "inputs": [],
      "name": "i_vrfCoordinator",
      "outputs": [
        {
          "internalType": "contract VRFCoordinatorV2PlusInterface",
          "name": "",
          "type": "address"
        }
      ],
      "stateMutability": "view",
      "type": "function"
    },
    {
      "inputs": [
        {
          "components": [
            {
              "internalType": "address",
              "name": "manager",
              "type": "address"
            },
            {
              "internalType": "address",
              "name": "creator",
              "type": "address"
            },
            {
              "internalType": "address",
              "name": "revenueRecipient",
              "type": "address"
            },
            {
              "internalType": "string",
              "name": "name",
              "type": "string"
            },
            {
              "internalType": "uint256",
              "name": "startTime",
              "type": "uint256"
            },
            {
              "internalType": "uint256",
              "name": "duration",
              "type": "uint256"
            },
            {
              "internalType": "uint256",
              "name": "slotLimit",
              "type": "uint256"
            },
            {
              "internalType": "uint256",
              "name": "slotFee",
              "type": "uint256"
            },
            {
              "internalType": "uint256",
              "name": "maxSlotsPerParticipant",
              "type": "uint256"
            },
            {
              "internalType": "uint256",
              "name": "winnersCount",
              "type": "uint256"
            },
            {
              "internalType": "bool",
              "name": "isPrized",
              "type": "bool"
            },
            {
              "internalType": "bool",
              "name": "isCollabPool",
              "type": "bool"
            },
            {
              "internalType": "bool",
              "name": "usesCustomFee",
              "type": "bool"
            },
            {
              "internalType": "bool",
              "name": "isExternalPrizeCollection",
              "type": "bool"
            }
          ],
          "internalType": "struct Pool.PoolConfig",
          "name": "_poolConfig",
          "type": "tuple"
        },
        {
          "components": [
            {
              "internalType": "enum PrizeTypes.Standard",
              "name": "standard",
              "type": "uint8"
            },
            {
              "internalType": "address",
              "name": "prizeCollection",
              "type": "address"
            },
            {
              "internalType": "uint256",
              "name": "prizeTokenId",
              "type": "uint256"
            },
            {
              "internalType": "uint256",
              "name": "amountPerWinner",
              "type": "uint256"
            },
            {
              "internalType": "address",
              "name": "erc20PrizeToken",
              "type": "address"
            },
            {
              "internalType": "uint256",
              "name": "erc20PrizeAmount",
              "type": "uint256"
            },
            {
              "internalType": "uint256",
              "name": "nativePrizeAmount",
              "type": "uint256"
            },
            {
              "internalType": "bool",
              "name": "isEscrowedPrize",
              "type": "bool"
            }
          ],
          "internalType": "struct Pool.PrizeConfig",
          "name": "_prizeConfig",
          "type": "tuple"
        },
        {
          "components": [
            {
              "internalType": "address",
              "name": "holderTokenAddress",
              "type": "address"
            },
            {
              "internalType": "enum PrizeTypes.Standard",
              "name": "holderTokenStandard",
              "type": "uint8"
            },
            {
              "internalType": "uint256",
              "name": "minHolderTokenBalance",
              "type": "uint256"
            },
            {
              "internalType": "uint256",
              "name": "holderTokenId",
              "type": "uint256"
            }
          ],
          "internalType": "struct Pool.HolderConfig",
          "name": "_holderConfig",
          "type": "tuple"
        },
        {
          "components": [
            {
              "internalType": "bool",
              "name": "required",
              "type": "bool"
            }
          ],
          "internalType": "struct Pool.SocialConfig",
          "name": "_socialConfig",
          "type": "tuple"
        }
      ],
      "name": "initialize",
      "outputs": [],
      "stateMutability": "payable",
      "type": "function"
    },
    {
      "inputs": [],
      "name": "isCollabPool",
      "outputs": [
        {
          "internalType": "bool",
          "name": "",
          "type": "bool"
        }
      ],
      "stateMutability": "view",
      "type": "function"
    },
    {
      "inputs": [],
      "name": "isEscrowedPrize",
      "outputs": [
        {
          "internalType": "bool",
          "name": "",
          "type": "bool"
        }
      ],
      "stateMutability": "view",
      "type": "function"
    },
    {
      "inputs": [],
      "name": "isExternalPrizeCollection",
      "outputs": [
        {
          "internalType": "bool",
          "name": "",
          "type": "bool"
        }
      ],
      "stateMutability": "view",
      "type": "function"
    },
    {
      "inputs": [],
      "name": "isPrized",
      "outputs": [
        {
          "internalType": "bool",
          "name": "",
          "type": "bool"
        }
      ],
      "stateMutability": "view",
      "type": "function"
    },
    {
      "inputs": [],
      "name": "isRefundable",
      "outputs": [
        {
          "internalType": "bool",
          "name": "",
          "type": "bool"
        }
      ],
      "stateMutability": "view",
      "type": "function"
    },
    {
      "inputs": [],
      "name": "maxSlotsPerParticipant",
      "outputs": [
        {
          "internalType": "uint256",
          "name": "",
          "type": "uint256"
        }
      ],
      "stateMutability": "view",
      "type": "function"
    },
    {
      "inputs": [],
      "name": "minHolderTokenBalance",
      "outputs": [
        {
          "internalType": "uint256",
          "name": "",
          "type": "uint256"
        }
      ],
      "stateMutability": "view",
      "type": "function"
    },
    {
      "inputs": [],
      "name": "mint",
      "outputs": [],
      "stateMutability": "nonpayable",
      "type": "function"
    },
    {
      "inputs": [],
      "name": "name",
      "outputs": [
        {
          "internalType": "string",
          "name": "",
          "type": "string"
        }
      ],
      "stateMutability": "view",
      "type": "function"
    },
    {
      "inputs": [],
      "name": "nativePrizeAmount",
      "outputs": [
        {
          "internalType": "uint256",
          "name": "",
          "type": "uint256"
        }
      ],
      "stateMutability": "view",
      "type": "function"
    },
    {
      "inputs": [
        {
          "internalType": "address",
          "name": "",
          "type": "address"
        },
        {
          "internalType": "address",
          "name": "",
          "type": "address"
        },
        {
          "internalType": "uint256[]",
          "name": "",
          "type": "uint256[]"
        },
        {
          "internalType": "uint256[]",
          "name": "",
          "type": "uint256[]"
        },
        {
          "internalType": "bytes",
          "name": "",
          "type": "bytes"
        }
      ],
      "name": "onERC1155BatchReceived",
      "outputs": [
        {
          "internalType": "bytes4",
          "name": "",
          "type": "bytes4"
        }
      ],
      "stateMutability": "pure",
      "type": "function"
    },
    {
      "inputs": [
        {
          "internalType": "address",
          "name": "",
          "type": "address"
        },
        {
          "internalType": "address",
          "name": "",
          "type": "address"
        },
        {
          "internalType": "uint256",
          "name": "",
          "type": "uint256"
        },
        {
          "internalType": "uint256",
          "name": "",
          "type": "uint256"
        },
        {
          "internalType": "bytes",
          "name": "",
          "type": "bytes"
        }
      ],
      "name": "onERC1155Received",
      "outputs": [
        {
          "internalType": "bytes4",
          "name": "",
          "type": "bytes4"
        }
      ],
      "stateMutability": "pure",
      "type": "function"
    },
    {
      "inputs": [
        {
          "internalType": "address",
          "name": "",
          "type": "address"
        },
        {
          "internalType": "address",
          "name": "",
          "type": "address"
        },
        {
          "internalType": "uint256",
          "name": "",
          "type": "uint256"
        },
        {
          "internalType": "bytes",
          "name": "",
          "type": "bytes"
        }
      ],
      "name": "onERC721Received",
      "outputs": [
        {
          "internalType": "bytes4",
          "name": "",
          "type": "bytes4"
        }
      ],
      "stateMutability": "pure",
      "type": "function"
    },
    {
      "inputs": [],
      "name": "owner",
      "outputs": [
        {
          "internalType": "address",
          "name": "",
          "type": "address"
        }
      ],
      "stateMutability": "view",
      "type": "function"
    },
    {
      "inputs": [
        {
          "internalType": "uint256",
          "name": "",
          "type": "uint256"
        }
      ],
      "name": "participants",
      "outputs": [
        {
          "internalType": "address",
          "name": "",
          "type": "address"
        }
      ],
      "stateMutability": "view",
      "type": "function"
    },
    {
      "inputs": [],
      "name": "paused",
      "outputs": [
        {
          "internalType": "bool",
          "name": "",
          "type": "bool"
        }
      ],
      "stateMutability": "view",
      "type": "function"
    },
    {
      "inputs": [],
      "name": "pendingProtocolFee",
      "outputs": [
        {
          "internalType": "uint256",
          "name": "",
          "type": "uint256"
        }
      ],
      "stateMutability": "view",
      "type": "function"
    },
    {
      "inputs": [],
      "name": "poolData",
      "outputs": [
        {
          "internalType": "string",
          "name": "name",
          "type": "string"
        },
        {
          "internalType": "uint256",
          "name": "winnersCount",
          "type": "uint256"
        },
        {
          "internalType": "uint256",
          "name": "maxSlotsPerParticipant",
          "type": "uint256"
        },
        {
          "internalType": "uint256",
          "name": "slotLimit",
          "type": "uint256"
        },
        {
          "internalType": "address",
          "name": "revenueRecipient",
          "type": "address"
        },
        {
          "internalType": "bool",
          "name": "isCollabPool",
          "type": "bool"
        },
        {
          "internalType": "bool",
          "name": "usesCustomFee",
          "type": "bool"
        },
        {
          "internalType": "bool",
          "name": "isExternalPrizeCollection",
          "type": "bool"
        },
        {
          "internalType": "bool",
          "name": "isRefundable",
          "type": "bool"
        },
        {
          "internalType": "bool",
          "name": "erc721EscrowClaimed",
          "type": "bool"
        },
        {
          "internalType": "bool",
          "name": "isEscrowedPrize",
          "type": "bool"
        },
        {
          "internalType": "bool",
          "name": "wasDeletedForFullRefund",
          "type": "bool"
        },
        {
          "internalType": "bool",
          "name": "protocolFeeTaken",
          "type": "bool"
        },
        {
          "internalType": "bool",
          "name": "randomRequested",
          "type": "bool"
        },
        {
          "internalType": "bool",
          "name": "randomnessUsed",
          "type": "bool"
        }
      ],
      "stateMutability": "view",
      "type": "function"
    },
    {
      "inputs": [],
      "name": "poolSubscriptionId",
      "outputs": [
        {
          "internalType": "uint256",
          "name": "",
          "type": "uint256"
        }
      ],
      "stateMutability": "view",
      "type": "function"
    },
    {
      "inputs": [
        {
          "internalType": "address",
          "name": "participant",
          "type": "address"
        }
      ],
      "name": "prizeClaimed",
      "outputs": [
        {
          "internalType": "uint256",
          "name": "",
          "type": "uint256"
        }
      ],
      "stateMutability": "view",
      "type": "function"
    },
    {
      "inputs": [],
      "name": "prizeCollection",
      "outputs": [
        {
          "internalType": "address",
          "name": "",
          "type": "address"
        }
      ],
      "stateMutability": "view",
      "type": "function"
    },
    {
      "inputs": [],
      "name": "prizeData",
      "outputs": [
        {
          "internalType": "enum PrizeTypes.Standard",
          "name": "standard",
          "type": "uint8"
        },
        {
          "internalType": "address",
          "name": "prizeCollection",
          "type": "address"
        },
        {
          "internalType": "uint256",
          "name": "prizeTokenId",
          "type": "uint256"
        },
        {
          "internalType": "uint256",
          "name": "amountPerWinner",
          "type": "uint256"
        },
        {
          "internalType": "address",
          "name": "erc20PrizeToken",
          "type": "address"
        },
        {
          "internalType": "uint256",
          "name": "erc20PrizeAmount",
          "type": "uint256"
        },
        {
          "internalType": "uint256",
          "name": "nativePrizeAmount",
          "type": "uint256"
        },
        {
          "internalType": "uint256",
          "name": "prizesClaimedCount",
          "type": "uint256"
        }
      ],
      "stateMutability": "view",
      "type": "function"
    },
    {
      "inputs": [],
      "name": "prizeTokenId",
      "outputs": [
        {
          "internalType": "uint256",
          "name": "",
          "type": "uint256"
        }
      ],
      "stateMutability": "view",
      "type": "function"
    },
    {
      "inputs": [],
      "name": "prizesClaimedCount",
      "outputs": [
        {
          "internalType": "uint256",
          "name": "",
          "type": "uint256"
        }
      ],
      "stateMutability": "view",
      "type": "function"
    },
    {
      "inputs": [],
      "name": "protocolFeePercentage",
      "outputs": [
        {
          "internalType": "uint256",
          "name": "",
          "type": "uint256"
        }
      ],
      "stateMutability": "view",
      "type": "function"
    },
    {
      "inputs": [],
      "name": "protocolFeeTaken",
      "outputs": [
        {
          "internalType": "bool",
          "name": "",
          "type": "bool"
        }
      ],
      "stateMutability": "view",
      "type": "function"
    },
    {
      "inputs": [
        {
          "internalType": "uint256",
          "name": "quantity",
          "type": "uint256"
        },
        {
          "internalType": "uint256",
          "name": "_deadline",
          "type": "uint256"
        },
        {
          "internalType": "bytes",
          "name": "_signature",
          "type": "bytes"
        },
        {
          "internalType": "uint256[]",
          "name": "_tokenIds",
          "type": "uint256[]"
        }
      ],
      "name": "purchaseSlots",
      "outputs": [],
      "stateMutability": "payable",
      "type": "function"
    },
    {
      "inputs": [],
      "name": "randomRequested",
      "outputs": [
        {
          "internalType": "bool",
          "name": "",
          "type": "bool"
        }
      ],
      "stateMutability": "view",
      "type": "function"
    },
    {
      "inputs": [],
      "name": "randomSeed",
      "outputs": [
        {
          "internalType": "uint256",
          "name": "",
          "type": "uint256"
        }
      ],
      "stateMutability": "view",
      "type": "function"
    },
    {
      "inputs": [],
      "name": "randomnessUsed",
      "outputs": [
        {
          "internalType": "bool",
          "name": "",
          "type": "bool"
        }
      ],
      "stateMutability": "view",
      "type": "function"
    },
    {
      "inputs": [
        {
          "internalType": "uint256",
          "name": "requestId",
          "type": "uint256"
        },
        {
          "internalType": "uint256[]",
          "name": "randomWords",
          "type": "uint256[]"
        }
      ],
      "name": "rawFulfillRandomWords",
      "outputs": [],
      "stateMutability": "nonpayable",
      "type": "function"
    },
    {
      "inputs": [
        {
          "internalType": "address",
          "name": "",
          "type": "address"
        }
      ],
      "name": "refundableAmount",
      "outputs": [
        {
          "internalType": "uint256",
          "name": "",
          "type": "uint256"
        }
      ],
      "stateMutability": "view",
      "type": "function"
    },
    {
      "inputs": [
        {
          "internalType": "address",
          "name": "",
          "type": "address"
        }
      ],
      "name": "refundedNonWinningSlots",
      "outputs": [
        {
          "internalType": "uint256",
          "name": "",
          "type": "uint256"
        }
      ],
      "stateMutability": "view",
      "type": "function"
    },
    {
      "inputs": [],
      "name": "removeFromVRFSubscription",
      "outputs": [],
      "stateMutability": "nonpayable",
      "type": "function"
    },
    {
      "inputs": [],
      "name": "renounceOwnership",
      "outputs": [],
      "stateMutability": "nonpayable",
      "type": "function"
    },
    {
      "inputs": [],
      "name": "requestRandomness",
      "outputs": [],
      "stateMutability": "nonpayable",
      "type": "function"
    },
    {
      "inputs": [],
      "name": "revenueData",
      "outputs": [
        {
          "internalType": "uint256",
          "name": "protocolFeePercentage",
          "type": "uint256"
        },
        {
          "internalType": "uint256",
          "name": "creationFeePercentage",
          "type": "uint256"
        },
        {
          "internalType": "uint256",
          "name": "totalCreatorRevenue",
          "type": "uint256"
        },
        {
          "internalType": "uint256",
          "name": "totalRefundableAmount",
          "type": "uint256"
        },
        {
          "internalType": "uint256",
          "name": "totalGlobalFeeRevenue",
          "type": "uint256"
        },
        {
          "internalType": "uint256",
          "name": "pendingProtocolFee",
          "type": "uint256"
        }
      ],
      "stateMutability": "view",
      "type": "function"
    },
    {
      "inputs": [],
      "name": "revenueRecipient",
      "outputs": [
        {
          "internalType": "address",
          "name": "",
          "type": "address"
        }
      ],
      "stateMutability": "view",
      "type": "function"
    },
    {
      "inputs": [],
      "name": "s_vrf_lastRequestId",
      "outputs": [
        {
          "internalType": "uint256",
          "name": "",
          "type": "uint256"
        }
      ],
      "stateMutability": "view",
      "type": "function"
    },
    {
      "inputs": [],
      "name": "shuffleStartIndex",
      "outputs": [
        {
          "internalType": "uint256",
          "name": "",
          "type": "uint256"
        }
      ],
      "stateMutability": "view",
      "type": "function"
    },
    {
      "inputs": [],
      "name": "slotFee",
      "outputs": [
        {
          "internalType": "uint256",
          "name": "",
          "type": "uint256"
        }
      ],
      "stateMutability": "view",
      "type": "function"
    },
    {
      "inputs": [],
      "name": "slotLimit",
      "outputs": [
        {
          "internalType": "uint256",
          "name": "",
          "type": "uint256"
        }
      ],
      "stateMutability": "view",
      "type": "function"
    },
    {
      "inputs": [
        {
          "internalType": "address",
          "name": "",
          "type": "address"
        }
      ],
      "name": "slotsPurchased",
      "outputs": [
        {
          "internalType": "uint256",
          "name": "",
          "type": "uint256"
        }
      ],
      "stateMutability": "view",
      "type": "function"
    },
    {
      "inputs": [],
      "name": "socialEngagementRequired",
      "outputs": [
        {
          "internalType": "bool",
          "name": "",
          "type": "bool"
        }
      ],
      "stateMutability": "view",
      "type": "function"
    },
    {
      "inputs": [],
      "name": "standard",
      "outputs": [
        {
          "internalType": "enum PrizeTypes.Standard",
          "name": "",
          "type": "uint8"
        }
      ],
      "stateMutability": "view",
      "type": "function"
    },
    {
      "inputs": [],
      "name": "startTime",
      "outputs": [
        {
          "internalType": "uint256",
          "name": "",
          "type": "uint256"
        }
      ],
      "stateMutability": "view",
      "type": "function"
    },
    {
      "inputs": [],
      "name": "state",
      "outputs": [
        {
          "internalType": "enum IPool.PoolState",
          "name": "",
          "type": "uint8"
        }
      ],
      "stateMutability": "view",
      "type": "function"
    },
    {
      "inputs": [
        {
          "internalType": "bytes4",
          "name": "interfaceId",
          "type": "bytes4"
        }
      ],
      "name": "supportsInterface",
      "outputs": [
        {
          "internalType": "bool",
          "name": "",
          "type": "bool"
        }
      ],
      "stateMutability": "view",
      "type": "function"
    },
    {
      "inputs": [
        {
          "internalType": "uint256",
          "name": "",
          "type": "uint256"
        }
      ],
      "name": "tokenIdClaimedBy",
      "outputs": [
        {
          "internalType": "address",
          "name": "",
          "type": "address"
        }
      ],
      "stateMutability": "view",
      "type": "function"
    },
    {
      "inputs": [],
      "name": "totalCreatorRevenue",
      "outputs": [
        {
          "internalType": "uint256",
          "name": "",
          "type": "uint256"
        }
      ],
      "stateMutability": "view",
      "type": "function"
    },
    {
      "inputs": [],
      "name": "totalGlobalFeeRevenue",
      "outputs": [
        {
          "internalType": "uint256",
          "name": "",
          "type": "uint256"
        }
      ],
      "stateMutability": "view",
      "type": "function"
    },
    {
      "inputs": [],
      "name": "totalRefundableAmount",
      "outputs": [
        {
          "internalType": "uint256",
          "name": "",
          "type": "uint256"
        }
      ],
      "stateMutability": "view",
      "type": "function"
    },
    {
      "inputs": [
        {
          "internalType": "address",
          "name": "newOwner",
          "type": "address"
        }
      ],
      "name": "transferOwnership",
      "outputs": [],
      "stateMutability": "nonpayable",
      "type": "function"
    },
    {
      "inputs": [],
      "name": "usesCustomFee",
      "outputs": [
        {
          "internalType": "bool",
          "name": "",
          "type": "bool"
        }
      ],
      "stateMutability": "view",
      "type": "function"
    },
    {
      "inputs": [],
      "name": "wasDeletedForFullRefund",
      "outputs": [
        {
          "internalType": "bool",
          "name": "",
          "type": "bool"
        }
      ],
      "stateMutability": "view",
      "type": "function"
    },
    {
      "inputs": [
        {
          "internalType": "uint256",
          "name": "",
          "type": "uint256"
        }
      ],
      "name": "winners",
      "outputs": [
        {
          "internalType": "address",
          "name": "",
          "type": "address"
        }
      ],
      "stateMutability": "view",
      "type": "function"
    },
    {
      "inputs": [],
      "name": "winnersCount",
      "outputs": [
        {
          "internalType": "uint256",
          "name": "",
          "type": "uint256"
        }
      ],
      "stateMutability": "view",
      "type": "function"
    },
    {
      "inputs": [],
      "name": "winnersSelected",
      "outputs": [
        {
          "internalType": "uint256",
          "name": "",
          "type": "uint256"
        }
      ],
      "stateMutability": "view",
      "type": "function"
    },
    {
      "inputs": [
        {
          "internalType": "address",
          "name": "",
          "type": "address"
        }
      ],
      "name": "winsPerAddress",
      "outputs": [
        {
          "internalType": "uint256",
          "name": "",
          "type": "uint256"
        }
      ],
      "stateMutability": "view",
      "type": "function"
    },
    {
      "inputs": [],
      "name": "withdrawCreatorRevenue",
      "outputs": [],
      "stateMutability": "nonpayable",
      "type": "function"
    },
    {
      "inputs": [],
      "name": "withdrawProtocolRevenue",
      "outputs": [],
      "stateMutability": "nonpayable",
      "type": "function"
    }
  ],
  "bytecode": "0x60a034620000bb57601f620060bb38819003918201601f19168301916001600160401b03831184841017620000c057808492602094604052833981010312620000bb57516001600160a01b03908181168103620000bb576000543360018060a01b0319821617600055604051923391167f8be0079c531659141344cd1fd0a4f28419497f9722a3daafe3b4186f6b6457e0600080a36001805560ff1960025416600255608052615fe49081620000d782396080518161333f0152f35b600080fd5b634e487b7160e01b600052604160045260246000fdfe608080604052600436101561001357600080fd5b600090813560e01c90816301ffc9a714613fc55750806302d05d3f14613f9c5780630631c5c214613f7e57806306f1305614613f6057806306fdde0314613f2c5780630852197414612f675780630aa00e7014613f0e5780630b747d9114613ef05780630b78824b14613ed25780630e4fa15814613eac5780630fb5a6b414613e8e5780631249c58b14613af4578063128f4ba414613ad6578063150b7a0214613a7f5780631ae25dd014613a305780631af0a0641461307e5780631fe543e314612fa057806325444fa414612f675780632c1fecfe14612f415780633197cbb614612f1f578063321679fa14612f01578063327bb1ad14612e6857806335c1d34914612e245780633b26314d14612dfb5780634002143414612a4157806342b72afa14612a0957806344a90986146129eb57806348a3a450146129c557806349713811146129a75780634e3ff460146129685780634f7f0fc0146129295780635755248e1461290b5780635a3b7e42146128e55780635c975abb146128c25780635f369a3214611e4f57806366805de514611e36578063677375c314611e18578063683d193614611df2578063696917ba14611dcc5780636e61a16014611da657806370740ac914611d6c578063715018a614611d1257806371840629146117ae578063740e21981461178257806378e9792514611764578063813e88b914611746578063837d11281461172057806387213c35146116fa5780638778d82c146116d1578063888dc198146116b3578063898b36db146116955780638bc53285146116775780638bfbbcbe1461165e5780638d7fe478146116385780638da5cb5b146116115780638e50e509146115f357806394f5c9dc146115ab5780639ed5c1cc14611582578063a177ec0914611557578063a2fb1175146114fb578063a67d0e6c146114dd578063a9532a5314611407578063ae4b82c1146113dd578063aebc4550146113b0578063af78ed0a14611392578063b0b606c01461135f578063b5545a3c14610e8f578063b5ad841214610ca6578063bc197c8114610c1a578063c19d93fb14610bd7578063c2e784bd14610bb9578063c3fa0e3b14610b9b578063cabfaa1814610b7d578063cc7d49ec14610b57578063d0704cbd14610b31578063d0d11ae814610b13578063d17d135914610ada578063d447e9bc14610a3f578063d91043f214610abc578063dbb832bd14610a96578063dc52834e14610a78578063dc8a55c214610a3f578063e511a11b14610a06578063e6f12cf7146109e8578063f23a6e6114610991578063f2fde38b14610903578063f8413b0714610793578063fb687df414610766578063fd22b17c14610566578063fd75a1f1146104f55763fee151ae1461040a57600080fd5b346104f257806003193601126104f25761044661042561421d565b600a54600b54600c54600d54916040519586956101e080885287019061401a565b9360208601526040850152606084015260018060a01b038116608084015260ff90818160a01c16151560a0850152818160a81c16151560c0850152818160b01c16151560e0850152818160b81c161515610100850152818160c01c161515610120850152818160c81c161515610140850152818160d01c161515610160850152818160d81c161515610180850152818160e01c1615156101a085015260e81c1615156101c08301520390f35b80fd5b50346104f257806003193601126104f257610100600e54600f546010549060018060a01b039182601154166012549160135493601454956040519761053d8960ff83166140c7565b60081c16602088015260408701526060860152608085015260a084015260c083015260e0820152f35b50346104f257806003193601126104f25780546040516336b87bd760e11b8152336004820152602492916020908290859082906001600160a01b03165afa90811561075b57829161072d575b501561071b5780600d5460ff90818160d81c1680610710575b6106a7575b818160a81c16158061069c575b6105fd575b505080919250156105f9576105f690615b51565b80f35b5080fd5b60b01c8116156106815760085460b01c16600881101561066e576006036105f9575b601c54906107d09384830294838604148315171561065c575061064b61271061065394950480936149f1565b601c55614368565b819038806105e2565b634e487b7160e01b8452601160045283fd5b5050634e487b7160e01b81526021600452fd5b60085460b01c16600881101561066e5760041461061f575080fd5b50601c5415156105dd565b9150808260b01c166000146106f4578060085460b01c1660088110156106e0576006036106dc575b601d549183601d556105d0565b8280fd5b5050634e487b7160e01b8252506021600452fd5b8060085460b01c1660088110156106e0576004146106cf578280fd5b50601d5415156105cb565b6040516327e1f1e560e01b8152600490fd5b61074e915060203d8111610754575b6107468183614133565b810190614798565b386105b2565b503d61073c565b6040513d84823e3d90fd5b50346104f257806003193601126104f257600e5460405160089190911c6001600160a01b03168152602090f35b50346104f257806003193601126104f2576107b360065460075490614368565b4210156108f6575b600654600754906107d76107cf8383614368565b42101561444f565b6008549060ff8260b01c1660088110156108e257600281149081156108d7575b50806108ca575b156108c657602554600a54116108c657602a541592836108b0575b50506001600160a01b03163314801561089b575b1561085e5761084460ff600d5460e01c16156144ac565b610851575b6105f66152d7565b610859615ab5565b610849565b60405162461bcd60e51b815260206004820152601560248201527410d85b1b195c881b9bdd08185d5d1a1bdc9a5e9959605a1b6044820152606490fd5b5033825260276020526040822054151561082d565b6108b991614368565b42106106dc573880610819565b8380fd5b50602a54600a54116107fe565b6003915014386107f7565b634e487b7160e01b85526021600452602485fd5b6108fe615713565b6107bb565b50346104f25760203660031901126104f25761091d61405a565b6109256142c9565b6001600160a01b0381161561093d576105f690614321565b60405162461bcd60e51b815260206004820152602660248201527f4f776e61626c653a206e6577206f776e657220697320746865207a65726f206160448201526564647265737360d01b6064820152608490fd5b50346104f25760a03660031901126104f2576109ab61405a565b506109b4614070565b506084356001600160401b0381116105f9576109d490369060040161409a565b505060405163f23a6e6160e01b8152602090f35b50346104f257806003193601126104f2576020601c54604051908152f35b50346104f25760203660031901126104f2576020906040906001600160a01b03610a2e61405a565b168152602283522054604051908152f35b50346104f25760203660031901126104f2576020906040906001600160a01b03610a6761405a565b168152601f83522054604051908152f35b50346104f257806003193601126104f2576020600b54604051908152f35b50346104f257806003193601126104f257602060ff600d5460d81c166040519015158152f35b50346104f257806003193601126104f2576020601954604051908152f35b50346104f25760203660031901126104f2576020906040906001600160a01b03610b0261405a565b168152601e83522054604051908152f35b50346104f257806003193601126104f2576020601354604051908152f35b50346104f257806003193601126104f257602060ff600d5460b01c166040519015158152f35b50346104f257806003193601126104f257602060ff600d5460d01c166040519015158152f35b50346104f257806003193601126104f2576020602554604051908152f35b50346104f257806003193601126104f2576020601d54604051908152f35b50346104f257806003193601126104f2576020600454604051908152f35b50346104f257806003193601126104f25760ff60085460b01c16604051906008811015610c0657602092508152f35b634e487b7160e01b83526021600452602483fd5b50346104f25760a03660031901126104f257610c3461405a565b50610c3d614070565b506001600160401b036044358181116106dc57610c5e90369060040161417c565b50506064358181116106dc57610c7890369060040161417c565b50506084359081116105f957610c9290369060040161409a565b505060405163bc197c8160e01b8152602090f35b50346104f257806003193601126104f257610cbf6143f9565b600d546001600160a01b0380821691338390036108c65760ff60085460b01c169060088210156108e25760058214610e8b5760078214610e8b5760b01c60ff1615610e6b57600603610e30575b82601a549283156105f9578180610d45958193610d39612710610d31601954856143e6565b0480936149f1565b97889284601a55615b51565b5af1610d4f6145b2565b50156106dc57602460208285541660405192838092630425172560e31b82523060048301525afa908115610e25578491610dcf575b507f86a5cc8fe9af9ae68fb50f62885307a7755a30cbd290131644377f0bd94a718191602091610dc2575b600d541692604051908152a26001805580f35b610dca615a58565b610daf565b90506020813d8211610e1d575b81610de960209383614133565b81010312610e1857517f86a5cc8fe9af9ae68fb50f62885307a7755a30cbd290131644377f0bd94a7181610d84565b600080fd5b3d9150610ddc565b6040513d86823e3d90fd5b60405162461bcd60e51b815260206004820152601360248201527210d85b9b9bdd081dda5d1a191c985dc81e595d606a1b6044820152606490fd5b60048114908115610e80575b50610d0c578280fd5b600691501438610e77565b8480fd5b50346104f257806003193601126104f257610ea86143f9565b60085460ff90818160b01c1690600882101591826108e257600481148015611351575b838115611341575b8115611331575b50156112ec57600d5492848460d01c1660001461100a575050505033825260209060218252806040842054166106dc57602782526040832054156106dc578060085460a01c169081610ffb575b5015610fa757338252602781527f358fe4192934d3bf28ae181feda1f4bd08ca67f5e2fad55582cce5eb67304ae9610f666040842054600554906143e6565b913384526021815260408420600160ff19825416179055610f968480808087335af1610f906145b2565b50614a3a565b6040519283523392a25b6001805580f35b6084906040519062461bcd60e51b82526004820152602760248201527f526566756e6473206e6f7420706f737369626c6520666f72207468697320706f6044820152666f6c207479706560c81b6064820152fd5b9050600d5460a81c1638610f27565b6108e2578391906007036110ed575050503382526021602052806040832054166105f9576027602052604082205480156106dc5760055461104a916143e6565b90600d5460a81c166000146110cd57601a548181106106dc578161106d916149f1565b601a555b338252602160205260408220600160ff1982541617905561109b8280808085335af1610f906145b2565b6040519081527f358fe4192934d3bf28ae181feda1f4bd08ca67f5e2fad55582cce5eb67304ae960203392a25b610fa0565b6110e581601c546110e0828210156149ae565b6149f1565b601c55611071565b60a01c16806112e0575b806112d4575b806112c9575b156111e257505033815260276020526040812054601e6020526040822054906022602052604083205490828111806111d0575b156108c657611148926110e0916149f1565b60055460185490612710918203908282116111bc57611172929161116b916143e6565b04826143e6565b90601b548083116108c65782611187916149f1565b601b5533835260226020526111a160408420918254614368565b905561109b8280808085335af16111b66145b2565b506149fe565b634e487b7160e01b85526011600452602485fd5b506111db83826149f1565b8210611136565b60a81c8116156111f3575b50610fa0565b33825260276020526040822054156105f95760216020526040822054166104f257602760205261122a6040822054600554906143e6565b611f40908181029181830414901517156112b557612710900461125681601c546110e0828210156149ae565b601c55338252602160205260408220600160ff198254161790556112838280808085335af16111b66145b2565b6040519081527f358fe4192934d3bf28ae181feda1f4bd08ca67f5e2fad55582cce5eb67304ae960203392a2386111ed565b634e487b7160e01b82526011600452602482fd5b50601b541515611103565b50818160b81c166110fd565b50818160a81c166110f7565b60405162461bcd60e51b815260206004820152601e60248201527f506f6f6c206e6f7420696e206120726566756e6461626c6520737461746500006044820152606490fd5b90506108e2576007811483610eda565b90506108e2576005811483610ed3565b506000925060068114610ecb565b50346104f25760203660031901126104f257602090600435815260238252604060018060a01b0391205416604051908152f35b50346104f257806003193601126104f2576020601a54604051908152f35b50346104f257806003193601126104f25760025460405160089190911c6001600160a01b03168152602090f35b50346104f25760203660031901126104f25760406020916004358152602c83522054604051908152f35b50346104f257806003193601126104f25760ff60085460b01c1660088110159081610c0657600481149182156114cf575b82156114be575b8215611499575b505015611455576105f6615a58565b606460405162461bcd60e51b815260206004820152602060248201527f506f6f6c206d75737420626520696e2061207465726d696e616c2073746174656044820152fd5b9091506114aa576006143880611446565b634e487b7160e01b82526021600452602482fd5b809250610c0657600581149161143f565b506007811491506000611438565b50346104f257806003193601126104f2576020600554604051908152f35b50346104f25760203660031901126104f2576004356026548110156105f95760266000527f744a2cf8fd7008e3d53b67916e73460df9fa5214e3ef23dd4259ca09493a359401546040516001600160a01b039091168152602090f35b50346104f257806003193601126104f257602060ff60155460a01c1661158060405180926140c7565bf35b50346104f257806003193601126104f2576011546040516001600160a01b039091168152602090f35b50346104f257806003193601126104f25760c0601854601954601a54601b54601c5491601d5493604051958652602086015260408501526060840152608083015260a0820152f35b50346104f257806003193601126104f2576020601854604051908152f35b50346104f257806003193601126104f257546040516001600160a01b039091168152602090f35b50346104f257806003193601126104f257602060ff600d5460e01c166040519015158152f35b50346104f257806003193601126104f2576105f6614fc4565b50346104f257806003193601126104f2576020602a54604051908152f35b50346104f257806003193601126104f2576020600c54604051908152f35b50346104f257806003193601126104f2576020601454604051908152f35b50346104f257806003193601126104f2576015546040516001600160a01b039091168152602090f35b50346104f257806003193601126104f257602060ff60085460a81c166040519015158152f35b50346104f257806003193601126104f257602060ff600d5460a81c166040519015158152f35b50346104f257806003193601126104f2576020601054604051908152f35b50346104f257806003193601126104f2576020600654604051908152f35b50346104f25760203660031901126104f25760206117a66117a161405a565b614a7f565b604051908152f35b50346104f25760403660031901126104f2576001600160401b036004358181116106dc576117e090369060040161417c565b916024359081116108c6576117f990369060040161417c565b6118016143f9565b6008549060ff8260b01c166008811015611cfe57600403611cfa57808503611cfa578415611cfa5760328511611cfa576001600160a01b039182163303611bbd575b600e5494828660081c16958615611bab5760ff600d5460c81c16611b1f5760ff1687805b838210611b455750506004811015611b3157806119c65750865b8181106118975750505050505050610fa0615f41565b6118aa6118a5828489614d18565b614d28565b906118b6818588614d18565b35883b156119c2576040516340c10f1960e01b81526001600160a01b03841660048201526024810182905292868b80868d8183816044810103925af195866119a7575b50506001941560001461194a5750505081611912614523565b6308c379a014611936575b611928575b01611881565b6119306145b2565b50611922565b61193e614541565b1561191d57508861191d565b7f95681e512bc0fe659e195e06c283eada494316f3d801213e48e7101af92bf770911691828c52602090601f825260408d20611987828254614368565b90556119966014918254614368565b9055600f54604051908152a2611922565b6119b29192506140ea565b6119be57868b386118f9565b8a80fd5b8980fd5b6001969291908703611b1f57875b8181106119eb5750505050505050506110c8615f41565b6119f96118a582848a614d18565b90611a05818589614d18565b35611a12601054826143e6565b928b600f8054893b156106dc57604051630ab714fb60e11b81526001600160a01b0385166004820152602481019190915260448101969096528c958a908381606481838f5af19081611b04575b50611aaa57505050505081611a72614523565b6308c379a014611a96575b611a88575b016119d4565b611a906145b2565b50611a82565b611a9e614541565b15611a7d575089611a7d565b7f95681e512bc0fe659e195e06c283eada494316f3d801213e48e7101af92bf7709316938483526040602093601f855220611ae6828254614368565b9055611af56014918254614368565b905554604051908152a2611a82565b611b129198508492506140ea565b6105f957898d9638611a5f565b60405163fd34e50560e01b8152600490fd5b634e487b7160e01b88526021600452602488fd5b85611b546118a584878c614d18565b16808b52611b768b601f6040602092601e84522054915260408d2054906149f1565b90156119be5780156119be57611b8d83878a614d18565b35116119c257600190611ba183878a614d18565b3501910190611867565b60405163424ca23960e01b8152600490fd5b85600e5460ff81166004811015611ce6578492919080611c6a575060209150600460405180948193638da5cb5b60e01b835260081c165afa8015611c5f5783918891611c20575b505b1633031561184357604051635c427cd960e01b8152600490fd5b9150506020813d8211611c57575b81611c3b60209383614133565b81010312611c5357611c4d839161438b565b38611c04565b8680fd5b3d9150611c2e565b6040513d89823e3d90fd5b600114611c78575b50611c06565b60209150600460405180948193638da5cb5b60e01b835260081c165afa8015611c5f5783918891611cab575b5038611c72565b9150506020813d8211611cde575b81611cc660209383614133565b81010312611c5357611cd8839161438b565b38611ca4565b3d9150611cb9565b634e487b7160e01b89526021600452602489fd5b8580fd5b634e487b7160e01b87526021600452602487fd5b50346104f257806003193601126104f257611d2b6142c9565b600080546001600160a01b0319811682556001600160a01b03167f8be0079c531659141344cd1fd0a4f28419497f9722a3daafe3b4186f6b6457e08280a380f35b50346104f257806003193601126104f257611d856143f9565b60ff60085460b01c1660088110156114aa576004036104f257610fa06147b0565b50346104f257806003193601126104f257602060ff600d5460c01c166040519015158152f35b50346104f257806003193601126104f257602060ff600d5460c81c166040519015158152f35b50346104f257806003193601126104f257602060ff60085460a01c166040519015158152f35b50346104f257806003193601126104f2576020601b54604051908152f35b50346104f257806003193601126104f2576105f6614d3c565b5060803660031901126104f2576001600160401b036044358181116106dc57611e7c90369060040161409a565b90916064359081116108c657611e9690369060040161417c565b929091611ea16143f9565b60085460ff8160b01c166008811015611cfe571561287f575b5033320361286e5760085460ff8160b01c166008811015611cfe5760010361285c57331561284a576004351561283857600554801561282657611f0090600435906143e6565b340361281457600654611f1560075482614368565b42101561280257611f2a600435602554614368565b600c54106127f05742106127de573386526027602052611f506004356040882054614368565b600b54106127cc5760ff8160a01c161580612794575b612782578554604051638da5cb5b60e01b81526001600160a01b039091169190602081600481865afa90811561240d578891612748575b506001600160a01b0316331461273657336001600160a01b038216146127255760a81c60ff168061270e575b6125e3575b505060158054909391506001600160a01b03811690816120e5575b50505050503381526027602052604081206004358154019055805b60043581106120875750600d5460a81c60ff1661207a5734601c5401601c555b602554600c5414612065575b60405160043581527ffd1903a7f9f31de6cf38a88eda98ae029aeba3b2ec48a599d7c0d900f0f335cb60203392a26001805580f35b61206d615ab5565b6120756152d7565b612030565b34601a5401601a55612024565b60255490600160401b8210156120cf576120c96120ab8360018095016025556141ac565b81546001600160a01b0360039290921b91821b19163390911b179055565b01612004565b634e487b7160e01b600052604160045260246000fd5b60a01c60ff1660048110156125cf57806124bd57505080156124835760168054600181036122ee5750506001116122b55790546040516331a9108f60e11b81529135600483018190529190602090829060249082906001600160a01b03165afa9081156122aa578391612270575b50336001600160a01b039091160361222b57808252602360205260408220546001600160a01b03168015908115612221575b50156121ca57815260236020526040812080546001600160a01b038116156121b5575b50505b3880808080611fe9565b6001600160a01b0319163317905538806121a8565b60405162461bcd60e51b815260206004820152602960248201527f546f6b656e20494420616c726561647920626f756e6420746f20616e6f74686560448201526872206164647265737360b81b6064820152608490fd5b9050331438612185565b60405162461bcd60e51b815260206004820152601c60248201527f4e6f74206f776e6572206f662073706563696669656420746f6b656e000000006044820152606490fd5b90506020813d6020116122a2575b8161228b60209383614133565b810103126106dc5761229c9061438b565b38612153565b3d915061227e565b6040513d85823e3d90fd5b60405162461bcd60e51b8152602060048201526011602482015270151bdad95b881251081c995c5d5a5c9959607a1b6044820152606490fd5b909392906001811115611cfa57808310611cfa57855b818110612422575050845b845481101561241857612323818484614d18565b356024602060018060a01b03875416604051928380926331a9108f60e11b82528660048301525afa90811561240d5788916123cf575b50336001600160a01b0390911603611c5357865260236020526040862080546001600160a01b038116801593929190849081156123c5575b50156123c1576123a7936123ac575b50506152c8565b61230f565b6001600160a01b0319163317905538806123a0565b8880fd5b9050331438612391565b90506020813d602011612405575b816123ea60209383614133565b81010312612401576123fb9061438b565b38612359565b8780fd5b3d91506123dd565b6040513d8a823e3d90fd5b50505050506121ab565b6001810180821161246f575b828110612444575061243f906152c8565b612304565b61244f828686614d18565b3561245b828787614d18565b35146124015761246a906152c8565b61242e565b634e487b7160e01b88526011600452602488fd5b60405162461bcd60e51b8152602060048201526012602482015271151bdad95b8812511cc81c995c5d5a5c995960721b6044820152606490fd5b92509250506001811460001461254d5750601754604051627eeac760e11b8152336004820152602481019190915290602090829060449082905afa801561075b578290612519575b61251491506016541115615271565b6121ab565b506020813d602011612545575b8161253360209383614133565b81010312610e18576125149051612505565b3d9150612526565b60021461255b575b506121ab565b6020602491604051928380926370a0823160e01b82523360048301525afa801561075b57829061259b575b61259591506016541115615271565b38612555565b506020813d6020116125c7575b816125b560209383614133565b81010312610e18576125959051612586565b3d91506125a8565b634e487b7160e01b86526021600452602486fd5b602060049160405192838092636b90bda960e01b82525afa9081156127035786916126c9575b506001600160a01b031680156126b7578592813b156108c657839183918360a46040518097819682956324fa7e3f60e21b8452336004850152306024850152602435604485015260806064850152816084850152848401378181018301849052601f01601f191681010301925af1801561075b576126a3575b5050338352602460205260408320805460ff19166001179055388080611fce565b6126ac906140ea565b6106dc578238612682565b6040516343361aaf60e01b8152600490fd5b90506020813d6020116126fb575b816126e460209383614133565b81010312611cfa576126f59061438b565b38612609565b3d91506126d7565b6040513d88823e3d90fd5b50338652602460205260ff60408720541615611fc9565b60405162ca6a8360e51b8152600490fd5b604051635f2a002d60e11b8152600490fd5b90506020813d60201161277a575b8161276360209383614133565b81010312612401576127749061438b565b38611f9d565b3d9150612756565b604051631274fa9d60e31b8152600490fd5b5060ff600d5460a81c1680156127bf575b80611f665750338652602760205260408620541515611f66565b50600160043514156127a5565b604051637145fa7b60e01b8152600490fd5b604051633d8c21b360e01b8152600490fd5b6040516302edeeb760e31b8152600490fd5b60405163fd2a413d60e01b8152600490fd5b60405163569e8c1160e01b8152600490fd5b60405163d2100d7360e01b8152600490fd5b60405163f4f5b73360e01b8152600490fd5b60405163d92e233d60e01b8152600490fd5b6040516338c0a90160e11b8152600490fd5b60405162c44f5760e51b8152600490fd5b6006544210611eba5760ff60b01b1916600160b01b176008557f3d31b97eef590df350bb2cdbc390034c613c9f23ea6ae1906682628c85248b538580a138611eba565b50346104f257806003193601126104f257602060ff600254166040519015158152f35b50346104f257806003193601126104f257602060ff600e541661158060405180926140c7565b50346104f257806003193601126104f2576020601654604051908152f35b50346104f25760203660031901126104f25760209060ff906040906001600160a01b0361295461405a565b168152602184522054166040519015158152f35b50346104f25760203660031901126104f25760209060ff906040906001600160a01b0361299361405a565b168152602484522054166040519015158152f35b50346104f257806003193601126104f2576020600a54604051908152f35b50346104f257806003193601126104f257602060ff600d5460e81c166040519015158152f35b50346104f257806003193601126104f2576020602b54604051908152f35b50346104f25760203660031901126104f2576020906040906001600160a01b03612a3161405a565b1681528280522054604051908152f35b50346104f2576020806003193601126105f957600435303303612dc55790602d548352602c8152816040842055612a79602d546152c8565b602d55602b54916029549060255491612a91856144f8565b91612a9f6040519384614133565b858352612aab866144f8565b8386019290601f1901368437875b878110612cbe57505050855b858110612c295750612af6600d549560ff60e01b198716600d55612aeb81602954614368565b602955602a54614368565b9384602a55604051928184019082855251809152604084019291885b828110612c0c575050505090807f32a1b5731a757f192a06ca973715ca4dbc42c2d15323cabaa74e0a2d5dc088e4920390a1600a54918211612b80576008805460ff60b01b1916600160b21b179081905560a01c60ff1680612bff575b80612bf2575b80612be4575b612b86575b50505080f35b612b9c91612b93916149f1565b600554906143e6565b612710612bab601854836143e6565b04612bc2612bb982846149f1565b92601a546149f1565b601a55601d55601b5561ffff60d81b1916600160d81b17600d55388080612b80565b5060ff8360d81c1615612b7b565b5060ff8360b81c16612b75565b5060ff8360a81c16612b6f565b83516001600160a01b031685529381019392810192600101612b12565b9193916001600160a01b03612c3e828761450f565b5116906026918254600160401b8110156120cf5760018101808555811015612ca857612ca0936000527f744a2cf8fd7008e3d53b67916e73460df9fa5214e3ef23dd4259ca09493a359401906001600160601b0360a01b8254161790556152c8565b939193612ac5565b634e487b7160e01b600052603260045260246000fd5b612ccf816110e084899a989a6149f1565b6040518681019085825283604082015260408152612cec81614118565b51902090612cfa8385614368565b918115612db157612d168493612da99593612d7d930690614368565b612d5e612d22826141ac565b8d612d3f60018060a01b03809454600394851b1c1697889261450f565b52612d52612d4d888b614368565b6141ac565b9054911b1c16916141ac565b90919082549060031b9160018060a01b03809116831b921b1916179055565b612d8e81612d5e612d4d8588614368565b8a52601e865260408a20612da281546152c8565b90556152c8565b959395612ab9565b634e487b7160e01b8c52601260045260248cfd5b60405162461bcd60e51b815260048101839052600e60248201526d13db9b1e481cd95b198b58d85b1b60921b6044820152606490fd5b50346104f257806003193601126104f257600d546040516001600160a01b039091168152602090f35b50346104f25760203660031901126104f257600435906025548210156104f2576020612e4f836141ac565b905460405160039290921b1c6001600160a01b03168152f35b50346104f257806003193601126104f25760018060a01b039060208282541692600e5460081c161515602460405180958193635aa35d2560e11b835260048301525afa908115612ef55790612ec3575b602090604051908152f35b506020813d8211612eed575b81612edc60209383614133565b81010312610e185760209051612eb8565b3d9150612ecf565b604051903d90823e3d90fd5b50346104f257806003193601126104f2576020601254604051908152f35b50346104f257806003193601126104f25760206117a660065460075490614368565b50346104f257806003193601126104f257602060ff600d5460b81c166040519015158152f35b50346104f25760203660031901126104f2576020906040906001600160a01b03612f8f61405a565b168152602783522054604051908152f35b50346104f25760403660031901126104f2576024356001600160401b0381116105f957612fd190369060040161417c565b60025460081c6001600160a01b0316330361303957612fef816144f8565b91612ffd6040519384614133565b8183526020918284019060051b820191368311611cfa57905b82821061302a57856105f6866004356145e2565b81358152908301908301613016565b60405162461bcd60e51b815260206004820181905260248201527f4f6e6c792056524620436f6f7264696e61746f722063616e2066756c66696c6c6044820152606490fd5b506101c060031981813601126106dc576001600160401b03600435116106dc578190600435360301126105f9576040519081018181106001600160401b038211176120cf576040526130d4600435600401614086565b81526130e4602460043501614086565b60208201526130f7604460043501614086565b6040820152606460043501356001600160401b0381116106dc5760043501366023820112156106dc578260048201359161313083614154565b9261313e6040519485614133565b80845236602482840101116106dc5780602460209301838601378301015260608201526004356084810135608083015260a481013560a083015260c481013560c083015260e481013560e08301526101048101356101008301526101248101356101208301526131b1906101440161416f565b6101408201526131c66101646004350161416f565b6101608201526131db6101846004350161416f565b6101808201526131f06101a46004350161416f565b6101a08201526101003660231901126105f95760405190816101008101106001600160401b03610100840111176120cf576101008201604052600460243510156106dc5760243582526044356001600160a01b0381169003610e185760443560208301526064356040830152608435606083015260a4356001600160a01b0381169003610e185760a435608083015260c43560a083015260e43560c08301526101043515156101043503610e18576101043560e08301526080366101231901126106dc57604051918260808101106001600160401b036080850111176120cf5760808301604052610124356001600160a01b0381168103610e1857835260046101443510156108c65761014435602084015261016435604084015261018435606084015260206101a3193601126108c6576040519261332e846140fd565b6101a4358015158103610e185784527f00000000000000000000000000000000000000000000000000000000000000006001600160a01b03163303610e8b5784546001600160a01b0316610e8b5782516001600160a01b03169361339185614321565b60018060a01b036020850151169060085491806001600160601b0360a01b84161760085560405163ec644ddd60e01b815260a0816004818b5afa9081156137f15789916139fd575b50604051630425172560e31b81523060048201526020816024818c5afa908115613837578a916139cb575b5060035560028054610100600160a81b031916600892831b610100600160a81b031617905560e0870151600555608087015160065560a0808801516007556101408801519351151560a81b60ff60a81b166001600160b81b03199095169290921792151590911b60ff60a01b169190911791909117905560608301518051906001600160401b0382116139b757819061349e6009546141e3565b601f8111613945575b50602090601f83116001146138cf5788926138c4575b50508160011b916000199060031b1c1916176009555b610120830151600a55610100830151600b5560c0830151600c5560408301516001600160a01b031680156138af57915b600d80546101608601516101808701516101a08801516001600160b81b031984166001600160a01b0389161792151560a01b60ff60a01b1692831791151560a81b60ff60a81b1691821790151560b01b60ff60b01b169081179094558451939590949193600481101561389b57600e5460ff610100600160a81b03602086015160081b169216906affffffffffffffffffffff60a81b161717600e556040820151600f55606082015160105560018060a01b036080830151166001600160601b0360a01b601154161760115560a082015160125560c08201516013558960145560018060a01b0381511680613842575b505060408051631a35245160e31b815290816004818c5afa8015613837578a918b916137fc575b50601955601855604051636f6f8c5d60e01b815297602090899060049082905afa9788156137f15789986137bd575b5060c08101511561371c5750505050505060e00151036104f257600d805460ff60c81b1916600160c81b1790555b60ff60085460a01c168061370d575b156136d357600a54600d805460ff60b81b1916600190921160b81b60ff60b81b169190911790555b65ffffffff00ff60c01b19600d5416600d5580601a5580601b5580601c5580601d5580f35b600d5460ff8160a81c16156000146136fe5750600d805460ff60b81b1916600160b81b1790556136ae565b60ff60b81b1916600d556136ae565b5060ff600d5460a81c16613686565b60808101516001600160a01b0316156137565750505050505060e00151036104f257600d805460ff60c81b1916600160c81b179055613677565b602081015195975093955091939092906001600160a01b031661377f575b505050505050613677565b60e0015160ff60c81b90151560c81b166001600160a01b0395909516600162ff000160b81b0319919091161717171717600d55388080808080613774565b9097506020813d6020116137e9575b816137d960209383614133565b81010312610e1857519638613649565b3d91506137cc565b6040513d8b823e3d90fd5b9150506040813d60401161382f575b8161381860409383614133565b810103126119c2578051602091820151909161361a565b3d915061380b565b6040513d8c823e3d90fd5b6015549060208301516004811015613887576001600160a81b03199092161760a09190911b60ff60a01b161760155560408101516016556060015160175538806135f3565b634e487b7160e01b8d52602160045260248dfd5b634e487b7160e01b8b52602160045260248bfd5b5060208301516001600160a01b031691613503565b0151905038806134bd565b925060098852600080516020615f8f8339815191529088935b601f198416851061392a576001945083601f19811610613911575b505050811b016009556134d3565b015160001960f88460031b161c19169055388080613903565b818101518355602094850194600190930192909101906138e8565b90915060098852601f830160051c600080516020615f8f83398151915201602084106139a2575b908392915b601f820160051c600080516020615f8f83398151915201811061399457506134a7565b898155849350600101613971565b50600080516020615f8f83398151915261396c565b634e487b7160e01b87526041600452602487fd5b90506020813d6020116139f5575b816139e660209383614133565b81010312610e18575138613404565b3d91506139d9565b613a1f915060a03d60a011613a29575b613a178183614133565b81019061439f565b50505050386133d9565b503d613a0d565b50346104f257806003193601126104f2576015546016546017546040516001600160a01b0384168152608093909290613a7390602085019060a01c60ff166140c7565b60408301526060820152f35b50346104f25760803660031901126104f257613a9961405a565b50613aa2614070565b506064356001600160401b0381116105f957613ac290369060040161409a565b5050604051630a85bd0160e11b8152602090f35b50346104f257806003193601126104f2576020600354604051908152f35b50346104f257806003193601126104f257613b0d6143f9565b600860ff815460b01c1681811015610c06576004036105f957613b2e615c3c565b50600e549081831c6001600160a01b03168015611bab57600d9260ff845460c81c16613e7c5760ff1660048110156125cf5780613cee5750803b15610e8b576040516340c10f1960e01b81523360048201526024810183905290859081908390604490829084905af19182613cda575b5050613cce57506001613baf614523565b6308c379a014613c53575b613bc8575b50506001805580f35b613bd06145b2565b50604051600080516020615f4f833981519152339180613c158160609060208152601060208201526f131bddcb5b195d995b081c995d995c9d60821b60408201520190565b0390a2805460ff60d01b1916600160d01b179055805460ff60b01b1916600560b01b179055600080516020615f6f8339815191528180a13880613bbf565b613c5b614541565b80613c67575b50613bba565b90508390600080516020615f4f8339815191526040516020815280613c913394602083019061401a565b0390a2815460ff60d01b1916600160d01b178255825460ff60b01b1916600560b01b178355600080516020615f6f8339815191528480a138613c61565b90506110c89150615ea1565b613ce3906140ea565b610e8b578438613b9e565b600103613e7c5784600f5491836010540290803b156106dc57604051630ab714fb60e11b8152336004820152602481019490945260448401919091528290606490829084905af19081613e69575b50613cce57506001613d4c614523565b6308c379a014613dee575b613d63575b5050610fa0565b613d6b6145b2565b50604051600080516020615f4f833981519152339180613db08160609060208152601060208201526f131bddcb5b195d995b081c995d995c9d60821b60408201520190565b0390a2805460ff60d01b1916600160d01b179055805460ff60b01b1916600560b01b179055600080516020615f6f8339815191528180a13880613d5c565b613df6614541565b80613e02575b50613d57565b90508390600080516020615f4f8339815191526040516020815280613e2c3394602083019061401a565b0390a2815460ff60d01b1916600160d01b178255825460ff60b01b1916600560b01b178355600080516020615f6f8339815191528480a138613dfc565b613e75909591956140ea565b9338613d3c565b604051631558dc5f60e31b8152600490fd5b50346104f257806003193601126104f2576020600754604051908152f35b50346104f257806003193601126104f257602060ff600d5460a01c166040519015158152f35b50346104f257806003193601126104f2576020600f54604051908152f35b50346104f257806003193601126104f2576020602854604051908152f35b50346104f257806003193601126104f2576020601754604051908152f35b50346104f257806003193601126104f257613f5c613f4861421d565b60405191829160208352602083019061401a565b0390f35b50346104f257806003193601126104f2576020602d54604051908152f35b50346104f257806003193601126104f2576020602954604051908152f35b50346104f257806003193601126104f2576008546040516001600160a01b039091168152602090f35b9050346105f95760203660031901126105f95760043563ffffffff60e01b81168091036106dc5760209250630a85bd0160e11b8114908115614009575b5015158152f35b630271189760e51b14905038614002565b919082519283825260005b848110614046575050826000602080949584010152601f8019910116010190565b602081830181015184830182015201614025565b600435906001600160a01b0382168203610e1857565b602435906001600160a01b0382168203610e1857565b35906001600160a01b0382168203610e1857565b9181601f84011215610e18578235916001600160401b038311610e185760208381860195010111610e1857565b9060048210156140d45752565b634e487b7160e01b600052602160045260246000fd5b6001600160401b0381116120cf57604052565b602081019081106001600160401b038211176120cf57604052565b606081019081106001600160401b038211176120cf57604052565b90601f801991011681019081106001600160401b038211176120cf57604052565b6001600160401b0381116120cf57601f01601f191660200190565b35908115158203610e1857565b9181601f84011215610e18578235916001600160401b038311610e18576020808501948460051b010111610e1857565b602554811015612ca85760256000527f401968ff42a154441da5f6c4c935ac46b8671f0e062baaa62a7545ba53bb6e4c0190600090565b90600182811c92168015614213575b60208310146141fd57565b634e487b7160e01b600052602260045260246000fd5b91607f16916141f2565b6040519060008260095491614231836141e3565b808352926001908181169081156142a7575060011461425a575b5061425892500383614133565b565b600960009081529150600080516020615f8f8339815191525b84831061428c575061425893505081016020013861424b565b81935090816020925483858a01015201910190918592614273565b90506020925061425894915060ff191682840152151560051b8201013861424b565b6000546001600160a01b031633036142dd57565b606460405162461bcd60e51b815260206004820152602060248201527f4f776e61626c653a2063616c6c6572206973206e6f7420746865206f776e65726044820152fd5b600080546001600160a01b039283166001600160a01b03198216811783559216907f8be0079c531659141344cd1fd0a4f28419497f9722a3daafe3b4186f6b6457e09080a3565b9190820180921161437557565b634e487b7160e01b600052601160045260246000fd5b51906001600160a01b0382168203610e1857565b908160a0910312610e18576143b38161438b565b91602082015191604081015191606082015163ffffffff81168103610e185760809092015161ffff81168103610e185790565b8181029291811591840414171561437557565b60026001541461440a576002600155565b60405162461bcd60e51b815260206004820152601f60248201527f5265656e7472616e637947756172643a207265656e7472616e742063616c6c006044820152606490fd5b1561445657565b60405162461bcd60e51b815260206004820152602860248201527f54696d657374616d702064656c61792069737375652c2074727920616761696e6044820152672073686f72746c7960c01b6064820152608490fd5b156144b357565b60405162461bcd60e51b815260206004820152601960248201527f5265717565737420616c726561647920696e20666c69676874000000000000006044820152606490fd5b6001600160401b0381116120cf5760051b60200190565b8051821015612ca85760209160051b010190565b60009060033d1161453057565b905060046000803e60005160e01c90565b600060443d1061459e57604051600319913d83016004833e81516001600160401b03918282113d6024840111176145a1578184019485519384116145a9573d850101602084870101116145a1575061459e92910160200190614133565b90565b949350505050565b50949350505050565b3d156145dd573d906145c382614154565b916145d16040519384614133565b82523d6000602084013e565b606090565b600254600891600091831c6001600160a01b03163303613039576004540361476357600d805460ff60e81b1916600160e81b17815583519093901561474f576020015190303b156104f25760405191631000850d60e21b83526004830152808260248183305af19182614740575b509061473b57600190614661614523565b6308c379a0146146c3575b50614676575b5050565b7fbccec8509a79ecd26780c2699a3ca2503c3a3455b361b5fcda5760593edb03c96146a2613f486145b2565b0390a1805460ff60b01b1916600160b11b179055805460ff60e01b19169055565b6146cb614541565b90816146d8575b5061466c565b7fbcd905a8eb4cc473497e2cd24cf41334ea7fad80c354380f8fff04a025b1e5f8919250614715909260405191829160208352602083019061401a565b0390a1815460ff60b01b1916600160b11b178255825460ff60e01b1916835538806146d2565b505050565b614749906140ea565b38614650565b634e487b7160e01b82526032600452602482fd5b50805460ff60b01b1916600160b11b17905550565b8115614782570490565b634e487b7160e01b600052601260045260246000fd5b90816020910312610e1857518015158103610e185790565b60ff600d5460c81c1615613e7c576147c6615c3c565b50601154600e54600a546001600160a01b03600883901c81169493919260ff1691168061490b5750600491828210156148f6576003821461489c5750831561488c5761487d57600f54833b15610e1857604080516323b872dd60e01b815230938101938452336020850152908301919091529260009184919082908490829060600103925af19182156148715761425892614862575b50615ea1565b61486b906140ea565b3861485c565b6040513d6000823e3d90fd5b604051631558dc5f60e31b8152fd5b5060405163424ca23960e01b8152fd5b8394506148af9150601393929354614778565b0280156148e657600080808093335af16148c76145b2565b50156148d7575061425890615ea1565b60405163880a149160e01b8152fd5b50604051630193f71f60e51b8152fd5b602183634e487b7160e01b6000525260246000fd5b9293505061491c8391601254614778565b0290811561499c5760405163a9059cbb60e01b81523360048201526024810192909252602090829060449082906000905af19081156148715760009161497e575b501561496c5761425890615ea1565b60405163880a149160e01b8152600490fd5b614996915060203d8111610754576107468183614133565b3861495d565b604051630193f71f60e51b8152600490fd5b156149b557565b60405162461bcd60e51b8152602060048201526014602482015273496e73756666696369656e742062616c616e636560601b6044820152606490fd5b9190820391821161437557565b15614a0557565b60405162461bcd60e51b815260206004820152600d60248201526c1499599d5b990819985a5b1959609a1b6044820152606490fd5b15614a4157565b60405162461bcd60e51b81526020600482015260166024820152751499599d5b99081d1c985b9cd9995c8819985a5b195960521b6044820152606490fd5b600d5460ff90818160d01c16614ca45760085490828260b01c169160088310156140d45760078314614c405760a01c831680614c34575b80614c28575b80614c1d575b614b7c5760a81c8216159081614b5d575b50614adf575050600090565b60009160018060a01b031682526027602052604082205415159081614b49575b50614b075790565b6027602052614b1d6040822054600554906143e6565b611f40908181029181830414901517156112b557612710900480601c541015614b44575090565b905090565b905060216020526040822054161538614aff565b6004811491508115614b71575b5038614ad3565b600691501438614b6a565b5050509060009160018060a01b0316825260276020526040822054601e6020526040832054602260205260408420549181811180614c0b575b614bbe57505050565b614bcc92916110e0916149f1565b6005546018549061271091820394828611614bf7575061459e9394614bf0916143e6565b04906143e6565b634e487b7160e01b81526011600452602490fd5b50614c1682826149f1565b8310614bb5565b50601b541515614ac2565b50828160b81c16614abc565b50828160a81c16614ab6565b506001600160a01b03909316600090815260276020526040902054905080614c6b575b505050600090565b600554614c77916143e6565b9160a81c16614c945780601c54101561459e57505b388080614c63565b80601a54101561459e5750614c8c565b908060085460a01c169182614d0b575b505080614cea575b614cc65750600090565b6001600160a01b031660009081526027602052604090205460055461459e916143e6565b506001600160a01b0381166000908152602760205260409020541515614cbc565b60a81c1690503880614cb4565b9190811015612ca85760051b0190565b356001600160a01b0381168103610e185790565b6008805460ff90818160b01c1690838210156140d457600791828114610e18576001811480614fad575b15614f36575050602554600a541115610e1857614d87600654825490614368565b4210614ef157825460ff60b01b1916600760b01b1783557f456598f31410bd74ce9e62f22e18454c4264af94fd5752d17b3cebce37d73cdd600080a15b81835460b01c1690838210156140d457614dde911461444f565b614de6615b03565b614dee61574d565b80825460a01c1680614edb575b80614eb1575b614e09575050565b80600d5460c81c1661467257600e5490811660048110156140d457614e735750600e54901c6001600160a01b0316803b15610e185760008091602460405180948193636382ff5160e11b83523060048401525af1801561487157614e6a5750565b614258906140ea565b901c6001600160a01b0316803b15610e185760008091602460405180948193636382ff5160e11b83523060048401525af1801561487157614e6a5750565b5080600e541660048110156140d4578015908115614ed0575b50614e01565b600191501438614eca565b50600e54821c6001600160a01b03161515614dfb565b60405162461bcd60e51b815260206004820152601960248201527f506f6f6c20656e642074696d65206e6f742072656163686564000000000000006044820152606490fd5b1580614f96575b614f48575b50614dc4565b614f56600654835490614368565b4210610e185760ff60b01b1916600760b01b1783557f456598f31410bd74ce9e62f22e18454c4264af94fd5752d17b3cebce37d73cdd600080a138614f42565b50614fa5600654835490614368565b421015614f3d565b50614fbc600654845490614368565b421015614d66565b6011546000906001600160a01b039081166105f9576013546105f957614fef60065460075490614368565b4210156105f9578082541633148015615264575b156105f9576008805460ff90818160b01c16838110156125cf578015908115615259575b5015610e8b57818160a01c1680809161522f575b80615220575b611cfa5715610e8b57600d805460ff60d01b1916600160d01b17905560ff60b01b1916600560b01b178255615074615b03565b61507c61574d565b80825460a01c1680615211575b806151e7575b6150cf575b50505080600080516020615f6f833981519152817f9331b2a38c658c57a39ea19b2709d928c28a12cc8fbb838d12b85148550f937d93a180a1565b80600d5460c81c166151e157600e5490811660048110156108e2576151655750600e54901c16803b156105f957818091602460405180948193636382ff5160e11b83523060048401525af1801561075b57615151575b507f9331b2a38c658c57a39ea19b2709d928c28a12cc8fbb838d12b85148550f937d905b903880615094565b61515b82916140ea565b6104f25738615125565b83949392911c16803b156105f9578190602460405180968193636382ff5160e11b83523060048401525af19283156151d4577f9331b2a38c658c57a39ea19b2709d928c28a12cc8fbb838d12b85148550f937d92936151c5575b50615149565b6151ce906140ea565b386151bf565b50604051903d90823e3d90fd5b50505050565b5080600e541660048110156108e2578015908115615206575b5061508f565b600191501438615200565b5082600e54831c161515615089565b5082600d5460a81c1615615041565b5082600e54166004811015611cfe57801590811561524e575b5061503b565b600191501438615248565b600191501438615027565b5080600854163314615003565b1561527857565b60405162461bcd60e51b815260206004820152602260248201527f476174696e672062616c616e636520726571756972656d656e74206e6f74206d604482015261195d60f21b6064820152608490fd5b60001981146143755760010190565b600080546008805490926001600160a01b03928316929160b01c60ff16848110156114aa57600114615706575b83549160ff8360b01c1685811015610c0657600281149081156156fb575b50156156a75761533a60ff600d5460e01c16156144ac565b602554936029549461534c86826149f1565b8061535c600a54602a54906149f1565b601e8111156156a25750601e5b80602b5511615699575b50602b5494851561568157506004929160a0917f4ff4e84912750d469e8d0e190997710c06112023943415787c2f744eb09c0da46060602d54926040998a5191825260209b8c8301528a820152a2855163ec644ddd60e01b815293849182905afa801561567757839184908594869361564e575b50600254891c16918651906153fb826140fd565b86825287519163125fa26760e31b8a84015251151560248301526024825261542282614118565b87519260c084018481106001600160401b0382111761563a578a96959493899388936154c9938d5286528386019788528b8087019a61ffff8093168c526060880163ffffffff9384809316825260808a01936001855260a08b01968752519d8e9c8d9b8c9a634d8e1c2f60e11b8c5260048c01525160248b01525160448a01525116606488015251166084860152511660a48401525160c060c484015260e483019061401a565b03925af182918161560b575b506155b757506001906154e6614523565b6308c379a01461554e575b506154fb57505050565b7fab4c58d5f7fcd2f6f276017059fe707292278a4b150b6402c89eb3899a7494ec916155386155286145b2565b925192828493845283019061401a565b0390a1805460ff60b01b1916600160b11b179055565b615556614541565b9081615563575b506154f1565b83518581529092507f1bc0b7451d1b26a4c7bfd7b118b2756c98249ac5f3d51e76be5f33aab548990291819061559c908783019061401a565b0390a1835460ff60b01b1916600160b11b178455388061555d565b6004819055600d805460ff60e01b1916600160e01b179055845460ff60b01b1916600360b01b1790945550519182527ff81446731d23d202ea16cf590daf64c6087251171612b2adde6acbef4b37580291a1565b9091508481813d8311615633575b6156238183614133565b810103126106dc575190386154d5565b503d615619565b634e487b7160e01b89526041600452602489fd5b925093505061566b915060a03d8111613a2957613a178183614133565b909492935091386153e7565b84513d85823e3d90fd5b60ff60b01b1916600160b21b17909655505050505050565b602b5538615373565b615369565b60405162461bcd60e51b815260206004820152602660248201527f506f6f6c206d75737420626520696e20456e646564206f722044726177696e6760448201526520737461746560d01b6064820152608490fd5b600391501438615322565b61570e615713565b615304565b6008805460ff60b01b1916600160b11b1790557fba56b904ffec191559c3639e6019beb8a654605dbf6ba72f33361432a97c2bea600080a1565b60085460ff8160a01c16801561467257806159fd575b61576a5750565b6011546001600160a01b03919082161561589557508060115416604051916370a0823160e01b83523060048401526020928381602481865afa90811561487157600091615868575b50806157be5750505050565b60085460405163a9059cbb60e01b815292166001600160a01b0316600483015260248201529082908290816000816044810103925af19081156148715760009161584b575b5015615811578080806151e1565b6064906040519062461bcd60e51b825260048201526013602482015272151bdad95b881c99599d5b990819985a5b1959606a1b6044820152fd5b6158629150823d8411610754576107468183614133565b38615803565b908482813d831161588e575b61587e8183614133565b810103126104f2575051386157b2565b503d615874565b600e5460ff811660048110156140d45760038103615913575050504790816158bb575050565b60008080938193600854165af16158d06145b2565b50156158d857565b60405162461bcd60e51b8152602060048201526013602482015272141c9a5e99481c99599d5b990819985a5b1959606a1b6044820152606490fd5b1561591d57505050565b829060081c16600f54906040516331a9108f60e11b8152826004820152602081602481855afa908115614871576000916159c4575b50841630146159615750505050565b803b15610e18576040516323b872dd60e01b8152306004820152939092166001600160a01b03166024840152604483015260009082908183816064810103925af18015614871576159b5575b8080806151e1565b6159be906140ea565b386159ad565b906020823d82116159f5575b816159dd60209383614133565b810103126104f257506159ef9061438b565b38615952565b3d91506159d0565b5060ff600d5460c81c16615763565b15615a1357565b60405162461bcd60e51b815260206004820152601860248201527f4e6f20737562736372697074696f6e2061737369676e656400000000000000006044820152606490fd5b600060018060a01b03815416600354615a72811515615a0c565b813b156106dc57604051633d40f28f60e01b81523060048201526024810191909152919081908390818381604481015b03925af1908115612ef55750614e6a5750565b600060018060a01b03815416600354615acf811515615a0c565b813b156106dc5760405163032a136160e11b8152306004820152602481019190915291908190839081838160448101615aa2565b600060018060a01b03815416600354615b1d811515615a0c565b813b156106dc57604051630221a1c360e51b8152306004820152602481019190915291908190839081838160448101615aa2565b6000805460405163524d530b60e01b815260209390916001600160a01b039085908490600490829085165afa928315610e25578493615c05575b508216156106dc579082916040519085820191635e5bc1c560e11b835281602482015260248152615bbb81614118565b51925af1615bc76145b2565b5015615bd05750565b6064906040519062461bcd60e51b82526004820152600e60248201526d11195c1bdcda5d0819985a5b195960921b6044820152fd5b9092508481813d8311615c35575b615c1d8183614133565b810103126108c657615c2e9061438b565b9138615b8b565b503d615c13565b6000338152602091601e8352604080832054928315615e9057338152601f85528181205494858503958514615e7f5760155485939291906001600160a01b0381169081615c91575b5050601f90338352522055565b60ff91929394955060a01c166004811015615e6b5786949392919080615d3957508394509060249181939451928380926370a0823160e01b82523360048301525afa908115615677579083929187959491615d00575b5090615cf9601f926016541115615271565b9038615c84565b828094959650819392503d8311615d32575b615d1c8183614133565b810103126106dc57518593929190615cf9615ce7565b503d615d12565b60018103615dd457506017548451627eeac760e11b81523360048201526024810191909152939450919290918290829060449082905afa908115615677579083929187959491615d9b575b5090615d96601f926016541115615271565b615cf9565b828094959650819392503d8311615dcd575b615db78183614133565b810103126106dc57518593929190615d96615d84565b503d615dad565b600214615de5575b50601f90615cf9565b8394509060249181939451928380926370a0823160e01b82523360048301525afa908115615677579083929187959491615e32575b5090615e2c601f926016541115615271565b90615ddc565b828094959650819392503d8311615e64575b615e4e8183614133565b810103126106dc57518593929190615e2c615e1a565b503d615e44565b634e487b7160e01b84526021600452602484fd5b8251630ccaf35d60e41b8152600490fd5b81516358cd4fc160e11b8152600490fd5b6014540180601455600a5414615eb357565b6008805460ff60b01b1916600360b11b179055600054604051630425172560e31b815230600482015290602090829060249082906001600160a01b03165afa90811561487157600091615f10575b50615f0857565b614258615a58565b906020823d8211615f39575b81615f2960209383614133565b810103126104f257505138615f01565b3d9150615f1c565b601454600a5414615eb35756fe18381720d6efb26847068a65e3be979f1243520b7db6b16331969a7acdb200d5e465c22b8ec96fc194d9a0791b76171272fb36c68a84e2c807ed610cb9c7b9b16e1540171b6c0c960b71a7020d9f60077f6af931a8bbf590da0223dacf75c7afa264697066735822122043ff1a2656174b4d6ea0622be209e3147fe991523ce8d382cc0981a63821667a64736f6c63430008130033",
  "linkReferences": {},
  "deployedLinkReferences": {}
}