{
  "_format": "hh-sol-artifact-1",
  "contractName": "Pool",
  "sourceName": "contracts/Pool.sol",
  "abi": [
    {
      "inputs": [
        {
          "internalType": "address",
          "name": "_factory",
          "type": "address"
        }
      ],
      "stateMutability": "nonpayable",
      "type": "constructor"
    },
    {
      "inputs": [],
      "name": "ContractsCannotPurchase",
      "type": "error"
    },
    {
      "inputs": [],
      "name": "CreatorNotAllowed",
      "type": "error"
    },
    {
      "inputs": [],
      "name": "ExceedsMaxSlots",
      "type": "error"
    },
    {
      "inputs": [],
      "name": "ExceedsSlotLimit",
      "type": "error"
    },
    {
      "inputs": [],
      "name": "ExceedsWinnersCount",
      "type": "error"
    },
    {
      "inputs": [],
      "name": "IncorrectPayment",
      "type": "error"
    },
    {
      "inputs": [],
      "name": "InvalidNonPrizedPurchase",
      "type": "error"
    },
    {
      "inputs": [],
      "name": "InvalidPoolState",
      "type": "error"
    },
    {
      "inputs": [],
      "name": "InvalidPrizeAmount",
      "type": "error"
    },
    {
      "inputs": [],
      "name": "InvalidPrizeCollection",
      "type": "error"
    },
    {
      "inputs": [],
      "name": "InvalidPrizeType",
      "type": "error"
    },
    {
      "inputs": [],
      "name": "InvalidState",
      "type": "error"
    },
    {
      "inputs": [],
      "name": "MintingNotSupported",
      "type": "error"
    },
    {
      "inputs": [],
      "name": "NoPrizesToClaim",
      "type": "error"
    },
    {
      "inputs": [],
      "name": "NotAWinner",
      "type": "error"
    },
    {
      "inputs": [],
      "name": "OnlyOperator",
      "type": "error"
    },
    {
      "inputs": [],
      "name": "PoolDurationElapsed",
      "type": "error"
    },
    {
      "inputs": [],
      "name": "PoolNotActive",
      "type": "error"
    },
    {
      "inputs": [],
      "name": "PrizeTransferFailed",
      "type": "error"
    },
    {
      "inputs": [],
      "name": "ProtocolAdminNotAllowed",
      "type": "error"
    },
    {
      "inputs": [],
      "name": "SocialEngagementNotConfigured",
      "type": "error"
    },
    {
      "inputs": [],
      "name": "TimestampDelayIssue",
      "type": "error"
    },
    {
      "inputs": [],
      "name": "UnauthorizedCaller",
      "type": "error"
    },
    {
      "inputs": [],
      "name": "ZeroAddress",
      "type": "error"
    },
    {
      "inputs": [],
      "name": "ZeroQuantity",
      "type": "error"
    },
    {
      "inputs": [],
      "name": "ZeroSlotFee",
      "type": "error"
    },
    {
      "anonymous": false,
      "inputs": [
        {
          "indexed": false,
          "internalType": "string",
          "name": "reason",
          "type": "string"
        }
      ],
      "name": "BatchProcessingFailed",
      "type": "event"
    },
    {
      "anonymous": false,
      "inputs": [
        {
          "indexed": false,
          "internalType": "bytes",
          "name": "lowLevelData",
          "type": "bytes"
        }
      ],
      "name": "BatchProcessingFailedBytes",
      "type": "event"
    },
    {
      "anonymous": false,
      "inputs": [],
      "name": "FullRefundEnabledForDeletion",
      "type": "event"
    },
    {
      "anonymous": false,
      "inputs": [
        {
          "indexed": true,
          "internalType": "address",
          "name": "participant",
          "type": "address"
        },
        {
          "indexed": false,
          "internalType": "uint256",
          "name": "amount",
          "type": "uint256"
        }
      ],
      "name": "FullRefundForDeletion",
      "type": "event"
    },
    {
      "anonymous": false,
      "inputs": [
        {
          "indexed": true,
          "internalType": "address",
          "name": "previousOwner",
          "type": "address"
        },
        {
          "indexed": true,
          "internalType": "address",
          "name": "newOwner",
          "type": "address"
        }
      ],
      "name": "OwnershipTransferred",
      "type": "event"
    },
    {
      "anonymous": false,
      "inputs": [
        {
          "indexed": false,
          "internalType": "address",
          "name": "account",
          "type": "address"
        }
      ],
      "name": "Paused",
      "type": "event"
    },
    {
      "anonymous": false,
      "inputs": [],
      "name": "PoolActivated",
      "type": "event"
    },
    {
      "anonymous": false,
      "inputs": [],
      "name": "PoolDeleted",
      "type": "event"
    },
    {
      "anonymous": false,
      "inputs": [],
      "name": "PoolEnded",
      "type": "event"
    },
    {
      "anonymous": false,
      "inputs": [],
      "name": "PoolUnengaged",
      "type": "event"
    },
    {
      "anonymous": false,
      "inputs": [
        {
          "indexed": true,
          "internalType": "address",
          "name": "winner",
          "type": "address"
        },
        {
          "indexed": false,
          "internalType": "uint256",
          "name": "tokenId",
          "type": "uint256"
        }
      ],
      "name": "PrizeClaimed",
      "type": "event"
    },
    {
      "anonymous": false,
      "inputs": [
        {
          "indexed": false,
          "internalType": "uint256",
          "name": "requestId",
          "type": "uint256"
        }
      ],
      "name": "RandomRequested",
      "type": "event"
    },
    {
      "anonymous": false,
      "inputs": [
        {
          "indexed": true,
          "internalType": "address",
          "name": "participant",
          "type": "address"
        },
        {
          "indexed": false,
          "internalType": "uint256",
          "name": "amount",
          "type": "uint256"
        }
      ],
      "name": "RefundClaimed",
      "type": "event"
    },
    {
      "anonymous": false,
      "inputs": [
        {
          "indexed": true,
          "internalType": "address",
          "name": "recipient",
          "type": "address"
        },
        {
          "indexed": false,
          "internalType": "uint256",
          "name": "amount",
          "type": "uint256"
        }
      ],
      "name": "RevenueWithdrawn",
      "type": "event"
    },
    {
      "anonymous": false,
      "inputs": [
        {
          "indexed": true,
          "internalType": "uint256",
          "name": "batchNumber",
          "type": "uint256"
        },
        {
          "indexed": false,
          "internalType": "uint256",
          "name": "participantCount",
          "type": "uint256"
        },
        {
          "indexed": false,
          "internalType": "uint256",
          "name": "shuffleStartIndex",
          "type": "uint256"
        },
        {
          "indexed": false,
          "internalType": "uint256",
          "name": "batchSize",
          "type": "uint256"
        }
      ],
      "name": "SelectionStarted",
      "type": "event"
    },
    {
      "anonymous": false,
      "inputs": [
        {
          "indexed": true,
          "internalType": "address",
          "name": "participant",
          "type": "address"
        },
        {
          "indexed": false,
          "internalType": "uint256",
          "name": "quantity",
          "type": "uint256"
        }
      ],
      "name": "SlotsPurchased",
      "type": "event"
    },
    {
      "anonymous": false,
      "inputs": [
        {
          "indexed": false,
          "internalType": "address",
          "name": "account",
          "type": "address"
        }
      ],
      "name": "Unpaused",
      "type": "event"
    },
    {
      "anonymous": false,
      "inputs": [
        {
          "indexed": false,
          "internalType": "string",
          "name": "reason",
          "type": "string"
        }
      ],
      "name": "VRFRequestFailed",
      "type": "event"
    },
    {
      "anonymous": false,
      "inputs": [
        {
          "indexed": false,
          "internalType": "bytes",
          "name": "lowLevelData",
          "type": "bytes"
        }
      ],
      "name": "VRFRequestFailedBytes",
      "type": "event"
    },
    {
      "anonymous": false,
      "inputs": [
        {
          "indexed": false,
          "internalType": "address[]",
          "name": "winners",
          "type": "address[]"
        }
      ],
      "name": "WinnersSelected",
      "type": "event"
    },
    {
      "inputs": [
        {
          "internalType": "uint256",
          "name": "batchRandomSeed",
          "type": "uint256"
        }
      ],
      "name": "_processBatchWithRandomness",
      "outputs": [],
      "stateMutability": "nonpayable",
      "type": "function"
    },
    {
      "inputs": [],
      "name": "amountPerWinner",
      "outputs": [
        {
          "internalType": "uint256",
          "name": "",
          "type": "uint256"
        }
      ],
      "stateMutability": "view",
      "type": "function"
    },
    {
      "inputs": [],
      "name": "batchCount",
      "outputs": [
        {
          "internalType": "uint256",
          "name": "",
          "type": "uint256"
        }
      ],
      "stateMutability": "view",
      "type": "function"
    },
    {
      "inputs": [
        {
          "internalType": "uint256",
          "name": "",
          "type": "uint256"
        }
      ],
      "name": "batchRandomSeeds",
      "outputs": [
        {
          "internalType": "uint256",
          "name": "",
          "type": "uint256"
        }
      ],
      "stateMutability": "view",
      "type": "function"
    },
    {
      "inputs": [],
      "name": "claimPrize",
      "outputs": [],
      "stateMutability": "nonpayable",
      "type": "function"
    },
    {
      "inputs": [],
      "name": "claimRefund",
      "outputs": [],
      "stateMutability": "nonpayable",
      "type": "function"
    },
    {
      "inputs": [
        {
          "internalType": "address",
          "name": "",
          "type": "address"
        }
      ],
      "name": "claimedWins",
      "outputs": [
        {
          "internalType": "uint256",
          "name": "",
          "type": "uint256"
        }
      ],
      "stateMutability": "view",
      "type": "function"
    },
    {
      "inputs": [],
      "name": "closePool",
      "outputs": [],
      "stateMutability": "nonpayable",
      "type": "function"
    },
    {
      "inputs": [],
      "name": "creationFeePercentage",
      "outputs": [
        {
          "internalType": "uint256",
          "name": "",
          "type": "uint256"
        }
      ],
      "stateMutability": "view",
      "type": "function"
    },
    {
      "inputs": [],
      "name": "creator",
      "outputs": [
        {
          "internalType": "address",
          "name": "",
          "type": "address"
        }
      ],
      "stateMutability": "view",
      "type": "function"
    },
    {
      "inputs": [],
      "name": "currentBatchSize",
      "outputs": [
        {
          "internalType": "uint256",
          "name": "",
          "type": "uint256"
        }
      ],
      "stateMutability": "view",
      "type": "function"
    },
    {
      "inputs": [],
      "name": "deletePool",
      "outputs": [],
      "stateMutability": "nonpayable",
      "type": "function"
    },
    {
      "inputs": [],
      "name": "duration",
      "outputs": [
        {
          "internalType": "uint256",
          "name": "",
          "type": "uint256"
        }
      ],
      "stateMutability": "view",
      "type": "function"
    },
    {
      "inputs": [],
      "name": "endTime",
      "outputs": [
        {
          "internalType": "uint256",
          "name": "",
          "type": "uint256"
        }
      ],
      "stateMutability": "view",
      "type": "function"
    },
    {
      "inputs": [],
      "name": "erc20PrizeAmount",
      "outputs": [
        {
          "internalType": "uint256",
          "name": "",
          "type": "uint256"
        }
      ],
      "stateMutability": "view",
      "type": "function"
    },
    {
      "inputs": [],
      "name": "erc20PrizeToken",
      "outputs": [
        {
          "internalType": "address",
          "name": "",
          "type": "address"
        }
      ],
      "stateMutability": "view",
      "type": "function"
    },
    {
      "inputs": [],
      "name": "erc721EscrowClaimed",
      "outputs": [
        {
          "internalType": "bool",
          "name": "",
          "type": "bool"
        }
      ],
      "stateMutability": "view",
      "type": "function"
    },
    {
      "inputs": [],
      "name": "getParticipantsCount",
      "outputs": [
        {
          "internalType": "uint256",
          "name": "",
          "type": "uint256"
        }
      ],
      "stateMutability": "view",
      "type": "function"
    },
    {
      "inputs": [
        {
          "internalType": "address",
          "name": "participant",
          "type": "address"
        }
      ],
      "name": "getRefundableAmount",
      "outputs": [
        {
          "internalType": "uint256",
          "name": "",
          "type": "uint256"
        }
      ],
      "stateMutability": "view",
      "type": "function"
    },
    {
      "inputs": [],
      "name": "getSlotLimit",
      "outputs": [
        {
          "internalType": "uint256",
          "name": "",
          "type": "uint256"
        }
      ],
      "stateMutability": "view",
      "type": "function"
    },
    {
      "inputs": [
        {
          "internalType": "address",
          "name": "participant",
          "type": "address"
        }
      ],
      "name": "getSlotsPurchased",
      "outputs": [
        {
          "internalType": "uint256",
          "name": "",
          "type": "uint256"
        }
      ],
      "stateMutability": "view",
      "type": "function"
    },
    {
      "inputs": [
        {
          "internalType": "address",
          "name": "",
          "type": "address"
        }
      ],
      "name": "hasClaimedFeeRefund",
      "outputs": [
        {
          "internalType": "bool",
          "name": "",
          "type": "bool"
        }
      ],
      "stateMutability": "view",
      "type": "function"
    },
    {
      "inputs": [
        {
          "internalType": "address",
          "name": "",
          "type": "address"
        }
      ],
      "name": "hasCompletedSocialEngagement",
      "outputs": [
        {
          "internalType": "bool",
          "name": "",
          "type": "bool"
        }
      ],
      "stateMutability": "view",
      "type": "function"
    },
    {
      "inputs": [],
      "name": "holderTokenAddress",
      "outputs": [
        {
          "internalType": "address",
          "name": "",
          "type": "address"
        }
      ],
      "stateMutability": "view",
      "type": "function"
    },
    {
      "inputs": [],
      "name": "holderTokenId",
      "outputs": [
        {
          "internalType": "uint256",
          "name": "",
          "type": "uint256"
        }
      ],
      "stateMutability": "view",
      "type": "function"
    },
    {
      "inputs": [],
      "name": "holderTokenStandard",
      "outputs": [
        {
          "internalType": "enum PrizeTypes.Standard",
          "name": "",
          "type": "uint8"
        }
      ],
      "stateMutability": "view",
      "type": "function"
    },
    {
      "inputs": [],
      "name": "i_vrfCoordinator",
      "outputs": [
        {
          "internalType": "contract VRFCoordinatorV2PlusInterface",
          "name": "",
          "type": "address"
        }
      ],
      "stateMutability": "view",
      "type": "function"
    },
    {
      "inputs": [
        {
          "internalType": "address",
          "name": "_manager",
          "type": "address"
        },
        {
          "internalType": "string",
          "name": "_name",
          "type": "string"
        },
        {
          "internalType": "bool",
          "name": "_isPrized",
          "type": "bool"
        },
        {
          "internalType": "uint256",
          "name": "_startTime",
          "type": "uint256"
        },
        {
          "internalType": "uint256",
          "name": "_duration",
          "type": "uint256"
        },
        {
          "internalType": "uint256",
          "name": "_winnersCount",
          "type": "uint256"
        },
        {
          "internalType": "bool",
          "name": "_isEscrowedPrize",
          "type": "bool"
        },
        {
          "internalType": "address",
          "name": "_prizeCollection",
          "type": "address"
        },
        {
          "internalType": "address",
          "name": "_creator",
          "type": "address"
        },
        {
          "internalType": "uint256",
          "name": "_slotLimit",
          "type": "uint256"
        },
        {
          "internalType": "uint256",
          "name": "_slotFee",
          "type": "uint256"
        },
        {
          "internalType": "uint256",
          "name": "_maxSlotsPerParticipant",
          "type": "uint256"
        },
        {
          "internalType": "enum PrizeTypes.Standard",
          "name": "_standard",
          "type": "uint8"
        },
        {
          "internalType": "uint256",
          "name": "_prizeTokenId",
          "type": "uint256"
        },
        {
          "internalType": "uint256",
          "name": "_amountPerWinner",
          "type": "uint256"
        },
        {
          "internalType": "address",
          "name": "_erc20PrizeToken",
          "type": "address"
        },
        {
          "internalType": "uint256",
          "name": "_erc20PrizeAmount",
          "type": "uint256"
        },
        {
          "internalType": "uint256",
          "name": "_nativePrizeAmount",
          "type": "uint256"
        },
        {
          "internalType": "bool",
          "name": "_usesCustomFee",
          "type": "bool"
        },
        {
          "internalType": "address",
          "name": "_holderTokenAddress",
          "type": "address"
        },
        {
          "internalType": "enum PrizeTypes.Standard",
          "name": "_holderTokenStandard",
          "type": "uint8"
        },
        {
          "internalType": "uint256",
          "name": "_minHolderTokenBalance",
          "type": "uint256"
        },
        {
          "internalType": "uint256",
          "name": "_holderTokenId",
          "type": "uint256"
        },
        {
          "internalType": "address",
          "name": "_revenueRecipient",
          "type": "address"
        },
        {
          "internalType": "bool",
          "name": "_socialEngagementRequired",
          "type": "bool"
        },
        {
          "internalType": "bool",
          "name": "_isCollabPool",
          "type": "bool"
        }
      ],
      "name": "initialize",
      "outputs": [],
      "stateMutability": "payable",
      "type": "function"
    },
    {
      "inputs": [],
      "name": "isCollabPool",
      "outputs": [
        {
          "internalType": "bool",
          "name": "",
          "type": "bool"
        }
      ],
      "stateMutability": "view",
      "type": "function"
    },
    {
      "inputs": [],
      "name": "isEscrowedPrize",
      "outputs": [
        {
          "internalType": "bool",
          "name": "",
          "type": "bool"
        }
      ],
      "stateMutability": "view",
      "type": "function"
    },
    {
      "inputs": [],
      "name": "isPrized",
      "outputs": [
        {
          "internalType": "bool",
          "name": "",
          "type": "bool"
        }
      ],
      "stateMutability": "view",
      "type": "function"
    },
    {
      "inputs": [],
      "name": "isRefundable",
      "outputs": [
        {
          "internalType": "bool",
          "name": "",
          "type": "bool"
        }
      ],
      "stateMutability": "view",
      "type": "function"
    },
    {
      "inputs": [],
      "name": "maxSlotsPerParticipant",
      "outputs": [
        {
          "internalType": "uint256",
          "name": "",
          "type": "uint256"
        }
      ],
      "stateMutability": "view",
      "type": "function"
    },
    {
      "inputs": [],
      "name": "minHolderTokenBalance",
      "outputs": [
        {
          "internalType": "uint256",
          "name": "",
          "type": "uint256"
        }
      ],
      "stateMutability": "view",
      "type": "function"
    },
    {
      "inputs": [],
      "name": "mint",
      "outputs": [],
      "stateMutability": "nonpayable",
      "type": "function"
    },
    {
      "inputs": [],
      "name": "name",
      "outputs": [
        {
          "internalType": "string",
          "name": "",
          "type": "string"
        }
      ],
      "stateMutability": "view",
      "type": "function"
    },
    {
      "inputs": [],
      "name": "nativePrizeAmount",
      "outputs": [
        {
          "internalType": "uint256",
          "name": "",
          "type": "uint256"
        }
      ],
      "stateMutability": "view",
      "type": "function"
    },
    {
      "inputs": [
        {
          "internalType": "address",
          "name": "",
          "type": "address"
        },
        {
          "internalType": "address",
          "name": "",
          "type": "address"
        },
        {
          "internalType": "uint256[]",
          "name": "",
          "type": "uint256[]"
        },
        {
          "internalType": "uint256[]",
          "name": "",
          "type": "uint256[]"
        },
        {
          "internalType": "bytes",
          "name": "",
          "type": "bytes"
        }
      ],
      "name": "onERC1155BatchReceived",
      "outputs": [
        {
          "internalType": "bytes4",
          "name": "",
          "type": "bytes4"
        }
      ],
      "stateMutability": "pure",
      "type": "function"
    },
    {
      "inputs": [
        {
          "internalType": "address",
          "name": "",
          "type": "address"
        },
        {
          "internalType": "address",
          "name": "",
          "type": "address"
        },
        {
          "internalType": "uint256",
          "name": "",
          "type": "uint256"
        },
        {
          "internalType": "uint256",
          "name": "",
          "type": "uint256"
        },
        {
          "internalType": "bytes",
          "name": "",
          "type": "bytes"
        }
      ],
      "name": "onERC1155Received",
      "outputs": [
        {
          "internalType": "bytes4",
          "name": "",
          "type": "bytes4"
        }
      ],
      "stateMutability": "pure",
      "type": "function"
    },
    {
      "inputs": [
        {
          "internalType": "address",
          "name": "",
          "type": "address"
        },
        {
          "internalType": "address",
          "name": "",
          "type": "address"
        },
        {
          "internalType": "uint256",
          "name": "",
          "type": "uint256"
        },
        {
          "internalType": "bytes",
          "name": "",
          "type": "bytes"
        }
      ],
      "name": "onERC721Received",
      "outputs": [
        {
          "internalType": "bytes4",
          "name": "",
          "type": "bytes4"
        }
      ],
      "stateMutability": "pure",
      "type": "function"
    },
    {
      "inputs": [],
      "name": "owner",
      "outputs": [
        {
          "internalType": "address",
          "name": "",
          "type": "address"
        }
      ],
      "stateMutability": "view",
      "type": "function"
    },
    {
      "inputs": [
        {
          "internalType": "uint256",
          "name": "",
          "type": "uint256"
        }
      ],
      "name": "participants",
      "outputs": [
        {
          "internalType": "address",
          "name": "",
          "type": "address"
        }
      ],
      "stateMutability": "view",
      "type": "function"
    },
    {
      "inputs": [],
      "name": "paused",
      "outputs": [
        {
          "internalType": "bool",
          "name": "",
          "type": "bool"
        }
      ],
      "stateMutability": "view",
      "type": "function"
    },
    {
      "inputs": [],
      "name": "pendingProtocolFee",
      "outputs": [
        {
          "internalType": "uint256",
          "name": "",
          "type": "uint256"
        }
      ],
      "stateMutability": "view",
      "type": "function"
    },
    {
      "inputs": [
        {
          "internalType": "address",
          "name": "participant",
          "type": "address"
        }
      ],
      "name": "prizeClaimed",
      "outputs": [
        {
          "internalType": "uint256",
          "name": "",
          "type": "uint256"
        }
      ],
      "stateMutability": "view",
      "type": "function"
    },
    {
      "inputs": [],
      "name": "prizeCollection",
      "outputs": [
        {
          "internalType": "address",
          "name": "",
          "type": "address"
        }
      ],
      "stateMutability": "view",
      "type": "function"
    },
    {
      "inputs": [],
      "name": "prizeTokenId",
      "outputs": [
        {
          "internalType": "uint256",
          "name": "",
          "type": "uint256"
        }
      ],
      "stateMutability": "view",
      "type": "function"
    },
    {
      "inputs": [],
      "name": "prizesClaimedCount",
      "outputs": [
        {
          "internalType": "uint256",
          "name": "",
          "type": "uint256"
        }
      ],
      "stateMutability": "view",
      "type": "function"
    },
    {
      "inputs": [],
      "name": "protocolFeePercentage",
      "outputs": [
        {
          "internalType": "uint256",
          "name": "",
          "type": "uint256"
        }
      ],
      "stateMutability": "view",
      "type": "function"
    },
    {
      "inputs": [],
      "name": "protocolFeeTaken",
      "outputs": [
        {
          "internalType": "bool",
          "name": "",
          "type": "bool"
        }
      ],
      "stateMutability": "view",
      "type": "function"
    },
    {
      "inputs": [
        {
          "internalType": "uint256",
          "name": "quantity",
          "type": "uint256"
        },
        {
          "internalType": "uint256",
          "name": "_nonce",
          "type": "uint256"
        },
        {
          "internalType": "uint256",
          "name": "_deadline",
          "type": "uint256"
        },
        {
          "internalType": "bytes",
          "name": "_signature",
          "type": "bytes"
        },
        {
          "internalType": "uint256[]",
          "name": "_tokenIds",
          "type": "uint256[]"
        }
      ],
      "name": "purchaseSlots",
      "outputs": [],
      "stateMutability": "payable",
      "type": "function"
    },
    {
      "inputs": [],
      "name": "randomRequested",
      "outputs": [
        {
          "internalType": "bool",
          "name": "",
          "type": "bool"
        }
      ],
      "stateMutability": "view",
      "type": "function"
    },
    {
      "inputs": [],
      "name": "randomSeed",
      "outputs": [
        {
          "internalType": "uint256",
          "name": "",
          "type": "uint256"
        }
      ],
      "stateMutability": "view",
      "type": "function"
    },
    {
      "inputs": [],
      "name": "randomnessUsed",
      "outputs": [
        {
          "internalType": "bool",
          "name": "",
          "type": "bool"
        }
      ],
      "stateMutability": "view",
      "type": "function"
    },
    {
      "inputs": [
        {
          "internalType": "uint256",
          "name": "requestId",
          "type": "uint256"
        },
        {
          "internalType": "uint256[]",
          "name": "randomWords",
          "type": "uint256[]"
        }
      ],
      "name": "rawFulfillRandomWords",
      "outputs": [],
      "stateMutability": "nonpayable",
      "type": "function"
    },
    {
      "inputs": [
        {
          "internalType": "address",
          "name": "",
          "type": "address"
        }
      ],
      "name": "refundableAmount",
      "outputs": [
        {
          "internalType": "uint256",
          "name": "",
          "type": "uint256"
        }
      ],
      "stateMutability": "view",
      "type": "function"
    },
    {
      "inputs": [
        {
          "internalType": "address",
          "name": "",
          "type": "address"
        }
      ],
      "name": "refundedNonWinningSlots",
      "outputs": [
        {
          "internalType": "uint256",
          "name": "",
          "type": "uint256"
        }
      ],
      "stateMutability": "view",
      "type": "function"
    },
    {
      "inputs": [],
      "name": "removeFromVRFSubscription",
      "outputs": [],
      "stateMutability": "nonpayable",
      "type": "function"
    },
    {
      "inputs": [],
      "name": "renounceOwnership",
      "outputs": [],
      "stateMutability": "nonpayable",
      "type": "function"
    },
    {
      "inputs": [],
      "name": "requestRandomness",
      "outputs": [],
      "stateMutability": "nonpayable",
      "type": "function"
    },
    {
      "inputs": [],
      "name": "revenueRecipient",
      "outputs": [
        {
          "internalType": "address",
          "name": "",
          "type": "address"
        }
      ],
      "stateMutability": "view",
      "type": "function"
    },
    {
      "inputs": [],
      "name": "s_vrf_callbackGasLimit",
      "outputs": [
        {
          "internalType": "uint32",
          "name": "",
          "type": "uint32"
        }
      ],
      "stateMutability": "view",
      "type": "function"
    },
    {
      "inputs": [],
      "name": "s_vrf_keyHash",
      "outputs": [
        {
          "internalType": "bytes32",
          "name": "",
          "type": "bytes32"
        }
      ],
      "stateMutability": "view",
      "type": "function"
    },
    {
      "inputs": [],
      "name": "s_vrf_lastRequestId",
      "outputs": [
        {
          "internalType": "uint256",
          "name": "",
          "type": "uint256"
        }
      ],
      "stateMutability": "view",
      "type": "function"
    },
    {
      "inputs": [],
      "name": "s_vrf_requestConfirmations",
      "outputs": [
        {
          "internalType": "uint16",
          "name": "",
          "type": "uint16"
        }
      ],
      "stateMutability": "view",
      "type": "function"
    },
    {
      "inputs": [],
      "name": "s_vrf_subscriptionId",
      "outputs": [
        {
          "internalType": "uint256",
          "name": "",
          "type": "uint256"
        }
      ],
      "stateMutability": "view",
      "type": "function"
    },
    {
      "inputs": [],
      "name": "shuffleStartIndex",
      "outputs": [
        {
          "internalType": "uint256",
          "name": "",
          "type": "uint256"
        }
      ],
      "stateMutability": "view",
      "type": "function"
    },
    {
      "inputs": [],
      "name": "slotFee",
      "outputs": [
        {
          "internalType": "uint256",
          "name": "",
          "type": "uint256"
        }
      ],
      "stateMutability": "view",
      "type": "function"
    },
    {
      "inputs": [],
      "name": "slotLimit",
      "outputs": [
        {
          "internalType": "uint256",
          "name": "",
          "type": "uint256"
        }
      ],
      "stateMutability": "view",
      "type": "function"
    },
    {
      "inputs": [
        {
          "internalType": "address",
          "name": "",
          "type": "address"
        }
      ],
      "name": "slotsPurchased",
      "outputs": [
        {
          "internalType": "uint256",
          "name": "",
          "type": "uint256"
        }
      ],
      "stateMutability": "view",
      "type": "function"
    },
    {
      "inputs": [],
      "name": "socialEngagementRequired",
      "outputs": [
        {
          "internalType": "bool",
          "name": "",
          "type": "bool"
        }
      ],
      "stateMutability": "view",
      "type": "function"
    },
    {
      "inputs": [],
      "name": "standard",
      "outputs": [
        {
          "internalType": "enum PrizeTypes.Standard",
          "name": "",
          "type": "uint8"
        }
      ],
      "stateMutability": "view",
      "type": "function"
    },
    {
      "inputs": [],
      "name": "startTime",
      "outputs": [
        {
          "internalType": "uint256",
          "name": "",
          "type": "uint256"
        }
      ],
      "stateMutability": "view",
      "type": "function"
    },
    {
      "inputs": [],
      "name": "state",
      "outputs": [
        {
          "internalType": "enum IPool.PoolState",
          "name": "",
          "type": "uint8"
        }
      ],
      "stateMutability": "view",
      "type": "function"
    },
    {
      "inputs": [
        {
          "internalType": "bytes4",
          "name": "interfaceId",
          "type": "bytes4"
        }
      ],
      "name": "supportsInterface",
      "outputs": [
        {
          "internalType": "bool",
          "name": "",
          "type": "bool"
        }
      ],
      "stateMutability": "view",
      "type": "function"
    },
    {
      "inputs": [
        {
          "internalType": "uint256",
          "name": "",
          "type": "uint256"
        }
      ],
      "name": "tokenIdClaimedBy",
      "outputs": [
        {
          "internalType": "address",
          "name": "",
          "type": "address"
        }
      ],
      "stateMutability": "view",
      "type": "function"
    },
    {
      "inputs": [],
      "name": "totalCreatorRevenue",
      "outputs": [
        {
          "internalType": "uint256",
          "name": "",
          "type": "uint256"
        }
      ],
      "stateMutability": "view",
      "type": "function"
    },
    {
      "inputs": [],
      "name": "totalGlobalFeeRevenue",
      "outputs": [
        {
          "internalType": "uint256",
          "name": "",
          "type": "uint256"
        }
      ],
      "stateMutability": "view",
      "type": "function"
    },
    {
      "inputs": [],
      "name": "totalRefundableAmount",
      "outputs": [
        {
          "internalType": "uint256",
          "name": "",
          "type": "uint256"
        }
      ],
      "stateMutability": "view",
      "type": "function"
    },
    {
      "inputs": [
        {
          "internalType": "address",
          "name": "newOwner",
          "type": "address"
        }
      ],
      "name": "transferOwnership",
      "outputs": [],
      "stateMutability": "nonpayable",
      "type": "function"
    },
    {
      "inputs": [],
      "name": "usesCustomFee",
      "outputs": [
        {
          "internalType": "bool",
          "name": "",
          "type": "bool"
        }
      ],
      "stateMutability": "view",
      "type": "function"
    },
    {
      "inputs": [],
      "name": "wasDeletedForFullRefund",
      "outputs": [
        {
          "internalType": "bool",
          "name": "",
          "type": "bool"
        }
      ],
      "stateMutability": "view",
      "type": "function"
    },
    {
      "inputs": [
        {
          "internalType": "uint256",
          "name": "",
          "type": "uint256"
        }
      ],
      "name": "winners",
      "outputs": [
        {
          "internalType": "address",
          "name": "",
          "type": "address"
        }
      ],
      "stateMutability": "view",
      "type": "function"
    },
    {
      "inputs": [],
      "name": "winnersCount",
      "outputs": [
        {
          "internalType": "uint256",
          "name": "",
          "type": "uint256"
        }
      ],
      "stateMutability": "view",
      "type": "function"
    },
    {
      "inputs": [],
      "name": "winnersSelected",
      "outputs": [
        {
          "internalType": "uint256",
          "name": "",
          "type": "uint256"
        }
      ],
      "stateMutability": "view",
      "type": "function"
    },
    {
      "inputs": [
        {
          "internalType": "address",
          "name": "",
          "type": "address"
        }
      ],
      "name": "winsPerAddress",
      "outputs": [
        {
          "internalType": "uint256",
          "name": "",
          "type": "uint256"
        }
      ],
      "stateMutability": "view",
      "type": "function"
    },
    {
      "inputs": [],
      "name": "withdrawCreatorRevenue",
      "outputs": [],
      "stateMutability": "nonpayable",
      "type": "function"
    },
    {
      "inputs": [],
      "name": "withdrawProtocolRevenue",
      "outputs": [],
      "stateMutability": "nonpayable",
      "type": "function"
    }
  ],
  "bytecode": "0x60a034620000bb57601f62005a5138819003918201601f19168301916001600160401b03831184841017620000c057808492602094604052833981010312620000bb57516001600160a01b03908181168103620000bb576000543360018060a01b0319821617600055604051923391167f8be0079c531659141344cd1fd0a4f28419497f9722a3daafe3b4186f6b6457e0600080a36001805560ff196002541660025560805261597a9081620000d78239608051816118cf0152f35b600080fd5b634e487b7160e01b600052604160045260246000fdfe608080604052600436101561001357600080fd5b600090813560e01c90816301ffc9a7146137965750806302d05d3f1461376d5780630631c5c21461374f57806306f130561461373157806306fdde031461365e578063085219741461284a5780630aa00e70146136405780630b747d91146136225780630b78824b146136045780630e4fa158146135de5780630fb5a6b4146135c05780631249c58b1461345f578063150b7a02146134085780631d93fa0a146129615780631fe543e31461288357806325444fa41461284a5780632c1fecfe146128245780633197cbb614612806578063321679fa146127e8578063327bb1ad1461274e57806335c1d3491461270a5780633b26314d146126e157806340021434146122f657806342b72afa146122bd5780634457dba41461229b57806344a909861461227d57806348a3a4501461225757806349713811146122395780634e3ff460146121fa5780634f7f0fc0146121bb5780635755248e1461219d5780635a3b7e42146121775780635c975abb146121545780635d7dd4231461213657806366805de51461211d578063677375c3146120ff578063683d1936146120dc578063696917ba146120b65780636e61a1601461209057806370740ac914612051578063715018a614611ff7578063726043231461179a578063740e21981461176e57806378e9792514611750578063813e88b914611732578063837d11281461170d57806387213c35146116e75780638778d82c146116be578063888dc198146116a0578063898b36db146116825780638bc53285146116645780638bfbbcbe1461164b5780638d7fe478146116255780638da5cb5b146115fe5780638e50e509146115e05780639dd62cfc146115bc5780639ed5c1cc14611593578063a177ec0914611566578063a2fb11751461150a578063a67d0e6c146114ec578063a9532a5314611416578063ae4b82c1146113ed578063aebc4550146113c0578063af78ed0a146113a2578063b0b606c01461136f578063b5545a3c14610dc4578063b5ad841214610c1c578063bc197c8114610b8c578063c19d93fb14610b5d578063c2e784bd14610b3f578063c3fa0e3b14610b21578063c913d4ed14610b03578063cabfaa1814610ae5578063cc7d49ec14610abf578063d0d11ae814610aa1578063d17d135914610a68578063d447e9bc146109cd578063d91043f214610a4a578063dbb832bd14610a24578063dc52834e14610a06578063dc8a55c2146109cd578063e511a11b14610994578063e6f12cf714610976578063f23a6e611461091b578063f2fde38b1461088d578063f8413b07146105c9578063fb687df4146105a05763fd22b17c146103e957600080fd5b3461059d578060031936011261059d5780546040516336b87bd760e11b815233600482015290602090829060249082906001600160a01b03165afa908115610592578291610564575b50156105525760185460ff8160581c16600881101561053e57600461045791146146a7565b819060ff8160381c1680610533575b610524575b60201c60ff161580610519575b6104cd575b801561048f5761048c90615597565b80f35b60405162461bcd60e51b81526020600482015260166024820152752737903932bb32b73ab2903a37903a3930b739b332b960511b6044820152606490fd5b906028546107d092838202938285041482151715610505576104f86127106105009495048093614021565b602855613a6b565b61047d565b634e487b7160e01b83526011600452602483fd5b506028541515610478565b602e805490849055915061046b565b50602e541515610466565b634e487b7160e01b83526021600452602483fd5b6040516327e1f1e560e01b8152600490fd5b610585915060203d811161058b575b61057d8183613853565b810190613fbd565b38610432565b503d610573565b6040513d84823e3d90fd5b80fd5b503461059d578060031936011261059d57600e546040516001600160a01b039091168152602090f35b503461059d578060031936011261059d57600a54421015610880575b600a5442106105f48115613f60565b6018549060ff8260581c16600881101561086c5760028114908115610861575b5080610854575b156107e957601954600c541161078d57601e5415610728575b5081546040516336b87bd760e11b8152336004820152906001600160a01b03906020908390602490829085165afa91821561071d5784926106fd575b5081156106ef575b5080156106da575b1561069d5760ff6106959160481c1615613fd5565b61048c6140ed565b60405162461bcd60e51b815260206004820152601560248201527410d85b1b195c881b9bdd08185d5d1a1bdc9a5e9959605a1b6044820152606490fd5b50338252601b60205260408220541515610680565b9050600f5416331438610678565b61071691925060203d811161058b5761057d8183613853565b9038610670565b6040513d86823e3d90fd5b6107325738610634565b60405162461bcd60e51b815260206004820152602d60248201527f506f6f6c20656e642074696d65206e6f74207265616368656420666f7220696e60448201526c1a5d1a585b081c995c5d595cdd609a1b6064820152608490fd5b60405162461bcd60e51b815260206004820152602e60248201527f496e73756666696369656e74207061727469636970616e747320666f7220776960448201526d373732b91039b2b632b1ba34b7b760911b6064820152608490fd5b60405162461bcd60e51b815260206004820152603a60248201527f506f6f6c206d75737420626520696e20456e6465642f44726177696e6720737460448201527f61746520776974682077696e6e6572732072656d61696e696e670000000000006064820152608490fd5b50601e54600c541161061b565b600391501438610614565b634e487b7160e01b84526021600452602484fd5b61088861555d565b6105e5565b503461059d57602036600319011261059d576108a76138b4565b6108af6139b8565b6001600160a01b038116156108c75761048c90613a10565b60405162461bcd60e51b815260206004820152602660248201527f4f776e61626c653a206e6577206f776e657220697320746865207a65726f206160448201526564647265737360d01b6064820152608490fd5b503461059d5760a036600319011261059d576109356138b4565b5061093e6138ca565b506084356001600160401b0381116109725761095e9036906004016138e0565b505060405163f23a6e6160e01b8152602090f35b5080fd5b503461059d578060031936011261059d576020602854604051908152f35b503461059d57602036600319011261059d576020906040906001600160a01b036109bc6138b4565b168152602d83522054604051908152f35b503461059d57602036600319011261059d576020906040906001600160a01b036109f56138b4565b168152601683522054604051908152f35b503461059d578060031936011261059d576020601054604051908152f35b503461059d578060031936011261059d57602060ff60185460381c166040519015158152f35b503461059d578060031936011261059d576020602454604051908152f35b503461059d57602036600319011261059d576020906040906001600160a01b03610a906138b4565b168152601583522054604051908152f35b503461059d578060031936011261059d576020602c54604051908152f35b503461059d578060031936011261059d57602060ff60185460301c166040519015158152f35b503461059d578060031936011261059d576020601954604051908152f35b503461059d578060031936011261059d576020600454604051908152f35b503461059d578060031936011261059d576020602e54604051908152f35b503461059d578060031936011261059d576020600654604051908152f35b503461059d578060031936011261059d5760ff60185460581c1660405190600881101561053e57602092508152f35b503461059d5760a036600319011261059d57610ba66138b4565b50610baf6138ca565b506001600160401b03604435818111610c1857610bd090369060040161390d565b5050606435818111610c1857610bea90369060040161390d565b505060843590811161097257610c049036906004016138e0565b505060405163bc197c8160e01b8152602090f35b8280fd5b503461059d578060031936011261059d57610c356146e8565b6022546001600160a01b0390610c4e9082163314613a8e565b60ff60185460581c16600881101561053e5760058114610c185760078114610c1857806004610c869214908115610db9575b506146a7565b602654908115610c1857610cb7610cad612710610ca560245486614674565b048094614021565b9284602655615597565b828080808585602254165af1610ccb6140bd565b5015610d68576024602082855416604051928380926316accbeb60e01b82523060048301525afa91821561071d577f86a5cc8fe9af9ae68fb50f62885307a7755a30cbd290131644377f0bd94a7181926020928691610d4b575b50610d3e575b6022541692604051908152a26001805580f35b610d46614d8e565b610d2b565b610d629150833d811161058b5761057d8183613853565b38610d25565b60405162461bcd60e51b8152602060048201526024808201527f5472616e7366657220746f20726576656e756520726563697069656e742066616044820152631a5b195960e21b6064820152608490fd5b600691501438610c80565b503461059d578060031936011261059d57610ddd6146e8565b60185460ff90818160581c1660088110158061133e57600482148015611362575b818115611352575b811561132e575b50156112e957838360301c16600014610f2b5750505033825260209060298252610e3d816040852054161561473e565b338352601b8252604083205415610c1857601854908082169182610f1f575b505015610ecb57338252601b8152600080516020615925833981519152610e8a6040842054600d5490614674565b913384526029815260408420600160ff19825416179055610eba8480808087335af1610eb46140bd565b506147bf565b6040519283523392a25b6001805580f35b6084906040519062461bcd60e51b82526004820152602760248201527f526566756e6473206e6f7420706f737369626c6520666f72207468697320706f6044820152666f6c207479706560c81b6064820152fd5b831c1690503880610e5c565b61086c576007036110505750338252602060298152610f50826040852054161561473e565b338352601b815260408320548015610fdb57600d54610f6e91614674565b91601854821c16600014610fdf5760265490828210610fdb57610fa08360008051602061592583398151915293614021565b6026555b3384526029815260408420600160ff19825416179055610fcd8480808087335af1610eb46140bd565b6040519283523392a2610ec4565b8380fd5b60285482811061100b57906110038360008051602061592583398151915293614021565b602855610fa4565b60405162461bcd60e51b815260048101839052601a60248201527f496e73756666696369656e7420746f74616c20726576656e75650000000000006044820152606490fd5b90808216806112dd575b806112d1575b806112c6575b15611169575050338152601b60205260408120546015602052604082205490602d60205260408320549082811180611157575b15610fdb576110b0926110ab91614021565b614021565b600d546023549061271091820390828211611143576110da92916110d391614674565b0482614674565b90602754808311610fdb57826110ef91614021565b602755338352602d60205261110960408420918254613a6b565b90556111248280808085335af161111e6140bd565b50614783565b60405190815260008051602061592583398151915260203392a2610ec4565b634e487b7160e01b85526011600452602485fd5b506111628382614021565b8210611099565b80602092831c161561117d575b5050610ec4565b338352601b825260408320541561128c576111a590338452602983526040842054161561473e565b338252601b81526111bd6040832054600d5490614674565b611f40908181029181830414901517156105055761271090049060285482811061123757906111fb8360008051602061592583398151915293614021565b6028553384526029815260408420600160ff198254161790556112278480808087335af161111e6140bd565b6040519283523392a23880611176565b60405162461bcd60e51b815260048101839052602760248201527f496e73756666696369656e742062616c616e636520746f2070726f6365737320604482015266726566756e647360c81b6064820152608490fd5b60405162461bcd60e51b8152600481018390526012602482015271139bc81cdb1bdd1cc81c1d5c98da185cd95960721b6044820152606490fd5b506027541515611066565b50808260281c16611060565b50808260201c1661105a565b60405162461bcd60e51b815260206004820152601e60248201527f506f6f6c206e6f7420696e206120726566756e6461626c6520737461746500006044820152606490fd5b905061133e576007821481610e0d565b634e487b7160e01b85526021600452602485fd5b905061133e576005821481610e06565b5050600060068214610dfe565b503461059d57602036600319011261059d57602090600435815260328252604060018060a01b0391205416604051908152f35b503461059d578060031936011261059d576020602654604051908152f35b503461059d578060031936011261059d5760025460405160089190911c6001600160a01b03168152602090f35b503461059d57602036600319011261059d57604060209160043581528280522054604051908152f35b503461059d578060031936011261059d5760ff60185460581c166008811015908161053e57600481149182156114de575b82156114cd575b82156114a8575b5050156114645761048c614d8e565b606460405162461bcd60e51b815260206004820152602060248201527f506f6f6c206d75737420626520696e2061207465726d696e616c2073746174656044820152fd5b9091506114b9576006143880611455565b634e487b7160e01b82526021600452602482fd5b80925061053e57600581149161144e565b506007811491506000611447565b503461059d578060031936011261059d576020600d54604051908152f35b503461059d57602036600319011261059d57600435601a5481101561097257601a6000527f057c384a7d1c54f3a1b2e5e67b2617b8224fdfd1ea7234eea573a6ff665ff63e01546040516001600160a01b039091168152602090f35b503461059d578060031936011261059d5761158f60ff602f5460a01c1660405191829182613974565b0390f35b503461059d578060031936011261059d57602a546040516001600160a01b039091168152602090f35b503461059d578060031936011261059d57602063ffffffff60055416604051908152f35b503461059d578060031936011261059d576020602354604051908152f35b503461059d578060031936011261059d57546040516001600160a01b039091168152602090f35b503461059d578060031936011261059d57602060ff60185460481c166040519015158152f35b503461059d578060031936011261059d5761048c613ac9565b503461059d578060031936011261059d576020601e54604051908152f35b503461059d578060031936011261059d576020601154604051908152f35b503461059d578060031936011261059d576020601754604051908152f35b503461059d578060031936011261059d57602f546040516001600160a01b039091168152602090f35b503461059d578060031936011261059d57602060ff60185460401c166040519015158152f35b503461059d578060031936011261059d57602060185460ff60405191831c1615158152f35b503461059d578060031936011261059d576020601454604051908152f35b503461059d578060031936011261059d576020600954604051908152f35b503461059d57602036600319011261059d57602061179261178d6138b4565b614804565b604051908152f35b5061034036600319011261059d576117b06138b4565b602435906001600160401b038211610c185736602383011215610c1857828260040135926117dd8461399d565b936117eb6040519586613853565b8085523660248284010111610c1857806024602093018387013784010152604435908115158203611d415760c435908115158203611d415760e435906001600160a01b0382168203611d4157610104356001600160a01b0381169003611d41576004610184351015611ff3576101e435916001600160a01b0383168303611d415761024435928315158403611d415761026435966001600160a01b0388168803611d41576004610284351015611fef576102e4356001600160a01b0381169003611d41576103043515156103043503611d41576103243515156103243503611d41577f00000000000000000000000000000000000000000000000000000000000000006001600160a01b03163303611faa5788546001600160a01b0316611f6f5761191584613a10565b600f80546001600160a01b031916610104356001600160a01b039081169190911790915560405163ec644ddd60e01b81528a9160a090829060049082908a165afa9081156105925782839084928594611ef8575b509161ffff949163ffffffff9360025490610100600160a81b039060081b1690610100600160a81b031916176002556003556004551663ffffffff1960055416176005551661ffff1960075416176007558051906001600160401b038211611ee45781906119d86008546137eb565b601f8111611e72575b50602090601f8311600114611dfc578b92611df1575b50508160011b916000199060031b1c1916176008555b611a24606435806009556084359081600b55613a6b565b600a5560a435600c556018805460ff19811688151560ff161790915561014435600d556101643560105560408051631a35245160e31b815291949190816004816001600160a01b0386165afa8015611de6578a918b91611da3575b50602455602355600e80546001600160a01b0319166001600160a01b038581169190911790915561012435601155600498602092918116611d62575b506102e4356001600160a01b031615611d59576102e4355b602280546001600160a01b03199081166001600160a01b0393841617909155602a805490911685831617905561020435602b5561022435602c55604051636f6f8c5d60e01b8152998a9290918391165afa968715611d4e578897611d15575b506102243515611c6157505050505050610144350361059d57600360ff1960125416176012556201000062ff00001960185416176018555b60185460ff811680611c54575b15611c19575060ff6012541660048110156114b95760011480611c0a575b15611be65760ff60281b19601854166018555b60185468ff000000000000000061030435151560401b16906bff0000ff00000000ff00000019161763ff00000061032435151560181b161760185580f35b6001600c541160ff60281b6018549160281b169060ff60281b191617601855611ba8565b5060ff60185460101c16611b95565b60ff8160201c1615600014611c4357506501000000000060ff60281b196018541617601855611ba8565b65ff00000000001916601855611ba8565b5060ff8160201c16611b77565b6001600160a01b031615611ca0575050505050610144350361059d57600260ff1960125416176012556201000062ff0000196018541617601855611b6a565b93945091929091906001600160a01b0316611cbf575b50505050611b6a565b60ff64ff0000000062ff000093151560201b16941515169064ff00ff00ff19161791151560101b16171760185560ff196012541660ff6101843516176012556101a4356013556101c43560145538808080611cb6565b9096506020813d602011611d46575b81611d3160209383613853565b81010312611d4157519538611b32565b600080fd5b3d9150611d24565b6040513d8a823e3d90fd5b61010435611ad3565b602f80546001600160a81b0319166001600160a01b03909216919091176102843560a01b60ff60a01b161790556102a4356030556102c43560315538611abb565b929150506040823d604011611dde575b81611dc060409383613853565b81010312611dda5781516020928301519192909190611a7f565b8980fd5b3d9150611db3565b6040513d8c823e3d90fd5b0151905038806119f7565b925060088b52600080516020615905833981519152908b935b601f1984168510611e57576001945083601f19811610611e3e575b505050811b01600855611a0d565b015160001960f88460031b161c19169055388080611e30565b81810151835560209485019460019093019290910190611e15565b90915060088b52601f830160051c6000805160206159058339815191520160208410611ecf575b908392915b601f820160051c600080516020615905833981519152018110611ec157506119e1565b8c8155849350600101611e9e565b50600080516020615905833981519152611e99565b634e487b7160e01b8a52604160045260248afd5b94505050505060a0813d8211611f67575b81611f1660a09383613853565b81010312611dda57611f2781613a57565b60208201519060408301519260608101519063ffffffff82168203611f6357608001519061ffff82168203611f6357939092909161ffff611969565b8d80fd5b3d9150611f09565b60405162461bcd60e51b8152602060048201526013602482015272105b1c9958591e481a5b9a5d1a585b1a5e9959606a1b6044820152606490fd5b60405162461bcd60e51b815260206004820152601b60248201527f4f6e6c7920666163746f72792063616e20696e697469616c697a6500000000006044820152606490fd5b8880fd5b8580fd5b503461059d578060031936011261059d576120106139b8565b600080546001600160a01b0319811682556001600160a01b03167f8be0079c531659141344cd1fd0a4f28419497f9722a3daafe3b4186f6b6457e08280a380f35b503461059d578060031936011261059d5761206a6146e8565b60ff60185460581c1660088110156114b95760046120889114614dcf565b610ec4614e0b565b503461059d578060031936011261059d57602060ff60185460081c166040519015158152f35b503461059d578060031936011261059d57602060ff60185460101c166040519015158152f35b503461059d578060031936011261059d57602060ff601854166040519015158152f35b503461059d578060031936011261059d576020602754604051908152f35b503461059d578060031936011261059d5761048c614af1565b503461059d578060031936011261059d576020600354604051908152f35b503461059d578060031936011261059d57602060ff600254166040519015158152f35b503461059d578060031936011261059d5761158f60ff6012541660405191829182613974565b503461059d578060031936011261059d576020603054604051908152f35b503461059d57602036600319011261059d5760209060ff906040906001600160a01b036121e66138b4565b168152602984522054166040519015158152f35b503461059d57602036600319011261059d5760209060ff906040906001600160a01b036122256138b4565b168152603384522054166040519015158152f35b503461059d578060031936011261059d576020600c54604051908152f35b503461059d578060031936011261059d57602060ff60185460501c166040519015158152f35b503461059d578060031936011261059d576020601f54604051908152f35b503461059d578060031936011261059d57602061ffff60075416604051908152f35b503461059d57602036600319011261059d576020906040906001600160a01b036122e56138b4565b168152602583522054604051908152f35b503461059d5760208060031936011261097257600435903033036126ac57602154835280805281604084205561232d602154614665565b602155601f5490601d549060195493612345846144b7565b906123536040519283613853565b84825261235f856144b7565b8284019490601f1901368637875b8681106125a957505050855b8481106124ff57506123b06018549469ff0000000000000000001986166018556123a581601d54613a6b565b601d55601e54613a6b565b9283601e55604051918383019084845251809152604083019190885b858282106124e2575050505090807f32a1b5731a757f192a06ca973715ca4dbc42c2d15323cabaa74e0a2d5dc088e4920390a1600c549182116124db5762ff00ff60481b1983166001605a1b17601881905560ff841691826124cd575b50816124be575b816124af575b50612442575b50505080f35b61245c612465916b04000000010000000000000094614021565b600d5490614674565b61271061247460235483614674565b0461248b6124828284614021565b92602654614021565b602655602e556027556bff00ff00ff0000000000000019161760185538808061243c565b60ff915060381c161538612436565b905060ff8160281c1690612430565b81901c60ff16915038612429565b5050505080f35b83516001600160a01b0316855293840193909201916001016123cc565b6001600160a01b0361251182846144ce565b511690601a918254600160401b811015612593576001810180855581101561257d57612578936000527f057c384a7d1c54f3a1b2e5e67b2617b8224fdfd1ea7234eea573a6ff665ff63e01906bffffffffffffffffffffffff60a01b825416179055614665565b612379565b634e487b7160e01b600052603260045260246000fd5b634e487b7160e01b600052604160045260246000fd5b6125b7816110ab848b614021565b60405186810190858252836040820152604081526125d481613838565b519020906125e28385613a6b565b91811561269857612600612693949361264893612667930690613a6b565b6126098161393d565b9054600391821b1c6001600160a01b03908116949185612629888d6144ce565b5261263c612637888b613a6b565b61393d565b9054911b1c169161393d565b90919082549060031b9160018060a01b03809116831b921b1916179055565b612678816126486126378588613a6b565b8a526015865260408a2061268c8154614665565b9055614665565b61236d565b634e487b7160e01b8c52601260045260248cfd5b6064906040519062461bcd60e51b82526004820152600e60248201526d13db9b1e481cd95b198b58d85b1b60921b6044820152fd5b503461059d578060031936011261059d576022546040516001600160a01b039091168152602090f35b503461059d57602036600319011261059d576004359060195482101561059d5760206127358361393d565b905460405160039290921b1c6001600160a01b03168152f35b503461059d578060031936011261059d578054600e54604051635aa35d2560e11b81526001600160a01b0391821615156004820152929160209184916024918391165afa9081156127dc57906127aa575b602090604051908152f35b506020813d82116127d4575b816127c360209383613853565b81010312611d41576020905161279f565b3d91506127b6565b604051903d90823e3d90fd5b503461059d578060031936011261059d576020602b54604051908152f35b503461059d578060031936011261059d576020600a54604051908152f35b503461059d578060031936011261059d57602060ff60185460281c166040519015158152f35b503461059d57602036600319011261059d576020906040906001600160a01b036128726138b4565b168152601b83522054604051908152f35b503461059d57604036600319011261059d576024356001600160401b038111610972576128b490369060040161390d565b60025460081c6001600160a01b0316330361291c576128d2816144b7565b916128e06040519384613853565b8183526020918284019060051b820191368311611ff357905b82821061290d578561048c866004356144e2565b813581529083019083016128f9565b60405162461bcd60e51b815260206004820181905260248201527f4f6e6c792056524620436f6f7264696e61746f722063616e2066756c66696c6c6044820152606490fd5b5060a036600319011261059d576001600160401b03606435818111610c185761298e9036906004016138e0565b91608435908111610fdb576129a790369060040161390d565b9190926129b26146e8565b60185460ff8160581c1660088110156133a057156133c5575b503332036133b45760185460ff8160581c1660088110156133a05760010361338e57331561337c576004351561336a57600d54801561335857612a119060043590614674565b340361334657600a5442101561333457612a2f600435601954613a6b565b6011541061332257600954421061331057338652601b602052612a586004356040882054613a6b565b601054106132fe5760ff811615806132c8575b6132b6578554604051638da5cb5b60e01b81526001600160a01b039091169190602081600481865afa908115611d4e578891613278575b506001600160a01b0316331461326657600f546001600160a01b031633146132555760401c60ff168061323e575b613116575b5050602f546001600160a01b038116915081612bc9575b50505050338152601b602052604081206004358154019055805b6004358110612b81575060185460201c60ff16612b745734602854016028555b60195460115414612b67575b60405160043581527ffd1903a7f9f31de6cf38a88eda98ae029aeba3b2ec48a599d7c0d900f0f335cb60203392a26001805580f35b612b6f6140ed565b612b32565b3460265401602655612b26565b60195490600160401b82101561259357612bc3612ba583600180950160195561393d565b81546001600160a01b0360039290921b91821b19163390911b179055565b01612b06565b60a01c60ff16600481101561133e57806130075750508015612fcd5760305460018103612d575750600111612cfb57356024602060018060a01b03602f5416604051928380926331a9108f60e11b82528660048301525afa8015612cf0578390612cb5575b612c4391506001600160a01b031633146154b3565b80825260326020526040822054612c6d906001600160a01b03168015908115612cab575b506154ff565b815260326020526040812080546001600160a01b03811615612c96575b50505b38808080612aec565b6001600160a01b031916331790553880612c8a565b9050331438612c67565b506020813d602011612ce8575b81612ccf60209383613853565b81010312610c1857612ce3612c4391613a57565b612c2e565b3d9150612cc2565b6040513d85823e3d90fd5b60405162461bcd60e51b815260206004820152602e60248201527f546f6b656e20494420726571756972656420666f722073696e676c6520746f6b60448201526d195b881c995c5d5a5c995b595b9d60921b6064820152608490fd5b6001811115612f7e57808210612f3957835b818110612e93575050825b603054811015612e8b5780612d8c60249284866154a3565b35602060018060a01b03602f5416604051948580926331a9108f60e11b82528560048301525afa928315612e80578693612e3f575b50612e2592612dda906001600160a01b031633146154b3565b80865260329081602052612e0360018060a01b036040892054168015908115612cab57506154ff565b86526020526040852080546001600160a01b03811615612e2a575b5050614665565b612d74565b6001600160a01b031916331790553880612e1e565b92506020833d602011612e78575b81612e5a60209383613853565b81010312611ff357612dda612e71612e2594613a57565b9350612dc1565b3d9150612e4d565b6040513d88823e3d90fd5b505050612c8d565b60018101808211612f25575b828110612eb55750612eb090614665565b612d69565b612ec08285876154a3565b35612ecc8286886154a3565b3514612ee057612edb90614665565b612e9f565b60405162461bcd60e51b815260206004820152601f60248201527f4475706c696361746520746f6b656e20494473206e6f7420616c6c6f776564006044820152606490fd5b634e487b7160e01b86526011600452602486fd5b60405162461bcd60e51b815260206004820152601f60248201527f496e73756666696369656e7420746f6b656e204944732070726f7669646564006044820152606490fd5b60405162461bcd60e51b815260206004820152602160248201527f496e76616c696420746f6b656e2062616c616e636520726571756972656d656e6044820152601d60fa1b6064820152608490fd5b60405162461bcd60e51b8152602060048201526012602482015271151bdad95b8812511cc81c995c5d5a5c995960721b6044820152606490fd5b9092509050600181036130945750603154604051627eeac760e11b8152336004820152602481019190915290602090829060449082905afa8015610592578290613060575b61305b9150603054111561544c565b612c8d565b506020813d60201161308c575b8161307a60209383613853565b81010312611d415761305b905161304c565b3d915061306d565b6002146130a2575b50612c8d565b6020602491604051928380926370a0823160e01b82523360048301525afa80156105925782906130e2575b6130dc9150603054111561544c565b3861309c565b506020813d60201161310e575b816130fc60209383613853565b81010312611d41576130dc90516130cd565b3d91506130ef565b602060049160405192838092636b90bda960e01b82525afa908115612e80578691613204575b506001600160a01b031680156131f2578592813b15610fdb57839183918360c460405180978196829563cffc18eb60e01b84523360048501523060248501526024356044850152604435606485015260a060848501528160a4850152848401378181018301849052601f01601f191681010301925af18015610592576131de575b5050338352603360205260408320805460ff19166001179055388080612ad5565b6131e790613825565b610c185782386131bd565b6040516343361aaf60e01b8152600490fd5b90506020813d602011613236575b8161321f60209383613853565b81010312611ff35761323090613a57565b3861313c565b3d9150613212565b50338652603360205260ff60408720541615612ad0565b60405162ca6a8360e51b8152600490fd5b604051635f2a002d60e11b8152600490fd5b90506020813d6020116132ae575b8161329360209383613853565b810103126132aa576132a490613a57565b38612aa2565b8780fd5b3d9150613286565b604051631274fa9d60e31b8152600490fd5b5060ff8160201c1680156132f1575b80612a6b5750338652601b60205260408620541515612a6b565b50600160043514156132d7565b604051637145fa7b60e01b8152600490fd5b604051633d8c21b360e01b8152600490fd5b6040516302edeeb760e31b8152600490fd5b60405163fd2a413d60e01b8152600490fd5b60405163569e8c1160e01b8152600490fd5b60405163d2100d7360e01b8152600490fd5b60405163f4f5b73360e01b8152600490fd5b60405163d92e233d60e01b8152600490fd5b6040516338c0a90160e11b8152600490fd5b634e487b7160e01b87526021600452602487fd5b60405162c44f5760e51b8152600490fd5b60095442106129cb5760ff60581b1916600160581b176018557f3d31b97eef590df350bb2cdbc390034c613c9f23ea6ae1906682628c85248b538580a1386129cb565b503461059d57608036600319011261059d576134226138b4565b5061342b6138ca565b506064356001600160401b0381116109725761344b9036906004016138e0565b5050604051630a85bd0160e11b8152602090f35b503461059d578060031936011261059d576134786146e8565b60ff60185460581c1660088110156114b95760046134969114614dcf565b61349e615682565b50600e546001600160a01b031680156135ae5760ff60185460101c1661359c5760ff60125416600481101561086c578391908061352f5750803b15610972576040516340c10f1960e01b8152336004820152602481018490529082908290604490829084905af180156105925761351b575b5050610ec4906158dd565b61352490613825565b610972578138613510565b90915060010361359c5782601354836014540290833b15610c1857606490836040519586948593630ab714fb60e11b8552336004860152602485015260448401525af18015612cf057613587575b50610ec4906158dd565b91613595610ec49293613825565b919061357d565b604051631558dc5f60e31b8152600490fd5b60405163424ca23960e01b8152600490fd5b503461059d578060031936011261059d576020600b54604051908152f35b503461059d578060031936011261059d57602060ff60185460181c166040519015158152f35b503461059d578060031936011261059d576020601354604051908152f35b503461059d578060031936011261059d576020601c54604051908152f35b503461059d578060031936011261059d576020603154604051908152f35b503461059d578060031936011261059d576040519080600854613680816137eb565b8085529160019180831690811561370757506001146136be575b61158f856136aa81870382613853565b604051918291602083526020830190613874565b9250600883526000805160206159058339815191525b8284106136ef5750505081016020016136aa8261158f61369a565b805460208587018101919091529093019281016136d4565b86955061158f969350602092506136aa94915060ff191682840152151560051b820101929361369a565b503461059d578060031936011261059d576020602154604051908152f35b503461059d578060031936011261059d576020601d54604051908152f35b503461059d578060031936011261059d57600f546040516001600160a01b039091168152602090f35b9050346109725760203660031901126109725760043563ffffffff60e01b8116809103610c185760209250630a85bd0160e11b81149081156137da575b5015158152f35b630271189760e51b149050386137d3565b90600182811c9216801561381b575b602083101461380557565b634e487b7160e01b600052602260045260246000fd5b91607f16916137fa565b6001600160401b03811161259357604052565b606081019081106001600160401b0382111761259357604052565b90601f801991011681019081106001600160401b0382111761259357604052565b919082519283825260005b8481106138a0575050826000602080949584010152601f8019910116010190565b60208183018101518483018201520161387f565b600435906001600160a01b0382168203611d4157565b602435906001600160a01b0382168203611d4157565b9181601f84011215611d41578235916001600160401b038311611d415760208381860195010111611d4157565b9181601f84011215611d41578235916001600160401b038311611d41576020808501948460051b010111611d4157565b60195481101561257d5760196000527f944998273e477b495144fb8794c914197f3ccb46be2900f4698fd0ef743c96950190600090565b9190602083019260048210156139875752565b634e487b7160e01b600052602160045260246000fd5b6001600160401b03811161259357601f01601f191660200190565b6000546001600160a01b031633036139cc57565b606460405162461bcd60e51b815260206004820152602060248201527f4f776e61626c653a2063616c6c6572206973206e6f7420746865206f776e65726044820152fd5b600080546001600160a01b039283166001600160a01b03198216811783559216907f8be0079c531659141344cd1fd0a4f28419497f9722a3daafe3b4186f6b6457e09080a3565b51906001600160a01b0382168203611d4157565b91908201809211613a7857565b634e487b7160e01b600052601160045260246000fd5b15613a9557565b60405162461bcd60e51b815260206004820152600c60248201526b155b985d5d1a1bdc9a5e995960a21b6044820152606490fd5b602a546000906001600160a01b03908116613f0f57602c54613eca57600a54421015613e85578082541633148015613e78575b613b0590613a8e565b60185460ff90818160581c16600881101561133e578015908115613e6d575b5015613e19578082168080613ddb575b80613dce575b613d635715613d1e576bff00000000ff00000000000019166b05000000000100000000000017601855613b6b614d8e565b613b73615063565b60185481811680613d11575b80613ce7575b613bd7575b505050807fe465c22b8ec96fc194d9a0791b76171272fb36c68a84e2c807ed610cb9c7b9b1817f9331b2a38c658c57a39ea19b2709d928c28a12cc8fbb838d12b85148550f937d93a180a1565b60101c8116613ce25760125416600481101561053e57613c6557600e5416803b1561097257818091602460405180948193636382ff5160e11b83523060048401525af1801561059257613c51575b507f9331b2a38c658c57a39ea19b2709d928c28a12cc8fbb838d12b85148550f937d905b903880613b8a565b613c5b8291613825565b61059d5738613c25565b90809291600e5416803b15610972578190602460405180968193636382ff5160e11b83523060048401525af1928315613cd5577f9331b2a38c658c57a39ea19b2709d928c28a12cc8fbb838d12b85148550f937d9293613cc6575b50613c49565b613ccf90613825565b38613cc0565b50604051903d90823e3d90fd5b505050565b508160125416600481101561133e578015908115613d06575b50613b85565b600191501438613d00565b5082600e54161515613b7f565b60405162461bcd60e51b815260206004820152601e60248201527f43616e6e6f742064656c657465206e6f6e2d7072697a656420706f6f6c7300006044820152606490fd5b60405162461bcd60e51b815260206004820152603960248201527f43616e6e6f742064656c657465204e46542d7072697a656420706f6f6c73207460448201527f686174207573652070726f746f636f6c20736c6f7420666565000000000000006064820152608490fd5b50828260201c1615613b3a565b5082601254166004811015613e05578015908115613dfa575b50613b34565b600191501438613df4565b634e487b7160e01b86526021600452602486fd5b60405162461bcd60e51b815260206004820152602660248201527f43616e206f6e6c792064656c657465206265666f726520656e642074696d652060448201526570617373657360d01b6064820152608490fd5b600191501438613b24565b50600f5481163314613afc565b60405162461bcd60e51b815260206004820152601760248201527f506f6f6c206475726174696f6e206578686175737465640000000000000000006044820152606490fd5b60405162461bcd60e51b815260206004820152601b60248201527f5468697320706f6f6c2063616e6e6f742062652064656c6574656400000000006044820152606490fd5b60405162461bcd60e51b8152602060048201526024808201527f45524332302d7072697a656420706f6f6c732063616e6e6f742062652064656c604482015263195d195960e21b6064820152608490fd5b15613f6757565b60405162461bcd60e51b815260206004820152602860248201527f54696d657374616d702064656c61792069737375652c2074727920616761696e6044820152672073686f72746c7960c01b6064820152608490fd5b90816020910312611d4157518015158103611d415790565b15613fdc57565b60405162461bcd60e51b815260206004820152601960248201527f5265717565737420616c726561647920696e20666c69676874000000000000006044820152606490fd5b91908203918211613a7857565b60009060033d1161403b57565b905060046000803e60005160e01c90565b600060443d106140a957604051600319913d83016004833e81516001600160401b03918282113d6024840111176140ac578184019485519384116140b4573d850101602084870101116140ac57506140a992910160200190613853565b90565b949350505050565b50949350505050565b3d156140e8573d906140ce8261399d565b916140dc6040519384613853565b82523d6000602084013e565b606090565b601860ff815460581c166008811015613987576001146144aa575b805460ff8160581c166008811015613987576002811490811561449f575b501561444b5761413c60ff8260481c1615613fd5565b60195490601d549161414e8382614021565b8061415e600c54601e5490614021565b601e8111156144465750601e5b80601f551161443d575b50601f5491821561442857507f4ff4e84912750d469e8d0e190997710c06112023943415787c2f744eb09c0da460606021549260409485519182526020968783015285820152a2600254600454600354600754600554855161ffff9283169560081c6001600160a01b03169263ffffffff926001600160401b039290841691908a810184811182821017612593578a526000815289519063125fa26760e31b8c83015251151560248201526024815261422d81613838565b89519460c0860194851186861017612593578a818d9a956142be958c9760009985528a52878a019b8c52838a019d8e5260608a0191825260808a01936001855260a08b01968752519d8e9c8d9b8c9a634d8e1c2f60e11b8c5260048c01525160248b01525160448a01525116606488015251166084860152511660a48401525160c060c484015260e4830190613874565b03925af1600091816143f9575b506143aa575060016142db61402e565b6308c379a014614342575b6142ef57505050565b7fab4c58d5f7fcd2f6f276017059fe707292278a4b150b6402c89eb3899a7494ec9161432c61431c6140bd565b9251928284938452830190613874565b0390a1805460ff60581b1916600160591b179055565b61434a61404c565b80614356575b506142e6565b90507f1bc0b7451d1b26a4c7bfd7b118b2756c98249ac5f3d51e76be5f33aab5489902614390600092845191829187835287830190613874565b0390a1835460ff60581b1916600160591b17845538614350565b907ff81446731d23d202ea16cf590daf64c6087251171612b2adde6acbef4b37580293826006556b0300010000000000000000006bff00ff0000000000000000001982541617905551908152a1565b90918482813d8311614421575b6144108183613853565b8101031261059d57505190386142cb565b503d614406565b60ff60581b19166001605a1b17909355505050565b601f5538614175565b61416b565b60405162461bcd60e51b815260206004820152602660248201527f506f6f6c206d75737420626520696e20456e646564206f722044726177696e6760448201526520737461746560d01b6064820152608490fd5b600391501438614126565b6144b261555d565b614108565b6001600160401b0381116125935760051b60200190565b805182101561257d5760209160051b010190565b6002546000919060081c6001600160a01b0316330361291c576006540361464e576018805460ff60501b1916600160501b17815582519092901561463a576020015190303b1561059d5760405191631000850d60e21b83526004830152808260248183305af1918261462b575b50906146275760019061456061402e565b6308c379a0146145b8575b50614574575b50565b7fbccec8509a79ecd26780c2699a3ca2503c3a3455b361b5fcda5760593edb03c96145a06136aa6140bd565b0390a1805462ff00ff60481b1916600160591b179055565b6145c061404c565b90816145cd575b5061456b565b7fbcd905a8eb4cc473497e2cd24cf41334ea7fad80c354380f8fff04a025b1e5f891925061460a9092604051918291602083526020830190613874565b0390a1815462ff00ff60481b1916600160591b17825538806145c7565b5050565b61463490613825565b3861454f565b634e487b7160e01b82526032600452602482fd5b50506018805460ff60581b1916600160591b179055565b6000198114613a785760010190565b81810292918115918404141715613a7857565b8115614691570490565b634e487b7160e01b600052601260045260246000fd5b156146ae57565b60405162461bcd60e51b8152602060048201526012602482015271141bdbdb081b9bdd0818dbdb5c1b195d195960721b6044820152606490fd5b6002600154146146f9576002600155565b60405162461bcd60e51b815260206004820152601f60248201527f5265656e7472616e637947756172643a207265656e7472616e742063616c6c006044820152606490fd5b1561474557565b60405162461bcd60e51b81526020600482015260166024820152751499599d5b9908185b1c9958591e4818db185a5b595960521b6044820152606490fd5b1561478a57565b60405162461bcd60e51b815260206004820152600d60248201526c1499599d5b990819985a5b1959609a1b6044820152606490fd5b156147c657565b60405162461bcd60e51b81526020600482015260166024820152751499599d5b99081d1c985b9cd9995c8819985a5b195960521b6044820152606490fd5b60185460ff90818160301c16614a3657818160581c1690600882101561398757600782146149d357828116806149c7575b806149bb575b806149b0575b61490f5760201c82161590816148f0575b5061485e575050600090565b60009160018060a01b03168252601b6020526040822054151590816148dc575b506148865790565b601b60205261489c6040822054600d5490614674565b611f40908181029181830414901517156148c85761271090048060285410156148c3575090565b905090565b634e487b7160e01b82526011600452602482fd5b90506029602052604082205416153861487e565b6004811491508115614904575b5038614852565b6006915014386148fd565b5050509060009160018060a01b03168252601b602052604082205460156020526040832054602d6020526040842054918181118061499e575b61495157505050565b61495f92916110ab91614021565b600d54602354906127109182039482861161498a57506140a9939461498391614674565b0490614674565b634e487b7160e01b81526011600452602490fd5b506149a98282614021565b8310614948565b506027541515614841565b50828160281c1661483b565b50828160201c16614835565b6001600160a01b039093166000908152601b60205260409020549050806149fd575b505050600090565b600d54614a0991614674565b9160201c16614a26578060285410156140a957505b3880806149f5565b8060265410156140a95750614a1e565b908082169182614a98575b505080614a77575b614a535750600090565b6001600160a01b03166000908152601b6020526040902054600d546140a991614674565b506001600160a01b0381166000908152601b60205260409020541515614a49565b60201c1690503880614a41565b15614aac57565b60405162461bcd60e51b815260206004820152601960248201527f506f6f6c20656e642074696d65206e6f742072656163686564000000000000006044820152606490fd5b601880549060ff91828160581c1660088110156139875760078114614d58576001811480614d4c575b15614ce6575050601954600c541115614ca257614b3b600a54421015614aa5565b805460ff60581b1916600760581b1781557f456598f31410bd74ce9e62f22e18454c4264af94fd5752d17b3cebce37d73cdd600080a15b81815460581c166008811015613987576007614b8e9114613f60565b614b96614d8e565b614b9e615063565b5481811680614c8e575b80614c64575b614bb6575050565b60101c81166145715760125416600481101561398757614c2557600e546001600160a01b0316803b15611d415760008091602460405180948193636382ff5160e11b83523060048401525af18015614c1957614c1057505b565b614c0e90613825565b6040513d6000823e3d90fd5b600e546001600160a01b0316803b15611d415760008091602460405180948193636382ff5160e11b83523060048401525af18015614c1957614c105750565b5081601254166004811015613987578015908115614c83575b50614bae565b600191501438614c7d565b50600e546001600160a01b03161515614ba8565b606460405162461bcd60e51b815260206004820152602060248201527f506f6f6c206d7573742070726f636565642073656c6563742077696e6e6572736044820152fd5b1580614d40575b614cf8575b50614b72565b614d06600a54421015614aa5565b60ff60581b1916600760581b1781557f456598f31410bd74ce9e62f22e18454c4264af94fd5752d17b3cebce37d73cdd600080a138614cf2565b50600a54421015614ced565b50600a54421015614b1a565b60405162461bcd60e51b815260206004820152600e60248201526d105b1c9958591e4818db1bdcd95960921b6044820152606490fd5b600080546001600160a01b0316803b1561097257818091602460405180958193633aaa814760e01b83523060048401525af19081156127dc5750614c105750565b15614dd657565b60405162461bcd60e51b815260206004820152600d60248201526c496e76616c696420737461746560981b6044820152606490fd5b60ff60185460101c161561359c57614e21615682565b50602a54601254600e54600c546001600160a01b039182169493909260ff16911680614fc0575060049182821015614fab5760038214614f5157508315614f415780614ece5750601354833b15611d4157604080516323b872dd60e01b81523093810193845233602085015290830191909152926000918491908290849082906060015b03925af1918215614c1957614c0e92614ebf575b506158dd565b614ec890613825565b38614eb9565b600103614f3257816014540260135493803b15611d415760408051637921219560e11b81523094810194855233602086015290840195909552606083019190915260a06080830181905260009083018190529184919082908490829060c001614ea5565b604051631558dc5f60e31b8152fd5b5060405163424ca23960e01b8152fd5b839450614f649150602c93929354614687565b028015614f9b57600080808093335af1614f7c6140bd565b5015614f8c5750614c0e906158dd565b60405163880a149160e01b8152fd5b50604051630193f71f60e51b8152fd5b602183634e487b7160e01b6000525260246000fd5b92935050614fd18391602b54614687565b029081156150515760405163a9059cbb60e01b81523360048201526024810192909252602090829060449082906000905af1908115614c1957600091615033575b501561502157614c0e906158dd565b60405163880a149160e01b8152600490fd5b61504b915060203d811161058b5761057d8183613853565b38615012565b604051630193f71f60e51b8152600490fd5b60185460ff8116908115614627578161543e575b5061507e57565b602a546001600160a01b03908116156151a85780602a5416604051916370a0823160e01b83523060048401526020928381602481865afa908115614c195760009161517b575b50806150d1575b50505050565b600f5460405163a9059cbb60e01b815292166001600160a01b0316600483015260248201529082908290816000816044810103925af1908115614c195760009161515e575b5015615124578080806150cb565b6064906040519062461bcd60e51b825260048201526013602482015272151bdad95b881c99599d5b990819985a5b1959606a1b6044820152fd5b6151759150823d841161058b5761057d8183613853565b38615116565b908482813d83116151a1575b6151918183613853565b8101031261059d575051386150c4565b503d615187565b60ff601254166004908181101561542957600381036152275750904790816151cf57505050565b60008080938193600f54165af16151e46140bd565b50156151ed5750565b60649060206040519162461bcd60e51b83528201526013602482015272141c9a5e99481c99599d5b990819985a5b1959606a1b6044820152fd5b80615315575081600e541691601354906040516331a9108f60e11b81528284820152602081602481885afa908115614c19576000916152dc575b50811630146152705750505050565b600f541692803b15611d4157604080516323b872dd60e01b8152309481019485526001600160a01b03909516602085015283019190915260009183919082908490829060600103925af18015614c19576152cd575b8080806150cb565b6152d690613825565b386152c5565b906020823d821161530d575b816152f560209383613853565b8101031261059d575061530790613a57565b38615261565b3d91506152e8565b600114615320575050565b600e5460135460408051627eeac760e11b8152308582019081526020818101859052919693948416939287918291010381855afa948515614c19576000956153f6575b5084615371575b5050505050565b600f5416813b15611d4157600080946153cf60405197889687958694637921219560e11b865230908601929060c0949260018060a01b0380921685521660208401526040830152606082015260a06080820152600060a08201520190565b03925af18015614c19576153e7575b8080808061536a565b6153f090613825565b386153de565b90946020823d8211615421575b8161541060209383613853565b8101031261059d5750519338615363565b3d9150615403565b602182634e487b7160e01b6000525260246000fd5b60ff915060101c1638615077565b1561545357565b60405162461bcd60e51b815260206004820152602260248201527f476174696e672062616c616e636520726571756972656d656e74206e6f74206d604482015261195d60f21b6064820152608490fd5b919081101561257d5760051b0190565b156154ba57565b60405162461bcd60e51b815260206004820152601c60248201527f4e6f74206f776e6572206f662073706563696669656420746f6b656e000000006044820152606490fd5b1561550657565b60405162461bcd60e51b815260206004820152602960248201527f546f6b656e20494420616c726561647920626f756e6420746f20616e6f74686560448201526872206164647265737360b81b6064820152608490fd5b6018805460ff60581b1916600160591b1790557fba56b904ffec191559c3639e6019beb8a654605dbf6ba72f33361432a97c2bea600080a1565b6000805460405163524d530b60e01b815260209390916001600160a01b039085908490600490829085165afa92831561071d57849361564b575b50821615610c18579082916040519085820191635e5bc1c560e11b83528160248201526024815261560181613838565b51925af161560d6140bd565b50156156165750565b6064906040519062461bcd60e51b82526004820152600e60248201526d11195c1bdcda5d0819985a5b195960921b6044820152fd5b9092508481813d831161567b575b6156638183613853565b81010312610fdb5761567490613a57565b91386155d1565b503d615659565b6000338152602091601583526040808320549283156158cc573381526016855281812054948585039585146158bb57602f5485939291906001600160a01b03811690816156d7575b5050601690338352522055565b60ff91929394955060a01c16600481101561086c578694939291908061578957508394509060249181939451928380926370a0823160e01b82523360048301525afa90811561577f579083929187959491615746575b509061573f601692603054111561544c565b90386156ca565b828094959650819392503d8311615778575b6157628183613853565b81010312610c185751859392919061573f61572d565b503d615758565b84513d85823e3d90fd5b6001810361582457506031548451627eeac760e11b81523360048201526024810191909152939450919290918290829060449082905afa90811561577f5790839291879594916157eb575b50906157e6601692603054111561544c565b61573f565b828094959650819392503d831161581d575b6158078183613853565b81010312610c18575185939291906157e66157d4565b503d6157fd565b600214615835575b5060169061573f565b8394509060249181939451928380926370a0823160e01b82523360048301525afa90811561577f579083929187959491615882575b509061587c601692603054111561544c565b9061582c565b828094959650819392503d83116158b4575b61589e8183613853565b81010312610c185751859392919061587c61586a565b503d615894565b8251630ccaf35d60e41b8152600490fd5b81516358cd4fc160e11b8152600490fd5b6017540180601755600c54146158ef57565b6018805460ff60581b1916600360591b17905556fef3f7a9fe364faab93b216da50a3214154f22a0a2b415b23a84c8169e8b636ee3358fe4192934d3bf28ae181feda1f4bd08ca67f5e2fad55582cce5eb67304ae9a2646970667358221220887041bdd9a6459525bbdb7063c7f5e6f3db70b7a35d2bf25cae194bc9f0d3b664736f6c63430008130033",
  "linkReferences": {},
  "deployedLinkReferences": {}
}