{
  "_format": "hh-sol-artifact-1",
  "contractName": "Pool",
  "sourceName": "contracts/Pool.sol",
  "abi": [
    {
      "inputs": [
        {
          "internalType": "address",
          "name": "_factory",
          "type": "address"
        }
      ],
      "stateMutability": "nonpayable",
      "type": "constructor"
    },
    {
      "inputs": [],
      "name": "ContractsCannotPurchase",
      "type": "error"
    },
    {
      "inputs": [],
      "name": "CreatorNotAllowed",
      "type": "error"
    },
    {
      "inputs": [],
      "name": "ExceedsMaxSlots",
      "type": "error"
    },
    {
      "inputs": [],
      "name": "ExceedsSlotLimit",
      "type": "error"
    },
    {
      "inputs": [],
      "name": "ExceedsWinnersCount",
      "type": "error"
    },
    {
      "inputs": [],
      "name": "IncorrectPayment",
      "type": "error"
    },
    {
      "inputs": [],
      "name": "InvalidNonPrizedPurchase",
      "type": "error"
    },
    {
      "inputs": [],
      "name": "InvalidPoolState",
      "type": "error"
    },
    {
      "inputs": [],
      "name": "InvalidPrizeAmount",
      "type": "error"
    },
    {
      "inputs": [],
      "name": "InvalidPrizeCollection",
      "type": "error"
    },
    {
      "inputs": [],
      "name": "InvalidPrizeType",
      "type": "error"
    },
    {
      "inputs": [],
      "name": "InvalidState",
      "type": "error"
    },
    {
      "inputs": [],
      "name": "MintingNotSupported",
      "type": "error"
    },
    {
      "inputs": [],
      "name": "NoPrizesClaimedYet",
      "type": "error"
    },
    {
      "inputs": [],
      "name": "NoPrizesToClaim",
      "type": "error"
    },
    {
      "inputs": [],
      "name": "NotAWinner",
      "type": "error"
    },
    {
      "inputs": [],
      "name": "OnlyOperator",
      "type": "error"
    },
    {
      "inputs": [],
      "name": "PoolDurationElapsed",
      "type": "error"
    },
    {
      "inputs": [],
      "name": "PoolNotActive",
      "type": "error"
    },
    {
      "inputs": [],
      "name": "PrizeTransferFailed",
      "type": "error"
    },
    {
      "inputs": [],
      "name": "ProtocolAdminNotAllowed",
      "type": "error"
    },
    {
      "inputs": [],
      "name": "SocialEngagementNotConfigured",
      "type": "error"
    },
    {
      "inputs": [],
      "name": "TimestampDelayIssue",
      "type": "error"
    },
    {
      "inputs": [],
      "name": "UnauthorizedCaller",
      "type": "error"
    },
    {
      "inputs": [],
      "name": "ZeroAddress",
      "type": "error"
    },
    {
      "inputs": [],
      "name": "ZeroQuantity",
      "type": "error"
    },
    {
      "inputs": [],
      "name": "ZeroSlotFee",
      "type": "error"
    },
    {
      "anonymous": false,
      "inputs": [
        {
          "indexed": false,
          "internalType": "string",
          "name": "reason",
          "type": "string"
        }
      ],
      "name": "BatchProcessingFailed",
      "type": "event"
    },
    {
      "anonymous": false,
      "inputs": [
        {
          "indexed": false,
          "internalType": "bytes",
          "name": "lowLevelData",
          "type": "bytes"
        }
      ],
      "name": "BatchProcessingFailedBytes",
      "type": "event"
    },
    {
      "anonymous": false,
      "inputs": [],
      "name": "FullRefundEnabledForDeletion",
      "type": "event"
    },
    {
      "anonymous": false,
      "inputs": [
        {
          "indexed": true,
          "internalType": "address",
          "name": "participant",
          "type": "address"
        },
        {
          "indexed": false,
          "internalType": "uint256",
          "name": "amount",
          "type": "uint256"
        }
      ],
      "name": "FullRefundForDeletion",
      "type": "event"
    },
    {
      "anonymous": false,
      "inputs": [
        {
          "indexed": true,
          "internalType": "address",
          "name": "winner",
          "type": "address"
        },
        {
          "indexed": false,
          "internalType": "string",
          "name": "reason",
          "type": "string"
        }
      ],
      "name": "MintingFailed",
      "type": "event"
    },
    {
      "anonymous": false,
      "inputs": [
        {
          "indexed": true,
          "internalType": "address",
          "name": "previousOwner",
          "type": "address"
        },
        {
          "indexed": true,
          "internalType": "address",
          "name": "newOwner",
          "type": "address"
        }
      ],
      "name": "OwnershipTransferred",
      "type": "event"
    },
    {
      "anonymous": false,
      "inputs": [
        {
          "indexed": false,
          "internalType": "address",
          "name": "account",
          "type": "address"
        }
      ],
      "name": "Paused",
      "type": "event"
    },
    {
      "anonymous": false,
      "inputs": [],
      "name": "PoolActivated",
      "type": "event"
    },
    {
      "anonymous": false,
      "inputs": [],
      "name": "PoolDeleted",
      "type": "event"
    },
    {
      "anonymous": false,
      "inputs": [],
      "name": "PoolEnded",
      "type": "event"
    },
    {
      "anonymous": false,
      "inputs": [],
      "name": "PoolUnengaged",
      "type": "event"
    },
    {
      "anonymous": false,
      "inputs": [
        {
          "indexed": true,
          "internalType": "address",
          "name": "winner",
          "type": "address"
        },
        {
          "indexed": false,
          "internalType": "uint256",
          "name": "tokenId",
          "type": "uint256"
        }
      ],
      "name": "PrizeClaimed",
      "type": "event"
    },
    {
      "anonymous": false,
      "inputs": [
        {
          "indexed": false,
          "internalType": "uint256",
          "name": "requestId",
          "type": "uint256"
        }
      ],
      "name": "RandomRequested",
      "type": "event"
    },
    {
      "anonymous": false,
      "inputs": [
        {
          "indexed": true,
          "internalType": "address",
          "name": "participant",
          "type": "address"
        },
        {
          "indexed": false,
          "internalType": "uint256",
          "name": "amount",
          "type": "uint256"
        }
      ],
      "name": "RefundClaimed",
      "type": "event"
    },
    {
      "anonymous": false,
      "inputs": [
        {
          "indexed": true,
          "internalType": "address",
          "name": "recipient",
          "type": "address"
        },
        {
          "indexed": false,
          "internalType": "uint256",
          "name": "amount",
          "type": "uint256"
        }
      ],
      "name": "RevenueWithdrawn",
      "type": "event"
    },
    {
      "anonymous": false,
      "inputs": [
        {
          "indexed": true,
          "internalType": "uint256",
          "name": "batchNumber",
          "type": "uint256"
        },
        {
          "indexed": false,
          "internalType": "uint256",
          "name": "participantCount",
          "type": "uint256"
        },
        {
          "indexed": false,
          "internalType": "uint256",
          "name": "shuffleStartIndex",
          "type": "uint256"
        },
        {
          "indexed": false,
          "internalType": "uint256",
          "name": "batchSize",
          "type": "uint256"
        }
      ],
      "name": "SelectionStarted",
      "type": "event"
    },
    {
      "anonymous": false,
      "inputs": [
        {
          "indexed": true,
          "internalType": "address",
          "name": "participant",
          "type": "address"
        },
        {
          "indexed": false,
          "internalType": "uint256",
          "name": "quantity",
          "type": "uint256"
        }
      ],
      "name": "SlotsPurchased",
      "type": "event"
    },
    {
      "anonymous": false,
      "inputs": [
        {
          "indexed": false,
          "internalType": "address",
          "name": "account",
          "type": "address"
        }
      ],
      "name": "Unpaused",
      "type": "event"
    },
    {
      "anonymous": false,
      "inputs": [
        {
          "indexed": false,
          "internalType": "string",
          "name": "reason",
          "type": "string"
        }
      ],
      "name": "VRFRequestFailed",
      "type": "event"
    },
    {
      "anonymous": false,
      "inputs": [
        {
          "indexed": false,
          "internalType": "bytes",
          "name": "lowLevelData",
          "type": "bytes"
        }
      ],
      "name": "VRFRequestFailedBytes",
      "type": "event"
    },
    {
      "anonymous": false,
      "inputs": [
        {
          "indexed": false,
          "internalType": "address[]",
          "name": "winners",
          "type": "address[]"
        }
      ],
      "name": "WinnersSelected",
      "type": "event"
    },
    {
      "inputs": [
        {
          "internalType": "uint256",
          "name": "batchRandomSeed",
          "type": "uint256"
        }
      ],
      "name": "_processBatchWithRandomness",
      "outputs": [],
      "stateMutability": "nonpayable",
      "type": "function"
    },
    {
      "inputs": [],
      "name": "amountPerWinner",
      "outputs": [
        {
          "internalType": "uint256",
          "name": "",
          "type": "uint256"
        }
      ],
      "stateMutability": "view",
      "type": "function"
    },
    {
      "inputs": [],
      "name": "batchCount",
      "outputs": [
        {
          "internalType": "uint256",
          "name": "",
          "type": "uint256"
        }
      ],
      "stateMutability": "view",
      "type": "function"
    },
    {
      "inputs": [
        {
          "internalType": "uint256",
          "name": "",
          "type": "uint256"
        }
      ],
      "name": "batchRandomSeeds",
      "outputs": [
        {
          "internalType": "uint256",
          "name": "",
          "type": "uint256"
        }
      ],
      "stateMutability": "view",
      "type": "function"
    },
    {
      "inputs": [],
      "name": "claimPrize",
      "outputs": [],
      "stateMutability": "nonpayable",
      "type": "function"
    },
    {
      "inputs": [],
      "name": "claimRefund",
      "outputs": [],
      "stateMutability": "nonpayable",
      "type": "function"
    },
    {
      "inputs": [
        {
          "internalType": "address",
          "name": "",
          "type": "address"
        }
      ],
      "name": "claimedWins",
      "outputs": [
        {
          "internalType": "uint256",
          "name": "",
          "type": "uint256"
        }
      ],
      "stateMutability": "view",
      "type": "function"
    },
    {
      "inputs": [],
      "name": "closePool",
      "outputs": [],
      "stateMutability": "nonpayable",
      "type": "function"
    },
    {
      "inputs": [],
      "name": "creationFeePercentage",
      "outputs": [
        {
          "internalType": "uint256",
          "name": "",
          "type": "uint256"
        }
      ],
      "stateMutability": "view",
      "type": "function"
    },
    {
      "inputs": [],
      "name": "creator",
      "outputs": [
        {
          "internalType": "address",
          "name": "",
          "type": "address"
        }
      ],
      "stateMutability": "view",
      "type": "function"
    },
    {
      "inputs": [],
      "name": "currentBatchSize",
      "outputs": [
        {
          "internalType": "uint256",
          "name": "",
          "type": "uint256"
        }
      ],
      "stateMutability": "view",
      "type": "function"
    },
    {
      "inputs": [],
      "name": "deletePool",
      "outputs": [],
      "stateMutability": "nonpayable",
      "type": "function"
    },
    {
      "inputs": [],
      "name": "duration",
      "outputs": [
        {
          "internalType": "uint256",
          "name": "",
          "type": "uint256"
        }
      ],
      "stateMutability": "view",
      "type": "function"
    },
    {
      "inputs": [],
      "name": "endTime",
      "outputs": [
        {
          "internalType": "uint256",
          "name": "",
          "type": "uint256"
        }
      ],
      "stateMutability": "view",
      "type": "function"
    },
    {
      "inputs": [],
      "name": "erc20PrizeAmount",
      "outputs": [
        {
          "internalType": "uint256",
          "name": "",
          "type": "uint256"
        }
      ],
      "stateMutability": "view",
      "type": "function"
    },
    {
      "inputs": [],
      "name": "erc20PrizeToken",
      "outputs": [
        {
          "internalType": "address",
          "name": "",
          "type": "address"
        }
      ],
      "stateMutability": "view",
      "type": "function"
    },
    {
      "inputs": [],
      "name": "erc721EscrowClaimed",
      "outputs": [
        {
          "internalType": "bool",
          "name": "",
          "type": "bool"
        }
      ],
      "stateMutability": "view",
      "type": "function"
    },
    {
      "inputs": [],
      "name": "getParticipantsCount",
      "outputs": [
        {
          "internalType": "uint256",
          "name": "",
          "type": "uint256"
        }
      ],
      "stateMutability": "view",
      "type": "function"
    },
    {
      "inputs": [
        {
          "internalType": "address",
          "name": "participant",
          "type": "address"
        }
      ],
      "name": "getRefundableAmount",
      "outputs": [
        {
          "internalType": "uint256",
          "name": "",
          "type": "uint256"
        }
      ],
      "stateMutability": "view",
      "type": "function"
    },
    {
      "inputs": [],
      "name": "getSlotLimit",
      "outputs": [
        {
          "internalType": "uint256",
          "name": "",
          "type": "uint256"
        }
      ],
      "stateMutability": "view",
      "type": "function"
    },
    {
      "inputs": [
        {
          "internalType": "address",
          "name": "participant",
          "type": "address"
        }
      ],
      "name": "getSlotsPurchased",
      "outputs": [
        {
          "internalType": "uint256",
          "name": "",
          "type": "uint256"
        }
      ],
      "stateMutability": "view",
      "type": "function"
    },
    {
      "inputs": [
        {
          "internalType": "address",
          "name": "",
          "type": "address"
        }
      ],
      "name": "hasClaimedFeeRefund",
      "outputs": [
        {
          "internalType": "bool",
          "name": "",
          "type": "bool"
        }
      ],
      "stateMutability": "view",
      "type": "function"
    },
    {
      "inputs": [
        {
          "internalType": "address",
          "name": "",
          "type": "address"
        }
      ],
      "name": "hasCompletedSocialEngagement",
      "outputs": [
        {
          "internalType": "bool",
          "name": "",
          "type": "bool"
        }
      ],
      "stateMutability": "view",
      "type": "function"
    },
    {
      "inputs": [],
      "name": "holderTokenAddress",
      "outputs": [
        {
          "internalType": "address",
          "name": "",
          "type": "address"
        }
      ],
      "stateMutability": "view",
      "type": "function"
    },
    {
      "inputs": [],
      "name": "holderTokenId",
      "outputs": [
        {
          "internalType": "uint256",
          "name": "",
          "type": "uint256"
        }
      ],
      "stateMutability": "view",
      "type": "function"
    },
    {
      "inputs": [],
      "name": "holderTokenStandard",
      "outputs": [
        {
          "internalType": "enum PrizeTypes.Standard",
          "name": "",
          "type": "uint8"
        }
      ],
      "stateMutability": "view",
      "type": "function"
    },
    {
      "inputs": [],
      "name": "i_vrfCoordinator",
      "outputs": [
        {
          "internalType": "contract VRFCoordinatorV2PlusInterface",
          "name": "",
          "type": "address"
        }
      ],
      "stateMutability": "view",
      "type": "function"
    },
    {
      "inputs": [
        {
          "components": [
            {
              "internalType": "address",
              "name": "manager",
              "type": "address"
            },
            {
              "internalType": "address",
              "name": "creator",
              "type": "address"
            },
            {
              "internalType": "address",
              "name": "revenueRecipient",
              "type": "address"
            },
            {
              "internalType": "string",
              "name": "name",
              "type": "string"
            },
            {
              "internalType": "uint256",
              "name": "startTime",
              "type": "uint256"
            },
            {
              "internalType": "uint256",
              "name": "duration",
              "type": "uint256"
            },
            {
              "internalType": "uint256",
              "name": "slotLimit",
              "type": "uint256"
            },
            {
              "internalType": "uint256",
              "name": "slotFee",
              "type": "uint256"
            },
            {
              "internalType": "uint256",
              "name": "maxSlotsPerParticipant",
              "type": "uint256"
            },
            {
              "internalType": "uint256",
              "name": "winnersCount",
              "type": "uint256"
            },
            {
              "internalType": "bool",
              "name": "isPrized",
              "type": "bool"
            },
            {
              "internalType": "bool",
              "name": "isCollabPool",
              "type": "bool"
            },
            {
              "internalType": "bool",
              "name": "usesCustomFee",
              "type": "bool"
            }
          ],
          "internalType": "struct Pool.PoolConfig",
          "name": "_poolConfig",
          "type": "tuple"
        },
        {
          "components": [
            {
              "internalType": "enum PrizeTypes.Standard",
              "name": "standard",
              "type": "uint8"
            },
            {
              "internalType": "address",
              "name": "prizeCollection",
              "type": "address"
            },
            {
              "internalType": "uint256",
              "name": "prizeTokenId",
              "type": "uint256"
            },
            {
              "internalType": "uint256",
              "name": "amountPerWinner",
              "type": "uint256"
            },
            {
              "internalType": "address",
              "name": "erc20PrizeToken",
              "type": "address"
            },
            {
              "internalType": "uint256",
              "name": "erc20PrizeAmount",
              "type": "uint256"
            },
            {
              "internalType": "uint256",
              "name": "nativePrizeAmount",
              "type": "uint256"
            },
            {
              "internalType": "bool",
              "name": "isEscrowedPrize",
              "type": "bool"
            }
          ],
          "internalType": "struct Pool.PrizeConfig",
          "name": "_prizeConfig",
          "type": "tuple"
        },
        {
          "components": [
            {
              "internalType": "address",
              "name": "holderTokenAddress",
              "type": "address"
            },
            {
              "internalType": "enum PrizeTypes.Standard",
              "name": "holderTokenStandard",
              "type": "uint8"
            },
            {
              "internalType": "uint256",
              "name": "minHolderTokenBalance",
              "type": "uint256"
            },
            {
              "internalType": "uint256",
              "name": "holderTokenId",
              "type": "uint256"
            }
          ],
          "internalType": "struct Pool.HolderConfig",
          "name": "_holderConfig",
          "type": "tuple"
        },
        {
          "components": [
            {
              "internalType": "bool",
              "name": "required",
              "type": "bool"
            },
            {
              "internalType": "string",
              "name": "taskDescription",
              "type": "string"
            }
          ],
          "internalType": "struct Pool.SocialConfig",
          "name": "_socialConfig",
          "type": "tuple"
        }
      ],
      "name": "initialize",
      "outputs": [],
      "stateMutability": "payable",
      "type": "function"
    },
    {
      "inputs": [],
      "name": "isCollabPool",
      "outputs": [
        {
          "internalType": "bool",
          "name": "",
          "type": "bool"
        }
      ],
      "stateMutability": "view",
      "type": "function"
    },
    {
      "inputs": [],
      "name": "isEscrowedPrize",
      "outputs": [
        {
          "internalType": "bool",
          "name": "",
          "type": "bool"
        }
      ],
      "stateMutability": "view",
      "type": "function"
    },
    {
      "inputs": [],
      "name": "isPrized",
      "outputs": [
        {
          "internalType": "bool",
          "name": "",
          "type": "bool"
        }
      ],
      "stateMutability": "view",
      "type": "function"
    },
    {
      "inputs": [],
      "name": "isRefundable",
      "outputs": [
        {
          "internalType": "bool",
          "name": "",
          "type": "bool"
        }
      ],
      "stateMutability": "view",
      "type": "function"
    },
    {
      "inputs": [],
      "name": "maxSlotsPerParticipant",
      "outputs": [
        {
          "internalType": "uint256",
          "name": "",
          "type": "uint256"
        }
      ],
      "stateMutability": "view",
      "type": "function"
    },
    {
      "inputs": [],
      "name": "minHolderTokenBalance",
      "outputs": [
        {
          "internalType": "uint256",
          "name": "",
          "type": "uint256"
        }
      ],
      "stateMutability": "view",
      "type": "function"
    },
    {
      "inputs": [],
      "name": "mint",
      "outputs": [],
      "stateMutability": "nonpayable",
      "type": "function"
    },
    {
      "inputs": [
        {
          "internalType": "address",
          "name": "winner",
          "type": "address"
        }
      ],
      "name": "mintToWinner",
      "outputs": [],
      "stateMutability": "nonpayable",
      "type": "function"
    },
    {
      "inputs": [],
      "name": "name",
      "outputs": [
        {
          "internalType": "string",
          "name": "",
          "type": "string"
        }
      ],
      "stateMutability": "view",
      "type": "function"
    },
    {
      "inputs": [],
      "name": "nativePrizeAmount",
      "outputs": [
        {
          "internalType": "uint256",
          "name": "",
          "type": "uint256"
        }
      ],
      "stateMutability": "view",
      "type": "function"
    },
    {
      "inputs": [
        {
          "internalType": "address",
          "name": "",
          "type": "address"
        },
        {
          "internalType": "address",
          "name": "",
          "type": "address"
        },
        {
          "internalType": "uint256[]",
          "name": "",
          "type": "uint256[]"
        },
        {
          "internalType": "uint256[]",
          "name": "",
          "type": "uint256[]"
        },
        {
          "internalType": "bytes",
          "name": "",
          "type": "bytes"
        }
      ],
      "name": "onERC1155BatchReceived",
      "outputs": [
        {
          "internalType": "bytes4",
          "name": "",
          "type": "bytes4"
        }
      ],
      "stateMutability": "pure",
      "type": "function"
    },
    {
      "inputs": [
        {
          "internalType": "address",
          "name": "",
          "type": "address"
        },
        {
          "internalType": "address",
          "name": "",
          "type": "address"
        },
        {
          "internalType": "uint256",
          "name": "",
          "type": "uint256"
        },
        {
          "internalType": "uint256",
          "name": "",
          "type": "uint256"
        },
        {
          "internalType": "bytes",
          "name": "",
          "type": "bytes"
        }
      ],
      "name": "onERC1155Received",
      "outputs": [
        {
          "internalType": "bytes4",
          "name": "",
          "type": "bytes4"
        }
      ],
      "stateMutability": "pure",
      "type": "function"
    },
    {
      "inputs": [
        {
          "internalType": "address",
          "name": "",
          "type": "address"
        },
        {
          "internalType": "address",
          "name": "",
          "type": "address"
        },
        {
          "internalType": "uint256",
          "name": "",
          "type": "uint256"
        },
        {
          "internalType": "bytes",
          "name": "",
          "type": "bytes"
        }
      ],
      "name": "onERC721Received",
      "outputs": [
        {
          "internalType": "bytes4",
          "name": "",
          "type": "bytes4"
        }
      ],
      "stateMutability": "pure",
      "type": "function"
    },
    {
      "inputs": [],
      "name": "owner",
      "outputs": [
        {
          "internalType": "address",
          "name": "",
          "type": "address"
        }
      ],
      "stateMutability": "view",
      "type": "function"
    },
    {
      "inputs": [
        {
          "internalType": "uint256",
          "name": "",
          "type": "uint256"
        }
      ],
      "name": "participants",
      "outputs": [
        {
          "internalType": "address",
          "name": "",
          "type": "address"
        }
      ],
      "stateMutability": "view",
      "type": "function"
    },
    {
      "inputs": [],
      "name": "paused",
      "outputs": [
        {
          "internalType": "bool",
          "name": "",
          "type": "bool"
        }
      ],
      "stateMutability": "view",
      "type": "function"
    },
    {
      "inputs": [],
      "name": "pendingProtocolFee",
      "outputs": [
        {
          "internalType": "uint256",
          "name": "",
          "type": "uint256"
        }
      ],
      "stateMutability": "view",
      "type": "function"
    },
    {
      "inputs": [
        {
          "internalType": "address",
          "name": "participant",
          "type": "address"
        }
      ],
      "name": "prizeClaimed",
      "outputs": [
        {
          "internalType": "uint256",
          "name": "",
          "type": "uint256"
        }
      ],
      "stateMutability": "view",
      "type": "function"
    },
    {
      "inputs": [],
      "name": "prizeCollection",
      "outputs": [
        {
          "internalType": "address",
          "name": "",
          "type": "address"
        }
      ],
      "stateMutability": "view",
      "type": "function"
    },
    {
      "inputs": [],
      "name": "prizeTokenId",
      "outputs": [
        {
          "internalType": "uint256",
          "name": "",
          "type": "uint256"
        }
      ],
      "stateMutability": "view",
      "type": "function"
    },
    {
      "inputs": [],
      "name": "prizesClaimedCount",
      "outputs": [
        {
          "internalType": "uint256",
          "name": "",
          "type": "uint256"
        }
      ],
      "stateMutability": "view",
      "type": "function"
    },
    {
      "inputs": [],
      "name": "protocolFeePercentage",
      "outputs": [
        {
          "internalType": "uint256",
          "name": "",
          "type": "uint256"
        }
      ],
      "stateMutability": "view",
      "type": "function"
    },
    {
      "inputs": [],
      "name": "protocolFeeTaken",
      "outputs": [
        {
          "internalType": "bool",
          "name": "",
          "type": "bool"
        }
      ],
      "stateMutability": "view",
      "type": "function"
    },
    {
      "inputs": [
        {
          "internalType": "uint256",
          "name": "quantity",
          "type": "uint256"
        },
        {
          "internalType": "uint256",
          "name": "_nonce",
          "type": "uint256"
        },
        {
          "internalType": "uint256",
          "name": "_deadline",
          "type": "uint256"
        },
        {
          "internalType": "bytes",
          "name": "_signature",
          "type": "bytes"
        },
        {
          "internalType": "uint256[]",
          "name": "_tokenIds",
          "type": "uint256[]"
        }
      ],
      "name": "purchaseSlots",
      "outputs": [],
      "stateMutability": "payable",
      "type": "function"
    },
    {
      "inputs": [],
      "name": "randomRequested",
      "outputs": [
        {
          "internalType": "bool",
          "name": "",
          "type": "bool"
        }
      ],
      "stateMutability": "view",
      "type": "function"
    },
    {
      "inputs": [],
      "name": "randomSeed",
      "outputs": [
        {
          "internalType": "uint256",
          "name": "",
          "type": "uint256"
        }
      ],
      "stateMutability": "view",
      "type": "function"
    },
    {
      "inputs": [],
      "name": "randomnessUsed",
      "outputs": [
        {
          "internalType": "bool",
          "name": "",
          "type": "bool"
        }
      ],
      "stateMutability": "view",
      "type": "function"
    },
    {
      "inputs": [
        {
          "internalType": "uint256",
          "name": "requestId",
          "type": "uint256"
        },
        {
          "internalType": "uint256[]",
          "name": "randomWords",
          "type": "uint256[]"
        }
      ],
      "name": "rawFulfillRandomWords",
      "outputs": [],
      "stateMutability": "nonpayable",
      "type": "function"
    },
    {
      "inputs": [
        {
          "internalType": "address",
          "name": "",
          "type": "address"
        }
      ],
      "name": "refundableAmount",
      "outputs": [
        {
          "internalType": "uint256",
          "name": "",
          "type": "uint256"
        }
      ],
      "stateMutability": "view",
      "type": "function"
    },
    {
      "inputs": [
        {
          "internalType": "address",
          "name": "",
          "type": "address"
        }
      ],
      "name": "refundedNonWinningSlots",
      "outputs": [
        {
          "internalType": "uint256",
          "name": "",
          "type": "uint256"
        }
      ],
      "stateMutability": "view",
      "type": "function"
    },
    {
      "inputs": [],
      "name": "removeFromVRFSubscription",
      "outputs": [],
      "stateMutability": "nonpayable",
      "type": "function"
    },
    {
      "inputs": [],
      "name": "renounceOwnership",
      "outputs": [],
      "stateMutability": "nonpayable",
      "type": "function"
    },
    {
      "inputs": [],
      "name": "requestRandomness",
      "outputs": [],
      "stateMutability": "nonpayable",
      "type": "function"
    },
    {
      "inputs": [],
      "name": "revenueRecipient",
      "outputs": [
        {
          "internalType": "address",
          "name": "",
          "type": "address"
        }
      ],
      "stateMutability": "view",
      "type": "function"
    },
    {
      "inputs": [],
      "name": "s_vrf_callbackGasLimit",
      "outputs": [
        {
          "internalType": "uint32",
          "name": "",
          "type": "uint32"
        }
      ],
      "stateMutability": "view",
      "type": "function"
    },
    {
      "inputs": [],
      "name": "s_vrf_keyHash",
      "outputs": [
        {
          "internalType": "bytes32",
          "name": "",
          "type": "bytes32"
        }
      ],
      "stateMutability": "view",
      "type": "function"
    },
    {
      "inputs": [],
      "name": "s_vrf_lastRequestId",
      "outputs": [
        {
          "internalType": "uint256",
          "name": "",
          "type": "uint256"
        }
      ],
      "stateMutability": "view",
      "type": "function"
    },
    {
      "inputs": [],
      "name": "s_vrf_requestConfirmations",
      "outputs": [
        {
          "internalType": "uint16",
          "name": "",
          "type": "uint16"
        }
      ],
      "stateMutability": "view",
      "type": "function"
    },
    {
      "inputs": [],
      "name": "s_vrf_subscriptionId",
      "outputs": [
        {
          "internalType": "uint256",
          "name": "",
          "type": "uint256"
        }
      ],
      "stateMutability": "view",
      "type": "function"
    },
    {
      "inputs": [],
      "name": "shuffleStartIndex",
      "outputs": [
        {
          "internalType": "uint256",
          "name": "",
          "type": "uint256"
        }
      ],
      "stateMutability": "view",
      "type": "function"
    },
    {
      "inputs": [],
      "name": "slotFee",
      "outputs": [
        {
          "internalType": "uint256",
          "name": "",
          "type": "uint256"
        }
      ],
      "stateMutability": "view",
      "type": "function"
    },
    {
      "inputs": [],
      "name": "slotLimit",
      "outputs": [
        {
          "internalType": "uint256",
          "name": "",
          "type": "uint256"
        }
      ],
      "stateMutability": "view",
      "type": "function"
    },
    {
      "inputs": [
        {
          "internalType": "address",
          "name": "",
          "type": "address"
        }
      ],
      "name": "slotsPurchased",
      "outputs": [
        {
          "internalType": "uint256",
          "name": "",
          "type": "uint256"
        }
      ],
      "stateMutability": "view",
      "type": "function"
    },
    {
      "inputs": [],
      "name": "socialEngagementRequired",
      "outputs": [
        {
          "internalType": "bool",
          "name": "",
          "type": "bool"
        }
      ],
      "stateMutability": "view",
      "type": "function"
    },
    {
      "inputs": [],
      "name": "standard",
      "outputs": [
        {
          "internalType": "enum PrizeTypes.Standard",
          "name": "",
          "type": "uint8"
        }
      ],
      "stateMutability": "view",
      "type": "function"
    },
    {
      "inputs": [],
      "name": "startTime",
      "outputs": [
        {
          "internalType": "uint256",
          "name": "",
          "type": "uint256"
        }
      ],
      "stateMutability": "view",
      "type": "function"
    },
    {
      "inputs": [],
      "name": "state",
      "outputs": [
        {
          "internalType": "enum IPool.PoolState",
          "name": "",
          "type": "uint8"
        }
      ],
      "stateMutability": "view",
      "type": "function"
    },
    {
      "inputs": [
        {
          "internalType": "bytes4",
          "name": "interfaceId",
          "type": "bytes4"
        }
      ],
      "name": "supportsInterface",
      "outputs": [
        {
          "internalType": "bool",
          "name": "",
          "type": "bool"
        }
      ],
      "stateMutability": "view",
      "type": "function"
    },
    {
      "inputs": [
        {
          "internalType": "uint256",
          "name": "",
          "type": "uint256"
        }
      ],
      "name": "tokenIdClaimedBy",
      "outputs": [
        {
          "internalType": "address",
          "name": "",
          "type": "address"
        }
      ],
      "stateMutability": "view",
      "type": "function"
    },
    {
      "inputs": [],
      "name": "totalCreatorRevenue",
      "outputs": [
        {
          "internalType": "uint256",
          "name": "",
          "type": "uint256"
        }
      ],
      "stateMutability": "view",
      "type": "function"
    },
    {
      "inputs": [],
      "name": "totalGlobalFeeRevenue",
      "outputs": [
        {
          "internalType": "uint256",
          "name": "",
          "type": "uint256"
        }
      ],
      "stateMutability": "view",
      "type": "function"
    },
    {
      "inputs": [],
      "name": "totalRefundableAmount",
      "outputs": [
        {
          "internalType": "uint256",
          "name": "",
          "type": "uint256"
        }
      ],
      "stateMutability": "view",
      "type": "function"
    },
    {
      "inputs": [
        {
          "internalType": "address",
          "name": "newOwner",
          "type": "address"
        }
      ],
      "name": "transferOwnership",
      "outputs": [],
      "stateMutability": "nonpayable",
      "type": "function"
    },
    {
      "inputs": [],
      "name": "usesCustomFee",
      "outputs": [
        {
          "internalType": "bool",
          "name": "",
          "type": "bool"
        }
      ],
      "stateMutability": "view",
      "type": "function"
    },
    {
      "inputs": [],
      "name": "wasDeletedForFullRefund",
      "outputs": [
        {
          "internalType": "bool",
          "name": "",
          "type": "bool"
        }
      ],
      "stateMutability": "view",
      "type": "function"
    },
    {
      "inputs": [
        {
          "internalType": "uint256",
          "name": "",
          "type": "uint256"
        }
      ],
      "name": "winners",
      "outputs": [
        {
          "internalType": "address",
          "name": "",
          "type": "address"
        }
      ],
      "stateMutability": "view",
      "type": "function"
    },
    {
      "inputs": [],
      "name": "winnersCount",
      "outputs": [
        {
          "internalType": "uint256",
          "name": "",
          "type": "uint256"
        }
      ],
      "stateMutability": "view",
      "type": "function"
    },
    {
      "inputs": [],
      "name": "winnersSelected",
      "outputs": [
        {
          "internalType": "uint256",
          "name": "",
          "type": "uint256"
        }
      ],
      "stateMutability": "view",
      "type": "function"
    },
    {
      "inputs": [
        {
          "internalType": "address",
          "name": "",
          "type": "address"
        }
      ],
      "name": "winsPerAddress",
      "outputs": [
        {
          "internalType": "uint256",
          "name": "",
          "type": "uint256"
        }
      ],
      "stateMutability": "view",
      "type": "function"
    },
    {
      "inputs": [],
      "name": "withdrawCreatorRevenue",
      "outputs": [],
      "stateMutability": "nonpayable",
      "type": "function"
    },
    {
      "inputs": [],
      "name": "withdrawProtocolRevenue",
      "outputs": [],
      "stateMutability": "nonpayable",
      "type": "function"
    }
  ],
  "bytecode": "0x60a034620000bb57601f6200609138819003918201601f19168301916001600160401b03831184841017620000c057808492602094604052833981010312620000bb57516001600160a01b03908181168103620000bb576000543360018060a01b0319821617600055604051923391167f8be0079c531659141344cd1fd0a4f28419497f9722a3daafe3b4186f6b6457e0600080a36001805560ff1960025416600255608052615fba9081620000d7823960805181610c320152f35b600080fd5b634e487b7160e01b600052604160045260246000fdfe608080604052600436101561001357600080fd5b600090813560e01c90816301ffc9a714613e3d5750806302d05d3f14613e145780630631c5c214613df657806306f1305614613dd857806306fdde0314613d055780630852197414612ce85780630aa00e7014613ce75780630b747d9114613cc95780630b78824b14613cab5780630e4fa15814613c855780630fb5a6b414613c675780631249c58b146138ed578063150b7a02146138965780631d93fa0a14612e035780631fe543e314612d2157806325444fa414612ce8578063262f5cf1146129255780632c1fecfe146128ff5780633197cbb6146128e1578063321679fa146128c3578063327bb1ad1461282957806335c1d349146127e55780633b26314d146127bc57806340021434146123e757806342b72afa146123ae5780634457dba41461238c57806344a909861461236e57806348a3a45014612348578063497138111461232a5780634e3ff460146122eb5780634f7f0fc0146122ac5780635755248e1461228e5780635a3b7e42146122685780635c975abb146122455780635d7dd4231461222757806366805de51461220e578063677375c3146121f0578063683d1936146121cd578063696917ba146121a75780636e61a1601461218157806370740ac914612142578063715018a6146120e8578063740e2198146120bc57806378e979251461209e578063813e88b914612080578063837d11281461205b57806387213c35146120355780638778d82c1461200c578063888dc19814611fee578063898b36db14611fd05780638bc5328514611fb25780638bfbbcbe14611f995780638d7fe47814611f735780638da5cb5b14611f4c5780638e50e50914611f2e5780639dd62cfc14611f0a5780639ed5c1cc14611ee1578063a177ec0914611eb4578063a2fb117514611e58578063a67d0e6c14611e3a578063a9532a5314611d64578063ae4b82c114611d3b578063aebc455014611d0e578063af78ed0a14611cf0578063b0b606c014611cbd578063b5545a3c14611812578063b5ad8412146115ed578063bc197c8114611561578063c19d93fb14611532578063c2e784bd14611514578063c3fa0e3b146114f6578063c913d4ed146114d8578063cabfaa18146114ba578063cc7d49ec14611494578063d0d11ae814611476578063d17d13591461143d578063d447e9bc146113a2578063d91043f21461141f578063dbb832bd146113f9578063dc52834e146113db578063dc8a55c2146113a2578063e489767c14610961578063e511a11b14610928578063e6f12cf71461090a578063f23a6e61146108af578063f2fde38b14610821578063f8413b07146105d4578063fb687df4146105ab5763fd22b17c146103f457600080fd5b346105a857806003193601126105a85780546040516336b87bd760e11b815233600482015290602090829060249082906001600160a01b03165afa90811561059d57829161056f575b501561055d5760185460ff8160581c1660088110156105495760046104629114614cc9565b819060ff8160381c168061053e575b61052f575b60201c60ff161580610524575b6104d8575b801561049a5761049790615bb7565b80f35b60405162461bcd60e51b81526020600482015260166024820152752737903932bb32b73ab2903a37903a3930b739b332b960511b6044820152606490fd5b906028546107d0928382029382850414821517156105105761050361271061050b949504809361462b565b60285561417a565b610488565b634e487b7160e01b83526011600452602483fd5b506028541515610483565b602e8054908490559150610476565b50602e541515610471565b634e487b7160e01b83526021600452602483fd5b6040516327e1f1e560e01b8152600490fd5b610590915060203d8111610596575b6105888183613efa565b810190614cb1565b3861043d565b503d61057e565b6040513d84823e3d90fd5b80fd5b50346105a857806003193601126105a857600e546040516001600160a01b039091168152602090f35b50346105a857806003193601126105a857600a54421015610814575b600a5442106105ff8115614582565b6018549060ff8260581c16600881101561080057600281149081156107f5575b50806107e8575b1561078557601954600c541161072957601e54156106c4575b50600f546001600160a01b0316331480156106af575b156106725760ff61066a9160481c16156145df565b6104976146f7565b60405162461bcd60e51b815260206004820152601560248201527410d85b1b195c881b9bdd08185d5d1a1bdc9a5e9959605a1b6044820152606490fd5b50338252601b60205260408220541515610655565b6106ce573861063f565b60405162461bcd60e51b815260206004820152602d60248201527f506f6f6c20656e642074696d65206e6f74207265616368656420666f7220696e60448201526c1a5d1a585b081c995c5d595cdd609a1b6064820152608490fd5b60405162461bcd60e51b815260206004820152602e60248201527f496e73756666696369656e74207061727469636970616e747320666f7220776960448201526d373732b91039b2b632b1ba34b7b760911b6064820152608490fd5b60405162461bcd60e51b815260206004820152603560248201527f4d75737420626520696e20456e6465642f44726177696e6720737461746520776044820152746974682077696e6e6572732072656d61696e696e6760581b6064820152608490fd5b50601e54600c5411610626565b60039150143861061f565b634e487b7160e01b84526021600452602484fd5b61081c615b7d565b6105f0565b50346105a85760203660031901126105a85761083b613f5b565b6108436140c7565b6001600160a01b0381161561085b576104979061411f565b60405162461bcd60e51b815260206004820152602660248201527f4f776e61626c653a206e6577206f776e657220697320746865207a65726f206160448201526564647265737360d01b6064820152608490fd5b50346105a85760a03660031901126105a8576108c9613f5b565b506108d2613f71565b506084356001600160401b038111610906576108f2903690600401613f9b565b505060405163f23a6e6160e01b8152602090f35b5080fd5b50346105a857806003193601126105a8576020602854604051908152f35b50346105a85760203660031901126105a8576020906040906001600160a01b03610950613f5b565b168152602d83522054604051908152f35b506101c03660031901126105a8576001600160401b03600435116105a8576101a08060031960043536030112610906576040519081018181106001600160401b03821117611388576040526109ba600435600401613f87565b81526109ca602460043501613f87565b60208201526109dd604460043501613f87565b6040820152606460043501356001600160401b038111610fa557610a08906004369181350101614073565b60608201526004356084810135608083015260a481013560a083015260c481013560c083015260e481013560e0830152610104810135610100830152610124810135610120830152610a5d90610144016140ba565b610140820152610a72610164600435016140ba565b610160820152610a87610184600435016140ba565b61018082015261010036602319011261090657604051806101008101106001600160401b036101008301111761138857610100810160405260046024351015610fa55760243581526044356001600160a01b03811690036110b35760443560208201526064356040820152608435606082015260a4356001600160a01b03811690036110b35760a435608082015260c43560a082015260e43560c082015261010435151561010435036110b3576101043560e0820152608036610123190112610fa557604051908160808101106001600160401b036080840111176113885760808201604052610124356001600160a01b03811681036110b3578252600461014435101561139e576101443560208301526101643560408301526101843560608301526001600160401b036101a4351161139e5760406101a4353603600319011261139e57604051918260408101106001600160401b036040850111176113885760408301604052610bfe6101a4356004016140ba565b83526001600160401b0360246101a43501351161138457610c2b366101a435602481013501600401614073565b60208401527f00000000000000000000000000000000000000000000000000000000000000006001600160a01b0316330361133f5784546001600160a01b03166113045783516001600160a01b031690610c848261411f565b6020850151600f80546001600160a01b0319166001600160a01b039290921691909117905560405163ec644ddd60e01b815260a081600481865afa80156110c057878889918a948b94611288575b509161ffff949163ffffffff9360025490610100600160a81b039060081b1690610100600160a81b031916176002556003556004551663ffffffff1960055416176005551661ffff19600754161760075560608501518051906001600160401b038211611274578190610d46600854613e92565b601f8111611202575b50602090601f831160011461118c578992611181575b50508160011b916000199060031b1c1916176008555b610d9660808601518060095560a08701519081600b5561417a565b600a55610120850151600c556101408501511515916018549160ff841660ff1984161760185560e0870151600d55610100870151601055604051631a35245160e31b8152604081600481865afa80156111765789918a91611139575b506024556023556020850151600e80546001600160a01b0319166001600160a01b0392831617905560c0880151601155815116806110de575b505060408601516004949392916020916001600160a01b031680156110cb575b602280546001600160a01b039283166001600160a01b0319918216179091556080870151602a805491909316911617905560a0850151602b5560c0850151602c55604051636f6f8c5d60e01b815295869182905afa9384156110c0578794611087575b5060c083015115610fa95750505060e083015103610fa557600360ff1960125416176012556201000062ff00001960185416176018555b60185460ff811680610f98575b15610f5b57506001600c541165ff00000000006018549160281b169065ff00000000001916176018555b5115159068ff000000000000000063ff000000610160601854930151151560181b169260401b16906bff0000ff00000000ff0000001916171760185580f35b60ff8160201c1615600014610f8757506501000000000065ff0000000000196018541617601855610f1c565b65ff00000000001916601855610f1c565b5060ff8160201c16610ef2565b8280fd5b60808301516001600160a01b031615610fec5750505060e083015103610fa557600260ff1960125416176012556201000062ff0000196018541617601855610ee5565b602083015192935090916001600160a01b031661100c575b505050610ee5565b62ff000060e0840151151560101b169060ff64ff00000000610180880151151560201b1693169064ff00ff00ff191617171760185580516004811015611073579060609160ff80196012541691161760125560408101516013550151601455388080611004565b634e487b7160e01b85526021600452602485fd5b9093506020813d6020116110b8575b816110a360209383613efa565b810103126110b357519238610eae565b600080fd5b3d9150611096565b6040513d89823e3d90fd5b50878201516001600160a01b0316610e4b565b602f549060208301516004811015611125576001600160a81b03199092161760a09190911b60ff60a01b1617602f5560408101516030556060015160315560206004610e2b565b634e487b7160e01b8b52602160045260248bfd5b9150506040813d60401161116e575b8161115560409383613efa565b8101031261116a576020815191015138610df2565b8880fd5b3d9150611148565b6040513d8b823e3d90fd5b015190503880610d65565b925060088952600080516020615f458339815191529089935b601f19841685106111e7576001945083601f198116106111ce575b505050811b01600855610d7b565b015160001960f88460031b161c191690553880806111c0565b818101518355602094850194600190930192909101906111a5565b90915060088952601f830160051c600080516020615f45833981519152016020841061125f575b908392915b601f820160051c600080516020615f458339815191520181106112515750610d4f565b8a815584935060010161122e565b50600080516020615f45833981519152611229565b634e487b7160e01b88526041600452602488fd5b94505050505060a0813d60a0116112fc575b816112a760a09383613efa565b810103126112f8576112b881614166565b60208201519060408301519260608101519063ffffffff821682036112f457608001519061ffff821682036112f457939092909161ffff610cd2565b8a80fd5b8680fd5b3d915061129a565b60405162461bcd60e51b8152602060048201526013602482015272105b1c9958591e481a5b9a5d1a585b1a5e9959606a1b6044820152606490fd5b60405162461bcd60e51b815260206004820152601b60248201527f4f6e6c7920666163746f72792063616e20696e697469616c697a6500000000006044820152606490fd5b8480fd5b634e487b7160e01b600052604160045260246000fd5b8380fd5b50346105a85760203660031901126105a8576020906040906001600160a01b036113ca613f5b565b168152601683522054604051908152f35b50346105a857806003193601126105a8576020601054604051908152f35b50346105a857806003193601126105a857602060ff60185460381c166040519015158152f35b50346105a857806003193601126105a8576020602454604051908152f35b50346105a85760203660031901126105a8576020906040906001600160a01b03611465613f5b565b168152601583522054604051908152f35b50346105a857806003193601126105a8576020602c54604051908152f35b50346105a857806003193601126105a857602060ff60185460301c166040519015158152f35b50346105a857806003193601126105a8576020601954604051908152f35b50346105a857806003193601126105a8576020600454604051908152f35b50346105a857806003193601126105a8576020602e54604051908152f35b50346105a857806003193601126105a8576020600654604051908152f35b50346105a857806003193601126105a85760ff60185460581c1660405190600881101561054957602092508152f35b50346105a85760a03660031901126105a85761157b613f5b565b50611584613f71565b506001600160401b03604435818111610fa5576115a5903690600401613fc8565b5050606435818111610fa5576115bf903690600401613fc8565b5050608435908111610906576115d9903690600401613f9b565b505060405163bc197c8160e01b8152602090f35b50346105a857806003193601126105a857611606614d0a565b6022546001600160a01b0390811633036117de576018549060ff8260581c166008811015610800576005811461139e576007811461139e5780600461165492149081156117d3575b50614cc9565b60265491821561139e5760ff811690816117c4575b50806117ba575b6117a85761169b61169161271061168960245486614c7e565b04809461462b565b9284602655615bb7565b828080808585602254165af16116af6146c7565b5015611757576024602082855416604051928380926316accbeb60e01b82523060048301525afa91821561174c577f86a5cc8fe9af9ae68fb50f62885307a7755a30cbd290131644377f0bd94a718192602092869161172f575b50611722575b6022541692604051908152a26001805580f35b61172a6153ae565b61170f565b6117469150833d8111610596576105888183613efa565b38611709565b6040513d86823e3d90fd5b60405162461bcd60e51b8152602060048201526024808201527f5472616e7366657220746f20726576656e756520726563697069656e742066616044820152631a5b195960e21b6064820152608490fd5b604051637e9888a160e01b8152600490fd5b5060175415611670565b60ff915060101c161538611669565b60069150143861164e565b60405162461bcd60e51b815260206004820152600c60248201526b155b985d5d1a1bdc9a5e995960a21b6044820152606490fd5b50346105a857806003193601126105a85761182b614d0a565b60185460ff90818160581c1660088110158061107357600482148015611cb0575b818115611ca0575b8115611c90575b5015611c4b57838360301c16600014611983575050503382526020906029825280604084205416610fa557601b8252604083205415610fa557601854908082169182611977575b50501561192357338252601b81527f358fe4192934d3bf28ae181feda1f4bd08ca67f5e2fad55582cce5eb67304ae96118e26040842054600d5490614c7e565b913384526029815260408420600160ff198254161790556119128480808087335af161190c6146c7565b50614ddf565b6040519283523392a25b6001805580f35b6084906040519062461bcd60e51b82526004820152602760248201527f526566756e6473206e6f7420706f737369626c6520666f72207468697320706f6044820152666f6c207479706560c81b6064820152fd5b831c16905038806118a2565b61080057600703611a61575033825260296020528060408320541661090657601b60205260408220548015610fa557600d546119be91614c7e565b9060185460201c16600014611a4157602654818110610fa557816119e19161462b565b6026555b338252602960205260408220600160ff19825416179055611a0f8280808085335af161190c6146c7565b6040519081527f358fe4192934d3bf28ae181feda1f4bd08ca67f5e2fad55582cce5eb67304ae960203392a25b61191c565b611a5981602854611a5482821015614d60565b61462b565b6028556119e5565b9080821680611c3f575b80611c33575b80611c28575b15611b56575050338152601b60205260408120546015602052604082205490602d60205260408320549082811180611b44575b1561139e57611abc92611a549161462b565b600d546023549061271091820390828211611b3057611ae69291611adf91614c7e565b0482614c7e565b9060275480831161139e5782611afb9161462b565b602755338352602d602052611b156040842091825461417a565b9055611a0f8280808085335af1611b2a6146c7565b50614da3565b634e487b7160e01b85526011600452602485fd5b50611b4f838261462b565b8210611aaa565b80602092831c1615611b6a575b505061191c565b338352601b8252604083205415610fa5576029825260408320541661090657601b8152611b9e6040832054600d5490614c7e565b611f4090818102918183041490151715610510576127107f358fe4192934d3bf28ae181feda1f4bd08ca67f5e2fad55582cce5eb67304ae9910491611bec83602854611a5482821015614d60565b6028553384526029815260408420600160ff19825416179055611c188480808087335af1611b2a6146c7565b6040519283523392a23880611b63565b506027541515611a77565b50808260281c16611a71565b50808260201c16611a6b565b60405162461bcd60e51b815260206004820152601e60248201527f506f6f6c206e6f7420696e206120726566756e6461626c6520737461746500006044820152606490fd5b905061107357600782148161185b565b9050611073576005821481611854565b505060006006821461184c565b50346105a85760203660031901126105a857602090600435815260328252604060018060a01b0391205416604051908152f35b50346105a857806003193601126105a8576020602654604051908152f35b50346105a857806003193601126105a85760025460405160089190911c6001600160a01b03168152602090f35b50346105a85760203660031901126105a857604060209160043581528280522054604051908152f35b50346105a857806003193601126105a85760ff60185460581c16600881101590816105495760048114918215611e2c575b8215611e1b575b8215611df6575b505015611db2576104976153ae565b606460405162461bcd60e51b815260206004820152602060248201527f506f6f6c206d75737420626520696e2061207465726d696e616c2073746174656044820152fd5b909150611e07576006143880611da3565b634e487b7160e01b82526021600452602482fd5b809250610549576005811491611d9c565b506007811491506000611d95565b50346105a857806003193601126105a8576020600d54604051908152f35b50346105a85760203660031901126105a857600435601a5481101561090657601a6000527f057c384a7d1c54f3a1b2e5e67b2617b8224fdfd1ea7234eea573a6ff665ff63e01546040516001600160a01b039091168152602090f35b50346105a857806003193601126105a857611edd60ff602f5460a01c166040519182918261402f565b0390f35b50346105a857806003193601126105a857602a546040516001600160a01b039091168152602090f35b50346105a857806003193601126105a857602063ffffffff60055416604051908152f35b50346105a857806003193601126105a8576020602354604051908152f35b50346105a857806003193601126105a857546040516001600160a01b039091168152602090f35b50346105a857806003193601126105a857602060ff60185460481c166040519015158152f35b50346105a857806003193601126105a85761049761419d565b50346105a857806003193601126105a8576020601e54604051908152f35b50346105a857806003193601126105a8576020601154604051908152f35b50346105a857806003193601126105a8576020601754604051908152f35b50346105a857806003193601126105a857602f546040516001600160a01b039091168152602090f35b50346105a857806003193601126105a857602060ff60185460401c166040519015158152f35b50346105a857806003193601126105a857602060185460ff60405191831c1615158152f35b50346105a857806003193601126105a8576020601454604051908152f35b50346105a857806003193601126105a8576020600954604051908152f35b50346105a85760203660031901126105a85760206120e06120db613f5b565b614e24565b604051908152f35b50346105a857806003193601126105a8576121016140c7565b600080546001600160a01b0319811682556001600160a01b03167f8be0079c531659141344cd1fd0a4f28419497f9722a3daafe3b4186f6b6457e08280a380f35b50346105a857806003193601126105a85761215b614d0a565b60ff60185460581c166008811015611e0757600461217991146153ef565b61191c61542b565b50346105a857806003193601126105a857602060ff60185460081c166040519015158152f35b50346105a857806003193601126105a857602060ff60185460101c166040519015158152f35b50346105a857806003193601126105a857602060ff601854166040519015158152f35b50346105a857806003193601126105a8576020602754604051908152f35b50346105a857806003193601126105a857610497615111565b50346105a857806003193601126105a8576020600354604051908152f35b50346105a857806003193601126105a857602060ff600254166040519015158152f35b50346105a857806003193601126105a857611edd60ff601254166040519182918261402f565b50346105a857806003193601126105a8576020603054604051908152f35b50346105a85760203660031901126105a85760209060ff906040906001600160a01b036122d7613f5b565b168152602984522054166040519015158152f35b50346105a85760203660031901126105a85760209060ff906040906001600160a01b03612316613f5b565b168152603384522054166040519015158152f35b50346105a857806003193601126105a8576020600c54604051908152f35b50346105a857806003193601126105a857602060ff60185460501c166040519015158152f35b50346105a857806003193601126105a8576020601f54604051908152f35b50346105a857806003193601126105a857602061ffff60075416604051908152f35b50346105a85760203660031901126105a8576020906040906001600160a01b036123d6613f5b565b168152602583522054604051908152f35b50346105a857602080600319360112610906576004359030330361278757602154835280805281604084205561241e602154614c6f565b602155601f5490601d54906019549361243684614ac1565b906124446040519283613efa565b84825261245085614ac1565b8284019490601f1901368637875b86811061268457505050855b8481106125f057506124a16018549469ff00000000000000000019861660185561249681601d5461417a565b601d55601e5461417a565b9283601e55604051918383019084845251809152604083019190885b858282106125d3575050505090807f32a1b5731a757f192a06ca973715ca4dbc42c2d15323cabaa74e0a2d5dc088e4920390a1600c549182116125cc5762ff00ff60481b1983166001605a1b17601881905560ff841691826125be575b50816125af575b816125a0575b50612533575b50505080f35b61254d612556916b0400000001000000000000009461462b565b600d5490614c7e565b61271061256560235483614c7e565b0461257c612573828461462b565b9260265461462b565b602655602e556027556bff00ff00ff0000000000000019161760185538808061252d565b60ff915060381c161538612527565b905060ff8160281c1690612521565b81901c60ff1691503861251a565b5050505080f35b83516001600160a01b0316855293840193909201916001016124bd565b6001600160a01b036126028284614ad8565b511690601a918254600160401b811015611388576001810180855581101561266e57612669936000527f057c384a7d1c54f3a1b2e5e67b2617b8224fdfd1ea7234eea573a6ff665ff63e01906bffffffffffffffffffffffff60a01b825416179055614c6f565b61246a565b634e487b7160e01b600052603260045260246000fd5b61269281611a54848b61462b565b60405186810190858252836040820152604081526126af81613edf565b519020906126bd838561417a565b918115612773576126db61276e94936127239361274293069061417a565b6126e481613ff8565b9054600391821b1c6001600160a01b03908116949185612704888d614ad8565b52612717612712888b61417a565b613ff8565b9054911b1c1691613ff8565b90919082549060031b9160018060a01b03809116831b921b1916179055565b61275381612723612712858861417a565b8a526015865260408a206127678154614c6f565b9055614c6f565b61245e565b634e487b7160e01b8c52601260045260248cfd5b6064906040519062461bcd60e51b82526004820152600e60248201526d13db9b1e481cd95b198b58d85b1b60921b6044820152fd5b50346105a857806003193601126105a8576022546040516001600160a01b039091168152602090f35b50346105a85760203660031901126105a857600435906019548210156105a857602061281083613ff8565b905460405160039290921b1c6001600160a01b03168152f35b50346105a857806003193601126105a8578054600e54604051635aa35d2560e11b81526001600160a01b0391821615156004820152929160209184916024918391165afa9081156128b75790612885575b602090604051908152f35b506020813d82116128af575b8161289e60209383613efa565b810103126110b3576020905161287a565b3d9150612891565b604051903d90823e3d90fd5b50346105a857806003193601126105a8576020602b54604051908152f35b50346105a857806003193601126105a8576020600a54604051908152f35b50346105a857806003193601126105a857602060ff60185460281c166040519015158152f35b50346105a85760208060031936011261090657612940613f5b565b612948614d0a565b6018549160ff8360581c16600881101561107357600403612cd65760ff601254169160018060a01b0380600e54169481600f54163303612b74575b508415612b6257811693848652601583526040862054938415612b505785875260168452604087205494858103958114612b3e578688526016855260408820556004811015612b2a578692919080612a685750803b15610fa5576040516340c10f1960e01b81526001600160a01b039290921660048301526024820185905282908290604490829084905af1801561059d57612a54575b5050612a467f95681e512bc0fe659e195e06c283eada494316f3d801213e48e7101af92bf77092615efd565b604051848152a26001805580f35b612a5d90613ecc565b61139e578338612a1a565b91925090600103612b18578591846014540260135492803b1561138457604051630ab714fb60e11b81526001600160a01b03939093166004840152602483019390935260448201529082908290606490829084905af1801561059d57612b04575b5050612af57f95681e512bc0fe659e195e06c283eada494316f3d801213e48e7101af92bf77092615efd565b601354604051908152a261191c565b612b0d90613ecc565b61139e578338612ac9565b60405163fd34e50560e01b8152600490fd5b634e487b7160e01b87526021600452602487fd5b604051630ccaf35d60e41b8152600490fd5b6040516358cd4fc160e11b8152600490fd5b60405163424ca23960e01b8152600490fd5b60248483895416604051928380926336b87bd760e11b82523360048301525afa908115612ccb578891612cae575b506129835760181c60ff1615612bf857856004851015612b2a57819085612c42575050604051638da5cb5b60e01b81528381600481895afa80156110c05782918891612c0a575b505b163303612bf85738612983565b604051635c427cd960e01b8152600490fd5b809250858092503d8311612c3b575b612c238183613efa565b810103126112f857612c358291614166565b38612be9565b503d612c19565b60018603612beb575050604051638da5cb5b60e01b81528381600481895afa80156110c05782918891612c76575b50612beb565b809250858092503d8311612ca7575b612c8f8183613efa565b810103126112f857612ca18291614166565b38612c70565b503d612c85565b612cc59150853d8711610596576105888183613efa565b38612ba2565b6040513d8a823e3d90fd5b604051631a1889b760e01b8152600490fd5b50346105a85760203660031901126105a8576020906040906001600160a01b03612d10613f5b565b168152601b83522054604051908152f35b50346105a85760403660031901126105a8576024356001600160401b03811161090657612d52903690600401613fc8565b60025460081c6001600160a01b03163303612dbe57612d7081614ac1565b91612d7e6040519384613efa565b8183526020918284019060051b820191368311612dba57905b828210612dab578561049786600435614aec565b81358152908301908301612d97565b8580fd5b60405162461bcd60e51b815260206004820181905260248201527f4f6e6c792056524620436f6f7264696e61746f722063616e2066756c66696c6c6044820152606490fd5b5060a03660031901126105a8576001600160401b03606435818111610fa557612e30903690600401613f9b565b9160843590811161139e57612e49903690600401613fc8565b919092612e54614d0a565b60185460ff8160581c166008811015612b2a5715613853575b503332036138425760185460ff8160581c166008811015612b2a5760010361383057331561381e576004351561380c57600d5480156137fa57612eb39060043590614c7e565b34036137e857600a544210156137d657612ed160043560195461417a565b601154106137c45760095442106137b257338652601b602052612efa600435604088205461417a565b601054106137a05760ff8116158061376a575b613758578554604051638da5cb5b60e01b81526001600160a01b039091169190602081600481865afa908115612ccb57889161371a575b506001600160a01b0316331461370857600f546001600160a01b031633146136f75760401c60ff16806136e0575b6135b8575b5050602f546001600160a01b03811691508161306b575b50505050338152601b602052604081206004358154019055805b6004358110613023575060185460201c60ff166130165734602854016028555b60195460115414613009575b60405160043581527ffd1903a7f9f31de6cf38a88eda98ae029aeba3b2ec48a599d7c0d900f0f335cb60203392a26001805580f35b6130116146f7565b612fd4565b3460265401602655612fc8565b60195490600160401b82101561138857613065613047836001809501601955613ff8565b81546001600160a01b0360039290921b91821b19163390911b179055565b01612fa8565b60a01c60ff16600481101561107357806134a9575050801561346f57603054600181036131f9575060011161319d57356024602060018060a01b03602f5416604051928380926331a9108f60e11b82528660048301525afa8015613192578390613157575b6130e591506001600160a01b03163314615ad3565b8082526032602052604082205461310f906001600160a01b0316801590811561314d575b50615b1f565b815260326020526040812080546001600160a01b03811615613138575b50505b38808080612f8e565b6001600160a01b03191633179055388061312c565b9050331438613109565b506020813d60201161318a575b8161317160209383613efa565b81010312610fa5576131856130e591614166565b6130d0565b3d9150613164565b6040513d85823e3d90fd5b60405162461bcd60e51b815260206004820152602e60248201527f546f6b656e20494420726571756972656420666f722073696e676c6520746f6b60448201526d195b881c995c5d5a5c995b595b9d60921b6064820152608490fd5b6001811115613420578082106133db57835b818110613335575050825b60305481101561332d578061322e6024928486615ac3565b35602060018060a01b03602f5416604051948580926331a9108f60e11b82528560048301525afa9283156133225786936132e1575b506132c79261327c906001600160a01b03163314615ad3565b808652603290816020526132a560018060a01b03604089205416801590811561314d5750615b1f565b86526020526040852080546001600160a01b038116156132cc575b5050614c6f565b613216565b6001600160a01b0319163317905538806132c0565b92506020833d60201161331a575b816132fc60209383613efa565b81010312612dba5761327c6133136132c794614166565b9350613263565b3d91506132ef565b6040513d88823e3d90fd5b50505061312f565b600181018082116133c7575b828110613357575061335290614c6f565b61320b565b613362828587615ac3565b3561336e828688615ac3565b35146133825761337d90614c6f565b613341565b60405162461bcd60e51b815260206004820152601f60248201527f4475706c696361746520746f6b656e20494473206e6f7420616c6c6f776564006044820152606490fd5b634e487b7160e01b86526011600452602486fd5b60405162461bcd60e51b815260206004820152601f60248201527f496e73756666696369656e7420746f6b656e204944732070726f7669646564006044820152606490fd5b60405162461bcd60e51b815260206004820152602160248201527f496e76616c696420746f6b656e2062616c616e636520726571756972656d656e6044820152601d60fa1b6064820152608490fd5b60405162461bcd60e51b8152602060048201526012602482015271151bdad95b8812511cc81c995c5d5a5c995960721b6044820152606490fd5b9092509050600181036135365750603154604051627eeac760e11b8152336004820152602481019190915290602090829060449082905afa801561059d578290613502575b6134fd91506030541115615a6c565b61312f565b506020813d60201161352e575b8161351c60209383613efa565b810103126110b3576134fd90516134ee565b3d915061350f565b600214613544575b5061312f565b6020602491604051928380926370a0823160e01b82523360048301525afa801561059d578290613584575b61357e91506030541115615a6c565b3861353e565b506020813d6020116135b0575b8161359e60209383613efa565b810103126110b35761357e905161356f565b3d9150613591565b602060049160405192838092636b90bda960e01b82525afa9081156133225786916136a6575b506001600160a01b03168015613694578592813b1561139e57839183918360c460405180978196829563cffc18eb60e01b84523360048501523060248501526024356044850152604435606485015260a060848501528160a4850152848401378181018301849052601f01601f191681010301925af1801561059d57613680575b5050338352603360205260408320805460ff19166001179055388080612f77565b61368990613ecc565b610fa557823861365f565b6040516343361aaf60e01b8152600490fd5b90506020813d6020116136d8575b816136c160209383613efa565b81010312612dba576136d290614166565b386135de565b3d91506136b4565b50338652603360205260ff60408720541615612f72565b60405162ca6a8360e51b8152600490fd5b604051635f2a002d60e11b8152600490fd5b90506020813d602011613750575b8161373560209383613efa565b8101031261374c5761374690614166565b38612f44565b8780fd5b3d9150613728565b604051631274fa9d60e31b8152600490fd5b5060ff8160201c168015613793575b80612f0d5750338652601b60205260408620541515612f0d565b5060016004351415613779565b604051637145fa7b60e01b8152600490fd5b604051633d8c21b360e01b8152600490fd5b6040516302edeeb760e31b8152600490fd5b60405163fd2a413d60e01b8152600490fd5b60405163569e8c1160e01b8152600490fd5b60405163d2100d7360e01b8152600490fd5b60405163f4f5b73360e01b8152600490fd5b60405163d92e233d60e01b8152600490fd5b6040516338c0a90160e11b8152600490fd5b60405162c44f5760e51b8152600490fd5b6009544210612e6d5760ff60581b1916600160581b176018557f3d31b97eef590df350bb2cdbc390034c613c9f23ea6ae1906682628c85248b538580a138612e6d565b50346105a85760803660031901126105a8576138b0613f5b565b506138b9613f71565b506064356001600160401b038111610906576138d9903690600401613f9b565b5050604051630a85bd0160e11b8152602090f35b50346105a857806003193601126105a857613906614d0a565b601860ff815460581c16600881101561054957600461392591146153ef565b61392d615ca2565b50600e546001600160a01b03168015612b625760ff835460101c16613c555760ff6012541660048110156110735780613ad75750803b1561139e576040516340c10f1960e01b81523360048201526024810183905290849081908390604490829084905af19182613ac3575b5050613ab9575060016139aa614638565b6308c379a014613a45575b6139c2575b506001805580f35b6139ca6146c7565b50604051600080516020615f25833981519152339180613a0f8160609060208152601060208201526f131bddcb5b195d995b081c995d995c9d60821b60408201520190565b0390a2805465ff00000000ff60301b19166505000000000160301b179055600080516020615f658339815191528180a1386139ba565b613a4d614656565b80613a59575b506139b5565b90508290600080516020615f258339815191526040516020815280613a8333946020830190613f1b565b0390a2815465ff00000000ff60301b19166505000000000160301b178255600080516020615f658339815191528380a138613a53565b611a3c9150615efd565b613acc90613ecc565b61139e578338613999565b600103613c55578360135491836014540290803b15610fa557604051630ab714fb60e11b8152336004820152602481019490945260448401919091528290606490829084905af19081613c42575b50613ab957506001613b35614638565b6308c379a014613bce575b613b4b575b5061191c565b613b536146c7565b50604051600080516020615f25833981519152339180613b988160609060208152601060208201526f131bddcb5b195d995b081c995d995c9d60821b60408201520190565b0390a2805465ff00000000ff60301b19166505000000000160301b179055600080516020615f658339815191528180a138613b45565b613bd6614656565b80613be2575b50613b40565b90508290600080516020615f258339815191526040516020815280613c0c33946020830190613f1b565b0390a2815465ff00000000ff60301b19166505000000000160301b178255600080516020615f658339815191528380a138613bdc565b613c4e90949194613ecc565b9238613b25565b604051631558dc5f60e31b8152600490fd5b50346105a857806003193601126105a8576020600b54604051908152f35b50346105a857806003193601126105a857602060ff60185460181c166040519015158152f35b50346105a857806003193601126105a8576020601354604051908152f35b50346105a857806003193601126105a8576020601c54604051908152f35b50346105a857806003193601126105a8576020603154604051908152f35b50346105a857806003193601126105a8576040519080600854613d2781613e92565b80855291600191808316908115613dae5750600114613d65575b611edd85613d5181870382613efa565b604051918291602083526020830190613f1b565b925060088352600080516020615f458339815191525b828410613d96575050508101602001613d5182611edd613d41565b80546020858701810191909152909301928101613d7b565b869550611edd96935060209250613d5194915060ff191682840152151560051b8201019293613d41565b50346105a857806003193601126105a8576020602154604051908152f35b50346105a857806003193601126105a8576020601d54604051908152f35b50346105a857806003193601126105a857600f546040516001600160a01b039091168152602090f35b9050346109065760203660031901126109065760043563ffffffff60e01b8116809103610fa55760209250630a85bd0160e11b8114908115613e81575b5015158152f35b630271189760e51b14905038613e7a565b90600182811c92168015613ec2575b6020831014613eac57565b634e487b7160e01b600052602260045260246000fd5b91607f1691613ea1565b6001600160401b03811161138857604052565b606081019081106001600160401b0382111761138857604052565b90601f801991011681019081106001600160401b0382111761138857604052565b919082519283825260005b848110613f47575050826000602080949584010152601f8019910116010190565b602081830181015184830182015201613f26565b600435906001600160a01b03821682036110b357565b602435906001600160a01b03821682036110b357565b35906001600160a01b03821682036110b357565b9181601f840112156110b3578235916001600160401b0383116110b357602083818601950101116110b357565b9181601f840112156110b3578235916001600160401b0383116110b3576020808501948460051b0101116110b357565b60195481101561266e5760196000527f944998273e477b495144fb8794c914197f3ccb46be2900f4698fd0ef743c96950190600090565b9190602083019260048210156140425752565b634e487b7160e01b600052602160045260246000fd5b6001600160401b03811161138857601f01601f191660200190565b81601f820112156110b35780359061408a82614058565b926140986040519485613efa565b828452602083830101116110b357816000926020809301838601378301015290565b359081151582036110b357565b6000546001600160a01b031633036140db57565b606460405162461bcd60e51b815260206004820152602060248201527f4f776e61626c653a2063616c6c6572206973206e6f7420746865206f776e65726044820152fd5b600080546001600160a01b039283166001600160a01b03198216811783559216907f8be0079c531659141344cd1fd0a4f28419497f9722a3daafe3b4186f6b6457e09080a3565b51906001600160a01b03821682036110b357565b9190820180921161418757565b634e487b7160e01b600052601160045260246000fd5b602a546000906001600160a01b0390811661090657602c5461090657600a5442101561453d578082541633148015614530575b156109065760185460ff90818160581c166008811015611073578015908115614525575b50156144d1578082168080614493575b80614486575b61441b57156143d65765ff00000000ff60301b19166505000000000160301b176018556142356153ae565b61423d615683565b601854818116806143c9575b8061439f575b61428f575b50505080600080516020615f65833981519152817f9331b2a38c658c57a39ea19b2709d928c28a12cc8fbb838d12b85148550f937d93a180a1565b60101c811661439a576012541660048110156105495761431d57600e5416803b1561090657818091602460405180948193636382ff5160e11b83523060048401525af1801561059d57614309575b507f9331b2a38c658c57a39ea19b2709d928c28a12cc8fbb838d12b85148550f937d905b903880614254565b6143138291613ecc565b6105a857386142dd565b90809291600e5416803b15610906578190602460405180968193636382ff5160e11b83523060048401525af192831561438d577f9331b2a38c658c57a39ea19b2709d928c28a12cc8fbb838d12b85148550f937d929361437e575b50614301565b61438790613ecc565b38614378565b50604051903d90823e3d90fd5b505050565b50816012541660048110156110735780159081156143be575b5061424f565b6001915014386143b8565b5082600e54161515614249565b60405162461bcd60e51b815260206004820152601e60248201527f43616e6e6f742064656c657465206e6f6e2d7072697a656420706f6f6c7300006044820152606490fd5b60405162461bcd60e51b815260206004820152603960248201527f43616e6e6f742064656c657465204e46542d7072697a656420706f6f6c73207460448201527f686174207573652070726f746f636f6c20736c6f7420666565000000000000006064820152608490fd5b50828260201c161561420a565b50826012541660048110156144bd5780159081156144b2575b50614204565b6001915014386144ac565b634e487b7160e01b86526021600452602486fd5b60405162461bcd60e51b815260206004820152602660248201527f43616e206f6e6c792064656c657465206265666f726520656e642074696d652060448201526570617373657360d01b6064820152608490fd5b6001915014386141f4565b5080600f541633146141d0565b60405162461bcd60e51b815260206004820152601760248201527f506f6f6c206475726174696f6e206578686175737465640000000000000000006044820152606490fd5b1561458957565b60405162461bcd60e51b815260206004820152602860248201527f54696d657374616d702064656c61792069737375652c2074727920616761696e6044820152672073686f72746c7960c01b6064820152608490fd5b156145e657565b60405162461bcd60e51b815260206004820152601960248201527f5265717565737420616c726561647920696e20666c69676874000000000000006044820152606490fd5b9190820391821161418757565b60009060033d1161464557565b905060046000803e60005160e01c90565b600060443d106146b357604051600319913d83016004833e81516001600160401b03918282113d6024840111176146b6578184019485519384116146be573d850101602084870101116146b657506146b392910160200190613efa565b90565b949350505050565b50949350505050565b3d156146f2573d906146d882614058565b916146e66040519384613efa565b82523d6000602084013e565b606090565b601860ff815460581c16600881101561404257600114614ab4575b805460ff8160581c1660088110156140425760028114908115614aa9575b5015614a555761474660ff8260481c16156145df565b60195490601d5491614758838261462b565b80614768600c54601e549061462b565b601e811115614a505750601e5b80601f5511614a47575b50601f54918215614a3257507f4ff4e84912750d469e8d0e190997710c06112023943415787c2f744eb09c0da460606021549260409485519182526020968783015285820152a2600254600454600354600754600554855161ffff9283169560081c6001600160a01b03169263ffffffff926001600160401b039290841691908a810184811182821017611388578a526000815289519063125fa26760e31b8c83015251151560248201526024815261483781613edf565b89519460c0860194851186861017611388578a818d9a956148c8958c9760009985528a52878a019b8c52838a019d8e5260608a0191825260808a01936001855260a08b01968752519d8e9c8d9b8c9a634d8e1c2f60e11b8c5260048c01525160248b01525160448a01525116606488015251166084860152511660a48401525160c060c484015260e4830190613f1b565b03925af160009181614a03575b506149b4575060016148e5614638565b6308c379a01461494c575b6148f957505050565b7fab4c58d5f7fcd2f6f276017059fe707292278a4b150b6402c89eb3899a7494ec916149366149266146c7565b9251928284938452830190613f1b565b0390a1805460ff60581b1916600160591b179055565b614954614656565b80614960575b506148f0565b90507f1bc0b7451d1b26a4c7bfd7b118b2756c98249ac5f3d51e76be5f33aab548990261499a600092845191829187835287830190613f1b565b0390a1835460ff60581b1916600160591b1784553861495a565b907ff81446731d23d202ea16cf590daf64c6087251171612b2adde6acbef4b37580293826006556b0300010000000000000000006bff00ff0000000000000000001982541617905551908152a1565b90918482813d8311614a2b575b614a1a8183613efa565b810103126105a857505190386148d5565b503d614a10565b60ff60581b19166001605a1b17909355505050565b601f553861477f565b614775565b60405162461bcd60e51b815260206004820152602660248201527f506f6f6c206d75737420626520696e20456e646564206f722044726177696e6760448201526520737461746560d01b6064820152608490fd5b600391501438614730565b614abc615b7d565b614712565b6001600160401b0381116113885760051b60200190565b805182101561266e5760209160051b010190565b6002546000919060081c6001600160a01b03163303612dbe5760065403614c58576018805460ff60501b1916600160501b178155825190929015614c44576020015190303b156105a85760405191631000850d60e21b83526004830152808260248183305af19182614c35575b5090614c3157600190614b6a614638565b6308c379a014614bc2575b50614b7e575b50565b7fbccec8509a79ecd26780c2699a3ca2503c3a3455b361b5fcda5760593edb03c9614baa613d516146c7565b0390a1805462ff00ff60481b1916600160591b179055565b614bca614656565b9081614bd7575b50614b75565b7fbcd905a8eb4cc473497e2cd24cf41334ea7fad80c354380f8fff04a025b1e5f8919250614c149092604051918291602083526020830190613f1b565b0390a1815462ff00ff60481b1916600160591b1782553880614bd1565b5050565b614c3e90613ecc565b38614b59565b634e487b7160e01b82526032600452602482fd5b50506018805460ff60581b1916600160591b179055565b60001981146141875760010190565b8181029291811591840414171561418757565b8115614c9b570490565b634e487b7160e01b600052601260045260246000fd5b908160209103126110b3575180151581036110b35790565b15614cd057565b60405162461bcd60e51b8152602060048201526012602482015271141bdbdb081b9bdd0818dbdb5c1b195d195960721b6044820152606490fd5b600260015414614d1b576002600155565b60405162461bcd60e51b815260206004820152601f60248201527f5265656e7472616e637947756172643a207265656e7472616e742063616c6c006044820152606490fd5b15614d6757565b60405162461bcd60e51b8152602060048201526014602482015273496e73756666696369656e742062616c616e636560601b6044820152606490fd5b15614daa57565b60405162461bcd60e51b815260206004820152600d60248201526c1499599d5b990819985a5b1959609a1b6044820152606490fd5b15614de657565b60405162461bcd60e51b81526020600482015260166024820152751499599d5b99081d1c985b9cd9995c8819985a5b195960521b6044820152606490fd5b60185460ff90818160301c1661505657818160581c169060088210156140425760078214614ff35782811680614fe7575b80614fdb575b80614fd0575b614f2f5760201c8216159081614f10575b50614e7e575050600090565b60009160018060a01b03168252601b602052604082205415159081614efc575b50614ea65790565b601b602052614ebc6040822054600d5490614c7e565b611f4090818102918183041490151715614ee8576127109004806028541015614ee3575090565b905090565b634e487b7160e01b82526011600452602482fd5b905060296020526040822054161538614e9e565b6004811491508115614f24575b5038614e72565b600691501438614f1d565b5050509060009160018060a01b03168252601b602052604082205460156020526040832054602d60205260408420549181811180614fbe575b614f7157505050565b614f7f9291611a549161462b565b600d546023549061271091820394828611614faa57506146b39394614fa391614c7e565b0490614c7e565b634e487b7160e01b81526011600452602490fd5b50614fc9828261462b565b8310614f68565b506027541515614e61565b50828160281c16614e5b565b50828160201c16614e55565b6001600160a01b039093166000908152601b602052604090205490508061501d575b505050600090565b600d5461502991614c7e565b9160201c16615046578060285410156146b357505b388080615015565b8060265410156146b3575061503e565b9080821691826150b8575b505080615097575b6150735750600090565b6001600160a01b03166000908152601b6020526040902054600d546146b391614c7e565b506001600160a01b0381166000908152601b60205260409020541515615069565b60201c1690503880615061565b156150cc57565b60405162461bcd60e51b815260206004820152601960248201527f506f6f6c20656e642074696d65206e6f742072656163686564000000000000006044820152606490fd5b601880549060ff91828160581c166008811015614042576007811461537857600181148061536c575b15615306575050601954600c5411156152c25761515b600a544210156150c5565b805460ff60581b1916600760581b1781557f456598f31410bd74ce9e62f22e18454c4264af94fd5752d17b3cebce37d73cdd600080a15b81815460581c1660088110156140425760076151ae9114614582565b6151b66153ae565b6151be615683565b54818116806152ae575b80615284575b6151d6575050565b60101c8116614b7b576012541660048110156140425761524557600e546001600160a01b0316803b156110b35760008091602460405180948193636382ff5160e11b83523060048401525af180156152395761523057505b565b61522e90613ecc565b6040513d6000823e3d90fd5b600e546001600160a01b0316803b156110b35760008091602460405180948193636382ff5160e11b83523060048401525af18015615239576152305750565b50816012541660048110156140425780159081156152a3575b506151ce565b60019150143861529d565b50600e546001600160a01b031615156151c8565b606460405162461bcd60e51b815260206004820152602060248201527f506f6f6c206d7573742070726f636565642073656c6563742077696e6e6572736044820152fd5b1580615360575b615318575b50615192565b615326600a544210156150c5565b60ff60581b1916600760581b1781557f456598f31410bd74ce9e62f22e18454c4264af94fd5752d17b3cebce37d73cdd600080a138615312565b50600a5442101561530d565b50600a5442101561513a565b60405162461bcd60e51b815260206004820152600e60248201526d105b1c9958591e4818db1bdcd95960921b6044820152606490fd5b600080546001600160a01b0316803b1561090657818091602460405180958193633aaa814760e01b83523060048401525af19081156128b757506152305750565b156153f657565b60405162461bcd60e51b815260206004820152600d60248201526c496e76616c696420737461746560981b6044820152606490fd5b60ff60185460101c1615613c5557615441615ca2565b50602a54601254600e54600c546001600160a01b039182169493909260ff169116806155e05750600491828210156155cb57600382146155715750831561556157806154ee5750601354833b156110b357604080516323b872dd60e01b81523093810193845233602085015290830191909152926000918491908290849082906060015b03925af19182156152395761522e926154df575b50615efd565b6154e890613ecc565b386154d9565b60010361555257816014540260135493803b156110b35760408051637921219560e11b81523094810194855233602086015290840195909552606083019190915260a06080830181905260009083018190529184919082908490829060c0016154c5565b604051631558dc5f60e31b8152fd5b5060405163424ca23960e01b8152fd5b8394506155849150602c93929354614c91565b0280156155bb57600080808093335af161559c6146c7565b50156155ac575061522e90615efd565b60405163880a149160e01b8152fd5b50604051630193f71f60e51b8152fd5b602183634e487b7160e01b6000525260246000fd5b929350506155f18391602b54614c91565b029081156156715760405163a9059cbb60e01b81523360048201526024810192909252602090829060449082906000905af190811561523957600091615653575b50156156415761522e90615efd565b60405163880a149160e01b8152600490fd5b61566b915060203d8111610596576105888183613efa565b38615632565b604051630193f71f60e51b8152600490fd5b60185460ff8116908115614c315781615a5e575b5061569e57565b602a546001600160a01b03908116156157c85780602a5416604051916370a0823160e01b83523060048401526020928381602481865afa9081156152395760009161579b575b50806156f1575b50505050565b600f5460405163a9059cbb60e01b815292166001600160a01b0316600483015260248201529082908290816000816044810103925af19081156152395760009161577e575b5015615744578080806156eb565b6064906040519062461bcd60e51b825260048201526013602482015272151bdad95b881c99599d5b990819985a5b1959606a1b6044820152fd5b6157959150823d8411610596576105888183613efa565b38615736565b908482813d83116157c1575b6157b18183613efa565b810103126105a8575051386156e4565b503d6157a7565b60ff6012541660049081811015615a4957600381036158475750904790816157ef57505050565b60008080938193600f54165af16158046146c7565b501561580d5750565b60649060206040519162461bcd60e51b83528201526013602482015272141c9a5e99481c99599d5b990819985a5b1959606a1b6044820152fd5b80615935575081600e541691601354906040516331a9108f60e11b81528284820152602081602481885afa908115615239576000916158fc575b50811630146158905750505050565b600f541692803b156110b357604080516323b872dd60e01b8152309481019485526001600160a01b03909516602085015283019190915260009183919082908490829060600103925af18015615239576158ed575b8080806156eb565b6158f690613ecc565b386158e5565b906020823d821161592d575b8161591560209383613efa565b810103126105a8575061592790614166565b38615881565b3d9150615908565b600114615940575050565b600e5460135460408051627eeac760e11b8152308582019081526020818101859052919693948416939287918291010381855afa94851561523957600095615a16575b5084615991575b5050505050565b600f5416813b156110b357600080946159ef60405197889687958694637921219560e11b865230908601929060c0949260018060a01b0380921685521660208401526040830152606082015260a06080820152600060a08201520190565b03925af1801561523957615a07575b8080808061598a565b615a1090613ecc565b386159fe565b90946020823d8211615a41575b81615a3060209383613efa565b810103126105a85750519338615983565b3d9150615a23565b602182634e487b7160e01b6000525260246000fd5b60ff915060101c1638615697565b15615a7357565b60405162461bcd60e51b815260206004820152602260248201527f476174696e672062616c616e636520726571756972656d656e74206e6f74206d604482015261195d60f21b6064820152608490fd5b919081101561266e5760051b0190565b15615ada57565b60405162461bcd60e51b815260206004820152601c60248201527f4e6f74206f776e6572206f662073706563696669656420746f6b656e000000006044820152606490fd5b15615b2657565b60405162461bcd60e51b815260206004820152602960248201527f546f6b656e20494420616c726561647920626f756e6420746f20616e6f74686560448201526872206164647265737360b81b6064820152608490fd5b6018805460ff60581b1916600160591b1790557fba56b904ffec191559c3639e6019beb8a654605dbf6ba72f33361432a97c2bea600080a1565b6000805460405163524d530b60e01b815260209390916001600160a01b039085908490600490829085165afa92831561174c578493615c6b575b50821615610fa5579082916040519085820191635e5bc1c560e11b835281602482015260248152615c2181613edf565b51925af1615c2d6146c7565b5015615c365750565b6064906040519062461bcd60e51b82526004820152600e60248201526d11195c1bdcda5d0819985a5b195960921b6044820152fd5b9092508481813d8311615c9b575b615c838183613efa565b8101031261139e57615c9490614166565b9138615bf1565b503d615c79565b600033815260209160158352604080832054928315615eec57338152601685528181205494858503958514615edb57602f5485939291906001600160a01b0381169081615cf7575b5050601690338352522055565b60ff91929394955060a01c1660048110156108005786949392919080615da957508394509060249181939451928380926370a0823160e01b82523360048301525afa908115615d9f579083929187959491615d66575b5090615d5f6016926030541115615a6c565b9038615cea565b828094959650819392503d8311615d98575b615d828183613efa565b81010312610fa557518593929190615d5f615d4d565b503d615d78565b84513d85823e3d90fd5b60018103615e4457506031548451627eeac760e11b81523360048201526024810191909152939450919290918290829060449082905afa908115615d9f579083929187959491615e0b575b5090615e066016926030541115615a6c565b615d5f565b828094959650819392503d8311615e3d575b615e278183613efa565b81010312610fa557518593929190615e06615df4565b503d615e1d565b600214615e55575b50601690615d5f565b8394509060249181939451928380926370a0823160e01b82523360048301525afa908115615d9f579083929187959491615ea2575b5090615e9c6016926030541115615a6c565b90615e4c565b828094959650819392503d8311615ed4575b615ebe8183613efa565b81010312610fa557518593929190615e9c615e8a565b503d615eb4565b8251630ccaf35d60e41b8152600490fd5b81516358cd4fc160e11b8152600490fd5b6017540180601755600c5414615f0f57565b6018805460ff60581b1916600360591b17905556fe18381720d6efb26847068a65e3be979f1243520b7db6b16331969a7acdb200d5f3f7a9fe364faab93b216da50a3214154f22a0a2b415b23a84c8169e8b636ee3e465c22b8ec96fc194d9a0791b76171272fb36c68a84e2c807ed610cb9c7b9b1a264697066735822122064a04f605098268eba99080f468253e66023bbab5a184ae06b89574d0a1c6abb64736f6c63430008130033",
  "linkReferences": {},
  "deployedLinkReferences": {}
}