{
  "_format": "hh-sol-artifact-1",
  "contractName": "Pool",
  "sourceName": "contracts/Pool.sol",
  "abi": [
    {
      "inputs": [
        {
          "internalType": "address",
          "name": "_factory",
          "type": "address"
        }
      ],
      "stateMutability": "nonpayable",
      "type": "constructor"
    },
    {
      "inputs": [],
      "name": "ContractsCannotPurchase",
      "type": "error"
    },
    {
      "inputs": [],
      "name": "CreatorNotAllowed",
      "type": "error"
    },
    {
      "inputs": [],
      "name": "ExceedsMaxSlots",
      "type": "error"
    },
    {
      "inputs": [],
      "name": "ExceedsSlotLimit",
      "type": "error"
    },
    {
      "inputs": [],
      "name": "ExceedsWinnersCount",
      "type": "error"
    },
    {
      "inputs": [],
      "name": "IncorrectPayment",
      "type": "error"
    },
    {
      "inputs": [],
      "name": "InvalidNonPrizedPurchase",
      "type": "error"
    },
    {
      "inputs": [],
      "name": "InvalidPoolState",
      "type": "error"
    },
    {
      "inputs": [],
      "name": "InvalidPrizeAmount",
      "type": "error"
    },
    {
      "inputs": [],
      "name": "InvalidPrizeCollection",
      "type": "error"
    },
    {
      "inputs": [],
      "name": "InvalidPrizeType",
      "type": "error"
    },
    {
      "inputs": [],
      "name": "InvalidState",
      "type": "error"
    },
    {
      "inputs": [],
      "name": "MintingNotSupported",
      "type": "error"
    },
    {
      "inputs": [],
      "name": "NoPrizesClaimedYet",
      "type": "error"
    },
    {
      "inputs": [],
      "name": "NoPrizesToClaim",
      "type": "error"
    },
    {
      "inputs": [],
      "name": "NotAWinner",
      "type": "error"
    },
    {
      "inputs": [],
      "name": "OnlyOperator",
      "type": "error"
    },
    {
      "inputs": [],
      "name": "PoolDurationElapsed",
      "type": "error"
    },
    {
      "inputs": [],
      "name": "PoolNotActive",
      "type": "error"
    },
    {
      "inputs": [],
      "name": "PrizeTransferFailed",
      "type": "error"
    },
    {
      "inputs": [],
      "name": "ProtocolAdminNotAllowed",
      "type": "error"
    },
    {
      "inputs": [],
      "name": "SocialEngagementNotConfigured",
      "type": "error"
    },
    {
      "inputs": [],
      "name": "TimestampDelayIssue",
      "type": "error"
    },
    {
      "inputs": [],
      "name": "UnauthorizedCaller",
      "type": "error"
    },
    {
      "inputs": [],
      "name": "ZeroAddress",
      "type": "error"
    },
    {
      "inputs": [],
      "name": "ZeroQuantity",
      "type": "error"
    },
    {
      "inputs": [],
      "name": "ZeroSlotFee",
      "type": "error"
    },
    {
      "anonymous": false,
      "inputs": [
        {
          "indexed": false,
          "internalType": "string",
          "name": "reason",
          "type": "string"
        }
      ],
      "name": "BatchProcessingFailed",
      "type": "event"
    },
    {
      "anonymous": false,
      "inputs": [
        {
          "indexed": false,
          "internalType": "bytes",
          "name": "lowLevelData",
          "type": "bytes"
        }
      ],
      "name": "BatchProcessingFailedBytes",
      "type": "event"
    },
    {
      "anonymous": false,
      "inputs": [],
      "name": "FullRefundEnabledForDeletion",
      "type": "event"
    },
    {
      "anonymous": false,
      "inputs": [
        {
          "indexed": true,
          "internalType": "address",
          "name": "participant",
          "type": "address"
        },
        {
          "indexed": false,
          "internalType": "uint256",
          "name": "amount",
          "type": "uint256"
        }
      ],
      "name": "FullRefundForDeletion",
      "type": "event"
    },
    {
      "anonymous": false,
      "inputs": [
        {
          "indexed": true,
          "internalType": "address",
          "name": "winner",
          "type": "address"
        },
        {
          "indexed": false,
          "internalType": "string",
          "name": "reason",
          "type": "string"
        }
      ],
      "name": "MintingFailed",
      "type": "event"
    },
    {
      "anonymous": false,
      "inputs": [
        {
          "indexed": true,
          "internalType": "address",
          "name": "previousOwner",
          "type": "address"
        },
        {
          "indexed": true,
          "internalType": "address",
          "name": "newOwner",
          "type": "address"
        }
      ],
      "name": "OwnershipTransferred",
      "type": "event"
    },
    {
      "anonymous": false,
      "inputs": [
        {
          "indexed": false,
          "internalType": "address",
          "name": "account",
          "type": "address"
        }
      ],
      "name": "Paused",
      "type": "event"
    },
    {
      "anonymous": false,
      "inputs": [],
      "name": "PoolActivated",
      "type": "event"
    },
    {
      "anonymous": false,
      "inputs": [],
      "name": "PoolDeleted",
      "type": "event"
    },
    {
      "anonymous": false,
      "inputs": [],
      "name": "PoolEnded",
      "type": "event"
    },
    {
      "anonymous": false,
      "inputs": [],
      "name": "PoolUnengaged",
      "type": "event"
    },
    {
      "anonymous": false,
      "inputs": [
        {
          "indexed": true,
          "internalType": "address",
          "name": "winner",
          "type": "address"
        },
        {
          "indexed": false,
          "internalType": "uint256",
          "name": "tokenId",
          "type": "uint256"
        }
      ],
      "name": "PrizeClaimed",
      "type": "event"
    },
    {
      "anonymous": false,
      "inputs": [
        {
          "indexed": false,
          "internalType": "uint256",
          "name": "requestId",
          "type": "uint256"
        }
      ],
      "name": "RandomRequested",
      "type": "event"
    },
    {
      "anonymous": false,
      "inputs": [
        {
          "indexed": true,
          "internalType": "address",
          "name": "participant",
          "type": "address"
        },
        {
          "indexed": false,
          "internalType": "uint256",
          "name": "amount",
          "type": "uint256"
        }
      ],
      "name": "RefundClaimed",
      "type": "event"
    },
    {
      "anonymous": false,
      "inputs": [
        {
          "indexed": true,
          "internalType": "address",
          "name": "recipient",
          "type": "address"
        },
        {
          "indexed": false,
          "internalType": "uint256",
          "name": "amount",
          "type": "uint256"
        }
      ],
      "name": "RevenueWithdrawn",
      "type": "event"
    },
    {
      "anonymous": false,
      "inputs": [
        {
          "indexed": true,
          "internalType": "uint256",
          "name": "batchNumber",
          "type": "uint256"
        },
        {
          "indexed": false,
          "internalType": "uint256",
          "name": "participantCount",
          "type": "uint256"
        },
        {
          "indexed": false,
          "internalType": "uint256",
          "name": "shuffleStartIndex",
          "type": "uint256"
        },
        {
          "indexed": false,
          "internalType": "uint256",
          "name": "batchSize",
          "type": "uint256"
        }
      ],
      "name": "SelectionStarted",
      "type": "event"
    },
    {
      "anonymous": false,
      "inputs": [
        {
          "indexed": true,
          "internalType": "address",
          "name": "participant",
          "type": "address"
        },
        {
          "indexed": false,
          "internalType": "uint256",
          "name": "quantity",
          "type": "uint256"
        }
      ],
      "name": "SlotsPurchased",
      "type": "event"
    },
    {
      "anonymous": false,
      "inputs": [
        {
          "indexed": false,
          "internalType": "address",
          "name": "account",
          "type": "address"
        }
      ],
      "name": "Unpaused",
      "type": "event"
    },
    {
      "anonymous": false,
      "inputs": [
        {
          "indexed": false,
          "internalType": "string",
          "name": "reason",
          "type": "string"
        }
      ],
      "name": "VRFRequestFailed",
      "type": "event"
    },
    {
      "anonymous": false,
      "inputs": [
        {
          "indexed": false,
          "internalType": "bytes",
          "name": "lowLevelData",
          "type": "bytes"
        }
      ],
      "name": "VRFRequestFailedBytes",
      "type": "event"
    },
    {
      "anonymous": false,
      "inputs": [
        {
          "indexed": false,
          "internalType": "address[]",
          "name": "winners",
          "type": "address[]"
        }
      ],
      "name": "WinnersSelected",
      "type": "event"
    },
    {
      "inputs": [
        {
          "internalType": "uint256",
          "name": "batchRandomSeed",
          "type": "uint256"
        }
      ],
      "name": "_processBatchWithRandomness",
      "outputs": [],
      "stateMutability": "nonpayable",
      "type": "function"
    },
    {
      "inputs": [],
      "name": "amountPerWinner",
      "outputs": [
        {
          "internalType": "uint256",
          "name": "",
          "type": "uint256"
        }
      ],
      "stateMutability": "view",
      "type": "function"
    },
    {
      "inputs": [],
      "name": "batchCount",
      "outputs": [
        {
          "internalType": "uint256",
          "name": "",
          "type": "uint256"
        }
      ],
      "stateMutability": "view",
      "type": "function"
    },
    {
      "inputs": [
        {
          "internalType": "uint256",
          "name": "",
          "type": "uint256"
        }
      ],
      "name": "batchRandomSeeds",
      "outputs": [
        {
          "internalType": "uint256",
          "name": "",
          "type": "uint256"
        }
      ],
      "stateMutability": "view",
      "type": "function"
    },
    {
      "inputs": [],
      "name": "claimPrize",
      "outputs": [],
      "stateMutability": "nonpayable",
      "type": "function"
    },
    {
      "inputs": [],
      "name": "claimRefund",
      "outputs": [],
      "stateMutability": "nonpayable",
      "type": "function"
    },
    {
      "inputs": [
        {
          "internalType": "address",
          "name": "",
          "type": "address"
        }
      ],
      "name": "claimedWins",
      "outputs": [
        {
          "internalType": "uint256",
          "name": "",
          "type": "uint256"
        }
      ],
      "stateMutability": "view",
      "type": "function"
    },
    {
      "inputs": [],
      "name": "closePool",
      "outputs": [],
      "stateMutability": "nonpayable",
      "type": "function"
    },
    {
      "inputs": [],
      "name": "creationFeePercentage",
      "outputs": [
        {
          "internalType": "uint256",
          "name": "",
          "type": "uint256"
        }
      ],
      "stateMutability": "view",
      "type": "function"
    },
    {
      "inputs": [],
      "name": "creator",
      "outputs": [
        {
          "internalType": "address",
          "name": "",
          "type": "address"
        }
      ],
      "stateMutability": "view",
      "type": "function"
    },
    {
      "inputs": [],
      "name": "currentBatchSize",
      "outputs": [
        {
          "internalType": "uint256",
          "name": "",
          "type": "uint256"
        }
      ],
      "stateMutability": "view",
      "type": "function"
    },
    {
      "inputs": [],
      "name": "deletePool",
      "outputs": [],
      "stateMutability": "nonpayable",
      "type": "function"
    },
    {
      "inputs": [],
      "name": "duration",
      "outputs": [
        {
          "internalType": "uint256",
          "name": "",
          "type": "uint256"
        }
      ],
      "stateMutability": "view",
      "type": "function"
    },
    {
      "inputs": [],
      "name": "endTime",
      "outputs": [
        {
          "internalType": "uint256",
          "name": "",
          "type": "uint256"
        }
      ],
      "stateMutability": "view",
      "type": "function"
    },
    {
      "inputs": [],
      "name": "erc20PrizeAmount",
      "outputs": [
        {
          "internalType": "uint256",
          "name": "",
          "type": "uint256"
        }
      ],
      "stateMutability": "view",
      "type": "function"
    },
    {
      "inputs": [],
      "name": "erc20PrizeToken",
      "outputs": [
        {
          "internalType": "address",
          "name": "",
          "type": "address"
        }
      ],
      "stateMutability": "view",
      "type": "function"
    },
    {
      "inputs": [],
      "name": "erc721EscrowClaimed",
      "outputs": [
        {
          "internalType": "bool",
          "name": "",
          "type": "bool"
        }
      ],
      "stateMutability": "view",
      "type": "function"
    },
    {
      "inputs": [],
      "name": "getParticipantsCount",
      "outputs": [
        {
          "internalType": "uint256",
          "name": "",
          "type": "uint256"
        }
      ],
      "stateMutability": "view",
      "type": "function"
    },
    {
      "inputs": [
        {
          "internalType": "address",
          "name": "participant",
          "type": "address"
        }
      ],
      "name": "getRefundableAmount",
      "outputs": [
        {
          "internalType": "uint256",
          "name": "",
          "type": "uint256"
        }
      ],
      "stateMutability": "view",
      "type": "function"
    },
    {
      "inputs": [],
      "name": "getSlotLimit",
      "outputs": [
        {
          "internalType": "uint256",
          "name": "",
          "type": "uint256"
        }
      ],
      "stateMutability": "view",
      "type": "function"
    },
    {
      "inputs": [
        {
          "internalType": "address",
          "name": "participant",
          "type": "address"
        }
      ],
      "name": "getSlotsPurchased",
      "outputs": [
        {
          "internalType": "uint256",
          "name": "",
          "type": "uint256"
        }
      ],
      "stateMutability": "view",
      "type": "function"
    },
    {
      "inputs": [
        {
          "internalType": "address",
          "name": "",
          "type": "address"
        }
      ],
      "name": "hasClaimedFeeRefund",
      "outputs": [
        {
          "internalType": "bool",
          "name": "",
          "type": "bool"
        }
      ],
      "stateMutability": "view",
      "type": "function"
    },
    {
      "inputs": [
        {
          "internalType": "address",
          "name": "",
          "type": "address"
        }
      ],
      "name": "hasCompletedSocialEngagement",
      "outputs": [
        {
          "internalType": "bool",
          "name": "",
          "type": "bool"
        }
      ],
      "stateMutability": "view",
      "type": "function"
    },
    {
      "inputs": [],
      "name": "holderTokenAddress",
      "outputs": [
        {
          "internalType": "address",
          "name": "",
          "type": "address"
        }
      ],
      "stateMutability": "view",
      "type": "function"
    },
    {
      "inputs": [],
      "name": "holderTokenId",
      "outputs": [
        {
          "internalType": "uint256",
          "name": "",
          "type": "uint256"
        }
      ],
      "stateMutability": "view",
      "type": "function"
    },
    {
      "inputs": [],
      "name": "holderTokenStandard",
      "outputs": [
        {
          "internalType": "enum PrizeTypes.Standard",
          "name": "",
          "type": "uint8"
        }
      ],
      "stateMutability": "view",
      "type": "function"
    },
    {
      "inputs": [],
      "name": "i_vrfCoordinator",
      "outputs": [
        {
          "internalType": "contract VRFCoordinatorV2PlusInterface",
          "name": "",
          "type": "address"
        }
      ],
      "stateMutability": "view",
      "type": "function"
    },
    {
      "inputs": [
        {
          "components": [
            {
              "internalType": "address",
              "name": "manager",
              "type": "address"
            },
            {
              "internalType": "address",
              "name": "creator",
              "type": "address"
            },
            {
              "internalType": "address",
              "name": "revenueRecipient",
              "type": "address"
            },
            {
              "internalType": "string",
              "name": "name",
              "type": "string"
            },
            {
              "internalType": "uint256",
              "name": "startTime",
              "type": "uint256"
            },
            {
              "internalType": "uint256",
              "name": "duration",
              "type": "uint256"
            },
            {
              "internalType": "uint256",
              "name": "slotLimit",
              "type": "uint256"
            },
            {
              "internalType": "uint256",
              "name": "slotFee",
              "type": "uint256"
            },
            {
              "internalType": "uint256",
              "name": "maxSlotsPerParticipant",
              "type": "uint256"
            },
            {
              "internalType": "uint256",
              "name": "winnersCount",
              "type": "uint256"
            },
            {
              "internalType": "bool",
              "name": "isPrized",
              "type": "bool"
            },
            {
              "internalType": "bool",
              "name": "isCollabPool",
              "type": "bool"
            },
            {
              "internalType": "bool",
              "name": "usesCustomFee",
              "type": "bool"
            },
            {
              "internalType": "bool",
              "name": "isExternalPrizeCollection",
              "type": "bool"
            }
          ],
          "internalType": "struct Pool.PoolConfig",
          "name": "_poolConfig",
          "type": "tuple"
        },
        {
          "components": [
            {
              "internalType": "enum PrizeTypes.Standard",
              "name": "standard",
              "type": "uint8"
            },
            {
              "internalType": "address",
              "name": "prizeCollection",
              "type": "address"
            },
            {
              "internalType": "uint256",
              "name": "prizeTokenId",
              "type": "uint256"
            },
            {
              "internalType": "uint256",
              "name": "amountPerWinner",
              "type": "uint256"
            },
            {
              "internalType": "address",
              "name": "erc20PrizeToken",
              "type": "address"
            },
            {
              "internalType": "uint256",
              "name": "erc20PrizeAmount",
              "type": "uint256"
            },
            {
              "internalType": "uint256",
              "name": "nativePrizeAmount",
              "type": "uint256"
            },
            {
              "internalType": "bool",
              "name": "isEscrowedPrize",
              "type": "bool"
            }
          ],
          "internalType": "struct Pool.PrizeConfig",
          "name": "_prizeConfig",
          "type": "tuple"
        },
        {
          "components": [
            {
              "internalType": "address",
              "name": "holderTokenAddress",
              "type": "address"
            },
            {
              "internalType": "enum PrizeTypes.Standard",
              "name": "holderTokenStandard",
              "type": "uint8"
            },
            {
              "internalType": "uint256",
              "name": "minHolderTokenBalance",
              "type": "uint256"
            },
            {
              "internalType": "uint256",
              "name": "holderTokenId",
              "type": "uint256"
            }
          ],
          "internalType": "struct Pool.HolderConfig",
          "name": "_holderConfig",
          "type": "tuple"
        },
        {
          "components": [
            {
              "internalType": "bool",
              "name": "required",
              "type": "bool"
            }
          ],
          "internalType": "struct Pool.SocialConfig",
          "name": "_socialConfig",
          "type": "tuple"
        }
      ],
      "name": "initialize",
      "outputs": [],
      "stateMutability": "payable",
      "type": "function"
    },
    {
      "inputs": [],
      "name": "isCollabPool",
      "outputs": [
        {
          "internalType": "bool",
          "name": "",
          "type": "bool"
        }
      ],
      "stateMutability": "view",
      "type": "function"
    },
    {
      "inputs": [],
      "name": "isEscrowedPrize",
      "outputs": [
        {
          "internalType": "bool",
          "name": "",
          "type": "bool"
        }
      ],
      "stateMutability": "view",
      "type": "function"
    },
    {
      "inputs": [],
      "name": "isExternalPrizeCollection",
      "outputs": [
        {
          "internalType": "bool",
          "name": "",
          "type": "bool"
        }
      ],
      "stateMutability": "view",
      "type": "function"
    },
    {
      "inputs": [],
      "name": "isPrized",
      "outputs": [
        {
          "internalType": "bool",
          "name": "",
          "type": "bool"
        }
      ],
      "stateMutability": "view",
      "type": "function"
    },
    {
      "inputs": [],
      "name": "isRefundable",
      "outputs": [
        {
          "internalType": "bool",
          "name": "",
          "type": "bool"
        }
      ],
      "stateMutability": "view",
      "type": "function"
    },
    {
      "inputs": [],
      "name": "maxSlotsPerParticipant",
      "outputs": [
        {
          "internalType": "uint256",
          "name": "",
          "type": "uint256"
        }
      ],
      "stateMutability": "view",
      "type": "function"
    },
    {
      "inputs": [],
      "name": "minHolderTokenBalance",
      "outputs": [
        {
          "internalType": "uint256",
          "name": "",
          "type": "uint256"
        }
      ],
      "stateMutability": "view",
      "type": "function"
    },
    {
      "inputs": [],
      "name": "mint",
      "outputs": [],
      "stateMutability": "nonpayable",
      "type": "function"
    },
    {
      "inputs": [
        {
          "internalType": "address",
          "name": "winner",
          "type": "address"
        }
      ],
      "name": "mintToWinner",
      "outputs": [],
      "stateMutability": "nonpayable",
      "type": "function"
    },
    {
      "inputs": [],
      "name": "name",
      "outputs": [
        {
          "internalType": "string",
          "name": "",
          "type": "string"
        }
      ],
      "stateMutability": "view",
      "type": "function"
    },
    {
      "inputs": [],
      "name": "nativePrizeAmount",
      "outputs": [
        {
          "internalType": "uint256",
          "name": "",
          "type": "uint256"
        }
      ],
      "stateMutability": "view",
      "type": "function"
    },
    {
      "inputs": [
        {
          "internalType": "address",
          "name": "",
          "type": "address"
        },
        {
          "internalType": "address",
          "name": "",
          "type": "address"
        },
        {
          "internalType": "uint256[]",
          "name": "",
          "type": "uint256[]"
        },
        {
          "internalType": "uint256[]",
          "name": "",
          "type": "uint256[]"
        },
        {
          "internalType": "bytes",
          "name": "",
          "type": "bytes"
        }
      ],
      "name": "onERC1155BatchReceived",
      "outputs": [
        {
          "internalType": "bytes4",
          "name": "",
          "type": "bytes4"
        }
      ],
      "stateMutability": "pure",
      "type": "function"
    },
    {
      "inputs": [
        {
          "internalType": "address",
          "name": "",
          "type": "address"
        },
        {
          "internalType": "address",
          "name": "",
          "type": "address"
        },
        {
          "internalType": "uint256",
          "name": "",
          "type": "uint256"
        },
        {
          "internalType": "uint256",
          "name": "",
          "type": "uint256"
        },
        {
          "internalType": "bytes",
          "name": "",
          "type": "bytes"
        }
      ],
      "name": "onERC1155Received",
      "outputs": [
        {
          "internalType": "bytes4",
          "name": "",
          "type": "bytes4"
        }
      ],
      "stateMutability": "pure",
      "type": "function"
    },
    {
      "inputs": [
        {
          "internalType": "address",
          "name": "",
          "type": "address"
        },
        {
          "internalType": "address",
          "name": "",
          "type": "address"
        },
        {
          "internalType": "uint256",
          "name": "",
          "type": "uint256"
        },
        {
          "internalType": "bytes",
          "name": "",
          "type": "bytes"
        }
      ],
      "name": "onERC721Received",
      "outputs": [
        {
          "internalType": "bytes4",
          "name": "",
          "type": "bytes4"
        }
      ],
      "stateMutability": "pure",
      "type": "function"
    },
    {
      "inputs": [],
      "name": "owner",
      "outputs": [
        {
          "internalType": "address",
          "name": "",
          "type": "address"
        }
      ],
      "stateMutability": "view",
      "type": "function"
    },
    {
      "inputs": [
        {
          "internalType": "uint256",
          "name": "",
          "type": "uint256"
        }
      ],
      "name": "participants",
      "outputs": [
        {
          "internalType": "address",
          "name": "",
          "type": "address"
        }
      ],
      "stateMutability": "view",
      "type": "function"
    },
    {
      "inputs": [],
      "name": "paused",
      "outputs": [
        {
          "internalType": "bool",
          "name": "",
          "type": "bool"
        }
      ],
      "stateMutability": "view",
      "type": "function"
    },
    {
      "inputs": [],
      "name": "pendingProtocolFee",
      "outputs": [
        {
          "internalType": "uint256",
          "name": "",
          "type": "uint256"
        }
      ],
      "stateMutability": "view",
      "type": "function"
    },
    {
      "inputs": [],
      "name": "poolSubscriptionId",
      "outputs": [
        {
          "internalType": "uint256",
          "name": "",
          "type": "uint256"
        }
      ],
      "stateMutability": "view",
      "type": "function"
    },
    {
      "inputs": [
        {
          "internalType": "address",
          "name": "participant",
          "type": "address"
        }
      ],
      "name": "prizeClaimed",
      "outputs": [
        {
          "internalType": "uint256",
          "name": "",
          "type": "uint256"
        }
      ],
      "stateMutability": "view",
      "type": "function"
    },
    {
      "inputs": [],
      "name": "prizeCollection",
      "outputs": [
        {
          "internalType": "address",
          "name": "",
          "type": "address"
        }
      ],
      "stateMutability": "view",
      "type": "function"
    },
    {
      "inputs": [],
      "name": "prizeTokenId",
      "outputs": [
        {
          "internalType": "uint256",
          "name": "",
          "type": "uint256"
        }
      ],
      "stateMutability": "view",
      "type": "function"
    },
    {
      "inputs": [],
      "name": "prizesClaimedCount",
      "outputs": [
        {
          "internalType": "uint256",
          "name": "",
          "type": "uint256"
        }
      ],
      "stateMutability": "view",
      "type": "function"
    },
    {
      "inputs": [],
      "name": "protocolFeePercentage",
      "outputs": [
        {
          "internalType": "uint256",
          "name": "",
          "type": "uint256"
        }
      ],
      "stateMutability": "view",
      "type": "function"
    },
    {
      "inputs": [],
      "name": "protocolFeeTaken",
      "outputs": [
        {
          "internalType": "bool",
          "name": "",
          "type": "bool"
        }
      ],
      "stateMutability": "view",
      "type": "function"
    },
    {
      "inputs": [
        {
          "internalType": "uint256",
          "name": "quantity",
          "type": "uint256"
        },
        {
          "internalType": "uint256",
          "name": "_deadline",
          "type": "uint256"
        },
        {
          "internalType": "bytes",
          "name": "_signature",
          "type": "bytes"
        },
        {
          "internalType": "uint256[]",
          "name": "_tokenIds",
          "type": "uint256[]"
        }
      ],
      "name": "purchaseSlots",
      "outputs": [],
      "stateMutability": "payable",
      "type": "function"
    },
    {
      "inputs": [],
      "name": "randomRequested",
      "outputs": [
        {
          "internalType": "bool",
          "name": "",
          "type": "bool"
        }
      ],
      "stateMutability": "view",
      "type": "function"
    },
    {
      "inputs": [],
      "name": "randomSeed",
      "outputs": [
        {
          "internalType": "uint256",
          "name": "",
          "type": "uint256"
        }
      ],
      "stateMutability": "view",
      "type": "function"
    },
    {
      "inputs": [],
      "name": "randomnessUsed",
      "outputs": [
        {
          "internalType": "bool",
          "name": "",
          "type": "bool"
        }
      ],
      "stateMutability": "view",
      "type": "function"
    },
    {
      "inputs": [
        {
          "internalType": "uint256",
          "name": "requestId",
          "type": "uint256"
        },
        {
          "internalType": "uint256[]",
          "name": "randomWords",
          "type": "uint256[]"
        }
      ],
      "name": "rawFulfillRandomWords",
      "outputs": [],
      "stateMutability": "nonpayable",
      "type": "function"
    },
    {
      "inputs": [
        {
          "internalType": "address",
          "name": "",
          "type": "address"
        }
      ],
      "name": "refundableAmount",
      "outputs": [
        {
          "internalType": "uint256",
          "name": "",
          "type": "uint256"
        }
      ],
      "stateMutability": "view",
      "type": "function"
    },
    {
      "inputs": [
        {
          "internalType": "address",
          "name": "",
          "type": "address"
        }
      ],
      "name": "refundedNonWinningSlots",
      "outputs": [
        {
          "internalType": "uint256",
          "name": "",
          "type": "uint256"
        }
      ],
      "stateMutability": "view",
      "type": "function"
    },
    {
      "inputs": [],
      "name": "removeFromVRFSubscription",
      "outputs": [],
      "stateMutability": "nonpayable",
      "type": "function"
    },
    {
      "inputs": [],
      "name": "renounceOwnership",
      "outputs": [],
      "stateMutability": "nonpayable",
      "type": "function"
    },
    {
      "inputs": [],
      "name": "requestRandomness",
      "outputs": [],
      "stateMutability": "nonpayable",
      "type": "function"
    },
    {
      "inputs": [],
      "name": "revenueRecipient",
      "outputs": [
        {
          "internalType": "address",
          "name": "",
          "type": "address"
        }
      ],
      "stateMutability": "view",
      "type": "function"
    },
    {
      "inputs": [],
      "name": "s_vrf_lastRequestId",
      "outputs": [
        {
          "internalType": "uint256",
          "name": "",
          "type": "uint256"
        }
      ],
      "stateMutability": "view",
      "type": "function"
    },
    {
      "inputs": [],
      "name": "shuffleStartIndex",
      "outputs": [
        {
          "internalType": "uint256",
          "name": "",
          "type": "uint256"
        }
      ],
      "stateMutability": "view",
      "type": "function"
    },
    {
      "inputs": [],
      "name": "slotFee",
      "outputs": [
        {
          "internalType": "uint256",
          "name": "",
          "type": "uint256"
        }
      ],
      "stateMutability": "view",
      "type": "function"
    },
    {
      "inputs": [],
      "name": "slotLimit",
      "outputs": [
        {
          "internalType": "uint256",
          "name": "",
          "type": "uint256"
        }
      ],
      "stateMutability": "view",
      "type": "function"
    },
    {
      "inputs": [
        {
          "internalType": "address",
          "name": "",
          "type": "address"
        }
      ],
      "name": "slotsPurchased",
      "outputs": [
        {
          "internalType": "uint256",
          "name": "",
          "type": "uint256"
        }
      ],
      "stateMutability": "view",
      "type": "function"
    },
    {
      "inputs": [],
      "name": "socialEngagementRequired",
      "outputs": [
        {
          "internalType": "bool",
          "name": "",
          "type": "bool"
        }
      ],
      "stateMutability": "view",
      "type": "function"
    },
    {
      "inputs": [],
      "name": "standard",
      "outputs": [
        {
          "internalType": "enum PrizeTypes.Standard",
          "name": "",
          "type": "uint8"
        }
      ],
      "stateMutability": "view",
      "type": "function"
    },
    {
      "inputs": [],
      "name": "startTime",
      "outputs": [
        {
          "internalType": "uint256",
          "name": "",
          "type": "uint256"
        }
      ],
      "stateMutability": "view",
      "type": "function"
    },
    {
      "inputs": [],
      "name": "state",
      "outputs": [
        {
          "internalType": "enum IPool.PoolState",
          "name": "",
          "type": "uint8"
        }
      ],
      "stateMutability": "view",
      "type": "function"
    },
    {
      "inputs": [
        {
          "internalType": "bytes4",
          "name": "interfaceId",
          "type": "bytes4"
        }
      ],
      "name": "supportsInterface",
      "outputs": [
        {
          "internalType": "bool",
          "name": "",
          "type": "bool"
        }
      ],
      "stateMutability": "view",
      "type": "function"
    },
    {
      "inputs": [
        {
          "internalType": "uint256",
          "name": "",
          "type": "uint256"
        }
      ],
      "name": "tokenIdClaimedBy",
      "outputs": [
        {
          "internalType": "address",
          "name": "",
          "type": "address"
        }
      ],
      "stateMutability": "view",
      "type": "function"
    },
    {
      "inputs": [],
      "name": "totalCreatorRevenue",
      "outputs": [
        {
          "internalType": "uint256",
          "name": "",
          "type": "uint256"
        }
      ],
      "stateMutability": "view",
      "type": "function"
    },
    {
      "inputs": [],
      "name": "totalGlobalFeeRevenue",
      "outputs": [
        {
          "internalType": "uint256",
          "name": "",
          "type": "uint256"
        }
      ],
      "stateMutability": "view",
      "type": "function"
    },
    {
      "inputs": [],
      "name": "totalRefundableAmount",
      "outputs": [
        {
          "internalType": "uint256",
          "name": "",
          "type": "uint256"
        }
      ],
      "stateMutability": "view",
      "type": "function"
    },
    {
      "inputs": [
        {
          "internalType": "address",
          "name": "newOwner",
          "type": "address"
        }
      ],
      "name": "transferOwnership",
      "outputs": [],
      "stateMutability": "nonpayable",
      "type": "function"
    },
    {
      "inputs": [],
      "name": "usesCustomFee",
      "outputs": [
        {
          "internalType": "bool",
          "name": "",
          "type": "bool"
        }
      ],
      "stateMutability": "view",
      "type": "function"
    },
    {
      "inputs": [],
      "name": "wasDeletedForFullRefund",
      "outputs": [
        {
          "internalType": "bool",
          "name": "",
          "type": "bool"
        }
      ],
      "stateMutability": "view",
      "type": "function"
    },
    {
      "inputs": [
        {
          "internalType": "uint256",
          "name": "",
          "type": "uint256"
        }
      ],
      "name": "winners",
      "outputs": [
        {
          "internalType": "address",
          "name": "",
          "type": "address"
        }
      ],
      "stateMutability": "view",
      "type": "function"
    },
    {
      "inputs": [],
      "name": "winnersCount",
      "outputs": [
        {
          "internalType": "uint256",
          "name": "",
          "type": "uint256"
        }
      ],
      "stateMutability": "view",
      "type": "function"
    },
    {
      "inputs": [],
      "name": "winnersSelected",
      "outputs": [
        {
          "internalType": "uint256",
          "name": "",
          "type": "uint256"
        }
      ],
      "stateMutability": "view",
      "type": "function"
    },
    {
      "inputs": [
        {
          "internalType": "address",
          "name": "",
          "type": "address"
        }
      ],
      "name": "winsPerAddress",
      "outputs": [
        {
          "internalType": "uint256",
          "name": "",
          "type": "uint256"
        }
      ],
      "stateMutability": "view",
      "type": "function"
    },
    {
      "inputs": [],
      "name": "withdrawCreatorRevenue",
      "outputs": [],
      "stateMutability": "nonpayable",
      "type": "function"
    },
    {
      "inputs": [],
      "name": "withdrawProtocolRevenue",
      "outputs": [],
      "stateMutability": "nonpayable",
      "type": "function"
    }
  ],
  "bytecode": "0x60a034620000bb57601f62005f7a38819003918201601f19168301916001600160401b03831184841017620000c057808492602094604052833981010312620000bb57516001600160a01b03908181168103620000bb576000543360018060a01b0319821617600055604051923391167f8be0079c531659141344cd1fd0a4f28419497f9722a3daafe3b4186f6b6457e0600080a36001805560ff1960025416600255608052615ea39081620000d78239608051816131a90152f35b600080fd5b634e487b7160e01b600052604160045260246000fdfe608080604052600436101561001357600080fd5b600090813560e01c90816301ffc9a714613e405750806302d05d3f14613e175780630631c5c214613df957806306f1305614613ddb57806306fdde0314613d085780630852197414612dd05780630aa00e7014613cea5780630b747d9114613ccc5780630b78824b14613cae5780630e4fa15814613c885780630fb5a6b414613c6a5780631249c58b146138e8578063128f4ba4146138ca578063150b7a02146138735780631af0a06414612ee75780631fe543e314612e0957806325444fa414612dd0578063262f5cf114612a1d5780632c1fecfe146129f75780633197cbb6146129d9578063321679fa146129bb578063327bb1ad1461292157806335c1d349146128dd5780633b26314d146128b457806340021434146124e457806342b72afa146124ab57806344a909861461248d57806348a3a4501461246757806349713811146124495780634e3ff4601461240a5780634f7f0fc0146123cb5780635755248e146123ad5780635a3b7e42146123875780635c975abb146123645780635f369a32146118a857806366805de51461188f578063677375c314611871578063683d19361461184e578063696917ba146118285780636e61a1601461180257806370740ac9146117c3578063715018a614611769578063740e21981461173d57806378e979251461171f578063813e88b914611701578063837d1128146116dc57806387213c35146116b65780638778d82c1461168d578063888dc1981461166f578063898b36db146116515780638bc53285146116335780638bfbbcbe1461161a5780638d7fe478146115f45780638da5cb5b146115cd5780638e50e509146115b05780639ed5c1cc14611587578063a177ec091461155a578063a2fb1175146114fe578063a67d0e6c146114e0578063a9532a531461140a578063ae4b82c1146113e0578063aebc4550146113b3578063af78ed0a14611395578063b0b606c014611362578063b5545a3c14610ebe578063b5ad841214610c05578063bc197c8114610b79578063c19d93fb14610b36578063c2e784bd14610b18578063c3fa0e3b14610afa578063cabfaa1814610adc578063cc7d49ec14610ab6578063d0704cbd14610a90578063d0d11ae814610a72578063d17d135914610a39578063d447e9bc1461099e578063d91043f214610a1b578063dbb832bd146109f5578063dc52834e146109d7578063dc8a55c21461099e578063e511a11b14610965578063e6f12cf714610947578063f23a6e61146108f0578063f2fde38b14610862578063f8413b0714610602578063fb687df4146105d95763fd22b17c146103de57600080fd5b346105d657806003193601126105d65780546040516336b87bd760e11b8152336004820152602492916020908290859082906001600160a01b03165afa9081156105cb57829161059d575b501561058b578060155460ff90818160381c1680610580575b61051b575b818160201c161580610510575b610474575b505080919250156104705761046d90615a11565b80f35b5080fd5b818160581c166000146104f85760601c1660088110156104e557600603610470575b602554906107d0938483029483860414831517156104d357506104c26127106104ca94950480936147f2565b602555614198565b81903880610459565b634e487b7160e01b8452601160045283fd5b5050634e487b7160e01b81526021600452fd5b60601c1660088110156104e557600414610496575080fd5b506025541515610454565b9150808260581c1660001461056657808260601c1660088110156105525760060361054e575b602b549183602b55610447565b8280fd5b5050634e487b7160e01b8252506021600452fd5b808260601c16600881101561055257600414610541578280fd5b50602b541515610442565b6040516327e1f1e560e01b8152600490fd5b6105be915060203d81116105c4575b6105b68183613f18565b810190614598565b38610429565b503d6105ac565b6040513d84823e3d90fd5b80fd5b50346105d657806003193601126105d657600b546040516001600160a01b039091168152602090f35b50346105d657806003193601126105d657600754421015610855575b600754421061062d8115614224565b60155460ff8160601c1660088110156108415760028114908115610836575b5080610829575b156107c6576016546009541161076a57601b54159182610705575b50600c546001600160a01b0316331480156106f0575b156106b35760ff6106999160481c1615614281565b6106a6575b61046d6151b9565b6106ae615975565b61069e565b60405162461bcd60e51b815260206004820152601560248201527410d85b1b195c881b9bdd08185d5d1a1bdc9a5e9959605a1b6044820152606490fd5b50338352601860205260408320541515610684565b61070f573861066e565b60405162461bcd60e51b815260206004820152602d60248201527f506f6f6c20656e642074696d65206e6f74207265616368656420666f7220696e60448201526c1a5d1a585b081c995c5d595cdd609a1b6064820152608490fd5b60405162461bcd60e51b815260206004820152602e60248201527f496e73756666696369656e74207061727469636970616e747320666f7220776960448201526d373732b91039b2b632b1ba34b7b760911b6064820152608490fd5b60405162461bcd60e51b815260206004820152603560248201527f4d75737420626520696e20456e6465642f44726177696e6720737461746520776044820152746974682077696e6e6572732072656d61696e696e6760581b6064820152608490fd5b50601b5460095411610653565b60039150143861064c565b634e487b7160e01b84526021600452602484fd5b61085d6155ef565b61061e565b50346105d65760203660031901126105d65761087c613f79565b61088461409e565b6001600160a01b0381161561089c5761046d906140f6565b60405162461bcd60e51b815260206004820152602660248201527f4f776e61626c653a206e6577206f776e657220697320746865207a65726f206160448201526564647265737360d01b6064820152608490fd5b50346105d65760a03660031901126105d65761090a613f79565b50610913613f8f565b506084356001600160401b03811161047057610933903690600401613fb9565b505060405163f23a6e6160e01b8152602090f35b50346105d657806003193601126105d6576020602554604051908152f35b50346105d65760203660031901126105d6576020906040906001600160a01b0361098d613f79565b168152602a83522054604051908152f35b50346105d65760203660031901126105d6576020906040906001600160a01b036109c6613f79565b168152601383522054604051908152f35b50346105d657806003193601126105d6576020600d54604051908152f35b50346105d657806003193601126105d657602060ff60155460381c166040519015158152f35b50346105d657806003193601126105d6576020602154604051908152f35b50346105d65760203660031901126105d6576020906040906001600160a01b03610a61613f79565b168152601283522054604051908152f35b50346105d657806003193601126105d6576020602954604051908152f35b50346105d657806003193601126105d657602060ff60155460581c166040519015158152f35b50346105d657806003193601126105d657602060ff60155460301c166040519015158152f35b50346105d657806003193601126105d6576020601654604051908152f35b50346105d657806003193601126105d6576020602b54604051908152f35b50346105d657806003193601126105d6576020600454604051908152f35b50346105d657806003193601126105d65760ff60155460601c16604051906008811015610b6557602092508152f35b634e487b7160e01b83526021600452602483fd5b50346105d65760a03660031901126105d657610b93613f79565b50610b9c613f8f565b506001600160401b0360443581811161054e57610bbd90369060040161400e565b505060643581811161054e57610bd790369060040161400e565b505060843590811161047057610bf1903690600401613fb9565b505060405163bc197c8160e01b8152602090f35b50346105d657806003193601126105d657610c1e6141ce565b601f546001600160a01b039081169033829003610e8a5760155460ff8160601c16906008821015610e765760058214610e725760078214610e725760581c60ff1615610e1c57600603610de1575b82602354928315610470578180610ca5958193610c99612710610c91602154856141bb565b0480936147f2565b97889284602355615a11565b5af1610caf614387565b5015610d9057602460208285541660405192838092630425172560e31b82523060048301525afa908115610d85578491610d2f575b507f86a5cc8fe9af9ae68fb50f62885307a7755a30cbd290131644377f0bd94a718191602091610d22575b601f541692604051908152a26001805580f35b610d2a615918565b610d0f565b90506020813d8211610d7d575b81610d4960209383613f18565b81010312610d7857517f86a5cc8fe9af9ae68fb50f62885307a7755a30cbd290131644377f0bd94a7181610ce4565b600080fd5b3d9150610d3c565b6040513d86823e3d90fd5b60405162461bcd60e51b8152602060048201526024808201527f5472616e7366657220746f20726576656e756520726563697069656e742066616044820152631a5b195960e21b6064820152608490fd5b60405162461bcd60e51b815260206004820152601360248201527210d85b9b9bdd081dda5d1a191c985dc81e595d606a1b6044820152606490fd5b60048114908115610e67575b50610c6c5760405162461bcd60e51b8152602060048201526012602482015271141bdbdb081b9bdd0818dbdb5c1b195d195960721b6044820152606490fd5b600691501438610e28565b8480fd5b634e487b7160e01b85526021600452602485fd5b60405162461bcd60e51b815260206004820152600c60248201526b155b985d5d1a1bdc9a5e995960a21b6044820152606490fd5b50346105d657806003193601126105d657610ed76141ce565b60155460ff90818160601c16600881101580610e7657600482148015611355575b818115611345575b8115611335575b50156112f057838360301c1660001461101d57505050338252602090602682528060408420541661054e576018825260408320541561054e57601554908082169182611011575b505015610fbd5733825260188152600080516020615e4e833981519152610f7c6040842054600a54906141bb565b913384526026815260408420600160ff19825416179055610fac8480808087335af1610fa6614387565b5061483b565b6040519283523392a25b6001805580f35b6084906040519062461bcd60e51b82526004820152602760248201527f526566756e6473206e6f7420706f737369626c6520666f72207468697320706f6044820152666f6c207479706560c81b6064820152fd5b831c1690503880610f4e565b610841576007036110e957503382526026602052806040832054166104705760186020526040822054801561054e57600a54611058916141bb565b9060155460201c166000146110c95760235481811061054e578161107b916147f2565b6023555b338252602660205260408220600160ff198254161790556110a98280808085335af1610fa6614387565b604051908152600080516020615e4e83398151915260203392a25b610fb6565b6110e1816025546110dc828210156147af565b6147f2565b60255561107f565b90808216806112e4575b806112d8575b806112cd575b156111f9575050338152602060188152604082205460128252604083205490602a8352604084205490828111806111e7575b15610e7257611143926110dc916147f2565b600a54825490612710918203908282116111d35761116c9291611165916141bb565b04826141bb565b9160245491828411610e725761119184600080516020615e4e833981519152946147f2565b602455338552602a82526111aa60408620918254614198565b90556111c58480808087335af16111bf614387565b506147ff565b6040519283523392a2610fb6565b634e487b7160e01b86526011600452602486fd5b506111f283826147f2565b8210611131565b80602092831c161561120d575b5050610fb6565b3383526018825260408320541561054e576026825260408320541661047057601881526112416040832054600a54906141bb565b611f40908181029181830414901517156112b957612710600080516020615e4e83398151915291049161127d836025546110dc828210156147af565b6025553384526026815260408420600160ff198254161790556112a98480808087335af16111bf614387565b6040519283523392a23880611206565b634e487b7160e01b83526011600452602483fd5b5060245415156110ff565b50808260281c166110f9565b50808260201c166110f3565b60405162461bcd60e51b815260206004820152601e60248201527f506f6f6c206e6f7420696e206120726566756e6461626c6520737461746500006044820152606490fd5b9050610e76576007821481610f07565b9050610e76576005821481610f00565b5050600060068214610ef8565b50346105d65760203660031901126105d6576020906004358152602f8252604060018060a01b0391205416604051908152f35b50346105d657806003193601126105d6576020602354604051908152f35b50346105d657806003193601126105d65760025460405160089190911c6001600160a01b03168152602090f35b50346105d65760203660031901126105d65760406020916004358152601d83522054604051908152f35b50346105d657806003193601126105d65760ff60155460601c1660088110159081610b6557600481149182156114d2575b82156114c1575b821561149c575b5050156114585761046d615918565b606460405162461bcd60e51b815260206004820152602060248201527f506f6f6c206d75737420626520696e2061207465726d696e616c2073746174656044820152fd5b9091506114ad576006143880611449565b634e487b7160e01b82526021600452602482fd5b809250610b65576005811491611442565b50600781149150600061143b565b50346105d657806003193601126105d6576020600a54604051908152f35b50346105d65760203660031901126105d6576004356017548110156104705760176000527fc624b66cc0138b8fabc209247f72d758e1cf3343756d543badbf24212bed8c1501546040516001600160a01b039091168152602090f35b50346105d657806003193601126105d65761158360ff602c5460a01c1660405191829182614075565b0390f35b50346105d657806003193601126105d6576027546040516001600160a01b039091168152602090f35b50346105d657806003193601126105d65760208054604051908152f35b50346105d657806003193601126105d657546040516001600160a01b039091168152602090f35b50346105d657806003193601126105d657602060ff60155460481c166040519015158152f35b50346105d657806003193601126105d65761046d614dfb565b50346105d657806003193601126105d6576020601b54604051908152f35b50346105d657806003193601126105d6576020600e54604051908152f35b50346105d657806003193601126105d6576020601454604051908152f35b50346105d657806003193601126105d657602c546040516001600160a01b039091168152602090f35b50346105d657806003193601126105d657602060ff60155460401c166040519015158152f35b50346105d657806003193601126105d657602060155460ff60405191831c1615158152f35b50346105d657806003193601126105d6576020601154604051908152f35b50346105d657806003193601126105d6576020600654604051908152f35b50346105d65760203660031901126105d657602061176161175c613f79565b614880565b604051908152f35b50346105d657806003193601126105d65761178261409e565b600080546001600160a01b0319811682556001600160a01b03167f8be0079c531659141344cd1fd0a4f28419497f9722a3daafe3b4186f6b6457e08280a380f35b50346105d657806003193601126105d6576117dc6141ce565b60ff60155460601c1660088110156114ad5760046117fa911461453c565b610fb66145b0565b50346105d657806003193601126105d657602060ff60155460081c166040519015158152f35b50346105d657806003193601126105d657602060ff60155460101c166040519015158152f35b50346105d657806003193601126105d657602060ff601554166040519015158152f35b50346105d657806003193601126105d6576020602454604051908152f35b50346105d657806003193601126105d65761046d614b6d565b5060803660031901126105d6576001600160401b0360443581811161054e576118d5903690600401613fb9565b9160643590811161213f576118ee90369060040161400e565b9190926118f96141ce565b60155460ff8160601c1660088110156122fc5715612321575b503332036123105760155460ff8160601c1660088110156122fc576001036122ea5733156122d857600435156122c657600a5480156122b45761195890600435906141bb565b34036122a25760075442101561229057611976600435601654614198565b600e541061227e57600654421061226c57338652601860205261199f6004356040882054614198565b600d541061225a5760ff81161580612224575b612212578554604051638da5cb5b60e01b81526001600160a01b039091169190602081600481865afa9081156122075788916121c9575b506001600160a01b031633146121b757600c546001600160a01b031633146121a65760401c60ff168061218f575b61206b575b5050602c546001600160a01b038116915081611b2e575b505050503381526018602052604081206004358154019055805b6004358110611ad0575060155460201c60ff16611ac35734602554016025555b601654600e5414611aae575b60405160043581527ffd1903a7f9f31de6cf38a88eda98ae029aeba3b2ec48a599d7c0d900f0f335cb60203392a26001805580f35b611ab6615975565b611abe6151b9565b611a79565b3460235401602355611a6d565b60165490600160401b821015611b1857611b12611af483600180950160165561403e565b81546001600160a01b0360039290921b91821b19163390911b179055565b01611a4d565b634e487b7160e01b600052604160045260246000fd5b60a01c60ff166004811015610e765780611f5c5750508015611f2257602d5460018103611cbc5750600111611c6057356024602060018060a01b03602c5416604051928380926331a9108f60e11b82528660048301525afa8015611c55578390611c1a575b611ba891506001600160a01b0316331461510f565b808252602f6020526040822054611bd2906001600160a01b03168015908115611c10575b5061515b565b8152602f6020526040812080546001600160a01b03811615611bfb575b50505b38808080611a33565b6001600160a01b031916331790553880611bef565b9050331438611bcc565b506020813d602011611c4d575b81611c3460209383613f18565b8101031261054e57611c48611ba89161413d565b611b93565b3d9150611c27565b6040513d85823e3d90fd5b60405162461bcd60e51b815260206004820152602e60248201527f546f6b656e20494420726571756972656420666f722073696e676c6520746f6b60448201526d195b881c995c5d5a5c995b595b9d60921b6064820152608490fd5b6001811115611ed357808210611e8e57835b818110611dfc575050825b602d54811015611df45780611cf160249284866150ff565b35602060018060a01b03602c5416604051948580926331a9108f60e11b82528560048301525afa928315611de9578693611da4575b50611d8a92611d3f906001600160a01b0316331461510f565b808652602f9081602052611d6860018060a01b036040892054168015908115611c10575061515b565b86526020526040852080546001600160a01b03811615611d8f575b50506150f0565b611cd9565b6001600160a01b031916331790553880611d83565b92506020833d602011611de1575b81611dbf60209383613f18565b81010312611ddd57611d3f611dd6611d8a9461413d565b9350611d26565b8580fd5b3d9150611db2565b6040513d88823e3d90fd5b505050611bf2565b600181018082116111d3575b828110611e1e5750611e19906150f0565b611cce565b611e298285876150ff565b35611e358286886150ff565b3514611e4957611e44906150f0565b611e08565b60405162461bcd60e51b815260206004820152601f60248201527f4475706c696361746520746f6b656e20494473206e6f7420616c6c6f776564006044820152606490fd5b60405162461bcd60e51b815260206004820152601f60248201527f496e73756666696369656e7420746f6b656e204944732070726f7669646564006044820152606490fd5b60405162461bcd60e51b815260206004820152602160248201527f496e76616c696420746f6b656e2062616c616e636520726571756972656d656e6044820152601d60fa1b6064820152608490fd5b60405162461bcd60e51b8152602060048201526012602482015271151bdad95b8812511cc81c995c5d5a5c995960721b6044820152606490fd5b909250905060018103611fe95750602e54604051627eeac760e11b8152336004820152602481019190915290602090829060449082905afa80156105cb578290611fb5575b611fb09150602d541115615099565b611bf2565b506020813d602011611fe1575b81611fcf60209383613f18565b81010312610d7857611fb09051611fa1565b3d9150611fc2565b600214611ff7575b50611bf2565b6020602491604051928380926370a0823160e01b82523360048301525afa80156105cb578290612037575b6120319150602d541115615099565b38611ff1565b506020813d602011612063575b8161205160209383613f18565b81010312610d78576120319051612022565b3d9150612044565b602060049160405192838092636b90bda960e01b82525afa908115611de9578691612155575b506001600160a01b03168015612143578592813b1561213f57839183918360a46040518097819682956324fa7e3f60e21b8452336004850152306024850152602435604485015260806064850152816084850152848401378181018301849052601f01601f191681010301925af180156105cb5761212b575b5050338352603060205260408320805460ff19166001179055388080611a1c565b61213490613ecf565b61054e57823861210a565b8380fd5b6040516343361aaf60e01b8152600490fd5b90506020813d602011612187575b8161217060209383613f18565b81010312611ddd576121819061413d565b38612091565b3d9150612163565b50338652603060205260ff60408720541615611a17565b60405162ca6a8360e51b8152600490fd5b604051635f2a002d60e11b8152600490fd5b90506020813d6020116121ff575b816121e460209383613f18565b810103126121fb576121f59061413d565b386119e9565b8780fd5b3d91506121d7565b6040513d8a823e3d90fd5b604051631274fa9d60e31b8152600490fd5b5060ff8160201c16801561224d575b806119b257503386526018602052604086205415156119b2565b5060016004351415612233565b604051637145fa7b60e01b8152600490fd5b604051633d8c21b360e01b8152600490fd5b6040516302edeeb760e31b8152600490fd5b60405163fd2a413d60e01b8152600490fd5b60405163569e8c1160e01b8152600490fd5b60405163d2100d7360e01b8152600490fd5b60405163f4f5b73360e01b8152600490fd5b60405163d92e233d60e01b8152600490fd5b6040516338c0a90160e11b8152600490fd5b634e487b7160e01b87526021600452602487fd5b60405162c44f5760e51b8152600490fd5b60065442106119125760ff60601b1916600160601b176015557f3d31b97eef590df350bb2cdbc390034c613c9f23ea6ae1906682628c85248b538580a138611912565b50346105d657806003193601126105d657602060ff600254166040519015158152f35b50346105d657806003193601126105d65761158360ff600f541660405191829182614075565b50346105d657806003193601126105d6576020602d54604051908152f35b50346105d65760203660031901126105d65760209060ff906040906001600160a01b036123f6613f79565b168152602684522054166040519015158152f35b50346105d65760203660031901126105d65760209060ff906040906001600160a01b03612435613f79565b168152603084522054166040519015158152f35b50346105d657806003193601126105d6576020600954604051908152f35b50346105d657806003193601126105d657602060ff60155460501c166040519015158152f35b50346105d657806003193601126105d6576020601c54604051908152f35b50346105d65760203660031901126105d6576020906040906001600160a01b036124d3613f79565b168152602283522054604051908152f35b50346105d657602080600319360112610470576004359030330361287f57601e548352601d815281604084205561251c601e546150f0565b601e55601c5490601a5460165493612533846142cd565b906125416040519283613f18565b84825261254d856142cd565b8285019390601f1901368537875b86811061277c57505050855b8481106126e8575061259e6015549469ff00000000000000000019861660155561259381601a54614198565b601a55601b54614198565b9182601b55604051918483019085845251809152604083019190885b868282106126cb575050505090807f32a1b5731a757f192a06ca973715ca4dbc42c2d15323cabaa74e0a2d5dc088e4920390a160095490811161262a5763ff0000ff60481b198316600160621b17601581905560ff841690816126be575b816126af575b816126a0575b50612631575b5050505080f35b61266361265b612652612710936c04000000000100000000000000976147f2565b600a54906141bb565b9254836141bb565b0461267a61267182846147f2565b926023546147f2565b602355602b556024556cff0000ff00ff000000000000001916176015553880808061262a565b60ff915060381c161538612624565b905060ff8160281c169061261e565b80841c60ff169150612618565b83516001600160a01b0316855293840193909201916001016125ba565b6001600160a01b036126fa82846142e4565b5116906017918254600160401b811015611b18576001810180855581101561276657612761936000527fc624b66cc0138b8fabc209247f72d758e1cf3343756d543badbf24212bed8c1501906bffffffffffffffffffffffff60a01b8254161790556150f0565b612567565b634e487b7160e01b600052603260045260246000fd5b61278a816110dc848b6147f2565b60405187810190858252836040820152604081526127a781613efd565b519020906127b58385614198565b91811561286b576127d3612866949361281b9361283a930690614198565b6127dc8161403e565b9054600391821b1c6001600160a01b039081169491856127fc888d6142e4565b5261280f61280a888b614198565b61403e565b9054911b1c169161403e565b90919082549060031b9160018060a01b03809116831b921b1916179055565b61284b8161281b61280a8588614198565b8a526012875260408a2061285f81546150f0565b90556150f0565b61255b565b634e487b7160e01b8c52601260045260248cfd5b6064906040519062461bcd60e51b82526004820152600e60248201526d13db9b1e481cd95b198b58d85b1b60921b6044820152fd5b50346105d657806003193601126105d657601f546040516001600160a01b039091168152602090f35b50346105d65760203660031901126105d657600435906016548210156105d65760206129088361403e565b905460405160039290921b1c6001600160a01b03168152f35b50346105d657806003193601126105d6578054600b54604051635aa35d2560e11b81526001600160a01b0391821615156004820152929160209184916024918391165afa9081156129af579061297d575b602090604051908152f35b506020813d82116129a7575b8161299660209383613f18565b81010312610d785760209051612972565b3d9150612989565b604051903d90823e3d90fd5b50346105d657806003193601126105d6576020602854604051908152f35b50346105d657806003193601126105d6576020600754604051908152f35b50346105d657806003193601126105d657602060ff60155460281c166040519015158152f35b50346105d65760208060031936011261047057612a38613f79565b612a406141ce565b6015549160ff8360601c166008811015610e7657600403612dbe5760ff600f54169160018060a01b0380600b54169481600c54163303612c58575b508415612c4657811693848652601283526040862054938415612c345785875260138452604087205494858103958114612c225786885260138552604088205560048110156122fc578692919080612b605750803b1561054e576040516340c10f1960e01b81526001600160a01b039290921660048301526024820185905282908290604490829084905af180156105cb57612b4c575b5050612b3e7f95681e512bc0fe659e195e06c283eada494316f3d801213e48e7101af92bf77092615d4d565b604051848152a26001805580f35b612b5590613ecf565b61213f578338612b12565b91925090600103612c10578591846011540260105492803b15610e7257604051630ab714fb60e11b81526001600160a01b03939093166004840152602483019390935260448201529082908290606490829084905af180156105cb57612bfc575b5050612bed7f95681e512bc0fe659e195e06c283eada494316f3d801213e48e7101af92bf77092615d4d565b601054604051908152a2610fb6565b612c0590613ecf565b61213f578338612bc1565b60405163fd34e50560e01b8152600490fd5b604051630ccaf35d60e41b8152600490fd5b6040516358cd4fc160e11b8152600490fd5b60405163424ca23960e01b8152600490fd5b60248483895416604051928380926336b87bd760e11b82523360048301525afa908115612207578891612da1575b50612a7b5760181c60ff1615612cdc578560048510156122fc57819085612d35575050604051638da5cb5b60e01b81528381600481895afa8015612d2a5782918891612cee575b505b163303612cdc5738612a7b565b604051635c427cd960e01b8152600490fd5b809250858092503d8311612d23575b612d078183613f18565b81010312612d1f57612d19829161413d565b38612ccd565b8680fd5b503d612cfd565b6040513d89823e3d90fd5b60018603612ccf575050604051638da5cb5b60e01b81528381600481895afa8015612d2a5782918891612d69575b50612ccf565b809250858092503d8311612d9a575b612d828183613f18565b81010312612d1f57612d94829161413d565b38612d63565b503d612d78565b612db89150853d87116105c4576105b68183613f18565b38612c86565b604051631a1889b760e01b8152600490fd5b50346105d65760203660031901126105d6576020906040906001600160a01b03612df8613f79565b168152601883522054604051908152f35b50346105d65760403660031901126105d6576024356001600160401b03811161047057612e3a90369060040161400e565b60025460081c6001600160a01b03163303612ea257612e58816142cd565b91612e666040519384613f18565b8183526020918284019060051b820191368311611ddd57905b828210612e93578561046d866004356143b7565b81358152908301908301612e7f565b60405162461bcd60e51b815260206004820181905260248201527f4f6e6c792056524620436f6f7264696e61746f722063616e2066756c66696c6c6044820152606490fd5b506101c0906003198281360112610470576001600160401b0360043511610470578290600435360301126105d6576040519182018281106001600160401b03821117611b1857604052612f3e600435600401613fa5565b8252612f4e602460043501613fa5565b6020830152612f61604460043501613fa5565b6040830152606460043501356001600160401b038111610470576004350136602382011215610470576004810135612f9881613fe6565b91612fa66040519384613f18565b818352366024838301011161213f57818492602460209301838601378301015260608301526004356084810135608084015260a481013560a084015260c481013560c084015260e481013560e084015261010481013561010084015261012481013561012084015261301b9061014401614001565b61014083015261303061016460043501614001565b61016083015261304561018460043501614001565b61018083015261305a6101a460043501614001565b6101a08301526101003660231901126105d65760405191826101008101106001600160401b0361010085011117611b18576101008301604052600460243510156104705760243583526044356001600160a01b0381169003610d785760443560208401526064356040840152608435606084015260a4356001600160a01b0381169003610d785760a435608084015260c43560a084015260e43560c08401526101043515156101043503610d78576101043560e084015260803661012319011261047057604051928360808101106001600160401b03608086011117611b185760808401604052610124356001600160a01b0381168103610d78578452600461014435101561054e5761014435602085015261016435604085015261018435606085015260206101a31936011261054e576040519061319882613ee2565b6101a4358015158103610d785782527f00000000000000000000000000000000000000000000000000000000000000006001600160a01b0316330361213f5783546001600160a01b031661213f5782516001600160a01b03166131fa816140f6565b6020840151600c80546001600160a01b0319166001600160a01b039290921691909117905560405163ec644ddd60e01b815260a081600481855afa908115611de9578691613840575b50604051630425172560e31b8152306004820152602081602481865afa908115612d2a57879161380e575b5060035560028054610100600160a81b03191660089290921b610100600160a81b031691909117905560608401518051906001600160401b0382116137fa5781906132ba600554613e95565b601f8111613788575b50602090601f8311600114613712578892613707575b50508160011b916000199060031b1c1916176005555b61330a60808501518060065560a08601519081600855614198565b6007556101208401516009556101408401511515906015549060ff831660ff1983161760155560e0860151600a55610100860151600d55604051631a35245160e31b8152604081600481855afa801561220757889189916136ce575b506021556020908155840151600b80546001600160a01b0319166001600160a01b0392831617905560c0870151600e558851168061366e575b506040860151969750949593946004946001600160a01b0316801561365a575b601f80546001600160a01b039283166001600160a01b03199182161790915560808601516027805491909316911617905560a084015160285560c08401516029556101a087015160ff60581b90151560581b1660ff84166bff00000000000000000000ff198416178117601555604051636f6f8c5d60e01b8152959091602091879182905afa948515612207578895613626575b5060c08401511561354c575050505060e08301510361054e57600360ff19600f541617600f556201000062ff00001960155416176015555b60155460ff81168061353f575b15613502575060016009541165ff00000000006015549160281b169065ff00000000001916176015555b5115159068ff000000000000000063ff000000610160601554930151151560181b169260401b16906cff000000ff00000000ff0000001916171760155580f35b60ff8160201c161560001461352e57506501000000000065ff00000000001960155416176015556134c2565b65ff000000000019166015556134c2565b5060ff8160201c16613498565b60808401516001600160a01b031615613590575050505060e08301510361054e57600260ff19600f541617600f556201000062ff000019601554161760155561348b565b602084015193945091929091906001600160a01b03166135b4575b5050505061348b565b62ff00009060e085015115159260ff64ff000000006101808a0151151560201b169516906bff000000000000ff00ff00ff191617179160101b16171760155580516004811015610e76579060609160ff8019600f5416911617600f5560408101516010550151601155388080806135ab565b9094506020813d602011613652575b8161364260209383613f18565b81010312610d7857519338613453565b3d9150613635565b5060208701516001600160a01b03166133bf565b602c549060208a015160048110156136ba576001600160a81b03199092161760a09190911b60ff60a01b1617602c556040880151602d55606090970151602e559495869590600461339f565b634e487b7160e01b8a52602160045260248afd5b9150506040813d6040116136ff575b816136ea60409383613f18565b810103126121fb576020815191015138613366565b3d91506136dd565b0151905038806132d9565b925060058852600080516020615dee8339815191529088935b601f198416851061376d576001945083601f19811610613754575b505050811b016005556132ef565b015160001960f88460031b161c19169055388080613746565b8181015183556020948501946001909301929091019061372b565b90915060058852601f830160051c600080516020615dee83398151915201602084106137e5575b908392915b601f820160051c600080516020615dee8339815191520181106137d757506132c3565b8981558493506001016137b4565b50600080516020615dee8339815191526137af565b634e487b7160e01b87526041600452602487fd5b90506020813d602011613838575b8161382960209383613f18565b81010312610d7857513861326e565b3d915061381c565b613862915060a03d60a01161386c575b61385a8183613f18565b810190614151565b5050505038613243565b503d613850565b50346105d65760803660031901126105d65761388d613f79565b50613896613f8f565b506064356001600160401b038111610470576138b6903690600401613fb9565b5050604051630a85bd0160e11b8152602090f35b50346105d657806003193601126105d6576020600354604051908152f35b50346105d657806003193601126105d6576139016141ce565b601560ff815460601c166008811015610b65576004613920911461453c565b613928615afc565b50600b546001600160a01b03168015612c465760ff835460101c16613c585760ff600f54166004811015610e765780613ad65750803b1561213f576040516340c10f1960e01b81523360048201526024810183905290849081908390604490829084905af19182613ac2575b5050613ab8575060016139a56142f8565b6308c379a014613a42575b6139bd575b506001805580f35b6139c5614387565b50604051600080516020615e0e833981519152339180613a0a8160609060208152601060208201526f131bddcb5b195d995b081c995d995c9d60821b60408201520190565b0390a2805466ff0000000000ff60301b1916660500000000000160301b179055600080516020615e2e8339815191528180a1386139b5565b613a4a614316565b80613a56575b506139b0565b90508290600080516020615e0e8339815191526040516020815280613a8033946020830190613f39565b0390a2815466ff0000000000ff60301b1916660500000000000160301b178255600080516020615e2e8339815191528380a138613a50565b6110c49150615d4d565b613acb90613ecf565b61213f578338613994565b600103613c58578360105491836011540290803b1561054e57604051630ab714fb60e11b8152336004820152602481019490945260448401919091528290606490829084905af19081613c45575b50613ab857506001613b346142f8565b6308c379a014613bcf575b613b4a575b50610fb6565b613b52614387565b50604051600080516020615e0e833981519152339180613b978160609060208152601060208201526f131bddcb5b195d995b081c995d995c9d60821b60408201520190565b0390a2805466ff0000000000ff60301b1916660500000000000160301b179055600080516020615e2e8339815191528180a138613b44565b613bd7614316565b80613be3575b50613b3f565b90508290600080516020615e0e8339815191526040516020815280613c0d33946020830190613f39565b0390a2815466ff0000000000ff60301b1916660500000000000160301b178255600080516020615e2e8339815191528380a138613bdd565b613c5190949194613ecf565b9238613b24565b604051631558dc5f60e31b8152600490fd5b50346105d657806003193601126105d6576020600854604051908152f35b50346105d657806003193601126105d657602060ff60155460181c166040519015158152f35b50346105d657806003193601126105d6576020601054604051908152f35b50346105d657806003193601126105d6576020601954604051908152f35b50346105d657806003193601126105d6576020602e54604051908152f35b50346105d657806003193601126105d6576040519080600554613d2a81613e95565b80855291600191808316908115613db15750600114613d68575b61158385613d5481870382613f18565b604051918291602083526020830190613f39565b925060058352600080516020615dee8339815191525b828410613d99575050508101602001613d5482611583613d44565b80546020858701810191909152909301928101613d7e565b86955061158396935060209250613d5494915060ff191682840152151560051b8201019293613d44565b50346105d657806003193601126105d6576020601e54604051908152f35b50346105d657806003193601126105d6576020601a54604051908152f35b50346105d657806003193601126105d657600c546040516001600160a01b039091168152602090f35b9050346104705760203660031901126104705760043563ffffffff60e01b811680910361054e5760209250630a85bd0160e11b8114908115613e84575b5015158152f35b630271189760e51b14905038613e7d565b90600182811c92168015613ec5575b6020831014613eaf57565b634e487b7160e01b600052602260045260246000fd5b91607f1691613ea4565b6001600160401b038111611b1857604052565b602081019081106001600160401b03821117611b1857604052565b606081019081106001600160401b03821117611b1857604052565b90601f801991011681019081106001600160401b03821117611b1857604052565b919082519283825260005b848110613f65575050826000602080949584010152601f8019910116010190565b602081830181015184830182015201613f44565b600435906001600160a01b0382168203610d7857565b602435906001600160a01b0382168203610d7857565b35906001600160a01b0382168203610d7857565b9181601f84011215610d78578235916001600160401b038311610d785760208381860195010111610d7857565b6001600160401b038111611b1857601f01601f191660200190565b35908115158203610d7857565b9181601f84011215610d78578235916001600160401b038311610d78576020808501948460051b010111610d7857565b6016548110156127665760166000527fd833147d7dc355ba459fc788f669e58cfaf9dc25ddcd0702e87d69c7b51242890190600090565b9190602083019260048210156140885752565b634e487b7160e01b600052602160045260246000fd5b6000546001600160a01b031633036140b257565b606460405162461bcd60e51b815260206004820152602060248201527f4f776e61626c653a2063616c6c6572206973206e6f7420746865206f776e65726044820152fd5b600080546001600160a01b039283166001600160a01b03198216811783559216907f8be0079c531659141344cd1fd0a4f28419497f9722a3daafe3b4186f6b6457e09080a3565b51906001600160a01b0382168203610d7857565b908160a0910312610d78576141658161413d565b91602082015191604081015191606082015163ffffffff81168103610d785760809092015161ffff81168103610d785790565b919082018092116141a557565b634e487b7160e01b600052601160045260246000fd5b818102929181159184041417156141a557565b6002600154146141df576002600155565b60405162461bcd60e51b815260206004820152601f60248201527f5265656e7472616e637947756172643a207265656e7472616e742063616c6c006044820152606490fd5b1561422b57565b60405162461bcd60e51b815260206004820152602860248201527f54696d657374616d702064656c61792069737375652c2074727920616761696e6044820152672073686f72746c7960c01b6064820152608490fd5b1561428857565b60405162461bcd60e51b815260206004820152601960248201527f5265717565737420616c726561647920696e20666c69676874000000000000006044820152606490fd5b6001600160401b038111611b185760051b60200190565b80518210156127665760209160051b010190565b60009060033d1161430557565b905060046000803e60005160e01c90565b600060443d1061437357604051600319913d83016004833e81516001600160401b03918282113d6024840111176143765781840194855193841161437e573d85010160208487010111614376575061437392910160200190613f18565b90565b949350505050565b50949350505050565b3d156143b2573d9061439882613fe6565b916143a66040519384613f18565b82523d6000602084013e565b606090565b6002546000919060081c6001600160a01b03163303612ea25760045403614525576015805460ff60501b1916600160501b178155825190929015614511576020015190303b156105d65760405191631000850d60e21b83526004830152808260248183305af19182614502575b50906144fe576001906144356142f8565b6308c379a01461448e575b50614449575b50565b7fbccec8509a79ecd26780c2699a3ca2503c3a3455b361b5fcda5760593edb03c9614475613d54614387565b0390a1805463ff0000ff60481b1916600160611b179055565b614496614316565b90816144a3575b50614440565b7fbcd905a8eb4cc473497e2cd24cf41334ea7fad80c354380f8fff04a025b1e5f89192506144e09092604051918291602083526020830190613f39565b0390a1815463ff0000ff60481b1916600160611b178255388061449d565b5050565b61450b90613ecf565b38614424565b634e487b7160e01b82526032600452602482fd5b50506015805460ff60601b1916600160611b179055565b1561454357565b60405162461bcd60e51b815260206004820152600d60248201526c496e76616c696420737461746560981b6044820152606490fd5b8115614582570490565b634e487b7160e01b600052601260045260246000fd5b90816020910312610d7857518015158103610d785790565b60ff60155460101c1615613c58576145c6615afc565b50602754600f54600b546009546001600160a01b039182169493909260ff1691168061470c5750600491828210156146f7576003821461469d5750831561468d5761467e57601054833b15610d7857604080516323b872dd60e01b815230938101938452336020850152908301919091529260009184919082908490829060600103925af19182156146725761466192614663575b50615d4d565b565b61466c90613ecf565b3861465b565b6040513d6000823e3d90fd5b604051631558dc5f60e31b8152fd5b5060405163424ca23960e01b8152fd5b8394506146b09150602993929354614578565b0280156146e757600080808093335af16146c8614387565b50156146d8575061466190615d4d565b60405163880a149160e01b8152fd5b50604051630193f71f60e51b8152fd5b602183634e487b7160e01b6000525260246000fd5b9293505061471d8391602854614578565b0290811561479d5760405163a9059cbb60e01b81523360048201526024810192909252602090829060449082906000905af19081156146725760009161477f575b501561476d5761466190615d4d565b60405163880a149160e01b8152600490fd5b614797915060203d81116105c4576105b68183613f18565b3861475e565b604051630193f71f60e51b8152600490fd5b156147b657565b60405162461bcd60e51b8152602060048201526014602482015273496e73756666696369656e742062616c616e636560601b6044820152606490fd5b919082039182116141a557565b1561480657565b60405162461bcd60e51b815260206004820152600d60248201526c1499599d5b990819985a5b1959609a1b6044820152606490fd5b1561484257565b60405162461bcd60e51b81526020600482015260166024820152751499599d5b99081d1c985b9cd9995c8819985a5b195960521b6044820152606490fd5b60155460ff90818160301c16614ab257818160601c169060088210156140885760078214614a4f5782811680614a43575b80614a37575b80614a2c575b61498b5760201c821615908161496c575b506148da575050600090565b60009160018060a01b031682526018602052604082205415159081614958575b506149025790565b60186020526149186040822054600a54906141bb565b611f409081810291818304149015171561494457612710900480602554101561493f575090565b905090565b634e487b7160e01b82526011600452602482fd5b9050602660205260408220541615386148fa565b6004811491508115614980575b50386148ce565b600691501438614979565b5050509060009160018060a01b031682526018602052604082205460126020526040832054602a60205260408420549181811180614a1a575b6149cd57505050565b6149db92916110dc916147f2565b600a546020549061271091820394828611614a06575061437393946149ff916141bb565b04906141bb565b634e487b7160e01b81526011600452602490fd5b50614a2582826147f2565b83106149c4565b5060245415156148bd565b50828160281c166148b7565b50828160201c166148b1565b6001600160a01b03909316600090815260186020526040902054905080614a79575b505050600090565b600a54614a85916141bb565b9160201c16614aa25780602554101561437357505b388080614a71565b8060235410156143735750614a9a565b908082169182614b14575b505080614af3575b614acf5750600090565b6001600160a01b0316600090815260186020526040902054600a54614373916141bb565b506001600160a01b0381166000908152601860205260409020541515614ac5565b60201c1690503880614abd565b15614b2857565b60405162461bcd60e51b815260206004820152601960248201527f506f6f6c20656e642074696d65206e6f742072656163686564000000000000006044820152606490fd5b601580549060ff91828160601c1690600882101561408857600791828114614dc5576001811480614dba575b15614d565750506016546009541115614d1257614bb98154421015614b21565b815460ff60601b1916600760601b1782557f456598f31410bd74ce9e62f22e18454c4264af94fd5752d17b3cebce37d73cdd600080a15b82825460601c1690600882101561408857614c0b9114614224565b614c136159c3565b614c1b615629565b5481811680614cfe575b80614cd4575b614c33575050565b60101c811661444657600f5416600481101561408857614c9557600b546001600160a01b0316803b15610d785760008091602460405180948193636382ff5160e11b83523060048401525af1801561467257614c8c5750565b61466190613ecf565b600b546001600160a01b0316803b15610d785760008091602460405180948193636382ff5160e11b83523060048401525af1801561467257614c8c5750565b5081600f54166004811015614088578015908115614cf3575b50614c2b565b600191501438614ced565b50600b546001600160a01b03161515614c25565b606460405162461bcd60e51b815260206004820152602060248201527f506f6f6c206d7573742070726f636565642073656c6563742077696e6e6572736044820152fd5b1580614daf575b614d68575b50614bf0565b614d758254421015614b21565b60ff60601b1916600760601b1782557f456598f31410bd74ce9e62f22e18454c4264af94fd5752d17b3cebce37d73cdd600080a138614d62565b508154421015614d5d565b508254421015614b99565b60405162461bcd60e51b815260206004820152600e60248201526d105b1c9958591e4818db1bdcd95960921b6044820152606490fd5b6027546000906001600160a01b03908116610470576029546104705760075442101561047057808254163314801561508c575b156104705760155460ff90818160601c166008811015610e76578015908115615081575b501561213f578082168080615043575b80615036575b610e72571561213f5766ff0000000000ff60301b1916660500000000000160301b17601555614e956159c3565b614e9d615629565b60155481811680615029575b80614fff575b614eef575b50505080600080516020615e2e833981519152817f9331b2a38c658c57a39ea19b2709d928c28a12cc8fbb838d12b85148550f937d93a180a1565b60101c8116614ffa57600f54166004811015610b6557614f7d57600b5416803b1561047057818091602460405180948193636382ff5160e11b83523060048401525af180156105cb57614f69575b507f9331b2a38c658c57a39ea19b2709d928c28a12cc8fbb838d12b85148550f937d905b903880614eb4565b614f738291613ecf565b6105d65738614f3d565b90809291600b5416803b15610470578190602460405180968193636382ff5160e11b83523060048401525af1928315614fed577f9331b2a38c658c57a39ea19b2709d928c28a12cc8fbb838d12b85148550f937d9293614fde575b50614f61565b614fe790613ecf565b38614fd8565b50604051903d90823e3d90fd5b505050565b5081600f54166004811015610e7657801590811561501e575b50614eaf565b600191501438615018565b5082600b54161515614ea9565b50828260201c1615614e68565b5082600f5416600481101561506d578015908115615062575b50614e62565b60019150143861505c565b634e487b7160e01b86526021600452602486fd5b600191501438614e52565b5080600c54163314614e2e565b156150a057565b60405162461bcd60e51b815260206004820152602260248201527f476174696e672062616c616e636520726571756972656d656e74206e6f74206d604482015261195d60f21b6064820152608490fd5b60001981146141a55760010190565b91908110156127665760051b0190565b1561511657565b60405162461bcd60e51b815260206004820152601c60248201527f4e6f74206f776e6572206f662073706563696669656420746f6b656e000000006044820152606490fd5b1561516257565b60405162461bcd60e51b815260206004820152602960248201527f546f6b656e20494420616c726561647920626f756e6420746f20616e6f74686560448201526872206164647265737360b81b6064820152608490fd5b600080546015805490926001600160a01b03928316929160601c60ff1660088110156114ad576001146155e2575b83549160ff8360601c166008811015610b6557600281149081156155d7575b50156155835761521c60ff8460481c1615614281565b60165493601a549461522e86826147f2565b8061523e600954601b54906147f2565b601e81111561557e5750601e5b80601c5511615575575b50601c5494851561555d57506004929160a0917f4ff4e84912750d469e8d0e190997710c06112023943415787c2f744eb09c0da46060601e54926040998a5191825260209b8c8301528a820152a2855163ec644ddd60e01b815293849182905afa801561555357839184908594869361552a575b5060025460081c16918651906152de82613ee2565b86825287519163125fa26760e31b8a84015251151560248301526024825261530582613efd565b87519260c084018481106001600160401b03821117615516578a96959493899388936153ac938d5286528386019788528b8087019a61ffff8093168c526060880163ffffffff9384809316825260808a01936001855260a08b01968752519d8e9c8d9b8c9a634d8e1c2f60e11b8c5260048c01525160248b01525160448a01525116606488015251166084860152511660a48401525160c060c484015260e4830190613f39565b03925af18291816154e7575b5061549a57506001906153c96142f8565b6308c379a014615431575b506153de57505050565b7fab4c58d5f7fcd2f6f276017059fe707292278a4b150b6402c89eb3899a7494ec9161541b61540b614387565b9251928284938452830190613f39565b0390a1805460ff60601b1916600160611b179055565b615439614316565b9081615446575b506153d4565b83518581529092507f1bc0b7451d1b26a4c7bfd7b118b2756c98249ac5f3d51e76be5f33aab548990291819061547f9087830190613f39565b0390a1835460ff60601b1916600160611b1784553880615440565b6004819055845463ff0000ff60481b19166c030000010000000000000000001790945550519182527ff81446731d23d202ea16cf590daf64c6087251171612b2adde6acbef4b37580291a1565b9091508481813d831161550f575b6154ff8183613f18565b8101031261054e575190386153b8565b503d6154f5565b634e487b7160e01b89526041600452602489fd5b9250935050615547915060a03d811161386c5761385a8183613f18565b909492935091386152c9565b84513d85823e3d90fd5b60ff60601b1916600160621b17909655505050505050565b601c5538615255565b61524b565b60405162461bcd60e51b815260206004820152602660248201527f506f6f6c206d75737420626520696e20456e646564206f722044726177696e6760448201526520737461746560d01b6064820152608490fd5b600391501438615206565b6155ea6155ef565b6151e7565b6015805460ff60601b1916600160611b1790557fba56b904ffec191559c3639e6019beb8a654605dbf6ba72f33361432a97c2bea600080a1565b60155460ff81169081156144fe57816158be575b5061564457565b6027546001600160a01b039081161561576e578060275416604051916370a0823160e01b83523060048401526020928381602481865afa90811561467257600091615741575b5080615697575b50505050565b600c5460405163a9059cbb60e01b815292166001600160a01b0316600483015260248201529082908290816000816044810103925af190811561467257600091615724575b50156156ea57808080615691565b6064906040519062461bcd60e51b825260048201526013602482015272151bdad95b881c99599d5b990819985a5b1959606a1b6044820152fd5b61573b9150823d84116105c4576105b68183613f18565b386156dc565b908482813d8311615767575b6157578183613f18565b810103126105d65750513861568a565b503d61574d565b60ff600f5416600481101561408857600381036157e95750479081615791575050565b60008080938193600c54165af16157a6614387565b50156157ae57565b60405162461bcd60e51b8152602060048201526013602482015272141c9a5e99481c99599d5b990819985a5b1959606a1b6044820152606490fd5b156157f15750565b80600b541690601054906040516331a9108f60e11b8152826004820152602081602481875afa90811561467257600091615885575b508116301461583457505050565b600c541690823b15610d78576040516323b872dd60e01b81523060048201526001600160a01b039290921660248301526044820152906000908290606490829084905af1801561467257614c8c5750565b906020823d82116158b6575b8161589e60209383613f18565b810103126105d657506158b09061413d565b38615826565b3d9150615891565b60ff915060101c163861563d565b156158d357565b60405162461bcd60e51b815260206004820152601860248201527f4e6f20737562736372697074696f6e2061737369676e656400000000000000006044820152606490fd5b600060018060a01b038154166003546159328115156158cc565b813b1561054e57604051633d40f28f60e01b81523060048201526024810191909152919081908390818381604481015b03925af19081156129af5750614c8c5750565b600060018060a01b0381541660035461598f8115156158cc565b813b1561054e5760405163032a136160e11b8152306004820152602481019190915291908190839081838160448101615962565b600060018060a01b038154166003546159dd8115156158cc565b813b1561054e57604051630221a1c360e51b8152306004820152602481019190915291908190839081838160448101615962565b6000805460405163524d530b60e01b815260209390916001600160a01b039085908490600490829085165afa928315610d85578493615ac5575b5082161561054e579082916040519085820191635e5bc1c560e11b835281602482015260248152615a7b81613efd565b51925af1615a87614387565b5015615a905750565b6064906040519062461bcd60e51b82526004820152600e60248201526d11195c1bdcda5d0819985a5b195960921b6044820152fd5b9092508481813d8311615af5575b615add8183613f18565b8101031261213f57615aee9061413d565b9138615a4b565b503d615ad3565b600033815260209160128352604080832054928315615d3c57338152601385528181205494858503958514615d2b57602c5485939291906001600160a01b0381169081615b51575b5050601390338352522055565b60ff91929394955060a01c1660048110156108415786949392919080615bf957508394509060249181939451928380926370a0823160e01b82523360048301525afa908115615553579083929187959491615bc0575b5090615bb9601392602d541115615099565b9038615b44565b828094959650819392503d8311615bf2575b615bdc8183613f18565b8101031261054e57518593929190615bb9615ba7565b503d615bd2565b60018103615c945750602e548451627eeac760e11b81523360048201526024810191909152939450919290918290829060449082905afa908115615553579083929187959491615c5b575b5090615c56601392602d541115615099565b615bb9565b828094959650819392503d8311615c8d575b615c778183613f18565b8101031261054e57518593929190615c56615c44565b503d615c6d565b600214615ca5575b50601390615bb9565b8394509060249181939451928380926370a0823160e01b82523360048301525afa908115615553579083929187959491615cf2575b5090615cec601392602d541115615099565b90615c9c565b828094959650819392503d8311615d24575b615d0e8183613f18565b8101031261054e57518593929190615cec615cda565b503d615d04565b8251630ccaf35d60e41b8152600490fd5b81516358cd4fc160e11b8152600490fd5b601454018060145560095414615d5f57565b6015805460ff60601b1916600360611b179055600054604051630425172560e31b815230600482015290602090829060249082906001600160a01b03165afa90811561467257600091615dbc575b50615db457565b614661615918565b906020823d8211615de5575b81615dd560209383613f18565b810103126105d657505138615dad565b3d9150615dc856fe036b6384b5eca791c62761152d0c79bb0604c104a5fb6f4eb0703f3154bb3db018381720d6efb26847068a65e3be979f1243520b7db6b16331969a7acdb200d5e465c22b8ec96fc194d9a0791b76171272fb36c68a84e2c807ed610cb9c7b9b1358fe4192934d3bf28ae181feda1f4bd08ca67f5e2fad55582cce5eb67304ae9a2646970667358221220be33b1bb37a6368da981288bc270795469a013198cea6615fa7f2bd897f25b1a64736f6c63430008130033",
  "linkReferences": {},
  "deployedLinkReferences": {}
}