{
  "_format": "hh-sol-artifact-1",
  "contractName": "PoolDeployer",
  "sourceName": "contracts/PoolDeployer.sol",
  "abi": [
    {
      "inputs": [
        {
          "internalType": "address",
          "name": "_poolImplementation",
          "type": "address"
        },
        {
          "internalType": "address",
          "name": "_manager",
          "type": "address"
        }
      ],
      "stateMutability": "nonpayable",
      "type": "constructor"
    },
    {
      "inputs": [],
      "name": "ApprovedSlotFeeMismatch",
      "type": "error"
    },
    {
      "inputs": [],
      "name": "AvailableSupplyInsufficient",
      "type": "error"
    },
    {
      "inputs": [],
      "name": "CollectioNameTaken",
      "type": "error"
    },
    {
      "inputs": [],
      "name": "CollectionNameTaken",
      "type": "error"
    },
    {
      "inputs": [],
      "name": "ContractsNotAllowed",
      "type": "error"
    },
    {
      "inputs": [],
      "name": "DescriptionTooLong",
      "type": "error"
    },
    {
      "inputs": [],
      "name": "ExceedsApprovedWinnerLimit",
      "type": "error"
    },
    {
      "inputs": [],
      "name": "IncompatiblePrizeContract",
      "type": "error"
    },
    {
      "inputs": [],
      "name": "InsufficientCreatorTokenBalance",
      "type": "error"
    },
    {
      "inputs": [],
      "name": "InsufficientNativeBalance",
      "type": "error"
    },
    {
      "inputs": [],
      "name": "InsufficientPrizeAmountForEscrow",
      "type": "error"
    },
    {
      "inputs": [],
      "name": "InvalidDiscordLink",
      "type": "error"
    },
    {
      "inputs": [],
      "name": "InvalidMaxSlotsPerParticipant",
      "type": "error"
    },
    {
      "inputs": [],
      "name": "InvalidParameter",
      "type": "error"
    },
    {
      "inputs": [],
      "name": "InvalidPrizeAmount",
      "type": "error"
    },
    {
      "inputs": [],
      "name": "InvalidPrizeType",
      "type": "error"
    },
    {
      "inputs": [],
      "name": "InvalidSlotFee",
      "type": "error"
    },
    {
      "inputs": [],
      "name": "InvalidSlotLimitConfig",
      "type": "error"
    },
    {
      "inputs": [],
      "name": "InvalidStartTime",
      "type": "error"
    },
    {
      "inputs": [],
      "name": "InvalidTelegramLink",
      "type": "error"
    },
    {
      "inputs": [],
      "name": "InvalidTwitterLink",
      "type": "error"
    },
    {
      "inputs": [],
      "name": "InvalidWinnerConfig",
      "type": "error"
    },
    {
      "inputs": [],
      "name": "NotOwnerOfTokenID",
      "type": "error"
    },
    {
      "inputs": [],
      "name": "PoolCreationPaused",
      "type": "error"
    },
    {
      "inputs": [],
      "name": "PoolNameTaken",
      "type": "error"
    },
    {
      "inputs": [],
      "name": "RefundFailed",
      "type": "error"
    },
    {
      "inputs": [],
      "name": "SocialEngagementFeeTransferFailed",
      "type": "error"
    },
    {
      "inputs": [],
      "name": "SocialEngagementParametersNotConfigured",
      "type": "error"
    },
    {
      "inputs": [],
      "name": "Unauthorized",
      "type": "error"
    },
    {
      "anonymous": false,
      "inputs": [
        {
          "indexed": true,
          "internalType": "address",
          "name": "previousOwner",
          "type": "address"
        },
        {
          "indexed": true,
          "internalType": "address",
          "name": "newOwner",
          "type": "address"
        }
      ],
      "name": "OwnershipTransferred",
      "type": "event"
    },
    {
      "anonymous": false,
      "inputs": [
        {
          "indexed": true,
          "internalType": "address",
          "name": "pool",
          "type": "address"
        },
        {
          "indexed": true,
          "internalType": "address",
          "name": "creator",
          "type": "address"
        }
      ],
      "name": "PoolCreated",
      "type": "event"
    },
    {
      "anonymous": false,
      "inputs": [
        {
          "indexed": true,
          "internalType": "address",
          "name": "poolImplementation",
          "type": "address"
        }
      ],
      "name": "PoolImplementationUpdated",
      "type": "event"
    },
    {
      "anonymous": false,
      "inputs": [
        {
          "indexed": true,
          "internalType": "address",
          "name": "pool",
          "type": "address"
        },
        {
          "indexed": false,
          "internalType": "string",
          "name": "description",
          "type": "string"
        },
        {
          "indexed": false,
          "internalType": "string",
          "name": "twitterLink",
          "type": "string"
        },
        {
          "indexed": false,
          "internalType": "string",
          "name": "discordLink",
          "type": "string"
        },
        {
          "indexed": false,
          "internalType": "string",
          "name": "telegramLink",
          "type": "string"
        }
      ],
      "name": "PoolMetadataSet",
      "type": "event"
    },
    {
      "anonymous": false,
      "inputs": [
        {
          "indexed": true,
          "internalType": "address",
          "name": "collection",
          "type": "address"
        }
      ],
      "name": "PrizeCollectionCreated",
      "type": "event"
    },
    {
      "inputs": [
        {
          "components": [
            {
              "internalType": "string",
              "name": "name",
              "type": "string"
            },
            {
              "internalType": "uint256",
              "name": "startTime",
              "type": "uint256"
            },
            {
              "internalType": "uint256",
              "name": "duration",
              "type": "uint256"
            },
            {
              "internalType": "uint256",
              "name": "slotLimit",
              "type": "uint256"
            },
            {
              "internalType": "uint256",
              "name": "winnersCount",
              "type": "uint256"
            },
            {
              "internalType": "uint256",
              "name": "maxSlotsPerParticipant",
              "type": "uint256"
            },
            {
              "internalType": "bool",
              "name": "isPrized",
              "type": "bool"
            },
            {
              "internalType": "uint256",
              "name": "customSlotFee",
              "type": "uint256"
            },
            {
              "internalType": "bool",
              "name": "erc721Drop",
              "type": "bool"
            },
            {
              "internalType": "bool",
              "name": "erc1155Drop",
              "type": "bool"
            },
            {
              "internalType": "address",
              "name": "prizeCollection",
              "type": "address"
            },
            {
              "internalType": "enum PrizeTypes.Standard",
              "name": "standard",
              "type": "uint8"
            },
            {
              "internalType": "uint256",
              "name": "prizeTokenId",
              "type": "uint256"
            },
            {
              "internalType": "uint256",
              "name": "amountPerWinner",
              "type": "uint256"
            },
            {
              "internalType": "address",
              "name": "creator",
              "type": "address"
            },
            {
              "internalType": "address",
              "name": "erc20PrizeToken",
              "type": "address"
            },
            {
              "internalType": "uint256",
              "name": "erc20PrizeAmount",
              "type": "uint256"
            },
            {
              "internalType": "uint256",
              "name": "nativePrizeAmount",
              "type": "uint256"
            },
            {
              "internalType": "address",
              "name": "holderTokenAddress",
              "type": "address"
            },
            {
              "internalType": "enum PrizeTypes.Standard",
              "name": "holderTokenStandard",
              "type": "uint8"
            },
            {
              "internalType": "uint256",
              "name": "minHolderTokenBalance",
              "type": "uint256"
            },
            {
              "internalType": "uint256",
              "name": "holderTokenBalance",
              "type": "uint256"
            },
            {
              "internalType": "uint256",
              "name": "holderTokenId",
              "type": "uint256"
            },
            {
              "internalType": "bool",
              "name": "socialEngagementRequired",
              "type": "bool"
            },
            {
              "internalType": "string",
              "name": "socialTaskDescription",
              "type": "string"
            },
            {
              "internalType": "string",
              "name": "description",
              "type": "string"
            },
            {
              "internalType": "string",
              "name": "twitterLink",
              "type": "string"
            },
            {
              "internalType": "string",
              "name": "discordLink",
              "type": "string"
            },
            {
              "internalType": "string",
              "name": "telegramLink",
              "type": "string"
            }
          ],
          "internalType": "struct PoolDeployer.PoolParams",
          "name": "p",
          "type": "tuple"
        }
      ],
      "name": "createPool",
      "outputs": [
        {
          "internalType": "address",
          "name": "",
          "type": "address"
        }
      ],
      "stateMutability": "payable",
      "type": "function"
    },
    {
      "inputs": [
        {
          "internalType": "address",
          "name": "",
          "type": "address"
        }
      ],
      "name": "lastPoolCreationTime",
      "outputs": [
        {
          "internalType": "uint256",
          "name": "",
          "type": "uint256"
        }
      ],
      "stateMutability": "view",
      "type": "function"
    },
    {
      "inputs": [
        {
          "internalType": "address",
          "name": "",
          "type": "address"
        },
        {
          "internalType": "address",
          "name": "",
          "type": "address"
        },
        {
          "internalType": "uint256[]",
          "name": "",
          "type": "uint256[]"
        },
        {
          "internalType": "uint256[]",
          "name": "",
          "type": "uint256[]"
        },
        {
          "internalType": "bytes",
          "name": "",
          "type": "bytes"
        }
      ],
      "name": "onERC1155BatchReceived",
      "outputs": [
        {
          "internalType": "bytes4",
          "name": "",
          "type": "bytes4"
        }
      ],
      "stateMutability": "pure",
      "type": "function"
    },
    {
      "inputs": [
        {
          "internalType": "address",
          "name": "",
          "type": "address"
        },
        {
          "internalType": "address",
          "name": "",
          "type": "address"
        },
        {
          "internalType": "uint256",
          "name": "",
          "type": "uint256"
        },
        {
          "internalType": "uint256",
          "name": "",
          "type": "uint256"
        },
        {
          "internalType": "bytes",
          "name": "",
          "type": "bytes"
        }
      ],
      "name": "onERC1155Received",
      "outputs": [
        {
          "internalType": "bytes4",
          "name": "",
          "type": "bytes4"
        }
      ],
      "stateMutability": "pure",
      "type": "function"
    },
    {
      "inputs": [
        {
          "internalType": "address",
          "name": "",
          "type": "address"
        },
        {
          "internalType": "address",
          "name": "",
          "type": "address"
        },
        {
          "internalType": "uint256",
          "name": "",
          "type": "uint256"
        },
        {
          "internalType": "bytes",
          "name": "",
          "type": "bytes"
        }
      ],
      "name": "onERC721Received",
      "outputs": [
        {
          "internalType": "bytes4",
          "name": "",
          "type": "bytes4"
        }
      ],
      "stateMutability": "pure",
      "type": "function"
    },
    {
      "inputs": [],
      "name": "owner",
      "outputs": [
        {
          "internalType": "address",
          "name": "",
          "type": "address"
        }
      ],
      "stateMutability": "view",
      "type": "function"
    },
    {
      "inputs": [],
      "name": "poolImplementation",
      "outputs": [
        {
          "internalType": "address",
          "name": "",
          "type": "address"
        }
      ],
      "stateMutability": "view",
      "type": "function"
    },
    {
      "inputs": [],
      "name": "protocolManager",
      "outputs": [
        {
          "internalType": "address",
          "name": "",
          "type": "address"
        }
      ],
      "stateMutability": "view",
      "type": "function"
    },
    {
      "inputs": [],
      "name": "renounceOwnership",
      "outputs": [],
      "stateMutability": "nonpayable",
      "type": "function"
    },
    {
      "inputs": [
        {
          "internalType": "bytes4",
          "name": "interfaceId",
          "type": "bytes4"
        }
      ],
      "name": "supportsInterface",
      "outputs": [
        {
          "internalType": "bool",
          "name": "",
          "type": "bool"
        }
      ],
      "stateMutability": "view",
      "type": "function"
    },
    {
      "inputs": [
        {
          "internalType": "address",
          "name": "newOwner",
          "type": "address"
        }
      ],
      "name": "transferOwnership",
      "outputs": [],
      "stateMutability": "nonpayable",
      "type": "function"
    },
    {
      "inputs": [],
      "name": "transferOwnershipToManager",
      "outputs": [],
      "stateMutability": "nonpayable",
      "type": "function"
    },
    {
      "inputs": [
        {
          "internalType": "address",
          "name": "_poolImplementation",
          "type": "address"
        }
      ],
      "name": "updatePoolImplementation",
      "outputs": [],
      "stateMutability": "nonpayable",
      "type": "function"
    }
  ],
  "bytecode": "0x608034620000cc57601f62002f5538819003918201601f19168301916001600160401b03831184841017620000d1578084926040948552833981010312620000cc576200005a60206200005283620000e7565b9201620000e7565b60008054336001600160a01b0319808316821784556040519590946001600160a01b03949093859391908416907f8be0079c531659141344cd1fd0a4f28419497f9722a3daafe3b4186f6b6457e09080a31683600154161760015516906002541617600255612e589081620000fd8239f35b600080fd5b634e487b7160e01b600052604160045260246000fd5b51906001600160a01b0382168203620000cc5756fe608080604052600436101561001357600080fd5b600090813560e01c90816301ffc9a714612a8157508063065bc36f146129d2578063150b7a021461297b57806359c7f8d414612942578063715018a6146128e85780637b5b7878146102e95780638da5cb5b146102c2578063a9dd230514610280578063ab4b669214610257578063bc197c81146101c7578063cefa77991461019e578063f23a6e61146101435763f2fde38b146100b057600080fd5b34610140576020366003190112610140576100c9612ad6565b6100d1612b5f565b6001600160a01b038116156100ec576100e990612bb7565b80f35b60405162461bcd60e51b815260206004820152602660248201527f4f776e61626c653a206e6577206f776e657220697320746865207a65726f206160448201526564647265737360d01b6064820152608490fd5b80fd5b50346101405760a03660031901126101405761015d612ad6565b50610166612aec565b506084356001600160401b03811161019a57610186903690600401612b02565b505060405163f23a6e6160e01b8152602090f35b5080fd5b50346101405780600319360112610140576001546040516001600160a01b039091168152602090f35b50346101405760a0366003190112610140576101e1612ad6565b506101ea612aec565b506001600160401b036044358181116102535761020b903690600401612b2f565b505060643581811161025357610225903690600401612b2f565b505060843590811161019a5761023f903690600401612b02565b505060405163bc197c8160e01b8152602090f35b8280fd5b50346101405780600319360112610140576002546040516001600160a01b039091168152602090f35b503461014057806003193601126101405780546001600160a01b0390811633036102b1576100e99060025416612bb7565b6040516282b42960e81b8152600490fd5b5034610140578060031936011261014057546040516001600160a01b039091168152602090f35b5060031960203682011261019a576001600160401b036004351161019a576103a09060043536030112610140573332036128d75733815260036020526040812054610e1081018091116128c357421061285857600254604051630fbeef3760e11b81526001600160a01b039091169190602081600481865afa90811561269557829161281e575b5080612808575b6126a7575b61038b6102e460043501612c3f565b156126a0576040516356d2e09960e11b8152602081600481865afa908115612695578291612663575b50915b604051636f6f8c5d60e01b815292602084600481855afa938415610ecf57839461262f575b50829080151580612626575b6103f660c460043501612c3f565b80612608575b6125f0575b8234106125de576124c3575b506040516320a72b6560e11b8152602081600481865afa90811561245a578491612489575b50612477574260246004350135106124655761045260c460043501612c3f565b604051635aa35d2560e11b81529015156004820152602081602481865afa90811561245a578491612424575b5060408051639d0f5ef160e01b8152919082600481875afa918215612356578592612401575b5060646004350135106123ef5760646004350135116123ef576084600435013515611a5257606460043501356084600435013511611a525760043560840135606481810291820490036123db57601e60646004350135818102929181840414901517156123c75711611a52576040518060a08101106001600160401b0360a0830111176123b35760a08101604052838152836020820152836040820152836060820152836080820152604051639d0f5ef160e01b8152604081600481875afa80156123565785918691612392575b506020830152815260408051632f3dc77560e11b81529081600481875afa80156123565785918691612361575b5060608301526040820152604051630547dd4760e31b8152602081600481875afa908115612356578591612320575b50608082015260408101516044600435013510158061230c575b156122d45760a46004350135151590816122c0575b5061144d5761061060c460043501612c3f565b61226d575b60e4600435013515159384849061063060c460043501612c3f565b156121fc5786156121f65760e460043501355b925b83156113ad5761065a6101c460043501612ccc565b60546106af61066d600480350180612ce0565b92908360405194859260208401976bffffffffffffffffffffffff199060601b1688524260348501528484013781018c83820152036034810184520182612c11565b519020600154608881901c62ffffff16763d602d80600a3d3981f3363d3d373d3d3d363d7300000017895260781b6effffffffffffffffffffffffffffff19166e5af43d82803e903d91602b57fd5bf3176020526037600989f56001600160a01b038116969087156121b15761072a61014460043501612ccc565b99899361073c6102e460043501612c3f565b6120b1575b61074f60c460043501612c3f565b611169575b50506107656101c460043501612ccc565b823b15610ef1576040516001620bb01d60e11b031981526001600160a01b03928316600482015291166024820152426044820152888160648183865af18015610faa57908991611151575b50506107c16101c460043501612ccc565b926107d161010460043501612c3f565b801561113c575b8061111c575b610fea575b88916107f461010460043501612c3f565b8015610fd5575b80610fb5575b610f1e575b506004610164813501351015610f1a576004356101640135600303610f13576102246004350135945b6002546001600160a01b03169461084a600480350180612ce0565b909160405197886101208101106001600160401b036101208b011117610ef557610120890160405288526001600160a01b0316602088015261088b81612c6b565b916108996040519384612c11565b8183523682820111610f0f57818d926020928386013783010152604086015260646004350135606086015260a4600435013560808601526084600435013560a0860152151560c0850152151560e084015215156101008301526109016101e460043501612ccc565b60405198896101008101106001600160401b036101008c011117610ef5576101008a0160405261093861016460043501358b612df3565b6001600160a01b0390811660208b015260043561018481013560408c01526101a481013560608c0152911660808a015261020481013560a08a015261022481013560c08a015290151560e08901526109939061024401612ccc565b926004610264813501351015610f0b57604051938460808101106001600160401b03608087011117610ef557608085016040526001600160a01b031684526109e5600435610264013560208601612df3565b60043561028481013560408601526102c48101356060860152610a0b906102e401612c3f565b90604051918260208101106001600160401b03602085011117610ef5576020830160405215158252610a426101c460043501612ccc565b610a5060c460043501612c3f565b92883b15610ef15760408051632e8d4ab160e21b8152610260600482015286516001600160a01b03908116610264830152602088015116610284820152908601516101206102a483015280516103848301819052909c919890969091908c5b888110610eda5750958998958997956103a4958f9d9c9788968f9c9660e0906101008f946060958d8c8e010152858101516102c48d015260808101516102e48d015260a08101516103048d015260c081015115156103248d01528381015115156103448d0152015115156103648b0152610b2d60248b018251612e15565b6020818101516001600160a01b0390811660448d0152604083015160648d01528583015160848d01526080830151811660a48d015260a083015160c48d015260c083015160e48d0152929091015115156101048b015282519091166101248a0152810151610ba0906101448a0190612e15565b604081015161016489015201516101848701525115156101a48601526001600160a01b03166101c485015260043560248101356101e4860152604401356102048501526102248401521515610244830152601f01601f19168101030191885af1908115610ecf578391610ebb575b5050610c1a9034612d68565b80610e7f575b506001600160a01b039050610c3a6004356101c401612ccc565b169160405192827f4f2ce4e40f623ca765fc0167a25cb7842ceaafb8d82d3dec26ca0d0e0d2d48968380a361032460043501926103e8610c7f85600435600401612ce0565b905011610e705750610344600435019260c8610ca085600435600401612ce0565b905011610e5e57610364600435019360c8610cc086600435600401612ce0565b905011610e4c57610384600435019060c8610ce083600435600401612ce0565b905011610e3a5760209583610cfb8795600435600401612ce0565b1580159150610e21575b8015610e08575b8015610def575b610d30575b87858733815260038352604042912055604051908152f35b610d90610d8292610dd47f4e2fb815c48f38871c1a97680d69ecfc7db86ce1f02e00f1f438d6bdbb92b3a096610d9e610dc6610d74610de297600435600401612ce0565b989099600435600401612ce0565b969095600435600401612ce0565b929093600435600401612ce0565b959096610db86040519b8c9b60808d5260808d0191612d12565b918a830360208c0152612d12565b918783036040890152612d12565b918483036060860152612d12565b0390a28184808080610d18565b50610dff84600435600401612ce0565b90501515610d13565b50610e1882600435600401612ce0565b90501515610d0c565b50610e3183600435600401612ce0565b90501515610d05565b60405163621c786f60e01b8152600490fd5b60405163f94023a960e01b8152600490fd5b604051637a59f6af60e11b8152600490fd5b630d7cfc5960e41b8152600490fd5b81808092610e926101c460043501612ccc565b5af1610e9c612c86565b5015610ea9578183610c20565b604051633c31275160e21b8152600490fd5b610ec490612bfe565b61019a578185610c0e565b6040513d85823e3d90fd5b8e81016020908101518c83016103a4015201610aaf565b8980fd5b634e487b7160e01b600052604160045260246000fd5b8680fd5b8c80fd5b889461082f565b8880fd5b9091506020610f3261014460043501612ccc565b604051631a74b3f360e01b81526001600160a01b03909116600482015291829060249082905afa908115610faa578991610f70575b50159038610806565b90506020813d602011610fa2575b81610f8b60209383612c11565b81010312610f1a57610f9c90612c32565b38610f67565b3d9150610f7e565b6040513d8b823e3d90fd5b506001600160a01b03610fcd60043561014401612ccc565b161515610801565b50610fe561012460043501612c3f565b6107fb565b6004610164813501351015610f1a5760043561016401356110bb57600460206001600160a01b0361101f833561014401612ccc565b1660405192838092638da5cb5b60e01b82525afa9081156110b0578a91611081575b505b6110526101c460043501612ccc565b6001600160a01b03828116911614158061107a575b611072575b506107e3565b93503861106c565b5081611067565b6110a3915060203d6020116110a9575b61109b8183612c11565b810190612c4c565b38611041565b503d611091565b6040513d8c823e3d90fd5b600460206001600160a01b036110d5833561014401612ccc565b1660405192838092638da5cb5b60e01b82525afa9081156110b0578a916110fd575b50611043565b611116915060203d6020116110a95761109b8183612c11565b386110f7565b506001600160a01b0361113460043561014401612ccc565b1615156107de565b5061114c61012460043501612c3f565b6107d8565b61115a90612bfe565b6111655787386107b0565b8780fd5b60046101648196949635013510156116425760043561016401356002036113d1575090506001600160a01b036111a460043561014401612ccc565b1661134b576102046004350135156113bf576111d66111d0608460043501356102046004350135612d75565b15612d95565b6113ad5760a460043501351561135d57610224600435013561134b576001918860206112636001600160a01b036112126004356101e401612ccc565b166112226101c460043501612ccc565b6040516323b872dd60e01b81526001600160a01b03909116600480830191909152306024830152356102040135604482015293849283919082906064820190565b03925af180156110b057611312575b506001600160a01b0361128a6004356101e401612ccc565b60405163a9059cbb60e01b81526001600160a01b038416600480830191909152356102040135602482015291602091839160449183918f91165af180156110b0576112d9575b505b3880610754565b6020813d60201161130a575b816112f260209383612c11565b81010312610ef15761130390612c32565b50386112d0565b3d91506112e5565b6020813d602011611343575b8161132b60209383612c11565b81010312610ef15761133c90612c32565b5038611272565b3d915061131e565b604051631558dc5f60e31b8152600490fd5b60405162461bcd60e51b815260206004820152602260248201527f4d617820736c6f747320706572207061727469636970616e7420726571756972604482015261195960f21b6064820152608490fd5b604051633c8e6e6960e11b8152600490fd5b604051630193f71f60e51b8152600490fd5b600435610164013560030361145f575090506001600160a01b036113fa6004356101e401612ccc565b1661134b576001600160a01b0361141660043561014401612ccc565b1661134b576114356111d0608460043501356102246004350135612d75565b6113ad5760a460043501351561144d576001916112d2565b604051631757938960e31b8152600490fd5b6004356101640135611b695760016101a46004350135116113bf576001600160a01b0361149160043561014401612ccc565b16151580611b53575b1561167757505050600160846004350135116113bf57602460206001600160a01b036114cb60043561014401612ccc565b16604051928380926331a9108f60e11b8252610184600435013560048301525afa908115610faa578991611658575b506001600160a01b036115126004356101c401612ccc565b166001600160a01b0390911603611646576001916001600160a01b0361153d60043561014401612ccc565b1661154d6101c460043501612ccc565b813b1561164257604051632142170760e11b81526001600160a01b039091166004808301919091523060248301523561018401356044820152908a9082908183816064810103925af180156110b057908a9161162e575b506001600160a01b0390506115be60043561014401612ccc565b16803b15610ef157604051632142170760e11b8152306004808301919091526001600160a01b03841660248301523561018401356044820152908a908290606490829084905af180156110b057908a9161161a575b50506112d2565b61162390612bfe565b610f1a578838611613565b61163790612bfe565b610f1a5788386115a4565b8a80fd5b604051632d346a9760e01b8152600490fd5b611671915060203d6020116110a95761109b8183612c11565b386114fa565b9193916001600160a01b0361169160043561014401612ccc565b16151580611b3e575b6116a55750506112d2565b9096509093506001600160a01b036116c260043561014401612ccc565b6040516301ffc9a760e01b81526380ac58cd60e01b6004820152911690602081602481855afa908115611b33578b91611af9575b5015611aad576040516301ffc9a760e01b8152637c97ded960e11b600482015290602090829060249082905afa9081156110b0578a91611abf575b5015611aad57600460206001600160a01b03611751833561014401612ccc565b1660405192838092633f6615ab60e11b82525afa9081156110b0578a91611a76575b506084600435013511611a645760016084600435013514611a5257610164600435013561134b57600460206001600160a01b036117b4833561014401612ccc565b1660405192838092638da5cb5b60e01b82525afa9081156110b0578a91611a33575b506117e66101c460043501612ccc565b6001600160a01b0390811691160361187c578515611877575060e460043501355b94925b6001600160a01b0361182160043561014401612ccc565b16803b15610ef1576040516227675f60e01b81526001600160a01b03831660048083019190915235608401356024820152908a908290604490829084905af180156110b057908a91156116135761162390612bfe565b611807565b9294926001600160a01b0361189660043561014401612ccc565b1660c06118a86101c460043501612ccc565b6040516317f6397960e01b81526001600160a01b03909116600482015291829060249082905afa9081156110b0578a918b928c928d926119fa575b50156102b1576118f291612d68565b60846004350135116119e85761190d61010460043501612c3f565b6119df575b806119c457509488936119b2575b6001600160a01b0361193760043561014401612ccc565b166119476101c460043501612ccc565b813b15611642576040516334ea162f60e11b81526001600160a01b0390911660048083019190915235608401356024820152908a9082908183816044810103925af180156110b057908a9161199e575b505061180a565b6119a790612bfe565b610f1a578838611997565b60405163805596b160e01b8152600490fd5b91959350508060e46004350135036119b25793600192611920565b60019550611912565b604051630161dc7d60e21b8152600490fd5b92505050611a1f915060c03d8111611a2c575b611a178183612c11565b810190612d33565b92949193503890506118e3565b503d611a0d565b611a4c915060203d6020116110a95761109b8183612c11565b386117d6565b60405163c827d5c360e01b8152600490fd5b604051632fb7debb60e11b8152600490fd5b90506020813d602011611aa5575b81611a9160209383612c11565b81010312611aa0575138611773565b600080fd5b3d9150611a84565b6040516359071b0760e11b8152600490fd5b90506020813d602011611af1575b81611ada60209383612c11565b81010312610ef157611aeb90612c32565b38611731565b3d9150611acd565b90506020813d602011611b2b575b81611b1460209383612c11565b8101031261164257611b2590612c32565b386116f6565b3d9150611b07565b6040513d8d823e3d90fd5b50611b4e61010460043501612c3f565b61169a565b50611b6361010460043501612c3f565b1561149a565b9193916004356101640135600103612073576101a460043501351561202e576001600160a01b03611b9f60043561014401612ccc565b16151580612019575b611bb35750506112d2565b9096509093506001600160a01b03611bd060043561014401612ccc565b6040516301ffc9a760e01b8152636cdb3d1360e11b6004820152911690602081602481855afa908115611b33578b91611fdf575b5015611aad576040516301ffc9a760e01b81526315ba79c360e11b600482015290602090829060249082905afa9081156110b0578a91611fa5575b5015611aad5760016084600435013514611a525760043560848101356101a490910135808202919091049003611f8f57602460206001600160a01b03611c8a60043561014401612ccc565b1660405192838092633570cb2960e21b8252610184600435013560048301525afa9081156110b0578a91611f5d575b506101a46004350135608460043501350211611a6457600460206001600160a01b03611ce9833561014401612ccc565b1660405192838092638da5cb5b60e01b82525afa9081156110b0578a91611f3e575b50611d1b6101c460043501612ccc565b6001600160a01b03908116911603611dbb578515611db6575060e460043501355b94925b6001600160a01b03611d5660043561014401612ccc565b16803b15610ef15789809160648b60405194859384926309de21c160e41b84526004840152610184600435013560248401526101a46004350135608460043501350260448401525af180156110b057908a91156116135761162390612bfe565b611d3c565b9294926001600160a01b03611dd560043561014401612ccc565b1660c0611de76101c460043501612ccc565b6040516317f6397960e01b81526001600160a01b03909116600482015291829060249082905afa9081156110b0578a918b928c928d92611f15575b50156102b157611e3191612d68565b60846004350135116119e857611e4c61012460043501612c3f565b611f0c575b80611ef157509488936119b2575b6001600160a01b03611e7660043561014401612ccc565b16611e866101c460043501612ccc565b813b15611642576040516334ea162f60e11b81526001600160a01b0390911660048083019190915235608401356024820152908a9082908183816044810103925af180156110b057908a91611edd575b5050611d3f565b611ee690612bfe565b610f1a578838611ed6565b91959350508060e46004350135036119b25793600192611e5f565b60019550611e51565b92505050611f31915060c03d8111611a2c57611a178183612c11565b9294919350389050611e22565b611f57915060203d6020116110a95761109b8183612c11565b38611d0b565b90506020813d602011611f87575b81611f7860209383612c11565b81010312611aa0575138611cb9565b3d9150611f6b565b634e487b7160e01b600052601160045260246000fd5b90506020813d602011611fd7575b81611fc060209383612c11565b81010312610ef157611fd190612c32565b38611c3f565b3d9150611fb3565b90506020813d602011612011575b81611ffa60209383612c11565b810103126116425761200b90612c32565b38611c04565b3d9150611fed565b5061202961012460043501612c3f565b611ba8565b60405162461bcd60e51b815260206004820152601d60248201527f416d6f756e74207065722077696e6e6572206d757374206265203e20300000006044820152606490fd5b60405162461bcd60e51b8152602060048201526016602482015275556e737570706f72746564207072697a65207479706560501b6044820152606490fd5b604051636b90bda960e01b8152602081600481885afa908115612171578c91612192575b506001600160a01b03811615612180576120fa61030460043501600435600401612ce0565b9091906001600160a01b0382163b1561217c57918d9161214093838f604051968795869485936386aec17960e01b85526004850152604060248501526044840191612d12565b03926001600160a01b03165af180156121715761215e575b50610741565b61216a909b919b612bfe565b9938612158565b6040513d8e823e3d90fd5b8d80fd5b6040516369ecf6c760e11b8152600490fd5b6121ab915060203d6020116110a95761109b8183612c11565b386120d5565b60405162461bcd60e51b815260206004820152601760248201527f455243313136373a2063726561746532206661696c65640000000000000000006044820152606490fd5b82610643565b508482876113ad57600160a460043501351161225b576001600160a01b0361222960043561014401612ccc565b1661225b5761223d61010460043501612c3f565b61225b57610184600435013561225b576101a4600435013515610645575b604051630309cb8760e51b8152600490fd5b60646004350135808004600114901517156122ac576103e8606460043501350460a46004350135111561061557604051631757938960e31b8152600490fd5b634e487b7160e01b83526011600452602483fd5b60809150015160a4600435013511386105fd565b60405162461bcd60e51b815260206004820152601060248201526f24b73b30b634b210323ab930ba34b7b760811b6044820152606490fd5b5060608101516044600435013511156105e8565b90506020813d60201161234e575b8161233b60209383612c11565b8101031261234a5751386105ce565b8480fd5b3d915061232e565b6040513d87823e3d90fd5b9050612385915060403d60401161238b575b61237d8183612c11565b810190612cb6565b3861059f565b503d612373565b90506123ad915060403d60401161238b5761237d8183612c11565b38610572565b634e487b7160e01b84526041600452602484fd5b634e487b7160e01b85526011600452602485fd5b634e487b7160e01b84526011600452602484fd5b60405163ac255ca760e01b8152600490fd5b61241b91925060403d60401161238b5761237d8183612c11565b905090386104a4565b90506020813d602011612452575b8161243f60209383612c11565b8101031261244e57513861047e565b8380fd5b3d9150612432565b6040513d86823e3d90fd5b604051632ca4094f60e21b8152600490fd5b6040516316247b3f60e11b8152600490fd5b90506020813d6020116124bb575b816124a460209383612c11565b8101031261244e576124b590612c32565b38610432565b3d9150612497565b60405163524d530b60e01b8152602081600481875afa9081156123565785916125bf575b506001600160a01b0381161561257a5760405191635e5bc1c560e11b6020840152806024840152602483528260608101106001600160401b036060850111176125665791859291839260608301604052602083519301915af1612548612c86565b5015612554573861040d565b604051635b5b44c760e01b8152600490fd5b634e487b7160e01b86526041600452602486fd5b60405162461bcd60e51b815260206004820152601760248201527f526576656e7565206d616e61676572206e6f74207365740000000000000000006044820152606490fd5b6125d8915060203d6020116110a95761109b8183612c11565b386124e7565b60405163dbc3a71f60e01b8152600490fd5b91610224600435013581018091116123c75791610401565b5061016460043501356004811015612622576003146103fc565b8580fd5b915080916103e8565b9093506020813d60201161265b575b8161264b60209383612c11565b81010312610253575192386103dc565b3d915061263e565b90506020813d60201161268d575b8161267e60209383612c11565b8101031261019a5751386103b4565b3d9150612671565b6040513d84823e3d90fd5b80916103b7565b60405163120e97c560e21b8152602081600481865afa9081156126955782916127e9575b50604051634c0e35b160e01b815290602082600481875afa918215610ecf5783926127b5575b506001600160a01b03168015612778576020602491604051928380926370a0823160e01b82523360048301525afa908115610ecf578391612746575b50101561037c5760405163cf57495560e01b8152600490fd5b90506020813d602011612770575b8161276160209383612c11565b8101031261025357513861272d565b3d9150612754565b60405162461bcd60e51b815260206004820152601560248201527410dc99585d1bdc881d1bdad95b881b9bdd081cd95d605a1b6044820152606490fd5b9091506020813d6020116127e1575b816127d160209383612c11565b81010312610253575190386126f1565b3d91506127c4565b612802915060203d6020116110a95761109b8183612c11565b386126cb565b506128186102e460043501612c3f565b15610377565b90506020813d602011612850575b8161283960209383612c11565b8101031261019a5761284a90612c32565b38610370565b3d915061282c565b60405162461bcd60e51b815260206004820152603f60248201527f596f7572206c61737420706f6f6c20776173206372656174656420737563636560448201527f737366756c6c792c2074727920616761696e206166746572203120686f7572006064820152608490fd5b634e487b7160e01b82526011600452602482fd5b604051628b531560e01b8152600490fd5b5034610140578060031936011261014057612901612b5f565b80546001600160a01b03198116825581906001600160a01b03167f8be0079c531659141344cd1fd0a4f28419497f9722a3daafe3b4186f6b6457e08280a380f35b5034610140576020366003190112610140576020906040906001600160a01b0361296a612ad6565b168152600383522054604051908152f35b503461014057608036600319011261014057612995612ad6565b5061299e612aec565b506064356001600160401b03811161019a576129be903690600401612b02565b5050604051630a85bd0160e11b8152602090f35b5034610140576020366003190112610140576129ec612ad6565b6129f4612b5f565b6001600160a01b03168015612a3c57600180546001600160a01b031916821790557f1eed81ce21a92b04ae795cb172e51fb0f8c7f90ec3cd2dc2b4c6395d8d39456f8280a280f35b60405162461bcd60e51b815260206004820152601b60248201527f496e76616c696420506f6f6c20696d706c656d656e746174696f6e00000000006044820152606490fd5b90503461019a57602036600319011261019a5760043563ffffffff60e01b81168091036102535760209250630a85bd0160e11b8114908115612ac5575b5015158152f35b630271189760e51b14905038612abe565b600435906001600160a01b0382168203611aa057565b602435906001600160a01b0382168203611aa057565b9181601f84011215611aa0578235916001600160401b038311611aa05760208381860195010111611aa057565b9181601f84011215611aa0578235916001600160401b038311611aa0576020808501948460051b010111611aa057565b6000546001600160a01b03163303612b7357565b606460405162461bcd60e51b815260206004820152602060248201527f4f776e61626c653a2063616c6c6572206973206e6f7420746865206f776e65726044820152fd5b600080546001600160a01b039283166001600160a01b03198216811783559216907f8be0079c531659141344cd1fd0a4f28419497f9722a3daafe3b4186f6b6457e09080a3565b6001600160401b038111610ef557604052565b90601f801991011681019081106001600160401b03821117610ef557604052565b51908115158203611aa057565b358015158103611aa05790565b90816020910312611aa057516001600160a01b0381168103611aa05790565b6001600160401b038111610ef557601f01601f191660200190565b3d15612cb1573d90612c9782612c6b565b91612ca56040519384612c11565b82523d6000602084013e565b606090565b9190826040910312611aa0576020825192015190565b356001600160a01b0381168103611aa05790565b903590601e1981360301821215611aa057018035906001600160401b038211611aa057602001918136038313611aa057565b908060209392818452848401376000828201840152601f01601f1916010190565b91908260c0910312611aa057612d4882612c32565b9160208101519160408201519160608101519160a0608083015192015190565b91908203918211611f8f57565b8115612d7f570690565b634e487b7160e01b600052601260045260246000fd5b15612d9c57565b60405162461bcd60e51b815260206004820152602960248201527f5072697a6520616d6f756e74206d75737420626520646976697369626c652062604482015268792077696e6e65727360b81b6064820152608490fd5b6004821015612dff5752565b634e487b7160e01b600052602160045260246000fd5b906004821015612dff575256fea2646970667358221220fe82a802530894d759ae6b7d0647148b2558e5cd74da588794cd221b1cae454c64736f6c63430008130033",
  "linkReferences": {},
  "deployedLinkReferences": {}
}