{
  "_format": "hh-sol-artifact-1",
  "contractName": "Pool",
  "sourceName": "contracts/Pool.sol",
  "abi": [
    {
      "inputs": [
        {
          "internalType": "address",
          "name": "_factory",
          "type": "address"
        }
      ],
      "stateMutability": "nonpayable",
      "type": "constructor"
    },
    {
      "inputs": [],
      "name": "ArrayLengthMismatch",
      "type": "error"
    },
    {
      "inputs": [],
      "name": "BatchTooLarge",
      "type": "error"
    },
    {
      "inputs": [],
      "name": "ContractsCannotPurchase",
      "type": "error"
    },
    {
      "inputs": [],
      "name": "CreatorNotAllowed",
      "type": "error"
    },
    {
      "inputs": [],
      "name": "ExceedsMaxSlots",
      "type": "error"
    },
    {
      "inputs": [],
      "name": "ExceedsSlotLimit",
      "type": "error"
    },
    {
      "inputs": [],
      "name": "ExceedsWinnersCount",
      "type": "error"
    },
    {
      "inputs": [],
      "name": "IncorrectPayment",
      "type": "error"
    },
    {
      "inputs": [],
      "name": "InvalidNonPrizedPurchase",
      "type": "error"
    },
    {
      "inputs": [],
      "name": "InvalidPoolState",
      "type": "error"
    },
    {
      "inputs": [],
      "name": "InvalidPrizeAmount",
      "type": "error"
    },
    {
      "inputs": [],
      "name": "InvalidPrizeCollection",
      "type": "error"
    },
    {
      "inputs": [],
      "name": "InvalidPrizeType",
      "type": "error"
    },
    {
      "inputs": [],
      "name": "InvalidState",
      "type": "error"
    },
    {
      "inputs": [],
      "name": "InvalidWinnerAddress",
      "type": "error"
    },
    {
      "inputs": [],
      "name": "MintingNotSupported",
      "type": "error"
    },
    {
      "inputs": [],
      "name": "NoPrizesClaimedYet",
      "type": "error"
    },
    {
      "inputs": [],
      "name": "NoPrizesToClaim",
      "type": "error"
    },
    {
      "inputs": [],
      "name": "NotAWinner",
      "type": "error"
    },
    {
      "inputs": [],
      "name": "OnlyOperator",
      "type": "error"
    },
    {
      "inputs": [],
      "name": "PoolDurationElapsed",
      "type": "error"
    },
    {
      "inputs": [],
      "name": "PoolNotActive",
      "type": "error"
    },
    {
      "inputs": [],
      "name": "PrizeTransferFailed",
      "type": "error"
    },
    {
      "inputs": [],
      "name": "ProtocolAdminNotAllowed",
      "type": "error"
    },
    {
      "inputs": [],
      "name": "SocialEngagementNotConfigured",
      "type": "error"
    },
    {
      "inputs": [],
      "name": "TimestampDelayIssue",
      "type": "error"
    },
    {
      "inputs": [],
      "name": "UnauthorizedCaller",
      "type": "error"
    },
    {
      "inputs": [],
      "name": "ZeroAddress",
      "type": "error"
    },
    {
      "inputs": [],
      "name": "ZeroQuantity",
      "type": "error"
    },
    {
      "inputs": [],
      "name": "ZeroSlotFee",
      "type": "error"
    },
    {
      "anonymous": false,
      "inputs": [
        {
          "indexed": false,
          "internalType": "string",
          "name": "reason",
          "type": "string"
        }
      ],
      "name": "BatchProcessingFailed",
      "type": "event"
    },
    {
      "anonymous": false,
      "inputs": [
        {
          "indexed": false,
          "internalType": "bytes",
          "name": "lowLevelData",
          "type": "bytes"
        }
      ],
      "name": "BatchProcessingFailedBytes",
      "type": "event"
    },
    {
      "anonymous": false,
      "inputs": [
        {
          "indexed": true,
          "internalType": "address",
          "name": "winner",
          "type": "address"
        },
        {
          "indexed": false,
          "internalType": "string",
          "name": "reason",
          "type": "string"
        }
      ],
      "name": "MintingFailed",
      "type": "event"
    },
    {
      "anonymous": false,
      "inputs": [
        {
          "indexed": true,
          "internalType": "address",
          "name": "previousOwner",
          "type": "address"
        },
        {
          "indexed": true,
          "internalType": "address",
          "name": "newOwner",
          "type": "address"
        }
      ],
      "name": "OwnershipTransferred",
      "type": "event"
    },
    {
      "anonymous": false,
      "inputs": [
        {
          "indexed": false,
          "internalType": "address",
          "name": "account",
          "type": "address"
        }
      ],
      "name": "Paused",
      "type": "event"
    },
    {
      "anonymous": false,
      "inputs": [],
      "name": "PoolActivated",
      "type": "event"
    },
    {
      "anonymous": false,
      "inputs": [],
      "name": "PoolEnded",
      "type": "event"
    },
    {
      "anonymous": false,
      "inputs": [
        {
          "indexed": false,
          "internalType": "uint256",
          "name": "requestId",
          "type": "uint256"
        }
      ],
      "name": "RandomRequested",
      "type": "event"
    },
    {
      "anonymous": false,
      "inputs": [
        {
          "indexed": true,
          "internalType": "uint256",
          "name": "batchNumber",
          "type": "uint256"
        },
        {
          "indexed": false,
          "internalType": "uint256",
          "name": "participantCount",
          "type": "uint256"
        },
        {
          "indexed": false,
          "internalType": "uint256",
          "name": "shuffleStartIndex",
          "type": "uint256"
        },
        {
          "indexed": false,
          "internalType": "uint256",
          "name": "batchSize",
          "type": "uint256"
        }
      ],
      "name": "SelectionStarted",
      "type": "event"
    },
    {
      "anonymous": false,
      "inputs": [
        {
          "indexed": true,
          "internalType": "address",
          "name": "participant",
          "type": "address"
        },
        {
          "indexed": false,
          "internalType": "uint256",
          "name": "quantity",
          "type": "uint256"
        }
      ],
      "name": "SlotsPurchased",
      "type": "event"
    },
    {
      "anonymous": false,
      "inputs": [
        {
          "indexed": false,
          "internalType": "address",
          "name": "account",
          "type": "address"
        }
      ],
      "name": "Unpaused",
      "type": "event"
    },
    {
      "anonymous": false,
      "inputs": [
        {
          "indexed": false,
          "internalType": "string",
          "name": "reason",
          "type": "string"
        }
      ],
      "name": "VRFRequestFailed",
      "type": "event"
    },
    {
      "anonymous": false,
      "inputs": [
        {
          "indexed": false,
          "internalType": "bytes",
          "name": "lowLevelData",
          "type": "bytes"
        }
      ],
      "name": "VRFRequestFailedBytes",
      "type": "event"
    },
    {
      "anonymous": false,
      "inputs": [
        {
          "indexed": false,
          "internalType": "address[]",
          "name": "winners",
          "type": "address[]"
        }
      ],
      "name": "WinnersSelected",
      "type": "event"
    },
    {
      "inputs": [
        {
          "internalType": "uint256",
          "name": "batchRandomSeed",
          "type": "uint256"
        }
      ],
      "name": "_processBatchWithRandomness",
      "outputs": [],
      "stateMutability": "nonpayable",
      "type": "function"
    },
    {
      "inputs": [],
      "name": "amountPerWinner",
      "outputs": [
        {
          "internalType": "uint256",
          "name": "",
          "type": "uint256"
        }
      ],
      "stateMutability": "view",
      "type": "function"
    },
    {
      "inputs": [],
      "name": "batchCount",
      "outputs": [
        {
          "internalType": "uint256",
          "name": "",
          "type": "uint256"
        }
      ],
      "stateMutability": "view",
      "type": "function"
    },
    {
      "inputs": [
        {
          "internalType": "address[]",
          "name": "winnerAddresses",
          "type": "address[]"
        },
        {
          "internalType": "uint256[]",
          "name": "quantities",
          "type": "uint256[]"
        }
      ],
      "name": "batchMintToWinners",
      "outputs": [
        {
          "internalType": "uint256",
          "name": "successfulMints",
          "type": "uint256"
        }
      ],
      "stateMutability": "nonpayable",
      "type": "function"
    },
    {
      "inputs": [
        {
          "internalType": "uint256",
          "name": "",
          "type": "uint256"
        }
      ],
      "name": "batchRandomSeeds",
      "outputs": [
        {
          "internalType": "uint256",
          "name": "",
          "type": "uint256"
        }
      ],
      "stateMutability": "view",
      "type": "function"
    },
    {
      "inputs": [],
      "name": "claimPrize",
      "outputs": [],
      "stateMutability": "nonpayable",
      "type": "function"
    },
    {
      "inputs": [],
      "name": "claimRefund",
      "outputs": [],
      "stateMutability": "nonpayable",
      "type": "function"
    },
    {
      "inputs": [
        {
          "internalType": "address",
          "name": "",
          "type": "address"
        }
      ],
      "name": "claimedWins",
      "outputs": [
        {
          "internalType": "uint256",
          "name": "",
          "type": "uint256"
        }
      ],
      "stateMutability": "view",
      "type": "function"
    },
    {
      "inputs": [],
      "name": "closePool",
      "outputs": [],
      "stateMutability": "nonpayable",
      "type": "function"
    },
    {
      "inputs": [],
      "name": "creationFeePercentage",
      "outputs": [
        {
          "internalType": "uint256",
          "name": "",
          "type": "uint256"
        }
      ],
      "stateMutability": "view",
      "type": "function"
    },
    {
      "inputs": [],
      "name": "creator",
      "outputs": [
        {
          "internalType": "address",
          "name": "",
          "type": "address"
        }
      ],
      "stateMutability": "view",
      "type": "function"
    },
    {
      "inputs": [],
      "name": "currentBatchSize",
      "outputs": [
        {
          "internalType": "uint256",
          "name": "",
          "type": "uint256"
        }
      ],
      "stateMutability": "view",
      "type": "function"
    },
    {
      "inputs": [],
      "name": "deletePool",
      "outputs": [],
      "stateMutability": "nonpayable",
      "type": "function"
    },
    {
      "inputs": [],
      "name": "duration",
      "outputs": [
        {
          "internalType": "uint256",
          "name": "",
          "type": "uint256"
        }
      ],
      "stateMutability": "view",
      "type": "function"
    },
    {
      "inputs": [],
      "name": "endTime",
      "outputs": [
        {
          "internalType": "uint256",
          "name": "",
          "type": "uint256"
        }
      ],
      "stateMutability": "view",
      "type": "function"
    },
    {
      "inputs": [],
      "name": "erc20PrizeAmount",
      "outputs": [
        {
          "internalType": "uint256",
          "name": "",
          "type": "uint256"
        }
      ],
      "stateMutability": "view",
      "type": "function"
    },
    {
      "inputs": [],
      "name": "erc20PrizeToken",
      "outputs": [
        {
          "internalType": "address",
          "name": "",
          "type": "address"
        }
      ],
      "stateMutability": "view",
      "type": "function"
    },
    {
      "inputs": [],
      "name": "erc721EscrowClaimed",
      "outputs": [
        {
          "internalType": "bool",
          "name": "",
          "type": "bool"
        }
      ],
      "stateMutability": "view",
      "type": "function"
    },
    {
      "inputs": [],
      "name": "getParticipantsCount",
      "outputs": [
        {
          "internalType": "uint256",
          "name": "",
          "type": "uint256"
        }
      ],
      "stateMutability": "view",
      "type": "function"
    },
    {
      "inputs": [
        {
          "internalType": "address",
          "name": "participant",
          "type": "address"
        }
      ],
      "name": "getRefundableAmount",
      "outputs": [
        {
          "internalType": "uint256",
          "name": "",
          "type": "uint256"
        }
      ],
      "stateMutability": "view",
      "type": "function"
    },
    {
      "inputs": [],
      "name": "getSlotLimit",
      "outputs": [
        {
          "internalType": "uint256",
          "name": "",
          "type": "uint256"
        }
      ],
      "stateMutability": "view",
      "type": "function"
    },
    {
      "inputs": [
        {
          "internalType": "address",
          "name": "participant",
          "type": "address"
        }
      ],
      "name": "getSlotsPurchased",
      "outputs": [
        {
          "internalType": "uint256",
          "name": "",
          "type": "uint256"
        }
      ],
      "stateMutability": "view",
      "type": "function"
    },
    {
      "inputs": [
        {
          "internalType": "address",
          "name": "",
          "type": "address"
        }
      ],
      "name": "hasClaimedFeeRefund",
      "outputs": [
        {
          "internalType": "bool",
          "name": "",
          "type": "bool"
        }
      ],
      "stateMutability": "view",
      "type": "function"
    },
    {
      "inputs": [
        {
          "internalType": "address",
          "name": "",
          "type": "address"
        }
      ],
      "name": "hasCompletedSocialEngagement",
      "outputs": [
        {
          "internalType": "bool",
          "name": "",
          "type": "bool"
        }
      ],
      "stateMutability": "view",
      "type": "function"
    },
    {
      "inputs": [],
      "name": "holderData",
      "outputs": [
        {
          "internalType": "address",
          "name": "holderTokenAddress",
          "type": "address"
        },
        {
          "internalType": "enum PrizeTypes.Standard",
          "name": "holderTokenStandard",
          "type": "uint8"
        },
        {
          "internalType": "uint256",
          "name": "minHolderTokenBalance",
          "type": "uint256"
        },
        {
          "internalType": "uint256",
          "name": "holderTokenId",
          "type": "uint256"
        }
      ],
      "stateMutability": "view",
      "type": "function"
    },
    {
      "inputs": [],
      "name": "holderTokenAddress",
      "outputs": [
        {
          "internalType": "address",
          "name": "",
          "type": "address"
        }
      ],
      "stateMutability": "view",
      "type": "function"
    },
    {
      "inputs": [],
      "name": "holderTokenId",
      "outputs": [
        {
          "internalType": "uint256",
          "name": "",
          "type": "uint256"
        }
      ],
      "stateMutability": "view",
      "type": "function"
    },
    {
      "inputs": [],
      "name": "holderTokenStandard",
      "outputs": [
        {
          "internalType": "enum PrizeTypes.Standard",
          "name": "",
          "type": "uint8"
        }
      ],
      "stateMutability": "view",
      "type": "function"
    },
    {
      "inputs": [],
      "name": "i_vrfCoordinator",
      "outputs": [
        {
          "internalType": "contract VRFCoordinatorV2PlusInterface",
          "name": "",
          "type": "address"
        }
      ],
      "stateMutability": "view",
      "type": "function"
    },
    {
      "inputs": [
        {
          "components": [
            {
              "internalType": "address",
              "name": "manager",
              "type": "address"
            },
            {
              "internalType": "address",
              "name": "revenueRecipient",
              "type": "address"
            },
            {
              "internalType": "string",
              "name": "name",
              "type": "string"
            },
            {
              "internalType": "uint256",
              "name": "slotLimit",
              "type": "uint256"
            },
            {
              "internalType": "uint256",
              "name": "maxSlotsPerAddress",
              "type": "uint256"
            },
            {
              "internalType": "uint256",
              "name": "winnersCount",
              "type": "uint256"
            },
            {
              "internalType": "bool",
              "name": "isCollabPool",
              "type": "bool"
            },
            {
              "internalType": "bool",
              "name": "usesCustomFee",
              "type": "bool"
            },
            {
              "internalType": "bool",
              "name": "isExternalCollection",
              "type": "bool"
            }
          ],
          "internalType": "struct Pool.PoolConfig",
          "name": "_poolConfig",
          "type": "tuple"
        },
        {
          "components": [
            {
              "internalType": "enum PrizeTypes.Standard",
              "name": "standard",
              "type": "uint8"
            },
            {
              "internalType": "address",
              "name": "prizeCollection",
              "type": "address"
            },
            {
              "internalType": "uint256",
              "name": "prizeTokenId",
              "type": "uint256"
            },
            {
              "internalType": "uint256",
              "name": "amountPerWinner",
              "type": "uint256"
            },
            {
              "internalType": "address",
              "name": "erc20PrizeToken",
              "type": "address"
            },
            {
              "internalType": "uint256",
              "name": "erc20PrizeAmount",
              "type": "uint256"
            },
            {
              "internalType": "uint256",
              "name": "nativePrizeAmount",
              "type": "uint256"
            },
            {
              "internalType": "bool",
              "name": "isEscrowedPrize",
              "type": "bool"
            }
          ],
          "internalType": "struct Pool.PrizeConfig",
          "name": "_prizeConfig",
          "type": "tuple"
        },
        {
          "components": [
            {
              "internalType": "address",
              "name": "holderTokenAddress",
              "type": "address"
            },
            {
              "internalType": "enum PrizeTypes.Standard",
              "name": "holderTokenStandard",
              "type": "uint8"
            },
            {
              "internalType": "uint256",
              "name": "minHolderTokenBalance",
              "type": "uint256"
            },
            {
              "internalType": "uint256",
              "name": "holderTokenId",
              "type": "uint256"
            }
          ],
          "internalType": "struct Pool.HolderConfig",
          "name": "_holderConfig",
          "type": "tuple"
        },
        {
          "components": [
            {
              "internalType": "bool",
              "name": "required",
              "type": "bool"
            }
          ],
          "internalType": "struct Pool.SocialEngagementConfig",
          "name": "_socialEngagementConfig",
          "type": "tuple"
        },
        {
          "internalType": "address",
          "name": "_creator",
          "type": "address"
        },
        {
          "internalType": "uint256",
          "name": "_startTime",
          "type": "uint256"
        },
        {
          "internalType": "uint256",
          "name": "_duration",
          "type": "uint256"
        },
        {
          "internalType": "uint256",
          "name": "_slotFee",
          "type": "uint256"
        },
        {
          "internalType": "bool",
          "name": "_isPrized",
          "type": "bool"
        }
      ],
      "name": "initialize",
      "outputs": [],
      "stateMutability": "payable",
      "type": "function"
    },
    {
      "inputs": [],
      "name": "isCollabPool",
      "outputs": [
        {
          "internalType": "bool",
          "name": "",
          "type": "bool"
        }
      ],
      "stateMutability": "view",
      "type": "function"
    },
    {
      "inputs": [],
      "name": "isEscrowedPrize",
      "outputs": [
        {
          "internalType": "bool",
          "name": "",
          "type": "bool"
        }
      ],
      "stateMutability": "view",
      "type": "function"
    },
    {
      "inputs": [],
      "name": "isExternalCollection",
      "outputs": [
        {
          "internalType": "bool",
          "name": "",
          "type": "bool"
        }
      ],
      "stateMutability": "view",
      "type": "function"
    },
    {
      "inputs": [],
      "name": "isPrized",
      "outputs": [
        {
          "internalType": "bool",
          "name": "",
          "type": "bool"
        }
      ],
      "stateMutability": "view",
      "type": "function"
    },
    {
      "inputs": [],
      "name": "isRefundable",
      "outputs": [
        {
          "internalType": "bool",
          "name": "",
          "type": "bool"
        }
      ],
      "stateMutability": "view",
      "type": "function"
    },
    {
      "inputs": [],
      "name": "maxSlotsPerAddress",
      "outputs": [
        {
          "internalType": "uint256",
          "name": "",
          "type": "uint256"
        }
      ],
      "stateMutability": "view",
      "type": "function"
    },
    {
      "inputs": [],
      "name": "minHolderTokenBalance",
      "outputs": [
        {
          "internalType": "uint256",
          "name": "",
          "type": "uint256"
        }
      ],
      "stateMutability": "view",
      "type": "function"
    },
    {
      "inputs": [],
      "name": "mint",
      "outputs": [],
      "stateMutability": "nonpayable",
      "type": "function"
    },
    {
      "inputs": [],
      "name": "name",
      "outputs": [
        {
          "internalType": "string",
          "name": "",
          "type": "string"
        }
      ],
      "stateMutability": "view",
      "type": "function"
    },
    {
      "inputs": [],
      "name": "nativePrizeAmount",
      "outputs": [
        {
          "internalType": "uint256",
          "name": "",
          "type": "uint256"
        }
      ],
      "stateMutability": "view",
      "type": "function"
    },
    {
      "inputs": [
        {
          "internalType": "address",
          "name": "",
          "type": "address"
        },
        {
          "internalType": "address",
          "name": "",
          "type": "address"
        },
        {
          "internalType": "uint256[]",
          "name": "",
          "type": "uint256[]"
        },
        {
          "internalType": "uint256[]",
          "name": "",
          "type": "uint256[]"
        },
        {
          "internalType": "bytes",
          "name": "",
          "type": "bytes"
        }
      ],
      "name": "onERC1155BatchReceived",
      "outputs": [
        {
          "internalType": "bytes4",
          "name": "",
          "type": "bytes4"
        }
      ],
      "stateMutability": "pure",
      "type": "function"
    },
    {
      "inputs": [
        {
          "internalType": "address",
          "name": "",
          "type": "address"
        },
        {
          "internalType": "address",
          "name": "",
          "type": "address"
        },
        {
          "internalType": "uint256",
          "name": "",
          "type": "uint256"
        },
        {
          "internalType": "uint256",
          "name": "",
          "type": "uint256"
        },
        {
          "internalType": "bytes",
          "name": "",
          "type": "bytes"
        }
      ],
      "name": "onERC1155Received",
      "outputs": [
        {
          "internalType": "bytes4",
          "name": "",
          "type": "bytes4"
        }
      ],
      "stateMutability": "pure",
      "type": "function"
    },
    {
      "inputs": [
        {
          "internalType": "address",
          "name": "",
          "type": "address"
        },
        {
          "internalType": "address",
          "name": "",
          "type": "address"
        },
        {
          "internalType": "uint256",
          "name": "",
          "type": "uint256"
        },
        {
          "internalType": "bytes",
          "name": "",
          "type": "bytes"
        }
      ],
      "name": "onERC721Received",
      "outputs": [
        {
          "internalType": "bytes4",
          "name": "",
          "type": "bytes4"
        }
      ],
      "stateMutability": "pure",
      "type": "function"
    },
    {
      "inputs": [],
      "name": "owner",
      "outputs": [
        {
          "internalType": "address",
          "name": "",
          "type": "address"
        }
      ],
      "stateMutability": "view",
      "type": "function"
    },
    {
      "inputs": [
        {
          "internalType": "uint256",
          "name": "",
          "type": "uint256"
        }
      ],
      "name": "participants",
      "outputs": [
        {
          "internalType": "address",
          "name": "",
          "type": "address"
        }
      ],
      "stateMutability": "view",
      "type": "function"
    },
    {
      "inputs": [],
      "name": "paused",
      "outputs": [
        {
          "internalType": "bool",
          "name": "",
          "type": "bool"
        }
      ],
      "stateMutability": "view",
      "type": "function"
    },
    {
      "inputs": [],
      "name": "pendingProtocolFee",
      "outputs": [
        {
          "internalType": "uint256",
          "name": "",
          "type": "uint256"
        }
      ],
      "stateMutability": "view",
      "type": "function"
    },
    {
      "inputs": [],
      "name": "poolData",
      "outputs": [
        {
          "internalType": "string",
          "name": "name",
          "type": "string"
        },
        {
          "internalType": "uint256",
          "name": "winnersCount",
          "type": "uint256"
        },
        {
          "internalType": "uint256",
          "name": "maxSlotsPerAddress",
          "type": "uint256"
        },
        {
          "internalType": "uint256",
          "name": "slotLimit",
          "type": "uint256"
        },
        {
          "internalType": "address",
          "name": "revenueRecipient",
          "type": "address"
        },
        {
          "internalType": "bool",
          "name": "isCollabPool",
          "type": "bool"
        },
        {
          "internalType": "bool",
          "name": "usesCustomFee",
          "type": "bool"
        },
        {
          "internalType": "bool",
          "name": "isExternalCollection",
          "type": "bool"
        },
        {
          "internalType": "bool",
          "name": "isRefundable",
          "type": "bool"
        },
        {
          "internalType": "bool",
          "name": "erc721EscrowClaimed",
          "type": "bool"
        },
        {
          "internalType": "bool",
          "name": "isEscrowedPrize",
          "type": "bool"
        },
        {
          "internalType": "bool",
          "name": "wasDeletedForFullRefund",
          "type": "bool"
        },
        {
          "internalType": "bool",
          "name": "protocolFeeTaken",
          "type": "bool"
        },
        {
          "internalType": "bool",
          "name": "randomRequested",
          "type": "bool"
        },
        {
          "internalType": "bool",
          "name": "randomnessUsed",
          "type": "bool"
        },
        {
          "internalType": "bool",
          "name": "socialEngagementRequired",
          "type": "bool"
        }
      ],
      "stateMutability": "view",
      "type": "function"
    },
    {
      "inputs": [],
      "name": "poolSubscriptionId",
      "outputs": [
        {
          "internalType": "uint256",
          "name": "",
          "type": "uint256"
        }
      ],
      "stateMutability": "view",
      "type": "function"
    },
    {
      "inputs": [
        {
          "internalType": "address",
          "name": "participant",
          "type": "address"
        }
      ],
      "name": "prizeClaimed",
      "outputs": [
        {
          "internalType": "uint256",
          "name": "",
          "type": "uint256"
        }
      ],
      "stateMutability": "view",
      "type": "function"
    },
    {
      "inputs": [],
      "name": "prizeCollection",
      "outputs": [
        {
          "internalType": "address",
          "name": "",
          "type": "address"
        }
      ],
      "stateMutability": "view",
      "type": "function"
    },
    {
      "inputs": [],
      "name": "prizeData",
      "outputs": [
        {
          "internalType": "enum PrizeTypes.Standard",
          "name": "standard",
          "type": "uint8"
        },
        {
          "internalType": "address",
          "name": "prizeCollection",
          "type": "address"
        },
        {
          "internalType": "uint256",
          "name": "prizeTokenId",
          "type": "uint256"
        },
        {
          "internalType": "uint256",
          "name": "amountPerWinner",
          "type": "uint256"
        },
        {
          "internalType": "address",
          "name": "erc20PrizeToken",
          "type": "address"
        },
        {
          "internalType": "uint256",
          "name": "erc20PrizeAmount",
          "type": "uint256"
        },
        {
          "internalType": "uint256",
          "name": "nativePrizeAmount",
          "type": "uint256"
        },
        {
          "internalType": "uint256",
          "name": "prizesClaimedCount",
          "type": "uint256"
        }
      ],
      "stateMutability": "view",
      "type": "function"
    },
    {
      "inputs": [],
      "name": "prizeTokenId",
      "outputs": [
        {
          "internalType": "uint256",
          "name": "",
          "type": "uint256"
        }
      ],
      "stateMutability": "view",
      "type": "function"
    },
    {
      "inputs": [],
      "name": "prizesClaimedCount",
      "outputs": [
        {
          "internalType": "uint256",
          "name": "",
          "type": "uint256"
        }
      ],
      "stateMutability": "view",
      "type": "function"
    },
    {
      "inputs": [],
      "name": "protocolFeePercentage",
      "outputs": [
        {
          "internalType": "uint256",
          "name": "",
          "type": "uint256"
        }
      ],
      "stateMutability": "view",
      "type": "function"
    },
    {
      "inputs": [],
      "name": "protocolFeeTaken",
      "outputs": [
        {
          "internalType": "bool",
          "name": "",
          "type": "bool"
        }
      ],
      "stateMutability": "view",
      "type": "function"
    },
    {
      "inputs": [
        {
          "internalType": "uint256",
          "name": "quantity",
          "type": "uint256"
        },
        {
          "internalType": "uint256",
          "name": "_deadline",
          "type": "uint256"
        },
        {
          "internalType": "bytes",
          "name": "_signature",
          "type": "bytes"
        },
        {
          "internalType": "uint256[]",
          "name": "_tokenIds",
          "type": "uint256[]"
        }
      ],
      "name": "purchaseSlots",
      "outputs": [],
      "stateMutability": "payable",
      "type": "function"
    },
    {
      "inputs": [],
      "name": "randomRequested",
      "outputs": [
        {
          "internalType": "bool",
          "name": "",
          "type": "bool"
        }
      ],
      "stateMutability": "view",
      "type": "function"
    },
    {
      "inputs": [],
      "name": "randomSeed",
      "outputs": [
        {
          "internalType": "uint256",
          "name": "",
          "type": "uint256"
        }
      ],
      "stateMutability": "view",
      "type": "function"
    },
    {
      "inputs": [],
      "name": "randomnessUsed",
      "outputs": [
        {
          "internalType": "bool",
          "name": "",
          "type": "bool"
        }
      ],
      "stateMutability": "view",
      "type": "function"
    },
    {
      "inputs": [
        {
          "internalType": "uint256",
          "name": "requestId",
          "type": "uint256"
        },
        {
          "internalType": "uint256[]",
          "name": "randomWords",
          "type": "uint256[]"
        }
      ],
      "name": "rawFulfillRandomWords",
      "outputs": [],
      "stateMutability": "nonpayable",
      "type": "function"
    },
    {
      "inputs": [
        {
          "internalType": "address",
          "name": "",
          "type": "address"
        }
      ],
      "name": "refundableAmount",
      "outputs": [
        {
          "internalType": "uint256",
          "name": "",
          "type": "uint256"
        }
      ],
      "stateMutability": "view",
      "type": "function"
    },
    {
      "inputs": [
        {
          "internalType": "address",
          "name": "",
          "type": "address"
        }
      ],
      "name": "refundedNonWinningSlots",
      "outputs": [
        {
          "internalType": "uint256",
          "name": "",
          "type": "uint256"
        }
      ],
      "stateMutability": "view",
      "type": "function"
    },
    {
      "inputs": [],
      "name": "renounceOwnership",
      "outputs": [],
      "stateMutability": "nonpayable",
      "type": "function"
    },
    {
      "inputs": [],
      "name": "requestRandomness",
      "outputs": [],
      "stateMutability": "nonpayable",
      "type": "function"
    },
    {
      "inputs": [],
      "name": "revenueData",
      "outputs": [
        {
          "internalType": "uint256",
          "name": "protocolFeePercentage",
          "type": "uint256"
        },
        {
          "internalType": "uint256",
          "name": "creationFeePercentage",
          "type": "uint256"
        },
        {
          "internalType": "uint256",
          "name": "totalCreatorRevenue",
          "type": "uint256"
        },
        {
          "internalType": "uint256",
          "name": "totalRefundableAmount",
          "type": "uint256"
        },
        {
          "internalType": "uint256",
          "name": "totalGlobalFeeRevenue",
          "type": "uint256"
        },
        {
          "internalType": "uint256",
          "name": "pendingProtocolFee",
          "type": "uint256"
        }
      ],
      "stateMutability": "view",
      "type": "function"
    },
    {
      "inputs": [],
      "name": "revenueRecipient",
      "outputs": [
        {
          "internalType": "address",
          "name": "",
          "type": "address"
        }
      ],
      "stateMutability": "view",
      "type": "function"
    },
    {
      "inputs": [],
      "name": "s_vrf_lastRequestId",
      "outputs": [
        {
          "internalType": "uint256",
          "name": "",
          "type": "uint256"
        }
      ],
      "stateMutability": "view",
      "type": "function"
    },
    {
      "inputs": [],
      "name": "shuffleStartIndex",
      "outputs": [
        {
          "internalType": "uint256",
          "name": "",
          "type": "uint256"
        }
      ],
      "stateMutability": "view",
      "type": "function"
    },
    {
      "inputs": [],
      "name": "slotFee",
      "outputs": [
        {
          "internalType": "uint256",
          "name": "",
          "type": "uint256"
        }
      ],
      "stateMutability": "view",
      "type": "function"
    },
    {
      "inputs": [],
      "name": "slotLimit",
      "outputs": [
        {
          "internalType": "uint256",
          "name": "",
          "type": "uint256"
        }
      ],
      "stateMutability": "view",
      "type": "function"
    },
    {
      "inputs": [
        {
          "internalType": "address",
          "name": "",
          "type": "address"
        }
      ],
      "name": "slotsPurchased",
      "outputs": [
        {
          "internalType": "uint256",
          "name": "",
          "type": "uint256"
        }
      ],
      "stateMutability": "view",
      "type": "function"
    },
    {
      "inputs": [],
      "name": "socialEngagementRequired",
      "outputs": [
        {
          "internalType": "bool",
          "name": "",
          "type": "bool"
        }
      ],
      "stateMutability": "view",
      "type": "function"
    },
    {
      "inputs": [],
      "name": "standard",
      "outputs": [
        {
          "internalType": "enum PrizeTypes.Standard",
          "name": "",
          "type": "uint8"
        }
      ],
      "stateMutability": "view",
      "type": "function"
    },
    {
      "inputs": [],
      "name": "startTime",
      "outputs": [
        {
          "internalType": "uint256",
          "name": "",
          "type": "uint256"
        }
      ],
      "stateMutability": "view",
      "type": "function"
    },
    {
      "inputs": [],
      "name": "state",
      "outputs": [
        {
          "internalType": "enum IPool.PoolState",
          "name": "",
          "type": "uint8"
        }
      ],
      "stateMutability": "view",
      "type": "function"
    },
    {
      "inputs": [
        {
          "internalType": "bytes4",
          "name": "interfaceId",
          "type": "bytes4"
        }
      ],
      "name": "supportsInterface",
      "outputs": [
        {
          "internalType": "bool",
          "name": "",
          "type": "bool"
        }
      ],
      "stateMutability": "view",
      "type": "function"
    },
    {
      "inputs": [
        {
          "internalType": "uint256",
          "name": "",
          "type": "uint256"
        }
      ],
      "name": "tokenIdClaimedBy",
      "outputs": [
        {
          "internalType": "address",
          "name": "",
          "type": "address"
        }
      ],
      "stateMutability": "view",
      "type": "function"
    },
    {
      "inputs": [],
      "name": "totalCreatorRevenue",
      "outputs": [
        {
          "internalType": "uint256",
          "name": "",
          "type": "uint256"
        }
      ],
      "stateMutability": "view",
      "type": "function"
    },
    {
      "inputs": [],
      "name": "totalGlobalFeeRevenue",
      "outputs": [
        {
          "internalType": "uint256",
          "name": "",
          "type": "uint256"
        }
      ],
      "stateMutability": "view",
      "type": "function"
    },
    {
      "inputs": [],
      "name": "totalRefundableAmount",
      "outputs": [
        {
          "internalType": "uint256",
          "name": "",
          "type": "uint256"
        }
      ],
      "stateMutability": "view",
      "type": "function"
    },
    {
      "inputs": [
        {
          "internalType": "address",
          "name": "newOwner",
          "type": "address"
        }
      ],
      "name": "transferOwnership",
      "outputs": [],
      "stateMutability": "nonpayable",
      "type": "function"
    },
    {
      "inputs": [],
      "name": "usesCustomFee",
      "outputs": [
        {
          "internalType": "bool",
          "name": "",
          "type": "bool"
        }
      ],
      "stateMutability": "view",
      "type": "function"
    },
    {
      "inputs": [],
      "name": "wasDeletedForFullRefund",
      "outputs": [
        {
          "internalType": "bool",
          "name": "",
          "type": "bool"
        }
      ],
      "stateMutability": "view",
      "type": "function"
    },
    {
      "inputs": [
        {
          "internalType": "uint256",
          "name": "",
          "type": "uint256"
        }
      ],
      "name": "winners",
      "outputs": [
        {
          "internalType": "address",
          "name": "",
          "type": "address"
        }
      ],
      "stateMutability": "view",
      "type": "function"
    },
    {
      "inputs": [],
      "name": "winnersCount",
      "outputs": [
        {
          "internalType": "uint256",
          "name": "",
          "type": "uint256"
        }
      ],
      "stateMutability": "view",
      "type": "function"
    },
    {
      "inputs": [],
      "name": "winnersSelected",
      "outputs": [
        {
          "internalType": "uint256",
          "name": "",
          "type": "uint256"
        }
      ],
      "stateMutability": "view",
      "type": "function"
    },
    {
      "inputs": [
        {
          "internalType": "address",
          "name": "",
          "type": "address"
        }
      ],
      "name": "winsPerAddress",
      "outputs": [
        {
          "internalType": "uint256",
          "name": "",
          "type": "uint256"
        }
      ],
      "stateMutability": "view",
      "type": "function"
    },
    {
      "inputs": [],
      "name": "withdrawCreatorRevenue",
      "outputs": [],
      "stateMutability": "nonpayable",
      "type": "function"
    },
    {
      "inputs": [],
      "name": "withdrawProtocolRevenue",
      "outputs": [],
      "stateMutability": "nonpayable",
      "type": "function"
    }
  ],
  "bytecode": "0x60a034620000bb57601f62005f5b38819003918201601f19168301916001600160401b03831184841017620000c057808492602094604052833981010312620000bb57516001600160a01b03908181168103620000bb576000543360018060a01b0319821617600055604051923391167f8be0079c531659141344cd1fd0a4f28419497f9722a3daafe3b4186f6b6457e0600080a36001805560ff1960025416600255608052615e849081620000d7823960805181610e470152f35b600080fd5b634e487b7160e01b600052604160045260246000fdfe608080604052600436101561001357600080fd5b600090813560e01c90816301ffc9a71461404e5750806302d05d3f146140255780630631c5c21461400757806306f1305614613fe957806306fdde0314613f1257806308521974146139485780630aa00e7014613ef45780630b747d9114613ed65780630b78824b14613eb85780630e4fa15814613e925780630fb5a6b414613e745780631249c58b14613b23578063128f4ba414613b05578063150b7a0214613aae5780631ae25dd014613a5f5780631fe543e31461398157806325444fa4146139485780632c1fecfe146139225780633197cbb614613900578063321679fa146138e2578063327bb1ad1461385557806335c1d349146138115780633b26314d146137e8578063400214341461343057806342b72afa146133f757806344a90986146133d957806348a3a450146133b357806349713811146133955780634e3ff460146133565780634f7f0fc0146133175780635755248e146132f95780635a3b7e42146132d35780635c975abb146132b05780635f369a321461290257806366805de5146128e9578063677375c3146128cb578063683d1936146128a5578063696917ba1461287f5780636e61a1601461285957806370740ac91461281f578063715018a6146127c5578063718406291461212e578063740e21981461210257806378e97925146120e4578063813e88b9146120c6578063837d1128146120a057806387213c351461207a5780638778d82c14612051578063888dc19814612033578063898b36db146120155780638bc5328514611ff75780638bfbbcbe14611fde5780638d7fe47814611fb85780638da5cb5b14611f915780638e50e50914611f7357806394f5c9dc14611f2b5780639ed5c1cc14611f02578063a177ec0914611ed7578063a2fb117514611e7b578063a67d0e6c14611e5d578063ae4b82c114611e33578063aebc455014611e06578063af78ed0a14611de8578063b0b606c014611db5578063b15825ae14611d8f578063b5545a3c146116f5578063b5ad84121461156a578063ba352ac414610bd3578063bc197c8114610b47578063c19d93fb14610b04578063c2e784bd14610ae6578063c3fa0e3b14610ac8578063c58fe16214610aaa578063cabfaa1814610a8c578063cc7d49ec14610a66578063d0d11ae814610a48578063d17d135914610a0f578063d447e9bc14610993578063d91043f2146109f1578063dbb832bd146109cb578063dc8a55c214610993578063e511a11b1461095a578063e6f12cf71461093c578063f23a6e61146108e5578063f2fde38b14610857578063f8413b07146106dc578063fb687df4146106af578063fd22b17c14610609578063fd75a1f1146105985763fee151ae146103ff57600080fd5b346105955780600319360112610595576040516000600a546104208161426c565b8084529060019081811690811561056e5750600114610525575b61046b8461044a81860382614223565b600b54600c54600d54600e54916040519586956102008088528701906140a3565b9360208601526040850152606084015260018060a01b038116608084015260ff90818160a01c16151560a0850152818160a81c16151560c0850152818160b01c16151560e0850152818160b81c161515610100850152818160c01c161515610120850152818160c81c161515610140850152818160d01c161515610160850152818160d81c161515610180850152818160e01c1615156101a0850152818160e81c1615156101c085015260f01c1615156101e08301520390f35b600a60009081529250600080516020615e0f8339815191525b82841061055657505050810160200161044a8261043a565b8054602085870181019190915290930192810161053e565b60ff191660208087019190915292151560051b8501909201925061044a915083905061043a565b80fd5b5034610595578060031936011261059557610100600f546010546011549060018060a01b03918260125416601354916014549360155495604051976105e08960ff8316614150565b60081c16602088015260408701526060860152608085015260a084015260c083015260e0820152f35b503461059557806003193601126105955780546040516336b87bd760e11b815233600482015290602090829060249082906001600160a01b03165afa9081156106a4578291610676575b5015610664576106616157bd565b80f35b6040516327e1f1e560e01b8152600490fd5b610697915060203d811161069d575b61068f8183614223565b810190614729565b38610653565b503d610685565b6040513d84823e3d90fd5b5034610595578060031936011261059557600f5460405160089190911c6001600160a01b03168152602090f35b50346105955780600319360112610595576106fc60065460075490614345565b42101561084a575b600654600754906107206107188383614345565b42101561442c565b6008549060ff8260a81c166008811015610836576002811490811561082b575b508061081e575b1561081a57602654600b541161081a57602b54159283610800575b50506001600160a01b0316331480156107eb575b156107e75760ff600e5460e01c166107a257610795575b61066161509a565b61079d615984565b61078d565b60405162461bcd60e51b815260206004820152601960248201527f5265717565737420616c726561647920696e20666c69676874000000000000006044820152606490fd5b5080fd5b50338252602860205260408220541515610776565b61080991614345565b4210610816573880610762565b8280fd5b8380fd5b50602b54600b5411610747565b600391501438610740565b634e487b7160e01b85526021600452602485fd5b6108526154c4565b610704565b5034610595576020366003190112610595576108716140e3565b6108796142a6565b6001600160a01b0381161561089157610661906142fe565b60405162461bcd60e51b815260206004820152602660248201527f4f776e61626c653a206e6577206f776e657220697320746865207a65726f206160448201526564647265737360d01b6064820152608490fd5b50346105955760a0366003190112610595576108ff6140e3565b506109086140f9565b506084356001600160401b0381116107e757610928903690600401614123565b505060405163f23a6e6160e01b8152602090f35b50346105955780600319360112610595576020601d54604051908152f35b5034610595576020366003190112610595576020906040906001600160a01b036109826140e3565b168152602383522054604051908152f35b5034610595576020366003190112610595576020906040906001600160a01b036109bb6140e3565b1681528280522054604051908152f35b5034610595578060031936011261059557602060ff600e5460d81c166040519015158152f35b50346105955780600319360112610595576020601a54604051908152f35b5034610595576020366003190112610595576020906040906001600160a01b03610a376140e3565b168152601f83522054604051908152f35b50346105955780600319360112610595576020601454604051908152f35b5034610595578060031936011261059557602060ff600e5460d01c166040519015158152f35b50346105955780600319360112610595576020602654604051908152f35b50346105955780600319360112610595576020600c54604051908152f35b50346105955780600319360112610595576020601e54604051908152f35b50346105955780600319360112610595576020600454604051908152f35b503461059557806003193601126105955760ff60085460a81c16604051906008811015610b3357602092508152f35b634e487b7160e01b83526021600452602483fd5b50346105955760a036600319011261059557610b616140e3565b50610b6a6140f9565b506001600160401b0360443581811161081657610b8b903690600401614173565b505060643581811161081657610ba5903690600401614173565b50506084359081116107e757610bbf903690600401614123565b505060405163bc197c8160e01b8152602090f35b50600319610260368201126107e7576004356001600160401b0381116108165761012080928236030112610816576040519182018281106001600160401b0382111761155457604052610c288160040161410f565b8252610c366024820161410f565b602083015260448101356001600160401b03811161081a578101903660238301121561081a57600482013590610c6b82614244565b610c786040519182614223565b82815285366024858701011161059557602084610104956024610ce9980183860137830101526040850152606481013560608501526084810135608085015260a481013560a0850152610ccd60c4820161425f565b60c0850152610cde60e4820161425f565b60e08501520161425f565b6101008201526101006023193601126107e75760405161010081018181106001600160401b0382111761155457604052600460243510156108165760243581526044356001600160a01b03811690036112ff5760443560208201526064356040820152608435606082015260a4356001600160a01b03811681036112ff57608082015260c43560a082015260e43560c08201526101043580151581036112ff5760e0820152608036610123190112610816576040518060808101106001600160401b036080830111176115545760808101604052610124356001600160a01b03811681036112ff578152600461014435101561081a5761014435602082015261016435604082015261018435606082015260206101a31936011261081a57604051610e13816141ed565b6101a43580151581036112ff5781526101c4356001600160a01b03811690036112ff5761024435151561024435036112ff577f00000000000000000000000000000000000000000000000000000000000000006001600160a01b031633036115505784546001600160a01b03166115505783516001600160a01b031693610e99856142fe565b600880546001600160a01b031981166101c4356001600160a01b03161790915560405163ec644ddd60e01b815260a0816004818a5afa908115611545578891611512575b50604051630425172560e31b81523060048201526020816024818b5afa90811561130c5789916114e0575b5060035560028054610100600160a81b031916600892831b610100600160a81b0316179055610224356005556101e4356006556102043560075561024435151560a01b60ff60a01b166001600160b01b03199092166101c4356001600160a01b03161791909117905560408101518051906001600160401b0382116114cc578190610f94600a5461426c565b601f811161145a575b50602090601f83116001146113e45789926113d9575b50508160011b916000199060031b1c191617600a555b60a0810151600b556080810151600c556060810151600d5560208101516001600160a01b031680156113ce57935b600e805460c084015160e0850151610100909501519551600167ff0000000000000160b81b031983166001600160a01b038a161791151560a01b60ff60a01b1691821795151560a81b60ff60a81b1695861796151560b01b60ff60b01b1696871790151560f01b60ff60f01b16908117909355835192969093919260048110156113ba57600f5460ff610100600160a81b03602086015160081b169216906affffffffffffffffffffff60a81b161717600f556040820151601055606082015160115560018060a01b036080830151166bffffffffffffffffffffffff60a01b601254161760125560a082015160135560c08201516014558960155560018060a01b0381511680611361575b505060408051631a35245160e31b815290816004818c5afa8015611356578a918b91611317575b50601a55601955604051636f6f8c5d60e01b815297602090899060049082905afa97881561130c5789986112d3575b5060c08101511561122d5750505050505050610224350361059557600e805460ff60c81b1916600160c81b1790555b60ff60085460a01c168061121e575b156111e457600b54600e805460ff60b81b1916600190921160b81b60ff60b81b169190911790555b65ffffffff00ff60c01b19600e5416600e5580601b5580601c5580601d5580601e5580f35b600e5460ff8160a81c161560001461120f5750600e805460ff60b81b1916600160b81b1790556111bf565b60ff60b81b1916600e556111bf565b5060ff600e5460a81c16611197565b60808101516001600160a01b0316156112685750505050505050610224350361059557600e805460ff60c81b1916600160c81b179055611188565b909192939495965060018060a01b0360208201511661128e575b50505050505050611188565b60e0015160ff60c81b90151560c81b166001600160a01b0396909616600167ff00000000ff000160b81b031991909116171717171717600e5538808080808080611282565b9097506020813d602011611304575b816112ef60209383614223565b810103126112ff57519638611159565b600080fd5b3d91506112e2565b6040513d8b823e3d90fd5b9150506040813d60401161134e575b8161133360409383614223565b8101031261134a578051602091820151909161112a565b8980fd5b3d9150611326565b6040513d8c823e3d90fd5b60165490602083015160048110156113a6576001600160a81b03199092161760a09190911b60ff60a01b16176016556040810151601755606001516018553880611103565b634e487b7160e01b8d52602160045260248dfd5b634e487b7160e01b8b52602160045260248bfd5b506101c43593610ff7565b015190503880610fb3565b9250600a8952600080516020615e0f8339815191529089935b601f198416851061143f576001945083601f19811610611426575b505050811b01600a55610fc9565b015160001960f88460031b161c19169055388080611418565b818101518355602094850194600190930192909101906113fd565b909150600a8952601f830160051c600080516020615e0f83398151915201602084106114b7575b908392915b601f820160051c600080516020615e0f8339815191520181106114a95750610f9d565b8a8155849350600101611486565b50600080516020615e0f833981519152611481565b634e487b7160e01b88526041600452602488fd5b90506020813d60201161150a575b816114fb60209383614223565b810103126112ff575138610f08565b3d91506114ee565b611534915060a03d60a01161153e575b61152c8183614223565b81019061437c565b5050505038610edd565b503d611522565b6040513d8a823e3d90fd5b8480fd5b634e487b7160e01b600052604160045260246000fd5b50346105955780600319360112610595576115836143d6565b600e546001600160a01b0390818116903382900361081a5760ff60085460a81c1690600882101561083657908492916005821461081a576007821461081a5760b01c60ff16156116d55760069192500361169a5782905b601b548015610816578280929181926116106116066127106115fe601a54866143c3565b048094614941565b9284601b55615a15565b5af161161a614543565b50156107e757602060249183541660405192838092630425172560e31b82523060048301525afa9081156106a4578291611669575b5061165c575b6001805580f35b611664615927565b611655565b90506020813d8211611692575b8161168360209383614223565b810103126112ff57513861164f565b3d9150611676565b60405162461bcd60e51b815260206004820152601360248201527210d85b9b9bdd081dda5d1a191c985dc81e595d606a1b6044820152606490fd5b600481149081156116ea575b506115da575080fd5b6006915014386116e1565b503461059557806003193601126105955761170e6143d6565b60085460ff90818160a81c16906008821015908161083657600483148015611d81575b828115611d71575b8115611d61575b5015611d1c5760018060a01b0385541692600e5492858460d01c166000146118fc5750505050338352602091602283528060408520541661081a576028835260408420541561081a578060085460a01c1690816118ed575b50156118985733835260288252828080806117ba6040822054600554906143c3565b338083526022885260408320805460ff191660011790555af16117db614543565b501561185a578160249160405192838092630425172560e31b82523060048301525afa91821561184f578392611821575b5050611819576001805580f35b6116646159d2565b90809250813d8311611848575b6118388183614223565b810103126112ff5751388061180c565b503d61182e565b6040513d85823e3d90fd5b60405162461bcd60e51b81526004810183905260166024820152751499599d5b99081d1c985b9cd9995c8819985a5b195960521b6044820152606490fd5b60405162461bcd60e51b815260048101839052602760248201527f526566756e6473206e6f7420706f737369626c6520666f72207468697320706f6044820152666f6c207479706560c81b6064820152608490fd5b9050600e5460a81c1638611798565b611d085785939291906007036119c257505050903382526022602052806040832054166119bf576028602052604082205480156119995760055461193f916143c3565b90600e5460a81c1660001461199d57601b54908082106119995782816119688294938394614941565b601b555b33808352602260205260408320805460ff191660011790555af161198e614543565b501561059557611655565b5050fd5b601d54908082106119995782816119b78294938394614941565b601d5561196c565b50fd5b849192935060a01c1680611cfc575b80611cf0575b80611ce5575b15611b6f57509050338252602090602882526040832054601f83526040842054906023845260408520549082811180611b5d575b15611b5957611a2892611a2391614941565b614941565b6005546019549061271091820390828211611b455791611a4d611a54928895946143c3565b04826143c3565b90601c5480831161081a5782849392611a6f85948594614941565b601c5533835260238852611a8860408420918254614345565b9055335af1611a95614543565b50156108165782601e54611b35575b1580611b2b575b611ab7575b5050611655565b8160249160405192838092630425172560e31b82523060048301525afa91821561184f578392611afd575b5050611af0575b3880611ab0565b611af8615927565b611ae9565b90809250813d8311611b24575b611b148183614223565b810103126112ff57513880611ae2565b503d611b0a565b50601e5415611aab565b50611b3e6157bd565b6001611aa4565b634e487b7160e01b87526011600452602487fd5b8580fd5b50611b688382614941565b8210611a11565b60a81c821615611b80575050611655565b3383526020916028835260408420541561081a57602283526040842054166108165760288252611bb76040842054600554906143c3565b611f4090818102918183041490151715611cd157612710849104601d5490808210610816578281611beb8294938394614941565b601d55338083526022885260408320805460ff191660011790555af1611c0f614543565b50156108165760095480611c2c5750505060016009553880611ab0565b60018103611c4957505050611c3f6157bd565b6002600955611ae9565b600214611c58575b5050611ae9565b8160249160405192838092630425172560e31b82523060048301525afa91821561184f578392611ca3575b5050611c96575b60036009553880611c51565b611c9e615927565b611c8a565b90809250813d8311611cca575b611cba8183614223565b810103126112ff57513880611c83565b503d611cb0565b634e487b7160e01b84526011600452602484fd5b50601c5415156119dd565b50828160b81c166119d7565b50828160a81c166119d1565b634e487b7160e01b86526021600452602486fd5b60405162461bcd60e51b815260206004820152601e60248201527f506f6f6c206e6f7420696e206120726566756e6461626c6520737461746500006044820152606490fd5b9050610836576007831482611740565b9050610836576005831482611739565b506000915060068314611731565b5034610595578060031936011261059557602060ff600e5460b01c166040519015158152f35b503461059557602036600319011261059557602090600435815260248252604060018060a01b0391205416604051908152f35b50346105955780600319360112610595576020601b54604051908152f35b503461059557806003193601126105955760025460405160089190911c6001600160a01b03168152602090f35b50346105955760203660031901126105955760406020916004358152602d83522054604051908152f35b50346105955780600319360112610595576020600554604051908152f35b5034610595576020366003190112610595576004356027548110156107e75760276000527f98a476f1687bc3d60a2da2adbcba2c46958e61fa2fb4042cd7bc5816a710195b01546040516001600160a01b039091168152602090f35b5034610595578060031936011261059557602060ff60165460a01c16611f006040518092614150565bf35b50346105955780600319360112610595576012546040516001600160a01b039091168152602090f35b503461059557806003193601126105955760c0601954601a54601b54601c54601d5491601e5493604051958652602086015260408501526060840152608083015260a0820152f35b50346105955780600319360112610595576020601954604051908152f35b5034610595578060031936011261059557546040516001600160a01b039091168152602090f35b5034610595578060031936011261059557602060ff600e5460e01c166040519015158152f35b5034610595578060031936011261059557610661614e18565b50346105955780600319360112610595576020602b54604051908152f35b50346105955780600319360112610595576020600d54604051908152f35b50346105955780600319360112610595576020601554604051908152f35b50346105955780600319360112610595576016546040516001600160a01b039091168152602090f35b5034610595578060031936011261059557602060ff600e5460f01c166040519015158152f35b5034610595578060031936011261059557602060ff600e5460a81c166040519015158152f35b50346105955780600319360112610595576020601154604051908152f35b50346105955780600319360112610595576020600654604051908152f35b50346105955760203660031901126105955760206121266121216140e3565b61494e565b604051908152f35b5034610595576040366003190112610595576001600160401b03906004358281116107e757612161903690600401614173565b9190926024359081116107e75761217c903690600401614173565b93906121866143d6565b60085460ff8160a81c1660088110156108365760040361081a5785850361081a57841561081a576032851161081a576001600160a01b039081163303612688575b600f5493818560081c169485156126765760ff600e5460c81c166125ec5760ff1681805b88821061261257505060048110156125fe578061244057508096815b8781106122c2575050505050505061222a602092612223615e01565b8092614941565b8061223d575b5060018055604051908152f35b6122b97fbcd905a8eb4cc473497e2cd24cf41334ea7fad80c354380f8fff04a025b1e5f891604051907402130ba31b41031b7b6b83632ba32b2103bb4ba341605d1b86830152603582015268206661696c7572657360b81b6055820152603e81526122a781614208565b604051918291868352868301906140a3565b0390a138612230565b6122d56122d0828a89614bfb565b614c0b565b6122e0828488614bfb565b35883b15611550576040516340c10f1960e01b81526001600160a01b038316600482015260248101829052858082604481838f5af1918261242c575b50506123f0575090600191826123306144b4565b6308c379a0146123a7575b612348575b505b01612207565b612350614543565b50600080516020615e2f833981519152866040519216918061239e816060906020815260176020820152762637bb96b632bb32b61036b4b73a34b7339032b93937b960491b60408201520190565b0390a238612340565b6123af6144d2565b806123bb575b5061233b565b90508590600080516020615e2f833981519152604051806123e76020948583528c8816958301906140a3565b0390a2386123b5565b996001929a86612426931686526020805260408620612410828254614345565b905561241f6015918254614345565b905561508b565b98612342565b612435906141da565b611b5957853861231c565b6001959086036125ec578197825b88811061246b57505050505050505061222a602092612223615e01565b6124796122d0828b8a614bfb565b612484828489614bfb565b35612491601154826143c3565b601054863b156125e857604051630ab714fb60e11b81526001600160a01b038516600482015260248101919091526044810191909152868082606481838b5af191826125d0575b50506125ab5750908891826124eb6144b4565b6308c379a014612562575b612503575b505b0161244e565b61250b614543565b50600080516020615e2f8339815191528760405192169180612559816060906020815260176020820152762637bb96b632bb32b61036b4b73a34b7339032b93937b960491b60408201520190565b0390a2386124fb565b61256a6144d2565b80612576575b506124f6565b90508690600080516020615e2f833981519152604051806125a26020948583528d8816958301906140a3565b0390a238612570565b9a89929b876125ca931687526020805260408720612410828254614345565b996124fd565b6125d9906141da565b6125e45786386124d8565b8680fd5b8780fd5b60405163fd34e50560e01b8152600490fd5b634e487b7160e01b82526021600452602482fd5b846126216122d0848c8b614bfb565b168085526126416020601f81526040872054908052604087205490614941565b901561155057801561155057612658838c89614bfb565b351161081a5760019061266c838c89614bfb565b35019101906121eb565b60405163424ca23960e01b8152600490fd5b83600f5460ff811660048110156127b1578392919080612733575060209150600460405180948193638da5cb5b60e01b835260081c165afa9081156127285790829186916126ed575b505b163303156121c757604051635c427cd960e01b8152600490fd5b9150506020813d8211612720575b8161270860209383614223565b810103126115505761271a8291614368565b386126d1565b3d91506126fb565b6040513d87823e3d90fd5b600114612741575b506126d3565b60209150600460405180948193638da5cb5b60e01b835260081c165afa908115612728579082918691612776575b503861273b565b9150506020813d82116127a9575b8161279160209383614223565b81010312611550576127a38291614368565b3861276f565b3d9150612784565b634e487b7160e01b87526021600452602487fd5b50346105955780600319360112610595576127de6142a6565b600080546001600160a01b0319811682556001600160a01b03167f8be0079c531659141344cd1fd0a4f28419497f9722a3daafe3b4186f6b6457e08280a380f35b50346105955780600319360112610595576128386143d6565b60ff60085460a81c1660088110156125fe5760040361059557611655614741565b5034610595578060031936011261059557602060ff600e5460c01c166040519015158152f35b5034610595578060031936011261059557602060ff600e5460c81c166040519015158152f35b5034610595578060031936011261059557602060ff60085460a01c166040519015158152f35b50346105955780600319360112610595576020601c54604051908152f35b5034610595578060031936011261059557610661614c1f565b506080366003190112610595576001600160401b036044358181116108165761292f903690600401614123565b9160643590811161081a57612948903690600401614173565b9290916129536143d6565b60085460ff90818160a81c166008811015613248571561326d575b5033320361325c57600854818160a81c169560088710156132485760018097036132365733156132245760043595861561321257600554801561320057876129b5916143c3565b34036131ee57600654946129cb60075487614345565b4210156131dc576026956129e0898854614345565b600d54106131ca5742106131b857338a5260209660288852612a068960408d2054614345565b600c54106131a657858560a01c161580613173575b613161578a54604051638da5cb5b60e01b81526001600160a01b039691871691908d908b81600481875afa9081156106a457899291613129575b50163314613117578616331461310657888c8880600e5460f01c1691826130ef575b5050612fcf575b505050506016918254858582169182612b6f575b505050505050503386526028835260408620848154019055855b848110612b2a5750907ffd1903a7f9f31de6cf38a88eda98ae029aeba3b2ec48a599d7c0d900f0f335cb9291600e5460a81c1615600014612b1d5734601d5401601d555b54600d5414612b08575b6040519283523392a2805580f35b612b10615984565b612b1861509a565b612afa565b34601b5401601b55612af0565b825490600160401b82101561155457612b69612b4b838980950187556141a3565b81546001600160a01b0360039290921b91821b19163390911b179055565b01612aac565b60a01c166004811015612fbb57889080612ea9575050508015612e6f57889060178054838114600014612ccf57505010612cc457858360249235935416604051928380926331a9108f60e11b82528660048301525afa90811561130c578991612c96575b5082339116036125e85780885260248552816040892054168015908115612c8c575b5015612c35578752602484526040872090815490811615612c20575b50505b38808080808581612a92565b6001600160a01b031916331790553880612c11565b60405162461bcd60e51b815260048101869052602960248201527f546f6b656e20494420616c726561647920626f756e6420746f20616e6f74686560448201526872206164647265737360b81b6064820152608490fd5b9050331438612bf5565b90508581813d8311612cc8575b612cad8183614223565b81010312612cc457612cbe90614368565b38612bd3565b8880fd5b503d612ca3565b909193928111600014612e6b57808410612e6b57908a95949392918c5b818110612dfd5750508b955b612d08575b505050505050612c14565b8054861015612df85788612d1d878585614bfb565b358d87875416604051938480926331a9108f60e11b825285600483015260249687915afa918215612dec5791612db7575b508733911603612db3578d52895260408c2080549686881691821580938115612da9575b5015612da5578d98612d8a93612d90575b505061508b565b95612cf8565b6001600160a01b031916331790553880612d83565b8e80fd5b9050331438612d72565b8d80fd5b90508b81813d8311612de5575b612dce8183614223565b81010312612da557612ddf90614368565b38612d4e565b503d612dc4565b604051903d90823e3d90fd5b612cfd565b909192939495968101808211612e57575b828110612e2c5750612e1f9061508b565b908b969594939291612cec565b612e37828787614bfb565b35612e43828888614bfb565b3514612db357612e529061508b565b612e0e565b634e487b7160e01b8e52601160045260248efd5b8b80fd5b60405162461bcd60e51b8152600481018890526012602482015271151bdad95b8812511cc81c995c5d5a5c995960721b6044820152606490fd5b93509350935050878114600014612f3d5750601854604051627eeac760e11b8152336004820152602481019190915291829060449082905afa8015612f32578790612f03575b612efe91506017541115615034565b612c14565b508381813d8311612f2b575b612f198183614223565b810103126112ff57612efe9051612eef565b503d612f0f565b6040513d89823e3d90fd5b600214612f4c575b5050612c14565b6040516370a0823160e01b815233600482015291829060249082905afa8015612f32578790612f8c575b612f8591506017541115615034565b3883612f45565b508381813d8311612fb4575b612fa28183614223565b810103126112ff57612f859051612f76565b503d612f98565b634e487b7160e01b8c52602160045260248cfd5b604051636b90bda960e01b815291829060049082905afa80156130e45786918d916130ac575b5016801561309a578b92813b1561081a57839183918360a46040518097819682956324fa7e3f60e21b8452336004850152306024850152602435604485015260806064850152816084850152848401378181018301849052601f01601f191681010301925af180156106a457613086575b50503389526025865260408920805460ff19168917905538808088612a7e565b61308f906141da565b612cc4578838613066565b6040516343361aaf60e01b8152600490fd5b8092508a8092503d83116130dd575b6130c58183614223565b81010312612e6b576130d78691614368565b38612ff5565b503d6130bb565b6040513d8e823e3d90fd5b60409192503381526025845220541615888e612a77565b60405162ca6a8360e51b8152600490fd5b604051635f2a002d60e11b8152600490fd5b8092508c8092503d831161315a575b6131428183614223565b81010312612db3576131548891614368565b38612a55565b503d613138565b604051631274fa9d60e31b8152600490fd5b5085600e5460a81c16801561319c575b80612a1b5750338b526028885260408b20541515612a1b565b5089891415613183565b604051637145fa7b60e01b8152600490fd5b604051633d8c21b360e01b8152600490fd5b6040516302edeeb760e31b8152600490fd5b60405163fd2a413d60e01b8152600490fd5b60405163569e8c1160e01b8152600490fd5b60405163d2100d7360e01b8152600490fd5b60405163f4f5b73360e01b8152600490fd5b60405163d92e233d60e01b8152600490fd5b6040516338c0a90160e11b8152600490fd5b634e487b7160e01b88526021600452602488fd5b60405162c44f5760e51b8152600490fd5b600654421061296e5760ff60a81b1916600160a81b176008557f3d31b97eef590df350bb2cdbc390034c613c9f23ea6ae1906682628c85248b538680a13861296e565b5034610595578060031936011261059557602060ff600254166040519015158152f35b5034610595578060031936011261059557602060ff600f5416611f006040518092614150565b50346105955780600319360112610595576020601754604051908152f35b50346105955760203660031901126105955760209060ff906040906001600160a01b036133426140e3565b168152602284522054166040519015158152f35b50346105955760203660031901126105955760209060ff906040906001600160a01b036133816140e3565b168152602584522054166040519015158152f35b50346105955780600319360112610595576020600b54604051908152f35b5034610595578060031936011261059557602060ff600e5460e81c166040519015158152f35b50346105955780600319360112610595576020602c54604051908152f35b5034610595576020366003190112610595576020906040906001600160a01b0361341f6140e3565b168152602183522054604051908152f35b5034610595576020806003193601126107e7576004353033036137b25790602e548352602d8152816040842055613468602e5461508b565b602e55602c5491602a54906026549161348085614489565b9161348e6040519384614223565b85835261349a86614489565b8386019290601f1901368437875b8781106136b257505050855b85811061361857506134e5600e549560ff60e01b198716600e556134da81602a54614345565b602a55602b54614345565b9384602b55604051928184019082855251809152604084019291885b8281106135fb575050505090807f32a1b5731a757f192a06ca973715ca4dbc42c2d15323cabaa74e0a2d5dc088e4920390a1600b5491821161356f576008805460ff60a81b1916600160aa1b179081905560a01c60ff16806135ee575b806135e1575b806135d3575b613575575b50505080f35b61358b9161358291614941565b600554906143c3565b61271061359a601954836143c3565b046135b16135a88284614941565b92601b54614941565b601b55601e55601c5561ffff60d81b1916600160d81b17600e5538808061356f565b5060ff8360d81c161561356a565b5060ff8360b81c16613564565b5060ff8360a81c1661355e565b83516001600160a01b031685529381019392810192600101613501565b9193916001600160a01b0361362d82876144a0565b5116906027918254600160401b811015611554576001810180855581101561369c57613694936000527f98a476f1687bc3d60a2da2adbcba2c46958e61fa2fb4042cd7bc5816a710195b01906bffffffffffffffffffffffff60a01b82541617905561508b565b9391936134b4565b634e487b7160e01b600052603260045260246000fd5b6136c381611a2384899a989a614941565b60405186810190858252836040820152604081526136e081614208565b519020906136ee8385614345565b91811561379e5761370a84936137969593613771930690614345565b613752613716826141a3565b8d61373360018060a01b03809454600394851b1c169788926144a0565b52613746613741888b614345565b6141a3565b9054911b1c16916141a3565b90919082549060031b9160018060a01b03809116831b921b1916179055565b613782816137526137418588614345565b8a52601f865260408a2061241f815461508b565b9593956134a8565b634e487b7160e01b8c52601260045260248cfd5b60405162461bcd60e51b815260048101839052600e60248201526d13db9b1e481cd95b198b58d85b1b60921b6044820152606490fd5b5034610595578060031936011261059557600e546040516001600160a01b039091168152602090f35b5034610595576020366003190112610595576004359060265482101561059557602061383c836141a3565b905460405160039290921b1c6001600160a01b03168152f35b503461059557806003193601126105955760018060a01b039060208282541692600f5460081c161515602460405180958193635aa35d2560e11b835260048301525afa908115612dec57906138b0575b602090604051908152f35b506020813d82116138da575b816138c960209383614223565b810103126112ff57602090516138a5565b3d91506138bc565b50346105955780600319360112610595576020601354604051908152f35b5034610595578060031936011261059557602061212660065460075490614345565b5034610595578060031936011261059557602060ff600e5460b81c166040519015158152f35b5034610595576020366003190112610595576020906040906001600160a01b036139706140e3565b168152602883522054604051908152f35b5034610595576040366003190112610595576024356001600160401b0381116107e7576139b2903690600401614173565b60025460081c6001600160a01b03163303613a1a576139d081614489565b916139de6040519384614223565b8183526020918284019060051b820191368311611b5957905b828210613a0b578561066186600435614573565b813581529083019083016139f7565b60405162461bcd60e51b815260206004820181905260248201527f4f6e6c792056524620436f6f7264696e61746f722063616e2066756c66696c6c6044820152606490fd5b50346105955780600319360112610595576016546017546018546040516001600160a01b0384168152608093909290613aa290602085019060a01c60ff16614150565b60408301526060820152f35b503461059557608036600319011261059557613ac86140e3565b50613ad16140f9565b506064356001600160401b0381116107e757613af1903690600401614123565b5050604051630a85bd0160e11b8152602090f35b50346105955780600319360112610595576020600354604051908152f35b5034610595578060031936011261059557613b3c6143d6565b600860ff815460a81c1681811015610b33576004036107e757613b5d615b0b565b50600f549081831c6001600160a01b0316801561267657600e9260ff845460c81c16613e625760ff166004811015611d085780613cf95750803b15611550576040516340c10f1960e01b81523360048201526024810183905290859081908390604490829084905af19182613ce5575b5050613cd957506001613bde6144b4565b6308c379a014613c70575b613bf7575b50506001805580f35b613bff614543565b50604051600080516020615e2f833981519152339180613c448160609060208152601060208201526f131bddcb5b195d995b081c995d995c9d60821b60408201520190565b0390a2805460ff60d01b1916600160d01b179055805460ff60a81b1916600560a81b1790553880613bee565b613c786144d2565b80613c84575b50613be9565b90508390600080516020615e2f8339815191526040516020815280613cae339460208301906140a3565b0390a2815460ff60d01b1916600160d01b178255825460ff60a81b1916600560a81b17835538613c7e565b90506116649150615d61565b613cee906141da565b611550578438613bcd565b600103613e62578460105491836011540290803b1561081657604051630ab714fb60e11b8152336004820152602481019490945260448401919091528290606490829084905af19081613e4f575b50613cd957506001613d576144b4565b6308c379a014613de6575b613d6d575050611655565b613d75614543565b50604051600080516020615e2f833981519152339180613dba8160609060208152601060208201526f131bddcb5b195d995b081c995d995c9d60821b60408201520190565b0390a2805460ff60d01b1916600160d01b179055805460ff60a81b1916600560a81b1790553880611ab0565b613dee6144d2565b80613dfa575b50613d62565b90508390600080516020615e2f8339815191526040516020815280613e24339460208301906140a3565b0390a2815460ff60d01b1916600160d01b178255825460ff60a81b1916600560a81b17835538613df4565b613e5b909591956141da565b9338613d47565b604051631558dc5f60e31b8152600490fd5b50346105955780600319360112610595576020600754604051908152f35b5034610595578060031936011261059557602060ff600e5460a01c166040519015158152f35b50346105955780600319360112610595576020601054604051908152f35b50346105955780600319360112610595576020602954604051908152f35b50346105955780600319360112610595576020601854604051908152f35b50346105955780600319360112610595576040519080600a54613f348161426c565b80855291600191808316908115613fbf5750600114613f76575b613f7285613f5e81870382614223565b6040519182916020835260208301906140a3565b0390f35b9250600a8352600080516020615e0f8339815191525b828410613fa7575050508101602001613f5e82613f72613f4e565b80546020858701810191909152909301928101613f8c565b869550613f7296935060209250613f5e94915060ff191682840152151560051b8201019293613f4e565b50346105955780600319360112610595576020602e54604051908152f35b50346105955780600319360112610595576020602a54604051908152f35b50346105955780600319360112610595576008546040516001600160a01b039091168152602090f35b9050346107e75760203660031901126107e75760043563ffffffff60e01b81168091036108165760209250630a85bd0160e11b8114908115614092575b5015158152f35b630271189760e51b1490503861408b565b919082519283825260005b8481106140cf575050826000602080949584010152601f8019910116010190565b6020818301810151848301820152016140ae565b600435906001600160a01b03821682036112ff57565b602435906001600160a01b03821682036112ff57565b35906001600160a01b03821682036112ff57565b9181601f840112156112ff578235916001600160401b0383116112ff57602083818601950101116112ff57565b90600482101561415d5752565b634e487b7160e01b600052602160045260246000fd5b9181601f840112156112ff578235916001600160401b0383116112ff576020808501948460051b0101116112ff57565b60265481101561369c5760266000527f744a2cf8fd7008e3d53b67916e73460df9fa5214e3ef23dd4259ca09493a35940190600090565b6001600160401b03811161155457604052565b602081019081106001600160401b0382111761155457604052565b606081019081106001600160401b0382111761155457604052565b90601f801991011681019081106001600160401b0382111761155457604052565b6001600160401b03811161155457601f01601f191660200190565b359081151582036112ff57565b90600182811c9216801561429c575b602083101461428657565b634e487b7160e01b600052602260045260246000fd5b91607f169161427b565b6000546001600160a01b031633036142ba57565b606460405162461bcd60e51b815260206004820152602060248201527f4f776e61626c653a2063616c6c6572206973206e6f7420746865206f776e65726044820152fd5b600080546001600160a01b039283166001600160a01b03198216811783559216907f8be0079c531659141344cd1fd0a4f28419497f9722a3daafe3b4186f6b6457e09080a3565b9190820180921161435257565b634e487b7160e01b600052601160045260246000fd5b51906001600160a01b03821682036112ff57565b908160a09103126112ff5761439081614368565b91602082015191604081015191606082015163ffffffff811681036112ff5760809092015161ffff811681036112ff5790565b8181029291811591840414171561435257565b6002600154146143e7576002600155565b60405162461bcd60e51b815260206004820152601f60248201527f5265656e7472616e637947756172643a207265656e7472616e742063616c6c006044820152606490fd5b1561443357565b60405162461bcd60e51b815260206004820152602860248201527f54696d657374616d702064656c61792069737375652c2074727920616761696e6044820152672073686f72746c7960c01b6064820152608490fd5b6001600160401b0381116115545760051b60200190565b805182101561369c5760209160051b010190565b60009060033d116144c157565b905060046000803e60005160e01c90565b600060443d1061452f57604051600319913d83016004833e81516001600160401b03918282113d6024840111176145325781840194855193841161453a573d85010160208487010111614532575061452f92910160200190614223565b90565b949350505050565b50949350505050565b3d1561456e573d9061455482614244565b916145626040519384614223565b82523d6000602084013e565b606090565b600254600891600091831c6001600160a01b03163303613a1a57600454036146f457600e805460ff60e81b1916600160e81b1781558351909390156146e0576020015190303b156105955760405191631000850d60e21b83526004830152808260248183305af191826146d1575b50906146cc576001906145f26144b4565b6308c379a014614654575b50614607575b5050565b7fbccec8509a79ecd26780c2699a3ca2503c3a3455b361b5fcda5760593edb03c9614633613f5e614543565b0390a1805460ff60a81b1916600160a91b179055805460ff60e01b19169055565b61465c6144d2565b9081614669575b506145fd565b7fbcd905a8eb4cc473497e2cd24cf41334ea7fad80c354380f8fff04a025b1e5f89192506146a690926040519182916020835260208301906140a3565b0390a1815460ff60a81b1916600160a91b178255825460ff60e01b191683553880614663565b505050565b6146da906141da565b386145e1565b634e487b7160e01b82526032600452602482fd5b50805460ff60a81b1916600160a91b17905550565b8115614713570490565b634e487b7160e01b600052601260045260246000fd5b908160209103126112ff575180151581036112ff5790565b60ff600e5460c81c1615613e6257614757615b0b565b50601254600f54600b546001600160a01b03600883901c81169493919260ff1691168061489e575060049182821015614889576003821461482f5750831561481f5761481057601054833b156112ff57604080516323b872dd60e01b815230938101938452336020850152908301919091529260009184919082908490829060600103925af1918215614804576147f3926147f5575b50615d61565b565b6147fe906141da565b386147ed565b6040513d6000823e3d90fd5b604051631558dc5f60e31b8152fd5b5060405163424ca23960e01b8152fd5b8394506148429150601493929354614709565b02801561487957600080808093335af161485a614543565b501561486a57506147f390615d61565b60405163880a149160e01b8152fd5b50604051630193f71f60e51b8152fd5b602183634e487b7160e01b6000525260246000fd5b929350506148af8391601354614709565b0290811561492f5760405163a9059cbb60e01b81523360048201526024810192909252602090829060449082906000905af190811561480457600091614911575b50156148ff576147f390615d61565b60405163880a149160e01b8152600490fd5b614929915060203d811161069d5761068f8183614223565b386148f0565b604051630193f71f60e51b8152600490fd5b9190820391821161435257565b600e5460ff90818160d01c16614b875760085490828260a81c1691600883101561415d5760078314614b235760a01c831680614b17575b80614b0b575b80614b00575b614a5f5760a81c8216159081614a40575b506149ae575050600090565b60009160018060a01b031682526028602052604082205415159081614a2c575b506149d65790565b60286020526149ec6040822054600554906143c3565b611f4090818102918183041490151715614a1857612710900480601d541015614a13575090565b905090565b634e487b7160e01b82526011600452602482fd5b9050602260205260408220541615386149ce565b6004811491508115614a54575b50386149a2565b600691501438614a4d565b5050509060009160018060a01b0316825260286020526040822054601f6020526040832054602360205260408420549181811180614aee575b614aa157505050565b614aaf9291611a2391614941565b6005546019549061271091820394828611614ada575061452f9394614ad3916143c3565b04906143c3565b634e487b7160e01b81526011600452602490fd5b50614af98282614941565b8310614a98565b50601c541515614991565b50828160b81c1661498b565b50828160a81c16614985565b506001600160a01b03909316600090815260286020526040902054905080614b4e575b505050600090565b600554614b5a916143c3565b9160a81c16614b775780601d54101561452f57505b388080614b46565b80601b54101561452f5750614b6f565b908060085460a01c169182614bee575b505080614bcd575b614ba95750600090565b6001600160a01b031660009081526028602052604090205460055461452f916143c3565b506001600160a01b0381166000908152602860205260409020541515614b9f565b60a81c1690503880614b97565b919081101561369c5760051b0190565b356001600160a01b03811681036112ff5790565b6008805460ff90818160a81c16908382101561415d576007918281146112ff576001811480614e01575b15614daf575050602654600b5411156112ff57614c6a600654825490614345565b42106112ff57825460ff60a81b1916600760a81b1783555b81835460a81c16908382101561415d57614c9c911461442c565b614ca46159d2565b614cac6154fe565b80825460a01c1680614d99575b80614d6f575b614cc7575050565b80600e5460c81c1661460357600f54908116600481101561415d57614d315750600f54901c6001600160a01b0316803b156112ff5760008091602460405180948193636382ff5160e11b83523060048401525af1801561480457614d285750565b6147f3906141da565b901c6001600160a01b0316803b156112ff5760008091602460405180948193636382ff5160e11b83523060048401525af1801561480457614d285750565b5080600f5416600481101561415d578015908115614d8e575b50614cbf565b600191501438614d88565b50600f54821c6001600160a01b03161515614cb9565b1580614dea575b614dc1575b50614c82565b614dcf600654835490614345565b42106112ff5760ff60a81b1916600760a81b17835538614dbb565b50614df9600654835490614345565b421015614db6565b50614e10600654845490614345565b421015614c49565b6012546001600160a01b039081166112ff576014546112ff57614e4060065460075490614345565b4210156112ff576000908082541633148015615027575b156107e7576008805460ff90818160a81c1683811015611d0857801590811561501c575b501561155057818160a01c16808091614ff2575b80614fe3575b611b59571561155057600e805460ff60d01b1916600160d01b17905560ff60a81b1916600560a81b178255614ec86159d2565b614ed06154fe565b80825460a01c1680614fd4575b80614faa575b614eee575b50505050565b80600e5460c81c16614ee857600f54908116600481101561083657614f605750600f54901c16803b156107e757818091602460405180958193636382ff5160e11b83523060048401525af1908115612dec5750614f51575b505b38808080614ee8565b614f5a906141da565b38614f46565b901c16803b156107e757818091602460405180958193636382ff5160e11b83523060048401525af1908115612dec5750614f9b575b50614f48565b614fa4906141da565b38614f95565b5080600f54166004811015610836578015908115614fc9575b50614ee3565b600191501438614fc3565b5082600f54831c161515614edd565b5082600e5460a81c1615614e95565b5082600f541660048110156127b1578015908115615011575b50614e8f565b60019150143861500b565b600191501438614e7b565b5080600854163314614e57565b1561503b57565b60405162461bcd60e51b815260206004820152602260248201527f476174696e672062616c616e636520726571756972656d656e74206e6f74206d604482015261195d60f21b6064820152608490fd5b60001981146143525760010190565b600080546008805490926001600160a01b03928316929160a81c60ff16848110156125fe576001146154b7575b83549160ff8360a81c1685811015610b3357600281149081156154ac575b50156154585760265493602a54946150fd8682614941565b8061510d600b54602b5490614941565b601e8111156154535750601e5b80602c551161544a575b50602c5494851561543257506004929160a0917f4ff4e84912750d469e8d0e190997710c06112023943415787c2f744eb09c0da46060602e54926040998a5191825260209b8c8301528a820152a2855163ec644ddd60e01b815293849182905afa80156154285783918490859486936153ff575b50600254891c16918651906151ac826141ed565b86825287519163125fa26760e31b8a8401525115156024830152602482526151d382614208565b87519260c084018481106001600160401b038211176153eb578a969594938993889361527a938d5286528386019788528b8087019a61ffff8093168c526060880163ffffffff9384809316825260808a01936001855260a08b01968752519d8e9c8d9b8c9a634d8e1c2f60e11b8c5260048c01525160248b01525160448a01525116606488015251166084860152511660a48401525160c060c484015260e48301906140a3565b03925af18291816153bc575b5061536857506001906152976144b4565b6308c379a0146152ff575b506152ac57505050565b7fab4c58d5f7fcd2f6f276017059fe707292278a4b150b6402c89eb3899a7494ec916152e96152d9614543565b92519282849384528301906140a3565b0390a1805460ff60a81b1916600160a91b179055565b6153076144d2565b9081615314575b506152a2565b83518581529092507f1bc0b7451d1b26a4c7bfd7b118b2756c98249ac5f3d51e76be5f33aab548990291819061534d90878301906140a3565b0390a1835460ff60a81b1916600160a91b178455388061530e565b6004819055600e805460ff60e01b1916600160e01b179055845460ff60a81b1916600360a81b1790945550519182527ff81446731d23d202ea16cf590daf64c6087251171612b2adde6acbef4b37580291a1565b9091508481813d83116153e4575b6153d48183614223565b8101031261081657519038615286565b503d6153ca565b634e487b7160e01b89526041600452602489fd5b925093505061541c915060a03d811161153e5761152c8183614223565b90949293509138615198565b84513d85823e3d90fd5b60ff60a81b1916600160aa1b17909655505050505050565b602c5538615124565b61511a565b60405162461bcd60e51b815260206004820152602660248201527f506f6f6c206d75737420626520696e20456e646564206f722044726177696e6760448201526520737461746560d01b6064820152608490fd5b6003915014386150e5565b6154bf6154c4565b6150c7565b6008805460ff60a81b1916600160a91b1790557fba56b904ffec191559c3639e6019beb8a654605dbf6ba72f33361432a97c2bea600080a1565b60085460ff8160a01c16801561460357806157ae575b61551b5750565b6012546001600160a01b03919082161561564657508060125416604051916370a0823160e01b83523060048401526020928381602481865afa90811561480457600091615619575b508061556f5750505050565b60085460405163a9059cbb60e01b815292166001600160a01b0316600483015260248201529082908290816000816044810103925af1908115614804576000916155fc575b50156155c257808080614ee8565b6064906040519062461bcd60e51b825260048201526013602482015272151bdad95b881c99599d5b990819985a5b1959606a1b6044820152fd5b6156139150823d841161069d5761068f8183614223565b386155b4565b908482813d831161563f575b61562f8183614223565b8101031261059557505138615563565b503d615625565b600f5460ff8116600481101561415d57600381036156c45750505047908161566c575050565b60008080938193600854165af1615681614543565b501561568957565b60405162461bcd60e51b8152602060048201526013602482015272141c9a5e99481c99599d5b990819985a5b1959606a1b6044820152606490fd5b156156ce57505050565b829060081c16601054906040516331a9108f60e11b8152826004820152602081602481855afa90811561480457600091615775575b50841630146157125750505050565b803b156112ff576040516323b872dd60e01b8152306004820152939092166001600160a01b03166024840152604483015260009082908183816064810103925af1801561480457615766575b808080614ee8565b61576f906141da565b3861575e565b906020823d82116157a6575b8161578e60209383614223565b8101031261059557506157a090614368565b38615703565b3d9150615781565b5060ff600e5460c81c16615514565b6000600e5460ff90818160d81c16806158d0575b61587c575b818160a81c161580615871575b6157fb575b5050806157f25750565b6147f390615a15565b60b01c8116156158555760085460a81c16600881101561415d576006036112ff575b601d546107d0918282029282840414821517156143525761584661271061584e94048093614941565b601d55614345565b38806157e8565b60085460a81c16600881101561415d5760041461581d57600080fd5b50601d5415156157e3565b91818360b01c166000146158b2578160085460a81c1660088110156125fe5760060361059557505b601e54916000601e556157d6565b8160085460a81c1660088110156125fe5760040361059557506158a4565b50601e5415156157d1565b156158e257565b60405162461bcd60e51b815260206004820152601860248201527f4e6f20737562736372697074696f6e2061737369676e656400000000000000006044820152606490fd5b600060018060a01b038154166003546159418115156158db565b813b1561081657604051633d40f28f60e01b81523060048201526024810191909152919081908390818381604481015b03925af1908115612dec5750614d285750565b600060018060a01b0381541660035461599e8115156158db565b813b156108165760405163032a136160e11b8152306004820152602481019190915291908190839081838160448101615971565b600060018060a01b03815416600354813b1561081657604051630221a1c360e51b8152306004820152602481019190915291908190839081838160448101615971565b6000805460405163524d530b60e01b815260209390916001600160a01b039085908490600490829085165afa928315615b00578493615ac9575b50821615610816579082916040519085820191635e5bc1c560e11b835281602482015260248152615a7f81614208565b51925af1615a8b614543565b5015615a945750565b6064906040519062461bcd60e51b82526004820152600e60248201526d11195c1bdcda5d0819985a5b195960921b6044820152fd5b9092508481813d8311615af9575b615ae18183614223565b8101031261081a57615af290614368565b9138615a4f565b503d615ad7565b6040513d86823e3d90fd5b6000338152602091601f8352604080832054928315615d50573381528480528181205494858503958514615d3f5760165485939291906001600160a01b0381169081615b5d575b505033825280522055565b60ff91929394955060a01c166004811015615d2b5786949392919080615c0257508394509060249181939451928380926370a0823160e01b82523360048301525afa908115615428579083929187959491615bc9575b50615bc2906017541115615034565b3880615b52565b828094959650819392503d8311615bfb575b615be58183614223565b8101031261081657518593929190615bc2615bb3565b503d615bdb565b60018103615c9a57506018548451627eeac760e11b81523360048201526024810191909152939450919290918290829060449082905afa908115615428579083929187959491615c61575b50615c5c906017541115615034565b615bc2565b828094959650819392503d8311615c93575b615c7d8183614223565b8101031261081657518593929190615c5c615c4d565b503d615c73565b600214615ca8575b50615bc2565b8394509060249181939451928380926370a0823160e01b82523360048301525afa908115615428579083929187959491615cf2575b50615cec906017541115615034565b38615ca2565b828094959650819392503d8311615d24575b615d0e8183614223565b8101031261081657518593929190615cec615cdd565b503d615d04565b634e487b7160e01b84526021600452602484fd5b8251630ccaf35d60e41b8152600490fd5b81516358cd4fc160e11b8152600490fd5b6015540180601555600b5414615d7357565b6008805460ff60a81b1916600360a91b179055600054604051630425172560e31b815230600482015290602090829060249082906001600160a01b03165afa90811561480457600091615dd0575b50615dc857565b6147f3615927565b906020823d8211615df9575b81615de960209383614223565b8101031261059557505138615dc1565b3d9150615ddc565b601554600b5414615d735756fec65a7bb8d6351c1cf70c95a316cc6a92839c986682d98bc35f958f4883f9d2a818381720d6efb26847068a65e3be979f1243520b7db6b16331969a7acdb200d5a2646970667358221220a5e1a18ea09344a780dda36c8f909f9c7093f52ba850e4af9df4d024fba8b40864736f6c63430008130033",
  "linkReferences": {},
  "deployedLinkReferences": {}
}