{
  "_format": "hh-sol-artifact-1",
  "contractName": "PoolDeployer",
  "sourceName": "contracts/PoolDeployer.sol",
  "abi": [
    {
      "inputs": [
        {
          "internalType": "address",
          "name": "_poolImplementation",
          "type": "address"
        },
        {
          "internalType": "address",
          "name": "_manager",
          "type": "address"
        }
      ],
      "stateMutability": "nonpayable",
      "type": "constructor"
    },
    {
      "inputs": [],
      "name": "ApprovedSlotFeeMismatch",
      "type": "error"
    },
    {
      "inputs": [],
      "name": "AvailableSupplyInsufficient",
      "type": "error"
    },
    {
      "inputs": [],
      "name": "CollectioNameTaken",
      "type": "error"
    },
    {
      "inputs": [],
      "name": "CollectionNameTaken",
      "type": "error"
    },
    {
      "inputs": [],
      "name": "ContractsNotAllowed",
      "type": "error"
    },
    {
      "inputs": [],
      "name": "DescriptionTooLong",
      "type": "error"
    },
    {
      "inputs": [],
      "name": "ExceedsApprovedWinnerLimit",
      "type": "error"
    },
    {
      "inputs": [],
      "name": "IncompatiblePrizeContract",
      "type": "error"
    },
    {
      "inputs": [],
      "name": "InsufficientGatingTokenBalance",
      "type": "error"
    },
    {
      "inputs": [],
      "name": "InsufficientNativeBalance",
      "type": "error"
    },
    {
      "inputs": [],
      "name": "InsufficientPrizeAmountForEscrow",
      "type": "error"
    },
    {
      "inputs": [],
      "name": "InvalidDiscordLink",
      "type": "error"
    },
    {
      "inputs": [],
      "name": "InvalidMaxSlotsPerAddress",
      "type": "error"
    },
    {
      "inputs": [],
      "name": "InvalidParameter",
      "type": "error"
    },
    {
      "inputs": [],
      "name": "InvalidPrizeAmount",
      "type": "error"
    },
    {
      "inputs": [],
      "name": "InvalidPrizeType",
      "type": "error"
    },
    {
      "inputs": [],
      "name": "InvalidSlotFee",
      "type": "error"
    },
    {
      "inputs": [],
      "name": "InvalidSlotLimitConfig",
      "type": "error"
    },
    {
      "inputs": [],
      "name": "InvalidStartTime",
      "type": "error"
    },
    {
      "inputs": [],
      "name": "InvalidTelegramLink",
      "type": "error"
    },
    {
      "inputs": [],
      "name": "InvalidTokenGatingContract",
      "type": "error"
    },
    {
      "inputs": [],
      "name": "InvalidTwitterLink",
      "type": "error"
    },
    {
      "inputs": [],
      "name": "InvalidWinnerConfig",
      "type": "error"
    },
    {
      "inputs": [],
      "name": "NotOwnerOfTokenID",
      "type": "error"
    },
    {
      "inputs": [],
      "name": "PoolCreationPaused",
      "type": "error"
    },
    {
      "inputs": [],
      "name": "PoolNameTaken",
      "type": "error"
    },
    {
      "inputs": [],
      "name": "RefundFailed",
      "type": "error"
    },
    {
      "inputs": [],
      "name": "SocialEngagementFeeTransferFailed",
      "type": "error"
    },
    {
      "inputs": [],
      "name": "SocialEngagementParametersNotConfigured",
      "type": "error"
    },
    {
      "inputs": [],
      "name": "Unauthorized",
      "type": "error"
    },
    {
      "anonymous": false,
      "inputs": [
        {
          "indexed": false,
          "internalType": "address",
          "name": "revenueManager",
          "type": "address"
        },
        {
          "indexed": false,
          "internalType": "address",
          "name": "socialEngagementManager",
          "type": "address"
        }
      ],
      "name": "ContractAddressesUpdated",
      "type": "event"
    },
    {
      "anonymous": false,
      "inputs": [
        {
          "indexed": false,
          "internalType": "bool",
          "name": "paused",
          "type": "bool"
        }
      ],
      "name": "CreationPausedUpdated",
      "type": "event"
    },
    {
      "anonymous": false,
      "inputs": [
        {
          "indexed": false,
          "internalType": "uint256",
          "name": "min",
          "type": "uint256"
        },
        {
          "indexed": false,
          "internalType": "uint256",
          "name": "max",
          "type": "uint256"
        }
      ],
      "name": "DurationLimitsUpdated",
      "type": "event"
    },
    {
      "anonymous": false,
      "inputs": [
        {
          "indexed": false,
          "internalType": "uint256",
          "name": "slotFee",
          "type": "uint256"
        },
        {
          "indexed": false,
          "internalType": "uint256",
          "name": "protocolFee",
          "type": "uint256"
        },
        {
          "indexed": false,
          "internalType": "uint256",
          "name": "creationFee",
          "type": "uint256"
        },
        {
          "indexed": false,
          "internalType": "uint256",
          "name": "socialFee",
          "type": "uint256"
        }
      ],
      "name": "FeeConfigUpdated",
      "type": "event"
    },
    {
      "anonymous": false,
      "inputs": [
        {
          "indexed": false,
          "internalType": "bool",
          "name": "enabled",
          "type": "bool"
        },
        {
          "indexed": false,
          "internalType": "address",
          "name": "token",
          "type": "address"
        },
        {
          "indexed": false,
          "internalType": "uint256",
          "name": "minBalance",
          "type": "uint256"
        }
      ],
      "name": "GatingTokenConfigUpdated",
      "type": "event"
    },
    {
      "anonymous": false,
      "inputs": [
        {
          "indexed": true,
          "internalType": "address",
          "name": "previousOwner",
          "type": "address"
        },
        {
          "indexed": true,
          "internalType": "address",
          "name": "newOwner",
          "type": "address"
        }
      ],
      "name": "OwnershipTransferred",
      "type": "event"
    },
    {
      "anonymous": false,
      "inputs": [
        {
          "indexed": true,
          "internalType": "address",
          "name": "pool",
          "type": "address"
        },
        {
          "indexed": true,
          "internalType": "address",
          "name": "creator",
          "type": "address"
        }
      ],
      "name": "PoolCreated",
      "type": "event"
    },
    {
      "anonymous": false,
      "inputs": [
        {
          "indexed": true,
          "internalType": "address",
          "name": "poolImplementation",
          "type": "address"
        }
      ],
      "name": "PoolImplementationUpdated",
      "type": "event"
    },
    {
      "anonymous": false,
      "inputs": [
        {
          "indexed": true,
          "internalType": "address",
          "name": "pool",
          "type": "address"
        },
        {
          "indexed": false,
          "internalType": "string",
          "name": "description",
          "type": "string"
        },
        {
          "indexed": false,
          "internalType": "string",
          "name": "twitterLink",
          "type": "string"
        },
        {
          "indexed": false,
          "internalType": "string",
          "name": "discordLink",
          "type": "string"
        },
        {
          "indexed": false,
          "internalType": "string",
          "name": "telegramLink",
          "type": "string"
        }
      ],
      "name": "PoolMetadataSet",
      "type": "event"
    },
    {
      "anonymous": false,
      "inputs": [
        {
          "indexed": false,
          "internalType": "uint256",
          "name": "minPrized",
          "type": "uint256"
        },
        {
          "indexed": false,
          "internalType": "uint256",
          "name": "minNonPrized",
          "type": "uint256"
        },
        {
          "indexed": false,
          "internalType": "uint256",
          "name": "max",
          "type": "uint256"
        }
      ],
      "name": "SlotLimitsUpdated",
      "type": "event"
    },
    {
      "inputs": [
        {
          "components": [
            {
              "internalType": "string",
              "name": "name",
              "type": "string"
            },
            {
              "internalType": "uint256",
              "name": "startTime",
              "type": "uint256"
            },
            {
              "internalType": "uint256",
              "name": "duration",
              "type": "uint256"
            },
            {
              "internalType": "uint256",
              "name": "slotLimit",
              "type": "uint256"
            },
            {
              "internalType": "uint256",
              "name": "winnersCount",
              "type": "uint256"
            },
            {
              "internalType": "uint256",
              "name": "maxSlotsPerAddress",
              "type": "uint256"
            },
            {
              "internalType": "bool",
              "name": "isPrized",
              "type": "bool"
            },
            {
              "internalType": "uint256",
              "name": "customSlotFee",
              "type": "uint256"
            },
            {
              "internalType": "bool",
              "name": "erc721Drop",
              "type": "bool"
            },
            {
              "internalType": "bool",
              "name": "erc1155Drop",
              "type": "bool"
            },
            {
              "internalType": "address",
              "name": "prizeCollection",
              "type": "address"
            },
            {
              "internalType": "enum PrizeTypes.Standard",
              "name": "standard",
              "type": "uint8"
            },
            {
              "internalType": "uint256",
              "name": "prizeTokenId",
              "type": "uint256"
            },
            {
              "internalType": "uint256",
              "name": "amountPerWinner",
              "type": "uint256"
            },
            {
              "internalType": "address",
              "name": "creator",
              "type": "address"
            },
            {
              "internalType": "address",
              "name": "erc20PrizeToken",
              "type": "address"
            },
            {
              "internalType": "uint256",
              "name": "erc20PrizeAmount",
              "type": "uint256"
            },
            {
              "internalType": "uint256",
              "name": "nativePrizeAmount",
              "type": "uint256"
            },
            {
              "internalType": "address",
              "name": "holderTokenAddress",
              "type": "address"
            },
            {
              "internalType": "enum PrizeTypes.Standard",
              "name": "holderTokenStandard",
              "type": "uint8"
            },
            {
              "internalType": "uint256",
              "name": "minHolderTokenBalance",
              "type": "uint256"
            },
            {
              "internalType": "uint256",
              "name": "holderTokenBalance",
              "type": "uint256"
            },
            {
              "internalType": "uint256",
              "name": "holderTokenId",
              "type": "uint256"
            },
            {
              "internalType": "bool",
              "name": "socialEngagementRequired",
              "type": "bool"
            },
            {
              "internalType": "string",
              "name": "socialTaskDescription",
              "type": "string"
            },
            {
              "internalType": "string",
              "name": "description",
              "type": "string"
            },
            {
              "internalType": "string",
              "name": "twitterLink",
              "type": "string"
            },
            {
              "internalType": "string",
              "name": "discordLink",
              "type": "string"
            },
            {
              "internalType": "string",
              "name": "telegramLink",
              "type": "string"
            }
          ],
          "internalType": "struct PoolDeployer.PoolParams",
          "name": "p",
          "type": "tuple"
        }
      ],
      "name": "createPool",
      "outputs": [
        {
          "internalType": "address",
          "name": "",
          "type": "address"
        }
      ],
      "stateMutability": "payable",
      "type": "function"
    },
    {
      "inputs": [],
      "name": "creationFeePercentage",
      "outputs": [
        {
          "internalType": "uint256",
          "name": "",
          "type": "uint256"
        }
      ],
      "stateMutability": "view",
      "type": "function"
    },
    {
      "inputs": [],
      "name": "creationPaused",
      "outputs": [
        {
          "internalType": "bool",
          "name": "",
          "type": "bool"
        }
      ],
      "stateMutability": "view",
      "type": "function"
    },
    {
      "inputs": [],
      "name": "gatingToken",
      "outputs": [
        {
          "internalType": "address",
          "name": "",
          "type": "address"
        }
      ],
      "stateMutability": "view",
      "type": "function"
    },
    {
      "inputs": [
        {
          "internalType": "bool",
          "name": "isPrized",
          "type": "bool"
        }
      ],
      "name": "getMinSlotLimit",
      "outputs": [
        {
          "internalType": "uint256",
          "name": "",
          "type": "uint256"
        }
      ],
      "stateMutability": "view",
      "type": "function"
    },
    {
      "inputs": [
        {
          "internalType": "address",
          "name": "pool",
          "type": "address"
        }
      ],
      "name": "getPoolCreationTimestamp",
      "outputs": [
        {
          "internalType": "uint256",
          "name": "",
          "type": "uint256"
        }
      ],
      "stateMutability": "view",
      "type": "function"
    },
    {
      "inputs": [],
      "name": "globalSlotFee",
      "outputs": [
        {
          "internalType": "uint256",
          "name": "",
          "type": "uint256"
        }
      ],
      "stateMutability": "view",
      "type": "function"
    },
    {
      "inputs": [],
      "name": "isGated",
      "outputs": [
        {
          "internalType": "bool",
          "name": "",
          "type": "bool"
        }
      ],
      "stateMutability": "view",
      "type": "function"
    },
    {
      "inputs": [],
      "name": "maxPoolDuration",
      "outputs": [
        {
          "internalType": "uint256",
          "name": "",
          "type": "uint256"
        }
      ],
      "stateMutability": "view",
      "type": "function"
    },
    {
      "inputs": [],
      "name": "maxSlotLimit",
      "outputs": [
        {
          "internalType": "uint256",
          "name": "",
          "type": "uint256"
        }
      ],
      "stateMutability": "view",
      "type": "function"
    },
    {
      "inputs": [],
      "name": "minGatingTokenBalance",
      "outputs": [
        {
          "internalType": "uint256",
          "name": "",
          "type": "uint256"
        }
      ],
      "stateMutability": "view",
      "type": "function"
    },
    {
      "inputs": [],
      "name": "minPoolDuration",
      "outputs": [
        {
          "internalType": "uint256",
          "name": "",
          "type": "uint256"
        }
      ],
      "stateMutability": "view",
      "type": "function"
    },
    {
      "inputs": [],
      "name": "minSlotLimit",
      "outputs": [
        {
          "internalType": "uint256",
          "name": "",
          "type": "uint256"
        }
      ],
      "stateMutability": "view",
      "type": "function"
    },
    {
      "inputs": [],
      "name": "minSlotLimitNonPrized",
      "outputs": [
        {
          "internalType": "uint256",
          "name": "",
          "type": "uint256"
        }
      ],
      "stateMutability": "view",
      "type": "function"
    },
    {
      "inputs": [
        {
          "internalType": "address",
          "name": "",
          "type": "address"
        },
        {
          "internalType": "address",
          "name": "",
          "type": "address"
        },
        {
          "internalType": "uint256[]",
          "name": "",
          "type": "uint256[]"
        },
        {
          "internalType": "uint256[]",
          "name": "",
          "type": "uint256[]"
        },
        {
          "internalType": "bytes",
          "name": "",
          "type": "bytes"
        }
      ],
      "name": "onERC1155BatchReceived",
      "outputs": [
        {
          "internalType": "bytes4",
          "name": "",
          "type": "bytes4"
        }
      ],
      "stateMutability": "pure",
      "type": "function"
    },
    {
      "inputs": [
        {
          "internalType": "address",
          "name": "",
          "type": "address"
        },
        {
          "internalType": "address",
          "name": "",
          "type": "address"
        },
        {
          "internalType": "uint256",
          "name": "",
          "type": "uint256"
        },
        {
          "internalType": "uint256",
          "name": "",
          "type": "uint256"
        },
        {
          "internalType": "bytes",
          "name": "",
          "type": "bytes"
        }
      ],
      "name": "onERC1155Received",
      "outputs": [
        {
          "internalType": "bytes4",
          "name": "",
          "type": "bytes4"
        }
      ],
      "stateMutability": "pure",
      "type": "function"
    },
    {
      "inputs": [
        {
          "internalType": "address",
          "name": "",
          "type": "address"
        },
        {
          "internalType": "address",
          "name": "",
          "type": "address"
        },
        {
          "internalType": "uint256",
          "name": "",
          "type": "uint256"
        },
        {
          "internalType": "bytes",
          "name": "",
          "type": "bytes"
        }
      ],
      "name": "onERC721Received",
      "outputs": [
        {
          "internalType": "bytes4",
          "name": "",
          "type": "bytes4"
        }
      ],
      "stateMutability": "pure",
      "type": "function"
    },
    {
      "inputs": [],
      "name": "owner",
      "outputs": [
        {
          "internalType": "address",
          "name": "",
          "type": "address"
        }
      ],
      "stateMutability": "view",
      "type": "function"
    },
    {
      "inputs": [
        {
          "internalType": "address",
          "name": "",
          "type": "address"
        }
      ],
      "name": "poolCreationTimestamps",
      "outputs": [
        {
          "internalType": "uint256",
          "name": "",
          "type": "uint256"
        }
      ],
      "stateMutability": "view",
      "type": "function"
    },
    {
      "inputs": [],
      "name": "poolImplementation",
      "outputs": [
        {
          "internalType": "address",
          "name": "",
          "type": "address"
        }
      ],
      "stateMutability": "view",
      "type": "function"
    },
    {
      "inputs": [],
      "name": "protocolFeePercentage",
      "outputs": [
        {
          "internalType": "uint256",
          "name": "",
          "type": "uint256"
        }
      ],
      "stateMutability": "view",
      "type": "function"
    },
    {
      "inputs": [],
      "name": "protocolManager",
      "outputs": [
        {
          "internalType": "address",
          "name": "",
          "type": "address"
        }
      ],
      "stateMutability": "view",
      "type": "function"
    },
    {
      "inputs": [],
      "name": "renounceOwnership",
      "outputs": [],
      "stateMutability": "nonpayable",
      "type": "function"
    },
    {
      "inputs": [],
      "name": "revenueManager",
      "outputs": [
        {
          "internalType": "address",
          "name": "",
          "type": "address"
        }
      ],
      "stateMutability": "view",
      "type": "function"
    },
    {
      "inputs": [
        {
          "internalType": "address",
          "name": "_revenueManager",
          "type": "address"
        },
        {
          "internalType": "address",
          "name": "_socialEngagementManager",
          "type": "address"
        }
      ],
      "name": "setContractAddresses",
      "outputs": [],
      "stateMutability": "nonpayable",
      "type": "function"
    },
    {
      "inputs": [
        {
          "internalType": "bool",
          "name": "_paused",
          "type": "bool"
        }
      ],
      "name": "setCreationPaused",
      "outputs": [],
      "stateMutability": "nonpayable",
      "type": "function"
    },
    {
      "inputs": [
        {
          "internalType": "uint256",
          "name": "_min",
          "type": "uint256"
        },
        {
          "internalType": "uint256",
          "name": "_max",
          "type": "uint256"
        }
      ],
      "name": "setDurationLimits",
      "outputs": [],
      "stateMutability": "nonpayable",
      "type": "function"
    },
    {
      "inputs": [
        {
          "internalType": "uint256",
          "name": "_slotFee",
          "type": "uint256"
        },
        {
          "internalType": "uint256",
          "name": "_protocolFee",
          "type": "uint256"
        },
        {
          "internalType": "uint256",
          "name": "_creationFee",
          "type": "uint256"
        },
        {
          "internalType": "uint256",
          "name": "_socialFee",
          "type": "uint256"
        }
      ],
      "name": "setFeeConfig",
      "outputs": [],
      "stateMutability": "nonpayable",
      "type": "function"
    },
    {
      "inputs": [
        {
          "internalType": "bool",
          "name": "_enabled",
          "type": "bool"
        },
        {
          "internalType": "address",
          "name": "_token",
          "type": "address"
        },
        {
          "internalType": "uint256",
          "name": "_minBalance",
          "type": "uint256"
        }
      ],
      "name": "setGatingTokenConfig",
      "outputs": [],
      "stateMutability": "nonpayable",
      "type": "function"
    },
    {
      "inputs": [
        {
          "internalType": "uint256",
          "name": "_minPrized",
          "type": "uint256"
        },
        {
          "internalType": "uint256",
          "name": "_minNonPrized",
          "type": "uint256"
        },
        {
          "internalType": "uint256",
          "name": "_max",
          "type": "uint256"
        }
      ],
      "name": "setSlotLimits",
      "outputs": [],
      "stateMutability": "nonpayable",
      "type": "function"
    },
    {
      "inputs": [],
      "name": "socialEngagementFee",
      "outputs": [
        {
          "internalType": "uint256",
          "name": "",
          "type": "uint256"
        }
      ],
      "stateMutability": "view",
      "type": "function"
    },
    {
      "inputs": [],
      "name": "socialEngagementManager",
      "outputs": [
        {
          "internalType": "address",
          "name": "",
          "type": "address"
        }
      ],
      "stateMutability": "view",
      "type": "function"
    },
    {
      "inputs": [
        {
          "internalType": "bytes4",
          "name": "interfaceId",
          "type": "bytes4"
        }
      ],
      "name": "supportsInterface",
      "outputs": [
        {
          "internalType": "bool",
          "name": "",
          "type": "bool"
        }
      ],
      "stateMutability": "view",
      "type": "function"
    },
    {
      "inputs": [
        {
          "internalType": "address",
          "name": "newOwner",
          "type": "address"
        }
      ],
      "name": "transferOwnership",
      "outputs": [],
      "stateMutability": "nonpayable",
      "type": "function"
    },
    {
      "inputs": [],
      "name": "transferOwnershipToManager",
      "outputs": [],
      "stateMutability": "nonpayable",
      "type": "function"
    },
    {
      "inputs": [
        {
          "internalType": "address",
          "name": "_poolImplementation",
          "type": "address"
        }
      ],
      "name": "updatePoolImplementation",
      "outputs": [],
      "stateMutability": "nonpayable",
      "type": "function"
    }
  ],
  "bytecode": "0x608034620000d057601f6200358b38819003918201601f19168301916001600160401b03831184841017620000d5578084926040948552833981010312620000d0576200005a60206200005283620000eb565b9201620000eb565b60008054336001600160a01b0319808316821784556040519590946001600160a01b03949093859391908416907f8be0079c531659141344cd1fd0a4f28419497f9722a3daafe3b4186f6b6457e09080a360018055168360025416176002551690600354161760035561348a9081620001018239f35b600080fd5b634e487b7160e01b600052604160045260246000fd5b51906001600160a01b0382168203620000d05756fe608080604052600436101561001357600080fd5b600090813560e01c90816301ffc9a714612dab57508063026cf60114612d0d5780630402a28a14612cef578063065bc36f14612c40578063150b7a0214612be95780631e7278ad14612bc0578063431ba46014610389578063565e3eff14612ba257806359c810c114612b845780636b90bda914612b5b578063715018a614612b015780637b5b78781461097c5780637c93fbf7146108325780638da5cb5b1461080b5780638e50e509146107ed5780639c2dcafb146107cf578063a21d131c1461076f578063a2b3273214610751578063a9dd23051461070f578063ab4b6692146106e6578063ada5c132146106c8578063b546ba4a1461069c578063bc197c811461060c578063bd12dd64146105e9578063cd931e401461055b578063cefa779914610532578063d91043f214610514578063dbd5ef6d14610406578063e4741da4146103e0578063e720c005146103c2578063ec66705f14610389578063eebbf9b4146102e2578063f23a6e6114610287578063f2fde38b146101f6578063f9d90986146101d85763ff3cd61e146101ad57600080fd5b346101d557806003193601126101d557600d546040516001600160a01b039091168152602090f35b80fd5b50346101d557806003193601126101d5576020601054604051908152f35b50346101d55760203660031901126101d557610210612e00565b610218612e98565b6001600160a01b038116156102335761023090612ef0565b80f35b60405162461bcd60e51b815260206004820152602660248201527f4f776e61626c653a206e6577206f776e657220697320746865207a65726f206160448201526564647265737360d01b6064820152608490fd5b50346101d55760a03660031901126101d5576102a1612e00565b506102aa612e16565b506084356001600160401b0381116102de576102ca903690600401612e2c565b505060405163f23a6e6160e01b8152602090f35b5080fd5b50346101d55760603660031901126101d5577f237fbe5cd573051d8d3fae25c11141b3cfe5ac4498a663e8046b11a9679c3df2606061031f612e59565b610327612e16565b9060443590610334612e98565b151591600e5460ff60a01b8460a01b169060ff60a01b191617600e5560018060a01b0316806bffffffffffffffffffffffff60a01b600f541617600f558160105560405192835260208301526040820152a180f35b50346101d55760203660031901126101d5576020906040906001600160a01b036103b1612e00565b168152601283522054604051908152f35b50346101d557806003193601126101d5576020600754604051908152f35b50346101d557806003193601126101d557602060ff600e5460a01c166040519015158152f35b50346101d55760803660031901126101d55760443560243560043560643561042c612e98565b6127108084116104cf57841161048a577f58ee77c9f5b50426dc036dff11919df1099b3ca39cf4823cecb182e34465a2f7936080938360095580600a5581600b5582600c55604051938452602084015260408301526060820152a180f35b60405162461bcd60e51b815260206004820152601f60248201527f4372656174696f6e206665652063616e6e6f74206578636565642031303025006044820152606490fd5b60405162461bcd60e51b815260206004820152601f60248201527f50726f746f636f6c206665652063616e6e6f74206578636565642031303025006044820152606490fd5b50346101d557806003193601126101d5576020600b54604051908152f35b50346101d557806003193601126101d5576002546040516001600160a01b039091168152602090f35b50346101d55760403660031901126101d5577fb74ce24e1b912d339e2e92f0ab4cc7567a0b11bb3874d76b9d6e675ffbd6e3ec610596612e00565b61059e612e16565b906105a7612e98565b600d80546001600160a01b039283166001600160a01b03199182168117909255600e80549490931693168317909155604080519182526020820192909252a180f35b50346101d557806003193601126101d557602060ff601154166040519015158152f35b50346101d55760a03660031901126101d557610626612e00565b5061062f612e16565b506001600160401b0360443581811161069857610650903690600401612e68565b50506064358181116106985761066a903690600401612e68565b50506084359081116102de57610684903690600401612e2c565b505060405163bc197c8160e01b8152602090f35b8280fd5b50346101d55760203660031901126101d55760206106c06106bb612e59565b612f37565b604051908152f35b50346101d557806003193601126101d5576020600c54604051908152f35b50346101d557806003193601126101d5576003546040516001600160a01b039091168152602090f35b50346101d557806003193601126101d55780546001600160a01b039081163303610740576102309060035416612ef0565b6040516282b42960e81b8152600490fd5b50346101d557806003193601126101d5576020600954604051908152f35b50346101d55760203660031901126101d5577f6f8f11770f6ccb42a077311d0f112148142e18b97a88d8f993d66dd4e0ec952160206107ac612e59565b6107b4612e98565b151560ff196011541660ff821617601155604051908152a180f35b50346101d557806003193601126101d5576020600854604051908152f35b50346101d557806003193601126101d5576020600a54604051908152f35b50346101d557806003193601126101d557546040516001600160a01b039091168152602090f35b50346101d55760603660031901126101d557604435602435600435610855612e98565b801561093e5781156108f957808311806108f0575b156108b4577feb78458964f69dce3bc3e472dc9c3abca68f6735dae4c8dc5d5742c92e59d1fc9260609282600455806005558160065560405192835260208301526040820152a180f35b60405162461bcd60e51b81526020600482015260146024820152734d6178206d75737420657863656564206d696e7360601b6044820152606490fd5b5081831161086a565b60405162461bcd60e51b815260206004820152601a60248201527f4d696e206e6f6e2d7072697a6564206d757374206265203e20300000000000006044820152606490fd5b60405162461bcd60e51b815260206004820152601660248201527504d696e207072697a6564206d757374206265203e20360541b6044820152606490fd5b506003196020368201126102de576001600160401b03600435116102de576103a090600435360301126101d557600260015414612abc576002600155333203612aab5760ff600e5460a01c1690816129e3575b80916109e06102e460043501612f7c565b61291b575b50600954819280151580612912575b610a0260c460043501612f7c565b806128f4575b6128dc575b8434106128ca576127f8575b5060ff601154166127e6574260246004350135106127d457610a426106bb60c460043501612f7c565b60646004350135106127c25760065460646004350135116127c2576084600435013515611f0f57606460043501356084600435013511611f0f5760043560840135606481810291820490036127ae57601e606460043501358181029291818404149015171561279a5711611f0f5760075460446004350135101580612788575b15612750576001600160a01b03610ade60043561024401612fd4565b1661271b575b610af260c460043501612f7c565b6126c8575b60e460043501351515928383610b1160c460043501612f7c565b156126565785156126505760e460043501355b915b821561185357610b3b6101c460043501612fd4565b60a8610ba1610b4e600480350180612fe8565b92908360405194859260208401976bffffffffffffffffffffffff199060601b1688524260348501524360548501523260601b607485015260888401378101346088820152036088810184520182612f5b565b519020600254608881901c62ffffff16763d602d80600a3d3981f3363d3d373d3d3d363d7300000017885260781b6effffffffffffffffffffffffffffff19166e5af43d82803e903d91602b57fd5bf3176020526037600988f56001600160a01b03811695861561260b57610c1b61014460043501612fd4565b9888928991610c2f6102e460043501612f7c565b61255f575b610c4260c460043501612f7c565b611602575b50888a52601260205260408a204290556003546001600160a01b0316610c726004356101c401612fd4565b91813b156115fe576040516335b380b960e21b81526001600160a01b039182166004820152921660248301528a908290604490829084905af1801561148257908a916115ea575b5050610cca6101c460043501612fd4565b90610cda61010460043501612f7c565b80156115d5575b806115b5575b6114c2575b508894610cfe61010460043501612f7c565b80156114ad575b8061148d575b6113eb575b60046101648135013510156113c25760043561016401356003036113e4576102246004350135955b6003546001600160a01b031695610d53600480350180612fe8565b9390600a5494600b54966040519a8b6001600160401b036101808281810110920111176113c6576101808c016040528b526001600160a01b031660208b0152610d9b81612f89565b91610da96040519384612f5b565b81835236828201116113e0578f91806020928386013783010152604089015260646004350135606089015260a4600435013560808901526084600435013560a0890152151560c0880152151560e08701521515610100860152610120850152610140840152610160830152610e236101e460043501612fd4565b60405198896101008101106001600160401b036101008c0111176113c6576101008a01604052610e5a61016460043501358b613127565b6001600160a01b0390811660208b015260043561018481013560408c01526101a481013560608c0152911660808a015261020481013560a08a015261022481013560c08a015290151560e0890152610eb59061024401612fd4565b9260046102648135013510156113dc57604051938460808101106001600160401b036080870111176113c657608085016040526001600160a01b03168452610f07600435610264013560208601613127565b60043561028481013560408601526102c48101356060860152610f2d906102e401612f7c565b90610f3d6101c460043501612fd4565b610f4b60c460043501612f7c565b92883b156113c25760408051634428de7b60e11b8152610260600482015286516001600160a01b03908116610264830152602088015116610284820152908601516101806102a483015280516103e48301819052909c919890969091908c5b8881106113ab575095899895899795610404958f9d9c9788968f9c9660e0906101608f946060958d8c8e010152858101516102c48d015260808101516102e48d015260a08101516103048d015260c081015115156103248d01528381015115156103448d015261010081015115156103648d01526101208101516103848d01526101408101516103a48d015201516103c48b015261104c60248b018251613149565b6020818101516001600160a01b0390811660448d0152604083015160648d01528583015160848d01526080830151811660a48d015260a083015160c48d015260c083015160e48d0152929091015115156101048b015282519091166101248a01528101516110bf906101448a0190613149565b6040810151610164890152015161018487015215156101a48601526001600160a01b03166101c485015260043560248101356101e4860152604401356102048501526102248401521515610244830152601f01601f19168101030191885af19081156113a057839161138c575b505080340361134e575b506001600160a01b0390506111506004356101c401612fd4565b16817f4f2ce4e40f623ca765fc0167a25cb7842ceaafb8d82d3dec26ca0d0e0d2d48966040519480a36103246004350161118f81600435600401612fe8565b939050610344600435016111a881600435600401612fe8565b95905061036460043501956111c287600435600401612fe8565b91905061038460043501946111dc86600435600401612fe8565b9480915015801590611345575b801561133c575b8015611333575b61120b575b60208960018055604051908152f35b6103e810611324575060c8106113125760c8106113005760c8106112ee5761127e6112de61128c6020976112d07f4e2fb815c48f38871c1a97680d69ecfc7db86ce1f02e00f1f438d6bdbb92b3a09661129a6112c26112708c9b600435600401612fe8565b989099600435600401612fe8565b969095600435600401612fe8565b929093600435600401612fe8565b9590966112b46040519b8c9b60808d5260808d019161301a565b918a830360208c015261301a565b91878303604089015261301a565b91848303606086015261301a565b0390a282808080808080806111fc565b60405163621c786f60e01b8152600490fd5b60405163f94023a960e01b8152600490fd5b604051637a59f6af60e11b8152600490fd5b630d7cfc5960e41b8152600490fd5b508415156111f7565b508315156111f0565b508215156111e9565b8180809234036113636101c460043501612fd4565b5af161136d612fa4565b501561137a578183611136565b604051633c31275160e21b8152600490fd5b61139590612f48565b6102de57818561112c565b6040513d85823e3d90fd5b8e81016020908101518c8301610404015201610faa565b8980fd5b634e487b7160e01b600052604160045260246000fd5b8680fd5b8f80fd5b8995610d38565b6003549095506001600160a01b0316602061140b60043561014401612fd4565b604051631a74b3f360e01b81526001600160a01b03909116600482015291829060249082905afa908115611482578a91611448575b501594610d10565b90506020813d60201161147a575b8161146360209383612f5b565b810103126113c2576114749061305a565b38611440565b3d9150611456565b6040513d8c823e3d90fd5b506001600160a01b036114a560043561014401612fd4565b161515610d0b565b506114bd61012460043501612f7c565b610d05565b6001600160a01b0381161561150a575b6114e16101c460043501612fd4565b6001600160a01b038281169116141580611503575b15610cec57905038610cec565b50846114f6565b5060046101648135013510156115b157600435610164013561159757600460206001600160a01b03611540833561014401612fd4565b1660405192838092638da5cb5b60e01b82525afa908115611482578a91611568575b506114d2565b61158a915060203d602011611590575b6115828183612f5b565b81019061303b565b38611562565b503d611578565b600460206001600160a01b03611540833561014401612fd4565b8880fd5b506001600160a01b036115cd60043561014401612fd4565b161515610ce7565b506115e561012460043501612f7c565b610ce1565b6115f390612f48565b6115b1578838610cb9565b8b80fd5b909360046101648135013510156117a157600435610164013560020361187757506001600160a01b0361163a60043561014401612fd4565b166117f1576102046004350135156118655761166c6116666084600435013561020460043501356130a9565b156130c9565b6118535760a46004350135156118035761022460043501356117f1576001928960206116f96001600160a01b036116a86004356101e401612fd4565b166116b86101c460043501612fd4565b6040516323b872dd60e01b81526001600160a01b03909116600480830191909152306024830152356102040135604482015293849283919082906064820190565b03925af180156117ad576117b8575b506001600160a01b036117206004356101e401612fd4565b60405163a9059cbb60e01b81526001600160a01b038416600480830191909152356102040135602482015291602091839116818e816044810103925af180156117ad57611770575b505b38610c47565b6020813d6020116117a5575b8161178960209383612f5b565b810103126117a15761179a9061305a565b5038611768565b8a80fd5b3d915061177c565b6040513d8d823e3d90fd5b6020813d6020116117e9575b816117d160209383612f5b565b810103126117a1576117e29061305a565b5038611708565b3d91506117c4565b604051631558dc5f60e31b8152600490fd5b60405162461bcd60e51b815260206004820152602260248201527f4d617820736c6f747320706572207061727469636970616e7420726571756972604482015261195960f21b6064820152608490fd5b604051633c8e6e6960e11b8152600490fd5b604051630193f71f60e51b8152600490fd5b600435610164013560030361190357506001600160a01b0361189e6004356101e401612fd4565b166117f1576001600160a01b036118ba60043561014401612fd4565b166117f1576118d96116666084600435013561022460043501356130a9565b6118535760a46004350135156118f15760019261176a565b6040516313b558f960e01b8152600490fd5b90600435610164013561201b5760016101a4600435013511611865576001600160a01b0361193660043561014401612fd4565b16151580612005575b15611b175750506001608460043501351161186557602460206001600160a01b0361196f60043561014401612fd4565b16604051928380926331a9108f60e11b8252610184600435013560048301525afa908115611482578a91611af8575b506001600160a01b036119b66004356101c401612fd4565b166001600160a01b0390911603611ae6576001926001600160a01b036119e160043561014401612fd4565b166119f16101c460043501612fd4565b813b156115fe57604051632142170760e11b81526001600160a01b039091166004808301919091523060248301523561018401356044820152908b9082908183816064810103925af180156117ad57908b91611ad2575b506001600160a01b039050611a6260043561014401612fd4565b16803b156117a157604051632142170760e11b8152306004808301919091526001600160a01b03841660248301523561018401356044820152908b908290606490829084905af180156117ad57908b91611abe575b505061176a565b611ac790612f48565b6113c2578938611ab7565b611adb90612f48565b6113c2578938611a48565b604051632d346a9760e01b8152600490fd5b611b11915060203d602011611590576115828183612f5b565b3861199e565b9093906001600160a01b03611b3160043561014401612fd4565b16151580611ff0575b611b45575b5061176a565b965093506001600160a01b039050611b6260043561014401612fd4565b6040516301ffc9a760e01b81526380ac58cd60e01b6004820152911690602081602481855afa908115611482578a91611fb6575b5015611f6a576040516301ffc9a760e01b8152637c97ded960e11b600482015290602090829060249082905afa908115611f04578991611f7c575b5015611f6a57600460206001600160a01b03611bf1833561014401612fd4565b1660405192838092633f6615ab60e11b82525afa908115611f04578991611f33575b506084600435013511611f215760016084600435013514611f0f5761016460043501356117f157600460206001600160a01b03611c54833561014401612fd4565b1660405192838092638da5cb5b60e01b82525afa908115611f04578991611ee5575b5080611c876101c460043501612fd4565b6001600160a01b03908116911603611d2e578515611d285760e460043501355b95935b6001600160a01b03611cc160043561014401612fd4565b16803b156117a1576040516227675f60e01b81526001600160a01b03831660048083019190915235608401356024820152908b908290604490829084905af180156117ad57908b91611d14575b50611b3f565b611d1d90612f48565b6113c2578938611d0e565b81611ca7565b9294926001600160a01b03611d4860043561014401612fd4565b1660c0611d5a6101c460043501612fd4565b6040516317f6397960e01b81526001600160a01b03909116600482015291829060249082905afa908115611482578a918b928c928d92611eac575b501561074057611da49161309c565b6084600435013511611e9a57611dbf61010460043501612f7c565b611e91575b80611e77575081958994611e65575b6001600160a01b03611dea60043561014401612fd4565b16611dfa6101c460043501612fd4565b813b156115fe576040516334ea162f60e11b81526001600160a01b0390911660048083019190915235608401356024820152908b9082908183816044810103925af180156117ad57908b91611e51575b5050611caa565b611e5a90612f48565b6113c2578938611e4a565b60405163805596b160e01b8152600490fd5b809196945060e4600435013503611e655794600193611dd3565b60019550611dc4565b604051630161dc7d60e21b8152600490fd5b92505050611ed1915060c03d8111611ede575b611ec98183612f5b565b810190613067565b9294919350389050611d95565b503d611ebf565b611efe915060203d602011611590576115828183612f5b565b38611c76565b6040513d8b823e3d90fd5b60405163c827d5c360e01b8152600490fd5b604051632fb7debb60e11b8152600490fd5b90506020813d602011611f62575b81611f4e60209383612f5b565b81010312611f5d575138611c13565b600080fd5b3d9150611f41565b6040516359071b0760e11b8152600490fd5b90506020813d602011611fae575b81611f9760209383612f5b565b810103126115b157611fa89061305a565b38611bd1565b3d9150611f8a565b90506020813d602011611fe8575b81611fd160209383612f5b565b810103126113c257611fe29061305a565b38611b96565b3d9150611fc4565b5061200061010460043501612f7c565b611b3a565b5061201561010460043501612f7c565b1561193f565b9093906004356101640135600103612521576101a46004350135156124dc576001600160a01b0361205160043561014401612fd4565b161515806124c7575b612064575061176a565b965093506001600160a01b03905061208160043561014401612fd4565b6040516301ffc9a760e01b8152636cdb3d1360e11b6004820152911690602081602481855afa908115611482578a9161248d575b5015611f6a576040516301ffc9a760e01b81526315ba79c360e11b600482015290602090829060249082905afa908115611f04578991612453575b5015611f6a5760016084600435013514611f0f5760043560848101356101a49091013580820291909104900361243d57602460206001600160a01b0361213b60043561014401612fd4565b1660405192838092633570cb2960e21b8252610184600435013560048301525afa908115611f0457899161240b575b506101a46004350135608460043501350211611f2157600460206001600160a01b0361219a833561014401612fd4565b1660405192838092638da5cb5b60e01b82525afa908115611f045789916123ec575b50806121cd6101c460043501612fd4565b6001600160a01b039081169116036122695785156122635760e460043501355b95935b6001600160a01b0361220760043561014401612fd4565b16803b156117a1578a809160648c60405194859384926309de21c160e41b84526004840152610184600435013560248401526101a46004350135608460043501350260448401525af180156117ad57908b91611d145750611b3f565b816121ed565b9294926001600160a01b0361228360043561014401612fd4565b1660c06122956101c460043501612fd4565b6040516317f6397960e01b81526001600160a01b03909116600482015291829060249082905afa908115611482578a918b928c928d926123c3575b5015610740576122df9161309c565b6084600435013511611e9a576122fa61012460043501612f7c565b6123ba575b806123a0575081958994611e65575b6001600160a01b0361232560043561014401612fd4565b166123356101c460043501612fd4565b813b156115fe576040516334ea162f60e11b81526001600160a01b0390911660048083019190915235608401356024820152908b9082908183816044810103925af180156117ad57908b9161238c575b50506121f0565b61239590612f48565b6113c2578938612385565b809196945060e4600435013503611e65579460019361230e565b600195506122ff565b925050506123df915060c03d8111611ede57611ec98183612f5b565b92949193503890506122d0565b612405915060203d602011611590576115828183612f5b565b386121bc565b90506020813d602011612435575b8161242660209383612f5b565b81010312611f5d57513861216a565b3d9150612419565b634e487b7160e01b600052601160045260246000fd5b90506020813d602011612485575b8161246e60209383612f5b565b810103126115b15761247f9061305a565b386120f0565b3d9150612461565b90506020813d6020116124bf575b816124a860209383612f5b565b810103126113c2576124b99061305a565b386120b5565b3d915061249b565b506124d761012460043501612f7c565b61205a565b60405162461bcd60e51b815260206004820152601d60248201527f416d6f756e74207065722077696e6e6572206d757374206265203e20300000006044820152606490fd5b60405162461bcd60e51b8152602060048201526016602482015275556e737570706f72746564207072697a65207479706560501b6044820152606490fd5b600e546001600160a01b031680156125f95761258661030460043501600435600401612fe8565b8291923b156125f557918d916125c293838f604051968795869485936386aec17960e01b8552600485015260406024850152604484019161301a565b03925af180156125ea576125d7575b50610c34565b6125e3909b919b612f48565b99386125d1565b6040513d8e823e3d90fd5b8d80fd5b6040516369ecf6c760e11b8152600490fd5b60405162461bcd60e51b815260206004820152601760248201527f455243313136373a2063726561746532206661696c65640000000000000000006044820152606490fd5b83610b24565b839150848661185357600160a46004350135116126b6576001600160a01b0361268460043561014401612fd4565b166126b65761269861010460043501612f7c565b6126b65761018460043501356126b6576101a4600435013515610b26575b604051630309cb8760e51b8152600490fd5b6064600435013580800460011490151715612707576103e8606460043501350460a460043501351115610af7576040516313b558f960e01b8152600490fd5b634e487b7160e01b82526011600452602482fd5b61272a61024460043501612fd4565b60046102648135013510156106985761274b90610264600435013590613156565b610ae4565b60405162461bcd60e51b815260206004820152601060248201526f24b73b30b634b210323ab930ba34b7b760811b6044820152606490fd5b50600854604460043501351115610ac2565b634e487b7160e01b84526011600452602484fd5b634e487b7160e01b83526011600452602483fd5b60405163ac255ca760e01b8152600490fd5b604051632ca4094f60e21b8152600490fd5b6040516316247b3f60e11b8152600490fd5b600d546001600160a01b031690811561288557604051906020820191635e5bc1c560e11b835281602482015260248152606081018181106001600160401b038211176128715760405251859384939192905af1612853612fa4565b501561285f5738610a19565b604051635b5b44c760e01b8152600490fd5b634e487b7160e01b87526041600452602487fd5b60405162461bcd60e51b815260206004820152601760248201527f526576656e7565206d616e61676572206e6f74207365740000000000000000006044820152606490fd5b60405163dbc3a71f60e01b8152600490fd5b936102246004350135810180911161279a5793610a0d565b506101646004350135600481101561290e57600314610a08565b8480fd5b935080936109f4565b600c549250806129cf575b612931575b386109e5565b600f546040516370a0823160e01b815233600482015290602090829060249082906001600160a01b03165afa9081156129c4578291612992575b50601054908160021b91808304600414901517156127ae571061292b579060011c9061292b565b90506020813d6020116129bc575b816129ad60209383612f5b565b810103126102de57513861296b565b3d91506129a0565b6040513d84823e3d90fd5b50600f546001600160a01b03161515612926565b600f546001600160a01b03168015612a6f576020602491604051928380926370a0823160e01b82523360048301525afa9081156129c4578291612a3d575b5060105411156109cf57604051633991498960e11b8152600490fd5b90506020813d602011612a67575b81612a5860209383612f5b565b810103126102de575138612a21565b3d9150612a4b565b60405162461bcd60e51b815260206004820152601460248201527311d85d1a5b99c81d1bdad95b881b9bdd081cd95d60621b6044820152606490fd5b604051628b531560e01b8152600490fd5b60405162461bcd60e51b815260206004820152601f60248201527f5265656e7472616e637947756172643a207265656e7472616e742063616c6c006044820152606490fd5b50346101d557806003193601126101d557612b1a612e98565b80546001600160a01b03198116825581906001600160a01b03167f8be0079c531659141344cd1fd0a4f28419497f9722a3daafe3b4186f6b6457e08280a380f35b50346101d557806003193601126101d557600e546040516001600160a01b039091168152602090f35b50346101d557806003193601126101d5576020600554604051908152f35b50346101d557806003193601126101d5576020600454604051908152f35b50346101d557806003193601126101d557600f546040516001600160a01b039091168152602090f35b50346101d55760803660031901126101d557612c03612e00565b50612c0c612e16565b506064356001600160401b0381116102de57612c2c903690600401612e2c565b5050604051630a85bd0160e11b8152602090f35b50346101d55760203660031901126101d557612c5a612e00565b612c62612e98565b6001600160a01b03168015612caa57600280546001600160a01b031916821790557f1eed81ce21a92b04ae795cb172e51fb0f8c7f90ec3cd2dc2b4c6395d8d39456f8280a280f35b60405162461bcd60e51b815260206004820152601b60248201527f496e76616c696420506f6f6c20696d706c656d656e746174696f6e00000000006044820152606490fd5b50346101d557806003193601126101d5576020600654604051908152f35b50346101d55760403660031901126101d557600435602435612d2d612e98565b81811115612d7057816040917f060e9bb7b24700e1f67f61d02209b1fb7e61dcb50699bd88a5004e8649f3e4ec936007558060085582519182526020820152a180f35b60405162461bcd60e51b815260206004820152601360248201527226b0bc1036bab9ba1032bc31b2b2b21036b4b760691b6044820152606490fd5b9050346102de5760203660031901126102de5760043563ffffffff60e01b81168091036106985760209250630a85bd0160e11b8114908115612def575b5015158152f35b630271189760e51b14905038612de8565b600435906001600160a01b0382168203611f5d57565b602435906001600160a01b0382168203611f5d57565b9181601f84011215611f5d578235916001600160401b038311611f5d5760208381860195010111611f5d57565b600435908115158203611f5d57565b9181601f84011215611f5d578235916001600160401b038311611f5d576020808501948460051b010111611f5d57565b6000546001600160a01b03163303612eac57565b606460405162461bcd60e51b815260206004820152602060248201527f4f776e61626c653a2063616c6c6572206973206e6f7420746865206f776e65726044820152fd5b600080546001600160a01b039283166001600160a01b03198216811783559216907f8be0079c531659141344cd1fd0a4f28419497f9722a3daafe3b4186f6b6457e09080a3565b15612f425760045490565b60055490565b6001600160401b0381116113c657604052565b90601f801991011681019081106001600160401b038211176113c657604052565b358015158103611f5d5790565b6001600160401b0381116113c657601f01601f191660200190565b3d15612fcf573d90612fb582612f89565b91612fc36040519384612f5b565b82523d6000602084013e565b606090565b356001600160a01b0381168103611f5d5790565b903590601e1981360301821215611f5d57018035906001600160401b038211611f5d57602001918136038313611f5d57565b908060209392818452848401376000828201840152601f01601f1916010190565b90816020910312611f5d57516001600160a01b0381168103611f5d5790565b51908115158203611f5d57565b91908260c0910312611f5d5761307c8261305a565b9160208101519160408201519160608101519160a0608083015192015190565b9190820391821161243d57565b81156130b3570690565b634e487b7160e01b600052601260045260246000fd5b156130d057565b60405162461bcd60e51b815260206004820152602960248201527f5072697a6520616d6f756e74206d75737420626520646976697369626c652062604482015268792077696e6e65727360b81b6064820152608490fd5b60048210156131335752565b634e487b7160e01b600052602160045260246000fd5b9060048210156131335752565b9091906001600160a01b038116908115613442573b15613442576004928381101561342d576002810361324957506040516318160ddd60e01b81526020908180828781875afa9182613220575b50506131ba5760405163137f48d760e31b81528490fd5b80602492604051938480926370a0823160e01b825230898301525afa91826131f7575b50506131f3575060405163137f48d760e31b8152fd5b9050565b813d8311613219575b61320a8183612f5b565b81010312611f5d5738806131dd565b503d613200565b813d8311613242575b6132338183612f5b565b81010312611f5d5781386131a3565b503d613229565b91929180613364575060409081516301ffc9a760e01b80825280858301526020918281602481875afa6000918161332d575b5061329057845163137f48d760e31b81528690fd5b1561331d578190602485518095819382526380ac58cd60e01b898301525afa9182916000936132e4575b50506132ce57505163137f48d760e31b8152fd5b156132d7575050565b5163137f48d760e31b8152fd5b8181949293943d8311613316575b6132fc8183612f5b565b810103126101d5575061330e9061305a565b9038806132ba565b503d6132f2565b5050505163137f48d760e31b8152fd5b90918482813d831161335d575b6133448183612f5b565b810103126101d557506133569061305a565b903861327b565b503d61333a565b60010361341d5760409081516301ffc9a760e01b80825280858301526020918281602481875afa600091816133e6575b506133a957845163137f48d760e31b81528690fd5b1561331d57819060248551809581938252636cdb3d1360e11b898301525afa9182916000936132e45750506132ce57505163137f48d760e31b8152fd5b90918482813d8311613416575b6133fd8183612f5b565b810103126101d5575061340f9061305a565b9038613394565b503d6133f3565b5060405163137f48d760e31b8152fd5b602184634e487b7160e01b6000525260246000fd5b60405163137f48d760e31b8152600490fdfea26469706673582212207ac6b0c56a33a538b8f57fc4242044bf259b2b6021917bcc4b22fdfb605db5b764736f6c63430008130033",
  "linkReferences": {},
  "deployedLinkReferences": {}
}