{
  "_format": "hh-sol-artifact-1",
  "contractName": "PoolDeployer",
  "sourceName": "contracts/PoolDeployer.sol",
  "abi": [
    {
      "inputs": [
        {
          "internalType": "address",
          "name": "_poolImplementation",
          "type": "address"
        },
        {
          "internalType": "address",
          "name": "_manager",
          "type": "address"
        }
      ],
      "stateMutability": "nonpayable",
      "type": "constructor"
    },
    {
      "inputs": [],
      "name": "ApprovedSlotFeeMismatch",
      "type": "error"
    },
    {
      "inputs": [],
      "name": "AvailableSupplyInsufficient",
      "type": "error"
    },
    {
      "inputs": [],
      "name": "CollectioNameTaken",
      "type": "error"
    },
    {
      "inputs": [],
      "name": "CollectionNameTaken",
      "type": "error"
    },
    {
      "inputs": [],
      "name": "ContractsNotAllowed",
      "type": "error"
    },
    {
      "inputs": [],
      "name": "DescriptionTooLong",
      "type": "error"
    },
    {
      "inputs": [],
      "name": "ExceedsApprovedWinnerLimit",
      "type": "error"
    },
    {
      "inputs": [],
      "name": "IncompatiblePrizeContract",
      "type": "error"
    },
    {
      "inputs": [],
      "name": "InsufficientCreatorTokenBalance",
      "type": "error"
    },
    {
      "inputs": [],
      "name": "InsufficientNativeBalance",
      "type": "error"
    },
    {
      "inputs": [],
      "name": "InsufficientPrizeAmountForEscrow",
      "type": "error"
    },
    {
      "inputs": [],
      "name": "InvalidDiscordLink",
      "type": "error"
    },
    {
      "inputs": [],
      "name": "InvalidMaxSlotsPerAddress",
      "type": "error"
    },
    {
      "inputs": [],
      "name": "InvalidParameter",
      "type": "error"
    },
    {
      "inputs": [],
      "name": "InvalidPrizeAmount",
      "type": "error"
    },
    {
      "inputs": [],
      "name": "InvalidPrizeType",
      "type": "error"
    },
    {
      "inputs": [],
      "name": "InvalidSlotFee",
      "type": "error"
    },
    {
      "inputs": [],
      "name": "InvalidSlotLimitConfig",
      "type": "error"
    },
    {
      "inputs": [],
      "name": "InvalidStartTime",
      "type": "error"
    },
    {
      "inputs": [],
      "name": "InvalidTelegramLink",
      "type": "error"
    },
    {
      "inputs": [],
      "name": "InvalidTokenGatingContract",
      "type": "error"
    },
    {
      "inputs": [],
      "name": "InvalidTwitterLink",
      "type": "error"
    },
    {
      "inputs": [],
      "name": "InvalidWinnerConfig",
      "type": "error"
    },
    {
      "inputs": [],
      "name": "NotOwnerOfTokenID",
      "type": "error"
    },
    {
      "inputs": [],
      "name": "PoolCreationPaused",
      "type": "error"
    },
    {
      "inputs": [],
      "name": "PoolNameTaken",
      "type": "error"
    },
    {
      "inputs": [],
      "name": "RefundFailed",
      "type": "error"
    },
    {
      "inputs": [],
      "name": "SocialEngagementFeeTransferFailed",
      "type": "error"
    },
    {
      "inputs": [],
      "name": "SocialEngagementParametersNotConfigured",
      "type": "error"
    },
    {
      "inputs": [],
      "name": "Unauthorized",
      "type": "error"
    },
    {
      "anonymous": false,
      "inputs": [
        {
          "indexed": false,
          "internalType": "address",
          "name": "revenueManager",
          "type": "address"
        },
        {
          "indexed": false,
          "internalType": "address",
          "name": "socialEngagementManager",
          "type": "address"
        }
      ],
      "name": "ContractAddressesUpdated",
      "type": "event"
    },
    {
      "anonymous": false,
      "inputs": [
        {
          "indexed": false,
          "internalType": "bool",
          "name": "paused",
          "type": "bool"
        }
      ],
      "name": "CreationPausedUpdated",
      "type": "event"
    },
    {
      "anonymous": false,
      "inputs": [
        {
          "indexed": false,
          "internalType": "bool",
          "name": "enabled",
          "type": "bool"
        },
        {
          "indexed": false,
          "internalType": "address",
          "name": "token",
          "type": "address"
        },
        {
          "indexed": false,
          "internalType": "uint256",
          "name": "minBalance",
          "type": "uint256"
        }
      ],
      "name": "CreatorTokenConfigUpdated",
      "type": "event"
    },
    {
      "anonymous": false,
      "inputs": [
        {
          "indexed": false,
          "internalType": "uint256",
          "name": "min",
          "type": "uint256"
        },
        {
          "indexed": false,
          "internalType": "uint256",
          "name": "max",
          "type": "uint256"
        }
      ],
      "name": "DurationLimitsUpdated",
      "type": "event"
    },
    {
      "anonymous": false,
      "inputs": [
        {
          "indexed": false,
          "internalType": "uint256",
          "name": "slotFee",
          "type": "uint256"
        },
        {
          "indexed": false,
          "internalType": "uint256",
          "name": "protocolFee",
          "type": "uint256"
        },
        {
          "indexed": false,
          "internalType": "uint256",
          "name": "creationFee",
          "type": "uint256"
        },
        {
          "indexed": false,
          "internalType": "uint256",
          "name": "socialFee",
          "type": "uint256"
        }
      ],
      "name": "FeeConfigUpdated",
      "type": "event"
    },
    {
      "anonymous": false,
      "inputs": [
        {
          "indexed": true,
          "internalType": "address",
          "name": "previousOwner",
          "type": "address"
        },
        {
          "indexed": true,
          "internalType": "address",
          "name": "newOwner",
          "type": "address"
        }
      ],
      "name": "OwnershipTransferred",
      "type": "event"
    },
    {
      "anonymous": false,
      "inputs": [
        {
          "indexed": true,
          "internalType": "address",
          "name": "pool",
          "type": "address"
        },
        {
          "indexed": true,
          "internalType": "address",
          "name": "creator",
          "type": "address"
        }
      ],
      "name": "PoolCreated",
      "type": "event"
    },
    {
      "anonymous": false,
      "inputs": [
        {
          "indexed": true,
          "internalType": "address",
          "name": "poolImplementation",
          "type": "address"
        }
      ],
      "name": "PoolImplementationUpdated",
      "type": "event"
    },
    {
      "anonymous": false,
      "inputs": [
        {
          "indexed": true,
          "internalType": "address",
          "name": "pool",
          "type": "address"
        },
        {
          "indexed": false,
          "internalType": "string",
          "name": "description",
          "type": "string"
        },
        {
          "indexed": false,
          "internalType": "string",
          "name": "twitterLink",
          "type": "string"
        },
        {
          "indexed": false,
          "internalType": "string",
          "name": "discordLink",
          "type": "string"
        },
        {
          "indexed": false,
          "internalType": "string",
          "name": "telegramLink",
          "type": "string"
        }
      ],
      "name": "PoolMetadataSet",
      "type": "event"
    },
    {
      "anonymous": false,
      "inputs": [
        {
          "indexed": false,
          "internalType": "uint256",
          "name": "minPrized",
          "type": "uint256"
        },
        {
          "indexed": false,
          "internalType": "uint256",
          "name": "minNonPrized",
          "type": "uint256"
        },
        {
          "indexed": false,
          "internalType": "uint256",
          "name": "max",
          "type": "uint256"
        }
      ],
      "name": "SlotLimitsUpdated",
      "type": "event"
    },
    {
      "inputs": [
        {
          "components": [
            {
              "internalType": "string",
              "name": "name",
              "type": "string"
            },
            {
              "internalType": "uint256",
              "name": "startTime",
              "type": "uint256"
            },
            {
              "internalType": "uint256",
              "name": "duration",
              "type": "uint256"
            },
            {
              "internalType": "uint256",
              "name": "slotLimit",
              "type": "uint256"
            },
            {
              "internalType": "uint256",
              "name": "winnersCount",
              "type": "uint256"
            },
            {
              "internalType": "uint256",
              "name": "maxSlotsPerAddress",
              "type": "uint256"
            },
            {
              "internalType": "bool",
              "name": "isPrized",
              "type": "bool"
            },
            {
              "internalType": "uint256",
              "name": "customSlotFee",
              "type": "uint256"
            },
            {
              "internalType": "bool",
              "name": "erc721Drop",
              "type": "bool"
            },
            {
              "internalType": "bool",
              "name": "erc1155Drop",
              "type": "bool"
            },
            {
              "internalType": "address",
              "name": "prizeCollection",
              "type": "address"
            },
            {
              "internalType": "enum PrizeTypes.Standard",
              "name": "standard",
              "type": "uint8"
            },
            {
              "internalType": "uint256",
              "name": "prizeTokenId",
              "type": "uint256"
            },
            {
              "internalType": "uint256",
              "name": "amountPerWinner",
              "type": "uint256"
            },
            {
              "internalType": "address",
              "name": "creator",
              "type": "address"
            },
            {
              "internalType": "address",
              "name": "erc20PrizeToken",
              "type": "address"
            },
            {
              "internalType": "uint256",
              "name": "erc20PrizeAmount",
              "type": "uint256"
            },
            {
              "internalType": "uint256",
              "name": "nativePrizeAmount",
              "type": "uint256"
            },
            {
              "internalType": "address",
              "name": "holderTokenAddress",
              "type": "address"
            },
            {
              "internalType": "enum PrizeTypes.Standard",
              "name": "holderTokenStandard",
              "type": "uint8"
            },
            {
              "internalType": "uint256",
              "name": "minHolderTokenBalance",
              "type": "uint256"
            },
            {
              "internalType": "uint256",
              "name": "holderTokenBalance",
              "type": "uint256"
            },
            {
              "internalType": "uint256",
              "name": "holderTokenId",
              "type": "uint256"
            },
            {
              "internalType": "bool",
              "name": "socialEngagementRequired",
              "type": "bool"
            },
            {
              "internalType": "string",
              "name": "socialTaskDescription",
              "type": "string"
            },
            {
              "internalType": "string",
              "name": "description",
              "type": "string"
            },
            {
              "internalType": "string",
              "name": "twitterLink",
              "type": "string"
            },
            {
              "internalType": "string",
              "name": "discordLink",
              "type": "string"
            },
            {
              "internalType": "string",
              "name": "telegramLink",
              "type": "string"
            }
          ],
          "internalType": "struct PoolDeployer.PoolParams",
          "name": "p",
          "type": "tuple"
        }
      ],
      "name": "createPool",
      "outputs": [
        {
          "internalType": "address",
          "name": "",
          "type": "address"
        }
      ],
      "stateMutability": "payable",
      "type": "function"
    },
    {
      "inputs": [],
      "name": "creationFeePercentage",
      "outputs": [
        {
          "internalType": "uint256",
          "name": "",
          "type": "uint256"
        }
      ],
      "stateMutability": "view",
      "type": "function"
    },
    {
      "inputs": [],
      "name": "creationPaused",
      "outputs": [
        {
          "internalType": "bool",
          "name": "",
          "type": "bool"
        }
      ],
      "stateMutability": "view",
      "type": "function"
    },
    {
      "inputs": [],
      "name": "creatorToken",
      "outputs": [
        {
          "internalType": "address",
          "name": "",
          "type": "address"
        }
      ],
      "stateMutability": "view",
      "type": "function"
    },
    {
      "inputs": [
        {
          "internalType": "bool",
          "name": "isPrized",
          "type": "bool"
        }
      ],
      "name": "getMinSlotLimit",
      "outputs": [
        {
          "internalType": "uint256",
          "name": "",
          "type": "uint256"
        }
      ],
      "stateMutability": "view",
      "type": "function"
    },
    {
      "inputs": [],
      "name": "globalSlotFee",
      "outputs": [
        {
          "internalType": "uint256",
          "name": "",
          "type": "uint256"
        }
      ],
      "stateMutability": "view",
      "type": "function"
    },
    {
      "inputs": [],
      "name": "isCreatorTokenGated",
      "outputs": [
        {
          "internalType": "bool",
          "name": "",
          "type": "bool"
        }
      ],
      "stateMutability": "view",
      "type": "function"
    },
    {
      "inputs": [
        {
          "internalType": "address",
          "name": "",
          "type": "address"
        }
      ],
      "name": "lastPoolCreationTime",
      "outputs": [
        {
          "internalType": "uint256",
          "name": "",
          "type": "uint256"
        }
      ],
      "stateMutability": "view",
      "type": "function"
    },
    {
      "inputs": [],
      "name": "maxPoolDuration",
      "outputs": [
        {
          "internalType": "uint256",
          "name": "",
          "type": "uint256"
        }
      ],
      "stateMutability": "view",
      "type": "function"
    },
    {
      "inputs": [],
      "name": "maxSlotLimit",
      "outputs": [
        {
          "internalType": "uint256",
          "name": "",
          "type": "uint256"
        }
      ],
      "stateMutability": "view",
      "type": "function"
    },
    {
      "inputs": [],
      "name": "minCreatorTokenBalance",
      "outputs": [
        {
          "internalType": "uint256",
          "name": "",
          "type": "uint256"
        }
      ],
      "stateMutability": "view",
      "type": "function"
    },
    {
      "inputs": [],
      "name": "minPoolDuration",
      "outputs": [
        {
          "internalType": "uint256",
          "name": "",
          "type": "uint256"
        }
      ],
      "stateMutability": "view",
      "type": "function"
    },
    {
      "inputs": [],
      "name": "minSlotLimit",
      "outputs": [
        {
          "internalType": "uint256",
          "name": "",
          "type": "uint256"
        }
      ],
      "stateMutability": "view",
      "type": "function"
    },
    {
      "inputs": [],
      "name": "minSlotLimitNonPrized",
      "outputs": [
        {
          "internalType": "uint256",
          "name": "",
          "type": "uint256"
        }
      ],
      "stateMutability": "view",
      "type": "function"
    },
    {
      "inputs": [
        {
          "internalType": "address",
          "name": "",
          "type": "address"
        },
        {
          "internalType": "address",
          "name": "",
          "type": "address"
        },
        {
          "internalType": "uint256[]",
          "name": "",
          "type": "uint256[]"
        },
        {
          "internalType": "uint256[]",
          "name": "",
          "type": "uint256[]"
        },
        {
          "internalType": "bytes",
          "name": "",
          "type": "bytes"
        }
      ],
      "name": "onERC1155BatchReceived",
      "outputs": [
        {
          "internalType": "bytes4",
          "name": "",
          "type": "bytes4"
        }
      ],
      "stateMutability": "pure",
      "type": "function"
    },
    {
      "inputs": [
        {
          "internalType": "address",
          "name": "",
          "type": "address"
        },
        {
          "internalType": "address",
          "name": "",
          "type": "address"
        },
        {
          "internalType": "uint256",
          "name": "",
          "type": "uint256"
        },
        {
          "internalType": "uint256",
          "name": "",
          "type": "uint256"
        },
        {
          "internalType": "bytes",
          "name": "",
          "type": "bytes"
        }
      ],
      "name": "onERC1155Received",
      "outputs": [
        {
          "internalType": "bytes4",
          "name": "",
          "type": "bytes4"
        }
      ],
      "stateMutability": "pure",
      "type": "function"
    },
    {
      "inputs": [
        {
          "internalType": "address",
          "name": "",
          "type": "address"
        },
        {
          "internalType": "address",
          "name": "",
          "type": "address"
        },
        {
          "internalType": "uint256",
          "name": "",
          "type": "uint256"
        },
        {
          "internalType": "bytes",
          "name": "",
          "type": "bytes"
        }
      ],
      "name": "onERC721Received",
      "outputs": [
        {
          "internalType": "bytes4",
          "name": "",
          "type": "bytes4"
        }
      ],
      "stateMutability": "pure",
      "type": "function"
    },
    {
      "inputs": [],
      "name": "owner",
      "outputs": [
        {
          "internalType": "address",
          "name": "",
          "type": "address"
        }
      ],
      "stateMutability": "view",
      "type": "function"
    },
    {
      "inputs": [],
      "name": "poolImplementation",
      "outputs": [
        {
          "internalType": "address",
          "name": "",
          "type": "address"
        }
      ],
      "stateMutability": "view",
      "type": "function"
    },
    {
      "inputs": [],
      "name": "protocolFeePercentage",
      "outputs": [
        {
          "internalType": "uint256",
          "name": "",
          "type": "uint256"
        }
      ],
      "stateMutability": "view",
      "type": "function"
    },
    {
      "inputs": [],
      "name": "protocolManager",
      "outputs": [
        {
          "internalType": "address",
          "name": "",
          "type": "address"
        }
      ],
      "stateMutability": "view",
      "type": "function"
    },
    {
      "inputs": [],
      "name": "renounceOwnership",
      "outputs": [],
      "stateMutability": "nonpayable",
      "type": "function"
    },
    {
      "inputs": [],
      "name": "revenueManager",
      "outputs": [
        {
          "internalType": "address",
          "name": "",
          "type": "address"
        }
      ],
      "stateMutability": "view",
      "type": "function"
    },
    {
      "inputs": [
        {
          "internalType": "address",
          "name": "_revenueManager",
          "type": "address"
        },
        {
          "internalType": "address",
          "name": "_socialEngagementManager",
          "type": "address"
        }
      ],
      "name": "setContractAddresses",
      "outputs": [],
      "stateMutability": "nonpayable",
      "type": "function"
    },
    {
      "inputs": [
        {
          "internalType": "bool",
          "name": "_paused",
          "type": "bool"
        }
      ],
      "name": "setCreationPaused",
      "outputs": [],
      "stateMutability": "nonpayable",
      "type": "function"
    },
    {
      "inputs": [
        {
          "internalType": "bool",
          "name": "_enabled",
          "type": "bool"
        },
        {
          "internalType": "address",
          "name": "_token",
          "type": "address"
        },
        {
          "internalType": "uint256",
          "name": "_minBalance",
          "type": "uint256"
        }
      ],
      "name": "setCreatorTokenConfig",
      "outputs": [],
      "stateMutability": "nonpayable",
      "type": "function"
    },
    {
      "inputs": [
        {
          "internalType": "uint256",
          "name": "_min",
          "type": "uint256"
        },
        {
          "internalType": "uint256",
          "name": "_max",
          "type": "uint256"
        }
      ],
      "name": "setDurationLimits",
      "outputs": [],
      "stateMutability": "nonpayable",
      "type": "function"
    },
    {
      "inputs": [
        {
          "internalType": "uint256",
          "name": "_slotFee",
          "type": "uint256"
        },
        {
          "internalType": "uint256",
          "name": "_protocolFee",
          "type": "uint256"
        },
        {
          "internalType": "uint256",
          "name": "_creationFee",
          "type": "uint256"
        },
        {
          "internalType": "uint256",
          "name": "_socialFee",
          "type": "uint256"
        }
      ],
      "name": "setFeeConfig",
      "outputs": [],
      "stateMutability": "nonpayable",
      "type": "function"
    },
    {
      "inputs": [
        {
          "internalType": "uint256",
          "name": "_minPrized",
          "type": "uint256"
        },
        {
          "internalType": "uint256",
          "name": "_minNonPrized",
          "type": "uint256"
        },
        {
          "internalType": "uint256",
          "name": "_max",
          "type": "uint256"
        }
      ],
      "name": "setSlotLimits",
      "outputs": [],
      "stateMutability": "nonpayable",
      "type": "function"
    },
    {
      "inputs": [],
      "name": "socialEngagementFee",
      "outputs": [
        {
          "internalType": "uint256",
          "name": "",
          "type": "uint256"
        }
      ],
      "stateMutability": "view",
      "type": "function"
    },
    {
      "inputs": [],
      "name": "socialEngagementManager",
      "outputs": [
        {
          "internalType": "address",
          "name": "",
          "type": "address"
        }
      ],
      "stateMutability": "view",
      "type": "function"
    },
    {
      "inputs": [
        {
          "internalType": "bytes4",
          "name": "interfaceId",
          "type": "bytes4"
        }
      ],
      "name": "supportsInterface",
      "outputs": [
        {
          "internalType": "bool",
          "name": "",
          "type": "bool"
        }
      ],
      "stateMutability": "view",
      "type": "function"
    },
    {
      "inputs": [
        {
          "internalType": "address",
          "name": "newOwner",
          "type": "address"
        }
      ],
      "name": "transferOwnership",
      "outputs": [],
      "stateMutability": "nonpayable",
      "type": "function"
    },
    {
      "inputs": [],
      "name": "transferOwnershipToManager",
      "outputs": [],
      "stateMutability": "nonpayable",
      "type": "function"
    },
    {
      "inputs": [
        {
          "internalType": "address",
          "name": "_poolImplementation",
          "type": "address"
        }
      ],
      "name": "updatePoolImplementation",
      "outputs": [],
      "stateMutability": "nonpayable",
      "type": "function"
    }
  ],
  "bytecode": "0x608034620000d057601f6200357338819003918201601f19168301916001600160401b03831184841017620000d5578084926040948552833981010312620000d0576200005a60206200005283620000eb565b9201620000eb565b60008054336001600160a01b0319808316821784556040519590946001600160a01b03949093859391908416907f8be0079c531659141344cd1fd0a4f28419497f9722a3daafe3b4186f6b6457e09080a36001805516836002541617600255169060035416176003556134729081620001018239f35b600080fd5b634e487b7160e01b600052604160045260246000fd5b51906001600160a01b0382168203620000d05756fe608080604052600436101561001357600080fd5b600090813560e01c90816301ffc9a714612d9357508063026cf60114612cf55780630402a28a14612cd7578063065bc36f14612c28578063150b7a0214612bd15780631f7dde6e14612bab578063483a5f1414612b825780634c0e35b114612b64578063565e3eff14612b4657806359c7f8d414612b0d57806359c810c114612aef5780636b90bda914612ac6578063715018a614612a6c5780637b5b7878146108e85780637c93fbf71461079e5780638da5cb5b146107775780638e50e509146107595780639c2dcafb1461073b578063a21d131c146106db578063a2b32732146106bd578063a9dd23051461067b578063ab4b669214610652578063ada5c13214610634578063b546ba4a14610608578063bc197c8114610578578063bd12dd6414610555578063cd931e40146104ce578063cefa7799146104a5578063d8baf4ef14610403578063d91043f2146103e5578063dbd5ef6d146102d7578063e720c005146102b9578063f23a6e611461025e578063f2fde38b146101cd5763ff3cd61e146101a257600080fd5b346101ca57806003193601126101ca57600e546040516001600160a01b039091168152602090f35b80fd5b50346101ca5760203660031901126101ca576101e7612de8565b6101ef612e80565b6001600160a01b0381161561020a5761020790612ed8565b80f35b60405162461bcd60e51b815260206004820152602660248201527f4f776e61626c653a206e6577206f776e657220697320746865207a65726f206160448201526564647265737360d01b6064820152608490fd5b50346101ca5760a03660031901126101ca57610278612de8565b50610281612dfe565b506084356001600160401b0381116102b5576102a1903690600401612e14565b505060405163f23a6e6160e01b8152602090f35b5080fd5b50346101ca57806003193601126101ca576020600854604051908152f35b50346101ca5760803660031901126101ca576044356024356004356064356102fd612e80565b6127108084116103a057841161035b577f58ee77c9f5b50426dc036dff11919df1099b3ca39cf4823cecb182e34465a2f79360809383600a5580600b5581600c5582600d55604051938452602084015260408301526060820152a180f35b60405162461bcd60e51b815260206004820152601f60248201527f4372656174696f6e206665652063616e6e6f74206578636565642031303025006044820152606490fd5b60405162461bcd60e51b815260206004820152601f60248201527f50726f746f636f6c206665652063616e6e6f74206578636565642031303025006044820152606490fd5b50346101ca57806003193601126101ca576020600c54604051908152f35b50346101ca5760603660031901126101ca577f593ab029eb06ea67c1c17c0e12adb3aebb20a716a9cc3c787d26b1ccef1c14236060610440612e41565b610448612dfe565b9060443590610455612e80565b151591600f5460ff60a01b8460a01b169060ff60a01b191617600f5560018060a01b0316806001600160601b0360a01b60105416176010558160115560405192835260208301526040820152a180f35b50346101ca57806003193601126101ca576002546040516001600160a01b039091168152602090f35b50346101ca5760403660031901126101ca577fb74ce24e1b912d339e2e92f0ab4cc7567a0b11bb3874d76b9d6e675ffbd6e3ec604061050b612de8565b610513612dfe565b61051b612e80565b60018060a01b03809216916001600160601b0360a01b918383600e541617600e55168091600f541617600f5582519182526020820152a180f35b50346101ca57806003193601126101ca57602060ff601254166040519015158152f35b50346101ca5760a03660031901126101ca57610592612de8565b5061059b612dfe565b506001600160401b03604435818111610604576105bc903690600401612e50565b5050606435818111610604576105d6903690600401612e50565b50506084359081116102b5576105f0903690600401612e14565b505060405163bc197c8160e01b8152602090f35b8280fd5b50346101ca5760203660031901126101ca57602061062c610627612e41565b612f1f565b604051908152f35b50346101ca57806003193601126101ca576020600d54604051908152f35b50346101ca57806003193601126101ca576003546040516001600160a01b039091168152602090f35b50346101ca57806003193601126101ca5780546001600160a01b0390811633036106ac576102079060035416612ed8565b6040516282b42960e81b8152600490fd5b50346101ca57806003193601126101ca576020600a54604051908152f35b50346101ca5760203660031901126101ca577f6f8f11770f6ccb42a077311d0f112148142e18b97a88d8f993d66dd4e0ec95216020610718612e41565b610720612e80565b151560ff196012541660ff821617601255604051908152a180f35b50346101ca57806003193601126101ca576020600954604051908152f35b50346101ca57806003193601126101ca576020600b54604051908152f35b50346101ca57806003193601126101ca57546040516001600160a01b039091168152602090f35b50346101ca5760603660031901126101ca576044356024356004356107c1612e80565b80156108aa578115610865578083118061085c575b15610820577feb78458964f69dce3bc3e472dc9c3abca68f6735dae4c8dc5d5742c92e59d1fc9260609282600555806006558160075560405192835260208301526040820152a180f35b60405162461bcd60e51b81526020600482015260146024820152734d6178206d75737420657863656564206d696e7360601b6044820152606490fd5b508183116107d6565b60405162461bcd60e51b815260206004820152601a60248201527f4d696e206e6f6e2d7072697a6564206d757374206265203e20300000000000006044820152606490fd5b60405162461bcd60e51b815260206004820152601660248201527504d696e207072697a6564206d757374206265203e20360541b6044820152606490fd5b506003196020368201126102b5576001600160401b03600435116102b5576103a090600435360301126101ca57600260015414612a27576002600155333203612a165733815260046020526040812054610e1081018091116126a75742106129ab5760ff600f5460a01c1680612995575b6128c1575b61096d6102e460043501612f30565b156128bb57600d54905b600a548192801515806128b2575b61099360c460043501612f30565b80612894575b61287c575b84341061286a57612798575b5060ff6012541661278657426024600435013510612774576109d361062760c460043501612f30565b6064600435013510612762576007546064600435013511612762576084600435013515611eaf57606460043501356084600435013511611eaf57600435608401356064818102918204900361274e57601e606460043501358181029291818404149015171561273a5711611eaf5760085460446004350135101580612728575b156126f05760a46004350135611891576001600160a01b03610a7a60043561024401612fbc565b166126bb575b610a8e60c460043501612f30565b612668575b60e460043501351515928383610aad60c460043501612f30565b156125f65785156125f05760e460043501355b915b82156117f357610ad76101c460043501612fbc565b60a8610b38610aea600480350180612fd0565b92908360405194859260208401976001600160601b03199060601b1688524260348501524360548501523260601b607485015260888401378101346088820152036088810184520182612f50565b519020600254608881901c62ffffff16763d602d80600a3d3981f3363d3d373d3d3d363d7300000017885260781b6effffffffffffffffffffffffffffff19166e5af43d82803e903d91602b57fd5bf3176020526037600988f56001600160a01b0381169586156125ab57610bb261014460043501612fbc565b9888928991610bc66102e460043501612f30565b6124ff575b610bd960c460043501612f30565b6115a2575b506003546001600160a01b0316610bfa6004356101c401612fbc565b813b1561159e576040516001620bb01d60e11b031981526001600160a01b039384166004820152921660248301524260448301528a908290606490829084905af1801561142257908a9161158a575b5050610c5a6101c460043501612fbc565b90610c6a61010460043501612f30565b8015611575575b80611555575b611462575b508894610c8e61010460043501612f30565b801561144d575b8061142d575b61138b575b6004610164813501351015611362576004356101640135600303611384576102246004350135955b6003546001600160a01b031695610ce3600480350180612fd0565b9390600b5494600c54966040519a8b6001600160401b03610180828181011092011117611366576101808c016040528b526001600160a01b031660208b0152610d2b81612f71565b91610d396040519384612f50565b8183523682820111611380578f91806020928386013783010152604089015260646004350135606089015260a4600435013560808901526084600435013560a0890152151560c0880152151560e08701521515610100860152610120850152610140840152610160830152610db36101e460043501612fbc565b60405198896101008101106001600160401b036101008c011117611366576101008a01604052610dea61016460043501358b61310f565b6001600160a01b0390811660208b015260043561018481013560408c01526101a481013560608c0152911660808a015261020481013560a08a015261022481013560c08a015290151560e0890152610e459061024401612fbc565b92600461026481350135101561137c57604051938460808101106001600160401b0360808701111761136657608085016040526001600160a01b03168452610e9760043561026401356020860161310f565b60043561028481013560408601526102c48101356060860152610ebd906102e401612f30565b90610ecd6101c460043501612fbc565b610edb60c460043501612f30565b92883b156113625760408051634428de7b60e11b8152610260600482015286516001600160a01b03908116610264830152602088015116610284820152908601516101806102a483015280516103e48301819052909c919890969091908c5b88811061134b575095899895899795610404958f9d9c9788968f9c9660e0906101608f946060958d8c8e010152858101516102c48d015260808101516102e48d015260a08101516103048d015260c081015115156103248d01528381015115156103448d015261010081015115156103648d01526101208101516103848d01526101408101516103a48d015201516103c48b0152610fdc60248b018251613131565b6020818101516001600160a01b0390811660448d0152604083015160648d01528583015160848d01526080830151811660a48d015260a083015160c48d015260c083015160e48d0152929091015115156101048b015282519091166101248a015281015161104f906101448a0190613131565b6040810151610164890152015161018487015215156101a48601526001600160a01b03166101c485015260043560248101356101e4860152604401356102048501526102248401521515610244830152601f01601f19168101030191885af190811561134057839161132c575b50508034036112ee575b506001600160a01b0390506110e06004356101c401612fbc565b169160405192827f4f2ce4e40f623ca765fc0167a25cb7842ceaafb8d82d3dec26ca0d0e0d2d48968380a36103246004350161112181600435600401612fd0565b9490506103446004350161113a81600435600401612fd0565b969050610364600435019661115488600435600401612fd0565b919050610384600435019461116e86600435600401612fd0565b94809150158015906112e5575b80156112dc575b80156112d3575b6111ab575b60208a8a3381526004835260404291205560018055604051908152f35b6103e8106112c4575060c8106112b25760c8106112a05760c81061128e5761121e61127e61122c6020986112707f4e2fb815c48f38871c1a97680d69ecfc7db86ce1f02e00f1f438d6bdbb92b3a09661123a6112626112108d9b600435600401612fd0565b989099600435600401612fd0565b969095600435600401612fd0565b929093600435600401612fd0565b9590966112546040519b8c9b60808d5260808d0191613002565b918a830360208c0152613002565b918783036040890152613002565b918483036060860152613002565b0390a2838080808080808061118e565b60405163621c786f60e01b8152600490fd5b60405163f94023a960e01b8152600490fd5b604051637a59f6af60e11b8152600490fd5b630d7cfc5960e41b8152600490fd5b50841515611189565b50831515611182565b5082151561117b565b8180809234036113036101c460043501612fbc565b5af161130d612f8c565b501561131a5781836110c6565b604051633c31275160e21b8152600490fd5b61133590612f3d565b6102b55781856110bc565b6040513d85823e3d90fd5b8e81016020908101518c8301610404015201610f3a565b8980fd5b634e487b7160e01b600052604160045260246000fd5b8680fd5b8f80fd5b8995610cc8565b6003549095506001600160a01b031660206113ab60043561014401612fbc565b604051631a74b3f360e01b81526001600160a01b03909116600482015291829060249082905afa908115611422578a916113e8575b501594610ca0565b90506020813d60201161141a575b8161140360209383612f50565b810103126113625761141490613042565b386113e0565b3d91506113f6565b6040513d8c823e3d90fd5b506001600160a01b0361144560043561014401612fbc565b161515610c9b565b5061145d61012460043501612f30565b610c95565b6001600160a01b038116156114aa575b6114816101c460043501612fbc565b6001600160a01b0382811691161415806114a3575b15610c7c57905038610c7c565b5084611496565b50600461016481350135101561155157600435610164013561153757600460206001600160a01b036114e0833561014401612fbc565b1660405192838092638da5cb5b60e01b82525afa908115611422578a91611508575b50611472565b61152a915060203d602011611530575b6115228183612f50565b810190613023565b38611502565b503d611518565b600460206001600160a01b036114e0833561014401612fbc565b8880fd5b506001600160a01b0361156d60043561014401612fbc565b161515610c77565b5061158561012460043501612f30565b610c71565b61159390612f3d565b611551578838610c49565b8b80fd5b9093600461016481350135101561174157600435610164013560020361181757506001600160a01b036115da60043561014401612fbc565b16611791576102046004350135156118055761160c611606608460043501356102046004350135613091565b156130b1565b6117f35760a46004350135156117a3576102246004350135611791576001928960206116996001600160a01b036116486004356101e401612fbc565b166116586101c460043501612fbc565b6040516323b872dd60e01b81526001600160a01b03909116600480830191909152306024830152356102040135604482015293849283919082906064820190565b03925af1801561174d57611758575b506001600160a01b036116c06004356101e401612fbc565b60405163a9059cbb60e01b81526001600160a01b038416600480830191909152356102040135602482015291602091839116818e816044810103925af1801561174d57611710575b505b38610bde565b6020813d602011611745575b8161172960209383612f50565b810103126117415761173a90613042565b5038611708565b8a80fd5b3d915061171c565b6040513d8d823e3d90fd5b6020813d602011611789575b8161177160209383612f50565b810103126117415761178290613042565b50386116a8565b3d9150611764565b604051631558dc5f60e31b8152600490fd5b60405162461bcd60e51b815260206004820152602260248201527f4d617820736c6f747320706572207061727469636970616e7420726571756972604482015261195960f21b6064820152608490fd5b604051633c8e6e6960e11b8152600490fd5b604051630193f71f60e51b8152600490fd5b60043561016401356003036118a357506001600160a01b0361183e6004356101e401612fbc565b16611791576001600160a01b0361185a60043561014401612fbc565b1661179157611879611606608460043501356102246004350135613091565b6117f35760a46004350135156118915760019261170a565b6040516313b558f960e01b8152600490fd5b906004356101640135611fbb5760016101a4600435013511611805576001600160a01b036118d660043561014401612fbc565b16151580611fa5575b15611ab75750506001608460043501351161180557602460206001600160a01b0361190f60043561014401612fbc565b16604051928380926331a9108f60e11b8252610184600435013560048301525afa908115611422578a91611a98575b506001600160a01b036119566004356101c401612fbc565b166001600160a01b0390911603611a86576001926001600160a01b0361198160043561014401612fbc565b166119916101c460043501612fbc565b813b1561159e57604051632142170760e11b81526001600160a01b039091166004808301919091523060248301523561018401356044820152908b9082908183816064810103925af1801561174d57908b91611a72575b506001600160a01b039050611a0260043561014401612fbc565b16803b1561174157604051632142170760e11b8152306004808301919091526001600160a01b03841660248301523561018401356044820152908b908290606490829084905af1801561174d57908b91611a5e575b505061170a565b611a6790612f3d565b611362578938611a57565b611a7b90612f3d565b6113625789386119e8565b604051632d346a9760e01b8152600490fd5b611ab1915060203d602011611530576115228183612f50565b3861193e565b9093906001600160a01b03611ad160043561014401612fbc565b16151580611f90575b611ae5575b5061170a565b965093506001600160a01b039050611b0260043561014401612fbc565b6040516301ffc9a760e01b81526380ac58cd60e01b6004820152911690602081602481855afa908115611422578a91611f56575b5015611f0a576040516301ffc9a760e01b8152637c97ded960e11b600482015290602090829060249082905afa908115611ea4578991611f1c575b5015611f0a57600460206001600160a01b03611b91833561014401612fbc565b1660405192838092633f6615ab60e11b82525afa908115611ea4578991611ed3575b506084600435013511611ec15760016084600435013514611eaf57610164600435013561179157600460206001600160a01b03611bf4833561014401612fbc565b1660405192838092638da5cb5b60e01b82525afa908115611ea4578991611e85575b5080611c276101c460043501612fbc565b6001600160a01b03908116911603611cce578515611cc85760e460043501355b95935b6001600160a01b03611c6160043561014401612fbc565b16803b15611741576040516227675f60e01b81526001600160a01b03831660048083019190915235608401356024820152908b908290604490829084905af1801561174d57908b91611cb4575b50611adf565b611cbd90612f3d565b611362578938611cae565b81611c47565b9294926001600160a01b03611ce860043561014401612fbc565b1660c0611cfa6101c460043501612fbc565b6040516317f6397960e01b81526001600160a01b03909116600482015291829060249082905afa908115611422578a918b928c928d92611e4c575b50156106ac57611d4491613084565b6084600435013511611e3a57611d5f61010460043501612f30565b611e31575b80611e17575081958994611e05575b6001600160a01b03611d8a60043561014401612fbc565b16611d9a6101c460043501612fbc565b813b1561159e576040516334ea162f60e11b81526001600160a01b0390911660048083019190915235608401356024820152908b9082908183816044810103925af1801561174d57908b91611df1575b5050611c4a565b611dfa90612f3d565b611362578938611dea565b60405163805596b160e01b8152600490fd5b809196945060e4600435013503611e055794600193611d73565b60019550611d64565b604051630161dc7d60e21b8152600490fd5b92505050611e71915060c03d8111611e7e575b611e698183612f50565b81019061304f565b9294919350389050611d35565b503d611e5f565b611e9e915060203d602011611530576115228183612f50565b38611c16565b6040513d8b823e3d90fd5b60405163c827d5c360e01b8152600490fd5b604051632fb7debb60e11b8152600490fd5b90506020813d602011611f02575b81611eee60209383612f50565b81010312611efd575138611bb3565b600080fd5b3d9150611ee1565b6040516359071b0760e11b8152600490fd5b90506020813d602011611f4e575b81611f3760209383612f50565b8101031261155157611f4890613042565b38611b71565b3d9150611f2a565b90506020813d602011611f88575b81611f7160209383612f50565b8101031261136257611f8290613042565b38611b36565b3d9150611f64565b50611fa061010460043501612f30565b611ada565b50611fb561010460043501612f30565b156118df565b90939060043561016401356001036124c1576101a460043501351561247c576001600160a01b03611ff160043561014401612fbc565b16151580612467575b612004575061170a565b965093506001600160a01b03905061202160043561014401612fbc565b6040516301ffc9a760e01b8152636cdb3d1360e11b6004820152911690602081602481855afa908115611422578a9161242d575b5015611f0a576040516301ffc9a760e01b81526315ba79c360e11b600482015290602090829060249082905afa908115611ea45789916123f3575b5015611f0a5760016084600435013514611eaf5760043560848101356101a4909101358082029190910490036123dd57602460206001600160a01b036120db60043561014401612fbc565b1660405192838092633570cb2960e21b8252610184600435013560048301525afa908115611ea45789916123ab575b506101a46004350135608460043501350211611ec157600460206001600160a01b0361213a833561014401612fbc565b1660405192838092638da5cb5b60e01b82525afa908115611ea457899161238c575b508061216d6101c460043501612fbc565b6001600160a01b039081169116036122095785156122035760e460043501355b95935b6001600160a01b036121a760043561014401612fbc565b16803b15611741578a809160648c60405194859384926309de21c160e41b84526004840152610184600435013560248401526101a46004350135608460043501350260448401525af1801561174d57908b91611cb45750611adf565b8161218d565b9294926001600160a01b0361222360043561014401612fbc565b1660c06122356101c460043501612fbc565b6040516317f6397960e01b81526001600160a01b03909116600482015291829060249082905afa908115611422578a918b928c928d92612363575b50156106ac5761227f91613084565b6084600435013511611e3a5761229a61012460043501612f30565b61235a575b80612340575081958994611e05575b6001600160a01b036122c560043561014401612fbc565b166122d56101c460043501612fbc565b813b1561159e576040516334ea162f60e11b81526001600160a01b0390911660048083019190915235608401356024820152908b9082908183816044810103925af1801561174d57908b9161232c575b5050612190565b61233590612f3d565b611362578938612325565b809196945060e4600435013503611e0557946001936122ae565b6001955061229f565b9250505061237f915060c03d8111611e7e57611e698183612f50565b9294919350389050612270565b6123a5915060203d602011611530576115228183612f50565b3861215c565b90506020813d6020116123d5575b816123c660209383612f50565b81010312611efd57513861210a565b3d91506123b9565b634e487b7160e01b600052601160045260246000fd5b90506020813d602011612425575b8161240e60209383612f50565b810103126115515761241f90613042565b38612090565b3d9150612401565b90506020813d60201161245f575b8161244860209383612f50565b810103126113625761245990613042565b38612055565b3d915061243b565b5061247761012460043501612f30565b611ffa565b60405162461bcd60e51b815260206004820152601d60248201527f416d6f756e74207065722077696e6e6572206d757374206265203e20300000006044820152606490fd5b60405162461bcd60e51b8152602060048201526016602482015275556e737570706f72746564207072697a65207479706560501b6044820152606490fd5b600f546001600160a01b031680156125995761252661030460043501600435600401612fd0565b8291923b1561259557918d9161256293838f604051968795869485936386aec17960e01b85526004850152604060248501526044840191613002565b03925af1801561258a57612577575b50610bcb565b612583909b919b612f3d565b9938612571565b6040513d8e823e3d90fd5b8d80fd5b6040516369ecf6c760e11b8152600490fd5b60405162461bcd60e51b815260206004820152601760248201527f455243313136373a2063726561746532206661696c65640000000000000000006044820152606490fd5b83610ac0565b83915084866117f357600160a4600435013511612656576001600160a01b0361262460043561014401612fbc565b166126565761263861010460043501612f30565b612656576101846004350135612656576101a4600435013515610ac2575b604051630309cb8760e51b8152600490fd5b60646004350135808004600114901517156126a7576103e8606460043501350460a460043501351115610a93576040516313b558f960e01b8152600490fd5b634e487b7160e01b82526011600452602482fd5b6126ca61024460043501612fbc565b6004610264813501351015610604576126eb9061026460043501359061313e565b610a80565b60405162461bcd60e51b815260206004820152601060248201526f24b73b30b634b210323ab930ba34b7b760811b6044820152606490fd5b50600954604460043501351115610a53565b634e487b7160e01b84526011600452602484fd5b634e487b7160e01b83526011600452602483fd5b60405163ac255ca760e01b8152600490fd5b604051632ca4094f60e21b8152600490fd5b6040516316247b3f60e11b8152600490fd5b600e546001600160a01b031690811561282557604051906020820191635e5bc1c560e11b835281602482015260248152606081018181106001600160401b038211176128115760405251859384939192905af16127f3612f8c565b50156127ff57386109aa565b604051635b5b44c760e01b8152600490fd5b634e487b7160e01b87526041600452602487fd5b60405162461bcd60e51b815260206004820152601760248201527f526576656e7565206d616e61676572206e6f74207365740000000000000000006044820152606490fd5b60405163dbc3a71f60e01b8152600490fd5b936102246004350135810180911161273a579361099e565b50610164600435013560048110156128ae57600314610999565b8480fd5b93508093610985565b80610977565b6010546001600160a01b03168015612958576020602491604051928380926370a0823160e01b82523360048301525afa90811561294d57829161291b575b50601154111561095e5760405163cf57495560e01b8152600490fd5b90506020813d602011612945575b8161293660209383612f50565b810103126102b55751386128ff565b3d9150612929565b6040513d84823e3d90fd5b60405162461bcd60e51b815260206004820152601560248201527410dc99585d1bdc881d1bdad95b881b9bdd081cd95d605a1b6044820152606490fd5b506129a56102e460043501612f30565b15610959565b60405162461bcd60e51b815260206004820152603f60248201527f596f7572206c61737420706f6f6c20776173206372656174656420737563636560448201527f737366756c6c792c2074727920616761696e206166746572203120686f7572006064820152608490fd5b604051628b531560e01b8152600490fd5b60405162461bcd60e51b815260206004820152601f60248201527f5265656e7472616e637947756172643a207265656e7472616e742063616c6c006044820152606490fd5b50346101ca57806003193601126101ca57612a85612e80565b80546001600160a01b03198116825581906001600160a01b03167f8be0079c531659141344cd1fd0a4f28419497f9722a3daafe3b4186f6b6457e08280a380f35b50346101ca57806003193601126101ca57600f546040516001600160a01b039091168152602090f35b50346101ca57806003193601126101ca576020600654604051908152f35b50346101ca5760203660031901126101ca576020906040906001600160a01b03612b35612de8565b168152600483522054604051908152f35b50346101ca57806003193601126101ca576020600554604051908152f35b50346101ca57806003193601126101ca576020601154604051908152f35b50346101ca57806003193601126101ca576010546040516001600160a01b039091168152602090f35b50346101ca57806003193601126101ca57602060ff600f5460a01c166040519015158152f35b50346101ca5760803660031901126101ca57612beb612de8565b50612bf4612dfe565b506064356001600160401b0381116102b557612c14903690600401612e14565b5050604051630a85bd0160e11b8152602090f35b50346101ca5760203660031901126101ca57612c42612de8565b612c4a612e80565b6001600160a01b03168015612c9257600280546001600160a01b031916821790557f1eed81ce21a92b04ae795cb172e51fb0f8c7f90ec3cd2dc2b4c6395d8d39456f8280a280f35b60405162461bcd60e51b815260206004820152601b60248201527f496e76616c696420506f6f6c20696d706c656d656e746174696f6e00000000006044820152606490fd5b50346101ca57806003193601126101ca576020600754604051908152f35b50346101ca5760403660031901126101ca57600435602435612d15612e80565b81811115612d5857816040917f060e9bb7b24700e1f67f61d02209b1fb7e61dcb50699bd88a5004e8649f3e4ec936008558060095582519182526020820152a180f35b60405162461bcd60e51b815260206004820152601360248201527226b0bc1036bab9ba1032bc31b2b2b21036b4b760691b6044820152606490fd5b9050346102b55760203660031901126102b55760043563ffffffff60e01b81168091036106045760209250630a85bd0160e11b8114908115612dd7575b5015158152f35b630271189760e51b14905038612dd0565b600435906001600160a01b0382168203611efd57565b602435906001600160a01b0382168203611efd57565b9181601f84011215611efd578235916001600160401b038311611efd5760208381860195010111611efd57565b600435908115158203611efd57565b9181601f84011215611efd578235916001600160401b038311611efd576020808501948460051b010111611efd57565b6000546001600160a01b03163303612e9457565b606460405162461bcd60e51b815260206004820152602060248201527f4f776e61626c653a2063616c6c6572206973206e6f7420746865206f776e65726044820152fd5b600080546001600160a01b039283166001600160a01b03198216811783559216907f8be0079c531659141344cd1fd0a4f28419497f9722a3daafe3b4186f6b6457e09080a3565b15612f2a5760055490565b60065490565b358015158103611efd5790565b6001600160401b03811161136657604052565b90601f801991011681019081106001600160401b0382111761136657604052565b6001600160401b03811161136657601f01601f191660200190565b3d15612fb7573d90612f9d82612f71565b91612fab6040519384612f50565b82523d6000602084013e565b606090565b356001600160a01b0381168103611efd5790565b903590601e1981360301821215611efd57018035906001600160401b038211611efd57602001918136038313611efd57565b908060209392818452848401376000828201840152601f01601f1916010190565b90816020910312611efd57516001600160a01b0381168103611efd5790565b51908115158203611efd57565b91908260c0910312611efd5761306482613042565b9160208101519160408201519160608101519160a0608083015192015190565b919082039182116123dd57565b811561309b570690565b634e487b7160e01b600052601260045260246000fd5b156130b857565b60405162461bcd60e51b815260206004820152602960248201527f5072697a6520616d6f756e74206d75737420626520646976697369626c652062604482015268792077696e6e65727360b81b6064820152608490fd5b600482101561311b5752565b634e487b7160e01b600052602160045260246000fd5b90600482101561311b5752565b9091906001600160a01b03811690811561342a573b1561342a5760049283811015613415576002810361323157506040516318160ddd60e01b81526020908180828781875afa9182613208575b50506131a25760405163137f48d760e31b81528490fd5b80602492604051938480926370a0823160e01b825230898301525afa91826131df575b50506131db575060405163137f48d760e31b8152fd5b9050565b813d8311613201575b6131f28183612f50565b81010312611efd5738806131c5565b503d6131e8565b813d831161322a575b61321b8183612f50565b81010312611efd57813861318b565b503d613211565b9192918061334c575060409081516301ffc9a760e01b80825280858301526020918281602481875afa60009181613315575b5061327857845163137f48d760e31b81528690fd5b15613305578190602485518095819382526380ac58cd60e01b898301525afa9182916000936132cc575b50506132b657505163137f48d760e31b8152fd5b156132bf575050565b5163137f48d760e31b8152fd5b8181949293943d83116132fe575b6132e48183612f50565b810103126101ca57506132f690613042565b9038806132a2565b503d6132da565b5050505163137f48d760e31b8152fd5b90918482813d8311613345575b61332c8183612f50565b810103126101ca575061333e90613042565b9038613263565b503d613322565b6001036134055760409081516301ffc9a760e01b80825280858301526020918281602481875afa600091816133ce575b5061339157845163137f48d760e31b81528690fd5b1561330557819060248551809581938252636cdb3d1360e11b898301525afa9182916000936132cc5750506132b657505163137f48d760e31b8152fd5b90918482813d83116133fe575b6133e58183612f50565b810103126101ca57506133f790613042565b903861337c565b503d6133db565b5060405163137f48d760e31b8152fd5b602184634e487b7160e01b6000525260246000fd5b60405163137f48d760e31b8152600490fdfea2646970667358221220765ea40929259870d4b7bd58d5ac11c673a59254d54842c5c7f530f39d24d2a964736f6c63430008130033",
  "linkReferences": {},
  "deployedLinkReferences": {}
}