{
  "_format": "hh-sol-artifact-1",
  "contractName": "Pool",
  "sourceName": "contracts/Pool.sol",
  "abi": [
    {
      "inputs": [
        {
          "internalType": "address",
          "name": "_factory",
          "type": "address"
        }
      ],
      "stateMutability": "nonpayable",
      "type": "constructor"
    },
    {
      "inputs": [],
      "name": "ArrayLengthMismatch",
      "type": "error"
    },
    {
      "inputs": [],
      "name": "BatchTooLarge",
      "type": "error"
    },
    {
      "inputs": [],
      "name": "ContractsCannotPurchase",
      "type": "error"
    },
    {
      "inputs": [],
      "name": "CreatorNotAllowed",
      "type": "error"
    },
    {
      "inputs": [],
      "name": "ExceedsMaxSlots",
      "type": "error"
    },
    {
      "inputs": [],
      "name": "ExceedsSlotLimit",
      "type": "error"
    },
    {
      "inputs": [],
      "name": "ExceedsWinnersCount",
      "type": "error"
    },
    {
      "inputs": [],
      "name": "IncorrectPayment",
      "type": "error"
    },
    {
      "inputs": [],
      "name": "InvalidNonPrizedPurchase",
      "type": "error"
    },
    {
      "inputs": [],
      "name": "InvalidPoolState",
      "type": "error"
    },
    {
      "inputs": [],
      "name": "InvalidPrizeAmount",
      "type": "error"
    },
    {
      "inputs": [],
      "name": "InvalidPrizeCollection",
      "type": "error"
    },
    {
      "inputs": [],
      "name": "InvalidPrizeType",
      "type": "error"
    },
    {
      "inputs": [],
      "name": "InvalidState",
      "type": "error"
    },
    {
      "inputs": [],
      "name": "InvalidWinnerAddress",
      "type": "error"
    },
    {
      "inputs": [],
      "name": "MintingNotSupported",
      "type": "error"
    },
    {
      "inputs": [],
      "name": "NoPrizesClaimedYet",
      "type": "error"
    },
    {
      "inputs": [],
      "name": "NoPrizesToClaim",
      "type": "error"
    },
    {
      "inputs": [],
      "name": "NotAWinner",
      "type": "error"
    },
    {
      "inputs": [],
      "name": "OnlyOperator",
      "type": "error"
    },
    {
      "inputs": [],
      "name": "PoolDurationElapsed",
      "type": "error"
    },
    {
      "inputs": [],
      "name": "PoolNotActive",
      "type": "error"
    },
    {
      "inputs": [],
      "name": "PrizeTransferFailed",
      "type": "error"
    },
    {
      "inputs": [],
      "name": "ProtocolAdminNotAllowed",
      "type": "error"
    },
    {
      "inputs": [],
      "name": "SocialEngagementNotConfigured",
      "type": "error"
    },
    {
      "inputs": [],
      "name": "TimestampDelayIssue",
      "type": "error"
    },
    {
      "inputs": [],
      "name": "UnauthorizedCaller",
      "type": "error"
    },
    {
      "inputs": [],
      "name": "ZeroAddress",
      "type": "error"
    },
    {
      "inputs": [],
      "name": "ZeroQuantity",
      "type": "error"
    },
    {
      "inputs": [],
      "name": "ZeroSlotFee",
      "type": "error"
    },
    {
      "anonymous": false,
      "inputs": [
        {
          "indexed": false,
          "internalType": "string",
          "name": "reason",
          "type": "string"
        }
      ],
      "name": "BatchProcessingFailed",
      "type": "event"
    },
    {
      "anonymous": false,
      "inputs": [
        {
          "indexed": false,
          "internalType": "bytes",
          "name": "lowLevelData",
          "type": "bytes"
        }
      ],
      "name": "BatchProcessingFailedBytes",
      "type": "event"
    },
    {
      "anonymous": false,
      "inputs": [],
      "name": "FullRefundEnabledForDeletion",
      "type": "event"
    },
    {
      "anonymous": false,
      "inputs": [
        {
          "indexed": true,
          "internalType": "address",
          "name": "participant",
          "type": "address"
        },
        {
          "indexed": false,
          "internalType": "uint256",
          "name": "amount",
          "type": "uint256"
        }
      ],
      "name": "FullRefundForDeletion",
      "type": "event"
    },
    {
      "anonymous": false,
      "inputs": [
        {
          "indexed": true,
          "internalType": "address",
          "name": "winner",
          "type": "address"
        },
        {
          "indexed": false,
          "internalType": "string",
          "name": "reason",
          "type": "string"
        }
      ],
      "name": "MintingFailed",
      "type": "event"
    },
    {
      "anonymous": false,
      "inputs": [
        {
          "indexed": true,
          "internalType": "address",
          "name": "previousOwner",
          "type": "address"
        },
        {
          "indexed": true,
          "internalType": "address",
          "name": "newOwner",
          "type": "address"
        }
      ],
      "name": "OwnershipTransferred",
      "type": "event"
    },
    {
      "anonymous": false,
      "inputs": [
        {
          "indexed": false,
          "internalType": "address",
          "name": "account",
          "type": "address"
        }
      ],
      "name": "Paused",
      "type": "event"
    },
    {
      "anonymous": false,
      "inputs": [],
      "name": "PoolActivated",
      "type": "event"
    },
    {
      "anonymous": false,
      "inputs": [],
      "name": "PoolDeleted",
      "type": "event"
    },
    {
      "anonymous": false,
      "inputs": [],
      "name": "PoolEnded",
      "type": "event"
    },
    {
      "anonymous": false,
      "inputs": [],
      "name": "PoolUnengaged",
      "type": "event"
    },
    {
      "anonymous": false,
      "inputs": [
        {
          "indexed": true,
          "internalType": "address",
          "name": "winner",
          "type": "address"
        },
        {
          "indexed": false,
          "internalType": "uint256",
          "name": "tokenId",
          "type": "uint256"
        }
      ],
      "name": "PrizeClaimed",
      "type": "event"
    },
    {
      "anonymous": false,
      "inputs": [
        {
          "indexed": false,
          "internalType": "uint256",
          "name": "requestId",
          "type": "uint256"
        }
      ],
      "name": "RandomRequested",
      "type": "event"
    },
    {
      "anonymous": false,
      "inputs": [
        {
          "indexed": true,
          "internalType": "address",
          "name": "participant",
          "type": "address"
        },
        {
          "indexed": false,
          "internalType": "uint256",
          "name": "amount",
          "type": "uint256"
        }
      ],
      "name": "RefundClaimed",
      "type": "event"
    },
    {
      "anonymous": false,
      "inputs": [
        {
          "indexed": true,
          "internalType": "address",
          "name": "recipient",
          "type": "address"
        },
        {
          "indexed": false,
          "internalType": "uint256",
          "name": "amount",
          "type": "uint256"
        }
      ],
      "name": "RevenueWithdrawn",
      "type": "event"
    },
    {
      "anonymous": false,
      "inputs": [
        {
          "indexed": true,
          "internalType": "uint256",
          "name": "batchNumber",
          "type": "uint256"
        },
        {
          "indexed": false,
          "internalType": "uint256",
          "name": "participantCount",
          "type": "uint256"
        },
        {
          "indexed": false,
          "internalType": "uint256",
          "name": "shuffleStartIndex",
          "type": "uint256"
        },
        {
          "indexed": false,
          "internalType": "uint256",
          "name": "batchSize",
          "type": "uint256"
        }
      ],
      "name": "SelectionStarted",
      "type": "event"
    },
    {
      "anonymous": false,
      "inputs": [
        {
          "indexed": true,
          "internalType": "address",
          "name": "participant",
          "type": "address"
        },
        {
          "indexed": false,
          "internalType": "uint256",
          "name": "quantity",
          "type": "uint256"
        }
      ],
      "name": "SlotsPurchased",
      "type": "event"
    },
    {
      "anonymous": false,
      "inputs": [
        {
          "indexed": false,
          "internalType": "address",
          "name": "account",
          "type": "address"
        }
      ],
      "name": "Unpaused",
      "type": "event"
    },
    {
      "anonymous": false,
      "inputs": [
        {
          "indexed": false,
          "internalType": "string",
          "name": "reason",
          "type": "string"
        }
      ],
      "name": "VRFRequestFailed",
      "type": "event"
    },
    {
      "anonymous": false,
      "inputs": [
        {
          "indexed": false,
          "internalType": "bytes",
          "name": "lowLevelData",
          "type": "bytes"
        }
      ],
      "name": "VRFRequestFailedBytes",
      "type": "event"
    },
    {
      "anonymous": false,
      "inputs": [
        {
          "indexed": false,
          "internalType": "address[]",
          "name": "winners",
          "type": "address[]"
        }
      ],
      "name": "WinnersSelected",
      "type": "event"
    },
    {
      "inputs": [
        {
          "internalType": "uint256",
          "name": "batchRandomSeed",
          "type": "uint256"
        }
      ],
      "name": "_processBatchWithRandomness",
      "outputs": [],
      "stateMutability": "nonpayable",
      "type": "function"
    },
    {
      "inputs": [],
      "name": "amountPerWinner",
      "outputs": [
        {
          "internalType": "uint256",
          "name": "",
          "type": "uint256"
        }
      ],
      "stateMutability": "view",
      "type": "function"
    },
    {
      "inputs": [],
      "name": "batchCount",
      "outputs": [
        {
          "internalType": "uint256",
          "name": "",
          "type": "uint256"
        }
      ],
      "stateMutability": "view",
      "type": "function"
    },
    {
      "inputs": [
        {
          "internalType": "address[]",
          "name": "winnerAddresses",
          "type": "address[]"
        },
        {
          "internalType": "uint256[]",
          "name": "quantities",
          "type": "uint256[]"
        }
      ],
      "name": "batchMintToWinners",
      "outputs": [
        {
          "internalType": "uint256",
          "name": "successfulMints",
          "type": "uint256"
        }
      ],
      "stateMutability": "nonpayable",
      "type": "function"
    },
    {
      "inputs": [
        {
          "internalType": "uint256",
          "name": "",
          "type": "uint256"
        }
      ],
      "name": "batchRandomSeeds",
      "outputs": [
        {
          "internalType": "uint256",
          "name": "",
          "type": "uint256"
        }
      ],
      "stateMutability": "view",
      "type": "function"
    },
    {
      "inputs": [],
      "name": "claimPrize",
      "outputs": [],
      "stateMutability": "nonpayable",
      "type": "function"
    },
    {
      "inputs": [],
      "name": "claimRefund",
      "outputs": [],
      "stateMutability": "nonpayable",
      "type": "function"
    },
    {
      "inputs": [
        {
          "internalType": "address",
          "name": "",
          "type": "address"
        }
      ],
      "name": "claimedWins",
      "outputs": [
        {
          "internalType": "uint256",
          "name": "",
          "type": "uint256"
        }
      ],
      "stateMutability": "view",
      "type": "function"
    },
    {
      "inputs": [],
      "name": "closePool",
      "outputs": [],
      "stateMutability": "nonpayable",
      "type": "function"
    },
    {
      "inputs": [],
      "name": "creationFeePercentage",
      "outputs": [
        {
          "internalType": "uint256",
          "name": "",
          "type": "uint256"
        }
      ],
      "stateMutability": "view",
      "type": "function"
    },
    {
      "inputs": [],
      "name": "creator",
      "outputs": [
        {
          "internalType": "address",
          "name": "",
          "type": "address"
        }
      ],
      "stateMutability": "view",
      "type": "function"
    },
    {
      "inputs": [],
      "name": "currentBatchSize",
      "outputs": [
        {
          "internalType": "uint256",
          "name": "",
          "type": "uint256"
        }
      ],
      "stateMutability": "view",
      "type": "function"
    },
    {
      "inputs": [],
      "name": "deletePool",
      "outputs": [],
      "stateMutability": "nonpayable",
      "type": "function"
    },
    {
      "inputs": [],
      "name": "duration",
      "outputs": [
        {
          "internalType": "uint256",
          "name": "",
          "type": "uint256"
        }
      ],
      "stateMutability": "view",
      "type": "function"
    },
    {
      "inputs": [],
      "name": "endTime",
      "outputs": [
        {
          "internalType": "uint256",
          "name": "",
          "type": "uint256"
        }
      ],
      "stateMutability": "view",
      "type": "function"
    },
    {
      "inputs": [],
      "name": "erc20PrizeAmount",
      "outputs": [
        {
          "internalType": "uint256",
          "name": "",
          "type": "uint256"
        }
      ],
      "stateMutability": "view",
      "type": "function"
    },
    {
      "inputs": [],
      "name": "erc20PrizeToken",
      "outputs": [
        {
          "internalType": "address",
          "name": "",
          "type": "address"
        }
      ],
      "stateMutability": "view",
      "type": "function"
    },
    {
      "inputs": [],
      "name": "erc721EscrowClaimed",
      "outputs": [
        {
          "internalType": "bool",
          "name": "",
          "type": "bool"
        }
      ],
      "stateMutability": "view",
      "type": "function"
    },
    {
      "inputs": [],
      "name": "getParticipantsCount",
      "outputs": [
        {
          "internalType": "uint256",
          "name": "",
          "type": "uint256"
        }
      ],
      "stateMutability": "view",
      "type": "function"
    },
    {
      "inputs": [
        {
          "internalType": "address",
          "name": "participant",
          "type": "address"
        }
      ],
      "name": "getRefundableAmount",
      "outputs": [
        {
          "internalType": "uint256",
          "name": "",
          "type": "uint256"
        }
      ],
      "stateMutability": "view",
      "type": "function"
    },
    {
      "inputs": [],
      "name": "getSlotLimit",
      "outputs": [
        {
          "internalType": "uint256",
          "name": "",
          "type": "uint256"
        }
      ],
      "stateMutability": "view",
      "type": "function"
    },
    {
      "inputs": [
        {
          "internalType": "address",
          "name": "participant",
          "type": "address"
        }
      ],
      "name": "getSlotsPurchased",
      "outputs": [
        {
          "internalType": "uint256",
          "name": "",
          "type": "uint256"
        }
      ],
      "stateMutability": "view",
      "type": "function"
    },
    {
      "inputs": [
        {
          "internalType": "address",
          "name": "",
          "type": "address"
        }
      ],
      "name": "hasClaimedFeeRefund",
      "outputs": [
        {
          "internalType": "bool",
          "name": "",
          "type": "bool"
        }
      ],
      "stateMutability": "view",
      "type": "function"
    },
    {
      "inputs": [
        {
          "internalType": "address",
          "name": "",
          "type": "address"
        }
      ],
      "name": "hasCompletedSocialEngagement",
      "outputs": [
        {
          "internalType": "bool",
          "name": "",
          "type": "bool"
        }
      ],
      "stateMutability": "view",
      "type": "function"
    },
    {
      "inputs": [],
      "name": "holderData",
      "outputs": [
        {
          "internalType": "address",
          "name": "holderTokenAddress",
          "type": "address"
        },
        {
          "internalType": "enum PrizeTypes.Standard",
          "name": "holderTokenStandard",
          "type": "uint8"
        },
        {
          "internalType": "uint256",
          "name": "minHolderTokenBalance",
          "type": "uint256"
        },
        {
          "internalType": "uint256",
          "name": "holderTokenId",
          "type": "uint256"
        }
      ],
      "stateMutability": "view",
      "type": "function"
    },
    {
      "inputs": [],
      "name": "holderTokenAddress",
      "outputs": [
        {
          "internalType": "address",
          "name": "",
          "type": "address"
        }
      ],
      "stateMutability": "view",
      "type": "function"
    },
    {
      "inputs": [],
      "name": "holderTokenId",
      "outputs": [
        {
          "internalType": "uint256",
          "name": "",
          "type": "uint256"
        }
      ],
      "stateMutability": "view",
      "type": "function"
    },
    {
      "inputs": [],
      "name": "holderTokenStandard",
      "outputs": [
        {
          "internalType": "enum PrizeTypes.Standard",
          "name": "",
          "type": "uint8"
        }
      ],
      "stateMutability": "view",
      "type": "function"
    },
    {
      "inputs": [],
      "name": "i_vrfCoordinator",
      "outputs": [
        {
          "internalType": "contract VRFCoordinatorV2PlusInterface",
          "name": "",
          "type": "address"
        }
      ],
      "stateMutability": "view",
      "type": "function"
    },
    {
      "inputs": [
        {
          "components": [
            {
              "internalType": "address",
              "name": "manager",
              "type": "address"
            },
            {
              "internalType": "address",
              "name": "revenueRecipient",
              "type": "address"
            },
            {
              "internalType": "string",
              "name": "name",
              "type": "string"
            },
            {
              "internalType": "uint256",
              "name": "slotLimit",
              "type": "uint256"
            },
            {
              "internalType": "uint256",
              "name": "maxSlotsPerParticipant",
              "type": "uint256"
            },
            {
              "internalType": "uint256",
              "name": "winnersCount",
              "type": "uint256"
            },
            {
              "internalType": "bool",
              "name": "isCollabPool",
              "type": "bool"
            },
            {
              "internalType": "bool",
              "name": "usesCustomFee",
              "type": "bool"
            },
            {
              "internalType": "bool",
              "name": "isExternalPrizeCollection",
              "type": "bool"
            }
          ],
          "internalType": "struct Pool.PoolConfig",
          "name": "_poolConfig",
          "type": "tuple"
        },
        {
          "components": [
            {
              "internalType": "enum PrizeTypes.Standard",
              "name": "standard",
              "type": "uint8"
            },
            {
              "internalType": "address",
              "name": "prizeCollection",
              "type": "address"
            },
            {
              "internalType": "uint256",
              "name": "prizeTokenId",
              "type": "uint256"
            },
            {
              "internalType": "uint256",
              "name": "amountPerWinner",
              "type": "uint256"
            },
            {
              "internalType": "address",
              "name": "erc20PrizeToken",
              "type": "address"
            },
            {
              "internalType": "uint256",
              "name": "erc20PrizeAmount",
              "type": "uint256"
            },
            {
              "internalType": "uint256",
              "name": "nativePrizeAmount",
              "type": "uint256"
            },
            {
              "internalType": "bool",
              "name": "isEscrowedPrize",
              "type": "bool"
            }
          ],
          "internalType": "struct Pool.PrizeConfig",
          "name": "_prizeConfig",
          "type": "tuple"
        },
        {
          "components": [
            {
              "internalType": "address",
              "name": "holderTokenAddress",
              "type": "address"
            },
            {
              "internalType": "enum PrizeTypes.Standard",
              "name": "holderTokenStandard",
              "type": "uint8"
            },
            {
              "internalType": "uint256",
              "name": "minHolderTokenBalance",
              "type": "uint256"
            },
            {
              "internalType": "uint256",
              "name": "holderTokenId",
              "type": "uint256"
            }
          ],
          "internalType": "struct Pool.HolderConfig",
          "name": "_holderConfig",
          "type": "tuple"
        },
        {
          "components": [
            {
              "internalType": "bool",
              "name": "required",
              "type": "bool"
            }
          ],
          "internalType": "struct Pool.SocialEngagementConfig",
          "name": "_socialEngagementConfig",
          "type": "tuple"
        },
        {
          "internalType": "address",
          "name": "_creator",
          "type": "address"
        },
        {
          "internalType": "uint256",
          "name": "_startTime",
          "type": "uint256"
        },
        {
          "internalType": "uint256",
          "name": "_duration",
          "type": "uint256"
        },
        {
          "internalType": "uint256",
          "name": "_slotFee",
          "type": "uint256"
        },
        {
          "internalType": "bool",
          "name": "_isPrized",
          "type": "bool"
        }
      ],
      "name": "initialize",
      "outputs": [],
      "stateMutability": "payable",
      "type": "function"
    },
    {
      "inputs": [],
      "name": "isCollabPool",
      "outputs": [
        {
          "internalType": "bool",
          "name": "",
          "type": "bool"
        }
      ],
      "stateMutability": "view",
      "type": "function"
    },
    {
      "inputs": [],
      "name": "isEscrowedPrize",
      "outputs": [
        {
          "internalType": "bool",
          "name": "",
          "type": "bool"
        }
      ],
      "stateMutability": "view",
      "type": "function"
    },
    {
      "inputs": [],
      "name": "isExternalPrizeCollection",
      "outputs": [
        {
          "internalType": "bool",
          "name": "",
          "type": "bool"
        }
      ],
      "stateMutability": "view",
      "type": "function"
    },
    {
      "inputs": [],
      "name": "isPrized",
      "outputs": [
        {
          "internalType": "bool",
          "name": "",
          "type": "bool"
        }
      ],
      "stateMutability": "view",
      "type": "function"
    },
    {
      "inputs": [],
      "name": "isRefundable",
      "outputs": [
        {
          "internalType": "bool",
          "name": "",
          "type": "bool"
        }
      ],
      "stateMutability": "view",
      "type": "function"
    },
    {
      "inputs": [],
      "name": "maxSlotsPerParticipant",
      "outputs": [
        {
          "internalType": "uint256",
          "name": "",
          "type": "uint256"
        }
      ],
      "stateMutability": "view",
      "type": "function"
    },
    {
      "inputs": [],
      "name": "minHolderTokenBalance",
      "outputs": [
        {
          "internalType": "uint256",
          "name": "",
          "type": "uint256"
        }
      ],
      "stateMutability": "view",
      "type": "function"
    },
    {
      "inputs": [],
      "name": "mint",
      "outputs": [],
      "stateMutability": "nonpayable",
      "type": "function"
    },
    {
      "inputs": [],
      "name": "name",
      "outputs": [
        {
          "internalType": "string",
          "name": "",
          "type": "string"
        }
      ],
      "stateMutability": "view",
      "type": "function"
    },
    {
      "inputs": [],
      "name": "nativePrizeAmount",
      "outputs": [
        {
          "internalType": "uint256",
          "name": "",
          "type": "uint256"
        }
      ],
      "stateMutability": "view",
      "type": "function"
    },
    {
      "inputs": [
        {
          "internalType": "address",
          "name": "",
          "type": "address"
        },
        {
          "internalType": "address",
          "name": "",
          "type": "address"
        },
        {
          "internalType": "uint256[]",
          "name": "",
          "type": "uint256[]"
        },
        {
          "internalType": "uint256[]",
          "name": "",
          "type": "uint256[]"
        },
        {
          "internalType": "bytes",
          "name": "",
          "type": "bytes"
        }
      ],
      "name": "onERC1155BatchReceived",
      "outputs": [
        {
          "internalType": "bytes4",
          "name": "",
          "type": "bytes4"
        }
      ],
      "stateMutability": "pure",
      "type": "function"
    },
    {
      "inputs": [
        {
          "internalType": "address",
          "name": "",
          "type": "address"
        },
        {
          "internalType": "address",
          "name": "",
          "type": "address"
        },
        {
          "internalType": "uint256",
          "name": "",
          "type": "uint256"
        },
        {
          "internalType": "uint256",
          "name": "",
          "type": "uint256"
        },
        {
          "internalType": "bytes",
          "name": "",
          "type": "bytes"
        }
      ],
      "name": "onERC1155Received",
      "outputs": [
        {
          "internalType": "bytes4",
          "name": "",
          "type": "bytes4"
        }
      ],
      "stateMutability": "pure",
      "type": "function"
    },
    {
      "inputs": [
        {
          "internalType": "address",
          "name": "",
          "type": "address"
        },
        {
          "internalType": "address",
          "name": "",
          "type": "address"
        },
        {
          "internalType": "uint256",
          "name": "",
          "type": "uint256"
        },
        {
          "internalType": "bytes",
          "name": "",
          "type": "bytes"
        }
      ],
      "name": "onERC721Received",
      "outputs": [
        {
          "internalType": "bytes4",
          "name": "",
          "type": "bytes4"
        }
      ],
      "stateMutability": "pure",
      "type": "function"
    },
    {
      "inputs": [],
      "name": "owner",
      "outputs": [
        {
          "internalType": "address",
          "name": "",
          "type": "address"
        }
      ],
      "stateMutability": "view",
      "type": "function"
    },
    {
      "inputs": [
        {
          "internalType": "uint256",
          "name": "",
          "type": "uint256"
        }
      ],
      "name": "participants",
      "outputs": [
        {
          "internalType": "address",
          "name": "",
          "type": "address"
        }
      ],
      "stateMutability": "view",
      "type": "function"
    },
    {
      "inputs": [],
      "name": "paused",
      "outputs": [
        {
          "internalType": "bool",
          "name": "",
          "type": "bool"
        }
      ],
      "stateMutability": "view",
      "type": "function"
    },
    {
      "inputs": [],
      "name": "pendingProtocolFee",
      "outputs": [
        {
          "internalType": "uint256",
          "name": "",
          "type": "uint256"
        }
      ],
      "stateMutability": "view",
      "type": "function"
    },
    {
      "inputs": [],
      "name": "poolData",
      "outputs": [
        {
          "internalType": "string",
          "name": "name",
          "type": "string"
        },
        {
          "internalType": "uint256",
          "name": "winnersCount",
          "type": "uint256"
        },
        {
          "internalType": "uint256",
          "name": "maxSlotsPerParticipant",
          "type": "uint256"
        },
        {
          "internalType": "uint256",
          "name": "slotLimit",
          "type": "uint256"
        },
        {
          "internalType": "address",
          "name": "revenueRecipient",
          "type": "address"
        },
        {
          "internalType": "bool",
          "name": "isCollabPool",
          "type": "bool"
        },
        {
          "internalType": "bool",
          "name": "usesCustomFee",
          "type": "bool"
        },
        {
          "internalType": "bool",
          "name": "isExternalPrizeCollection",
          "type": "bool"
        },
        {
          "internalType": "bool",
          "name": "isRefundable",
          "type": "bool"
        },
        {
          "internalType": "bool",
          "name": "erc721EscrowClaimed",
          "type": "bool"
        },
        {
          "internalType": "bool",
          "name": "isEscrowedPrize",
          "type": "bool"
        },
        {
          "internalType": "bool",
          "name": "wasDeletedForFullRefund",
          "type": "bool"
        },
        {
          "internalType": "bool",
          "name": "protocolFeeTaken",
          "type": "bool"
        },
        {
          "internalType": "bool",
          "name": "randomRequested",
          "type": "bool"
        },
        {
          "internalType": "bool",
          "name": "randomnessUsed",
          "type": "bool"
        },
        {
          "internalType": "bool",
          "name": "socialEngagementRequired",
          "type": "bool"
        }
      ],
      "stateMutability": "view",
      "type": "function"
    },
    {
      "inputs": [],
      "name": "poolSubscriptionId",
      "outputs": [
        {
          "internalType": "uint256",
          "name": "",
          "type": "uint256"
        }
      ],
      "stateMutability": "view",
      "type": "function"
    },
    {
      "inputs": [
        {
          "internalType": "address",
          "name": "participant",
          "type": "address"
        }
      ],
      "name": "prizeClaimed",
      "outputs": [
        {
          "internalType": "uint256",
          "name": "",
          "type": "uint256"
        }
      ],
      "stateMutability": "view",
      "type": "function"
    },
    {
      "inputs": [],
      "name": "prizeCollection",
      "outputs": [
        {
          "internalType": "address",
          "name": "",
          "type": "address"
        }
      ],
      "stateMutability": "view",
      "type": "function"
    },
    {
      "inputs": [],
      "name": "prizeData",
      "outputs": [
        {
          "internalType": "enum PrizeTypes.Standard",
          "name": "standard",
          "type": "uint8"
        },
        {
          "internalType": "address",
          "name": "prizeCollection",
          "type": "address"
        },
        {
          "internalType": "uint256",
          "name": "prizeTokenId",
          "type": "uint256"
        },
        {
          "internalType": "uint256",
          "name": "amountPerWinner",
          "type": "uint256"
        },
        {
          "internalType": "address",
          "name": "erc20PrizeToken",
          "type": "address"
        },
        {
          "internalType": "uint256",
          "name": "erc20PrizeAmount",
          "type": "uint256"
        },
        {
          "internalType": "uint256",
          "name": "nativePrizeAmount",
          "type": "uint256"
        },
        {
          "internalType": "uint256",
          "name": "prizesClaimedCount",
          "type": "uint256"
        }
      ],
      "stateMutability": "view",
      "type": "function"
    },
    {
      "inputs": [],
      "name": "prizeTokenId",
      "outputs": [
        {
          "internalType": "uint256",
          "name": "",
          "type": "uint256"
        }
      ],
      "stateMutability": "view",
      "type": "function"
    },
    {
      "inputs": [],
      "name": "prizesClaimedCount",
      "outputs": [
        {
          "internalType": "uint256",
          "name": "",
          "type": "uint256"
        }
      ],
      "stateMutability": "view",
      "type": "function"
    },
    {
      "inputs": [],
      "name": "protocolFeePercentage",
      "outputs": [
        {
          "internalType": "uint256",
          "name": "",
          "type": "uint256"
        }
      ],
      "stateMutability": "view",
      "type": "function"
    },
    {
      "inputs": [],
      "name": "protocolFeeTaken",
      "outputs": [
        {
          "internalType": "bool",
          "name": "",
          "type": "bool"
        }
      ],
      "stateMutability": "view",
      "type": "function"
    },
    {
      "inputs": [
        {
          "internalType": "uint256",
          "name": "quantity",
          "type": "uint256"
        },
        {
          "internalType": "uint256",
          "name": "_deadline",
          "type": "uint256"
        },
        {
          "internalType": "bytes",
          "name": "_signature",
          "type": "bytes"
        },
        {
          "internalType": "uint256[]",
          "name": "_tokenIds",
          "type": "uint256[]"
        }
      ],
      "name": "purchaseSlots",
      "outputs": [],
      "stateMutability": "payable",
      "type": "function"
    },
    {
      "inputs": [],
      "name": "randomRequested",
      "outputs": [
        {
          "internalType": "bool",
          "name": "",
          "type": "bool"
        }
      ],
      "stateMutability": "view",
      "type": "function"
    },
    {
      "inputs": [],
      "name": "randomSeed",
      "outputs": [
        {
          "internalType": "uint256",
          "name": "",
          "type": "uint256"
        }
      ],
      "stateMutability": "view",
      "type": "function"
    },
    {
      "inputs": [],
      "name": "randomnessUsed",
      "outputs": [
        {
          "internalType": "bool",
          "name": "",
          "type": "bool"
        }
      ],
      "stateMutability": "view",
      "type": "function"
    },
    {
      "inputs": [
        {
          "internalType": "uint256",
          "name": "requestId",
          "type": "uint256"
        },
        {
          "internalType": "uint256[]",
          "name": "randomWords",
          "type": "uint256[]"
        }
      ],
      "name": "rawFulfillRandomWords",
      "outputs": [],
      "stateMutability": "nonpayable",
      "type": "function"
    },
    {
      "inputs": [
        {
          "internalType": "address",
          "name": "",
          "type": "address"
        }
      ],
      "name": "refundableAmount",
      "outputs": [
        {
          "internalType": "uint256",
          "name": "",
          "type": "uint256"
        }
      ],
      "stateMutability": "view",
      "type": "function"
    },
    {
      "inputs": [
        {
          "internalType": "address",
          "name": "",
          "type": "address"
        }
      ],
      "name": "refundedNonWinningSlots",
      "outputs": [
        {
          "internalType": "uint256",
          "name": "",
          "type": "uint256"
        }
      ],
      "stateMutability": "view",
      "type": "function"
    },
    {
      "inputs": [],
      "name": "removeFromVRFSubscription",
      "outputs": [],
      "stateMutability": "nonpayable",
      "type": "function"
    },
    {
      "inputs": [],
      "name": "renounceOwnership",
      "outputs": [],
      "stateMutability": "nonpayable",
      "type": "function"
    },
    {
      "inputs": [],
      "name": "requestRandomness",
      "outputs": [],
      "stateMutability": "nonpayable",
      "type": "function"
    },
    {
      "inputs": [],
      "name": "revenueData",
      "outputs": [
        {
          "internalType": "uint256",
          "name": "protocolFeePercentage",
          "type": "uint256"
        },
        {
          "internalType": "uint256",
          "name": "creationFeePercentage",
          "type": "uint256"
        },
        {
          "internalType": "uint256",
          "name": "totalCreatorRevenue",
          "type": "uint256"
        },
        {
          "internalType": "uint256",
          "name": "totalRefundableAmount",
          "type": "uint256"
        },
        {
          "internalType": "uint256",
          "name": "totalGlobalFeeRevenue",
          "type": "uint256"
        },
        {
          "internalType": "uint256",
          "name": "pendingProtocolFee",
          "type": "uint256"
        }
      ],
      "stateMutability": "view",
      "type": "function"
    },
    {
      "inputs": [],
      "name": "revenueRecipient",
      "outputs": [
        {
          "internalType": "address",
          "name": "",
          "type": "address"
        }
      ],
      "stateMutability": "view",
      "type": "function"
    },
    {
      "inputs": [],
      "name": "s_vrf_lastRequestId",
      "outputs": [
        {
          "internalType": "uint256",
          "name": "",
          "type": "uint256"
        }
      ],
      "stateMutability": "view",
      "type": "function"
    },
    {
      "inputs": [],
      "name": "shuffleStartIndex",
      "outputs": [
        {
          "internalType": "uint256",
          "name": "",
          "type": "uint256"
        }
      ],
      "stateMutability": "view",
      "type": "function"
    },
    {
      "inputs": [],
      "name": "slotFee",
      "outputs": [
        {
          "internalType": "uint256",
          "name": "",
          "type": "uint256"
        }
      ],
      "stateMutability": "view",
      "type": "function"
    },
    {
      "inputs": [],
      "name": "slotLimit",
      "outputs": [
        {
          "internalType": "uint256",
          "name": "",
          "type": "uint256"
        }
      ],
      "stateMutability": "view",
      "type": "function"
    },
    {
      "inputs": [
        {
          "internalType": "address",
          "name": "",
          "type": "address"
        }
      ],
      "name": "slotsPurchased",
      "outputs": [
        {
          "internalType": "uint256",
          "name": "",
          "type": "uint256"
        }
      ],
      "stateMutability": "view",
      "type": "function"
    },
    {
      "inputs": [],
      "name": "socialEngagementRequired",
      "outputs": [
        {
          "internalType": "bool",
          "name": "",
          "type": "bool"
        }
      ],
      "stateMutability": "view",
      "type": "function"
    },
    {
      "inputs": [],
      "name": "standard",
      "outputs": [
        {
          "internalType": "enum PrizeTypes.Standard",
          "name": "",
          "type": "uint8"
        }
      ],
      "stateMutability": "view",
      "type": "function"
    },
    {
      "inputs": [],
      "name": "startTime",
      "outputs": [
        {
          "internalType": "uint256",
          "name": "",
          "type": "uint256"
        }
      ],
      "stateMutability": "view",
      "type": "function"
    },
    {
      "inputs": [],
      "name": "state",
      "outputs": [
        {
          "internalType": "enum IPool.PoolState",
          "name": "",
          "type": "uint8"
        }
      ],
      "stateMutability": "view",
      "type": "function"
    },
    {
      "inputs": [
        {
          "internalType": "bytes4",
          "name": "interfaceId",
          "type": "bytes4"
        }
      ],
      "name": "supportsInterface",
      "outputs": [
        {
          "internalType": "bool",
          "name": "",
          "type": "bool"
        }
      ],
      "stateMutability": "view",
      "type": "function"
    },
    {
      "inputs": [
        {
          "internalType": "uint256",
          "name": "",
          "type": "uint256"
        }
      ],
      "name": "tokenIdClaimedBy",
      "outputs": [
        {
          "internalType": "address",
          "name": "",
          "type": "address"
        }
      ],
      "stateMutability": "view",
      "type": "function"
    },
    {
      "inputs": [],
      "name": "totalCreatorRevenue",
      "outputs": [
        {
          "internalType": "uint256",
          "name": "",
          "type": "uint256"
        }
      ],
      "stateMutability": "view",
      "type": "function"
    },
    {
      "inputs": [],
      "name": "totalGlobalFeeRevenue",
      "outputs": [
        {
          "internalType": "uint256",
          "name": "",
          "type": "uint256"
        }
      ],
      "stateMutability": "view",
      "type": "function"
    },
    {
      "inputs": [],
      "name": "totalRefundableAmount",
      "outputs": [
        {
          "internalType": "uint256",
          "name": "",
          "type": "uint256"
        }
      ],
      "stateMutability": "view",
      "type": "function"
    },
    {
      "inputs": [
        {
          "internalType": "address",
          "name": "newOwner",
          "type": "address"
        }
      ],
      "name": "transferOwnership",
      "outputs": [],
      "stateMutability": "nonpayable",
      "type": "function"
    },
    {
      "inputs": [],
      "name": "usesCustomFee",
      "outputs": [
        {
          "internalType": "bool",
          "name": "",
          "type": "bool"
        }
      ],
      "stateMutability": "view",
      "type": "function"
    },
    {
      "inputs": [],
      "name": "wasDeletedForFullRefund",
      "outputs": [
        {
          "internalType": "bool",
          "name": "",
          "type": "bool"
        }
      ],
      "stateMutability": "view",
      "type": "function"
    },
    {
      "inputs": [
        {
          "internalType": "uint256",
          "name": "",
          "type": "uint256"
        }
      ],
      "name": "winners",
      "outputs": [
        {
          "internalType": "address",
          "name": "",
          "type": "address"
        }
      ],
      "stateMutability": "view",
      "type": "function"
    },
    {
      "inputs": [],
      "name": "winnersCount",
      "outputs": [
        {
          "internalType": "uint256",
          "name": "",
          "type": "uint256"
        }
      ],
      "stateMutability": "view",
      "type": "function"
    },
    {
      "inputs": [],
      "name": "winnersSelected",
      "outputs": [
        {
          "internalType": "uint256",
          "name": "",
          "type": "uint256"
        }
      ],
      "stateMutability": "view",
      "type": "function"
    },
    {
      "inputs": [
        {
          "internalType": "address",
          "name": "",
          "type": "address"
        }
      ],
      "name": "winsPerAddress",
      "outputs": [
        {
          "internalType": "uint256",
          "name": "",
          "type": "uint256"
        }
      ],
      "stateMutability": "view",
      "type": "function"
    },
    {
      "inputs": [],
      "name": "withdrawCreatorRevenue",
      "outputs": [],
      "stateMutability": "nonpayable",
      "type": "function"
    },
    {
      "inputs": [],
      "name": "withdrawProtocolRevenue",
      "outputs": [],
      "stateMutability": "nonpayable",
      "type": "function"
    }
  ],
  "bytecode": "0x60a034620000bb57601f6200601c38819003918201601f19168301916001600160401b03831184841017620000c057808492602094604052833981010312620000bb57516001600160a01b03908181168103620000bb576000543360018060a01b0319821617600055604051923391167f8be0079c531659141344cd1fd0a4f28419497f9722a3daafe3b4186f6b6457e0600080a36001805560ff1960025416600255608052615f459081620000d7823960805181610eeb0152f35b600080fd5b634e487b7160e01b600052604160045260246000fdfe608080604052600436101561001357600080fd5b600090813560e01c90816301ffc9a71461402f5750806302d05d3f146140065780630631c5c214613fe857806306f1305614613fca57806306fdde0314613f96578063085219741461396f5780630aa00e7014613f785780630b747d9114613f5a5780630b78824b14613f3c5780630e4fa15814613f165780630fb5a6b414613ef85780631249c58b14613b4a578063128f4ba414613b2c578063150b7a0214613ad55780631ae25dd014613a865780631fe543e3146139a857806325444fa41461396f5780632c1fecfe146139495780633197cbb614613927578063321679fa14613909578063327bb1ad1461387c57806335c1d349146138385780633b26314d1461380f578063400214341461345757806342b72afa1461341f57806344a909861461340157806348a3a450146133db57806349713811146133bd5780634e3ff4601461337e5780634f7f0fc01461333f5780635755248e146133215780635a3b7e42146132fb5780635c975abb146132d85780635f369a321461292b57806366805de514612912578063677375c3146128f4578063683d1936146128ce578063696917ba146128a85780636e61a1601461288257806370740ac914612848578063715018a6146127ee5780637184062914612103578063740e2198146120d757806378e97925146120b9578063813e88b91461209b578063837d11281461207557806387213c351461204f5780638778d82c14612026578063888dc19814612008578063898b36db14611fea5780638bc5328514611fcc5780638bfbbcbe14611fb35780638d7fe47814611f8d5780638da5cb5b14611f665780638e50e50914611f4857806394f5c9dc14611f005780639ed5c1cc14611ed7578063a177ec0914611eac578063a2fb117514611e50578063a67d0e6c14611e32578063a9532a5314611da0578063ae4b82c114611d76578063aebc455014611d49578063af78ed0a14611d2b578063b0b606c014611cf8578063b5545a3c146117ee578063b5ad84121461160e578063ba352ac414610c77578063bc197c8114610beb578063c19d93fb14610ba8578063c2e784bd14610b8a578063c3fa0e3b14610b6c578063cabfaa1814610b4e578063cc7d49ec14610b28578063d0704cbd14610b02578063d0d11ae814610ae4578063d17d135914610aab578063d447e9bc14610a10578063d91043f214610a8d578063dbb832bd14610a67578063dc52834e14610a49578063dc8a55c214610a10578063e511a11b146109d7578063e6f12cf7146109b9578063f23a6e6114610962578063f2fde38b146108d4578063f8413b07146107a1578063fb687df414610774578063fd22b17c14610574578063fd75a1f1146105035763fee151ae1461040a57600080fd5b34610500578060031936011261050057610446610425614287565b600a54600b54600c54600d5491604051958695610200808852870190614084565b9360208601526040850152606084015260018060a01b038116608084015260ff90818160a01c16151560a0850152818160a81c16151560c0850152818160b01c16151560e0850152818160b81c161515610100850152818160c01c161515610120850152818160c81c161515610140850152818160d01c161515610160850152818160d81c161515610180850152818160e01c1615156101a0850152818160e81c1615156101c085015260f01c1615156101e08301520390f35b80fd5b5034610500578060031936011261050057610100600e54600f546010549060018060a01b039182601154166012549160135493601454956040519761054b8960ff8316614131565b60081c16602088015260408701526060860152608085015260a084015260c083015260e0820152f35b503461050057806003193601126105005780546040516336b87bd760e11b8152336004820152602492916020908290859082906001600160a01b03165afa90811561076957829161073b575b50156107295780600d5460ff90818160d81c168061071e575b6106b5575b818160a81c1615806106aa575b61060b575b505080919250156106075761060490615ab2565b80f35b5080fd5b60b01c81161561068f5760085460a81c16600881101561067c57600603610607575b601c54906107d09384830294838604148315171561066a57506106596127106106619495048093614a18565b601c556143d2565b819038806105f0565b634e487b7160e01b8452601160045283fd5b5050634e487b7160e01b81526021600452fd5b60085460a81c16600881101561067c5760041461062d575080fd5b50601c5415156105eb565b9150808260b01c16600014610702578060085460a81c1660088110156106ee576006036106ea575b601d549183601d556105de565b8280fd5b5050634e487b7160e01b8252506021600452fd5b8060085460a81c1660088110156106ee576004146106dd578280fd5b50601d5415156105d9565b6040516327e1f1e560e01b8152600490fd5b61075c915060203d8111610762575b6107548183614204565b810190614802565b386105c0565b503d61074a565b6040513d84823e3d90fd5b5034610500578060031936011261050057600e5460405160089190911c6001600160a01b03168152602090f35b50346105005780600319360112610500576107c1600654600754906143d2565b4210156108c7575b600654600754906107e56107dd83836143d2565b4210156144b9565b6008549060ff8260a81c1660088110156108b357600281149081156108a8575b508061089b575b1561089757602554600a541161089757602a54159283610881575b50506001600160a01b03163314801561086c575b156106075761085260ff600d5460e01c1615614516565b61085f575b610604615238565b610867615a16565b610857565b5033825260276020526040822054151561083b565b61088a916143d2565b42106106ea573880610827565b8380fd5b50602a54600a541161080c565b600391501438610805565b634e487b7160e01b85526021600452602485fd5b6108cf615674565b6107c9565b5034610500576020366003190112610500576108ee6140c4565b6108f6614333565b6001600160a01b0381161561090e576106049061438b565b60405162461bcd60e51b815260206004820152602660248201527f4f776e61626c653a206e6577206f776e657220697320746865207a65726f206160448201526564647265737360d01b6064820152608490fd5b50346105005760a03660031901126105005761097c6140c4565b506109856140da565b506084356001600160401b038111610607576109a5903690600401614104565b505060405163f23a6e6160e01b8152602090f35b50346105005780600319360112610500576020601c54604051908152f35b5034610500576020366003190112610500576020906040906001600160a01b036109ff6140c4565b168152602283522054604051908152f35b5034610500576020366003190112610500576020906040906001600160a01b03610a386140c4565b168152601f83522054604051908152f35b50346105005780600319360112610500576020600b54604051908152f35b5034610500578060031936011261050057602060ff600d5460d81c166040519015158152f35b50346105005780600319360112610500576020601954604051908152f35b5034610500576020366003190112610500576020906040906001600160a01b03610ad36140c4565b168152601e83522054604051908152f35b50346105005780600319360112610500576020601354604051908152f35b5034610500578060031936011261050057602060ff600d5460b01c166040519015158152f35b5034610500578060031936011261050057602060ff600d5460d01c166040519015158152f35b50346105005780600319360112610500576020602554604051908152f35b50346105005780600319360112610500576020601d54604051908152f35b50346105005780600319360112610500576020600454604051908152f35b503461050057806003193601126105005760ff60085460a81c16604051906008811015610bd757602092508152f35b634e487b7160e01b83526021600452602483fd5b50346105005760a036600319011261050057610c056140c4565b50610c0e6140da565b506001600160401b036044358181116106ea57610c2f903690600401614154565b50506064358181116106ea57610c49903690600401614154565b505060843590811161060757610c63903690600401614104565b505060405163bc197c8160e01b8152602090f35b5060031961026036820112610607576004356001600160401b0381116106ea57610120809282360301126106ea576040519182018281106001600160401b038211176115f857604052610ccc816004016140f0565b8252610cda602482016140f0565b602083015260448101356001600160401b038111610897578101903660238301121561089757600482013590610d0f82614225565b610d1c6040519182614204565b82815285366024858701011161050057602084610104956024610d8d980183860137830101526040850152606481013560608501526084810135608085015260a481013560a0850152610d7160c48201614240565b60c0850152610d8260e48201614240565b60e085015201614240565b6101008201526101006023193601126106075760405161010081018181106001600160401b038211176115f857604052600460243510156106ea5760243581526044356001600160a01b03811690036113a35760443560208201526064356040820152608435606082015260a4356001600160a01b03811681036113a357608082015260c43560a082015260e43560c08201526101043580151581036113a35760e08201526080366101231901126106ea576040518060808101106001600160401b036080830111176115f85760808101604052610124356001600160a01b03811681036113a357815260046101443510156108975761014435602082015261016435604082015261018435606082015260206101a31936011261089757604051610eb7816141ce565b6101a43580151581036113a35781526101c4356001600160a01b03811690036113a35761024435151561024435036113a3577f00000000000000000000000000000000000000000000000000000000000000006001600160a01b031633036115f45784546001600160a01b03166115f45783516001600160a01b031693610f3d8561438b565b600880546001600160a01b031981166101c4356001600160a01b03161790915560405163ec644ddd60e01b815260a0816004818a5afa9081156115e95788916115b6575b50604051630425172560e31b81523060048201526020816024818b5afa9081156113b0578991611584575b5060035560028054610100600160a81b031916600892831b610100600160a81b0316179055610224356005556101e4356006556102043560075561024435151560a01b60ff60a01b166001600160b01b03199092166101c4356001600160a01b03161791909117905560408101518051906001600160401b03821161157057819061103860095461424d565b601f81116114fe575b50602090601f831160011461148857899261147d575b50508160011b916000199060031b1c1916176009555b60a0810151600a556080810151600b556060810151600c5560208101516001600160a01b0316801561147257935b600d805460c084015160e0850151610100909501519551600167ff0000000000000160b81b031983166001600160a01b038a161791151560a01b60ff60a01b1691821795151560a81b60ff60a81b1695861796151560b01b60ff60b01b1696871790151560f01b60ff60f01b169081179093558351929690939192600481101561145e57600e5460ff610100600160a81b03602086015160081b169216906affffffffffffffffffffff60a81b161717600e556040820151600f55606082015160105560018060a01b036080830151166bffffffffffffffffffffffff60a01b601154161760115560a082015160125560c08201516013558960145560018060a01b0381511680611405575b505060408051631a35245160e31b815290816004818c5afa80156113fa578a918b916113bb575b50601955601855604051636f6f8c5d60e01b815297602090899060049082905afa9788156113b0578998611377575b5060c0810151156112d15750505050505050610224350361050057600d805460ff60c81b1916600160c81b1790555b60ff60085460a01c16806112c2575b1561128857600a54600d805460ff60b81b1916600190921160b81b60ff60b81b169190911790555b65ffffffff00ff60c01b19600d5416600d5580601a5580601b5580601c5580601d5580f35b600d5460ff8160a81c16156000146112b35750600d805460ff60b81b1916600160b81b179055611263565b60ff60b81b1916600d55611263565b5060ff600d5460a81c1661123b565b60808101516001600160a01b03161561130c5750505050505050610224350361050057600d805460ff60c81b1916600160c81b17905561122c565b909192939495965060018060a01b03602082015116611332575b5050505050505061122c565b60e0015160ff60c81b90151560c81b166001600160a01b0396909616600167ff00000000ff000160b81b031991909116171717171717600d5538808080808080611326565b9097506020813d6020116113a8575b8161139360209383614204565b810103126113a3575196386111fd565b600080fd5b3d9150611386565b6040513d8b823e3d90fd5b9150506040813d6040116113f2575b816113d760409383614204565b810103126113ee57805160209182015190916111ce565b8980fd5b3d91506113ca565b6040513d8c823e3d90fd5b601554906020830151600481101561144a576001600160a81b03199092161760a09190911b60ff60a01b161760155560408101516016556060015160175538806111a7565b634e487b7160e01b8d52602160045260248dfd5b634e487b7160e01b8b52602160045260248bfd5b506101c4359361109b565b015190503880611057565b925060098952600080516020615ef08339815191529089935b601f19841685106114e3576001945083601f198116106114ca575b505050811b0160095561106d565b015160001960f88460031b161c191690553880806114bc565b818101518355602094850194600190930192909101906114a1565b90915060098952601f830160051c600080516020615ef0833981519152016020841061155b575b908392915b601f820160051c600080516020615ef083398151915201811061154d5750611041565b8a815584935060010161152a565b50600080516020615ef0833981519152611525565b634e487b7160e01b88526041600452602488fd5b90506020813d6020116115ae575b8161159f60209383614204565b810103126113a3575138610fac565b3d9150611592565b6115d8915060a03d60a0116115e2575b6115d08183614204565b810190614409565b5050505038610f81565b503d6115c6565b6040513d8a823e3d90fd5b8480fd5b634e487b7160e01b600052604160045260246000fd5b5034610500578060031936011261050057611627614463565b600d546001600160a01b0380821691338390036108975760ff60085460a81c169060088210156108b357600582146115f457600782146115f45760b01c60ff16156117ce57600603611793575b82601a549283156106075781806116ad9581936116a161271061169960195485614450565b048093614a18565b97889284601a55615ab2565b5af16116b761461c565b50156106ea57602460208285541660405192838092630425172560e31b82523060048301525afa908115611788578491611737575b507f86a5cc8fe9af9ae68fb50f62885307a7755a30cbd290131644377f0bd94a71819160209161172a575b600d541692604051908152a26001805580f35b6117326159b9565b611717565b90506020813d8211611780575b8161175160209383614204565b810103126113a357517f86a5cc8fe9af9ae68fb50f62885307a7755a30cbd290131644377f0bd94a71816116ec565b3d9150611744565b6040513d86823e3d90fd5b60405162461bcd60e51b815260206004820152601360248201527210d85b9b9bdd081dda5d1a191c985dc81e595d606a1b6044820152606490fd5b600481149081156117e3575b50611674578280fd5b6006915014386117da565b5034610500578060031936011261050057611807614463565b60085460ff90818160a81c1690600882101591826108b357600481148015611cea575b838115611cda575b8115611cca575b5015611c8557600d5492848460d01c166000146119a4575050505033825260209060218252806040842054166106ea57602782526040832054156106ea578060085460a01c169081611995575b501561194157338252602781526118a4604083205460055490614450565b903383526021815260408320600160ff198254161790558280808085335af16118cb61461c565b5015611904577f358fe4192934d3bf28ae181feda1f4bd08ca67f5e2fad55582cce5eb67304ae9906040519283523392a25b6001805580f35b6064906040519062461bcd60e51b8252600482015260166024820152751499599d5b99081d1c985b9cd9995c8819985a5b195960521b6044820152fd5b6084906040519062461bcd60e51b82526004820152602760248201527f526566756e6473206e6f7420706f737369626c6520666f72207468697320706f6044820152666f6c207479706560c81b6064820152fd5b9050600d5460a81c1638611886565b6108b357839190600703611a8657505050338252602160205280604083205416610607576027602052604082205480156106ea576005546119e491614450565b90600d5460a81c16600014611a6a57601a548181106106ea5781611a0791614a18565b601a555b338252602160205260408220600160ff198254161790558180808084335af1611a3261461c565b5015610607576040519081527f358fe4192934d3bf28ae181feda1f4bd08ca67f5e2fad55582cce5eb67304ae960203392a25b6118fd565b601c548181106106ea5781611a7e91614a18565b601c55611a0b565b60a01c1680611c79575b80611c6d575b80611c62575b15611b7757505033815260276020526040812054601e602052604082205490602260205260408320549082811180611b65575b1561089757611ae692611ae191614a18565b614a18565b6005546018549061271091820390828211611b5157611b109291611b0991614450565b0482614450565b90601b548083116108975782611b2591614a18565b601b553383526022602052611b3f604084209182546143d2565b90558180808084335af1611a3261461c565b634e487b7160e01b85526011600452602485fd5b50611b708382614a18565b8210611acf565b60a81c811615611b88575b506118fd565b3382526027602052604082205415610607576021602052604082205416610500576027602052611bbf604082205460055490614450565b611f4090818102918183041490151715611c4e576127109004601c548181106106ea5781611bec91614a18565b601c55338252602160205260408220600160ff198254161790558180808084335af1611c1661461c565b5015610607576040519081527f358fe4192934d3bf28ae181feda1f4bd08ca67f5e2fad55582cce5eb67304ae960203392a238611b82565b634e487b7160e01b82526011600452602482fd5b50601b541515611a9c565b50818160b81c16611a96565b50818160a81c16611a90565b60405162461bcd60e51b815260206004820152601e60248201527f506f6f6c206e6f7420696e206120726566756e6461626c6520737461746500006044820152606490fd5b90506108b3576007811483611839565b90506108b3576005811483611832565b50600092506006811461182a565b503461050057602036600319011261050057602090600435815260238252604060018060a01b0391205416604051908152f35b50346105005780600319360112610500576020601a54604051908152f35b503461050057806003193601126105005760025460405160089190911c6001600160a01b03168152602090f35b50346105005760203660031901126105005760406020916004358152602c83522054604051908152f35b503461050057806003193601126105005760ff60085460a81c1660088110159081610bd75760048114918215611e24575b8215611e13575b8215611dee575b505015610500576106046159b9565b909150611dff576006143880611ddf565b634e487b7160e01b82526021600452602482fd5b809250610bd7576005811491611dd8565b506007811491506000611dd1565b50346105005780600319360112610500576020600554604051908152f35b5034610500576020366003190112610500576004356026548110156106075760266000527f744a2cf8fd7008e3d53b67916e73460df9fa5214e3ef23dd4259ca09493a359401546040516001600160a01b039091168152602090f35b5034610500578060031936011261050057602060ff60155460a01c16611ed56040518092614131565bf35b50346105005780600319360112610500576011546040516001600160a01b039091168152602090f35b503461050057806003193601126105005760c0601854601954601a54601b54601c5491601d5493604051958652602086015260408501526060840152608083015260a0820152f35b50346105005780600319360112610500576020601854604051908152f35b5034610500578060031936011261050057546040516001600160a01b039091168152602090f35b5034610500578060031936011261050057602060ff600d5460e01c166040519015158152f35b5034610500578060031936011261050057610604614f25565b50346105005780600319360112610500576020602a54604051908152f35b50346105005780600319360112610500576020600c54604051908152f35b50346105005780600319360112610500576020601454604051908152f35b50346105005780600319360112610500576015546040516001600160a01b039091168152602090f35b5034610500578060031936011261050057602060ff600d5460f01c166040519015158152f35b5034610500578060031936011261050057602060ff600d5460a81c166040519015158152f35b50346105005780600319360112610500576020601054604051908152f35b50346105005780600319360112610500576020600654604051908152f35b50346105005760203660031901126105005760206120fb6120f66140c4565b614a25565b604051908152f35b5034610500576040366003190112610500576001600160401b039060043582811161060757612136903690600401614154565b91909260243590811161060757612151903690600401614154565b939061215b614463565b60085460ff8160a81c1660088110156108b357600403610897578585036108975784156108975760328511610897576001600160a01b0390811633036126b1575b600e5493818560081c1694851561269f5760ff600d5460c81c166126285760ff1681805b88821061263a5750506004811015611dff578061244857508096815b87811061229757505050505050506121ff6020926121f8615ea2565b8092614a18565b80612212575b5060018055604051908152f35b61228e7fbcd905a8eb4cc473497e2cd24cf41334ea7fad80c354380f8fff04a025b1e5f891604051907402130ba31b41031b7b6b83632ba32b2103bb4ba341605d1b86830152603582015268206661696c7572657360b81b6055820152603e815261227c816141e9565b60405191829186835286830190614084565b0390a138612205565b6122aa6122a5828a89614cbe565b614cce565b6122b5828488614cbe565b35883b156115f4576040516340c10f1960e01b81526001600160a01b038316600482015260248101829052858082604481838f5af19182612430575b50506123c55750906001918261230561458d565b6308c379a01461237c575b61231d575b505b016121dc565b61232561461c565b50600080516020615eb08339815191528660405192169180612373816060906020815260176020820152762637bb96b632bb32b61036b4b73a34b7339032b93937b960491b60408201520190565b0390a238612315565b6123846145ab565b80612390575b50612310565b90508590600080516020615eb0833981519152604051806123bc6020948583528c881695830190614084565b0390a23861238a565b7f95681e512bc0fe659e195e06c283eada494316f3d801213e48e7101af92bf770612420601f9c8860019695169384895260209e8f526040892061240a8282546143d2565b905561241960149182546143d2565b9055615229565b9b600f54604051908152a2612317565b612439906141bb565b6124445785386122f1565b8580fd5b600195908603612628578197825b8881106124735750505050505050506121ff6020926121f8615ea2565b6124816122a5828b8a614cbe565b61248c828489614cbe565b3561249960105482614450565b90600f918254873b1561262457604051630ab714fb60e11b81526001600160a01b038616600482015260248101919091526044810191909152878082606481838c5af1918261260c575b50506125b7575050908891826124f761458d565b6308c379a01461256e575b61250f575b505b01612456565b61251761461c565b50600080516020615eb08339815191528760405192169180612565816060906020815260176020820152762637bb96b632bb32b61036b4b73a34b7339032b93937b960491b60408201520190565b0390a238612507565b6125766145ab565b80612582575b50612502565b90508690600080516020615eb0833981519152604051806125ae6020948583528d881695830190614084565b0390a23861257c565b7f95681e512bc0fe659e195e06c283eada494316f3d801213e48e7101af92bf770906125fe89939e938d96951693848a52602092601f845260408b2061240a8282546143d2565b9d54604051908152a2612509565b612615906141bb565b6126205787386124e3565b8780fd5b8880fd5b60405163fd34e50560e01b8152600490fd5b846126496122a5848c8b614cbe565b1680855261266a6020601e8152601f60408820549152604087205490614a18565b90156115f45780156115f457612681838c89614cbe565b351161089757600190612695838c89614cbe565b35019101906121c0565b60405163424ca23960e01b8152600490fd5b83600e5460ff811660048110156127da57839291908061275c575060209150600460405180948193638da5cb5b60e01b835260081c165afa908115612751579082918691612716575b505b1633031561219c57604051635c427cd960e01b8152600490fd5b9150506020813d8211612749575b8161273160209383614204565b810103126115f45761274382916143f5565b386126fa565b3d9150612724565b6040513d87823e3d90fd5b60011461276a575b506126fc565b60209150600460405180948193638da5cb5b60e01b835260081c165afa90811561275157908291869161279f575b5038612764565b9150506020813d82116127d2575b816127ba60209383614204565b810103126115f4576127cc82916143f5565b38612798565b3d91506127ad565b634e487b7160e01b87526021600452602487fd5b5034610500578060031936011261050057612807614333565b600080546001600160a01b0319811682556001600160a01b03167f8be0079c531659141344cd1fd0a4f28419497f9722a3daafe3b4186f6b6457e08280a380f35b5034610500578060031936011261050057612861614463565b60ff60085460a81c166008811015611dff57600403610500576118fd61481a565b5034610500578060031936011261050057602060ff600d5460c01c166040519015158152f35b5034610500578060031936011261050057602060ff600d5460c81c166040519015158152f35b5034610500578060031936011261050057602060ff60085460a01c166040519015158152f35b50346105005780600319360112610500576020601b54604051908152f35b5034610500578060031936011261050057610604614ce2565b506080366003190112610500576001600160401b036044358181116106ea57612958903690600401614104565b9160643590811161089757612971903690600401614154565b92909161297c614463565b60085460ff90818160a81c1660088110156132705715613295575b5033320361328457600854818160a81c1695600887101561327057600180970361325e57331561324c5760043595861561323a57600554801561322857876129de91614450565b340361321657600654946129f4600754876143d2565b42101561320457602595612a098988546143d2565b600c54106131f25742106131e057338a5260209660278852612a2f8960408d20546143d2565b600b54106131ce57858560a01c16158061319b575b613189578a54604051638da5cb5b60e01b81526001600160a01b039691871691908d908b81600481875afa90811561076957899291613151575b5016331461313f578616331461312e57888c8880600d5460f01c169182613117575b5050612ff7575b505050506015918254858582169182612b98575b505050505050503386526027835260408620848154019055855b848110612b535750907ffd1903a7f9f31de6cf38a88eda98ae029aeba3b2ec48a599d7c0d900f0f335cb9291600d5460a81c1615600014612b465734601c5401601c555b54600c5414612b31575b6040519283523392a2805580f35b612b39615a16565b612b41615238565b612b23565b34601a5401601a55612b19565b825490600160401b8210156115f857612b92612b7483898095018755614184565b81546001600160a01b0360039290921b91821b19163390911b179055565b01612ad5565b60a01c166004811015612fe357889080612ed1575050508015612e9757889060168054838114600014612cf45750501061262457858360249235935416604051928380926331a9108f60e11b82528660048301525afa9081156113b0578991612cbf575b5082339116036126205780885260238552816040892054168015908115612cb5575b5015612c5e578752602384526040872090815490811615612c49575b50505b38808080808581612abb565b6001600160a01b031916331790553880612c3a565b60405162461bcd60e51b815260048101869052602960248201527f546f6b656e20494420616c726561647920626f756e6420746f20616e6f74686560448201526872206164647265737360b81b6064820152608490fd5b9050331438612c1e565b90508581813d8311612ced575b612cd68183614204565b8101031261262457612ce7906143f5565b38612bfc565b503d612ccc565b909193928111600014612e9357808410612e9357908a95949392918c5b818110612e255750508b955b612d2d575b505050505050612c3d565b8054861015612e2057612d41868484614cbe565b358c60248b88885416604051928380926331a9108f60e11b82528760048301525afa918215612e145791612ddb575b508633911603612dd7578c526023895260408c2080549686881691821580938115612dcd575b5015612dc9578d98612dae93612db4575b5050615229565b95612d1d565b6001600160a01b031916331790553880612da7565b8e80fd5b9050331438612d96565b8c80fd5b90508a81813d8311612e0d575b612df28183614204565b81010312612e0957612e03906143f5565b38612d70565b8d80fd5b503d612de8565b604051903d90823e3d90fd5b612d22565b909192939495968101808211612e7f575b828110612e545750612e4790615229565b908b969594939291612d11565b612e5f828787614cbe565b35612e6b828888614cbe565b3514612e0957612e7a90615229565b612e36565b634e487b7160e01b8e52601160045260248efd5b8b80fd5b60405162461bcd60e51b8152600481018890526012602482015271151bdad95b8812511cc81c995c5d5a5c995960721b6044820152606490fd5b93509350935050878114600014612f655750601754604051627eeac760e11b8152336004820152602481019190915291829060449082905afa8015612f5a578790612f2b575b612f26915060165411156151d2565b612c3d565b508381813d8311612f53575b612f418183614204565b810103126113a357612f269051612f17565b503d612f37565b6040513d89823e3d90fd5b600214612f74575b5050612c3d565b6040516370a0823160e01b815233600482015291829060249082905afa8015612f5a578790612fb4575b612fad915060165411156151d2565b3883612f6d565b508381813d8311612fdc575b612fca8183614204565b810103126113a357612fad9051612f9e565b503d612fc0565b634e487b7160e01b8c52602160045260248cfd5b604051636b90bda960e01b815291829060049082905afa801561310c5786918d916130d4575b501680156130c2578b92813b1561089757839183918360a46040518097819682956324fa7e3f60e21b8452336004850152306024850152602435604485015260806064850152816084850152848401378181018301849052601f01601f191681010301925af18015610769576130ae575b50503389526024865260408920805460ff19168917905538808088612aa7565b6130b7906141bb565b61262457883861308e565b6040516343361aaf60e01b8152600490fd5b8092508a8092503d8311613105575b6130ed8183614204565b81010312612e93576130ff86916143f5565b3861301d565b503d6130e3565b6040513d8e823e3d90fd5b60409192503381526024845220541615888e612aa0565b60405162ca6a8360e51b8152600490fd5b604051635f2a002d60e11b8152600490fd5b8092508c8092503d8311613182575b61316a8183614204565b81010312612e095761317c88916143f5565b38612a7e565b503d613160565b604051631274fa9d60e31b8152600490fd5b5085600d5460a81c1680156131c4575b80612a445750338b526027885260408b20541515612a44565b50898914156131ab565b604051637145fa7b60e01b8152600490fd5b604051633d8c21b360e01b8152600490fd5b6040516302edeeb760e31b8152600490fd5b60405163fd2a413d60e01b8152600490fd5b60405163569e8c1160e01b8152600490fd5b60405163d2100d7360e01b8152600490fd5b60405163f4f5b73360e01b8152600490fd5b60405163d92e233d60e01b8152600490fd5b6040516338c0a90160e11b8152600490fd5b634e487b7160e01b88526021600452602488fd5b60405162c44f5760e51b8152600490fd5b60065442106129975760ff60a81b1916600160a81b176008557f3d31b97eef590df350bb2cdbc390034c613c9f23ea6ae1906682628c85248b538680a138612997565b5034610500578060031936011261050057602060ff600254166040519015158152f35b5034610500578060031936011261050057602060ff600e5416611ed56040518092614131565b50346105005780600319360112610500576020601654604051908152f35b50346105005760203660031901126105005760209060ff906040906001600160a01b0361336a6140c4565b168152602184522054166040519015158152f35b50346105005760203660031901126105005760209060ff906040906001600160a01b036133a96140c4565b168152602484522054166040519015158152f35b50346105005780600319360112610500576020600a54604051908152f35b5034610500578060031936011261050057602060ff600d5460e81c166040519015158152f35b50346105005780600319360112610500576020602b54604051908152f35b5034610500576020366003190112610500576020906040906001600160a01b036134476140c4565b1681528280522054604051908152f35b503461050057602080600319360112610607576004353033036137d95790602d548352602c815281604084205561348f602d54615229565b602d55602b549160295490602554916134a785614562565b916134b56040519384614204565b8583526134c186614562565b8386019290601f1901368437875b8781106136d957505050855b85811061363f575061350c600d549560ff60e01b198716600d55613501816029546143d2565b602955602a546143d2565b9384602a55604051928184019082855251809152604084019291885b828110613622575050505090807f32a1b5731a757f192a06ca973715ca4dbc42c2d15323cabaa74e0a2d5dc088e4920390a1600a54918211613596576008805460ff60a81b1916600160aa1b179081905560a01c60ff1680613615575b80613608575b806135fa575b61359c575b50505080f35b6135b2916135a991614a18565b60055490614450565b6127106135c160185483614450565b046135d86135cf8284614a18565b92601a54614a18565b601a55601d55601b5561ffff60d81b1916600160d81b17600d55388080613596565b5060ff8360d81c1615613591565b5060ff8360b81c1661358b565b5060ff8360a81c16613585565b83516001600160a01b031685529381019392810192600101613528565b9193916001600160a01b036136548287614579565b5116906026918254600160401b8110156115f857600181018085558110156136c3576136bb936000527f744a2cf8fd7008e3d53b67916e73460df9fa5214e3ef23dd4259ca09493a359401906bffffffffffffffffffffffff60a01b825416179055615229565b9391936134db565b634e487b7160e01b600052603260045260246000fd5b6136ea81611ae184899a989a614a18565b6040518681019085825283604082015260408152613707816141e9565b5190209061371583856143d2565b9181156137c55761373184936137bd95936137989306906143d2565b61377961373d82614184565b8d61375a60018060a01b03809454600394851b1c16978892614579565b5261376d613768888b6143d2565b614184565b9054911b1c1691614184565b90919082549060031b9160018060a01b03809116831b921b1916179055565b6137a98161377961376885886143d2565b8a52601e865260408a206124198154615229565b9593956134cf565b634e487b7160e01b8c52601260045260248cfd5b60405162461bcd60e51b815260048101839052600e60248201526d13db9b1e481cd95b198b58d85b1b60921b6044820152606490fd5b5034610500578060031936011261050057600d546040516001600160a01b039091168152602090f35b5034610500576020366003190112610500576004359060255482101561050057602061386383614184565b905460405160039290921b1c6001600160a01b03168152f35b503461050057806003193601126105005760018060a01b039060208282541692600e5460081c161515602460405180958193635aa35d2560e11b835260048301525afa908115612e1457906138d7575b602090604051908152f35b506020813d8211613901575b816138f060209383614204565b810103126113a357602090516138cc565b3d91506138e3565b50346105005780600319360112610500576020601254604051908152f35b503461050057806003193601126105005760206120fb600654600754906143d2565b5034610500578060031936011261050057602060ff600d5460b81c166040519015158152f35b5034610500576020366003190112610500576020906040906001600160a01b036139976140c4565b168152602783522054604051908152f35b5034610500576040366003190112610500576024356001600160401b038111610607576139d9903690600401614154565b60025460081c6001600160a01b03163303613a41576139f781614562565b91613a056040519384614204565b8183526020918284019060051b82019136831161244457905b828210613a3257856106048660043561464c565b81358152908301908301613a1e565b60405162461bcd60e51b815260206004820181905260248201527f4f6e6c792056524620436f6f7264696e61746f722063616e2066756c66696c6c6044820152606490fd5b50346105005780600319360112610500576015546016546017546040516001600160a01b0384168152608093909290613ac990602085019060a01c60ff16614131565b60408301526060820152f35b503461050057608036600319011261050057613aef6140c4565b50613af86140da565b506064356001600160401b03811161060757613b18903690600401614104565b5050604051630a85bd0160e11b8152602090f35b50346105005780600319360112610500576020600354604051908152f35b5034610500578060031936011261050057613b63614463565b600860ff815460a81c1681811015610bd75760040361060757613b84615b9d565b50600e549081831c6001600160a01b0316801561269f57600d9260ff845460c81c16613ed25760ff166004811015613ee45780613d445750803b156115f4576040516340c10f1960e01b81523360048201526024810183905290859081908390604490829084905af19182613d30575b5050613d2457506001613c0561458d565b6308c379a014613ca9575b613c1e575b50506001805580f35b613c2661461c565b50604051600080516020615eb0833981519152339180613c6b8160609060208152601060208201526f131bddcb5b195d995b081c995d995c9d60821b60408201520190565b0390a2805460ff60d01b1916600160d01b179055805460ff60a81b1916600560a81b179055600080516020615ed08339815191528180a13880613c15565b613cb16145ab565b80613cbd575b50613c10565b90508390600080516020615eb08339815191526040516020815280613ce733946020830190614084565b0390a2815460ff60d01b1916600160d01b178255825460ff60a81b1916600560a81b178355600080516020615ed08339815191528480a138613cb7565b9050611a659150615e02565b613d39906141bb565b6115f4578438613bf4565b600103613ed25784600f5491836010540290803b156106ea57604051630ab714fb60e11b8152336004820152602481019490945260448401919091528290606490829084905af19081613ebf575b50613d2457506001613da261458d565b6308c379a014613e44575b613db9575b50506118fd565b613dc161461c565b50604051600080516020615eb0833981519152339180613e068160609060208152601060208201526f131bddcb5b195d995b081c995d995c9d60821b60408201520190565b0390a2805460ff60d01b1916600160d01b179055805460ff60a81b1916600560a81b179055600080516020615ed08339815191528180a13880613db2565b613e4c6145ab565b80613e58575b50613dad565b90508390600080516020615eb08339815191526040516020815280613e8233946020830190614084565b0390a2815460ff60d01b1916600160d01b178255825460ff60a81b1916600560a81b178355600080516020615ed08339815191528480a138613e52565b613ecb909591956141bb565b9338613d92565b604051631558dc5f60e31b8152600490fd5b634e487b7160e01b86526021600452602486fd5b50346105005780600319360112610500576020600754604051908152f35b5034610500578060031936011261050057602060ff600d5460a01c166040519015158152f35b50346105005780600319360112610500576020600f54604051908152f35b50346105005780600319360112610500576020602854604051908152f35b50346105005780600319360112610500576020601754604051908152f35b5034610500578060031936011261050057613fc6613fb2614287565b604051918291602083526020830190614084565b0390f35b50346105005780600319360112610500576020602d54604051908152f35b50346105005780600319360112610500576020602954604051908152f35b50346105005780600319360112610500576008546040516001600160a01b039091168152602090f35b9050346106075760203660031901126106075760043563ffffffff60e01b81168091036106ea5760209250630a85bd0160e11b8114908115614073575b5015158152f35b630271189760e51b1490503861406c565b919082519283825260005b8481106140b0575050826000602080949584010152601f8019910116010190565b60208183018101518483018201520161408f565b600435906001600160a01b03821682036113a357565b602435906001600160a01b03821682036113a357565b35906001600160a01b03821682036113a357565b9181601f840112156113a3578235916001600160401b0383116113a357602083818601950101116113a357565b90600482101561413e5752565b634e487b7160e01b600052602160045260246000fd5b9181601f840112156113a3578235916001600160401b0383116113a3576020808501948460051b0101116113a357565b6025548110156136c35760256000527f401968ff42a154441da5f6c4c935ac46b8671f0e062baaa62a7545ba53bb6e4c0190600090565b6001600160401b0381116115f857604052565b602081019081106001600160401b038211176115f857604052565b606081019081106001600160401b038211176115f857604052565b90601f801991011681019081106001600160401b038211176115f857604052565b6001600160401b0381116115f857601f01601f191660200190565b359081151582036113a357565b90600182811c9216801561427d575b602083101461426757565b634e487b7160e01b600052602260045260246000fd5b91607f169161425c565b604051906000826009549161429b8361424d565b8083529260019081811690811561431157506001146142c4575b506142c292500383614204565b565b600960009081529150600080516020615ef08339815191525b8483106142f657506142c29350508101602001386142b5565b81935090816020925483858a010152019101909185926142dd565b9050602092506142c294915060ff191682840152151560051b820101386142b5565b6000546001600160a01b0316330361434757565b606460405162461bcd60e51b815260206004820152602060248201527f4f776e61626c653a2063616c6c6572206973206e6f7420746865206f776e65726044820152fd5b600080546001600160a01b039283166001600160a01b03198216811783559216907f8be0079c531659141344cd1fd0a4f28419497f9722a3daafe3b4186f6b6457e09080a3565b919082018092116143df57565b634e487b7160e01b600052601160045260246000fd5b51906001600160a01b03821682036113a357565b908160a09103126113a35761441d816143f5565b91602082015191604081015191606082015163ffffffff811681036113a35760809092015161ffff811681036113a35790565b818102929181159184041417156143df57565b600260015414614474576002600155565b60405162461bcd60e51b815260206004820152601f60248201527f5265656e7472616e637947756172643a207265656e7472616e742063616c6c006044820152606490fd5b156144c057565b60405162461bcd60e51b815260206004820152602860248201527f54696d657374616d702064656c61792069737375652c2074727920616761696e6044820152672073686f72746c7960c01b6064820152608490fd5b1561451d57565b60405162461bcd60e51b815260206004820152601960248201527f5265717565737420616c726561647920696e20666c69676874000000000000006044820152606490fd5b6001600160401b0381116115f85760051b60200190565b80518210156136c35760209160051b010190565b60009060033d1161459a57565b905060046000803e60005160e01c90565b600060443d1061460857604051600319913d83016004833e81516001600160401b03918282113d60248401111761460b57818401948551938411614613573d8501016020848701011161460b575061460892910160200190614204565b90565b949350505050565b50949350505050565b3d15614647573d9061462d82614225565b9161463b6040519384614204565b82523d6000602084013e565b606090565b600254600891600091831c6001600160a01b03163303613a4157600454036147cd57600d805460ff60e81b1916600160e81b1781558351909390156147b9576020015190303b156105005760405191631000850d60e21b83526004830152808260248183305af191826147aa575b50906147a5576001906146cb61458d565b6308c379a01461472d575b506146e0575b5050565b7fbccec8509a79ecd26780c2699a3ca2503c3a3455b361b5fcda5760593edb03c961470c613fb261461c565b0390a1805460ff60a81b1916600160a91b179055805460ff60e01b19169055565b6147356145ab565b9081614742575b506146d6565b7fbcd905a8eb4cc473497e2cd24cf41334ea7fad80c354380f8fff04a025b1e5f891925061477f9092604051918291602083526020830190614084565b0390a1815460ff60a81b1916600160a91b178255825460ff60e01b19168355388061473c565b505050565b6147b3906141bb565b386146ba565b634e487b7160e01b82526032600452602482fd5b50805460ff60a81b1916600160a91b17905550565b81156147ec570490565b634e487b7160e01b600052601260045260246000fd5b908160209103126113a3575180151581036113a35790565b60ff600d5460c81c1615613ed257614830615b9d565b50601154600e54600a546001600160a01b03600883901c81169493919260ff169116806149755750600491828210156149605760038214614906575083156148f6576148e757600f54833b156113a357604080516323b872dd60e01b815230938101938452336020850152908301919091529260009184919082908490829060600103925af19182156148db576142c2926148cc575b50615e02565b6148d5906141bb565b386148c6565b6040513d6000823e3d90fd5b604051631558dc5f60e31b8152fd5b5060405163424ca23960e01b8152fd5b83945061491991506013939293546147e2565b02801561495057600080808093335af161493161461c565b501561494157506142c290615e02565b60405163880a149160e01b8152fd5b50604051630193f71f60e51b8152fd5b602183634e487b7160e01b6000525260246000fd5b9293505061498683916012546147e2565b02908115614a065760405163a9059cbb60e01b81523360048201526024810192909252602090829060449082906000905af19081156148db576000916149e8575b50156149d6576142c290615e02565b60405163880a149160e01b8152600490fd5b614a00915060203d8111610762576107548183614204565b386149c7565b604051630193f71f60e51b8152600490fd5b919082039182116143df57565b600d5460ff90818160d01c16614c4a5760085490828260a81c1691600883101561413e5760078314614be65760a01c831680614bda575b80614bce575b80614bc3575b614b225760a81c8216159081614b03575b50614a85575050600090565b60009160018060a01b031682526027602052604082205415159081614aef575b50614aad5790565b6027602052614ac3604082205460055490614450565b611f4090818102918183041490151715611c4e57612710900480601c541015614aea575090565b905090565b905060216020526040822054161538614aa5565b6004811491508115614b17575b5038614a79565b600691501438614b10565b5050509060009160018060a01b0316825260276020526040822054601e6020526040832054602260205260408420549181811180614bb1575b614b6457505050565b614b729291611ae191614a18565b6005546018549061271091820394828611614b9d57506146089394614b9691614450565b0490614450565b634e487b7160e01b81526011600452602490fd5b50614bbc8282614a18565b8310614b5b565b50601b541515614a68565b50828160b81c16614a62565b50828160a81c16614a5c565b506001600160a01b03909316600090815260276020526040902054905080614c11575b505050600090565b600554614c1d91614450565b9160a81c16614c3a5780601c54101561460857505b388080614c09565b80601a5410156146085750614c32565b908060085460a01c169182614cb1575b505080614c90575b614c6c5750600090565b6001600160a01b031660009081526027602052604090205460055461460891614450565b506001600160a01b0381166000908152602760205260409020541515614c62565b60a81c1690503880614c5a565b91908110156136c35760051b0190565b356001600160a01b03811681036113a35790565b6008805460ff90818160a81c16908382101561413e576007918281146113a3576001811480614f0e575b15614e97575050602554600a5411156113a357614d2d6006548254906143d2565b42106113a357825460ff60a81b1916600760a81b1783557f456598f31410bd74ce9e62f22e18454c4264af94fd5752d17b3cebce37d73cdd600080a15b81835460a81c16908382101561413e57614d8491146144b9565b614d8c615a64565b614d946156ae565b80825460a01c1680614e81575b80614e57575b614daf575050565b80600d5460c81c166146dc57600e54908116600481101561413e57614e195750600e54901c6001600160a01b0316803b156113a35760008091602460405180948193636382ff5160e11b83523060048401525af180156148db57614e105750565b6142c2906141bb565b901c6001600160a01b0316803b156113a35760008091602460405180948193636382ff5160e11b83523060048401525af180156148db57614e105750565b5080600e5416600481101561413e578015908115614e76575b50614da7565b600191501438614e70565b50600e54821c6001600160a01b03161515614da1565b1580614ef7575b614ea9575b50614d6a565b614eb76006548354906143d2565b42106113a35760ff60a81b1916600760a81b1783557f456598f31410bd74ce9e62f22e18454c4264af94fd5752d17b3cebce37d73cdd600080a138614ea3565b50614f066006548354906143d2565b421015614e9e565b50614f1d6006548454906143d2565b421015614d0c565b6011546000906001600160a01b039081166106075760135461060757614f50600654600754906143d2565b4210156106075780825416331480156151c5575b15610607576008805460ff90818160a81c1683811015613ee45780159081156151ba575b50156115f457818160a01c16808091615190575b80615181575b61244457156115f457600d805460ff60d01b1916600160d01b17905560ff60a81b1916600560a81b178255614fd5615a64565b614fdd6156ae565b80825460a01c1680615172575b80615148575b615030575b50505080600080516020615ed0833981519152817f9331b2a38c658c57a39ea19b2709d928c28a12cc8fbb838d12b85148550f937d93a180a1565b80600d5460c81c1661514257600e5490811660048110156108b3576150c65750600e54901c16803b1561060757818091602460405180948193636382ff5160e11b83523060048401525af18015610769576150b2575b507f9331b2a38c658c57a39ea19b2709d928c28a12cc8fbb838d12b85148550f937d905b903880614ff5565b6150bc82916141bb565b6105005738615086565b83949392911c16803b15610607578190602460405180968193636382ff5160e11b83523060048401525af1928315615135577f9331b2a38c658c57a39ea19b2709d928c28a12cc8fbb838d12b85148550f937d9293615126575b506150aa565b61512f906141bb565b38615120565b50604051903d90823e3d90fd5b50505050565b5080600e541660048110156108b3578015908115615167575b50614ff0565b600191501438615161565b5082600e54831c161515614fea565b5082600d5460a81c1615614fa2565b5082600e541660048110156127da5780159081156151af575b50614f9c565b6001915014386151a9565b600191501438614f88565b5080600854163314614f64565b156151d957565b60405162461bcd60e51b815260206004820152602260248201527f476174696e672062616c616e636520726571756972656d656e74206e6f74206d604482015261195d60f21b6064820152608490fd5b60001981146143df5760010190565b600080546008805490926001600160a01b03928316929160a81c60ff1684811015611dff57600114615667575b83549160ff8360a81c1685811015610bd7576002811490811561565c575b50156156085761529b60ff600d5460e01c1615614516565b60255493602954946152ad8682614a18565b806152bd600a54602a5490614a18565b601e8111156156035750601e5b80602b55116155fa575b50602b549485156155e257506004929160a0917f4ff4e84912750d469e8d0e190997710c06112023943415787c2f744eb09c0da46060602d54926040998a5191825260209b8c8301528a820152a2855163ec644ddd60e01b815293849182905afa80156155d85783918490859486936155af575b50600254891c169186519061535c826141ce565b86825287519163125fa26760e31b8a840152511515602483015260248252615383826141e9565b87519260c084018481106001600160401b0382111761559b578a969594938993889361542a938d5286528386019788528b8087019a61ffff8093168c526060880163ffffffff9384809316825260808a01936001855260a08b01968752519d8e9c8d9b8c9a634d8e1c2f60e11b8c5260048c01525160248b01525160448a01525116606488015251166084860152511660a48401525160c060c484015260e4830190614084565b03925af182918161556c575b50615518575060019061544761458d565b6308c379a0146154af575b5061545c57505050565b7fab4c58d5f7fcd2f6f276017059fe707292278a4b150b6402c89eb3899a7494ec9161549961548961461c565b9251928284938452830190614084565b0390a1805460ff60a81b1916600160a91b179055565b6154b76145ab565b90816154c4575b50615452565b83518581529092507f1bc0b7451d1b26a4c7bfd7b118b2756c98249ac5f3d51e76be5f33aab54899029181906154fd9087830190614084565b0390a1835460ff60a81b1916600160a91b17845538806154be565b6004819055600d805460ff60e01b1916600160e01b179055845460ff60a81b1916600360a81b1790945550519182527ff81446731d23d202ea16cf590daf64c6087251171612b2adde6acbef4b37580291a1565b9091508481813d8311615594575b6155848183614204565b810103126106ea57519038615436565b503d61557a565b634e487b7160e01b89526041600452602489fd5b92509350506155cc915060a03d81116115e2576115d08183614204565b90949293509138615348565b84513d85823e3d90fd5b60ff60a81b1916600160aa1b17909655505050505050565b602b55386152d4565b6152ca565b60405162461bcd60e51b815260206004820152602660248201527f506f6f6c206d75737420626520696e20456e646564206f722044726177696e6760448201526520737461746560d01b6064820152608490fd5b600391501438615283565b61566f615674565b615265565b6008805460ff60a81b1916600160a91b1790557fba56b904ffec191559c3639e6019beb8a654605dbf6ba72f33361432a97c2bea600080a1565b60085460ff8160a01c1680156146dc578061595e575b6156cb5750565b6011546001600160a01b0391908216156157f657508060115416604051916370a0823160e01b83523060048401526020928381602481865afa9081156148db576000916157c9575b508061571f5750505050565b60085460405163a9059cbb60e01b815292166001600160a01b0316600483015260248201529082908290816000816044810103925af19081156148db576000916157ac575b501561577257808080615142565b6064906040519062461bcd60e51b825260048201526013602482015272151bdad95b881c99599d5b990819985a5b1959606a1b6044820152fd5b6157c39150823d8411610762576107548183614204565b38615764565b908482813d83116157ef575b6157df8183614204565b8101031261050057505138615713565b503d6157d5565b600e5460ff8116600481101561413e57600381036158745750505047908161581c575050565b60008080938193600854165af161583161461c565b501561583957565b60405162461bcd60e51b8152602060048201526013602482015272141c9a5e99481c99599d5b990819985a5b1959606a1b6044820152606490fd5b1561587e57505050565b829060081c16600f54906040516331a9108f60e11b8152826004820152602081602481855afa9081156148db57600091615925575b50841630146158c25750505050565b803b156113a3576040516323b872dd60e01b8152306004820152939092166001600160a01b03166024840152604483015260009082908183816064810103925af180156148db57615916575b808080615142565b61591f906141bb565b3861590e565b906020823d8211615956575b8161593e60209383614204565b810103126105005750615950906143f5565b386158b3565b3d9150615931565b5060ff600d5460c81c166156c4565b1561597457565b60405162461bcd60e51b815260206004820152601860248201527f4e6f20737562736372697074696f6e2061737369676e656400000000000000006044820152606490fd5b600060018060a01b038154166003546159d381151561596d565b813b156106ea57604051633d40f28f60e01b81523060048201526024810191909152919081908390818381604481015b03925af1908115612e145750614e105750565b600060018060a01b03815416600354615a3081151561596d565b813b156106ea5760405163032a136160e11b8152306004820152602481019190915291908190839081838160448101615a03565b600060018060a01b03815416600354615a7e81151561596d565b813b156106ea57604051630221a1c360e51b8152306004820152602481019190915291908190839081838160448101615a03565b6000805460405163524d530b60e01b815260209390916001600160a01b039085908490600490829085165afa928315611788578493615b66575b508216156106ea579082916040519085820191635e5bc1c560e11b835281602482015260248152615b1c816141e9565b51925af1615b2861461c565b5015615b315750565b6064906040519062461bcd60e51b82526004820152600e60248201526d11195c1bdcda5d0819985a5b195960921b6044820152fd5b9092508481813d8311615b96575b615b7e8183614204565b8101031261089757615b8f906143f5565b9138615aec565b503d615b74565b6000338152602091601e8352604080832054928315615df157338152601f85528181205494858503958514615de05760155485939291906001600160a01b0381169081615bf2575b5050601f90338352522055565b60ff91929394955060a01c166004811015615dcc5786949392919080615c9a57508394509060249181939451928380926370a0823160e01b82523360048301525afa9081156155d8579083929187959491615c61575b5090615c5a601f9260165411156151d2565b9038615be5565b828094959650819392503d8311615c93575b615c7d8183614204565b810103126106ea57518593929190615c5a615c48565b503d615c73565b60018103615d3557506017548451627eeac760e11b81523360048201526024810191909152939450919290918290829060449082905afa9081156155d8579083929187959491615cfc575b5090615cf7601f9260165411156151d2565b615c5a565b828094959650819392503d8311615d2e575b615d188183614204565b810103126106ea57518593929190615cf7615ce5565b503d615d0e565b600214615d46575b50601f90615c5a565b8394509060249181939451928380926370a0823160e01b82523360048301525afa9081156155d8579083929187959491615d93575b5090615d8d601f9260165411156151d2565b90615d3d565b828094959650819392503d8311615dc5575b615daf8183614204565b810103126106ea57518593929190615d8d615d7b565b503d615da5565b634e487b7160e01b84526021600452602484fd5b8251630ccaf35d60e41b8152600490fd5b81516358cd4fc160e11b8152600490fd5b6014540180601455600a5414615e1457565b6008805460ff60a81b1916600360a91b179055600054604051630425172560e31b815230600482015290602090829060249082906001600160a01b03165afa9081156148db57600091615e71575b50615e6957565b6142c26159b9565b906020823d8211615e9a575b81615e8a60209383614204565b8101031261050057505138615e62565b3d9150615e7d565b601454600a5414615e145756fe18381720d6efb26847068a65e3be979f1243520b7db6b16331969a7acdb200d5e465c22b8ec96fc194d9a0791b76171272fb36c68a84e2c807ed610cb9c7b9b16e1540171b6c0c960b71a7020d9f60077f6af931a8bbf590da0223dacf75c7afa264697066735822122032262ae6e0c8503c942f6ea135253a20ee7b3549d257ad045912d41ff39d3d9164736f6c63430008130033",
  "linkReferences": {},
  "deployedLinkReferences": {}
}