{
  "_format": "hh-sol-artifact-1",
  "contractName": "Pool",
  "sourceName": "contracts/Pool.sol",
  "abi": [
    {
      "inputs": [
        {
          "internalType": "address",
          "name": "_factory",
          "type": "address"
        }
      ],
      "stateMutability": "nonpayable",
      "type": "constructor"
    },
    {
      "inputs": [],
      "name": "ContractsCannotPurchase",
      "type": "error"
    },
    {
      "inputs": [],
      "name": "CreatorNotAllowed",
      "type": "error"
    },
    {
      "inputs": [],
      "name": "ExceedsMaxSlots",
      "type": "error"
    },
    {
      "inputs": [],
      "name": "ExceedsSlotLimit",
      "type": "error"
    },
    {
      "inputs": [],
      "name": "ExceedsWinnersCount",
      "type": "error"
    },
    {
      "inputs": [],
      "name": "IncorrectPayment",
      "type": "error"
    },
    {
      "inputs": [],
      "name": "InvalidNonPrizedPurchase",
      "type": "error"
    },
    {
      "inputs": [],
      "name": "InvalidPoolState",
      "type": "error"
    },
    {
      "inputs": [],
      "name": "InvalidPrizeAmount",
      "type": "error"
    },
    {
      "inputs": [],
      "name": "InvalidPrizeCollection",
      "type": "error"
    },
    {
      "inputs": [],
      "name": "InvalidState",
      "type": "error"
    },
    {
      "inputs": [],
      "name": "MintingNotSupported",
      "type": "error"
    },
    {
      "inputs": [],
      "name": "NoPrizesToClaim",
      "type": "error"
    },
    {
      "inputs": [],
      "name": "NotAWinner",
      "type": "error"
    },
    {
      "inputs": [],
      "name": "OnlyOperator",
      "type": "error"
    },
    {
      "inputs": [],
      "name": "PoolDurationElapsed",
      "type": "error"
    },
    {
      "inputs": [],
      "name": "PoolNotActive",
      "type": "error"
    },
    {
      "inputs": [],
      "name": "PrizeTransferFailed",
      "type": "error"
    },
    {
      "inputs": [],
      "name": "ProtocolAdminNotAllowed",
      "type": "error"
    },
    {
      "inputs": [],
      "name": "SocialEngagementNotConfigured",
      "type": "error"
    },
    {
      "inputs": [],
      "name": "TimestampDelayIssue",
      "type": "error"
    },
    {
      "inputs": [],
      "name": "UnauthorizedCaller",
      "type": "error"
    },
    {
      "inputs": [],
      "name": "ZeroAddress",
      "type": "error"
    },
    {
      "inputs": [],
      "name": "ZeroQuantity",
      "type": "error"
    },
    {
      "inputs": [],
      "name": "ZeroSlotFee",
      "type": "error"
    },
    {
      "anonymous": false,
      "inputs": [
        {
          "indexed": false,
          "internalType": "string",
          "name": "reason",
          "type": "string"
        }
      ],
      "name": "BatchProcessingFailed",
      "type": "event"
    },
    {
      "anonymous": false,
      "inputs": [
        {
          "indexed": false,
          "internalType": "bytes",
          "name": "lowLevelData",
          "type": "bytes"
        }
      ],
      "name": "BatchProcessingFailedBytes",
      "type": "event"
    },
    {
      "anonymous": false,
      "inputs": [],
      "name": "FullRefundEnabledForDeletion",
      "type": "event"
    },
    {
      "anonymous": false,
      "inputs": [
        {
          "indexed": true,
          "internalType": "address",
          "name": "participant",
          "type": "address"
        },
        {
          "indexed": false,
          "internalType": "uint256",
          "name": "amount",
          "type": "uint256"
        }
      ],
      "name": "FullRefundForDeletion",
      "type": "event"
    },
    {
      "anonymous": false,
      "inputs": [
        {
          "indexed": true,
          "internalType": "address",
          "name": "previousOwner",
          "type": "address"
        },
        {
          "indexed": true,
          "internalType": "address",
          "name": "newOwner",
          "type": "address"
        }
      ],
      "name": "OwnershipTransferred",
      "type": "event"
    },
    {
      "anonymous": false,
      "inputs": [
        {
          "indexed": false,
          "internalType": "address",
          "name": "account",
          "type": "address"
        }
      ],
      "name": "Paused",
      "type": "event"
    },
    {
      "anonymous": false,
      "inputs": [],
      "name": "PoolActivated",
      "type": "event"
    },
    {
      "anonymous": false,
      "inputs": [],
      "name": "PoolDeleted",
      "type": "event"
    },
    {
      "anonymous": false,
      "inputs": [],
      "name": "PoolEnded",
      "type": "event"
    },
    {
      "anonymous": false,
      "inputs": [],
      "name": "PoolUnengaged",
      "type": "event"
    },
    {
      "anonymous": false,
      "inputs": [
        {
          "indexed": true,
          "internalType": "address",
          "name": "winner",
          "type": "address"
        },
        {
          "indexed": false,
          "internalType": "uint256",
          "name": "tokenId",
          "type": "uint256"
        }
      ],
      "name": "PrizeClaimed",
      "type": "event"
    },
    {
      "anonymous": false,
      "inputs": [
        {
          "indexed": false,
          "internalType": "uint256",
          "name": "requestId",
          "type": "uint256"
        }
      ],
      "name": "RandomRequested",
      "type": "event"
    },
    {
      "anonymous": false,
      "inputs": [
        {
          "indexed": true,
          "internalType": "address",
          "name": "participant",
          "type": "address"
        },
        {
          "indexed": false,
          "internalType": "uint256",
          "name": "amount",
          "type": "uint256"
        }
      ],
      "name": "RefundClaimed",
      "type": "event"
    },
    {
      "anonymous": false,
      "inputs": [
        {
          "indexed": true,
          "internalType": "address",
          "name": "recipient",
          "type": "address"
        },
        {
          "indexed": false,
          "internalType": "uint256",
          "name": "amount",
          "type": "uint256"
        }
      ],
      "name": "RevenueWithdrawn",
      "type": "event"
    },
    {
      "anonymous": false,
      "inputs": [
        {
          "indexed": true,
          "internalType": "uint256",
          "name": "batchNumber",
          "type": "uint256"
        },
        {
          "indexed": false,
          "internalType": "uint256",
          "name": "participantCount",
          "type": "uint256"
        },
        {
          "indexed": false,
          "internalType": "uint256",
          "name": "shuffleStartIndex",
          "type": "uint256"
        },
        {
          "indexed": false,
          "internalType": "uint256",
          "name": "batchSize",
          "type": "uint256"
        }
      ],
      "name": "SelectionStarted",
      "type": "event"
    },
    {
      "anonymous": false,
      "inputs": [
        {
          "indexed": true,
          "internalType": "address",
          "name": "participant",
          "type": "address"
        },
        {
          "indexed": false,
          "internalType": "uint256",
          "name": "quantity",
          "type": "uint256"
        }
      ],
      "name": "SlotsPurchased",
      "type": "event"
    },
    {
      "anonymous": false,
      "inputs": [
        {
          "indexed": false,
          "internalType": "address",
          "name": "account",
          "type": "address"
        }
      ],
      "name": "Unpaused",
      "type": "event"
    },
    {
      "anonymous": false,
      "inputs": [
        {
          "indexed": false,
          "internalType": "string",
          "name": "reason",
          "type": "string"
        }
      ],
      "name": "VRFRequestFailed",
      "type": "event"
    },
    {
      "anonymous": false,
      "inputs": [
        {
          "indexed": false,
          "internalType": "bytes",
          "name": "lowLevelData",
          "type": "bytes"
        }
      ],
      "name": "VRFRequestFailedBytes",
      "type": "event"
    },
    {
      "anonymous": false,
      "inputs": [
        {
          "indexed": false,
          "internalType": "address[]",
          "name": "winners",
          "type": "address[]"
        }
      ],
      "name": "WinnersSelected",
      "type": "event"
    },
    {
      "inputs": [
        {
          "internalType": "uint256",
          "name": "batchRandomSeed",
          "type": "uint256"
        }
      ],
      "name": "_processBatchWithRandomness",
      "outputs": [],
      "stateMutability": "nonpayable",
      "type": "function"
    },
    {
      "inputs": [],
      "name": "amountPerWinner",
      "outputs": [
        {
          "internalType": "uint256",
          "name": "",
          "type": "uint256"
        }
      ],
      "stateMutability": "view",
      "type": "function"
    },
    {
      "inputs": [],
      "name": "batchCount",
      "outputs": [
        {
          "internalType": "uint256",
          "name": "",
          "type": "uint256"
        }
      ],
      "stateMutability": "view",
      "type": "function"
    },
    {
      "inputs": [
        {
          "internalType": "uint256",
          "name": "",
          "type": "uint256"
        }
      ],
      "name": "batchRandomSeeds",
      "outputs": [
        {
          "internalType": "uint256",
          "name": "",
          "type": "uint256"
        }
      ],
      "stateMutability": "view",
      "type": "function"
    },
    {
      "inputs": [],
      "name": "claimPrize",
      "outputs": [],
      "stateMutability": "nonpayable",
      "type": "function"
    },
    {
      "inputs": [],
      "name": "claimRefund",
      "outputs": [],
      "stateMutability": "nonpayable",
      "type": "function"
    },
    {
      "inputs": [
        {
          "internalType": "address",
          "name": "",
          "type": "address"
        }
      ],
      "name": "claimedWins",
      "outputs": [
        {
          "internalType": "uint256",
          "name": "",
          "type": "uint256"
        }
      ],
      "stateMutability": "view",
      "type": "function"
    },
    {
      "inputs": [],
      "name": "closePool",
      "outputs": [],
      "stateMutability": "nonpayable",
      "type": "function"
    },
    {
      "inputs": [],
      "name": "creationFeePercentage",
      "outputs": [
        {
          "internalType": "uint256",
          "name": "",
          "type": "uint256"
        }
      ],
      "stateMutability": "view",
      "type": "function"
    },
    {
      "inputs": [],
      "name": "creator",
      "outputs": [
        {
          "internalType": "address",
          "name": "",
          "type": "address"
        }
      ],
      "stateMutability": "view",
      "type": "function"
    },
    {
      "inputs": [],
      "name": "currentBatchSize",
      "outputs": [
        {
          "internalType": "uint256",
          "name": "",
          "type": "uint256"
        }
      ],
      "stateMutability": "view",
      "type": "function"
    },
    {
      "inputs": [],
      "name": "deletePool",
      "outputs": [],
      "stateMutability": "nonpayable",
      "type": "function"
    },
    {
      "inputs": [],
      "name": "duration",
      "outputs": [
        {
          "internalType": "uint256",
          "name": "",
          "type": "uint256"
        }
      ],
      "stateMutability": "view",
      "type": "function"
    },
    {
      "inputs": [],
      "name": "endTime",
      "outputs": [
        {
          "internalType": "uint256",
          "name": "",
          "type": "uint256"
        }
      ],
      "stateMutability": "view",
      "type": "function"
    },
    {
      "inputs": [],
      "name": "erc20PrizeAmount",
      "outputs": [
        {
          "internalType": "uint256",
          "name": "",
          "type": "uint256"
        }
      ],
      "stateMutability": "view",
      "type": "function"
    },
    {
      "inputs": [],
      "name": "erc20PrizeToken",
      "outputs": [
        {
          "internalType": "address",
          "name": "",
          "type": "address"
        }
      ],
      "stateMutability": "view",
      "type": "function"
    },
    {
      "inputs": [],
      "name": "erc721EscrowClaimed",
      "outputs": [
        {
          "internalType": "bool",
          "name": "",
          "type": "bool"
        }
      ],
      "stateMutability": "view",
      "type": "function"
    },
    {
      "inputs": [],
      "name": "getParticipantsCount",
      "outputs": [
        {
          "internalType": "uint256",
          "name": "",
          "type": "uint256"
        }
      ],
      "stateMutability": "view",
      "type": "function"
    },
    {
      "inputs": [
        {
          "internalType": "address",
          "name": "participant",
          "type": "address"
        }
      ],
      "name": "getRefundableAmount",
      "outputs": [
        {
          "internalType": "uint256",
          "name": "",
          "type": "uint256"
        }
      ],
      "stateMutability": "view",
      "type": "function"
    },
    {
      "inputs": [],
      "name": "getSlotLimit",
      "outputs": [
        {
          "internalType": "uint256",
          "name": "",
          "type": "uint256"
        }
      ],
      "stateMutability": "view",
      "type": "function"
    },
    {
      "inputs": [
        {
          "internalType": "address",
          "name": "participant",
          "type": "address"
        }
      ],
      "name": "getSlotsPurchased",
      "outputs": [
        {
          "internalType": "uint256",
          "name": "",
          "type": "uint256"
        }
      ],
      "stateMutability": "view",
      "type": "function"
    },
    {
      "inputs": [
        {
          "internalType": "address",
          "name": "",
          "type": "address"
        }
      ],
      "name": "hasClaimedFeeRefund",
      "outputs": [
        {
          "internalType": "bool",
          "name": "",
          "type": "bool"
        }
      ],
      "stateMutability": "view",
      "type": "function"
    },
    {
      "inputs": [
        {
          "internalType": "address",
          "name": "",
          "type": "address"
        }
      ],
      "name": "hasCompletedSocialEngagement",
      "outputs": [
        {
          "internalType": "bool",
          "name": "",
          "type": "bool"
        }
      ],
      "stateMutability": "view",
      "type": "function"
    },
    {
      "inputs": [],
      "name": "holderTokenAddress",
      "outputs": [
        {
          "internalType": "address",
          "name": "",
          "type": "address"
        }
      ],
      "stateMutability": "view",
      "type": "function"
    },
    {
      "inputs": [],
      "name": "holderTokenId",
      "outputs": [
        {
          "internalType": "uint256",
          "name": "",
          "type": "uint256"
        }
      ],
      "stateMutability": "view",
      "type": "function"
    },
    {
      "inputs": [],
      "name": "holderTokenStandard",
      "outputs": [
        {
          "internalType": "enum PrizeTypes.Standard",
          "name": "",
          "type": "uint8"
        }
      ],
      "stateMutability": "view",
      "type": "function"
    },
    {
      "inputs": [],
      "name": "i_vrfCoordinator",
      "outputs": [
        {
          "internalType": "contract VRFCoordinatorV2PlusInterface",
          "name": "",
          "type": "address"
        }
      ],
      "stateMutability": "view",
      "type": "function"
    },
    {
      "inputs": [
        {
          "internalType": "address",
          "name": "_manager",
          "type": "address"
        },
        {
          "internalType": "string",
          "name": "_name",
          "type": "string"
        },
        {
          "internalType": "bool",
          "name": "_isPrized",
          "type": "bool"
        },
        {
          "internalType": "uint256",
          "name": "_startTime",
          "type": "uint256"
        },
        {
          "internalType": "uint256",
          "name": "_duration",
          "type": "uint256"
        },
        {
          "internalType": "uint256",
          "name": "_winnersCount",
          "type": "uint256"
        },
        {
          "internalType": "bool",
          "name": "_isEscrowedPrize",
          "type": "bool"
        },
        {
          "internalType": "address",
          "name": "_prizeCollection",
          "type": "address"
        },
        {
          "internalType": "address",
          "name": "_creator",
          "type": "address"
        },
        {
          "internalType": "uint256",
          "name": "_slotLimit",
          "type": "uint256"
        },
        {
          "internalType": "uint256",
          "name": "_slotFee",
          "type": "uint256"
        },
        {
          "internalType": "uint256",
          "name": "_maxSlotsPerParticipant",
          "type": "uint256"
        },
        {
          "internalType": "enum PrizeTypes.Standard",
          "name": "_standard",
          "type": "uint8"
        },
        {
          "internalType": "uint256",
          "name": "_prizeTokenId",
          "type": "uint256"
        },
        {
          "internalType": "uint256",
          "name": "_amountPerWinner",
          "type": "uint256"
        },
        {
          "internalType": "address",
          "name": "_erc20PrizeToken",
          "type": "address"
        },
        {
          "internalType": "uint256",
          "name": "_erc20PrizeAmount",
          "type": "uint256"
        },
        {
          "internalType": "uint256",
          "name": "_nativePrizeAmount",
          "type": "uint256"
        },
        {
          "internalType": "bool",
          "name": "_usesCustomFee",
          "type": "bool"
        },
        {
          "internalType": "address",
          "name": "_holderTokenAddress",
          "type": "address"
        },
        {
          "internalType": "enum PrizeTypes.Standard",
          "name": "_holderTokenStandard",
          "type": "uint8"
        },
        {
          "internalType": "uint256",
          "name": "_minHolderTokenBalance",
          "type": "uint256"
        },
        {
          "internalType": "uint256",
          "name": "_holderTokenId",
          "type": "uint256"
        },
        {
          "internalType": "address",
          "name": "_revenueRecipient",
          "type": "address"
        },
        {
          "internalType": "bool",
          "name": "_socialEngagementRequired",
          "type": "bool"
        },
        {
          "internalType": "bool",
          "name": "_isCollabPool",
          "type": "bool"
        }
      ],
      "name": "initialize",
      "outputs": [],
      "stateMutability": "payable",
      "type": "function"
    },
    {
      "inputs": [],
      "name": "isCollabPool",
      "outputs": [
        {
          "internalType": "bool",
          "name": "",
          "type": "bool"
        }
      ],
      "stateMutability": "view",
      "type": "function"
    },
    {
      "inputs": [],
      "name": "isEscrowedPrize",
      "outputs": [
        {
          "internalType": "bool",
          "name": "",
          "type": "bool"
        }
      ],
      "stateMutability": "view",
      "type": "function"
    },
    {
      "inputs": [],
      "name": "isPrized",
      "outputs": [
        {
          "internalType": "bool",
          "name": "",
          "type": "bool"
        }
      ],
      "stateMutability": "view",
      "type": "function"
    },
    {
      "inputs": [],
      "name": "isRefundable",
      "outputs": [
        {
          "internalType": "bool",
          "name": "",
          "type": "bool"
        }
      ],
      "stateMutability": "view",
      "type": "function"
    },
    {
      "inputs": [],
      "name": "maxSlotsPerParticipant",
      "outputs": [
        {
          "internalType": "uint256",
          "name": "",
          "type": "uint256"
        }
      ],
      "stateMutability": "view",
      "type": "function"
    },
    {
      "inputs": [],
      "name": "minHolderTokenBalance",
      "outputs": [
        {
          "internalType": "uint256",
          "name": "",
          "type": "uint256"
        }
      ],
      "stateMutability": "view",
      "type": "function"
    },
    {
      "inputs": [],
      "name": "name",
      "outputs": [
        {
          "internalType": "string",
          "name": "",
          "type": "string"
        }
      ],
      "stateMutability": "view",
      "type": "function"
    },
    {
      "inputs": [],
      "name": "nativePrizeAmount",
      "outputs": [
        {
          "internalType": "uint256",
          "name": "",
          "type": "uint256"
        }
      ],
      "stateMutability": "view",
      "type": "function"
    },
    {
      "inputs": [
        {
          "internalType": "address",
          "name": "",
          "type": "address"
        },
        {
          "internalType": "address",
          "name": "",
          "type": "address"
        },
        {
          "internalType": "uint256[]",
          "name": "",
          "type": "uint256[]"
        },
        {
          "internalType": "uint256[]",
          "name": "",
          "type": "uint256[]"
        },
        {
          "internalType": "bytes",
          "name": "",
          "type": "bytes"
        }
      ],
      "name": "onERC1155BatchReceived",
      "outputs": [
        {
          "internalType": "bytes4",
          "name": "",
          "type": "bytes4"
        }
      ],
      "stateMutability": "pure",
      "type": "function"
    },
    {
      "inputs": [
        {
          "internalType": "address",
          "name": "",
          "type": "address"
        },
        {
          "internalType": "address",
          "name": "",
          "type": "address"
        },
        {
          "internalType": "uint256",
          "name": "",
          "type": "uint256"
        },
        {
          "internalType": "uint256",
          "name": "",
          "type": "uint256"
        },
        {
          "internalType": "bytes",
          "name": "",
          "type": "bytes"
        }
      ],
      "name": "onERC1155Received",
      "outputs": [
        {
          "internalType": "bytes4",
          "name": "",
          "type": "bytes4"
        }
      ],
      "stateMutability": "pure",
      "type": "function"
    },
    {
      "inputs": [
        {
          "internalType": "address",
          "name": "",
          "type": "address"
        },
        {
          "internalType": "address",
          "name": "",
          "type": "address"
        },
        {
          "internalType": "uint256",
          "name": "",
          "type": "uint256"
        },
        {
          "internalType": "bytes",
          "name": "",
          "type": "bytes"
        }
      ],
      "name": "onERC721Received",
      "outputs": [
        {
          "internalType": "bytes4",
          "name": "",
          "type": "bytes4"
        }
      ],
      "stateMutability": "pure",
      "type": "function"
    },
    {
      "inputs": [],
      "name": "owner",
      "outputs": [
        {
          "internalType": "address",
          "name": "",
          "type": "address"
        }
      ],
      "stateMutability": "view",
      "type": "function"
    },
    {
      "inputs": [
        {
          "internalType": "uint256",
          "name": "",
          "type": "uint256"
        }
      ],
      "name": "participants",
      "outputs": [
        {
          "internalType": "address",
          "name": "",
          "type": "address"
        }
      ],
      "stateMutability": "view",
      "type": "function"
    },
    {
      "inputs": [],
      "name": "paused",
      "outputs": [
        {
          "internalType": "bool",
          "name": "",
          "type": "bool"
        }
      ],
      "stateMutability": "view",
      "type": "function"
    },
    {
      "inputs": [],
      "name": "pendingProtocolFee",
      "outputs": [
        {
          "internalType": "uint256",
          "name": "",
          "type": "uint256"
        }
      ],
      "stateMutability": "view",
      "type": "function"
    },
    {
      "inputs": [
        {
          "internalType": "address",
          "name": "participant",
          "type": "address"
        }
      ],
      "name": "prizeClaimed",
      "outputs": [
        {
          "internalType": "uint256",
          "name": "",
          "type": "uint256"
        }
      ],
      "stateMutability": "view",
      "type": "function"
    },
    {
      "inputs": [],
      "name": "prizeCollection",
      "outputs": [
        {
          "internalType": "address",
          "name": "",
          "type": "address"
        }
      ],
      "stateMutability": "view",
      "type": "function"
    },
    {
      "inputs": [],
      "name": "prizeTokenId",
      "outputs": [
        {
          "internalType": "uint256",
          "name": "",
          "type": "uint256"
        }
      ],
      "stateMutability": "view",
      "type": "function"
    },
    {
      "inputs": [],
      "name": "prizesClaimedCount",
      "outputs": [
        {
          "internalType": "uint256",
          "name": "",
          "type": "uint256"
        }
      ],
      "stateMutability": "view",
      "type": "function"
    },
    {
      "inputs": [],
      "name": "protocolFeePercentage",
      "outputs": [
        {
          "internalType": "uint256",
          "name": "",
          "type": "uint256"
        }
      ],
      "stateMutability": "view",
      "type": "function"
    },
    {
      "inputs": [],
      "name": "protocolFeeTaken",
      "outputs": [
        {
          "internalType": "bool",
          "name": "",
          "type": "bool"
        }
      ],
      "stateMutability": "view",
      "type": "function"
    },
    {
      "inputs": [
        {
          "internalType": "uint256",
          "name": "quantity",
          "type": "uint256"
        },
        {
          "internalType": "uint256",
          "name": "_nonce",
          "type": "uint256"
        },
        {
          "internalType": "uint256",
          "name": "_deadline",
          "type": "uint256"
        },
        {
          "internalType": "bytes",
          "name": "_signature",
          "type": "bytes"
        },
        {
          "internalType": "uint256[]",
          "name": "_tokenIds",
          "type": "uint256[]"
        }
      ],
      "name": "purchaseSlots",
      "outputs": [],
      "stateMutability": "payable",
      "type": "function"
    },
    {
      "inputs": [],
      "name": "randomRequested",
      "outputs": [
        {
          "internalType": "bool",
          "name": "",
          "type": "bool"
        }
      ],
      "stateMutability": "view",
      "type": "function"
    },
    {
      "inputs": [],
      "name": "randomSeed",
      "outputs": [
        {
          "internalType": "uint256",
          "name": "",
          "type": "uint256"
        }
      ],
      "stateMutability": "view",
      "type": "function"
    },
    {
      "inputs": [],
      "name": "randomnessUsed",
      "outputs": [
        {
          "internalType": "bool",
          "name": "",
          "type": "bool"
        }
      ],
      "stateMutability": "view",
      "type": "function"
    },
    {
      "inputs": [
        {
          "internalType": "uint256",
          "name": "requestId",
          "type": "uint256"
        },
        {
          "internalType": "uint256[]",
          "name": "randomWords",
          "type": "uint256[]"
        }
      ],
      "name": "rawFulfillRandomWords",
      "outputs": [],
      "stateMutability": "nonpayable",
      "type": "function"
    },
    {
      "inputs": [
        {
          "internalType": "address",
          "name": "",
          "type": "address"
        }
      ],
      "name": "refundableAmount",
      "outputs": [
        {
          "internalType": "uint256",
          "name": "",
          "type": "uint256"
        }
      ],
      "stateMutability": "view",
      "type": "function"
    },
    {
      "inputs": [
        {
          "internalType": "address",
          "name": "",
          "type": "address"
        }
      ],
      "name": "refundedNonWinningSlots",
      "outputs": [
        {
          "internalType": "uint256",
          "name": "",
          "type": "uint256"
        }
      ],
      "stateMutability": "view",
      "type": "function"
    },
    {
      "inputs": [],
      "name": "removeFromVRFSubscription",
      "outputs": [],
      "stateMutability": "nonpayable",
      "type": "function"
    },
    {
      "inputs": [],
      "name": "renounceOwnership",
      "outputs": [],
      "stateMutability": "nonpayable",
      "type": "function"
    },
    {
      "inputs": [],
      "name": "requestRandomness",
      "outputs": [],
      "stateMutability": "nonpayable",
      "type": "function"
    },
    {
      "inputs": [],
      "name": "revenueRecipient",
      "outputs": [
        {
          "internalType": "address",
          "name": "",
          "type": "address"
        }
      ],
      "stateMutability": "view",
      "type": "function"
    },
    {
      "inputs": [],
      "name": "s_vrf_callbackGasLimit",
      "outputs": [
        {
          "internalType": "uint32",
          "name": "",
          "type": "uint32"
        }
      ],
      "stateMutability": "view",
      "type": "function"
    },
    {
      "inputs": [],
      "name": "s_vrf_keyHash",
      "outputs": [
        {
          "internalType": "bytes32",
          "name": "",
          "type": "bytes32"
        }
      ],
      "stateMutability": "view",
      "type": "function"
    },
    {
      "inputs": [],
      "name": "s_vrf_lastRequestId",
      "outputs": [
        {
          "internalType": "uint256",
          "name": "",
          "type": "uint256"
        }
      ],
      "stateMutability": "view",
      "type": "function"
    },
    {
      "inputs": [],
      "name": "s_vrf_requestConfirmations",
      "outputs": [
        {
          "internalType": "uint16",
          "name": "",
          "type": "uint16"
        }
      ],
      "stateMutability": "view",
      "type": "function"
    },
    {
      "inputs": [],
      "name": "s_vrf_subscriptionId",
      "outputs": [
        {
          "internalType": "uint256",
          "name": "",
          "type": "uint256"
        }
      ],
      "stateMutability": "view",
      "type": "function"
    },
    {
      "inputs": [],
      "name": "shuffleStartIndex",
      "outputs": [
        {
          "internalType": "uint256",
          "name": "",
          "type": "uint256"
        }
      ],
      "stateMutability": "view",
      "type": "function"
    },
    {
      "inputs": [],
      "name": "slotFee",
      "outputs": [
        {
          "internalType": "uint256",
          "name": "",
          "type": "uint256"
        }
      ],
      "stateMutability": "view",
      "type": "function"
    },
    {
      "inputs": [],
      "name": "slotLimit",
      "outputs": [
        {
          "internalType": "uint256",
          "name": "",
          "type": "uint256"
        }
      ],
      "stateMutability": "view",
      "type": "function"
    },
    {
      "inputs": [
        {
          "internalType": "address",
          "name": "",
          "type": "address"
        }
      ],
      "name": "slotsPurchased",
      "outputs": [
        {
          "internalType": "uint256",
          "name": "",
          "type": "uint256"
        }
      ],
      "stateMutability": "view",
      "type": "function"
    },
    {
      "inputs": [],
      "name": "socialEngagementRequired",
      "outputs": [
        {
          "internalType": "bool",
          "name": "",
          "type": "bool"
        }
      ],
      "stateMutability": "view",
      "type": "function"
    },
    {
      "inputs": [],
      "name": "standard",
      "outputs": [
        {
          "internalType": "enum PrizeTypes.Standard",
          "name": "",
          "type": "uint8"
        }
      ],
      "stateMutability": "view",
      "type": "function"
    },
    {
      "inputs": [],
      "name": "startTime",
      "outputs": [
        {
          "internalType": "uint256",
          "name": "",
          "type": "uint256"
        }
      ],
      "stateMutability": "view",
      "type": "function"
    },
    {
      "inputs": [],
      "name": "state",
      "outputs": [
        {
          "internalType": "enum IPool.PoolState",
          "name": "",
          "type": "uint8"
        }
      ],
      "stateMutability": "view",
      "type": "function"
    },
    {
      "inputs": [
        {
          "internalType": "bytes4",
          "name": "interfaceId",
          "type": "bytes4"
        }
      ],
      "name": "supportsInterface",
      "outputs": [
        {
          "internalType": "bool",
          "name": "",
          "type": "bool"
        }
      ],
      "stateMutability": "view",
      "type": "function"
    },
    {
      "inputs": [
        {
          "internalType": "uint256",
          "name": "",
          "type": "uint256"
        }
      ],
      "name": "tokenIdClaimedBy",
      "outputs": [
        {
          "internalType": "address",
          "name": "",
          "type": "address"
        }
      ],
      "stateMutability": "view",
      "type": "function"
    },
    {
      "inputs": [],
      "name": "totalCreatorRevenue",
      "outputs": [
        {
          "internalType": "uint256",
          "name": "",
          "type": "uint256"
        }
      ],
      "stateMutability": "view",
      "type": "function"
    },
    {
      "inputs": [],
      "name": "totalGlobalFeeRevenue",
      "outputs": [
        {
          "internalType": "uint256",
          "name": "",
          "type": "uint256"
        }
      ],
      "stateMutability": "view",
      "type": "function"
    },
    {
      "inputs": [],
      "name": "totalRefundableAmount",
      "outputs": [
        {
          "internalType": "uint256",
          "name": "",
          "type": "uint256"
        }
      ],
      "stateMutability": "view",
      "type": "function"
    },
    {
      "inputs": [
        {
          "internalType": "address",
          "name": "newOwner",
          "type": "address"
        }
      ],
      "name": "transferOwnership",
      "outputs": [],
      "stateMutability": "nonpayable",
      "type": "function"
    },
    {
      "inputs": [],
      "name": "usesCustomFee",
      "outputs": [
        {
          "internalType": "bool",
          "name": "",
          "type": "bool"
        }
      ],
      "stateMutability": "view",
      "type": "function"
    },
    {
      "inputs": [],
      "name": "wasDeletedForFullRefund",
      "outputs": [
        {
          "internalType": "bool",
          "name": "",
          "type": "bool"
        }
      ],
      "stateMutability": "view",
      "type": "function"
    },
    {
      "inputs": [
        {
          "internalType": "uint256",
          "name": "",
          "type": "uint256"
        }
      ],
      "name": "winners",
      "outputs": [
        {
          "internalType": "address",
          "name": "",
          "type": "address"
        }
      ],
      "stateMutability": "view",
      "type": "function"
    },
    {
      "inputs": [],
      "name": "winnersCount",
      "outputs": [
        {
          "internalType": "uint256",
          "name": "",
          "type": "uint256"
        }
      ],
      "stateMutability": "view",
      "type": "function"
    },
    {
      "inputs": [],
      "name": "winnersSelected",
      "outputs": [
        {
          "internalType": "uint256",
          "name": "",
          "type": "uint256"
        }
      ],
      "stateMutability": "view",
      "type": "function"
    },
    {
      "inputs": [
        {
          "internalType": "address",
          "name": "",
          "type": "address"
        }
      ],
      "name": "winsPerAddress",
      "outputs": [
        {
          "internalType": "uint256",
          "name": "",
          "type": "uint256"
        }
      ],
      "stateMutability": "view",
      "type": "function"
    },
    {
      "inputs": [],
      "name": "withdrawCreatorRevenue",
      "outputs": [],
      "stateMutability": "nonpayable",
      "type": "function"
    },
    {
      "inputs": [],
      "name": "withdrawProtocolRevenue",
      "outputs": [],
      "stateMutability": "nonpayable",
      "type": "function"
    }
  ],
  "bytecode": "0x60a034620000bb57601f6200588b38819003918201601f19168301916001600160401b03831184841017620000c057808492602094604052833981010312620000bb57516001600160a01b03908181168103620000bb576000543360018060a01b0319821617600055604051923391167f8be0079c531659141344cd1fd0a4f28419497f9722a3daafe3b4186f6b6457e0600080a36001805560ff19600254166002556080526157b49081620000d78239608051816118a40152f35b600080fd5b634e487b7160e01b600052604160045260246000fdfe608080604052600436101561001357600080fd5b600090813560e01c90816301ffc9a714613aec5750806302d05d3f14613ac35780630631c5c214613aa557806306f1305614613a8757806306fdde03146139b45780630852197414612d225780630aa00e70146139965780630b747d91146139785780630b78824b1461395a5780630e4fa158146139345780630fb5a6b414613916578063150b7a02146138bf5780631d93fa0a14612e395780631fe543e314612d5b57806325444fa414612d225780632c1fecfe14612cfc5780633197cbb614612cde578063321679fa14612cc0578063327bb1ad14612c2657806335c1d34914612be25780633b26314d14612bb957806340021434146127ce57806342b72afa146127955780634457dba41461277357806344a909861461275557806348a3a4501461272f57806349713811146127115780634e3ff460146126d25780634f7f0fc0146126935780635755248e146126755780635a3b7e421461264f5780635c975abb1461262c5780635d7dd4231461260e57806366805de5146125f5578063677375c3146125d7578063683d1936146125b4578063696917ba1461258e5780636e61a1601461256857806370740ac914612026578063715018a614611fcc578063726043231461176f578063740e21981461174357806378e9792514611725578063813e88b914611707578063837d1128146116e257806387213c35146116bc5780638778d82c14611693578063888dc19814611675578063898b36db146116575780638bc53285146116395780638bfbbcbe146116205780638d7fe478146115fa5780638da5cb5b146115d35780638e50e509146115b55780639dd62cfc146115915780639ed5c1cc14611568578063a177ec091461153b578063a2fb1175146114df578063a67d0e6c146114c1578063a9532a53146113eb578063ae4b82c1146113c2578063aebc455014611395578063af78ed0a14611377578063b0b606c014611344578063b5545a3c14610d85578063b5ad841214610bdd578063bc197c8114610b4d578063c19d93fb14610b1e578063c2e784bd14610b00578063c3fa0e3b14610ae2578063c913d4ed14610ac4578063cabfaa1814610aa6578063cc7d49ec14610a80578063d0d11ae814610a62578063d17d135914610a29578063d447e9bc1461098e578063d91043f214610a0b578063dbb832bd146109e5578063dc52834e146109c7578063dc8a55c21461098e578063e511a11b14610955578063e6f12cf714610937578063f23a6e61146108dc578063f2fde38b1461084e578063f8413b07146105be578063fb687df4146105955763fd22b17c146103de57600080fd5b3461059257806003193601126105925780546040516336b87bd760e11b815233600482015290602090829060249082906001600160a01b03165afa908115610587578291610559575b50156105475760185460ff8160581c16600881101561053357600461044c91146149a0565b819060ff8160381c1680610528575b610519575b60201c60ff16158061050e575b6104c2575b80156104845761048190615653565b80f35b60405162461bcd60e51b81526020600482015260166024820152752737903932bb32b73ab2903a37903a3930b739b332b960511b6044820152606490fd5b906028546107d0928382029382850414821517156104fa576104ed6127106104f5949504809361431a565b602855613dc1565b610472565b634e487b7160e01b83526011600452602483fd5b50602854151561046d565b602e8054908490559150610460565b50602e54151561045b565b634e487b7160e01b83526021600452602483fd5b6040516327e1f1e560e01b8152600490fd5b61057a915060203d8111610580575b6105728183613ba9565b8101906142b6565b38610427565b503d610568565b6040513d84823e3d90fd5b80fd5b5034610592578060031936011261059257600e546040516001600160a01b039091168152602090f35b5034610592578060031936011261059257600a54421015610841575b600a5442106107eb5760185460ff8160581c16600881101561053357600281149081156107e0575b50806107d3575b1561076857601954600c541161070c5781546040516336b87bd760e11b8152336004820152906001600160a01b03906020908390602490829085165afa9182156107015784926106e1575b5081156106d3575b5080156106be575b156106815760ff6106799160481c16156142ce565b6104816143e6565b60405162461bcd60e51b815260206004820152601560248201527410d85b1b195c881b9bdd08185d5d1a1bdc9a5e9959605a1b6044820152606490fd5b50338252601b60205260408220541515610664565b9050600f541633143861065c565b6106fa91925060203d8111610580576105728183613ba9565b9038610654565b6040513d86823e3d90fd5b60405162461bcd60e51b815260206004820152602e60248201527f496e73756666696369656e74207061727469636970616e747320666f7220776960448201526d373732b91039b2b632b1ba34b7b760911b6064820152608490fd5b60405162461bcd60e51b815260206004820152603a60248201527f506f6f6c206d75737420626520696e20456e6465642f44726177696e6720737460448201527f61746520776974682077696e6e6572732072656d61696e696e670000000000006064820152608490fd5b50601e54600c5411610609565b600391501438610602565b60405162461bcd60e51b815260206004820152602860248201527f54696d657374616d702064656c61792069737375652c2074727920616761696e6044820152672073686f72746c7960c01b6064820152608490fd5b610849615619565b6105da565b503461059257602036600319011261059257610868613c0a565b610870613d0e565b6001600160a01b038116156108885761048190613d66565b60405162461bcd60e51b815260206004820152602660248201527f4f776e61626c653a206e6577206f776e657220697320746865207a65726f206160448201526564647265737360d01b6064820152608490fd5b50346105925760a0366003190112610592576108f6613c0a565b506108ff613c20565b506084356001600160401b0381116109335761091f903690600401613c36565b505060405163f23a6e6160e01b8152602090f35b5080fd5b50346105925780600319360112610592576020602854604051908152f35b5034610592576020366003190112610592576020906040906001600160a01b0361097d613c0a565b168152602d83522054604051908152f35b5034610592576020366003190112610592576020906040906001600160a01b036109b6613c0a565b168152601683522054604051908152f35b50346105925780600319360112610592576020601054604051908152f35b5034610592578060031936011261059257602060ff60185460381c166040519015158152f35b50346105925780600319360112610592576020602454604051908152f35b5034610592576020366003190112610592576020906040906001600160a01b03610a51613c0a565b168152601583522054604051908152f35b50346105925780600319360112610592576020602c54604051908152f35b5034610592578060031936011261059257602060ff60185460301c166040519015158152f35b50346105925780600319360112610592576020601954604051908152f35b50346105925780600319360112610592576020600454604051908152f35b50346105925780600319360112610592576020602e54604051908152f35b50346105925780600319360112610592576020600654604051908152f35b503461059257806003193601126105925760ff60185460581c1660405190600881101561053357602092508152f35b50346105925760a036600319011261059257610b67613c0a565b50610b70613c20565b506001600160401b03604435818111610bd957610b91903690600401613c63565b5050606435818111610bd957610bab903690600401613c63565b505060843590811161093357610bc5903690600401613c36565b505060405163bc197c8160e01b8152602090f35b8280fd5b5034610592578060031936011261059257610bf66149e1565b6022546001600160a01b0390610c0f9082163314613de4565b60ff60185460581c1660088110156105335760058114610bd95760078114610bd957806004610c479214908115610d7a575b506149a0565b602654908115610bd957610c78610c6e612710610c666024548661496d565b04809461431a565b9284602655615653565b828080808585602254165af1610c8c6143b6565b5015610d29576024602082855416604051928380926316accbeb60e01b82523060048301525afa918215610701577f86a5cc8fe9af9ae68fb50f62885307a7755a30cbd290131644377f0bd94a7181926020928691610d0c575b50610cff575b6022541692604051908152a26001805580f35b610d076150de565b610cec565b610d239150833d8111610580576105728183613ba9565b38610ce6565b60405162461bcd60e51b8152602060048201526024808201527f5472616e7366657220746f20726576656e756520726563697069656e742066616044820152631a5b195960e21b6064820152608490fd5b600691501438610c41565b5034610592578060031936011261059257610d9e6149e1565b60185460ff90818160581c1660088110158061131357600482148015611337575b818115611327575b8115611303575b50156112be57838360301c16600014610eec5750505033825260209060298252610dfe8160408520541615614a37565b338352601b8252604083205415610bd957601854908082169182610ee0575b505015610e8c57338252601b815260008051602061575f833981519152610e4b6040842054600d549061496d565b913384526029815260408420600160ff19825416179055610e7b8480808087335af1610e756143b6565b50614ab8565b6040519283523392a25b6001805580f35b6084906040519062461bcd60e51b82526004820152602760248201527f526566756e6473206e6f7420706f737369626c6520666f72207468697320706f6044820152666f6c207479706560c81b6064820152fd5b831c1690503880610e1d565b6112aa576007036110115750338252602060298152610f118260408520541615614a37565b338352601b815260408320548015610f9c57600d54610f2f9161496d565b91601854821c16600014610fa05760265490828210610f9c57610f618360008051602061575f8339815191529361431a565b6026555b3384526029815260408420600160ff19825416179055610f8e8480808087335af1610e756143b6565b6040519283523392a2610e85565b8380fd5b602854828110610fcc5790610fc48360008051602061575f8339815191529361431a565b602855610f65565b60405162461bcd60e51b815260048101839052601a60248201527f496e73756666696369656e7420746f74616c20726576656e75650000000000006044820152606490fd5b908082168061129e575b80611292575b80611287575b1561112a575050338152601b60205260408120546015602052604082205490602d60205260408320549082811180611118575b15610f9c576110719261106c9161431a565b61431a565b600d5460235490612710918203908282116111045761109b92916110949161496d565b048261496d565b90602754808311610f9c57826110b09161431a565b602755338352602d6020526110ca60408420918254613dc1565b90556110e58280808085335af16110df6143b6565b50614a7c565b60405190815260008051602061575f83398151915260203392a2610e85565b634e487b7160e01b85526011600452602485fd5b50611123838261431a565b821061105a565b80602092831c161561113e575b5050610e85565b338352601b825260408320541561124d57611166903384526029835260408420541615614a37565b338252601b815261117e6040832054600d549061496d565b611f40908181029181830414901517156104fa576127109004906028548281106111f857906111bc8360008051602061575f8339815191529361431a565b6028553384526029815260408420600160ff198254161790556111e88480808087335af16110df6143b6565b6040519283523392a23880611137565b60405162461bcd60e51b815260048101839052602760248201527f496e73756666696369656e742062616c616e636520746f2070726f6365737320604482015266726566756e647360c81b6064820152608490fd5b60405162461bcd60e51b8152600481018390526012602482015271139bc81cdb1bdd1cc81c1d5c98da185cd95960721b6044820152606490fd5b506027541515611027565b50808260281c16611021565b50808260201c1661101b565b634e487b7160e01b84526021600452602484fd5b60405162461bcd60e51b815260206004820152601e60248201527f506f6f6c206e6f7420696e206120726566756e6461626c6520737461746500006044820152606490fd5b9050611313576007821481610dce565b634e487b7160e01b85526021600452602485fd5b9050611313576005821481610dc7565b5050600060068214610dbf565b503461059257602036600319011261059257602090600435815260328252604060018060a01b0391205416604051908152f35b50346105925780600319360112610592576020602654604051908152f35b503461059257806003193601126105925760025460405160089190911c6001600160a01b03168152602090f35b503461059257602036600319011261059257604060209160043581528280522054604051908152f35b503461059257806003193601126105925760ff60185460581c166008811015908161053357600481149182156114b3575b82156114a2575b821561147d575b505015611439576104816150de565b606460405162461bcd60e51b815260206004820152602060248201527f506f6f6c206d75737420626520696e2061207465726d696e616c2073746174656044820152fd5b90915061148e57600614388061142a565b634e487b7160e01b82526021600452602482fd5b809250610533576005811491611423565b50600781149150600061141c565b50346105925780600319360112610592576020600d54604051908152f35b503461059257602036600319011261059257600435601a5481101561093357601a6000527f057c384a7d1c54f3a1b2e5e67b2617b8224fdfd1ea7234eea573a6ff665ff63e01546040516001600160a01b039091168152602090f35b503461059257806003193601126105925761156460ff602f5460a01c1660405191829182613cca565b0390f35b5034610592578060031936011261059257602a546040516001600160a01b039091168152602090f35b5034610592578060031936011261059257602063ffffffff60055416604051908152f35b50346105925780600319360112610592576020602354604051908152f35b5034610592578060031936011261059257546040516001600160a01b039091168152602090f35b5034610592578060031936011261059257602060ff60185460481c166040519015158152f35b5034610592578060031936011261059257610481613e1f565b50346105925780600319360112610592576020601e54604051908152f35b50346105925780600319360112610592576020601154604051908152f35b50346105925780600319360112610592576020601754604051908152f35b5034610592578060031936011261059257602f546040516001600160a01b039091168152602090f35b5034610592578060031936011261059257602060ff60185460401c166040519015158152f35b5034610592578060031936011261059257602060185460ff60405191831c1615158152f35b50346105925780600319360112610592576020601454604051908152f35b50346105925780600319360112610592576020600954604051908152f35b5034610592576020366003190112610592576020611767611762613c0a565b614afd565b604051908152f35b5061034036600319011261059257611785613c0a565b602435906001600160401b038211610bd95736602383011215610bd957828260040135926117b284613cf3565b936117c06040519586613ba9565b8085523660248284010111610bd957806024602093018387013784010152604435908115158203611d165760c435908115158203611d165760e435906001600160a01b0382168203611d1657610104356001600160a01b0381169003611d16576004610184351015611fc8576101e435916001600160a01b0383168303611d165761024435928315158403611d165761026435966001600160a01b0388168803611d16576004610284351015611fc4576102e4356001600160a01b0381169003611d16576103043515156103043503611d16576103243515156103243503611d16577f00000000000000000000000000000000000000000000000000000000000000006001600160a01b03163303611f7f5788546001600160a01b0316611f44576118ea84613d66565b600f80546001600160a01b031916610104356001600160a01b039081169190911790915560405163ec644ddd60e01b81528a9160a090829060049082908a165afa9081156105875782839084928594611ecd575b509161ffff949163ffffffff9360025490610100600160a81b039060081b1690610100600160a81b031916176002556003556004551663ffffffff1960055416176005551661ffff1960075416176007558051906001600160401b038211611eb95781906119ad600854613b41565b601f8111611e47575b50602090601f8311600114611dd1578b92611dc6575b50508160011b916000199060031b1c1916176008555b6119f9606435806009556084359081600b55613dc1565b600a5560a435600c556018805460ff19811688151560ff161790915561014435600d556101643560105560408051631a35245160e31b815291949190816004816001600160a01b0386165afa8015611dbb578a918b91611d78575b50602455602355600e80546001600160a01b0319166001600160a01b038581169190911790915561012435601155600498602092918116611d37575b506102e4356001600160a01b031615611d2e576102e4355b602280546001600160a01b03199081166001600160a01b0393841617909155602a805490911685831617905561020435602b5561022435602c55604051636f6f8c5d60e01b8152998a9290918391165afa968715611d23578897611cea575b506102243515611c3657505050505050610144350361059257600360ff1960125416176012556201000062ff00001960185416176018555b60185460ff811680611c29575b15611bee575060ff60125416600481101561148e5760011480611bdf575b15611bbb5760ff60281b19601854166018555b60185468ff000000000000000061030435151560401b16906bff0000ff00000000ff00000019161763ff00000061032435151560181b161760185580f35b6001600c541160ff60281b6018549160281b169060ff60281b191617601855611b7d565b5060ff60185460101c16611b6a565b60ff8160201c1615600014611c1857506501000000000060ff60281b196018541617601855611b7d565b65ff00000000001916601855611b7d565b5060ff8160201c16611b4c565b6001600160a01b031615611c75575050505050610144350361059257600260ff1960125416176012556201000062ff0000196018541617601855611b3f565b93945091929091906001600160a01b0316611c94575b50505050611b3f565b60ff64ff0000000062ff000093151560201b16941515169064ff00ff00ff19161791151560101b16171760185560ff196012541660ff6101843516176012556101a4356013556101c43560145538808080611c8b565b9096506020813d602011611d1b575b81611d0660209383613ba9565b81010312611d1657519538611b07565b600080fd5b3d9150611cf9565b6040513d8a823e3d90fd5b61010435611aa8565b602f80546001600160a81b0319166001600160a01b03909216919091176102843560a01b60ff60a01b161790556102a4356030556102c43560315538611a90565b929150506040823d604011611db3575b81611d9560409383613ba9565b81010312611daf5781516020928301519192909190611a54565b8980fd5b3d9150611d88565b6040513d8c823e3d90fd5b0151905038806119cc565b925060088b5260008051602061573f833981519152908b935b601f1984168510611e2c576001945083601f19811610611e13575b505050811b016008556119e2565b015160001960f88460031b161c19169055388080611e05565b81810151835560209485019460019093019290910190611dea565b90915060088b52601f830160051c60008051602061573f8339815191520160208410611ea4575b908392915b601f820160051c60008051602061573f833981519152018110611e9657506119b6565b8c8155849350600101611e73565b5060008051602061573f833981519152611e6e565b634e487b7160e01b8a52604160045260248afd5b94505050505060a0813d8211611f3c575b81611eeb60a09383613ba9565b81010312611daf57611efc81613dad565b60208201519060408301519260608101519063ffffffff82168203611f3857608001519061ffff82168203611f3857939092909161ffff61193e565b8d80fd5b3d9150611ede565b60405162461bcd60e51b8152602060048201526013602482015272105b1c9958591e481a5b9a5d1a585b1a5e9959606a1b6044820152606490fd5b60405162461bcd60e51b815260206004820152601b60248201527f4f6e6c7920666163746f72792063616e20696e697469616c697a6500000000006044820152606490fd5b8880fd5b8580fd5b5034610592578060031936011261059257611fe5613d0e565b600080546001600160a01b0319811682556001600160a01b03167f8be0079c531659141344cd1fd0a4f28419497f9722a3daafe3b4186f6b6457e08280a380f35b503461059257806003193601126105925761203f6149e1565b60ff60185460581c16600881101561148e576004036125335733815260206015815260408220549081156125215733835260168152604083205480830390831461250f57602f546001600160a01b039190828116908161236c575b505081602a54169160ff6012541690600e5416600c5495338852601686526040882055826017540160175583151560001461218b5750506120dd84602b54614980565b029081156121795760405163a9059cbb60e01b8152336004820152602481019290925282908290604490829088905af191821561070157849261215c575b50501561214a575b60175414612132576001805580f35b6018805460ff60581b1916600360591b179055610e85565b60405163880a149160e01b8152600490fd5b6121729250803d10610580576105728183613ba9565b388061211b565b604051630193f71f60e51b8152600490fd5b9193509150600482101561131357600382036121d15750506121af82602c54614980565b028015612179578280808093335af16121c66143b6565b501561214a57612123565b9091811561235a57849260ff60185460101c166000146122b457612252575060135490803b15610bd9576040516323b872dd60e01b8152306004820152336024820152604481019290925282908290818381606481015b03925af180156105875761223e575b5050612123565b61224790613b7b565b610933578138612237565b6014540260135490823b15610f9c57604051637921219560e11b81523060048201523360248201526044810192909252606482015260a06084820152600060a4820152908290829060c490829084905af180156105875761223e575050612123565b806122ed575090803b15610bd9576040516340c10f1960e01b815233600482015260248101929092528290829081838160448101612228565b6001146122fd575b505050612123565b6013549060145402823b15610f9c5760648492836040519586948593630ab714fb60e11b8552336004860152602485015260448401525af1801561058757612346575b806122f5565b61234f90613b7b565b610933578138612340565b60405163424ca23960e01b8152600490fd5b60a01c60ff1660048110156124fb578490806123fd57506040516370a0823160e01b815233600482015291829060249082905afa80156123f25786906123c3575b6123bc91506030541115615508565b388061209a565b508381813d83116123eb575b6123d98183613ba9565b81010312611d16576123bc90516123ad565b503d6123cf565b6040513d88823e3d90fd5b6001810361247d5750603154604051627eeac760e11b8152336004820152602481019190915291829060449082905afa80156123f257869061244e575b61244991506030541115615508565b6123bc565b508381813d8311612476575b6124648183613ba9565b81010312611d1657612449905161243a565b503d61245a565b60021461248c575b50506123bc565b6040516370a0823160e01b815233600482015291829060249082905afa80156123f25786906124cc575b6124c591506030541115615508565b3883612485565b508381813d83116124f4575b6124e28183613ba9565b81010312611d16576124c590516124b6565b503d6124d8565b634e487b7160e01b87526021600452602487fd5b604051630ccaf35d60e41b8152600490fd5b6040516358cd4fc160e11b8152600490fd5b60405162461bcd60e51b815260206004820152600d60248201526c496e76616c696420737461746560981b6044820152606490fd5b5034610592578060031936011261059257602060ff60185460081c166040519015158152f35b5034610592578060031936011261059257602060ff60185460101c166040519015158152f35b5034610592578060031936011261059257602060ff601854166040519015158152f35b50346105925780600319360112610592576020602754604051908152f35b5034610592578060031936011261059257610481614dea565b50346105925780600319360112610592576020600354604051908152f35b5034610592578060031936011261059257602060ff600254166040519015158152f35b503461059257806003193601126105925761156460ff6012541660405191829182613cca565b50346105925780600319360112610592576020603054604051908152f35b50346105925760203660031901126105925760209060ff906040906001600160a01b036126be613c0a565b168152602984522054166040519015158152f35b50346105925760203660031901126105925760209060ff906040906001600160a01b036126fd613c0a565b168152603384522054166040519015158152f35b50346105925780600319360112610592576020600c54604051908152f35b5034610592578060031936011261059257602060ff60185460501c166040519015158152f35b50346105925780600319360112610592576020601f54604051908152f35b5034610592578060031936011261059257602061ffff60075416604051908152f35b5034610592576020366003190112610592576020906040906001600160a01b036127bd613c0a565b168152602583522054604051908152f35b5034610592576020806003193601126109335760043590303303612b8457602154835280805281604084205561280560215461495e565b602155601f5490601d54906019549361281d846147b0565b9061282b6040519283613ba9565b848252612837856147b0565b8284019490601f1901368637875b868110612a8157505050855b8481106129d757506128886018549469ff00000000000000000019861660185561287d81601d54613dc1565b601d55601e54613dc1565b9283601e55604051918383019084845251809152604083019190885b858282106129ba575050505090807f32a1b5731a757f192a06ca973715ca4dbc42c2d15323cabaa74e0a2d5dc088e4920390a1600c549182116129b35762ff00ff60481b1983166001605a1b17601881905560ff841691826129a5575b5081612996575b81612987575b5061291a575b50505080f35b61293461293d916b0400000001000000000000009461431a565b600d549061496d565b61271061294c6023548361496d565b0461296361295a828461431a565b9260265461431a565b602655602e556027556bff00ff00ff00000000000000191617601855388080612914565b60ff915060381c16153861290e565b905060ff8160281c1690612908565b81901c60ff16915038612901565b5050505080f35b83516001600160a01b0316855293840193909201916001016128a4565b6001600160a01b036129e982846147c7565b511690601a918254600160401b811015612a6b5760018101808555811015612a5557612a50936000527f057c384a7d1c54f3a1b2e5e67b2617b8224fdfd1ea7234eea573a6ff665ff63e01906bffffffffffffffffffffffff60a01b82541617905561495e565b612851565b634e487b7160e01b600052603260045260246000fd5b634e487b7160e01b600052604160045260246000fd5b612a8f8161106c848b61431a565b6040518681019085825283604082015260408152612aac81613b8e565b51902090612aba8385613dc1565b918115612b7057612ad8612b6b9493612b2093612b3f930690613dc1565b612ae181613c93565b9054600391821b1c6001600160a01b03908116949185612b01888d6147c7565b52612b14612b0f888b613dc1565b613c93565b9054911b1c1691613c93565b90919082549060031b9160018060a01b03809116831b921b1916179055565b612b5081612b20612b0f8588613dc1565b8a526015865260408a20612b64815461495e565b905561495e565b612845565b634e487b7160e01b8c52601260045260248cfd5b6064906040519062461bcd60e51b82526004820152600e60248201526d13db9b1e481cd95b198b58d85b1b60921b6044820152fd5b50346105925780600319360112610592576022546040516001600160a01b039091168152602090f35b50346105925760203660031901126105925760043590601954821015610592576020612c0d83613c93565b905460405160039290921b1c6001600160a01b03168152f35b50346105925780600319360112610592578054600e54604051635aa35d2560e11b81526001600160a01b0391821615156004820152929160209184916024918391165afa908115612cb45790612c82575b602090604051908152f35b506020813d8211612cac575b81612c9b60209383613ba9565b81010312611d165760209051612c77565b3d9150612c8e565b604051903d90823e3d90fd5b50346105925780600319360112610592576020602b54604051908152f35b50346105925780600319360112610592576020600a54604051908152f35b5034610592578060031936011261059257602060ff60185460281c166040519015158152f35b5034610592576020366003190112610592576020906040906001600160a01b03612d4a613c0a565b168152601b83522054604051908152f35b5034610592576040366003190112610592576024356001600160401b03811161093357612d8c903690600401613c63565b60025460081c6001600160a01b03163303612df457612daa816147b0565b91612db86040519384613ba9565b8183526020918284019060051b820191368311611fc857905b828210612de55785610481866004356147db565b81358152908301908301612dd1565b60405162461bcd60e51b815260206004820181905260248201527f4f6e6c792056524620436f6f7264696e61746f722063616e2066756c66696c6c6044820152606490fd5b5060a0366003190112610592576001600160401b03606435818111610bd957612e66903690600401613c36565b9091608435908111610f9c57612e80903690600401613c63565b919092612e8b6149e1565b60185460ff8160581c1660088110156124fb571561387c575b5033320361386b5760185460ff8160581c1660088110156124fb57600103613859573315613847576004351561383557600d54801561382357612eea906004359061496d565b340361381157600a544210156137ff57612f08600435601954613dc1565b601154106137ed5760095442106137db57338652601b602052612f316004356040882054613dc1565b601054106137c95760ff81161580613793575b613781578554604051638da5cb5b60e01b81526001600160a01b039091169190602081600481865afa908115611d23578891613743575b506001600160a01b0316331461373157600f546001600160a01b031633146137205760401c60ff1680613709575b6135e4575b5050602f546001600160a01b0381169150816130a2575b50505050338152601b602052604081206004358154019055805b600435811061305a575060185460201c60ff1661304d5734602854016028555b60195460115414613040575b60405160043581527ffd1903a7f9f31de6cf38a88eda98ae029aeba3b2ec48a599d7c0d900f0f335cb60203392a26001805580f35b6130486143e6565b61300b565b3460265401602655612fff565b60195490600160401b821015612a6b5761309c61307e836001809501601955613c93565b81546001600160a01b0360039290921b91821b19163390911b179055565b01612fdf565b60a01c60ff16600481101561131357806134d5575050801561349b576030546001810361323057506001116131d457356024602060018060a01b03602f5416604051928380926331a9108f60e11b82528660048301525afa80156131c957839061318e575b61311c91506001600160a01b0316331461556f565b80825260326020526040822054613146906001600160a01b03168015908115613184575b506155bb565b815260326020526040812080546001600160a01b0381161561316f575b50505b38808080612fc5565b6001600160a01b031916331790553880613163565b9050331438613140565b506020813d6020116131c1575b816131a860209383613ba9565b81010312610bd9576131bc61311c91613dad565b613107565b3d915061319b565b6040513d85823e3d90fd5b60405162461bcd60e51b815260206004820152602e60248201527f546f6b656e20494420726571756972656420666f722073696e676c6520746f6b60448201526d195b881c995c5d5a5c995b595b9d60921b6064820152608490fd5b600181111561344c5780821061340757835b818110613361575050825b6030548110156133595780613265602492848661555f565b35602060018060a01b03602f5416604051948580926331a9108f60e11b82528560048301525afa9283156123f2578693613318575b506132fe926132b3906001600160a01b0316331461556f565b808652603290816020526132dc60018060a01b03604089205416801590811561318457506155bb565b86526020526040852080546001600160a01b03811615613303575b505061495e565b61324d565b6001600160a01b0319163317905538806132f7565b92506020833d602011613351575b8161333360209383613ba9565b81010312611fc8576132b361334a6132fe94613dad565b935061329a565b3d9150613326565b505050613166565b600181018082116133f3575b828110613383575061337e9061495e565b613242565b61338e82858761555f565b3561339a82868861555f565b35146133ae576133a99061495e565b61336d565b60405162461bcd60e51b815260206004820152601f60248201527f4475706c696361746520746f6b656e20494473206e6f7420616c6c6f776564006044820152606490fd5b634e487b7160e01b86526011600452602486fd5b60405162461bcd60e51b815260206004820152601f60248201527f496e73756666696369656e7420746f6b656e204944732070726f7669646564006044820152606490fd5b60405162461bcd60e51b815260206004820152602160248201527f496e76616c696420746f6b656e2062616c616e636520726571756972656d656e6044820152601d60fa1b6064820152608490fd5b60405162461bcd60e51b8152602060048201526012602482015271151bdad95b8812511cc81c995c5d5a5c995960721b6044820152606490fd5b9092509050600181036135625750603154604051627eeac760e11b8152336004820152602481019190915290602090829060449082905afa801561058757829061352e575b61352991506030541115615508565b613166565b506020813d60201161355a575b8161354860209383613ba9565b81010312611d1657613529905161351a565b3d915061353b565b600214613570575b50613166565b6020602491604051928380926370a0823160e01b82523360048301525afa80156105875782906135b0575b6135aa91506030541115615508565b3861356a565b506020813d6020116135dc575b816135ca60209383613ba9565b81010312611d16576135aa905161359b565b3d91506135bd565b602060049160405192838092636b90bda960e01b82525afa9081156123f25786916136cf575b506001600160a01b03169081156136bd578186923b15610bd95783918360c460405180978196829563cffc18eb60e01b84523360048501523060248501526024356044850152604435606485015260a060848501528160a4850152848401378181018301849052601f01601f191681010301925af18015610701576136aa575b50338352603360205260408320805460ff19166001179055388080612fae565b6136b690939193613b7b565b913861368a565b6040516343361aaf60e01b8152600490fd5b90506020813d602011613701575b816136ea60209383613ba9565b81010312611fc8576136fb90613dad565b3861360a565b3d91506136dd565b50338652603360205260ff60408720541615612fa9565b60405162ca6a8360e51b8152600490fd5b604051635f2a002d60e11b8152600490fd5b90506020813d602011613779575b8161375e60209383613ba9565b810103126137755761376f90613dad565b38612f7b565b8780fd5b3d9150613751565b604051631274fa9d60e31b8152600490fd5b5060ff8160201c1680156137bc575b80612f445750338652601b60205260408620541515612f44565b50600160043514156137a2565b604051637145fa7b60e01b8152600490fd5b604051633d8c21b360e01b8152600490fd5b6040516302edeeb760e31b8152600490fd5b60405163fd2a413d60e01b8152600490fd5b60405163569e8c1160e01b8152600490fd5b60405163d2100d7360e01b8152600490fd5b60405163f4f5b73360e01b8152600490fd5b60405163d92e233d60e01b8152600490fd5b6040516338c0a90160e11b8152600490fd5b60405162c44f5760e51b8152600490fd5b6009544210612ea45760ff60581b1916600160581b176018557f3d31b97eef590df350bb2cdbc390034c613c9f23ea6ae1906682628c85248b538580a138612ea4565b5034610592576080366003190112610592576138d9613c0a565b506138e2613c20565b506064356001600160401b03811161093357613902903690600401613c36565b5050604051630a85bd0160e11b8152602090f35b50346105925780600319360112610592576020600b54604051908152f35b5034610592578060031936011261059257602060ff60185460181c166040519015158152f35b50346105925780600319360112610592576020601354604051908152f35b50346105925780600319360112610592576020601c54604051908152f35b50346105925780600319360112610592576020603154604051908152f35b503461059257806003193601126105925760405190806008546139d681613b41565b80855291600191808316908115613a5d5750600114613a14575b61156485613a0081870382613ba9565b604051918291602083526020830190613bca565b92506008835260008051602061573f8339815191525b828410613a45575050508101602001613a00826115646139f0565b80546020858701810191909152909301928101613a2a565b86955061156496935060209250613a0094915060ff191682840152151560051b82010192936139f0565b50346105925780600319360112610592576020602154604051908152f35b50346105925780600319360112610592576020601d54604051908152f35b5034610592578060031936011261059257600f546040516001600160a01b039091168152602090f35b9050346109335760203660031901126109335760043563ffffffff60e01b8116809103610bd95760209250630a85bd0160e11b8114908115613b30575b5015158152f35b630271189760e51b14905038613b29565b90600182811c92168015613b71575b6020831014613b5b57565b634e487b7160e01b600052602260045260246000fd5b91607f1691613b50565b6001600160401b038111612a6b57604052565b606081019081106001600160401b03821117612a6b57604052565b90601f801991011681019081106001600160401b03821117612a6b57604052565b919082519283825260005b848110613bf6575050826000602080949584010152601f8019910116010190565b602081830181015184830182015201613bd5565b600435906001600160a01b0382168203611d1657565b602435906001600160a01b0382168203611d1657565b9181601f84011215611d16578235916001600160401b038311611d165760208381860195010111611d1657565b9181601f84011215611d16578235916001600160401b038311611d16576020808501948460051b010111611d1657565b601954811015612a555760196000527f944998273e477b495144fb8794c914197f3ccb46be2900f4698fd0ef743c96950190600090565b919060208301926004821015613cdd5752565b634e487b7160e01b600052602160045260246000fd5b6001600160401b038111612a6b57601f01601f191660200190565b6000546001600160a01b03163303613d2257565b606460405162461bcd60e51b815260206004820152602060248201527f4f776e61626c653a2063616c6c6572206973206e6f7420746865206f776e65726044820152fd5b600080546001600160a01b039283166001600160a01b03198216811783559216907f8be0079c531659141344cd1fd0a4f28419497f9722a3daafe3b4186f6b6457e09080a3565b51906001600160a01b0382168203611d1657565b91908201809211613dce57565b634e487b7160e01b600052601160045260246000fd5b15613deb57565b60405162461bcd60e51b815260206004820152600c60248201526b155b985d5d1a1bdc9a5e995960a21b6044820152606490fd5b602a546000906001600160a01b0390811661426557602c5461422057600a544210156141db5780825416331480156141ce575b613e5b90613de4565b60185460ff90818160581c1660088110156113135780159081156141c3575b501561416f578082168080614131575b80614124575b6140b95715614074576bff00000000ff00000000000019166b05000000000100000000000017601855613ec16150de565b613ec961511f565b60185481811680614067575b8061403d575b613f2d575b505050807fe465c22b8ec96fc194d9a0791b76171272fb36c68a84e2c807ed610cb9c7b9b1817f9331b2a38c658c57a39ea19b2709d928c28a12cc8fbb838d12b85148550f937d93a180a1565b60101c81166140385760125416600481101561053357613fbb57600e5416803b1561093357818091602460405180948193636382ff5160e11b83523060048401525af1801561058757613fa7575b507f9331b2a38c658c57a39ea19b2709d928c28a12cc8fbb838d12b85148550f937d905b903880613ee0565b613fb18291613b7b565b6105925738613f7b565b90809291600e5416803b15610933578190602460405180968193636382ff5160e11b83523060048401525af192831561402b577f9331b2a38c658c57a39ea19b2709d928c28a12cc8fbb838d12b85148550f937d929361401c575b50613f9f565b61402590613b7b565b38614016565b50604051903d90823e3d90fd5b505050565b508160125416600481101561131357801590811561405c575b50613edb565b600191501438614056565b5082600e54161515613ed5565b60405162461bcd60e51b815260206004820152601e60248201527f43616e6e6f742064656c657465206e6f6e2d7072697a656420706f6f6c7300006044820152606490fd5b60405162461bcd60e51b815260206004820152603960248201527f43616e6e6f742064656c657465204e46542d7072697a656420706f6f6c73207460448201527f686174207573652070726f746f636f6c20736c6f7420666565000000000000006064820152608490fd5b50828260201c1615613e90565b508260125416600481101561415b578015908115614150575b50613e8a565b60019150143861414a565b634e487b7160e01b86526021600452602486fd5b60405162461bcd60e51b815260206004820152602660248201527f43616e206f6e6c792064656c657465206265666f726520656e642074696d652060448201526570617373657360d01b6064820152608490fd5b600191501438613e7a565b50600f5481163314613e52565b60405162461bcd60e51b815260206004820152601760248201527f506f6f6c206475726174696f6e206578686175737465640000000000000000006044820152606490fd5b60405162461bcd60e51b815260206004820152601b60248201527f5468697320706f6f6c2063616e6e6f742062652064656c6574656400000000006044820152606490fd5b60405162461bcd60e51b8152602060048201526024808201527f45524332302d7072697a656420706f6f6c732063616e6e6f742062652064656c604482015263195d195960e21b6064820152608490fd5b90816020910312611d1657518015158103611d165790565b156142d557565b60405162461bcd60e51b815260206004820152601960248201527f5265717565737420616c726561647920696e20666c69676874000000000000006044820152606490fd5b91908203918211613dce57565b60009060033d1161433457565b905060046000803e60005160e01c90565b600060443d106143a257604051600319913d83016004833e81516001600160401b03918282113d6024840111176143a5578184019485519384116143ad573d850101602084870101116143a557506143a292910160200190613ba9565b90565b949350505050565b50949350505050565b3d156143e1573d906143c782613cf3565b916143d56040519384613ba9565b82523d6000602084013e565b606090565b601860ff815460581c166008811015613cdd576001146147a3575b805460ff8160581c166008811015613cdd5760028114908115614798575b50156147445761443560ff8260481c16156142ce565b60195490601d5491614447838261431a565b80614457600c54601e549061431a565b601e81111561473f5750601e5b80601f5511614736575b50601f5491821561472157507f4ff4e84912750d469e8d0e190997710c06112023943415787c2f744eb09c0da460606021549260409485519182526020968783015285820152a2600254600454600354600754600554855161ffff9283169560081c6001600160a01b03169263ffffffff926001600160401b039290841691908a810184811182821017612a6b578a526000815289519063125fa26760e31b8c83015251151560248201526024815261452681613b8e565b89519460c0860194851186861017612a6b578a818d9a956145b7958c9760009985528a52878a019b8c52838a019d8e5260608a0191825260808a01936001855260a08b01968752519d8e9c8d9b8c9a634d8e1c2f60e11b8c5260048c01525160248b01525160448a01525116606488015251166084860152511660a48401525160c060c484015260e4830190613bca565b03925af1600091816146f2575b506146a3575060016145d4614327565b6308c379a01461463b575b6145e857505050565b7fab4c58d5f7fcd2f6f276017059fe707292278a4b150b6402c89eb3899a7494ec916146256146156143b6565b9251928284938452830190613bca565b0390a1805460ff60581b1916600160591b179055565b614643614345565b8061464f575b506145df565b90507f1bc0b7451d1b26a4c7bfd7b118b2756c98249ac5f3d51e76be5f33aab5489902614689600092845191829187835287830190613bca565b0390a1835460ff60581b1916600160591b17845538614649565b907ff81446731d23d202ea16cf590daf64c6087251171612b2adde6acbef4b37580293826006556b0300010000000000000000006bff00ff0000000000000000001982541617905551908152a1565b90918482813d831161471a575b6147098183613ba9565b8101031261059257505190386145c4565b503d6146ff565b60ff60581b19166001605a1b17909355505050565b601f553861446e565b614464565b60405162461bcd60e51b815260206004820152602660248201527f506f6f6c206d75737420626520696e20456e646564206f722044726177696e6760448201526520737461746560d01b6064820152608490fd5b60039150143861441f565b6147ab615619565b614401565b6001600160401b038111612a6b5760051b60200190565b8051821015612a555760209160051b010190565b6002546000919060081c6001600160a01b03163303612df45760065403614947576018805460ff60501b1916600160501b178155825190929015614933576020015190303b156105925760405191631000850d60e21b83526004830152808260248183305af19182614924575b509061492057600190614859614327565b6308c379a0146148b1575b5061486d575b50565b7fbccec8509a79ecd26780c2699a3ca2503c3a3455b361b5fcda5760593edb03c9614899613a006143b6565b0390a1805462ff00ff60481b1916600160591b179055565b6148b9614345565b90816148c6575b50614864565b7fbcd905a8eb4cc473497e2cd24cf41334ea7fad80c354380f8fff04a025b1e5f89192506149039092604051918291602083526020830190613bca565b0390a1815462ff00ff60481b1916600160591b17825538806148c0565b5050565b61492d90613b7b565b38614848565b634e487b7160e01b82526032600452602482fd5b50506018805460ff60581b1916600160591b179055565b6000198114613dce5760010190565b81810292918115918404141715613dce57565b811561498a570490565b634e487b7160e01b600052601260045260246000fd5b156149a757565b60405162461bcd60e51b8152602060048201526012602482015271141bdbdb081b9bdd0818dbdb5c1b195d195960721b6044820152606490fd5b6002600154146149f2576002600155565b60405162461bcd60e51b815260206004820152601f60248201527f5265656e7472616e637947756172643a207265656e7472616e742063616c6c006044820152606490fd5b15614a3e57565b60405162461bcd60e51b81526020600482015260166024820152751499599d5b9908185b1c9958591e4818db185a5b595960521b6044820152606490fd5b15614a8357565b60405162461bcd60e51b815260206004820152600d60248201526c1499599d5b990819985a5b1959609a1b6044820152606490fd5b15614abf57565b60405162461bcd60e51b81526020600482015260166024820152751499599d5b99081d1c985b9cd9995c8819985a5b195960521b6044820152606490fd5b60185460ff90818160301c16614d2f57818160581c16906008821015613cdd5760078214614ccc5782811680614cc0575b80614cb4575b80614ca9575b614c085760201c8216159081614be9575b50614b57575050600090565b60009160018060a01b03168252601b602052604082205415159081614bd5575b50614b7f5790565b601b602052614b956040822054600d549061496d565b611f4090818102918183041490151715614bc1576127109004806028541015614bbc575090565b905090565b634e487b7160e01b82526011600452602482fd5b905060296020526040822054161538614b77565b6004811491508115614bfd575b5038614b4b565b600691501438614bf6565b5050509060009160018060a01b03168252601b602052604082205460156020526040832054602d60205260408420549181811180614c97575b614c4a57505050565b614c58929161106c9161431a565b600d546023549061271091820394828611614c8357506143a29394614c7c9161496d565b049061496d565b634e487b7160e01b81526011600452602490fd5b50614ca2828261431a565b8310614c41565b506027541515614b3a565b50828160281c16614b34565b50828160201c16614b2e565b6001600160a01b039093166000908152601b6020526040902054905080614cf6575b505050600090565b600d54614d029161496d565b9160201c16614d1f578060285410156143a257505b388080614cee565b8060265410156143a25750614d17565b908082169182614d91575b505080614d70575b614d4c5750600090565b6001600160a01b03166000908152601b6020526040902054600d546143a29161496d565b506001600160a01b0381166000908152601b60205260409020541515614d42565b60201c1690503880614d3a565b15614da557565b60405162461bcd60e51b815260206004820152601960248201527f506f6f6c20656e642074696d65206e6f742072656163686564000000000000006044820152606490fd5b601880549060ff91828160581c166008811015613cdd57600781146150a857600181148061509c575b15615036575050601954600c541115614ff257614e34600a54421015614d9e565b805460ff60581b1916600760581b1781557f456598f31410bd74ce9e62f22e18454c4264af94fd5752d17b3cebce37d73cdd600080a15b81815460581c166008811015613cdd57600703614f9657614e8a6150de565b614e9261511f565b5481811680614f82575b80614f58575b614eaa575050565b60101c811661486a57601254166004811015613cdd57614f1957600e546001600160a01b0316803b15611d165760008091602460405180948193636382ff5160e11b83523060048401525af18015614f0d57614f0457505b565b614f0290613b7b565b6040513d6000823e3d90fd5b600e546001600160a01b0316803b15611d165760008091602460405180948193636382ff5160e11b83523060048401525af18015614f0d57614f045750565b5081601254166004811015613cdd578015908115614f77575b50614ea2565b600191501438614f71565b50600e546001600160a01b03161515614e9c565b60405162461bcd60e51b815260206004820152602e60248201527f426c6f636b2074696d657374616d702064656c61792069737375652c2074727960448201526d20616761696e2073686f72746c7960901b6064820152608490fd5b606460405162461bcd60e51b815260206004820152602060248201527f506f6f6c206d7573742070726f636565642073656c6563742077696e6e6572736044820152fd5b1580615090575b615048575b50614e6b565b615056600a54421015614d9e565b60ff60581b1916600760581b1781557f456598f31410bd74ce9e62f22e18454c4264af94fd5752d17b3cebce37d73cdd600080a138615042565b50600a5442101561503d565b50600a54421015614e13565b60405162461bcd60e51b815260206004820152600e60248201526d105b1c9958591e4818db1bdcd95960921b6044820152606490fd5b600080546001600160a01b0316803b1561093357818091602460405180958193633aaa814760e01b83523060048401525af1908115612cb45750614f045750565b60185460ff811690811561492057816154fa575b5061513a57565b602a546001600160a01b03908116156152645780602a5416604051916370a0823160e01b83523060048401526020928381602481865afa908115614f0d57600091615237575b508061518d575b50505050565b600f5460405163a9059cbb60e01b815292166001600160a01b0316600483015260248201529082908290816000816044810103925af1908115614f0d5760009161521a575b50156151e057808080615187565b6064906040519062461bcd60e51b825260048201526013602482015272151bdad95b881c99599d5b990819985a5b1959606a1b6044820152fd5b6152319150823d8411610580576105728183613ba9565b386151d2565b908482813d831161525d575b61524d8183613ba9565b8101031261059257505138615180565b503d615243565b60ff60125416600490818110156154e557600381036152e357509047908161528b57505050565b60008080938193600f54165af16152a06143b6565b50156152a95750565b60649060206040519162461bcd60e51b83528201526013602482015272141c9a5e99481c99599d5b990819985a5b1959606a1b6044820152fd5b806153d1575081600e541691601354906040516331a9108f60e11b81528284820152602081602481885afa908115614f0d57600091615398575b508116301461532c5750505050565b600f541692803b15611d1657604080516323b872dd60e01b8152309481019485526001600160a01b03909516602085015283019190915260009183919082908490829060600103925af18015614f0d57615389575b808080615187565b61539290613b7b565b38615381565b906020823d82116153c9575b816153b160209383613ba9565b8101031261059257506153c390613dad565b3861531d565b3d91506153a4565b6001146153dc575050565b600e5460135460408051627eeac760e11b8152308582019081526020818101859052919693948416939287918291010381855afa948515614f0d576000956154b2575b508461542d575b5050505050565b600f5416813b15611d16576000809461548b60405197889687958694637921219560e11b865230908601929060c0949260018060a01b0380921685521660208401526040830152606082015260a06080820152600060a08201520190565b03925af18015614f0d576154a3575b80808080615426565b6154ac90613b7b565b3861549a565b90946020823d82116154dd575b816154cc60209383613ba9565b81010312610592575051933861541f565b3d91506154bf565b602182634e487b7160e01b6000525260246000fd5b60ff915060101c1638615133565b1561550f57565b60405162461bcd60e51b815260206004820152602260248201527f476174696e672062616c616e636520726571756972656d656e74206e6f74206d604482015261195d60f21b6064820152608490fd5b9190811015612a555760051b0190565b1561557657565b60405162461bcd60e51b815260206004820152601c60248201527f4e6f74206f776e6572206f662073706563696669656420746f6b656e000000006044820152606490fd5b156155c257565b60405162461bcd60e51b815260206004820152602960248201527f546f6b656e20494420616c726561647920626f756e6420746f20616e6f74686560448201526872206164647265737360b81b6064820152608490fd5b6018805460ff60581b1916600160591b1790557fba56b904ffec191559c3639e6019beb8a654605dbf6ba72f33361432a97c2bea600080a1565b6000805460405163524d530b60e01b815260209390916001600160a01b039085908490600490829085165afa928315610701578493615707575b50821615610bd9579082916040519085820191635e5bc1c560e11b8352816024820152602481526156bd81613b8e565b51925af16156c96143b6565b50156156d25750565b6064906040519062461bcd60e51b82526004820152600e60248201526d11195c1bdcda5d0819985a5b195960921b6044820152fd5b9092508481813d8311615737575b61571f8183613ba9565b81010312610f9c5761573090613dad565b913861568d565b503d61571556fef3f7a9fe364faab93b216da50a3214154f22a0a2b415b23a84c8169e8b636ee3358fe4192934d3bf28ae181feda1f4bd08ca67f5e2fad55582cce5eb67304ae9a2646970667358221220d7c927e82e54a260cf9b16e156f3b41bacfe7e0c2a863e8a87e4d51790deb18f64736f6c63430008130033",
  "linkReferences": {},
  "deployedLinkReferences": {}
}