{
  "_format": "hh-sol-artifact-1",
  "contractName": "PoolDeployer",
  "sourceName": "contracts/PoolDeployer.sol",
  "abi": [
    {
      "inputs": [
        {
          "internalType": "address",
          "name": "_poolImplementation",
          "type": "address"
        },
        {
          "internalType": "address",
          "name": "_manager",
          "type": "address"
        }
      ],
      "stateMutability": "nonpayable",
      "type": "constructor"
    },
    {
      "inputs": [],
      "name": "ApprovedSlotFeeMismatch",
      "type": "error"
    },
    {
      "inputs": [],
      "name": "AvailableSupplyInsufficient",
      "type": "error"
    },
    {
      "inputs": [],
      "name": "CollectioNameTaken",
      "type": "error"
    },
    {
      "inputs": [],
      "name": "CollectionNameTaken",
      "type": "error"
    },
    {
      "inputs": [],
      "name": "ContractsNotAllowed",
      "type": "error"
    },
    {
      "inputs": [],
      "name": "DescriptionTooLong",
      "type": "error"
    },
    {
      "inputs": [],
      "name": "ExceedsApprovedWinnerLimit",
      "type": "error"
    },
    {
      "inputs": [],
      "name": "IncompatiblePrizeContract",
      "type": "error"
    },
    {
      "inputs": [],
      "name": "InsufficientCreatorTokenBalance",
      "type": "error"
    },
    {
      "inputs": [],
      "name": "InsufficientNativeBalance",
      "type": "error"
    },
    {
      "inputs": [],
      "name": "InsufficientPrizeAmountForEscrow",
      "type": "error"
    },
    {
      "inputs": [],
      "name": "InvalidDiscordLink",
      "type": "error"
    },
    {
      "inputs": [],
      "name": "InvalidMaxSlotsPerParticipant",
      "type": "error"
    },
    {
      "inputs": [],
      "name": "InvalidParameter",
      "type": "error"
    },
    {
      "inputs": [],
      "name": "InvalidPrizeAmount",
      "type": "error"
    },
    {
      "inputs": [],
      "name": "InvalidPrizeType",
      "type": "error"
    },
    {
      "inputs": [],
      "name": "InvalidSlotFee",
      "type": "error"
    },
    {
      "inputs": [],
      "name": "InvalidSlotLimitConfig",
      "type": "error"
    },
    {
      "inputs": [],
      "name": "InvalidStartTime",
      "type": "error"
    },
    {
      "inputs": [],
      "name": "InvalidTelegramLink",
      "type": "error"
    },
    {
      "inputs": [],
      "name": "InvalidTwitterLink",
      "type": "error"
    },
    {
      "inputs": [],
      "name": "InvalidWinnerConfig",
      "type": "error"
    },
    {
      "inputs": [],
      "name": "NotOwnerOfTokenID",
      "type": "error"
    },
    {
      "inputs": [],
      "name": "PoolCreationPaused",
      "type": "error"
    },
    {
      "inputs": [],
      "name": "PoolNameTaken",
      "type": "error"
    },
    {
      "inputs": [],
      "name": "RefundFailed",
      "type": "error"
    },
    {
      "inputs": [],
      "name": "SocialEngagementFeeTransferFailed",
      "type": "error"
    },
    {
      "inputs": [],
      "name": "SocialEngagementParametersNotConfigured",
      "type": "error"
    },
    {
      "inputs": [],
      "name": "Unauthorized",
      "type": "error"
    },
    {
      "anonymous": false,
      "inputs": [
        {
          "indexed": true,
          "internalType": "address",
          "name": "previousOwner",
          "type": "address"
        },
        {
          "indexed": true,
          "internalType": "address",
          "name": "newOwner",
          "type": "address"
        }
      ],
      "name": "OwnershipTransferred",
      "type": "event"
    },
    {
      "anonymous": false,
      "inputs": [
        {
          "indexed": true,
          "internalType": "address",
          "name": "pool",
          "type": "address"
        },
        {
          "indexed": true,
          "internalType": "address",
          "name": "creator",
          "type": "address"
        }
      ],
      "name": "PoolCreated",
      "type": "event"
    },
    {
      "anonymous": false,
      "inputs": [
        {
          "indexed": true,
          "internalType": "address",
          "name": "poolImplementation",
          "type": "address"
        }
      ],
      "name": "PoolImplementationUpdated",
      "type": "event"
    },
    {
      "anonymous": false,
      "inputs": [
        {
          "indexed": true,
          "internalType": "address",
          "name": "pool",
          "type": "address"
        },
        {
          "indexed": false,
          "internalType": "string",
          "name": "description",
          "type": "string"
        },
        {
          "indexed": false,
          "internalType": "string",
          "name": "twitterLink",
          "type": "string"
        },
        {
          "indexed": false,
          "internalType": "string",
          "name": "discordLink",
          "type": "string"
        },
        {
          "indexed": false,
          "internalType": "string",
          "name": "telegramLink",
          "type": "string"
        }
      ],
      "name": "PoolMetadataSet",
      "type": "event"
    },
    {
      "anonymous": false,
      "inputs": [
        {
          "indexed": true,
          "internalType": "address",
          "name": "collection",
          "type": "address"
        }
      ],
      "name": "PrizeCollectionCreated",
      "type": "event"
    },
    {
      "inputs": [
        {
          "components": [
            {
              "internalType": "string",
              "name": "name",
              "type": "string"
            },
            {
              "internalType": "uint256",
              "name": "startTime",
              "type": "uint256"
            },
            {
              "internalType": "uint256",
              "name": "duration",
              "type": "uint256"
            },
            {
              "internalType": "uint256",
              "name": "slotLimit",
              "type": "uint256"
            },
            {
              "internalType": "uint256",
              "name": "winnersCount",
              "type": "uint256"
            },
            {
              "internalType": "uint256",
              "name": "maxSlotsPerParticipant",
              "type": "uint256"
            },
            {
              "internalType": "bool",
              "name": "isPrized",
              "type": "bool"
            },
            {
              "internalType": "uint256",
              "name": "customSlotFee",
              "type": "uint256"
            },
            {
              "internalType": "bool",
              "name": "erc721Drop",
              "type": "bool"
            },
            {
              "internalType": "bool",
              "name": "erc1155Drop",
              "type": "bool"
            },
            {
              "internalType": "address",
              "name": "prizeCollection",
              "type": "address"
            },
            {
              "internalType": "enum PrizeTypes.Standard",
              "name": "standard",
              "type": "uint8"
            },
            {
              "internalType": "uint256",
              "name": "prizeTokenId",
              "type": "uint256"
            },
            {
              "internalType": "uint256",
              "name": "amountPerWinner",
              "type": "uint256"
            },
            {
              "internalType": "address",
              "name": "creator",
              "type": "address"
            },
            {
              "internalType": "address",
              "name": "erc20PrizeToken",
              "type": "address"
            },
            {
              "internalType": "uint256",
              "name": "erc20PrizeAmount",
              "type": "uint256"
            },
            {
              "internalType": "uint256",
              "name": "nativePrizeAmount",
              "type": "uint256"
            },
            {
              "internalType": "address",
              "name": "holderTokenAddress",
              "type": "address"
            },
            {
              "internalType": "enum PrizeTypes.Standard",
              "name": "holderTokenStandard",
              "type": "uint8"
            },
            {
              "internalType": "uint256",
              "name": "minHolderTokenBalance",
              "type": "uint256"
            },
            {
              "internalType": "uint256",
              "name": "holderTokenBalance",
              "type": "uint256"
            },
            {
              "internalType": "uint256",
              "name": "holderTokenId",
              "type": "uint256"
            },
            {
              "internalType": "bool",
              "name": "socialEngagementRequired",
              "type": "bool"
            },
            {
              "internalType": "string",
              "name": "socialTaskDescription",
              "type": "string"
            },
            {
              "internalType": "string",
              "name": "description",
              "type": "string"
            },
            {
              "internalType": "string",
              "name": "twitterLink",
              "type": "string"
            },
            {
              "internalType": "string",
              "name": "discordLink",
              "type": "string"
            },
            {
              "internalType": "string",
              "name": "telegramLink",
              "type": "string"
            }
          ],
          "internalType": "struct PoolDeployer.PoolParams",
          "name": "p",
          "type": "tuple"
        }
      ],
      "name": "createPool",
      "outputs": [
        {
          "internalType": "address",
          "name": "",
          "type": "address"
        }
      ],
      "stateMutability": "payable",
      "type": "function"
    },
    {
      "inputs": [
        {
          "internalType": "address",
          "name": "",
          "type": "address"
        }
      ],
      "name": "lastPoolCreationTime",
      "outputs": [
        {
          "internalType": "uint256",
          "name": "",
          "type": "uint256"
        }
      ],
      "stateMutability": "view",
      "type": "function"
    },
    {
      "inputs": [
        {
          "internalType": "address",
          "name": "",
          "type": "address"
        },
        {
          "internalType": "address",
          "name": "",
          "type": "address"
        },
        {
          "internalType": "uint256[]",
          "name": "",
          "type": "uint256[]"
        },
        {
          "internalType": "uint256[]",
          "name": "",
          "type": "uint256[]"
        },
        {
          "internalType": "bytes",
          "name": "",
          "type": "bytes"
        }
      ],
      "name": "onERC1155BatchReceived",
      "outputs": [
        {
          "internalType": "bytes4",
          "name": "",
          "type": "bytes4"
        }
      ],
      "stateMutability": "pure",
      "type": "function"
    },
    {
      "inputs": [
        {
          "internalType": "address",
          "name": "",
          "type": "address"
        },
        {
          "internalType": "address",
          "name": "",
          "type": "address"
        },
        {
          "internalType": "uint256",
          "name": "",
          "type": "uint256"
        },
        {
          "internalType": "uint256",
          "name": "",
          "type": "uint256"
        },
        {
          "internalType": "bytes",
          "name": "",
          "type": "bytes"
        }
      ],
      "name": "onERC1155Received",
      "outputs": [
        {
          "internalType": "bytes4",
          "name": "",
          "type": "bytes4"
        }
      ],
      "stateMutability": "pure",
      "type": "function"
    },
    {
      "inputs": [
        {
          "internalType": "address",
          "name": "",
          "type": "address"
        },
        {
          "internalType": "address",
          "name": "",
          "type": "address"
        },
        {
          "internalType": "uint256",
          "name": "",
          "type": "uint256"
        },
        {
          "internalType": "bytes",
          "name": "",
          "type": "bytes"
        }
      ],
      "name": "onERC721Received",
      "outputs": [
        {
          "internalType": "bytes4",
          "name": "",
          "type": "bytes4"
        }
      ],
      "stateMutability": "pure",
      "type": "function"
    },
    {
      "inputs": [],
      "name": "owner",
      "outputs": [
        {
          "internalType": "address",
          "name": "",
          "type": "address"
        }
      ],
      "stateMutability": "view",
      "type": "function"
    },
    {
      "inputs": [],
      "name": "poolImplementation",
      "outputs": [
        {
          "internalType": "address",
          "name": "",
          "type": "address"
        }
      ],
      "stateMutability": "view",
      "type": "function"
    },
    {
      "inputs": [],
      "name": "protocolManager",
      "outputs": [
        {
          "internalType": "address",
          "name": "",
          "type": "address"
        }
      ],
      "stateMutability": "view",
      "type": "function"
    },
    {
      "inputs": [],
      "name": "renounceOwnership",
      "outputs": [],
      "stateMutability": "nonpayable",
      "type": "function"
    },
    {
      "inputs": [
        {
          "internalType": "bytes4",
          "name": "interfaceId",
          "type": "bytes4"
        }
      ],
      "name": "supportsInterface",
      "outputs": [
        {
          "internalType": "bool",
          "name": "",
          "type": "bool"
        }
      ],
      "stateMutability": "view",
      "type": "function"
    },
    {
      "inputs": [
        {
          "internalType": "address",
          "name": "newOwner",
          "type": "address"
        }
      ],
      "name": "transferOwnership",
      "outputs": [],
      "stateMutability": "nonpayable",
      "type": "function"
    },
    {
      "inputs": [],
      "name": "transferOwnershipToManager",
      "outputs": [],
      "stateMutability": "nonpayable",
      "type": "function"
    },
    {
      "inputs": [
        {
          "internalType": "address",
          "name": "_poolImplementation",
          "type": "address"
        }
      ],
      "name": "updatePoolImplementation",
      "outputs": [],
      "stateMutability": "nonpayable",
      "type": "function"
    }
  ],
  "bytecode": "0x608034620000cc57601f62002f8738819003918201601f19168301916001600160401b03831184841017620000d1578084926040948552833981010312620000cc576200005a60206200005283620000e7565b9201620000e7565b60008054336001600160a01b0319808316821784556040519590946001600160a01b03949093859391908416907f8be0079c531659141344cd1fd0a4f28419497f9722a3daafe3b4186f6b6457e09080a31683600154161760015516906002541617600255612e8a9081620000fd8239f35b600080fd5b634e487b7160e01b600052604160045260246000fd5b51906001600160a01b0382168203620000cc5756fe608080604052600436101561001357600080fd5b600090813560e01c90816301ffc9a714612ab357508063065bc36f14612a04578063150b7a02146129ad57806359c7f8d414612974578063715018a61461291a5780637b5b7878146102e95780638da5cb5b146102c2578063a9dd230514610280578063ab4b669214610257578063bc197c81146101c7578063cefa77991461019e578063f23a6e61146101435763f2fde38b146100b057600080fd5b34610140576020366003190112610140576100c9612b08565b6100d1612b91565b6001600160a01b038116156100ec576100e990612be9565b80f35b60405162461bcd60e51b815260206004820152602660248201527f4f776e61626c653a206e6577206f776e657220697320746865207a65726f206160448201526564647265737360d01b6064820152608490fd5b80fd5b50346101405760a03660031901126101405761015d612b08565b50610166612b1e565b506084356001600160401b03811161019a57610186903690600401612b34565b505060405163f23a6e6160e01b8152602090f35b5080fd5b50346101405780600319360112610140576001546040516001600160a01b039091168152602090f35b50346101405760a0366003190112610140576101e1612b08565b506101ea612b1e565b506001600160401b036044358181116102535761020b903690600401612b61565b505060643581811161025357610225903690600401612b61565b505060843590811161019a5761023f903690600401612b34565b505060405163bc197c8160e01b8152602090f35b8280fd5b50346101405780600319360112610140576002546040516001600160a01b039091168152602090f35b503461014057806003193601126101405780546001600160a01b0390811633036102b1576100e99060025416612be9565b6040516282b42960e81b8152600490fd5b5034610140578060031936011261014057546040516001600160a01b039091168152602090f35b5060031960203682011261019a576001600160401b036004351161019a576103a09060043536030112610140573332036129095733815260036020526040812054610e1081018091116128f557421061288a57600254604051630fbeef3760e11b81526001600160a01b039091169190602081600481865afa9081156126c7578291612850575b508061283a575b6126d9575b61038b6102e460043501612c71565b156126d2576040516356d2e09960e11b8152602081600481865afa9081156126c7578291612695575b50915b604051636f6f8c5d60e01b815292602084600481855afa938415610f0d578394612661575b50829080151580612658575b6103f660c460043501612c71565b8061263e575b612626575b823410612614576124ff575b506040516320a72b6560e11b8152602081600481865afa9081156124965784916124c5575b506124b3574260246004350135106124a15761045260c460043501612c71565b604051635aa35d2560e11b81529015156004820152602081602481865afa908115612496578491612460575b5060408051639d0f5ef160e01b8152919082600481875afa91821561239257859261243d575b50606460043501351061242b57606460043501351161242b576084600435013515611a9257606460043501356084600435013511611a9257600435608401356064818102918204900361241757601e60646004350135818102929181840414901517156124035711611a92576040518060a08101106001600160401b0360a0830111176123ef5760a08101604052838152836020820152836040820152836060820152836080820152604051639d0f5ef160e01b8152604081600481875afa801561239257859186916123ce575b506020830152815260408051632f3dc77560e11b81529081600481875afa8015612392578591869161239d575b5060608301526040820152604051630547dd4760e31b8152602081600481875afa90811561239257859161235c575b506080820152604081015160446004350135101580612348575b156123105760a46004350135151590816122fc575b5061148f5761061060c460043501612c71565b6122a9575b60e46004350135151591829484908661063260c460043501612c71565b15612236575086156122305760e460043501355b925b83156113ef5761065d6101c460043501612cfe565b60546106b2610670600480350180612d12565b92908360405194859260208401976bffffffffffffffffffffffff199060601b1688524260348501528484013781018c83820152036034810184520182612c43565b519020600154608881901c62ffffff16763d602d80600a3d3981f3363d3d373d3d3d363d7300000017895260781b6effffffffffffffffffffffffffffff19166e5af43d82803e903d91602b57fd5bf3176020526037600989f56001600160a01b038116969087156121eb5761072d61014460043501612cfe565b99899461073f6102e460043501612c71565b6120ef575b61075260c460043501612c71565b6111ab575b50506107686101c460043501612cfe565b833b156111a7576040516001620bb01d60e11b031981526001600160a01b03928316600482015291166024820152426044820152888160648183875af18015610fe85790899161118f575b50506107c46101c460043501612cfe565b936107d461010460043501612c71565b801561117a575b8061115a575b611028575b88926107f761010460043501612c71565b8015611013575b80610ff3575b610f5c575b506004610164813501351015610f58576004356101640135600303610f51576102246004350135945b6002546001600160a01b03169661084e6004356101c401612cfe565b9161085d600480350180612d12565b909161086d60c460043501612c71565b946040519b8c6001600160401b036101c0828181011092011117610f33576101c08d016040908152908d526001600160a01b0391821660208e01529116908b01526108b781612c9d565b916108c56040519384612c43565b8183523682820111610f4d57818e92602092838601378301015260608901526024600435013560808901526044600435013560a08901526064600435013560c089015260e088015260a460043501356101008801526084600435013561012088015215156101408701521515610160860152151561018085015215156101a08401526109566101e460043501612cfe565b60405197886101008101106001600160401b036101008b011117610f3357610100890160405261098d61016460043501358a612e25565b6001600160a01b0390811660208a015260043561018481013560408b01526101a481013560608b01529116608089015261020481013560a089015261022481013560c089015290151560e08801526109e89061024401612cfe565b916004610264813501351015610f4957604051928360808101106001600160401b03608086011117610f3357608084016040526001600160a01b03168352610a3a600435610264013560208501612e25565b60043561028481013560408501526102c48101356060850152610a60906102e401612c71565b604051908160208101106001600160401b03602084011117610f33576020820160405215158152853b15610f2f57604080516306bc281960e21b81526101c06004820181905284516001600160a01b039081166101c4840152602086015181166101e484015292850151909216610204820152606084015161022482019290925281516103848201819052919990959193895b858110610f1857508685819794956060839760e08f9d9c976101a08f9c988d6103a4809b8b01015260808101516102448a015260a08101516102648a015260c08101516102848a0152838101516102a48a01526101008101516102c48a01526101208101516102e48a015261014081015115156103048a015261016081015115156103248a015261018081015115156103448a015201511515610364880152610ba0602488018251612e47565b6020818101516001600160a01b0390811660448a0152604083015160648a01528583015160848a01526080830151811660a48a015260a083015160c48a015260c083015160e48a0152929091015115156101048801528251909116610124870152810151610c1390610144870190612e47565b604081015161016486015201516101848401525115156101a4830152601f01601f19168101030191885af1908115610f0d578391610ef9575b5050610c589034612d9a565b80610ebd575b506001600160a01b039050610c786004356101c401612cfe565b169160405192827f4f2ce4e40f623ca765fc0167a25cb7842ceaafb8d82d3dec26ca0d0e0d2d48968380a361032460043501926103e8610cbd85600435600401612d12565b905011610eae5750610344600435019260c8610cde85600435600401612d12565b905011610e9c57610364600435019360c8610cfe86600435600401612d12565b905011610e8a57610384600435019060c8610d1e83600435600401612d12565b905011610e785760209583610d398795600435600401612d12565b1580159150610e5f575b8015610e46575b8015610e2d575b610d6e575b87858733815260038352604042912055604051908152f35b610dce610dc092610e127f4e2fb815c48f38871c1a97680d69ecfc7db86ce1f02e00f1f438d6bdbb92b3a096610ddc610e04610db2610e2097600435600401612d12565b989099600435600401612d12565b969095600435600401612d12565b929093600435600401612d12565b959096610df66040519b8c9b60808d5260808d0191612d44565b918a830360208c0152612d44565b918783036040890152612d44565b918483036060860152612d44565b0390a28184808080610d56565b50610e3d84600435600401612d12565b90501515610d51565b50610e5682600435600401612d12565b90501515610d4a565b50610e6f83600435600401612d12565b90501515610d43565b60405163621c786f60e01b8152600490fd5b60405163f94023a960e01b8152600490fd5b604051637a59f6af60e11b8152600490fd5b630d7cfc5960e41b8152600490fd5b81808092610ed06101c460043501612cfe565b5af1610eda612cb8565b5015610ee7578183610c5e565b604051633c31275160e21b8152600490fd5b610f0290612c30565b61019a578185610c4c565b6040513d85823e3d90fd5b80602080928e0101516103a4828b01015201610af3565b8680fd5b634e487b7160e01b600052604160045260246000fd5b8580fd5b8d80fd5b8894610832565b8880fd5b9092506020610f7061014460043501612cfe565b604051631a74b3f360e01b81526001600160a01b03909116600482015291829060249082905afa908115610fe8578991610fae575b50159138610809565b90506020813d602011610fe0575b81610fc960209383612c43565b81010312610f5857610fda90612c64565b38610fa5565b3d9150610fbc565b6040513d8b823e3d90fd5b506001600160a01b0361100b60043561014401612cfe565b161515610804565b5061102361012460043501612c71565b6107fe565b6004610164813501351015610f585760043561016401356110f957600460206001600160a01b0361105d833561014401612cfe565b1660405192838092638da5cb5b60e01b82525afa9081156110ee578a916110bf575b505b6110906101c460043501612cfe565b6001600160a01b0382811691161415806110b8575b6110b0575b506107e6565b9450386110aa565b50826110a5565b6110e1915060203d6020116110e7575b6110d98183612c43565b810190612c7e565b3861107f565b503d6110cf565b6040513d8c823e3d90fd5b600460206001600160a01b03611113833561014401612cfe565b1660405192838092638da5cb5b60e01b82525afa9081156110ee578a9161113b575b50611081565b611154915060203d6020116110e7576110d98183612c43565b38611135565b506001600160a01b0361117260043561014401612cfe565b1615156107e1565b5061118a61012460043501612c71565b6107db565b61119890612c30565b6111a35787386107b3565b8780fd5b8980fd5b6004610164819794973501351015611684576004356101640135600203611413575090506001600160a01b036111e660043561014401612cfe565b1661138d5761020460043501351561140157611218611212608460043501356102046004350135612da7565b15612dc7565b6113ef5760a460043501351561139f57610224600435013561138d576001928860206112a56001600160a01b036112546004356101e401612cfe565b166112646101c460043501612cfe565b6040516323b872dd60e01b81526001600160a01b03909116600480830191909152306024830152356102040135604482015293849283919082906064820190565b03925af180156110ee57611354575b506001600160a01b036112cc6004356101e401612cfe565b60405163a9059cbb60e01b81526001600160a01b038416600480830191909152356102040135602482015291602091839160449183918f91165af180156110ee5761131b575b505b3880610757565b6020813d60201161134c575b8161133460209383612c43565b810103126111a75761134590612c64565b5038611312565b3d9150611327565b6020813d602011611385575b8161136d60209383612c43565b810103126111a75761137e90612c64565b50386112b4565b3d9150611360565b604051631558dc5f60e31b8152600490fd5b60405162461bcd60e51b815260206004820152602260248201527f4d617820736c6f747320706572207061727469636970616e7420726571756972604482015261195960f21b6064820152608490fd5b604051633c8e6e6960e11b8152600490fd5b604051630193f71f60e51b8152600490fd5b60043561016401356003036114a1575090506001600160a01b0361143c6004356101e401612cfe565b1661138d576001600160a01b0361145860043561014401612cfe565b1661138d57611477611212608460043501356102246004350135612da7565b6113ef5760a460043501351561148f57600192611314565b604051631757938960e31b8152600490fd5b6004356101640135611ba95760016101a4600435013511611401576001600160a01b036114d360043561014401612cfe565b16151580611b93575b156116b9575050506001608460043501351161140157602460206001600160a01b0361150d60043561014401612cfe565b16604051928380926331a9108f60e11b8252610184600435013560048301525afa908115610fe857899161169a575b506001600160a01b036115546004356101c401612cfe565b166001600160a01b0390911603611688576001926001600160a01b0361157f60043561014401612cfe565b1661158f6101c460043501612cfe565b813b1561168457604051632142170760e11b81526001600160a01b039091166004808301919091523060248301523561018401356044820152908a9082908183816064810103925af180156110ee57908a91611670575b506001600160a01b03905061160060043561014401612cfe565b16803b156111a757604051632142170760e11b8152306004808301919091526001600160a01b03841660248301523561018401356044820152908a908290606490829084905af180156110ee57908a9161165c575b5050611314565b61166590612c30565b610f58578838611655565b61167990612c30565b610f585788386115e6565b8a80fd5b604051632d346a9760e01b8152600490fd5b6116b3915060203d6020116110e7576110d98183612c43565b3861153c565b9194916001600160a01b036116d360043561014401612cfe565b16151580611b7e575b6116e7575050611314565b9096509091506001600160a01b0361170460043561014401612cfe565b6040516301ffc9a760e01b81526380ac58cd60e01b6004820152911690602081602481855afa908115611b73578b91611b39575b5015611aed576040516301ffc9a760e01b8152637c97ded960e11b600482015290602090829060249082905afa9081156110ee578a91611aff575b5015611aed57600460206001600160a01b03611793833561014401612cfe565b1660405192838092633f6615ab60e11b82525afa9081156110ee578a91611ab6575b506084600435013511611aa45760016084600435013514611a9257610164600435013561138d57600460206001600160a01b036117f6833561014401612cfe565b1660405192838092638da5cb5b60e01b82525afa9081156110ee578a91611a73575b506118286101c460043501612cfe565b6001600160a01b039081169116036118be5785156118b9575060e460043501355b94905b6001600160a01b0361186360043561014401612cfe565b16803b156111a7576040516227675f60e01b81526001600160a01b03831660048083019190915235608401356024820152908a908290604490829084905af180156110ee57908a91156116555761166590612c30565b611849565b9094906001600160a01b036118d860043561014401612cfe565b1660c06118ea6101c460043501612cfe565b6040516317f6397960e01b81526001600160a01b03909116600482015291829060249082905afa9081156110ee578a918b928c928d92611a3a575b50156102b15761193491612d9a565b6084600435013511611a285761194f61010460043501612c71565b611a1f575b80611a0657509488916119f4575b6001600160a01b0361197960043561014401612cfe565b166119896101c460043501612cfe565b813b15611684576040516334ea162f60e11b81526001600160a01b0390911660048083019190915235608401356024820152908a9082908183816044810103925af180156110ee57908a916119e0575b505061184c565b6119e990612c30565b610f585788386119d9565b60405163805596b160e01b8152600490fd5b9150508060e46004350135036119f45793600190611962565b60019550611954565b604051630161dc7d60e21b8152600490fd5b92505050611a5f915060c03d8111611a6c575b611a578183612c43565b810190612d65565b9294919350389050611925565b503d611a4d565b611a8c915060203d6020116110e7576110d98183612c43565b38611818565b60405163c827d5c360e01b8152600490fd5b604051632fb7debb60e11b8152600490fd5b90506020813d602011611ae5575b81611ad160209383612c43565b81010312611ae05751386117b5565b600080fd5b3d9150611ac4565b6040516359071b0760e11b8152600490fd5b90506020813d602011611b31575b81611b1a60209383612c43565b810103126111a757611b2b90612c64565b38611773565b3d9150611b0d565b90506020813d602011611b6b575b81611b5460209383612c43565b8101031261168457611b6590612c64565b38611738565b3d9150611b47565b6040513d8d823e3d90fd5b50611b8e61010460043501612c71565b6116dc565b50611ba361010460043501612c71565b156114dc565b91949160043561016401356001036120b1576101a460043501351561206c576001600160a01b03611bdf60043561014401612cfe565b16151580612057575b611bf3575050611314565b9096509091506001600160a01b03611c1060043561014401612cfe565b6040516301ffc9a760e01b8152636cdb3d1360e11b6004820152911690602081602481855afa908115611b73578b9161201d575b5015611aed576040516301ffc9a760e01b81526315ba79c360e11b600482015290602090829060249082905afa9081156110ee578a91611fe3575b5015611aed5760016084600435013514611a925760043560848101356101a490910135808202919091049003611fcd57602460206001600160a01b03611cca60043561014401612cfe565b1660405192838092633570cb2960e21b8252610184600435013560048301525afa9081156110ee578a91611f9b575b506101a46004350135608460043501350211611aa457600460206001600160a01b03611d29833561014401612cfe565b1660405192838092638da5cb5b60e01b82525afa9081156110ee578a91611f7c575b50611d5b6101c460043501612cfe565b6001600160a01b03908116911603611dfb578515611df6575060e460043501355b94905b6001600160a01b03611d9660043561014401612cfe565b16803b156111a75789809160648b60405194859384926309de21c160e41b84526004840152610184600435013560248401526101a46004350135608460043501350260448401525af180156110ee57908a91156116555761166590612c30565b611d7c565b9094906001600160a01b03611e1560043561014401612cfe565b1660c0611e276101c460043501612cfe565b6040516317f6397960e01b81526001600160a01b03909116600482015291829060249082905afa9081156110ee578a918b928c928d92611f53575b50156102b157611e7191612d9a565b6084600435013511611a2857611e8c61012460043501612c71565b611f4a575b80611f3157509488916119f4575b6001600160a01b03611eb660043561014401612cfe565b16611ec66101c460043501612cfe565b813b15611684576040516334ea162f60e11b81526001600160a01b0390911660048083019190915235608401356024820152908a9082908183816044810103925af180156110ee57908a91611f1d575b5050611d7f565b611f2690612c30565b610f58578838611f16565b9150508060e46004350135036119f45793600190611e9f565b60019550611e91565b92505050611f6f915060c03d8111611a6c57611a578183612c43565b9294919350389050611e62565b611f95915060203d6020116110e7576110d98183612c43565b38611d4b565b90506020813d602011611fc5575b81611fb660209383612c43565b81010312611ae0575138611cf9565b3d9150611fa9565b634e487b7160e01b600052601160045260246000fd5b90506020813d602011612015575b81611ffe60209383612c43565b810103126111a75761200f90612c64565b38611c7f565b3d9150611ff1565b90506020813d60201161204f575b8161203860209383612c43565b810103126116845761204990612c64565b38611c44565b3d915061202b565b5061206761012460043501612c71565b611be8565b60405162461bcd60e51b815260206004820152601d60248201527f416d6f756e74207065722077696e6e6572206d757374206265203e20300000006044820152606490fd5b60405162461bcd60e51b8152602060048201526016602482015275556e737570706f72746564207072697a65207479706560501b6044820152606490fd5b604051636b90bda960e01b8152602081600481895afa9081156121af578c916121cc575b506001600160a01b038116156121ba5761213861030460043501600435600401612d12565b9091906001600160a01b0382163b15610f4d57918d9161217e93838f604051968795869485936386aec17960e01b85526004850152604060248501526044840191612d44565b03926001600160a01b03165af180156121af5761219c575b50610744565b6121a8909b919b612c30565b9938612196565b6040513d8e823e3d90fd5b6040516369ecf6c760e11b8152600490fd5b6121e5915060203d6020116110e7576110d98183612c43565b38612113565b60405162461bcd60e51b815260206004820152601760248201527f455243313136373a2063726561746532206661696c65640000000000000000006044820152606490fd5b80610646565b9450809286956113ef57600160a4600435013511612297576001600160a01b0361226560043561014401612cfe565b166122975761227961010460043501612c71565b612297576101846004350135612297576101a4600435013515610648575b604051630309cb8760e51b8152600490fd5b60646004350135808004600114901517156122e8576103e8606460043501350460a46004350135111561061557604051631757938960e31b8152600490fd5b634e487b7160e01b83526011600452602483fd5b60809150015160a4600435013511386105fd565b60405162461bcd60e51b815260206004820152601060248201526f24b73b30b634b210323ab930ba34b7b760811b6044820152606490fd5b5060608101516044600435013511156105e8565b90506020813d60201161238a575b8161237760209383612c43565b810103126123865751386105ce565b8480fd5b3d915061236a565b6040513d87823e3d90fd5b90506123c1915060403d6040116123c7575b6123b98183612c43565b810190612ce8565b3861059f565b503d6123af565b90506123e9915060403d6040116123c7576123b98183612c43565b38610572565b634e487b7160e01b84526041600452602484fd5b634e487b7160e01b85526011600452602485fd5b634e487b7160e01b84526011600452602484fd5b60405163ac255ca760e01b8152600490fd5b61245791925060403d6040116123c7576123b98183612c43565b905090386104a4565b90506020813d60201161248e575b8161247b60209383612c43565b8101031261248a57513861047e565b8380fd5b3d915061246e565b6040513d86823e3d90fd5b604051632ca4094f60e21b8152600490fd5b6040516316247b3f60e11b8152600490fd5b90506020813d6020116124f7575b816124e060209383612c43565b8101031261248a576124f190612c64565b38610432565b3d91506124d3565b60405163524d530b60e01b815290602082600481875afa9182156123925785926125f3575b506001600160a01b038216156125ae57604051906020820191635e5bc1c560e11b835281602482015260248152606081018181106001600160401b0382111761259a5760405251869384939192905af161257c612cb8565b5015612588573861040d565b604051635b5b44c760e01b8152600490fd5b634e487b7160e01b88526041600452602488fd5b60405162461bcd60e51b815260206004820152601760248201527f526576656e7565206d616e61676572206e6f74207365740000000000000000006044820152606490fd5b61260d91925060203d6020116110e7576110d98183612c43565b9038612524565b60405163dbc3a71f60e01b8152600490fd5b91610224600435013581018091116124035791610401565b5061016460043501356004811015610f49576003146103fc565b915080916103e8565b9093506020813d60201161268d575b8161267d60209383612c43565b81010312610253575192386103dc565b3d9150612670565b90506020813d6020116126bf575b816126b060209383612c43565b8101031261019a5751386103b4565b3d91506126a3565b6040513d84823e3d90fd5b80916103b7565b60405163120e97c560e21b8152602081600481865afa9081156126c757829161281b575b50604051634c0e35b160e01b815290602082600481875afa918215610f0d5783926127e7575b506001600160a01b031680156127aa576020602491604051928380926370a0823160e01b82523360048301525afa908115610f0d578391612778575b50101561037c5760405163cf57495560e01b8152600490fd5b90506020813d6020116127a2575b8161279360209383612c43565b8101031261025357513861275f565b3d9150612786565b60405162461bcd60e51b815260206004820152601560248201527410dc99585d1bdc881d1bdad95b881b9bdd081cd95d605a1b6044820152606490fd5b9091506020813d602011612813575b8161280360209383612c43565b8101031261025357519038612723565b3d91506127f6565b612834915060203d6020116110e7576110d98183612c43565b386126fd565b5061284a6102e460043501612c71565b15610377565b90506020813d602011612882575b8161286b60209383612c43565b8101031261019a5761287c90612c64565b38610370565b3d915061285e565b60405162461bcd60e51b815260206004820152603f60248201527f596f7572206c61737420706f6f6c20776173206372656174656420737563636560448201527f737366756c6c792c2074727920616761696e206166746572203120686f7572006064820152608490fd5b634e487b7160e01b82526011600452602482fd5b604051628b531560e01b8152600490fd5b5034610140578060031936011261014057612933612b91565b80546001600160a01b03198116825581906001600160a01b03167f8be0079c531659141344cd1fd0a4f28419497f9722a3daafe3b4186f6b6457e08280a380f35b5034610140576020366003190112610140576020906040906001600160a01b0361299c612b08565b168152600383522054604051908152f35b5034610140576080366003190112610140576129c7612b08565b506129d0612b1e565b506064356001600160401b03811161019a576129f0903690600401612b34565b5050604051630a85bd0160e11b8152602090f35b503461014057602036600319011261014057612a1e612b08565b612a26612b91565b6001600160a01b03168015612a6e57600180546001600160a01b031916821790557f1eed81ce21a92b04ae795cb172e51fb0f8c7f90ec3cd2dc2b4c6395d8d39456f8280a280f35b60405162461bcd60e51b815260206004820152601b60248201527f496e76616c696420506f6f6c20696d706c656d656e746174696f6e00000000006044820152606490fd5b90503461019a57602036600319011261019a5760043563ffffffff60e01b81168091036102535760209250630a85bd0160e11b8114908115612af7575b5015158152f35b630271189760e51b14905038612af0565b600435906001600160a01b0382168203611ae057565b602435906001600160a01b0382168203611ae057565b9181601f84011215611ae0578235916001600160401b038311611ae05760208381860195010111611ae057565b9181601f84011215611ae0578235916001600160401b038311611ae0576020808501948460051b010111611ae057565b6000546001600160a01b03163303612ba557565b606460405162461bcd60e51b815260206004820152602060248201527f4f776e61626c653a2063616c6c6572206973206e6f7420746865206f776e65726044820152fd5b600080546001600160a01b039283166001600160a01b03198216811783559216907f8be0079c531659141344cd1fd0a4f28419497f9722a3daafe3b4186f6b6457e09080a3565b6001600160401b038111610f3357604052565b90601f801991011681019081106001600160401b03821117610f3357604052565b51908115158203611ae057565b358015158103611ae05790565b90816020910312611ae057516001600160a01b0381168103611ae05790565b6001600160401b038111610f3357601f01601f191660200190565b3d15612ce3573d90612cc982612c9d565b91612cd76040519384612c43565b82523d6000602084013e565b606090565b9190826040910312611ae0576020825192015190565b356001600160a01b0381168103611ae05790565b903590601e1981360301821215611ae057018035906001600160401b038211611ae057602001918136038313611ae057565b908060209392818452848401376000828201840152601f01601f1916010190565b91908260c0910312611ae057612d7a82612c64565b9160208101519160408201519160608101519160a0608083015192015190565b91908203918211611fcd57565b8115612db1570690565b634e487b7160e01b600052601260045260246000fd5b15612dce57565b60405162461bcd60e51b815260206004820152602960248201527f5072697a6520616d6f756e74206d75737420626520646976697369626c652062604482015268792077696e6e65727360b81b6064820152608490fd5b6004821015612e315752565b634e487b7160e01b600052602160045260246000fd5b906004821015612e31575256fea2646970667358221220751830aae3f4054e3340929e14cf909dc1c09b2980a462c928c2ab5cff033a3064736f6c63430008130033",
  "linkReferences": {},
  "deployedLinkReferences": {}
}