{
  "_format": "hh-sol-artifact-1",
  "contractName": "PoolDeployer",
  "sourceName": "contracts/PoolDeployer.sol",
  "abi": [
    {
      "inputs": [
        {
          "internalType": "address",
          "name": "_poolImplementation",
          "type": "address"
        },
        {
          "internalType": "address",
          "name": "_manager",
          "type": "address"
        }
      ],
      "stateMutability": "nonpayable",
      "type": "constructor"
    },
    {
      "inputs": [],
      "name": "ApprovedSlotFeeMismatch",
      "type": "error"
    },
    {
      "inputs": [],
      "name": "AvailableSupplyInsufficient",
      "type": "error"
    },
    {
      "inputs": [],
      "name": "CollectioNameTaken",
      "type": "error"
    },
    {
      "inputs": [],
      "name": "CollectionNameTaken",
      "type": "error"
    },
    {
      "inputs": [],
      "name": "ContractsNotAllowed",
      "type": "error"
    },
    {
      "inputs": [],
      "name": "DescriptionTooLong",
      "type": "error"
    },
    {
      "inputs": [],
      "name": "ExceedsApprovedWinnerLimit",
      "type": "error"
    },
    {
      "inputs": [],
      "name": "InsufficientCreatorTokenBalance",
      "type": "error"
    },
    {
      "inputs": [],
      "name": "InsufficientNativeBalance",
      "type": "error"
    },
    {
      "inputs": [],
      "name": "InsufficientPrizeAmountForEscrow",
      "type": "error"
    },
    {
      "inputs": [],
      "name": "InvalidCollection",
      "type": "error"
    },
    {
      "inputs": [],
      "name": "InvalidDiscordLink",
      "type": "error"
    },
    {
      "inputs": [],
      "name": "InvalidMaxSlotsPerParticipant",
      "type": "error"
    },
    {
      "inputs": [],
      "name": "InvalidParameter",
      "type": "error"
    },
    {
      "inputs": [],
      "name": "InvalidPrizeAmount",
      "type": "error"
    },
    {
      "inputs": [],
      "name": "InvalidPrizeType",
      "type": "error"
    },
    {
      "inputs": [],
      "name": "InvalidSlotFee",
      "type": "error"
    },
    {
      "inputs": [],
      "name": "InvalidSlotLimitConfig",
      "type": "error"
    },
    {
      "inputs": [],
      "name": "InvalidStartTime",
      "type": "error"
    },
    {
      "inputs": [],
      "name": "InvalidTelegramLink",
      "type": "error"
    },
    {
      "inputs": [],
      "name": "InvalidTwitterLink",
      "type": "error"
    },
    {
      "inputs": [],
      "name": "InvalidWinnerConfig",
      "type": "error"
    },
    {
      "inputs": [],
      "name": "NotOwnerOfTokenID",
      "type": "error"
    },
    {
      "inputs": [],
      "name": "PoolCreationPaused",
      "type": "error"
    },
    {
      "inputs": [],
      "name": "PoolNameTaken",
      "type": "error"
    },
    {
      "inputs": [],
      "name": "RefundFailed",
      "type": "error"
    },
    {
      "inputs": [],
      "name": "SocialEngagementFeeTransferFailed",
      "type": "error"
    },
    {
      "inputs": [],
      "name": "SocialEngagementParametersNotConfigured",
      "type": "error"
    },
    {
      "inputs": [],
      "name": "Unauthorized",
      "type": "error"
    },
    {
      "anonymous": false,
      "inputs": [
        {
          "indexed": true,
          "internalType": "address",
          "name": "previousOwner",
          "type": "address"
        },
        {
          "indexed": true,
          "internalType": "address",
          "name": "newOwner",
          "type": "address"
        }
      ],
      "name": "OwnershipTransferred",
      "type": "event"
    },
    {
      "anonymous": false,
      "inputs": [
        {
          "indexed": true,
          "internalType": "address",
          "name": "pool",
          "type": "address"
        },
        {
          "indexed": true,
          "internalType": "address",
          "name": "creator",
          "type": "address"
        }
      ],
      "name": "PoolCreated",
      "type": "event"
    },
    {
      "anonymous": false,
      "inputs": [
        {
          "indexed": true,
          "internalType": "address",
          "name": "poolImplementation",
          "type": "address"
        }
      ],
      "name": "PoolImplementationUpdated",
      "type": "event"
    },
    {
      "anonymous": false,
      "inputs": [
        {
          "indexed": true,
          "internalType": "address",
          "name": "pool",
          "type": "address"
        },
        {
          "indexed": false,
          "internalType": "string",
          "name": "description",
          "type": "string"
        },
        {
          "indexed": false,
          "internalType": "string",
          "name": "twitterLink",
          "type": "string"
        },
        {
          "indexed": false,
          "internalType": "string",
          "name": "discordLink",
          "type": "string"
        },
        {
          "indexed": false,
          "internalType": "string",
          "name": "telegramLink",
          "type": "string"
        }
      ],
      "name": "PoolMetadataSet",
      "type": "event"
    },
    {
      "anonymous": false,
      "inputs": [
        {
          "indexed": true,
          "internalType": "address",
          "name": "collection",
          "type": "address"
        }
      ],
      "name": "PrizeCollectionCreated",
      "type": "event"
    },
    {
      "inputs": [
        {
          "components": [
            {
              "internalType": "string",
              "name": "name",
              "type": "string"
            },
            {
              "internalType": "uint256",
              "name": "startTime",
              "type": "uint256"
            },
            {
              "internalType": "uint256",
              "name": "duration",
              "type": "uint256"
            },
            {
              "internalType": "uint256",
              "name": "slotLimit",
              "type": "uint256"
            },
            {
              "internalType": "uint256",
              "name": "winnersCount",
              "type": "uint256"
            },
            {
              "internalType": "uint256",
              "name": "maxSlotsPerParticipant",
              "type": "uint256"
            },
            {
              "internalType": "bool",
              "name": "isPrized",
              "type": "bool"
            },
            {
              "internalType": "uint256",
              "name": "customSlotFee",
              "type": "uint256"
            },
            {
              "internalType": "bool",
              "name": "erc721Drop",
              "type": "bool"
            },
            {
              "internalType": "bool",
              "name": "erc1155Drop",
              "type": "bool"
            },
            {
              "internalType": "address",
              "name": "prizeCollection",
              "type": "address"
            },
            {
              "internalType": "enum PrizeTypes.Standard",
              "name": "standard",
              "type": "uint8"
            },
            {
              "internalType": "uint256",
              "name": "prizeTokenId",
              "type": "uint256"
            },
            {
              "internalType": "uint256",
              "name": "amountPerWinner",
              "type": "uint256"
            },
            {
              "internalType": "string",
              "name": "collectionName",
              "type": "string"
            },
            {
              "internalType": "string",
              "name": "collectionSymbol",
              "type": "string"
            },
            {
              "internalType": "string",
              "name": "collectionBaseURI",
              "type": "string"
            },
            {
              "internalType": "address",
              "name": "creator",
              "type": "address"
            },
            {
              "internalType": "uint256",
              "name": "royaltyPercentage",
              "type": "uint256"
            },
            {
              "internalType": "address",
              "name": "royaltyRecipient",
              "type": "address"
            },
            {
              "internalType": "uint256",
              "name": "maxSupply",
              "type": "uint256"
            },
            {
              "internalType": "address",
              "name": "erc20PrizeToken",
              "type": "address"
            },
            {
              "internalType": "uint256",
              "name": "erc20PrizeAmount",
              "type": "uint256"
            },
            {
              "internalType": "uint256",
              "name": "nativePrizeAmount",
              "type": "uint256"
            },
            {
              "internalType": "enum PrizeTypes.RevealType",
              "name": "revealType",
              "type": "uint8"
            },
            {
              "internalType": "string",
              "name": "unrevealedBaseURI",
              "type": "string"
            },
            {
              "internalType": "uint256",
              "name": "revealTime",
              "type": "uint256"
            },
            {
              "internalType": "address",
              "name": "holderTokenAddress",
              "type": "address"
            },
            {
              "internalType": "enum PrizeTypes.Standard",
              "name": "holderTokenStandard",
              "type": "uint8"
            },
            {
              "internalType": "uint256",
              "name": "minHolderTokenBalance",
              "type": "uint256"
            },
            {
              "internalType": "uint256",
              "name": "holderTokenBalance",
              "type": "uint256"
            },
            {
              "internalType": "uint256",
              "name": "holderTokenId",
              "type": "uint256"
            },
            {
              "internalType": "bool",
              "name": "socialEngagementRequired",
              "type": "bool"
            },
            {
              "internalType": "string",
              "name": "socialTaskDescription",
              "type": "string"
            },
            {
              "internalType": "string",
              "name": "description",
              "type": "string"
            },
            {
              "internalType": "string",
              "name": "twitterLink",
              "type": "string"
            },
            {
              "internalType": "string",
              "name": "discordLink",
              "type": "string"
            },
            {
              "internalType": "string",
              "name": "telegramLink",
              "type": "string"
            }
          ],
          "internalType": "struct PoolDeployer.PoolParams",
          "name": "p",
          "type": "tuple"
        }
      ],
      "name": "createPool",
      "outputs": [
        {
          "internalType": "address",
          "name": "",
          "type": "address"
        }
      ],
      "stateMutability": "payable",
      "type": "function"
    },
    {
      "inputs": [
        {
          "internalType": "address",
          "name": "",
          "type": "address"
        },
        {
          "internalType": "address",
          "name": "",
          "type": "address"
        },
        {
          "internalType": "uint256[]",
          "name": "",
          "type": "uint256[]"
        },
        {
          "internalType": "uint256[]",
          "name": "",
          "type": "uint256[]"
        },
        {
          "internalType": "bytes",
          "name": "",
          "type": "bytes"
        }
      ],
      "name": "onERC1155BatchReceived",
      "outputs": [
        {
          "internalType": "bytes4",
          "name": "",
          "type": "bytes4"
        }
      ],
      "stateMutability": "pure",
      "type": "function"
    },
    {
      "inputs": [
        {
          "internalType": "address",
          "name": "",
          "type": "address"
        },
        {
          "internalType": "address",
          "name": "",
          "type": "address"
        },
        {
          "internalType": "uint256",
          "name": "",
          "type": "uint256"
        },
        {
          "internalType": "uint256",
          "name": "",
          "type": "uint256"
        },
        {
          "internalType": "bytes",
          "name": "",
          "type": "bytes"
        }
      ],
      "name": "onERC1155Received",
      "outputs": [
        {
          "internalType": "bytes4",
          "name": "",
          "type": "bytes4"
        }
      ],
      "stateMutability": "pure",
      "type": "function"
    },
    {
      "inputs": [
        {
          "internalType": "address",
          "name": "",
          "type": "address"
        },
        {
          "internalType": "address",
          "name": "",
          "type": "address"
        },
        {
          "internalType": "uint256",
          "name": "",
          "type": "uint256"
        },
        {
          "internalType": "bytes",
          "name": "",
          "type": "bytes"
        }
      ],
      "name": "onERC721Received",
      "outputs": [
        {
          "internalType": "bytes4",
          "name": "",
          "type": "bytes4"
        }
      ],
      "stateMutability": "pure",
      "type": "function"
    },
    {
      "inputs": [],
      "name": "owner",
      "outputs": [
        {
          "internalType": "address",
          "name": "",
          "type": "address"
        }
      ],
      "stateMutability": "view",
      "type": "function"
    },
    {
      "inputs": [],
      "name": "poolImplementation",
      "outputs": [
        {
          "internalType": "address",
          "name": "",
          "type": "address"
        }
      ],
      "stateMutability": "view",
      "type": "function"
    },
    {
      "inputs": [],
      "name": "protocolManager",
      "outputs": [
        {
          "internalType": "address",
          "name": "",
          "type": "address"
        }
      ],
      "stateMutability": "view",
      "type": "function"
    },
    {
      "inputs": [],
      "name": "renounceOwnership",
      "outputs": [],
      "stateMutability": "nonpayable",
      "type": "function"
    },
    {
      "inputs": [
        {
          "internalType": "bytes4",
          "name": "interfaceId",
          "type": "bytes4"
        }
      ],
      "name": "supportsInterface",
      "outputs": [
        {
          "internalType": "bool",
          "name": "",
          "type": "bool"
        }
      ],
      "stateMutability": "view",
      "type": "function"
    },
    {
      "inputs": [
        {
          "internalType": "address",
          "name": "newOwner",
          "type": "address"
        }
      ],
      "name": "transferOwnership",
      "outputs": [],
      "stateMutability": "nonpayable",
      "type": "function"
    },
    {
      "inputs": [],
      "name": "transferOwnershipToManager",
      "outputs": [],
      "stateMutability": "nonpayable",
      "type": "function"
    },
    {
      "inputs": [
        {
          "internalType": "address",
          "name": "_poolImplementation",
          "type": "address"
        }
      ],
      "name": "updatePoolImplementation",
      "outputs": [],
      "stateMutability": "nonpayable",
      "type": "function"
    }
  ],
  "bytecode": "0x608034620000cc57601f6200397038819003918201601f19168301916001600160401b03831184841017620000d1578084926040948552833981010312620000cc576200005a60206200005283620000e7565b9201620000e7565b60008054336001600160a01b0319808316821784556040519590946001600160a01b03949093859391908416907f8be0079c531659141344cd1fd0a4f28419497f9722a3daafe3b4186f6b6457e09080a316836001541617600155169060025416176002556138739081620000fd8239f35b600080fd5b634e487b7160e01b600052604160045260246000fd5b51906001600160a01b0382168203620000cc5756fe60e080604052600436101561001357600080fd5b60009081803560e01c91826301ffc9a71461333157508163065bc36f14613283578163150b7a021461322d578163715018a6146131d45781638da5cb5b146131ae578163a9dd23051461317e578163ab4b669214613156578163bc197c81146130cb578163be79567e146101be57508063cefa779914610195578063f23a6e611461013a5763f2fde38b146100a757600080fd5b34610137576020366003190112610137576100c0613384565b6100c861340d565b6001600160a01b038116156100e3576100e090613465565b80f35b60405162461bcd60e51b815260206004820152602660248201527f4f776e61626c653a206e6577206f776e657220697320746865207a65726f206160448201526564647265737360d01b6064820152608490fd5b80fd5b50346101375760a036600319011261013757610154613384565b5061015d61339a565b506084356001600160401b0381116101915761017d9036906004016133b0565b505060405163f23a6e6160e01b8152602090f35b5080fd5b50346101375780600319360112610137576001546040516001600160a01b039091168152602090f35b826020366003190112610191576001600160401b0360043511610191576104c060043536036003190112610191573332036130ba57600254604051630fbeef3760e11b81526001600160a01b0390911690602081600481855afa908115610e22578491613080575b508061306a575b612f09575b610241610404600435016134ed565b15612f03576040516356d2e09960e11b8152602081600481855afa908115610e22578491612ed1575b505b604051636f6f8c5d60e01b815291602083600481845afa928315612ec6578593612e92575b50849180151580612e89575b6102ab60c4600435016134ed565b80612e6f575b612e57575b833410612e4557612d30575b506040516320a72b6560e11b8152602081600481855afa908115610ef6578691612cf6575b50612ce457426024600435013510612cd25761030760c4600435016134ed565b604051635aa35d2560e11b81529015156004820152602081602481855afa908115610ef6578691612ca0575b5060408051639d0f5ef160e01b8152919082600481865afa918215611dfb578792612c7d575b506064600435013510612c6b576064600435013511612c6b576084600435013515611a8557606460043501356084600435013511611a85576004356084013560648181029182049003612c5757601e6064600435013581810292918184041490151715612c435711611a85576040518060a08101106001600160401b0360a083011117612c2f5760a08101604052858152856020820152856040820152856060820152856080820152604051639d0f5ef160e01b8152604081600481865afa8015611dfb5787918891612c0e575b506020830152815260408051632f3dc77560e11b81529081600481865afa8015611dfb5787918891612bdd575b5060608301526040820152604051630547dd4760e31b8152602081600481865afa908115611dfb578791612bab575b506080820152604081015160446004350135101580612b97575b15612b5f5760a4600435013515159081612b4b575b50611490576104c560c4600435016134ed565b612af8575b60e46004350135151592839580876104e660c4600435016134ed565b15612a8557508715612a7f5760e460043501355b945b85156113ed57600154608881901c62ffffff16763d602d80600a3d3981f3363d3d373d3d3d363d7300000017835260781b6effffffffffffffffffffffffffffff19166e5af43d82803e903d91602b57fd5bf3176020526037600983f06001600160a01b038116979094908815612a415761057c610144600435016135a3565b94849261058e610404600435016134ed565b612947575b9b8b9c6105aa60c460049e9a9b9c9d9e35016134ed565b611196575b50506105c0610224600435016135a3565b6105cf610104600435016134ed565b8015611181575b80611161575b61102b575b60208a6004604051809b8193630f6e867360e01b83525af1978815611020578d98610fe7575b50893b15610fcf57604051630802bb2f60e41b81526001600160a01b038a166004820152602481018990528d9081818d8183816044810103925af18015610dfb57610fd3575b50506004610164813501351015610fcf576004356101640135600303610fc8576102e460043501359a5b6002546001600160a01b0316610692600435610224016135a3565b926106a16004803501806135b7565b90916106b160c4600435016134ed565b95604051948560a052856101a08101106001600160401b036101a088011117610fb257856101a061070697016040525260018060a01b0316602060a051015260018060a01b0316604060a0510152369161367c565b606060a051015260246004350135608060a05101526044600435013560a0805101526064600435013560c060a051015260e060a051015260a4600435013561010060a05101526084600435013561012060a0510152151561014060a0510152151561016060a0510152151561018060a05101526107886102a4600435016135a3565b9060405191826101008101106001600160401b0361010085011117610fb25761010083016040526107c0610164600435013584613731565b6001600160a01b03868116602085015260043561018481013560408601526101a48101356060860152911660808401526102c481013560a08401526102e481013560c084015290151560e083015261081b90610364016135a3565b6004610384813501351015610fae57604051908160808101106001600160401b03608084011117610fb257608082016040526001600160a01b0316815261086c600435610384013560208301613731565b6004356103a481013560408301526103e4810135606083015261089290610404016134ed565b6108a7610424600435016004356004016135b7565b9a9091604051928360408101106001600160401b03604086011117610fb2578e9c6108de926040860160405215158552369161367c565b60208301528b3b15610fae5760608b93610a9960209660408051988997889687966339225d9f60e21b88526101c0600489015260018060a01b0360a05151166101c489015260018060a01b038460a0510151166101e489015260018060a01b038560a05101511661020489015260e061096a8360a05101516101a06102248c01526103648b019061373d565b96608060a05101516102448b015260a0805101516102648b015260c060a05101516102848b01528160a05101516102a48b015261010060a05101516102c48b015261012060a05101516102e48b015261014060a051015115156103048b015261016060a051015115156103248b015261018060a051015115156103448b01526109f760248b01825161364c565b808601516001600160a01b0390811660448c01528782015160648c01528482015160848c01526080820151811660a48c015260a082015160c48c015260c082015160e48c015291015115156101048a015281511661012489015280840151610a64906101448a019061364c565b848101516101648901520151610184870152600319868503016101a4870152805115158452015191816020820152019061373d565b03918d5af1908115610fa3578891610f8b575b5050610ab8903461363f565b80610f4c575b5085610ace60c4600435016134ed565b80610f3a575b80610f1b575b610f13575b610aed60c4600435016134ed565b80610f01575b610e2d575b505050823b15610e065760405163032a136160e11b81526001600160a01b03831660048201526024810191909152838160448183875af1908115610e22578491610e0a575b5050610b4e610224600435016135a3565b90823b15610e06576040516299a00d60e61b81526001600160a01b039182166004820152911660248201524260448201529082908290606490829084905af18015610dfb57610de7575b506001600160a01b039050610bb2600435610224016135a3565b16817f4f2ce4e40f623ca765fc0167a25cb7842ceaafb8d82d3dec26ca0d0e0d2d48966040519480a361044460043501916103e8610bf5846004356004016135b7565b905011610dd85750610464600435019160c8610c16846004356004016135b7565b905011610dc657610484600435019260c8610c36856004356004016135b7565b905011610db4576104a4600435019060c8610c56836004356004016135b7565b905011610da25760209483610c7186956004356004016135b7565b1580159150610d89575b8015610d70575b8015610d57575b610c98575b8685604051908152f35b610cf8610cea92610d3c7f4e2fb815c48f38871c1a97680d69ecfc7db86ce1f02e00f1f438d6bdbb92b3a096610d06610d2e610cdc610d4a976004356004016135b7565b9890996004356004016135b7565b9690956004356004016135b7565b9290936004356004016135b7565b959096610d206040519b8c9b60808d5260808d01916135e9565b918a830360208c01526135e9565b9187830360408901526135e9565b9184830360608601526135e9565b0390a28083808080610c8e565b50610d67846004356004016135b7565b90501515610c89565b50610d80826004356004016135b7565b90501515610c82565b50610d99836004356004016135b7565b90501515610c7b565b60405163621c786f60e01b8152600490fd5b60405163f94023a960e01b8152600490fd5b604051637a59f6af60e11b8152600490fd5b630d7cfc5960e41b8152600490fd5b610df0906134ac565b610191578183610b98565b6040513d84823e3d90fd5b8380fd5b610e13906134ac565b610e1e578286610b3d565b8280fd5b6040513d86823e3d90fd5b15610e5557610e5157610e49908361016460043501359161377d565b868080610af8565b8480fd5b50600254604051631a74b3f360e01b81526001600160a01b038381166004830152909160209183916024918391165afa908115610ef6578691610eb8575b50610e9f575b50610e49565b610eb2908361016460043501359161377d565b86610e99565b90506020813d602011610eee575b81610ed3602093836134bf565b81010312610eea57610ee4906134e0565b88610e93565b8580fd5b3d9150610ec6565b6040513d88823e3d90fd5b506001600160a01b0383161515610af3565b506001610adf565b506001600160a01b03610f33600435610144016135a3565b1615610ada565b506001600160a01b0383161515610ad4565b958080809398610f61610224600435016135a3565b5af1610f6b613534565b5015610f7957869488610abe565b604051633c31275160e21b8152600490fd5b610f94906134ac565b610f9f57868a610aac565b8680fd5b6040513d8a823e3d90fd5b8a80fd5b634e487b7160e01b600052604160045260246000fd5b8c9a610677565b8c80fd5b610fdc906134ac565b610fcf578c8e61064d565b9097506020813d602011611018575b81611003602093836134bf565b810103126110135751968d610607565b600080fd5b3d9150610ff6565b6040513d8f823e3d90fd5b600461016481350135101561115d5760043561016401356110fc57600460206001600160a01b036110608335610144016135a3565b1660405192838092638da5cb5b60e01b82525afa9081156110f15789916110c2575b505b611093610224600435016135a3565b6001600160a01b0382811691161415806110bb575b6110b3575b506105e1565b90508d6110ad565b50836110a8565b6110e4915060203d6020116110ea575b6110dc81836134bf565b8101906134fa565b8e611082565b503d6110d2565b6040513d8b823e3d90fd5b600460206001600160a01b036111168335610144016135a3565b1660405192838092638da5cb5b60e01b82525afa9081156110f157899161113e575b50611084565b611157915060203d6020116110ea576110dc81836134bf565b8e611138565b8780fd5b506001600160a01b03611179600435610144016135a3565b1615156105dc565b50611191610124600435016134ed565b6105d6565b9193909297506004610164813501351015610fcf57600435610164013560020361141157506001600160a01b0390506111d4600435610144016135a3565b1661138b576102c46004350135156113ff57611206611200608460043501356102c460043501356136b3565b156136d3565b6113ed5760a460043501351561139d576102e4600435013561138b5789946001918660206112956001600160a01b036112446004356102a4016135a3565b16611254610224600435016135a3565b6040516323b872dd60e01b81526001600160a01b03909116600480830191909152306024830152356102c40135604482015293849283919082906064820190565b03925af18015610fa357611352575b508660206113016001600160a01b036112c26004356102a4016135a3565b60405163a9059cbb60e01b81526001600160a01b038e16600480830191909152356102c401356024820152948593929091169183919082906044820190565b03925af18015610fa357611319575b505b8c806105af565b6020813d60201161134a575b81611332602093836134bf565b8101031261115d57611343906134e0565b508c611310565b3d9150611325565b6020813d602011611383575b8161136b602093836134bf565b8101031261115d5761137c906134e0565b508c6112a4565b3d915061135e565b604051631558dc5f60e31b8152600490fd5b60405162461bcd60e51b815260206004820152602260248201527f4d617820736c6f747320706572207061727469636970616e7420726571756972604482015261195960f21b6064820152608490fd5b604051633c8e6e6960e11b8152600490fd5b604051630193f71f60e51b8152600490fd5b60043561016401356003036114a257506001600160a01b03905061143a6004356102a4016135a3565b1661138b576001600160a01b03611456600435610144016135a3565b1661138b57611475611200608460043501356102e460043501356136b3565b6113ed5760a46004350135156114905789946001915b611312565b604051631757938960e31b8152600490fd5b6004356101640135611e735760016101a46004350135116113ff578c6001600160a01b036114d5600435610144016135a3565b16151580611e5d575b156116cc5750505050600160846004350135116113ff57602460206001600160a01b03611510600435610144016135a3565b16604051928380926331a9108f60e11b8252610184600435013560048301525afa9081156116c1578b916116a2575b506001600160a01b03611557600435610224016135a3565b166001600160a01b03909116036116905789946001916001600160a01b03611584600435610144016135a3565b16611594610224600435016135a3565b90803b1561168c57604051632142170760e11b81526001600160a01b039092166004808401919091523060248401523561018401356044830152889082908183816064810103925af1908115610fa3578891611678575b506001600160a01b039050611605600435610144016135a3565b16803b1561115d57604051632142170760e11b8152306004808301919091526001600160a01b038b16602483015235610184013560448201529088908290818381606481015b03925af1908115610fa3578891611664575b5050611312565b61166d906134ac565b610f9f57868d61165d565b611681906134ac565b610f9f57868d6115eb565b8880fd5b604051632d346a9760e01b8152600490fd5b6116bb915060203d6020116110ea576110dc81836134bf565b8b61153f565b6040513d8d823e3d90fd5b929a9197909392906001600160a01b036116eb600435610144016135a3565b16151580611e48575b15611b36575060049150602090506001600160a01b036117188335610144016135a3565b1660405192838092633f6615ab60e11b82525afa908115611ae7578c91611b04575b506084600435013511611af257611756610144600435016135a3565b604051631a74b3f360e01b81526001600160a01b0390911660048201526020816024818c5afa908115611ae7578c91611aa9575b5015611a975760016084600435013514611a855783610fae57610164600435013561138b578a95600460206001600160a01b036117cb8335610144016135a3565b1660405192838092638da5cb5b60e01b82525afa908115610fa3578891611a66575b506117fd610224600435016135a3565b6001600160a01b0390811691160361189057891561188b575060e460043501355b98905b6001600160a01b03611838600435610144016135a3565b16803b1561115d576040516227675f60e01b81526001600160a01b038a16600480830191909152356084013560248201529088908290604490829084905af1908115610fa3578891611664575050611312565b61181e565b9095506001600160a01b036118aa600435610144016135a3565b168b60c06118bd610224600435016135a3565b6040516317f6397960e01b81526001600160a01b03909116600482015292839060249082905afa8015611a59578182938392611a1f575b5015611a0e576119039161363f565b60846004350135116119fc5761191e610104600435016134ed565b6119f3575b806119d75750978a906119c5578a955b6001600160a01b0361194a600435610144016135a3565b1661195a610224600435016135a3565b90803b1561168c576040516334ea162f60e11b81526001600160a01b0390921660048084019190915235608401356024830152889082908183816044810103925af1908115610fa35788916119b1575b5050611821565b6119ba906134ac565b610f9f57868d6119aa565b60405163805596b160e01b8152600490fd5b959850508460e46004350135036119c557899497600190611933565b60019650611923565b604051630161dc7d60e21b8152600490fd5b6040516282b42960e81b8152600490fd5b92505050611a44915060c03d8111611a52575b611a3c81836134bf565b81019061360a565b93505092909291908f6118f4565b503d611a32565b50604051903d90823e3d90fd5b611a7f915060203d6020116110ea576110dc81836134bf565b8d6117ed565b60405163c827d5c360e01b8152600490fd5b60405163517172a160e11b8152600490fd5b90506020813d602011611adf575b81611ac4602093836134bf565b81010312611adb57611ad5906134e0565b8c61178a565b8b80fd5b3d9150611ab7565b6040513d8e823e3d90fd5b604051632fb7debb60e11b8152600490fd5b90506020813d602011611b2e575b81611b1f602093836134bf565b8101031261101357518c61173a565b3d9150611b12565b919a509650906001600160a01b03611b53600435610144016135a3565b1661148b579550935050610164600435013561138b57611b78610104600435016134ed565b61138b5760016084600435013514611a855760846004350135610284600435013510611af2578893611baf610224600435016135a3565b93611bbf610264600435016135a3565b611bd46101c4600435016004356004016135b7565b909687608052611bef6101e4600435016004356004016135b7565b919092611c07610204600435016004356004016135b7565b94600361030460043501351015610fcf57611c2b60048035610324810191016135b7565b9c90933690611c399261367c565b943690611c459261367c565b943690611c519261367c565b993690611c5d9261367c565b60025460405163d63843cd60e01b81529591929190869081906001600160a01b03165a92600491602094fa958615611ae7578c96611e27575b506040516381a991f160e01b81526000600482015261016060248201529a8b958695611cc79061016488019061373d565b868103600319016044880152611cdc9161373d565b858103600319016064870152611cf19161373d565b6001600160a01b03928316608486015260043561024481013560a48701529190921660c485015261028481013560e4850152611d3790610104850190610304013561366f565b82810360031901610124840152611d4d9161373d565b61034460043501356101448301526001600160a01b03909316920381895a94602095f1948515610ef6578695611e06575b50846001600160a01b0381163b15610f9f576040516227675f60e01b81526001600160a01b0389166004808301919091523560840135602482015290879082908183816044810103926001600160a01b03165af1908115611dfb578791611de7575b5091611312565b611df0906134ac565b610eea57858c611de0565b6040513d89823e3d90fd5b611e2091955060203d6020116110ea576110dc81836134bf565b938b611d7e565b611e4191965060203d6020116110ea576110dc81836134bf565b9438611c96565b50611e58610104600435016134ed565b6116f4565b50611e6d610104600435016134ed565b156114de565b9295916004356101640135600103612909576101a46004350135156128c4578c916001600160a01b03611eab600435610144016135a3565b161515806128ae575b6001600160a01b03611ecb600435610144016135a3565b166121ac57505050505060016084600435013514611a8557611efa6101a460043501356084600435013561357a565b610284600435013510611af25760405163d63843cd60e01b81528a95906020816004818c5afa908115611dfb57879161218d575b50611f446101c4600435016004356004016135b7565b9190611f5b6101e4600435016004356004016135b7565b91611f71610204600435016004356004016135b7565b9590611f82610224600435016135a3565b93611f92610264600435016135a3565b916003610304600435013510156121895760209861201461202a9361209499611ffe611fc9610324600435016004356004016135b7565b9a909960405160c0526381a991f160e01b60c051526001600460c0510152610160602460c051015261016460c05101916135e9565b9160031960c051840301604460c05101526135e9565b9160031960c051840301606460c05101526135e9565b9360018060a01b0316608460c0510152610244600435013560a460c051015260018060a01b031660c460c0510152610284600435013560e460c051015261207e61010460c05101610304600435013561366f565b60031960c05184030161012460c05101526135e9565b60c080516103446004350135610144909101525191908290039082908a906001600160a01b03165af1948515610ef6578695612153575b856120e36101a460043501356084600435013561357a565b906001600160a01b0381163b1561168c576040516309de21c160e41b81526001600160a01b038b1660048083019190915235610184013560248201526044810192909252889082908183816064810103926001600160a01b03165af1908115610fa3578891611664575050611312565b945060203d602011612182575b8061217061217c9260c0516134bf565b60c0510160c0516134fa565b946120cb565b503d612160565b8e80fd5b6121a6915060203d6020116110ea576110dc81836134bf565b8c611f2e565b9894929397986000146124a257505050506121cc610144600435016135a3565b604051631a74b3f360e01b81526001600160a01b0390911660048201526020816024818b5afa9081156116c1578b91612468575b5015611a975761221d6101a460043501356084600435013561357a565b90600182106124155761228c60206001600160a01b03612242600435610144016135a3565b16612252610224600435016135a3565b604051627eeac760e11b81526001600160a01b03909116600480830191909152356101840135602482015292839190829081906044820190565b03915afa8015611ae75783918d916123e0575b50106123ce578a956001926001600160a01b036122c1600435610144016135a3565b166122d1610224600435016135a3565b90803b156123ca57604051637921219560e11b81526001600160a01b0390921660048084019190915230602484015235610184013560448301526064820183905260a06084830152600060a48301528990829081838160c4810103925af19081156110f15789916123b6575b506001600160a01b039050612357600435610144016135a3565b16803b1561168c57604051637921219560e11b8152306004808301919091526001600160a01b038c1660248301523561018401356044820152606481019290925260a06084830152600060a48301528890829081838160c4810161164b565b6123bf906134ac565b61115d57878e61233d565b8980fd5b604051632de4f3db60e01b8152600490fd5b9150506020813d60201161240d575b816123fc602093836134bf565b81010312610e51578290518d61229f565b3d91506123ef565b60405162461bcd60e51b815260206004820152602560248201527f546f74616c207072697a6520616d6f756e74206d757374206265206174206c65604482015264617374203160d81b6064820152608490fd5b90506020813d60201161249a575b81612483602093836134bf565b81010312610fae57612494906134e0565b8b612200565b3d9150612476565b92979193926001600160a01b036124be600435610144016135a3565b16151580612899575b6124d2575050611312565b9750995090506124e7610144600435016135a3565b604051631a74b3f360e01b81526001600160a01b0390911660048201526020816024818c5afa908115611ae7578c9161285f575b5015611a975760016084600435013514611a85576125466101a460043501356084600435013561357a565b908b602460206001600160a01b03612563600435610144016135a3565b1660405192838092633570cb2960e21b8252610184600435013560048301525afa908115610dfb5784929161282a575b5010611af2578b96600460206001600160a01b036125b58335610144016135a3565b1660405192838092638da5cb5b60e01b82525afa9081156110f157899161280b575b506125e7610224600435016135a3565b6001600160a01b03908116911603612686578a15612681575060e460043501355b99915b6001600160a01b03612622600435610144016135a3565b16803b1561168c576040516309de21c160e41b81526001600160a01b038b166004808301919091523561018401356024820152604481019290925288908290606490829084905af1908115610fa35788911561165d5761166d906134ac565b612608565b90999196506001600160a01b036126a2600435610144016135a3565b168c60c06126b5610224600435016135a3565b6040516317f6397960e01b81526001600160a01b03909116600482015292839060249082905afa8015611a595781829383926127e2575b5015611a0e576126fb9161363f565b60846004350135116119fc57612716610124600435016134ed565b6127d9575b806127bd5750988b916119c5578b965b6001600160a01b03612742600435610144016135a3565b16612752610224600435016135a3565b90803b156123ca576040516334ea162f60e11b81526001600160a01b0390921660048084019190915235608401356024830152899082908183816044810103925af19081156110f15789916127a9575b505061260b565b6127b2906134ac565b61115d57878e6127a2565b969150508560e46004350135036119c5578a959860019161272b565b60019a5061271b565b925050506127fe915060c03d8111611a5257611a3c81836134bf565b92949193503890506126ec565b612824915060203d6020116110ea576110dc81836134bf565b8e6125d7565b9150506020813d602011612857575b81612846602093836134bf565b81010312610eea578290518e612593565b3d9150612839565b90506020813d602011612891575b8161287a602093836134bf565b81010312611adb5761288b906134e0565b8c61251b565b3d915061286d565b506128a9610124600435016134ed565b6124c7565b506128be610124600435016134ed565b15611eb4565b60405162461bcd60e51b815260206004820152601d60248201527f416d6f756e74207065722077696e6e6572206d757374206265203e20300000006044820152606490fd5b60405162461bcd60e51b8152602060048201526016602482015275556e737570706f72746564207072697a65207479706560501b6044820152606490fd5b604051636b90bda960e01b81526020816004818d5afa908115611dfb578791612a22575b506001600160a01b03811615612a1057612990610424600435016004356004016135b7565b9091906001600160a01b0382163b1561168c579188916129d7938f8490604051968795869485936341f4672d60e11b855260048501526040602485015260448401916135e9565b03926001600160a01b03165af18015611dfb576129f5575b50610593565b612a049198999a9b9c506134ac565b849a999897968d6129ef565b6040516369ecf6c760e11b8152600490fd5b612a3b915060203d6020116110ea576110dc81836134bf565b8e61296b565b60405162461bcd60e51b8152602060048201526016602482015275115490cc4c4d8dce8818dc99585d194819985a5b195960521b6044820152606490fd5b826104fa565b9550829481966113ed57600160a4600435013511612ae6576001600160a01b03612ab4600435610144016135a3565b16612ae657612ac8610104600435016134ed565b612ae6576101846004350135612ae6576101a46004350135156104fc575b604051630309cb8760e51b8152600490fd5b6064600435013580800460011490151715612b37576103e8606460043501350460a4600435013511156104ca57604051631757938960e31b8152600490fd5b634e487b7160e01b85526011600452602485fd5b60809150015160a4600435013511866104b2565b60405162461bcd60e51b815260206004820152601060248201526f24b73b30b634b210323ab930ba34b7b760811b6044820152606490fd5b50606081015160446004350135111561049d565b90506020813d602011612bd5575b81612bc6602093836134bf565b81010312610f9f575187610483565b3d9150612bb9565b9050612c01915060403d604011612c07575b612bf981836134bf565b810190613564565b88610454565b503d612bef565b9050612c29915060403d604011612c0757612bf981836134bf565b88610427565b634e487b7160e01b86526041600452602486fd5b634e487b7160e01b87526011600452602487fd5b634e487b7160e01b86526011600452602486fd5b60405163ac255ca760e01b8152600490fd5b612c9791925060403d604011612c0757612bf981836134bf565b90509087610359565b90506020813d602011612cca575b81612cbb602093836134bf565b81010312610eea575186610333565b3d9150612cae565b604051632ca4094f60e21b8152600490fd5b6040516316247b3f60e11b8152600490fd5b90506020813d602011612d28575b81612d11602093836134bf565b81010312610eea57612d22906134e0565b866102e7565b3d9150612d04565b60405163524d530b60e01b815290602082600481865afa918215611dfb578792612e24575b506001600160a01b03821615612ddf57604051906020820191635e5bc1c560e11b835281602482015260248152606081018181106001600160401b03821117612dcb5760405251889384939192905af1612dad613534565b5015612db957856102c2565b604051635b5b44c760e01b8152600490fd5b634e487b7160e01b8a52604160045260248afd5b60405162461bcd60e51b815260206004820152601760248201527f526576656e7565206d616e61676572206e6f74207365740000000000000000006044820152606490fd5b612e3e91925060203d6020116110ea576110dc81836134bf565b9087612d55565b60405163dbc3a71f60e01b8152600490fd5b926102e460043501358101809111612c4357926102b6565b506101646004350135600481101561115d576003146102b1565b9250809261029d565b9092506020813d602011612ebe575b81612eae602093836134bf565b81010312610e5157519185610291565b3d9150612ea1565b6040513d87823e3d90fd5b90506020813d602011612efb575b81612eec602093836134bf565b81010312610e0657518461026a565b3d9150612edf565b8261026c565b60405163120e97c560e21b8152602081600481855afa908115610e2257849161304b575b50604051634c0e35b160e01b815290602082600481865afa918215612ec6578592613017575b506001600160a01b03168015612fda576020602491604051928380926370a0823160e01b82523360048301525afa908115612ec6578591612fa8575b5010156102325760405163cf57495560e01b8152600490fd5b90506020813d602011612fd2575b81612fc3602093836134bf565b81010312610e51575185612f8f565b3d9150612fb6565b60405162461bcd60e51b815260206004820152601560248201527410dc99585d1bdc881d1bdad95b881b9bdd081cd95d605a1b6044820152606490fd5b9091506020813d602011613043575b81613033602093836134bf565b81010312610e5157519085612f53565b3d9150613026565b613064915060203d6020116110ea576110dc81836134bf565b84612f2d565b5061307a610404600435016134ed565b1561022d565b90506020813d6020116130b2575b8161309b602093836134bf565b81010312610e06576130ac906134e0565b84610226565b3d915061308e565b604051628b531560e01b8152600490fd5b346101375760a0366003190112610137576130e4613384565b506130ed61339a565b506001600160401b03604435818111610e1e5761310e9036906004016133dd565b5050606435818111610e1e576131289036906004016133dd565b5050608435908111610191576131429036906004016133b0565b505060405163bc197c8160e01b8152602090f35b346101375780600319360112610137576002546040516001600160a01b039091168152602090f35b3461013757806003193601126101375780546001600160a01b039081163303611a0e576100e09060025416613465565b34610137578060031936011261013757546040516001600160a01b039091168152602090f35b346101375780600319360112610137576131ec61340d565b80546001600160a01b03198116825581906001600160a01b03167f8be0079c531659141344cd1fd0a4f28419497f9722a3daafe3b4186f6b6457e08280a380f35b3461013757608036600319011261013757613246613384565b5061324f61339a565b506064356001600160401b0381116101915761326f9036906004016133b0565b5050604051630a85bd0160e11b8152602090f35b346101375760203660031901126101375761329c613384565b6132a461340d565b6001600160a01b031680156132ec57600180546001600160a01b031916821790557f1eed81ce21a92b04ae795cb172e51fb0f8c7f90ec3cd2dc2b4c6395d8d39456f8280a280f35b60405162461bcd60e51b815260206004820152601b60248201527f496e76616c696420506f6f6c20696d706c656d656e746174696f6e00000000006044820152606490fd5b346101915760203660031901126101915760043563ffffffff60e01b8116809103610e1e5760209250630a85bd0160e11b8114908115613373575b5015158152f35b630271189760e51b1490508361336c565b600435906001600160a01b038216820361101357565b602435906001600160a01b038216820361101357565b9181601f84011215611013578235916001600160401b038311611013576020838186019501011161101357565b9181601f84011215611013578235916001600160401b038311611013576020808501948460051b01011161101357565b6000546001600160a01b0316330361342157565b606460405162461bcd60e51b815260206004820152602060248201527f4f776e61626c653a2063616c6c6572206973206e6f7420746865206f776e65726044820152fd5b600080546001600160a01b039283166001600160a01b03198216811783559216907f8be0079c531659141344cd1fd0a4f28419497f9722a3daafe3b4186f6b6457e09080a3565b6001600160401b038111610fb257604052565b90601f801991011681019081106001600160401b03821117610fb257604052565b5190811515820361101357565b3580151581036110135790565b9081602091031261101357516001600160a01b03811681036110135790565b6001600160401b038111610fb257601f01601f191660200190565b3d1561355f573d9061354582613519565b9161355360405193846134bf565b82523d6000602084013e565b606090565b9190826040910312611013576020825192015190565b8181029291811591840414171561358d57565b634e487b7160e01b600052601160045260246000fd5b356001600160a01b03811681036110135790565b903590601e198136030182121561101357018035906001600160401b0382116110135760200191813603831361101357565b908060209392818452848401376000828201840152601f01601f1916010190565b91908260c09103126110135761361f826134e0565b9160208101519160408201519160608101519160a0608083015192015190565b9190820391821161358d57565b9060048210156136595752565b634e487b7160e01b600052602160045260246000fd5b9060038210156136595752565b92919261368882613519565b9161369660405193846134bf565b829481845281830111611013578281602093846000960137010152565b81156136bd570690565b634e487b7160e01b600052601260045260246000fd5b156136da57565b60405162461bcd60e51b815260206004820152602960248201527f5072697a6520616d6f756e74206d75737420626520646976697369626c652062604482015268792077696e6e65727360b81b6064820152608490fd5b60048210156136595752565b919082519283825260005b848110613769575050826000602080949584010152601f8019910116010190565b602081830181015184830182015201613748565b91600481101561365957806137eb57506001600160a01b0391821691823b15611013576044600092836040519586948593633ebd684960e21b8552166004840152600160248401525af180156137df576137d45750565b6137dd906134ac565b565b6040513d6000823e3d90fd5b6001146137f6575050565b6001600160a01b0391821691823b15611013576044600092836040519586948593633ebd684960e21b8552166004840152600160248401525af180156137df576137d4575056fea2646970667358221220812a92d6693247cebbc2fbf10c251584888a8e3723442ceb1c7d0fd11986f56e64736f6c63430008130033",
  "linkReferences": {},
  "deployedLinkReferences": {}
}