{
  "_format": "hh-sol-artifact-1",
  "contractName": "Pool",
  "sourceName": "contracts/Pool.sol",
  "abi": [
    {
      "inputs": [
        {
          "internalType": "address",
          "name": "_factory",
          "type": "address"
        }
      ],
      "stateMutability": "nonpayable",
      "type": "constructor"
    },
    {
      "inputs": [],
      "name": "ArrayLengthMismatch",
      "type": "error"
    },
    {
      "inputs": [],
      "name": "BatchTooLarge",
      "type": "error"
    },
    {
      "inputs": [],
      "name": "CreatorNotAllowed",
      "type": "error"
    },
    {
      "inputs": [],
      "name": "ExceedsMaxSlots",
      "type": "error"
    },
    {
      "inputs": [],
      "name": "ExceedsSlotLimit",
      "type": "error"
    },
    {
      "inputs": [],
      "name": "ExceedsWinnersCount",
      "type": "error"
    },
    {
      "inputs": [],
      "name": "IncorrectPayment",
      "type": "error"
    },
    {
      "inputs": [],
      "name": "InvalidNonPrizedPurchase",
      "type": "error"
    },
    {
      "inputs": [],
      "name": "InvalidPoolState",
      "type": "error"
    },
    {
      "inputs": [],
      "name": "InvalidPrizeAmount",
      "type": "error"
    },
    {
      "inputs": [],
      "name": "InvalidPrizeCollection",
      "type": "error"
    },
    {
      "inputs": [],
      "name": "InvalidPrizeType",
      "type": "error"
    },
    {
      "inputs": [],
      "name": "InvalidState",
      "type": "error"
    },
    {
      "inputs": [],
      "name": "InvalidWinnerAddress",
      "type": "error"
    },
    {
      "inputs": [],
      "name": "MintingNotSupported",
      "type": "error"
    },
    {
      "inputs": [],
      "name": "NoPrizesClaimedYet",
      "type": "error"
    },
    {
      "inputs": [],
      "name": "NoPrizesToClaim",
      "type": "error"
    },
    {
      "inputs": [],
      "name": "NotAWinner",
      "type": "error"
    },
    {
      "inputs": [],
      "name": "OnlyOperator",
      "type": "error"
    },
    {
      "inputs": [],
      "name": "PoolDurationElapsed",
      "type": "error"
    },
    {
      "inputs": [],
      "name": "PoolNotActive",
      "type": "error"
    },
    {
      "inputs": [],
      "name": "PrizeTransferFailed",
      "type": "error"
    },
    {
      "inputs": [],
      "name": "ProtocolAdminNotAllowed",
      "type": "error"
    },
    {
      "inputs": [],
      "name": "SocialEngagementNotConfigured",
      "type": "error"
    },
    {
      "inputs": [],
      "name": "TimestampDelayIssue",
      "type": "error"
    },
    {
      "inputs": [],
      "name": "UnauthorizedCaller",
      "type": "error"
    },
    {
      "inputs": [],
      "name": "ZeroAddress",
      "type": "error"
    },
    {
      "inputs": [],
      "name": "ZeroQuantity",
      "type": "error"
    },
    {
      "inputs": [],
      "name": "ZeroSlotFee",
      "type": "error"
    },
    {
      "anonymous": false,
      "inputs": [
        {
          "indexed": false,
          "internalType": "string",
          "name": "reason",
          "type": "string"
        }
      ],
      "name": "BatchProcessingFailed",
      "type": "event"
    },
    {
      "anonymous": false,
      "inputs": [
        {
          "indexed": false,
          "internalType": "bytes",
          "name": "lowLevelData",
          "type": "bytes"
        }
      ],
      "name": "BatchProcessingFailedBytes",
      "type": "event"
    },
    {
      "anonymous": false,
      "inputs": [
        {
          "indexed": true,
          "internalType": "address",
          "name": "winner",
          "type": "address"
        },
        {
          "indexed": false,
          "internalType": "string",
          "name": "reason",
          "type": "string"
        }
      ],
      "name": "MintingFailed",
      "type": "event"
    },
    {
      "anonymous": false,
      "inputs": [
        {
          "indexed": true,
          "internalType": "address",
          "name": "previousOwner",
          "type": "address"
        },
        {
          "indexed": true,
          "internalType": "address",
          "name": "newOwner",
          "type": "address"
        }
      ],
      "name": "OwnershipTransferred",
      "type": "event"
    },
    {
      "anonymous": false,
      "inputs": [
        {
          "indexed": false,
          "internalType": "address",
          "name": "account",
          "type": "address"
        }
      ],
      "name": "Paused",
      "type": "event"
    },
    {
      "anonymous": false,
      "inputs": [
        {
          "indexed": false,
          "internalType": "uint256",
          "name": "timestamp",
          "type": "uint256"
        }
      ],
      "name": "PoolActivated",
      "type": "event"
    },
    {
      "anonymous": false,
      "inputs": [
        {
          "indexed": false,
          "internalType": "uint256",
          "name": "timestamp",
          "type": "uint256"
        }
      ],
      "name": "PoolEnded",
      "type": "event"
    },
    {
      "anonymous": false,
      "inputs": [
        {
          "indexed": true,
          "internalType": "address",
          "name": "winner",
          "type": "address"
        },
        {
          "indexed": false,
          "internalType": "uint256",
          "name": "amount",
          "type": "uint256"
        }
      ],
      "name": "PrizeClaimed",
      "type": "event"
    },
    {
      "anonymous": false,
      "inputs": [
        {
          "indexed": false,
          "internalType": "uint256",
          "name": "requestId",
          "type": "uint256"
        },
        {
          "indexed": true,
          "internalType": "address",
          "name": "caller",
          "type": "address"
        }
      ],
      "name": "RandomRequested",
      "type": "event"
    },
    {
      "anonymous": false,
      "inputs": [
        {
          "indexed": true,
          "internalType": "address",
          "name": "participant",
          "type": "address"
        },
        {
          "indexed": false,
          "internalType": "uint256",
          "name": "amount",
          "type": "uint256"
        }
      ],
      "name": "RefundClaimed",
      "type": "event"
    },
    {
      "anonymous": false,
      "inputs": [
        {
          "indexed": true,
          "internalType": "uint256",
          "name": "batchNumber",
          "type": "uint256"
        },
        {
          "indexed": false,
          "internalType": "uint256",
          "name": "participantCount",
          "type": "uint256"
        },
        {
          "indexed": false,
          "internalType": "uint256",
          "name": "shuffleStartIndex",
          "type": "uint256"
        },
        {
          "indexed": false,
          "internalType": "uint256",
          "name": "batchSize",
          "type": "uint256"
        }
      ],
      "name": "SelectionStarted",
      "type": "event"
    },
    {
      "anonymous": false,
      "inputs": [
        {
          "indexed": true,
          "internalType": "address",
          "name": "participant",
          "type": "address"
        },
        {
          "indexed": false,
          "internalType": "uint256",
          "name": "quantity",
          "type": "uint256"
        }
      ],
      "name": "SlotsPurchased",
      "type": "event"
    },
    {
      "anonymous": false,
      "inputs": [
        {
          "indexed": false,
          "internalType": "address",
          "name": "account",
          "type": "address"
        }
      ],
      "name": "Unpaused",
      "type": "event"
    },
    {
      "anonymous": false,
      "inputs": [
        {
          "indexed": false,
          "internalType": "address[]",
          "name": "winners",
          "type": "address[]"
        }
      ],
      "name": "WinnersSelected",
      "type": "event"
    },
    {
      "inputs": [
        {
          "internalType": "uint256",
          "name": "batchRandomSeed",
          "type": "uint256"
        }
      ],
      "name": "_processBatchWithRandomness",
      "outputs": [],
      "stateMutability": "nonpayable",
      "type": "function"
    },
    {
      "inputs": [
        {
          "internalType": "address",
          "name": "participant",
          "type": "address"
        }
      ],
      "name": "_processRefundExternal",
      "outputs": [
        {
          "internalType": "uint256",
          "name": "",
          "type": "uint256"
        }
      ],
      "stateMutability": "nonpayable",
      "type": "function"
    },
    {
      "inputs": [],
      "name": "amountPerWinner",
      "outputs": [
        {
          "internalType": "uint256",
          "name": "",
          "type": "uint256"
        }
      ],
      "stateMutability": "view",
      "type": "function"
    },
    {
      "inputs": [],
      "name": "batchCount",
      "outputs": [
        {
          "internalType": "uint256",
          "name": "",
          "type": "uint256"
        }
      ],
      "stateMutability": "view",
      "type": "function"
    },
    {
      "inputs": [
        {
          "internalType": "address[]",
          "name": "winnerAddresses",
          "type": "address[]"
        },
        {
          "internalType": "uint256[]",
          "name": "quantities",
          "type": "uint256[]"
        }
      ],
      "name": "batchMintToWinners",
      "outputs": [
        {
          "internalType": "uint256",
          "name": "successfulMints",
          "type": "uint256"
        }
      ],
      "stateMutability": "nonpayable",
      "type": "function"
    },
    {
      "inputs": [
        {
          "internalType": "uint256",
          "name": "",
          "type": "uint256"
        }
      ],
      "name": "batchRandomSeeds",
      "outputs": [
        {
          "internalType": "uint256",
          "name": "",
          "type": "uint256"
        }
      ],
      "stateMutability": "view",
      "type": "function"
    },
    {
      "inputs": [],
      "name": "claimCreatorPoints",
      "outputs": [],
      "stateMutability": "nonpayable",
      "type": "function"
    },
    {
      "inputs": [],
      "name": "claimParticipantPoints",
      "outputs": [],
      "stateMutability": "nonpayable",
      "type": "function"
    },
    {
      "inputs": [],
      "name": "claimPrize",
      "outputs": [],
      "stateMutability": "nonpayable",
      "type": "function"
    },
    {
      "inputs": [],
      "name": "claimRefund",
      "outputs": [],
      "stateMutability": "nonpayable",
      "type": "function"
    },
    {
      "inputs": [
        {
          "internalType": "address",
          "name": "",
          "type": "address"
        }
      ],
      "name": "claimedWins",
      "outputs": [
        {
          "internalType": "uint256",
          "name": "",
          "type": "uint256"
        }
      ],
      "stateMutability": "view",
      "type": "function"
    },
    {
      "inputs": [],
      "name": "closePool",
      "outputs": [],
      "stateMutability": "nonpayable",
      "type": "function"
    },
    {
      "inputs": [],
      "name": "creationFeePercentage",
      "outputs": [
        {
          "internalType": "uint256",
          "name": "",
          "type": "uint256"
        }
      ],
      "stateMutability": "view",
      "type": "function"
    },
    {
      "inputs": [],
      "name": "creator",
      "outputs": [
        {
          "internalType": "address",
          "name": "",
          "type": "address"
        }
      ],
      "stateMutability": "view",
      "type": "function"
    },
    {
      "inputs": [],
      "name": "currentBatchSize",
      "outputs": [
        {
          "internalType": "uint256",
          "name": "",
          "type": "uint256"
        }
      ],
      "stateMutability": "view",
      "type": "function"
    },
    {
      "inputs": [],
      "name": "deletePool",
      "outputs": [],
      "stateMutability": "nonpayable",
      "type": "function"
    },
    {
      "inputs": [],
      "name": "duration",
      "outputs": [
        {
          "internalType": "uint128",
          "name": "",
          "type": "uint128"
        }
      ],
      "stateMutability": "view",
      "type": "function"
    },
    {
      "inputs": [],
      "name": "endTime",
      "outputs": [
        {
          "internalType": "uint256",
          "name": "",
          "type": "uint256"
        }
      ],
      "stateMutability": "view",
      "type": "function"
    },
    {
      "inputs": [],
      "name": "erc20PrizeAmount",
      "outputs": [
        {
          "internalType": "uint256",
          "name": "",
          "type": "uint256"
        }
      ],
      "stateMutability": "view",
      "type": "function"
    },
    {
      "inputs": [],
      "name": "erc20PrizeToken",
      "outputs": [
        {
          "internalType": "address",
          "name": "",
          "type": "address"
        }
      ],
      "stateMutability": "view",
      "type": "function"
    },
    {
      "inputs": [],
      "name": "erc721EscrowClaimed",
      "outputs": [
        {
          "internalType": "bool",
          "name": "",
          "type": "bool"
        }
      ],
      "stateMutability": "view",
      "type": "function"
    },
    {
      "inputs": [],
      "name": "getParticipantsCount",
      "outputs": [
        {
          "internalType": "uint256",
          "name": "",
          "type": "uint256"
        }
      ],
      "stateMutability": "view",
      "type": "function"
    },
    {
      "inputs": [
        {
          "internalType": "address",
          "name": "participant",
          "type": "address"
        }
      ],
      "name": "getRefundableAmount",
      "outputs": [
        {
          "internalType": "uint256",
          "name": "",
          "type": "uint256"
        }
      ],
      "stateMutability": "view",
      "type": "function"
    },
    {
      "inputs": [],
      "name": "getSlotLimit",
      "outputs": [
        {
          "internalType": "uint256",
          "name": "",
          "type": "uint256"
        }
      ],
      "stateMutability": "view",
      "type": "function"
    },
    {
      "inputs": [
        {
          "internalType": "address",
          "name": "participant",
          "type": "address"
        }
      ],
      "name": "getSlotsPurchased",
      "outputs": [
        {
          "internalType": "uint256",
          "name": "",
          "type": "uint256"
        }
      ],
      "stateMutability": "view",
      "type": "function"
    },
    {
      "inputs": [
        {
          "internalType": "address",
          "name": "",
          "type": "address"
        }
      ],
      "name": "hasClaimedFeeRefund",
      "outputs": [
        {
          "internalType": "bool",
          "name": "",
          "type": "bool"
        }
      ],
      "stateMutability": "view",
      "type": "function"
    },
    {
      "inputs": [
        {
          "internalType": "address",
          "name": "",
          "type": "address"
        }
      ],
      "name": "hasCompletedSocialEngagement",
      "outputs": [
        {
          "internalType": "bool",
          "name": "",
          "type": "bool"
        }
      ],
      "stateMutability": "view",
      "type": "function"
    },
    {
      "inputs": [],
      "name": "holderData",
      "outputs": [
        {
          "internalType": "address",
          "name": "holderTokenAddress",
          "type": "address"
        },
        {
          "internalType": "enum PrizeTypes.Standard",
          "name": "holderTokenStandard",
          "type": "uint8"
        },
        {
          "internalType": "uint256",
          "name": "minHolderTokenBalance",
          "type": "uint256"
        },
        {
          "internalType": "uint256",
          "name": "holderTokenId",
          "type": "uint256"
        }
      ],
      "stateMutability": "view",
      "type": "function"
    },
    {
      "inputs": [],
      "name": "holderTokenAddress",
      "outputs": [
        {
          "internalType": "address",
          "name": "",
          "type": "address"
        }
      ],
      "stateMutability": "view",
      "type": "function"
    },
    {
      "inputs": [],
      "name": "holderTokenId",
      "outputs": [
        {
          "internalType": "uint256",
          "name": "",
          "type": "uint256"
        }
      ],
      "stateMutability": "view",
      "type": "function"
    },
    {
      "inputs": [],
      "name": "holderTokenStandard",
      "outputs": [
        {
          "internalType": "enum PrizeTypes.Standard",
          "name": "",
          "type": "uint8"
        }
      ],
      "stateMutability": "view",
      "type": "function"
    },
    {
      "inputs": [],
      "name": "i_vrfCoordinator",
      "outputs": [
        {
          "internalType": "contract VRFCoordinatorV2PlusInterface",
          "name": "",
          "type": "address"
        }
      ],
      "stateMutability": "view",
      "type": "function"
    },
    {
      "inputs": [
        {
          "components": [
            {
              "internalType": "address",
              "name": "manager",
              "type": "address"
            },
            {
              "internalType": "address",
              "name": "revenueRecipient",
              "type": "address"
            },
            {
              "internalType": "string",
              "name": "name",
              "type": "string"
            },
            {
              "internalType": "uint256",
              "name": "slotLimit",
              "type": "uint256"
            },
            {
              "internalType": "uint256",
              "name": "maxSlotsPerAddress",
              "type": "uint256"
            },
            {
              "internalType": "uint256",
              "name": "winnersCount",
              "type": "uint256"
            },
            {
              "internalType": "bool",
              "name": "isCollabPool",
              "type": "bool"
            },
            {
              "internalType": "bool",
              "name": "usesCustomFee",
              "type": "bool"
            },
            {
              "internalType": "bool",
              "name": "isExternalCollection",
              "type": "bool"
            },
            {
              "internalType": "bool",
              "name": "hasCreatorFeeDiscount",
              "type": "bool"
            },
            {
              "internalType": "uint256",
              "name": "protocolFeePercentage",
              "type": "uint256"
            },
            {
              "internalType": "uint256",
              "name": "creationFeePercentage",
              "type": "uint256"
            },
            {
              "internalType": "uint256",
              "name": "globalSlotFee",
              "type": "uint256"
            }
          ],
          "internalType": "struct Pool.PoolConfig",
          "name": "_poolConfig",
          "type": "tuple"
        },
        {
          "components": [
            {
              "internalType": "enum PrizeTypes.Standard",
              "name": "standard",
              "type": "uint8"
            },
            {
              "internalType": "address",
              "name": "prizeCollection",
              "type": "address"
            },
            {
              "internalType": "uint256",
              "name": "prizeTokenId",
              "type": "uint256"
            },
            {
              "internalType": "uint256",
              "name": "amountPerWinner",
              "type": "uint256"
            },
            {
              "internalType": "address",
              "name": "erc20PrizeToken",
              "type": "address"
            },
            {
              "internalType": "uint256",
              "name": "erc20PrizeAmount",
              "type": "uint256"
            },
            {
              "internalType": "uint256",
              "name": "nativePrizeAmount",
              "type": "uint256"
            },
            {
              "internalType": "bool",
              "name": "isEscrowedPrize",
              "type": "bool"
            }
          ],
          "internalType": "struct Pool.PrizeConfig",
          "name": "_prizeConfig",
          "type": "tuple"
        },
        {
          "components": [
            {
              "internalType": "address",
              "name": "holderTokenAddress",
              "type": "address"
            },
            {
              "internalType": "enum PrizeTypes.Standard",
              "name": "holderTokenStandard",
              "type": "uint8"
            },
            {
              "internalType": "uint256",
              "name": "minHolderTokenBalance",
              "type": "uint256"
            },
            {
              "internalType": "uint256",
              "name": "holderTokenId",
              "type": "uint256"
            }
          ],
          "internalType": "struct Pool.HolderConfig",
          "name": "_holderConfig",
          "type": "tuple"
        },
        {
          "internalType": "bool",
          "name": "_socialEngagementRequired",
          "type": "bool"
        },
        {
          "internalType": "address",
          "name": "_creator",
          "type": "address"
        },
        {
          "internalType": "uint256",
          "name": "_startTime",
          "type": "uint256"
        },
        {
          "internalType": "uint256",
          "name": "_duration",
          "type": "uint256"
        },
        {
          "internalType": "uint256",
          "name": "_slotFee",
          "type": "uint256"
        },
        {
          "internalType": "bool",
          "name": "_isPrized",
          "type": "bool"
        }
      ],
      "name": "initialize",
      "outputs": [],
      "stateMutability": "payable",
      "type": "function"
    },
    {
      "inputs": [],
      "name": "isCollabPool",
      "outputs": [
        {
          "internalType": "bool",
          "name": "",
          "type": "bool"
        }
      ],
      "stateMutability": "view",
      "type": "function"
    },
    {
      "inputs": [],
      "name": "isEscrowedPrize",
      "outputs": [
        {
          "internalType": "bool",
          "name": "",
          "type": "bool"
        }
      ],
      "stateMutability": "view",
      "type": "function"
    },
    {
      "inputs": [],
      "name": "isExternalCollection",
      "outputs": [
        {
          "internalType": "bool",
          "name": "",
          "type": "bool"
        }
      ],
      "stateMutability": "view",
      "type": "function"
    },
    {
      "inputs": [],
      "name": "isPrized",
      "outputs": [
        {
          "internalType": "bool",
          "name": "",
          "type": "bool"
        }
      ],
      "stateMutability": "view",
      "type": "function"
    },
    {
      "inputs": [],
      "name": "isRefundable",
      "outputs": [
        {
          "internalType": "bool",
          "name": "",
          "type": "bool"
        }
      ],
      "stateMutability": "view",
      "type": "function"
    },
    {
      "inputs": [],
      "name": "maxSlotsPerAddress",
      "outputs": [
        {
          "internalType": "uint256",
          "name": "",
          "type": "uint256"
        }
      ],
      "stateMutability": "view",
      "type": "function"
    },
    {
      "inputs": [],
      "name": "minHolderTokenBalance",
      "outputs": [
        {
          "internalType": "uint256",
          "name": "",
          "type": "uint256"
        }
      ],
      "stateMutability": "view",
      "type": "function"
    },
    {
      "inputs": [],
      "name": "mint",
      "outputs": [],
      "stateMutability": "nonpayable",
      "type": "function"
    },
    {
      "inputs": [],
      "name": "name",
      "outputs": [
        {
          "internalType": "string",
          "name": "",
          "type": "string"
        }
      ],
      "stateMutability": "view",
      "type": "function"
    },
    {
      "inputs": [],
      "name": "nativePrizeAmount",
      "outputs": [
        {
          "internalType": "uint256",
          "name": "",
          "type": "uint256"
        }
      ],
      "stateMutability": "view",
      "type": "function"
    },
    {
      "inputs": [
        {
          "internalType": "address",
          "name": "",
          "type": "address"
        },
        {
          "internalType": "address",
          "name": "",
          "type": "address"
        },
        {
          "internalType": "uint256[]",
          "name": "",
          "type": "uint256[]"
        },
        {
          "internalType": "uint256[]",
          "name": "",
          "type": "uint256[]"
        },
        {
          "internalType": "bytes",
          "name": "",
          "type": "bytes"
        }
      ],
      "name": "onERC1155BatchReceived",
      "outputs": [
        {
          "internalType": "bytes4",
          "name": "",
          "type": "bytes4"
        }
      ],
      "stateMutability": "pure",
      "type": "function"
    },
    {
      "inputs": [
        {
          "internalType": "address",
          "name": "",
          "type": "address"
        },
        {
          "internalType": "address",
          "name": "",
          "type": "address"
        },
        {
          "internalType": "uint256",
          "name": "",
          "type": "uint256"
        },
        {
          "internalType": "uint256",
          "name": "",
          "type": "uint256"
        },
        {
          "internalType": "bytes",
          "name": "",
          "type": "bytes"
        }
      ],
      "name": "onERC1155Received",
      "outputs": [
        {
          "internalType": "bytes4",
          "name": "",
          "type": "bytes4"
        }
      ],
      "stateMutability": "pure",
      "type": "function"
    },
    {
      "inputs": [
        {
          "internalType": "address",
          "name": "",
          "type": "address"
        },
        {
          "internalType": "address",
          "name": "",
          "type": "address"
        },
        {
          "internalType": "uint256",
          "name": "",
          "type": "uint256"
        },
        {
          "internalType": "bytes",
          "name": "",
          "type": "bytes"
        }
      ],
      "name": "onERC721Received",
      "outputs": [
        {
          "internalType": "bytes4",
          "name": "",
          "type": "bytes4"
        }
      ],
      "stateMutability": "pure",
      "type": "function"
    },
    {
      "inputs": [],
      "name": "owner",
      "outputs": [
        {
          "internalType": "address",
          "name": "",
          "type": "address"
        }
      ],
      "stateMutability": "view",
      "type": "function"
    },
    {
      "inputs": [
        {
          "internalType": "uint256",
          "name": "",
          "type": "uint256"
        }
      ],
      "name": "participants",
      "outputs": [
        {
          "internalType": "address",
          "name": "",
          "type": "address"
        }
      ],
      "stateMutability": "view",
      "type": "function"
    },
    {
      "inputs": [],
      "name": "paused",
      "outputs": [
        {
          "internalType": "bool",
          "name": "",
          "type": "bool"
        }
      ],
      "stateMutability": "view",
      "type": "function"
    },
    {
      "inputs": [],
      "name": "pendingProtocolFee",
      "outputs": [
        {
          "internalType": "uint256",
          "name": "",
          "type": "uint256"
        }
      ],
      "stateMutability": "view",
      "type": "function"
    },
    {
      "inputs": [],
      "name": "poolData",
      "outputs": [
        {
          "internalType": "string",
          "name": "name",
          "type": "string"
        },
        {
          "internalType": "uint256",
          "name": "winnersCount",
          "type": "uint256"
        },
        {
          "internalType": "uint256",
          "name": "maxSlotsPerAddress",
          "type": "uint256"
        },
        {
          "internalType": "uint256",
          "name": "slotLimit",
          "type": "uint256"
        },
        {
          "internalType": "address",
          "name": "revenueRecipient",
          "type": "address"
        },
        {
          "internalType": "bool",
          "name": "isCollabPool",
          "type": "bool"
        },
        {
          "internalType": "bool",
          "name": "usesCustomFee",
          "type": "bool"
        },
        {
          "internalType": "bool",
          "name": "isExternalCollection",
          "type": "bool"
        },
        {
          "internalType": "bool",
          "name": "isRefundable",
          "type": "bool"
        },
        {
          "internalType": "bool",
          "name": "erc721EscrowClaimed",
          "type": "bool"
        },
        {
          "internalType": "bool",
          "name": "isEscrowedPrize",
          "type": "bool"
        },
        {
          "internalType": "bool",
          "name": "wasDeletedForFullRefund",
          "type": "bool"
        },
        {
          "internalType": "bool",
          "name": "protocolFeeCalculated",
          "type": "bool"
        },
        {
          "internalType": "bool",
          "name": "randomRequested",
          "type": "bool"
        },
        {
          "internalType": "bool",
          "name": "randomnessUsed",
          "type": "bool"
        },
        {
          "internalType": "bool",
          "name": "socialEngagementRequired",
          "type": "bool"
        },
        {
          "internalType": "bool",
          "name": "hasCreatorFeeDiscount",
          "type": "bool"
        }
      ],
      "stateMutability": "view",
      "type": "function"
    },
    {
      "inputs": [],
      "name": "poolSubscriptionId",
      "outputs": [
        {
          "internalType": "uint256",
          "name": "",
          "type": "uint256"
        }
      ],
      "stateMutability": "view",
      "type": "function"
    },
    {
      "inputs": [
        {
          "internalType": "address",
          "name": "participant",
          "type": "address"
        }
      ],
      "name": "prizeClaimed",
      "outputs": [
        {
          "internalType": "uint256",
          "name": "",
          "type": "uint256"
        }
      ],
      "stateMutability": "view",
      "type": "function"
    },
    {
      "inputs": [],
      "name": "prizeCollection",
      "outputs": [
        {
          "internalType": "address",
          "name": "",
          "type": "address"
        }
      ],
      "stateMutability": "view",
      "type": "function"
    },
    {
      "inputs": [],
      "name": "prizeData",
      "outputs": [
        {
          "internalType": "enum PrizeTypes.Standard",
          "name": "standard",
          "type": "uint8"
        },
        {
          "internalType": "address",
          "name": "prizeCollection",
          "type": "address"
        },
        {
          "internalType": "uint256",
          "name": "prizeTokenId",
          "type": "uint256"
        },
        {
          "internalType": "uint256",
          "name": "amountPerWinner",
          "type": "uint256"
        },
        {
          "internalType": "address",
          "name": "erc20PrizeToken",
          "type": "address"
        },
        {
          "internalType": "uint256",
          "name": "erc20PrizeAmount",
          "type": "uint256"
        },
        {
          "internalType": "uint256",
          "name": "nativePrizeAmount",
          "type": "uint256"
        },
        {
          "internalType": "uint256",
          "name": "prizesClaimedCount",
          "type": "uint256"
        }
      ],
      "stateMutability": "view",
      "type": "function"
    },
    {
      "inputs": [],
      "name": "prizeTokenId",
      "outputs": [
        {
          "internalType": "uint256",
          "name": "",
          "type": "uint256"
        }
      ],
      "stateMutability": "view",
      "type": "function"
    },
    {
      "inputs": [],
      "name": "prizesClaimedCount",
      "outputs": [
        {
          "internalType": "uint256",
          "name": "",
          "type": "uint256"
        }
      ],
      "stateMutability": "view",
      "type": "function"
    },
    {
      "inputs": [],
      "name": "protocolFeeCalculated",
      "outputs": [
        {
          "internalType": "bool",
          "name": "",
          "type": "bool"
        }
      ],
      "stateMutability": "view",
      "type": "function"
    },
    {
      "inputs": [],
      "name": "protocolFeePercentage",
      "outputs": [
        {
          "internalType": "uint256",
          "name": "",
          "type": "uint256"
        }
      ],
      "stateMutability": "view",
      "type": "function"
    },
    {
      "inputs": [
        {
          "internalType": "uint256",
          "name": "quantity",
          "type": "uint256"
        },
        {
          "internalType": "uint256",
          "name": "_deadline",
          "type": "uint256"
        },
        {
          "internalType": "bytes",
          "name": "_signature",
          "type": "bytes"
        },
        {
          "internalType": "uint256[]",
          "name": "_tokenIds",
          "type": "uint256[]"
        }
      ],
      "name": "purchaseSlots",
      "outputs": [],
      "stateMutability": "payable",
      "type": "function"
    },
    {
      "inputs": [],
      "name": "randomRequested",
      "outputs": [
        {
          "internalType": "bool",
          "name": "",
          "type": "bool"
        }
      ],
      "stateMutability": "view",
      "type": "function"
    },
    {
      "inputs": [],
      "name": "randomSeed",
      "outputs": [
        {
          "internalType": "uint256",
          "name": "",
          "type": "uint256"
        }
      ],
      "stateMutability": "view",
      "type": "function"
    },
    {
      "inputs": [],
      "name": "randomnessUsed",
      "outputs": [
        {
          "internalType": "bool",
          "name": "",
          "type": "bool"
        }
      ],
      "stateMutability": "view",
      "type": "function"
    },
    {
      "inputs": [
        {
          "internalType": "uint256",
          "name": "requestId",
          "type": "uint256"
        },
        {
          "internalType": "uint256[]",
          "name": "randomWords",
          "type": "uint256[]"
        }
      ],
      "name": "rawFulfillRandomWords",
      "outputs": [],
      "stateMutability": "nonpayable",
      "type": "function"
    },
    {
      "inputs": [
        {
          "internalType": "address",
          "name": "",
          "type": "address"
        }
      ],
      "name": "refundableAmount",
      "outputs": [
        {
          "internalType": "uint256",
          "name": "",
          "type": "uint256"
        }
      ],
      "stateMutability": "view",
      "type": "function"
    },
    {
      "inputs": [
        {
          "internalType": "address",
          "name": "",
          "type": "address"
        }
      ],
      "name": "refundedNonWinningSlots",
      "outputs": [
        {
          "internalType": "uint256",
          "name": "",
          "type": "uint256"
        }
      ],
      "stateMutability": "view",
      "type": "function"
    },
    {
      "inputs": [],
      "name": "renounceOwnership",
      "outputs": [],
      "stateMutability": "nonpayable",
      "type": "function"
    },
    {
      "inputs": [],
      "name": "requestRandomness",
      "outputs": [],
      "stateMutability": "nonpayable",
      "type": "function"
    },
    {
      "inputs": [],
      "name": "revenueData",
      "outputs": [
        {
          "internalType": "uint256",
          "name": "protocolFeePercentage",
          "type": "uint256"
        },
        {
          "internalType": "uint256",
          "name": "creationFeePercentage",
          "type": "uint256"
        },
        {
          "internalType": "uint256",
          "name": "totalCreatorRevenue",
          "type": "uint256"
        },
        {
          "internalType": "uint256",
          "name": "totalRefundableAmount",
          "type": "uint256"
        },
        {
          "internalType": "uint256",
          "name": "totalGlobalFeeRevenue",
          "type": "uint256"
        },
        {
          "internalType": "uint256",
          "name": "pendingProtocolFee",
          "type": "uint256"
        }
      ],
      "stateMutability": "view",
      "type": "function"
    },
    {
      "inputs": [],
      "name": "revenueRecipient",
      "outputs": [
        {
          "internalType": "address",
          "name": "",
          "type": "address"
        }
      ],
      "stateMutability": "view",
      "type": "function"
    },
    {
      "inputs": [],
      "name": "s_vrf_lastRequestId",
      "outputs": [
        {
          "internalType": "uint256",
          "name": "",
          "type": "uint256"
        }
      ],
      "stateMutability": "view",
      "type": "function"
    },
    {
      "inputs": [],
      "name": "shuffleStartIndex",
      "outputs": [
        {
          "internalType": "uint256",
          "name": "",
          "type": "uint256"
        }
      ],
      "stateMutability": "view",
      "type": "function"
    },
    {
      "inputs": [],
      "name": "slotFee",
      "outputs": [
        {
          "internalType": "uint256",
          "name": "",
          "type": "uint256"
        }
      ],
      "stateMutability": "view",
      "type": "function"
    },
    {
      "inputs": [],
      "name": "slotLimit",
      "outputs": [
        {
          "internalType": "uint256",
          "name": "",
          "type": "uint256"
        }
      ],
      "stateMutability": "view",
      "type": "function"
    },
    {
      "inputs": [
        {
          "internalType": "address",
          "name": "",
          "type": "address"
        }
      ],
      "name": "slotsPurchased",
      "outputs": [
        {
          "internalType": "uint256",
          "name": "",
          "type": "uint256"
        }
      ],
      "stateMutability": "view",
      "type": "function"
    },
    {
      "inputs": [],
      "name": "socialEngagementRequired",
      "outputs": [
        {
          "internalType": "bool",
          "name": "",
          "type": "bool"
        }
      ],
      "stateMutability": "view",
      "type": "function"
    },
    {
      "inputs": [],
      "name": "standard",
      "outputs": [
        {
          "internalType": "enum PrizeTypes.Standard",
          "name": "",
          "type": "uint8"
        }
      ],
      "stateMutability": "view",
      "type": "function"
    },
    {
      "inputs": [],
      "name": "startTime",
      "outputs": [
        {
          "internalType": "uint128",
          "name": "",
          "type": "uint128"
        }
      ],
      "stateMutability": "view",
      "type": "function"
    },
    {
      "inputs": [],
      "name": "state",
      "outputs": [
        {
          "internalType": "enum IPool.PoolState",
          "name": "",
          "type": "uint8"
        }
      ],
      "stateMutability": "view",
      "type": "function"
    },
    {
      "inputs": [
        {
          "internalType": "bytes4",
          "name": "interfaceId",
          "type": "bytes4"
        }
      ],
      "name": "supportsInterface",
      "outputs": [
        {
          "internalType": "bool",
          "name": "",
          "type": "bool"
        }
      ],
      "stateMutability": "view",
      "type": "function"
    },
    {
      "inputs": [
        {
          "internalType": "uint256",
          "name": "",
          "type": "uint256"
        }
      ],
      "name": "tokenIdClaimedBy",
      "outputs": [
        {
          "internalType": "address",
          "name": "",
          "type": "address"
        }
      ],
      "stateMutability": "view",
      "type": "function"
    },
    {
      "inputs": [],
      "name": "totalCreatorRevenue",
      "outputs": [
        {
          "internalType": "uint256",
          "name": "",
          "type": "uint256"
        }
      ],
      "stateMutability": "view",
      "type": "function"
    },
    {
      "inputs": [],
      "name": "totalGlobalFeeRevenue",
      "outputs": [
        {
          "internalType": "uint256",
          "name": "",
          "type": "uint256"
        }
      ],
      "stateMutability": "view",
      "type": "function"
    },
    {
      "inputs": [],
      "name": "totalRefundableAmount",
      "outputs": [
        {
          "internalType": "uint256",
          "name": "",
          "type": "uint256"
        }
      ],
      "stateMutability": "view",
      "type": "function"
    },
    {
      "inputs": [
        {
          "internalType": "address",
          "name": "newOwner",
          "type": "address"
        }
      ],
      "name": "transferOwnership",
      "outputs": [],
      "stateMutability": "nonpayable",
      "type": "function"
    },
    {
      "inputs": [],
      "name": "usesCustomFee",
      "outputs": [
        {
          "internalType": "bool",
          "name": "",
          "type": "bool"
        }
      ],
      "stateMutability": "view",
      "type": "function"
    },
    {
      "inputs": [],
      "name": "wasDeletedForFullRefund",
      "outputs": [
        {
          "internalType": "bool",
          "name": "",
          "type": "bool"
        }
      ],
      "stateMutability": "view",
      "type": "function"
    },
    {
      "inputs": [
        {
          "internalType": "uint256",
          "name": "",
          "type": "uint256"
        }
      ],
      "name": "winners",
      "outputs": [
        {
          "internalType": "address",
          "name": "",
          "type": "address"
        }
      ],
      "stateMutability": "view",
      "type": "function"
    },
    {
      "inputs": [],
      "name": "winnersCount",
      "outputs": [
        {
          "internalType": "uint256",
          "name": "",
          "type": "uint256"
        }
      ],
      "stateMutability": "view",
      "type": "function"
    },
    {
      "inputs": [],
      "name": "winnersSelected",
      "outputs": [
        {
          "internalType": "uint256",
          "name": "",
          "type": "uint256"
        }
      ],
      "stateMutability": "view",
      "type": "function"
    },
    {
      "inputs": [
        {
          "internalType": "address",
          "name": "",
          "type": "address"
        }
      ],
      "name": "winsPerAddress",
      "outputs": [
        {
          "internalType": "uint256",
          "name": "",
          "type": "uint256"
        }
      ],
      "stateMutability": "view",
      "type": "function"
    },
    {
      "inputs": [],
      "name": "withdrawCreatorRevenue",
      "outputs": [],
      "stateMutability": "nonpayable",
      "type": "function"
    },
    {
      "inputs": [],
      "name": "withdrawProtocolRevenue",
      "outputs": [],
      "stateMutability": "nonpayable",
      "type": "function"
    }
  ],
  "bytecode": "0x60a034620000bb57601f620060bc38819003918201601f19168301916001600160401b03831184841017620000c057808492602094604052833981010312620000bb57516001600160a01b03908181168103620000bb576000543360018060a01b0319821617600055604051923391167f8be0079c531659141344cd1fd0a4f28419497f9722a3daafe3b4186f6b6457e0600080a36001805560ff1960025416600255608052615fe59081620000d7823960805181612cad0152f35b600080fd5b634e487b7160e01b600052604160045260246000fdfe6080604090808252600436101561001557600080fd5b60009160e0918335831c90816301ffc9a714613b8e5750806302d05d3f14613b655780630631c5c214613b4657806306f1305614613b2757806306fdde0314613af257806308521974146134525780630aa00e7014613ad35780630b747d9114613ab45780630b78824b14613a955780630e4fa15814613a6e5780630fb5a6b414613a4c5780631249c58b146135e9578063128f4ba4146135ca578063150b7a02146135735780631ae25dd0146135245780631fe543e31461348a57806325444fa4146134525780632c1fecfe1461342b5780633197cbb61461340e578063321679fa146133ef578063327bb1ad1461106457806335c1d349146133ac5780633b26314d146133835780633c75cd2414612c2c578063400214341461281557806341a35b34146127e857806342b72afa146127b157806344a909861461279257806348a3a4501461276b578063497138111461274c5780634e3ff4601461270e5780634f7f0fc0146126d05780635755248e146126b15780635a3b7e421461268a5780635c975abb146126665780635f369a3214611c8857806366805de514611c6f578063677375c314611c50578063683d193614611c29578063696917ba14611c025780636e61a16014611bdb5780636e8b38db14611bac57806370740ac914611853578063715018a6146117f95780637184062914611173578063740e21981461114657806378e979251461111e578063813e88b9146110ff578063837d1128146110d857806387213c35146110b15780638778d82c14611088578063888dc19814611069578063898b36db146110645780638bc53285146110455780638bfbbcbe1461102c5780638d7fe478146110065780638da5cb5b14610fde5780638e50e50914610fbf57806394f5c9dc14610f755780639ed5c1cc14610f4c578063a0dca61714610f21578063a177ec0914610ef5578063a2fb117514610e98578063a67d0e6c14610e79578063ae4b82c114610e50578063aebc455014610e23578063af78ed0a14610e04578063b0b606c014610dcf578063b15825ae14610da8578063b5545a3c14610d79578063b5ad841214610baf578063bc197c8114610b23578063c19d93fb14610ae0578063c2e784bd14610ac1578063c3fa0e3b14610aa2578063c58fe16214610a83578063cabfaa1814610a64578063cc7d49ec14610a3d578063d0d11ae814610a1e578063d17d1359146109e6578063d447e9bc1461098f578063d91043f2146109c7578063dc8a55c21461098f578063e511a11b14610957578063e620decf14610930578063e6f12cf714610911578063f23a6e61146108b7578063f2fde38b14610828578063f8413b0714610673578063fb687df414610646578063fd22b17c1461059c578063fd75a1f11461052b5763fee151ae1461042457600080fd5b346105275782600319360112610527576104669250610441613dad565b91600a5491600b5491600c54600d549383859451988998610220808b528a0190613be3565b966020890152870152606086015260018060a01b038216608086015260ff918291828260a01c16151560a0880152828260a81c16151560c0880152828260b01c16151581880152828260b81c161515610100880152828260c01c161515610120880152828260c81c161515610140880152828260d01c161515610160880152828260d81c1615156101808801521c1615156101a0850152808260e81c1615156101c08501528160f01c1615156101e084015260f81c15156102008301520390f35b8280fd5b50346105275782600319360112610527576101009250600e5491600f54916010549260018060a01b03938460115416906012549260135494601454978151996105778b60ff8316613c7c565b60081c1660208a01528801526060870152608086015260a085015260c0840152820152f35b838234610642578160031936011261064257815481516336b87bd760e11b815233600482015290602090829060249082906001600160a01b03165afa908115610636578391610608575b50156105f857506105f561584b565b80f35b516327e1f1e560e01b8152600490fd5b610629915060203d811161062f575b6106218183613d8c565b810190614706565b836105e6565b503d610617565b505051903d90823e3d90fd5b5080fd5b838234610642578160031936011261064257600e54905160089190911c6001600160a01b03168152602090f35b503461052757826003193601126105275761068c613fb7565b42101561081b575b6106a761069f613fb7565b4210156140a6565b6007549160ff8360a81c16600881101561080757600281149081156107fc575b50806107ef575b15610775576015546001600160a01b039081166107a557602754600a54116107a1575b602b5415938461078d575b1633148015610779575b1561077557600d54901c60ff166107325750610725575b6105f56143bf565b61072d615a04565b61071d565b5162461bcd60e51b815260206004820152601960248201527f5265717565737420616c726561647920696e20666c69676874000000000000006044820152606490fd5b8380fd5b503384526025602052818420541515610706565b610795613fb7565b4210156106fc575b8580fd5b8480fd5b600a546032810290808204603214901517156107db576064900480156107d3575b60275410156106f1578480fd5b5060016107c6565b634e487b7160e01b86526011600452602486fd5b50602b54600a54116106ce565b6003915014386106c7565b634e487b7160e01b85526021600452602485fd5b6108236153de565b610694565b83823461064257602036600319011261064257610843613c23565b9061084c613e59565b6001600160a01b0382161561086557506105f590613eb1565b5162461bcd60e51b815260206004820152602660248201527f4f776e61626c653a206e6577206f776e657220697320746865207a65726f206160448201526564647265737360d01b6064820152608490fd5b8382346106425760a0366003190112610642576108d2613c23565b506108db613c39565b50608435916001600160401b03831161090e57506108ff6020923690600401613c4f565b50505163f23a6e6160e01b8152f35b80fd5b838234610642578160031936011261064257602090601c549051908152f35b83823461064257816003193601126106425760209060ff600d5460d81c1690519015158152f35b8382346106425760203660031901126106425760209181906001600160a01b0361097f613c23565b1681526022845220549051908152f35b8382346106425760203660031901126106425760209181906001600160a01b036109b7613c23565b168152601f845220549051908152f35b8382346106425781600319360112610642576020906019549051908152f35b8382346106425760203660031901126106425760209181906001600160a01b03610a0e613c23565b168152601e845220549051908152f35b8382346106425781600319360112610642576020906013549051908152f35b83823461064257816003193601126106425760209060ff600d5460d01c1690519015158152f35b8382346106425781600319360112610642576020906027549051908152f35b838234610642578160031936011261064257602090600b549051908152f35b838234610642578160031936011261064257602090601d549051908152f35b8382346106425781600319360112610642576020906004549051908152f35b83823461064257816003193601126106425760ff60075460a81c169051906008811015610b0f57602092508152f35b634e487b7160e01b83526021600452602483fd5b8382346106425760a036600319011261064257610b3e613c23565b50610b47613c39565b506001600160401b039160443583811161064257610b69903690600401613c9f565b505060643583811161064257610b83903690600401613c9f565b505060843592831161090e5750610ba06020923690600401613c4f565b50505163bc197c8160e01b8152f35b838234610642578160031936011261064257610bc9614050565b600d546001600160a01b0390818116338190036107a15760ff60075460a81c166008811015610d6557908160058794931461077557600781146107755760ff8360b01c16600014610d455760069192935003610d0b579084915b601a549182156107755783928392610c63610c59612710610c5187966019549060f81c610d03575b86613fec565b0480946143b2565b9284601a55615a90565b5af1610c6d6141dd565b5015610527576020602491610c80615c37565b845416835192838092630425172560e31b82523060048301525afa918215610cfa57508291610cc4575b50610cb7575b6001805580f35b610cbf6159ac565b610cb0565b90506020813d8211610cf2575b81610cde60209383613d8c565b81010312610ced575182610caa565b600080fd5b3d9150610cd1565b513d84823e3d90fd5b60011c610c4b565b835162461bcd60e51b815260206004820152601360248201527210d85b9b9bdd081dda5d1a191c985dc81e595d606a1b6044820152606490fd5b60048114908115610d5a575b50610c23578280fd5b600691501487610d51565b634e487b7160e01b86526021600452602486fd5b833461090e578060031936011261090e57610d92614050565b610d9b33614aab565b1561090e57610cb0615672565b83823461064257816003193601126106425760209060ff600d5460b01c1690519015158152f35b83823461064257602036600319011261064257600435825260236020908152918190205490516001600160a01b039091168152f35b838234610642578160031936011261064257602090601a549051908152f35b838234610642578160031936011261064257600254905160089190911c6001600160a01b03168152602090f35b838234610642576020366003190112610642578060209260043581526026845220549051908152f35b8382346106425781600319360112610642576020906005549051908152f35b838234610642576020366003190112610642576004356028548110156105275760286000527fe16da923a2d88192e5070f37b4571d58682c0d66212ec634d495f33de3f77ab5015490516001600160a01b03909116815260209150f35b838234610642578160031936011261064257602090610f1f60ff60155460a01c1691518092613c7c565bf35b833461090e578060031936011261090e576007546001600160a01b0316330361090e576105f5615c37565b83823461064257816003193601126106425760115490516001600160a01b039091168152602090f35b83823461064257816003193601126106425760c0906018549060195490601a54601b5490601c5492601d5494815196875260208701528501526060840152608083015260a0820152f35b8382346106425781600319360112610642576020906018549051908152f35b838234610642578160031936011261064257905490516001600160a01b039091168152602090f35b50823461090e578060031936011261090e5750600d549051911c60ff1615158152602090f35b833461090e578060031936011261090e576105f56151d1565b838234610642578160031936011261064257602090602b549051908152f35b613ccf565b8382346106425781600319360112610642576020906014549051908152f35b83823461064257816003193601126106425760155490516001600160a01b039091168152602090f35b83823461064257816003193601126106425760209060ff600d5460f01c1690519015158152f35b83823461064257816003193601126106425760209060ff600d5460a81c1690519015158152f35b8382346106425781600319360112610642576020906010549051908152f35b8382346106425781600319360112610642576020906001600160801b03600654169051908152f35b8382346106425760203660031901126106425760209061116c611167613c23565b6147fe565b9051908152f35b50823461090e578160031936011261090e576001600160401b0391600435838111610527576111a6903690600401613c9f565b929093602435908111610642576111c1903690600401613c9f565b94906111cb614050565b60075460ff8160a81c16600881101561080757600403610775578686036107755785156107755760328611610775576001600160a01b0390811633036116c0575b600e5493818560081c169485156116af5760ff600d5460c81c166116275760ff1681805b89821061164c5750506004811015611638578061147e57508097815b888110611303575050505050505061126f60209361126861472e565b80936143b2565b80611280575b506001805551908152f35b6112fa7fbcd905a8eb4cc473497e2cd24cf41334ea7fad80c354380f8fff04a025b1e5f8918351907402130ba31b41031b7b6b83632ba32b2103bb4ba341605d1b87830152603582015268206661696c7572657360b81b6055820152603e81526112e981613d71565b835191829187835287830190613be3565b0390a183611275565b611316611311828b8961471e565b613f3b565b61132182848861471e565b35883b156107a15789516340c10f1960e01b81526001600160a01b038316600482015260248101829052858082604481838f5af1918261146a575b505061142e5750906001918261137061414e565b6308c379a0146113e6575b611388575b505b0161124c565b6113906141dd565b50600080516020615f50833981519152868b51921691806113dd816060906020815260176020820152762637bb96b632bb32b61036b4b73a34b7339032b93937b960491b60408201520190565b0390a28b611380565b6113ee61416c565b806113fa575b5061137b565b90508590600080516020615f508339815191528c51806114256020948583528c881695830190613be3565b0390a28d6113f4565b9a6001929b8661146493168652601f6020528a862061144e828254613fff565b905561145d6014918254613fff565b90556146f7565b99611382565b61147390613d5e565b61079d57858e61135c565b600195908603611627578198825b8981106114a957505050505050505061126f60209361126861472e565b6114b7611311828c8a61471e565b6114c282848961471e565b356114cf60105482613fec565b600f54863b15611623578c51630ab714fb60e11b81526001600160a01b038516600482015260248101919091526044810191909152868082606481838b5af1918261160b575b50506115e657509088918261152861414e565b6308c379a01461159e575b611540575b505b0161148c565b6115486141dd565b50600080516020615f50833981519152878c5192169180611595816060906020815260176020820152762637bb96b632bb32b61036b4b73a34b7339032b93937b960491b60408201520190565b0390a28c611538565b6115a661416c565b806115b2575b50611533565b90508690600080516020615f508339815191528d51806115dd6020948583528d881695830190613be3565b0390a28e6115ac565b9b89929c8761160593168752601f6020528b872061144e828254613fff565b9a61153a565b61161490613d5e565b61161f57868f611515565b8680fd5b8780fd5b865163fd34e50560e01b8152600490fd5b634e487b7160e01b82526021600452602482fd5b8461165b611311848d8b61471e565b1680855261167a6020601e8152601f8c88205491528b872054906143b2565b90156107a15780156107a157611691838d8961471e565b3511610775576001906116a5838d8961471e565b3501910190611230565b865163424ca23960e01b8152600490fd5b83600e5460ff811660048110156117e55783929190806117685750602091506004885180948193638da5cb5b60e01b835260081c165afa90811561175e579082918691611723575b505b1633031561120c578451635c427cd960e01b8152600490fd5b9150506020813d8211611756575b8161173e60209383613d8c565b810103126107a1576117508291613f4f565b89611708565b3d9150611731565b86513d87823e3d90fd5b600114611776575b5061170a565b602091506004885180948193638da5cb5b60e01b835260081c165afa90811561175e5790829186916117aa575b5089611770565b9150506020813d82116117dd575b816117c560209383613d8c565b810103126107a1576117d78291613f4f565b896117a3565b3d91506117b8565b634e487b7160e01b87526021600452602487fd5b833461090e578060031936011261090e57611812613e59565b600080546001600160a01b0319811682556001600160a01b03167f8be0079c531659141344cd1fd0a4f28419497f9722a3daafe3b4186f6b6457e08280a380f35b83823461064257816003193601126106425761186d614050565b60ff60075460a81c166008811015610b0f576004036106425760ff600d5460c81c1615611b9c576015546001600160a01b039081161580159291906118b0615cdc565b50826011541692600e549060ff82169160081c1690600a54948780611b91575b15611b8a57602b54905b80611ac7575b506004821015611ab357908389939260038314611a37575b5050156119aa575b50505033855260256020526119188386205433615b56565b611973575b5051636e8b38db60e01b815233600482015260208160248186305af1611948575b50610cb090615994565b602090813d811161196c575b61195e8183613d8c565b81010312610ced578261193e565b503d611954565b602754818111611984575b5061191d565b600591611990916143b2565b1061199d575b838061197e565b6119a5615672565b611996565b600f5490803b156105275786516323b872dd60e01b8152306004820152336024820152604481019290925282908290606490829084905af18015611a2d57611a19575b50506119f881615ef7565b8351908152600080516020615f7083398151915260203392a2858581611900565b611a2290613d5e565b61079d5785876119ed565b86513d84823e3d90fd5b611a479192939450601354614103565b028015611aa2578880808084335af1611a5e6141dd565b5015611a915790889291611a7185615ef7565b8751908152600080516020615f7083398151915260203392a2838a6118f8565b865163880a149160e01b8152600490fd5b8651630193f71f60e51b8152600490fd5b634e487b7160e01b89526021600452602489fd5b611ad5828660125402614103565b908115611b7957885163a9059cbb60e01b81523360048201526024810183905290602090829060449082908f905af1908115611b6f578b91611b51575b5015611b4057611b2185615ef7565b8751908152600080516020615f7083398151915260203392a2896118e0565b875163880a149160e01b8152600490fd5b611b69915060203d811161062f576106218183613d8c565b8b611b12565b89513d8d823e3d90fd5b8851630193f71f60e51b8152600490fd5b85906118da565b5085602b54106118d0565b51631558dc5f60e31b8152600490fd5b83823461064257602036600319011261064257611bc7613c23565b9130330361090e575061116c602092614aab565b83823461064257816003193601126106425760209060ff600d5460c01c1690519015158152f35b83823461064257816003193601126106425760209060ff600d5460c81c1690519015158152f35b83823461064257816003193601126106425760209060ff60075460a01c1690519015158152f35b838234610642578160031936011261064257602090601b549051908152f35b833461090e578060031936011261090e576105f5614fd3565b5082608036600319011261090e576001600160401b039160443583811161052757611cb7903690600401613c4f565b909360643590811161077557611cd1903690600401613c9f565b929091611cdc614050565b60075460ff90818160a81c1660088110156125ff5715612613575b50600754818160a81c169560088710156125ff5760018097036125ee5733156125dd576004359586156125cc5760055480156125bb5787611d3791613fec565b34036125aa576001600160801b0360065416421061259957611d57613fb7565b42101561258857602794611d6c888754613fff565b600c541061257757899a99979899338952611d908a8960209b60258d522054613fff565b600b541061256657858560a01c161580612534575b612523578b548851638da5cb5b60e01b81526001600160a01b039691871691908e908c81600481875afa9182156121c6579089926124eb575b501633146124da57861633146124ca5790898d939288600d5460f01c168080916124b6575b156123d357506004929394508a5192838092636b90bda960e01b82525afa908d82156123c857908792612390575b501691821561237f579082918d933b1561077557611e6c928492838c518096819582946324fa7e3f60e21b845260243530336004870161400c565b03925af1801561237557612361575b5050338a5260248752858a20805460ff19168a1790555b6015918254858582169182611fa1575b5050505050505033875260258452828720858154019055865b858110611f465750907ffd1903a7f9f31de6cf38a88eda98ae029aeba3b2ec48a599d7c0d900f0f335cb939291600d5460a81c1615600014611f3257611f0334601c54613fff565b601c555b54600c5414611f1d575b519283523392a2805580f35b611f25615a04565b611f2d6143bf565b611f11565b611f3e34601a54613fff565b601a55611f07565b825490600160401b821015611f8b57611f85611f67838a8095018755613ced565b81546001600160a01b0360039290921b91821b19163390911b179055565b01611ebb565b634e487b7160e01b600052604160045260246000fd5b60a01c16600481101561234d5789908061224c575050508015612248578990601680548381146000146120a857505010612057578683602492359354168751928380926331a9108f60e11b82528660048301525afa90811561209e578a91612069575b5082339116036120655788526023855283882090815490811680158091811561205b575b501561205757612042575b50505b87808080808581611ea2565b6001600160a01b031916331790558780612033565b8980fd5b905033148b612028565b8880fd5b90508681813d8311612097575b6120808183613d8c565b810103126120575761209190613f4f565b8a612004565b503d612076565b86513d8c823e3d90fd5b9091939281116000146122445780841061224457908b95949392918d5b8181106121d65750508c955b6120e1575b505050505050612036565b80548610156121d1576120f586848461471e565b358d60248c888854168d51928380926331a9108f60e11b82528760048301525afa9182156121c6579161218d575b508633911603612189578d5260238a52888d208054968688169182158093811561217f575b501561217b578e9861216093612166575b50506146f7565b956120d1565b6001600160a01b031916331790558f80612159565b8f80fd5b9050331438612148565b8d80fd5b90508b81813d83116121bf575b6121a48183613d8c565b810103126121bb576121b590613f4f565b8f612123565b8e80fd5b503d61219a565b8c51903d90823e3d90fd5b6120d6565b909192939495968101808211612230575b82811061220557506121f8906146f7565b908c9695949392916120c5565b61221082878761471e565b3561221c82888861471e565b35146121bb5761222b906146f7565b6121e7565b634e487b7160e01b8f52601160045260248ffd5b8c80fd5b8a80fd5b935093509350508881146000146122d757506017548551627eeac760e11b8152336004820152602481019190915291829060449082905afa9081156122cd5788916122a0575b506016541115612036578680fd5b90508481813d83116122c6575b6122b78183613d8c565b81010312610ced575188612292565b503d6122ad565b84513d8a823e3d90fd5b6002146122e6575b5050612036565b84516370a0823160e01b815233600482015291829060249082905afa9081156122cd578891612320575b506016541161161f5787846122df565b90508481813d8311612346575b6123378183613d8c565b81010312610ced575188612310565b503d61232d565b634e487b7160e01b8d52602160045260248dfd5b61236a90613d5e565b61205757898b611e7b565b88513d84823e3d90fd5b88516343361aaf60e01b8152600490fd5b8092508b8092503d83116123c1575b6123a98183613d8c565b81010312612244576123bb8691613f4f565b8e611e31565b503d61239f565b8a51903d90823e3d90fd5b919091156123e6575b5050505050611e92565b8a516344c9e83d60e01b815291829060049082905afa9081156124ac579087918591612474575b5016918261241c575b8a6123dc565b823b156107755761244a928492838c5180968195829463d3b1809b60e01b845260243530336004870161400c565b03925af1801561237557612460575b8080612416565b61246990613d5e565b61205757898b612459565b8092508c8092503d83116124a5575b61248d8183613d8c565b810103126107755761249f8791613f4f565b8f61240d565b503d612483565b8a513d86823e3d90fd5b5033865260248352898c8720541615611e03565b885162ca6a8360e51b8152600490fd5b8951635f2a002d60e11b8152600490fd5b8092508d8092503d831161251c575b6125048183613d8c565b810103126121bb576125168891613f4f565b38611dde565b503d6124fa565b8751631274fa9d60e31b8152600490fd5b5085600d5460a81c16801561255c575b80611da55750338c5260258952878c20541515611da5565b508a8a1415612544565b8751637145fa7b60e01b8152600490fd5b86516302edeeb760e31b8152600490fd5b855163fd2a413d60e01b8152600490fd5b8551633d8c21b360e01b8152600490fd5b855163569e8c1160e01b8152600490fd5b865163d2100d7360e01b8152600490fd5b855163f4f5b73360e01b8152600490fd5b845163d92e233d60e01b8152600490fd5b84516338c0a90160e11b8152600490fd5b634e487b7160e01b88526021600452602488fd5b6001600160801b03600654164210611cf75760ff60a81b1916600160a81b1760075582514281527f0fc99ba436efa6fb2f50b2287984eebe37b2314a2bd81ea576ef9d4be0bd6a6690602090a187611cf7565b83823461064257816003193601126106425760209060ff6002541690519015158152f35b838234610642578160031936011261064257602090610f1f60ff600e541691518092613c7c565b8382346106425781600319360112610642576020906016549051908152f35b8382346106425760203660031901126106425760209160ff9082906001600160a01b036126fb613c23565b1681526021855220541690519015158152f35b8382346106425760203660031901126106425760209160ff9082906001600160a01b03612739613c23565b1681526024855220541690519015158152f35b838234610642578160031936011261064257602090600a549051908152f35b83823461064257816003193601126106425760209060ff600d5460e81c1690519015158152f35b838234610642578160031936011261064257602090602c549051908152f35b8382346106425760203660031901126106425760209181906001600160a01b036127d9613c23565b16815283805220549051908152f35b83823461064257816003193601126106425733825260256020528120548015610642576105f59033615b56565b83823461064257602080600319360112610527576004359130330361077557602d54845260268252828185205561284d602d546146f7565b602d55602c5492602a54906027549061286586614123565b9061287285519283613d8c565b86825261287e87614123565b8287019490601f1901368637885b888110612b2f57505050865b868110612a9b57506128c9600d549660ff60e01b198816600d556128be81602a54613fff565b602a55602b54613fff565b9283602b5584519186830190878452518091528583019190895b88828210612a7e575050505090807f32a1b5731a757f192a06ca973715ca4dbc42c2d15323cabaa74e0a2d5dc088e4920390a16015546001600160a01b03161580159190612a7357808310801590612a67575b1561296d576007805460ff60a81b1916600160aa1b179081905560a01c60ff1680612a5a575b80612a4d575b80612a3f575b612976575b50505050505080f35b6129989261298f9280612a34575b15612a2a57906143b2565b60055490613fec565b6127106129a760185483613fec565b04916129b383836143b2565b93601a54918383106129f0575050906129cb916143b2565b601a55601d55601b5561ffff60d81b1916600160d81b17600d5581808080808061296d565b60649250519062461bcd60e51b825260048201526014602482015273496e73756666696369656e7420726576656e756560601b6044820152fd5b50600a54906143b2565b50600a548110612984565b5060ff8660d81c1615612968565b5060ff8660b81c16612962565b5060ff8660a81c1661295c565b50600a54831015612936565b600a54831015612936565b83516001600160a01b0316855293840193909201916001016128e3565b6001600160a01b03612aad828461413a565b5116906028918254600160401b811015611f8b5760018101808555811015612b1957612b14936000527fe16da923a2d88192e5070f37b4571d58682c0d66212ec634d495f33de3f77ab501906bffffffffffffffffffffffff60a01b8254161790556146f7565b612898565b634e487b7160e01b600052603260045260246000fd5b612b4281612b3d84886143b2565b6143b2565b875189810190858252838a820152898152612b5c81613d71565b51902090612b6a8385613fff565b918115612c1857612b88612c139493612bd093612bef930690613fff565b612b9181613ced565b9054600391821b1c6001600160a01b03908116949185612bb1888d61413a565b52612bc4612bbf888b613fff565b613ced565b9054911b1c1691613ced565b90919082549060031b9160018060a01b03809116831b921b1916179055565b612c0081612bd0612bbf8588613fff565b8b52601e8952878b2061145d81546146f7565b61288c565b634e487b7160e01b8d52601260045260248dfd5b836003198361026036830112610527576001600160401b0360043511610527576101a060043560040192600435360301126105275761010036602319011261052757608036610123190112610527576101a435918215158303610ced576101c4356001600160a01b0381169003610ced5761024435918215158303610ced577f00000000000000000000000000000000000000000000000000000000000000006001600160a01b031633036107a15784546001600160a01b03166107a157612cfb612cf683613f3b565b613eb1565b600780546001600160a01b036101c43581166001600160a01b031983161790925592612d2690613f3b565b825163ec644ddd60e01b815292911660a083600481845afa92831561337957879361333e575b506020602491835192838092630425172560e31b82523060048301525afa91821561333557508691613303575b5060035560028054610100600160a81b03191660089290921b610100600160a81b0316919091179055610224356005556006805485166101e4356001600160801b0316176102043560801b6fffffffffffffffffffffffffffffffff191617905590151560a01b60ff60a01b166001600160b01b03199091166101c4356001600160a01b03161717600755600435604481013590360360221901811215610527576001600160401b03600482813501013511610527576004818135010135360360248260043501011361052757612e51600954613d24565b601f8111613293575b5082601f6004838135010135116001146131f957839060048381350101356131e7575b50600482813501013560011b91600460001991813501013560031b1c1916176009555b60043560a4810135600a556084810135600b556064810135600c556024016001600160a01b03612ecf82613f3b565b16156131dd57612ede90613f3b565b600d549160ff60a01b612ef560043560c401613faa565b151560a01b169060ff60a81b612f0f60043560e401613faa565b151560a81b1660ff60b01b612f2960043561010401613faa565b151560b01b16906001600160f81b0319612f4860043561012401613faa565b151560f81b166001600160a01b03861666ffffffffffffff60b81b88161785178217831760ff60f01b85151560f01b16178117600d55936004602435101561162357600e54610100600160a81b03612f9e613ef8565b6001600160a81b031990921660243560ff161760089290921b1617600e55606435600f556084356010556001600160a01b03612fd8613f0e565b166bffffffffffffffffffffffff60a01b601154161760115560c43560125560e435968760135560018060a01b0361300e613f24565b16613187575b600435610144810135601855610164810135601955610184013597156130c65750505050505050610224350361090e57600d805460ff60c81b1916600160c81b1790555b60ff60075460a01c16806130b7575b1561309157600a54600d805460ff60b81b1916600190921160b81b60ff60b81b1691909117905580f35b600d5460ff8160a81c16156130a4575080f35b60ff60b81b1916600160b81b17600d5580f35b5060ff600d5460a81c16613067565b6001600160a01b036130d6613f0e565b16156131045750505050505050610224350361090e57600d805460ff60c81b1916600160c81b179055613058565b909192939495965060018060a01b0361311b613ef8565b1661312d575b50505050505050613058565b61010435801515809103610ced5760ff60c81b60c89190911b166001600160a01b039790971666ffffffff00ffff60b81b919091161717171760ff60f01b91151560f01b91909116171717600d5581808080808080613121565b6001600160a01b03613197613f24565b16601554906101443560048110156131d9576001600160a81b03199092161760a09190911b60ff60a01b16176015556101643560165561018435601755613014565b8b80fd5b506101c435612ede565b60249150826004350101013584612e7d565b60098452600080516020615f9083398151915290845b6004803585010135601f191681106132745750600192600492909183358301840135601f1981161061324e575b50508135010135811b01600955612ea0565b602460001960f88686813501013560031b161c199184863501010135169055858061323c565b909160206001819260248688600435010101358155019301910161320f565b60098452601f600480358401013590810160051c600080516020615f9083398151915201906020116132ee575b601f820160051c600080516020615f908339815191520181106132e35750612e5a565b8481556001016132c0565b50600080516020615f908339815191526132c0565b90506020813d60201161332d575b8161331e60209383613d8c565b81010312610ced575186612d79565b3d9150613311565b513d88823e3d90fd5b602491935061336660209160a03d60a011613372575b61335e8183613d8c565b810190613f63565b50505050939150612d4c565b503d613354565b82513d89823e3d90fd5b838234610642578160031936011261064257600d5490516001600160a01b039091168152602090f35b838234610642576020366003190112610642576004359160275483101561090e57506133d9602092613ced565b905491519160018060a01b039160031b1c168152f35b8382346106425781600319360112610642576020906012549051908152f35b83823461064257816003193601126106425760209061116c613fb7565b83823461064257816003193601126106425760209060ff600d5460b81c1690519015158152f35b8382346106425760203660031901126106425760209181906001600160a01b0361347a613c23565b1681526025845220549051908152f35b8382346106425780600319360112610642576024356001600160401b038111610527576134bb903690600401613c9f565b60025490919060081c6001600160a01b03163303610775576134e86134df83614123565b93519384613d8c565b8183526020918284019060051b82019136831161079d57905b82821061351557856105f58660043561421c565b81358152908301908301613501565b83823461064257816003193601126106425760155460165460175483516001600160a01b0384168152608094909391929161356990602086019060a01c60ff16613c7c565b8301526060820152f35b8382346106425760803660031901126106425761358e613c23565b50613597613c39565b50606435916001600160401b03831161090e57506135bb6020923690600401613c4f565b505051630a85bd0160e11b8152f35b8382346106425781600319360112610642576020906003549051908152f35b838234610642578160031936011261064257613603614050565b60079060ff825460a81c166008811015613a3857600403610527576015546001600160a01b039081161591613636615cdc565b50600e54928360081c168015613a2757600d9360ff855460c81c16613a165760ff1660048110156125ff57806138965750803b1561161f5782516340c10f1960e01b81523360048201526024810183905290879081908390604490829084905af19182613882575b50506137f15750928291610cb09460016136b661414e565b6308c379a014613789575b613711575b5050505b6136d5575b15615994565b602754600a54908181116136eb575b50506136cf565b6005916136f7916143b2565b10613704575b83806136e4565b61370c615672565b6136fd565b6137196141dd565b5051600080516020615f5083398151915233918061375c8160609060208152601060208201526f131bddcb5b195d995b081c995d995c9d60821b60408201520190565b0390a2805460ff60d01b1916600160d01b179055805460ff60a81b1916600560a81b1790558480806136c6565b61379161416c565b8061379d575b506136c1565b90508790600080516020615f50833981519152835160208152806137c633946020830190613be3565b0390a2825460ff60d01b1916600160d01b178355835460ff60a81b1916600560a81b17845588613797565b92935090506137ff82615ef7565b8051918252602091600080516020615f70833981519152833392a23384526025825261382e8185205433615b56565b51636e8b38db60e01b8152336004820152818160248187305af1613859575b505080610cb0916136ca565b813d831161387b575b61386c8183613d8c565b81010312610ced57828061384d565b503d613862565b61388b90613d5e565b61161f57868861369e565b600103613a055786600f5491836010540290803b15610527578551630ab714fb60e11b8152336004820152602481019490945260448401919091528290606490829084905af190816139f2575b506137f15750928291610cb09460016138fa61414e565b6308c379a01461398a575b613912575b5050506136ca565b61391a6141dd565b5051600080516020615f5083398151915233918061395d8160609060208152601060208201526f131bddcb5b195d995b081c995d995c9d60821b60408201520190565b0390a2805460ff60d01b1916600160d01b179055805460ff60a81b1916600560a81b17905584808061390a565b61399261416c565b8061399e575b50613905565b90508790600080516020615f50833981519152835160208152806139c733946020830190613be3565b0390a2825460ff60d01b1916600160d01b178355835460ff60a81b1916600560a81b17845588613998565b6139fe90979197613d5e565b95876138e3565b8251631558dc5f60e31b8152600490fd5b8351631558dc5f60e31b8152600490fd5b825163424ca23960e01b8152600490fd5b634e487b7160e01b84526021600452602484fd5b83823461064257816003193601126106425760209060065460801c9051908152f35b83823461064257816003193601126106425760209060ff600d5460a01c1690519015158152f35b838234610642578160031936011261064257602090600f549051908152f35b8382346106425781600319360112610642576020906029549051908152f35b8382346106425781600319360112610642576020906017549051908152f35b838234610642578160031936011261064257613b2390613b10613dad565b9051918291602083526020830190613be3565b0390f35b838234610642578160031936011261064257602090602d549051908152f35b838234610642578160031936011261064257602090602a549051908152f35b83823461064257816003193601126106425760075490516001600160a01b039091168152602090f35b8490346106425760203660031901126106425760043563ffffffff60e01b81168091036105275760209250630a85bd0160e11b8114908115613bd2575b5015158152f35b630271189760e51b14905083613bcb565b919082519283825260005b848110613c0f575050826000602080949584010152601f8019910116010190565b602081830181015184830182015201613bee565b600435906001600160a01b0382168203610ced57565b602435906001600160a01b0382168203610ced57565b9181601f84011215610ced578235916001600160401b038311610ced5760208381860195010111610ced57565b906004821015613c895752565b634e487b7160e01b600052602160045260246000fd5b9181601f84011215610ced578235916001600160401b038311610ced576020808501948460051b010111610ced57565b34610ced576000366003190112610ced576020600c54604051908152f35b602754811015612b195760276000527f98a476f1687bc3d60a2da2adbcba2c46958e61fa2fb4042cd7bc5816a710195b0190600090565b90600182811c92168015613d54575b6020831014613d3e57565b634e487b7160e01b600052602260045260246000fd5b91607f1691613d33565b6001600160401b038111611f8b57604052565b606081019081106001600160401b03821117611f8b57604052565b90601f801991011681019081106001600160401b03821117611f8b57604052565b6040519060008260095491613dc183613d24565b80835292600190818116908115613e375750600114613dea575b50613de892500383613d8c565b565b600960009081529150600080516020615f908339815191525b848310613e1c5750613de8935050810160200138613ddb565b81935090816020925483858a01015201910190918592613e03565b905060209250613de894915060ff191682840152151560051b82010138613ddb565b6000546001600160a01b03163303613e6d57565b606460405162461bcd60e51b815260206004820152602060248201527f4f776e61626c653a2063616c6c6572206973206e6f7420746865206f776e65726044820152fd5b600080546001600160a01b039283166001600160a01b03198216811783559216907f8be0079c531659141344cd1fd0a4f28419497f9722a3daafe3b4186f6b6457e09080a3565b6044356001600160a01b0381168103610ced5790565b60a4356001600160a01b0381168103610ced5790565b610124356001600160a01b0381168103610ced5790565b356001600160a01b0381168103610ced5790565b51906001600160a01b0382168203610ced57565b908160a0910312610ced57613f7781613f4f565b91602082015191604081015191606082015163ffffffff81168103610ced5760809092015161ffff81168103610ced5790565b358015158103610ced5790565b6006546001600160801b0390818160801c911601818111613fd6571690565b634e487b7160e01b600052601160045260246000fd5b81810292918115918404141715613fd657565b91908201809211613fd657565b939092859360a09693600180891b038092168752166020860152604085015260806060850152816080850152848401376000828201840152601f01601f1916010190565b600260015414614061576002600155565b60405162461bcd60e51b815260206004820152601f60248201527f5265656e7472616e637947756172643a207265656e7472616e742063616c6c006044820152606490fd5b156140ad57565b60405162461bcd60e51b815260206004820152602860248201527f54696d657374616d702064656c61792069737375652c2074727920616761696e6044820152672073686f72746c7960c01b6064820152608490fd5b811561410d570490565b634e487b7160e01b600052601260045260246000fd5b6001600160401b038111611f8b5760051b60200190565b8051821015612b195760209160051b010190565b60009060033d1161415b57565b905060046000803e60005160e01c90565b600060443d106141c957604051600319913d83016004833e81516001600160401b03918282113d6024840111176141cc578184019485519384116141d4573d850101602084870101116141cc57506141c992910160200190613d8c565b90565b949350505050565b50949350505050565b3d15614217573d906001600160401b038211611f8b576040519161420b601f8201601f191660200184613d8c565b82523d6000602084013e565b606090565b6004546000910361439b57600d805460ff60e81b1916600160e81b178155825190929015614387576020015190303b1561090e5760405191631000850d60e21b83526004830152808260248183305af19182614378575b50906143745760019061428461414e565b6308c379a0146142fa575b506142975750565b7fbccec8509a79ecd26780c2699a3ca2503c3a3455b361b5fcda5760593edb03c96142d76142c36141dd565b604051918291602083526020830190613be3565b0390a16007805460ff60a81b1916600160a91b179055805460ff60e01b19169055565b61430261416c565b908161430f575b5061428f565b7fbcd905a8eb4cc473497e2cd24cf41334ea7fad80c354380f8fff04a025b1e5f891925061434c9092604051918291602083526020830190613be3565b0390a16007805460ff60a81b1916600160a91b179055815460ff60e01b191682553880614309565b5050565b61438190613d5e565b38614273565b634e487b7160e01b82526032600452602482fd5b50506007805460ff60a81b1916600160a91b179055565b91908203918211613fd657565b600080546007546001600160a01b03918216919060a81c60ff166008811015613a38576001146146ea575b6007549060ff8260a81c16600881101561080757600281149081156146df575b50156107755760275492602a549361442285826143b2565b80614432600a54602b54906143b2565b601e8111156146da5750601e5b80602c55116146d1575b50602c549384156146b957506004929160a0917f4ff4e84912750d469e8d0e190997710c06112023943415787c2f744eb09c0da46060602d5492604098895191825260209a8b83015289820152a2845163ec644ddd60e01b815293849182905afa80156146af578591869087948893614686575b5060025460081c1691855190878201926001600160401b03938381108582111761467257885289835287519263125fa26760e31b8a85015251151560248401526024835261450a83613d71565b87519360c08501908111858210176146725789969594938b9388936145aa938c5286528386019788528a8087019a61ffff8093168c526060880163ffffffff9384809316825260808a01936001855260a08b01968752519d8e9c8d9b8c9a634d8e1c2f60e11b8c5260048c01525160248b01525160448a01525116606488015251166084860152511660a48401525160c060c484015260e4830190613be3565b03925af1938415614667578094614615575b50506004839055600d805460ff60e01b1916600160e01b1790556007805460ff60a81b1916600360a81b1790555191825233917fcd4a2eb17c38ad25b7c647235e9d74821d3613b50c9ec8907609b5728bc674b09190a2565b909193508282813d8311614660575b61462e8183613d8c565b8101031261090e575051917fcd4a2eb17c38ad25b7c647235e9d74821d3613b50c9ec8907609b5728bc674b0386145bc565b503d614624565b8251903d90823e3d90fd5b634e487b7160e01b8b52604160045260248bfd5b92509350506146a3915060a03d81116133725761335e8183613d8c565b909492935091386144bd565b83513d87823e3d90fd5b60ff60a81b1916600160aa1b17600755505050505050565b602c5538614449565b61443f565b60039150143861440a565b6146f26153de565b6143ea565b6000198114613fd65760010190565b90816020910312610ced57518015158103610ced5790565b9190811015612b195760051b0190565b601554600a546001600160a01b039182161515806147f3575b156147ee5750602b545b6014541461475c5750565b6007805460ff60a81b1916600360a91b179055600054604051630425172560e31b81523060048201529160209183916024918391165afa9081156147e2576000916147b1575b506147a957565b613de86159ac565b906020823d82116147da575b816147ca60209383613d8c565b8101031261090e575051386147a2565b3d91506147bd565b6040513d6000823e3d90fd5b614751565b5080602b5410614747565b600d5460ff90818160d01c16614a375760075490828260a81c16916008831015613c8957600783146149d35760a01c8316806149c7575b806149bb575b806149b0575b61490f5760a81c82161590816148f0575b5061485e575050600090565b60009160018060a01b0316825260256020526040822054151590816148dc575b506148865790565b602560205261489c604082205460055490613fec565b611f40908181029181830414901517156148c857612710900480601c5410156148c3575090565b905090565b634e487b7160e01b82526011600452602482fd5b90506021602052604082205416153861487e565b6004811491508115614904575b5038614852565b6006915014386148fd565b5050509060009160018060a01b0316825260256020526040822054601e602052604083205460226020526040842054918181118061499e575b61495157505050565b61495f9291612b3d916143b2565b600554601854906127109182039482861161498a57506141c9939461498391613fec565b0490613fec565b634e487b7160e01b81526011600452602490fd5b506149a982826143b2565b8310614948565b50601b541515614841565b50828160b81c1661483b565b50828160a81c16614835565b506001600160a01b039093166000908152602560205260409020549050806149fe575b505050600090565b600554614a0a91613fec565b9160a81c16614a275780601c5410156141c957505b3880806149f6565b80601a5410156141c95750614a1f565b908060075460a01c169182614a9e575b505080614a7d575b614a595750600090565b6001600160a01b03166000908152602560205260409020546005546141c991613fec565b506001600160a01b0381166000908152602560205260409020541515614a4f565b60a81c1690503880614a47565b60075460ff90818160a81c169060088210159081613c89576004928381148015614fc5575b838115614fb5575b8115614f90575b5015614f8557600d5492858460d01c16600014614bcb57505050506001600160a01b0383166000818152602160205260408120549193909250908116614bad5760256020526040822054908115614bc3578060075460a01c169081614bb4575b5015614bad57818080614b56819460055490613fec565b8097878352602160205260408320600160ff198254161790555af1614b796141dd565b501561090e57507f358fe4192934d3bf28ae181feda1f4bd08ca67f5e2fad55582cce5eb67304ae96020604051848152a290565b5091505090565b9050600d5460a81c1638614b3f565b505091505090565b95939495614f7057859190600703614c90575050506001600160a01b03811660008181526021602052604081205491935091908416614bad57602560205260408220548015614bc357600554614c2091613fec565b93600d5460a81c16600014614c6e57601a54848110614bc3578280868194614c498284966143b2565b601a555b878352602160205260408320805460ff191660011790555af1614b796141dd565b601c54848110614bc3578280868194614c888284966143b2565b601c55614c4d565b60a01c1680614f64575b80614f58575b80614f4d575b15614e0557506001600160a01b038116600081815260256020908152604080832054601e8352818420546022845282852054979850929691949290818111801590614df2575b614de657614cfe9291612b3d916143b2565b95600554906018549161271092830391838311614dd35750614d2b9291614d2491613fec565b0487613fec565b95601b54808811614dc85787614d40916143b2565b601b5581835260228652614d58848420918254613fff565b90558180808089885af1614d6a6141dd565b501561064257807f358fe4192934d3bf28ae181feda1f4bd08ca67f5e2fad55582cce5eb67304ae9868551898152a28152601e84528181205415614db0575b5050505090565b6025614dbf9452205490615b56565b38808080614da9565b505050935050505090565b634e487b7160e01b865260119052602485fd5b50505050935050505090565b50614dfd82826143b2565b831015614cec565b60a81c831615614e1757505050600090565b6001600160a01b038116600081815260256020908152604080832054919590939115614f435760218652868484205416614f435760258652614e5f8484205460055490613fec565b90611f4091828102928184041490151715614f305750612710900495601c54878110614dc85787614e8f916143b2565b601c5581835260218652838320805460ff19166001179055828080808a895af1614eb76141dd565b501561052757817f358fe4192934d3bf28ae181feda1f4bd08ca67f5e2fad55582cce5eb67304ae98786518a8152a260075460a01c16158015614f1e575b614f02575b505050505090565b614f1494602591835252205490615b56565b3880808080614efa565b50808252601e85528282205415614ef5565b634e487b7160e01b845260119052602483fd5b5050935050505090565b50601b541515614ca6565b50838160b81c16614ca0565b50838160a81c16614c9a565b602185634e487b7160e01b6000525260246000fd5b505050505050600090565b9050614fa0576007811483614adf565b602184634e487b7160e01b6000525260246000fd5b9050614fa0576005811483614ad8565b506000925060068114614ad0565b600780549060ff90818360a81c166008811015613c8957818114610ced57614ff9613fb7565b4210610ced576015546001600160a01b03949085161591600181036151ad5750501561516557602754600a541115610ced57805460ff60a81b1916600760a81b1781555b81815460a81c16906008821015613c895761505a818493146140a6565b615062615a4d565b61506a61541f565b5460a01c1680615155575b8061512b575b615083575050565b80600d5460c81c1661437457600e549081166004811015613c89576150e65750600e5460081c16803b15610ced5760008091602460405180948193636382ff5160e11b83523060048401525af180156147e2576150dd5750565b613de890613d5e565b60081c16600f5490803b15610ced57604051631d8efab160e21b815230600482015260248101929092526000908290604490829084905af180156147e2576150dd5750565b5080600e54166004811015613c8957801590811561514a575b5061507b565b600191501438615144565b5081600e5460081c161515615075565b600a54603281029080820460321490151715613fd6576064900480156151a5575b6027541015610ced57805460ff60a81b1916600760a81b17815561503d565b506001615186565b909150156151bc575b5061503d565b60ff60a81b1916600760a81b178155386151b6565b6011546001600160a01b03908116610ced57601354610ced576151f2613fb7565b421015610ced5760009080825416331480156153d1575b156106425760075460ff90818160a81c1660088110156108075780159081156153c6575b501561077557818160a01c1680809161539c575b8061538d575b6107a1571561077557600d805460ff60d01b1916600160d01b17905560ff60a81b1916600560a81b1760075561527b615a4d565b61528361541f565b8060075460a01c168061537d575b80615353575b6152a057505050565b80600d5460c81c1661534e57600e549081166004811015613a38576153075750600e5460081c16803b1561064257818091602460405180958193636382ff5160e11b83523060048401525af19081156152fb57506150dd5750565b604051903d90823e3d90fd5b60081c16600f54813b1561052757604051631d8efab160e21b81523060048201526024810191909152919081908390604490829084905af19081156152fb57506150dd5750565b505050565b5080600e54166004811015613a38578015908115615372575b50615297565b60019150143861536c565b5081600e5460081c161515615291565b5082600d5460a81c1615615247565b5082600e54166004811015610d655780159081156153bb575b50615241565b6001915014386153b5565b60019150143861522d565b5080600754163314615209565b6007805460ff60a81b1916600160a91b1790556040514281527f7ec14564eed3e841911f7412fd555aa022b64c2b1ae4b3da14fcacc8c0c4bf7190602090a1565b60075460ff8160a01c1680156143745780615663575b61543c5750565b6011546001600160a01b03919082161561553057508060115416604051916370a0823160e01b83523060048401526020928381602481865afa9081156147e257600091615503575b5080615491575b50505050565b60075460405163a9059cbb60e01b815292166001600160a01b0316600483015260248201529082908290816000816044810103925af19182156147e2576000926154e6575b505015610ced573880808061548b565b6154fc9250803d1061062f576106218183613d8c565b38806154d6565b908482813d8311615529575b6155198183613d8c565b8101031261090e57505138615484565b503d61550f565b600e5460ff81166004811015613c895760038103615579575050506013549081615558575050565b6000808080948194600754165af161556e6141dd565b501561090e57601355565b1561558357505050565b829060081c16600f54906040516331a9108f60e11b8152826004820152602081602481855afa9081156147e25760009161562a575b50841630146155c75750505050565b803b15610ced576040516323b872dd60e01b8152306004820152939092166001600160a01b03166024840152604483015260009082908183816064810103925af180156147e25761561b575b80808061548b565b61562490613d5e565b38615613565b906020823d821161565b575b8161564360209383613d8c565b8101031261090e575061565590613f4f565b386155b8565b3d9150615636565b5060ff600d5460c81c16615435565b600060018060a01b0381541660ff60075460a01c168061583c575b8061582d575b80615822575b61577a575b60ff600d5460a81c16156156b0575050565b600854806156c2575050506001600855565b600181036156dc575050506156d561584b565b6002600855565b600281036157605750602060249160405192838092630425172560e31b82523060048301525afa9182156152fb57809261572c575b505061571f575b6003600855565b6157276159ac565b615718565b9091506020823d8211615758575b8161574760209383613d8c565b8101031261090e5750513880615711565b3d915061573a565b90506003915003613de857615773615c37565b6004600855565b81601d54615812575b1580615808575b1561569e57604051630425172560e31b8152306004820152602081602481855afa9081156157fd5783916157cc575b501561569e576157c76159ac565b61569e565b90506020813d82116157f5575b816157e660209383613d8c565b810103126105275751386157b9565b3d91506157d9565b6040513d85823e3d90fd5b50601d541561578a565b5061581b61584b565b6001615783565b50601b541515615699565b5060ff600d5460b81c16615693565b5060ff600d5460a81c1661568d565b6000600d5460ff90818160d81c1680615989575b61591f575b818160a81c161580615914575b615889575b5050806158805750565b613de890615a90565b60b01c8116156158e35760075460a81c166008811015613c8957600603610ced575b601c546107d091828202928284041482151715613fd6576158d46127106158dc940480936143b2565b601c55613fff565b3880615876565b60075460a81c166008811015613c895760048114908115615909575b506158ab57600080fd5b6006915014386158ff565b50601c541515615871565b91818360b01c16600014615955578160075460a81c1660088110156116385760060361090e57505b601d54916000601d55615864565b8160075460a81c166008811015611638576004811490811561597e575b501561090e5750615947565b600691501438615972565b50601d54151561585f565b15613de857602b5460275403613de857613de8615672565b600060018060a01b03815416600354801561052757813b1561052757604051633d40f28f60e01b81523060048201526024810191909152919081908390818381604481015b03925af19081156152fb57506150dd5750565b600060018060a01b03815416600354801561052757813b156105275760405163032a136160e11b81523060048201526024810191909152919081908390818381604481016159f1565b600060018060a01b03815416600354813b1561052757604051630221a1c360e51b81523060048201526024810191909152919081908390818381604481016159f1565b6000805460405163524d530b60e01b81529192906001600160a01b03906020908490600490829085165afa928315615b4b578493615b10575b508216156105275782918291604051906020820191635e5bc1c560e11b835281602482015260248152615afb81613d71565b51925af1615b076141dd565b501561090e5750565b9092506020813d8211615b43575b81615b2b60209383613d8c565b8101031261077557615b3c90613f4f565b9138615ac9565b3d9150615b1e565b6040513d86823e3d90fd5b60008054604051633527d9bd60e21b815292949391926001600160a01b03916020908290600490829086165afa908115615b4b578491615bfe575b501680615ba0575b5050509050565b803b1561052757604051637505fc8960e01b81523060048201526001600160a01b0395909516602486015260448501919091529192918290606490829084905af1615bef575b80808392615b99565b615bf890613d5e565b38615be6565b90506020813d8211615c2f575b81615c1860209383613d8c565b8101031261077557615c2990613f4f565b38615b91565b3d9150615c0b565b60008054604051633527d9bd60e21b81526001600160a01b03916020908290600490829086165afa9081156157fd578391615ca3575b501680615c78575050565b803b15610642578190602460405180948193630377bc0960e11b83523060048401525af16150dd5750565b90506020813d8211615cd4575b81615cbd60209383613d8c565b8101031261052757615cce90613f4f565b38615c6d565b3d9150615cb0565b6000338152602091601e8352604080832054928315615ee657338152601f85528181205494858503958514615ed55760155485939291906001600160a01b0381169081615d31575b5050601f90338352522055565b60ff91929394955060a01c166004811015613a385786949392919080615dcf57508394509060249181939451928380926370a0823160e01b82523360048301525afa908115615dc5578391615d98575b50601654116106425790601f8593925b9038615d24565b90508181813d8311615dbe575b615daf8183613d8c565b81010312610527575138615d81565b503d615da5565b84513d85823e3d90fd5b60018103615e5557506017548451627eeac760e11b81523360048201526024810191909152939450919290918290829060449082905afa908115615dc5578391615e28575b50601654116106425790601f859392615d91565b90508181813d8311615e4e575b615e3f8183613d8c565b81010312610527575138615e14565b503d615e35565b600214615e66575b50601f90615d91565b8394509060249181939451928380926370a0823160e01b82523360048301525afa908115615dc5578391615ea8575b5060165411610642579084929138615e5d565b90508181813d8311615ece575b615ebf8183613d8c565b81010312610527575138615e95565b503d615eb5565b8251630ccaf35d60e41b8152600490fd5b81516358cd4fc160e11b8152600490fd5b601554600a54906001600160a01b0316151580615f44575b15615f3e5750602b54905b601454018060145514615f2957565b6007805460ff60a81b1916600360a91b179055565b90615f1a565b5080602b5410615f0f56fe18381720d6efb26847068a65e3be979f1243520b7db6b16331969a7acdb200d595681e512bc0fe659e195e06c283eada494316f3d801213e48e7101af92bf7706e1540171b6c0c960b71a7020d9f60077f6af931a8bbf590da0223dacf75c7afa2646970667358221220e306762dc99bb5c4c229d915552c16adbf258b981224e97952cc23d45cc0c21b64736f6c63430008130033",
  "linkReferences": {},
  "deployedLinkReferences": {}
}