{
  "_format": "hh-sol-artifact-1",
  "contractName": "PoolDeployer",
  "sourceName": "contracts/PoolDeployer.sol",
  "abi": [
    {
      "inputs": [
        {
          "internalType": "address",
          "name": "_poolImplementation",
          "type": "address"
        },
        {
          "internalType": "address",
          "name": "_manager",
          "type": "address"
        }
      ],
      "stateMutability": "nonpayable",
      "type": "constructor"
    },
    {
      "inputs": [],
      "name": "ApprovedSlotFeeMismatch",
      "type": "error"
    },
    {
      "inputs": [],
      "name": "AvailableSupplyInsufficient",
      "type": "error"
    },
    {
      "inputs": [],
      "name": "CollectioNameTaken",
      "type": "error"
    },
    {
      "inputs": [],
      "name": "CollectionNameTaken",
      "type": "error"
    },
    {
      "inputs": [],
      "name": "ContractsNotAllowed",
      "type": "error"
    },
    {
      "inputs": [],
      "name": "DescriptionTooLong",
      "type": "error"
    },
    {
      "inputs": [],
      "name": "ExceedsApprovedWinnerLimit",
      "type": "error"
    },
    {
      "inputs": [],
      "name": "IncompatiblePrizeContract",
      "type": "error"
    },
    {
      "inputs": [],
      "name": "InsufficientCreatorTokenBalance",
      "type": "error"
    },
    {
      "inputs": [],
      "name": "InsufficientNativeBalance",
      "type": "error"
    },
    {
      "inputs": [],
      "name": "InsufficientPrizeAmountForEscrow",
      "type": "error"
    },
    {
      "inputs": [],
      "name": "InvalidDiscordLink",
      "type": "error"
    },
    {
      "inputs": [],
      "name": "InvalidMaxSlotsPerParticipant",
      "type": "error"
    },
    {
      "inputs": [],
      "name": "InvalidParameter",
      "type": "error"
    },
    {
      "inputs": [],
      "name": "InvalidPrizeAmount",
      "type": "error"
    },
    {
      "inputs": [],
      "name": "InvalidPrizeType",
      "type": "error"
    },
    {
      "inputs": [],
      "name": "InvalidSlotFee",
      "type": "error"
    },
    {
      "inputs": [],
      "name": "InvalidSlotLimitConfig",
      "type": "error"
    },
    {
      "inputs": [],
      "name": "InvalidStartTime",
      "type": "error"
    },
    {
      "inputs": [],
      "name": "InvalidTelegramLink",
      "type": "error"
    },
    {
      "inputs": [],
      "name": "InvalidTwitterLink",
      "type": "error"
    },
    {
      "inputs": [],
      "name": "InvalidWinnerConfig",
      "type": "error"
    },
    {
      "inputs": [],
      "name": "NotOwnerOfTokenID",
      "type": "error"
    },
    {
      "inputs": [],
      "name": "PoolCreationPaused",
      "type": "error"
    },
    {
      "inputs": [],
      "name": "PoolNameTaken",
      "type": "error"
    },
    {
      "inputs": [],
      "name": "RefundFailed",
      "type": "error"
    },
    {
      "inputs": [],
      "name": "SocialEngagementFeeTransferFailed",
      "type": "error"
    },
    {
      "inputs": [],
      "name": "SocialEngagementParametersNotConfigured",
      "type": "error"
    },
    {
      "inputs": [],
      "name": "Unauthorized",
      "type": "error"
    },
    {
      "anonymous": false,
      "inputs": [
        {
          "indexed": true,
          "internalType": "address",
          "name": "previousOwner",
          "type": "address"
        },
        {
          "indexed": true,
          "internalType": "address",
          "name": "newOwner",
          "type": "address"
        }
      ],
      "name": "OwnershipTransferred",
      "type": "event"
    },
    {
      "anonymous": false,
      "inputs": [
        {
          "indexed": true,
          "internalType": "address",
          "name": "pool",
          "type": "address"
        },
        {
          "indexed": true,
          "internalType": "address",
          "name": "creator",
          "type": "address"
        }
      ],
      "name": "PoolCreated",
      "type": "event"
    },
    {
      "anonymous": false,
      "inputs": [
        {
          "indexed": true,
          "internalType": "address",
          "name": "poolImplementation",
          "type": "address"
        }
      ],
      "name": "PoolImplementationUpdated",
      "type": "event"
    },
    {
      "anonymous": false,
      "inputs": [
        {
          "indexed": true,
          "internalType": "address",
          "name": "pool",
          "type": "address"
        },
        {
          "indexed": false,
          "internalType": "string",
          "name": "description",
          "type": "string"
        },
        {
          "indexed": false,
          "internalType": "string",
          "name": "twitterLink",
          "type": "string"
        },
        {
          "indexed": false,
          "internalType": "string",
          "name": "discordLink",
          "type": "string"
        },
        {
          "indexed": false,
          "internalType": "string",
          "name": "telegramLink",
          "type": "string"
        }
      ],
      "name": "PoolMetadataSet",
      "type": "event"
    },
    {
      "anonymous": false,
      "inputs": [
        {
          "indexed": true,
          "internalType": "address",
          "name": "collection",
          "type": "address"
        }
      ],
      "name": "PrizeCollectionCreated",
      "type": "event"
    },
    {
      "inputs": [
        {
          "components": [
            {
              "internalType": "string",
              "name": "name",
              "type": "string"
            },
            {
              "internalType": "uint256",
              "name": "startTime",
              "type": "uint256"
            },
            {
              "internalType": "uint256",
              "name": "duration",
              "type": "uint256"
            },
            {
              "internalType": "uint256",
              "name": "slotLimit",
              "type": "uint256"
            },
            {
              "internalType": "uint256",
              "name": "winnersCount",
              "type": "uint256"
            },
            {
              "internalType": "uint256",
              "name": "maxSlotsPerParticipant",
              "type": "uint256"
            },
            {
              "internalType": "bool",
              "name": "isPrized",
              "type": "bool"
            },
            {
              "internalType": "uint256",
              "name": "customSlotFee",
              "type": "uint256"
            },
            {
              "internalType": "bool",
              "name": "erc721Drop",
              "type": "bool"
            },
            {
              "internalType": "bool",
              "name": "erc1155Drop",
              "type": "bool"
            },
            {
              "internalType": "address",
              "name": "prizeCollection",
              "type": "address"
            },
            {
              "internalType": "enum PrizeTypes.Standard",
              "name": "standard",
              "type": "uint8"
            },
            {
              "internalType": "uint256",
              "name": "prizeTokenId",
              "type": "uint256"
            },
            {
              "internalType": "uint256",
              "name": "amountPerWinner",
              "type": "uint256"
            },
            {
              "internalType": "string",
              "name": "collectionName",
              "type": "string"
            },
            {
              "internalType": "string",
              "name": "collectionSymbol",
              "type": "string"
            },
            {
              "internalType": "string",
              "name": "collectionBaseURI",
              "type": "string"
            },
            {
              "internalType": "address",
              "name": "creator",
              "type": "address"
            },
            {
              "internalType": "uint256",
              "name": "royaltyPercentage",
              "type": "uint256"
            },
            {
              "internalType": "address",
              "name": "royaltyRecipient",
              "type": "address"
            },
            {
              "internalType": "uint256",
              "name": "maxSupply",
              "type": "uint256"
            },
            {
              "internalType": "address",
              "name": "erc20PrizeToken",
              "type": "address"
            },
            {
              "internalType": "uint256",
              "name": "erc20PrizeAmount",
              "type": "uint256"
            },
            {
              "internalType": "uint256",
              "name": "nativePrizeAmount",
              "type": "uint256"
            },
            {
              "internalType": "enum PrizeTypes.RevealType",
              "name": "revealType",
              "type": "uint8"
            },
            {
              "internalType": "string",
              "name": "unrevealedBaseURI",
              "type": "string"
            },
            {
              "internalType": "uint256",
              "name": "revealTime",
              "type": "uint256"
            },
            {
              "internalType": "address",
              "name": "holderTokenAddress",
              "type": "address"
            },
            {
              "internalType": "enum PrizeTypes.Standard",
              "name": "holderTokenStandard",
              "type": "uint8"
            },
            {
              "internalType": "uint256",
              "name": "minHolderTokenBalance",
              "type": "uint256"
            },
            {
              "internalType": "uint256",
              "name": "holderTokenBalance",
              "type": "uint256"
            },
            {
              "internalType": "uint256",
              "name": "holderTokenId",
              "type": "uint256"
            },
            {
              "internalType": "bool",
              "name": "socialEngagementRequired",
              "type": "bool"
            },
            {
              "internalType": "string",
              "name": "socialTaskDescription",
              "type": "string"
            },
            {
              "internalType": "string",
              "name": "description",
              "type": "string"
            },
            {
              "internalType": "string",
              "name": "twitterLink",
              "type": "string"
            },
            {
              "internalType": "string",
              "name": "discordLink",
              "type": "string"
            },
            {
              "internalType": "string",
              "name": "telegramLink",
              "type": "string"
            }
          ],
          "internalType": "struct PoolDeployer.PoolParams",
          "name": "p",
          "type": "tuple"
        }
      ],
      "name": "createPool",
      "outputs": [
        {
          "internalType": "address",
          "name": "",
          "type": "address"
        }
      ],
      "stateMutability": "payable",
      "type": "function"
    },
    {
      "inputs": [
        {
          "internalType": "address",
          "name": "",
          "type": "address"
        },
        {
          "internalType": "address",
          "name": "",
          "type": "address"
        },
        {
          "internalType": "uint256[]",
          "name": "",
          "type": "uint256[]"
        },
        {
          "internalType": "uint256[]",
          "name": "",
          "type": "uint256[]"
        },
        {
          "internalType": "bytes",
          "name": "",
          "type": "bytes"
        }
      ],
      "name": "onERC1155BatchReceived",
      "outputs": [
        {
          "internalType": "bytes4",
          "name": "",
          "type": "bytes4"
        }
      ],
      "stateMutability": "pure",
      "type": "function"
    },
    {
      "inputs": [
        {
          "internalType": "address",
          "name": "",
          "type": "address"
        },
        {
          "internalType": "address",
          "name": "",
          "type": "address"
        },
        {
          "internalType": "uint256",
          "name": "",
          "type": "uint256"
        },
        {
          "internalType": "uint256",
          "name": "",
          "type": "uint256"
        },
        {
          "internalType": "bytes",
          "name": "",
          "type": "bytes"
        }
      ],
      "name": "onERC1155Received",
      "outputs": [
        {
          "internalType": "bytes4",
          "name": "",
          "type": "bytes4"
        }
      ],
      "stateMutability": "pure",
      "type": "function"
    },
    {
      "inputs": [
        {
          "internalType": "address",
          "name": "",
          "type": "address"
        },
        {
          "internalType": "address",
          "name": "",
          "type": "address"
        },
        {
          "internalType": "uint256",
          "name": "",
          "type": "uint256"
        },
        {
          "internalType": "bytes",
          "name": "",
          "type": "bytes"
        }
      ],
      "name": "onERC721Received",
      "outputs": [
        {
          "internalType": "bytes4",
          "name": "",
          "type": "bytes4"
        }
      ],
      "stateMutability": "pure",
      "type": "function"
    },
    {
      "inputs": [],
      "name": "owner",
      "outputs": [
        {
          "internalType": "address",
          "name": "",
          "type": "address"
        }
      ],
      "stateMutability": "view",
      "type": "function"
    },
    {
      "inputs": [],
      "name": "poolImplementation",
      "outputs": [
        {
          "internalType": "address",
          "name": "",
          "type": "address"
        }
      ],
      "stateMutability": "view",
      "type": "function"
    },
    {
      "inputs": [],
      "name": "protocolManager",
      "outputs": [
        {
          "internalType": "address",
          "name": "",
          "type": "address"
        }
      ],
      "stateMutability": "view",
      "type": "function"
    },
    {
      "inputs": [],
      "name": "renounceOwnership",
      "outputs": [],
      "stateMutability": "nonpayable",
      "type": "function"
    },
    {
      "inputs": [
        {
          "internalType": "bytes4",
          "name": "interfaceId",
          "type": "bytes4"
        }
      ],
      "name": "supportsInterface",
      "outputs": [
        {
          "internalType": "bool",
          "name": "",
          "type": "bool"
        }
      ],
      "stateMutability": "view",
      "type": "function"
    },
    {
      "inputs": [
        {
          "internalType": "address",
          "name": "newOwner",
          "type": "address"
        }
      ],
      "name": "transferOwnership",
      "outputs": [],
      "stateMutability": "nonpayable",
      "type": "function"
    },
    {
      "inputs": [],
      "name": "transferOwnershipToManager",
      "outputs": [],
      "stateMutability": "nonpayable",
      "type": "function"
    },
    {
      "inputs": [
        {
          "internalType": "address",
          "name": "_poolImplementation",
          "type": "address"
        }
      ],
      "name": "updatePoolImplementation",
      "outputs": [],
      "stateMutability": "nonpayable",
      "type": "function"
    }
  ],
  "bytecode": "0x608034620000cc57601f6200361d38819003918201601f19168301916001600160401b03831184841017620000d1578084926040948552833981010312620000cc576200005a60206200005283620000e7565b9201620000e7565b60008054336001600160a01b0319808316821784556040519590946001600160a01b03949093859391908416907f8be0079c531659141344cd1fd0a4f28419497f9722a3daafe3b4186f6b6457e09080a316836001541617600155169060025416176002556135209081620000fd8239f35b600080fd5b634e487b7160e01b600052604160045260246000fd5b51906001600160a01b0382168203620000cc5756fe61014080604052600436101561001457600080fd5b600080610120528061010052803560e01c91826301ffc9a71461307f5750508063065bc36f14612fcc578063150b7a0214612f76578063715018a614612f155780638da5cb5b14612eeb578063a9dd230514612eb1578063ab4b669214612e85578063bc197c8114612dfa578063be79567e146101d0578063cefa7799146101a1578063f23a6e611461014b5763f2fde38b146100b057600080fd5b34610144576020366003190112610144576100c96130d6565b6100d1613164565b6001600160a01b038116156100f0576100e9906131bc565b6101005180f35b60405162461bcd60e51b815260206004820152602660248201527f4f776e61626c653a206e6577206f776e657220697320746865207a65726f206160448201526564647265737360d01b6064820152608490fd5b6101005180fd5b346101445760a0366003190112610144576101646130d6565b5061016d6130f1565b506084356001600160401b0381116101445761018d903690600401613107565b505060405163f23a6e6160e01b8152602090f35b346101445761010051806003193601126101cd576001546040516001600160a01b039091168152602090f35b80fd5b6020366003190112611a5c576001600160401b0360043511611a5c576104c060043536036003190112611a5c57333203612de957600254604051630fbeef3760e11b81526001600160a01b0390911690602081600481855afa908115612757576101205191612daf575b5080612d99575b612c2f575b6102556104046004350161325a565b610120519015612c2a57506040516356d2e09960e11b8152602081600481855afa908115612757576101205191612bf8575b505b604051636f6f8c5d60e01b815291602083600481845afa928315612757576101205193612bc4575b5061012051918281612bbb575b6102cc60c46004350161325a565b80612b9d575b612b69575b50823410612b575780612a56575b506040516320a72b6560e11b8152602081600481855afa908115612757576101205191612a1c575b50612a0a574260246004350135106129f85761032d60c46004350161325a565b604051635aa35d2560e11b81529015156004820152602081602481855afa9081156127575761012051916129c6575b5060408051639d0f5ef160e01b8152919082600481865afa9182156127575761012051926129a3575b506064600435013510612991576064600435013511612991576084600435013515611a0e57606460043501356084600435013511611a0e57600435608401356064818102918204900361289357601e60646004350135818102929181840414901517156128935711611a0e576040518060a08101106001600160401b0360a083011117610e8d5760a08101604052610120518152610120516020820152610120516040820152610120516060820152610120516080820152604051639d0f5ef160e01b8152604081600481865afa80156127575761012051918291612970575b506020830152815260408051632f3dc77560e11b81529081600481865afa8015612757576101205191829161293f575b5060608301526040820152604051630547dd4760e31b8152602081600481865afa90811561275757610120519161290d575b5060808201526040810151604460043501351015806128f9575b156128c15760a46004350135151590816128ad575b506113e15761050960c46004350161325a565b612854575b61012051809360e4600435013515159283929561052f60c46004350161325a565b156127e1575082156127db5760e460043501355b935b84156113405761055a61022460043501613310565b60546105b261056d600480350180613324565b92908360405194859260208401976bffffffffffffffffffffffff199060601b168852426034850152848401378101610120518382015203603481018452018261322c565b5190206e5af43d82803e903d91602b57fd5bf3600154763d602d80600a3d3981f3363d3d373d3d3d363d7300000062ffffff8260881c161761012051526effffffffffffffffffffffffffffff199060781b16176020526037600961012051f5966001600160a01b038816156127965761063161014460043501613310565b9461012051946106466104046004350161325a565b612684575b61065960c46004350161325a565b6110e9575b505061066f61022460043501613310565b833b15610144576040516001620bb01d60e11b03198152610100516001600160a01b03808c166004840152909216602482015242604482015290818060648101038161010051885af18015610e7f576110d3575b506106d361022460043501613310565b6106e26101046004350161325a565b80156110be575b8061109e575b610f71575b61010051936107086101046004350161325a565b8015610f5c575b80610f3c575b610ead575b50600461016481350135101561014457610100516004356101640135600303610ea757506102e46004350135965b6002546001600160a01b031660a05261076660043561022401613310565b610774600480350180613324565b61078260c46004350161325a565b946040518060c0526001600160401b036101c08201918210911117610e8d576107da9360c0516101c0810160405260a051905260018060a01b0316602060c051015260018060a01b0316604060c051015236916133e9565b606060c051015260246004350135608060c05101526044600435013560a060c05101526064600435013560c08051015260e060c051015260a4600435013561010060c05101526084600435013561012060c0510152151561014060c0510152151561016060c0510152151561018060c051015215156101a060c05101526108666102a460043501613310565b60405192836101008101106001600160401b0361010086011117610e8d57610100840160405261089d61016460043501358561349e565b6001600160a01b03908116602085015260043561018481013560408601526101a48101356060860152911660808401526102c481013560a08401526102e481013560c084015290151560e08301526108f89061036401613310565b91600461038481350135101561014457604051928360808101106001600160401b03608086011117610e8d57608084016040526001600160a01b0316835261094a60043561038401356020850161349e565b6004356103a481013560408501526103e48101356060850152610970906104040161325a565b9061098661042460043501600435600401613324565b9290604051938460408101106001600160401b03604087011117610e8d576109ba92604086016040521515855236916133e9565b60208301526001600160a01b0386163b15610144576060602094610b9560405196879586948594633ec3cac760e21b86526101c0600487015260018060a01b0360c05151166101c487015260018060a01b038460c0510151166101e487015260018060a01b03604060c05101511661020487015260e0610a4d8360c05101516101c06102248a01526103848901906134aa565b9a608060c051015161024489015260a060c051015161026489015260c0805101516102848901528160c05101516102a489015261010060c05101516102c489015261012060c05101516102e489015261014060c0510151151561030489015261016060c0510151151561032489015261018060c051015115156103448901526101a060c05101511515610364890152610aea6024890182516133b9565b808601516001600160a01b0390811660448a0152604082015160648a01528482015160848a01526080820151811660a48a015260a082015160c48a015260c082015160e48a0152910151151561010488015281511661012487015280840151610b58906101448801906133b9565b60408101516101648701520151610184850152600319848903016101a48501528051151588520151604060208801526040610100519701906134aa565b03916001600160a01b0388165af18015610e7f57610e69575b50610bb990346133ac565b80610e2a575b506001600160a01b03610bd760043561022401613310565b169060405191610100517f4f2ce4e40f623ca765fc0167a25cb7842ceaafb8d82d3dec26ca0d0e0d2d489660018060a01b0384169180a361044460043501916103e8610c2884600435600401613324565b905011610e1b57506104646004350160c8610c4882600435600401613324565b905011610e09576104846004350160c8610c6782600435600401613324565b905011610df7576104a4600435019160c8610c8784600435600401613324565b905011610de55784610ca0602096600435600401613324565b1580159150610dcc575b8015610db3575b8015610d9a575b610cd0575b6040516001600160a01b03861681528690f35b610d8e7f4e2fb815c48f38871c1a97680d69ecfc7db86ce1f02e00f1f438d6bdbb92b3a093610d73610d3096610d3e610d65610d14610d2297600435600401613324565b979098600435600401613324565b9a9095600435600401613324565b929093600435600401613324565b95909a610d586040519a8b9a60808c5260808c0191613356565b918983038f8b0152613356565b918683036040880152613356565b83810360608501526001600160a01b03881696909190613356565b0390a282808080610cbd565b50610daa84600435600401613324565b90501515610cb8565b50610dc383600435600401613324565b90501515610cb1565b50610ddc82600435600401613324565b90501515610caa565b60405163621c786f60e01b8152600490fd5b60405163f94023a960e01b8152600490fd5b604051637a59f6af60e11b8152600490fd5b630d7cfc5960e41b8152600490fd5b6101005180808093610e4161022460043501613310565b5af1610e4b6132a1565b5015610e575781610bbf565b604051633c31275160e21b8152600490fd5b610e7290613203565b610100518015610bae5780fd5b6040513d61010051823e3d90fd5b634e487b7160e01b61012051526041600452602461012051fd5b96610748565b9093506020610ec161014460043501613310565b604051631a74b3f360e01b81526001600160a01b03909116600482015291829060249082905afa908115610e7f576101005191610f02575b5015928961071a565b90506020813d602011610f34575b81610f1d6020938361322c565b8101031261014457610f2e9061324d565b89610ef9565b3d9150610f10565b506001600160a01b03610f5460043561014401613310565b161515610715565b50610f6c6101246004350161325a565b61070f565b600461016481350135101561014457600435610164013561103a57600460206001600160a01b03610fa6833561014401613310565b1660405192838092638da5cb5b60e01b82525afa908115610e7f57610100519161100b575b505b610fdc61022460043501613310565b6001600160a01b038281169116141580611004575b610ffc575b506106f4565b905089610ff6565b5083610ff1565b61102d915060203d602011611033575b611025818361322c565b810190613267565b8a610fcb565b503d61101b565b600460206001600160a01b03611054833561014401613310565b1660405192838092638da5cb5b60e01b82525afa908115610e7f57610100519161107f575b50610fcd565b611098915060203d60201161103357611025818361322c565b8a611079565b506001600160a01b036110b660043561014401613310565b1615156106ef565b506110ce6101246004350161325a565b6106e9565b6110dc90613203565b6101005180156106c35780fd5b60046101648197939497350135101561014457600435610164013560020361136457506001600160a01b03905061112560043561014401613310565b166112de576102c460043501351561135257611157611151608460043501356102c46004350135613420565b15613440565b6113405760a46004350135156112f0576102e460043501356112de576001926111e360206001600160a01b036111926004356102a401613310565b166111a261022460043501613310565b6040516323b872dd60e01b81526001600160a01b03909116600480830191909152306024830152356102c40135604482015292839190829081906064820190565b039161010051905af18015610e7f576112a5575b5061124f6020896001600160a01b036112156004356102a401613310565b16604051808095819463a9059cbb60e01b83526102c46004350135906004840160209093929193604081019460018060a01b031681520152565b039161010051905af18015610e7f5761126c575b505b888061065e565b6020813d60201161129d575b816112856020938361322c565b81010312610144576112969061324d565b5088611263565b3d9150611278565b6020813d6020116112d6575b816112be6020938361322c565b81010312610144576112cf9061324d565b50886111f7565b3d91506112b1565b604051631558dc5f60e31b8152600490fd5b60405162461bcd60e51b815260206004820152602260248201527f4d617820736c6f747320706572207061727469636970616e7420726571756972604482015261195960f21b6064820152608490fd5b604051633c8e6e6960e11b8152600490fd5b604051630193f71f60e51b8152600490fd5b60043561016401356003036113f357506001600160a01b03905061138d6004356102a401613310565b166112de576001600160a01b036113a960043561014401613310565b166112de576113c8611151608460043501356102e46004350135613420565b6113405760a46004350135156113e1576001925b611265565b604051631757938960e31b8152600490fd5b6004356101640135611e3f5760016101a4600435013511611352576001600160a01b0361142560043561014401613310565b16151580611e29575b15611614575050506001608460043501351161135257602460206001600160a01b0361145f60043561014401613310565b16604051928380926331a9108f60e11b8252610184600435013560048301525afa908115610e7f5761010051916115f5575b506001600160a01b036114a960043561022401613310565b166001600160a01b03909116036115e3576001926001600160a01b036114d460043561014401613310565b166114e461022460043501613310565b813b1561014457604051632142170760e11b8152610100516001600160a01b039092166004808301919091523060248301523561018401356044820152918290818060648101039161010051905af18015610e7f576115cd575b506001600160a01b0361155660043561014401613310565b16803b1561014457604051632142170760e11b815261010051306004808401919091526001600160a01b038c166024840152356101840135604483015290918290818060648101039161010051905af18015610e7f576115b7575b50611265565b6115c090613203565b6101005180156115b15780fd5b6115d690613203565b61010051801561153e5780fd5b604051632d346a9760e01b8152600490fd5b61160e915060203d60201161103357611025818361322c565b88611491565b91969094926001600160a01b0361163060043561014401613310565b16151580611e14575b15611af157506001600160a01b03905061165860043561014401613310565b6040516301ffc9a760e01b81526380ac58cd60e01b6004820152911690602081602481855afa908115610e7f576101005191611ab7575b5015611a6b576040516301ffc9a760e01b8152637c97ded960e11b600482015290602090829060249082905afa908115610e7f576101005191611a7d575b5015611a6b57600460206001600160a01b036116ed833561014401613310565b1660405192838092633f6615ab60e11b82525afa908115610e7f576101005191611a32575b506084600435013511611a205760016084600435013514611a0e5761016460043501356112de57600460206001600160a01b03611753833561014401613310565b1660405192838092638da5cb5b60e01b82525afa908115610e7f5761010051916119ef575b5061178861022460043501613310565b6001600160a01b0390811691160361182057851561181b575060e460043501355b94905b6001600160a01b036117c360043561014401613310565b16803b15610144576040516227675f60e01b8152610100516001600160a01b038b166004808401919091523560840135602483015290918290818060448101039161010051905af18015610e7f576115b75750611265565b6117a9565b9094906001600160a01b0361183a60043561014401613310565b1660c061184c61022460043501613310565b6040516317f6397960e01b81526001600160a01b03909116600482015291829060249082905afa908115610e7f57610100519182809281926119b6575b50156119a557611898916133ac565b6084600435013511611993576118b36101046004350161325a565b61198a575b80611971575094610100519161195f575b6001600160a01b036118e060043561014401613310565b166118f061022460043501613310565b813b15610144576040516334ea162f60e11b8152610100516001600160a01b0390921660048083019190915235608401356024820152918290818060448101039161010051905af18015610e7f57611949575b506117ac565b61195290613203565b6101005180156119435780fd5b60405163805596b160e01b8152600490fd5b9150508060e460043501350361195f57936001906118c9565b600196506118b8565b604051630161dc7d60e21b8152600490fd5b6040516282b42960e81b8152600490fd5b925050506119db915060c03d81116119e8575b6119d3818361322c565b810190613377565b92949193508d9050611889565b503d6119c9565b611a08915060203d60201161103357611025818361322c565b89611778565b60405163c827d5c360e01b8152600490fd5b604051632fb7debb60e11b8152600490fd5b90506020813d602011611a63575b81611a4d6020938361322c565b81010312611a5c575189611712565b6101205180fd5b3d9150611a40565b6040516359071b0760e11b8152600490fd5b90506020813d602011611aaf575b81611a986020938361322c565b8101031261014457611aa99061324d565b896116cd565b3d9150611a8b565b90506020813d602011611ae9575b81611ad26020938361322c565b8101031261014457611ae39061324d565b8a61168f565b3d9150611ac5565b9096509190506001600160a01b03611b0e60043561014401613310565b166113dc579250925061016460043501356112de57611b326101046004350161325a565b6112de5760016084600435013514611a0e5760846004350135610284600435013510611a2057611b6761022460043501613310565b92611b7761026460043501613310565b93611b8d6101c460043501600435600401613324565b90611ba36101e460043501600435600401613324565b611bbb61020460049693963501600435600401613324565b9460036103046004350135101561014457611c08611c1092611c00600499611bf8611bee6103248d35018d358e01613324565b9a909636916133e9565b9636916133e9565b9736916133e9565b9436916133e9565b60025460405163d63843cd60e01b81529691939160209188919082906001600160a01b03165afa928315610e7f57611ca09a6020976101005195611de5575b5090611d0a9291611cb2611c8e96976040519e8f9a8b998a996381a991f160e01b8b526101205160048c015261016060248c01526101648b01906134aa565b8981036003190160448b0152906134aa565b878103600319016064890152906134aa565b6001600160a01b03938416608487015260043561024481013560a48801529190931660c486015261028481013560e4860152611cf89061010486019061030401356133dc565b838203600319016101248501526134aa565b600435610344013561014483015261010051919003926001600160a01b03165af1938415610e7f576101005194611dc4575b50836001600160a01b0381163b15610144576040516227675f60e01b8152610100516001600160a01b038a16600480840191909152356084013560248301529091829081806044810161010051919003926001600160a01b03165af18015610e7f57611dae575b506101005192611265565b611db790613203565b610100518015611da35780fd5b611dde91945060203d60201161103357611025818361322c565b9287611d3c565b611c8e955090611cb2611e09611d0a9594938b3d8d1161103357611025818361322c565b965050909192611c4f565b50611e246101046004350161325a565b611639565b50611e396101046004350161325a565b1561142e565b60016101646004989493979835013514600014612646576101a4600435013515612601576001600160a01b03611e7a60043561014401613310565b166121545750505060016084600435013514611a0e57611ea76101a46004350135608460043501356132e7565b610284600435013510611a205760405163d63843cd60e01b8152602081600481865afa908115610e7f576101005191612135575b50611ef16101c460043501600435600401613324565b9190611f086101e460043501600435600401613324565b60e052611f2061020460043501600435600401613324565b929094611f3261022460043501613310565b92611f4261026460043501613310565b906003610304600435013510156101445760209761204496611fc6611fdb93611fad611f7961032460043501600435600401613324565b999098604051806080526381a991f160e01b9052600160046080510152610160602460805101526101646080510191613356565b9060805160446003198285030191015260e05190613356565b91608051606460031982860301910152613356565b9360018060a01b031660846080510152610244600435013560a4608051015260018060a01b031660c46080510152610284600435013560e4608051015261202f6101046080510161030460043501356133dc565b60805161012460031982860301910152613356565b90610344600435013561014460805101526080518080930391610100519060018060a01b03165af1938415610e7f5761010051946120ff575b846120956101a46004350135608460043501356132e7565b906001600160a01b0381163b15610144576040516309de21c160e41b815261010080516001600160a01b038d81166004808601919091523561018401356024850152604484019590955290519193909284926064928492165af18015610e7f576115b75750611265565b935060203d60201161212e575b8061211c6121289260805161322c565b60805190810190613267565b9361207d565b503d61210c565b61214e915060203d60201161103357611025818361322c565b88611edb565b9195916001600160a01b0361216e60043561014401613310565b161515806125ec575b612183575b5050611265565b90965091506001600160a01b0361219f60043561014401613310565b6040516301ffc9a760e01b8152636cdb3d1360e11b6004820152911690602081602481855afa908115610e7f5761010051916125b2575b5015611a6b576040516301ffc9a760e01b81526315ba79c360e11b600482015290602090829060249082905afa908115610e7f576101005191612578575b5015611a6b5760016084600435013514611a0e5761223f6101a46004350135608460043501356132e7565b91602460206001600160a01b0361225b60043561014401613310565b1660405192838092633570cb2960e21b8252610184600435013560048301525afa8015610e7f5784916101005191612543575b5010611a2057600460206001600160a01b036122ae833561014401613310565b1660405192838092638da5cb5b60e01b82525afa908115610e7f576101005191612524575b506122e361022460043501613310565b6001600160a01b03908116911603612398578615612393575060e460043501355b95915b6001600160a01b0361231e60043561014401613310565b16803b15610144576040516309de21c160e41b815261010080516001600160a01b038d16600480850191909152356101840135602484015260448301949094525190929183916064918391905af18015610e7f5761237d575b8061217c565b61238690613203565b6101005180156123775780fd5b612304565b9195916001600160a01b036123b260043561014401613310565b1660c06123c461022460043501613310565b6040516317f6397960e01b81526001600160a01b03909116600482015291829060249082905afa908115610e7f57610100519182809281926124fb575b50156119a557612410916133ac565b60846004350135116119935761242b6101246004350161325a565b6124f2575b806124d7575095610100519261195f575b6001600160a01b0361245860043561014401613310565b1661246861022460043501613310565b813b15610144576040516334ea162f60e11b8152610100516001600160a01b0390921660048083019190915235608401356024820152918290818060448101039161010051905af18015610e7f576124c1575b50612307565b6124ca90613203565b6101005180156124bb5780fd5b91969250508060e460043501350361195f5794600191612441565b60019250612430565b92505050612517915060c03d81116119e8576119d3818361322c565b92949193508e9050612401565b61253d915060203d60201161103357611025818361322c565b8a6122d3565b9150506020813d602011612570575b8161255f6020938361322c565b81010312611a5c578390518b61228e565b3d9150612552565b90506020813d6020116125aa575b816125936020938361322c565b81010312610144576125a49061324d565b89612214565b3d9150612586565b90506020813d6020116125e4575b816125cd6020938361322c565b81010312610144576125de9061324d565b8a6121d6565b3d91506125c0565b506125fc6101246004350161325a565b612177565b60405162461bcd60e51b815260206004820152601d60248201527f416d6f756e74207065722077696e6e6572206d757374206265203e20300000006044820152606490fd5b60405162461bcd60e51b8152602060048201526016602482015275556e737570706f72746564207072697a65207479706560501b6044820152606490fd5b604051636b90bda960e01b8152602081600481895afa908115612757576101205191612777575b506001600160a01b03811615612765576126d061042460043501600435600401613324565b906001600160a01b0383163b15611a5c5761271c928d6040518095819482936341f4672d60e11b845260018060a01b031660048401526040602484015261012051966044840191613356565b61012051919003926001600160a01b03165af1801561275757612740575b5061064b565b61274990613203565b61012051610100528a61273a565b6040513d61012051823e3d90fd5b6040516369ecf6c760e11b8152600490fd5b612790915060203d60201161103357611025818361322c565b8b6126ab565b60405162461bcd60e51b815260206004820152601760248201527f455243313136373a2063726561746532206661696c65640000000000000000006044820152606490fd5b81610543565b93508282949061134057600160a4600435013511612842576001600160a01b0361281060043561014401613310565b16612842576128246101046004350161325a565b612842576101846004350135612842576101a4600435013515610545575b604051630309cb8760e51b8152600490fd5b6064600435013580800460011490151715612893576103e8606460043501350460a46004350135111561050e57604051631757938960e31b8152600490fd5b634e487b7160e01b61012051526011600452602461012051fd5b60809150015160a4600435013511846104f6565b60405162461bcd60e51b815260206004820152601060248201526f24b73b30b634b210323ab930ba34b7b760811b6044820152606490fd5b5060608101516044600435013511156104e1565b90506020813d602011612937575b816129286020938361322c565b81010312611a5c5751856104c7565b3d915061291b565b9050612963915060403d604011612969575b61295b818361322c565b8101906132d1565b86610495565b503d612951565b905061298b915060403d6040116129695761295b818361322c565b86610465565b60405163ac255ca760e01b8152600490fd5b6129bd91925060403d6040116129695761295b818361322c565b90509085610385565b90506020813d6020116129f0575b816129e16020938361322c565b81010312611a5c57518461035c565b3d91506129d4565b604051632ca4094f60e21b8152600490fd5b6040516316247b3f60e11b8152600490fd5b90506020813d602011612a4e575b81612a376020938361322c565b81010312611a5c57612a489061324d565b8461030d565b3d9150612a2a565b60405163524d530b60e01b8152602081600481865afa908115612757576101205191612b38575b506001600160a01b03811615612af3576040519060208201635e5bc1c560e11b815283602484015260248352606083018381106001600160401b03821117610e8d576040526101205193849351925af1612ad56132a1565b5015612ae157836102e5565b604051635b5b44c760e01b8152600490fd5b60405162461bcd60e51b815260206004820152601760248201527f526576656e7565206d616e61676572206e6f74207365740000000000000000006044820152606490fd5b612b51915060203d60201161103357611025818361322c565b85612a7d565b60405163dbc3a71f60e01b8152600490fd5b6102e460049492943501358201809211612b85575091846102d7565b634e487b7160e01b9052601160045261012051602490fd5b5061016460043501356004811015612bb7576003146102d2565b5080fd5b925080926102be565b9092506020813d602011612bf0575b81612be06020938361322c565b81010312611a5c575191836102b1565b3d9150612bd3565b90506020813d602011612c22575b81612c136020938361322c565b81010312611a5c575182610287565b3d9150612c06565b610289565b60405163120e97c560e21b8152602081600481855afa908115612757576101205191612d7a575b50604051634c0e35b160e01b815290602082600481865afa918215612757576101205192612d46575b506001600160a01b03168015612d09576020602491604051928380926370a0823160e01b82523360048301525afa908115612757576101205191612cd7575b5010156102465760405163cf57495560e01b8152600490fd5b90506020813d602011612d01575b81612cf26020938361322c565b81010312611a5c575183612cbe565b3d9150612ce5565b60405162461bcd60e51b815260206004820152601560248201527410dc99585d1bdc881d1bdad95b881b9bdd081cd95d605a1b6044820152606490fd5b9091506020813d602011612d72575b81612d626020938361322c565b81010312611a5c57519083612c7f565b3d9150612d55565b612d93915060203d60201161103357611025818361322c565b82612c56565b50612da96104046004350161325a565b15610241565b90506020813d602011612de1575b81612dca6020938361322c565b81010312611a5c57612ddb9061324d565b8261023a565b3d9150612dbd565b604051628b531560e01b8152600490fd5b34611a5c5760a0366003190112611a5c57612e136130d6565b50612e1c6130f1565b506001600160401b03604435818111611a5c57612e3d903690600401613134565b5050606435818111611a5c57612e57903690600401613134565b5050608435908111611a5c57612e71903690600401613107565b505060405163bc197c8160e01b8152602090f35b34611a5c5761012051806003193601126101cd576002546040516001600160a01b039091168152602090f35b34611a5c5761012051806003193601126101cd57546001600160a01b0390811633036119a557612ee490600254166131bc565b6101205180f35b34611a5c5761012051806003193601126101cd57546040516001600160a01b039091168152602090f35b34611a5c5761012051806003193601126101cd57612f31613164565b6101205180546001600160a01b03198116825581906001600160a01b03167f8be0079c531659141344cd1fd0a4f28419497f9722a3daafe3b4186f6b6457e08280a380f35b34611a5c576080366003190112611a5c57612f8f6130d6565b50612f986130f1565b506064356001600160401b038111611a5c57612fb8903690600401613107565b5050604051630a85bd0160e11b8152602090f35b34611a5c576020366003190112611a5c57612fe56130d6565b612fed613164565b6001600160a01b0316801561303a57600180546001600160a01b0319168217905561012051907f1eed81ce21a92b04ae795cb172e51fb0f8c7f90ec3cd2dc2b4c6395d8d39456f8280a280f35b60405162461bcd60e51b815260206004820152601b60248201527f496e76616c696420506f6f6c20696d706c656d656e746174696f6e00000000006044820152606490fd5b34612bb7576020366003190112612bb75760043563ffffffff60e01b81168091036130d25760209250630a85bd0160e11b81149081156130c1575b5015158152f35b630271189760e51b149050836130ba565b8280fd5b600435906001600160a01b03821682036130ec57565b600080fd5b602435906001600160a01b03821682036130ec57565b9181601f840112156130ec578235916001600160401b0383116130ec57602083818601950101116130ec57565b9181601f840112156130ec578235916001600160401b0383116130ec576020808501948460051b0101116130ec57565b6000546001600160a01b0316330361317857565b606460405162461bcd60e51b815260206004820152602060248201527f4f776e61626c653a2063616c6c6572206973206e6f7420746865206f776e65726044820152fd5b600080546001600160a01b039283166001600160a01b03198216811783559216907f8be0079c531659141344cd1fd0a4f28419497f9722a3daafe3b4186f6b6457e09080a3565b6001600160401b03811161321657604052565b634e487b7160e01b600052604160045260246000fd5b90601f801991011681019081106001600160401b0382111761321657604052565b519081151582036130ec57565b3580151581036130ec5790565b908160209103126130ec57516001600160a01b03811681036130ec5790565b6001600160401b03811161321657601f01601f191660200190565b3d156132cc573d906132b282613286565b916132c0604051938461322c565b82523d6000602084013e565b606090565b91908260409103126130ec576020825192015190565b818102929181159184041417156132fa57565b634e487b7160e01b600052601160045260246000fd5b356001600160a01b03811681036130ec5790565b903590601e19813603018212156130ec57018035906001600160401b0382116130ec576020019181360383136130ec57565b908060209392818452848401376000828201840152601f01601f1916010190565b91908260c09103126130ec5761338c8261324d565b9160208101519160408201519160608101519160a0608083015192015190565b919082039182116132fa57565b9060048210156133c65752565b634e487b7160e01b600052602160045260246000fd5b9060038210156133c65752565b9291926133f582613286565b91613403604051938461322c565b8294818452818301116130ec578281602093846000960137010152565b811561342a570690565b634e487b7160e01b600052601260045260246000fd5b1561344757565b60405162461bcd60e51b815260206004820152602960248201527f5072697a6520616d6f756e74206d75737420626520646976697369626c652062604482015268792077696e6e65727360b81b6064820152608490fd5b60048210156133c65752565b919082519283825260005b8481106134d6575050826000602080949584010152601f8019910116010190565b6020818301810151848301820152016134b556fea2646970667358221220dcb0248a113c4a237517f949e9190ae84c0ecd2b6c877e98c157556522782d8b64736f6c63430008130033",
  "linkReferences": {},
  "deployedLinkReferences": {}
}