{
  "_format": "hh-sol-artifact-1",
  "contractName": "Pool",
  "sourceName": "contracts/Pool.sol",
  "abi": [
    {
      "inputs": [
        {
          "internalType": "address",
          "name": "_factory",
          "type": "address"
        }
      ],
      "stateMutability": "nonpayable",
      "type": "constructor"
    },
    {
      "inputs": [],
      "name": "ContractsCannotPurchase",
      "type": "error"
    },
    {
      "inputs": [],
      "name": "CreatorNotAllowed",
      "type": "error"
    },
    {
      "inputs": [],
      "name": "ExceedsMaxSlots",
      "type": "error"
    },
    {
      "inputs": [],
      "name": "ExceedsSlotLimit",
      "type": "error"
    },
    {
      "inputs": [],
      "name": "ExceedsWinnersCount",
      "type": "error"
    },
    {
      "inputs": [],
      "name": "IncorrectPayment",
      "type": "error"
    },
    {
      "inputs": [],
      "name": "InvalidNonPrizedPurchase",
      "type": "error"
    },
    {
      "inputs": [],
      "name": "InvalidPoolState",
      "type": "error"
    },
    {
      "inputs": [],
      "name": "InvalidPrizeAmount",
      "type": "error"
    },
    {
      "inputs": [],
      "name": "InvalidPrizeCollection",
      "type": "error"
    },
    {
      "inputs": [],
      "name": "InvalidPrizeType",
      "type": "error"
    },
    {
      "inputs": [],
      "name": "InvalidState",
      "type": "error"
    },
    {
      "inputs": [],
      "name": "MintingNotSupported",
      "type": "error"
    },
    {
      "inputs": [],
      "name": "NoPrizesClaimedYet",
      "type": "error"
    },
    {
      "inputs": [],
      "name": "NoPrizesToClaim",
      "type": "error"
    },
    {
      "inputs": [],
      "name": "NotAWinner",
      "type": "error"
    },
    {
      "inputs": [],
      "name": "OnlyOperator",
      "type": "error"
    },
    {
      "inputs": [],
      "name": "PoolDurationElapsed",
      "type": "error"
    },
    {
      "inputs": [],
      "name": "PoolNotActive",
      "type": "error"
    },
    {
      "inputs": [],
      "name": "PrizeTransferFailed",
      "type": "error"
    },
    {
      "inputs": [],
      "name": "ProtocolAdminNotAllowed",
      "type": "error"
    },
    {
      "inputs": [],
      "name": "SocialEngagementNotConfigured",
      "type": "error"
    },
    {
      "inputs": [],
      "name": "TimestampDelayIssue",
      "type": "error"
    },
    {
      "inputs": [],
      "name": "UnauthorizedCaller",
      "type": "error"
    },
    {
      "inputs": [],
      "name": "ZeroAddress",
      "type": "error"
    },
    {
      "inputs": [],
      "name": "ZeroQuantity",
      "type": "error"
    },
    {
      "inputs": [],
      "name": "ZeroSlotFee",
      "type": "error"
    },
    {
      "anonymous": false,
      "inputs": [
        {
          "indexed": false,
          "internalType": "string",
          "name": "reason",
          "type": "string"
        }
      ],
      "name": "BatchProcessingFailed",
      "type": "event"
    },
    {
      "anonymous": false,
      "inputs": [
        {
          "indexed": false,
          "internalType": "bytes",
          "name": "lowLevelData",
          "type": "bytes"
        }
      ],
      "name": "BatchProcessingFailedBytes",
      "type": "event"
    },
    {
      "anonymous": false,
      "inputs": [],
      "name": "FullRefundEnabledForDeletion",
      "type": "event"
    },
    {
      "anonymous": false,
      "inputs": [
        {
          "indexed": true,
          "internalType": "address",
          "name": "participant",
          "type": "address"
        },
        {
          "indexed": false,
          "internalType": "uint256",
          "name": "amount",
          "type": "uint256"
        }
      ],
      "name": "FullRefundForDeletion",
      "type": "event"
    },
    {
      "anonymous": false,
      "inputs": [
        {
          "indexed": true,
          "internalType": "address",
          "name": "winner",
          "type": "address"
        },
        {
          "indexed": false,
          "internalType": "string",
          "name": "reason",
          "type": "string"
        }
      ],
      "name": "MintingFailed",
      "type": "event"
    },
    {
      "anonymous": false,
      "inputs": [
        {
          "indexed": true,
          "internalType": "address",
          "name": "previousOwner",
          "type": "address"
        },
        {
          "indexed": true,
          "internalType": "address",
          "name": "newOwner",
          "type": "address"
        }
      ],
      "name": "OwnershipTransferred",
      "type": "event"
    },
    {
      "anonymous": false,
      "inputs": [
        {
          "indexed": false,
          "internalType": "address",
          "name": "account",
          "type": "address"
        }
      ],
      "name": "Paused",
      "type": "event"
    },
    {
      "anonymous": false,
      "inputs": [],
      "name": "PoolActivated",
      "type": "event"
    },
    {
      "anonymous": false,
      "inputs": [],
      "name": "PoolDeleted",
      "type": "event"
    },
    {
      "anonymous": false,
      "inputs": [],
      "name": "PoolEnded",
      "type": "event"
    },
    {
      "anonymous": false,
      "inputs": [],
      "name": "PoolUnengaged",
      "type": "event"
    },
    {
      "anonymous": false,
      "inputs": [
        {
          "indexed": true,
          "internalType": "address",
          "name": "winner",
          "type": "address"
        },
        {
          "indexed": false,
          "internalType": "uint256",
          "name": "tokenId",
          "type": "uint256"
        }
      ],
      "name": "PrizeClaimed",
      "type": "event"
    },
    {
      "anonymous": false,
      "inputs": [
        {
          "indexed": false,
          "internalType": "uint256",
          "name": "requestId",
          "type": "uint256"
        }
      ],
      "name": "RandomRequested",
      "type": "event"
    },
    {
      "anonymous": false,
      "inputs": [
        {
          "indexed": true,
          "internalType": "address",
          "name": "participant",
          "type": "address"
        },
        {
          "indexed": false,
          "internalType": "uint256",
          "name": "amount",
          "type": "uint256"
        }
      ],
      "name": "RefundClaimed",
      "type": "event"
    },
    {
      "anonymous": false,
      "inputs": [
        {
          "indexed": true,
          "internalType": "address",
          "name": "recipient",
          "type": "address"
        },
        {
          "indexed": false,
          "internalType": "uint256",
          "name": "amount",
          "type": "uint256"
        }
      ],
      "name": "RevenueWithdrawn",
      "type": "event"
    },
    {
      "anonymous": false,
      "inputs": [
        {
          "indexed": true,
          "internalType": "uint256",
          "name": "batchNumber",
          "type": "uint256"
        },
        {
          "indexed": false,
          "internalType": "uint256",
          "name": "participantCount",
          "type": "uint256"
        },
        {
          "indexed": false,
          "internalType": "uint256",
          "name": "shuffleStartIndex",
          "type": "uint256"
        },
        {
          "indexed": false,
          "internalType": "uint256",
          "name": "batchSize",
          "type": "uint256"
        }
      ],
      "name": "SelectionStarted",
      "type": "event"
    },
    {
      "anonymous": false,
      "inputs": [
        {
          "indexed": true,
          "internalType": "address",
          "name": "participant",
          "type": "address"
        },
        {
          "indexed": false,
          "internalType": "uint256",
          "name": "quantity",
          "type": "uint256"
        }
      ],
      "name": "SlotsPurchased",
      "type": "event"
    },
    {
      "anonymous": false,
      "inputs": [
        {
          "indexed": false,
          "internalType": "address",
          "name": "account",
          "type": "address"
        }
      ],
      "name": "Unpaused",
      "type": "event"
    },
    {
      "anonymous": false,
      "inputs": [
        {
          "indexed": false,
          "internalType": "string",
          "name": "reason",
          "type": "string"
        }
      ],
      "name": "VRFRequestFailed",
      "type": "event"
    },
    {
      "anonymous": false,
      "inputs": [
        {
          "indexed": false,
          "internalType": "bytes",
          "name": "lowLevelData",
          "type": "bytes"
        }
      ],
      "name": "VRFRequestFailedBytes",
      "type": "event"
    },
    {
      "anonymous": false,
      "inputs": [
        {
          "indexed": false,
          "internalType": "address[]",
          "name": "winners",
          "type": "address[]"
        }
      ],
      "name": "WinnersSelected",
      "type": "event"
    },
    {
      "inputs": [
        {
          "internalType": "uint256",
          "name": "batchRandomSeed",
          "type": "uint256"
        }
      ],
      "name": "_processBatchWithRandomness",
      "outputs": [],
      "stateMutability": "nonpayable",
      "type": "function"
    },
    {
      "inputs": [],
      "name": "amountPerWinner",
      "outputs": [
        {
          "internalType": "uint256",
          "name": "",
          "type": "uint256"
        }
      ],
      "stateMutability": "view",
      "type": "function"
    },
    {
      "inputs": [],
      "name": "batchCount",
      "outputs": [
        {
          "internalType": "uint256",
          "name": "",
          "type": "uint256"
        }
      ],
      "stateMutability": "view",
      "type": "function"
    },
    {
      "inputs": [
        {
          "internalType": "uint256",
          "name": "",
          "type": "uint256"
        }
      ],
      "name": "batchRandomSeeds",
      "outputs": [
        {
          "internalType": "uint256",
          "name": "",
          "type": "uint256"
        }
      ],
      "stateMutability": "view",
      "type": "function"
    },
    {
      "inputs": [],
      "name": "claimPrize",
      "outputs": [],
      "stateMutability": "nonpayable",
      "type": "function"
    },
    {
      "inputs": [],
      "name": "claimRefund",
      "outputs": [],
      "stateMutability": "nonpayable",
      "type": "function"
    },
    {
      "inputs": [
        {
          "internalType": "address",
          "name": "",
          "type": "address"
        }
      ],
      "name": "claimedWins",
      "outputs": [
        {
          "internalType": "uint256",
          "name": "",
          "type": "uint256"
        }
      ],
      "stateMutability": "view",
      "type": "function"
    },
    {
      "inputs": [],
      "name": "closePool",
      "outputs": [],
      "stateMutability": "nonpayable",
      "type": "function"
    },
    {
      "inputs": [],
      "name": "creationFeePercentage",
      "outputs": [
        {
          "internalType": "uint256",
          "name": "",
          "type": "uint256"
        }
      ],
      "stateMutability": "view",
      "type": "function"
    },
    {
      "inputs": [],
      "name": "creator",
      "outputs": [
        {
          "internalType": "address",
          "name": "",
          "type": "address"
        }
      ],
      "stateMutability": "view",
      "type": "function"
    },
    {
      "inputs": [],
      "name": "currentBatchSize",
      "outputs": [
        {
          "internalType": "uint256",
          "name": "",
          "type": "uint256"
        }
      ],
      "stateMutability": "view",
      "type": "function"
    },
    {
      "inputs": [],
      "name": "deletePool",
      "outputs": [],
      "stateMutability": "nonpayable",
      "type": "function"
    },
    {
      "inputs": [],
      "name": "duration",
      "outputs": [
        {
          "internalType": "uint256",
          "name": "",
          "type": "uint256"
        }
      ],
      "stateMutability": "view",
      "type": "function"
    },
    {
      "inputs": [],
      "name": "endTime",
      "outputs": [
        {
          "internalType": "uint256",
          "name": "",
          "type": "uint256"
        }
      ],
      "stateMutability": "view",
      "type": "function"
    },
    {
      "inputs": [],
      "name": "erc20PrizeAmount",
      "outputs": [
        {
          "internalType": "uint256",
          "name": "",
          "type": "uint256"
        }
      ],
      "stateMutability": "view",
      "type": "function"
    },
    {
      "inputs": [],
      "name": "erc20PrizeToken",
      "outputs": [
        {
          "internalType": "address",
          "name": "",
          "type": "address"
        }
      ],
      "stateMutability": "view",
      "type": "function"
    },
    {
      "inputs": [],
      "name": "erc721EscrowClaimed",
      "outputs": [
        {
          "internalType": "bool",
          "name": "",
          "type": "bool"
        }
      ],
      "stateMutability": "view",
      "type": "function"
    },
    {
      "inputs": [],
      "name": "getParticipantsCount",
      "outputs": [
        {
          "internalType": "uint256",
          "name": "",
          "type": "uint256"
        }
      ],
      "stateMutability": "view",
      "type": "function"
    },
    {
      "inputs": [
        {
          "internalType": "address",
          "name": "participant",
          "type": "address"
        }
      ],
      "name": "getRefundableAmount",
      "outputs": [
        {
          "internalType": "uint256",
          "name": "",
          "type": "uint256"
        }
      ],
      "stateMutability": "view",
      "type": "function"
    },
    {
      "inputs": [],
      "name": "getSlotLimit",
      "outputs": [
        {
          "internalType": "uint256",
          "name": "",
          "type": "uint256"
        }
      ],
      "stateMutability": "view",
      "type": "function"
    },
    {
      "inputs": [
        {
          "internalType": "address",
          "name": "participant",
          "type": "address"
        }
      ],
      "name": "getSlotsPurchased",
      "outputs": [
        {
          "internalType": "uint256",
          "name": "",
          "type": "uint256"
        }
      ],
      "stateMutability": "view",
      "type": "function"
    },
    {
      "inputs": [
        {
          "internalType": "address",
          "name": "",
          "type": "address"
        }
      ],
      "name": "hasClaimedFeeRefund",
      "outputs": [
        {
          "internalType": "bool",
          "name": "",
          "type": "bool"
        }
      ],
      "stateMutability": "view",
      "type": "function"
    },
    {
      "inputs": [
        {
          "internalType": "address",
          "name": "",
          "type": "address"
        }
      ],
      "name": "hasCompletedSocialEngagement",
      "outputs": [
        {
          "internalType": "bool",
          "name": "",
          "type": "bool"
        }
      ],
      "stateMutability": "view",
      "type": "function"
    },
    {
      "inputs": [],
      "name": "holderTokenAddress",
      "outputs": [
        {
          "internalType": "address",
          "name": "",
          "type": "address"
        }
      ],
      "stateMutability": "view",
      "type": "function"
    },
    {
      "inputs": [],
      "name": "holderTokenId",
      "outputs": [
        {
          "internalType": "uint256",
          "name": "",
          "type": "uint256"
        }
      ],
      "stateMutability": "view",
      "type": "function"
    },
    {
      "inputs": [],
      "name": "holderTokenStandard",
      "outputs": [
        {
          "internalType": "enum PrizeTypes.Standard",
          "name": "",
          "type": "uint8"
        }
      ],
      "stateMutability": "view",
      "type": "function"
    },
    {
      "inputs": [],
      "name": "i_vrfCoordinator",
      "outputs": [
        {
          "internalType": "contract VRFCoordinatorV2PlusInterface",
          "name": "",
          "type": "address"
        }
      ],
      "stateMutability": "view",
      "type": "function"
    },
    {
      "inputs": [
        {
          "components": [
            {
              "internalType": "address",
              "name": "manager",
              "type": "address"
            },
            {
              "internalType": "address",
              "name": "creator",
              "type": "address"
            },
            {
              "internalType": "address",
              "name": "revenueRecipient",
              "type": "address"
            },
            {
              "internalType": "string",
              "name": "name",
              "type": "string"
            },
            {
              "internalType": "uint256",
              "name": "startTime",
              "type": "uint256"
            },
            {
              "internalType": "uint256",
              "name": "duration",
              "type": "uint256"
            },
            {
              "internalType": "uint256",
              "name": "slotLimit",
              "type": "uint256"
            },
            {
              "internalType": "uint256",
              "name": "slotFee",
              "type": "uint256"
            },
            {
              "internalType": "uint256",
              "name": "maxSlotsPerParticipant",
              "type": "uint256"
            },
            {
              "internalType": "uint256",
              "name": "winnersCount",
              "type": "uint256"
            },
            {
              "internalType": "bool",
              "name": "isPrized",
              "type": "bool"
            },
            {
              "internalType": "bool",
              "name": "isCollabPool",
              "type": "bool"
            },
            {
              "internalType": "bool",
              "name": "usesCustomFee",
              "type": "bool"
            },
            {
              "internalType": "bool",
              "name": "isExternalPrizeCollection",
              "type": "bool"
            }
          ],
          "internalType": "struct Pool.PoolConfig",
          "name": "_poolConfig",
          "type": "tuple"
        },
        {
          "components": [
            {
              "internalType": "enum PrizeTypes.Standard",
              "name": "standard",
              "type": "uint8"
            },
            {
              "internalType": "address",
              "name": "prizeCollection",
              "type": "address"
            },
            {
              "internalType": "uint256",
              "name": "prizeTokenId",
              "type": "uint256"
            },
            {
              "internalType": "uint256",
              "name": "amountPerWinner",
              "type": "uint256"
            },
            {
              "internalType": "address",
              "name": "erc20PrizeToken",
              "type": "address"
            },
            {
              "internalType": "uint256",
              "name": "erc20PrizeAmount",
              "type": "uint256"
            },
            {
              "internalType": "uint256",
              "name": "nativePrizeAmount",
              "type": "uint256"
            },
            {
              "internalType": "bool",
              "name": "isEscrowedPrize",
              "type": "bool"
            }
          ],
          "internalType": "struct Pool.PrizeConfig",
          "name": "_prizeConfig",
          "type": "tuple"
        },
        {
          "components": [
            {
              "internalType": "address",
              "name": "holderTokenAddress",
              "type": "address"
            },
            {
              "internalType": "enum PrizeTypes.Standard",
              "name": "holderTokenStandard",
              "type": "uint8"
            },
            {
              "internalType": "uint256",
              "name": "minHolderTokenBalance",
              "type": "uint256"
            },
            {
              "internalType": "uint256",
              "name": "holderTokenId",
              "type": "uint256"
            }
          ],
          "internalType": "struct Pool.HolderConfig",
          "name": "_holderConfig",
          "type": "tuple"
        },
        {
          "components": [
            {
              "internalType": "bool",
              "name": "required",
              "type": "bool"
            },
            {
              "internalType": "string",
              "name": "taskDescription",
              "type": "string"
            }
          ],
          "internalType": "struct Pool.SocialConfig",
          "name": "_socialConfig",
          "type": "tuple"
        }
      ],
      "name": "initialize",
      "outputs": [],
      "stateMutability": "payable",
      "type": "function"
    },
    {
      "inputs": [],
      "name": "isCollabPool",
      "outputs": [
        {
          "internalType": "bool",
          "name": "",
          "type": "bool"
        }
      ],
      "stateMutability": "view",
      "type": "function"
    },
    {
      "inputs": [],
      "name": "isEscrowedPrize",
      "outputs": [
        {
          "internalType": "bool",
          "name": "",
          "type": "bool"
        }
      ],
      "stateMutability": "view",
      "type": "function"
    },
    {
      "inputs": [],
      "name": "isExternalPrizeCollection",
      "outputs": [
        {
          "internalType": "bool",
          "name": "",
          "type": "bool"
        }
      ],
      "stateMutability": "view",
      "type": "function"
    },
    {
      "inputs": [],
      "name": "isPrized",
      "outputs": [
        {
          "internalType": "bool",
          "name": "",
          "type": "bool"
        }
      ],
      "stateMutability": "view",
      "type": "function"
    },
    {
      "inputs": [],
      "name": "isRefundable",
      "outputs": [
        {
          "internalType": "bool",
          "name": "",
          "type": "bool"
        }
      ],
      "stateMutability": "view",
      "type": "function"
    },
    {
      "inputs": [],
      "name": "maxSlotsPerParticipant",
      "outputs": [
        {
          "internalType": "uint256",
          "name": "",
          "type": "uint256"
        }
      ],
      "stateMutability": "view",
      "type": "function"
    },
    {
      "inputs": [],
      "name": "minHolderTokenBalance",
      "outputs": [
        {
          "internalType": "uint256",
          "name": "",
          "type": "uint256"
        }
      ],
      "stateMutability": "view",
      "type": "function"
    },
    {
      "inputs": [],
      "name": "mint",
      "outputs": [],
      "stateMutability": "nonpayable",
      "type": "function"
    },
    {
      "inputs": [
        {
          "internalType": "address",
          "name": "winner",
          "type": "address"
        }
      ],
      "name": "mintToWinner",
      "outputs": [],
      "stateMutability": "nonpayable",
      "type": "function"
    },
    {
      "inputs": [],
      "name": "name",
      "outputs": [
        {
          "internalType": "string",
          "name": "",
          "type": "string"
        }
      ],
      "stateMutability": "view",
      "type": "function"
    },
    {
      "inputs": [],
      "name": "nativePrizeAmount",
      "outputs": [
        {
          "internalType": "uint256",
          "name": "",
          "type": "uint256"
        }
      ],
      "stateMutability": "view",
      "type": "function"
    },
    {
      "inputs": [
        {
          "internalType": "address",
          "name": "",
          "type": "address"
        },
        {
          "internalType": "address",
          "name": "",
          "type": "address"
        },
        {
          "internalType": "uint256[]",
          "name": "",
          "type": "uint256[]"
        },
        {
          "internalType": "uint256[]",
          "name": "",
          "type": "uint256[]"
        },
        {
          "internalType": "bytes",
          "name": "",
          "type": "bytes"
        }
      ],
      "name": "onERC1155BatchReceived",
      "outputs": [
        {
          "internalType": "bytes4",
          "name": "",
          "type": "bytes4"
        }
      ],
      "stateMutability": "pure",
      "type": "function"
    },
    {
      "inputs": [
        {
          "internalType": "address",
          "name": "",
          "type": "address"
        },
        {
          "internalType": "address",
          "name": "",
          "type": "address"
        },
        {
          "internalType": "uint256",
          "name": "",
          "type": "uint256"
        },
        {
          "internalType": "uint256",
          "name": "",
          "type": "uint256"
        },
        {
          "internalType": "bytes",
          "name": "",
          "type": "bytes"
        }
      ],
      "name": "onERC1155Received",
      "outputs": [
        {
          "internalType": "bytes4",
          "name": "",
          "type": "bytes4"
        }
      ],
      "stateMutability": "pure",
      "type": "function"
    },
    {
      "inputs": [
        {
          "internalType": "address",
          "name": "",
          "type": "address"
        },
        {
          "internalType": "address",
          "name": "",
          "type": "address"
        },
        {
          "internalType": "uint256",
          "name": "",
          "type": "uint256"
        },
        {
          "internalType": "bytes",
          "name": "",
          "type": "bytes"
        }
      ],
      "name": "onERC721Received",
      "outputs": [
        {
          "internalType": "bytes4",
          "name": "",
          "type": "bytes4"
        }
      ],
      "stateMutability": "pure",
      "type": "function"
    },
    {
      "inputs": [],
      "name": "owner",
      "outputs": [
        {
          "internalType": "address",
          "name": "",
          "type": "address"
        }
      ],
      "stateMutability": "view",
      "type": "function"
    },
    {
      "inputs": [
        {
          "internalType": "uint256",
          "name": "",
          "type": "uint256"
        }
      ],
      "name": "participants",
      "outputs": [
        {
          "internalType": "address",
          "name": "",
          "type": "address"
        }
      ],
      "stateMutability": "view",
      "type": "function"
    },
    {
      "inputs": [],
      "name": "paused",
      "outputs": [
        {
          "internalType": "bool",
          "name": "",
          "type": "bool"
        }
      ],
      "stateMutability": "view",
      "type": "function"
    },
    {
      "inputs": [],
      "name": "pendingProtocolFee",
      "outputs": [
        {
          "internalType": "uint256",
          "name": "",
          "type": "uint256"
        }
      ],
      "stateMutability": "view",
      "type": "function"
    },
    {
      "inputs": [],
      "name": "poolSubscriptionId",
      "outputs": [
        {
          "internalType": "uint256",
          "name": "",
          "type": "uint256"
        }
      ],
      "stateMutability": "view",
      "type": "function"
    },
    {
      "inputs": [
        {
          "internalType": "address",
          "name": "participant",
          "type": "address"
        }
      ],
      "name": "prizeClaimed",
      "outputs": [
        {
          "internalType": "uint256",
          "name": "",
          "type": "uint256"
        }
      ],
      "stateMutability": "view",
      "type": "function"
    },
    {
      "inputs": [],
      "name": "prizeCollection",
      "outputs": [
        {
          "internalType": "address",
          "name": "",
          "type": "address"
        }
      ],
      "stateMutability": "view",
      "type": "function"
    },
    {
      "inputs": [],
      "name": "prizeTokenId",
      "outputs": [
        {
          "internalType": "uint256",
          "name": "",
          "type": "uint256"
        }
      ],
      "stateMutability": "view",
      "type": "function"
    },
    {
      "inputs": [],
      "name": "prizesClaimedCount",
      "outputs": [
        {
          "internalType": "uint256",
          "name": "",
          "type": "uint256"
        }
      ],
      "stateMutability": "view",
      "type": "function"
    },
    {
      "inputs": [],
      "name": "protocolFeePercentage",
      "outputs": [
        {
          "internalType": "uint256",
          "name": "",
          "type": "uint256"
        }
      ],
      "stateMutability": "view",
      "type": "function"
    },
    {
      "inputs": [],
      "name": "protocolFeeTaken",
      "outputs": [
        {
          "internalType": "bool",
          "name": "",
          "type": "bool"
        }
      ],
      "stateMutability": "view",
      "type": "function"
    },
    {
      "inputs": [
        {
          "internalType": "uint256",
          "name": "quantity",
          "type": "uint256"
        },
        {
          "internalType": "uint256",
          "name": "_deadline",
          "type": "uint256"
        },
        {
          "internalType": "bytes",
          "name": "_signature",
          "type": "bytes"
        },
        {
          "internalType": "uint256[]",
          "name": "_tokenIds",
          "type": "uint256[]"
        }
      ],
      "name": "purchaseSlots",
      "outputs": [],
      "stateMutability": "payable",
      "type": "function"
    },
    {
      "inputs": [],
      "name": "randomRequested",
      "outputs": [
        {
          "internalType": "bool",
          "name": "",
          "type": "bool"
        }
      ],
      "stateMutability": "view",
      "type": "function"
    },
    {
      "inputs": [],
      "name": "randomSeed",
      "outputs": [
        {
          "internalType": "uint256",
          "name": "",
          "type": "uint256"
        }
      ],
      "stateMutability": "view",
      "type": "function"
    },
    {
      "inputs": [],
      "name": "randomnessUsed",
      "outputs": [
        {
          "internalType": "bool",
          "name": "",
          "type": "bool"
        }
      ],
      "stateMutability": "view",
      "type": "function"
    },
    {
      "inputs": [
        {
          "internalType": "uint256",
          "name": "requestId",
          "type": "uint256"
        },
        {
          "internalType": "uint256[]",
          "name": "randomWords",
          "type": "uint256[]"
        }
      ],
      "name": "rawFulfillRandomWords",
      "outputs": [],
      "stateMutability": "nonpayable",
      "type": "function"
    },
    {
      "inputs": [
        {
          "internalType": "address",
          "name": "",
          "type": "address"
        }
      ],
      "name": "refundableAmount",
      "outputs": [
        {
          "internalType": "uint256",
          "name": "",
          "type": "uint256"
        }
      ],
      "stateMutability": "view",
      "type": "function"
    },
    {
      "inputs": [
        {
          "internalType": "address",
          "name": "",
          "type": "address"
        }
      ],
      "name": "refundedNonWinningSlots",
      "outputs": [
        {
          "internalType": "uint256",
          "name": "",
          "type": "uint256"
        }
      ],
      "stateMutability": "view",
      "type": "function"
    },
    {
      "inputs": [],
      "name": "removeFromVRFSubscription",
      "outputs": [],
      "stateMutability": "nonpayable",
      "type": "function"
    },
    {
      "inputs": [],
      "name": "renounceOwnership",
      "outputs": [],
      "stateMutability": "nonpayable",
      "type": "function"
    },
    {
      "inputs": [],
      "name": "requestRandomness",
      "outputs": [],
      "stateMutability": "nonpayable",
      "type": "function"
    },
    {
      "inputs": [],
      "name": "revenueRecipient",
      "outputs": [
        {
          "internalType": "address",
          "name": "",
          "type": "address"
        }
      ],
      "stateMutability": "view",
      "type": "function"
    },
    {
      "inputs": [],
      "name": "s_vrf_lastRequestId",
      "outputs": [
        {
          "internalType": "uint256",
          "name": "",
          "type": "uint256"
        }
      ],
      "stateMutability": "view",
      "type": "function"
    },
    {
      "inputs": [],
      "name": "shuffleStartIndex",
      "outputs": [
        {
          "internalType": "uint256",
          "name": "",
          "type": "uint256"
        }
      ],
      "stateMutability": "view",
      "type": "function"
    },
    {
      "inputs": [],
      "name": "slotFee",
      "outputs": [
        {
          "internalType": "uint256",
          "name": "",
          "type": "uint256"
        }
      ],
      "stateMutability": "view",
      "type": "function"
    },
    {
      "inputs": [],
      "name": "slotLimit",
      "outputs": [
        {
          "internalType": "uint256",
          "name": "",
          "type": "uint256"
        }
      ],
      "stateMutability": "view",
      "type": "function"
    },
    {
      "inputs": [
        {
          "internalType": "address",
          "name": "",
          "type": "address"
        }
      ],
      "name": "slotsPurchased",
      "outputs": [
        {
          "internalType": "uint256",
          "name": "",
          "type": "uint256"
        }
      ],
      "stateMutability": "view",
      "type": "function"
    },
    {
      "inputs": [],
      "name": "socialEngagementRequired",
      "outputs": [
        {
          "internalType": "bool",
          "name": "",
          "type": "bool"
        }
      ],
      "stateMutability": "view",
      "type": "function"
    },
    {
      "inputs": [],
      "name": "standard",
      "outputs": [
        {
          "internalType": "enum PrizeTypes.Standard",
          "name": "",
          "type": "uint8"
        }
      ],
      "stateMutability": "view",
      "type": "function"
    },
    {
      "inputs": [],
      "name": "startTime",
      "outputs": [
        {
          "internalType": "uint256",
          "name": "",
          "type": "uint256"
        }
      ],
      "stateMutability": "view",
      "type": "function"
    },
    {
      "inputs": [],
      "name": "state",
      "outputs": [
        {
          "internalType": "enum IPool.PoolState",
          "name": "",
          "type": "uint8"
        }
      ],
      "stateMutability": "view",
      "type": "function"
    },
    {
      "inputs": [
        {
          "internalType": "bytes4",
          "name": "interfaceId",
          "type": "bytes4"
        }
      ],
      "name": "supportsInterface",
      "outputs": [
        {
          "internalType": "bool",
          "name": "",
          "type": "bool"
        }
      ],
      "stateMutability": "view",
      "type": "function"
    },
    {
      "inputs": [
        {
          "internalType": "uint256",
          "name": "",
          "type": "uint256"
        }
      ],
      "name": "tokenIdClaimedBy",
      "outputs": [
        {
          "internalType": "address",
          "name": "",
          "type": "address"
        }
      ],
      "stateMutability": "view",
      "type": "function"
    },
    {
      "inputs": [],
      "name": "totalCreatorRevenue",
      "outputs": [
        {
          "internalType": "uint256",
          "name": "",
          "type": "uint256"
        }
      ],
      "stateMutability": "view",
      "type": "function"
    },
    {
      "inputs": [],
      "name": "totalGlobalFeeRevenue",
      "outputs": [
        {
          "internalType": "uint256",
          "name": "",
          "type": "uint256"
        }
      ],
      "stateMutability": "view",
      "type": "function"
    },
    {
      "inputs": [],
      "name": "totalRefundableAmount",
      "outputs": [
        {
          "internalType": "uint256",
          "name": "",
          "type": "uint256"
        }
      ],
      "stateMutability": "view",
      "type": "function"
    },
    {
      "inputs": [
        {
          "internalType": "address",
          "name": "newOwner",
          "type": "address"
        }
      ],
      "name": "transferOwnership",
      "outputs": [],
      "stateMutability": "nonpayable",
      "type": "function"
    },
    {
      "inputs": [],
      "name": "usesCustomFee",
      "outputs": [
        {
          "internalType": "bool",
          "name": "",
          "type": "bool"
        }
      ],
      "stateMutability": "view",
      "type": "function"
    },
    {
      "inputs": [],
      "name": "wasDeletedForFullRefund",
      "outputs": [
        {
          "internalType": "bool",
          "name": "",
          "type": "bool"
        }
      ],
      "stateMutability": "view",
      "type": "function"
    },
    {
      "inputs": [
        {
          "internalType": "uint256",
          "name": "",
          "type": "uint256"
        }
      ],
      "name": "winners",
      "outputs": [
        {
          "internalType": "address",
          "name": "",
          "type": "address"
        }
      ],
      "stateMutability": "view",
      "type": "function"
    },
    {
      "inputs": [],
      "name": "winnersCount",
      "outputs": [
        {
          "internalType": "uint256",
          "name": "",
          "type": "uint256"
        }
      ],
      "stateMutability": "view",
      "type": "function"
    },
    {
      "inputs": [],
      "name": "winnersSelected",
      "outputs": [
        {
          "internalType": "uint256",
          "name": "",
          "type": "uint256"
        }
      ],
      "stateMutability": "view",
      "type": "function"
    },
    {
      "inputs": [
        {
          "internalType": "address",
          "name": "",
          "type": "address"
        }
      ],
      "name": "winsPerAddress",
      "outputs": [
        {
          "internalType": "uint256",
          "name": "",
          "type": "uint256"
        }
      ],
      "stateMutability": "view",
      "type": "function"
    },
    {
      "inputs": [],
      "name": "withdrawCreatorRevenue",
      "outputs": [],
      "stateMutability": "nonpayable",
      "type": "function"
    },
    {
      "inputs": [],
      "name": "withdrawProtocolRevenue",
      "outputs": [],
      "stateMutability": "nonpayable",
      "type": "function"
    }
  ],
  "bytecode": "0x60a034620000bb57601f62005fd438819003918201601f19168301916001600160401b03831184841017620000c057808492602094604052833981010312620000bb57516001600160a01b03908181168103620000bb576000543360018060a01b0319821617600055604051923391167f8be0079c531659141344cd1fd0a4f28419497f9722a3daafe3b4186f6b6457e0600080a36001805560ff1960025416600255608052615efd9081620000d78239608051816108e80152f35b600080fd5b634e487b7160e01b600052604160045260246000fdfe608080604052600436101561001357600080fd5b600090813560e01c90816301ffc9a714613e645750806302d05d3f14613e3b5780630631c5c214613e1d57806306f1305614613dff57806306fdde0314613d2c57806308521974146137805780630aa00e7014613d0e5780630b747d9114613cf05780630b78824b14613cd25780630e4fa15814613cac5780630fb5a6b414613c8e5780631249c58b1461390c578063128f4ba4146138ee578063150b7a02146138975780631fe543e3146137b957806325444fa414613780578063262f5cf1146133d85780632c1fecfe146133b25780633197cbb614613394578063321679fa14613376578063327bb1ad146132dc57806335c1d349146132985780633b26314d1461326f5780634002143414612e9f57806342b72afa14612e6657806344a9098614612e4857806348a3a45014612e225780634971381114612e045780634e3ff46014612dc55780634f7f0fc014612d865780635755248e14612d685780635a3b7e4214612d425780635c975abb14612d1f5780635f369a321461229757806366805de51461227e578063677375c314612260578063683d19361461223d578063696917ba146122175780636e61a160146121f157806370740ac9146121b2578063715018a614612158578063740e21981461212c57806378e979251461210e578063813e88b9146120f0578063837d1128146120cb57806387213c35146120a55780638778d82c1461207c578063888dc1981461205e578063898b36db146120405780638bc53285146120225780638bfbbcbe146120095780638d7fe47814611fe35780638da5cb5b14611fbc5780638e50e50914611f9f5780639ed5c1cc14611f76578063a177ec0914611f49578063a2fb117514611eed578063a67d0e6c14611ecf578063a9532a5314611df9578063ae4b82c114611dcf578063aebc455014611da2578063af78ed0a14611d84578063b0b606c014611d51578063b5545a3c146118ad578063b5ad84121461160d578063bc197c8114611581578063c19d93fb1461153e578063c2e784bd14611520578063c3fa0e3b14611502578063cabfaa18146114e4578063cc7d49ec146114be578063d0704cbd14611498578063d0d11ae81461147a578063d17d135914611441578063d447e9bc146113a6578063d91043f214611423578063dbb832bd146113fd578063dc52834e146113df578063dc8a55c2146113a6578063e511a11b1461136d578063e6f12cf71461134f578063f23a6e61146112f8578063f2fde38b1461126a578063f8413b071461100a578063fb0f2b1c14610602578063fb687df4146105d95763fd22b17c146103de57600080fd5b346105d657806003193601126105d65780546040516336b87bd760e11b8152336004820152602492916020908290859082906001600160a01b03165afa9081156105cb57829161059d575b501561058b578060155460ff90818160381c1680610580575b61051b575b818160201c161580610510575b610474575b505080919250156104705761046d90615a6b565b80f35b5080fd5b818160581c166000146104f85760601c1660088110156104e557600603610470575b602554906107d0938483029483860414831517156104d357506104c26127106104ca9495048093614842565b6025556141e8565b81903880610459565b634e487b7160e01b8452601160045283fd5b5050634e487b7160e01b81526021600452fd5b60601c1660088110156104e557600414610496575080fd5b506025541515610454565b9150808260581c1660001461056657808260601c1660088110156105525760060361054e575b602b549183602b55610447565b8280fd5b5050634e487b7160e01b8252506021600452fd5b808260601c16600881101561055257600414610541578280fd5b50602b541515610442565b6040516327e1f1e560e01b8152600490fd5b6105be915060203d81116105c4575b6105b68183613f21565b8101906145e8565b38610429565b503d6105ac565b6040513d84823e3d90fd5b80fd5b50346105d657806003193601126105d657600b546040516001600160a01b039091168152602090f35b506101c090816003193601126105d6576001600160401b03600435116105d65781600319600435360301126105d6576040519182018281106001600160401b03821117610ff45760405261065a600435600401613fae565b825261066a602460043501613fae565b602083015261067d604460043501613fae565b6040830152606460043501356001600160401b038111610470576106a890600436918135010161409a565b60608301526004356084810135608084015260a481013560a084015260c481013560c084015260e481013560e08401526101048101356101008401526101248101356101208401526106fd90610144016140e1565b610140830152610712610164600435016140e1565b610160830152610727610184600435016140e1565b61018083015261073c6101a4600435016140e1565b6101a08301526101003660231901126105d65760405191826101008101106001600160401b0361010085011117610ff4576101008301604052600460243510156104705760243583526044356001600160a01b0381169003610da55760443560208401526064356040840152608435606084015260a4356001600160a01b0381169003610da55760a435608084015260c43560a084015260e43560c08401526101043515156101043503610da5576101043560e084015260803661012319011261047057604051928360808101106001600160401b03608086011117610ff45760808401604052610124356001600160a01b0381168103610da5578452600461014435101561054e576101443560208501526101643560408501526101843560608501526001600160401b036101a4351161054e5760406101a4353603600319011261054e57604051908160408101106001600160401b03604084011117610ff457604082016040526108b46101a4356004016140e1565b82526001600160401b0360246101a435013511610ff0576108e1366101a43560248101350160040161409a565b60208301527f00000000000000000000000000000000000000000000000000000000000000006001600160a01b03163303610ff05783546001600160a01b0316610ff05782516001600160a01b031661093981614146565b6020840151600c80546001600160a01b0319166001600160a01b039290921691909117905560405163ec644ddd60e01b815260a081600481855afa908115610fe5578691610fb2575b50604051630425172560e31b8152306004820152602081602481865afa908115610fa7578791610f75575b5060035560028054610100600160a81b03191660089290921b610100600160a81b031691909117905560608401518051906001600160401b038211610f615781906109f9600554613eb9565b601f8111610eef575b50602090601f8311600114610e79578892610e6e575b50508160011b916000199060031b1c1916176005555b610a4960808501518060065560a086015190816008556141e8565b6007556101208401516009556101408401511515906015549060ff831660ff1983161760155560e0860151600a55610100860151600d55604051631a35245160e31b8152604081600481855afa8015610db25788918991610e31575b506021556020908155840151600b80546001600160a01b0319166001600160a01b0392831617905560c0870151600e5588511680610dd1575b506040860151969750949593946004946001600160a01b03168015610dbd575b601f80546001600160a01b039283166001600160a01b03199182161790915560808601516027805491909316911617905560a084015160285560c08401516029556101a087015160ff60581b90151560581b1660ff84166bff00000000000000000000ff198416178117601555604051636f6f8c5d60e01b8152959091602091879182905afa948515610db2578895610d79575b5060c084015115610c8b575050505060e08301510361054e57600360ff19600f541617600f556201000062ff00001960155416176015555b60155460ff811680610c7e575b15610c41575060016009541165ff00000000006015549160281b169065ff00000000001916176015555b5115159068ff000000000000000063ff000000610160601554930151151560181b169260401b16906cff000000ff00000000ff0000001916171760155580f35b60ff8160201c1615600014610c6d57506501000000000065ff0000000000196015541617601555610c01565b65ff00000000001916601555610c01565b5060ff8160201c16610bd7565b60808401516001600160a01b031615610ccf575050505060e08301510361054e57600260ff19600f541617600f556201000062ff0000196015541617601555610bca565b602084015193945091929091906001600160a01b0316610cf3575b50505050610bca565b62ff00009060e085015115159260ff64ff000000006101808a0151151560201b169516906bff000000000000ff00ff00ff191617179160101b16171760155580516004811015610d65579060609160ff8019600f5416911617600f556040810151601055015160115538808080610cea565b634e487b7160e01b85526021600452602485fd5b9094506020813d602011610daa575b81610d9560209383613f21565b81010312610da557519338610b92565b600080fd5b3d9150610d88565b6040513d8a823e3d90fd5b5060208701516001600160a01b0316610afe565b602c549060208a01516004811015610e1d576001600160a81b03199092161760a09190911b60ff60a01b1617602c556040880151602d55606090970151602e5594958695906004610ade565b634e487b7160e01b8a52602160045260248afd5b9150506040813d604011610e66575b81610e4d60409383613f21565b81010312610e62576020815191015138610aa5565b8780fd5b3d9150610e40565b015190503880610a18565b925060058852600080516020615e488339815191529088935b601f1984168510610ed4576001945083601f19811610610ebb575b505050811b01600555610a2e565b015160001960f88460031b161c19169055388080610ead565b81810151835560209485019460019093019290910190610e92565b90915060058852601f830160051c600080516020615e488339815191520160208410610f4c575b908392915b601f820160051c600080516020615e48833981519152018110610f3e5750610a02565b898155849350600101610f1b565b50600080516020615e48833981519152610f16565b634e487b7160e01b87526041600452602487fd5b90506020813d602011610f9f575b81610f9060209383613f21565b81010312610da55751386109ad565b3d9150610f83565b6040513d89823e3d90fd5b610fd4915060a03d60a011610fde575b610fcc8183613f21565b8101906141a1565b5050505038610982565b503d610fc2565b6040513d88823e3d90fd5b8380fd5b634e487b7160e01b600052604160045260246000fd5b50346105d657806003193601126105d65760075442101561125d575b60075442106110358115614274565b60155460ff8160601c166008811015611249576002811490811561123e575b5080611231575b156111ce576016546009541161117257601b5415918261110d575b50600c546001600160a01b0316331480156110f8575b156110bb5760ff6110a19160481c16156142d1565b6110ae575b61046d615209565b6110b66159cf565b6110a6565b60405162461bcd60e51b815260206004820152601560248201527410d85b1b195c881b9bdd08185d5d1a1bdc9a5e9959605a1b6044820152606490fd5b5033835260186020526040832054151561108c565b6111175738611076565b60405162461bcd60e51b815260206004820152602d60248201527f506f6f6c20656e642074696d65206e6f74207265616368656420666f7220696e60448201526c1a5d1a585b081c995c5d595cdd609a1b6064820152608490fd5b60405162461bcd60e51b815260206004820152602e60248201527f496e73756666696369656e74207061727469636970616e747320666f7220776960448201526d373732b91039b2b632b1ba34b7b760911b6064820152608490fd5b60405162461bcd60e51b815260206004820152603560248201527f4d75737420626520696e20456e6465642f44726177696e6720737461746520776044820152746974682077696e6e6572732072656d61696e696e6760581b6064820152608490fd5b50601b546009541161105b565b600391501438611054565b634e487b7160e01b84526021600452602484fd5b611265615649565b611026565b50346105d65760203660031901126105d657611284613f82565b61128c6140ee565b6001600160a01b038116156112a45761046d90614146565b60405162461bcd60e51b815260206004820152602660248201527f4f776e61626c653a206e6577206f776e657220697320746865207a65726f206160448201526564647265737360d01b6064820152608490fd5b50346105d65760a03660031901126105d657611312613f82565b5061131b613f98565b506084356001600160401b0381116104705761133b903690600401613fc2565b505060405163f23a6e6160e01b8152602090f35b50346105d657806003193601126105d6576020602554604051908152f35b50346105d65760203660031901126105d6576020906040906001600160a01b03611395613f82565b168152602a83522054604051908152f35b50346105d65760203660031901126105d6576020906040906001600160a01b036113ce613f82565b168152601383522054604051908152f35b50346105d657806003193601126105d6576020600d54604051908152f35b50346105d657806003193601126105d657602060ff60155460381c166040519015158152f35b50346105d657806003193601126105d6576020602154604051908152f35b50346105d65760203660031901126105d6576020906040906001600160a01b03611469613f82565b168152601283522054604051908152f35b50346105d657806003193601126105d6576020602954604051908152f35b50346105d657806003193601126105d657602060ff60155460581c166040519015158152f35b50346105d657806003193601126105d657602060ff60155460301c166040519015158152f35b50346105d657806003193601126105d6576020601654604051908152f35b50346105d657806003193601126105d6576020602b54604051908152f35b50346105d657806003193601126105d6576020600454604051908152f35b50346105d657806003193601126105d65760ff60155460601c1660405190600881101561156d57602092508152f35b634e487b7160e01b83526021600452602483fd5b50346105d65760a03660031901126105d65761159b613f82565b506115a4613f98565b506001600160401b0360443581811161054e576115c5903690600401613fef565b505060643581811161054e576115df903690600401613fef565b5050608435908111610470576115f9903690600401613fc2565b505060405163bc197c8160e01b8152602090f35b50346105d657806003193601126105d65761162661421e565b601f546001600160a01b0390811690338290036118795760155460ff8160601c16906008821015610d65576005821461187557600782146118755760581c60ff161561181f576006036117e4575b826023549283156104705781806116ad9581936116a16127106116996021548561420b565b048093614842565b97889284602355615a6b565b5af16116b76143d7565b501561179357602460208285541660405192838092630425172560e31b82523060048301525afa908115611788578491611737575b507f86a5cc8fe9af9ae68fb50f62885307a7755a30cbd290131644377f0bd94a71819160209161172a575b601f541692604051908152a26001805580f35b611732615972565b611717565b90506020813d8211611780575b8161175160209383613f21565b81010312610da557517f86a5cc8fe9af9ae68fb50f62885307a7755a30cbd290131644377f0bd94a71816116ec565b3d9150611744565b6040513d86823e3d90fd5b60405162461bcd60e51b8152602060048201526024808201527f5472616e7366657220746f20726576656e756520726563697069656e742066616044820152631a5b195960e21b6064820152608490fd5b60405162461bcd60e51b815260206004820152601360248201527210d85b9b9bdd081dda5d1a191c985dc81e595d606a1b6044820152606490fd5b6004811490811561186a575b506116745760405162461bcd60e51b8152602060048201526012602482015271141bdbdb081b9bdd0818dbdb5c1b195d195960721b6044820152606490fd5b60069150143861182b565b8480fd5b60405162461bcd60e51b815260206004820152600c60248201526b155b985d5d1a1bdc9a5e995960a21b6044820152606490fd5b50346105d657806003193601126105d6576118c661421e565b60155460ff90818160601c16600881101580610d6557600482148015611d44575b818115611d34575b8115611d24575b5015611cdf57838360301c16600014611a0c57505050338252602090602682528060408420541661054e576018825260408320541561054e57601554908082169182611a00575b5050156119ac5733825260188152600080516020615ea883398151915261196b6040842054600a549061420b565b913384526026815260408420600160ff1982541617905561199b8480808087335af16119956143d7565b5061488b565b6040519283523392a25b6001805580f35b6084906040519062461bcd60e51b82526004820152602760248201527f526566756e6473206e6f7420706f737369626c6520666f72207468697320706f6044820152666f6c207479706560c81b6064820152fd5b831c169050388061193d565b61124957600703611ad857503382526026602052806040832054166104705760186020526040822054801561054e57600a54611a479161420b565b9060155460201c16600014611ab85760235481811061054e5781611a6a91614842565b6023555b338252602660205260408220600160ff19825416179055611a988280808085335af16119956143d7565b604051908152600080516020615ea883398151915260203392a25b6119a5565b611ad081602554611acb828210156147ff565b614842565b602555611a6e565b9080821680611cd3575b80611cc7575b80611cbc575b15611be8575050338152602060188152604082205460128252604083205490602a835260408420549082811180611bd6575b1561187557611b3292611acb91614842565b600a5482549061271091820390828211611bc257611b5b9291611b549161420b565b048261420b565b916024549182841161187557611b8084600080516020615ea883398151915294614842565b602455338552602a8252611b99604086209182546141e8565b9055611bb48480808087335af1611bae6143d7565b5061484f565b6040519283523392a26119a5565b634e487b7160e01b86526011600452602486fd5b50611be18382614842565b8210611b20565b80602092831c1615611bfc575b50506119a5565b3383526018825260408320541561054e57602682526040832054166104705760188152611c306040832054600a549061420b565b611f4090818102918183041490151715611ca857612710600080516020615ea8833981519152910491611c6c83602554611acb828210156147ff565b6025553384526026815260408420600160ff19825416179055611c988480808087335af1611bae6143d7565b6040519283523392a23880611bf5565b634e487b7160e01b83526011600452602483fd5b506024541515611aee565b50808260281c16611ae8565b50808260201c16611ae2565b60405162461bcd60e51b815260206004820152601e60248201527f506f6f6c206e6f7420696e206120726566756e6461626c6520737461746500006044820152606490fd5b9050610d655760078214816118f6565b9050610d655760058214816118ef565b50506000600682146118e7565b50346105d65760203660031901126105d6576020906004358152602f8252604060018060a01b0391205416604051908152f35b50346105d657806003193601126105d6576020602354604051908152f35b50346105d657806003193601126105d65760025460405160089190911c6001600160a01b03168152602090f35b50346105d65760203660031901126105d65760406020916004358152601d83522054604051908152f35b50346105d657806003193601126105d65760ff60155460601c166008811015908161156d5760048114918215611ec1575b8215611eb0575b8215611e8b575b505015611e475761046d615972565b606460405162461bcd60e51b815260206004820152602060248201527f506f6f6c206d75737420626520696e2061207465726d696e616c2073746174656044820152fd5b909150611e9c576006143880611e38565b634e487b7160e01b82526021600452602482fd5b80925061156d576005811491611e31565b506007811491506000611e2a565b50346105d657806003193601126105d6576020600a54604051908152f35b50346105d65760203660031901126105d6576004356017548110156104705760176000527fc624b66cc0138b8fabc209247f72d758e1cf3343756d543badbf24212bed8c1501546040516001600160a01b039091168152602090f35b50346105d657806003193601126105d657611f7260ff602c5460a01c1660405191829182614056565b0390f35b50346105d657806003193601126105d6576027546040516001600160a01b039091168152602090f35b50346105d657806003193601126105d65760208054604051908152f35b50346105d657806003193601126105d657546040516001600160a01b039091168152602090f35b50346105d657806003193601126105d657602060ff60155460481c166040519015158152f35b50346105d657806003193601126105d65761046d614e4b565b50346105d657806003193601126105d6576020601b54604051908152f35b50346105d657806003193601126105d6576020600e54604051908152f35b50346105d657806003193601126105d6576020601454604051908152f35b50346105d657806003193601126105d657602c546040516001600160a01b039091168152602090f35b50346105d657806003193601126105d657602060ff60155460401c166040519015158152f35b50346105d657806003193601126105d657602060155460ff60405191831c1615158152f35b50346105d657806003193601126105d6576020601154604051908152f35b50346105d657806003193601126105d6576020600654604051908152f35b50346105d65760203660031901126105d657602061215061214b613f82565b6148d0565b604051908152f35b50346105d657806003193601126105d6576121716140ee565b600080546001600160a01b0319811682556001600160a01b03167f8be0079c531659141344cd1fd0a4f28419497f9722a3daafe3b4186f6b6457e08280a380f35b50346105d657806003193601126105d6576121cb61421e565b60ff60155460601c166008811015611e9c5760046121e9911461458c565b6119a5614600565b50346105d657806003193601126105d657602060ff60155460081c166040519015158152f35b50346105d657806003193601126105d657602060ff60155460101c166040519015158152f35b50346105d657806003193601126105d657602060ff601554166040519015158152f35b50346105d657806003193601126105d6576020602454604051908152f35b50346105d657806003193601126105d65761046d614bbd565b5060803660031901126105d6576001600160401b0360443581811161054e576122c4903690600401613fc2565b91606435908111610ff0576122dd903690600401613fef565b9190926122e861421e565b60155460ff8160601c166008811015612cb75715612cdc575b50333203612ccb5760155460ff8160601c166008811015612cb757600103612ca5573315612c935760043515612c8157600a548015612c6f57612347906004359061420b565b3403612c5d57600754421015612c4b576123656004356016546141e8565b600e5410612c39576006544210612c2757338652601860205261238e60043560408820546141e8565b600d5410612c155760ff81161580612bdf575b612bcd578554604051638da5cb5b60e01b81526001600160a01b039091169190602081600481865afa908115610db2578891612b93575b506001600160a01b03163314612b8157600c546001600160a01b03163314612b705760401c60ff1680612b59575b612a39575b5050602c546001600160a01b038116915081612507575b505050503381526018602052604081206004358154019055805b60043581106124bf575060155460201c60ff166124b25734602554016025555b601654600e541461249d575b60405160043581527ffd1903a7f9f31de6cf38a88eda98ae029aeba3b2ec48a599d7c0d900f0f335cb60203392a26001805580f35b6124a56159cf565b6124ad615209565b612468565b346023540160235561245c565b60165490600160401b821015610ff4576125016124e383600180950160165561401f565b81546001600160a01b0360039290921b91821b19163390911b179055565b0161243c565b60a01c60ff166004811015610d65578061292a57505080156128f057602d5460018103612695575060011161263957356024602060018060a01b03602c5416604051928380926331a9108f60e11b82528660048301525afa801561262e5783906125f3575b61258191506001600160a01b0316331461515f565b808252602f60205260408220546125ab906001600160a01b031680159081156125e9575b506151ab565b8152602f6020526040812080546001600160a01b038116156125d4575b50505b38808080612422565b6001600160a01b0319163317905538806125c8565b90503314386125a5565b506020813d602011612626575b8161260d60209383613f21565b8101031261054e576126216125819161418d565b61256c565b3d9150612600565b6040513d85823e3d90fd5b60405162461bcd60e51b815260206004820152602e60248201527f546f6b656e20494420726571756972656420666f722073696e676c6520746f6b60448201526d195b881c995c5d5a5c995b595b9d60921b6064820152608490fd5b60018111156128a15780821061285c57835b8181106127ca575050825b602d548110156127c257806126ca602492848661514f565b35602060018060a01b03602c5416604051948580926331a9108f60e11b82528560048301525afa928315610fe557869361277d575b5061276392612718906001600160a01b0316331461515f565b808652602f908160205261274160018060a01b0360408920541680159081156125e957506151ab565b86526020526040852080546001600160a01b03811615612768575b5050615140565b6126b2565b6001600160a01b03191633179055388061275c565b92506020833d6020116127ba575b8161279860209383613f21565b810103126127b6576127186127af6127639461418d565b93506126ff565b8580fd5b3d915061278b565b5050506125cb565b60018101808211611bc2575b8281106127ec57506127e790615140565b6126a7565b6127f782858761514f565b3561280382868861514f565b35146128175761281290615140565b6127d6565b60405162461bcd60e51b815260206004820152601f60248201527f4475706c696361746520746f6b656e20494473206e6f7420616c6c6f776564006044820152606490fd5b60405162461bcd60e51b815260206004820152601f60248201527f496e73756666696369656e7420746f6b656e204944732070726f7669646564006044820152606490fd5b60405162461bcd60e51b815260206004820152602160248201527f496e76616c696420746f6b656e2062616c616e636520726571756972656d656e6044820152601d60fa1b6064820152608490fd5b60405162461bcd60e51b8152602060048201526012602482015271151bdad95b8812511cc81c995c5d5a5c995960721b6044820152606490fd5b9092509050600181036129b75750602e54604051627eeac760e11b8152336004820152602481019190915290602090829060449082905afa80156105cb578290612983575b61297e9150602d5411156150e9565b6125cb565b506020813d6020116129af575b8161299d60209383613f21565b81010312610da55761297e905161296f565b3d9150612990565b6002146129c5575b506125cb565b6020602491604051928380926370a0823160e01b82523360048301525afa80156105cb578290612a05575b6129ff9150602d5411156150e9565b386129bf565b506020813d602011612a31575b81612a1f60209383613f21565b81010312610da5576129ff90516129f0565b3d9150612a12565b602060049160405192838092636b90bda960e01b82525afa908115610fe5578691612b1f575b506001600160a01b03168015612b0d578592813b15610ff057839183918360a46040518097819682956324fa7e3f60e21b8452336004850152306024850152602435604485015260806064850152816084850152848401378181018301849052601f01601f191681010301925af180156105cb57612af9575b5050338352603060205260408320805460ff1916600117905538808061240b565b612b0290613ef3565b61054e578238612ad8565b6040516343361aaf60e01b8152600490fd5b90506020813d602011612b51575b81612b3a60209383613f21565b810103126127b657612b4b9061418d565b38612a5f565b3d9150612b2d565b50338652603060205260ff60408720541615612406565b60405162ca6a8360e51b8152600490fd5b604051635f2a002d60e11b8152600490fd5b90506020813d602011612bc5575b81612bae60209383613f21565b81010312610e6257612bbf9061418d565b386123d8565b3d9150612ba1565b604051631274fa9d60e31b8152600490fd5b5060ff8160201c168015612c08575b806123a157503386526018602052604086205415156123a1565b5060016004351415612bee565b604051637145fa7b60e01b8152600490fd5b604051633d8c21b360e01b8152600490fd5b6040516302edeeb760e31b8152600490fd5b60405163fd2a413d60e01b8152600490fd5b60405163569e8c1160e01b8152600490fd5b60405163d2100d7360e01b8152600490fd5b60405163f4f5b73360e01b8152600490fd5b60405163d92e233d60e01b8152600490fd5b6040516338c0a90160e11b8152600490fd5b634e487b7160e01b87526021600452602487fd5b60405162c44f5760e51b8152600490fd5b60065442106123015760ff60601b1916600160601b176015557f3d31b97eef590df350bb2cdbc390034c613c9f23ea6ae1906682628c85248b538580a138612301565b50346105d657806003193601126105d657602060ff600254166040519015158152f35b50346105d657806003193601126105d657611f7260ff600f541660405191829182614056565b50346105d657806003193601126105d6576020602d54604051908152f35b50346105d65760203660031901126105d65760209060ff906040906001600160a01b03612db1613f82565b168152602684522054166040519015158152f35b50346105d65760203660031901126105d65760209060ff906040906001600160a01b03612df0613f82565b168152603084522054166040519015158152f35b50346105d657806003193601126105d6576020600954604051908152f35b50346105d657806003193601126105d657602060ff60155460501c166040519015158152f35b50346105d657806003193601126105d6576020601c54604051908152f35b50346105d65760203660031901126105d6576020906040906001600160a01b03612e8e613f82565b168152602283522054604051908152f35b50346105d657602080600319360112610470576004359030330361323a57601e548352601d8152816040842055612ed7601e54615140565b601e55601c5490601a5460165493612eee8461431d565b90612efc6040519283613f21565b848252612f088561431d565b8285019390601f1901368537875b86811061313757505050855b8481106130a35750612f596015549469ff000000000000000000198616601555612f4e81601a546141e8565b601a55601b546141e8565b9182601b55604051918483019085845251809152604083019190885b86828210613086575050505090807f32a1b5731a757f192a06ca973715ca4dbc42c2d15323cabaa74e0a2d5dc088e4920390a1600954908111612fe55763ff0000ff60481b198316600160621b17601581905560ff84169081613079575b8161306a575b8161305b575b50612fec575b5050505080f35b61301e61301661300d612710936c0400000000010000000000000097614842565b600a549061420b565b92548361420b565b0461303561302c8284614842565b92602354614842565b602355602b556024556cff0000ff00ff0000000000000019161760155538808080612fe5565b60ff915060381c161538612fdf565b905060ff8160281c1690612fd9565b80841c60ff169150612fd3565b83516001600160a01b031685529384019390920191600101612f75565b6001600160a01b036130b58284614334565b5116906017918254600160401b811015610ff457600181018085558110156131215761311c936000527fc624b66cc0138b8fabc209247f72d758e1cf3343756d543badbf24212bed8c1501906bffffffffffffffffffffffff60a01b825416179055615140565b612f22565b634e487b7160e01b600052603260045260246000fd5b61314581611acb848b614842565b604051878101908582528360408201526040815261316281613f06565b5190209061317083856141e8565b9181156132265761318e61322194936131d6936131f59306906141e8565b6131978161401f565b9054600391821b1c6001600160a01b039081169491856131b7888d614334565b526131ca6131c5888b6141e8565b61401f565b9054911b1c169161401f565b90919082549060031b9160018060a01b03809116831b921b1916179055565b613206816131d66131c585886141e8565b8a526012875260408a2061321a8154615140565b9055615140565b612f16565b634e487b7160e01b8c52601260045260248cfd5b6064906040519062461bcd60e51b82526004820152600e60248201526d13db9b1e481cd95b198b58d85b1b60921b6044820152fd5b50346105d657806003193601126105d657601f546040516001600160a01b039091168152602090f35b50346105d65760203660031901126105d657600435906016548210156105d65760206132c38361401f565b905460405160039290921b1c6001600160a01b03168152f35b50346105d657806003193601126105d6578054600b54604051635aa35d2560e11b81526001600160a01b0391821615156004820152929160209184916024918391165afa90811561336a5790613338575b602090604051908152f35b506020813d8211613362575b8161335160209383613f21565b81010312610da5576020905161332d565b3d9150613344565b604051903d90823e3d90fd5b50346105d657806003193601126105d6576020602854604051908152f35b50346105d657806003193601126105d6576020600754604051908152f35b50346105d657806003193601126105d657602060ff60155460281c166040519015158152f35b50346105d657602080600319360112610470576133f3613f82565b6133fb61421e565b6015549160ff8360601c166008811015610d655760040361376e5760ff600f54169160018060a01b0380600b54169481600c54163303613613575b508415613601578116938486526012835260408620549384156135ef57858752601384526040872054948581039581146135dd578688526013855260408820556004811015612cb757869291908061351b5750803b1561054e576040516340c10f1960e01b81526001600160a01b039290921660048301526024820185905282908290604490829084905af180156105cb57613507575b50506134f97f95681e512bc0fe659e195e06c283eada494316f3d801213e48e7101af92bf77092615da7565b604051848152a26001805580f35b61351090613ef3565b610ff05783386134cd565b919250906001036135cb578591846011540260105492803b1561187557604051630ab714fb60e11b81526001600160a01b03939093166004840152602483019390935260448201529082908290606490829084905af180156105cb576135b7575b50506135a87f95681e512bc0fe659e195e06c283eada494316f3d801213e48e7101af92bf77092615da7565b601054604051908152a26119a5565b6135c090613ef3565b610ff057833861357c565b60405163fd34e50560e01b8152600490fd5b604051630ccaf35d60e41b8152600490fd5b6040516358cd4fc160e11b8152600490fd5b60405163424ca23960e01b8152600490fd5b60248483895416604051928380926336b87bd760e11b82523360048301525afa908115610db2578891613751575b506134365760181c60ff161561369757856004851015612cb7578190856136e5575050604051638da5cb5b60e01b81528381600481895afa8015610fa757829188916136a9575b505b1633036136975738613436565b604051635c427cd960e01b8152600490fd5b809250858092503d83116136de575b6136c28183613f21565b810103126136da576136d4829161418d565b38613688565b8680fd5b503d6136b8565b6001860361368a575050604051638da5cb5b60e01b81528381600481895afa8015610fa75782918891613719575b5061368a565b809250858092503d831161374a575b6137328183613f21565b810103126136da57613744829161418d565b38613713565b503d613728565b6137689150853d87116105c4576105b68183613f21565b38613641565b604051631a1889b760e01b8152600490fd5b50346105d65760203660031901126105d6576020906040906001600160a01b036137a8613f82565b168152601883522054604051908152f35b50346105d65760403660031901126105d6576024356001600160401b038111610470576137ea903690600401613fef565b60025460081c6001600160a01b03163303613852576138088161431d565b916138166040519384613f21565b8183526020918284019060051b8201913683116127b657905b828210613843578561046d86600435614407565b8135815290830190830161382f565b60405162461bcd60e51b815260206004820181905260248201527f4f6e6c792056524620436f6f7264696e61746f722063616e2066756c66696c6c6044820152606490fd5b50346105d65760803660031901126105d6576138b1613f82565b506138ba613f98565b506064356001600160401b038111610470576138da903690600401613fc2565b5050604051630a85bd0160e11b8152602090f35b50346105d657806003193601126105d6576020600354604051908152f35b50346105d657806003193601126105d65761392561421e565b601560ff815460601c16600881101561156d576004613944911461458c565b61394c615b56565b50600b546001600160a01b031680156136015760ff835460101c16613c7c5760ff600f54166004811015610d655780613afa5750803b15610ff0576040516340c10f1960e01b81523360048201526024810183905290849081908390604490829084905af19182613ae6575b5050613adc575060016139c9614348565b6308c379a014613a66575b6139e1575b506001805580f35b6139e96143d7565b50604051600080516020615e68833981519152339180613a2e8160609060208152601060208201526f131bddcb5b195d995b081c995d995c9d60821b60408201520190565b0390a2805466ff0000000000ff60301b1916660500000000000160301b179055600080516020615e888339815191528180a1386139d9565b613a6e614366565b80613a7a575b506139d4565b90508290600080516020615e688339815191526040516020815280613aa433946020830190613f42565b0390a2815466ff0000000000ff60301b1916660500000000000160301b178255600080516020615e888339815191528380a138613a74565b611ab39150615da7565b613aef90613ef3565b610ff05783386139b8565b600103613c7c578360105491836011540290803b1561054e57604051630ab714fb60e11b8152336004820152602481019490945260448401919091528290606490829084905af19081613c69575b50613adc57506001613b58614348565b6308c379a014613bf3575b613b6e575b506119a5565b613b766143d7565b50604051600080516020615e68833981519152339180613bbb8160609060208152601060208201526f131bddcb5b195d995b081c995d995c9d60821b60408201520190565b0390a2805466ff0000000000ff60301b1916660500000000000160301b179055600080516020615e888339815191528180a138613b68565b613bfb614366565b80613c07575b50613b63565b90508290600080516020615e688339815191526040516020815280613c3133946020830190613f42565b0390a2815466ff0000000000ff60301b1916660500000000000160301b178255600080516020615e888339815191528380a138613c01565b613c7590949194613ef3565b9238613b48565b604051631558dc5f60e31b8152600490fd5b50346105d657806003193601126105d6576020600854604051908152f35b50346105d657806003193601126105d657602060ff60155460181c166040519015158152f35b50346105d657806003193601126105d6576020601054604051908152f35b50346105d657806003193601126105d6576020601954604051908152f35b50346105d657806003193601126105d6576020602e54604051908152f35b50346105d657806003193601126105d6576040519080600554613d4e81613eb9565b80855291600191808316908115613dd55750600114613d8c575b611f7285613d7881870382613f21565b604051918291602083526020830190613f42565b925060058352600080516020615e488339815191525b828410613dbd575050508101602001613d7882611f72613d68565b80546020858701810191909152909301928101613da2565b869550611f7296935060209250613d7894915060ff191682840152151560051b8201019293613d68565b50346105d657806003193601126105d6576020601e54604051908152f35b50346105d657806003193601126105d6576020601a54604051908152f35b50346105d657806003193601126105d657600c546040516001600160a01b039091168152602090f35b9050346104705760203660031901126104705760043563ffffffff60e01b811680910361054e5760209250630a85bd0160e11b8114908115613ea8575b5015158152f35b630271189760e51b14905038613ea1565b90600182811c92168015613ee9575b6020831014613ed357565b634e487b7160e01b600052602260045260246000fd5b91607f1691613ec8565b6001600160401b038111610ff457604052565b606081019081106001600160401b03821117610ff457604052565b90601f801991011681019081106001600160401b03821117610ff457604052565b919082519283825260005b848110613f6e575050826000602080949584010152601f8019910116010190565b602081830181015184830182015201613f4d565b600435906001600160a01b0382168203610da557565b602435906001600160a01b0382168203610da557565b35906001600160a01b0382168203610da557565b9181601f84011215610da5578235916001600160401b038311610da55760208381860195010111610da557565b9181601f84011215610da5578235916001600160401b038311610da5576020808501948460051b010111610da557565b6016548110156131215760166000527fd833147d7dc355ba459fc788f669e58cfaf9dc25ddcd0702e87d69c7b51242890190600090565b9190602083019260048210156140695752565b634e487b7160e01b600052602160045260246000fd5b6001600160401b038111610ff457601f01601f191660200190565b81601f82011215610da5578035906140b18261407f565b926140bf6040519485613f21565b82845260208383010111610da557816000926020809301838601378301015290565b35908115158203610da557565b6000546001600160a01b0316330361410257565b606460405162461bcd60e51b815260206004820152602060248201527f4f776e61626c653a2063616c6c6572206973206e6f7420746865206f776e65726044820152fd5b600080546001600160a01b039283166001600160a01b03198216811783559216907f8be0079c531659141344cd1fd0a4f28419497f9722a3daafe3b4186f6b6457e09080a3565b51906001600160a01b0382168203610da557565b908160a0910312610da5576141b58161418d565b91602082015191604081015191606082015163ffffffff81168103610da55760809092015161ffff81168103610da55790565b919082018092116141f557565b634e487b7160e01b600052601160045260246000fd5b818102929181159184041417156141f557565b60026001541461422f576002600155565b60405162461bcd60e51b815260206004820152601f60248201527f5265656e7472616e637947756172643a207265656e7472616e742063616c6c006044820152606490fd5b1561427b57565b60405162461bcd60e51b815260206004820152602860248201527f54696d657374616d702064656c61792069737375652c2074727920616761696e6044820152672073686f72746c7960c01b6064820152608490fd5b156142d857565b60405162461bcd60e51b815260206004820152601960248201527f5265717565737420616c726561647920696e20666c69676874000000000000006044820152606490fd5b6001600160401b038111610ff45760051b60200190565b80518210156131215760209160051b010190565b60009060033d1161435557565b905060046000803e60005160e01c90565b600060443d106143c357604051600319913d83016004833e81516001600160401b03918282113d6024840111176143c6578184019485519384116143ce573d850101602084870101116143c657506143c392910160200190613f21565b90565b949350505050565b50949350505050565b3d15614402573d906143e88261407f565b916143f66040519384613f21565b82523d6000602084013e565b606090565b6002546000919060081c6001600160a01b031633036138525760045403614575576015805460ff60501b1916600160501b178155825190929015614561576020015190303b156105d65760405191631000850d60e21b83526004830152808260248183305af19182614552575b509061454e57600190614485614348565b6308c379a0146144de575b50614499575b50565b7fbccec8509a79ecd26780c2699a3ca2503c3a3455b361b5fcda5760593edb03c96144c5613d786143d7565b0390a1805463ff0000ff60481b1916600160611b179055565b6144e6614366565b90816144f3575b50614490565b7fbcd905a8eb4cc473497e2cd24cf41334ea7fad80c354380f8fff04a025b1e5f89192506145309092604051918291602083526020830190613f42565b0390a1815463ff0000ff60481b1916600160611b17825538806144ed565b5050565b61455b90613ef3565b38614474565b634e487b7160e01b82526032600452602482fd5b50506015805460ff60601b1916600160611b179055565b1561459357565b60405162461bcd60e51b815260206004820152600d60248201526c496e76616c696420737461746560981b6044820152606490fd5b81156145d2570490565b634e487b7160e01b600052601260045260246000fd5b90816020910312610da557518015158103610da55790565b60ff60155460101c1615613c7c57614616615b56565b50602754600f54600b546009546001600160a01b039182169493909260ff1691168061475c57506004918282101561474757600382146146ed575083156146dd576146ce57601054833b15610da557604080516323b872dd60e01b815230938101938452336020850152908301919091529260009184919082908490829060600103925af19182156146c2576146b1926146b3575b50615da7565b565b6146bc90613ef3565b386146ab565b6040513d6000823e3d90fd5b604051631558dc5f60e31b8152fd5b5060405163424ca23960e01b8152fd5b83945061470091506029939293546145c8565b02801561473757600080808093335af16147186143d7565b501561472857506146b190615da7565b60405163880a149160e01b8152fd5b50604051630193f71f60e51b8152fd5b602183634e487b7160e01b6000525260246000fd5b9293505061476d83916028546145c8565b029081156147ed5760405163a9059cbb60e01b81523360048201526024810192909252602090829060449082906000905af19081156146c2576000916147cf575b50156147bd576146b190615da7565b60405163880a149160e01b8152600490fd5b6147e7915060203d81116105c4576105b68183613f21565b386147ae565b604051630193f71f60e51b8152600490fd5b1561480657565b60405162461bcd60e51b8152602060048201526014602482015273496e73756666696369656e742062616c616e636560601b6044820152606490fd5b919082039182116141f557565b1561485657565b60405162461bcd60e51b815260206004820152600d60248201526c1499599d5b990819985a5b1959609a1b6044820152606490fd5b1561489257565b60405162461bcd60e51b81526020600482015260166024820152751499599d5b99081d1c985b9cd9995c8819985a5b195960521b6044820152606490fd5b60155460ff90818160301c16614b0257818160601c169060088210156140695760078214614a9f5782811680614a93575b80614a87575b80614a7c575b6149db5760201c82161590816149bc575b5061492a575050600090565b60009160018060a01b0316825260186020526040822054151590816149a8575b506149525790565b60186020526149686040822054600a549061420b565b611f409081810291818304149015171561499457612710900480602554101561498f575090565b905090565b634e487b7160e01b82526011600452602482fd5b90506026602052604082205416153861494a565b60048114915081156149d0575b503861491e565b6006915014386149c9565b5050509060009160018060a01b031682526018602052604082205460126020526040832054602a60205260408420549181811180614a6a575b614a1d57505050565b614a2b9291611acb91614842565b600a546020549061271091820394828611614a5657506143c39394614a4f9161420b565b049061420b565b634e487b7160e01b81526011600452602490fd5b50614a758282614842565b8310614a14565b50602454151561490d565b50828160281c16614907565b50828160201c16614901565b6001600160a01b03909316600090815260186020526040902054905080614ac9575b505050600090565b600a54614ad59161420b565b9160201c16614af2578060255410156143c357505b388080614ac1565b8060235410156143c35750614aea565b908082169182614b64575b505080614b43575b614b1f5750600090565b6001600160a01b0316600090815260186020526040902054600a546143c39161420b565b506001600160a01b0381166000908152601860205260409020541515614b15565b60201c1690503880614b0d565b15614b7857565b60405162461bcd60e51b815260206004820152601960248201527f506f6f6c20656e642074696d65206e6f742072656163686564000000000000006044820152606490fd5b601580549060ff91828160601c1690600882101561406957600791828114614e15576001811480614e0a575b15614da65750506016546009541115614d6257614c098154421015614b71565b815460ff60601b1916600760601b1782557f456598f31410bd74ce9e62f22e18454c4264af94fd5752d17b3cebce37d73cdd600080a15b82825460601c1690600882101561406957614c5b9114614274565b614c63615a1d565b614c6b615683565b5481811680614d4e575b80614d24575b614c83575050565b60101c811661449657600f5416600481101561406957614ce557600b546001600160a01b0316803b15610da55760008091602460405180948193636382ff5160e11b83523060048401525af180156146c257614cdc5750565b6146b190613ef3565b600b546001600160a01b0316803b15610da55760008091602460405180948193636382ff5160e11b83523060048401525af180156146c257614cdc5750565b5081600f54166004811015614069578015908115614d43575b50614c7b565b600191501438614d3d565b50600b546001600160a01b03161515614c75565b606460405162461bcd60e51b815260206004820152602060248201527f506f6f6c206d7573742070726f636565642073656c6563742077696e6e6572736044820152fd5b1580614dff575b614db8575b50614c40565b614dc58254421015614b71565b60ff60601b1916600760601b1782557f456598f31410bd74ce9e62f22e18454c4264af94fd5752d17b3cebce37d73cdd600080a138614db2565b508154421015614dad565b508254421015614be9565b60405162461bcd60e51b815260206004820152600e60248201526d105b1c9958591e4818db1bdcd95960921b6044820152606490fd5b6027546000906001600160a01b0390811661047057602954610470576007544210156104705780825416331480156150dc575b156104705760155460ff90818160601c166008811015610d655780159081156150d1575b5015610ff0578082168080615093575b80615086575b6118755715610ff05766ff0000000000ff60301b1916660500000000000160301b17601555614ee5615a1d565b614eed615683565b60155481811680615079575b8061504f575b614f3f575b50505080600080516020615e88833981519152817f9331b2a38c658c57a39ea19b2709d928c28a12cc8fbb838d12b85148550f937d93a180a1565b60101c811661504a57600f5416600481101561156d57614fcd57600b5416803b1561047057818091602460405180948193636382ff5160e11b83523060048401525af180156105cb57614fb9575b507f9331b2a38c658c57a39ea19b2709d928c28a12cc8fbb838d12b85148550f937d905b903880614f04565b614fc38291613ef3565b6105d65738614f8d565b90809291600b5416803b15610470578190602460405180968193636382ff5160e11b83523060048401525af192831561503d577f9331b2a38c658c57a39ea19b2709d928c28a12cc8fbb838d12b85148550f937d929361502e575b50614fb1565b61503790613ef3565b38615028565b50604051903d90823e3d90fd5b505050565b5081600f54166004811015610d6557801590811561506e575b50614eff565b600191501438615068565b5082600b54161515614ef9565b50828260201c1615614eb8565b5082600f541660048110156150bd5780159081156150b2575b50614eb2565b6001915014386150ac565b634e487b7160e01b86526021600452602486fd5b600191501438614ea2565b5080600c54163314614e7e565b156150f057565b60405162461bcd60e51b815260206004820152602260248201527f476174696e672062616c616e636520726571756972656d656e74206e6f74206d604482015261195d60f21b6064820152608490fd5b60001981146141f55760010190565b91908110156131215760051b0190565b1561516657565b60405162461bcd60e51b815260206004820152601c60248201527f4e6f74206f776e6572206f662073706563696669656420746f6b656e000000006044820152606490fd5b156151b257565b60405162461bcd60e51b815260206004820152602960248201527f546f6b656e20494420616c726561647920626f756e6420746f20616e6f74686560448201526872206164647265737360b81b6064820152608490fd5b600080546015805490926001600160a01b03928316929160601c60ff166008811015611e9c5760011461563c575b83549160ff8360601c16600881101561156d5760028114908115615631575b50156155dd5761526c60ff8460481c16156142d1565b60165493601a549461527e8682614842565b8061528e600954601b5490614842565b601e8111156155d85750601e5b80601c55116155cf575b50601c549485156155b757506004929160a0917f4ff4e84912750d469e8d0e190997710c06112023943415787c2f744eb09c0da46060601e54926040998a5191825260209b8c8301528a820152a2855163ec644ddd60e01b815293849182905afa80156155ad578391849085948693615584575b5060025460081c1691865190888201926001600160401b03938381108582111761557057895287835288519263125fa26760e31b8b85015251151560248401526024835261536683613f06565b88519360c0850190811185821017615570578a9695949389938893615406938d5286528386019788528b8087019a61ffff8093168c526060880163ffffffff9384809316825260808a01936001855260a08b01968752519d8e9c8d9b8c9a634d8e1c2f60e11b8c5260048c01525160248b01525160448a01525116606488015251166084860152511660a48401525160c060c484015260e4830190613f42565b03925af1829181615541575b506154f45750600190615423614348565b6308c379a01461548b575b5061543857505050565b7fab4c58d5f7fcd2f6f276017059fe707292278a4b150b6402c89eb3899a7494ec916154756154656143d7565b9251928284938452830190613f42565b0390a1805460ff60601b1916600160611b179055565b615493614366565b90816154a0575b5061542e565b83518581529092507f1bc0b7451d1b26a4c7bfd7b118b2756c98249ac5f3d51e76be5f33aab54899029181906154d99087830190613f42565b0390a1835460ff60601b1916600160611b178455388061549a565b6004819055845463ff0000ff60481b19166c030000010000000000000000001790945550519182527ff81446731d23d202ea16cf590daf64c6087251171612b2adde6acbef4b37580291a1565b9091508481813d8311615569575b6155598183613f21565b8101031261054e57519038615412565b503d61554f565b634e487b7160e01b89526041600452602489fd5b92509350506155a1915060a03d8111610fde57610fcc8183613f21565b90949293509138615319565b84513d85823e3d90fd5b60ff60601b1916600160621b17909655505050505050565b601c55386152a5565b61529b565b60405162461bcd60e51b815260206004820152602660248201527f506f6f6c206d75737420626520696e20456e646564206f722044726177696e6760448201526520737461746560d01b6064820152608490fd5b600391501438615256565b615644615649565b615237565b6015805460ff60601b1916600160611b1790557fba56b904ffec191559c3639e6019beb8a654605dbf6ba72f33361432a97c2bea600080a1565b60155460ff811690811561454e5781615918575b5061569e57565b6027546001600160a01b03908116156157c8578060275416604051916370a0823160e01b83523060048401526020928381602481865afa9081156146c25760009161579b575b50806156f1575b50505050565b600c5460405163a9059cbb60e01b815292166001600160a01b0316600483015260248201529082908290816000816044810103925af19081156146c25760009161577e575b5015615744578080806156eb565b6064906040519062461bcd60e51b825260048201526013602482015272151bdad95b881c99599d5b990819985a5b1959606a1b6044820152fd5b6157959150823d84116105c4576105b68183613f21565b38615736565b908482813d83116157c1575b6157b18183613f21565b810103126105d6575051386156e4565b503d6157a7565b60ff600f54166004811015614069576003810361584357504790816157eb575050565b60008080938193600c54165af16158006143d7565b501561580857565b60405162461bcd60e51b8152602060048201526013602482015272141c9a5e99481c99599d5b990819985a5b1959606a1b6044820152606490fd5b1561584b5750565b80600b541690601054906040516331a9108f60e11b8152826004820152602081602481875afa9081156146c2576000916158df575b508116301461588e57505050565b600c541690823b15610da5576040516323b872dd60e01b81523060048201526001600160a01b039290921660248301526044820152906000908290606490829084905af180156146c257614cdc5750565b906020823d8211615910575b816158f860209383613f21565b810103126105d6575061590a9061418d565b38615880565b3d91506158eb565b60ff915060101c1638615697565b1561592d57565b60405162461bcd60e51b815260206004820152601860248201527f4e6f20737562736372697074696f6e2061737369676e656400000000000000006044820152606490fd5b600060018060a01b0381541660035461598c811515615926565b813b1561054e57604051633d40f28f60e01b81523060048201526024810191909152919081908390818381604481015b03925af190811561336a5750614cdc5750565b600060018060a01b038154166003546159e9811515615926565b813b1561054e5760405163032a136160e11b81523060048201526024810191909152919081908390818381604481016159bc565b600060018060a01b03815416600354615a37811515615926565b813b1561054e57604051630221a1c360e51b81523060048201526024810191909152919081908390818381604481016159bc565b6000805460405163524d530b60e01b815260209390916001600160a01b039085908490600490829085165afa928315611788578493615b1f575b5082161561054e579082916040519085820191635e5bc1c560e11b835281602482015260248152615ad581613f06565b51925af1615ae16143d7565b5015615aea5750565b6064906040519062461bcd60e51b82526004820152600e60248201526d11195c1bdcda5d0819985a5b195960921b6044820152fd5b9092508481813d8311615b4f575b615b378183613f21565b81010312610ff057615b489061418d565b9138615aa5565b503d615b2d565b600033815260209160128352604080832054928315615d9657338152601385528181205494858503958514615d8557602c5485939291906001600160a01b0381169081615bab575b5050601390338352522055565b60ff91929394955060a01c1660048110156112495786949392919080615c5357508394509060249181939451928380926370a0823160e01b82523360048301525afa9081156155ad579083929187959491615c1a575b5090615c13601392602d5411156150e9565b9038615b9e565b828094959650819392503d8311615c4c575b615c368183613f21565b8101031261054e57518593929190615c13615c01565b503d615c2c565b60018103615cee5750602e548451627eeac760e11b81523360048201526024810191909152939450919290918290829060449082905afa9081156155ad579083929187959491615cb5575b5090615cb0601392602d5411156150e9565b615c13565b828094959650819392503d8311615ce7575b615cd18183613f21565b8101031261054e57518593929190615cb0615c9e565b503d615cc7565b600214615cff575b50601390615c13565b8394509060249181939451928380926370a0823160e01b82523360048301525afa9081156155ad579083929187959491615d4c575b5090615d46601392602d5411156150e9565b90615cf6565b828094959650819392503d8311615d7e575b615d688183613f21565b8101031261054e57518593929190615d46615d34565b503d615d5e565b8251630ccaf35d60e41b8152600490fd5b81516358cd4fc160e11b8152600490fd5b601454018060145560095414615db957565b6015805460ff60601b1916600360611b179055600054604051630425172560e31b815230600482015290602090829060249082906001600160a01b03165afa9081156146c257600091615e16575b50615e0e57565b6146b1615972565b906020823d8211615e3f575b81615e2f60209383613f21565b810103126105d657505138615e07565b3d9150615e2256fe036b6384b5eca791c62761152d0c79bb0604c104a5fb6f4eb0703f3154bb3db018381720d6efb26847068a65e3be979f1243520b7db6b16331969a7acdb200d5e465c22b8ec96fc194d9a0791b76171272fb36c68a84e2c807ed610cb9c7b9b1358fe4192934d3bf28ae181feda1f4bd08ca67f5e2fad55582cce5eb67304ae9a26469706673582212208f2a922685d25ca0c5243aed445b2264a65375054a3ee67915dbc8d7736b35f764736f6c63430008130033",
  "linkReferences": {},
  "deployedLinkReferences": {}
}