{
  "_format": "hh-sol-artifact-1",
  "contractName": "Pool",
  "sourceName": "contracts/Pool.sol",
  "abi": [
    {
      "inputs": [
        {
          "internalType": "address",
          "name": "_factory",
          "type": "address"
        }
      ],
      "stateMutability": "nonpayable",
      "type": "constructor"
    },
    {
      "inputs": [],
      "name": "ArrayLengthMismatch",
      "type": "error"
    },
    {
      "inputs": [],
      "name": "BatchTooLarge",
      "type": "error"
    },
    {
      "inputs": [],
      "name": "ContractsCannotPurchase",
      "type": "error"
    },
    {
      "inputs": [],
      "name": "CreatorNotAllowed",
      "type": "error"
    },
    {
      "inputs": [],
      "name": "ExceedsMaxSlots",
      "type": "error"
    },
    {
      "inputs": [],
      "name": "ExceedsSlotLimit",
      "type": "error"
    },
    {
      "inputs": [],
      "name": "ExceedsWinnersCount",
      "type": "error"
    },
    {
      "inputs": [],
      "name": "IncorrectPayment",
      "type": "error"
    },
    {
      "inputs": [],
      "name": "InvalidNonPrizedPurchase",
      "type": "error"
    },
    {
      "inputs": [],
      "name": "InvalidPoolState",
      "type": "error"
    },
    {
      "inputs": [],
      "name": "InvalidPrizeAmount",
      "type": "error"
    },
    {
      "inputs": [],
      "name": "InvalidPrizeCollection",
      "type": "error"
    },
    {
      "inputs": [],
      "name": "InvalidPrizeType",
      "type": "error"
    },
    {
      "inputs": [],
      "name": "InvalidState",
      "type": "error"
    },
    {
      "inputs": [],
      "name": "InvalidWinnerAddress",
      "type": "error"
    },
    {
      "inputs": [],
      "name": "MintingNotSupported",
      "type": "error"
    },
    {
      "inputs": [],
      "name": "NoPrizesClaimedYet",
      "type": "error"
    },
    {
      "inputs": [],
      "name": "NoPrizesToClaim",
      "type": "error"
    },
    {
      "inputs": [],
      "name": "NotAWinner",
      "type": "error"
    },
    {
      "inputs": [],
      "name": "OnlyOperator",
      "type": "error"
    },
    {
      "inputs": [],
      "name": "PoolDurationElapsed",
      "type": "error"
    },
    {
      "inputs": [],
      "name": "PoolNotActive",
      "type": "error"
    },
    {
      "inputs": [],
      "name": "PrizeTransferFailed",
      "type": "error"
    },
    {
      "inputs": [],
      "name": "ProtocolAdminNotAllowed",
      "type": "error"
    },
    {
      "inputs": [],
      "name": "SocialEngagementNotConfigured",
      "type": "error"
    },
    {
      "inputs": [],
      "name": "TimestampDelayIssue",
      "type": "error"
    },
    {
      "inputs": [],
      "name": "UnauthorizedCaller",
      "type": "error"
    },
    {
      "inputs": [],
      "name": "ZeroAddress",
      "type": "error"
    },
    {
      "inputs": [],
      "name": "ZeroQuantity",
      "type": "error"
    },
    {
      "inputs": [],
      "name": "ZeroSlotFee",
      "type": "error"
    },
    {
      "anonymous": false,
      "inputs": [
        {
          "indexed": false,
          "internalType": "string",
          "name": "reason",
          "type": "string"
        }
      ],
      "name": "BatchProcessingFailed",
      "type": "event"
    },
    {
      "anonymous": false,
      "inputs": [
        {
          "indexed": false,
          "internalType": "bytes",
          "name": "lowLevelData",
          "type": "bytes"
        }
      ],
      "name": "BatchProcessingFailedBytes",
      "type": "event"
    },
    {
      "anonymous": false,
      "inputs": [
        {
          "indexed": true,
          "internalType": "address",
          "name": "winner",
          "type": "address"
        },
        {
          "indexed": false,
          "internalType": "string",
          "name": "reason",
          "type": "string"
        }
      ],
      "name": "MintingFailed",
      "type": "event"
    },
    {
      "anonymous": false,
      "inputs": [
        {
          "indexed": true,
          "internalType": "address",
          "name": "previousOwner",
          "type": "address"
        },
        {
          "indexed": true,
          "internalType": "address",
          "name": "newOwner",
          "type": "address"
        }
      ],
      "name": "OwnershipTransferred",
      "type": "event"
    },
    {
      "anonymous": false,
      "inputs": [
        {
          "indexed": false,
          "internalType": "address",
          "name": "account",
          "type": "address"
        }
      ],
      "name": "Paused",
      "type": "event"
    },
    {
      "anonymous": false,
      "inputs": [
        {
          "indexed": false,
          "internalType": "uint256",
          "name": "timestamp",
          "type": "uint256"
        }
      ],
      "name": "PoolActivated",
      "type": "event"
    },
    {
      "anonymous": false,
      "inputs": [
        {
          "indexed": false,
          "internalType": "uint256",
          "name": "timestamp",
          "type": "uint256"
        }
      ],
      "name": "PoolEnded",
      "type": "event"
    },
    {
      "anonymous": false,
      "inputs": [
        {
          "indexed": true,
          "internalType": "address",
          "name": "winner",
          "type": "address"
        },
        {
          "indexed": false,
          "internalType": "uint256",
          "name": "amount",
          "type": "uint256"
        }
      ],
      "name": "PrizeClaimed",
      "type": "event"
    },
    {
      "anonymous": false,
      "inputs": [
        {
          "indexed": false,
          "internalType": "uint256",
          "name": "requestId",
          "type": "uint256"
        },
        {
          "indexed": true,
          "internalType": "address",
          "name": "caller",
          "type": "address"
        }
      ],
      "name": "RandomRequested",
      "type": "event"
    },
    {
      "anonymous": false,
      "inputs": [
        {
          "indexed": true,
          "internalType": "address",
          "name": "participant",
          "type": "address"
        },
        {
          "indexed": false,
          "internalType": "uint256",
          "name": "amount",
          "type": "uint256"
        }
      ],
      "name": "RefundClaimed",
      "type": "event"
    },
    {
      "anonymous": false,
      "inputs": [
        {
          "indexed": true,
          "internalType": "uint256",
          "name": "batchNumber",
          "type": "uint256"
        },
        {
          "indexed": false,
          "internalType": "uint256",
          "name": "participantCount",
          "type": "uint256"
        },
        {
          "indexed": false,
          "internalType": "uint256",
          "name": "shuffleStartIndex",
          "type": "uint256"
        },
        {
          "indexed": false,
          "internalType": "uint256",
          "name": "batchSize",
          "type": "uint256"
        }
      ],
      "name": "SelectionStarted",
      "type": "event"
    },
    {
      "anonymous": false,
      "inputs": [
        {
          "indexed": true,
          "internalType": "address",
          "name": "participant",
          "type": "address"
        },
        {
          "indexed": false,
          "internalType": "uint256",
          "name": "quantity",
          "type": "uint256"
        }
      ],
      "name": "SlotsPurchased",
      "type": "event"
    },
    {
      "anonymous": false,
      "inputs": [
        {
          "indexed": false,
          "internalType": "address",
          "name": "account",
          "type": "address"
        }
      ],
      "name": "Unpaused",
      "type": "event"
    },
    {
      "anonymous": false,
      "inputs": [
        {
          "indexed": false,
          "internalType": "address[]",
          "name": "winners",
          "type": "address[]"
        }
      ],
      "name": "WinnersSelected",
      "type": "event"
    },
    {
      "inputs": [
        {
          "internalType": "uint256",
          "name": "batchRandomSeed",
          "type": "uint256"
        }
      ],
      "name": "_processBatchWithRandomness",
      "outputs": [],
      "stateMutability": "nonpayable",
      "type": "function"
    },
    {
      "inputs": [
        {
          "internalType": "address",
          "name": "participant",
          "type": "address"
        }
      ],
      "name": "_processRefundExternal",
      "outputs": [
        {
          "internalType": "uint256",
          "name": "",
          "type": "uint256"
        }
      ],
      "stateMutability": "nonpayable",
      "type": "function"
    },
    {
      "inputs": [],
      "name": "amountPerWinner",
      "outputs": [
        {
          "internalType": "uint256",
          "name": "",
          "type": "uint256"
        }
      ],
      "stateMutability": "view",
      "type": "function"
    },
    {
      "inputs": [],
      "name": "batchCount",
      "outputs": [
        {
          "internalType": "uint256",
          "name": "",
          "type": "uint256"
        }
      ],
      "stateMutability": "view",
      "type": "function"
    },
    {
      "inputs": [
        {
          "internalType": "address[]",
          "name": "winnerAddresses",
          "type": "address[]"
        },
        {
          "internalType": "uint256[]",
          "name": "quantities",
          "type": "uint256[]"
        }
      ],
      "name": "batchMintToWinners",
      "outputs": [
        {
          "internalType": "uint256",
          "name": "successfulMints",
          "type": "uint256"
        }
      ],
      "stateMutability": "nonpayable",
      "type": "function"
    },
    {
      "inputs": [
        {
          "internalType": "uint256",
          "name": "",
          "type": "uint256"
        }
      ],
      "name": "batchRandomSeeds",
      "outputs": [
        {
          "internalType": "uint256",
          "name": "",
          "type": "uint256"
        }
      ],
      "stateMutability": "view",
      "type": "function"
    },
    {
      "inputs": [],
      "name": "claimCreatorPoints",
      "outputs": [],
      "stateMutability": "nonpayable",
      "type": "function"
    },
    {
      "inputs": [],
      "name": "claimParticipantPoints",
      "outputs": [],
      "stateMutability": "nonpayable",
      "type": "function"
    },
    {
      "inputs": [],
      "name": "claimPrize",
      "outputs": [],
      "stateMutability": "nonpayable",
      "type": "function"
    },
    {
      "inputs": [],
      "name": "claimRefund",
      "outputs": [],
      "stateMutability": "nonpayable",
      "type": "function"
    },
    {
      "inputs": [
        {
          "internalType": "address",
          "name": "",
          "type": "address"
        }
      ],
      "name": "claimedWins",
      "outputs": [
        {
          "internalType": "uint256",
          "name": "",
          "type": "uint256"
        }
      ],
      "stateMutability": "view",
      "type": "function"
    },
    {
      "inputs": [],
      "name": "closePool",
      "outputs": [],
      "stateMutability": "nonpayable",
      "type": "function"
    },
    {
      "inputs": [],
      "name": "creationFeePercentage",
      "outputs": [
        {
          "internalType": "uint256",
          "name": "",
          "type": "uint256"
        }
      ],
      "stateMutability": "view",
      "type": "function"
    },
    {
      "inputs": [],
      "name": "creator",
      "outputs": [
        {
          "internalType": "address",
          "name": "",
          "type": "address"
        }
      ],
      "stateMutability": "view",
      "type": "function"
    },
    {
      "inputs": [],
      "name": "currentBatchSize",
      "outputs": [
        {
          "internalType": "uint256",
          "name": "",
          "type": "uint256"
        }
      ],
      "stateMutability": "view",
      "type": "function"
    },
    {
      "inputs": [],
      "name": "deletePool",
      "outputs": [],
      "stateMutability": "nonpayable",
      "type": "function"
    },
    {
      "inputs": [],
      "name": "duration",
      "outputs": [
        {
          "internalType": "uint128",
          "name": "",
          "type": "uint128"
        }
      ],
      "stateMutability": "view",
      "type": "function"
    },
    {
      "inputs": [],
      "name": "endTime",
      "outputs": [
        {
          "internalType": "uint256",
          "name": "",
          "type": "uint256"
        }
      ],
      "stateMutability": "view",
      "type": "function"
    },
    {
      "inputs": [],
      "name": "erc20PrizeAmount",
      "outputs": [
        {
          "internalType": "uint256",
          "name": "",
          "type": "uint256"
        }
      ],
      "stateMutability": "view",
      "type": "function"
    },
    {
      "inputs": [],
      "name": "erc20PrizeToken",
      "outputs": [
        {
          "internalType": "address",
          "name": "",
          "type": "address"
        }
      ],
      "stateMutability": "view",
      "type": "function"
    },
    {
      "inputs": [],
      "name": "erc721EscrowClaimed",
      "outputs": [
        {
          "internalType": "bool",
          "name": "",
          "type": "bool"
        }
      ],
      "stateMutability": "view",
      "type": "function"
    },
    {
      "inputs": [],
      "name": "getParticipantsCount",
      "outputs": [
        {
          "internalType": "uint256",
          "name": "",
          "type": "uint256"
        }
      ],
      "stateMutability": "view",
      "type": "function"
    },
    {
      "inputs": [
        {
          "internalType": "address",
          "name": "participant",
          "type": "address"
        }
      ],
      "name": "getRefundableAmount",
      "outputs": [
        {
          "internalType": "uint256",
          "name": "",
          "type": "uint256"
        }
      ],
      "stateMutability": "view",
      "type": "function"
    },
    {
      "inputs": [],
      "name": "getSlotLimit",
      "outputs": [
        {
          "internalType": "uint256",
          "name": "",
          "type": "uint256"
        }
      ],
      "stateMutability": "view",
      "type": "function"
    },
    {
      "inputs": [
        {
          "internalType": "address",
          "name": "participant",
          "type": "address"
        }
      ],
      "name": "getSlotsPurchased",
      "outputs": [
        {
          "internalType": "uint256",
          "name": "",
          "type": "uint256"
        }
      ],
      "stateMutability": "view",
      "type": "function"
    },
    {
      "inputs": [
        {
          "internalType": "address",
          "name": "",
          "type": "address"
        }
      ],
      "name": "hasClaimedFeeRefund",
      "outputs": [
        {
          "internalType": "bool",
          "name": "",
          "type": "bool"
        }
      ],
      "stateMutability": "view",
      "type": "function"
    },
    {
      "inputs": [
        {
          "internalType": "address",
          "name": "",
          "type": "address"
        }
      ],
      "name": "hasCompletedSocialEngagement",
      "outputs": [
        {
          "internalType": "bool",
          "name": "",
          "type": "bool"
        }
      ],
      "stateMutability": "view",
      "type": "function"
    },
    {
      "inputs": [],
      "name": "holderData",
      "outputs": [
        {
          "internalType": "address",
          "name": "holderTokenAddress",
          "type": "address"
        },
        {
          "internalType": "enum PrizeTypes.Standard",
          "name": "holderTokenStandard",
          "type": "uint8"
        },
        {
          "internalType": "uint256",
          "name": "minHolderTokenBalance",
          "type": "uint256"
        },
        {
          "internalType": "uint256",
          "name": "holderTokenId",
          "type": "uint256"
        }
      ],
      "stateMutability": "view",
      "type": "function"
    },
    {
      "inputs": [],
      "name": "holderTokenAddress",
      "outputs": [
        {
          "internalType": "address",
          "name": "",
          "type": "address"
        }
      ],
      "stateMutability": "view",
      "type": "function"
    },
    {
      "inputs": [],
      "name": "holderTokenId",
      "outputs": [
        {
          "internalType": "uint256",
          "name": "",
          "type": "uint256"
        }
      ],
      "stateMutability": "view",
      "type": "function"
    },
    {
      "inputs": [],
      "name": "holderTokenStandard",
      "outputs": [
        {
          "internalType": "enum PrizeTypes.Standard",
          "name": "",
          "type": "uint8"
        }
      ],
      "stateMutability": "view",
      "type": "function"
    },
    {
      "inputs": [],
      "name": "i_vrfCoordinator",
      "outputs": [
        {
          "internalType": "contract VRFCoordinatorV2PlusInterface",
          "name": "",
          "type": "address"
        }
      ],
      "stateMutability": "view",
      "type": "function"
    },
    {
      "inputs": [
        {
          "components": [
            {
              "internalType": "address",
              "name": "manager",
              "type": "address"
            },
            {
              "internalType": "address",
              "name": "revenueRecipient",
              "type": "address"
            },
            {
              "internalType": "string",
              "name": "name",
              "type": "string"
            },
            {
              "internalType": "uint256",
              "name": "slotLimit",
              "type": "uint256"
            },
            {
              "internalType": "uint256",
              "name": "maxSlotsPerAddress",
              "type": "uint256"
            },
            {
              "internalType": "uint256",
              "name": "winnersCount",
              "type": "uint256"
            },
            {
              "internalType": "bool",
              "name": "isCollabPool",
              "type": "bool"
            },
            {
              "internalType": "bool",
              "name": "usesCustomFee",
              "type": "bool"
            },
            {
              "internalType": "bool",
              "name": "isExternalCollection",
              "type": "bool"
            },
            {
              "internalType": "bool",
              "name": "hasCreatorFeeDiscount",
              "type": "bool"
            },
            {
              "internalType": "uint256",
              "name": "protocolFeePercentage",
              "type": "uint256"
            },
            {
              "internalType": "uint256",
              "name": "creationFeePercentage",
              "type": "uint256"
            },
            {
              "internalType": "uint256",
              "name": "globalSlotFee",
              "type": "uint256"
            }
          ],
          "internalType": "struct Pool.PoolConfig",
          "name": "_poolConfig",
          "type": "tuple"
        },
        {
          "components": [
            {
              "internalType": "enum PrizeTypes.Standard",
              "name": "standard",
              "type": "uint8"
            },
            {
              "internalType": "address",
              "name": "prizeCollection",
              "type": "address"
            },
            {
              "internalType": "uint256",
              "name": "prizeTokenId",
              "type": "uint256"
            },
            {
              "internalType": "uint256",
              "name": "amountPerWinner",
              "type": "uint256"
            },
            {
              "internalType": "address",
              "name": "erc20PrizeToken",
              "type": "address"
            },
            {
              "internalType": "uint256",
              "name": "erc20PrizeAmount",
              "type": "uint256"
            },
            {
              "internalType": "uint256",
              "name": "nativePrizeAmount",
              "type": "uint256"
            },
            {
              "internalType": "bool",
              "name": "isEscrowedPrize",
              "type": "bool"
            }
          ],
          "internalType": "struct Pool.PrizeConfig",
          "name": "_prizeConfig",
          "type": "tuple"
        },
        {
          "components": [
            {
              "internalType": "address",
              "name": "holderTokenAddress",
              "type": "address"
            },
            {
              "internalType": "enum PrizeTypes.Standard",
              "name": "holderTokenStandard",
              "type": "uint8"
            },
            {
              "internalType": "uint256",
              "name": "minHolderTokenBalance",
              "type": "uint256"
            },
            {
              "internalType": "uint256",
              "name": "holderTokenId",
              "type": "uint256"
            }
          ],
          "internalType": "struct Pool.HolderConfig",
          "name": "_holderConfig",
          "type": "tuple"
        },
        {
          "internalType": "bool",
          "name": "_socialEngagementRequired",
          "type": "bool"
        },
        {
          "internalType": "address",
          "name": "_creator",
          "type": "address"
        },
        {
          "internalType": "uint256",
          "name": "_startTime",
          "type": "uint256"
        },
        {
          "internalType": "uint256",
          "name": "_duration",
          "type": "uint256"
        },
        {
          "internalType": "uint256",
          "name": "_slotFee",
          "type": "uint256"
        },
        {
          "internalType": "bool",
          "name": "_isPrized",
          "type": "bool"
        }
      ],
      "name": "initialize",
      "outputs": [],
      "stateMutability": "payable",
      "type": "function"
    },
    {
      "inputs": [],
      "name": "isCollabPool",
      "outputs": [
        {
          "internalType": "bool",
          "name": "",
          "type": "bool"
        }
      ],
      "stateMutability": "view",
      "type": "function"
    },
    {
      "inputs": [],
      "name": "isEscrowedPrize",
      "outputs": [
        {
          "internalType": "bool",
          "name": "",
          "type": "bool"
        }
      ],
      "stateMutability": "view",
      "type": "function"
    },
    {
      "inputs": [],
      "name": "isExternalCollection",
      "outputs": [
        {
          "internalType": "bool",
          "name": "",
          "type": "bool"
        }
      ],
      "stateMutability": "view",
      "type": "function"
    },
    {
      "inputs": [],
      "name": "isPrized",
      "outputs": [
        {
          "internalType": "bool",
          "name": "",
          "type": "bool"
        }
      ],
      "stateMutability": "view",
      "type": "function"
    },
    {
      "inputs": [],
      "name": "isRefundable",
      "outputs": [
        {
          "internalType": "bool",
          "name": "",
          "type": "bool"
        }
      ],
      "stateMutability": "view",
      "type": "function"
    },
    {
      "inputs": [],
      "name": "maxSlotsPerAddress",
      "outputs": [
        {
          "internalType": "uint256",
          "name": "",
          "type": "uint256"
        }
      ],
      "stateMutability": "view",
      "type": "function"
    },
    {
      "inputs": [],
      "name": "minHolderTokenBalance",
      "outputs": [
        {
          "internalType": "uint256",
          "name": "",
          "type": "uint256"
        }
      ],
      "stateMutability": "view",
      "type": "function"
    },
    {
      "inputs": [],
      "name": "mint",
      "outputs": [],
      "stateMutability": "nonpayable",
      "type": "function"
    },
    {
      "inputs": [],
      "name": "name",
      "outputs": [
        {
          "internalType": "string",
          "name": "",
          "type": "string"
        }
      ],
      "stateMutability": "view",
      "type": "function"
    },
    {
      "inputs": [],
      "name": "nativePrizeAmount",
      "outputs": [
        {
          "internalType": "uint256",
          "name": "",
          "type": "uint256"
        }
      ],
      "stateMutability": "view",
      "type": "function"
    },
    {
      "inputs": [
        {
          "internalType": "address",
          "name": "",
          "type": "address"
        },
        {
          "internalType": "address",
          "name": "",
          "type": "address"
        },
        {
          "internalType": "uint256[]",
          "name": "",
          "type": "uint256[]"
        },
        {
          "internalType": "uint256[]",
          "name": "",
          "type": "uint256[]"
        },
        {
          "internalType": "bytes",
          "name": "",
          "type": "bytes"
        }
      ],
      "name": "onERC1155BatchReceived",
      "outputs": [
        {
          "internalType": "bytes4",
          "name": "",
          "type": "bytes4"
        }
      ],
      "stateMutability": "pure",
      "type": "function"
    },
    {
      "inputs": [
        {
          "internalType": "address",
          "name": "",
          "type": "address"
        },
        {
          "internalType": "address",
          "name": "",
          "type": "address"
        },
        {
          "internalType": "uint256",
          "name": "",
          "type": "uint256"
        },
        {
          "internalType": "uint256",
          "name": "",
          "type": "uint256"
        },
        {
          "internalType": "bytes",
          "name": "",
          "type": "bytes"
        }
      ],
      "name": "onERC1155Received",
      "outputs": [
        {
          "internalType": "bytes4",
          "name": "",
          "type": "bytes4"
        }
      ],
      "stateMutability": "pure",
      "type": "function"
    },
    {
      "inputs": [
        {
          "internalType": "address",
          "name": "",
          "type": "address"
        },
        {
          "internalType": "address",
          "name": "",
          "type": "address"
        },
        {
          "internalType": "uint256",
          "name": "",
          "type": "uint256"
        },
        {
          "internalType": "bytes",
          "name": "",
          "type": "bytes"
        }
      ],
      "name": "onERC721Received",
      "outputs": [
        {
          "internalType": "bytes4",
          "name": "",
          "type": "bytes4"
        }
      ],
      "stateMutability": "pure",
      "type": "function"
    },
    {
      "inputs": [],
      "name": "owner",
      "outputs": [
        {
          "internalType": "address",
          "name": "",
          "type": "address"
        }
      ],
      "stateMutability": "view",
      "type": "function"
    },
    {
      "inputs": [
        {
          "internalType": "uint256",
          "name": "",
          "type": "uint256"
        }
      ],
      "name": "participants",
      "outputs": [
        {
          "internalType": "address",
          "name": "",
          "type": "address"
        }
      ],
      "stateMutability": "view",
      "type": "function"
    },
    {
      "inputs": [],
      "name": "paused",
      "outputs": [
        {
          "internalType": "bool",
          "name": "",
          "type": "bool"
        }
      ],
      "stateMutability": "view",
      "type": "function"
    },
    {
      "inputs": [],
      "name": "pendingProtocolFee",
      "outputs": [
        {
          "internalType": "uint256",
          "name": "",
          "type": "uint256"
        }
      ],
      "stateMutability": "view",
      "type": "function"
    },
    {
      "inputs": [],
      "name": "poolData",
      "outputs": [
        {
          "internalType": "string",
          "name": "name",
          "type": "string"
        },
        {
          "internalType": "uint256",
          "name": "winnersCount",
          "type": "uint256"
        },
        {
          "internalType": "uint256",
          "name": "maxSlotsPerAddress",
          "type": "uint256"
        },
        {
          "internalType": "uint256",
          "name": "slotLimit",
          "type": "uint256"
        },
        {
          "internalType": "address",
          "name": "revenueRecipient",
          "type": "address"
        },
        {
          "internalType": "bool",
          "name": "isCollabPool",
          "type": "bool"
        },
        {
          "internalType": "bool",
          "name": "usesCustomFee",
          "type": "bool"
        },
        {
          "internalType": "bool",
          "name": "isExternalCollection",
          "type": "bool"
        },
        {
          "internalType": "bool",
          "name": "isRefundable",
          "type": "bool"
        },
        {
          "internalType": "bool",
          "name": "erc721EscrowClaimed",
          "type": "bool"
        },
        {
          "internalType": "bool",
          "name": "isEscrowedPrize",
          "type": "bool"
        },
        {
          "internalType": "bool",
          "name": "wasDeletedForFullRefund",
          "type": "bool"
        },
        {
          "internalType": "bool",
          "name": "protocolFeeCalculated",
          "type": "bool"
        },
        {
          "internalType": "bool",
          "name": "randomRequested",
          "type": "bool"
        },
        {
          "internalType": "bool",
          "name": "randomnessUsed",
          "type": "bool"
        },
        {
          "internalType": "bool",
          "name": "socialEngagementRequired",
          "type": "bool"
        },
        {
          "internalType": "bool",
          "name": "hasCreatorFeeDiscount",
          "type": "bool"
        }
      ],
      "stateMutability": "view",
      "type": "function"
    },
    {
      "inputs": [],
      "name": "poolSubscriptionId",
      "outputs": [
        {
          "internalType": "uint256",
          "name": "",
          "type": "uint256"
        }
      ],
      "stateMutability": "view",
      "type": "function"
    },
    {
      "inputs": [
        {
          "internalType": "address",
          "name": "participant",
          "type": "address"
        }
      ],
      "name": "prizeClaimed",
      "outputs": [
        {
          "internalType": "uint256",
          "name": "",
          "type": "uint256"
        }
      ],
      "stateMutability": "view",
      "type": "function"
    },
    {
      "inputs": [],
      "name": "prizeCollection",
      "outputs": [
        {
          "internalType": "address",
          "name": "",
          "type": "address"
        }
      ],
      "stateMutability": "view",
      "type": "function"
    },
    {
      "inputs": [],
      "name": "prizeData",
      "outputs": [
        {
          "internalType": "enum PrizeTypes.Standard",
          "name": "standard",
          "type": "uint8"
        },
        {
          "internalType": "address",
          "name": "prizeCollection",
          "type": "address"
        },
        {
          "internalType": "uint256",
          "name": "prizeTokenId",
          "type": "uint256"
        },
        {
          "internalType": "uint256",
          "name": "amountPerWinner",
          "type": "uint256"
        },
        {
          "internalType": "address",
          "name": "erc20PrizeToken",
          "type": "address"
        },
        {
          "internalType": "uint256",
          "name": "erc20PrizeAmount",
          "type": "uint256"
        },
        {
          "internalType": "uint256",
          "name": "nativePrizeAmount",
          "type": "uint256"
        },
        {
          "internalType": "uint256",
          "name": "prizesClaimedCount",
          "type": "uint256"
        }
      ],
      "stateMutability": "view",
      "type": "function"
    },
    {
      "inputs": [],
      "name": "prizeTokenId",
      "outputs": [
        {
          "internalType": "uint256",
          "name": "",
          "type": "uint256"
        }
      ],
      "stateMutability": "view",
      "type": "function"
    },
    {
      "inputs": [],
      "name": "prizesClaimedCount",
      "outputs": [
        {
          "internalType": "uint256",
          "name": "",
          "type": "uint256"
        }
      ],
      "stateMutability": "view",
      "type": "function"
    },
    {
      "inputs": [],
      "name": "protocolFeeCalculated",
      "outputs": [
        {
          "internalType": "bool",
          "name": "",
          "type": "bool"
        }
      ],
      "stateMutability": "view",
      "type": "function"
    },
    {
      "inputs": [],
      "name": "protocolFeePercentage",
      "outputs": [
        {
          "internalType": "uint256",
          "name": "",
          "type": "uint256"
        }
      ],
      "stateMutability": "view",
      "type": "function"
    },
    {
      "inputs": [
        {
          "internalType": "uint256",
          "name": "quantity",
          "type": "uint256"
        },
        {
          "internalType": "uint256",
          "name": "_deadline",
          "type": "uint256"
        },
        {
          "internalType": "bytes",
          "name": "_signature",
          "type": "bytes"
        },
        {
          "internalType": "uint256[]",
          "name": "_tokenIds",
          "type": "uint256[]"
        }
      ],
      "name": "purchaseSlots",
      "outputs": [],
      "stateMutability": "payable",
      "type": "function"
    },
    {
      "inputs": [],
      "name": "randomRequested",
      "outputs": [
        {
          "internalType": "bool",
          "name": "",
          "type": "bool"
        }
      ],
      "stateMutability": "view",
      "type": "function"
    },
    {
      "inputs": [],
      "name": "randomSeed",
      "outputs": [
        {
          "internalType": "uint256",
          "name": "",
          "type": "uint256"
        }
      ],
      "stateMutability": "view",
      "type": "function"
    },
    {
      "inputs": [],
      "name": "randomnessUsed",
      "outputs": [
        {
          "internalType": "bool",
          "name": "",
          "type": "bool"
        }
      ],
      "stateMutability": "view",
      "type": "function"
    },
    {
      "inputs": [
        {
          "internalType": "uint256",
          "name": "requestId",
          "type": "uint256"
        },
        {
          "internalType": "uint256[]",
          "name": "randomWords",
          "type": "uint256[]"
        }
      ],
      "name": "rawFulfillRandomWords",
      "outputs": [],
      "stateMutability": "nonpayable",
      "type": "function"
    },
    {
      "inputs": [
        {
          "internalType": "address",
          "name": "",
          "type": "address"
        }
      ],
      "name": "refundableAmount",
      "outputs": [
        {
          "internalType": "uint256",
          "name": "",
          "type": "uint256"
        }
      ],
      "stateMutability": "view",
      "type": "function"
    },
    {
      "inputs": [
        {
          "internalType": "address",
          "name": "",
          "type": "address"
        }
      ],
      "name": "refundedNonWinningSlots",
      "outputs": [
        {
          "internalType": "uint256",
          "name": "",
          "type": "uint256"
        }
      ],
      "stateMutability": "view",
      "type": "function"
    },
    {
      "inputs": [],
      "name": "renounceOwnership",
      "outputs": [],
      "stateMutability": "nonpayable",
      "type": "function"
    },
    {
      "inputs": [],
      "name": "requestRandomness",
      "outputs": [],
      "stateMutability": "nonpayable",
      "type": "function"
    },
    {
      "inputs": [],
      "name": "revenueData",
      "outputs": [
        {
          "internalType": "uint256",
          "name": "protocolFeePercentage",
          "type": "uint256"
        },
        {
          "internalType": "uint256",
          "name": "creationFeePercentage",
          "type": "uint256"
        },
        {
          "internalType": "uint256",
          "name": "totalCreatorRevenue",
          "type": "uint256"
        },
        {
          "internalType": "uint256",
          "name": "totalRefundableAmount",
          "type": "uint256"
        },
        {
          "internalType": "uint256",
          "name": "totalGlobalFeeRevenue",
          "type": "uint256"
        },
        {
          "internalType": "uint256",
          "name": "pendingProtocolFee",
          "type": "uint256"
        }
      ],
      "stateMutability": "view",
      "type": "function"
    },
    {
      "inputs": [],
      "name": "revenueRecipient",
      "outputs": [
        {
          "internalType": "address",
          "name": "",
          "type": "address"
        }
      ],
      "stateMutability": "view",
      "type": "function"
    },
    {
      "inputs": [],
      "name": "s_vrf_lastRequestId",
      "outputs": [
        {
          "internalType": "uint256",
          "name": "",
          "type": "uint256"
        }
      ],
      "stateMutability": "view",
      "type": "function"
    },
    {
      "inputs": [],
      "name": "shuffleStartIndex",
      "outputs": [
        {
          "internalType": "uint256",
          "name": "",
          "type": "uint256"
        }
      ],
      "stateMutability": "view",
      "type": "function"
    },
    {
      "inputs": [],
      "name": "slotFee",
      "outputs": [
        {
          "internalType": "uint256",
          "name": "",
          "type": "uint256"
        }
      ],
      "stateMutability": "view",
      "type": "function"
    },
    {
      "inputs": [],
      "name": "slotLimit",
      "outputs": [
        {
          "internalType": "uint256",
          "name": "",
          "type": "uint256"
        }
      ],
      "stateMutability": "view",
      "type": "function"
    },
    {
      "inputs": [
        {
          "internalType": "address",
          "name": "",
          "type": "address"
        }
      ],
      "name": "slotsPurchased",
      "outputs": [
        {
          "internalType": "uint256",
          "name": "",
          "type": "uint256"
        }
      ],
      "stateMutability": "view",
      "type": "function"
    },
    {
      "inputs": [],
      "name": "socialEngagementRequired",
      "outputs": [
        {
          "internalType": "bool",
          "name": "",
          "type": "bool"
        }
      ],
      "stateMutability": "view",
      "type": "function"
    },
    {
      "inputs": [],
      "name": "standard",
      "outputs": [
        {
          "internalType": "enum PrizeTypes.Standard",
          "name": "",
          "type": "uint8"
        }
      ],
      "stateMutability": "view",
      "type": "function"
    },
    {
      "inputs": [],
      "name": "startTime",
      "outputs": [
        {
          "internalType": "uint128",
          "name": "",
          "type": "uint128"
        }
      ],
      "stateMutability": "view",
      "type": "function"
    },
    {
      "inputs": [],
      "name": "state",
      "outputs": [
        {
          "internalType": "enum IPool.PoolState",
          "name": "",
          "type": "uint8"
        }
      ],
      "stateMutability": "view",
      "type": "function"
    },
    {
      "inputs": [
        {
          "internalType": "bytes4",
          "name": "interfaceId",
          "type": "bytes4"
        }
      ],
      "name": "supportsInterface",
      "outputs": [
        {
          "internalType": "bool",
          "name": "",
          "type": "bool"
        }
      ],
      "stateMutability": "view",
      "type": "function"
    },
    {
      "inputs": [
        {
          "internalType": "uint256",
          "name": "",
          "type": "uint256"
        }
      ],
      "name": "tokenIdClaimedBy",
      "outputs": [
        {
          "internalType": "address",
          "name": "",
          "type": "address"
        }
      ],
      "stateMutability": "view",
      "type": "function"
    },
    {
      "inputs": [],
      "name": "totalCreatorRevenue",
      "outputs": [
        {
          "internalType": "uint256",
          "name": "",
          "type": "uint256"
        }
      ],
      "stateMutability": "view",
      "type": "function"
    },
    {
      "inputs": [],
      "name": "totalGlobalFeeRevenue",
      "outputs": [
        {
          "internalType": "uint256",
          "name": "",
          "type": "uint256"
        }
      ],
      "stateMutability": "view",
      "type": "function"
    },
    {
      "inputs": [],
      "name": "totalRefundableAmount",
      "outputs": [
        {
          "internalType": "uint256",
          "name": "",
          "type": "uint256"
        }
      ],
      "stateMutability": "view",
      "type": "function"
    },
    {
      "inputs": [
        {
          "internalType": "address",
          "name": "newOwner",
          "type": "address"
        }
      ],
      "name": "transferOwnership",
      "outputs": [],
      "stateMutability": "nonpayable",
      "type": "function"
    },
    {
      "inputs": [],
      "name": "usesCustomFee",
      "outputs": [
        {
          "internalType": "bool",
          "name": "",
          "type": "bool"
        }
      ],
      "stateMutability": "view",
      "type": "function"
    },
    {
      "inputs": [],
      "name": "wasDeletedForFullRefund",
      "outputs": [
        {
          "internalType": "bool",
          "name": "",
          "type": "bool"
        }
      ],
      "stateMutability": "view",
      "type": "function"
    },
    {
      "inputs": [
        {
          "internalType": "uint256",
          "name": "",
          "type": "uint256"
        }
      ],
      "name": "winners",
      "outputs": [
        {
          "internalType": "address",
          "name": "",
          "type": "address"
        }
      ],
      "stateMutability": "view",
      "type": "function"
    },
    {
      "inputs": [],
      "name": "winnersCount",
      "outputs": [
        {
          "internalType": "uint256",
          "name": "",
          "type": "uint256"
        }
      ],
      "stateMutability": "view",
      "type": "function"
    },
    {
      "inputs": [],
      "name": "winnersSelected",
      "outputs": [
        {
          "internalType": "uint256",
          "name": "",
          "type": "uint256"
        }
      ],
      "stateMutability": "view",
      "type": "function"
    },
    {
      "inputs": [
        {
          "internalType": "address",
          "name": "",
          "type": "address"
        }
      ],
      "name": "winsPerAddress",
      "outputs": [
        {
          "internalType": "uint256",
          "name": "",
          "type": "uint256"
        }
      ],
      "stateMutability": "view",
      "type": "function"
    },
    {
      "inputs": [],
      "name": "withdrawCreatorRevenue",
      "outputs": [],
      "stateMutability": "nonpayable",
      "type": "function"
    },
    {
      "inputs": [],
      "name": "withdrawProtocolRevenue",
      "outputs": [],
      "stateMutability": "nonpayable",
      "type": "function"
    }
  ],
  "bytecode": "0x60a034620000bb57601f6200609638819003918201601f19168301916001600160401b03831184841017620000c057808492602094604052833981010312620000bb57516001600160a01b03908181168103620000bb576000543360018060a01b0319821617600055604051923391167f8be0079c531659141344cd1fd0a4f28419497f9722a3daafe3b4186f6b6457e0600080a36001805560ff1960025416600255608052615fbf9081620000d7823960805181612ddf0152f35b600080fd5b634e487b7160e01b600052604160045260246000fdfe608080604052600436101561001357600080fd5b600090813560e01c90816301ffc9a714613bd45750806302d05d3f14613bab5780630631c5c214613b8d57806306f1305614613b6f57806306fdde0314613b3b57806308521974146134e05780630aa00e7014613b1d5780630b747d9114613aff5780630b78824b14613ae15780630e4fa15814613abb5780630fb5a6b414613a9a5780631249c58b14613676578063128f4ba414613658578063150b7a02146136015780631ae25dd0146135b25780631fe543e31461351957806325444fa4146134e05780632c1fecfe146134ba5780633197cbb61461349f578063321679fa14613481578063327bb1ad1461102957806335c1d3491461343d5780633b26314d146134145780633c75cd2414612b29578063400214341461270d57806341a35b34146126df57806342b72afa146126a757806344a909861461268957806348a3a4501461266357806349713811146126455780634e3ff460146126065780634f7f0fc0146125c75780635755248e146125a95780635a3b7e42146125835780635c975abb146125605780635f369a3214611c3657806366805de514611c1d578063677375c314611bff578063683d193614611bd9578063696917ba14611bb35780636e61a16014611b8d5780636e8b38db14611b6057806370740ac91461182a578063715018a6146117d05780637184062914611132578063740e21981461110657806378e97925146110df578063813e88b9146110c1578063837d11281461109b57806387213c35146110755780638778d82c1461104c578063888dc1981461102e578063898b36db146110295780638bc532851461100b5780638bfbbcbe14610ff25780638d7fe47814610fcc5780638da5cb5b14610fa55780638e50e50914610f8757806394f5c9dc14610f3f5780639ed5c1cc14610f16578063a0dca61714610eeb578063a177ec0914610ec0578063a2fb117514610e64578063a67d0e6c14610e46578063ae4b82c114610e1c578063aebc455014610def578063af78ed0a14610dd1578063b0b606c014610d9e578063b15825ae14610d78578063b5545a3c14610d49578063b5ad841214610b88578063bc197c8114610afc578063c19d93fb14610acd578063c2e784bd14610aaf578063c3fa0e3b14610a91578063c58fe16214610a73578063cabfaa1814610a55578063cc7d49ec14610a2f578063d0d11ae814610a11578063d17d1359146109d8578063d447e9bc14610981578063d91043f2146109ba578063dc8a55c214610981578063e511a11b14610948578063e620decf14610922578063e6f12cf714610904578063f23a6e61146108ad578063f2fde38b1461081f578063f8413b0714610668578063fb687df41461063b578063fd22b17c14610595578063fd75a1f1146105245763fee151ae1461042057600080fd5b3461052157806003193601126105215761045c61043b613e2f565b600a54600b54600c54600d5491604051958695610220808852870190613c29565b9360208601526040850152606084015260018060a01b038116608084015260ff808260a01c16151560a0850152808260a81c16151560c0850152808260b01c16151560e0850152808260b81c161515610100850152808260c01c161515610120850152808260c81c161515610140850152808260d01c161515610160850152808260d81c161515610180850152808260e01c1615156101a0850152808260e81c1615156101c08501528160f01c1615156101e084015260f81c15156102008301520390f35b80fd5b5034610521578060031936011261052157610100600e54600f546010549060018060a01b039182601154166012549160135493601454956040519761056c8960ff8316613cd6565b60081c16602088015260408701526060860152608085015260a084015260c083015260e0820152f35b503461052157806003193601126105215780546040516336b87bd760e11b815233600482015290602090829060249082906001600160a01b03165afa908115610630578291610602575b50156105f0576105ed61582e565b80f35b6040516327e1f1e560e01b8152600490fd5b610623915060203d8111610629575b61061b8183613dac565b8101906146d1565b386105df565b503d610611565b6040513d84823e3d90fd5b5034610521578060031936011261052157600e5460405160089190911c6001600160a01b03168152602090f35b5034610521578060031936011261052157610681613fd5565b421015610812575b61069c610694613fd5565b421015614080565b60075460ff8160a81c1660088110156107fe57600281149081156107f3575b50806107e6575b1561076b576015546001600160a01b0390811661079c57602754600a5411610798575b602b54159182610784575b163314801561076f575b1561076b5760ff600d5460e01c1661072657610719575b6105ed614376565b6107216159e7565b610711565b60405162461bcd60e51b815260206004820152601960248201527f5265717565737420616c726561647920696e20666c69676874000000000000006044820152606490fd5b5080fd5b503382526025602052604082205415156106fa565b61078c613fd5565b4210156106f0575b8380fd5b8280fd5b600a546032810290808204603214901517156107d2576064900480156107ca575b60275410156106e5578280fd5b5060016107bd565b634e487b7160e01b84526011600452602484fd5b50602b54600a54116106c2565b6003915014386106bb565b634e487b7160e01b83526021600452602483fd5b61081a6153c5565b610689565b503461052157602036600319011261052157610839613c69565b610841613edb565b6001600160a01b03811615610859576105ed90613f33565b60405162461bcd60e51b815260206004820152602660248201527f4f776e61626c653a206e6577206f776e657220697320746865207a65726f206160448201526564647265737360d01b6064820152608490fd5b50346105215760a0366003190112610521576108c7613c69565b506108d0613c7f565b506084356001600160401b03811161076b576108f0903690600401613ca9565b505060405163f23a6e6160e01b8152602090f35b50346105215780600319360112610521576020601c54604051908152f35b5034610521578060031936011261052157602060ff600d5460d81c166040519015158152f35b5034610521576020366003190112610521576020906040906001600160a01b03610970613c69565b168152602283522054604051908152f35b5034610521576020366003190112610521576020906040906001600160a01b036109a9613c69565b168152601f83522054604051908152f35b50346105215780600319360112610521576020601954604051908152f35b5034610521576020366003190112610521576020906040906001600160a01b03610a00613c69565b168152601e83522054604051908152f35b50346105215780600319360112610521576020601354604051908152f35b5034610521578060031936011261052157602060ff600d5460d01c166040519015158152f35b50346105215780600319360112610521576020602754604051908152f35b50346105215780600319360112610521576020600b54604051908152f35b50346105215780600319360112610521576020601d54604051908152f35b50346105215780600319360112610521576020600454604051908152f35b503461052157806003193601126105215760ff60075460a81c166040519060088110156107fe57602092508152f35b50346105215760a036600319011261052157610b16613c69565b50610b1f613c7f565b506001600160401b0360443581811161079857610b40903690600401613cf9565b505060643581811161079857610b5a903690600401613cf9565b505060843590811161076b57610b74903690600401613ca9565b505060405163bc197c8160e01b8152602090f35b5034610521578060031936011261052157610ba161402a565b600d546001600160a01b039081811690338290036107945760ff60075460a81c166008811015610d355760058114610d315760078114610d31578460ff8360b01c16600014610d0f5750600603610cd45783915b601a549182156107945783928392610c35610c2b612710610c2387966019549060f81c610ccc575b8661400a565b048094614369565b9284601a55615a73565b5af1610c3f6141b7565b501561076b576020602491610c52615c11565b83541660405192838092630425172560e31b82523060048301525afa908115610630578291610c96575b50610c89575b6001805580f35b610c9161598f565b610c82565b90506020813d8211610cc4575b81610cb060209383613dac565b81010312610cbf575138610c7c565b600080fd5b3d9150610ca3565b60011c610c1d565b60405162461bcd60e51b815260206004820152601360248201527210d85b9b9bdd081dda5d1a191c985dc81e595d606a1b6044820152606490fd5b929060048114908115610d26575b50610bf5578280fd5b600691501438610d1d565b8480fd5b634e487b7160e01b85526021600452602485fd5b5034610521578060031936011261052157610d6261402a565b610d6b33614a8a565b1561052157610c82615655565b5034610521578060031936011261052157602060ff600d5460b01c166040519015158152f35b503461052157602036600319011261052157602090600435815260238252604060018060a01b0391205416604051908152f35b50346105215780600319360112610521576020601a54604051908152f35b503461052157806003193601126105215760025460405160089190911c6001600160a01b03168152602090f35b50346105215760203660031901126105215760406020916004358152602683522054604051908152f35b50346105215780600319360112610521576020600554604051908152f35b50346105215760203660031901126105215760043560285481101561076b5760286000527fe16da923a2d88192e5070f37b4571d58682c0d66212ec634d495f33de3f77ab501546040516001600160a01b039091168152602090f35b5034610521578060031936011261052157602060ff60155460a01c16610ee96040518092613cd6565bf35b50346105215780600319360112610521576007546001600160a01b03163303610521576105ed615c11565b50346105215780600319360112610521576011546040516001600160a01b039091168152602090f35b503461052157806003193601126105215760c0601854601954601a54601b54601c5491601d5493604051958652602086015260408501526060840152608083015260a0820152f35b50346105215780600319360112610521576020601854604051908152f35b5034610521578060031936011261052157546040516001600160a01b039091168152602090f35b5034610521578060031936011261052157602060ff600d5460e01c166040519015158152f35b50346105215780600319360112610521576105ed6151b0565b50346105215780600319360112610521576020602b54604051908152f35b613d29565b50346105215780600319360112610521576020601454604051908152f35b50346105215780600319360112610521576015546040516001600160a01b039091168152602090f35b5034610521578060031936011261052157602060ff600d5460f01c166040519015158152f35b5034610521578060031936011261052157602060ff600d5460a81c166040519015158152f35b50346105215780600319360112610521576020601054604051908152f35b503461052157806003193601126105215760206001600160801b0360065416604051908152f35b503461052157602036600319011261052157602061112a611125613c69565b6147dd565b604051908152f35b5034610521576040366003190112610521576001600160401b039060043582811161076b57611165903690600401613cf9565b91909260243590811161076b57611180903690600401613cf9565b939061118a61402a565b60075460ff8160a81c166008811015610d3557600403610794578585036107945784156107945760328511610794576001600160a01b039081163303611693575b600e5493818560081c169485156116815760ff600d5460c81c166115f65760ff1681805b88821061161c5750506004811015611608578061144957508096815b8781106112c6575050505050505061122e60209261122761470d565b8092614369565b80611241575b5060018055604051908152f35b6112bd7fbcd905a8eb4cc473497e2cd24cf41334ea7fad80c354380f8fff04a025b1e5f891604051907402130ba31b41031b7b6b83632ba32b2103bb4ba341605d1b86830152603582015268206661696c7572657360b81b6055820152603e81526112ab81613d91565b60405191829186835286830190613c29565b0390a138611234565b6112d96112d4828a896146e9565b6146f9565b6112e48284886146e9565b35883b15610d31576040516340c10f1960e01b81526001600160a01b038316600482015260248101829052858082604481838f5af19182611431575b50506113f457509060019182611334614128565b6308c379a0146113ab575b61134c575b505b0161120b565b6113546141b7565b50600080516020615f2a83398151915286604051921691806113a2816060906020815260176020820152762637bb96b632bb32b61036b4b73a34b7339032b93937b960491b60408201520190565b0390a238611344565b6113b3614146565b806113bf575b5061133f565b90508590600080516020615f2a833981519152604051806113eb6020948583528c881695830190613c29565b0390a2386113b9565b996001929a8661142b93168652601f6020526040862061141582825461401d565b9055611424601491825461401d565b90556146c2565b98611346565b61143a90613d7e565b611445578538611320565b8580fd5b6001959086036115f6578197825b88811061147457505050505050505061122e60209261122761470d565b6114826112d4828b8a6146e9565b61148d8284896146e9565b3561149a6010548261400a565b600f54863b156115f257604051630ab714fb60e11b81526001600160a01b038516600482015260248101919091526044810191909152868082606481838b5af191826115da575b50506115b45750908891826114f4614128565b6308c379a01461156b575b61150c575b505b01611457565b6115146141b7565b50600080516020615f2a8339815191528760405192169180611562816060906020815260176020820152762637bb96b632bb32b61036b4b73a34b7339032b93937b960491b60408201520190565b0390a238611504565b611573614146565b8061157f575b506114ff565b90508690600080516020615f2a833981519152604051806115ab6020948583528d881695830190613c29565b0390a238611579565b9a89929b876115d493168752601f6020526040872061141582825461401d565b99611506565b6115e390613d7e565b6115ee5786386114e1565b8680fd5b8780fd5b60405163fd34e50560e01b8152600490fd5b634e487b7160e01b82526021600452602482fd5b8461162b6112d4848c8b6146e9565b1680855261164c6020601e8152601f60408820549152604087205490614369565b9015610d31578015610d3157611663838c896146e9565b351161079457600190611677838c896146e9565b35019101906111ef565b60405163424ca23960e01b8152600490fd5b83600e5460ff811660048110156117bc57839291908061173e575060209150600460405180948193638da5cb5b60e01b835260081c165afa9081156117335790829186916116f8575b505b163303156111cb57604051635c427cd960e01b8152600490fd5b9150506020813d821161172b575b8161171360209383613dac565b81010312610d31576117258291613f7a565b386116dc565b3d9150611706565b6040513d87823e3d90fd5b60011461174c575b506116de565b60209150600460405180948193638da5cb5b60e01b835260081c165afa908115611733579082918691611781575b5038611746565b9150506020813d82116117b4575b8161179c60209383613dac565b81010312610d31576117ae8291613f7a565b3861177a565b3d915061178f565b634e487b7160e01b87526021600452602487fd5b50346105215780600319360112610521576117e9613edb565b600080546001600160a01b0319811682556001600160a01b03167f8be0079c531659141344cd1fd0a4f28419497f9722a3daafe3b4186f6b6457e08280a380f35b503461052157806003193601126105215761184361402a565b60ff60075460a81c166008811015611608576004036105215760ff600d5460c81c1615611b4e576015546001600160a01b039081161580159190611885615cb6565b50826011541692600e549060ff82169160081c1690600a54948680611b43575b15611b3c57602b54905b80611a98575b506004821015611a8457908388939260038314611a07575b505015611982575b50505033845260256020526118ee604085205433615b30565b61194b575b50604051636e8b38db60e01b815233600482015260208160248186305af1611920575b50610c8290615977565b602090813d8111611944575b6119368183613dac565b81010312610cbf5738611916565b503d61192c565b60275481811161195c575b506118f3565b600a9161196891614369565b10611975575b3880611956565b61197d615655565b61196e565b600f5490803b15610798576040516323b872dd60e01b8152306004820152336024820152604481019290925282908290606490829084905af18015610630576119f3575b50506119d181615ed1565b604051908152600080516020615f4a83398151915260203392a23884816118d5565b6119fc90613d7e565b610d315784386119c6565b611a16919294506013546140dd565b02918215611a72578780808086335af1611a2e6141b7565b5015611a60578792611a3f85615ed1565b604051908152600080516020615f4a83398151915260203392a283386118cd565b60405163880a149160e01b8152600490fd5b604051630193f71f60e51b8152600490fd5b634e487b7160e01b88526021600452602488fd5b611aa68286601254026140dd565b908115611a725760405163a9059cbb60e01b81523360048201526024810183905290602090829060449082908e905af1908115611b31578a91611b13575b5015611a6057611af385615ed1565b604051908152600080516020615f4a83398151915260203392a2386118b5565b611b2b915060203d81116106295761061b8183613dac565b38611ae4565b6040513d8c823e3d90fd5b85906118af565b5085602b54106118a5565b604051631558dc5f60e31b8152600490fd5b503461052157602036600319011261052157611b7a613c69565b9030330361052157602061112a83614a8a565b5034610521578060031936011261052157602060ff600d5460c01c166040519015158152f35b5034610521578060031936011261052157602060ff600d5460c81c166040519015158152f35b5034610521578060031936011261052157602060ff60075460a01c166040519015158152f35b50346105215780600319360112610521576020601b54604051908152f35b50346105215780600319360112610521576105ed614fb2565b506080366003190112610521576001600160401b0360443581811161079857611c63903690600401613ca9565b9160643590811161079457611c7c903690600401613cf9565b929091611c8761402a565b60075460ff90818160a81c166008811015611a84571561250c575b503332036124fb57600754818160a81c16956008871015611a845760018097036124e95733156124d7576004359586156124c55760055480156124b35787611ce99161400a565b34036124a1576001600160801b0360065416421061248f57611d09613fd5565b42101561247d57602794611d1e88875461401d565b600c541061246b57338a5260209660258852611d3e8960408d205461401d565b600b541061245957858560a01c161580612426575b612414578a54604051638da5cb5b60e01b81526001600160a01b039691871691908d908b81600481875afa908115610630578992916123dc575b501633146123ca57861633146123b957888c8880600d5460f01c1691826123a2575b5050612282575b505050506015918254858582169182611ebd575b505050505050503386526025835260408620848154019055855b848110611e625750907ffd1903a7f9f31de6cf38a88eda98ae029aeba3b2ec48a599d7c0d900f0f335cb9291600d5460a81c1615600014611e555734601c5401601c555b54600c5414611e40575b6040519283523392a2805580f35b611e486159e7565b611e50614376565b611e32565b34601a5401601a55611e28565b825490600160401b821015611ea757611ea1611e8383898095018755613d47565b81546001600160a01b0360039290921b91821b19163390911b179055565b01611de4565b634e487b7160e01b600052604160045260246000fd5b60a01c16600481101561226e5788908061216a57505050801561216657889060168054838114600014611fc357505010611f7557858360249235935416604051928380926331a9108f60e11b82528660048301525afa908115611fb8578991611f83575b5082339116036115f25787526023845260408720908154908116801580918115611f79575b5015611f7557611f60575b50505b38808080808581611dca565b6001600160a01b031916331790553880611f51565b8880fd5b9050331438611f46565b90508581813d8311611fb1575b611f9a8183613dac565b81010312611f7557611fab90613f7a565b38611f21565b503d611f90565b6040513d8b823e3d90fd5b9091939281116000146121625780841061216257908a95949392918c5b8181106120f45750508b955b611ffc575b505050505050611f54565b80548610156120ef576120108684846146e9565b358c60248b88885416604051928380926331a9108f60e11b82528760048301525afa9182156120e357916120aa575b5086339116036120a6578c526023895260408c208054968688169182158093811561209c575b5015612098578d9861207d93612083575b50506146c2565b95611fec565b6001600160a01b031916331790553880612076565b8e80fd5b9050331438612065565b8c80fd5b90508a81813d83116120dc575b6120c18183613dac565b810103126120d8576120d290613f7a565b3861203f565b8d80fd5b503d6120b7565b604051903d90823e3d90fd5b611ff1565b90919293949596810180821161214e575b8281106121235750612116906146c2565b908b969594939291611fe0565b61212e8287876146e9565b3561213a8288886146e9565b35146120d857612149906146c2565b612105565b634e487b7160e01b8e52601160045260248efd5b8b80fd5b8980fd5b935093509350508781146000146121f75750601754604051627eeac760e11b8152336004820152602481019190915291829060449082905afa9081156121ec5787916121bf575b506016541115611f54578580fd5b90508381813d83116121e5575b6121d68183613dac565b81010312610cbf5751386121b1565b503d6121cc565b6040513d89823e3d90fd5b600214612206575b5050611f54565b6040516370a0823160e01b815233600482015291829060249082905afa9081156121ec578791612241575b50601654116114455738836121ff565b90508381813d8311612267575b6122588183613dac565b81010312610cbf575138612231565b503d61224e565b634e487b7160e01b8c52602160045260248cfd5b604051636b90bda960e01b815291829060049082905afa80156123975786918d9161235f575b5016801561234d578b92813b1561079457839183918360a46040518097819682956324fa7e3f60e21b8452336004850152306024850152602435604485015260806064850152816084850152848401378181018301849052601f01601f191681010301925af1801561063057612339575b50503389526024865260408920805460ff19168917905538808088611db6565b61234290613d7e565b611f75578838612319565b6040516343361aaf60e01b8152600490fd5b8092508a8092503d8311612390575b6123788183613dac565b810103126121625761238a8691613f7a565b386122a8565b503d61236e565b6040513d8e823e3d90fd5b60409192503381526024845220541615888e611daf565b60405162ca6a8360e51b8152600490fd5b604051635f2a002d60e11b8152600490fd5b8092508c8092503d831161240d575b6123f58183613dac565b810103126120d8576124078891613f7a565b38611d8d565b503d6123eb565b604051631274fa9d60e31b8152600490fd5b5085600d5460a81c16801561244f575b80611d535750338b526025885260408b20541515611d53565b5089891415612436565b604051637145fa7b60e01b8152600490fd5b6040516302edeeb760e31b8152600490fd5b60405163fd2a413d60e01b8152600490fd5b604051633d8c21b360e01b8152600490fd5b60405163569e8c1160e01b8152600490fd5b60405163d2100d7360e01b8152600490fd5b60405163f4f5b73360e01b8152600490fd5b60405163d92e233d60e01b8152600490fd5b6040516338c0a90160e11b8152600490fd5b60405162c44f5760e51b8152600490fd5b6001600160801b03600654164210611ca25760ff60a81b1916600160a81b176007556040514281527f0fc99ba436efa6fb2f50b2287984eebe37b2314a2bd81ea576ef9d4be0bd6a6690602090a138611ca2565b5034610521578060031936011261052157602060ff600254166040519015158152f35b5034610521578060031936011261052157602060ff600e5416610ee96040518092613cd6565b50346105215780600319360112610521576020601654604051908152f35b50346105215760203660031901126105215760209060ff906040906001600160a01b036125f2613c69565b168152602184522054166040519015158152f35b50346105215760203660031901126105215760209060ff906040906001600160a01b03612631613c69565b168152602484522054166040519015158152f35b50346105215780600319360112610521576020600a54604051908152f35b5034610521578060031936011261052157602060ff600d5460e81c166040519015158152f35b50346105215780600319360112610521576020602c54604051908152f35b5034610521576020366003190112610521576020906040906001600160a01b036126cf613c69565b1681528280522054604051908152f35b503461052157806003193601126105215733815260256020526040812054801561076b576105ed9033615b30565b50346105215760208060031936011261076b576004359030330361079857602d54835260268152816040842055612745602d546146c2565b602d55602c5491602a54906027549061275d856140fd565b9061276b6040519283613dac565b858252612777866140fd565b8286019490601f1901368637875b878110612a2857505050855b85811061299457506127c2600d549560ff60e01b198716600d556127b781602a5461401d565b602a55602b5461401d565b9283602b55604051918583019086845251809152604083019190885b87828210612977575050505090807f32a1b5731a757f192a06ca973715ca4dbc42c2d15323cabaa74e0a2d5dc088e4920390a16015546001600160a01b0316158015919061296c57808310801590612960575b15612868576007805460ff60a81b1916600160aa1b179081905560a01c60ff1680612953575b80612946575b80612938575b612870575b505050505080f35b61289292612889928061292d575b156129235790614369565b6005549061400a565b6127106128a16018548361400a565b04906128ad8282614369565b92601a54908282106128e85750906128c491614369565b601a55601d55601b5561ffff60d81b1916600160d81b17600d553880808080612868565b6064906040519062461bcd60e51b825260048201526014602482015273496e73756666696369656e7420726576656e756560601b6044820152fd5b50600a5490614369565b50600a54811061287e565b5060ff8560d81c1615612863565b5060ff8560b81c1661285d565b5060ff8560a81c16612857565b50600a54831015612831565b600a54831015612831565b83516001600160a01b0316855293840193909201916001016127de565b6001600160a01b036129a68284614114565b5116906028918254600160401b811015611ea75760018101808555811015612a1257612a0d936000527fe16da923a2d88192e5070f37b4571d58682c0d66212ec634d495f33de3f77ab501906bffffffffffffffffffffffff60a01b8254161790556146c2565b612791565b634e487b7160e01b600052603260045260246000fd5b612a3b81612a368488614369565b614369565b6040518881019085825283604082015260408152612a5881613d91565b51902090612a66838561401d565b918115612b1557612a84612b109493612acc93612aeb93069061401d565b612a8d81613d47565b9054600391821b1c6001600160a01b03908116949185612aad888d614114565b52612ac0612abb888b61401d565b613d47565b9054911b1c1691613d47565b90919082549060031b9160018060a01b03809116831b921b1916179055565b612afc81612acc612abb858861401d565b8a52601e885260408a2061142481546146c2565b612785565b634e487b7160e01b8c52601260045260248cfd5b506003196102603682011261076b576001600160401b036004351161076b576101a080916004353603011261076b576040519081018181106001600160401b03821117611ea757604052612b81600435600401613c95565b8152612b91602460043501613c95565b6020820152604460043501356001600160401b0381116107985760043501366023820112156107985782600482013591612bca83613dcd565b92612bd86040519485613dac565b8084523660248284010111610798578060246020930183860137830101526040820152600435606481013560608301526084810135608083015260a481013560a0830152612c289060c401613de8565b60c0820152612c3b60e460043501613de8565b60e0820152612c4f61010460043501613de8565b610100820152612c6461012460043501613de8565b610120820152600435610144810135610140830152610164810135610160830152610184013561018082015261010036602319011261076b5760405190816101008101106001600160401b0361010084011117611ea7576101008201604052600460243510156107985760243582526044356001600160a01b0381169003610cbf5760443560208301526064356040830152608435606083015260a4356001600160a01b0381169003610cbf5760a435608083015260c43560a083015260e43560c08301526101043515156101043503610cbf576101043560e0830152608036610123190112610798576040518060808101106001600160401b03608083011117611ea75760808101604052610124356001600160a01b0381168103610cbf5781526004610144351015610794576101443560208201526101643560408201526101843560608201526101a43515156101a43503610cbf576101c4356001600160a01b0381169003610cbf57610244358015158103610cbf577f00000000000000000000000000000000000000000000000000000000000000006001600160a01b03163303610d315784546001600160a01b0316610d315782516001600160a01b0316612e3081613f33565b600780546001600160a01b031981166101c4356001600160a01b03161790915560405163ec644ddd60e01b8152909160a082600481845afa9182156133ce5788926133d9575b50602060249160405192838092630425172560e31b82523060048301525afa9081156133ce57889161339c575b5060035560028054610100600160a81b03191660089290921b610100600160a81b0316919091179055610224356005556006805487166101e4356001600160801b0316176102043560801b6fffffffffffffffffffffffffffffffff191617905590151560a01b60ff60a01b166001600160b01b03199091166101c4356001600160a01b0316171760075560408201518051906001600160401b038211613388578190612f51600954613df5565b601f8111613316575b50602090601f83116001146132a0578792613295575b50508160011b916000199060031b1c1916176009555b60a0820151600a556080820151600b556060820151600c5560208201516001600160a01b0316801561328a57915b600d5460ff60a01b60c0830151151560a01b1660ff60a81b60e0840151151560a81b169160ff60b01b610100850151151560b01b169360ff60f81b610120820151151560f81b16958660018060a01b03891666ffffffffffffff60b81b85161785178617871760ff60f01b6101a435151560f01b161717600d558851600481101561327657600e805460208c0151610100600160a81b0360089190911b1660ff939093166001600160a81b0319909116179190911790556040890151600f5560608901516010556080890151601180546001600160a01b039283166001600160a01b031990911617905560a08a015160125560c08a01516013558151168061321b575b5050610140810151601855610160810151601955610180015160c08801519097901561316f5750505050505050610224350361052157600d805460ff60c81b1916600160c81b1790555b60ff60075460a01c1680613160575b1561313a57600a54600d805460ff60b81b1916600190921160b81b60ff60b81b1691909117905580f35b600d5460ff8160a81c161561314d575080f35b60ff60b81b1916600160b81b17600d5580f35b5060ff600d5460a81c16613110565b60808101516001600160a01b0316156131aa5750505050505050610224350361052157600d805460ff60c81b1916600160c81b179055613101565b909192939495965060018060a01b036020820151166131d0575b50505050505050613101565b60e060ff60c81b910151151560c81b169560018060a01b03169066ffffffff00ffff60b81b161717171760ff60f01b6101a435151560f01b16171717600d55388080808080806131c4565b6015549060208301516004811015613262576001600160a81b03199092161760a09190911b60ff60a01b1617601555604081015160165560600151601755610180386130b7565b634e487b7160e01b8d52602160045260248dfd5b634e487b7160e01b8b52602160045260248bfd5b506101c43591612fb4565b015190503880612f70565b925060098752600080516020615f6a8339815191529087935b601f19841685106132fb576001945083601f198116106132e2575b505050811b01600955612f86565b015160001960f88460031b161c191690553880806132d4565b818101518355602094850194600190930192909101906132b9565b90915060098752601f830160051c600080516020615f6a8339815191520160208410613373575b908392915b601f820160051c600080516020615f6a8339815191520181106133655750612f5a565b888155849350600101613342565b50600080516020615f6a83398151915261333d565b634e487b7160e01b86526041600452602486fd5b90506020813d6020116133c6575b816133b760209383613dac565b81010312610cbf575138612ea3565b3d91506133aa565b6040513d8a823e3d90fd5b602491925061340160209160a03d60a01161340d575b6133f98183613dac565b810190613f8e565b50505050929150612e76565b503d6133ef565b5034610521578060031936011261052157600d546040516001600160a01b039091168152602090f35b5034610521576020366003190112610521576004359060275482101561052157602061346883613d47565b905460405160039290921b1c6001600160a01b03168152f35b50346105215780600319360112610521576020601254604051908152f35b5034610521578060031936011261052157602061112a613fd5565b5034610521578060031936011261052157602060ff600d5460b81c166040519015158152f35b5034610521576020366003190112610521576020906040906001600160a01b03613508613c69565b168152602583522054604051908152f35b5034610521576040366003190112610521576024356001600160401b03811161076b5761354a903690600401613cf9565b60025460081c6001600160a01b0316330361079857613568816140fd565b916135766040519384613dac565b8183526020918284019060051b82019136831161144557905b8282106135a357856105ed866004356141e7565b8135815290830190830161358f565b50346105215780600319360112610521576015546016546017546040516001600160a01b03841681526080939092906135f590602085019060a01c60ff16613cd6565b60408301526060820152f35b50346105215760803660031901126105215761361b613c69565b50613624613c7f565b506064356001600160401b03811161076b57613644903690600401613ca9565b5050604051630a85bd0160e11b8152602090f35b50346105215780600319360112610521576020600354604051908152f35b503461052157806003193601126105215761368f61402a565b600760ff815460a81c1660088110156107fe5760040361076b576136b1615cb6565b50601554600e546001600160a01b039182161593929091600883901c16801561168157600d9260ff845460c81c16611b4e5760ff1660048110156117bc57806139295750803b15611445576040516340c10f1960e01b81523360048201526024810183905290869081908390604490829084905af19182613915575b50506138815750918091610c82936001613745614128565b6308c379a014613818575b61379f575b50505b613763575b15615977565b602754600a5490818111613779575b505061375d565b600a9161378591614369565b10613792575b3880613772565b61379a615655565b61378b565b6137a76141b7565b50604051600080516020615f2a8339815191523391806137ec8160609060208152601060208201526f131bddcb5b195d995b081c995d995c9d60821b60408201520190565b0390a2805460ff60d01b1916600160d01b179055805460ff60a81b1916600560a81b1790553880613755565b613820614146565b8061382c575b50613750565b90508690600080516020615f2a833981519152604051602081528061385633946020830190613c29565b0390a2815460ff60d01b1916600160d01b178255825460ff60a81b1916600560a81b17835538613826565b80925061388e9150615ed1565b604051908152602090600080516020615f4a833981519152823392a2338352602581526138bf604084205433615b30565b604051636e8b38db60e01b8152336004820152818160248187305af16138ec575b505080610c8291613758565b813d831161390e575b6138ff8183613dac565b81010312610cbf5738806138e0565b503d6138f5565b61391e90613d7e565b61144557853861372d565b600103611b4e5785600f5491836010540290803b1561079857604051630ab714fb60e11b8152336004820152602481019490945260448401919091528290606490829084905af19081613a87575b506138815750918091610c8293600161398e614128565b6308c379a014613a1e575b6139a5575b5050613758565b6139ad6141b7565b50604051600080516020615f2a8339815191523391806139f28160609060208152601060208201526f131bddcb5b195d995b081c995d995c9d60821b60408201520190565b0390a2805460ff60d01b1916600160d01b179055805460ff60a81b1916600560a81b179055388061399e565b613a26614146565b80613a32575b50613999565b90508690600080516020615f2a8339815191526040516020815280613a5c33946020830190613c29565b0390a2815460ff60d01b1916600160d01b178255825460ff60a81b1916600560a81b17835538613a2c565b613a9390969196613d7e565b9438613977565b5034610521578060031936011261052157602060065460801c604051908152f35b5034610521578060031936011261052157602060ff600d5460a01c166040519015158152f35b50346105215780600319360112610521576020600f54604051908152f35b50346105215780600319360112610521576020602954604051908152f35b50346105215780600319360112610521576020601754604051908152f35b5034610521578060031936011261052157613b6b613b57613e2f565b604051918291602083526020830190613c29565b0390f35b50346105215780600319360112610521576020602d54604051908152f35b50346105215780600319360112610521576020602a54604051908152f35b50346105215780600319360112610521576007546040516001600160a01b039091168152602090f35b90503461076b57602036600319011261076b5760043563ffffffff60e01b81168091036107985760209250630a85bd0160e11b8114908115613c18575b5015158152f35b630271189760e51b14905038613c11565b919082519283825260005b848110613c55575050826000602080949584010152601f8019910116010190565b602081830181015184830182015201613c34565b600435906001600160a01b0382168203610cbf57565b602435906001600160a01b0382168203610cbf57565b35906001600160a01b0382168203610cbf57565b9181601f84011215610cbf578235916001600160401b038311610cbf5760208381860195010111610cbf57565b906004821015613ce35752565b634e487b7160e01b600052602160045260246000fd5b9181601f84011215610cbf578235916001600160401b038311610cbf576020808501948460051b010111610cbf57565b34610cbf576000366003190112610cbf576020600c54604051908152f35b602754811015612a125760276000527f98a476f1687bc3d60a2da2adbcba2c46958e61fa2fb4042cd7bc5816a710195b0190600090565b6001600160401b038111611ea757604052565b606081019081106001600160401b03821117611ea757604052565b90601f801991011681019081106001600160401b03821117611ea757604052565b6001600160401b038111611ea757601f01601f191660200190565b35908115158203610cbf57565b90600182811c92168015613e25575b6020831014613e0f57565b634e487b7160e01b600052602260045260246000fd5b91607f1691613e04565b6040519060008260095491613e4383613df5565b80835292600190818116908115613eb95750600114613e6c575b50613e6a92500383613dac565b565b600960009081529150600080516020615f6a8339815191525b848310613e9e5750613e6a935050810160200138613e5d565b81935090816020925483858a01015201910190918592613e85565b905060209250613e6a94915060ff191682840152151560051b82010138613e5d565b6000546001600160a01b03163303613eef57565b606460405162461bcd60e51b815260206004820152602060248201527f4f776e61626c653a2063616c6c6572206973206e6f7420746865206f776e65726044820152fd5b600080546001600160a01b039283166001600160a01b03198216811783559216907f8be0079c531659141344cd1fd0a4f28419497f9722a3daafe3b4186f6b6457e09080a3565b51906001600160a01b0382168203610cbf57565b908160a0910312610cbf57613fa281613f7a565b91602082015191604081015191606082015163ffffffff81168103610cbf5760809092015161ffff81168103610cbf5790565b6006546001600160801b0390818160801c911601818111613ff4571690565b634e487b7160e01b600052601160045260246000fd5b81810292918115918404141715613ff457565b91908201809211613ff457565b60026001541461403b576002600155565b60405162461bcd60e51b815260206004820152601f60248201527f5265656e7472616e637947756172643a207265656e7472616e742063616c6c006044820152606490fd5b1561408757565b60405162461bcd60e51b815260206004820152602860248201527f54696d657374616d702064656c61792069737375652c2074727920616761696e6044820152672073686f72746c7960c01b6064820152608490fd5b81156140e7570490565b634e487b7160e01b600052601260045260246000fd5b6001600160401b038111611ea75760051b60200190565b8051821015612a125760209160051b010190565b60009060033d1161413557565b905060046000803e60005160e01c90565b600060443d106141a357604051600319913d83016004833e81516001600160401b03918282113d6024840111176141a6578184019485519384116141ae573d850101602084870101116141a657506141a392910160200190613dac565b90565b949350505050565b50949350505050565b3d156141e2573d906141c882613dcd565b916141d66040519384613dac565b82523d6000602084013e565b606090565b6004546000910361435257600d805460ff60e81b1916600160e81b17815582519092901561433e576020015190303b156105215760405191631000850d60e21b83526004830152808260248183305af1918261432f575b509061432b5760019061424f614128565b6308c379a0146142b1575b506142625750565b7fbccec8509a79ecd26780c2699a3ca2503c3a3455b361b5fcda5760593edb03c961428e613b576141b7565b0390a16007805460ff60a81b1916600160a91b179055805460ff60e01b19169055565b6142b9614146565b90816142c6575b5061425a565b7fbcd905a8eb4cc473497e2cd24cf41334ea7fad80c354380f8fff04a025b1e5f89192506143039092604051918291602083526020830190613c29565b0390a16007805460ff60a81b1916600160a91b179055815460ff60e01b1916825538806142c0565b5050565b61433890613d7e565b3861423e565b634e487b7160e01b82526032600452602482fd5b50506007805460ff60a81b1916600160a91b179055565b91908203918211613ff457565b600080546007546001600160a01b03918216919060a81c60ff1660088110156146ae576001146146a1575b6007549060ff8260a81c166008811015610d355760028114908115614696575b50156107945760275492602a54936143d98582614369565b806143e9600a54602b5490614369565b601e8111156146915750601e5b80602c5511614688575b50602c5493841561467057506004929160a0917f4ff4e84912750d469e8d0e190997710c06112023943415787c2f744eb09c0da46060602d5492604098895191825260209a8b83015289820152a2845163ec644ddd60e01b815293849182905afa801561466657859186908794889361463d575b5060025460081c1691855190878201926001600160401b03938381108582111761462957885289835287519263125fa26760e31b8a8501525115156024840152602483526144c183613d91565b87519360c08501908111858210176146295789969594938b938893614561938c5286528386019788528a8087019a61ffff8093168c526060880163ffffffff9384809316825260808a01936001855260a08b01968752519d8e9c8d9b8c9a634d8e1c2f60e11b8c5260048c01525160248b01525160448a01525116606488015251166084860152511660a48401525160c060c484015260e4830190613c29565b03925af193841561461e5780946145cc575b50506004839055600d805460ff60e01b1916600160e01b1790556007805460ff60a81b1916600360a81b1790555191825233917fcd4a2eb17c38ad25b7c647235e9d74821d3613b50c9ec8907609b5728bc674b09190a2565b909193508282813d8311614617575b6145e58183613dac565b81010312610521575051917fcd4a2eb17c38ad25b7c647235e9d74821d3613b50c9ec8907609b5728bc674b038614573565b503d6145db565b8251903d90823e3d90fd5b634e487b7160e01b8b52604160045260248bfd5b925093505061465a915060a03d811161340d576133f98183613dac565b90949293509138614474565b83513d87823e3d90fd5b60ff60a81b1916600160aa1b17600755505050505050565b602c5538614400565b6143f6565b6003915014386143c1565b6146a96153c5565b6143a1565b634e487b7160e01b84526021600452602484fd5b6000198114613ff45760010190565b90816020910312610cbf57518015158103610cbf5790565b9190811015612a125760051b0190565b356001600160a01b0381168103610cbf5790565b601554600a546001600160a01b039182161515806147d2575b156147cd5750602b545b6014541461473b5750565b6007805460ff60a81b1916600360a91b179055600054604051630425172560e31b81523060048201529160209183916024918391165afa9081156147c157600091614790575b5061478857565b613e6a61598f565b906020823d82116147b9575b816147a960209383613dac565b8101031261052157505138614781565b3d915061479c565b6040513d6000823e3d90fd5b614730565b5080602b5410614726565b600d5460ff90818160d01c16614a165760075490828260a81c16916008831015613ce357600783146149b25760a01c8316806149a6575b8061499a575b8061498f575b6148ee5760a81c82161590816148cf575b5061483d575050600090565b60009160018060a01b0316825260256020526040822054151590816148bb575b506148655790565b602560205261487b60408220546005549061400a565b611f40908181029181830414901517156148a757612710900480601c5410156148a2575090565b905090565b634e487b7160e01b82526011600452602482fd5b90506021602052604082205416153861485d565b60048114915081156148e3575b5038614831565b6006915014386148dc565b5050509060009160018060a01b0316825260256020526040822054601e602052604083205460226020526040842054918181118061497d575b61493057505050565b61493e9291612a3691614369565b600554601854906127109182039482861161496957506141a393946149629161400a565b049061400a565b634e487b7160e01b81526011600452602490fd5b506149888282614369565b8310614927565b50601b541515614820565b50828160b81c1661481a565b50828160a81c16614814565b506001600160a01b039093166000908152602560205260409020549050806149dd575b505050600090565b6005546149e99161400a565b9160a81c16614a065780601c5410156141a357505b3880806149d5565b80601a5410156141a357506149fe565b908060075460a01c169182614a7d575b505080614a5c575b614a385750600090565b6001600160a01b03166000908152602560205260409020546005546141a39161400a565b506001600160a01b0381166000908152602560205260409020541515614a2e565b60a81c1690503880614a26565b60075460ff90818160a81c169060088210159081613ce3576004928381148015614fa4575b838115614f94575b8115614f6f575b5015614f6457600d5492858460d01c16600014614baa57505050506001600160a01b0383166000818152602160205260408120549193909250908116614b8c5760256020526040822054908115614ba2578060075460a01c169081614b93575b5015614b8c57818080614b3581946005549061400a565b8097878352602160205260408320600160ff198254161790555af1614b586141b7565b501561052157507f358fe4192934d3bf28ae181feda1f4bd08ca67f5e2fad55582cce5eb67304ae96020604051848152a290565b5091505090565b9050600d5460a81c1638614b1e565b505091505090565b95939495614f4f57859190600703614c6f575050506001600160a01b03811660008181526021602052604081205491935091908416614b8c57602560205260408220548015614ba257600554614bff9161400a565b93600d5460a81c16600014614c4d57601a54848110614ba2578280868194614c28828496614369565b601a555b878352602160205260408320805460ff191660011790555af1614b586141b7565b601c54848110614ba2578280868194614c67828496614369565b601c55614c2c565b60a01c1680614f43575b80614f37575b80614f2c575b15614de457506001600160a01b038116600081815260256020908152604080832054601e8352818420546022845282852054979850929691949290818111801590614dd1575b614dc557614cdd9291612a3691614369565b95600554906018549161271092830391838311614db25750614d0a9291614d039161400a565b048761400a565b95601b54808811614da75787614d1f91614369565b601b5581835260228652614d3784842091825461401d565b90558180808089885af1614d496141b7565b501561076b57807f358fe4192934d3bf28ae181feda1f4bd08ca67f5e2fad55582cce5eb67304ae9868551898152a28152601e84528181205415614d8f575b5050505090565b6025614d9e9452205490615b30565b38808080614d88565b505050935050505090565b634e487b7160e01b865260119052602485fd5b50505050935050505090565b50614ddc8282614369565b831015614ccb565b60a81c831615614df657505050600090565b6001600160a01b038116600081815260256020908152604080832054919590939115614f225760218652868484205416614f225760258652614e3e848420546005549061400a565b90611f4091828102928184041490151715614f0f5750612710900495601c54878110614da75787614e6e91614369565b601c5581835260218652838320805460ff19166001179055828080808a895af1614e966141b7565b501561079857817f358fe4192934d3bf28ae181feda1f4bd08ca67f5e2fad55582cce5eb67304ae98786518a8152a260075460a01c16158015614efd575b614ee1575b505050505090565b614ef394602591835252205490615b30565b3880808080614ed9565b50808252601e85528282205415614ed4565b634e487b7160e01b845260119052602483fd5b5050935050505090565b50601b541515614c85565b50838160b81c16614c7f565b50838160a81c16614c79565b602185634e487b7160e01b6000525260246000fd5b505050505050600090565b9050614f7f576007811483614abe565b602184634e487b7160e01b6000525260246000fd5b9050614f7f576005811483614ab7565b506000925060068114614aaf565b600780549060ff90818360a81c166008811015613ce357818114610cbf57614fd8613fd5565b4210610cbf576015546001600160a01b039490851615916001810361518c5750501561514457602754600a541115610cbf57805460ff60a81b1916600760a81b1781555b81815460a81c16906008821015613ce35761503981849314614080565b615041615a30565b615049615406565b5460a01c1680615134575b8061510a575b615062575050565b80600d5460c81c1661432b57600e549081166004811015613ce3576150c55750600e5460081c16803b15610cbf5760008091602460405180948193636382ff5160e11b83523060048401525af180156147c1576150bc5750565b613e6a90613d7e565b60081c16600f5490803b15610cbf57604051631d8efab160e21b815230600482015260248101929092526000908290604490829084905af180156147c1576150bc5750565b5080600e54166004811015613ce3578015908115615129575b5061505a565b600191501438615123565b5081600e5460081c161515615054565b600a54603281029080820460321490151715613ff457606490048015615184575b6027541015610cbf57805460ff60a81b1916600760a81b17815561501c565b506001615165565b9091501561519b575b5061501c565b60ff60a81b1916600760a81b17815538615195565b6011546001600160a01b03908116610cbf57601354610cbf576151d1613fd5565b421015610cbf5760009080825416331480156153b8575b1561076b5760075460ff90818160a81c166008811015610d355780159081156153ad575b501561079457818160a01c1680809161536f575b80615360575b610d31571561079457600d805460ff60d01b1916600160d01b17905560ff60a81b1916600560a81b1760075561525a615a30565b615262615406565b8060075460a01c1680615350575b80615326575b61527f57505050565b80600d5460c81c1661532157600e5490811660048110156146ae576152da5750600e5460081c16803b1561076b57818091602460405180958193636382ff5160e11b83523060048401525af19081156120e357506150bc5750565b60081c16600f54813b1561079857604051631d8efab160e21b81523060048201526024810191909152919081908390604490829084905af19081156120e357506150bc5750565b505050565b5080600e541660048110156146ae578015908115615345575b50615276565b60019150143861533f565b5081600e5460081c161515615270565b5082600d5460a81c1615615226565b5082600e5416600481101561539957801590811561538e575b50615220565b600191501438615388565b634e487b7160e01b86526021600452602486fd5b60019150143861520c565b50806007541633146151e8565b6007805460ff60a81b1916600160a91b1790556040514281527f7ec14564eed3e841911f7412fd555aa022b64c2b1ae4b3da14fcacc8c0c4bf7190602090a1565b60075460ff8160a01c16801561432b5780615646575b6154235750565b6011546001600160a01b03919082161561551757508060115416604051916370a0823160e01b83523060048401526020928381602481865afa9081156147c1576000916154ea575b5080615478575b50505050565b60075460405163a9059cbb60e01b815292166001600160a01b0316600483015260248201529082908290816000816044810103925af19182156147c1576000926154cd575b505015610cbf5738808080615472565b6154e39250803d106106295761061b8183613dac565b38806154bd565b908482813d8311615510575b6155008183613dac565b810103126105215750513861546b565b503d6154f6565b600e5460ff81166004811015613ce3576003810361555c5750505047908161553d575050565b6000808080948194600754165af16155536141b7565b50156105215750565b1561556657505050565b829060081c16600f54906040516331a9108f60e11b8152826004820152602081602481855afa9081156147c15760009161560d575b50841630146155aa5750505050565b803b15610cbf576040516323b872dd60e01b8152306004820152939092166001600160a01b03166024840152604483015260009082908183816064810103925af180156147c1576155fe575b808080615472565b61560790613d7e565b386155f6565b906020823d821161563e575b8161562660209383613dac565b81010312610521575061563890613f7a565b3861559b565b3d9150615619565b5060ff600d5460c81c1661541c565b600060018060a01b0381541660ff60075460a01c168061581f575b80615810575b80615805575b61575d575b60ff600d5460a81c1615615693575050565b600854806156a5575050506001600855565b600181036156bf575050506156b861582e565b6002600855565b600281036157435750602060249160405192838092630425172560e31b82523060048301525afa9182156120e357809261570f575b5050615702575b6003600855565b61570a61598f565b6156fb565b9091506020823d821161573b575b8161572a60209383613dac565b8101031261052157505138806156f4565b3d915061571d565b90506003915003613e6a57615756615c11565b6004600855565b81601d546157f5575b15806157eb575b1561568157604051630425172560e31b8152306004820152602081602481855afa9081156157e05783916157af575b5015615681576157aa61598f565b615681565b90506020813d82116157d8575b816157c960209383613dac565b8101031261079857513861579c565b3d91506157bc565b6040513d85823e3d90fd5b50601d541561576d565b506157fe61582e565b6001615766565b50601b54151561567c565b5060ff600d5460b81c16615676565b5060ff600d5460a81c16615670565b6000600d5460ff90818160d81c168061596c575b615902575b818160a81c1615806158f7575b61586c575b5050806158635750565b613e6a90615a73565b60b01c8116156158c65760075460a81c166008811015613ce357600603610cbf575b601c546107d091828202928284041482151715613ff4576158b76127106158bf94048093614369565b601c5561401d565b3880615859565b60075460a81c166008811015613ce357600481149081156158ec575b5061588e57600080fd5b6006915014386158e2565b50601c541515615854565b91818360b01c16600014615938578160075460a81c1660088110156116085760060361052157505b601d54916000601d55615847565b8160075460a81c1660088110156116085760048114908115615961575b5015610521575061592a565b600691501438615955565b50601d541515615842565b15613e6a57602b5460275403613e6a57613e6a615655565b600060018060a01b03815416600354801561079857813b1561079857604051633d40f28f60e01b81523060048201526024810191909152919081908390818381604481015b03925af19081156120e357506150bc5750565b600060018060a01b03815416600354801561079857813b156107985760405163032a136160e11b81523060048201526024810191909152919081908390818381604481016159d4565b600060018060a01b03815416600354813b1561079857604051630221a1c360e51b81523060048201526024810191909152919081908390818381604481016159d4565b6000805460405163524d530b60e01b81529192906001600160a01b03906020908490600490829085165afa928315615b25578493615aea575b508216156107985782918291604051906020820191635e5bc1c560e11b835281602482015260248152615ade81613d91565b51925af16155536141b7565b9092506020813d8211615b1d575b81615b0560209383613dac565b8101031261079457615b1690613f7a565b9138615aac565b3d9150615af8565b6040513d86823e3d90fd5b60008054604051633527d9bd60e21b815292949391926001600160a01b03916020908290600490829086165afa908115615b25578491615bd8575b501680615b7a575b5050509050565b803b1561079857604051637505fc8960e01b81523060048201526001600160a01b0395909516602486015260448501919091529192918290606490829084905af1615bc9575b80808392615b73565b615bd290613d7e565b38615bc0565b90506020813d8211615c09575b81615bf260209383613dac565b8101031261079457615c0390613f7a565b38615b6b565b3d9150615be5565b60008054604051633527d9bd60e21b81526001600160a01b03916020908290600490829086165afa9081156157e0578391615c7d575b501680615c52575050565b803b1561076b578190602460405180948193630377bc0960e11b83523060048401525af16150bc5750565b90506020813d8211615cae575b81615c9760209383613dac565b8101031261079857615ca890613f7a565b38615c47565b3d9150615c8a565b6000338152602091601e8352604080832054928315615ec057338152601f85528181205494858503958514615eaf5760155485939291906001600160a01b0381169081615d0b575b5050601f90338352522055565b60ff91929394955060a01c1660048110156146ae5786949392919080615da957508394509060249181939451928380926370a0823160e01b82523360048301525afa908115615d9f578391615d72575b506016541161076b5790601f8593925b9038615cfe565b90508181813d8311615d98575b615d898183613dac565b81010312610798575138615d5b565b503d615d7f565b84513d85823e3d90fd5b60018103615e2f57506017548451627eeac760e11b81523360048201526024810191909152939450919290918290829060449082905afa908115615d9f578391615e02575b506016541161076b5790601f859392615d6b565b90508181813d8311615e28575b615e198183613dac565b81010312610798575138615dee565b503d615e0f565b600214615e40575b50601f90615d6b565b8394509060249181939451928380926370a0823160e01b82523360048301525afa908115615d9f578391615e82575b506016541161076b579084929138615e37565b90508181813d8311615ea8575b615e998183613dac565b81010312610798575138615e6f565b503d615e8f565b8251630ccaf35d60e41b8152600490fd5b81516358cd4fc160e11b8152600490fd5b601554600a54906001600160a01b0316151580615f1e575b15615f185750602b54905b601454018060145514615f0357565b6007805460ff60a81b1916600360a91b179055565b90615ef4565b5080602b5410615ee956fe18381720d6efb26847068a65e3be979f1243520b7db6b16331969a7acdb200d595681e512bc0fe659e195e06c283eada494316f3d801213e48e7101af92bf7706e1540171b6c0c960b71a7020d9f60077f6af931a8bbf590da0223dacf75c7afa26469706673582212206a9208630c85baa165a82bec6a305ee422ae8fd97f82d8a5e131ad824747a9c564736f6c63430008130033",
  "linkReferences": {},
  "deployedLinkReferences": {}
}