{
  "_format": "hh-sol-artifact-1",
  "contractName": "Pool",
  "sourceName": "contracts/Pool.sol",
  "abi": [
    {
      "inputs": [
        {
          "internalType": "address",
          "name": "_factory",
          "type": "address"
        }
      ],
      "stateMutability": "nonpayable",
      "type": "constructor"
    },
    {
      "inputs": [],
      "name": "ContractsCannotPurchase",
      "type": "error"
    },
    {
      "inputs": [],
      "name": "CreatorNotAllowed",
      "type": "error"
    },
    {
      "inputs": [],
      "name": "ExceedsMaxSlots",
      "type": "error"
    },
    {
      "inputs": [],
      "name": "ExceedsSlotLimit",
      "type": "error"
    },
    {
      "inputs": [],
      "name": "ExceedsWinnersCount",
      "type": "error"
    },
    {
      "inputs": [],
      "name": "IncorrectPayment",
      "type": "error"
    },
    {
      "inputs": [],
      "name": "InvalidNonPrizedPurchase",
      "type": "error"
    },
    {
      "inputs": [],
      "name": "InvalidPoolState",
      "type": "error"
    },
    {
      "inputs": [],
      "name": "InvalidPrizeAmount",
      "type": "error"
    },
    {
      "inputs": [],
      "name": "InvalidPrizeCollection",
      "type": "error"
    },
    {
      "inputs": [],
      "name": "InvalidPrizeType",
      "type": "error"
    },
    {
      "inputs": [],
      "name": "InvalidState",
      "type": "error"
    },
    {
      "inputs": [],
      "name": "MintingNotSupported",
      "type": "error"
    },
    {
      "inputs": [],
      "name": "NoPrizesClaimedYet",
      "type": "error"
    },
    {
      "inputs": [],
      "name": "NoPrizesToClaim",
      "type": "error"
    },
    {
      "inputs": [],
      "name": "NotAWinner",
      "type": "error"
    },
    {
      "inputs": [],
      "name": "OnlyOperator",
      "type": "error"
    },
    {
      "inputs": [],
      "name": "PoolDurationElapsed",
      "type": "error"
    },
    {
      "inputs": [],
      "name": "PoolNotActive",
      "type": "error"
    },
    {
      "inputs": [],
      "name": "PrizeTransferFailed",
      "type": "error"
    },
    {
      "inputs": [],
      "name": "ProtocolAdminNotAllowed",
      "type": "error"
    },
    {
      "inputs": [],
      "name": "SocialEngagementNotConfigured",
      "type": "error"
    },
    {
      "inputs": [],
      "name": "TimestampDelayIssue",
      "type": "error"
    },
    {
      "inputs": [],
      "name": "UnauthorizedCaller",
      "type": "error"
    },
    {
      "inputs": [],
      "name": "ZeroAddress",
      "type": "error"
    },
    {
      "inputs": [],
      "name": "ZeroQuantity",
      "type": "error"
    },
    {
      "inputs": [],
      "name": "ZeroSlotFee",
      "type": "error"
    },
    {
      "anonymous": false,
      "inputs": [
        {
          "indexed": false,
          "internalType": "string",
          "name": "reason",
          "type": "string"
        }
      ],
      "name": "BatchProcessingFailed",
      "type": "event"
    },
    {
      "anonymous": false,
      "inputs": [
        {
          "indexed": false,
          "internalType": "bytes",
          "name": "lowLevelData",
          "type": "bytes"
        }
      ],
      "name": "BatchProcessingFailedBytes",
      "type": "event"
    },
    {
      "anonymous": false,
      "inputs": [],
      "name": "FullRefundEnabledForDeletion",
      "type": "event"
    },
    {
      "anonymous": false,
      "inputs": [
        {
          "indexed": true,
          "internalType": "address",
          "name": "participant",
          "type": "address"
        },
        {
          "indexed": false,
          "internalType": "uint256",
          "name": "amount",
          "type": "uint256"
        }
      ],
      "name": "FullRefundForDeletion",
      "type": "event"
    },
    {
      "anonymous": false,
      "inputs": [
        {
          "indexed": true,
          "internalType": "address",
          "name": "winner",
          "type": "address"
        },
        {
          "indexed": false,
          "internalType": "string",
          "name": "reason",
          "type": "string"
        }
      ],
      "name": "MintingFailed",
      "type": "event"
    },
    {
      "anonymous": false,
      "inputs": [
        {
          "indexed": true,
          "internalType": "address",
          "name": "previousOwner",
          "type": "address"
        },
        {
          "indexed": true,
          "internalType": "address",
          "name": "newOwner",
          "type": "address"
        }
      ],
      "name": "OwnershipTransferred",
      "type": "event"
    },
    {
      "anonymous": false,
      "inputs": [
        {
          "indexed": false,
          "internalType": "address",
          "name": "account",
          "type": "address"
        }
      ],
      "name": "Paused",
      "type": "event"
    },
    {
      "anonymous": false,
      "inputs": [],
      "name": "PoolActivated",
      "type": "event"
    },
    {
      "anonymous": false,
      "inputs": [],
      "name": "PoolDeleted",
      "type": "event"
    },
    {
      "anonymous": false,
      "inputs": [],
      "name": "PoolEnded",
      "type": "event"
    },
    {
      "anonymous": false,
      "inputs": [],
      "name": "PoolUnengaged",
      "type": "event"
    },
    {
      "anonymous": false,
      "inputs": [
        {
          "indexed": true,
          "internalType": "address",
          "name": "winner",
          "type": "address"
        },
        {
          "indexed": false,
          "internalType": "uint256",
          "name": "tokenId",
          "type": "uint256"
        }
      ],
      "name": "PrizeClaimed",
      "type": "event"
    },
    {
      "anonymous": false,
      "inputs": [
        {
          "indexed": false,
          "internalType": "uint256",
          "name": "requestId",
          "type": "uint256"
        }
      ],
      "name": "RandomRequested",
      "type": "event"
    },
    {
      "anonymous": false,
      "inputs": [
        {
          "indexed": true,
          "internalType": "address",
          "name": "participant",
          "type": "address"
        },
        {
          "indexed": false,
          "internalType": "uint256",
          "name": "amount",
          "type": "uint256"
        }
      ],
      "name": "RefundClaimed",
      "type": "event"
    },
    {
      "anonymous": false,
      "inputs": [
        {
          "indexed": true,
          "internalType": "address",
          "name": "recipient",
          "type": "address"
        },
        {
          "indexed": false,
          "internalType": "uint256",
          "name": "amount",
          "type": "uint256"
        }
      ],
      "name": "RevenueWithdrawn",
      "type": "event"
    },
    {
      "anonymous": false,
      "inputs": [
        {
          "indexed": true,
          "internalType": "uint256",
          "name": "batchNumber",
          "type": "uint256"
        },
        {
          "indexed": false,
          "internalType": "uint256",
          "name": "participantCount",
          "type": "uint256"
        },
        {
          "indexed": false,
          "internalType": "uint256",
          "name": "shuffleStartIndex",
          "type": "uint256"
        },
        {
          "indexed": false,
          "internalType": "uint256",
          "name": "batchSize",
          "type": "uint256"
        }
      ],
      "name": "SelectionStarted",
      "type": "event"
    },
    {
      "anonymous": false,
      "inputs": [
        {
          "indexed": true,
          "internalType": "address",
          "name": "participant",
          "type": "address"
        },
        {
          "indexed": false,
          "internalType": "uint256",
          "name": "quantity",
          "type": "uint256"
        }
      ],
      "name": "SlotsPurchased",
      "type": "event"
    },
    {
      "anonymous": false,
      "inputs": [
        {
          "indexed": false,
          "internalType": "address",
          "name": "account",
          "type": "address"
        }
      ],
      "name": "Unpaused",
      "type": "event"
    },
    {
      "anonymous": false,
      "inputs": [
        {
          "indexed": false,
          "internalType": "string",
          "name": "reason",
          "type": "string"
        }
      ],
      "name": "VRFRequestFailed",
      "type": "event"
    },
    {
      "anonymous": false,
      "inputs": [
        {
          "indexed": false,
          "internalType": "bytes",
          "name": "lowLevelData",
          "type": "bytes"
        }
      ],
      "name": "VRFRequestFailedBytes",
      "type": "event"
    },
    {
      "anonymous": false,
      "inputs": [
        {
          "indexed": false,
          "internalType": "address[]",
          "name": "winners",
          "type": "address[]"
        }
      ],
      "name": "WinnersSelected",
      "type": "event"
    },
    {
      "inputs": [
        {
          "internalType": "uint256",
          "name": "batchRandomSeed",
          "type": "uint256"
        }
      ],
      "name": "_processBatchWithRandomness",
      "outputs": [],
      "stateMutability": "nonpayable",
      "type": "function"
    },
    {
      "inputs": [],
      "name": "amountPerWinner",
      "outputs": [
        {
          "internalType": "uint256",
          "name": "",
          "type": "uint256"
        }
      ],
      "stateMutability": "view",
      "type": "function"
    },
    {
      "inputs": [],
      "name": "batchCount",
      "outputs": [
        {
          "internalType": "uint256",
          "name": "",
          "type": "uint256"
        }
      ],
      "stateMutability": "view",
      "type": "function"
    },
    {
      "inputs": [
        {
          "internalType": "uint256",
          "name": "",
          "type": "uint256"
        }
      ],
      "name": "batchRandomSeeds",
      "outputs": [
        {
          "internalType": "uint256",
          "name": "",
          "type": "uint256"
        }
      ],
      "stateMutability": "view",
      "type": "function"
    },
    {
      "inputs": [],
      "name": "claimPrize",
      "outputs": [],
      "stateMutability": "nonpayable",
      "type": "function"
    },
    {
      "inputs": [],
      "name": "claimRefund",
      "outputs": [],
      "stateMutability": "nonpayable",
      "type": "function"
    },
    {
      "inputs": [
        {
          "internalType": "address",
          "name": "",
          "type": "address"
        }
      ],
      "name": "claimedWins",
      "outputs": [
        {
          "internalType": "uint256",
          "name": "",
          "type": "uint256"
        }
      ],
      "stateMutability": "view",
      "type": "function"
    },
    {
      "inputs": [],
      "name": "closePool",
      "outputs": [],
      "stateMutability": "nonpayable",
      "type": "function"
    },
    {
      "inputs": [],
      "name": "creationFeePercentage",
      "outputs": [
        {
          "internalType": "uint256",
          "name": "",
          "type": "uint256"
        }
      ],
      "stateMutability": "view",
      "type": "function"
    },
    {
      "inputs": [],
      "name": "creator",
      "outputs": [
        {
          "internalType": "address",
          "name": "",
          "type": "address"
        }
      ],
      "stateMutability": "view",
      "type": "function"
    },
    {
      "inputs": [],
      "name": "currentBatchSize",
      "outputs": [
        {
          "internalType": "uint256",
          "name": "",
          "type": "uint256"
        }
      ],
      "stateMutability": "view",
      "type": "function"
    },
    {
      "inputs": [],
      "name": "deletePool",
      "outputs": [],
      "stateMutability": "nonpayable",
      "type": "function"
    },
    {
      "inputs": [],
      "name": "duration",
      "outputs": [
        {
          "internalType": "uint256",
          "name": "",
          "type": "uint256"
        }
      ],
      "stateMutability": "view",
      "type": "function"
    },
    {
      "inputs": [],
      "name": "endTime",
      "outputs": [
        {
          "internalType": "uint256",
          "name": "",
          "type": "uint256"
        }
      ],
      "stateMutability": "view",
      "type": "function"
    },
    {
      "inputs": [],
      "name": "erc20PrizeAmount",
      "outputs": [
        {
          "internalType": "uint256",
          "name": "",
          "type": "uint256"
        }
      ],
      "stateMutability": "view",
      "type": "function"
    },
    {
      "inputs": [],
      "name": "erc20PrizeToken",
      "outputs": [
        {
          "internalType": "address",
          "name": "",
          "type": "address"
        }
      ],
      "stateMutability": "view",
      "type": "function"
    },
    {
      "inputs": [],
      "name": "erc721EscrowClaimed",
      "outputs": [
        {
          "internalType": "bool",
          "name": "",
          "type": "bool"
        }
      ],
      "stateMutability": "view",
      "type": "function"
    },
    {
      "inputs": [],
      "name": "getParticipantsCount",
      "outputs": [
        {
          "internalType": "uint256",
          "name": "",
          "type": "uint256"
        }
      ],
      "stateMutability": "view",
      "type": "function"
    },
    {
      "inputs": [
        {
          "internalType": "address",
          "name": "participant",
          "type": "address"
        }
      ],
      "name": "getRefundableAmount",
      "outputs": [
        {
          "internalType": "uint256",
          "name": "",
          "type": "uint256"
        }
      ],
      "stateMutability": "view",
      "type": "function"
    },
    {
      "inputs": [],
      "name": "getSlotLimit",
      "outputs": [
        {
          "internalType": "uint256",
          "name": "",
          "type": "uint256"
        }
      ],
      "stateMutability": "view",
      "type": "function"
    },
    {
      "inputs": [
        {
          "internalType": "address",
          "name": "participant",
          "type": "address"
        }
      ],
      "name": "getSlotsPurchased",
      "outputs": [
        {
          "internalType": "uint256",
          "name": "",
          "type": "uint256"
        }
      ],
      "stateMutability": "view",
      "type": "function"
    },
    {
      "inputs": [
        {
          "internalType": "address",
          "name": "",
          "type": "address"
        }
      ],
      "name": "hasClaimedFeeRefund",
      "outputs": [
        {
          "internalType": "bool",
          "name": "",
          "type": "bool"
        }
      ],
      "stateMutability": "view",
      "type": "function"
    },
    {
      "inputs": [
        {
          "internalType": "address",
          "name": "",
          "type": "address"
        }
      ],
      "name": "hasCompletedSocialEngagement",
      "outputs": [
        {
          "internalType": "bool",
          "name": "",
          "type": "bool"
        }
      ],
      "stateMutability": "view",
      "type": "function"
    },
    {
      "inputs": [],
      "name": "holderTokenAddress",
      "outputs": [
        {
          "internalType": "address",
          "name": "",
          "type": "address"
        }
      ],
      "stateMutability": "view",
      "type": "function"
    },
    {
      "inputs": [],
      "name": "holderTokenId",
      "outputs": [
        {
          "internalType": "uint256",
          "name": "",
          "type": "uint256"
        }
      ],
      "stateMutability": "view",
      "type": "function"
    },
    {
      "inputs": [],
      "name": "holderTokenStandard",
      "outputs": [
        {
          "internalType": "enum PrizeTypes.Standard",
          "name": "",
          "type": "uint8"
        }
      ],
      "stateMutability": "view",
      "type": "function"
    },
    {
      "inputs": [],
      "name": "i_vrfCoordinator",
      "outputs": [
        {
          "internalType": "contract VRFCoordinatorV2PlusInterface",
          "name": "",
          "type": "address"
        }
      ],
      "stateMutability": "view",
      "type": "function"
    },
    {
      "inputs": [
        {
          "components": [
            {
              "internalType": "address",
              "name": "manager",
              "type": "address"
            },
            {
              "internalType": "address",
              "name": "creator",
              "type": "address"
            },
            {
              "internalType": "address",
              "name": "revenueRecipient",
              "type": "address"
            },
            {
              "internalType": "string",
              "name": "name",
              "type": "string"
            },
            {
              "internalType": "uint256",
              "name": "startTime",
              "type": "uint256"
            },
            {
              "internalType": "uint256",
              "name": "duration",
              "type": "uint256"
            },
            {
              "internalType": "uint256",
              "name": "slotLimit",
              "type": "uint256"
            },
            {
              "internalType": "uint256",
              "name": "slotFee",
              "type": "uint256"
            },
            {
              "internalType": "uint256",
              "name": "maxSlotsPerParticipant",
              "type": "uint256"
            },
            {
              "internalType": "uint256",
              "name": "winnersCount",
              "type": "uint256"
            },
            {
              "internalType": "bool",
              "name": "isPrized",
              "type": "bool"
            },
            {
              "internalType": "bool",
              "name": "isCollabPool",
              "type": "bool"
            },
            {
              "internalType": "bool",
              "name": "usesCustomFee",
              "type": "bool"
            },
            {
              "internalType": "bool",
              "name": "isExternalPrizeCollection",
              "type": "bool"
            }
          ],
          "internalType": "struct Pool.PoolConfig",
          "name": "_poolConfig",
          "type": "tuple"
        },
        {
          "components": [
            {
              "internalType": "enum PrizeTypes.Standard",
              "name": "standard",
              "type": "uint8"
            },
            {
              "internalType": "address",
              "name": "prizeCollection",
              "type": "address"
            },
            {
              "internalType": "uint256",
              "name": "prizeTokenId",
              "type": "uint256"
            },
            {
              "internalType": "uint256",
              "name": "amountPerWinner",
              "type": "uint256"
            },
            {
              "internalType": "address",
              "name": "erc20PrizeToken",
              "type": "address"
            },
            {
              "internalType": "uint256",
              "name": "erc20PrizeAmount",
              "type": "uint256"
            },
            {
              "internalType": "uint256",
              "name": "nativePrizeAmount",
              "type": "uint256"
            },
            {
              "internalType": "bool",
              "name": "isEscrowedPrize",
              "type": "bool"
            }
          ],
          "internalType": "struct Pool.PrizeConfig",
          "name": "_prizeConfig",
          "type": "tuple"
        },
        {
          "components": [
            {
              "internalType": "address",
              "name": "holderTokenAddress",
              "type": "address"
            },
            {
              "internalType": "enum PrizeTypes.Standard",
              "name": "holderTokenStandard",
              "type": "uint8"
            },
            {
              "internalType": "uint256",
              "name": "minHolderTokenBalance",
              "type": "uint256"
            },
            {
              "internalType": "uint256",
              "name": "holderTokenId",
              "type": "uint256"
            }
          ],
          "internalType": "struct Pool.HolderConfig",
          "name": "_holderConfig",
          "type": "tuple"
        },
        {
          "components": [
            {
              "internalType": "bool",
              "name": "required",
              "type": "bool"
            },
            {
              "internalType": "string",
              "name": "taskDescription",
              "type": "string"
            }
          ],
          "internalType": "struct Pool.SocialConfig",
          "name": "_socialConfig",
          "type": "tuple"
        }
      ],
      "name": "initialize",
      "outputs": [],
      "stateMutability": "payable",
      "type": "function"
    },
    {
      "inputs": [],
      "name": "isCollabPool",
      "outputs": [
        {
          "internalType": "bool",
          "name": "",
          "type": "bool"
        }
      ],
      "stateMutability": "view",
      "type": "function"
    },
    {
      "inputs": [],
      "name": "isEscrowedPrize",
      "outputs": [
        {
          "internalType": "bool",
          "name": "",
          "type": "bool"
        }
      ],
      "stateMutability": "view",
      "type": "function"
    },
    {
      "inputs": [],
      "name": "isExternalPrizeCollection",
      "outputs": [
        {
          "internalType": "bool",
          "name": "",
          "type": "bool"
        }
      ],
      "stateMutability": "view",
      "type": "function"
    },
    {
      "inputs": [],
      "name": "isPrized",
      "outputs": [
        {
          "internalType": "bool",
          "name": "",
          "type": "bool"
        }
      ],
      "stateMutability": "view",
      "type": "function"
    },
    {
      "inputs": [],
      "name": "isRefundable",
      "outputs": [
        {
          "internalType": "bool",
          "name": "",
          "type": "bool"
        }
      ],
      "stateMutability": "view",
      "type": "function"
    },
    {
      "inputs": [],
      "name": "maxSlotsPerParticipant",
      "outputs": [
        {
          "internalType": "uint256",
          "name": "",
          "type": "uint256"
        }
      ],
      "stateMutability": "view",
      "type": "function"
    },
    {
      "inputs": [],
      "name": "minHolderTokenBalance",
      "outputs": [
        {
          "internalType": "uint256",
          "name": "",
          "type": "uint256"
        }
      ],
      "stateMutability": "view",
      "type": "function"
    },
    {
      "inputs": [],
      "name": "mint",
      "outputs": [],
      "stateMutability": "nonpayable",
      "type": "function"
    },
    {
      "inputs": [
        {
          "internalType": "address",
          "name": "winner",
          "type": "address"
        }
      ],
      "name": "mintToWinner",
      "outputs": [],
      "stateMutability": "nonpayable",
      "type": "function"
    },
    {
      "inputs": [],
      "name": "name",
      "outputs": [
        {
          "internalType": "string",
          "name": "",
          "type": "string"
        }
      ],
      "stateMutability": "view",
      "type": "function"
    },
    {
      "inputs": [],
      "name": "nativePrizeAmount",
      "outputs": [
        {
          "internalType": "uint256",
          "name": "",
          "type": "uint256"
        }
      ],
      "stateMutability": "view",
      "type": "function"
    },
    {
      "inputs": [
        {
          "internalType": "address",
          "name": "",
          "type": "address"
        },
        {
          "internalType": "address",
          "name": "",
          "type": "address"
        },
        {
          "internalType": "uint256[]",
          "name": "",
          "type": "uint256[]"
        },
        {
          "internalType": "uint256[]",
          "name": "",
          "type": "uint256[]"
        },
        {
          "internalType": "bytes",
          "name": "",
          "type": "bytes"
        }
      ],
      "name": "onERC1155BatchReceived",
      "outputs": [
        {
          "internalType": "bytes4",
          "name": "",
          "type": "bytes4"
        }
      ],
      "stateMutability": "pure",
      "type": "function"
    },
    {
      "inputs": [
        {
          "internalType": "address",
          "name": "",
          "type": "address"
        },
        {
          "internalType": "address",
          "name": "",
          "type": "address"
        },
        {
          "internalType": "uint256",
          "name": "",
          "type": "uint256"
        },
        {
          "internalType": "uint256",
          "name": "",
          "type": "uint256"
        },
        {
          "internalType": "bytes",
          "name": "",
          "type": "bytes"
        }
      ],
      "name": "onERC1155Received",
      "outputs": [
        {
          "internalType": "bytes4",
          "name": "",
          "type": "bytes4"
        }
      ],
      "stateMutability": "pure",
      "type": "function"
    },
    {
      "inputs": [
        {
          "internalType": "address",
          "name": "",
          "type": "address"
        },
        {
          "internalType": "address",
          "name": "",
          "type": "address"
        },
        {
          "internalType": "uint256",
          "name": "",
          "type": "uint256"
        },
        {
          "internalType": "bytes",
          "name": "",
          "type": "bytes"
        }
      ],
      "name": "onERC721Received",
      "outputs": [
        {
          "internalType": "bytes4",
          "name": "",
          "type": "bytes4"
        }
      ],
      "stateMutability": "pure",
      "type": "function"
    },
    {
      "inputs": [],
      "name": "owner",
      "outputs": [
        {
          "internalType": "address",
          "name": "",
          "type": "address"
        }
      ],
      "stateMutability": "view",
      "type": "function"
    },
    {
      "inputs": [
        {
          "internalType": "uint256",
          "name": "",
          "type": "uint256"
        }
      ],
      "name": "participants",
      "outputs": [
        {
          "internalType": "address",
          "name": "",
          "type": "address"
        }
      ],
      "stateMutability": "view",
      "type": "function"
    },
    {
      "inputs": [],
      "name": "paused",
      "outputs": [
        {
          "internalType": "bool",
          "name": "",
          "type": "bool"
        }
      ],
      "stateMutability": "view",
      "type": "function"
    },
    {
      "inputs": [],
      "name": "pendingProtocolFee",
      "outputs": [
        {
          "internalType": "uint256",
          "name": "",
          "type": "uint256"
        }
      ],
      "stateMutability": "view",
      "type": "function"
    },
    {
      "inputs": [],
      "name": "poolSubscriptionId",
      "outputs": [
        {
          "internalType": "uint256",
          "name": "",
          "type": "uint256"
        }
      ],
      "stateMutability": "view",
      "type": "function"
    },
    {
      "inputs": [
        {
          "internalType": "address",
          "name": "participant",
          "type": "address"
        }
      ],
      "name": "prizeClaimed",
      "outputs": [
        {
          "internalType": "uint256",
          "name": "",
          "type": "uint256"
        }
      ],
      "stateMutability": "view",
      "type": "function"
    },
    {
      "inputs": [],
      "name": "prizeCollection",
      "outputs": [
        {
          "internalType": "address",
          "name": "",
          "type": "address"
        }
      ],
      "stateMutability": "view",
      "type": "function"
    },
    {
      "inputs": [],
      "name": "prizeTokenId",
      "outputs": [
        {
          "internalType": "uint256",
          "name": "",
          "type": "uint256"
        }
      ],
      "stateMutability": "view",
      "type": "function"
    },
    {
      "inputs": [],
      "name": "prizesClaimedCount",
      "outputs": [
        {
          "internalType": "uint256",
          "name": "",
          "type": "uint256"
        }
      ],
      "stateMutability": "view",
      "type": "function"
    },
    {
      "inputs": [],
      "name": "protocolFeePercentage",
      "outputs": [
        {
          "internalType": "uint256",
          "name": "",
          "type": "uint256"
        }
      ],
      "stateMutability": "view",
      "type": "function"
    },
    {
      "inputs": [],
      "name": "protocolFeeTaken",
      "outputs": [
        {
          "internalType": "bool",
          "name": "",
          "type": "bool"
        }
      ],
      "stateMutability": "view",
      "type": "function"
    },
    {
      "inputs": [
        {
          "internalType": "uint256",
          "name": "quantity",
          "type": "uint256"
        },
        {
          "internalType": "uint256",
          "name": "_nonce",
          "type": "uint256"
        },
        {
          "internalType": "uint256",
          "name": "_deadline",
          "type": "uint256"
        },
        {
          "internalType": "bytes",
          "name": "_signature",
          "type": "bytes"
        },
        {
          "internalType": "uint256[]",
          "name": "_tokenIds",
          "type": "uint256[]"
        }
      ],
      "name": "purchaseSlots",
      "outputs": [],
      "stateMutability": "payable",
      "type": "function"
    },
    {
      "inputs": [],
      "name": "randomRequested",
      "outputs": [
        {
          "internalType": "bool",
          "name": "",
          "type": "bool"
        }
      ],
      "stateMutability": "view",
      "type": "function"
    },
    {
      "inputs": [],
      "name": "randomSeed",
      "outputs": [
        {
          "internalType": "uint256",
          "name": "",
          "type": "uint256"
        }
      ],
      "stateMutability": "view",
      "type": "function"
    },
    {
      "inputs": [],
      "name": "randomnessUsed",
      "outputs": [
        {
          "internalType": "bool",
          "name": "",
          "type": "bool"
        }
      ],
      "stateMutability": "view",
      "type": "function"
    },
    {
      "inputs": [
        {
          "internalType": "uint256",
          "name": "requestId",
          "type": "uint256"
        },
        {
          "internalType": "uint256[]",
          "name": "randomWords",
          "type": "uint256[]"
        }
      ],
      "name": "rawFulfillRandomWords",
      "outputs": [],
      "stateMutability": "nonpayable",
      "type": "function"
    },
    {
      "inputs": [
        {
          "internalType": "address",
          "name": "",
          "type": "address"
        }
      ],
      "name": "refundableAmount",
      "outputs": [
        {
          "internalType": "uint256",
          "name": "",
          "type": "uint256"
        }
      ],
      "stateMutability": "view",
      "type": "function"
    },
    {
      "inputs": [
        {
          "internalType": "address",
          "name": "",
          "type": "address"
        }
      ],
      "name": "refundedNonWinningSlots",
      "outputs": [
        {
          "internalType": "uint256",
          "name": "",
          "type": "uint256"
        }
      ],
      "stateMutability": "view",
      "type": "function"
    },
    {
      "inputs": [],
      "name": "removeFromVRFSubscription",
      "outputs": [],
      "stateMutability": "nonpayable",
      "type": "function"
    },
    {
      "inputs": [],
      "name": "renounceOwnership",
      "outputs": [],
      "stateMutability": "nonpayable",
      "type": "function"
    },
    {
      "inputs": [],
      "name": "requestRandomness",
      "outputs": [],
      "stateMutability": "nonpayable",
      "type": "function"
    },
    {
      "inputs": [],
      "name": "revenueRecipient",
      "outputs": [
        {
          "internalType": "address",
          "name": "",
          "type": "address"
        }
      ],
      "stateMutability": "view",
      "type": "function"
    },
    {
      "inputs": [],
      "name": "s_vrf_lastRequestId",
      "outputs": [
        {
          "internalType": "uint256",
          "name": "",
          "type": "uint256"
        }
      ],
      "stateMutability": "view",
      "type": "function"
    },
    {
      "inputs": [],
      "name": "shuffleStartIndex",
      "outputs": [
        {
          "internalType": "uint256",
          "name": "",
          "type": "uint256"
        }
      ],
      "stateMutability": "view",
      "type": "function"
    },
    {
      "inputs": [],
      "name": "slotFee",
      "outputs": [
        {
          "internalType": "uint256",
          "name": "",
          "type": "uint256"
        }
      ],
      "stateMutability": "view",
      "type": "function"
    },
    {
      "inputs": [],
      "name": "slotLimit",
      "outputs": [
        {
          "internalType": "uint256",
          "name": "",
          "type": "uint256"
        }
      ],
      "stateMutability": "view",
      "type": "function"
    },
    {
      "inputs": [
        {
          "internalType": "address",
          "name": "",
          "type": "address"
        }
      ],
      "name": "slotsPurchased",
      "outputs": [
        {
          "internalType": "uint256",
          "name": "",
          "type": "uint256"
        }
      ],
      "stateMutability": "view",
      "type": "function"
    },
    {
      "inputs": [],
      "name": "socialEngagementRequired",
      "outputs": [
        {
          "internalType": "bool",
          "name": "",
          "type": "bool"
        }
      ],
      "stateMutability": "view",
      "type": "function"
    },
    {
      "inputs": [],
      "name": "standard",
      "outputs": [
        {
          "internalType": "enum PrizeTypes.Standard",
          "name": "",
          "type": "uint8"
        }
      ],
      "stateMutability": "view",
      "type": "function"
    },
    {
      "inputs": [],
      "name": "startTime",
      "outputs": [
        {
          "internalType": "uint256",
          "name": "",
          "type": "uint256"
        }
      ],
      "stateMutability": "view",
      "type": "function"
    },
    {
      "inputs": [],
      "name": "state",
      "outputs": [
        {
          "internalType": "enum IPool.PoolState",
          "name": "",
          "type": "uint8"
        }
      ],
      "stateMutability": "view",
      "type": "function"
    },
    {
      "inputs": [
        {
          "internalType": "bytes4",
          "name": "interfaceId",
          "type": "bytes4"
        }
      ],
      "name": "supportsInterface",
      "outputs": [
        {
          "internalType": "bool",
          "name": "",
          "type": "bool"
        }
      ],
      "stateMutability": "view",
      "type": "function"
    },
    {
      "inputs": [
        {
          "internalType": "uint256",
          "name": "",
          "type": "uint256"
        }
      ],
      "name": "tokenIdClaimedBy",
      "outputs": [
        {
          "internalType": "address",
          "name": "",
          "type": "address"
        }
      ],
      "stateMutability": "view",
      "type": "function"
    },
    {
      "inputs": [],
      "name": "totalCreatorRevenue",
      "outputs": [
        {
          "internalType": "uint256",
          "name": "",
          "type": "uint256"
        }
      ],
      "stateMutability": "view",
      "type": "function"
    },
    {
      "inputs": [],
      "name": "totalGlobalFeeRevenue",
      "outputs": [
        {
          "internalType": "uint256",
          "name": "",
          "type": "uint256"
        }
      ],
      "stateMutability": "view",
      "type": "function"
    },
    {
      "inputs": [],
      "name": "totalRefundableAmount",
      "outputs": [
        {
          "internalType": "uint256",
          "name": "",
          "type": "uint256"
        }
      ],
      "stateMutability": "view",
      "type": "function"
    },
    {
      "inputs": [
        {
          "internalType": "address",
          "name": "newOwner",
          "type": "address"
        }
      ],
      "name": "transferOwnership",
      "outputs": [],
      "stateMutability": "nonpayable",
      "type": "function"
    },
    {
      "inputs": [],
      "name": "usesCustomFee",
      "outputs": [
        {
          "internalType": "bool",
          "name": "",
          "type": "bool"
        }
      ],
      "stateMutability": "view",
      "type": "function"
    },
    {
      "inputs": [],
      "name": "wasDeletedForFullRefund",
      "outputs": [
        {
          "internalType": "bool",
          "name": "",
          "type": "bool"
        }
      ],
      "stateMutability": "view",
      "type": "function"
    },
    {
      "inputs": [
        {
          "internalType": "uint256",
          "name": "",
          "type": "uint256"
        }
      ],
      "name": "winners",
      "outputs": [
        {
          "internalType": "address",
          "name": "",
          "type": "address"
        }
      ],
      "stateMutability": "view",
      "type": "function"
    },
    {
      "inputs": [],
      "name": "winnersCount",
      "outputs": [
        {
          "internalType": "uint256",
          "name": "",
          "type": "uint256"
        }
      ],
      "stateMutability": "view",
      "type": "function"
    },
    {
      "inputs": [],
      "name": "winnersSelected",
      "outputs": [
        {
          "internalType": "uint256",
          "name": "",
          "type": "uint256"
        }
      ],
      "stateMutability": "view",
      "type": "function"
    },
    {
      "inputs": [
        {
          "internalType": "address",
          "name": "",
          "type": "address"
        }
      ],
      "name": "winsPerAddress",
      "outputs": [
        {
          "internalType": "uint256",
          "name": "",
          "type": "uint256"
        }
      ],
      "stateMutability": "view",
      "type": "function"
    },
    {
      "inputs": [],
      "name": "withdrawCreatorRevenue",
      "outputs": [],
      "stateMutability": "nonpayable",
      "type": "function"
    },
    {
      "inputs": [],
      "name": "withdrawProtocolRevenue",
      "outputs": [],
      "stateMutability": "nonpayable",
      "type": "function"
    }
  ],
  "bytecode": "0x60a034620000bb57601f62005fed38819003918201601f19168301916001600160401b03831184841017620000c057808492602094604052833981010312620000bb57516001600160a01b03908181168103620000bb576000543360018060a01b0319821617600055604051923391167f8be0079c531659141344cd1fd0a4f28419497f9722a3daafe3b4186f6b6457e0600080a36001805560ff1960025416600255608052615f169081620000d78239608051816108e80152f35b600080fd5b634e487b7160e01b600052604160045260246000fdfe608080604052600436101561001357600080fd5b600090813560e01c90816301ffc9a714613e7d5750806302d05d3f14613e545780630631c5c214613e3657806306f1305614613e1857806306fdde0314613d455780630852197414612d0c5780630aa00e7014613d275780630b747d9114613d095780630b78824b14613ceb5780630e4fa15814613cc55780630fb5a6b414613ca75780631249c58b14613925578063128f4ba414613907578063150b7a02146138b05780631d93fa0a14612e275780631fe543e314612d4557806325444fa414612d0c578063262f5cf1146129505780632c1fecfe1461292a5780633197cbb61461290c578063321679fa146128ee578063327bb1ad1461285457806335c1d349146128105780633b26314d146127e7578063400214341461241757806342b72afa146123de57806344a90986146123c057806348a3a4501461239a578063497138111461237c5780634e3ff4601461233d5780634f7f0fc0146122fe5780635755248e146122e05780635a3b7e42146122ba5780635c975abb1461229757806366805de51461227e578063677375c314612260578063683d19361461223d578063696917ba146122175780636e61a160146121f157806370740ac9146121b2578063715018a614612158578063740e21981461212c57806378e979251461210e578063813e88b9146120f0578063837d1128146120cb57806387213c35146120a55780638778d82c1461207c578063888dc1981461205e578063898b36db146120405780638bc53285146120225780638bfbbcbe146120095780638d7fe47814611fe35780638da5cb5b14611fbc5780638e50e50914611f9f5780639ed5c1cc14611f76578063a177ec0914611f49578063a2fb117514611eed578063a67d0e6c14611ecf578063a9532a5314611df9578063ae4b82c114611dcf578063aebc455014611da2578063af78ed0a14611d84578063b0b606c014611d51578063b5545a3c146118ad578063b5ad84121461160d578063bc197c8114611581578063c19d93fb1461153e578063c2e784bd14611520578063c3fa0e3b14611502578063cabfaa18146114e4578063cc7d49ec146114be578063d0704cbd14611498578063d0d11ae81461147a578063d17d135914611441578063d447e9bc146113a6578063d91043f214611423578063dbb832bd146113fd578063dc52834e146113df578063dc8a55c2146113a6578063e511a11b1461136d578063e6f12cf71461134f578063f23a6e61146112f8578063f2fde38b1461126a578063f8413b071461100a578063fb0f2b1c14610602578063fb687df4146105d95763fd22b17c146103de57600080fd5b346105d657806003193601126105d65780546040516336b87bd760e11b8152336004820152602492916020908290859082906001600160a01b03165afa9081156105cb57829161059d575b501561058b578060155460ff90818160381c1680610580575b61051b575b818160201c161580610510575b610474575b505080919250156104705761046d90615a84565b80f35b5080fd5b818160581c166000146104f85760601c1660088110156104e557600603610470575b602554906107d0938483029483860414831517156104d357506104c26127106104ca949504809361485b565b602555614201565b81903880610459565b634e487b7160e01b8452601160045283fd5b5050634e487b7160e01b81526021600452fd5b60601c1660088110156104e557600414610496575080fd5b506025541515610454565b9150808260581c1660001461056657808260601c1660088110156105525760060361054e575b602b549183602b55610447565b8280fd5b5050634e487b7160e01b8252506021600452fd5b808260601c16600881101561055257600414610541578280fd5b50602b541515610442565b6040516327e1f1e560e01b8152600490fd5b6105be915060203d81116105c4575b6105b68183613f3a565b810190614601565b38610429565b503d6105ac565b6040513d84823e3d90fd5b80fd5b50346105d657806003193601126105d657600b546040516001600160a01b039091168152602090f35b506101c090816003193601126105d6576001600160401b03600435116105d65781600319600435360301126105d6576040519182018281106001600160401b03821117610ff45760405261065a600435600401613fc7565b825261066a602460043501613fc7565b602083015261067d604460043501613fc7565b6040830152606460043501356001600160401b038111610470576106a89060043691813501016140b3565b60608301526004356084810135608084015260a481013560a084015260c481013560c084015260e481013560e08401526101048101356101008401526101248101356101208401526106fd90610144016140fa565b610140830152610712610164600435016140fa565b610160830152610727610184600435016140fa565b61018083015261073c6101a4600435016140fa565b6101a08301526101003660231901126105d65760405191826101008101106001600160401b0361010085011117610ff4576101008301604052600460243510156104705760243583526044356001600160a01b0381169003610da55760443560208401526064356040840152608435606084015260a4356001600160a01b0381169003610da55760a435608084015260c43560a084015260e43560c08401526101043515156101043503610da5576101043560e084015260803661012319011261047057604051928360808101106001600160401b03608086011117610ff45760808401604052610124356001600160a01b0381168103610da5578452600461014435101561054e576101443560208501526101643560408501526101843560608501526001600160401b036101a4351161054e5760406101a4353603600319011261054e57604051908160408101106001600160401b03604084011117610ff457604082016040526108b46101a4356004016140fa565b82526001600160401b0360246101a435013511610ff0576108e1366101a4356024810135016004016140b3565b60208301527f00000000000000000000000000000000000000000000000000000000000000006001600160a01b03163303610ff05783546001600160a01b0316610ff05782516001600160a01b03166109398161415f565b6020840151600c80546001600160a01b0319166001600160a01b039290921691909117905560405163ec644ddd60e01b815260a081600481855afa908115610fe5578691610fb2575b50604051630425172560e31b8152306004820152602081602481865afa908115610fa7578791610f75575b5060035560028054610100600160a81b03191660089290921b610100600160a81b031691909117905560608401518051906001600160401b038211610f615781906109f9600554613ed2565b601f8111610eef575b50602090601f8311600114610e79578892610e6e575b50508160011b916000199060031b1c1916176005555b610a4960808501518060065560a08601519081600855614201565b6007556101208401516009556101408401511515906015549060ff831660ff1983161760155560e0860151600a55610100860151600d55604051631a35245160e31b8152604081600481855afa8015610db25788918991610e31575b506021556020908155840151600b80546001600160a01b0319166001600160a01b0392831617905560c0870151600e5588511680610dd1575b506040860151969750949593946004946001600160a01b03168015610dbd575b601f80546001600160a01b039283166001600160a01b03199182161790915560808601516027805491909316911617905560a084015160285560c08401516029556101a087015160ff60581b90151560581b1660ff84166bff00000000000000000000ff198416178117601555604051636f6f8c5d60e01b8152959091602091879182905afa948515610db2578895610d79575b5060c084015115610c8b575050505060e08301510361054e57600360ff19600f541617600f556201000062ff00001960155416176015555b60155460ff811680610c7e575b15610c41575060016009541165ff00000000006015549160281b169065ff00000000001916176015555b5115159068ff000000000000000063ff000000610160601554930151151560181b169260401b16906cff000000ff00000000ff0000001916171760155580f35b60ff8160201c1615600014610c6d57506501000000000065ff0000000000196015541617601555610c01565b65ff00000000001916601555610c01565b5060ff8160201c16610bd7565b60808401516001600160a01b031615610ccf575050505060e08301510361054e57600260ff19600f541617600f556201000062ff0000196015541617601555610bca565b602084015193945091929091906001600160a01b0316610cf3575b50505050610bca565b62ff00009060e085015115159260ff64ff000000006101808a0151151560201b169516906bff000000000000ff00ff00ff191617179160101b16171760155580516004811015610d65579060609160ff8019600f5416911617600f556040810151601055015160115538808080610cea565b634e487b7160e01b85526021600452602485fd5b9094506020813d602011610daa575b81610d9560209383613f3a565b81010312610da557519338610b92565b600080fd5b3d9150610d88565b6040513d8a823e3d90fd5b5060208701516001600160a01b0316610afe565b602c549060208a01516004811015610e1d576001600160a81b03199092161760a09190911b60ff60a01b1617602c556040880151602d55606090970151602e5594958695906004610ade565b634e487b7160e01b8a52602160045260248afd5b9150506040813d604011610e66575b81610e4d60409383613f3a565b81010312610e62576020815191015138610aa5565b8780fd5b3d9150610e40565b015190503880610a18565b925060058852600080516020615e618339815191529088935b601f1984168510610ed4576001945083601f19811610610ebb575b505050811b01600555610a2e565b015160001960f88460031b161c19169055388080610ead565b81810151835560209485019460019093019290910190610e92565b90915060058852601f830160051c600080516020615e618339815191520160208410610f4c575b908392915b601f820160051c600080516020615e61833981519152018110610f3e5750610a02565b898155849350600101610f1b565b50600080516020615e61833981519152610f16565b634e487b7160e01b87526041600452602487fd5b90506020813d602011610f9f575b81610f9060209383613f3a565b81010312610da55751386109ad565b3d9150610f83565b6040513d89823e3d90fd5b610fd4915060a03d60a011610fde575b610fcc8183613f3a565b8101906141ba565b5050505038610982565b503d610fc2565b6040513d88823e3d90fd5b8380fd5b634e487b7160e01b600052604160045260246000fd5b50346105d657806003193601126105d65760075442101561125d575b6007544210611035811561428d565b60155460ff8160601c166008811015611249576002811490811561123e575b5080611231575b156111ce576016546009541161117257601b5415918261110d575b50600c546001600160a01b0316331480156110f8575b156110bb5760ff6110a19160481c16156142ea565b6110ae575b61046d615222565b6110b66159e8565b6110a6565b60405162461bcd60e51b815260206004820152601560248201527410d85b1b195c881b9bdd08185d5d1a1bdc9a5e9959605a1b6044820152606490fd5b5033835260186020526040832054151561108c565b6111175738611076565b60405162461bcd60e51b815260206004820152602d60248201527f506f6f6c20656e642074696d65206e6f74207265616368656420666f7220696e60448201526c1a5d1a585b081c995c5d595cdd609a1b6064820152608490fd5b60405162461bcd60e51b815260206004820152602e60248201527f496e73756666696369656e74207061727469636970616e747320666f7220776960448201526d373732b91039b2b632b1ba34b7b760911b6064820152608490fd5b60405162461bcd60e51b815260206004820152603560248201527f4d75737420626520696e20456e6465642f44726177696e6720737461746520776044820152746974682077696e6e6572732072656d61696e696e6760581b6064820152608490fd5b50601b546009541161105b565b600391501438611054565b634e487b7160e01b84526021600452602484fd5b611265615662565b611026565b50346105d65760203660031901126105d657611284613f9b565b61128c614107565b6001600160a01b038116156112a45761046d9061415f565b60405162461bcd60e51b815260206004820152602660248201527f4f776e61626c653a206e6577206f776e657220697320746865207a65726f206160448201526564647265737360d01b6064820152608490fd5b50346105d65760a03660031901126105d657611312613f9b565b5061131b613fb1565b506084356001600160401b0381116104705761133b903690600401613fdb565b505060405163f23a6e6160e01b8152602090f35b50346105d657806003193601126105d6576020602554604051908152f35b50346105d65760203660031901126105d6576020906040906001600160a01b03611395613f9b565b168152602a83522054604051908152f35b50346105d65760203660031901126105d6576020906040906001600160a01b036113ce613f9b565b168152601383522054604051908152f35b50346105d657806003193601126105d6576020600d54604051908152f35b50346105d657806003193601126105d657602060ff60155460381c166040519015158152f35b50346105d657806003193601126105d6576020602154604051908152f35b50346105d65760203660031901126105d6576020906040906001600160a01b03611469613f9b565b168152601283522054604051908152f35b50346105d657806003193601126105d6576020602954604051908152f35b50346105d657806003193601126105d657602060ff60155460581c166040519015158152f35b50346105d657806003193601126105d657602060ff60155460301c166040519015158152f35b50346105d657806003193601126105d6576020601654604051908152f35b50346105d657806003193601126105d6576020602b54604051908152f35b50346105d657806003193601126105d6576020600454604051908152f35b50346105d657806003193601126105d65760ff60155460601c1660405190600881101561156d57602092508152f35b634e487b7160e01b83526021600452602483fd5b50346105d65760a03660031901126105d65761159b613f9b565b506115a4613fb1565b506001600160401b0360443581811161054e576115c5903690600401614008565b505060643581811161054e576115df903690600401614008565b5050608435908111610470576115f9903690600401613fdb565b505060405163bc197c8160e01b8152602090f35b50346105d657806003193601126105d657611626614237565b601f546001600160a01b0390811690338290036118795760155460ff8160601c16906008821015610d65576005821461187557600782146118755760581c60ff161561181f576006036117e4575b826023549283156104705781806116ad9581936116a161271061169960215485614224565b04809361485b565b97889284602355615a84565b5af16116b76143f0565b501561179357602460208285541660405192838092630425172560e31b82523060048301525afa908115611788578491611737575b507f86a5cc8fe9af9ae68fb50f62885307a7755a30cbd290131644377f0bd94a71819160209161172a575b601f541692604051908152a26001805580f35b61173261598b565b611717565b90506020813d8211611780575b8161175160209383613f3a565b81010312610da557517f86a5cc8fe9af9ae68fb50f62885307a7755a30cbd290131644377f0bd94a71816116ec565b3d9150611744565b6040513d86823e3d90fd5b60405162461bcd60e51b8152602060048201526024808201527f5472616e7366657220746f20726576656e756520726563697069656e742066616044820152631a5b195960e21b6064820152608490fd5b60405162461bcd60e51b815260206004820152601360248201527210d85b9b9bdd081dda5d1a191c985dc81e595d606a1b6044820152606490fd5b6004811490811561186a575b506116745760405162461bcd60e51b8152602060048201526012602482015271141bdbdb081b9bdd0818dbdb5c1b195d195960721b6044820152606490fd5b60069150143861182b565b8480fd5b60405162461bcd60e51b815260206004820152600c60248201526b155b985d5d1a1bdc9a5e995960a21b6044820152606490fd5b50346105d657806003193601126105d6576118c6614237565b60155460ff90818160601c16600881101580610d6557600482148015611d44575b818115611d34575b8115611d24575b5015611cdf57838360301c16600014611a0c57505050338252602090602682528060408420541661054e576018825260408320541561054e57601554908082169182611a00575b5050156119ac5733825260188152600080516020615ec183398151915261196b6040842054600a5490614224565b913384526026815260408420600160ff1982541617905561199b8480808087335af16119956143f0565b506148a4565b6040519283523392a25b6001805580f35b6084906040519062461bcd60e51b82526004820152602760248201527f526566756e6473206e6f7420706f737369626c6520666f72207468697320706f6044820152666f6c207479706560c81b6064820152fd5b831c169050388061193d565b61124957600703611ad857503382526026602052806040832054166104705760186020526040822054801561054e57600a54611a4791614224565b9060155460201c16600014611ab85760235481811061054e5781611a6a9161485b565b6023555b338252602660205260408220600160ff19825416179055611a988280808085335af16119956143f0565b604051908152600080516020615ec183398151915260203392a25b6119a5565b611ad081602554611acb82821015614818565b61485b565b602555611a6e565b9080821680611cd3575b80611cc7575b80611cbc575b15611be8575050338152602060188152604082205460128252604083205490602a835260408420549082811180611bd6575b1561187557611b3292611acb9161485b565b600a5482549061271091820390828211611bc257611b5b9291611b5491614224565b0482614224565b916024549182841161187557611b8084600080516020615ec18339815191529461485b565b602455338552602a8252611b9960408620918254614201565b9055611bb48480808087335af1611bae6143f0565b50614868565b6040519283523392a26119a5565b634e487b7160e01b86526011600452602486fd5b50611be1838261485b565b8210611b20565b80602092831c1615611bfc575b50506119a5565b3383526018825260408320541561054e57602682526040832054166104705760188152611c306040832054600a5490614224565b611f4090818102918183041490151715611ca857612710600080516020615ec1833981519152910491611c6c83602554611acb82821015614818565b6025553384526026815260408420600160ff19825416179055611c988480808087335af1611bae6143f0565b6040519283523392a23880611bf5565b634e487b7160e01b83526011600452602483fd5b506024541515611aee565b50808260281c16611ae8565b50808260201c16611ae2565b60405162461bcd60e51b815260206004820152601e60248201527f506f6f6c206e6f7420696e206120726566756e6461626c6520737461746500006044820152606490fd5b9050610d655760078214816118f6565b9050610d655760058214816118ef565b50506000600682146118e7565b50346105d65760203660031901126105d6576020906004358152602f8252604060018060a01b0391205416604051908152f35b50346105d657806003193601126105d6576020602354604051908152f35b50346105d657806003193601126105d65760025460405160089190911c6001600160a01b03168152602090f35b50346105d65760203660031901126105d65760406020916004358152601d83522054604051908152f35b50346105d657806003193601126105d65760ff60155460601c166008811015908161156d5760048114918215611ec1575b8215611eb0575b8215611e8b575b505015611e475761046d61598b565b606460405162461bcd60e51b815260206004820152602060248201527f506f6f6c206d75737420626520696e2061207465726d696e616c2073746174656044820152fd5b909150611e9c576006143880611e38565b634e487b7160e01b82526021600452602482fd5b80925061156d576005811491611e31565b506007811491506000611e2a565b50346105d657806003193601126105d6576020600a54604051908152f35b50346105d65760203660031901126105d6576004356017548110156104705760176000527fc624b66cc0138b8fabc209247f72d758e1cf3343756d543badbf24212bed8c1501546040516001600160a01b039091168152602090f35b50346105d657806003193601126105d657611f7260ff602c5460a01c166040519182918261406f565b0390f35b50346105d657806003193601126105d6576027546040516001600160a01b039091168152602090f35b50346105d657806003193601126105d65760208054604051908152f35b50346105d657806003193601126105d657546040516001600160a01b039091168152602090f35b50346105d657806003193601126105d657602060ff60155460481c166040519015158152f35b50346105d657806003193601126105d65761046d614e64565b50346105d657806003193601126105d6576020601b54604051908152f35b50346105d657806003193601126105d6576020600e54604051908152f35b50346105d657806003193601126105d6576020601454604051908152f35b50346105d657806003193601126105d657602c546040516001600160a01b039091168152602090f35b50346105d657806003193601126105d657602060ff60155460401c166040519015158152f35b50346105d657806003193601126105d657602060155460ff60405191831c1615158152f35b50346105d657806003193601126105d6576020601154604051908152f35b50346105d657806003193601126105d6576020600654604051908152f35b50346105d65760203660031901126105d657602061215061214b613f9b565b6148e9565b604051908152f35b50346105d657806003193601126105d657612171614107565b600080546001600160a01b0319811682556001600160a01b03167f8be0079c531659141344cd1fd0a4f28419497f9722a3daafe3b4186f6b6457e08280a380f35b50346105d657806003193601126105d6576121cb614237565b60ff60155460601c166008811015611e9c5760046121e991146145a5565b6119a5614619565b50346105d657806003193601126105d657602060ff60155460081c166040519015158152f35b50346105d657806003193601126105d657602060ff60155460101c166040519015158152f35b50346105d657806003193601126105d657602060ff601554166040519015158152f35b50346105d657806003193601126105d6576020602454604051908152f35b50346105d657806003193601126105d65761046d614bd6565b50346105d657806003193601126105d657602060ff600254166040519015158152f35b50346105d657806003193601126105d657611f7260ff600f54166040519182918261406f565b50346105d657806003193601126105d6576020602d54604051908152f35b50346105d65760203660031901126105d65760209060ff906040906001600160a01b03612329613f9b565b168152602684522054166040519015158152f35b50346105d65760203660031901126105d65760209060ff906040906001600160a01b03612368613f9b565b168152603084522054166040519015158152f35b50346105d657806003193601126105d6576020600954604051908152f35b50346105d657806003193601126105d657602060ff60155460501c166040519015158152f35b50346105d657806003193601126105d6576020601c54604051908152f35b50346105d65760203660031901126105d6576020906040906001600160a01b03612406613f9b565b168152602283522054604051908152f35b50346105d65760208060031936011261047057600435903033036127b257601e548352601d815281604084205561244f601e54615159565b601e55601c5490601a546016549361246684614336565b906124746040519283613f3a565b84825261248085614336565b8285019390601f1901368537875b8681106126af57505050855b84811061261b57506124d16015549469ff0000000000000000001986166015556124c681601a54614201565b601a55601b54614201565b9182601b55604051918483019085845251809152604083019190885b868282106125fe575050505090807f32a1b5731a757f192a06ca973715ca4dbc42c2d15323cabaa74e0a2d5dc088e4920390a160095490811161255d5763ff0000ff60481b198316600160621b17601581905560ff841690816125f1575b816125e2575b816125d3575b50612564575b5050505080f35b61259661258e612585612710936c040000000001000000000000009761485b565b600a5490614224565b925483614224565b046125ad6125a4828461485b565b9260235461485b565b602355602b556024556cff0000ff00ff000000000000001916176015553880808061255d565b60ff915060381c161538612557565b905060ff8160281c1690612551565b80841c60ff16915061254b565b83516001600160a01b0316855293840193909201916001016124ed565b6001600160a01b0361262d828461434d565b5116906017918254600160401b811015610ff4576001810180855581101561269957612694936000527fc624b66cc0138b8fabc209247f72d758e1cf3343756d543badbf24212bed8c1501906bffffffffffffffffffffffff60a01b825416179055615159565b61249a565b634e487b7160e01b600052603260045260246000fd5b6126bd81611acb848b61485b565b60405187810190858252836040820152604081526126da81613f1f565b519020906126e88385614201565b91811561279e57612706612799949361274e9361276d930690614201565b61270f81614038565b9054600391821b1c6001600160a01b0390811694918561272f888d61434d565b5261274261273d888b614201565b614038565b9054911b1c1691614038565b90919082549060031b9160018060a01b03809116831b921b1916179055565b61277e8161274e61273d8588614201565b8a526012875260408a206127928154615159565b9055615159565b61248e565b634e487b7160e01b8c52601260045260248cfd5b6064906040519062461bcd60e51b82526004820152600e60248201526d13db9b1e481cd95b198b58d85b1b60921b6044820152fd5b50346105d657806003193601126105d657601f546040516001600160a01b039091168152602090f35b50346105d65760203660031901126105d657600435906016548210156105d657602061283b83614038565b905460405160039290921b1c6001600160a01b03168152f35b50346105d657806003193601126105d6578054600b54604051635aa35d2560e11b81526001600160a01b0391821615156004820152929160209184916024918391165afa9081156128e257906128b0575b602090604051908152f35b506020813d82116128da575b816128c960209383613f3a565b81010312610da557602090516128a5565b3d91506128bc565b604051903d90823e3d90fd5b50346105d657806003193601126105d6576020602854604051908152f35b50346105d657806003193601126105d6576020600754604051908152f35b50346105d657806003193601126105d657602060ff60155460281c166040519015158152f35b50346105d6576020806003193601126104705761296b613f9b565b612973614237565b6015549160ff8360601c166008811015610d6557600403612cfa5760ff600f54169160018060a01b0380600b54169481600c54163303612b9f575b508415612b8d57811693848652601283526040862054938415612b7b5785875260138452604087205494858103958114612b69578688526013855260408820556004811015612b55578692919080612a935750803b1561054e576040516340c10f1960e01b81526001600160a01b039290921660048301526024820185905282908290604490829084905af180156105cb57612a7f575b5050612a717f95681e512bc0fe659e195e06c283eada494316f3d801213e48e7101af92bf77092615dc0565b604051848152a26001805580f35b612a8890613f0c565b610ff0578338612a45565b91925090600103612b43578591846011540260105492803b1561187557604051630ab714fb60e11b81526001600160a01b03939093166004840152602483019390935260448201529082908290606490829084905af180156105cb57612b2f575b5050612b207f95681e512bc0fe659e195e06c283eada494316f3d801213e48e7101af92bf77092615dc0565b601054604051908152a26119a5565b612b3890613f0c565b610ff0578338612af4565b60405163fd34e50560e01b8152600490fd5b634e487b7160e01b87526021600452602487fd5b604051630ccaf35d60e41b8152600490fd5b6040516358cd4fc160e11b8152600490fd5b60405163424ca23960e01b8152600490fd5b60248483895416604051928380926336b87bd760e11b82523360048301525afa908115610db2578891612cdd575b506129ae5760181c60ff1615612c2357856004851015612b5557819085612c71575050604051638da5cb5b60e01b81528381600481895afa8015610fa75782918891612c35575b505b163303612c2357386129ae565b604051635c427cd960e01b8152600490fd5b809250858092503d8311612c6a575b612c4e8183613f3a565b81010312612c6657612c6082916141a6565b38612c14565b8680fd5b503d612c44565b60018603612c16575050604051638da5cb5b60e01b81528381600481895afa8015610fa75782918891612ca5575b50612c16565b809250858092503d8311612cd6575b612cbe8183613f3a565b81010312612c6657612cd082916141a6565b38612c9f565b503d612cb4565b612cf49150853d87116105c4576105b68183613f3a565b38612bcd565b604051631a1889b760e01b8152600490fd5b50346105d65760203660031901126105d6576020906040906001600160a01b03612d34613f9b565b168152601883522054604051908152f35b50346105d65760403660031901126105d6576024356001600160401b03811161047057612d76903690600401614008565b60025460081c6001600160a01b03163303612de257612d9481614336565b91612da26040519384613f3a565b8183526020918284019060051b820191368311612dde57905b828210612dcf578561046d86600435614420565b81358152908301908301612dbb565b8580fd5b60405162461bcd60e51b815260206004820181905260248201527f4f6e6c792056524620436f6f7264696e61746f722063616e2066756c66696c6c6044820152606490fd5b5060a03660031901126105d6576001600160401b0360648035828111610ff057612e55903690600401613fdb565b909260843590811161187557612e6f903690600401614008565b612e7a949194614237565b6015549060ff91828160601c166008811015613848571561386d575b5033320361385c5760155490828260601c169660088810156138485760018098036138365733156138245760043596871561381257600a5480156138005788612ede91614224565b34036137ee576007544210156137dc57601695612efc898854614201565b600e54106137ca5760065442106137b8578a97338952612f268a604060209b60188d522054614201565b600d54106137a6578686161580613776575b613764578b54604051638da5cb5b60e01b81526001600160a01b0397918816908e908c81600481865afa9081156105cb578a9291613728575b501633146137165787600c54163314613705578a898f9360401c16806136ee575b6135c9575b5050505050602c928354868682169182613089575b50505050505050503386526018835260408620848154019055855b8481106130445750907ffd1903a7f9f31de6cf38a88eda98ae029aeba3b2ec48a599d7c0d900f0f335cb9291601554831c16156000146130375734602554016025555b54600e5414613022575b6040519283523392a2805580f35b61302a6159e8565b613032615222565b613014565b346023540160235561300a565b825490600160401b821015610ff45761308361306583898095018755614038565b81546001600160a01b0360039290921b91821b19163390911b179055565b01612fc7565b60a01c1660048110156135b5578990806134ad575050508015613475578990602d548281146000146131fe5750106131a45750858360249235935416604051928380926331a9108f60e11b82528660048301525afa801561319957899061315f575b6130f9915083163314615178565b808852602f855261311a8260408a2054168015908115613155575b506151c4565b8752602f84526040872090815490811615613140575b50505b3880808080808681612fac565b6001600160a01b031916331790553880613130565b9050331438613114565b508581813d8311613192575b6131758183613f3a565b8101031261318e576131896130f9916141a6565b6130eb565b8880fd5b503d61316b565b6040513d8b823e3d90fd5b866d195b881c995c5d5a5c995b595b9d60921b6084926040519262461bcd60e51b84526004840152602e60248401527f546f6b656e20494420726571756972656420666f722073696e676c6520746f6b6044840152820152fd5b90939291811115613427578084106133e457908a95949392918c5b818110613332575050508a945b613235575b5050505050613133565b602d5485101561332d57848b61324e6024978585615168565b358a87875416604051998a80926331a9108f60e11b82528560048301525afa80156105cb578d9883916132e7575b50906132916132cc9493928933911614615178565b808252602f91828d526132b389604083205416801590811561315557506151c4565b528a5260408d208054878116156132d2575b5050615159565b94613226565b6001600160a01b0319163317905538806132c5565b8094939299508c8092503d8311613326575b6133038183613f3a565b810103126105d6578c9761329161331c6132cc956141a6565b919293945061327c565b503d6132f9565b61322b565b9091929394959681018082116133d0575b828110613361575061335490615159565b908b969594939291613219565b61336c828787615168565b35613378828888615168565b351461338c5761338790615159565b613343565b60405162461bcd60e51b8152600481018c9052601f60248201527f4475706c696361746520746f6b656e20494473206e6f7420616c6c6f7765640060448201528490fd5b634e487b7160e01b8e52601160045260248efd5b5060405162461bcd60e51b815260048101899052601f60248201527f496e73756666696369656e7420746f6b656e204944732070726f7669646564006044820152fd5b60405162461bcd60e51b8152600481018a9052602160248201527f496e76616c696420746f6b656e2062616c616e636520726571756972656d656e6044820152601d60fa1b81840152608490fd5b5060405162461bcd60e51b8152600481018890526012602482015271151bdad95b8812511cc81c995c5d5a5c995960721b6044820152fd5b94509450945050508781146000146135375750602e54604051627eeac760e11b8152336004820152602481019190915291829060449082905afa8015610fa7578790613508575b6135039150602d541115615102565b613133565b508381813d8311613530575b61351e8183613f3a565b81010312610da55761350390516134f4565b503d613514565b600214613546575b5050613133565b6040516370a0823160e01b815233600482015291829060249082905afa8015610fa7578790613586575b61357f9150602d541115615102565b388361353f565b508381813d83116135ae575b61359c8183613f3a565b81010312610da55761357f9051613570565b503d613592565b634e487b7160e01b8d52602160045260248dfd5b604051636b90bda960e01b815291829060049082905afa9081156105cb578892916136b2575b501680156136a0578c92813b15610ff057839183918360c460405180978196829563cffc18eb60e01b845233600485015230602485015260243560448501526044358d85015260a060848501528160a4850152848401378181018301849052601f01601f191681010301925af180156105cb57613688575b5050338a526030875260408a20805460ff19168a17905538808b818a612f97565b61369190613f0c565b61369c578938613667565b8980fd5b6040516343361aaf60e01b8152600490fd5b8092508b8092503d83116136e7575b6136cb8183613f3a565b810103126136e3576136dd87916141a6565b386135ef565b8c80fd5b503d6136c1565b505033825260308b528a8960408420541615612f92565b60405162ca6a8360e51b8152600490fd5b604051635f2a002d60e11b8152600490fd5b8092508d8092503d831161375d575b6137418183613f3a565b810103126137595761375389916141a6565b38612f71565b8e80fd5b503d613737565b604051631274fa9d60e31b8152600490fd5b5086868a1c16801561379c575b80612f385750338c526018895260408c20541515612f38565b508a8a1415613783565b604051637145fa7b60e01b8152600490fd5b604051633d8c21b360e01b8152600490fd5b6040516302edeeb760e31b8152600490fd5b60405163fd2a413d60e01b8152600490fd5b60405163569e8c1160e01b8152600490fd5b60405163d2100d7360e01b8152600490fd5b60405163f4f5b73360e01b8152600490fd5b60405163d92e233d60e01b8152600490fd5b6040516338c0a90160e11b8152600490fd5b634e487b7160e01b89526021600452602489fd5b60405162c44f5760e51b8152600490fd5b6006544210612e965760ff60601b1916600160601b176015557f3d31b97eef590df350bb2cdbc390034c613c9f23ea6ae1906682628c85248b538780a138612e96565b50346105d65760803660031901126105d6576138ca613f9b565b506138d3613fb1565b506064356001600160401b038111610470576138f3903690600401613fdb565b5050604051630a85bd0160e11b8152602090f35b50346105d657806003193601126105d6576020600354604051908152f35b50346105d657806003193601126105d65761393e614237565b601560ff815460601c16600881101561156d57600461395d91146145a5565b613965615b6f565b50600b546001600160a01b03168015612b8d5760ff835460101c16613c955760ff600f54166004811015610d655780613b135750803b15610ff0576040516340c10f1960e01b81523360048201526024810183905290849081908390604490829084905af19182613aff575b5050613af5575060016139e2614361565b6308c379a014613a7f575b6139fa575b506001805580f35b613a026143f0565b50604051600080516020615e81833981519152339180613a478160609060208152601060208201526f131bddcb5b195d995b081c995d995c9d60821b60408201520190565b0390a2805466ff0000000000ff60301b1916660500000000000160301b179055600080516020615ea18339815191528180a1386139f2565b613a8761437f565b80613a93575b506139ed565b90508290600080516020615e818339815191526040516020815280613abd33946020830190613f5b565b0390a2815466ff0000000000ff60301b1916660500000000000160301b178255600080516020615ea18339815191528380a138613a8d565b611ab39150615dc0565b613b0890613f0c565b610ff05783386139d1565b600103613c95578360105491836011540290803b1561054e57604051630ab714fb60e11b8152336004820152602481019490945260448401919091528290606490829084905af19081613c82575b50613af557506001613b71614361565b6308c379a014613c0c575b613b87575b506119a5565b613b8f6143f0565b50604051600080516020615e81833981519152339180613bd48160609060208152601060208201526f131bddcb5b195d995b081c995d995c9d60821b60408201520190565b0390a2805466ff0000000000ff60301b1916660500000000000160301b179055600080516020615ea18339815191528180a138613b81565b613c1461437f565b80613c20575b50613b7c565b90508290600080516020615e818339815191526040516020815280613c4a33946020830190613f5b565b0390a2815466ff0000000000ff60301b1916660500000000000160301b178255600080516020615ea18339815191528380a138613c1a565b613c8e90949194613f0c565b9238613b61565b604051631558dc5f60e31b8152600490fd5b50346105d657806003193601126105d6576020600854604051908152f35b50346105d657806003193601126105d657602060ff60155460181c166040519015158152f35b50346105d657806003193601126105d6576020601054604051908152f35b50346105d657806003193601126105d6576020601954604051908152f35b50346105d657806003193601126105d6576020602e54604051908152f35b50346105d657806003193601126105d6576040519080600554613d6781613ed2565b80855291600191808316908115613dee5750600114613da5575b611f7285613d9181870382613f3a565b604051918291602083526020830190613f5b565b925060058352600080516020615e618339815191525b828410613dd6575050508101602001613d9182611f72613d81565b80546020858701810191909152909301928101613dbb565b869550611f7296935060209250613d9194915060ff191682840152151560051b8201019293613d81565b50346105d657806003193601126105d6576020601e54604051908152f35b50346105d657806003193601126105d6576020601a54604051908152f35b50346105d657806003193601126105d657600c546040516001600160a01b039091168152602090f35b9050346104705760203660031901126104705760043563ffffffff60e01b811680910361054e5760209250630a85bd0160e11b8114908115613ec1575b5015158152f35b630271189760e51b14905038613eba565b90600182811c92168015613f02575b6020831014613eec57565b634e487b7160e01b600052602260045260246000fd5b91607f1691613ee1565b6001600160401b038111610ff457604052565b606081019081106001600160401b03821117610ff457604052565b90601f801991011681019081106001600160401b03821117610ff457604052565b919082519283825260005b848110613f87575050826000602080949584010152601f8019910116010190565b602081830181015184830182015201613f66565b600435906001600160a01b0382168203610da557565b602435906001600160a01b0382168203610da557565b35906001600160a01b0382168203610da557565b9181601f84011215610da5578235916001600160401b038311610da55760208381860195010111610da557565b9181601f84011215610da5578235916001600160401b038311610da5576020808501948460051b010111610da557565b6016548110156126995760166000527fd833147d7dc355ba459fc788f669e58cfaf9dc25ddcd0702e87d69c7b51242890190600090565b9190602083019260048210156140825752565b634e487b7160e01b600052602160045260246000fd5b6001600160401b038111610ff457601f01601f191660200190565b81601f82011215610da5578035906140ca82614098565b926140d86040519485613f3a565b82845260208383010111610da557816000926020809301838601378301015290565b35908115158203610da557565b6000546001600160a01b0316330361411b57565b606460405162461bcd60e51b815260206004820152602060248201527f4f776e61626c653a2063616c6c6572206973206e6f7420746865206f776e65726044820152fd5b600080546001600160a01b039283166001600160a01b03198216811783559216907f8be0079c531659141344cd1fd0a4f28419497f9722a3daafe3b4186f6b6457e09080a3565b51906001600160a01b0382168203610da557565b908160a0910312610da5576141ce816141a6565b91602082015191604081015191606082015163ffffffff81168103610da55760809092015161ffff81168103610da55790565b9190820180921161420e57565b634e487b7160e01b600052601160045260246000fd5b8181029291811591840414171561420e57565b600260015414614248576002600155565b60405162461bcd60e51b815260206004820152601f60248201527f5265656e7472616e637947756172643a207265656e7472616e742063616c6c006044820152606490fd5b1561429457565b60405162461bcd60e51b815260206004820152602860248201527f54696d657374616d702064656c61792069737375652c2074727920616761696e6044820152672073686f72746c7960c01b6064820152608490fd5b156142f157565b60405162461bcd60e51b815260206004820152601960248201527f5265717565737420616c726561647920696e20666c69676874000000000000006044820152606490fd5b6001600160401b038111610ff45760051b60200190565b80518210156126995760209160051b010190565b60009060033d1161436e57565b905060046000803e60005160e01c90565b600060443d106143dc57604051600319913d83016004833e81516001600160401b03918282113d6024840111176143df578184019485519384116143e7573d850101602084870101116143df57506143dc92910160200190613f3a565b90565b949350505050565b50949350505050565b3d1561441b573d9061440182614098565b9161440f6040519384613f3a565b82523d6000602084013e565b606090565b6002546000919060081c6001600160a01b03163303612de2576004540361458e576015805460ff60501b1916600160501b17815582519092901561457a576020015190303b156105d65760405191631000850d60e21b83526004830152808260248183305af1918261456b575b50906145675760019061449e614361565b6308c379a0146144f7575b506144b2575b50565b7fbccec8509a79ecd26780c2699a3ca2503c3a3455b361b5fcda5760593edb03c96144de613d916143f0565b0390a1805463ff0000ff60481b1916600160611b179055565b6144ff61437f565b908161450c575b506144a9565b7fbcd905a8eb4cc473497e2cd24cf41334ea7fad80c354380f8fff04a025b1e5f89192506145499092604051918291602083526020830190613f5b565b0390a1815463ff0000ff60481b1916600160611b1782553880614506565b5050565b61457490613f0c565b3861448d565b634e487b7160e01b82526032600452602482fd5b50506015805460ff60601b1916600160611b179055565b156145ac57565b60405162461bcd60e51b815260206004820152600d60248201526c496e76616c696420737461746560981b6044820152606490fd5b81156145eb570490565b634e487b7160e01b600052601260045260246000fd5b90816020910312610da557518015158103610da55790565b60ff60155460101c1615613c955761462f615b6f565b50602754600f54600b546009546001600160a01b039182169493909260ff169116806147755750600491828210156147605760038214614706575083156146f6576146e757601054833b15610da557604080516323b872dd60e01b815230938101938452336020850152908301919091529260009184919082908490829060600103925af19182156146db576146ca926146cc575b50615dc0565b565b6146d590613f0c565b386146c4565b6040513d6000823e3d90fd5b604051631558dc5f60e31b8152fd5b5060405163424ca23960e01b8152fd5b83945061471991506029939293546145e1565b02801561475057600080808093335af16147316143f0565b501561474157506146ca90615dc0565b60405163880a149160e01b8152fd5b50604051630193f71f60e51b8152fd5b602183634e487b7160e01b6000525260246000fd5b9293505061478683916028546145e1565b029081156148065760405163a9059cbb60e01b81523360048201526024810192909252602090829060449082906000905af19081156146db576000916147e8575b50156147d6576146ca90615dc0565b60405163880a149160e01b8152600490fd5b614800915060203d81116105c4576105b68183613f3a565b386147c7565b604051630193f71f60e51b8152600490fd5b1561481f57565b60405162461bcd60e51b8152602060048201526014602482015273496e73756666696369656e742062616c616e636560601b6044820152606490fd5b9190820391821161420e57565b1561486f57565b60405162461bcd60e51b815260206004820152600d60248201526c1499599d5b990819985a5b1959609a1b6044820152606490fd5b156148ab57565b60405162461bcd60e51b81526020600482015260166024820152751499599d5b99081d1c985b9cd9995c8819985a5b195960521b6044820152606490fd5b60155460ff90818160301c16614b1b57818160601c169060088210156140825760078214614ab85782811680614aac575b80614aa0575b80614a95575b6149f45760201c82161590816149d5575b50614943575050600090565b60009160018060a01b0316825260186020526040822054151590816149c1575b5061496b5790565b60186020526149816040822054600a5490614224565b611f40908181029181830414901517156149ad5761271090048060255410156149a8575090565b905090565b634e487b7160e01b82526011600452602482fd5b905060266020526040822054161538614963565b60048114915081156149e9575b5038614937565b6006915014386149e2565b5050509060009160018060a01b031682526018602052604082205460126020526040832054602a60205260408420549181811180614a83575b614a3657505050565b614a449291611acb9161485b565b600a546020549061271091820394828611614a6f57506143dc9394614a6891614224565b0490614224565b634e487b7160e01b81526011600452602490fd5b50614a8e828261485b565b8310614a2d565b506024541515614926565b50828160281c16614920565b50828160201c1661491a565b6001600160a01b03909316600090815260186020526040902054905080614ae2575b505050600090565b600a54614aee91614224565b9160201c16614b0b578060255410156143dc57505b388080614ada565b8060235410156143dc5750614b03565b908082169182614b7d575b505080614b5c575b614b385750600090565b6001600160a01b0316600090815260186020526040902054600a546143dc91614224565b506001600160a01b0381166000908152601860205260409020541515614b2e565b60201c1690503880614b26565b15614b9157565b60405162461bcd60e51b815260206004820152601960248201527f506f6f6c20656e642074696d65206e6f742072656163686564000000000000006044820152606490fd5b601580549060ff91828160601c1690600882101561408257600791828114614e2e576001811480614e23575b15614dbf5750506016546009541115614d7b57614c228154421015614b8a565b815460ff60601b1916600760601b1782557f456598f31410bd74ce9e62f22e18454c4264af94fd5752d17b3cebce37d73cdd600080a15b82825460601c1690600882101561408257614c74911461428d565b614c7c615a36565b614c8461569c565b5481811680614d67575b80614d3d575b614c9c575050565b60101c81166144af57600f5416600481101561408257614cfe57600b546001600160a01b0316803b15610da55760008091602460405180948193636382ff5160e11b83523060048401525af180156146db57614cf55750565b6146ca90613f0c565b600b546001600160a01b0316803b15610da55760008091602460405180948193636382ff5160e11b83523060048401525af180156146db57614cf55750565b5081600f54166004811015614082578015908115614d5c575b50614c94565b600191501438614d56565b50600b546001600160a01b03161515614c8e565b606460405162461bcd60e51b815260206004820152602060248201527f506f6f6c206d7573742070726f636565642073656c6563742077696e6e6572736044820152fd5b1580614e18575b614dd1575b50614c59565b614dde8254421015614b8a565b60ff60601b1916600760601b1782557f456598f31410bd74ce9e62f22e18454c4264af94fd5752d17b3cebce37d73cdd600080a138614dcb565b508154421015614dc6565b508254421015614c02565b60405162461bcd60e51b815260206004820152600e60248201526d105b1c9958591e4818db1bdcd95960921b6044820152606490fd5b6027546000906001600160a01b0390811661047057602954610470576007544210156104705780825416331480156150f5575b156104705760155460ff90818160601c166008811015610d655780159081156150ea575b5015610ff05780821680806150ac575b8061509f575b6118755715610ff05766ff0000000000ff60301b1916660500000000000160301b17601555614efe615a36565b614f0661569c565b60155481811680615092575b80615068575b614f58575b50505080600080516020615ea1833981519152817f9331b2a38c658c57a39ea19b2709d928c28a12cc8fbb838d12b85148550f937d93a180a1565b60101c811661506357600f5416600481101561156d57614fe657600b5416803b1561047057818091602460405180948193636382ff5160e11b83523060048401525af180156105cb57614fd2575b507f9331b2a38c658c57a39ea19b2709d928c28a12cc8fbb838d12b85148550f937d905b903880614f1d565b614fdc8291613f0c565b6105d65738614fa6565b90809291600b5416803b15610470578190602460405180968193636382ff5160e11b83523060048401525af1928315615056577f9331b2a38c658c57a39ea19b2709d928c28a12cc8fbb838d12b85148550f937d9293615047575b50614fca565b61505090613f0c565b38615041565b50604051903d90823e3d90fd5b505050565b5081600f54166004811015610d65578015908115615087575b50614f18565b600191501438615081565b5082600b54161515614f12565b50828260201c1615614ed1565b5082600f541660048110156150d65780159081156150cb575b50614ecb565b6001915014386150c5565b634e487b7160e01b86526021600452602486fd5b600191501438614ebb565b5080600c54163314614e97565b1561510957565b60405162461bcd60e51b815260206004820152602260248201527f476174696e672062616c616e636520726571756972656d656e74206e6f74206d604482015261195d60f21b6064820152608490fd5b600019811461420e5760010190565b91908110156126995760051b0190565b1561517f57565b60405162461bcd60e51b815260206004820152601c60248201527f4e6f74206f776e6572206f662073706563696669656420746f6b656e000000006044820152606490fd5b156151cb57565b60405162461bcd60e51b815260206004820152602960248201527f546f6b656e20494420616c726561647920626f756e6420746f20616e6f74686560448201526872206164647265737360b81b6064820152608490fd5b600080546015805490926001600160a01b03928316929160601c60ff166008811015611e9c57600114615655575b83549160ff8360601c16600881101561156d576002811490811561564a575b50156155f65761528560ff8460481c16156142ea565b60165493601a5494615297868261485b565b806152a7600954601b549061485b565b601e8111156155f15750601e5b80601c55116155e8575b50601c549485156155d057506004929160a0917f4ff4e84912750d469e8d0e190997710c06112023943415787c2f744eb09c0da46060601e54926040998a5191825260209b8c8301528a820152a2855163ec644ddd60e01b815293849182905afa80156155c657839184908594869361559d575b5060025460081c1691865190888201926001600160401b03938381108582111761558957895287835288519263125fa26760e31b8b85015251151560248401526024835261537f83613f1f565b88519360c0850190811185821017615589578a969594938993889361541f938d5286528386019788528b8087019a61ffff8093168c526060880163ffffffff9384809316825260808a01936001855260a08b01968752519d8e9c8d9b8c9a634d8e1c2f60e11b8c5260048c01525160248b01525160448a01525116606488015251166084860152511660a48401525160c060c484015260e4830190613f5b565b03925af182918161555a575b5061550d575060019061543c614361565b6308c379a0146154a4575b5061545157505050565b7fab4c58d5f7fcd2f6f276017059fe707292278a4b150b6402c89eb3899a7494ec9161548e61547e6143f0565b9251928284938452830190613f5b565b0390a1805460ff60601b1916600160611b179055565b6154ac61437f565b90816154b9575b50615447565b83518581529092507f1bc0b7451d1b26a4c7bfd7b118b2756c98249ac5f3d51e76be5f33aab54899029181906154f29087830190613f5b565b0390a1835460ff60601b1916600160611b17845538806154b3565b6004819055845463ff0000ff60481b19166c030000010000000000000000001790945550519182527ff81446731d23d202ea16cf590daf64c6087251171612b2adde6acbef4b37580291a1565b9091508481813d8311615582575b6155728183613f3a565b8101031261054e5751903861542b565b503d615568565b634e487b7160e01b89526041600452602489fd5b92509350506155ba915060a03d8111610fde57610fcc8183613f3a565b90949293509138615332565b84513d85823e3d90fd5b60ff60601b1916600160621b17909655505050505050565b601c55386152be565b6152b4565b60405162461bcd60e51b815260206004820152602660248201527f506f6f6c206d75737420626520696e20456e646564206f722044726177696e6760448201526520737461746560d01b6064820152608490fd5b60039150143861526f565b61565d615662565b615250565b6015805460ff60601b1916600160611b1790557fba56b904ffec191559c3639e6019beb8a654605dbf6ba72f33361432a97c2bea600080a1565b60155460ff81169081156145675781615931575b506156b757565b6027546001600160a01b03908116156157e1578060275416604051916370a0823160e01b83523060048401526020928381602481865afa9081156146db576000916157b4575b508061570a575b50505050565b600c5460405163a9059cbb60e01b815292166001600160a01b0316600483015260248201529082908290816000816044810103925af19081156146db57600091615797575b501561575d57808080615704565b6064906040519062461bcd60e51b825260048201526013602482015272151bdad95b881c99599d5b990819985a5b1959606a1b6044820152fd5b6157ae9150823d84116105c4576105b68183613f3a565b3861574f565b908482813d83116157da575b6157ca8183613f3a565b810103126105d6575051386156fd565b503d6157c0565b60ff600f54166004811015614082576003810361585c5750479081615804575050565b60008080938193600c54165af16158196143f0565b501561582157565b60405162461bcd60e51b8152602060048201526013602482015272141c9a5e99481c99599d5b990819985a5b1959606a1b6044820152606490fd5b156158645750565b80600b541690601054906040516331a9108f60e11b8152826004820152602081602481875afa9081156146db576000916158f8575b50811630146158a757505050565b600c541690823b15610da5576040516323b872dd60e01b81523060048201526001600160a01b039290921660248301526044820152906000908290606490829084905af180156146db57614cf55750565b906020823d8211615929575b8161591160209383613f3a565b810103126105d65750615923906141a6565b38615899565b3d9150615904565b60ff915060101c16386156b0565b1561594657565b60405162461bcd60e51b815260206004820152601860248201527f4e6f20737562736372697074696f6e2061737369676e656400000000000000006044820152606490fd5b600060018060a01b038154166003546159a581151561593f565b813b1561054e57604051633d40f28f60e01b81523060048201526024810191909152919081908390818381604481015b03925af19081156128e25750614cf55750565b600060018060a01b03815416600354615a0281151561593f565b813b1561054e5760405163032a136160e11b81523060048201526024810191909152919081908390818381604481016159d5565b600060018060a01b03815416600354615a5081151561593f565b813b1561054e57604051630221a1c360e51b81523060048201526024810191909152919081908390818381604481016159d5565b6000805460405163524d530b60e01b815260209390916001600160a01b039085908490600490829085165afa928315611788578493615b38575b5082161561054e579082916040519085820191635e5bc1c560e11b835281602482015260248152615aee81613f1f565b51925af1615afa6143f0565b5015615b035750565b6064906040519062461bcd60e51b82526004820152600e60248201526d11195c1bdcda5d0819985a5b195960921b6044820152fd5b9092508481813d8311615b68575b615b508183613f3a565b81010312610ff057615b61906141a6565b9138615abe565b503d615b46565b600033815260209160128352604080832054928315615daf57338152601385528181205494858503958514615d9e57602c5485939291906001600160a01b0381169081615bc4575b5050601390338352522055565b60ff91929394955060a01c1660048110156112495786949392919080615c6c57508394509060249181939451928380926370a0823160e01b82523360048301525afa9081156155c6579083929187959491615c33575b5090615c2c601392602d541115615102565b9038615bb7565b828094959650819392503d8311615c65575b615c4f8183613f3a565b8101031261054e57518593929190615c2c615c1a565b503d615c45565b60018103615d075750602e548451627eeac760e11b81523360048201526024810191909152939450919290918290829060449082905afa9081156155c6579083929187959491615cce575b5090615cc9601392602d541115615102565b615c2c565b828094959650819392503d8311615d00575b615cea8183613f3a565b8101031261054e57518593929190615cc9615cb7565b503d615ce0565b600214615d18575b50601390615c2c565b8394509060249181939451928380926370a0823160e01b82523360048301525afa9081156155c6579083929187959491615d65575b5090615d5f601392602d541115615102565b90615d0f565b828094959650819392503d8311615d97575b615d818183613f3a565b8101031261054e57518593929190615d5f615d4d565b503d615d77565b8251630ccaf35d60e41b8152600490fd5b81516358cd4fc160e11b8152600490fd5b601454018060145560095414615dd257565b6015805460ff60601b1916600360611b179055600054604051630425172560e31b815230600482015290602090829060249082906001600160a01b03165afa9081156146db57600091615e2f575b50615e2757565b6146ca61598b565b906020823d8211615e58575b81615e4860209383613f3a565b810103126105d657505138615e20565b3d9150615e3b56fe036b6384b5eca791c62761152d0c79bb0604c104a5fb6f4eb0703f3154bb3db018381720d6efb26847068a65e3be979f1243520b7db6b16331969a7acdb200d5e465c22b8ec96fc194d9a0791b76171272fb36c68a84e2c807ed610cb9c7b9b1358fe4192934d3bf28ae181feda1f4bd08ca67f5e2fad55582cce5eb67304ae9a2646970667358221220ee771b906eeb022a328ea6a5a0ec39d59b5fea90ec6c177623e267548c73d19364736f6c63430008130033",
  "linkReferences": {},
  "deployedLinkReferences": {}
}