{
  "_format": "hh-sol-artifact-1",
  "contractName": "Pool",
  "sourceName": "contracts/Pool.sol",
  "abi": [
    {
      "inputs": [
        {
          "internalType": "address",
          "name": "_factory",
          "type": "address"
        }
      ],
      "stateMutability": "nonpayable",
      "type": "constructor"
    },
    {
      "inputs": [],
      "name": "ContractsCannotPurchase",
      "type": "error"
    },
    {
      "inputs": [],
      "name": "CreatorNotAllowed",
      "type": "error"
    },
    {
      "inputs": [],
      "name": "ExceedsMaxSlots",
      "type": "error"
    },
    {
      "inputs": [],
      "name": "ExceedsSlotLimit",
      "type": "error"
    },
    {
      "inputs": [],
      "name": "ExceedsWinnersCount",
      "type": "error"
    },
    {
      "inputs": [],
      "name": "IncorrectPayment",
      "type": "error"
    },
    {
      "inputs": [],
      "name": "InvalidNonPrizedPurchase",
      "type": "error"
    },
    {
      "inputs": [],
      "name": "InvalidPoolState",
      "type": "error"
    },
    {
      "inputs": [],
      "name": "InvalidPrizeAmount",
      "type": "error"
    },
    {
      "inputs": [],
      "name": "InvalidPrizeCollection",
      "type": "error"
    },
    {
      "inputs": [],
      "name": "InvalidState",
      "type": "error"
    },
    {
      "inputs": [],
      "name": "MintingNotSupported",
      "type": "error"
    },
    {
      "inputs": [],
      "name": "NoPrizesToClaim",
      "type": "error"
    },
    {
      "inputs": [],
      "name": "NotAWinner",
      "type": "error"
    },
    {
      "inputs": [],
      "name": "OnlyOperator",
      "type": "error"
    },
    {
      "inputs": [],
      "name": "PoolDurationElapsed",
      "type": "error"
    },
    {
      "inputs": [],
      "name": "PrizeTransferFailed",
      "type": "error"
    },
    {
      "inputs": [],
      "name": "ProtocolAdminNotAllowed",
      "type": "error"
    },
    {
      "inputs": [],
      "name": "SocialEngagementNotConfigured",
      "type": "error"
    },
    {
      "inputs": [],
      "name": "UnauthorizedCaller",
      "type": "error"
    },
    {
      "inputs": [],
      "name": "ZeroAddress",
      "type": "error"
    },
    {
      "inputs": [],
      "name": "ZeroQuantity",
      "type": "error"
    },
    {
      "inputs": [],
      "name": "ZeroSlotFee",
      "type": "error"
    },
    {
      "anonymous": false,
      "inputs": [
        {
          "indexed": false,
          "internalType": "string",
          "name": "reason",
          "type": "string"
        }
      ],
      "name": "BatchProcessingFailed",
      "type": "event"
    },
    {
      "anonymous": false,
      "inputs": [
        {
          "indexed": false,
          "internalType": "bytes",
          "name": "lowLevelData",
          "type": "bytes"
        }
      ],
      "name": "BatchProcessingFailedBytes",
      "type": "event"
    },
    {
      "anonymous": false,
      "inputs": [],
      "name": "FullRefundEnabledForDeletion",
      "type": "event"
    },
    {
      "anonymous": false,
      "inputs": [
        {
          "indexed": true,
          "internalType": "address",
          "name": "participant",
          "type": "address"
        },
        {
          "indexed": false,
          "internalType": "uint256",
          "name": "amount",
          "type": "uint256"
        }
      ],
      "name": "FullRefundForDeletion",
      "type": "event"
    },
    {
      "anonymous": false,
      "inputs": [
        {
          "indexed": true,
          "internalType": "address",
          "name": "previousOwner",
          "type": "address"
        },
        {
          "indexed": true,
          "internalType": "address",
          "name": "newOwner",
          "type": "address"
        }
      ],
      "name": "OwnershipTransferred",
      "type": "event"
    },
    {
      "anonymous": false,
      "inputs": [
        {
          "indexed": false,
          "internalType": "address",
          "name": "account",
          "type": "address"
        }
      ],
      "name": "Paused",
      "type": "event"
    },
    {
      "anonymous": false,
      "inputs": [],
      "name": "PoolActivated",
      "type": "event"
    },
    {
      "anonymous": false,
      "inputs": [],
      "name": "PoolDeleted",
      "type": "event"
    },
    {
      "anonymous": false,
      "inputs": [],
      "name": "PoolEnded",
      "type": "event"
    },
    {
      "anonymous": false,
      "inputs": [],
      "name": "PoolUnengaged",
      "type": "event"
    },
    {
      "anonymous": false,
      "inputs": [
        {
          "indexed": true,
          "internalType": "address",
          "name": "winner",
          "type": "address"
        },
        {
          "indexed": false,
          "internalType": "uint256",
          "name": "tokenId",
          "type": "uint256"
        }
      ],
      "name": "PrizeClaimed",
      "type": "event"
    },
    {
      "anonymous": false,
      "inputs": [
        {
          "indexed": false,
          "internalType": "uint256",
          "name": "requestId",
          "type": "uint256"
        }
      ],
      "name": "RandomRequested",
      "type": "event"
    },
    {
      "anonymous": false,
      "inputs": [
        {
          "indexed": true,
          "internalType": "address",
          "name": "participant",
          "type": "address"
        },
        {
          "indexed": false,
          "internalType": "uint256",
          "name": "amount",
          "type": "uint256"
        }
      ],
      "name": "RefundClaimed",
      "type": "event"
    },
    {
      "anonymous": false,
      "inputs": [
        {
          "indexed": true,
          "internalType": "address",
          "name": "recipient",
          "type": "address"
        },
        {
          "indexed": false,
          "internalType": "uint256",
          "name": "amount",
          "type": "uint256"
        }
      ],
      "name": "RevenueWithdrawn",
      "type": "event"
    },
    {
      "anonymous": false,
      "inputs": [
        {
          "indexed": true,
          "internalType": "uint256",
          "name": "batchNumber",
          "type": "uint256"
        },
        {
          "indexed": false,
          "internalType": "uint256",
          "name": "participantCount",
          "type": "uint256"
        },
        {
          "indexed": false,
          "internalType": "uint256",
          "name": "shuffleStartIndex",
          "type": "uint256"
        },
        {
          "indexed": false,
          "internalType": "uint256",
          "name": "batchSize",
          "type": "uint256"
        }
      ],
      "name": "SelectionStarted",
      "type": "event"
    },
    {
      "anonymous": false,
      "inputs": [
        {
          "indexed": true,
          "internalType": "address",
          "name": "participant",
          "type": "address"
        },
        {
          "indexed": false,
          "internalType": "uint256",
          "name": "quantity",
          "type": "uint256"
        }
      ],
      "name": "SlotsPurchased",
      "type": "event"
    },
    {
      "anonymous": false,
      "inputs": [
        {
          "indexed": false,
          "internalType": "address",
          "name": "account",
          "type": "address"
        }
      ],
      "name": "Unpaused",
      "type": "event"
    },
    {
      "anonymous": false,
      "inputs": [
        {
          "indexed": false,
          "internalType": "string",
          "name": "reason",
          "type": "string"
        }
      ],
      "name": "VRFRequestFailed",
      "type": "event"
    },
    {
      "anonymous": false,
      "inputs": [
        {
          "indexed": false,
          "internalType": "bytes",
          "name": "lowLevelData",
          "type": "bytes"
        }
      ],
      "name": "VRFRequestFailedBytes",
      "type": "event"
    },
    {
      "anonymous": false,
      "inputs": [
        {
          "indexed": false,
          "internalType": "address[]",
          "name": "winners",
          "type": "address[]"
        }
      ],
      "name": "WinnersSelected",
      "type": "event"
    },
    {
      "inputs": [
        {
          "internalType": "uint256",
          "name": "batchRandomSeed",
          "type": "uint256"
        }
      ],
      "name": "_processBatchWithRandomness",
      "outputs": [],
      "stateMutability": "nonpayable",
      "type": "function"
    },
    {
      "inputs": [],
      "name": "amountPerWinner",
      "outputs": [
        {
          "internalType": "uint256",
          "name": "",
          "type": "uint256"
        }
      ],
      "stateMutability": "view",
      "type": "function"
    },
    {
      "inputs": [],
      "name": "batchCount",
      "outputs": [
        {
          "internalType": "uint256",
          "name": "",
          "type": "uint256"
        }
      ],
      "stateMutability": "view",
      "type": "function"
    },
    {
      "inputs": [
        {
          "internalType": "uint256",
          "name": "",
          "type": "uint256"
        }
      ],
      "name": "batchRandomSeeds",
      "outputs": [
        {
          "internalType": "uint256",
          "name": "",
          "type": "uint256"
        }
      ],
      "stateMutability": "view",
      "type": "function"
    },
    {
      "inputs": [],
      "name": "claimPrize",
      "outputs": [],
      "stateMutability": "nonpayable",
      "type": "function"
    },
    {
      "inputs": [],
      "name": "claimRefund",
      "outputs": [],
      "stateMutability": "nonpayable",
      "type": "function"
    },
    {
      "inputs": [
        {
          "internalType": "address",
          "name": "",
          "type": "address"
        }
      ],
      "name": "claimedWins",
      "outputs": [
        {
          "internalType": "uint256",
          "name": "",
          "type": "uint256"
        }
      ],
      "stateMutability": "view",
      "type": "function"
    },
    {
      "inputs": [],
      "name": "closePool",
      "outputs": [],
      "stateMutability": "nonpayable",
      "type": "function"
    },
    {
      "inputs": [],
      "name": "creationFeePercentage",
      "outputs": [
        {
          "internalType": "uint256",
          "name": "",
          "type": "uint256"
        }
      ],
      "stateMutability": "view",
      "type": "function"
    },
    {
      "inputs": [],
      "name": "creator",
      "outputs": [
        {
          "internalType": "address",
          "name": "",
          "type": "address"
        }
      ],
      "stateMutability": "view",
      "type": "function"
    },
    {
      "inputs": [],
      "name": "currentBatchSize",
      "outputs": [
        {
          "internalType": "uint256",
          "name": "",
          "type": "uint256"
        }
      ],
      "stateMutability": "view",
      "type": "function"
    },
    {
      "inputs": [],
      "name": "deletePool",
      "outputs": [],
      "stateMutability": "nonpayable",
      "type": "function"
    },
    {
      "inputs": [],
      "name": "duration",
      "outputs": [
        {
          "internalType": "uint256",
          "name": "",
          "type": "uint256"
        }
      ],
      "stateMutability": "view",
      "type": "function"
    },
    {
      "inputs": [],
      "name": "endTime",
      "outputs": [
        {
          "internalType": "uint256",
          "name": "",
          "type": "uint256"
        }
      ],
      "stateMutability": "view",
      "type": "function"
    },
    {
      "inputs": [],
      "name": "erc20PrizeAmount",
      "outputs": [
        {
          "internalType": "uint256",
          "name": "",
          "type": "uint256"
        }
      ],
      "stateMutability": "view",
      "type": "function"
    },
    {
      "inputs": [],
      "name": "erc20PrizeToken",
      "outputs": [
        {
          "internalType": "address",
          "name": "",
          "type": "address"
        }
      ],
      "stateMutability": "view",
      "type": "function"
    },
    {
      "inputs": [],
      "name": "erc721EscrowClaimed",
      "outputs": [
        {
          "internalType": "bool",
          "name": "",
          "type": "bool"
        }
      ],
      "stateMutability": "view",
      "type": "function"
    },
    {
      "inputs": [],
      "name": "getParticipantsCount",
      "outputs": [
        {
          "internalType": "uint256",
          "name": "",
          "type": "uint256"
        }
      ],
      "stateMutability": "view",
      "type": "function"
    },
    {
      "inputs": [
        {
          "internalType": "address",
          "name": "participant",
          "type": "address"
        }
      ],
      "name": "getRefundableAmount",
      "outputs": [
        {
          "internalType": "uint256",
          "name": "",
          "type": "uint256"
        }
      ],
      "stateMutability": "view",
      "type": "function"
    },
    {
      "inputs": [],
      "name": "getSlotLimit",
      "outputs": [
        {
          "internalType": "uint256",
          "name": "",
          "type": "uint256"
        }
      ],
      "stateMutability": "view",
      "type": "function"
    },
    {
      "inputs": [
        {
          "internalType": "address",
          "name": "participant",
          "type": "address"
        }
      ],
      "name": "getSlotsPurchased",
      "outputs": [
        {
          "internalType": "uint256",
          "name": "",
          "type": "uint256"
        }
      ],
      "stateMutability": "view",
      "type": "function"
    },
    {
      "inputs": [],
      "name": "getUniqueParticipantsCount",
      "outputs": [
        {
          "internalType": "uint256",
          "name": "",
          "type": "uint256"
        }
      ],
      "stateMutability": "view",
      "type": "function"
    },
    {
      "inputs": [],
      "name": "globalFeeProtocolRevenue",
      "outputs": [
        {
          "internalType": "uint256",
          "name": "",
          "type": "uint256"
        }
      ],
      "stateMutability": "view",
      "type": "function"
    },
    {
      "inputs": [],
      "name": "globalFeeRefundablePool",
      "outputs": [
        {
          "internalType": "uint256",
          "name": "",
          "type": "uint256"
        }
      ],
      "stateMutability": "view",
      "type": "function"
    },
    {
      "inputs": [
        {
          "internalType": "address",
          "name": "",
          "type": "address"
        }
      ],
      "name": "hasClaimedGlobalFeeRefund",
      "outputs": [
        {
          "internalType": "bool",
          "name": "",
          "type": "bool"
        }
      ],
      "stateMutability": "view",
      "type": "function"
    },
    {
      "inputs": [
        {
          "internalType": "address",
          "name": "",
          "type": "address"
        }
      ],
      "name": "hasCompletedSocialEngagement",
      "outputs": [
        {
          "internalType": "bool",
          "name": "",
          "type": "bool"
        }
      ],
      "stateMutability": "view",
      "type": "function"
    },
    {
      "inputs": [],
      "name": "holderTokenAddress",
      "outputs": [
        {
          "internalType": "address",
          "name": "",
          "type": "address"
        }
      ],
      "stateMutability": "view",
      "type": "function"
    },
    {
      "inputs": [],
      "name": "holderTokenId",
      "outputs": [
        {
          "internalType": "uint256",
          "name": "",
          "type": "uint256"
        }
      ],
      "stateMutability": "view",
      "type": "function"
    },
    {
      "inputs": [],
      "name": "holderTokenStandard",
      "outputs": [
        {
          "internalType": "enum PrizeTypes.Standard",
          "name": "",
          "type": "uint8"
        }
      ],
      "stateMutability": "view",
      "type": "function"
    },
    {
      "inputs": [],
      "name": "i_vrfCoordinator",
      "outputs": [
        {
          "internalType": "contract VRFCoordinatorV2PlusInterface",
          "name": "",
          "type": "address"
        }
      ],
      "stateMutability": "view",
      "type": "function"
    },
    {
      "inputs": [
        {
          "internalType": "address",
          "name": "_manager",
          "type": "address"
        },
        {
          "internalType": "string",
          "name": "_name",
          "type": "string"
        },
        {
          "internalType": "bool",
          "name": "_isPrized",
          "type": "bool"
        },
        {
          "internalType": "uint256",
          "name": "_startTime",
          "type": "uint256"
        },
        {
          "internalType": "uint256",
          "name": "_duration",
          "type": "uint256"
        },
        {
          "internalType": "uint256",
          "name": "_winnersCount",
          "type": "uint256"
        },
        {
          "internalType": "bool",
          "name": "_isEscrowedPrize",
          "type": "bool"
        },
        {
          "internalType": "address",
          "name": "_prizeCollection",
          "type": "address"
        },
        {
          "internalType": "address",
          "name": "_creator",
          "type": "address"
        },
        {
          "internalType": "uint256",
          "name": "_slotLimit",
          "type": "uint256"
        },
        {
          "internalType": "uint256",
          "name": "_slotFee",
          "type": "uint256"
        },
        {
          "internalType": "uint256",
          "name": "_maxSlotsPerParticipant",
          "type": "uint256"
        },
        {
          "internalType": "enum PrizeTypes.Standard",
          "name": "_standard",
          "type": "uint8"
        },
        {
          "internalType": "uint256",
          "name": "_prizeTokenId",
          "type": "uint256"
        },
        {
          "internalType": "uint256",
          "name": "_amountPerWinner",
          "type": "uint256"
        },
        {
          "internalType": "address",
          "name": "_erc20PrizeToken",
          "type": "address"
        },
        {
          "internalType": "uint256",
          "name": "_erc20PrizeAmount",
          "type": "uint256"
        },
        {
          "internalType": "uint256",
          "name": "_nativePrizeAmount",
          "type": "uint256"
        },
        {
          "internalType": "bool",
          "name": "_usesCustomFee",
          "type": "bool"
        },
        {
          "internalType": "address",
          "name": "_holderTokenAddress",
          "type": "address"
        },
        {
          "internalType": "enum PrizeTypes.Standard",
          "name": "_holderTokenStandard",
          "type": "uint8"
        },
        {
          "internalType": "uint256",
          "name": "_minHolderTokenBalance",
          "type": "uint256"
        },
        {
          "internalType": "uint256",
          "name": "_holderTokenId",
          "type": "uint256"
        },
        {
          "internalType": "address",
          "name": "_revenueRecipient",
          "type": "address"
        },
        {
          "internalType": "bool",
          "name": "_socialEngagementRequired",
          "type": "bool"
        },
        {
          "internalType": "bool",
          "name": "_isCollabPool",
          "type": "bool"
        }
      ],
      "name": "initialize",
      "outputs": [],
      "stateMutability": "payable",
      "type": "function"
    },
    {
      "inputs": [],
      "name": "isCollabPool",
      "outputs": [
        {
          "internalType": "bool",
          "name": "",
          "type": "bool"
        }
      ],
      "stateMutability": "view",
      "type": "function"
    },
    {
      "inputs": [],
      "name": "isEscrowedPrize",
      "outputs": [
        {
          "internalType": "bool",
          "name": "",
          "type": "bool"
        }
      ],
      "stateMutability": "view",
      "type": "function"
    },
    {
      "inputs": [],
      "name": "isPrized",
      "outputs": [
        {
          "internalType": "bool",
          "name": "",
          "type": "bool"
        }
      ],
      "stateMutability": "view",
      "type": "function"
    },
    {
      "inputs": [],
      "name": "isRefundable",
      "outputs": [
        {
          "internalType": "bool",
          "name": "",
          "type": "bool"
        }
      ],
      "stateMutability": "view",
      "type": "function"
    },
    {
      "inputs": [
        {
          "internalType": "address",
          "name": "",
          "type": "address"
        }
      ],
      "name": "isUniqueParticipant",
      "outputs": [
        {
          "internalType": "bool",
          "name": "",
          "type": "bool"
        }
      ],
      "stateMutability": "view",
      "type": "function"
    },
    {
      "inputs": [],
      "name": "maxSlotsPerParticipant",
      "outputs": [
        {
          "internalType": "uint256",
          "name": "",
          "type": "uint256"
        }
      ],
      "stateMutability": "view",
      "type": "function"
    },
    {
      "inputs": [],
      "name": "minHolderTokenBalance",
      "outputs": [
        {
          "internalType": "uint256",
          "name": "",
          "type": "uint256"
        }
      ],
      "stateMutability": "view",
      "type": "function"
    },
    {
      "inputs": [
        {
          "internalType": "address",
          "name": "winner",
          "type": "address"
        }
      ],
      "name": "mintToWinner",
      "outputs": [],
      "stateMutability": "nonpayable",
      "type": "function"
    },
    {
      "inputs": [],
      "name": "name",
      "outputs": [
        {
          "internalType": "string",
          "name": "",
          "type": "string"
        }
      ],
      "stateMutability": "view",
      "type": "function"
    },
    {
      "inputs": [],
      "name": "nativePrizeAmount",
      "outputs": [
        {
          "internalType": "uint256",
          "name": "",
          "type": "uint256"
        }
      ],
      "stateMutability": "view",
      "type": "function"
    },
    {
      "inputs": [
        {
          "internalType": "address",
          "name": "",
          "type": "address"
        },
        {
          "internalType": "address",
          "name": "",
          "type": "address"
        },
        {
          "internalType": "uint256[]",
          "name": "",
          "type": "uint256[]"
        },
        {
          "internalType": "uint256[]",
          "name": "",
          "type": "uint256[]"
        },
        {
          "internalType": "bytes",
          "name": "",
          "type": "bytes"
        }
      ],
      "name": "onERC1155BatchReceived",
      "outputs": [
        {
          "internalType": "bytes4",
          "name": "",
          "type": "bytes4"
        }
      ],
      "stateMutability": "pure",
      "type": "function"
    },
    {
      "inputs": [
        {
          "internalType": "address",
          "name": "",
          "type": "address"
        },
        {
          "internalType": "address",
          "name": "",
          "type": "address"
        },
        {
          "internalType": "uint256",
          "name": "",
          "type": "uint256"
        },
        {
          "internalType": "uint256",
          "name": "",
          "type": "uint256"
        },
        {
          "internalType": "bytes",
          "name": "",
          "type": "bytes"
        }
      ],
      "name": "onERC1155Received",
      "outputs": [
        {
          "internalType": "bytes4",
          "name": "",
          "type": "bytes4"
        }
      ],
      "stateMutability": "pure",
      "type": "function"
    },
    {
      "inputs": [
        {
          "internalType": "address",
          "name": "",
          "type": "address"
        },
        {
          "internalType": "address",
          "name": "",
          "type": "address"
        },
        {
          "internalType": "uint256",
          "name": "",
          "type": "uint256"
        },
        {
          "internalType": "bytes",
          "name": "",
          "type": "bytes"
        }
      ],
      "name": "onERC721Received",
      "outputs": [
        {
          "internalType": "bytes4",
          "name": "",
          "type": "bytes4"
        }
      ],
      "stateMutability": "pure",
      "type": "function"
    },
    {
      "inputs": [],
      "name": "owner",
      "outputs": [
        {
          "internalType": "address",
          "name": "",
          "type": "address"
        }
      ],
      "stateMutability": "view",
      "type": "function"
    },
    {
      "inputs": [
        {
          "internalType": "uint256",
          "name": "",
          "type": "uint256"
        }
      ],
      "name": "participants",
      "outputs": [
        {
          "internalType": "address",
          "name": "",
          "type": "address"
        }
      ],
      "stateMutability": "view",
      "type": "function"
    },
    {
      "inputs": [],
      "name": "paused",
      "outputs": [
        {
          "internalType": "bool",
          "name": "",
          "type": "bool"
        }
      ],
      "stateMutability": "view",
      "type": "function"
    },
    {
      "inputs": [],
      "name": "pendingProtocolFee",
      "outputs": [
        {
          "internalType": "uint256",
          "name": "",
          "type": "uint256"
        }
      ],
      "stateMutability": "view",
      "type": "function"
    },
    {
      "inputs": [
        {
          "internalType": "address",
          "name": "participant",
          "type": "address"
        }
      ],
      "name": "prizeClaimed",
      "outputs": [
        {
          "internalType": "uint256",
          "name": "",
          "type": "uint256"
        }
      ],
      "stateMutability": "view",
      "type": "function"
    },
    {
      "inputs": [],
      "name": "prizeCollection",
      "outputs": [
        {
          "internalType": "address",
          "name": "",
          "type": "address"
        }
      ],
      "stateMutability": "view",
      "type": "function"
    },
    {
      "inputs": [],
      "name": "prizeTokenId",
      "outputs": [
        {
          "internalType": "uint256",
          "name": "",
          "type": "uint256"
        }
      ],
      "stateMutability": "view",
      "type": "function"
    },
    {
      "inputs": [],
      "name": "prizesClaimedCount",
      "outputs": [
        {
          "internalType": "uint256",
          "name": "",
          "type": "uint256"
        }
      ],
      "stateMutability": "view",
      "type": "function"
    },
    {
      "inputs": [],
      "name": "protocolFeePercentage",
      "outputs": [
        {
          "internalType": "uint256",
          "name": "",
          "type": "uint256"
        }
      ],
      "stateMutability": "view",
      "type": "function"
    },
    {
      "inputs": [],
      "name": "protocolFeeTaken",
      "outputs": [
        {
          "internalType": "bool",
          "name": "",
          "type": "bool"
        }
      ],
      "stateMutability": "view",
      "type": "function"
    },
    {
      "inputs": [
        {
          "internalType": "uint256",
          "name": "quantity",
          "type": "uint256"
        },
        {
          "internalType": "uint256",
          "name": "_nonce",
          "type": "uint256"
        },
        {
          "internalType": "uint256",
          "name": "_deadline",
          "type": "uint256"
        },
        {
          "internalType": "bytes",
          "name": "_signature",
          "type": "bytes"
        },
        {
          "internalType": "uint256[]",
          "name": "_tokenIds",
          "type": "uint256[]"
        }
      ],
      "name": "purchaseSlots",
      "outputs": [],
      "stateMutability": "payable",
      "type": "function"
    },
    {
      "inputs": [],
      "name": "randomRequested",
      "outputs": [
        {
          "internalType": "bool",
          "name": "",
          "type": "bool"
        }
      ],
      "stateMutability": "view",
      "type": "function"
    },
    {
      "inputs": [],
      "name": "randomSeed",
      "outputs": [
        {
          "internalType": "uint256",
          "name": "",
          "type": "uint256"
        }
      ],
      "stateMutability": "view",
      "type": "function"
    },
    {
      "inputs": [],
      "name": "randomnessUsed",
      "outputs": [
        {
          "internalType": "bool",
          "name": "",
          "type": "bool"
        }
      ],
      "stateMutability": "view",
      "type": "function"
    },
    {
      "inputs": [
        {
          "internalType": "uint256",
          "name": "requestId",
          "type": "uint256"
        },
        {
          "internalType": "uint256[]",
          "name": "randomWords",
          "type": "uint256[]"
        }
      ],
      "name": "rawFulfillRandomWords",
      "outputs": [],
      "stateMutability": "nonpayable",
      "type": "function"
    },
    {
      "inputs": [
        {
          "internalType": "address",
          "name": "",
          "type": "address"
        }
      ],
      "name": "refundableAmount",
      "outputs": [
        {
          "internalType": "uint256",
          "name": "",
          "type": "uint256"
        }
      ],
      "stateMutability": "view",
      "type": "function"
    },
    {
      "inputs": [
        {
          "internalType": "address",
          "name": "",
          "type": "address"
        }
      ],
      "name": "refundedNonWinningSlots",
      "outputs": [
        {
          "internalType": "uint256",
          "name": "",
          "type": "uint256"
        }
      ],
      "stateMutability": "view",
      "type": "function"
    },
    {
      "inputs": [],
      "name": "removeFromVRFSubscription",
      "outputs": [],
      "stateMutability": "nonpayable",
      "type": "function"
    },
    {
      "inputs": [],
      "name": "renounceOwnership",
      "outputs": [],
      "stateMutability": "nonpayable",
      "type": "function"
    },
    {
      "inputs": [],
      "name": "requestRandomness",
      "outputs": [],
      "stateMutability": "nonpayable",
      "type": "function"
    },
    {
      "inputs": [],
      "name": "revenueRecipient",
      "outputs": [
        {
          "internalType": "address",
          "name": "",
          "type": "address"
        }
      ],
      "stateMutability": "view",
      "type": "function"
    },
    {
      "inputs": [],
      "name": "s_vrf_callbackGasLimit",
      "outputs": [
        {
          "internalType": "uint32",
          "name": "",
          "type": "uint32"
        }
      ],
      "stateMutability": "view",
      "type": "function"
    },
    {
      "inputs": [],
      "name": "s_vrf_keyHash",
      "outputs": [
        {
          "internalType": "bytes32",
          "name": "",
          "type": "bytes32"
        }
      ],
      "stateMutability": "view",
      "type": "function"
    },
    {
      "inputs": [],
      "name": "s_vrf_lastRequestId",
      "outputs": [
        {
          "internalType": "uint256",
          "name": "",
          "type": "uint256"
        }
      ],
      "stateMutability": "view",
      "type": "function"
    },
    {
      "inputs": [],
      "name": "s_vrf_requestConfirmations",
      "outputs": [
        {
          "internalType": "uint16",
          "name": "",
          "type": "uint16"
        }
      ],
      "stateMutability": "view",
      "type": "function"
    },
    {
      "inputs": [],
      "name": "s_vrf_subscriptionId",
      "outputs": [
        {
          "internalType": "uint256",
          "name": "",
          "type": "uint256"
        }
      ],
      "stateMutability": "view",
      "type": "function"
    },
    {
      "inputs": [],
      "name": "shuffleStartIndex",
      "outputs": [
        {
          "internalType": "uint256",
          "name": "",
          "type": "uint256"
        }
      ],
      "stateMutability": "view",
      "type": "function"
    },
    {
      "inputs": [],
      "name": "slotFee",
      "outputs": [
        {
          "internalType": "uint256",
          "name": "",
          "type": "uint256"
        }
      ],
      "stateMutability": "view",
      "type": "function"
    },
    {
      "inputs": [],
      "name": "slotLimit",
      "outputs": [
        {
          "internalType": "uint256",
          "name": "",
          "type": "uint256"
        }
      ],
      "stateMutability": "view",
      "type": "function"
    },
    {
      "inputs": [
        {
          "internalType": "address",
          "name": "",
          "type": "address"
        }
      ],
      "name": "slotsPurchased",
      "outputs": [
        {
          "internalType": "uint256",
          "name": "",
          "type": "uint256"
        }
      ],
      "stateMutability": "view",
      "type": "function"
    },
    {
      "inputs": [],
      "name": "socialEngagementRequired",
      "outputs": [
        {
          "internalType": "bool",
          "name": "",
          "type": "bool"
        }
      ],
      "stateMutability": "view",
      "type": "function"
    },
    {
      "inputs": [],
      "name": "standard",
      "outputs": [
        {
          "internalType": "enum PrizeTypes.Standard",
          "name": "",
          "type": "uint8"
        }
      ],
      "stateMutability": "view",
      "type": "function"
    },
    {
      "inputs": [],
      "name": "startTime",
      "outputs": [
        {
          "internalType": "uint256",
          "name": "",
          "type": "uint256"
        }
      ],
      "stateMutability": "view",
      "type": "function"
    },
    {
      "inputs": [],
      "name": "state",
      "outputs": [
        {
          "internalType": "enum IPool.PoolState",
          "name": "",
          "type": "uint8"
        }
      ],
      "stateMutability": "view",
      "type": "function"
    },
    {
      "inputs": [
        {
          "internalType": "bytes4",
          "name": "interfaceId",
          "type": "bytes4"
        }
      ],
      "name": "supportsInterface",
      "outputs": [
        {
          "internalType": "bool",
          "name": "",
          "type": "bool"
        }
      ],
      "stateMutability": "view",
      "type": "function"
    },
    {
      "inputs": [
        {
          "internalType": "uint256",
          "name": "",
          "type": "uint256"
        }
      ],
      "name": "tokenIdClaimedBy",
      "outputs": [
        {
          "internalType": "address",
          "name": "",
          "type": "address"
        }
      ],
      "stateMutability": "view",
      "type": "function"
    },
    {
      "inputs": [],
      "name": "totalCreatorRevenue",
      "outputs": [
        {
          "internalType": "uint256",
          "name": "",
          "type": "uint256"
        }
      ],
      "stateMutability": "view",
      "type": "function"
    },
    {
      "inputs": [],
      "name": "totalGlobalFeeRevenue",
      "outputs": [
        {
          "internalType": "uint256",
          "name": "",
          "type": "uint256"
        }
      ],
      "stateMutability": "view",
      "type": "function"
    },
    {
      "inputs": [],
      "name": "totalRefundableAmount",
      "outputs": [
        {
          "internalType": "uint256",
          "name": "",
          "type": "uint256"
        }
      ],
      "stateMutability": "view",
      "type": "function"
    },
    {
      "inputs": [
        {
          "internalType": "address",
          "name": "newOwner",
          "type": "address"
        }
      ],
      "name": "transferOwnership",
      "outputs": [],
      "stateMutability": "nonpayable",
      "type": "function"
    },
    {
      "inputs": [],
      "name": "uniqueParticipantsCount",
      "outputs": [
        {
          "internalType": "uint256",
          "name": "",
          "type": "uint256"
        }
      ],
      "stateMutability": "view",
      "type": "function"
    },
    {
      "inputs": [],
      "name": "usesCustomFee",
      "outputs": [
        {
          "internalType": "bool",
          "name": "",
          "type": "bool"
        }
      ],
      "stateMutability": "view",
      "type": "function"
    },
    {
      "inputs": [],
      "name": "wasDeletedForFullRefund",
      "outputs": [
        {
          "internalType": "bool",
          "name": "",
          "type": "bool"
        }
      ],
      "stateMutability": "view",
      "type": "function"
    },
    {
      "inputs": [
        {
          "internalType": "uint256",
          "name": "",
          "type": "uint256"
        }
      ],
      "name": "winners",
      "outputs": [
        {
          "internalType": "address",
          "name": "",
          "type": "address"
        }
      ],
      "stateMutability": "view",
      "type": "function"
    },
    {
      "inputs": [],
      "name": "winnersCount",
      "outputs": [
        {
          "internalType": "uint256",
          "name": "",
          "type": "uint256"
        }
      ],
      "stateMutability": "view",
      "type": "function"
    },
    {
      "inputs": [],
      "name": "winnersSelected",
      "outputs": [
        {
          "internalType": "uint256",
          "name": "",
          "type": "uint256"
        }
      ],
      "stateMutability": "view",
      "type": "function"
    },
    {
      "inputs": [
        {
          "internalType": "address",
          "name": "",
          "type": "address"
        }
      ],
      "name": "winsPerAddress",
      "outputs": [
        {
          "internalType": "uint256",
          "name": "",
          "type": "uint256"
        }
      ],
      "stateMutability": "view",
      "type": "function"
    },
    {
      "inputs": [],
      "name": "withdrawCreatorRevenue",
      "outputs": [],
      "stateMutability": "nonpayable",
      "type": "function"
    },
    {
      "inputs": [],
      "name": "withdrawEscrowedPrize",
      "outputs": [],
      "stateMutability": "nonpayable",
      "type": "function"
    },
    {
      "inputs": [],
      "name": "withdrawProtocolRevenue",
      "outputs": [],
      "stateMutability": "nonpayable",
      "type": "function"
    }
  ],
  "bytecode": "0x60a034620000bb57601f62005bb138819003918201601f19168301916001600160401b03831184841017620000c057808492602094604052833981010312620000bb57516001600160a01b03908181168103620000bb576000543360018060a01b0319821617600055604051923391167f8be0079c531659141344cd1fd0a4f28419497f9722a3daafe3b4186f6b6457e0600080a36001805560ff1960025416600255608052615ada9081620000d78239608051816121830152f35b600080fd5b634e487b7160e01b600052604160045260246000fdfe608080604052600436101561001357600080fd5b600090813560e01c90816301ffc9a7146149c85750806302d05d3f1461499f5780630631c5c21461498157806306f130561461496357806306fdde03146148905780630852197414613b645780630aa00e70146148725780630b747d91146148545780630b78824b146148365780630e4fa158146148105780630fb5a6b4146147f25780631185321d146147b3578063150b7a021461475c5780631c4edfe114611a895780631d93fa0a14613c7b5780631fe543e314613b9d57806325444fa414613b64578063262f5cf1146137a35780632c1fecfe1461377d5780633197cbb61461375f578063321679fa14613741578063327bb1ad146136a757806335c1d349146136635780633b26314d1461363a578063400214341461325057806342b72afa146132175780634457dba4146131f557806344a90986146131d757806348a3a450146131b157806349713811146131935780634e3ff460146131545780635755248e146131365780635a171677146130f75780635a3b7e42146130d15780635c975abb146130ae5780635d7dd4231461309057806366805de514612eac578063677375c314612e8e578063683d193614612e6b578063696917ba14612e455780636e61a16014612e1f57806370740ac9146128fc578063715018a6146128a2578063726043231461204e57806373ebf86a14612030578063740e21981461200457806378e9792514611fe6578063813e88b914611fc8578063837d112814611fa357806387213c3514611f7d5780638778d82c14611f54578063888dc19814611f36578063898b36db14611f185780638bc5328514611efb5780638bfbbcbe14611be85780638d7fe47814611bc25780638da5cb5b14611b9b5780638e50e50914611b7d5780639dd62cfc14611b595780639ed5c1cc14611b30578063a177ec0914611b03578063a2fb117514611aa7578063a49b85cf14611a89578063a67d0e6c14611a6b578063a9532a531461194b578063ae4b82c114611921578063aebc4550146118f4578063af17425d14611449578063af78ed0a1461142b578063b0b606c0146113f8578063b5545a3c14610dad578063b5ad841214610c05578063bc197c8114610b75578063c19d93fb14610b46578063c2e784bd14610b28578063c3fa0e3b14610b0a578063c913d4ed14610aec578063cabfaa1814610ace578063cc7d49ec14610aa8578063ce38448814610a8a578063d0d11ae814610a6c578063d17d135914610a33578063d447e9bc14610998578063d91043f214610a15578063dbb832bd146109ef578063dc52834e146109d1578063dc8a55c214610998578063e511a11b1461095f578063e6f12cf714610941578063f23a6e61146108e6578063f2fde38b14610858578063f8413b07146105bc578063fb687df4146105935763fd22b17c1461042b57600080fd5b3461059057806003193601126105905780546040516336b87bd760e11b815233600482015290602090829060249082906001600160a01b03165afa908115610585578291610557575b50156105455760185460ff8160581c1660088110156105315760046104999114615409565b60ff829160381c1680610526575b610519575b602b5480610506575b5080156104c8576104c590615979565b80f35b60405162461bcd60e51b81526020600482015260166024820152752737903932bb32b73ab2903a37903a3930b739b332b960511b6044820152606490fd5b61050f91614cb8565b81602b55386104b5565b50603254816032556104ac565b5060325415156104a7565b634e487b7160e01b83526021600452602483fd5b6040516327e1f1e560e01b8152600490fd5b610578915060203d811161057e575b6105708183614aa0565b810190614d1d565b38610474565b503d610566565b6040513d84823e3d90fd5b80fd5b5034610590578060031936011261059057600e546040516001600160a01b039091168152602090f35b5034610590578060031936011261059057600a5442101561084b575b60185460ff8160581c1660088110156105315760028114908115610840575b5080610833575b156107c857601954600c541161076c576020805415610708575b82546040516336b87bd760e11b8152336004820152906001600160a01b039083908390602490829085165afa9182156106fd5785926106de575b5081156106d0575b5080156106bc575b15610680575060ff6106789160481c1615614d35565b6104c5614e4d565b6064906040519062461bcd60e51b82526004820152601560248201527410d85b1b195c881b9bdd08185d5d1a1bdc9a5e9959605a1b6044820152fd5b50338352601d815260408320541515610662565b9050600f541633143861065a565b6106f6919250833d851161057e576105708183614aa0565b9038610652565b6040513d87823e3d90fd5b600a54421015610618576084906040519062461bcd60e51b82526004820152602d60248201527f506f6f6c20656e642074696d65206e6f74207265616368656420666f7220696e60448201526c1a5d1a585b081c995c5d595cdd609a1b6064820152fd5b60405162461bcd60e51b815260206004820152602e60248201527f496e73756666696369656e74207061727469636970616e747320666f7220776960448201526d373732b91039b2b632b1ba34b7b760911b6064820152608490fd5b60405162461bcd60e51b815260206004820152603a60248201527f506f6f6c206d75737420626520696e20456e6465642f44726177696e6720737460448201527f61746520776974682077696e6e6572732072656d61696e696e670000000000006064820152608490fd5b50602054600c54116105fe565b6003915014386105f7565b61085361593f565b6105d8565b503461059057602036600319011261059057610872614b01565b61087a614c05565b6001600160a01b03811615610892576104c590614c5d565b60405162461bcd60e51b815260206004820152602660248201527f4f776e61626c653a206e6577206f776e657220697320746865207a65726f206160448201526564647265737360d01b6064820152608490fd5b50346105905760a036600319011261059057610900614b01565b50610909614b17565b506084356001600160401b03811161093d57610929903690600401614b2d565b505060405163f23a6e6160e01b8152602090f35b5080fd5b50346105905780600319360112610590576020602a54604051908152f35b5034610590576020366003190112610590576020906040906001600160a01b03610987614b01565b168152603183522054604051908152f35b5034610590576020366003190112610590576020906040906001600160a01b036109c0614b01565b168152601683522054604051908152f35b50346105905780600319360112610590576020601054604051908152f35b5034610590578060031936011261059057602060ff60185460381c166040519015158152f35b50346105905780600319360112610590576020602654604051908152f35b5034610590576020366003190112610590576020906040906001600160a01b03610a5b614b01565b168152601583522054604051908152f35b50346105905780600319360112610590576020603054604051908152f35b50346105905780600319360112610590576020602c54604051908152f35b5034610590578060031936011261059057602060ff60185460301c166040519015158152f35b50346105905780600319360112610590576020601954604051908152f35b50346105905780600319360112610590576020600454604051908152f35b50346105905780600319360112610590576020603254604051908152f35b50346105905780600319360112610590576020600654604051908152f35b503461059057806003193601126105905760ff60185460581c1660405190600881101561053157602092508152f35b50346105905760a036600319011261059057610b8f614b01565b50610b98614b17565b506001600160401b03604435818111610c0157610bb9903690600401614b5a565b5050606435818111610c0157610bd3903690600401614b5a565b505060843590811161093d57610bed903690600401614b2d565b505060405163bc197c8160e01b8152602090f35b8280fd5b5034610590578060031936011261059057610c1e61544a565b602480546001600160a01b039081163303610d5d5760ff60185460581c166008811015610d4a5760058114610d3b5760078114610d3b57806004610c6b9214908115610d3f575b50615409565b602854918215610d3b57610c9c610c92612710610c8a602654876153d6565b048095614d81565b9385602855615979565b8380808086868654165af1610caf614e1d565b5015610ceb577f86a5cc8fe9af9ae68fb50f62885307a7755a30cbd290131644377f0bd94a718191602091541692604051908152a26001805580f35b6084906040519062461bcd60e51b825260206004830152808201527f5472616e7366657220746f20726576656e756520726563697069656e742066616044820152631a5b195960e21b6064820152fd5b8380fd5b600691501438610c65565b634e487b7160e01b845260216004528284fd5b60405162461bcd60e51b8152602060048201526023818401527f4f6e6c7920726576656e756520726563697069656e742063616e20776974686460448201526272617760e81b6064820152608490fd5b5034610590578060031936011261059057610dc661544a565b60185460ff90818160581c166008811015806113c7576004821480156113eb575b8181156113db575b81156113b7575b501561137257838360301c16600014610ef457505050338252602090601d8252604083205415610c0157601854908082169182610ee8575b505015610e9457338252601d8152600080516020615a85833981519152610e5c6040842054600d54906153d6565b91338452601d8152836040812055610e838480808087335af1610e7d614e1d565b506154dc565b6040519283523392a25b6001805580f35b6084906040519062461bcd60e51b82526004820152602760248201527f526566756e6473206e6f7420706f737369626c6520666f72207468697320706f6044820152666f6c207479706560c81b6064820152fd5b831c1690503880610e2e565b61135e5760070361108a57503382526020601d815260408320548015610d3b57600d54610f20916153d6565b91601854821c16600014610f845760285490828210610d3b57610f5283600080516020615a8583398151915293614d81565b6028555b338452601d8152836040812055610f768480808087335af1610e7d614e1d565b6040519283523392a2610e8d565b611f40808302908382041483151715611076576127109004610fa68184614d81565b90602c549080821061103157602b5491838310610fec5791610fdc600080516020615a85833981519152959492610fe494614d81565b602c55614d81565b602b55610f56565b60405162461bcd60e51b815260048101869052601d60248201527f496e73756666696369656e742070726f746f636f6c20726576656e75650000006044820152606490fd5b60405162461bcd60e51b815260048101859052601c60248201527f496e73756666696369656e7420726566756e6461626c6520706f6f6c000000006044820152606490fd5b634e487b7160e01b84526011600452602484fd5b9080821680611352575b80611346575b8061133b575b156111a3575050338152601d60205260408120546015602052604082205490603160205260408320549082811180611191575b15610d3b576110ea926110e591614d81565b614d81565b600d54602554906127109182039082821161117d57611114929161110d916153d6565b04826153d6565b90602954808311610d3b578261112991614d81565b602955338352603160205261114360408420918254614cb8565b905561115e8280808085335af1611158614e1d565b506154a0565b604051908152600080516020615a8583398151915260203392a2610e8d565b634e487b7160e01b85526011600452602485fd5b5061119c8382614d81565b82106110d3565b80602092831c16156111b7575b5050610e8d565b338352601d825260408320541561130157338352602d82526040832054166112c457338252601d81526111f16040832054600d54906153d6565b611f40908181029181830414901517156112b057612710900490602c5482811061126b579061122f83600080516020615a8583398151915293614d81565b602c55338452602d815260408420600160ff1982541617905561125b8480808087335af1611158614e1d565b6040519283523392a238806111b0565b60405162461bcd60e51b815260048101839052601860248201527f496e73756666696369656e7420726566756e6420706f6f6c00000000000000006044820152606490fd5b634e487b7160e01b83526011600452602483fd5b6064906040519062461bcd60e51b8252600482015260166024820152751499599d5b9908185b1c9958591e4818db185a5b595960521b6044820152fd5b60405162461bcd60e51b8152600481018390526012602482015271139bc81cdb1bdd1cc81c1d5c98da185cd95960721b6044820152606490fd5b5060295415156110a0565b50808260281c1661109a565b50808260201c16611094565b634e487b7160e01b84526021600452602484fd5b60405162461bcd60e51b815260206004820152601e60248201527f506f6f6c206e6f7420696e206120726566756e6461626c6520737461746500006044820152606490fd5b90506113c7576007821481610df6565b634e487b7160e01b85526021600452602485fd5b90506113c7576005821481610def565b5050600060068214610de7565b503461059057602036600319011261059057602090600435815260368252604060018060a01b0391205416604051908152f35b50346105905780600319360112610590576020602854604051908152f35b503461059057806003193601126105905761146261544a565b600f546001600160a01b0390811661147b338214614cdb565b60ff60185460581c16600881101561135e578060076114a392149081156118e9575b506157bb565b602e54821615611608575080602e5416604051906370a0823160e01b82523060048301526020928383602481855afa9283156106fd5785936115d4575b50821561159c57600f5460405163a9059cbb60e01b815291166001600160a01b031660048201526024810192909252829082908186816044810103925af1908115611591578391611574575b501561153a57506001805580f35b6064906040519062461bcd60e51b825260048201526013602482015272151bdad95b881c99599d5b990819985a5b1959606a1b6044820152fd5b61158b9150823d841161057e576105708183614aa0565b3861152c565b6040513d85823e3d90fd5b60405162461bcd60e51b815260048101859052601060248201526f4e6f20546f6b656e2062616c616e636560801b6044820152606490fd5b9092508381813d8311611601575b6115ec8183614aa0565b810103126115fc575191386114e0565b600080fd5b503d6115e2565b919060ff60125416926004841015610531578360038495146000146116c2575047925050811561168657828080938193600f54165af1611646614e1d565b50610e8d5760405162461bcd60e51b8152602060048201526013602482015272141c9a5e99481c99599d5b990819985a5b1959606a1b6044820152606490fd5b60405162461bcd60e51b8152602060048201526014602482015273496e73756666696369656e742062616c616e636560601b6044820152606490fd5b806117c857505080600e5416601354916040516331a9108f60e11b8152836004820152602081602481865afa80156106fd57859061178e575b6117099150821630146157f7565b600f5416906040519061171b82614a85565b848252803b1561178a576117619385809460405196879586948593635c46a7ef60e11b855230600486015260248501526044840152608060648401526084830190614ac1565b03925af1801561058557611776575050610e8d565b61177f90614a57565b6105905780386111b0565b8480fd5b506020813d82116117c0575b816117a760209383614aa0565b8101031261178a576117bb61170991614ca4565b6116fb565b3d915061179a565b919250906001036118ae57600e54601354604051627eeac760e11b8152306004820152602481018290528594919392909116602082604481845afa9182156106fd578592611878575b5061181d8215156157f7565b6040519361182a85614a85565b858552813b156118745785809461176160405197889687958694637921219560e11b865230600487015260248601526044850152606484015260a0608484015260a4830190614ac1565b8580fd5b945090506020843d82116118a6575b8161189460209383614aa0565b810103126115fc578493519038611811565b3d9150611887565b60405162461bcd60e51b81526020600482015260136024820152724e6f20657363726f7761626c65207072697a6560681b6044820152606490fd5b60059150143861149d565b503461059057806003193601126105905760025460405160089190911c6001600160a01b03168152602090f35b50346105905760203660031901126105905760406020916004358152602283522054604051908152f35b503461059057806003193601126105905760ff60185460581c16600881101590816105315760048114918215611a5d575b8215611a4c575b8215611a27575b5050156119e357805481906001600160a01b0316803b156119e057818091602460405180948193633aaa814760e01b83523060048401525af18015610585576119d05750f35b6119d990614a57565b6105905780f35b50fd5b606460405162461bcd60e51b815260206004820152602060248201527f506f6f6c206d75737420626520696e2061207465726d696e616c2073746174656044820152fd5b909150611a3857600614388061198a565b634e487b7160e01b82526021600452602482fd5b809250610531576005811491611983565b50600781149150600061197c565b50346105905780600319360112610590576020600d54604051908152f35b50346105905780600319360112610590576020601a54604051908152f35b503461059057602036600319011261059057600435601c5481101561093d57601c6000527f0e4562a10381dec21b205ed72637e6b1b523bdd0e4d4d50af5cd23dd4500a21101546040516001600160a01b039091168152602090f35b5034610590578060031936011261059057611b2c60ff60335460a01c1660405191829182614bc1565b0390f35b5034610590578060031936011261059057602e546040516001600160a01b039091168152602090f35b5034610590578060031936011261059057602063ffffffff60055416604051908152f35b50346105905780600319360112610590576020602554604051908152f35b5034610590578060031936011261059057546040516001600160a01b039091168152602090f35b5034610590578060031936011261059057602060ff60185460481c166040519015158152f35b5034610590578060031936011261059057602e546001600160a01b03908116611eaa57603054611e6557600a54421015611e2f5780611c34918354163314908115611e21575b50614cdb565b60185460ff8160581c166008811015610531578015908115611e16575b5015611dc55760ff81168080611d9a575b80611d8c575b611d215715611cdc576bff00000000ff00000000000019166b050000000001000000000000176018557fe465c22b8ec96fc194d9a0791b76171272fb36c68a84e2c807ed610cb9c7b9b18180a17f9331b2a38c658c57a39ea19b2709d928c28a12cc8fbb838d12b85148550f937d8180a180f35b60405162461bcd60e51b815260206004820152601e60248201527f43616e6e6f742064656c657465206e6f6e2d7072697a656420706f6f6c7300006044820152606490fd5b60405162461bcd60e51b815260206004820152603760248201527f43616e6e6f742064656c657465204e46542d7072697a656420706f6f6c73207460448201527f6861742075736520676c6f62616c20736c6f74206665650000000000000000006064820152608490fd5b5060ff8260201c1615611c68565b5060ff60125416600481101561135e578015908115611dba575b50611c62565b600191501438611db4565b60405162461bcd60e51b8152602060048201526024808201527f506f6f6c2063616e6e6f742062652064656c65746564206174207468697320736044820152637461676560e01b6064820152608490fd5b600191501438611c51565b9050600f5416331438611c2e565b60405162461bcd60e51b815260206004820152600e60248201526d141bdbdb081a185cc8195b99195960921b6044820152606490fd5b60405162461bcd60e51b815260206004820152601b60248201527f5468697320706f6f6c2063616e6e6f742062652064656c6574656400000000006044820152606490fd5b60405162461bcd60e51b8152602060048201526024808201527f45524332302d7072697a656420706f6f6c732063616e6e6f742062652064656c604482015263195d195960e21b6064820152608490fd5b503461059057806003193601126105905760208054604051908152f35b50346105905780600319360112610590576020601154604051908152f35b50346105905780600319360112610590576020601754604051908152f35b50346105905780600319360112610590576033546040516001600160a01b039091168152602090f35b5034610590578060031936011261059057602060ff60185460401c166040519015158152f35b5034610590578060031936011261059057602060185460ff60405191831c1615158152f35b50346105905780600319360112610590576020601454604051908152f35b50346105905780600319360112610590576020600954604051908152f35b5034610590576020366003190112610590576020612028612023614b01565b615521565b604051908152f35b50346105905780600319360112610590576020602b54604051908152f35b5061034036600319011261059057612064614b01565b602435906001600160401b038211610c015736602383011215610c01578282600401359261209184614bea565b9361209f6040519586614aa0565b8085523660248284010111610c01578060246020930183870137840101526044359081151582036115fc5760c4359081151582036115fc5760e435906001600160a01b03821682036115fc57610104356001600160a01b03811690036115fc576004610184351015611874576101e435916001600160a01b03831683036115fc57610244359283151584036115fc5761026435966001600160a01b03881688036115fc57600461028435101561289e576102e4356001600160a01b03811690036115fc5761030435151561030435036115fc5761032435151561032435036115fc577f00000000000000000000000000000000000000000000000000000000000000006001600160a01b031633036128595788546001600160a01b031661281e576121c984614c5d565b600f80546001600160a01b031916610104356001600160a01b039081169190911790915560405163ec644ddd60e01b81528a9160a090829060049082908a165afa90811561058557828390849285946127a7575b509161ffff949163ffffffff9360025490610100600160a81b039060081b1690610100600160a81b031916176002556003556004551663ffffffff1960055416176005551661ffff1960075416176007558051906001600160401b03821161279357819061228c600854614a1d565b601f8111612721575b50602090601f83116001146126ab578b926126a0575b50508160011b916000199060031b1c1916176008555b6122d8606435806009556084359081600b55614cb8565b600a5560a435600c556018805460ff19811688151560ff161790915561014435600d556101643560105560408051631a35245160e31b815291949190816004816001600160a01b0386165afa8015612695578a918b91612652575b50602655602555600e80546001600160a01b0319166001600160a01b038581169190911790915561012435601155600498602092918116612611575b506102e4356001600160a01b031615612608576102e4355b602480546001600160a01b03199081166001600160a01b0393841617909155602e805490911685831617905561020435602f5561022435603055604051636f6f8c5d60e01b8152998a9290918391165afa9687156125fd5788976125c9575b50610224351561251557505050505050610144350361059057600360ff1960125416176012556201000062ff00001960185416176018555b60185460ff811680612508575b156124cd575060ff601254166004811015611a3857600114806124be575b1561249a5760ff60281b19601854166018555b60185468ff000000000000000061030435151560401b16906bff0000ff00000000ff00000019161763ff00000061032435151560181b161760185580f35b6001600c541160ff60281b6018549160281b169060ff60281b19161760185561245c565b5060ff60185460101c16612449565b60ff8160201c16156000146124f757506501000000000060ff60281b19601854161760185561245c565b65ff0000000000191660185561245c565b5060ff8160201c1661242b565b6001600160a01b031615612554575050505050610144350361059057600260ff1960125416176012556201000062ff000019601854161760185561241e565b93945091929091906001600160a01b0316612573575b5050505061241e565b60ff64ff0000000062ff000093151560201b16941515169064ff00ff00ff19161791151560101b16171760185560ff196012541660ff6101843516176012556101a4356013556101c4356014553880808061256a565b9096506020813d6020116125f5575b816125e560209383614aa0565b810103126115fc575195386123e6565b3d91506125d8565b6040513d8a823e3d90fd5b61010435612387565b603380546001600160a81b0319166001600160a01b03909216919091176102843560a01b60ff60a01b161790556102a4356034556102c4356035553861236f565b929150506040823d60401161268d575b8161266f60409383614aa0565b810103126126895781516020928301519192909190612333565b8980fd5b3d9150612662565b6040513d8c823e3d90fd5b0151905038806122ab565b925060088b52600080516020615a65833981519152908b935b601f1984168510612706576001945083601f198116106126ed575b505050811b016008556122c1565b015160001960f88460031b161c191690553880806126df565b818101518355602094850194600190930192909101906126c4565b90915060088b52601f830160051c600080516020615a65833981519152016020841061277e575b908392915b601f820160051c600080516020615a658339815191520181106127705750612295565b8c815584935060010161274d565b50600080516020615a65833981519152612748565b634e487b7160e01b8a52604160045260248afd5b94505050505060a0813d8211612816575b816127c560a09383614aa0565b81010312612689576127d681614ca4565b60208201519060408301519260608101519063ffffffff8216820361281257608001519061ffff8216820361281257939092909161ffff61221d565b8d80fd5b3d91506127b8565b60405162461bcd60e51b8152602060048201526013602482015272105b1c9958591e481a5b9a5d1a585b1a5e9959606a1b6044820152606490fd5b60405162461bcd60e51b815260206004820152601b60248201527f4f6e6c7920666163746f72792063616e20696e697469616c697a6500000000006044820152606490fd5b8880fd5b50346105905780600319360112610590576128bb614c05565b600080546001600160a01b0319811682556001600160a01b03167f8be0079c531659141344cd1fd0a4f28419497f9722a3daafe3b4186f6b6457e08280a380f35b503461059057806003193601126105905761291561544a565b60ff60185460581c166008811015611a3857600461293391146157bb565b3381526020601581526040822054908115612e0d57338352601681526040832054808303908314612dfb576033546001600160a01b0391908281169081612c58575b505081602e54169160ff6012541690600e5416600c54953388526016865260408820558260175401601755831515600014612a715750506129b884602f546153e9565b02908115612a5f5760405163a9059cbb60e01b8152336004820152602481019290925282908290604490829088905af1918215612a54578492612a37575b505015612a25575b60175414612a0d576001805580f35b6018805460ff60581b1916600360591b179055610e8d565b60405163880a149160e01b8152600490fd5b612a4d9250803d1061057e576105708183614aa0565b38806129f6565b6040513d86823e3d90fd5b604051630193f71f60e51b8152600490fd5b919350915060048210156113c75760038203612ab7575050612a95826030546153e9565b028015612a5f578280808093335af1612aac614e1d565b5015612a25576129fe565b90918115612c4657849260ff60185460101c16600014612b8d57612b315750601354813b15610c01578291606483926040519485938492632142170760e11b845230600485015233602485015260448401525af1801561058557612b1d575b50506129fe565b612b2690614a57565b61093d578138612b16565b6014540260135490823b15610d3b5760c48492836040519586948593637921219560e11b85523060048601523360248601526044850152606484015260a060848401528160a48401525af1801561058557612b1d5750506129fe565b80612bd4575090803b15610c01576040516340c10f1960e01b8152336004820152602481019290925282908290604490829084905af1801561058557612b1d5750506129fe565b600114612be4575b5050506129fe565b6013549060145402823b15610d3b57604051630ab714fb60e11b8152336004820152602481019290925260448201529082908290606490829084905af1801561058557612c32575b80612bdc565b612c3b90614a57565b61093d578138612c2c565b60405163424ca23960e01b8152600490fd5b60a01c60ff166004811015612de757849080612ce957506040516370a0823160e01b815233600482015291829060249082905afa8015612cde578690612caf575b612ca891506034541115615843565b3880612975565b508381813d8311612cd7575b612cc58183614aa0565b810103126115fc57612ca89051612c99565b503d612cbb565b6040513d88823e3d90fd5b60018103612d695750603554604051627eeac760e11b8152336004820152602481019190915291829060449082905afa8015612cde578690612d3a575b612d3591506034541115615843565b612ca8565b508381813d8311612d62575b612d508183614aa0565b810103126115fc57612d359051612d26565b503d612d46565b600214612d78575b5050612ca8565b6040516370a0823160e01b815233600482015291829060249082905afa8015612cde578690612db8575b612db191506034541115615843565b3883612d71565b508381813d8311612de0575b612dce8183614aa0565b810103126115fc57612db19051612da2565b503d612dc4565b634e487b7160e01b87526021600452602487fd5b604051630ccaf35d60e41b8152600490fd5b6040516358cd4fc160e11b8152600490fd5b5034610590578060031936011261059057602060ff60185460081c166040519015158152f35b5034610590578060031936011261059057602060ff60185460101c166040519015158152f35b5034610590578060031936011261059057602060ff601854166040519015158152f35b50346105905780600319360112610590576020602954604051908152f35b503461059057806003193601126105905760185460ff8160581c1660088110156105315760078114613052576001811480613046575b15612fe0575050601954600c541115612f9c57612f03600a5442101561576f565b6018805460ff60581b1916600760581b1790557f456598f31410bd74ce9e62f22e18454c4264af94fd5752d17b3cebce37d73cdd8180a15b60ff60185460581c166008811015611a3857600703612f575780f35b60405162461bcd60e51b815260206004820152601e60248201527f506f6f6c2063616e6e6f74206265206d616e75616c6c7920636c6f73656400006044820152606490fd5b606460405162461bcd60e51b815260206004820152602060248201527f506f6f6c206861732073756666696369656e74207061727469636970616e74736044820152fd5b158061303a575b612ff2575b50612f3b565b613000600a5442101561576f565b60ff60581b1916600760581b176018557f456598f31410bd74ce9e62f22e18454c4264af94fd5752d17b3cebce37d73cdd8180a138612fec565b50600a54421015612fe7565b50600a54421015612ee2565b60405162461bcd60e51b8152602060048201526016602482015275141bdbdb081a5cc8185b1c9958591e4818db1bdcd95960521b6044820152606490fd5b50346105905780600319360112610590576020600354604051908152f35b5034610590578060031936011261059057602060ff600254166040519015158152f35b5034610590578060031936011261059057611b2c60ff6012541660405191829182614bc1565b50346105905760203660031901126105905760209060ff906040906001600160a01b03613122614b01565b168152601b84522054166040519015158152f35b50346105905780600319360112610590576020603454604051908152f35b50346105905760203660031901126105905760209060ff906040906001600160a01b0361317f614b01565b168152603784522054166040519015158152f35b50346105905780600319360112610590576020600c54604051908152f35b5034610590578060031936011261059057602060ff60185460501c166040519015158152f35b50346105905780600319360112610590576020602154604051908152f35b5034610590578060031936011261059057602061ffff60075416604051908152f35b5034610590576020366003190112610590576020906040906001600160a01b0361323f614b01565b168152602783522054604051908152f35b50346105905760208060031936011261093d5760043590303303613605576023548352602281528160408420556132886023546153c7565b60235560215490601f5490601954936132a08461521a565b906132ae6040519283614aa0565b8482526132ba8561521a565b8284019490601f1901368637875b86811061350257505050855b848110613458575061330a6018549469ff00000000000000000019861660185561330081601f54614cb8565b601f558354614cb8565b92838355604051918383019084845251809152604083019190885b8582821061343b575050505090807f32a1b5731a757f192a06ca973715ca4dbc42c2d15323cabaa74e0a2d5dc088e4920390a1600c549182116134345762ff00ff60481b1983166001605a1b17601881905560ff84169182613426575b5081613417575b81613408575b5061339b575b50505080f35b6133b56133be916b04000000010000000000000094614d81565b600d54906153d6565b6127106133cd602554836153d6565b046133e46133db8284614d81565b92602854614d81565b6028556032556029556bff00ff00ff00000000000000191617601855388080613395565b60ff915060381c16153861338f565b905060ff8160281c1690613389565b81901c60ff16915038613382565b5050505080f35b83516001600160a01b031685529384019390920191600101613325565b6001600160a01b0361346a8284615231565b511690601c918254600160401b8110156134ec57600181018085558110156134d6576134d1936000527f0e4562a10381dec21b205ed72637e6b1b523bdd0e4d4d50af5cd23dd4500a21101906bffffffffffffffffffffffff60a01b8254161790556153c7565b6132d4565b634e487b7160e01b600052603260045260246000fd5b634e487b7160e01b600052604160045260246000fd5b613510816110e5848b614d81565b604051868101908582528360408201526040815261352d81614a6a565b5190209061353b8385614cb8565b9181156135f1576135596135ec94936135a1936135c0930690614cb8565b61356281614b8a565b9054600391821b1c6001600160a01b03908116949185613582888d615231565b52613595613590888b614cb8565b614b8a565b9054911b1c1691614b8a565b90919082549060031b9160018060a01b03809116831b921b1916179055565b6135d1816135a16135908588614cb8565b8a526015865260408a206135e581546153c7565b90556153c7565b6132c8565b634e487b7160e01b8c52601260045260248cfd5b6064906040519062461bcd60e51b82526004820152600e60248201526d13db9b1e481cd95b198b58d85b1b60921b6044820152fd5b50346105905780600319360112610590576024546040516001600160a01b039091168152602090f35b5034610590576020366003190112610590576004359060195482101561059057602061368e83614b8a565b905460405160039290921b1c6001600160a01b03168152f35b50346105905780600319360112610590578054600e54604051635aa35d2560e11b81526001600160a01b0391821615156004820152929160209184916024918391165afa9081156137355790613703575b602090604051908152f35b506020813d821161372d575b8161371c60209383614aa0565b810103126115fc57602090516136f8565b3d915061370f565b604051903d90823e3d90fd5b50346105905780600319360112610590576020602f54604051908152f35b50346105905780600319360112610590576020600a54604051908152f35b5034610590578060031936011261059057602060ff60185460281c166040519015158152f35b50346105905760208060031936011261093d576137be614b01565b906137c761544a565b6018549160ff8360581c1660088110156113c757600403613b525760ff601254169160018060a01b039182600e541692600c549581600f541633036139ec575b508315612c465781169283875260158352604087205415612e0d57838752601583526040872054946016845260408820548087039614612dfb57868660175401116139da5760048110156139c65787929190806139085750803b15610c01576040516340c10f1960e01b81526001600160a01b039290921660048301526024820186905282908290604490829084905af18015610585576138f4575b5050816016927f95681e512bc0fe659e195e06c283eada494316f3d801213e48e7101af92bf77083604051898152a25b85525260408320818154019055601754018060175514612a0d576001805580f35b6138fd90614a57565b61178a5784386138a3565b919250906001036139b4578691856014540260135492803b1561178a57604051630ab714fb60e11b81526001600160a01b03939093166004840152602483019390935260448201529082908290606490829084905af18015610585576139a0575b5050816016927f95681e512bc0fe659e195e06c283eada494316f3d801213e48e7101af92bf77083601354604051908152a26138d3565b6139a990614a57565b61178a578438613969565b60405163fd34e50560e01b8152600490fd5b634e487b7160e01b88526021600452602488fd5b60405163170554d560e01b8152600490fd5b602484838a5416604051928380926336b87bd760e11b82523360048301525afa908115613b47578991613b2a575b506138075760181c60ff1615613a70578660048610156139c657819086613abe575050604051638da5cb5b60e01b81528381600481885afa80156125fd5782918991613a82575b505b163303613a705738613807565b604051635c427cd960e01b8152600490fd5b809250858092503d8311613ab7575b613a9b8183614aa0565b81010312613ab357613aad8291614ca4565b38613a61565b8780fd5b503d613a91565b60018703613a63575050604051638da5cb5b60e01b81528381600481885afa80156125fd5782918991613af2575b50613a63565b809250858092503d8311613b23575b613b0b8183614aa0565b81010312613ab357613b1d8291614ca4565b38613aec565b503d613b01565b613b419150853d871161057e576105708183614aa0565b38613a1a565b6040513d8b823e3d90fd5b604051631a1889b760e01b8152600490fd5b5034610590576020366003190112610590576020906040906001600160a01b03613b8c614b01565b168152601d83522054604051908152f35b5034610590576040366003190112610590576024356001600160401b03811161093d57613bce903690600401614b5a565b60025460081c6001600160a01b03163303613c3657613bec8161521a565b91613bfa6040519384614aa0565b8183526020918284019060051b82019136831161187457905b828210613c2757856104c586600435615245565b81358152908301908301613c13565b60405162461bcd60e51b815260206004820181905260248201527f4f6e6c792056524620436f6f7264696e61746f722063616e2066756c66696c6c6044820152606490fd5b5060a0366003190112610590576001600160401b03606435818111610c0157613ca8903690600401614b2d565b9091608435908111610d3b57613cc2903690600401614b5a565b919092613ccd61544a565b60185460ff8160581c166008811015612de75715614719575b5060185460ff8160581c166008811015612de7576001036146e2573332036146d15733156146bf57600435156146ad57600d54801561469b57613d2c90600435906153d6565b340361468957600a5442101561467757613d4a600435601954614cb8565b6011541061466557338652601d602052613d6a6004356040882054614cb8565b601054106146535760ff8116158061461d575b61460b578554604051638da5cb5b60e01b81526001600160a01b039091169190602081600481865afa9081156125fd5788916145d1575b506001600160a01b031633146145bf57600f546001600160a01b031633146145ae5760401c60ff1680614597575b614472575b50506033546001600160a01b038116915081613f24575b50505050338152601d602052604081206004358154019055805b6004358110613edc5750338152601b60205260408120805460ff811615613ec2575b505060185460201c60ff16613eb5576005340434602a5401602a5580602b5401602b553403602c5401602c555b60195460115414613ea8575b60405160043581527ffd1903a7f9f31de6cf38a88eda98ae029aeba3b2ec48a599d7c0d900f0f335cb60203392a26001805580f35b613eb0614e4d565b613e73565b3460285401602855613e67565b60019060ff19161790556001601a5401601a553880613e3a565b60195490600160401b8210156134ec57613f1e613f00836001809501601955614b8a565b81546001600160a01b0360039290921b91821b19163390911b179055565b01613e18565b60a01c60ff1660048110156113c75780614363575050801561431257603454600181036140a7575060011161404b57356024602060018060a01b0360335416604051928380926331a9108f60e11b82528660048301525afa8015611591578390614010575b613f9e91506001600160a01b03163314615895565b80825260366020526040822054613fc8906001600160a01b03168015908115614006575b506158e1565b815260366020526040812080546001600160a01b03811615613ff1575b50505b38808080613dfe565b6001600160a01b031916331790553880613fe5565b9050331438613fc2565b506020813d602011614043575b8161402a60209383614aa0565b81010312610c015761403e613f9e91614ca4565b613f89565b3d915061401d565b60405162461bcd60e51b815260206004820152602e60248201527f546f6b656e20494420726571756972656420666f722073696e676c6520746f6b60448201526d195b881c995c5d5a5c995b595b9d60921b6064820152608490fd5b60018111156142c35780821061427e57835b8181106141d8575050825b6034548110156141d057806140dc6024928486615885565b35602060018060a01b0360335416604051948580926331a9108f60e11b82528560048301525afa928315612cde57869361418f575b506141759261412a906001600160a01b03163314615895565b8086526036908160205261415360018060a01b03604089205416801590811561400657506158e1565b86526020526040852080546001600160a01b0381161561417a575b50506153c7565b6140c4565b6001600160a01b03191633179055388061416e565b92506020833d6020116141c8575b816141aa60209383614aa0565b810103126118745761412a6141c161417594614ca4565b9350614111565b3d915061419d565b505050613fe8565b6001810180821161426a575b8281106141fa57506141f5906153c7565b6140b9565b614205828587615885565b35614211828688615885565b351461422557614220906153c7565b6141e4565b60405162461bcd60e51b815260206004820152601f60248201527f4475706c696361746520746f6b656e20494473206e6f7420616c6c6f776564006044820152606490fd5b634e487b7160e01b86526011600452602486fd5b60405162461bcd60e51b815260206004820152601f60248201527f496e73756666696369656e7420746f6b656e204944732070726f7669646564006044820152606490fd5b60405162461bcd60e51b815260206004820152602160248201527f496e76616c696420746f6b656e2062616c616e636520726571756972656d656e6044820152601d60fa1b6064820152608490fd5b60405162461bcd60e51b8152602060048201526024808201527f546f6b656e2049447320726571756972656420666f722045524337323120676160448201526374696e6760e01b6064820152608490fd5b9092509050600181036143f05750603554604051627eeac760e11b8152336004820152602481019190915290602090829060449082905afa80156105855782906143bc575b6143b791506034541115615843565b613fe8565b506020813d6020116143e8575b816143d660209383614aa0565b810103126115fc576143b790516143a8565b3d91506143c9565b6002146143fe575b50613fe8565b6020602491604051928380926370a0823160e01b82523360048301525afa801561058557829061443e575b61443891506034541115615843565b386143f8565b506020813d60201161446a575b8161445860209383614aa0565b810103126115fc576144389051614429565b3d915061444b565b602060049160405192838092636b90bda960e01b82525afa908115612cde57869161455d575b506001600160a01b031690811561454b578186923b15610c015783918360c460405180978196829563cffc18eb60e01b84523360048501523060248501526024356044850152604435606485015260a060848501528160a4850152848401378181018301849052601f01601f191681010301925af18015612a5457614538575b50338352603760205260408320805460ff19166001179055388080613de7565b61454490939193614a57565b9138614518565b6040516343361aaf60e01b8152600490fd5b90506020813d60201161458f575b8161457860209383614aa0565b810103126118745761458990614ca4565b38614498565b3d915061456b565b50338652603760205260ff60408720541615613de2565b60405162ca6a8360e51b8152600490fd5b604051635f2a002d60e11b8152600490fd5b90506020813d602011614603575b816145ec60209383614aa0565b81010312613ab3576145fd90614ca4565b38613db4565b3d91506145df565b604051631274fa9d60e31b8152600490fd5b5060ff8160201c168015614646575b80613d7d5750338652601d60205260408620541515613d7d565b506001600435141561462c565b604051637145fa7b60e01b8152600490fd5b6040516302edeeb760e31b8152600490fd5b60405163fd2a413d60e01b8152600490fd5b60405163569e8c1160e01b8152600490fd5b60405163d2100d7360e01b8152600490fd5b60405163f4f5b73360e01b8152600490fd5b60405163d92e233d60e01b8152600490fd5b60405162c44f5760e51b8152600490fd5b60405162461bcd60e51b815260206004820152600f60248201526e506f6f6c206e6f742061637469766560881b6044820152606490fd5b6009544210613ce65760ff60581b1916600160581b176018557f3d31b97eef590df350bb2cdbc390034c613c9f23ea6ae1906682628c85248b538580a138613ce6565b503461059057608036600319011261059057614776614b01565b5061477f614b17565b506064356001600160401b03811161093d5761479f903690600401614b2d565b5050604051630a85bd0160e11b8152602090f35b50346105905760203660031901126105905760209060ff906040906001600160a01b036147de614b01565b168152602d84522054166040519015158152f35b50346105905780600319360112610590576020600b54604051908152f35b5034610590578060031936011261059057602060ff60185460181c166040519015158152f35b50346105905780600319360112610590576020601354604051908152f35b50346105905780600319360112610590576020601e54604051908152f35b50346105905780600319360112610590576020603554604051908152f35b503461059057806003193601126105905760405190806008546148b281614a1d565b8085529160019180831690811561493957506001146148f0575b611b2c856148dc81870382614aa0565b604051918291602083526020830190614ac1565b925060088352600080516020615a658339815191525b8284106149215750505081016020016148dc82611b2c6148cc565b80546020858701810191909152909301928101614906565b869550611b2c969350602092506148dc94915060ff191682840152151560051b82010192936148cc565b50346105905780600319360112610590576020602354604051908152f35b50346105905780600319360112610590576020601f54604051908152f35b5034610590578060031936011261059057600f546040516001600160a01b039091168152602090f35b90503461093d57602036600319011261093d5760043563ffffffff60e01b8116809103610c015760209250630a85bd0160e11b8114908115614a0c575b5015158152f35b630271189760e51b14905038614a05565b90600182811c92168015614a4d575b6020831014614a3757565b634e487b7160e01b600052602260045260246000fd5b91607f1691614a2c565b6001600160401b0381116134ec57604052565b606081019081106001600160401b038211176134ec57604052565b602081019081106001600160401b038211176134ec57604052565b90601f801991011681019081106001600160401b038211176134ec57604052565b919082519283825260005b848110614aed575050826000602080949584010152601f8019910116010190565b602081830181015184830182015201614acc565b600435906001600160a01b03821682036115fc57565b602435906001600160a01b03821682036115fc57565b9181601f840112156115fc578235916001600160401b0383116115fc57602083818601950101116115fc57565b9181601f840112156115fc578235916001600160401b0383116115fc576020808501948460051b0101116115fc57565b6019548110156134d65760196000527f944998273e477b495144fb8794c914197f3ccb46be2900f4698fd0ef743c96950190600090565b919060208301926004821015614bd45752565b634e487b7160e01b600052602160045260246000fd5b6001600160401b0381116134ec57601f01601f191660200190565b6000546001600160a01b03163303614c1957565b606460405162461bcd60e51b815260206004820152602060248201527f4f776e61626c653a2063616c6c6572206973206e6f7420746865206f776e65726044820152fd5b600080546001600160a01b039283166001600160a01b03198216811783559216907f8be0079c531659141344cd1fd0a4f28419497f9722a3daafe3b4186f6b6457e09080a3565b51906001600160a01b03821682036115fc57565b91908201809211614cc557565b634e487b7160e01b600052601160045260246000fd5b15614ce257565b60405162461bcd60e51b81526020600482015260136024820152722ab730baba3437b934bd32b21031b0b63632b960691b6044820152606490fd5b908160209103126115fc575180151581036115fc5790565b15614d3c57565b60405162461bcd60e51b815260206004820152601960248201527f5265717565737420616c726561647920696e20666c69676874000000000000006044820152606490fd5b91908203918211614cc557565b60009060033d11614d9b57565b905060046000803e60005160e01c90565b600060443d10614e0957604051600319913d83016004833e81516001600160401b03918282113d602484011117614e0c57818401948551938411614e14573d85010160208487010111614e0c5750614e0992910160200190614aa0565b90565b949350505050565b50949350505050565b3d15614e48573d90614e2e82614bea565b91614e3c6040519384614aa0565b82523d6000602084013e565b606090565b601860ff815460581c166008811015614bd45760011461520d575b805460ff8160581c166008811015614bd45760028114908115615202575b50156151ae57614e9c60ff8260481c1615614d35565b60195490601f5490614eae8284614d81565b92600c549380614ec2602096875490614d81565b601e8111156151a95750601e5b80602155116151a0575b5060215491821561518a575060607f4ff4e84912750d469e8d0e190997710c06112023943415787c2f744eb09c0da4916023549360409586519283528783015285820152a2600254600454600354600754600554855161ffff9283169560081c6001600160a01b03169263ffffffff926001600160401b039290841691908a8101848111828210176134ec578a526000815289519063125fa26760e31b8c830152511515602482015260248152614f8f81614a6a565b89519460c08601948511868610176134ec578a818d9a95615020958c9760009985528a52878a019b8c52838a019d8e5260608a0191825260808a01936001855260a08b01968752519d8e9c8d9b8c9a634d8e1c2f60e11b8c5260048c01525160248b01525160448a01525116606488015251166084860152511660a48401525160c060c484015260e4830190614ac1565b03925af16000918161515b575b5061510c5750600161503d614d8e565b6308c379a0146150a4575b61505157505050565b7fab4c58d5f7fcd2f6f276017059fe707292278a4b150b6402c89eb3899a7494ec9161508e61507e614e1d565b9251928284938452830190614ac1565b0390a1805460ff60581b1916600160591b179055565b6150ac614dac565b806150b8575b50615048565b90507f1bc0b7451d1b26a4c7bfd7b118b2756c98249ac5f3d51e76be5f33aab54899026150f2600092845191829187835287830190614ac1565b0390a1835460ff60581b1916600160591b178455386150b2565b907ff81446731d23d202ea16cf590daf64c6087251171612b2adde6acbef4b37580293826006556b0300010000000000000000006bff00ff0000000000000000001982541617905551908152a1565b90918482813d8311615183575b6151728183614aa0565b81010312610590575051903861502d565b503d615168565b60ff60581b19166001605a1b1790945550505050565b60215538614ed9565b614ecf565b60405162461bcd60e51b815260206004820152602660248201527f506f6f6c206d75737420626520696e20456e646564206f722044726177696e6760448201526520737461746560d01b6064820152608490fd5b600391501438614e86565b61521561593f565b614e68565b6001600160401b0381116134ec5760051b60200190565b80518210156134d65760209160051b010190565b6002546000919060081c6001600160a01b03163303613c3657600654036153b0576018805460ff60501b1916600160501b17815582519092901561539c576020015190303b156105905760405191631000850d60e21b83526004830152808260248183305af1918261538d575b5090615389576001906152c3614d8e565b6308c379a01461531a575b506152d65750565b7fbccec8509a79ecd26780c2699a3ca2503c3a3455b361b5fcda5760593edb03c96153026148dc614e1d565b0390a1805462ff00ff60481b1916600160591b179055565b615322614dac565b908161532f575b506152ce565b7fbcd905a8eb4cc473497e2cd24cf41334ea7fad80c354380f8fff04a025b1e5f891925061536c9092604051918291602083526020830190614ac1565b0390a1815462ff00ff60481b1916600160591b1782553880615329565b5050565b61539690614a57565b386152b2565b634e487b7160e01b82526032600452602482fd5b50506018805460ff60581b1916600160591b179055565b6000198114614cc55760010190565b81810292918115918404141715614cc557565b81156153f3570490565b634e487b7160e01b600052601260045260246000fd5b1561541057565b60405162461bcd60e51b8152602060048201526012602482015271141bdbdb081b9bdd0818dbdb5c1b195d195960721b6044820152606490fd5b60026001541461545b576002600155565b60405162461bcd60e51b815260206004820152601f60248201527f5265656e7472616e637947756172643a207265656e7472616e742063616c6c006044820152606490fd5b156154a757565b60405162461bcd60e51b815260206004820152600d60248201526c1499599d5b990819985a5b1959609a1b6044820152606490fd5b156154e357565b60405162461bcd60e51b81526020600482015260166024820152751499599d5b99081d1c985b9cd9995c8819985a5b195960521b6044820152606490fd5b60185460ff90818160301c1661570057818160581c16906008821015614bd457600782146156ce57828116806156c2575b806156b6575b806156ab575b61561e5760201c82161590816155ff575b5061557b575050600090565b60009160018060a01b03168252601d6020526040822054151590816155eb575b506155a35790565b601d6020526155b96040822054600d54906153d6565b90611f40918281029281840414901517156155d75750612710900490565b634e487b7160e01b81526011600452602490fd5b9050602d602052604082205416153861559b565b6004811491508115615613575b503861556f565b60069150143861560c565b5050509060009160018060a01b03168252601d602052604082205460156020526040832054603160205260408420549181811180615699575b61566057505050565b61566e92916110e591614d81565b600d5460255490612710918203948286116155d75750614e099394615692916153d6565b04906153d6565b506156a48282614d81565b8310615657565b50602954151561555e565b50828160281c16615558565b50828160201c16615552565b5050506001600160a01b03166000908152601d6020526040902054806156f45750600090565b600d54614e09916153d6565b908082169182615762575b505080615741575b61571d5750600090565b6001600160a01b03166000908152601d6020526040902054600d54614e09916153d6565b506001600160a01b0381166000908152601d60205260409020541515615713565b60201c169050388061570b565b1561577657565b60405162461bcd60e51b815260206004820152601960248201527f506f6f6c20656e642074696d65206e6f742072656163686564000000000000006044820152606490fd5b156157c257565b60405162461bcd60e51b815260206004820152600d60248201526c496e76616c696420737461746560981b6044820152606490fd5b156157fe57565b60405162461bcd60e51b815260206004820152601760248201527f5072697a6520616c72656164792077697468647261776e0000000000000000006044820152606490fd5b1561584a57565b60405162461bcd60e51b815260206004820152601360248201527214995c5d5a5c995b595b9d081b9bdd081b595d606a1b6044820152606490fd5b91908110156134d65760051b0190565b1561589c57565b60405162461bcd60e51b815260206004820152601c60248201527f4e6f74206f776e6572206f662073706563696669656420746f6b656e000000006044820152606490fd5b156158e857565b60405162461bcd60e51b815260206004820152602960248201527f546f6b656e20494420616c726561647920626f756e6420746f20616e6f74686560448201526872206164647265737360b81b6064820152608490fd5b6018805460ff60581b1916600160591b1790557fba56b904ffec191559c3639e6019beb8a654605dbf6ba72f33361432a97c2bea600080a1565b6000805460405163524d530b60e01b815260209390916001600160a01b039085908490600490829085165afa928315612a54578493615a2d575b50821615610c01579082916040519085820191635e5bc1c560e11b8352816024820152602481526159e381614a6a565b51925af16159ef614e1d565b50156159f85750565b6064906040519062461bcd60e51b82526004820152600e60248201526d11195c1bdcda5d0819985a5b195960921b6044820152fd5b9092508481813d8311615a5d575b615a458183614aa0565b81010312610d3b57615a5690614ca4565b91386159b3565b503d615a3b56fef3f7a9fe364faab93b216da50a3214154f22a0a2b415b23a84c8169e8b636ee3358fe4192934d3bf28ae181feda1f4bd08ca67f5e2fad55582cce5eb67304ae9a2646970667358221220b39d21bc70531e463f539ac09ebc03c8fd9b63df70786b3ff2fc1a987a5696ca64736f6c63430008130033",
  "linkReferences": {},
  "deployedLinkReferences": {}
}