{
  "_format": "hh-sol-artifact-1",
  "contractName": "PoolDeployer",
  "sourceName": "contracts/PoolDeployer.sol",
  "abi": [
    {
      "inputs": [
        {
          "internalType": "address",
          "name": "_poolImplementation",
          "type": "address"
        },
        {
          "internalType": "address",
          "name": "_manager",
          "type": "address"
        }
      ],
      "stateMutability": "nonpayable",
      "type": "constructor"
    },
    {
      "anonymous": false,
      "inputs": [
        {
          "indexed": true,
          "internalType": "address",
          "name": "previousOwner",
          "type": "address"
        },
        {
          "indexed": true,
          "internalType": "address",
          "name": "newOwner",
          "type": "address"
        }
      ],
      "name": "OwnershipTransferred",
      "type": "event"
    },
    {
      "anonymous": false,
      "inputs": [
        {
          "indexed": true,
          "internalType": "address",
          "name": "pool",
          "type": "address"
        },
        {
          "indexed": true,
          "internalType": "address",
          "name": "creator",
          "type": "address"
        }
      ],
      "name": "PoolCreated",
      "type": "event"
    },
    {
      "anonymous": false,
      "inputs": [
        {
          "indexed": true,
          "internalType": "address",
          "name": "poolImplementation",
          "type": "address"
        }
      ],
      "name": "PoolImplementationUpdated",
      "type": "event"
    },
    {
      "anonymous": false,
      "inputs": [
        {
          "indexed": true,
          "internalType": "address",
          "name": "pool",
          "type": "address"
        },
        {
          "indexed": false,
          "internalType": "string",
          "name": "description",
          "type": "string"
        },
        {
          "indexed": false,
          "internalType": "string",
          "name": "twitterLink",
          "type": "string"
        },
        {
          "indexed": false,
          "internalType": "string",
          "name": "discordLink",
          "type": "string"
        },
        {
          "indexed": false,
          "internalType": "string",
          "name": "telegramLink",
          "type": "string"
        }
      ],
      "name": "PoolMetadataSet",
      "type": "event"
    },
    {
      "anonymous": false,
      "inputs": [
        {
          "indexed": true,
          "internalType": "address",
          "name": "collection",
          "type": "address"
        }
      ],
      "name": "PrizeCollectionCreated",
      "type": "event"
    },
    {
      "inputs": [
        {
          "components": [
            {
              "internalType": "string",
              "name": "name",
              "type": "string"
            },
            {
              "internalType": "uint256",
              "name": "startTime",
              "type": "uint256"
            },
            {
              "internalType": "uint256",
              "name": "duration",
              "type": "uint256"
            },
            {
              "internalType": "uint256",
              "name": "slotLimit",
              "type": "uint256"
            },
            {
              "internalType": "uint256",
              "name": "winnersCount",
              "type": "uint256"
            },
            {
              "internalType": "uint256",
              "name": "maxSlotsPerParticipant",
              "type": "uint256"
            },
            {
              "internalType": "bool",
              "name": "isPrized",
              "type": "bool"
            },
            {
              "internalType": "uint256",
              "name": "customSlotFee",
              "type": "uint256"
            },
            {
              "internalType": "bool",
              "name": "erc721Drop",
              "type": "bool"
            },
            {
              "internalType": "bool",
              "name": "erc1155Drop",
              "type": "bool"
            },
            {
              "internalType": "address",
              "name": "prizeCollection",
              "type": "address"
            },
            {
              "internalType": "enum PrizeTypes.Standard",
              "name": "standard",
              "type": "uint8"
            },
            {
              "internalType": "uint256",
              "name": "prizeTokenId",
              "type": "uint256"
            },
            {
              "internalType": "uint256",
              "name": "amountPerWinner",
              "type": "uint256"
            },
            {
              "internalType": "string",
              "name": "collectionName",
              "type": "string"
            },
            {
              "internalType": "string",
              "name": "collectionSymbol",
              "type": "string"
            },
            {
              "internalType": "string",
              "name": "collectionBaseURI",
              "type": "string"
            },
            {
              "internalType": "address",
              "name": "creator",
              "type": "address"
            },
            {
              "internalType": "uint256",
              "name": "royaltyPercentage",
              "type": "uint256"
            },
            {
              "internalType": "address",
              "name": "royaltyRecipient",
              "type": "address"
            },
            {
              "internalType": "uint256",
              "name": "maxSupply",
              "type": "uint256"
            },
            {
              "internalType": "address",
              "name": "erc20PrizeToken",
              "type": "address"
            },
            {
              "internalType": "uint256",
              "name": "erc20PrizeAmount",
              "type": "uint256"
            },
            {
              "internalType": "uint256",
              "name": "nativePrizeAmount",
              "type": "uint256"
            },
            {
              "internalType": "enum PrizeTypes.RevealType",
              "name": "revealType",
              "type": "uint8"
            },
            {
              "internalType": "string",
              "name": "unrevealedBaseURI",
              "type": "string"
            },
            {
              "internalType": "uint256",
              "name": "revealTime",
              "type": "uint256"
            },
            {
              "internalType": "address",
              "name": "holderTokenAddress",
              "type": "address"
            },
            {
              "internalType": "enum PrizeTypes.Standard",
              "name": "holderTokenStandard",
              "type": "uint8"
            },
            {
              "internalType": "uint256",
              "name": "minHolderTokenBalance",
              "type": "uint256"
            },
            {
              "internalType": "uint256",
              "name": "holderTokenBalance",
              "type": "uint256"
            },
            {
              "internalType": "uint256",
              "name": "holderTokenId",
              "type": "uint256"
            },
            {
              "internalType": "bool",
              "name": "socialEngagementRequired",
              "type": "bool"
            },
            {
              "internalType": "string",
              "name": "socialTaskDescription",
              "type": "string"
            },
            {
              "internalType": "string",
              "name": "description",
              "type": "string"
            },
            {
              "internalType": "string",
              "name": "twitterLink",
              "type": "string"
            },
            {
              "internalType": "string",
              "name": "discordLink",
              "type": "string"
            },
            {
              "internalType": "string",
              "name": "telegramLink",
              "type": "string"
            }
          ],
          "internalType": "struct PoolDeployer.PoolParams",
          "name": "p",
          "type": "tuple"
        }
      ],
      "name": "createPool",
      "outputs": [
        {
          "internalType": "address",
          "name": "",
          "type": "address"
        }
      ],
      "stateMutability": "payable",
      "type": "function"
    },
    {
      "inputs": [],
      "name": "getEnumValues",
      "outputs": [
        {
          "internalType": "uint256",
          "name": "",
          "type": "uint256"
        },
        {
          "internalType": "uint256",
          "name": "",
          "type": "uint256"
        },
        {
          "internalType": "uint256",
          "name": "",
          "type": "uint256"
        },
        {
          "internalType": "uint256",
          "name": "",
          "type": "uint256"
        }
      ],
      "stateMutability": "pure",
      "type": "function"
    },
    {
      "inputs": [
        {
          "internalType": "address",
          "name": "",
          "type": "address"
        },
        {
          "internalType": "address",
          "name": "",
          "type": "address"
        },
        {
          "internalType": "uint256[]",
          "name": "",
          "type": "uint256[]"
        },
        {
          "internalType": "uint256[]",
          "name": "",
          "type": "uint256[]"
        },
        {
          "internalType": "bytes",
          "name": "",
          "type": "bytes"
        }
      ],
      "name": "onERC1155BatchReceived",
      "outputs": [
        {
          "internalType": "bytes4",
          "name": "",
          "type": "bytes4"
        }
      ],
      "stateMutability": "pure",
      "type": "function"
    },
    {
      "inputs": [
        {
          "internalType": "address",
          "name": "",
          "type": "address"
        },
        {
          "internalType": "address",
          "name": "",
          "type": "address"
        },
        {
          "internalType": "uint256",
          "name": "",
          "type": "uint256"
        },
        {
          "internalType": "uint256",
          "name": "",
          "type": "uint256"
        },
        {
          "internalType": "bytes",
          "name": "",
          "type": "bytes"
        }
      ],
      "name": "onERC1155Received",
      "outputs": [
        {
          "internalType": "bytes4",
          "name": "",
          "type": "bytes4"
        }
      ],
      "stateMutability": "pure",
      "type": "function"
    },
    {
      "inputs": [
        {
          "internalType": "address",
          "name": "",
          "type": "address"
        },
        {
          "internalType": "address",
          "name": "",
          "type": "address"
        },
        {
          "internalType": "uint256",
          "name": "",
          "type": "uint256"
        },
        {
          "internalType": "bytes",
          "name": "",
          "type": "bytes"
        }
      ],
      "name": "onERC721Received",
      "outputs": [
        {
          "internalType": "bytes4",
          "name": "",
          "type": "bytes4"
        }
      ],
      "stateMutability": "pure",
      "type": "function"
    },
    {
      "inputs": [],
      "name": "owner",
      "outputs": [
        {
          "internalType": "address",
          "name": "",
          "type": "address"
        }
      ],
      "stateMutability": "view",
      "type": "function"
    },
    {
      "inputs": [],
      "name": "poolImplementation",
      "outputs": [
        {
          "internalType": "address",
          "name": "",
          "type": "address"
        }
      ],
      "stateMutability": "view",
      "type": "function"
    },
    {
      "inputs": [],
      "name": "protocolManager",
      "outputs": [
        {
          "internalType": "address",
          "name": "",
          "type": "address"
        }
      ],
      "stateMutability": "view",
      "type": "function"
    },
    {
      "inputs": [],
      "name": "renounceOwnership",
      "outputs": [],
      "stateMutability": "nonpayable",
      "type": "function"
    },
    {
      "inputs": [
        {
          "internalType": "bytes4",
          "name": "interfaceId",
          "type": "bytes4"
        }
      ],
      "name": "supportsInterface",
      "outputs": [
        {
          "internalType": "bool",
          "name": "",
          "type": "bool"
        }
      ],
      "stateMutability": "view",
      "type": "function"
    },
    {
      "inputs": [
        {
          "internalType": "address",
          "name": "newOwner",
          "type": "address"
        }
      ],
      "name": "transferOwnership",
      "outputs": [],
      "stateMutability": "nonpayable",
      "type": "function"
    },
    {
      "inputs": [],
      "name": "transferOwnershipToManager",
      "outputs": [],
      "stateMutability": "nonpayable",
      "type": "function"
    },
    {
      "inputs": [
        {
          "internalType": "address",
          "name": "_poolImplementation",
          "type": "address"
        }
      ],
      "name": "updatePoolImplementation",
      "outputs": [],
      "stateMutability": "nonpayable",
      "type": "function"
    }
  ],
  "bytecode": "0x608034620000cc57601f620051fa38819003918201601f19168301916001600160401b03831184841017620000d1578084926040948552833981010312620000cc576200005a60206200005283620000e7565b9201620000e7565b60008054336001600160a01b0319808316821784556040519590946001600160a01b03949093859391908416907f8be0079c531659141344cd1fd0a4f28419497f9722a3daafe3b4186f6b6457e09080a316836001541617600155169060025416176002556150fd9081620000fd8239f35b600080fd5b634e487b7160e01b600052604160045260246000fd5b51906001600160a01b0382168203620000cc5756fe6101a080604052600436101561001457600080fd5b60006101405260003560e01c90816301ffc9a71461477357508063065bc36f146146c0578063150b7a02146146695780636c8da47214614635578063715018a6146145d45780638da5cb5b146145aa578063a9dd23051461453d578063ab4b669214614511578063bc197c8114614485578063be79567e146101d6578063cefa7799146101a7578063f23a6e61146101505763f2fde38b146100b557600080fd5b34610149576020366003190112610149576100ce6147c6565b6100d6614851565b6001600160a01b038116156100f5576100ee906148a9565b6101405180f35b60405162461bcd60e51b815260206004820152602660248201527f4f776e61626c653a206e6577206f776e657220697320746865207a65726f206160448201526564647265737360d01b6064820152608490fd5b6101405180fd5b346101495760a0366003190112610149576101696147c6565b506101726147dc565b5060843567ffffffffffffffff8111610149576101939036906004016147f2565b505060405163f23a6e6160e01b8152602090f35b346101495761014051806003193601126101d3576001546040516001600160a01b039091168152602090f35b80fd5b60203660031901126101495767ffffffffffffffff60043511610149576104c060043536036003190112610149573332036144345760018060a01b036002541660c052604051630fbeef3760e11b815260208160048160c0515afa908115610ec95761014051916143fa575b50806143e4575b614243575b61025d61040460043501614949565b61014051901561423e57506040516356d2e09960e11b815260208160048160c0515afa908115610ec957610140519161420c575b505b60405190636f6f8c5d60e01b825260208260048160c0515afa918215610ec95761014051926141d8575b506101405180826141d0575b6102d760c460043501614949565b806141b2575b614182575b50908134106141335780613fee575b506004610164813501351015610149576101405191610164600435013515918280158060e052613fdd575b8015613fc8575b613ee5575b6040516320a72b6560e11b815260208160048160c0515afa908115610ec9576101405191613eab575b50613e6f5742602460043501351115613e045761037260c460043501614949565b60405190635aa35d2560e11b82521515600482015260208160248160c0515afa908115610ec9576101405191613dd2575b5060405190639d0f5ef160e01b825260408260048160c0515afa918215610ec9576101405192613daf575b506064600435013510613d6a576064600435013511613d25576084600435013515613ce057606460043501356084600435013511613ca4576004356084013560648181029182049003613ae757601e6064600435013581810292918184041490151715613ae75711613c4f576040518060a081011067ffffffffffffffff60a083011117613c355760a08101604052610140518152610140516020820152610140516040820152610140516060820152610140516080820152604051639d0f5ef160e01b815260408160048160c0515afa8015610ec95761014051918291613c14575b5060208301528152604051632f3dc77560e11b815260408160048160c0515afa8015610ec95761014051918291613be3575b5060608301526040820152604051630547dd4760e31b815260208160048160c0515afa908115610ec9576101405191613bb1575b506080820152604081015160446004350135101580613b9d575b15613b655760a46004350135151580918192613b50575b5015613b015761055c60c460043501614949565b613a43575b61014051908160a05260e4600435013515159384908361058560c460043501614949565b156138b557506040516367dcf14760e11b815260208160048160c0515afa908115610ec957610140519161387b575b501561381d5781156138175760e460043501355b60a0525b60a051156137db576e5af43d82803e903d91602b57fd5bf3600154763d602d80600a3d3981f3363d3d373d3d3d363d7300000062ffffff8260881c161761014051526effffffffffffffffffffffffffffff199060781b16176020526037600961014051f06101608190526001600160a01b03161561379d5761065461014460043501614a54565b608052610140516101805261066e61040460043501614949565b613660575b8761068260c460043501614949565b611778575b5050505061069a61022460043501614a54565b856106aa61010460043501614949565b8015611763575b80611743575b611626575b5060405195630f6e867360e01b87526020876004816101405160c0515af1968715610ec95761014051976115ed575b5060c0513b1561014957604051630802bb2f60e41b815261014051610160516001600160a01b031660048301526024820189905281806044810103816101405160c0515af18015610ec9576115d7575b506101495761014051918260043561016401356003036115d157506102e46004350135925b6002546001600160a01b03169561077b6004803501806149c1565b94909761078c60c460043501614949565b9561079c61022460043501614a54565b60009a6107ae6102a460043501614a54565b926107be61036460043501614a54565b9460046103848135013510156115cd576107dd61040460043501614949565b610160519099906001600160a01b03163b156101d357509061082d92916040518061010052637260432360e01b9052600461010051015261034060246101005101526103446101005101916149f4565b97151560446101005101526024600435013560646101005101526044600435013560846101005101526084600435013560a461010051015261018051151560c461010051015260018060a01b036080511660e461010051015260018060a01b03166101046101005101526064600435013561012461010051015260a05161014461010051015260a460043501356101646101005101526101846108dc8161010051016101646004350135614e3f565b6101a49060043501358161010051015260043501356101c461010051015260018060a01b03166101e46101005101526102c4908160043501356102046101005101526102e493846004350135610224610100510152151561024461010051015260018060a01b031661026461010051015261096561028461010051016103846004350135614e3f565b6103a460043501356102a46101005101526103e460043501359061010051015260018060a01b03169061010051015215156103046101005101521515610324610100510152610140519161010051808093039160018060a01b0361016051165af18015610ec9576115b2575b6109db9034614c03565b80611534575b506101405190816109f660c460043501614949565b80611520575b80611501575b6114f9575b610a1560c460043501614949565b61109c575b819250610a2b60c460043501614949565b80611088575b610fb3575b50506101495760e051610fa2575b8015610f8d575b610f19575b60c0513b156101495760405163032a136160e11b815261014051610160516001600160a01b0316600483015260248201929092529081806044810103816101405160c0515af18015610ec957610f03575b5060c0513b15610149576040516355ec842360e11b8152610160516001600160a01b031660048201526101405160c0518290602490829084905af18015610ec957610eed575b50610af761022460043501614a54565b60c0513b15610149576040516372c76f9760e01b8152610160516001600160a01b03908116600483015290911660248201526101405160c0518290604490829084905af18015610ec957610ed7575b5060c0513b156101495760405163472c175b60e01b815261014051610160516001600160a01b0316600483015242602483015281806044810103816101405160c0515af18015610ec957610eb3575b506001600160a01b03610bad60043561022401614a54565b166040519060018060a01b0361016051167f4f2ce4e40f623ca765fc0167a25cb7842ceaafb8d82d3dec26ca0d0e0d2d48966101405180a361044460043501906103e8610bff836004356004016149c1565b905011610e7a57506104646004350160c8610c1f826004356004016149c1565b905011610e3d57610484600435019060c8610c3f836004356004016149c1565b905011610e00576104a4600435019260c8610c5f856004356004016149c1565b905011610dc257610c75816004356004016149c1565b1580159150610da9575b8015610d90575b8015610d77575b610ca9575b604051610160516001600160a01b03168152602090f35b610d6b7f4e2fb815c48f38871c1a97680d69ecfc7db86ce1f02e00f1f438d6bdbb92b3a093610d4d610d0996610d17610d3f610ced610cfb976004356004016149c1565b9790986004356004016149c1565b9a90956004356004016149c1565b9290936004356004016149c1565b95909a610d316040519a8b9a60808c5260808c01916149f4565b9189830360208b01526149f4565b9186830360408801526149f4565b8381036060850152610160516001600160a01b0316969091906149f4565b0390a280808080610c92565b50610d87846004356004016149c1565b90501515610c8d565b50610da0836004356004016149c1565b90501515610c86565b50610db9826004356004016149c1565b90501515610c7f565b60405162461bcd60e51b815260206004820152601660248201527554656c656772616d206c696e6b20746f6f206c6f6e6760501b6044820152606490fd5b60405162461bcd60e51b8152602060048201526015602482015274446973636f7264206c696e6b20746f6f206c6f6e6760581b6044820152606490fd5b60405162461bcd60e51b815260206004820152601560248201527454776974746572206c696e6b20746f6f206c6f6e6760581b6044820152606490fd5b62461bcd60e51b81526020600482015260146024820152734465736372697074696f6e20746f6f206c6f6e6760601b6044820152606490fd5b610ebc906148f0565b610140518015610b955780fd5b6040513d61014051823e3d90fd5b610ee0906148f0565b610140518015610b465780fd5b610ef6906148f0565b610140518015610ae75780fd5b610f0c906148f0565b610140518015610aa15780fd5b610f276004803501806149c1565b60c0513b1561014957610f5b91604051809381926334314da360e01b835260206004840152610140519460248401916149f4565b03816101405160c0515af18015610ec957610f77575b50610a50565b610f80906148f0565b610140518015610f715780fd5b50610f9c60c460043501614949565b15610a4b565b506001610164600435013514610a44565b15610fda5761014957610fd3610164600435013561016051608051615007565b8084610a36565b50600254604051631a74b3f360e01b81526080516001600160a01b039081166004830152909160209183916024918391165afa8015610ec9578291610140519161104c575b5061102b575b50610fd3565b61014957611046610164600435013561016051608051615007565b80611025565b9150506020813d602011611080575b816110686020938361491a565b810103126101495761107a829161493c565b8561101f565b3d915061105b565b506080516001600160a01b03161515610a31565b6110ab61010460043501614949565b92836114d7575b836114cb575b82936000146112ac575090506110d361014460043501614a54565b604051631a74b3f360e01b81526001600160a01b03909116600482015260c051602090829060249082905afa908115610ec9576101405191611272575b5015611192575b6080516001600160a01b03163b1561014957604051631c38258960e01b8152610160516001600160a01b039081166004830152610140516080519293929091849160249183918591165af1918215610ec9578392611176575b50610a1a565b6111819192506148f0565b61014051806101d357908291611170565b602460206001600160a01b036111ad60043561014401614a54565b6040516301ffc9a760e01b81526340c10f1960e01b600482015293849290918391165afa908115610ec9576101405191611238575b506111175760405162461bcd60e51b815260206004820152602360248201527f436f6c6c656374696f6e206c61636b73206261746368206d696e7420737570706044820152621bdc9d60ea1b6064820152608490fd5b90506020813d60201161126a575b816112536020938361491a565b81010312610149576112649061493c565b856111e2565b3d9150611246565b90506020813d6020116112a4575b8161128d6020938361491a565b810103126101495761129e9061493c565b85611110565b3d9150611280565b6112bb61012460043501614949565b90816114a9575b8161148d575b5015610a1a5790506112df61014460043501614a54565b604051631a74b3f360e01b81526001600160a01b03909116600482015260c051602090829060249082905afa908115610ec9576101405191611453575b5015611380576080516001600160a01b03163b1561014957604051631c38258960e01b8152610160516001600160a01b039081166004830152610140516080519293929091849160249183918591165af1918215610ec95783926111765750610a1a565b602460206001600160a01b0361139b60043561014401614a54565b6040516301ffc9a760e01b8152630ab714fb60e11b600482015293849290918391165afa908115610ec9576101405191611419575b5061111757606460405162461bcd60e51b815260206004820152602060248201527f436f6c6c656374696f6e206c61636b73206d696e74696e6720737570706f72746044820152fd5b90506020813d60201161144b575b816114346020938361491a565b81010312610149576114459061493c565b856113d0565b3d9150611427565b90506020813d602011611485575b8161146e6020938361491a565b810103126101495761147f9061493c565b8561131c565b3d9150611461565b919290506101d3575081906001610164600435013514866112c8565b90506001600160a01b036114c260043561014401614a54565b161515906112c2565b849350600092506110b8565b92506001600160a01b036114f060043561014401614a54565b161515926110b2565b506001610a07565b506001600160a01b0361151960043561014401614a54565b1615610a02565b506080516001600160a01b031615156109fc565b610140518080809361154b61022460043501614a54565b5af1611555614991565b501561156157836109e1565b60405162461bcd60e51b8152602060048201526024808201527f457863657373206e61746976652063757272656e637920726566756e642066616044820152631a5b195960e21b6064820152608490fd5b6115be610100516148f0565b61014051806101d357506109d1565b8880fd5b92610760565b6115e0906148f0565b61014051801561073b5780fd5b9096506020813d60201161161e575b816116096020938361491a565b81010312611619575195876106eb565b600080fd5b3d91506115fc565b6101495784156116df57600460206001600160a01b0361164a833561014401614a54565b1660405192838092638da5cb5b60e01b82525afa908115610ec95761014051916116b0575b505b61168061022460043501614a54565b6001600160a01b0382811691161415806116a9575b6116a1575b50856106bc565b90508661169a565b5084611695565b6116d2915060203d6020116116d8575b6116ca818361491a565b810190614956565b8761166f565b503d6116c0565b600460206001600160a01b036116f9833561014401614a54565b1660405192838092638da5cb5b60e01b82525afa908115610ec9576101405191611724575b50611671565b61173d915060203d6020116116d8576116ca818361491a565b8761171e565b506001600160a01b0361175b60043561014401614a54565b1615156106b7565b5061177361012460043501614949565b6106b1565b610149576004356101640135600203611b02575061179b6102a460043501614a54565b604051630fc1bb8d60e01b81526001600160a01b03909116600482015260c051602090829060249082905afa908115610ec9576101405191611ac8575b5015611a8b576001600160a01b036117f560043561014401614a54565b16611a46576102c4600435013515611a0157611827611821608460043501356102c46004350135614ef2565b15614f12565b6119ad5761183490614f70565b6118456102e4600435013515614ea6565b6001610180526118b860206001600160a01b036118676004356102a401614a54565b1661187761022460043501614a54565b6040516323b872dd60e01b81526001600160a01b03909116600480830191909152306024830152356102c40135604482015292839190829081906064820190565b039161014051905af18015610ec957611974575b506001600160a01b036118e46004356102a401614a54565b60405163a9059cbb60e01b8152610160516001600160a01b0316600480830191909152356102c40135602482015261014051909260209284926044928492165af18015610ec95761193b575b505b85808087610687565b6020813d60201161196c575b816119546020938361491a565b81010312610149576119659061493c565b5085611930565b3d9150611947565b6020813d6020116119a5575b8161198d6020938361491a565b810103126101495761199e9061493c565b50856118cc565b3d9150611980565b60405162461bcd60e51b815260206004820152602660248201527f45524332302d7072697a656420706f6f6c732075736520676c6f62616c20736c6044820152656f742066656560d01b6064820152608490fd5b60405162461bcd60e51b815260206004820152601b60248201527f4552433230207072697a6520616d6f756e7420726571756972656400000000006044820152606490fd5b60405162461bcd60e51b815260206004820152601f60248201527f43616e206f6e6c792075736520455243323020746f6b656e207072697a6573006044820152606490fd5b60405162461bcd60e51b8152602060048201526015602482015274151bdad95b881b9bdd081dda1a5d195b1a5cdd1959605a1b6044820152606490fd5b90506020813d602011611afa575b81611ae36020938361491a565b8101031261014957611af49061493c565b886117d8565b3d9150611ad6565b600097506004356101640135600303611bd75750611b376001600160a01b03611b306004356102a401614a54565b1615614ea6565b611b516001600160a01b03611b3060043561014401614a54565b611b6b611821608460043501356102e46004350135614ef2565b611b8357611b7890614f70565b600161018052611932565b60405162461bcd60e51b815260206004820152602660248201527f5468697320706f6f6c2063616e206f6e6c792075736520676c6f62616c20736c6044820152656f742066656560d01b6064820152608490fd5b60009750909150851561299b5760016101a460043501350361294b576001600160a01b03611c0a60043561014401614a54565b16151580612935575b15611fba57505060016084600435013503611f6657611c3761014460043501614a54565b604051630dedf14b60e41b81526001600160a01b03909116600482015260c051602090829060249082905afa908115610ec9576101405191611f2c575b508015611e9e575b611c8590614d63565b602460206001600160a01b03611ca060043561014401614a54565b16604051928380926331a9108f60e11b8252610184600435013560048301525afa908115610ec9576101405191611e7f575b506001600160a01b03611cea60043561022401614a54565b166001600160a01b0390911603611e2c576001610180526001600160a01b03611d1860043561014401614a54565b16611d2861022460043501614a54565b813b1561014957604051632142170760e11b8152610140516001600160a01b039092166004808301919091523060248301523561018401356044820152918290818060648101039161014051905af18015610ec957611e16575b506001600160a01b03611d9a60043561014401614a54565b16803b1561014957604051632142170760e11b81526101405161016051306004808501919091526001600160a01b039091166024840152356101840135604483015290918290818060648101039161014051905af18015610ec957611e00575b50611932565b611e09906148f0565b610140518015611dfa5780fd5b611e1f906148f0565b610140518015611d825780fd5b60405162461bcd60e51b815260206004820152602560248201527f596f7520646f206e6f74206f776e207468652073706563696669656420546f6b604482015264195b88125160da1b6064820152608490fd5b611e98915060203d6020116116d8576116ca818361491a565b86611cd2565b50611eae61014460043501614a54565b604051631a74b3f360e01b81526001600160a01b03909116600482015260c051602090829060249082905afa8015610ec9576101405190611ef1575b9050611c7c565b506020813d602011611f24575b81611f0b6020938361491a565b8101031261014957611f1f611c859161493c565b611eea565b3d9150611efe565b90506020813d602011611f5e575b81611f476020938361491a565b8101031261014957611f589061493c565b86611c74565b3d9150611f3a565b60405162461bcd60e51b815260206004820152602660248201527f457363726f7765642045524337323120737570706f727473206f6e6c792031206044820152653bb4b73732b960d11b6064820152608490fd5b91939091906001600160a01b03611fd660043561014401614a54565b16151580612920575b1561246a5750604051637bf046a960e01b815260208160048160c0515afa8015610ec957610140519061242f575b6120179150614a68565b600460206001600160a01b03612031833561014401614a54565b1660405192838092633f6615ab60e11b82525afa8015610ec95761014051906123fb575b6120689150608460043501351115614b10565b61207761014460043501614a54565b604051631a74b3f360e01b81526001600160a01b03909116600482015260c051602090829060249082905afa908115610ec95761014051916123c1575b501561236757856120cd60016084600435013511614ac4565b6101495760e05161232257600460206001600160a01b036120f2833561014401614a54565b1660405192838092638da5cb5b60e01b82525afa908115610ec9576101405191612303575b5061212761022460043501614a54565b6001600160a01b03908116911603612156578115612151575060e460043501355b60a05291611932565b612148565b90506001600160a01b0361216f60043561014401614a54565b1660c061218161022460043501614a54565b6040516317f6397960e01b81526001600160a01b03909116600482015291829060249082905afa8015610ec9576101405190818080926122bb575b6121e3939450906121d06121d59392614b91565b614c03565b608460043501351115614c10565b6121f261010460043501614949565b6122b2575b80612294575060a052610140519161221560e4600435013515614ce2565b6001600160a01b0361222c60043561014401614a54565b1661223c61022460043501614a54565b813b15610149576040516334ea162f60e11b8152610140516001600160a01b0390921660048083019190915235608401356024820152918290818060448101039161014051905af18015610ec957611e005750611932565b90506122a78160e4600435013514614c70565b60a052600191612215565b600193506121f7565b505050506121e36121d56122e96121d09360c03d60c0116122fc575b6122e1818361491a565b810190614b5c565b93505095909591935050908493506121bc565b503d6122d7565b61231c915060203d6020116116d8576116ca818361491a565b87612117565b60405162461bcd60e51b815260206004820152601a60248201527f65726337323144726f70206f6e6c7920666f72204552433732310000000000006044820152606490fd5b60405162461bcd60e51b815260206004820152602c60248201527f4f6e6c792070726f746f636f6c2d6e617469766520636f6c6c656374696f6e7360448201526b08185c9948185b1b1bddd95960a21b6064820152608490fd5b90506020813d6020116123f3575b816123dc6020938361491a565b81010312610149576123ed9061493c565b876120b4565b3d91506123cf565b506020813d602011612427575b816124156020938361491a565b81010312611619576120689051612055565b3d9150612408565b506020813d602011612462575b816124496020938361491a565b810103126101495761245d6120179161493c565b61200d565b3d915061243c565b9391508590506001600160a01b0361248760043561014401614a54565b16156124935750611932565b6101495760e0516128c5576124ad61010460043501614949565b61285a576124c360016084600435013511614ac4565b6124dc6084600435013561028460043501351015614daf565b6124f16101c4600435016004356004016149c1565b90506127bb575b61250761022460043501614a54565b61251661026460043501614a54565b9061252c6101c4600435016004356004016149c1565b906125426101e4600435016004356004016149c1565b61255a610204600496939635016004356004016149c1565b94600361030460043501351015610149576125a76125af9261259f60049961259761258d6103248d35018d358e016149c1565b9a90963691614e6f565b963691614e6f565b973691614e6f565b943691614e6f565b60025460405163d63843cd60e01b81529691939160209188919082906001600160a01b03165afa928315610ec95761263d97602097610140519561278c575b50906126b3929161264f61262b96976040519b8c9a8b998a99633110529160e01b8b52600060048c015261018060248c01526101848b0190614fc7565b8981036003190160448b015290614fc7565b87810360031901606489015290614fc7565b6001600160a01b03938416608487015260043561024481013560a488015291841660c487015261028482013560e4870152610160519093166101048601526126a1906101248601906103040135614e62565b83820360031901610144850152614fc7565b600435610344013561016483015261014051919003926001600160a01b03165af1908115610ec957610140519161276d575b506080526126fe6101c4600435016004356004016149c1565b60c0513b1561014957612732916040518093819263785a782760e01b835260206004840152610140519460248401916149f4565b03816101405160c0515af18015610ec957612757575b50610140516101805284611dfa565b612760906148f0565b6101405180156127485780fd5b612786915060203d6020116116d8576116ca818361491a565b866126e5565b61262b95509061264f6127b06126b39594938b3d8d116116d8576116ca818361491a565b9650509091926125ee565b6127f860206127d56101c4600435016004356004016149c1565b6040516383eb35c760e01b815260048101849052938492839260248401916149f4565b038160c0515afa8015610ec957610140519061281f575b61281a915015614dfb565b6124f8565b506020813d602011612852575b816128396020938361491a565b810103126101495761284d61281a9161493c565b61280f565b3d915061282c565b60405162461bcd60e51b815260206004820152603f60248201527f43616e6e6f7420757365206578697374696e6720636f6c6c656374696f6e207760448201527f68656e206465706c6f79696e672061206e657720636f6c6c656374696f6e2e006064820152608490fd5b60405162461bcd60e51b815260206004820152602d60248201527f4e657720636f6c6c656374696f6e732063616e206f6e6c79206265204552432d60448201526c1b99189039ba30b73230b9321760991b6064820152608490fd5b5061293061010460043501614949565b611fdf565b5061294561010460043501614949565b15611c13565b60405162461bcd60e51b815260206004820152602260248201527f455243373231207265717569726573203120746f6b656e207065722077696e6e60448201526132b960f11b6064820152608490fd5b600096506004356101640135600103613622576101a46004350135156135dd576001600160a01b036129d260043561014401614a54565b161515806135c7575b6001600160a01b036129f260043561014401614a54565b16612d4357505050612a0c60016084600435013511614ac4565b612a35612a266101a4600435013560846004350135614a2b565b61028460043501351015614daf565b612a4a6101c4600435016004356004016149c1565b9050612cc7575b60405163d63843cd60e01b815260208160048160c0515afa908115610ec9576101405191612ca8575b50612a906101c4600435016004356004016149c1565b9190612aa76101e4600435016004356004016149c1565b9390612abe610204600435016004356004016149c1565b612acd61022460043501614a54565b91612add61026460043501614a54565b9060036103046004350135101561014957612b0160048035610324810191016149c1565b604051633110529160e01b81526001600482015261018060248201529a8b998a999398929693612b37916101848c0191906149f4565b906003198a83030160448b0152612b4d926149f4565b90600319888303016064890152612b63926149f4565b6001600160a01b03938416608487015260043561024481013560a488015291841660c487015261028482013560e487015261016051909316610104860152612bb5906101248601906103040135614e62565b83820360031901610144850152612bcb926149f4565b600435610344013561016483015203816101405193600160a01b6001900316935a94602095f1908115610ec9576101405191612c89575b50608052612c1b6101c4600435016004356004016149c1565b60c0513b1561014957612c4f916040518093819263785a782760e01b835260206004840152610140519460248401916149f4565b03816101405160c0515af18015610ec957612c73575b506101405161018052611932565b612c7c906148f0565b610140518015612c655780fd5b612ca2915060203d6020116116d8576116ca818361491a565b86612c02565b612cc1915060203d6020116116d8576116ca818361491a565b86612a7a565b612ce160206127d56101c4600435016004356004016149c1565b038160c0515afa8015610ec9576101405190612d08575b612d03915015614dfb565b612a51565b506020813d602011612d3b575b81612d226020938361491a565b8101031261014957612d36612d039161493c565b612cf8565b3d9150612d15565b15613134575050612d5961014460043501614a54565b604051630dedf14b60e41b81526001600160a01b03909116600482015260c051602090829060249082905afa908115610ec95761014051916130fa575b50801561306c575b612da790614d63565b612dbe6101a4600435013560846004350135614a2b565b6001811061301957612e2c60206001600160a01b03612de260043561014401614a54565b16612df261022460043501614a54565b604051627eeac760e11b81526001600160a01b03909116600480830191909152356101840135602482015292839190829081906044820190565b03915afa8015610ec95782916101405191612fe4575b5010612f89576001610180526001600160a01b03612e6560043561014401614a54565b16612e7561022460043501614a54565b813b1561014957604051637921219560e11b8152610140516001600160a01b0390921660048083019190915230602483015235610184013560448201526064810184905260a06084820152600060a4820152918290818060c48101039161014051905af18015610ec957612f73575b506001600160a01b03612efc60043561014401614a54565b1690813b1561014957604051637921219560e11b8152610140805161016051306004808601919091526001600160a01b0390911660248501523561018401356044840152606483019390935260a06084830152600060a4830152519092839160c4918391905af18015610ec957611e005750611932565b612f7c906148f0565b610140518015612ee45780fd5b60405162461bcd60e51b815260206004820152602d60248201527f596f75722062616c616e636520697320696e73756666696369656e7420666f7260448201526c1030b636103bb4b73732b9399760991b6064820152608490fd5b9150506020813d602011613011575b816130006020938361491a565b810103126116195781905188612e42565b3d9150612ff3565b60405162461bcd60e51b815260206004820152602560248201527f546f74616c207072697a6520616d6f756e74206d757374206265206174206c65604482015264617374203160d81b6064820152608490fd5b5061307c61014460043501614a54565b604051631a74b3f360e01b81526001600160a01b03909116600482015260c051602090829060249082905afa8015610ec95761014051906130bf575b9050612d9e565b506020813d6020116130f2575b816130d96020938361491a565b81010312610149576130ed612da79161493c565b6130b8565b3d91506130cc565b90506020813d60201161312c575b816131156020938361491a565b81010312610149576131269061493c565b86612d96565b3d9150613108565b6001600160a01b0361314b60043561014401614a54565b161515806135b2575b613160575b5050611932565b90919350604051637bf046a960e01b815260208160048160c0515afa8015610ec9576101405190613577575b6131969150614a68565b6131a561014460043501614a54565b604051631a74b3f360e01b81526001600160a01b03909116600482015260c051602090829060249082905afa908115610ec957610140519161353d575b50156134e6576131fa60016084600435013511614ac4565b60246132136101a4600435013560846004350135614a2b565b60206001600160a01b0361322c60043561014401614a54565b1660405193848092633570cb2960e21b8252610184600435013560048301525afa8015610ec95761014051906134b2575b61326992501015614b10565b600460206001600160a01b03613283833561014401614a54565b1660405192838092638da5cb5b60e01b82525afa908115610ec9576101405191613493575b506132b861022460043501614a54565b6001600160a01b039081169116036132f25781156132ed575060e460043501355b60a052915b61014051610180528580613159565b6132d9565b90506001600160a01b0361330b60043561014401614a54565b1660c061331d61022460043501614a54565b6040516317f6397960e01b81526001600160a01b03909116600482015291829060249082905afa8015610ec95761014051908180809261345b575b61336c939450906121d06121d59392614b91565b61337b61012460043501614949565b613452575b80613434575060a052610140519161339e60e4600435013515614ce2565b6001600160a01b036133b560043561014401614a54565b166133c561022460043501614a54565b813b15610149576040516334ea162f60e11b8152610140516001600160a01b0390921660048083019190915235608401356024820152918290818060448101039161014051905af18015610ec95761341e575b506132de565b613427906148f0565b6101405180156134185780fd5b90506134478160e4600435013514614c70565b60a05260019161339e565b60019350613380565b5050505061336c6121d56134806121d09360c03d60c0116122fc576122e1818361491a565b9350509590959193505090849350613358565b6134ac915060203d6020116116d8576116ca818361491a565b876132a8565b506020823d6020116134de575b816134cc6020938361491a565b8101031261161957613269915161325d565b3d91506134bf565b60405162461bcd60e51b815260206004820152602960248201527f6572633131353544726f70206f6e6c7920666f7220696e7465726e616c20636f6044820152686c6c656374696f6e7360b81b6064820152608490fd5b90506020813d60201161356f575b816135586020938361491a565b81010312610149576135699061493c565b876131e2565b3d915061354b565b506020813d6020116135aa575b816135916020938361491a565b81010312610149576135a56131969161493c565b61318c565b3d9150613584565b506135c261012460043501614949565b613154565b506135d761012460043501614949565b156129db565b60405162461bcd60e51b815260206004820152601d60248201527f416d6f756e74207065722077696e6e6572206d757374206265203e20300000006044820152606490fd5b60405162461bcd60e51b8152602060048201526016602482015275556e737570706f72746564207072697a65207479706560501b6044820152606490fd5b604051636b90bda960e01b815260208160048160c0515afa908115610ec957610140519161377e575b506001600160a01b0381161561373a576136ae610424600435016004356004016149c1565b916001600160a01b0381163b156101495760405180610120526341f4672d60e11b905260018060a01b03610160511660046101205101526040602461012051015261014051926137086101205193849260448401916149f4565b03906101205190610140519060018060a01b03165af18015610ec9571561067357613735610120516148f0565b610673565b606460405162461bcd60e51b815260206004820152602060248201527f536f6369616c20656e676167656d656e74206e6f7420636f6e666967757265646044820152fd5b613797915060203d6020116116d8576116ca818361491a565b89613689565b60405162461bcd60e51b8152602060048201526016602482015275115490cc4c4d8dce8818dc99585d194819985a5b195960521b6044820152606490fd5b60405162461bcd60e51b81526020600482015260146024820152730536c6f7420666565206d757374206265203e20360641b6044820152606490fd5b806105c8565b60405162461bcd60e51b815260206004820152603060248201527f5072697a656420706f6f6c73206172652063757272656e746c7920646973616260448201526f3632b210313c903a34329030b236b4b760811b6064820152608490fd5b90506020813d6020116138ad575b816138966020938361491a565b81010312610149576138a79061493c565b896105b4565b3d9150613889565b8296508160a052956139ec57600160a4600435013503613989576001600160a01b036138e660043561014401614a54565b1661391e576138fa61010460043501614949565b610149576101846004350135610149576101a46004350135156105cc576101405180fd5b60405162461bcd60e51b815260206004820152603760248201527f43616e6e6f742073706563696679207072697a6520636f6c6c656374696f6e2060448201527f6966206e6f207072697a652069732073656c65637465640000000000000000006064820152608490fd5b60405162461bcd60e51b815260206004820152603560248201527f4e6f6e2d7072697a656420706f6f6c73206d7573742068617665206d61782031604482015274081cdb1bdd081c195c881c185c9d1a58da5c185b9d605a1b6064820152608490fd5b60405162461bcd60e51b815260206004820152602960248201527f4e6f6e2d7072697a656420706f6f6c73206d7573742075736520676c6f62616c60448201526820736c6f742066656560b81b6064820152608490fd5b6064600435013580800460011490151715613ae7576103e8606460043501350460a4600435013511156105615760a460405162461bcd60e51b815260206004820152604460248201527f5061727469636970616e74732063616e6e6f74207075726368617365206d6f7260448201527f65207468616e20302e3125206f662074686520506f6f6c277320736c6f74206c6064820152631a5b5a5d60e21b6084820152fd5b634e487b7160e01b61014051526011600452602461014051fd5b60405162461bcd60e51b815260206004820152602160248201527f496e76616c6964206d617820736c6f747320706572207061727469636970616e6044820152601d60fa1b6064820152608490fd5b60809150015160a46004350135111586610548565b60405162461bcd60e51b815260206004820152601060248201526f24b73b30b634b210323ab930ba34b7b760811b6044820152606490fd5b506060810151604460043501351115610531565b90506020813d602011613bdb575b81613bcc6020938361491a565b81010312610149575186610517565b3d9150613bbf565b9050613c07915060403d604011613c0d575b613bff818361491a565b810190614a15565b876104e3565b503d613bf5565b9050613c2f915060403d604011613c0d57613bff818361491a565b876104b1565b634e487b7160e01b61014051526041600452602461014051fd5b60405162461bcd60e51b815260206004820152602760248201527f57696e6e6572732063616e6e6f742065786365656420333025206f6620736c6f6044820152661d081b1a5b5a5d60ca1b6064820152608490fd5b60405162461bcd60e51b815260206004820152601460248201527357696e6e6572732065786365656420736c6f747360601b6044820152606490fd5b60405162461bcd60e51b815260206004820152601a60248201527f4174206c6561737420312077696e6e65722072657175697265640000000000006044820152606490fd5b60405162461bcd60e51b815260206004820152601860248201527f536c6f74206c696d69742061626f7665206d6178696d756d00000000000000006044820152606490fd5b60405162461bcd60e51b815260206004820152601860248201527f536c6f74206c696d69742062656c6f77206d696e696d756d00000000000000006044820152606490fd5b613dc991925060403d604011613c0d57613bff818361491a565b905090866103ce565b90506020813d602011613dfc575b81613ded6020938361491a565b810103126101495751856103a3565b3d9150613de0565b60405162461bcd60e51b815260206004820152603a60248201527f53746172742074696d65206d757374206265206174206c6561737420736f6d6560448201527f207365636f6e64732066726f6d2063757272656e742074696d650000000000006064820152608490fd5b60405162461bcd60e51b8152602060048201526014602482015273141bdbdb0818dc99585d1a5bdb881c185d5cd95960621b6044820152606490fd5b90506020813d602011613edd575b81613ec66020938361491a565b8101031261014957613ed79061493c565b85610351565b3d9150613eb9565b600435600401613ef581806149c1565b9050613f02575b50610328565b6020613f1182613f34936149c1565b60405163cc039dd160e01b815260048101849052938492839260248401916149f4565b038160c0515afa908115610ec9576101405191613f8e575b50613f575784613efc565b60405162461bcd60e51b815260206004820152600f60248201526e2837b7b6103730b6b2903a30b5b2b760891b6044820152606490fd5b90506020813d602011613fc0575b81613fa96020938361491a565b8101031261014957613fba9061493c565b85613f4c565b3d9150613f9c565b50613fd760c460043501614949565b15610323565b50600161016460043501351461031c565b60405163524d530b60e01b815260208160048160c0515afa908115610ec9576101405191614114575b506001600160a01b038116156140cf576040519060208201635e5bc1c560e11b8152836024840152602483526060830183811067ffffffffffffffff821117613c35576040526101405193849351925af1614070614991565b501561407c57826102f1565b60405162461bcd60e51b815260206004820152602560248201527f536f6369616c20656e676167656d656e7420666565207472616e736665722066604482015264185a5b195960da1b6064820152608490fd5b60405162461bcd60e51b815260206004820152601760248201527f526576656e7565206d616e61676572206e6f74207365740000000000000000006044820152606490fd5b61412d915060203d6020116116d8576116ca818361491a565b84614017565b60405162461bcd60e51b815260206004820152602160248201527f496e73756666696369656e74206e61746976652063757272656e63792073656e6044820152601d60fa1b6064820152608490fd5b6102e46004350135820180921161419a5750836102e2565b634e487b7160e01b9052601160045261014051602490fd5b50610164600435013560048110156141cc576003146102dd565b5080fd5b8291506102c9565b9091506020813d602011614204575b816141f46020938361491a565b81010312610149575190826102bd565b3d91506141e7565b90506020813d602011614236575b816142276020938361491a565b81010312610149575181610291565b3d915061421a565b610293565b60405163120e97c560e21b815260208160048160c0515afa908115610ec95761014051916143c5575b5060405190634c0e35b160e01b825260208260048160c0515afa918215610ec9576101405192614391575b506001600160a01b03168015614354576020602491604051928380926370a0823160e01b82523360048301525afa908115610ec9576101405191614322575b50101561024e5760405162461bcd60e51b815260206004820152601a60248201527f496e73756666696369656e742024445250522062616c616e63650000000000006044820152606490fd5b90506020813d60201161434c575b8161433d6020938361491a565b810103126101495751826142d6565b3d9150614330565b60405162461bcd60e51b815260206004820152601560248201527410dc99585d1bdc881d1bdad95b881b9bdd081cd95d605a1b6044820152606490fd5b9091506020813d6020116143bd575b816143ad6020938361491a565b8101031261014957519082614297565b3d91506143a0565b6143de915060203d6020116116d8576116ca818361491a565b8161426c565b506143f461040460043501614949565b15610249565b90506020813d60201161442c575b816144156020938361491a565b81010312610149576144269061493c565b81610242565b3d9150614408565b60405162461bcd60e51b8152602060048201526024808201527f436f6e7472616374732063616e6e6f742063726561746520726166666c6520706044820152636f6f6c7360e01b6064820152608490fd5b346101495760a03660031901126101495761449e6147c6565b506144a76147dc565b5067ffffffffffffffff604435818111610149576144c9903690600401614820565b5050606435818111610149576144e3903690600401614820565b5050608435908111610149576144fd9036906004016147f2565b505060405163bc197c8160e01b8152602090f35b346101495761014051806003193601126101d3576002546040516001600160a01b039091168152602090f35b346101495761014051806003193601126101d357546001600160a01b039081163303614570576100ee90600254166148a9565b60405162461bcd60e51b815260206004820152601260248201527127b7363c9034b734ba34b0b61037bbb732b960711b6044820152606490fd5b346101495761014051806003193601126101d357546040516001600160a01b039091168152602090f35b346101495761014051806003193601126101d3576145f0614851565b6101405180546001600160a01b03198116825581906001600160a01b03167f8be0079c531659141344cd1fd0a4f28419497f9722a3daafe3b4186f6b6457e08280a380f35b346101495761014051806003193601126101d357608090604051908152600160208201526002604082015260036060820152f35b34610149576080366003190112610149576146826147c6565b5061468b6147dc565b5060643567ffffffffffffffff8111610149576146ac9036906004016147f2565b5050604051630a85bd0160e11b8152602090f35b34610149576020366003190112610149576146d96147c6565b6146e1614851565b6001600160a01b0316801561472e57600180546001600160a01b0319168217905561014051907f1eed81ce21a92b04ae795cb172e51fb0f8c7f90ec3cd2dc2b4c6395d8d39456f8280a280f35b60405162461bcd60e51b815260206004820152601b60248201527f496e76616c696420506f6f6c20696d706c656d656e746174696f6e00000000006044820152606490fd5b34611619576020366003190112611619576004359063ffffffff60e01b821680920361161957602091630a85bd0160e11b81149081156147b5575b5015158152f35b630271189760e51b149050836147ae565b600435906001600160a01b038216820361161957565b602435906001600160a01b038216820361161957565b9181601f840112156116195782359167ffffffffffffffff8311611619576020838186019501011161161957565b9181601f840112156116195782359167ffffffffffffffff8311611619576020808501948460051b01011161161957565b6000546001600160a01b0316330361486557565b606460405162461bcd60e51b815260206004820152602060248201527f4f776e61626c653a2063616c6c6572206973206e6f7420746865206f776e65726044820152fd5b600080546001600160a01b039283166001600160a01b03198216811783559216907f8be0079c531659141344cd1fd0a4f28419497f9722a3daafe3b4186f6b6457e09080a3565b67ffffffffffffffff811161490457604052565b634e487b7160e01b600052604160045260246000fd5b90601f8019910116810190811067ffffffffffffffff82111761490457604052565b5190811515820361161957565b3580151581036116195790565b9081602091031261161957516001600160a01b03811681036116195790565b67ffffffffffffffff811161490457601f01601f191660200190565b3d156149bc573d906149a282614975565b916149b0604051938461491a565b82523d6000602084013e565b606090565b903590601e1981360301821215611619570180359067ffffffffffffffff82116116195760200191813603831361161957565b908060209392818452848401376000828201840152601f01601f1916010190565b9190826040910312611619576020825192015190565b81810292918115918404141715614a3e57565b634e487b7160e01b600052601160045260246000fd5b356001600160a01b03811681036116195790565b15614a6f57565b60405162461bcd60e51b815260206004820152602760248201527f5573696e67206578697374696e6720636f6c6c656374696f6e7320697320646960448201526639b0b13632b21760c91b6064820152608490fd5b15614acb57565b60405162461bcd60e51b815260206004820152601c60248201527f4d7573742068617665206d6f7265207468616e20312077696e6e6572000000006044820152606490fd5b15614b1757565b60405162461bcd60e51b815260206004820152601d60248201527f496e73756666696369656e7420617661696c61626c6520737570706c790000006044820152606490fd5b91908260c091031261161957614b718261493c565b9160208101519160408201519160608101519160a0608083015192015190565b15614b9857565b60405162461bcd60e51b815260206004820152603e60248201527f43726561746f72206d75737420626520746865206f776e6572206f662074686560448201527f20636f6c6c656374696f6e206f7220616e20617070726f766564204b4f4c00006064820152608490fd5b91908203918211614a3e57565b15614c1757565b60405162461bcd60e51b815260206004820152602b60248201527f57696e6e657220636f756e7420657863656564732072656d61696e696e67207760448201526a1a5b9b995c881b1a5b5a5d60aa1b6064820152608490fd5b15614c7757565b60405162461bcd60e51b815260206004820152603860248201527f536c6f7420666565206d757374206d6174636820746865206f6e6520656e666f60448201527f7263656420627920636f6c6c656374696f6e206f776e657200000000000000006064820152608490fd5b15614ce957565b60405162461bcd60e51b815260206004820152604660248201527f4b4f4c2063616e6e6f742073657420637573746f6d20736c6f7420666565207760448201527f68656e20656e666f7263656420736c6f74206665652069732030202866726565606482015265206d696e742960d01b608482015260a490fd5b15614d6a57565b60405162461bcd60e51b815260206004820152601760248201527f436f6c6c656374696f6e206e6f7420617070726f7665640000000000000000006044820152606490fd5b15614db657565b60405162461bcd60e51b815260206004820152601d60248201527f4d617820737570706c79206d75737420636f7665722077696e6e6572730000006044820152606490fd5b15614e0257565b60405162461bcd60e51b815260206004820152601560248201527421b7b63632b1ba34b7b7103730b6b2903a30b5b2b760591b6044820152606490fd5b906004821015614e4c5752565b634e487b7160e01b600052602160045260246000fd5b906003821015614e4c5752565b929192614e7b82614975565b91614e89604051938461491a565b829481845281830111611619578281602093846000960137010152565b15614ead57565b60405162461bcd60e51b815260206004820152601f60248201527f43616e206f6e6c7920736574206f6e65207072697a652070657220706f6f6c006044820152606490fd5b8115614efc570690565b634e487b7160e01b600052601260045260246000fd5b15614f1957565b60405162461bcd60e51b815260206004820152602960248201527f5072697a6520616d6f756e74206d75737420626520646976697369626c652062604482015268792077696e6e65727360b81b6064820152608490fd5b15614f7757565b60405162461bcd60e51b815260206004820152602260248201527f4d617820736c6f747320706572207061727469636970616e7420726571756972604482015261195960f21b6064820152608490fd5b919082519283825260005b848110614ff3575050826000602080949584010152601f8019910116010190565b602081830181015184830182015201614fd2565b916004811015614e4c578061507557506001600160a01b0391821691823b15611619576044600092836040519586948593633ebd684960e21b8552166004840152600160248401525af180156150695761505e5750565b615067906148f0565b565b6040513d6000823e3d90fd5b600114615080575050565b6001600160a01b0391821691823b15611619576044600092836040519586948593633ebd684960e21b8552166004840152600160248401525af180156150695761505e575056fea2646970667358221220dd6cc3ce449aada709d9827caf99a9263754e3b53151f4d1bde6618b713dd46564736f6c63430008130033",
  "linkReferences": {},
  "deployedLinkReferences": {}
}