{
  "_format": "hh-sol-artifact-1",
  "contractName": "Pool",
  "sourceName": "contracts/Pool.sol",
  "abi": [
    {
      "inputs": [
        {
          "internalType": "address",
          "name": "_factory",
          "type": "address"
        }
      ],
      "stateMutability": "nonpayable",
      "type": "constructor"
    },
    {
      "inputs": [],
      "name": "ArrayLengthMismatch",
      "type": "error"
    },
    {
      "inputs": [],
      "name": "BatchTooLarge",
      "type": "error"
    },
    {
      "inputs": [],
      "name": "ContractsCannotPurchase",
      "type": "error"
    },
    {
      "inputs": [],
      "name": "CreatorNotAllowed",
      "type": "error"
    },
    {
      "inputs": [],
      "name": "ExceedsMaxSlots",
      "type": "error"
    },
    {
      "inputs": [],
      "name": "ExceedsSlotLimit",
      "type": "error"
    },
    {
      "inputs": [],
      "name": "ExceedsWinnersCount",
      "type": "error"
    },
    {
      "inputs": [],
      "name": "IncorrectPayment",
      "type": "error"
    },
    {
      "inputs": [],
      "name": "InvalidNonPrizedPurchase",
      "type": "error"
    },
    {
      "inputs": [],
      "name": "InvalidPoolState",
      "type": "error"
    },
    {
      "inputs": [],
      "name": "InvalidPrizeAmount",
      "type": "error"
    },
    {
      "inputs": [],
      "name": "InvalidPrizeCollection",
      "type": "error"
    },
    {
      "inputs": [],
      "name": "InvalidPrizeType",
      "type": "error"
    },
    {
      "inputs": [],
      "name": "InvalidState",
      "type": "error"
    },
    {
      "inputs": [],
      "name": "InvalidWinnerAddress",
      "type": "error"
    },
    {
      "inputs": [],
      "name": "MintingNotSupported",
      "type": "error"
    },
    {
      "inputs": [],
      "name": "NoPrizesClaimedYet",
      "type": "error"
    },
    {
      "inputs": [],
      "name": "NoPrizesToClaim",
      "type": "error"
    },
    {
      "inputs": [],
      "name": "NotAWinner",
      "type": "error"
    },
    {
      "inputs": [],
      "name": "OnlyOperator",
      "type": "error"
    },
    {
      "inputs": [],
      "name": "PoolDurationElapsed",
      "type": "error"
    },
    {
      "inputs": [],
      "name": "PoolNotActive",
      "type": "error"
    },
    {
      "inputs": [],
      "name": "PrizeTransferFailed",
      "type": "error"
    },
    {
      "inputs": [],
      "name": "ProtocolAdminNotAllowed",
      "type": "error"
    },
    {
      "inputs": [],
      "name": "SocialEngagementNotConfigured",
      "type": "error"
    },
    {
      "inputs": [],
      "name": "TimestampDelayIssue",
      "type": "error"
    },
    {
      "inputs": [],
      "name": "UnauthorizedCaller",
      "type": "error"
    },
    {
      "inputs": [],
      "name": "ZeroAddress",
      "type": "error"
    },
    {
      "inputs": [],
      "name": "ZeroQuantity",
      "type": "error"
    },
    {
      "inputs": [],
      "name": "ZeroSlotFee",
      "type": "error"
    },
    {
      "anonymous": false,
      "inputs": [
        {
          "indexed": false,
          "internalType": "string",
          "name": "reason",
          "type": "string"
        }
      ],
      "name": "BatchProcessingFailed",
      "type": "event"
    },
    {
      "anonymous": false,
      "inputs": [
        {
          "indexed": false,
          "internalType": "bytes",
          "name": "lowLevelData",
          "type": "bytes"
        }
      ],
      "name": "BatchProcessingFailedBytes",
      "type": "event"
    },
    {
      "anonymous": false,
      "inputs": [
        {
          "indexed": true,
          "internalType": "address",
          "name": "winner",
          "type": "address"
        },
        {
          "indexed": false,
          "internalType": "string",
          "name": "reason",
          "type": "string"
        }
      ],
      "name": "MintingFailed",
      "type": "event"
    },
    {
      "anonymous": false,
      "inputs": [
        {
          "indexed": true,
          "internalType": "address",
          "name": "previousOwner",
          "type": "address"
        },
        {
          "indexed": true,
          "internalType": "address",
          "name": "newOwner",
          "type": "address"
        }
      ],
      "name": "OwnershipTransferred",
      "type": "event"
    },
    {
      "anonymous": false,
      "inputs": [
        {
          "indexed": false,
          "internalType": "address",
          "name": "account",
          "type": "address"
        }
      ],
      "name": "Paused",
      "type": "event"
    },
    {
      "anonymous": false,
      "inputs": [],
      "name": "PoolActivated",
      "type": "event"
    },
    {
      "anonymous": false,
      "inputs": [],
      "name": "PoolEnded",
      "type": "event"
    },
    {
      "anonymous": false,
      "inputs": [
        {
          "indexed": false,
          "internalType": "uint256",
          "name": "requestId",
          "type": "uint256"
        }
      ],
      "name": "RandomRequested",
      "type": "event"
    },
    {
      "anonymous": false,
      "inputs": [
        {
          "indexed": true,
          "internalType": "address",
          "name": "participant",
          "type": "address"
        },
        {
          "indexed": false,
          "internalType": "uint256",
          "name": "amount",
          "type": "uint256"
        }
      ],
      "name": "RefundProcessed",
      "type": "event"
    },
    {
      "anonymous": false,
      "inputs": [
        {
          "indexed": true,
          "internalType": "uint256",
          "name": "batchNumber",
          "type": "uint256"
        },
        {
          "indexed": false,
          "internalType": "uint256",
          "name": "participantCount",
          "type": "uint256"
        },
        {
          "indexed": false,
          "internalType": "uint256",
          "name": "shuffleStartIndex",
          "type": "uint256"
        },
        {
          "indexed": false,
          "internalType": "uint256",
          "name": "batchSize",
          "type": "uint256"
        }
      ],
      "name": "SelectionStarted",
      "type": "event"
    },
    {
      "anonymous": false,
      "inputs": [
        {
          "indexed": true,
          "internalType": "address",
          "name": "participant",
          "type": "address"
        },
        {
          "indexed": false,
          "internalType": "uint256",
          "name": "quantity",
          "type": "uint256"
        }
      ],
      "name": "SlotsPurchased",
      "type": "event"
    },
    {
      "anonymous": false,
      "inputs": [
        {
          "indexed": false,
          "internalType": "address",
          "name": "account",
          "type": "address"
        }
      ],
      "name": "Unpaused",
      "type": "event"
    },
    {
      "anonymous": false,
      "inputs": [
        {
          "indexed": false,
          "internalType": "string",
          "name": "reason",
          "type": "string"
        }
      ],
      "name": "VRFRequestFailed",
      "type": "event"
    },
    {
      "anonymous": false,
      "inputs": [
        {
          "indexed": false,
          "internalType": "bytes",
          "name": "lowLevelData",
          "type": "bytes"
        }
      ],
      "name": "VRFRequestFailedBytes",
      "type": "event"
    },
    {
      "anonymous": false,
      "inputs": [
        {
          "indexed": false,
          "internalType": "address[]",
          "name": "winners",
          "type": "address[]"
        }
      ],
      "name": "WinnersSelected",
      "type": "event"
    },
    {
      "inputs": [
        {
          "internalType": "uint256",
          "name": "batchRandomSeed",
          "type": "uint256"
        }
      ],
      "name": "_processBatchWithRandomness",
      "outputs": [],
      "stateMutability": "nonpayable",
      "type": "function"
    },
    {
      "inputs": [
        {
          "internalType": "address",
          "name": "participant",
          "type": "address"
        }
      ],
      "name": "_processRefundExternal",
      "outputs": [
        {
          "internalType": "uint256",
          "name": "",
          "type": "uint256"
        }
      ],
      "stateMutability": "nonpayable",
      "type": "function"
    },
    {
      "inputs": [],
      "name": "amountPerWinner",
      "outputs": [
        {
          "internalType": "uint256",
          "name": "",
          "type": "uint256"
        }
      ],
      "stateMutability": "view",
      "type": "function"
    },
    {
      "inputs": [],
      "name": "batchCount",
      "outputs": [
        {
          "internalType": "uint256",
          "name": "",
          "type": "uint256"
        }
      ],
      "stateMutability": "view",
      "type": "function"
    },
    {
      "inputs": [
        {
          "internalType": "address[]",
          "name": "winnerAddresses",
          "type": "address[]"
        },
        {
          "internalType": "uint256[]",
          "name": "quantities",
          "type": "uint256[]"
        }
      ],
      "name": "batchMintToWinners",
      "outputs": [
        {
          "internalType": "uint256",
          "name": "successfulMints",
          "type": "uint256"
        }
      ],
      "stateMutability": "nonpayable",
      "type": "function"
    },
    {
      "inputs": [
        {
          "internalType": "uint256",
          "name": "",
          "type": "uint256"
        }
      ],
      "name": "batchRandomSeeds",
      "outputs": [
        {
          "internalType": "uint256",
          "name": "",
          "type": "uint256"
        }
      ],
      "stateMutability": "view",
      "type": "function"
    },
    {
      "inputs": [],
      "name": "claimPrize",
      "outputs": [],
      "stateMutability": "nonpayable",
      "type": "function"
    },
    {
      "inputs": [],
      "name": "claimRefund",
      "outputs": [],
      "stateMutability": "nonpayable",
      "type": "function"
    },
    {
      "inputs": [
        {
          "internalType": "address",
          "name": "",
          "type": "address"
        }
      ],
      "name": "claimedWins",
      "outputs": [
        {
          "internalType": "uint256",
          "name": "",
          "type": "uint256"
        }
      ],
      "stateMutability": "view",
      "type": "function"
    },
    {
      "inputs": [],
      "name": "closePool",
      "outputs": [],
      "stateMutability": "nonpayable",
      "type": "function"
    },
    {
      "inputs": [],
      "name": "creationFeePercentage",
      "outputs": [
        {
          "internalType": "uint256",
          "name": "",
          "type": "uint256"
        }
      ],
      "stateMutability": "view",
      "type": "function"
    },
    {
      "inputs": [],
      "name": "creator",
      "outputs": [
        {
          "internalType": "address",
          "name": "",
          "type": "address"
        }
      ],
      "stateMutability": "view",
      "type": "function"
    },
    {
      "inputs": [],
      "name": "currentBatchSize",
      "outputs": [
        {
          "internalType": "uint256",
          "name": "",
          "type": "uint256"
        }
      ],
      "stateMutability": "view",
      "type": "function"
    },
    {
      "inputs": [],
      "name": "deletePool",
      "outputs": [],
      "stateMutability": "nonpayable",
      "type": "function"
    },
    {
      "inputs": [],
      "name": "duration",
      "outputs": [
        {
          "internalType": "uint256",
          "name": "",
          "type": "uint256"
        }
      ],
      "stateMutability": "view",
      "type": "function"
    },
    {
      "inputs": [],
      "name": "endTime",
      "outputs": [
        {
          "internalType": "uint256",
          "name": "",
          "type": "uint256"
        }
      ],
      "stateMutability": "view",
      "type": "function"
    },
    {
      "inputs": [],
      "name": "erc20PrizeAmount",
      "outputs": [
        {
          "internalType": "uint256",
          "name": "",
          "type": "uint256"
        }
      ],
      "stateMutability": "view",
      "type": "function"
    },
    {
      "inputs": [],
      "name": "erc20PrizeToken",
      "outputs": [
        {
          "internalType": "address",
          "name": "",
          "type": "address"
        }
      ],
      "stateMutability": "view",
      "type": "function"
    },
    {
      "inputs": [],
      "name": "erc721EscrowClaimed",
      "outputs": [
        {
          "internalType": "bool",
          "name": "",
          "type": "bool"
        }
      ],
      "stateMutability": "view",
      "type": "function"
    },
    {
      "inputs": [],
      "name": "getParticipantsCount",
      "outputs": [
        {
          "internalType": "uint256",
          "name": "",
          "type": "uint256"
        }
      ],
      "stateMutability": "view",
      "type": "function"
    },
    {
      "inputs": [
        {
          "internalType": "address",
          "name": "participant",
          "type": "address"
        }
      ],
      "name": "getRefundableAmount",
      "outputs": [
        {
          "internalType": "uint256",
          "name": "",
          "type": "uint256"
        }
      ],
      "stateMutability": "view",
      "type": "function"
    },
    {
      "inputs": [],
      "name": "getSlotLimit",
      "outputs": [
        {
          "internalType": "uint256",
          "name": "",
          "type": "uint256"
        }
      ],
      "stateMutability": "view",
      "type": "function"
    },
    {
      "inputs": [
        {
          "internalType": "address",
          "name": "participant",
          "type": "address"
        }
      ],
      "name": "getSlotsPurchased",
      "outputs": [
        {
          "internalType": "uint256",
          "name": "",
          "type": "uint256"
        }
      ],
      "stateMutability": "view",
      "type": "function"
    },
    {
      "inputs": [
        {
          "internalType": "address",
          "name": "",
          "type": "address"
        }
      ],
      "name": "hasClaimedFeeRefund",
      "outputs": [
        {
          "internalType": "bool",
          "name": "",
          "type": "bool"
        }
      ],
      "stateMutability": "view",
      "type": "function"
    },
    {
      "inputs": [
        {
          "internalType": "address",
          "name": "",
          "type": "address"
        }
      ],
      "name": "hasCompletedSocialEngagement",
      "outputs": [
        {
          "internalType": "bool",
          "name": "",
          "type": "bool"
        }
      ],
      "stateMutability": "view",
      "type": "function"
    },
    {
      "inputs": [],
      "name": "holderData",
      "outputs": [
        {
          "internalType": "address",
          "name": "holderTokenAddress",
          "type": "address"
        },
        {
          "internalType": "enum PrizeTypes.Standard",
          "name": "holderTokenStandard",
          "type": "uint8"
        },
        {
          "internalType": "uint256",
          "name": "minHolderTokenBalance",
          "type": "uint256"
        },
        {
          "internalType": "uint256",
          "name": "holderTokenId",
          "type": "uint256"
        }
      ],
      "stateMutability": "view",
      "type": "function"
    },
    {
      "inputs": [],
      "name": "holderTokenAddress",
      "outputs": [
        {
          "internalType": "address",
          "name": "",
          "type": "address"
        }
      ],
      "stateMutability": "view",
      "type": "function"
    },
    {
      "inputs": [],
      "name": "holderTokenId",
      "outputs": [
        {
          "internalType": "uint256",
          "name": "",
          "type": "uint256"
        }
      ],
      "stateMutability": "view",
      "type": "function"
    },
    {
      "inputs": [],
      "name": "holderTokenStandard",
      "outputs": [
        {
          "internalType": "enum PrizeTypes.Standard",
          "name": "",
          "type": "uint8"
        }
      ],
      "stateMutability": "view",
      "type": "function"
    },
    {
      "inputs": [],
      "name": "i_vrfCoordinator",
      "outputs": [
        {
          "internalType": "contract VRFCoordinatorV2PlusInterface",
          "name": "",
          "type": "address"
        }
      ],
      "stateMutability": "view",
      "type": "function"
    },
    {
      "inputs": [
        {
          "components": [
            {
              "internalType": "address",
              "name": "manager",
              "type": "address"
            },
            {
              "internalType": "address",
              "name": "revenueRecipient",
              "type": "address"
            },
            {
              "internalType": "string",
              "name": "name",
              "type": "string"
            },
            {
              "internalType": "uint256",
              "name": "slotLimit",
              "type": "uint256"
            },
            {
              "internalType": "uint256",
              "name": "maxSlotsPerAddress",
              "type": "uint256"
            },
            {
              "internalType": "uint256",
              "name": "winnersCount",
              "type": "uint256"
            },
            {
              "internalType": "bool",
              "name": "isCollabPool",
              "type": "bool"
            },
            {
              "internalType": "bool",
              "name": "usesCustomFee",
              "type": "bool"
            },
            {
              "internalType": "bool",
              "name": "isExternalCollection",
              "type": "bool"
            }
          ],
          "internalType": "struct Pool.PoolConfig",
          "name": "_poolConfig",
          "type": "tuple"
        },
        {
          "components": [
            {
              "internalType": "enum PrizeTypes.Standard",
              "name": "standard",
              "type": "uint8"
            },
            {
              "internalType": "address",
              "name": "prizeCollection",
              "type": "address"
            },
            {
              "internalType": "uint256",
              "name": "prizeTokenId",
              "type": "uint256"
            },
            {
              "internalType": "uint256",
              "name": "amountPerWinner",
              "type": "uint256"
            },
            {
              "internalType": "address",
              "name": "erc20PrizeToken",
              "type": "address"
            },
            {
              "internalType": "uint256",
              "name": "erc20PrizeAmount",
              "type": "uint256"
            },
            {
              "internalType": "uint256",
              "name": "nativePrizeAmount",
              "type": "uint256"
            },
            {
              "internalType": "bool",
              "name": "isEscrowedPrize",
              "type": "bool"
            }
          ],
          "internalType": "struct Pool.PrizeConfig",
          "name": "_prizeConfig",
          "type": "tuple"
        },
        {
          "components": [
            {
              "internalType": "address",
              "name": "holderTokenAddress",
              "type": "address"
            },
            {
              "internalType": "enum PrizeTypes.Standard",
              "name": "holderTokenStandard",
              "type": "uint8"
            },
            {
              "internalType": "uint256",
              "name": "minHolderTokenBalance",
              "type": "uint256"
            },
            {
              "internalType": "uint256",
              "name": "holderTokenId",
              "type": "uint256"
            }
          ],
          "internalType": "struct Pool.HolderConfig",
          "name": "_holderConfig",
          "type": "tuple"
        },
        {
          "components": [
            {
              "internalType": "bool",
              "name": "required",
              "type": "bool"
            }
          ],
          "internalType": "struct Pool.SocialEngagementConfig",
          "name": "_socialEngagementConfig",
          "type": "tuple"
        },
        {
          "internalType": "address",
          "name": "_creator",
          "type": "address"
        },
        {
          "internalType": "uint256",
          "name": "_startTime",
          "type": "uint256"
        },
        {
          "internalType": "uint256",
          "name": "_duration",
          "type": "uint256"
        },
        {
          "internalType": "uint256",
          "name": "_slotFee",
          "type": "uint256"
        },
        {
          "internalType": "bool",
          "name": "_isPrized",
          "type": "bool"
        }
      ],
      "name": "initialize",
      "outputs": [],
      "stateMutability": "payable",
      "type": "function"
    },
    {
      "inputs": [],
      "name": "isCollabPool",
      "outputs": [
        {
          "internalType": "bool",
          "name": "",
          "type": "bool"
        }
      ],
      "stateMutability": "view",
      "type": "function"
    },
    {
      "inputs": [],
      "name": "isEscrowedPrize",
      "outputs": [
        {
          "internalType": "bool",
          "name": "",
          "type": "bool"
        }
      ],
      "stateMutability": "view",
      "type": "function"
    },
    {
      "inputs": [],
      "name": "isExternalCollection",
      "outputs": [
        {
          "internalType": "bool",
          "name": "",
          "type": "bool"
        }
      ],
      "stateMutability": "view",
      "type": "function"
    },
    {
      "inputs": [],
      "name": "isPrized",
      "outputs": [
        {
          "internalType": "bool",
          "name": "",
          "type": "bool"
        }
      ],
      "stateMutability": "view",
      "type": "function"
    },
    {
      "inputs": [],
      "name": "isRefundable",
      "outputs": [
        {
          "internalType": "bool",
          "name": "",
          "type": "bool"
        }
      ],
      "stateMutability": "view",
      "type": "function"
    },
    {
      "inputs": [],
      "name": "maxSlotsPerAddress",
      "outputs": [
        {
          "internalType": "uint256",
          "name": "",
          "type": "uint256"
        }
      ],
      "stateMutability": "view",
      "type": "function"
    },
    {
      "inputs": [],
      "name": "minHolderTokenBalance",
      "outputs": [
        {
          "internalType": "uint256",
          "name": "",
          "type": "uint256"
        }
      ],
      "stateMutability": "view",
      "type": "function"
    },
    {
      "inputs": [],
      "name": "mint",
      "outputs": [],
      "stateMutability": "nonpayable",
      "type": "function"
    },
    {
      "inputs": [],
      "name": "name",
      "outputs": [
        {
          "internalType": "string",
          "name": "",
          "type": "string"
        }
      ],
      "stateMutability": "view",
      "type": "function"
    },
    {
      "inputs": [],
      "name": "nativePrizeAmount",
      "outputs": [
        {
          "internalType": "uint256",
          "name": "",
          "type": "uint256"
        }
      ],
      "stateMutability": "view",
      "type": "function"
    },
    {
      "inputs": [
        {
          "internalType": "address",
          "name": "",
          "type": "address"
        },
        {
          "internalType": "address",
          "name": "",
          "type": "address"
        },
        {
          "internalType": "uint256[]",
          "name": "",
          "type": "uint256[]"
        },
        {
          "internalType": "uint256[]",
          "name": "",
          "type": "uint256[]"
        },
        {
          "internalType": "bytes",
          "name": "",
          "type": "bytes"
        }
      ],
      "name": "onERC1155BatchReceived",
      "outputs": [
        {
          "internalType": "bytes4",
          "name": "",
          "type": "bytes4"
        }
      ],
      "stateMutability": "pure",
      "type": "function"
    },
    {
      "inputs": [
        {
          "internalType": "address",
          "name": "",
          "type": "address"
        },
        {
          "internalType": "address",
          "name": "",
          "type": "address"
        },
        {
          "internalType": "uint256",
          "name": "",
          "type": "uint256"
        },
        {
          "internalType": "uint256",
          "name": "",
          "type": "uint256"
        },
        {
          "internalType": "bytes",
          "name": "",
          "type": "bytes"
        }
      ],
      "name": "onERC1155Received",
      "outputs": [
        {
          "internalType": "bytes4",
          "name": "",
          "type": "bytes4"
        }
      ],
      "stateMutability": "pure",
      "type": "function"
    },
    {
      "inputs": [
        {
          "internalType": "address",
          "name": "",
          "type": "address"
        },
        {
          "internalType": "address",
          "name": "",
          "type": "address"
        },
        {
          "internalType": "uint256",
          "name": "",
          "type": "uint256"
        },
        {
          "internalType": "bytes",
          "name": "",
          "type": "bytes"
        }
      ],
      "name": "onERC721Received",
      "outputs": [
        {
          "internalType": "bytes4",
          "name": "",
          "type": "bytes4"
        }
      ],
      "stateMutability": "pure",
      "type": "function"
    },
    {
      "inputs": [],
      "name": "owner",
      "outputs": [
        {
          "internalType": "address",
          "name": "",
          "type": "address"
        }
      ],
      "stateMutability": "view",
      "type": "function"
    },
    {
      "inputs": [
        {
          "internalType": "uint256",
          "name": "",
          "type": "uint256"
        }
      ],
      "name": "participants",
      "outputs": [
        {
          "internalType": "address",
          "name": "",
          "type": "address"
        }
      ],
      "stateMutability": "view",
      "type": "function"
    },
    {
      "inputs": [],
      "name": "paused",
      "outputs": [
        {
          "internalType": "bool",
          "name": "",
          "type": "bool"
        }
      ],
      "stateMutability": "view",
      "type": "function"
    },
    {
      "inputs": [],
      "name": "pendingProtocolFee",
      "outputs": [
        {
          "internalType": "uint256",
          "name": "",
          "type": "uint256"
        }
      ],
      "stateMutability": "view",
      "type": "function"
    },
    {
      "inputs": [],
      "name": "poolData",
      "outputs": [
        {
          "internalType": "string",
          "name": "name",
          "type": "string"
        },
        {
          "internalType": "uint256",
          "name": "winnersCount",
          "type": "uint256"
        },
        {
          "internalType": "uint256",
          "name": "maxSlotsPerAddress",
          "type": "uint256"
        },
        {
          "internalType": "uint256",
          "name": "slotLimit",
          "type": "uint256"
        },
        {
          "internalType": "address",
          "name": "revenueRecipient",
          "type": "address"
        },
        {
          "internalType": "bool",
          "name": "isCollabPool",
          "type": "bool"
        },
        {
          "internalType": "bool",
          "name": "usesCustomFee",
          "type": "bool"
        },
        {
          "internalType": "bool",
          "name": "isExternalCollection",
          "type": "bool"
        },
        {
          "internalType": "bool",
          "name": "isRefundable",
          "type": "bool"
        },
        {
          "internalType": "bool",
          "name": "erc721EscrowClaimed",
          "type": "bool"
        },
        {
          "internalType": "bool",
          "name": "isEscrowedPrize",
          "type": "bool"
        },
        {
          "internalType": "bool",
          "name": "wasDeletedForFullRefund",
          "type": "bool"
        },
        {
          "internalType": "bool",
          "name": "protocolFeeCalculated",
          "type": "bool"
        },
        {
          "internalType": "bool",
          "name": "randomRequested",
          "type": "bool"
        },
        {
          "internalType": "bool",
          "name": "randomnessUsed",
          "type": "bool"
        },
        {
          "internalType": "bool",
          "name": "socialEngagementRequired",
          "type": "bool"
        }
      ],
      "stateMutability": "view",
      "type": "function"
    },
    {
      "inputs": [],
      "name": "poolSubscriptionId",
      "outputs": [
        {
          "internalType": "uint256",
          "name": "",
          "type": "uint256"
        }
      ],
      "stateMutability": "view",
      "type": "function"
    },
    {
      "inputs": [
        {
          "internalType": "address",
          "name": "participant",
          "type": "address"
        }
      ],
      "name": "prizeClaimed",
      "outputs": [
        {
          "internalType": "uint256",
          "name": "",
          "type": "uint256"
        }
      ],
      "stateMutability": "view",
      "type": "function"
    },
    {
      "inputs": [],
      "name": "prizeCollection",
      "outputs": [
        {
          "internalType": "address",
          "name": "",
          "type": "address"
        }
      ],
      "stateMutability": "view",
      "type": "function"
    },
    {
      "inputs": [],
      "name": "prizeData",
      "outputs": [
        {
          "internalType": "enum PrizeTypes.Standard",
          "name": "standard",
          "type": "uint8"
        },
        {
          "internalType": "address",
          "name": "prizeCollection",
          "type": "address"
        },
        {
          "internalType": "uint256",
          "name": "prizeTokenId",
          "type": "uint256"
        },
        {
          "internalType": "uint256",
          "name": "amountPerWinner",
          "type": "uint256"
        },
        {
          "internalType": "address",
          "name": "erc20PrizeToken",
          "type": "address"
        },
        {
          "internalType": "uint256",
          "name": "erc20PrizeAmount",
          "type": "uint256"
        },
        {
          "internalType": "uint256",
          "name": "nativePrizeAmount",
          "type": "uint256"
        },
        {
          "internalType": "uint256",
          "name": "prizesClaimedCount",
          "type": "uint256"
        }
      ],
      "stateMutability": "view",
      "type": "function"
    },
    {
      "inputs": [],
      "name": "prizeTokenId",
      "outputs": [
        {
          "internalType": "uint256",
          "name": "",
          "type": "uint256"
        }
      ],
      "stateMutability": "view",
      "type": "function"
    },
    {
      "inputs": [],
      "name": "prizesClaimedCount",
      "outputs": [
        {
          "internalType": "uint256",
          "name": "",
          "type": "uint256"
        }
      ],
      "stateMutability": "view",
      "type": "function"
    },
    {
      "inputs": [],
      "name": "protocolFeeCalculated",
      "outputs": [
        {
          "internalType": "bool",
          "name": "",
          "type": "bool"
        }
      ],
      "stateMutability": "view",
      "type": "function"
    },
    {
      "inputs": [],
      "name": "protocolFeePercentage",
      "outputs": [
        {
          "internalType": "uint256",
          "name": "",
          "type": "uint256"
        }
      ],
      "stateMutability": "view",
      "type": "function"
    },
    {
      "inputs": [
        {
          "internalType": "uint256",
          "name": "quantity",
          "type": "uint256"
        },
        {
          "internalType": "uint256",
          "name": "_deadline",
          "type": "uint256"
        },
        {
          "internalType": "bytes",
          "name": "_signature",
          "type": "bytes"
        },
        {
          "internalType": "uint256[]",
          "name": "_tokenIds",
          "type": "uint256[]"
        }
      ],
      "name": "purchaseSlots",
      "outputs": [],
      "stateMutability": "payable",
      "type": "function"
    },
    {
      "inputs": [],
      "name": "randomRequested",
      "outputs": [
        {
          "internalType": "bool",
          "name": "",
          "type": "bool"
        }
      ],
      "stateMutability": "view",
      "type": "function"
    },
    {
      "inputs": [],
      "name": "randomSeed",
      "outputs": [
        {
          "internalType": "uint256",
          "name": "",
          "type": "uint256"
        }
      ],
      "stateMutability": "view",
      "type": "function"
    },
    {
      "inputs": [],
      "name": "randomnessUsed",
      "outputs": [
        {
          "internalType": "bool",
          "name": "",
          "type": "bool"
        }
      ],
      "stateMutability": "view",
      "type": "function"
    },
    {
      "inputs": [
        {
          "internalType": "uint256",
          "name": "requestId",
          "type": "uint256"
        },
        {
          "internalType": "uint256[]",
          "name": "randomWords",
          "type": "uint256[]"
        }
      ],
      "name": "rawFulfillRandomWords",
      "outputs": [],
      "stateMutability": "nonpayable",
      "type": "function"
    },
    {
      "inputs": [
        {
          "internalType": "address",
          "name": "",
          "type": "address"
        }
      ],
      "name": "refundableAmount",
      "outputs": [
        {
          "internalType": "uint256",
          "name": "",
          "type": "uint256"
        }
      ],
      "stateMutability": "view",
      "type": "function"
    },
    {
      "inputs": [
        {
          "internalType": "address",
          "name": "",
          "type": "address"
        }
      ],
      "name": "refundedNonWinningSlots",
      "outputs": [
        {
          "internalType": "uint256",
          "name": "",
          "type": "uint256"
        }
      ],
      "stateMutability": "view",
      "type": "function"
    },
    {
      "inputs": [],
      "name": "renounceOwnership",
      "outputs": [],
      "stateMutability": "nonpayable",
      "type": "function"
    },
    {
      "inputs": [],
      "name": "requestRandomness",
      "outputs": [],
      "stateMutability": "nonpayable",
      "type": "function"
    },
    {
      "inputs": [],
      "name": "revenueData",
      "outputs": [
        {
          "internalType": "uint256",
          "name": "protocolFeePercentage",
          "type": "uint256"
        },
        {
          "internalType": "uint256",
          "name": "creationFeePercentage",
          "type": "uint256"
        },
        {
          "internalType": "uint256",
          "name": "totalCreatorRevenue",
          "type": "uint256"
        },
        {
          "internalType": "uint256",
          "name": "totalRefundableAmount",
          "type": "uint256"
        },
        {
          "internalType": "uint256",
          "name": "totalGlobalFeeRevenue",
          "type": "uint256"
        },
        {
          "internalType": "uint256",
          "name": "pendingProtocolFee",
          "type": "uint256"
        }
      ],
      "stateMutability": "view",
      "type": "function"
    },
    {
      "inputs": [],
      "name": "revenueRecipient",
      "outputs": [
        {
          "internalType": "address",
          "name": "",
          "type": "address"
        }
      ],
      "stateMutability": "view",
      "type": "function"
    },
    {
      "inputs": [],
      "name": "s_vrf_lastRequestId",
      "outputs": [
        {
          "internalType": "uint256",
          "name": "",
          "type": "uint256"
        }
      ],
      "stateMutability": "view",
      "type": "function"
    },
    {
      "inputs": [],
      "name": "shuffleStartIndex",
      "outputs": [
        {
          "internalType": "uint256",
          "name": "",
          "type": "uint256"
        }
      ],
      "stateMutability": "view",
      "type": "function"
    },
    {
      "inputs": [],
      "name": "slotFee",
      "outputs": [
        {
          "internalType": "uint256",
          "name": "",
          "type": "uint256"
        }
      ],
      "stateMutability": "view",
      "type": "function"
    },
    {
      "inputs": [],
      "name": "slotLimit",
      "outputs": [
        {
          "internalType": "uint256",
          "name": "",
          "type": "uint256"
        }
      ],
      "stateMutability": "view",
      "type": "function"
    },
    {
      "inputs": [
        {
          "internalType": "address",
          "name": "",
          "type": "address"
        }
      ],
      "name": "slotsPurchased",
      "outputs": [
        {
          "internalType": "uint256",
          "name": "",
          "type": "uint256"
        }
      ],
      "stateMutability": "view",
      "type": "function"
    },
    {
      "inputs": [],
      "name": "socialEngagementRequired",
      "outputs": [
        {
          "internalType": "bool",
          "name": "",
          "type": "bool"
        }
      ],
      "stateMutability": "view",
      "type": "function"
    },
    {
      "inputs": [],
      "name": "standard",
      "outputs": [
        {
          "internalType": "enum PrizeTypes.Standard",
          "name": "",
          "type": "uint8"
        }
      ],
      "stateMutability": "view",
      "type": "function"
    },
    {
      "inputs": [],
      "name": "startTime",
      "outputs": [
        {
          "internalType": "uint256",
          "name": "",
          "type": "uint256"
        }
      ],
      "stateMutability": "view",
      "type": "function"
    },
    {
      "inputs": [],
      "name": "state",
      "outputs": [
        {
          "internalType": "enum IPool.PoolState",
          "name": "",
          "type": "uint8"
        }
      ],
      "stateMutability": "view",
      "type": "function"
    },
    {
      "inputs": [
        {
          "internalType": "bytes4",
          "name": "interfaceId",
          "type": "bytes4"
        }
      ],
      "name": "supportsInterface",
      "outputs": [
        {
          "internalType": "bool",
          "name": "",
          "type": "bool"
        }
      ],
      "stateMutability": "view",
      "type": "function"
    },
    {
      "inputs": [
        {
          "internalType": "uint256",
          "name": "",
          "type": "uint256"
        }
      ],
      "name": "tokenIdClaimedBy",
      "outputs": [
        {
          "internalType": "address",
          "name": "",
          "type": "address"
        }
      ],
      "stateMutability": "view",
      "type": "function"
    },
    {
      "inputs": [],
      "name": "totalCreatorRevenue",
      "outputs": [
        {
          "internalType": "uint256",
          "name": "",
          "type": "uint256"
        }
      ],
      "stateMutability": "view",
      "type": "function"
    },
    {
      "inputs": [],
      "name": "totalGlobalFeeRevenue",
      "outputs": [
        {
          "internalType": "uint256",
          "name": "",
          "type": "uint256"
        }
      ],
      "stateMutability": "view",
      "type": "function"
    },
    {
      "inputs": [],
      "name": "totalRefundableAmount",
      "outputs": [
        {
          "internalType": "uint256",
          "name": "",
          "type": "uint256"
        }
      ],
      "stateMutability": "view",
      "type": "function"
    },
    {
      "inputs": [
        {
          "internalType": "address",
          "name": "newOwner",
          "type": "address"
        }
      ],
      "name": "transferOwnership",
      "outputs": [],
      "stateMutability": "nonpayable",
      "type": "function"
    },
    {
      "inputs": [],
      "name": "usesCustomFee",
      "outputs": [
        {
          "internalType": "bool",
          "name": "",
          "type": "bool"
        }
      ],
      "stateMutability": "view",
      "type": "function"
    },
    {
      "inputs": [],
      "name": "wasDeletedForFullRefund",
      "outputs": [
        {
          "internalType": "bool",
          "name": "",
          "type": "bool"
        }
      ],
      "stateMutability": "view",
      "type": "function"
    },
    {
      "inputs": [
        {
          "internalType": "uint256",
          "name": "",
          "type": "uint256"
        }
      ],
      "name": "winners",
      "outputs": [
        {
          "internalType": "address",
          "name": "",
          "type": "address"
        }
      ],
      "stateMutability": "view",
      "type": "function"
    },
    {
      "inputs": [],
      "name": "winnersCount",
      "outputs": [
        {
          "internalType": "uint256",
          "name": "",
          "type": "uint256"
        }
      ],
      "stateMutability": "view",
      "type": "function"
    },
    {
      "inputs": [],
      "name": "winnersSelected",
      "outputs": [
        {
          "internalType": "uint256",
          "name": "",
          "type": "uint256"
        }
      ],
      "stateMutability": "view",
      "type": "function"
    },
    {
      "inputs": [
        {
          "internalType": "address",
          "name": "",
          "type": "address"
        }
      ],
      "name": "winsPerAddress",
      "outputs": [
        {
          "internalType": "uint256",
          "name": "",
          "type": "uint256"
        }
      ],
      "stateMutability": "view",
      "type": "function"
    },
    {
      "inputs": [],
      "name": "withdrawCreatorRevenue",
      "outputs": [],
      "stateMutability": "nonpayable",
      "type": "function"
    },
    {
      "inputs": [],
      "name": "withdrawProtocolRevenue",
      "outputs": [],
      "stateMutability": "nonpayable",
      "type": "function"
    }
  ],
  "bytecode": "0x60a034620000bb57601f62005f8838819003918201601f19168301916001600160401b03831184841017620000c057808492602094604052833981010312620000bb57516001600160a01b03908181168103620000bb576000543360018060a01b0319821617600055604051923391167f8be0079c531659141344cd1fd0a4f28419497f9722a3daafe3b4186f6b6457e0600080a36001805560ff1960025416600255608052615eb19081620000d7823960805181610e640152f35b600080fd5b634e487b7160e01b600052604160045260246000fdfe608080604052600436101561001357600080fd5b600090813560e01c90816301ffc9a7146138be5750806302d05d3f146138955780630631c5c21461387757806306f130561461385957806306fdde0314613825578063085219741461329e5780630aa00e70146138075780630b747d91146137e95780630b78824b146137cb5780630e4fa158146137a55780630fb5a6b4146137875780631249c58b14613479578063128f4ba41461345b578063150b7a02146134045780631ae25dd0146133b55780631fe543e3146132d757806325444fa41461329e5780632c1fecfe146132785780633197cbb614613256578063321679fa14613238578063327bb1ad146131ab57806335c1d349146131675780633b26314d1461313e5780634002143414612d6257806342b72afa14612d2957806344a9098614612d0b57806348a3a45014612ce55780634971381114612cc75780634e3ff46014612c885780634f7f0fc014612c495780635755248e14612c2b5780635a3b7e4214612c055780635c975abb14612be25780635f369a32146122e157806366805de5146122c8578063677375c3146122aa578063683d193614612284578063696917ba1461225e5780636e61a160146122385780636e8b38db1461220b57806370740ac9146121d1578063715018a6146121775780637184062914611adc578063740e219814611ab057806378e9792514611a92578063813e88b914611a74578063837d112814611a4e57806387213c3514611a285780638778d82c146119ff578063888dc198146119e1578063898b36db146119c35780638bc53285146119a55780638bfbbcbe1461198c5780638d7fe478146119665780638da5cb5b1461193f5780638e50e5091461192157806394f5c9dc146118d95780639ed5c1cc146118b0578063a177ec0914611885578063a2fb117514611829578063a67d0e6c1461180b578063ae4b82c1146117e1578063aebc4550146117b4578063af78ed0a14611796578063b0b606c014611763578063b15825ae1461173d578063b5545a3c1461170e578063b5ad841214611583578063ba352ac414610bf0578063bc197c8114610b60578063c19d93fb14610b1d578063c2e784bd14610aff578063c3fa0e3b14610ae1578063c58fe16214610ac3578063cabfaa1814610aa5578063cc7d49ec14610a7f578063d0d11ae814610a61578063d17d135914610a28578063d447e9bc146109d2578063d91043f214610a0a578063dc8a55c2146109d2578063e511a11b14610999578063e620decf14610973578063e6f12cf714610955578063f23a6e61146108fe578063f2fde38b14610870578063f8413b0714610647578063fb687df41461061a578063fd22b17c14610574578063fd75a1f1146105035763fee151ae1461040a57600080fd5b34610500578060031936011261050057610446610425613b16565b600b54600c54600d54600e5491604051958695610200808852870190613913565b9360208601526040850152606084015260018060a01b038116608084015260ff90818160a01c16151560a0850152818160a81c16151560c0850152818160b01c16151560e0850152818160b81c161515610100850152818160c01c161515610120850152818160c81c161515610140850152818160d01c161515610160850152818160d81c161515610180850152818160e01c1615156101a0850152818160e81c1615156101c085015260f01c1615156101e08301520390f35b80fd5b5034610500578060031936011261050057610100600f546010546011549060018060a01b039182601254166013549160145493601554956040519761054b8960ff83166139c0565b60081c16602088015260408701526060860152608085015260a084015260c083015260e0820152f35b503461050057806003193601126105005780546040516336b87bd760e11b815233600482015290602090829060249082906001600160a01b03165afa90811561060f5782916105e1575b50156105cf576105cc6157bd565b80f35b6040516327e1f1e560e01b8152600490fd5b610602915060203d8111610608575b6105fa8183613a93565b810190614045565b386105be565b503d6105f0565b6040513d84823e3d90fd5b5034610500578060031936011261050057600f5460405160089190911c6001600160a01b03168152602090f35b503461050057806003193601126105005761066760065460075490613c61565b421015610863575b6006546007549061068b6106838383613c61565b421015613d48565b60085460ff8160a81c16600881101561084f5760028114908115610844575b5080610837575b1561078c576016546001600160a01b03929083166107ec57602654600b5411610790575b602b54159384610776575b50501633148015610761575b1561075d5760ff600e5460e01c166107185761070b575b6105cc614b52565b6107136159bb565b610703565b60405162461bcd60e51b815260206004820152601960248201527f5265717565737420616c726561647920696e20666c69676874000000000000006044820152606490fd5b5080fd5b503382526028602052604082205415156106ec565b61077f91613c61565b421061078c5738806106e0565b8380fd5b60405162461bcd60e51b815260206004820152602e60248201527f496e73756666696369656e74207061727469636970616e747320666f7220776960448201526d373732b91039b2b632b1ba34b7b760911b6064820152608490fd5b600b546032810290808204603214901517156108235760649004801561081b575b60265410156106d5575b8480fd5b50600161080d565b634e487b7160e01b86526011600452602486fd5b50602b54600b54116106b1565b6003915014386106aa565b634e487b7160e01b85526021600452602485fd5b61086b614f28565b61066f565b50346105005760203660031901126105005761088a613953565b610892613bc2565b6001600160a01b038116156108aa576105cc90613c1a565b60405162461bcd60e51b815260206004820152602660248201527f4f776e61626c653a206e6577206f776e657220697320746865207a65726f206160448201526564647265737360d01b6064820152608490fd5b50346105005760a036600319011261050057610918613953565b50610921613969565b506084356001600160401b03811161075d57610941903690600401613993565b505060405163f23a6e6160e01b8152602090f35b50346105005780600319360112610500576020601d54604051908152f35b5034610500578060031936011261050057602060ff600e5460d81c166040519015158152f35b5034610500576020366003190112610500576020906040906001600160a01b036109c1613953565b168152602383522054604051908152f35b5034610500576020366003190112610500576020906040906001600160a01b036109fa613953565b1681528280522054604051908152f35b50346105005780600319360112610500576020601a54604051908152f35b5034610500576020366003190112610500576020906040906001600160a01b03610a50613953565b168152601f83522054604051908152f35b50346105005780600319360112610500576020601454604051908152f35b5034610500578060031936011261050057602060ff600e5460d01c166040519015158152f35b50346105005780600319360112610500576020602654604051908152f35b50346105005780600319360112610500576020600c54604051908152f35b50346105005780600319360112610500576020601e54604051908152f35b50346105005780600319360112610500576020600454604051908152f35b503461050057806003193601126105005760ff60085460a81c16604051906008811015610b4c57602092508152f35b634e487b7160e01b83526021600452602483fd5b50346105005760a036600319011261050057610b7a613953565b50610b83613969565b506001600160401b03604435818111610bec57610ba49036906004016139e3565b5050606435818111610bec57610bbe9036906004016139e3565b505060843590811161075d57610bd8903690600401613993565b505060405163bc197c8160e01b8152602090f35b8280fd5b506003196102603682011261075d576004356001600160401b038111610bec5761012080928236030112610bec576040519182018281106001600160401b0382111761156d57604052610c458160040161397f565b8252610c536024820161397f565b602083015260448101356001600160401b03811161078c578101903660238301121561078c57600482013590610c8882613ab4565b610c956040519182613a93565b82815285366024858701011161050057602084610104956024610d06980183860137830101526040850152606481013560608501526084810135608085015260a481013560a0850152610cea60c48201613acf565b60c0850152610cfb60e48201613acf565b60e085015201613acf565b61010082015261010060231936011261075d5760405161010081018181106001600160401b0382111761156d5760405260046024351015610bec5760243581526044356001600160a01b038116900361131c5760443560208201526064356040820152608435606082015260a4356001600160a01b038116810361131c57608082015260c43560a082015260e43560c082015261010435801515810361131c5760e0820152608036610123190112610bec576040518060808101106001600160401b0360808301111761156d5760808101604052610124356001600160a01b038116810361131c578152600461014435101561078c5761014435602082015261016435604082015261018435606082015260206101a31936011261078c57604051610e3081613a5d565b6101a435801515810361131c5781526101c4356001600160a01b038116900361131c57610244351515610244350361131c577f00000000000000000000000000000000000000000000000000000000000000006001600160a01b031633036108175784546001600160a01b03166108175783516001600160a01b031693610eb685613c1a565b600880546001600160a01b031981166101c4356001600160a01b03161790915560405163ec644ddd60e01b815260a0816004818a5afa90811561156257889161152f575b50604051630425172560e31b81523060048201526020816024818b5afa9081156113295789916114fd575b5060035560028054610100600160a81b031916600892831b610100600160a81b0316179055610224356005556101e4356006556102043560075561024435151560a01b60ff60a01b166001600160b01b03199092166101c4356001600160a01b03161791909117905560408101518051906001600160401b0382116114e9578190610fb1600a54613adc565b601f8111611477575b50602090601f83116001146114015789926113f6575b50508160011b916000199060031b1c191617600a555b60a0810151600b556080810151600c556060810151600d5560208101516001600160a01b031680156113eb57935b600e805460c084015160e0850151610100909501519551600167ff0000000000000160b81b031983166001600160a01b038a161791151560a01b60ff60a01b1691821795151560a81b60ff60a81b1695861796151560b01b60ff60b01b1696871790151560f01b60ff60f01b16908117909355835192969093919260048110156113d757600f5460ff610100600160a81b03602086015160081b169216906affffffffffffffffffffff60a81b161717600f556040820151601055606082015160115560018060a01b036080830151166bffffffffffffffffffffffff60a01b601254161760125560a082015160135560c08201516014558960155560018060a01b038151168061137e575b505060408051631a35245160e31b815290816004818c5afa8015611373578a918b91611334575b50601a55601955604051636f6f8c5d60e01b815297602090899060049082905afa9788156113295789986112f0575b5060c08101511561124a5750505050505050610224350361050057600e805460ff60c81b1916600160c81b1790555b60ff60085460a01c168061123b575b1561120157600b54600e805460ff60b81b1916600190921160b81b60ff60b81b169190911790555b65ffffffff00ff60c01b19600e5416600e5580601b5580601c5580601d5580601e5580f35b600e5460ff8160a81c161560001461122c5750600e805460ff60b81b1916600160b81b1790556111dc565b60ff60b81b1916600e556111dc565b5060ff600e5460a81c166111b4565b60808101516001600160a01b0316156112855750505050505050610224350361050057600e805460ff60c81b1916600160c81b1790556111a5565b909192939495965060018060a01b036020820151166112ab575b505050505050506111a5565b60e0015160ff60c81b90151560c81b166001600160a01b0396909616600167ff00000000ff000160b81b031991909116171717171717600e553880808080808061129f565b9097506020813d602011611321575b8161130c60209383613a93565b8101031261131c57519638611176565b600080fd5b3d91506112ff565b6040513d8b823e3d90fd5b9150506040813d60401161136b575b8161135060409383613a93565b810103126113675780516020918201519091611147565b8980fd5b3d9150611343565b6040513d8c823e3d90fd5b60165490602083015160048110156113c3576001600160a81b03199092161760a09190911b60ff60a01b16176016556040810151601755606001516018553880611120565b634e487b7160e01b8d52602160045260248dfd5b634e487b7160e01b8b52602160045260248bfd5b506101c43593611014565b015190503880610fd0565b9250600a8952600080516020615e3c8339815191529089935b601f198416851061145c576001945083601f19811610611443575b505050811b01600a55610fe6565b015160001960f88460031b161c19169055388080611435565b8181015183556020948501946001909301929091019061141a565b909150600a8952601f830160051c600080516020615e3c83398151915201602084106114d4575b908392915b601f820160051c600080516020615e3c8339815191520181106114c65750610fba565b8a81558493506001016114a3565b50600080516020615e3c83398151915261149e565b634e487b7160e01b88526041600452602488fd5b90506020813d602011611527575b8161151860209383613a93565b8101031261131c575138610f25565b3d915061150b565b611551915060a03d60a01161155b575b6115498183613a93565b810190613c98565b5050505038610efa565b503d61153f565b6040513d8a823e3d90fd5b634e487b7160e01b600052604160045260246000fd5b503461050057806003193601126105005761159c613cf2565b600e546001600160a01b0390818116903382900361078c5760ff60085460a81c1690600882101561084f57908492916005821461078c576007821461078c5760b01c60ff16156116ee576006919250036116b35782905b601b548015610bec5782809291819261162961161f612710611617601a5486613cdf565b048094614418565b9284601b55615a47565b5af1611633613e7f565b501561075d57602060249183541660405192838092630425172560e31b82523060048301525afa90811561060f578291611682575b50611675575b6001805580f35b61167d61591e565b61166e565b90506020813d82116116ab575b8161169c60209383613a93565b8101031261131c575138611668565b3d915061168f565b60405162461bcd60e51b815260206004820152601360248201527210d85b9b9bdd081dda5d1a191c985dc81e595d606a1b6044820152606490fd5b60048114908115611703575b506115f3575080fd5b6006915014386116fa565b5034610500578060031936011261050057611727613cf2565b611730336151b0565b156105005761166e615607565b5034610500578060031936011261050057602060ff600e5460b01c166040519015158152f35b503461050057602036600319011261050057602090600435815260248252604060018060a01b0391205416604051908152f35b50346105005780600319360112610500576020601b54604051908152f35b503461050057806003193601126105005760025460405160089190911c6001600160a01b03168152602090f35b50346105005760203660031901126105005760406020916004358152602d83522054604051908152f35b50346105005780600319360112610500576020600554604051908152f35b50346105005760203660031901126105005760043560275481101561075d5760276000527f98a476f1687bc3d60a2da2adbcba2c46958e61fa2fb4042cd7bc5816a710195b01546040516001600160a01b039091168152602090f35b5034610500578060031936011261050057602060ff60165460a01c166118ae60405180926139c0565bf35b50346105005780600319360112610500576012546040516001600160a01b039091168152602090f35b503461050057806003193601126105005760c0601954601a54601b54601c54601d5491601e5493604051958652602086015260408501526060840152608083015260a0820152f35b50346105005780600319360112610500576020601954604051908152f35b5034610500578060031936011261050057546040516001600160a01b039091168152602090f35b5034610500578060031936011261050057602060ff600e5460e01c166040519015158152f35b50346105005780600319360112610500576105cc614904565b50346105005780600319360112610500576020602b54604051908152f35b50346105005780600319360112610500576020600d54604051908152f35b50346105005780600319360112610500576020601554604051908152f35b50346105005780600319360112610500576016546040516001600160a01b039091168152602090f35b5034610500578060031936011261050057602060ff600e5460f01c166040519015158152f35b5034610500578060031936011261050057602060ff600e5460a81c166040519015158152f35b50346105005780600319360112610500576020601154604051908152f35b50346105005780600319360112610500576020600654604051908152f35b5034610500576020366003190112610500576020611ad4611acf613953565b614425565b604051908152f35b5034610500576040366003190112610500576001600160401b039060043582811161075d57611b0f9036906004016139e3565b91909260243590811161075d57611b2a9036906004016139e3565b9390611b34613cf2565b60085460ff8160a81c16600881101561084f5760040361078c5785850361078c57841561078c576032851161078c576001600160a01b03908116330361203a575b600f5493818560081c169485156120285760ff600e5460c81c16611f9e5760ff1681805b888210611fc45750506004811015611fb05780611df257508096815b878110611c705750505050505050611bd8602092611bd1615d77565b8092614418565b80611beb575b5060018055604051908152f35b611c677fbcd905a8eb4cc473497e2cd24cf41334ea7fad80c354380f8fff04a025b1e5f891604051907402130ba31b41031b7b6b83632ba32b2103bb4ba341605d1b86830152603582015268206661696c7572657360b81b6055820152603e8152611c5581613a78565b60405191829186835286830190613913565b0390a138611bde565b611c83611c7e828a896146d2565b6146e2565b611c8e8284886146d2565b35883b15610817576040516340c10f1960e01b81526001600160a01b038316600482015260248101829052858082604481838f5af19182611dda575b5050611d9e57509060019182611cde613df0565b6308c379a014611d55575b611cf6575b505b01611bb5565b611cfe613e7f565b50600080516020615e5c8339815191528660405192169180611d4c816060906020815260176020820152762637bb96b632bb32b61036b4b73a34b7339032b93937b960491b60408201520190565b0390a238611cee565b611d5d613e0e565b80611d69575b50611ce9565b90508590600080516020615e5c83398151915260405180611d956020948583528c881695830190613913565b0390a238611d63565b996001929a86611dd4931686526020805260408620611dbe828254613c61565b9055611dcd6015918254613c61565b9055614b43565b98611cf0565b611de390613a4a565b611dee578538611cca565b8580fd5b600195908603611f9e578197825b888110611e1d575050505050505050611bd8602092611bd1615d77565b611e2b611c7e828b8a6146d2565b611e368284896146d2565b35611e4360115482613cdf565b601054863b15611f9a57604051630ab714fb60e11b81526001600160a01b038516600482015260248101919091526044810191909152868082606481838b5af19182611f82575b5050611f5d575090889182611e9d613df0565b6308c379a014611f14575b611eb5575b505b01611e00565b611ebd613e7f565b50600080516020615e5c8339815191528760405192169180611f0b816060906020815260176020820152762637bb96b632bb32b61036b4b73a34b7339032b93937b960491b60408201520190565b0390a238611ead565b611f1c613e0e565b80611f28575b50611ea8565b90508690600080516020615e5c83398151915260405180611f546020948583528d881695830190613913565b0390a238611f22565b9a89929b87611f7c931687526020805260408720611dbe828254613c61565b99611eaf565b611f8b90613a4a565b611f96578638611e8a565b8680fd5b8780fd5b60405163fd34e50560e01b8152600490fd5b634e487b7160e01b82526021600452602482fd5b84611fd3611c7e848c8b6146d2565b16808552611ff36020601f81526040872054908052604087205490614418565b90156108175780156108175761200a838c896146d2565b351161078c5760019061201e838c896146d2565b3501910190611b99565b60405163424ca23960e01b8152600490fd5b83600f5460ff811660048110156121635783929190806120e5575060209150600460405180948193638da5cb5b60e01b835260081c165afa9081156120da57908291869161209f575b505b16330315611b7557604051635c427cd960e01b8152600490fd5b9150506020813d82116120d2575b816120ba60209383613a93565b81010312610817576120cc8291613c84565b38612083565b3d91506120ad565b6040513d87823e3d90fd5b6001146120f3575b50612085565b60209150600460405180948193638da5cb5b60e01b835260081c165afa9081156120da579082918691612128575b50386120ed565b9150506020813d821161215b575b8161214360209383613a93565b81010312610817576121558291613c84565b38612121565b3d9150612136565b634e487b7160e01b87526021600452602487fd5b5034610500578060031936011261050057612190613bc2565b600080546001600160a01b0319811682556001600160a01b03167f8be0079c531659141344cd1fd0a4f28419497f9722a3daafe3b4186f6b6457e08280a380f35b50346105005780600319360112610500576121ea613cf2565b60ff60085460a81c166008811015611fb0576004036105005761166e61405d565b503461050057602036600319011261050057612225613953565b90303303610500576020611ad4836151b0565b5034610500578060031936011261050057602060ff600e5460c01c166040519015158152f35b5034610500578060031936011261050057602060ff600e5460c81c166040519015158152f35b5034610500578060031936011261050057602060ff60085460a01c166040519015158152f35b50346105005780600319360112610500576020601c54604051908152f35b50346105005780600319360112610500576105cc6146f6565b506080366003190112610500576001600160401b03604435818111610bec5761230e903690600401613993565b9160643590811161078c576123279036906004016139e3565b929091612332613cf2565b60085460ff90818160a81c166008811015612b7a5715612b9f575b50333203612b8e57600854818160a81c16956008871015612b7a576001809703612b68573315612b5657600435958615612b44576005548015612b32578761239491613cdf565b3403612b2057600654946123aa60075487613c61565b421015612b0e576026956123bf898854613c61565b600d5410612afc574210612aea57338a52602096602888526123e58960408d2054613c61565b600c5410612ad857858560a01c161580612aa5575b612a93578a54604051638da5cb5b60e01b81526001600160a01b039691871691908d908b81600481875afa90811561060f57899291612a5b575b50163314612a495786163314612a3857888c8880600e5460f01c169182612a21575b5050612901575b50505050601691825485858216918261254e575b505050505050503386526028835260408620848154019055855b8481106125095750907ffd1903a7f9f31de6cf38a88eda98ae029aeba3b2ec48a599d7c0d900f0f335cb9291600e5460a81c16156000146124fc5734601d5401601d555b54600d54146124e7575b6040519283523392a2805580f35b6124ef6159bb565b6124f7614b52565b6124d9565b34601b5401601b556124cf565b825490600160401b82101561156d5761254861252a83898095018755613a13565b81546001600160a01b0360039290921b91821b19163390911b179055565b0161248b565b60a01c1660048110156128ed578890806127e9575050508015611367578890601780548381146000146126495750501061260657858360249235935416604051928380926331a9108f60e11b82528660048301525afa908115611329578991612614575b508233911603611f9a578752602484526040872090815490811680158091811561260a575b5015612606576125f1575b50505b38808080808581612471565b6001600160a01b0319163317905538806125e2565b8880fd5b90503314386125d7565b90508581813d8311612642575b61262b8183613a93565b810103126126065761263c90613c84565b386125b2565b503d612621565b9091939281116000146127e5578084106127e557908a95949392918c5b8181106127775750508b955b612682575b5050505050506125e5565b805486101561277257886126978785856146d2565b358d87875416604051938480926331a9108f60e11b825285600483015260249687915afa9182156127665791612731575b50873391160361272d578d52895260408c2080549686881691821580938115612723575b501561271f578d986127049361270a575b5050614b43565b95612672565b6001600160a01b0319163317905538806126fd565b8e80fd5b90503314386126ec565b8d80fd5b90508b81813d831161275f575b6127488183613a93565b8101031261271f5761275990613c84565b386126c8565b503d61273e565b604051903d90823e3d90fd5b612677565b9091929394959681018082116127d1575b8281106127a6575061279990614b43565b908b969594939291612666565b6127b18287876146d2565b356127bd8288886146d2565b351461272d576127cc90614b43565b612788565b634e487b7160e01b8e52601160045260248efd5b8b80fd5b935093509350508781146000146128765750601854604051627eeac760e11b8152336004820152602481019190915291829060449082905afa90811561286b57879161283e575b5060175411156125e5578580fd5b90508381813d8311612864575b6128558183613a93565b8101031261131c575138612830565b503d61284b565b6040513d89823e3d90fd5b600214612885575b50506125e5565b6040516370a0823160e01b815233600482015291829060249082905afa90811561286b5787916128c0575b5060175411611dee57388361287e565b90508381813d83116128e6575b6128d78183613a93565b8101031261131c5751386128b0565b503d6128cd565b634e487b7160e01b8c52602160045260248cfd5b604051636b90bda960e01b815291829060049082905afa8015612a165786918d916129de575b501680156129cc578b92813b1561078c57839183918360a46040518097819682956324fa7e3f60e21b8452336004850152306024850152602435604485015260806064850152816084850152848401378181018301849052601f01601f191681010301925af1801561060f576129b8575b50503389526025865260408920805460ff1916891790553880808861245d565b6129c190613a4a565b612606578838612998565b6040516343361aaf60e01b8152600490fd5b8092508a8092503d8311612a0f575b6129f78183613a93565b810103126127e557612a098691613c84565b38612927565b503d6129ed565b6040513d8e823e3d90fd5b60409192503381526025845220541615888e612456565b60405162ca6a8360e51b8152600490fd5b604051635f2a002d60e11b8152600490fd5b8092508c8092503d8311612a8c575b612a748183613a93565b8101031261272d57612a868891613c84565b38612434565b503d612a6a565b604051631274fa9d60e31b8152600490fd5b5085600e5460a81c168015612ace575b806123fa5750338b526028885260408b205415156123fa565b5089891415612ab5565b604051637145fa7b60e01b8152600490fd5b604051633d8c21b360e01b8152600490fd5b6040516302edeeb760e31b8152600490fd5b60405163fd2a413d60e01b8152600490fd5b60405163569e8c1160e01b8152600490fd5b60405163d2100d7360e01b8152600490fd5b60405163f4f5b73360e01b8152600490fd5b60405163d92e233d60e01b8152600490fd5b6040516338c0a90160e11b8152600490fd5b634e487b7160e01b88526021600452602488fd5b60405162c44f5760e51b8152600490fd5b600654421061234d5760ff60a81b1916600160a81b176008557f3d31b97eef590df350bb2cdbc390034c613c9f23ea6ae1906682628c85248b538680a13861234d565b5034610500578060031936011261050057602060ff600254166040519015158152f35b5034610500578060031936011261050057602060ff600f54166118ae60405180926139c0565b50346105005780600319360112610500576020601754604051908152f35b50346105005760203660031901126105005760209060ff906040906001600160a01b03612c74613953565b168152602284522054166040519015158152f35b50346105005760203660031901126105005760209060ff906040906001600160a01b03612cb3613953565b168152602584522054166040519015158152f35b50346105005780600319360112610500576020600b54604051908152f35b5034610500578060031936011261050057602060ff600e5460e81c166040519015158152f35b50346105005780600319360112610500576020602c54604051908152f35b5034610500576020366003190112610500576020906040906001600160a01b03612d51613953565b168152602183522054604051908152f35b50346105005760208060031936011261075d57600435303303610bec5790602e548352602d8152816040842055612d9a602e54614b43565b602e55602c5491602a549060265491612db285613dc5565b91612dc06040519384613a93565b858352612dcc86613dc5565b8386019290601f1901368437875b87811061303957505050855b858110612f9f5750612e17600e549560ff60e01b198716600e55612e0c81602a54613c61565b602a55602b54613c61565b9384602b55604051928184019082855251809152604084019291885b828110612f82575050505090807f32a1b5731a757f192a06ca973715ca4dbc42c2d15323cabaa74e0a2d5dc088e4920390a16016546001600160a01b03161580159190612f7757808310801590612f6b575b15612ebc576008805460ff60a81b1916600160aa1b179081905560a01c60ff1680612f5e575b80612f51575b80612f43575b612ec3575b5050505080f35b612ee592612edc9280612f38575b15612f2e5790614418565b60055490613cdf565b612710612ef460195483613cdf565b04612f0b612f028284614418565b92601b54614418565b601b55601e55601c5561ffff60d81b1916600160d81b17600e5538808080612ebc565b50600b5490614418565b50600b548110612ed1565b5060ff8460d81c1615612eb7565b5060ff8460b81c16612eb1565b5060ff8460a81c16612eab565b50600b54831015612e85565b600b54831015612e85565b83516001600160a01b031685529381019392810192600101612e33565b9193916001600160a01b03612fb48287613ddc565b5116906027918254600160401b81101561156d57600181018085558110156130235761301b936000527f98a476f1687bc3d60a2da2adbcba2c46958e61fa2fb4042cd7bc5816a710195b01906bffffffffffffffffffffffff60a01b825416179055614b43565b939193612de6565b634e487b7160e01b600052603260045260246000fd5b61304f8161304a84899a989a614418565b614418565b604051868101908582528360408201526040815261306c81613a78565b5190209061307a8385613c61565b91811561312a57613096849361312295936130fd930690613c61565b6130de6130a282613a13565b8d6130bf60018060a01b03809454600394851b1c16978892613ddc565b526130d26130cd888b613c61565b613a13565b9054911b1c1691613a13565b90919082549060031b9160018060a01b03809116831b921b1916179055565b61310e816130de6130cd8588613c61565b8a52601f865260408a20611dcd8154614b43565b959395612dda565b634e487b7160e01b8c52601260045260248cfd5b5034610500578060031936011261050057600e546040516001600160a01b039091168152602090f35b5034610500576020366003190112610500576004359060265482101561050057602061319283613a13565b905460405160039290921b1c6001600160a01b03168152f35b503461050057806003193601126105005760018060a01b039060208282541692600f5460081c161515602460405180958193635aa35d2560e11b835260048301525afa9081156127665790613206575b602090604051908152f35b506020813d8211613230575b8161321f60209383613a93565b8101031261131c57602090516131fb565b3d9150613212565b50346105005780600319360112610500576020601354604051908152f35b50346105005780600319360112610500576020611ad460065460075490613c61565b5034610500578060031936011261050057602060ff600e5460b81c166040519015158152f35b5034610500576020366003190112610500576020906040906001600160a01b036132c6613953565b168152602883522054604051908152f35b5034610500576040366003190112610500576024356001600160401b03811161075d576133089036906004016139e3565b60025460081c6001600160a01b031633036133705761332681613dc5565b916133346040519384613a93565b8183526020918284019060051b820191368311611dee57905b82821061336157856105cc86600435613eaf565b8135815290830190830161334d565b60405162461bcd60e51b815260206004820181905260248201527f4f6e6c792056524620436f6f7264696e61746f722063616e2066756c66696c6c6044820152606490fd5b50346105005780600319360112610500576016546017546018546040516001600160a01b03841681526080939092906133f890602085019060a01c60ff166139c0565b60408301526060820152f35b50346105005760803660031901126105005761341e613953565b50613427613969565b506064356001600160401b03811161075d57613447903690600401613993565b5050604051630a85bd0160e11b8152602090f35b50346105005780600319360112610500576020600354604051908152f35b5034610500578060031936011261050057613492613cf2565b600860ff815460a81c1681811015610b4c5760040361075d576134b3615b04565b50601654600f5491926001600160a01b03918216151592909181831c16801561202857600e9160ff835460c81c166137755760ff16600481101561216357806137005750803b15611dee576040516340c10f1960e01b81523360048201526024810186905290869081908390604490829084905af191826136ec575b505061363d5761166e93506001613544613df0565b6308c379a0146135d4575b61355b575b5050615906565b613563613e7f565b50604051600080516020615e5c8339815191523391806135a88160609060208152601060208201526f131bddcb5b195d995b081c995d995c9d60821b60408201520190565b0390a2805460ff60d01b1916600160d01b179055805460ff60a81b1916600560a81b1790553880613554565b6135dc613e0e565b806135e8575b5061354f565b90508590600080516020615e5c833981519152604051602081528061361233946020830190613913565b0390a2815460ff60d01b1916600160d01b178255825460ff60a81b1916600560a81b178355386135e2565b50509061364990615d1f565b604051636e8b38db60e01b81523360048201529060208260248186305af18084916136b7575b61166e935061367f575b50615906565b8015613679576040519081527f3367befd2b2f39615cd79917c2153263c4af1d3945ec003e5d5bfc13a8d8583360203392a238613679565b90506020833d82116136e4575b816136d160209383613a93565b8101031261131c5761166e92519061366f565b3d91506136c4565b6136f590613a4a565b611dee57853861352f565b600103613775578560105491866011540290803b15610bec57604051630ab714fb60e11b8152336004820152602481019490945260448401919091528290606490829084905af19081613762575b5061363d5761166e93506001613544613df0565b61376e90969196613a4a565b943861374e565b604051631558dc5f60e31b8152600490fd5b50346105005780600319360112610500576020600754604051908152f35b5034610500578060031936011261050057602060ff600e5460a01c166040519015158152f35b50346105005780600319360112610500576020601054604051908152f35b50346105005780600319360112610500576020602954604051908152f35b50346105005780600319360112610500576020601854604051908152f35b5034610500578060031936011261050057613855613841613b16565b604051918291602083526020830190613913565b0390f35b50346105005780600319360112610500576020602e54604051908152f35b50346105005780600319360112610500576020602a54604051908152f35b50346105005780600319360112610500576008546040516001600160a01b039091168152602090f35b90503461075d57602036600319011261075d5760043563ffffffff60e01b8116809103610bec5760209250630a85bd0160e11b8114908115613902575b5015158152f35b630271189760e51b149050386138fb565b919082519283825260005b84811061393f575050826000602080949584010152601f8019910116010190565b60208183018101518483018201520161391e565b600435906001600160a01b038216820361131c57565b602435906001600160a01b038216820361131c57565b35906001600160a01b038216820361131c57565b9181601f8401121561131c578235916001600160401b03831161131c576020838186019501011161131c57565b9060048210156139cd5752565b634e487b7160e01b600052602160045260246000fd5b9181601f8401121561131c578235916001600160401b03831161131c576020808501948460051b01011161131c57565b6026548110156130235760266000527f744a2cf8fd7008e3d53b67916e73460df9fa5214e3ef23dd4259ca09493a35940190600090565b6001600160401b03811161156d57604052565b602081019081106001600160401b0382111761156d57604052565b606081019081106001600160401b0382111761156d57604052565b90601f801991011681019081106001600160401b0382111761156d57604052565b6001600160401b03811161156d57601f01601f191660200190565b3590811515820361131c57565b90600182811c92168015613b0c575b6020831014613af657565b634e487b7160e01b600052602260045260246000fd5b91607f1691613aeb565b60405190600082600a5491613b2a83613adc565b80835292600190818116908115613ba05750600114613b53575b50613b5192500383613a93565b565b600a60009081529150600080516020615e3c8339815191525b848310613b855750613b51935050810160200138613b44565b81935090816020925483858a01015201910190918592613b6c565b905060209250613b5194915060ff191682840152151560051b82010138613b44565b6000546001600160a01b03163303613bd657565b606460405162461bcd60e51b815260206004820152602060248201527f4f776e61626c653a2063616c6c6572206973206e6f7420746865206f776e65726044820152fd5b600080546001600160a01b039283166001600160a01b03198216811783559216907f8be0079c531659141344cd1fd0a4f28419497f9722a3daafe3b4186f6b6457e09080a3565b91908201809211613c6e57565b634e487b7160e01b600052601160045260246000fd5b51906001600160a01b038216820361131c57565b908160a091031261131c57613cac81613c84565b91602082015191604081015191606082015163ffffffff8116810361131c5760809092015161ffff8116810361131c5790565b81810292918115918404141715613c6e57565b600260015414613d03576002600155565b60405162461bcd60e51b815260206004820152601f60248201527f5265656e7472616e637947756172643a207265656e7472616e742063616c6c006044820152606490fd5b15613d4f57565b60405162461bcd60e51b815260206004820152602860248201527f54696d657374616d702064656c61792069737375652c2074727920616761696e6044820152672073686f72746c7960c01b6064820152608490fd5b8115613daf570490565b634e487b7160e01b600052601260045260246000fd5b6001600160401b03811161156d5760051b60200190565b80518210156130235760209160051b010190565b60009060033d11613dfd57565b905060046000803e60005160e01c90565b600060443d10613e6b57604051600319913d83016004833e81516001600160401b03918282113d602484011117613e6e57818401948551938411613e76573d85010160208487010111613e6e5750613e6b92910160200190613a93565b90565b949350505050565b50949350505050565b3d15613eaa573d90613e9082613ab4565b91613e9e6040519384613a93565b82523d6000602084013e565b606090565b600254600891600091831c6001600160a01b03163303613370576004540361403057600e805460ff60e81b1916600160e81b17815583519093901561401c576020015190303b156105005760405191631000850d60e21b83526004830152808260248183305af1918261400d575b509061400857600190613f2e613df0565b6308c379a014613f90575b50613f43575b5050565b7fbccec8509a79ecd26780c2699a3ca2503c3a3455b361b5fcda5760593edb03c9613f6f613841613e7f565b0390a1805460ff60a81b1916600160a91b179055805460ff60e01b19169055565b613f98613e0e565b9081613fa5575b50613f39565b7fbcd905a8eb4cc473497e2cd24cf41334ea7fad80c354380f8fff04a025b1e5f8919250613fe29092604051918291602083526020830190613913565b0390a1815460ff60a81b1916600160a91b178255825460ff60e01b191683553880613f9f565b505050565b61401690613a4a565b38613f1d565b634e487b7160e01b82526032600452602482fd5b50805460ff60a81b1916600160a91b17905550565b9081602091031261131c5751801515810361131c5790565b600e5460ff60009160c81c1615613775576016546001600160a01b0391908216151590614088615b04565b50836012541693600f549060ff82169160081c1690600b54858061440d575b156144075750602b54955b806142b257506004958682101561429f57600382146141d4575081156141c3576141b257601054813b1561078c57604080516323b872dd60e01b815230888201908152336020820152918201929092529091849183919082908490829060600103925af180156141a757614192575b5061412b90615d1f565b60405192636e8b38db60e01b8452339084015260208360248184305af18061415d575b613b51935061367f5750615906565b90506020833d821161418a575b8161417760209383613a93565b8101031261131c57613b5192519061414e565b3d915061416a565b916141a061412b9293613a4a565b9190614121565b6040513d85823e3d90fd5b604051631558dc5f60e31b81528590fd5b60405163424ca23960e01b81528690fd5b8392506141e8915060149796949754613da5565b02801561428e578580808093335af16141ff613e7f565b501561427e5761420e90615d1f565b60405190636e8b38db60e01b8252339082015260208160248187305af1849181614244575b50613b5193945061367f5750615906565b9091506020813d8211614276575b8161425f60209383613a93565b8101031261081757613b5193945051908493614233565b3d9150614252565b5060405163880a149160e01b8152fd5b604051630193f71f60e51b81528390fd5b634e487b7160e01b855260218752602485fd5b9396958392506142c59150601354613da5565b029182156143f55760405163a9059cbb60e01b81523360048201526024810193909352602092908390829060449082908a905af19081156143ea5786916143cd575b50156143bb5761431690615d1f565b604051636e8b38db60e01b815233600482015290808260248188305af1859281614385575b50613b5194955061434d575050615906565b8115613554577f3367befd2b2f39615cd79917c2153263c4af1d3945ec003e5d5bfc13a8d85833906040519283523392a23880613554565b9092508181813d83116143b4575b61439d8183613a93565b81010312611dee57613b519495505191859461433b565b503d614393565b60405163880a149160e01b8152600490fd5b6143e49150833d8511610608576105fa8183613a93565b38614307565b6040513d88823e3d90fd5b604051630193f71f60e51b8152600490fd5b956140b2565b5080602b54106140a7565b91908203918211613c6e57565b600e5460ff90818160d01c1661465e5760085490828260a81c169160088310156139cd57600783146145fa5760a01c8316806145ee575b806145e2575b806145d7575b6145365760a81c8216159081614517575b50614485575050600090565b60009160018060a01b031682526028602052604082205415159081614503575b506144ad5790565b60286020526144c3604082205460055490613cdf565b611f40908181029181830414901517156144ef57612710900480601d5410156144ea575090565b905090565b634e487b7160e01b82526011600452602482fd5b9050602260205260408220541615386144a5565b600481149150811561452b575b5038614479565b600691501438614524565b5050509060009160018060a01b0316825260286020526040822054601f60205260408320546023602052604084205491818111806145c5575b61457857505050565b614586929161304a91614418565b60055460195490612710918203948286116145b15750613e6b93946145aa91613cdf565b0490613cdf565b634e487b7160e01b81526011600452602490fd5b506145d08282614418565b831061456f565b50601c541515614468565b50828160b81c16614462565b50828160a81c1661445c565b506001600160a01b03909316600090815260286020526040902054905080614625575b505050600090565b60055461463191613cdf565b9160a81c1661464e5780601d541015613e6b57505b38808061461d565b80601b541015613e6b5750614646565b908060085460a01c1691826146c5575b5050806146a4575b6146805750600090565b6001600160a01b0316600090815260286020526040902054600554613e6b91613cdf565b506001600160a01b0381166000908152602860205260409020541515614676565b60a81c169050388061466e565b91908110156130235760051b0190565b356001600160a01b038116810361131c5790565b600880549060ff808360a81c16828110156139cd576007811461131c5761472260065460075490613c61565b421061131c576016546001600160a01b03949085161591600181036148e05750501561489857602654600b54111561131c57815460ff60a81b1916600760a81b1782555b80825460a81c16828110156139cd5760076147819114613d48565b614789615a04565b614791614f62565b80825460a01c1680614889575b8061485f575b6147ad57505050565b80600e5460c81c1661400857600f5490811660048110156139cd5761481b5750600f54901c16803b1561131c5760008091602460405180948193636382ff5160e11b83523060048401525af1801561480f576148065750565b613b5190613a4a565b6040513d6000823e3d90fd5b901c1660105490803b1561131c57604051631d8efab160e21b815230600482015260248101929092526000908290604490829084905af1801561480f576148065750565b5080600f541660048110156139cd57801590811561487e575b506147a4565b600191501438614878565b5082600f54831c16151561479e565b600b54603281029080820460321490151715613c6e576064900480156148d8575b602654101561131c57815460ff60a81b1916600760a81b178255614766565b5060016148b9565b909150156148ef575b50614766565b60ff60a81b1916600760a81b178255386148e9565b6012546001600160a01b0390811661131c5760145461131c5761492c60065460075490613c61565b42101561131c576000908082541633148015614b36575b1561075d576008805460ff90818160a81c1683811015614b22578015908115614b17575b501561081757818160a01c16808091614aed575b80614ade575b611dee571561081757600e805460ff60d01b1916600160d01b17905560ff60a81b1916600560a81b1782556149b4615a04565b6149bc614f62565b80825460a01c1680614acf575b80614aa5575b6149da575b50505050565b80600e5460c81c166149d457600f54908116600481101561084f57614a4c5750600f54901c16803b1561075d57818091602460405180958193636382ff5160e11b83523060048401525af19081156127665750614a3d575b505b388080806149d4565b614a4690613a4a565b38614a32565b901c16601054813b15610bec57604051631d8efab160e21b81523060048201526024810191909152919081908390604490829084905af19081156127665750614a96575b50614a34565b614a9f90613a4a565b38614a90565b5080600f5416600481101561084f578015908115614ac4575b506149cf565b600191501438614abe565b5082600f54831c1615156149c9565b5082600e5460a81c1615614981565b5082600f54166004811015612163578015908115614b0c575b5061497b565b600191501438614b06565b600191501438614967565b634e487b7160e01b86526021600452602486fd5b5080600854163314614943565b6000198114613c6e5760010190565b600080546008805490926001600160a01b03928316929160a81c60ff1684811015611fb057600114614f1b575b83549160ff8360a81c1685811015610b4c5760028114908115614f10575b501561075d5760265493602a5494614bb58682614418565b80614bc5600b54602b5490614418565b601e811115614f0b5750601e5b80602c5511614f02575b50602c54948515614eea57506004929160a0917f4ff4e84912750d469e8d0e190997710c06112023943415787c2f744eb09c0da46060602e54926040998a5191825260209b8c8301528a820152a2855163ec644ddd60e01b815293849182905afa8015614ee0578391849085948693614eb7575b50600254891c1691865190614c6482613a5d565b86825287519163125fa26760e31b8a840152511515602483015260248252614c8b82613a78565b87519260c084018481106001600160401b03821117614ea3578a9695949389938893614d32938d5286528386019788528b8087019a61ffff8093168c526060880163ffffffff9384809316825260808a01936001855260a08b01968752519d8e9c8d9b8c9a634d8e1c2f60e11b8c5260048c01525160248b01525160448a01525116606488015251166084860152511660a48401525160c060c484015260e4830190613913565b03925af1829181614e74575b50614e205750600190614d4f613df0565b6308c379a014614db7575b50614d6457505050565b7fab4c58d5f7fcd2f6f276017059fe707292278a4b150b6402c89eb3899a7494ec91614da1614d91613e7f565b9251928284938452830190613913565b0390a1805460ff60a81b1916600160a91b179055565b614dbf613e0e565b9081614dcc575b50614d5a565b83518581529092507f1bc0b7451d1b26a4c7bfd7b118b2756c98249ac5f3d51e76be5f33aab5489902918190614e059087830190613913565b0390a1835460ff60a81b1916600160a91b1784553880614dc6565b6004819055600e805460ff60e01b1916600160e01b179055845460ff60a81b1916600360a81b1790945550519182527ff81446731d23d202ea16cf590daf64c6087251171612b2adde6acbef4b37580291a1565b9091508481813d8311614e9c575b614e8c8183613a93565b81010312610bec57519038614d3e565b503d614e82565b634e487b7160e01b89526041600452602489fd5b9250935050614ed4915060a03d811161155b576115498183613a93565b90949293509138614c50565b84513d85823e3d90fd5b60ff60a81b1916600160aa1b17909655505050505050565b602c5538614bdc565b614bd2565b600391501438614b9d565b614f23614f28565b614b7f565b6008805460ff60a81b1916600160a91b1790557fba56b904ffec191559c3639e6019beb8a654605dbf6ba72f33361432a97c2bea600080a1565b60085460ff8160a01c168015613f3f57806151a1575b614f7f5750565b6012546001600160a01b03919082161561507257508060125416604051916370a0823160e01b83523060048401526020928381602481865afa90811561480f57600091615045575b5080614fd35750505050565b60085460405163a9059cbb60e01b815292166001600160a01b0316600483015260248201529082908290816000816044810103925af191821561480f57600092615028575b50501561131c57388080806149d4565b61503e9250803d10610608576105fa8183613a93565b3880615018565b908482813d831161506b575b61505b8183613a93565b8101031261050057505138614fc7565b503d615051565b600f5460ff811660048110156139cd57600381036150b757505050479081615098575050565b6000808080948194600854165af16150ae613e7f565b50156105005750565b156150c157505050565b829060081c16601054906040516331a9108f60e11b8152826004820152602081602481855afa90811561480f57600091615168575b50841630146151055750505050565b803b1561131c576040516323b872dd60e01b8152306004820152939092166001600160a01b03166024840152604483015260009082908183816064810103925af1801561480f57615159575b8080806149d4565b61516290613a4a565b38615151565b906020823d8211615199575b8161518160209383613a93565b81010312610500575061519390613c84565b386150f6565b3d9150615174565b5060ff600e5460c81c16614f78565b6008549060ff91828160a81c1690600882101590816139cd5760049283811480156155f9575b8381156155e9575b81156155d9575b50156155ce57600e5492868460d01c166000146152e25750505050909160018060a01b0383166000918183526022602052806040842054166152c257602860205260408320549081156152d9578060085460a01c1690816152ca575b50156152c257828092615258829360055490613cdf565b9687918352602260205260408320600160ff198254161790555af161527b613e7f565b5015615285575090565b60649060206040519162461bcd60e51b835282015260166024820152751499599d5b99081d1c985b9cd9995c8819985a5b195960521b6044820152fd5b505091505090565b9050600e5460a81c1638615241565b50505091505090565b6155b9576007036153b9575050506001600160a01b0381166000818152602260205260408120549092919084166153b2576028602052604083205480156153875760055461532f91613cdf565b93600e5460a81c1660001461538f57601b5484811061538757838581948294615359838596614418565b601b555b8352602260205260408320805460ff191660011790555af161537d613e7f565b5015610500575090565b505050905090565b601d54848110615387578385819482946153aa838596614418565b601d5561535d565b5050905090565b938092939460a01c16806155ad575b806155a1575b80615596575b156154cf57505060018060a01b0382169160009183835260286020526040832054601f602052604084205460236020526040852054918181118015906154bc575b6154b257615427929161304a91614418565b9060055490601954916127109283039183831161549f5750615454929161544d91613cdf565b0482613cdf565b93601c548086116154965785859485948594615471848796614418565b601c558452602360205261548a60408520918254613c61565b90555af161537d613e7f565b50505050905090565b634e487b7160e01b875260119052602486fd5b5050505050905090565b506154c78282614418565b831015615415565b908092939160a81c16156154e557505050600090565b60018060a01b0381169260009284845260286020526040842054156153875760226020526040842054166153b2576028602052615529604084205460055490613cdf565b90611f40918281029281840414901517156155835750612710900492601d5484811061538757838581948294615560838596614418565b601d558352602260205260408320805460ff191660011790555af161537d613e7f565b634e487b7160e01b845260119052602483fd5b50601c5415156153d4565b50818160b81c166153ce565b50818160a81c166153c8565b602184634e487b7160e01b6000525260246000fd5b505050505050600090565b90506155b95760078114836151e5565b90506155b95760058114836151de565b5060009250600681146151d6565b600060018060a01b0381541660ff60085460a01c16806157ae575b8061579f575b80615794575b6156f7575b60ff600e5460a81c1615615645575050565b60095480615657575050506001600955565b600181036156715750505061566a6157bd565b6002600955565b60021461567c575050565b602060249160405192838092630425172560e31b82523060048301525afa9182156127665780926156c3575b50506156b6575b6003600955565b6156be61591e565b6156af565b9091506020823d82116156ef575b816156de60209383613a93565b8101031261050057505138806156a8565b3d91506156d1565b81601e54615784575b158061577a575b1561563357604051630425172560e31b8152306004820152602081602481855afa9081156141a7578391615749575b50156156335761574461591e565b615633565b90506020813d8211615772575b8161576360209383613a93565b81010312610bec575138615736565b3d9150615756565b50601e5415615707565b5061578d6157bd565b6001615700565b50601c54151561562e565b5060ff600e5460b81c16615628565b5060ff600e5460a81c16615622565b6000600e5460ff90818160d81c16806158fb575b615891575b818160a81c161580615886575b6157fb575b5050806157f25750565b613b5190615a47565b60b01c8116156158555760085460a81c1660088110156139cd5760060361131c575b601d546107d091828202928284041482151715613c6e5761584661271061584e94048093614418565b601d55613c61565b38806157e8565b60085460a81c1660088110156139cd576004811490811561587b575b5061581d57600080fd5b600691501438615871565b50601d5415156157e3565b91818360b01c166000146158c7578160085460a81c166008811015611fb05760060361050057505b601e54916000601e556157d6565b8160085460a81c166008811015611fb057600481149081156158f0575b501561050057506158b9565b6006915014386158e4565b50601e5415156157d1565b15613b5157602b5460265403613b5157613b51615607565b600060018060a01b03815416600354801561597657813b15610bec57604051633d40f28f60e01b81523060048201526024810191909152919081908390818381604481015b03925af190811561276657506148065750565b60405162461bcd60e51b815260206004820152601860248201527f4e6f20737562736372697074696f6e2061737369676e656400000000000000006044820152606490fd5b600060018060a01b038154166003548015610bec57813b15610bec5760405163032a136160e11b8152306004820152602481019190915291908190839081838160448101615963565b600060018060a01b03815416600354813b15610bec57604051630221a1c360e51b8152306004820152602481019190915291908190839081838160448101615963565b6000805460405163524d530b60e01b81529192906001600160a01b03906020908490600490829085165afa928315615af9578493615abe575b50821615610bec5782918291604051906020820191635e5bc1c560e11b835281602482015260248152615ab281613a78565b51925af16150ae613e7f565b9092506020813d8211615af1575b81615ad960209383613a93565b8101031261078c57615aea90613c84565b9138615a80565b3d9150615acc565b6040513d86823e3d90fd5b6000338152602091601f8352604080832054928315615d0e573381528480528181205494858503958514615cfd5760165485939291906001600160a01b0381169081615b56575b505033825280522055565b60ff91929394955060a01c166004811015615ce95786949392919080615be857508394509060249181939451928380926370a0823160e01b82523360048301525afa908115614ee0578391615bbb575b506017541161075d57908492915b3880615b4b565b90508181813d8311615be1575b615bd28183613a93565b81010312610bec575138615ba6565b503d615bc8565b60018103615c6c57506018548451627eeac760e11b81523360048201526024810191909152939450919290918290829060449082905afa908115614ee0578391615c3f575b506017541161075d5790849291615bb4565b90508181813d8311615c65575b615c568183613a93565b81010312610bec575138615c2d565b503d615c4c565b600214615c7a575b50615bb4565b8394509060249181939451928380926370a0823160e01b82523360048301525afa908115614ee0578391615cbc575b506017541161075d579084929138615c74565b90508181813d8311615ce2575b615cd38183613a93565b81010312610bec575138615ca9565b503d615cc9565b634e487b7160e01b84526021600452602484fd5b8251630ccaf35d60e41b8152600490fd5b81516358cd4fc160e11b8152600490fd5b601654600b54906001600160a01b0316151580615d6c575b15615d665750602b54905b601554018060155514615d5157565b6008805460ff60a81b1916600360a91b179055565b90615d42565b5080602b5410615d37565b601654600b546001600160a01b03918216151580615e30575b15615e2b5750602b545b60155414615da55750565b6008805460ff60a81b1916600360a91b179055600054604051630425172560e31b81523060048201529160209183916024918391165afa90811561480f57600091615dfa575b50615df257565b613b5161591e565b906020823d8211615e23575b81615e1360209383613a93565b8101031261050057505138615deb565b3d9150615e06565b615d9a565b5080602b5410615d9056fec65a7bb8d6351c1cf70c95a316cc6a92839c986682d98bc35f958f4883f9d2a818381720d6efb26847068a65e3be979f1243520b7db6b16331969a7acdb200d5a2646970667358221220b8500896e34a6f40dd3df614677ea99efe38ee7312a81c715f3e6d3c0d0da0c464736f6c63430008130033",
  "linkReferences": {},
  "deployedLinkReferences": {}
}