{
  "_format": "hh-sol-artifact-1",
  "contractName": "Pool",
  "sourceName": "contracts/Pool.sol",
  "abi": [
    {
      "inputs": [
        {
          "internalType": "address",
          "name": "_factory",
          "type": "address"
        }
      ],
      "stateMutability": "nonpayable",
      "type": "constructor"
    },
    {
      "inputs": [],
      "name": "ArrayLengthMismatch",
      "type": "error"
    },
    {
      "inputs": [],
      "name": "BatchTooLarge",
      "type": "error"
    },
    {
      "inputs": [],
      "name": "ContractsCannotPurchase",
      "type": "error"
    },
    {
      "inputs": [],
      "name": "CreatorNotAllowed",
      "type": "error"
    },
    {
      "inputs": [],
      "name": "ExceedsMaxSlots",
      "type": "error"
    },
    {
      "inputs": [],
      "name": "ExceedsSlotLimit",
      "type": "error"
    },
    {
      "inputs": [],
      "name": "ExceedsWinnersCount",
      "type": "error"
    },
    {
      "inputs": [],
      "name": "IncorrectPayment",
      "type": "error"
    },
    {
      "inputs": [],
      "name": "InvalidNonPrizedPurchase",
      "type": "error"
    },
    {
      "inputs": [],
      "name": "InvalidPoolState",
      "type": "error"
    },
    {
      "inputs": [],
      "name": "InvalidPrizeAmount",
      "type": "error"
    },
    {
      "inputs": [],
      "name": "InvalidPrizeCollection",
      "type": "error"
    },
    {
      "inputs": [],
      "name": "InvalidPrizeType",
      "type": "error"
    },
    {
      "inputs": [],
      "name": "InvalidState",
      "type": "error"
    },
    {
      "inputs": [],
      "name": "InvalidWinnerAddress",
      "type": "error"
    },
    {
      "inputs": [],
      "name": "MintingNotSupported",
      "type": "error"
    },
    {
      "inputs": [],
      "name": "NoPrizesClaimedYet",
      "type": "error"
    },
    {
      "inputs": [],
      "name": "NoPrizesToClaim",
      "type": "error"
    },
    {
      "inputs": [],
      "name": "NotAWinner",
      "type": "error"
    },
    {
      "inputs": [],
      "name": "OnlyOperator",
      "type": "error"
    },
    {
      "inputs": [],
      "name": "PoolDurationElapsed",
      "type": "error"
    },
    {
      "inputs": [],
      "name": "PoolNotActive",
      "type": "error"
    },
    {
      "inputs": [],
      "name": "PrizeTransferFailed",
      "type": "error"
    },
    {
      "inputs": [],
      "name": "ProtocolAdminNotAllowed",
      "type": "error"
    },
    {
      "inputs": [],
      "name": "SocialEngagementNotConfigured",
      "type": "error"
    },
    {
      "inputs": [],
      "name": "TimestampDelayIssue",
      "type": "error"
    },
    {
      "inputs": [],
      "name": "UnauthorizedCaller",
      "type": "error"
    },
    {
      "inputs": [],
      "name": "ZeroAddress",
      "type": "error"
    },
    {
      "inputs": [],
      "name": "ZeroQuantity",
      "type": "error"
    },
    {
      "inputs": [],
      "name": "ZeroSlotFee",
      "type": "error"
    },
    {
      "anonymous": false,
      "inputs": [
        {
          "indexed": false,
          "internalType": "string",
          "name": "reason",
          "type": "string"
        }
      ],
      "name": "BatchProcessingFailed",
      "type": "event"
    },
    {
      "anonymous": false,
      "inputs": [
        {
          "indexed": false,
          "internalType": "bytes",
          "name": "lowLevelData",
          "type": "bytes"
        }
      ],
      "name": "BatchProcessingFailedBytes",
      "type": "event"
    },
    {
      "anonymous": false,
      "inputs": [
        {
          "indexed": true,
          "internalType": "address",
          "name": "winner",
          "type": "address"
        },
        {
          "indexed": false,
          "internalType": "string",
          "name": "reason",
          "type": "string"
        }
      ],
      "name": "MintingFailed",
      "type": "event"
    },
    {
      "anonymous": false,
      "inputs": [
        {
          "indexed": true,
          "internalType": "address",
          "name": "previousOwner",
          "type": "address"
        },
        {
          "indexed": true,
          "internalType": "address",
          "name": "newOwner",
          "type": "address"
        }
      ],
      "name": "OwnershipTransferred",
      "type": "event"
    },
    {
      "anonymous": false,
      "inputs": [
        {
          "indexed": false,
          "internalType": "address",
          "name": "account",
          "type": "address"
        }
      ],
      "name": "Paused",
      "type": "event"
    },
    {
      "anonymous": false,
      "inputs": [],
      "name": "PoolActivated",
      "type": "event"
    },
    {
      "anonymous": false,
      "inputs": [],
      "name": "PoolEnded",
      "type": "event"
    },
    {
      "anonymous": false,
      "inputs": [
        {
          "indexed": false,
          "internalType": "uint256",
          "name": "requestId",
          "type": "uint256"
        }
      ],
      "name": "RandomRequested",
      "type": "event"
    },
    {
      "anonymous": false,
      "inputs": [
        {
          "indexed": true,
          "internalType": "address",
          "name": "participant",
          "type": "address"
        },
        {
          "indexed": false,
          "internalType": "uint256",
          "name": "amount",
          "type": "uint256"
        }
      ],
      "name": "RefundProcessed",
      "type": "event"
    },
    {
      "anonymous": false,
      "inputs": [
        {
          "indexed": true,
          "internalType": "uint256",
          "name": "batchNumber",
          "type": "uint256"
        },
        {
          "indexed": false,
          "internalType": "uint256",
          "name": "participantCount",
          "type": "uint256"
        },
        {
          "indexed": false,
          "internalType": "uint256",
          "name": "shuffleStartIndex",
          "type": "uint256"
        },
        {
          "indexed": false,
          "internalType": "uint256",
          "name": "batchSize",
          "type": "uint256"
        }
      ],
      "name": "SelectionStarted",
      "type": "event"
    },
    {
      "anonymous": false,
      "inputs": [
        {
          "indexed": true,
          "internalType": "address",
          "name": "participant",
          "type": "address"
        },
        {
          "indexed": false,
          "internalType": "uint256",
          "name": "quantity",
          "type": "uint256"
        }
      ],
      "name": "SlotsPurchased",
      "type": "event"
    },
    {
      "anonymous": false,
      "inputs": [
        {
          "indexed": false,
          "internalType": "address",
          "name": "account",
          "type": "address"
        }
      ],
      "name": "Unpaused",
      "type": "event"
    },
    {
      "anonymous": false,
      "inputs": [
        {
          "indexed": false,
          "internalType": "string",
          "name": "reason",
          "type": "string"
        }
      ],
      "name": "VRFRequestFailed",
      "type": "event"
    },
    {
      "anonymous": false,
      "inputs": [
        {
          "indexed": false,
          "internalType": "bytes",
          "name": "lowLevelData",
          "type": "bytes"
        }
      ],
      "name": "VRFRequestFailedBytes",
      "type": "event"
    },
    {
      "anonymous": false,
      "inputs": [
        {
          "indexed": false,
          "internalType": "address[]",
          "name": "winners",
          "type": "address[]"
        }
      ],
      "name": "WinnersSelected",
      "type": "event"
    },
    {
      "inputs": [
        {
          "internalType": "uint256",
          "name": "batchRandomSeed",
          "type": "uint256"
        }
      ],
      "name": "_processBatchWithRandomness",
      "outputs": [],
      "stateMutability": "nonpayable",
      "type": "function"
    },
    {
      "inputs": [
        {
          "internalType": "address",
          "name": "participant",
          "type": "address"
        }
      ],
      "name": "_processRefundExternal",
      "outputs": [
        {
          "internalType": "uint256",
          "name": "",
          "type": "uint256"
        }
      ],
      "stateMutability": "nonpayable",
      "type": "function"
    },
    {
      "inputs": [],
      "name": "amountPerWinner",
      "outputs": [
        {
          "internalType": "uint256",
          "name": "",
          "type": "uint256"
        }
      ],
      "stateMutability": "view",
      "type": "function"
    },
    {
      "inputs": [],
      "name": "batchCount",
      "outputs": [
        {
          "internalType": "uint256",
          "name": "",
          "type": "uint256"
        }
      ],
      "stateMutability": "view",
      "type": "function"
    },
    {
      "inputs": [
        {
          "internalType": "address[]",
          "name": "winnerAddresses",
          "type": "address[]"
        },
        {
          "internalType": "uint256[]",
          "name": "quantities",
          "type": "uint256[]"
        }
      ],
      "name": "batchMintToWinners",
      "outputs": [
        {
          "internalType": "uint256",
          "name": "successfulMints",
          "type": "uint256"
        }
      ],
      "stateMutability": "nonpayable",
      "type": "function"
    },
    {
      "inputs": [
        {
          "internalType": "uint256",
          "name": "",
          "type": "uint256"
        }
      ],
      "name": "batchRandomSeeds",
      "outputs": [
        {
          "internalType": "uint256",
          "name": "",
          "type": "uint256"
        }
      ],
      "stateMutability": "view",
      "type": "function"
    },
    {
      "inputs": [],
      "name": "claimPrize",
      "outputs": [],
      "stateMutability": "nonpayable",
      "type": "function"
    },
    {
      "inputs": [],
      "name": "claimRefund",
      "outputs": [],
      "stateMutability": "nonpayable",
      "type": "function"
    },
    {
      "inputs": [
        {
          "internalType": "address",
          "name": "",
          "type": "address"
        }
      ],
      "name": "claimedWins",
      "outputs": [
        {
          "internalType": "uint256",
          "name": "",
          "type": "uint256"
        }
      ],
      "stateMutability": "view",
      "type": "function"
    },
    {
      "inputs": [],
      "name": "closePool",
      "outputs": [],
      "stateMutability": "nonpayable",
      "type": "function"
    },
    {
      "inputs": [],
      "name": "creationFeePercentage",
      "outputs": [
        {
          "internalType": "uint256",
          "name": "",
          "type": "uint256"
        }
      ],
      "stateMutability": "view",
      "type": "function"
    },
    {
      "inputs": [],
      "name": "creator",
      "outputs": [
        {
          "internalType": "address",
          "name": "",
          "type": "address"
        }
      ],
      "stateMutability": "view",
      "type": "function"
    },
    {
      "inputs": [],
      "name": "currentBatchSize",
      "outputs": [
        {
          "internalType": "uint256",
          "name": "",
          "type": "uint256"
        }
      ],
      "stateMutability": "view",
      "type": "function"
    },
    {
      "inputs": [],
      "name": "deletePool",
      "outputs": [],
      "stateMutability": "nonpayable",
      "type": "function"
    },
    {
      "inputs": [],
      "name": "duration",
      "outputs": [
        {
          "internalType": "uint128",
          "name": "",
          "type": "uint128"
        }
      ],
      "stateMutability": "view",
      "type": "function"
    },
    {
      "inputs": [],
      "name": "endTime",
      "outputs": [
        {
          "internalType": "uint256",
          "name": "",
          "type": "uint256"
        }
      ],
      "stateMutability": "view",
      "type": "function"
    },
    {
      "inputs": [],
      "name": "erc20PrizeAmount",
      "outputs": [
        {
          "internalType": "uint256",
          "name": "",
          "type": "uint256"
        }
      ],
      "stateMutability": "view",
      "type": "function"
    },
    {
      "inputs": [],
      "name": "erc20PrizeToken",
      "outputs": [
        {
          "internalType": "address",
          "name": "",
          "type": "address"
        }
      ],
      "stateMutability": "view",
      "type": "function"
    },
    {
      "inputs": [],
      "name": "erc721EscrowClaimed",
      "outputs": [
        {
          "internalType": "bool",
          "name": "",
          "type": "bool"
        }
      ],
      "stateMutability": "view",
      "type": "function"
    },
    {
      "inputs": [],
      "name": "getParticipantsCount",
      "outputs": [
        {
          "internalType": "uint256",
          "name": "",
          "type": "uint256"
        }
      ],
      "stateMutability": "view",
      "type": "function"
    },
    {
      "inputs": [
        {
          "internalType": "address",
          "name": "participant",
          "type": "address"
        }
      ],
      "name": "getRefundableAmount",
      "outputs": [
        {
          "internalType": "uint256",
          "name": "",
          "type": "uint256"
        }
      ],
      "stateMutability": "view",
      "type": "function"
    },
    {
      "inputs": [],
      "name": "getSlotLimit",
      "outputs": [
        {
          "internalType": "uint256",
          "name": "",
          "type": "uint256"
        }
      ],
      "stateMutability": "view",
      "type": "function"
    },
    {
      "inputs": [
        {
          "internalType": "address",
          "name": "participant",
          "type": "address"
        }
      ],
      "name": "getSlotsPurchased",
      "outputs": [
        {
          "internalType": "uint256",
          "name": "",
          "type": "uint256"
        }
      ],
      "stateMutability": "view",
      "type": "function"
    },
    {
      "inputs": [
        {
          "internalType": "address",
          "name": "",
          "type": "address"
        }
      ],
      "name": "hasClaimedFeeRefund",
      "outputs": [
        {
          "internalType": "bool",
          "name": "",
          "type": "bool"
        }
      ],
      "stateMutability": "view",
      "type": "function"
    },
    {
      "inputs": [
        {
          "internalType": "address",
          "name": "",
          "type": "address"
        }
      ],
      "name": "hasCompletedSocialEngagement",
      "outputs": [
        {
          "internalType": "bool",
          "name": "",
          "type": "bool"
        }
      ],
      "stateMutability": "view",
      "type": "function"
    },
    {
      "inputs": [],
      "name": "holderData",
      "outputs": [
        {
          "internalType": "address",
          "name": "holderTokenAddress",
          "type": "address"
        },
        {
          "internalType": "enum PrizeTypes.Standard",
          "name": "holderTokenStandard",
          "type": "uint8"
        },
        {
          "internalType": "uint256",
          "name": "minHolderTokenBalance",
          "type": "uint256"
        },
        {
          "internalType": "uint256",
          "name": "holderTokenId",
          "type": "uint256"
        }
      ],
      "stateMutability": "view",
      "type": "function"
    },
    {
      "inputs": [],
      "name": "holderTokenAddress",
      "outputs": [
        {
          "internalType": "address",
          "name": "",
          "type": "address"
        }
      ],
      "stateMutability": "view",
      "type": "function"
    },
    {
      "inputs": [],
      "name": "holderTokenId",
      "outputs": [
        {
          "internalType": "uint256",
          "name": "",
          "type": "uint256"
        }
      ],
      "stateMutability": "view",
      "type": "function"
    },
    {
      "inputs": [],
      "name": "holderTokenStandard",
      "outputs": [
        {
          "internalType": "enum PrizeTypes.Standard",
          "name": "",
          "type": "uint8"
        }
      ],
      "stateMutability": "view",
      "type": "function"
    },
    {
      "inputs": [],
      "name": "i_vrfCoordinator",
      "outputs": [
        {
          "internalType": "contract VRFCoordinatorV2PlusInterface",
          "name": "",
          "type": "address"
        }
      ],
      "stateMutability": "view",
      "type": "function"
    },
    {
      "inputs": [
        {
          "components": [
            {
              "internalType": "address",
              "name": "manager",
              "type": "address"
            },
            {
              "internalType": "address",
              "name": "revenueRecipient",
              "type": "address"
            },
            {
              "internalType": "string",
              "name": "name",
              "type": "string"
            },
            {
              "internalType": "uint256",
              "name": "slotLimit",
              "type": "uint256"
            },
            {
              "internalType": "uint256",
              "name": "maxSlotsPerAddress",
              "type": "uint256"
            },
            {
              "internalType": "uint256",
              "name": "winnersCount",
              "type": "uint256"
            },
            {
              "internalType": "bool",
              "name": "isCollabPool",
              "type": "bool"
            },
            {
              "internalType": "bool",
              "name": "usesCustomFee",
              "type": "bool"
            },
            {
              "internalType": "bool",
              "name": "isExternalCollection",
              "type": "bool"
            }
          ],
          "internalType": "struct Pool.PoolConfig",
          "name": "_poolConfig",
          "type": "tuple"
        },
        {
          "components": [
            {
              "internalType": "enum PrizeTypes.Standard",
              "name": "standard",
              "type": "uint8"
            },
            {
              "internalType": "address",
              "name": "prizeCollection",
              "type": "address"
            },
            {
              "internalType": "uint256",
              "name": "prizeTokenId",
              "type": "uint256"
            },
            {
              "internalType": "uint256",
              "name": "amountPerWinner",
              "type": "uint256"
            },
            {
              "internalType": "address",
              "name": "erc20PrizeToken",
              "type": "address"
            },
            {
              "internalType": "uint256",
              "name": "erc20PrizeAmount",
              "type": "uint256"
            },
            {
              "internalType": "uint256",
              "name": "nativePrizeAmount",
              "type": "uint256"
            },
            {
              "internalType": "bool",
              "name": "isEscrowedPrize",
              "type": "bool"
            }
          ],
          "internalType": "struct Pool.PrizeConfig",
          "name": "_prizeConfig",
          "type": "tuple"
        },
        {
          "components": [
            {
              "internalType": "address",
              "name": "holderTokenAddress",
              "type": "address"
            },
            {
              "internalType": "enum PrizeTypes.Standard",
              "name": "holderTokenStandard",
              "type": "uint8"
            },
            {
              "internalType": "uint256",
              "name": "minHolderTokenBalance",
              "type": "uint256"
            },
            {
              "internalType": "uint256",
              "name": "holderTokenId",
              "type": "uint256"
            }
          ],
          "internalType": "struct Pool.HolderConfig",
          "name": "_holderConfig",
          "type": "tuple"
        },
        {
          "internalType": "bool",
          "name": "_socialEngagementRequired",
          "type": "bool"
        },
        {
          "internalType": "address",
          "name": "_creator",
          "type": "address"
        },
        {
          "internalType": "uint256",
          "name": "_startTime",
          "type": "uint256"
        },
        {
          "internalType": "uint256",
          "name": "_duration",
          "type": "uint256"
        },
        {
          "internalType": "uint256",
          "name": "_slotFee",
          "type": "uint256"
        },
        {
          "internalType": "bool",
          "name": "_isPrized",
          "type": "bool"
        }
      ],
      "name": "initialize",
      "outputs": [],
      "stateMutability": "payable",
      "type": "function"
    },
    {
      "inputs": [],
      "name": "isCollabPool",
      "outputs": [
        {
          "internalType": "bool",
          "name": "",
          "type": "bool"
        }
      ],
      "stateMutability": "view",
      "type": "function"
    },
    {
      "inputs": [],
      "name": "isEscrowedPrize",
      "outputs": [
        {
          "internalType": "bool",
          "name": "",
          "type": "bool"
        }
      ],
      "stateMutability": "view",
      "type": "function"
    },
    {
      "inputs": [],
      "name": "isExternalCollection",
      "outputs": [
        {
          "internalType": "bool",
          "name": "",
          "type": "bool"
        }
      ],
      "stateMutability": "view",
      "type": "function"
    },
    {
      "inputs": [],
      "name": "isPrized",
      "outputs": [
        {
          "internalType": "bool",
          "name": "",
          "type": "bool"
        }
      ],
      "stateMutability": "view",
      "type": "function"
    },
    {
      "inputs": [],
      "name": "isRefundable",
      "outputs": [
        {
          "internalType": "bool",
          "name": "",
          "type": "bool"
        }
      ],
      "stateMutability": "view",
      "type": "function"
    },
    {
      "inputs": [],
      "name": "maxSlotsPerAddress",
      "outputs": [
        {
          "internalType": "uint256",
          "name": "",
          "type": "uint256"
        }
      ],
      "stateMutability": "view",
      "type": "function"
    },
    {
      "inputs": [],
      "name": "minHolderTokenBalance",
      "outputs": [
        {
          "internalType": "uint256",
          "name": "",
          "type": "uint256"
        }
      ],
      "stateMutability": "view",
      "type": "function"
    },
    {
      "inputs": [],
      "name": "mint",
      "outputs": [],
      "stateMutability": "nonpayable",
      "type": "function"
    },
    {
      "inputs": [],
      "name": "name",
      "outputs": [
        {
          "internalType": "string",
          "name": "",
          "type": "string"
        }
      ],
      "stateMutability": "view",
      "type": "function"
    },
    {
      "inputs": [],
      "name": "nativePrizeAmount",
      "outputs": [
        {
          "internalType": "uint256",
          "name": "",
          "type": "uint256"
        }
      ],
      "stateMutability": "view",
      "type": "function"
    },
    {
      "inputs": [
        {
          "internalType": "address",
          "name": "",
          "type": "address"
        },
        {
          "internalType": "address",
          "name": "",
          "type": "address"
        },
        {
          "internalType": "uint256[]",
          "name": "",
          "type": "uint256[]"
        },
        {
          "internalType": "uint256[]",
          "name": "",
          "type": "uint256[]"
        },
        {
          "internalType": "bytes",
          "name": "",
          "type": "bytes"
        }
      ],
      "name": "onERC1155BatchReceived",
      "outputs": [
        {
          "internalType": "bytes4",
          "name": "",
          "type": "bytes4"
        }
      ],
      "stateMutability": "pure",
      "type": "function"
    },
    {
      "inputs": [
        {
          "internalType": "address",
          "name": "",
          "type": "address"
        },
        {
          "internalType": "address",
          "name": "",
          "type": "address"
        },
        {
          "internalType": "uint256",
          "name": "",
          "type": "uint256"
        },
        {
          "internalType": "uint256",
          "name": "",
          "type": "uint256"
        },
        {
          "internalType": "bytes",
          "name": "",
          "type": "bytes"
        }
      ],
      "name": "onERC1155Received",
      "outputs": [
        {
          "internalType": "bytes4",
          "name": "",
          "type": "bytes4"
        }
      ],
      "stateMutability": "pure",
      "type": "function"
    },
    {
      "inputs": [
        {
          "internalType": "address",
          "name": "",
          "type": "address"
        },
        {
          "internalType": "address",
          "name": "",
          "type": "address"
        },
        {
          "internalType": "uint256",
          "name": "",
          "type": "uint256"
        },
        {
          "internalType": "bytes",
          "name": "",
          "type": "bytes"
        }
      ],
      "name": "onERC721Received",
      "outputs": [
        {
          "internalType": "bytes4",
          "name": "",
          "type": "bytes4"
        }
      ],
      "stateMutability": "pure",
      "type": "function"
    },
    {
      "inputs": [],
      "name": "owner",
      "outputs": [
        {
          "internalType": "address",
          "name": "",
          "type": "address"
        }
      ],
      "stateMutability": "view",
      "type": "function"
    },
    {
      "inputs": [
        {
          "internalType": "uint256",
          "name": "",
          "type": "uint256"
        }
      ],
      "name": "participants",
      "outputs": [
        {
          "internalType": "address",
          "name": "",
          "type": "address"
        }
      ],
      "stateMutability": "view",
      "type": "function"
    },
    {
      "inputs": [],
      "name": "paused",
      "outputs": [
        {
          "internalType": "bool",
          "name": "",
          "type": "bool"
        }
      ],
      "stateMutability": "view",
      "type": "function"
    },
    {
      "inputs": [],
      "name": "pendingProtocolFee",
      "outputs": [
        {
          "internalType": "uint256",
          "name": "",
          "type": "uint256"
        }
      ],
      "stateMutability": "view",
      "type": "function"
    },
    {
      "inputs": [],
      "name": "poolData",
      "outputs": [
        {
          "internalType": "string",
          "name": "name",
          "type": "string"
        },
        {
          "internalType": "uint256",
          "name": "winnersCount",
          "type": "uint256"
        },
        {
          "internalType": "uint256",
          "name": "maxSlotsPerAddress",
          "type": "uint256"
        },
        {
          "internalType": "uint256",
          "name": "slotLimit",
          "type": "uint256"
        },
        {
          "internalType": "address",
          "name": "revenueRecipient",
          "type": "address"
        },
        {
          "internalType": "bool",
          "name": "isCollabPool",
          "type": "bool"
        },
        {
          "internalType": "bool",
          "name": "usesCustomFee",
          "type": "bool"
        },
        {
          "internalType": "bool",
          "name": "isExternalCollection",
          "type": "bool"
        },
        {
          "internalType": "bool",
          "name": "isRefundable",
          "type": "bool"
        },
        {
          "internalType": "bool",
          "name": "erc721EscrowClaimed",
          "type": "bool"
        },
        {
          "internalType": "bool",
          "name": "isEscrowedPrize",
          "type": "bool"
        },
        {
          "internalType": "bool",
          "name": "wasDeletedForFullRefund",
          "type": "bool"
        },
        {
          "internalType": "bool",
          "name": "protocolFeeCalculated",
          "type": "bool"
        },
        {
          "internalType": "bool",
          "name": "randomRequested",
          "type": "bool"
        },
        {
          "internalType": "bool",
          "name": "randomnessUsed",
          "type": "bool"
        },
        {
          "internalType": "bool",
          "name": "socialEngagementRequired",
          "type": "bool"
        }
      ],
      "stateMutability": "view",
      "type": "function"
    },
    {
      "inputs": [],
      "name": "poolSubscriptionId",
      "outputs": [
        {
          "internalType": "uint256",
          "name": "",
          "type": "uint256"
        }
      ],
      "stateMutability": "view",
      "type": "function"
    },
    {
      "inputs": [
        {
          "internalType": "address",
          "name": "participant",
          "type": "address"
        }
      ],
      "name": "prizeClaimed",
      "outputs": [
        {
          "internalType": "uint256",
          "name": "",
          "type": "uint256"
        }
      ],
      "stateMutability": "view",
      "type": "function"
    },
    {
      "inputs": [],
      "name": "prizeCollection",
      "outputs": [
        {
          "internalType": "address",
          "name": "",
          "type": "address"
        }
      ],
      "stateMutability": "view",
      "type": "function"
    },
    {
      "inputs": [],
      "name": "prizeData",
      "outputs": [
        {
          "internalType": "enum PrizeTypes.Standard",
          "name": "standard",
          "type": "uint8"
        },
        {
          "internalType": "address",
          "name": "prizeCollection",
          "type": "address"
        },
        {
          "internalType": "uint256",
          "name": "prizeTokenId",
          "type": "uint256"
        },
        {
          "internalType": "uint256",
          "name": "amountPerWinner",
          "type": "uint256"
        },
        {
          "internalType": "address",
          "name": "erc20PrizeToken",
          "type": "address"
        },
        {
          "internalType": "uint256",
          "name": "erc20PrizeAmount",
          "type": "uint256"
        },
        {
          "internalType": "uint256",
          "name": "nativePrizeAmount",
          "type": "uint256"
        },
        {
          "internalType": "uint256",
          "name": "prizesClaimedCount",
          "type": "uint256"
        }
      ],
      "stateMutability": "view",
      "type": "function"
    },
    {
      "inputs": [],
      "name": "prizeTokenId",
      "outputs": [
        {
          "internalType": "uint256",
          "name": "",
          "type": "uint256"
        }
      ],
      "stateMutability": "view",
      "type": "function"
    },
    {
      "inputs": [],
      "name": "prizesClaimedCount",
      "outputs": [
        {
          "internalType": "uint256",
          "name": "",
          "type": "uint256"
        }
      ],
      "stateMutability": "view",
      "type": "function"
    },
    {
      "inputs": [],
      "name": "protocolFeeCalculated",
      "outputs": [
        {
          "internalType": "bool",
          "name": "",
          "type": "bool"
        }
      ],
      "stateMutability": "view",
      "type": "function"
    },
    {
      "inputs": [],
      "name": "protocolFeePercentage",
      "outputs": [
        {
          "internalType": "uint256",
          "name": "",
          "type": "uint256"
        }
      ],
      "stateMutability": "view",
      "type": "function"
    },
    {
      "inputs": [
        {
          "internalType": "uint256",
          "name": "quantity",
          "type": "uint256"
        },
        {
          "internalType": "uint256",
          "name": "_deadline",
          "type": "uint256"
        },
        {
          "internalType": "bytes",
          "name": "_signature",
          "type": "bytes"
        },
        {
          "internalType": "uint256[]",
          "name": "_tokenIds",
          "type": "uint256[]"
        }
      ],
      "name": "purchaseSlots",
      "outputs": [],
      "stateMutability": "payable",
      "type": "function"
    },
    {
      "inputs": [],
      "name": "randomRequested",
      "outputs": [
        {
          "internalType": "bool",
          "name": "",
          "type": "bool"
        }
      ],
      "stateMutability": "view",
      "type": "function"
    },
    {
      "inputs": [],
      "name": "randomSeed",
      "outputs": [
        {
          "internalType": "uint256",
          "name": "",
          "type": "uint256"
        }
      ],
      "stateMutability": "view",
      "type": "function"
    },
    {
      "inputs": [],
      "name": "randomnessUsed",
      "outputs": [
        {
          "internalType": "bool",
          "name": "",
          "type": "bool"
        }
      ],
      "stateMutability": "view",
      "type": "function"
    },
    {
      "inputs": [
        {
          "internalType": "uint256",
          "name": "requestId",
          "type": "uint256"
        },
        {
          "internalType": "uint256[]",
          "name": "randomWords",
          "type": "uint256[]"
        }
      ],
      "name": "rawFulfillRandomWords",
      "outputs": [],
      "stateMutability": "nonpayable",
      "type": "function"
    },
    {
      "inputs": [
        {
          "internalType": "address",
          "name": "",
          "type": "address"
        }
      ],
      "name": "refundableAmount",
      "outputs": [
        {
          "internalType": "uint256",
          "name": "",
          "type": "uint256"
        }
      ],
      "stateMutability": "view",
      "type": "function"
    },
    {
      "inputs": [
        {
          "internalType": "address",
          "name": "",
          "type": "address"
        }
      ],
      "name": "refundedNonWinningSlots",
      "outputs": [
        {
          "internalType": "uint256",
          "name": "",
          "type": "uint256"
        }
      ],
      "stateMutability": "view",
      "type": "function"
    },
    {
      "inputs": [],
      "name": "renounceOwnership",
      "outputs": [],
      "stateMutability": "nonpayable",
      "type": "function"
    },
    {
      "inputs": [],
      "name": "requestRandomness",
      "outputs": [],
      "stateMutability": "nonpayable",
      "type": "function"
    },
    {
      "inputs": [],
      "name": "revenueData",
      "outputs": [
        {
          "internalType": "uint256",
          "name": "protocolFeePercentage",
          "type": "uint256"
        },
        {
          "internalType": "uint256",
          "name": "creationFeePercentage",
          "type": "uint256"
        },
        {
          "internalType": "uint256",
          "name": "totalCreatorRevenue",
          "type": "uint256"
        },
        {
          "internalType": "uint256",
          "name": "totalRefundableAmount",
          "type": "uint256"
        },
        {
          "internalType": "uint256",
          "name": "totalGlobalFeeRevenue",
          "type": "uint256"
        },
        {
          "internalType": "uint256",
          "name": "pendingProtocolFee",
          "type": "uint256"
        }
      ],
      "stateMutability": "view",
      "type": "function"
    },
    {
      "inputs": [],
      "name": "revenueRecipient",
      "outputs": [
        {
          "internalType": "address",
          "name": "",
          "type": "address"
        }
      ],
      "stateMutability": "view",
      "type": "function"
    },
    {
      "inputs": [],
      "name": "s_vrf_lastRequestId",
      "outputs": [
        {
          "internalType": "uint256",
          "name": "",
          "type": "uint256"
        }
      ],
      "stateMutability": "view",
      "type": "function"
    },
    {
      "inputs": [],
      "name": "shuffleStartIndex",
      "outputs": [
        {
          "internalType": "uint256",
          "name": "",
          "type": "uint256"
        }
      ],
      "stateMutability": "view",
      "type": "function"
    },
    {
      "inputs": [],
      "name": "slotFee",
      "outputs": [
        {
          "internalType": "uint256",
          "name": "",
          "type": "uint256"
        }
      ],
      "stateMutability": "view",
      "type": "function"
    },
    {
      "inputs": [],
      "name": "slotLimit",
      "outputs": [
        {
          "internalType": "uint256",
          "name": "",
          "type": "uint256"
        }
      ],
      "stateMutability": "view",
      "type": "function"
    },
    {
      "inputs": [
        {
          "internalType": "address",
          "name": "",
          "type": "address"
        }
      ],
      "name": "slotsPurchased",
      "outputs": [
        {
          "internalType": "uint256",
          "name": "",
          "type": "uint256"
        }
      ],
      "stateMutability": "view",
      "type": "function"
    },
    {
      "inputs": [],
      "name": "socialEngagementRequired",
      "outputs": [
        {
          "internalType": "bool",
          "name": "",
          "type": "bool"
        }
      ],
      "stateMutability": "view",
      "type": "function"
    },
    {
      "inputs": [],
      "name": "standard",
      "outputs": [
        {
          "internalType": "enum PrizeTypes.Standard",
          "name": "",
          "type": "uint8"
        }
      ],
      "stateMutability": "view",
      "type": "function"
    },
    {
      "inputs": [],
      "name": "startTime",
      "outputs": [
        {
          "internalType": "uint128",
          "name": "",
          "type": "uint128"
        }
      ],
      "stateMutability": "view",
      "type": "function"
    },
    {
      "inputs": [],
      "name": "state",
      "outputs": [
        {
          "internalType": "enum IPool.PoolState",
          "name": "",
          "type": "uint8"
        }
      ],
      "stateMutability": "view",
      "type": "function"
    },
    {
      "inputs": [
        {
          "internalType": "bytes4",
          "name": "interfaceId",
          "type": "bytes4"
        }
      ],
      "name": "supportsInterface",
      "outputs": [
        {
          "internalType": "bool",
          "name": "",
          "type": "bool"
        }
      ],
      "stateMutability": "view",
      "type": "function"
    },
    {
      "inputs": [
        {
          "internalType": "uint256",
          "name": "",
          "type": "uint256"
        }
      ],
      "name": "tokenIdClaimedBy",
      "outputs": [
        {
          "internalType": "address",
          "name": "",
          "type": "address"
        }
      ],
      "stateMutability": "view",
      "type": "function"
    },
    {
      "inputs": [],
      "name": "totalCreatorRevenue",
      "outputs": [
        {
          "internalType": "uint256",
          "name": "",
          "type": "uint256"
        }
      ],
      "stateMutability": "view",
      "type": "function"
    },
    {
      "inputs": [],
      "name": "totalGlobalFeeRevenue",
      "outputs": [
        {
          "internalType": "uint256",
          "name": "",
          "type": "uint256"
        }
      ],
      "stateMutability": "view",
      "type": "function"
    },
    {
      "inputs": [],
      "name": "totalRefundableAmount",
      "outputs": [
        {
          "internalType": "uint256",
          "name": "",
          "type": "uint256"
        }
      ],
      "stateMutability": "view",
      "type": "function"
    },
    {
      "inputs": [
        {
          "internalType": "address",
          "name": "newOwner",
          "type": "address"
        }
      ],
      "name": "transferOwnership",
      "outputs": [],
      "stateMutability": "nonpayable",
      "type": "function"
    },
    {
      "inputs": [],
      "name": "usesCustomFee",
      "outputs": [
        {
          "internalType": "bool",
          "name": "",
          "type": "bool"
        }
      ],
      "stateMutability": "view",
      "type": "function"
    },
    {
      "inputs": [],
      "name": "wasDeletedForFullRefund",
      "outputs": [
        {
          "internalType": "bool",
          "name": "",
          "type": "bool"
        }
      ],
      "stateMutability": "view",
      "type": "function"
    },
    {
      "inputs": [
        {
          "internalType": "uint256",
          "name": "",
          "type": "uint256"
        }
      ],
      "name": "winners",
      "outputs": [
        {
          "internalType": "address",
          "name": "",
          "type": "address"
        }
      ],
      "stateMutability": "view",
      "type": "function"
    },
    {
      "inputs": [],
      "name": "winnersCount",
      "outputs": [
        {
          "internalType": "uint256",
          "name": "",
          "type": "uint256"
        }
      ],
      "stateMutability": "view",
      "type": "function"
    },
    {
      "inputs": [],
      "name": "winnersSelected",
      "outputs": [
        {
          "internalType": "uint256",
          "name": "",
          "type": "uint256"
        }
      ],
      "stateMutability": "view",
      "type": "function"
    },
    {
      "inputs": [
        {
          "internalType": "address",
          "name": "",
          "type": "address"
        }
      ],
      "name": "winsPerAddress",
      "outputs": [
        {
          "internalType": "uint256",
          "name": "",
          "type": "uint256"
        }
      ],
      "stateMutability": "view",
      "type": "function"
    },
    {
      "inputs": [],
      "name": "withdrawCreatorRevenue",
      "outputs": [],
      "stateMutability": "nonpayable",
      "type": "function"
    },
    {
      "inputs": [],
      "name": "withdrawProtocolRevenue",
      "outputs": [],
      "stateMutability": "nonpayable",
      "type": "function"
    }
  ],
  "bytecode": "0x60a034620000bb57601f6200604f38819003918201601f19168301916001600160401b03831184841017620000c057808492602094604052833981010312620000bb57516001600160a01b03908181168103620000bb576000543360018060a01b0319821617600055604051923391167f8be0079c531659141344cd1fd0a4f28419497f9722a3daafe3b4186f6b6457e0600080a36001805560ff1960025416600255608052615f789081620000d7823960805181610d490152f35b600080fd5b634e487b7160e01b600052604160045260246000fdfe608080604052600436101561001357600080fd5b600090813560e01c90816301ffc9a7146139e55750806302d05d3f146139bc5780630631c5c21461399e57806306f130561461398057806306fdde031461394c578063085219741461328b5780630aa00e701461392e5780630b747d91146139105780630b78824b146138f25780630e4fa158146138cc5780630fb5a6b4146138ab5780631249c58b14613465578063128f4ba414613447578063150b7a02146133f05780631ae25dd0146133a15780631fe543e3146132c457806325444fa41461328b5780632c1fecfe146132655780633197cbb61461324a578063321679fa1461322c578063327bb1ad1461319f57806335c1d3491461315b5780633b26314d146131325780634002143414612d1657806342b72afa14612cde57806344a9098614612cc057806348a3a45014612c9a5780634971381114612c7c5780634e3ff46014612c3d5780634f7f0fc014612bfe5780635755248e14612be05780635a3b7e4214612bba5780635c975abb14612b975780635f369a321461229a57806366805de514612281578063677375c314612263578063683d19361461223d578063696917ba146122175780636e61a160146121f15780636e8b38db146121c457806370740ac91461218a578063715018a6146121305780637184062914611a92578063740e219814611a6657806378e9792514611a3f578063813e88b914611a21578063837d1128146119fb57806387213c35146119d55780638778d82c146119ac578063888dc1981461198e578063898b36db146119705780638bc53285146119525780638bfbbcbe146119395780638d7fe478146119135780638da5cb5b146118ec5780638e50e509146118ce57806394f5c9dc146118865780639ed5c1cc1461185d578063a177ec0914611832578063a2fb1175146117d6578063a67d0e6c146117b8578063ae4b82c11461178e578063aebc455014611761578063af78ed0a14611743578063b0b606c014611710578063b15825ae146116ea578063b5545a3c146116bb578063b5ad84121461151c578063bc197c8114611490578063c19d93fb14611461578063c2e784bd14611443578063c36d596714610ae7578063c3fa0e3b14610ac9578063c58fe16214610aab578063cabfaa1814610a8d578063cc7d49ec14610a67578063d0d11ae814610a49578063d17d135914610a10578063d447e9bc146109b9578063d91043f2146109f2578063dc8a55c2146109b9578063e511a11b14610980578063e620decf1461095a578063e6f12cf71461093c578063f23a6e61146108e5578063f2fde38b14610857578063f8413b0714610647578063fb687df41461061a578063fd22b17c14610574578063fd75a1f1146105035763fee151ae1461040a57600080fd5b34610500578060031936011261050057610446610425613c22565b600a54600b54600c54600d5491604051958695610200808852870190613a3a565b9360208601526040850152606084015260018060a01b038116608084015260ff90818160a01c16151560a0850152818160a81c16151560c0850152818160b01c16151560e0850152818160b81c161515610100850152818160c01c161515610120850152818160c81c161515610140850152818160d01c161515610160850152818160d81c161515610180850152818160e01c1615156101a0850152818160e81c1615156101c085015260f01c1615156101e08301520390f35b80fd5b5034610500578060031936011261050057610100600e54600f546010549060018060a01b039182601154166012549160135493601454956040519761054b8960ff8316613ae7565b60081c16602088015260408701526060860152608085015260a084015260c083015260e0820152f35b503461050057806003193601126105005780546040516336b87bd760e11b815233600482015290602090829060249082906001600160a01b03165afa90811561060f5782916105e1575b50156105cf576105cc6158d3565b80f35b6040516327e1f1e560e01b8152600490fd5b610602915060203d8111610608575b6105fa8183613b9f565b810190614169565b386105be565b503d6105f0565b6040513d84823e3d90fd5b5034610500578060031936011261050057600e5460405160089190911c6001600160a01b03168152602090f35b5034610500578060031936011261050057610660613d6d565b42101561084a575b61067b610673613d6d565b421015613e73565b60075460ff8160a81c166008811015610836576002811490811561082b575b508061081e575b1561074a576015546001600160a01b039081166107d357602554600a5411610777575b602a54159182610763575b163314801561074e575b1561074a5760ff600d5460e01c16610705576106f8575b6105cc614cb1565b610700615a8c565b6106f0565b60405162461bcd60e51b815260206004820152601960248201527f5265717565737420616c726561647920696e20666c69676874000000000000006044820152606490fd5b5080fd5b503382526027602052604082205415156106d9565b61076b613d6d565b4210156106cf575b8380fd5b60405162461bcd60e51b815260206004820152602e60248201527f496e73756666696369656e74207061727469636970616e747320666f7220776960448201526d373732b91039b2b632b1ba34b7b760911b6064820152608490fd5b600a5460328102908082046032149015171561080a57606490048015610802575b60255410156106c4575b8280fd5b5060016107f4565b634e487b7160e01b84526011600452602484fd5b50602a54600a54116106a1565b60039150143861069a565b634e487b7160e01b83526021600452602483fd5b610852615094565b610668565b503461050057602036600319011261050057610871613a7a565b610879613cce565b6001600160a01b03811615610891576105cc90613d26565b60405162461bcd60e51b815260206004820152602660248201527f4f776e61626c653a206e6577206f776e657220697320746865207a65726f206160448201526564647265737360d01b6064820152608490fd5b50346105005760a0366003190112610500576108ff613a7a565b50610908613a90565b506084356001600160401b03811161074a57610928903690600401613aba565b505060405163f23a6e6160e01b8152602090f35b50346105005780600319360112610500576020601c54604051908152f35b5034610500578060031936011261050057602060ff600d5460d81c166040519015158152f35b5034610500576020366003190112610500576020906040906001600160a01b036109a8613a7a565b168152602283522054604051908152f35b5034610500576020366003190112610500576020906040906001600160a01b036109e1613a7a565b168152601f83522054604051908152f35b50346105005780600319360112610500576020601954604051908152f35b5034610500576020366003190112610500576020906040906001600160a01b03610a38613a7a565b168152601e83522054604051908152f35b50346105005780600319360112610500576020601354604051908152f35b5034610500578060031936011261050057602060ff600d5460d01c166040519015158152f35b50346105005780600319360112610500576020602554604051908152f35b50346105005780600319360112610500576020600b54604051908152f35b50346105005780600319360112610500576020601d54604051908152f35b506003196102603682011261074a576004356001600160401b0381116107fe57610120809282360301126107fe576040519182018281106001600160401b0382111761142d57604052610b3c81600401613aa6565b8252610b4a60248201613aa6565b602083015260448101356001600160401b038111610773578101903660238301121561077357600482013590610b7f82613bc0565b610b8c6040519182613b9f565b82815285366024858701011161050057602084610104956024610bfd980183860137830101526040850152606481013560608501526084810135608085015260a481013560a0850152610be160c48201613bdb565b60c0850152610bf260e48201613bdb565b60e085015201613bdb565b61010082015261010060231936011261074a57604051806101008101106001600160401b036101008301111761142d576101008101604052600460243510156107fe5760243581526044356001600160a01b03811690036111e35760443560208201526064356040820152608435606082015260a4356001600160a01b03811681036111e357608082015260c43560a082015260e43560c08201526101043580151581036111e35760e08201526080366101231901126107fe576040518060808101106001600160401b0360808301111761142d5760808101604052610124356001600160a01b03811681036111e35781526004610144351015610773576101443560208201526101643560408201526101843560608201526101a43515156101a435036111e3576101c4356001600160a01b03811690036111e357610244359283151584036111e3577f00000000000000000000000000000000000000000000000000000000000000006001600160a01b031633036114295784546001600160a01b03166114295780516001600160a01b031693610d9b85613d26565b600780546001600160a01b031981166101c4356001600160a01b03161790915560405163ec644ddd60e01b815260a0816004818a5afa9081156111f05788916113f6575b50604051630425172560e31b81523060048201526020816024818b5afa90811561123a5789916113c4575b5060035560028054610100600160a81b03191660089290921b610100600160a81b0316919091179055610224356005556006805488166101e4356001600160801b0316176102043560801b6fffffffffffffffffffffffffffffffff191617905590151560a01b60ff60a01b166001600160b01b03199091166101c4356001600160a01b0316171760075560408101518051906001600160401b0382116113b0578190610eb8600954613be8565b601f811161133e575b50602090601f83116001146112c85788926112bd575b50508160011b916000199060031b1c1916176009555b60a0810151600a556080810151600b556060810151600c5560208101516001600160a01b031680156112b257925b600d805460c084015160e085015161010090950151600167ff0000000000000160b81b031983166001600160a01b0389161791151560a01b60ff60a01b1691821795151560a81b60ff60a81b1695861790151560b01b60ff60b01b169081176101a435151560f01b60ff60f01b16179093558351929590939192600481101561129e57600e80546020850151610100600160a81b0360089190911b1660ff939093166001600160a81b0319909116179190911790556040820151600f5560608201516010556080820151601180546001600160a01b039283166001600160a01b031990911617905560a083015160125560c083015160135581511680611245575b505060408051631a35245160e31b815290816004818b5afa801561123a5789918a916111fb575b50601955601855604051636f6f8c5d60e01b815296602090889060049082905afa9687156111f05788976111b7575b5060c08101511561110e57505050505050610224350361050057600d805460ff60c81b1916600160c81b1790555b60ff60075460a01c16806110ff575b156110d957600a54600d805460ff60b81b1916600190921160b81b60ff60b81b1691909117905580f35b600d5460ff8160a81c16156110ec575080f35b60ff60b81b1916600160b81b17600d5580f35b5060ff600d5460a81c166110af565b60808101516001600160a01b03161561114857505050505050610224350361050057600d805460ff60c81b1916600160c81b1790556110a0565b9091929394955060018060a01b0360208201511661116c575b5050505050506110a0565b60e060ff60c81b910151151560c81b169460018060a01b03169068ff00ffffffff00ffff60b81b161717171760ff60f01b6101a435151560f01b161717600d55388080808080611161565b9096506020813d6020116111e8575b816111d360209383613b9f565b810103126111e357519538611072565b600080fd5b3d91506111c6565b6040513d8a823e3d90fd5b9150506040813d604011611232575b8161121760409383613b9f565b8101031261122e5780516020918201519091611043565b8880fd5b3d915061120a565b6040513d8b823e3d90fd5b601554906020830151600481101561128a576001600160a81b03199092161760a09190911b60ff60a01b1617601555604081015160165560600151601755388061101c565b634e487b7160e01b8c52602160045260248cfd5b634e487b7160e01b8a52602160045260248afd5b506101c43592610f1b565b015190503880610ed7565b925060098852600080516020615f238339815191529088935b601f1984168510611323576001945083601f1981161061130a575b505050811b01600955610eed565b015160001960f88460031b161c191690553880806112fc565b818101518355602094850194600190930192909101906112e1565b90915060098852601f830160051c600080516020615f23833981519152016020841061139b575b908392915b601f820160051c600080516020615f2383398151915201811061138d5750610ec1565b89815584935060010161136a565b50600080516020615f23833981519152611365565b634e487b7160e01b87526041600452602487fd5b90506020813d6020116113ee575b816113df60209383613b9f565b810103126111e3575138610e0a565b3d91506113d2565b611418915060a03d60a011611422575b6114108183613b9f565b810190613db6565b5050505038610ddf565b503d611406565b8480fd5b634e487b7160e01b600052604160045260246000fd5b50346105005780600319360112610500576020600454604051908152f35b503461050057806003193601126105005760ff60075460a81c1660405190600881101561083657602092508152f35b50346105005760a0366003190112610500576114aa613a7a565b506114b3613a90565b506001600160401b036044358181116107fe576114d4903690600401613b0a565b50506064358181116107fe576114ee903690600401613b0a565b505060843590811161074a57611508903690600401613aba565b505060405163bc197c8160e01b8152602090f35b5034610500578060031936011261050057611535613e1d565b600d546001600160a01b039081811690338290036107735760ff60075460a81c169060088210156116a757908492916005821461077357600782146107735760b01c60ff16156116875760069192500361164c5782905b601a5480156107fe578280929181926115c26115b86127106115b060195486613dfd565b04809461415c565b9284601a55615b18565b5af16115cc613faa565b501561074a57602060249183541660405192838092630425172560e31b82523060048301525afa90811561060f57829161161b575b5061160e575b6001805580f35b611616615a34565b611607565b90506020813d8211611644575b8161163560209383613b9f565b810103126111e3575138611601565b3d9150611628565b60405162461bcd60e51b815260206004820152601360248201527210d85b9b9bdd081dda5d1a191c985dc81e595d606a1b6044820152606490fd5b6004811490811561169c575b5061158c575080fd5b600691501438611693565b634e487b7160e01b85526021600452602485fd5b50346105005780600319360112610500576116d4613e1d565b6116dd3361531d565b156105005761160761571d565b5034610500578060031936011261050057602060ff600d5460b01c166040519015158152f35b503461050057602036600319011261050057602090600435815260238252604060018060a01b0391205416604051908152f35b50346105005780600319360112610500576020601a54604051908152f35b503461050057806003193601126105005760025460405160089190911c6001600160a01b03168152602090f35b50346105005760203660031901126105005760406020916004358152602c83522054604051908152f35b50346105005780600319360112610500576020600554604051908152f35b50346105005760203660031901126105005760043560265481101561074a5760266000527f744a2cf8fd7008e3d53b67916e73460df9fa5214e3ef23dd4259ca09493a359401546040516001600160a01b039091168152602090f35b5034610500578060031936011261050057602060ff60155460a01c1661185b6040518092613ae7565bf35b50346105005780600319360112610500576011546040516001600160a01b039091168152602090f35b503461050057806003193601126105005760c0601854601954601a54601b54601c5491601d5493604051958652602086015260408501526060840152608083015260a0820152f35b50346105005780600319360112610500576020601854604051908152f35b5034610500578060031936011261050057546040516001600160a01b039091168152602090f35b5034610500578060031936011261050057602060ff600d5460e01c166040519015158152f35b50346105005780600319360112610500576105cc614a79565b50346105005780600319360112610500576020602a54604051908152f35b50346105005780600319360112610500576020600c54604051908152f35b50346105005780600319360112610500576020601454604051908152f35b50346105005780600319360112610500576015546040516001600160a01b039091168152602090f35b5034610500578060031936011261050057602060ff600d5460f01c166040519015158152f35b5034610500578060031936011261050057602060ff600d5460a81c166040519015158152f35b50346105005780600319360112610500576020601054604051908152f35b503461050057806003193601126105005760206001600160801b0360065416604051908152f35b5034610500576020366003190112610500576020611a8a611a85613a7a565b61459e565b604051908152f35b5034610500576040366003190112610500576001600160401b039060043582811161074a57611ac5903690600401613b0a565b91909260243590811161074a57611ae0903690600401613b0a565b9390611aea613e1d565b60075460ff8160a81c1660088110156116a757600403610773578585036107735784156107735760328511610773576001600160a01b039081163303611ff3575b600e5493818560081c16948515611fe15760ff600d5460c81c16611f565760ff1681805b888210611f7c5750506004811015611f685780611da957508096815b878110611c265750505050505050611b8e602092611b87615e3e565b809261415c565b80611ba1575b5060018055604051908152f35b611c1d7fbcd905a8eb4cc473497e2cd24cf41334ea7fad80c354380f8fff04a025b1e5f891604051907402130ba31b41031b7b6b83632ba32b2103bb4ba341605d1b86830152603582015268206661696c7572657360b81b6055820152603e8152611c0b81613b84565b60405191829186835286830190613a3a565b0390a138611b94565b611c39611c34828a8961484b565b61485b565b611c4482848861484b565b35883b15611429576040516340c10f1960e01b81526001600160a01b038316600482015260248101829052858082604481838f5af19182611d91575b5050611d5457509060019182611c94613f1b565b6308c379a014611d0b575b611cac575b505b01611b6b565b611cb4613faa565b50600080516020615f038339815191528660405192169180611d02816060906020815260176020820152762637bb96b632bb32b61036b4b73a34b7339032b93937b960491b60408201520190565b0390a238611ca4565b611d13613f39565b80611d1f575b50611c9f565b90508590600080516020615f0383398151915260405180611d4b6020948583528c881695830190613a3a565b0390a238611d19565b996001929a86611d8b93168652601f60205260408620611d75828254613e10565b9055611d846014918254613e10565b9055614ca2565b98611ca6565b611d9a90613b71565b611da5578538611c80565b8580fd5b600195908603611f56578197825b888110611dd4575050505050505050611b8e602092611b87615e3e565b611de2611c34828b8a61484b565b611ded82848961484b565b35611dfa60105482613dfd565b600f54863b15611f5257604051630ab714fb60e11b81526001600160a01b038516600482015260248101919091526044810191909152868082606481838b5af19182611f3a575b5050611f14575090889182611e54613f1b565b6308c379a014611ecb575b611e6c575b505b01611db7565b611e74613faa565b50600080516020615f038339815191528760405192169180611ec2816060906020815260176020820152762637bb96b632bb32b61036b4b73a34b7339032b93937b960491b60408201520190565b0390a238611e64565b611ed3613f39565b80611edf575b50611e5f565b90508690600080516020615f0383398151915260405180611f0b6020948583528d881695830190613a3a565b0390a238611ed9565b9a89929b87611f3493168752601f60205260408720611d75828254613e10565b99611e66565b611f4390613b71565b611f4e578638611e41565b8680fd5b8780fd5b60405163fd34e50560e01b8152600490fd5b634e487b7160e01b82526021600452602482fd5b84611f8b611c34848c8b61484b565b16808552611fac6020601e8152601f6040882054915260408720549061415c565b901561142957801561142957611fc3838c8961484b565b351161077357600190611fd7838c8961484b565b3501910190611b4f565b60405163424ca23960e01b8152600490fd5b83600e5460ff8116600481101561211c57839291908061209e575060209150600460405180948193638da5cb5b60e01b835260081c165afa908115612093579082918691612058575b505b16330315611b2b57604051635c427cd960e01b8152600490fd5b9150506020813d821161208b575b8161207360209383613b9f565b81010312611429576120858291613da2565b3861203c565b3d9150612066565b6040513d87823e3d90fd5b6001146120ac575b5061203e565b60209150600460405180948193638da5cb5b60e01b835260081c165afa9081156120935790829186916120e1575b50386120a6565b9150506020813d8211612114575b816120fc60209383613b9f565b810103126114295761210e8291613da2565b386120da565b3d91506120ef565b634e487b7160e01b87526021600452602487fd5b5034610500578060031936011261050057612149613cce565b600080546001600160a01b0319811682556001600160a01b03167f8be0079c531659141344cd1fd0a4f28419497f9722a3daafe3b4186f6b6457e08280a380f35b50346105005780600319360112610500576121a3613e1d565b60ff60075460a81c166008811015611f685760040361050057611607614181565b5034610500576020366003190112610500576121de613a7a565b90303303610500576020611a8a8361531d565b5034610500578060031936011261050057602060ff600d5460c01c166040519015158152f35b5034610500578060031936011261050057602060ff600d5460c81c166040519015158152f35b5034610500578060031936011261050057602060ff60075460a01c166040519015158152f35b50346105005780600319360112610500576020601b54604051908152f35b50346105005780600319360112610500576105cc61486f565b506080366003190112610500576001600160401b036044358181116107fe576122c7903690600401613aba565b91606435908111610773576122e0903690600401613b0a565b9290916122eb613e1d565b60075460ff90818160a81c166008811015612b265715612b4b575b50333203612b3a57600754818160a81c16956008871015612b26576001809703612b14573315612b0257600435958615612af0576005548015612ade578761234d91613dfd565b3403612acc5761235b613d6d565b421015612aba57602594612370888754613e10565b600c5410612aa8576001600160801b03600654164210612a9657338a52602096602788526123a28960408d2054613e10565b600b5410612a8457858560a01c161580612a51575b612a3f578a54604051638da5cb5b60e01b81526001600160a01b039691871691908d908b81600481875afa90811561060f57899291612a07575b501633146129f557861633146129e457888c8880600d5460f01c1691826129cd575b50506128ad575b50505050601591825485858216918261250b575b505050505050503386526027835260408620848154019055855b8481106124c65750907ffd1903a7f9f31de6cf38a88eda98ae029aeba3b2ec48a599d7c0d900f0f335cb9291600d5460a81c16156000146124b95734601c5401601c555b54600c54146124a4575b6040519283523392a2805580f35b6124ac615a8c565b6124b4614cb1565b612496565b34601a5401601a5561248c565b825490600160401b82101561142d576125056124e783898095018755613b3a565b81546001600160a01b0360039290921b91821b19163390911b179055565b01612448565b60a01c16600481101561128a578890806127a95750505080156127a5578890601680548381146000146126025750501061122e57858360249235935416604051928380926331a9108f60e11b82528660048301525afa90811561123a5789916125cd575b508233911603611f5257875260238452604087209081549081168015809181156125c3575b501561122e576125ae575b50505b3880808080858161242e565b6001600160a01b03191633179055388061259f565b9050331438612594565b90508581813d83116125fb575b6125e48183613b9f565b8101031261122e576125f590613da2565b3861256f565b503d6125da565b9091939281116000146127a1578084106127a157908a95949392918c5b8181106127335750508b955b61263b575b5050505050506125a2565b805486101561272e5761264f86848461484b565b358c60248b88885416604051928380926331a9108f60e11b82528760048301525afa91821561272257916126e9575b5086339116036126e5578c526023895260408c20805496868816918215809381156126db575b50156126d7578d986126bc936126c2575b5050614ca2565b9561262b565b6001600160a01b0319163317905538806126b5565b8e80fd5b90503314386126a4565b8c80fd5b90508a81813d831161271b575b6127008183613b9f565b810103126127175761271190613da2565b3861267e565b8d80fd5b503d6126f6565b604051903d90823e3d90fd5b612630565b90919293949596810180821161278d575b828110612762575061275590614ca2565b908b96959493929161261f565b61276d82878761484b565b3561277982888861484b565b35146127175761278890614ca2565b612744565b634e487b7160e01b8e52601160045260248efd5b8b80fd5b8980fd5b935093509350508781146000146128365750601754604051627eeac760e11b8152336004820152602481019190915291829060449082905afa90811561282b5787916127fe575b5060165411156125a2578580fd5b90508381813d8311612824575b6128158183613b9f565b810103126111e35751386127f0565b503d61280b565b6040513d89823e3d90fd5b600214612845575b50506125a2565b6040516370a0823160e01b815233600482015291829060249082905afa90811561282b578791612880575b5060165411611da557388361283e565b90508381813d83116128a6575b6128978183613b9f565b810103126111e3575138612870565b503d61288d565b604051636b90bda960e01b815291829060049082905afa80156129c25786918d9161298a575b50168015612978578b92813b1561077357839183918360a46040518097819682956324fa7e3f60e21b8452336004850152306024850152602435604485015260806064850152816084850152848401378181018301849052601f01601f191681010301925af1801561060f57612964575b50503389526024865260408920805460ff1916891790553880808861241a565b61296d90613b71565b61122e578838612944565b6040516343361aaf60e01b8152600490fd5b8092508a8092503d83116129bb575b6129a38183613b9f565b810103126127a1576129b58691613da2565b386128d3565b503d612999565b6040513d8e823e3d90fd5b60409192503381526024845220541615888e612413565b60405162ca6a8360e51b8152600490fd5b604051635f2a002d60e11b8152600490fd5b8092508c8092503d8311612a38575b612a208183613b9f565b8101031261271757612a328891613da2565b386123f1565b503d612a16565b604051631274fa9d60e31b8152600490fd5b5085600d5460a81c168015612a7a575b806123b75750338b526027885260408b205415156123b7565b5089891415612a61565b604051637145fa7b60e01b8152600490fd5b604051633d8c21b360e01b8152600490fd5b6040516302edeeb760e31b8152600490fd5b60405163fd2a413d60e01b8152600490fd5b60405163569e8c1160e01b8152600490fd5b60405163d2100d7360e01b8152600490fd5b60405163f4f5b73360e01b8152600490fd5b60405163d92e233d60e01b8152600490fd5b6040516338c0a90160e11b8152600490fd5b634e487b7160e01b88526021600452602488fd5b60405162c44f5760e51b8152600490fd5b6001600160801b036006541642106123065760ff60a81b1916600160a81b176007557f3d31b97eef590df350bb2cdbc390034c613c9f23ea6ae1906682628c85248b538680a138612306565b5034610500578060031936011261050057602060ff600254166040519015158152f35b5034610500578060031936011261050057602060ff600e541661185b6040518092613ae7565b50346105005780600319360112610500576020601654604051908152f35b50346105005760203660031901126105005760209060ff906040906001600160a01b03612c29613a7a565b168152602184522054166040519015158152f35b50346105005760203660031901126105005760209060ff906040906001600160a01b03612c68613a7a565b168152602484522054166040519015158152f35b50346105005780600319360112610500576020600a54604051908152f35b5034610500578060031936011261050057602060ff600d5460e81c166040519015158152f35b50346105005780600319360112610500576020602b54604051908152f35b5034610500576020366003190112610500576020906040906001600160a01b03612d06613a7a565b1681528280522054604051908152f35b50346105005760208060031936011261074a57600435903033036107fe57602d548352602c8152816040842055612d4e602d54614ca2565b602d55602b54916029549060255490612d6685613ef0565b90612d746040519283613b9f565b858252612d8086613ef0565b8286019490601f1901368637875b87811061303157505050855b858110612f9d5750612dcb600d549560ff60e01b198716600d55612dc081602954613e10565b602955602a54613e10565b9283602a55604051918583019086845251809152604083019190885b87828210612f80575050505090807f32a1b5731a757f192a06ca973715ca4dbc42c2d15323cabaa74e0a2d5dc088e4920390a16015546001600160a01b03161580159190612f7557808310801590612f69575b15612e71576007805460ff60a81b1916600160aa1b179081905560a01c60ff1680612f5c575b80612f4f575b80612f41575b612e79575b505050505080f35b612e9b92612e929280612f36575b15612f2c579061415c565b60055490613dfd565b612710612eaa60185483613dfd565b0490612eb6828261415c565b92601a5490828210612ef1575090612ecd9161415c565b601a55601d55601b5561ffff60d81b1916600160d81b17600d553880808080612e71565b6064906040519062461bcd60e51b825260048201526014602482015273496e73756666696369656e7420726576656e756560601b6044820152fd5b50600a549061415c565b50600a548110612e87565b5060ff8560d81c1615612e6c565b5060ff8560b81c16612e66565b5060ff8560a81c16612e60565b50600a54831015612e3a565b600a54831015612e3a565b83516001600160a01b031685529384019390920191600101612de7565b6001600160a01b03612faf8284613f07565b5116906026918254600160401b81101561142d576001810180855581101561301b57613016936000527f744a2cf8fd7008e3d53b67916e73460df9fa5214e3ef23dd4259ca09493a359401906bffffffffffffffffffffffff60a01b825416179055614ca2565b612d9a565b634e487b7160e01b600052603260045260246000fd5b6130448161303f848861415c565b61415c565b604051888101908582528360408201526040815261306181613b84565b5190209061306f8385613e10565b91811561311e5761308d61311994936130d5936130f4930690613e10565b61309681613b3a565b9054600391821b1c6001600160a01b039081169491856130b6888d613f07565b526130c96130c4888b613e10565b613b3a565b9054911b1c1691613b3a565b90919082549060031b9160018060a01b03809116831b921b1916179055565b613105816130d56130c48588613e10565b8a52601e885260408a20611d848154614ca2565b612d8e565b634e487b7160e01b8c52601260045260248cfd5b5034610500578060031936011261050057600d546040516001600160a01b039091168152602090f35b5034610500576020366003190112610500576004359060255482101561050057602061318683613b3a565b905460405160039290921b1c6001600160a01b03168152f35b503461050057806003193601126105005760018060a01b039060208282541692600e5460081c161515602460405180958193635aa35d2560e11b835260048301525afa90811561272257906131fa575b602090604051908152f35b506020813d8211613224575b8161321360209383613b9f565b810103126111e357602090516131ef565b3d9150613206565b50346105005780600319360112610500576020601254604051908152f35b50346105005780600319360112610500576020611a8a613d6d565b5034610500578060031936011261050057602060ff600d5460b81c166040519015158152f35b5034610500576020366003190112610500576020906040906001600160a01b036132b3613a7a565b168152602783522054604051908152f35b5034610500576040366003190112610500576024356001600160401b03811161074a576132f5903690600401613b0a565b60025460081c6001600160a01b0316330361335d5761331381613ef0565b916133216040519384613b9f565b8183526020918284019060051b820191368311611da557905b82821061334e57856105cc86600435613fda565b8135815290830190830161333a565b606460405162461bcd60e51b815260206004820152602060248201527f4f6e6c792056524620436f6f7264696e61746f722063616e2066756c66696c6c6044820152fd5b50346105005780600319360112610500576015546016546017546040516001600160a01b03841681526080939092906133e490602085019060a01c60ff16613ae7565b60408301526060820152f35b50346105005760803660031901126105005761340a613a7a565b50613413613a90565b506064356001600160401b03811161074a57613433903690600401613aba565b5050604051630a85bd0160e11b8152602090f35b50346105005780600319360112610500576020600354604051908152f35b503461050057806003193601126105005761347e613e1d565b600760ff815460a81c1660088110156108365760040361074a576134a0615bd5565b50601554600e546001600160a01b039182161593929091600883901c168015611fe157600d9260ff845460c81c166138995760ff16600481101561211c578061372f5750803b15611da5576040516340c10f1960e01b81523360048201526024810183905290869081908390604490829084905af1918261371b575b50506136735750600161352d613f1b565b6308c379a01461360a575b613591575b50505b61354a8115615a1c565b613555576001805580f35b602554600a549081811161356b575b5050611607565b600a916135779161415c565b10613584575b3880613564565b61358c61571d565b61357d565b613599613faa565b50604051600080516020615f038339815191523391806135de8160609060208152601060208201526f131bddcb5b195d995b081c995d995c9d60821b60408201520190565b0390a2805460ff60d01b1916600160d01b179055805460ff60a81b1916600560a81b179055388061353d565b613612613f39565b8061361e575b50613538565b90508490600080516020615f03833981519152604051602081528061364833946020830190613a3a565b0390a2815460ff60d01b1916600160d01b178255825460ff60a81b1916600560a81b17835538613618565b905061367f9150615de6565b604051636e8b38db60e01b815233600482015260208160248186305af18391816136e8575b506136b0575b50613540565b80156136aa576040519081527f3367befd2b2f39615cd79917c2153263c4af1d3945ec003e5d5bfc13a8d8583360203392a2386136aa565b9091506020813d8211613713575b8161370360209383613b9f565b810103126111e3575190386136a4565b3d91506136f6565b61372490613b71565b611da557853861351c565b6001036138995785600f5491836010540290803b156107fe57604051630ab714fb60e11b8152336004820152602481019490945260448401919091528290606490829084905af19081613886575b506136735750600161378d613f1b565b6308c379a01461381d575b6137a4575b5050613540565b6137ac613faa565b50604051600080516020615f038339815191523391806137f18160609060208152601060208201526f131bddcb5b195d995b081c995d995c9d60821b60408201520190565b0390a2805460ff60d01b1916600160d01b179055805460ff60a81b1916600560a81b179055388061379d565b613825613f39565b80613831575b50613798565b90508490600080516020615f03833981519152604051602081528061385b33946020830190613a3a565b0390a2815460ff60d01b1916600160d01b178255825460ff60a81b1916600560a81b1783553861382b565b61389290969196613b71565b943861377d565b604051631558dc5f60e31b8152600490fd5b5034610500578060031936011261050057602060065460801c604051908152f35b5034610500578060031936011261050057602060ff600d5460a01c166040519015158152f35b50346105005780600319360112610500576020600f54604051908152f35b50346105005780600319360112610500576020602854604051908152f35b50346105005780600319360112610500576020601754604051908152f35b503461050057806003193601126105005761397c613968613c22565b604051918291602083526020830190613a3a565b0390f35b50346105005780600319360112610500576020602d54604051908152f35b50346105005780600319360112610500576020602954604051908152f35b50346105005780600319360112610500576007546040516001600160a01b039091168152602090f35b90503461074a57602036600319011261074a5760043563ffffffff60e01b81168091036107fe5760209250630a85bd0160e11b8114908115613a29575b5015158152f35b630271189760e51b14905038613a22565b919082519283825260005b848110613a66575050826000602080949584010152601f8019910116010190565b602081830181015184830182015201613a45565b600435906001600160a01b03821682036111e357565b602435906001600160a01b03821682036111e357565b35906001600160a01b03821682036111e357565b9181601f840112156111e3578235916001600160401b0383116111e357602083818601950101116111e357565b906004821015613af45752565b634e487b7160e01b600052602160045260246000fd5b9181601f840112156111e3578235916001600160401b0383116111e3576020808501948460051b0101116111e357565b60255481101561301b5760256000527f401968ff42a154441da5f6c4c935ac46b8671f0e062baaa62a7545ba53bb6e4c0190600090565b6001600160401b03811161142d57604052565b606081019081106001600160401b0382111761142d57604052565b90601f801991011681019081106001600160401b0382111761142d57604052565b6001600160401b03811161142d57601f01601f191660200190565b359081151582036111e357565b90600182811c92168015613c18575b6020831014613c0257565b634e487b7160e01b600052602260045260246000fd5b91607f1691613bf7565b6040519060008260095491613c3683613be8565b80835292600190818116908115613cac5750600114613c5f575b50613c5d92500383613b9f565b565b600960009081529150600080516020615f238339815191525b848310613c915750613c5d935050810160200138613c50565b81935090816020925483858a01015201910190918592613c78565b905060209250613c5d94915060ff191682840152151560051b82010138613c50565b6000546001600160a01b03163303613ce257565b606460405162461bcd60e51b815260206004820152602060248201527f4f776e61626c653a2063616c6c6572206973206e6f7420746865206f776e65726044820152fd5b600080546001600160a01b039283166001600160a01b03198216811783559216907f8be0079c531659141344cd1fd0a4f28419497f9722a3daafe3b4186f6b6457e09080a3565b6006546001600160801b0390818160801c911601818111613d8c571690565b634e487b7160e01b600052601160045260246000fd5b51906001600160a01b03821682036111e357565b908160a09103126111e357613dca81613da2565b91602082015191604081015191606082015163ffffffff811681036111e35760809092015161ffff811681036111e35790565b81810292918115918404141715613d8c57565b91908201809211613d8c57565b600260015414613e2e576002600155565b60405162461bcd60e51b815260206004820152601f60248201527f5265656e7472616e637947756172643a207265656e7472616e742063616c6c006044820152606490fd5b15613e7a57565b60405162461bcd60e51b815260206004820152602860248201527f54696d657374616d702064656c61792069737375652c2074727920616761696e6044820152672073686f72746c7960c01b6064820152608490fd5b8115613eda570490565b634e487b7160e01b600052601260045260246000fd5b6001600160401b03811161142d5760051b60200190565b805182101561301b5760209160051b010190565b60009060033d11613f2857565b905060046000803e60005160e01c90565b600060443d10613f9657604051600319913d83016004833e81516001600160401b03918282113d602484011117613f9957818401948551938411613fa1573d85010160208487010111613f995750613f9692910160200190613b9f565b90565b949350505050565b50949350505050565b3d15613fd5573d90613fbb82613bc0565b91613fc96040519384613b9f565b82523d6000602084013e565b606090565b6004546000910361414557600d805460ff60e81b1916600160e81b178155825190929015614131576020015190303b156105005760405191631000850d60e21b83526004830152808260248183305af19182614122575b509061411e57600190614042613f1b565b6308c379a0146140a4575b506140555750565b7fbccec8509a79ecd26780c2699a3ca2503c3a3455b361b5fcda5760593edb03c9614081613968613faa565b0390a16007805460ff60a81b1916600160a91b179055805460ff60e01b19169055565b6140ac613f39565b90816140b9575b5061404d565b7fbcd905a8eb4cc473497e2cd24cf41334ea7fad80c354380f8fff04a025b1e5f89192506140f69092604051918291602083526020830190613a3a565b0390a16007805460ff60a81b1916600160a91b179055815460ff60e01b1916825538806140b3565b5050565b61412b90613b71565b38614031565b634e487b7160e01b82526032600452602482fd5b50506007805460ff60a81b1916600160a91b179055565b91908203918211613d8c57565b908160209103126111e3575180151581036111e35790565b600d5460ff60009160c81c1615613899576015546001600160a01b0391908216159081156141ad615bd5565b5091846011541692600e549560ff87169660081c16600a54968480614593575b1561458c57602a54955b8061443d57506004958682101561442a5760038214614362575081156143515761434057600f54813b1561077357604080516323b872dd60e01b815230888201908152336020820152918201929092529091849183919082908490829060600103925af1801561433557614320575b5061425090615de6565b60405192636e8b38db60e01b8452339084015260208360248184305af1806142eb575b61428393506142b3575b50615a1c565b61428a5750565b602554818111614298575050565b600a916142a49161415c565b106142ab57565b613c5d61571d565b801561427d576040519081527f3367befd2b2f39615cd79917c2153263c4af1d3945ec003e5d5bfc13a8d8583360203392a23861427d565b90506020833d8211614318575b8161430560209383613b9f565b810103126111e357614283925190614273565b3d91506142f8565b9161432e6142509293613b71565b9190614246565b6040513d85823e3d90fd5b604051631558dc5f60e31b81528590fd5b60405163424ca23960e01b81528690fd5b8392506143759150601396949654613ed0565b028015614419578480808093335af161438c613faa565b50156144095761439b90615de6565b60405190636e8b38db60e01b8252339082015260208160248186305af18391816143d0575b5061428393506142b35750615a1c565b915091926020823d8211614401575b816143ec60209383613b9f565b810103126105005750516142839291386143c0565b3d91506143df565b5060405163880a149160e01b8152fd5b604051630193f71f60e51b81528390fd5b634e487b7160e01b855260218752602485fd5b9398979695905061445391508260125402613ed0565b91821561457a5760405163a9059cbb60e01b81523360048201526024810193909352602092908390829060449082908c905af19081156111f057889161455d575b501561454b576144a390615de6565b604051636e8b38db60e01b81523360048201529080826024818a305af1879281614515575b5061428394959697506144dd575b5050615a1c565b81156144d6577f3367befd2b2f39615cd79917c2153263c4af1d3945ec003e5d5bfc13a8d85833906040519283523392a238806144d6565b9092508181813d8311614544575b61452d8183613b9f565b81010312611f5257519596508695916142836144c8565b503d614523565b60405163880a149160e01b8152600490fd5b6145749150833d8511610608576105fa8183613b9f565b38614494565b604051630193f71f60e51b8152600490fd5b87956141d7565b5087602a54106141cd565b600d5460ff90818160d01c166147d75760075490828260a81c16916008831015613af457600783146147735760a01c831680614767575b8061475b575b80614750575b6146af5760a81c8216159081614690575b506145fe575050600090565b60009160018060a01b03168252602760205260408220541515908161467c575b506146265790565b602760205261463c604082205460055490613dfd565b611f409081810291818304149015171561466857612710900480601c541015614663575090565b905090565b634e487b7160e01b82526011600452602482fd5b90506021602052604082205416153861461e565b60048114915081156146a4575b50386145f2565b60069150143861469d565b5050509060009160018060a01b0316825260276020526040822054601e602052604083205460226020526040842054918181118061473e575b6146f157505050565b6146ff929161303f9161415c565b600554601854906127109182039482861161472a5750613f96939461472391613dfd565b0490613dfd565b634e487b7160e01b81526011600452602490fd5b50614749828261415c565b83106146e8565b50601b5415156145e1565b50828160b81c166145db565b50828160a81c166145d5565b506001600160a01b0390931660009081526027602052604090205490508061479e575b505050600090565b6005546147aa91613dfd565b9160a81c166147c75780601c541015613f9657505b388080614796565b80601a541015613f9657506147bf565b908060075460a01c16918261483e575b50508061481d575b6147f95750600090565b6001600160a01b0316600090815260276020526040902054600554613f9691613dfd565b506001600160a01b03811660009081526027602052604090205415156147ef565b60a81c16905038806147e7565b919081101561301b5760051b0190565b356001600160a01b03811681036111e35790565b600780549060ff90818360a81c166008811015613af4578181146111e357614895613d6d565b42106111e3576015546001600160a01b0394908516159160018103614a5557505015614a0d57602554600a5411156111e357805460ff60a81b1916600760a81b1781555b81815460a81c16906008821015613af4576148f681849314613e73565b6148fe615ad5565b6149066150ce565b5460a01c16806149fd575b806149d3575b61491f575050565b80600d5460c81c1661411e57600e549081166004811015613af45761498e5750600e5460081c16803b156111e35760008091602460405180948193636382ff5160e11b83523060048401525af18015614982576149795750565b613c5d90613b71565b6040513d6000823e3d90fd5b60081c16600f5490803b156111e357604051631d8efab160e21b815230600482015260248101929092526000908290604490829084905af18015614982576149795750565b5080600e54166004811015613af45780159081156149f2575b50614917565b6001915014386149ec565b5081600e5460081c161515614911565b600a54603281029080820460321490151715613d8c57606490048015614a4d575b60255410156111e357805460ff60a81b1916600760a81b1781556148d9565b506001614a2e565b90915015614a64575b506148d9565b60ff60a81b1916600760a81b17815538614a5e565b6011546001600160a01b039081166111e3576013546111e357614a9a613d6d565b4210156111e3576000908082541633148015614c95575b1561074a5760075460ff90818160a81c1660088110156116a7578015908115614c8a575b501561077357818160a01c16808091614c4c575b80614c3d575b611429571561077357600d805460ff60d01b1916600160d01b17905560ff60a81b1916600560a81b17600755614b23615ad5565b614b2b6150ce565b8060075460a01c1680614c2d575b80614c03575b614b4857505050565b80600d5460c81c16614bfe57600e549081166004811015614bea57614ba35750600e5460081c16803b1561074a57818091602460405180958193636382ff5160e11b83523060048401525af190811561272257506149795750565b60081c16600f54813b156107fe57604051631d8efab160e21b81523060048201526024810191909152919081908390604490829084905af190811561272257506149795750565b634e487b7160e01b84526021600452602484fd5b505050565b5080600e54166004811015614bea578015908115614c22575b50614b3f565b600191501438614c1c565b5081600e5460081c161515614b39565b5082600d5460a81c1615614aef565b5082600e54166004811015614c76578015908115614c6b575b50614ae9565b600191501438614c65565b634e487b7160e01b86526021600452602486fd5b600191501438614ad5565b5080600754163314614ab1565b6000198114613d8c5760010190565b600080546007805490926001600160a01b03928316929160a81c60ff166008811015611f6857600114615087575b83549160ff8360a81c166008811015610836576002811490811561507c575b501561074a576025549360295494614d16868261415c565b80614d26600a54602a549061415c565b601e8111156150775750601e5b80602b551161506e575b50602b5494851561505657506004929160a0917f4ff4e84912750d469e8d0e190997710c06112023943415787c2f744eb09c0da46060602d54926040998a5191825260209b8c8301528a820152a2855163ec644ddd60e01b815293849182905afa801561504c578391849085948693615023575b5060025460081c1691865190888201926001600160401b03938381108582111761500f57895287835288519263125fa26760e31b8b850152511515602484015260248352614dfe83613b84565b88519360c085019081118582101761500f578a9695949389938893614e9e938d5286528386019788528b8087019a61ffff8093168c526060880163ffffffff9384809316825260808a01936001855260a08b01968752519d8e9c8d9b8c9a634d8e1c2f60e11b8c5260048c01525160248b01525160448a01525116606488015251166084860152511660a48401525160c060c484015260e4830190613a3a565b03925af1829181614fe0575b50614f8c5750600190614ebb613f1b565b6308c379a014614f23575b50614ed057505050565b7fab4c58d5f7fcd2f6f276017059fe707292278a4b150b6402c89eb3899a7494ec91614f0d614efd613faa565b9251928284938452830190613a3a565b0390a1805460ff60a81b1916600160a91b179055565b614f2b613f39565b9081614f38575b50614ec6565b83518581529092507f1bc0b7451d1b26a4c7bfd7b118b2756c98249ac5f3d51e76be5f33aab5489902918190614f719087830190613a3a565b0390a1835460ff60a81b1916600160a91b1784553880614f32565b6004819055600d805460ff60e01b1916600160e01b179055845460ff60a81b1916600360a81b1790945550519182527ff81446731d23d202ea16cf590daf64c6087251171612b2adde6acbef4b37580291a1565b9091508481813d8311615008575b614ff88183613b9f565b810103126107fe57519038614eaa565b503d614fee565b634e487b7160e01b89526041600452602489fd5b9250935050615040915060a03d8111611422576114108183613b9f565b90949293509138614db1565b84513d85823e3d90fd5b60ff60a81b1916600160aa1b17909655505050505050565b602b5538614d3d565b614d33565b600391501438614cfe565b61508f615094565b614cdf565b6007805460ff60a81b1916600160a91b1790557fba56b904ffec191559c3639e6019beb8a654605dbf6ba72f33361432a97c2bea600080a1565b60075460ff8160a01c16801561411e578061530e575b6150eb5750565b6011546001600160a01b0391908216156151df57508060115416604051916370a0823160e01b83523060048401526020928381602481865afa908115614982576000916151b2575b5080615140575b50505050565b60075460405163a9059cbb60e01b815292166001600160a01b0316600483015260248201529082908290816000816044810103925af191821561498257600092615195575b5050156111e3573880808061513a565b6151ab9250803d10610608576105fa8183613b9f565b3880615185565b908482813d83116151d8575b6151c88183613b9f565b8101031261050057505138615133565b503d6151be565b600e5460ff81166004811015613af4576003810361522457505050479081615205575050565b6000808080948194600754165af161521b613faa565b50156105005750565b1561522e57505050565b829060081c16600f54906040516331a9108f60e11b8152826004820152602081602481855afa908115614982576000916152d5575b50841630146152725750505050565b803b156111e3576040516323b872dd60e01b8152306004820152939092166001600160a01b03166024840152604483015260009082908183816064810103925af18015614982576152c6575b80808061513a565b6152cf90613b71565b386152be565b906020823d8211615306575b816152ee60209383613b9f565b81010312610500575061530090613da2565b38615263565b3d91506152e1565b5060ff600d5460c81c166150e4565b6007549060ff91828160a81c169060088210159081613af457600492838114801561570f575b8381156156ff575b81156156ef575b50156156e457600d5492868460d01c166000146154115750505050509060018060a01b0382166000918183526021602052806040842054166153f35760276020526040832054908115615409578060075460a01c1690816153fa575b50156153f357828080936153c6829460055490613dfd565b9687918352602160205260408320600160ff198254161790555af16153e9613faa565b5015610500575090565b5050905090565b9050600d5460a81c16386153ae565b505050905090565b6156cf576007036154cf575050506001600160a01b0381166000818152602160205260408120549092919084166153f3576027602052604083205480156154095760055461545e91613dfd565b93600d5460a81c166000146154ac57601a548481106154095783858194829461548883859661415c565b601a555b8352602160205260408320805460ff191660011790555af16153e9613faa565b601c54848110615409578385819482946154c783859661415c565b601c5561548c565b938092939460a01c16806156c3575b806156b7575b806156ac575b156155e557505060018060a01b0382169160009183835260276020526040832054601e602052604084205460226020526040852054918181118015906155d2575b6155c85761553d929161303f9161415c565b906005549060185491612710928303918383116155b5575061556a929161556391613dfd565b0482613dfd565b93601b548086116155ac578585948594859461558784879661415c565b601b55845260226020526155a060408520918254613e10565b90555af16153e9613faa565b50505050905090565b634e487b7160e01b875260119052602486fd5b5050505050905090565b506155dd828261415c565b83101561552b565b908092939160a81c16156155fb57505050600090565b60018060a01b0381169260009284845260276020526040842054156154095760216020526040842054166153f357602760205261563f604084205460055490613dfd565b90611f40918281029281840414901517156156995750612710900492601c548481106154095783858194829461567683859661415c565b601c558352602160205260408320805460ff191660011790555af16153e9613faa565b634e487b7160e01b845260119052602483fd5b50601b5415156154ea565b50818160b81c166154e4565b50818160a81c166154de565b602184634e487b7160e01b6000525260246000fd5b505050505050600090565b90506156cf576007811483615352565b90506156cf57600581148361534b565b506000925060068114615343565b600060018060a01b0381541660ff60075460a01c16806158c4575b806158b5575b806158aa575b61580d575b60ff600d5460a81c161561575b575050565b6008548061576d575050506001600855565b60018103615787575050506157806158d3565b6002600855565b600214615792575050565b602060249160405192838092630425172560e31b82523060048301525afa9182156127225780926157d9575b50506157cc575b6003600855565b6157d4615a34565b6157c5565b9091506020823d8211615805575b816157f460209383613b9f565b8101031261050057505138806157be565b3d91506157e7565b81601d5461589a575b1580615890575b1561574957604051630425172560e31b8152306004820152602081602481855afa90811561433557839161585f575b50156157495761585a615a34565b615749565b90506020813d8211615888575b8161587960209383613b9f565b810103126107fe57513861584c565b3d915061586c565b50601d541561581d565b506158a36158d3565b6001615816565b50601b541515615744565b5060ff600d5460b81c1661573e565b5060ff600d5460a81c16615738565b6000600d5460ff90818160d81c1680615a11575b6159a7575b818160a81c16158061599c575b615911575b5050806159085750565b613c5d90615b18565b60b01c81161561596b5760075460a81c166008811015613af4576006036111e3575b601c546107d091828202928284041482151715613d8c5761595c6127106159649404809361415c565b601c55613e10565b38806158fe565b60075460a81c166008811015613af45760048114908115615991575b5061593357600080fd5b600691501438615987565b50601c5415156158f9565b91818360b01c166000146159dd578160075460a81c166008811015611f685760060361050057505b601d54916000601d556158ec565b8160075460a81c166008811015611f685760048114908115615a06575b501561050057506159cf565b6006915014386159fa565b50601d5415156158e7565b15613c5d57602a5460255403613c5d57613c5d61571d565b600060018060a01b0381541660035480156107fe57813b156107fe57604051633d40f28f60e01b81523060048201526024810191909152919081908390818381604481015b03925af190811561272257506149795750565b600060018060a01b0381541660035480156107fe57813b156107fe5760405163032a136160e11b8152306004820152602481019190915291908190839081838160448101615a79565b600060018060a01b03815416600354813b156107fe57604051630221a1c360e51b8152306004820152602481019190915291908190839081838160448101615a79565b6000805460405163524d530b60e01b81529192906001600160a01b03906020908490600490829085165afa928315615bca578493615b8f575b508216156107fe5782918291604051906020820191635e5bc1c560e11b835281602482015260248152615b8381613b84565b51925af161521b613faa565b9092506020813d8211615bc2575b81615baa60209383613b9f565b8101031261077357615bbb90613da2565b9138615b51565b3d9150615b9d565b6040513d86823e3d90fd5b6000338152602091601e8352604080832054928315615dd557338152601f85528181205494858503958514615dc45760155485939291906001600160a01b0381169081615c2a575b5050601f90338352522055565b60ff91929394955060a01c166004811015614bea5786949392919080615cbe57508394509060249181939451928380926370a0823160e01b82523360048301525afa90811561504c578391615c91575b506016541161074a5790601f8593925b9038615c1d565b90508181813d8311615cb7575b615ca88183613b9f565b810103126107fe575138615c7a565b503d615c9e565b60018103615d4457506017548451627eeac760e11b81523360048201526024810191909152939450919290918290829060449082905afa90811561504c578391615d17575b506016541161074a5790601f859392615c8a565b90508181813d8311615d3d575b615d2e8183613b9f565b810103126107fe575138615d03565b503d615d24565b600214615d55575b50601f90615c8a565b8394509060249181939451928380926370a0823160e01b82523360048301525afa90811561504c578391615d97575b506016541161074a579084929138615d4c565b90508181813d8311615dbd575b615dae8183613b9f565b810103126107fe575138615d84565b503d615da4565b8251630ccaf35d60e41b8152600490fd5b81516358cd4fc160e11b8152600490fd5b601554600a54906001600160a01b0316151580615e33575b15615e2d5750602a54905b601454018060145514615e1857565b6007805460ff60a81b1916600360a91b179055565b90615e09565b5080602a5410615dfe565b601554600a546001600160a01b03918216151580615ef7575b15615ef25750602a545b60145414615e6c5750565b6007805460ff60a81b1916600360a91b179055600054604051630425172560e31b81523060048201529160209183916024918391165afa90811561498257600091615ec1575b50615eb957565b613c5d615a34565b906020823d8211615eea575b81615eda60209383613b9f565b8101031261050057505138615eb2565b3d9150615ecd565b615e61565b5080602a5410615e5756fe18381720d6efb26847068a65e3be979f1243520b7db6b16331969a7acdb200d56e1540171b6c0c960b71a7020d9f60077f6af931a8bbf590da0223dacf75c7afa264697066735822122056484d55deb747757746e4453ebbaa76eee41f67903396153f6f962a39e6d3c864736f6c63430008130033",
  "linkReferences": {},
  "deployedLinkReferences": {}
}