{
  "_format": "hh-sol-artifact-1",
  "contractName": "PoolDeployer",
  "sourceName": "contracts/PoolDeployer.sol",
  "abi": [
    {
      "inputs": [
        {
          "internalType": "address",
          "name": "_poolImplementation",
          "type": "address"
        },
        {
          "internalType": "address",
          "name": "_manager",
          "type": "address"
        }
      ],
      "stateMutability": "nonpayable",
      "type": "constructor"
    },
    {
      "inputs": [],
      "name": "ApprovedSlotFeeMismatch",
      "type": "error"
    },
    {
      "inputs": [],
      "name": "AvailableSupplyInsufficient",
      "type": "error"
    },
    {
      "inputs": [],
      "name": "CollectioNameTaken",
      "type": "error"
    },
    {
      "inputs": [],
      "name": "CollectionNameTaken",
      "type": "error"
    },
    {
      "inputs": [],
      "name": "ContractsNotAllowed",
      "type": "error"
    },
    {
      "inputs": [],
      "name": "DescriptionTooLong",
      "type": "error"
    },
    {
      "inputs": [],
      "name": "ExceedsApprovedWinnerLimit",
      "type": "error"
    },
    {
      "inputs": [],
      "name": "IncompatiblePrizeContract",
      "type": "error"
    },
    {
      "inputs": [],
      "name": "InsufficientGatingTokenBalance",
      "type": "error"
    },
    {
      "inputs": [],
      "name": "InsufficientNativeBalance",
      "type": "error"
    },
    {
      "inputs": [],
      "name": "InsufficientPrizeAmountForEscrow",
      "type": "error"
    },
    {
      "inputs": [],
      "name": "InvalidDiscordLink",
      "type": "error"
    },
    {
      "inputs": [],
      "name": "InvalidMaxSlotsPerAddress",
      "type": "error"
    },
    {
      "inputs": [],
      "name": "InvalidParameter",
      "type": "error"
    },
    {
      "inputs": [],
      "name": "InvalidPrizeAmount",
      "type": "error"
    },
    {
      "inputs": [],
      "name": "InvalidPrizeType",
      "type": "error"
    },
    {
      "inputs": [],
      "name": "InvalidSlotFee",
      "type": "error"
    },
    {
      "inputs": [],
      "name": "InvalidSlotLimitConfig",
      "type": "error"
    },
    {
      "inputs": [],
      "name": "InvalidStartTime",
      "type": "error"
    },
    {
      "inputs": [],
      "name": "InvalidTelegramLink",
      "type": "error"
    },
    {
      "inputs": [],
      "name": "InvalidTokenGatingContract",
      "type": "error"
    },
    {
      "inputs": [],
      "name": "InvalidTwitterLink",
      "type": "error"
    },
    {
      "inputs": [],
      "name": "InvalidWinnerConfig",
      "type": "error"
    },
    {
      "inputs": [],
      "name": "NotOwnerOfTokenID",
      "type": "error"
    },
    {
      "inputs": [],
      "name": "PoolCreationPaused",
      "type": "error"
    },
    {
      "inputs": [],
      "name": "PoolNameTaken",
      "type": "error"
    },
    {
      "inputs": [],
      "name": "RefundFailed",
      "type": "error"
    },
    {
      "inputs": [],
      "name": "SocialEngagementFeeTransferFailed",
      "type": "error"
    },
    {
      "inputs": [],
      "name": "SocialEngagementParametersNotConfigured",
      "type": "error"
    },
    {
      "inputs": [],
      "name": "Unauthorized",
      "type": "error"
    },
    {
      "anonymous": false,
      "inputs": [
        {
          "indexed": false,
          "internalType": "address",
          "name": "revenueManager",
          "type": "address"
        },
        {
          "indexed": false,
          "internalType": "address",
          "name": "socialEngagementManager",
          "type": "address"
        }
      ],
      "name": "ContractAddressesUpdated",
      "type": "event"
    },
    {
      "anonymous": false,
      "inputs": [
        {
          "indexed": false,
          "internalType": "bool",
          "name": "paused",
          "type": "bool"
        }
      ],
      "name": "CreationPauseUpdated",
      "type": "event"
    },
    {
      "anonymous": false,
      "inputs": [
        {
          "indexed": false,
          "internalType": "uint256",
          "name": "min",
          "type": "uint256"
        },
        {
          "indexed": false,
          "internalType": "uint256",
          "name": "max",
          "type": "uint256"
        }
      ],
      "name": "DurationLimitsUpdated",
      "type": "event"
    },
    {
      "anonymous": false,
      "inputs": [
        {
          "indexed": false,
          "internalType": "uint256",
          "name": "slotFee",
          "type": "uint256"
        },
        {
          "indexed": false,
          "internalType": "uint256",
          "name": "protocolFee",
          "type": "uint256"
        },
        {
          "indexed": false,
          "internalType": "uint256",
          "name": "creationFee",
          "type": "uint256"
        },
        {
          "indexed": false,
          "internalType": "uint256",
          "name": "socialFee",
          "type": "uint256"
        }
      ],
      "name": "FeeConfigUpdated",
      "type": "event"
    },
    {
      "anonymous": false,
      "inputs": [
        {
          "indexed": false,
          "internalType": "bool",
          "name": "enabled",
          "type": "bool"
        },
        {
          "indexed": false,
          "internalType": "address",
          "name": "token",
          "type": "address"
        },
        {
          "indexed": false,
          "internalType": "uint256",
          "name": "minBalance",
          "type": "uint256"
        }
      ],
      "name": "GatingTokenConfigUpdated",
      "type": "event"
    },
    {
      "anonymous": false,
      "inputs": [
        {
          "indexed": true,
          "internalType": "address",
          "name": "previousOwner",
          "type": "address"
        },
        {
          "indexed": true,
          "internalType": "address",
          "name": "newOwner",
          "type": "address"
        }
      ],
      "name": "OwnershipTransferred",
      "type": "event"
    },
    {
      "anonymous": false,
      "inputs": [
        {
          "indexed": true,
          "internalType": "address",
          "name": "pool",
          "type": "address"
        },
        {
          "indexed": true,
          "internalType": "address",
          "name": "creator",
          "type": "address"
        },
        {
          "indexed": false,
          "internalType": "uint256",
          "name": "timestamp",
          "type": "uint256"
        }
      ],
      "name": "PoolCreated",
      "type": "event"
    },
    {
      "anonymous": false,
      "inputs": [
        {
          "indexed": true,
          "internalType": "address",
          "name": "poolImplementation",
          "type": "address"
        }
      ],
      "name": "PoolImplementationUpdated",
      "type": "event"
    },
    {
      "anonymous": false,
      "inputs": [
        {
          "indexed": true,
          "internalType": "address",
          "name": "pool",
          "type": "address"
        },
        {
          "indexed": false,
          "internalType": "string",
          "name": "description",
          "type": "string"
        },
        {
          "indexed": false,
          "internalType": "string",
          "name": "twitterLink",
          "type": "string"
        },
        {
          "indexed": false,
          "internalType": "string",
          "name": "discordLink",
          "type": "string"
        },
        {
          "indexed": false,
          "internalType": "string",
          "name": "telegramLink",
          "type": "string"
        }
      ],
      "name": "PoolMetadataSet",
      "type": "event"
    },
    {
      "anonymous": false,
      "inputs": [
        {
          "indexed": false,
          "internalType": "uint256",
          "name": "minPrized",
          "type": "uint256"
        },
        {
          "indexed": false,
          "internalType": "uint256",
          "name": "minNonPrized",
          "type": "uint256"
        },
        {
          "indexed": false,
          "internalType": "uint256",
          "name": "max",
          "type": "uint256"
        }
      ],
      "name": "SlotLimitsUpdated",
      "type": "event"
    },
    {
      "inputs": [
        {
          "components": [
            {
              "internalType": "string",
              "name": "name",
              "type": "string"
            },
            {
              "internalType": "uint256",
              "name": "startTime",
              "type": "uint256"
            },
            {
              "internalType": "uint256",
              "name": "duration",
              "type": "uint256"
            },
            {
              "internalType": "uint256",
              "name": "slotLimit",
              "type": "uint256"
            },
            {
              "internalType": "uint256",
              "name": "winnersCount",
              "type": "uint256"
            },
            {
              "internalType": "uint256",
              "name": "maxSlotsPerAddress",
              "type": "uint256"
            },
            {
              "internalType": "bool",
              "name": "isPrized",
              "type": "bool"
            },
            {
              "internalType": "uint256",
              "name": "customSlotFee",
              "type": "uint256"
            },
            {
              "internalType": "bool",
              "name": "erc721Drop",
              "type": "bool"
            },
            {
              "internalType": "bool",
              "name": "erc1155Drop",
              "type": "bool"
            },
            {
              "internalType": "address",
              "name": "prizeCollection",
              "type": "address"
            },
            {
              "internalType": "enum PrizeTypes.Standard",
              "name": "standard",
              "type": "uint8"
            },
            {
              "internalType": "uint256",
              "name": "prizeTokenId",
              "type": "uint256"
            },
            {
              "internalType": "uint256",
              "name": "amountPerWinner",
              "type": "uint256"
            },
            {
              "internalType": "address",
              "name": "creator",
              "type": "address"
            },
            {
              "internalType": "address",
              "name": "erc20PrizeToken",
              "type": "address"
            },
            {
              "internalType": "uint256",
              "name": "erc20PrizeAmount",
              "type": "uint256"
            },
            {
              "internalType": "uint256",
              "name": "nativePrizeAmount",
              "type": "uint256"
            },
            {
              "internalType": "address",
              "name": "holderTokenAddress",
              "type": "address"
            },
            {
              "internalType": "enum PrizeTypes.Standard",
              "name": "holderTokenStandard",
              "type": "uint8"
            },
            {
              "internalType": "uint256",
              "name": "minHolderTokenBalance",
              "type": "uint256"
            },
            {
              "internalType": "uint256",
              "name": "holderTokenBalance",
              "type": "uint256"
            },
            {
              "internalType": "uint256",
              "name": "holderTokenId",
              "type": "uint256"
            },
            {
              "internalType": "bool",
              "name": "socialEngagementRequired",
              "type": "bool"
            },
            {
              "internalType": "string",
              "name": "socialTaskDescription",
              "type": "string"
            },
            {
              "internalType": "string",
              "name": "description",
              "type": "string"
            },
            {
              "internalType": "string",
              "name": "twitterLink",
              "type": "string"
            },
            {
              "internalType": "string",
              "name": "discordLink",
              "type": "string"
            },
            {
              "internalType": "string",
              "name": "telegramLink",
              "type": "string"
            }
          ],
          "internalType": "struct PoolDeployer.PoolParams",
          "name": "p",
          "type": "tuple"
        }
      ],
      "name": "createPool",
      "outputs": [
        {
          "internalType": "address",
          "name": "",
          "type": "address"
        }
      ],
      "stateMutability": "payable",
      "type": "function"
    },
    {
      "inputs": [],
      "name": "creationFeePercentage",
      "outputs": [
        {
          "internalType": "uint256",
          "name": "",
          "type": "uint256"
        }
      ],
      "stateMutability": "view",
      "type": "function"
    },
    {
      "inputs": [],
      "name": "creationPaused",
      "outputs": [
        {
          "internalType": "bool",
          "name": "",
          "type": "bool"
        }
      ],
      "stateMutability": "view",
      "type": "function"
    },
    {
      "inputs": [],
      "name": "gatingToken",
      "outputs": [
        {
          "internalType": "address",
          "name": "",
          "type": "address"
        }
      ],
      "stateMutability": "view",
      "type": "function"
    },
    {
      "inputs": [
        {
          "internalType": "bool",
          "name": "isPrized",
          "type": "bool"
        }
      ],
      "name": "getMinSlotLimit",
      "outputs": [
        {
          "internalType": "uint256",
          "name": "",
          "type": "uint256"
        }
      ],
      "stateMutability": "view",
      "type": "function"
    },
    {
      "inputs": [
        {
          "internalType": "address",
          "name": "pool",
          "type": "address"
        }
      ],
      "name": "getPoolCreationTimestamp",
      "outputs": [
        {
          "internalType": "uint256",
          "name": "",
          "type": "uint256"
        }
      ],
      "stateMutability": "view",
      "type": "function"
    },
    {
      "inputs": [],
      "name": "globalSlotFee",
      "outputs": [
        {
          "internalType": "uint256",
          "name": "",
          "type": "uint256"
        }
      ],
      "stateMutability": "view",
      "type": "function"
    },
    {
      "inputs": [],
      "name": "isGated",
      "outputs": [
        {
          "internalType": "bool",
          "name": "",
          "type": "bool"
        }
      ],
      "stateMutability": "view",
      "type": "function"
    },
    {
      "inputs": [],
      "name": "maxPoolDuration",
      "outputs": [
        {
          "internalType": "uint256",
          "name": "",
          "type": "uint256"
        }
      ],
      "stateMutability": "view",
      "type": "function"
    },
    {
      "inputs": [],
      "name": "maxSlotLimit",
      "outputs": [
        {
          "internalType": "uint256",
          "name": "",
          "type": "uint256"
        }
      ],
      "stateMutability": "view",
      "type": "function"
    },
    {
      "inputs": [],
      "name": "minGatingTokenBalance",
      "outputs": [
        {
          "internalType": "uint256",
          "name": "",
          "type": "uint256"
        }
      ],
      "stateMutability": "view",
      "type": "function"
    },
    {
      "inputs": [],
      "name": "minPoolDuration",
      "outputs": [
        {
          "internalType": "uint256",
          "name": "",
          "type": "uint256"
        }
      ],
      "stateMutability": "view",
      "type": "function"
    },
    {
      "inputs": [],
      "name": "minSlotLimit",
      "outputs": [
        {
          "internalType": "uint256",
          "name": "",
          "type": "uint256"
        }
      ],
      "stateMutability": "view",
      "type": "function"
    },
    {
      "inputs": [],
      "name": "minSlotLimitNonPrized",
      "outputs": [
        {
          "internalType": "uint256",
          "name": "",
          "type": "uint256"
        }
      ],
      "stateMutability": "view",
      "type": "function"
    },
    {
      "inputs": [
        {
          "internalType": "address",
          "name": "",
          "type": "address"
        },
        {
          "internalType": "address",
          "name": "",
          "type": "address"
        },
        {
          "internalType": "uint256[]",
          "name": "",
          "type": "uint256[]"
        },
        {
          "internalType": "uint256[]",
          "name": "",
          "type": "uint256[]"
        },
        {
          "internalType": "bytes",
          "name": "",
          "type": "bytes"
        }
      ],
      "name": "onERC1155BatchReceived",
      "outputs": [
        {
          "internalType": "bytes4",
          "name": "",
          "type": "bytes4"
        }
      ],
      "stateMutability": "pure",
      "type": "function"
    },
    {
      "inputs": [
        {
          "internalType": "address",
          "name": "",
          "type": "address"
        },
        {
          "internalType": "address",
          "name": "",
          "type": "address"
        },
        {
          "internalType": "uint256",
          "name": "",
          "type": "uint256"
        },
        {
          "internalType": "uint256",
          "name": "",
          "type": "uint256"
        },
        {
          "internalType": "bytes",
          "name": "",
          "type": "bytes"
        }
      ],
      "name": "onERC1155Received",
      "outputs": [
        {
          "internalType": "bytes4",
          "name": "",
          "type": "bytes4"
        }
      ],
      "stateMutability": "pure",
      "type": "function"
    },
    {
      "inputs": [
        {
          "internalType": "address",
          "name": "",
          "type": "address"
        },
        {
          "internalType": "address",
          "name": "",
          "type": "address"
        },
        {
          "internalType": "uint256",
          "name": "",
          "type": "uint256"
        },
        {
          "internalType": "bytes",
          "name": "",
          "type": "bytes"
        }
      ],
      "name": "onERC721Received",
      "outputs": [
        {
          "internalType": "bytes4",
          "name": "",
          "type": "bytes4"
        }
      ],
      "stateMutability": "pure",
      "type": "function"
    },
    {
      "inputs": [],
      "name": "owner",
      "outputs": [
        {
          "internalType": "address",
          "name": "",
          "type": "address"
        }
      ],
      "stateMutability": "view",
      "type": "function"
    },
    {
      "inputs": [
        {
          "internalType": "address",
          "name": "",
          "type": "address"
        }
      ],
      "name": "poolCreationTimestamps",
      "outputs": [
        {
          "internalType": "uint256",
          "name": "",
          "type": "uint256"
        }
      ],
      "stateMutability": "view",
      "type": "function"
    },
    {
      "inputs": [],
      "name": "poolImplementation",
      "outputs": [
        {
          "internalType": "address",
          "name": "",
          "type": "address"
        }
      ],
      "stateMutability": "view",
      "type": "function"
    },
    {
      "inputs": [],
      "name": "protocolFeePercentage",
      "outputs": [
        {
          "internalType": "uint256",
          "name": "",
          "type": "uint256"
        }
      ],
      "stateMutability": "view",
      "type": "function"
    },
    {
      "inputs": [],
      "name": "protocolManager",
      "outputs": [
        {
          "internalType": "address",
          "name": "",
          "type": "address"
        }
      ],
      "stateMutability": "view",
      "type": "function"
    },
    {
      "inputs": [],
      "name": "renounceOwnership",
      "outputs": [],
      "stateMutability": "nonpayable",
      "type": "function"
    },
    {
      "inputs": [],
      "name": "revenueManager",
      "outputs": [
        {
          "internalType": "address",
          "name": "",
          "type": "address"
        }
      ],
      "stateMutability": "view",
      "type": "function"
    },
    {
      "inputs": [
        {
          "internalType": "address",
          "name": "_revenueManager",
          "type": "address"
        },
        {
          "internalType": "address",
          "name": "_socialEngagementManager",
          "type": "address"
        }
      ],
      "name": "setContractAddresses",
      "outputs": [],
      "stateMutability": "nonpayable",
      "type": "function"
    },
    {
      "inputs": [
        {
          "internalType": "bool",
          "name": "_paused",
          "type": "bool"
        }
      ],
      "name": "setCreationPaused",
      "outputs": [],
      "stateMutability": "nonpayable",
      "type": "function"
    },
    {
      "inputs": [
        {
          "internalType": "uint256",
          "name": "_min",
          "type": "uint256"
        },
        {
          "internalType": "uint256",
          "name": "_max",
          "type": "uint256"
        }
      ],
      "name": "setDurationLimits",
      "outputs": [],
      "stateMutability": "nonpayable",
      "type": "function"
    },
    {
      "inputs": [
        {
          "internalType": "uint256",
          "name": "_slotFee",
          "type": "uint256"
        },
        {
          "internalType": "uint256",
          "name": "_protocolFee",
          "type": "uint256"
        },
        {
          "internalType": "uint256",
          "name": "_creationFee",
          "type": "uint256"
        },
        {
          "internalType": "uint256",
          "name": "_socialFee",
          "type": "uint256"
        }
      ],
      "name": "setFeeConfig",
      "outputs": [],
      "stateMutability": "nonpayable",
      "type": "function"
    },
    {
      "inputs": [
        {
          "internalType": "bool",
          "name": "_enabled",
          "type": "bool"
        }
      ],
      "name": "setGating",
      "outputs": [],
      "stateMutability": "nonpayable",
      "type": "function"
    },
    {
      "inputs": [
        {
          "internalType": "address",
          "name": "_token",
          "type": "address"
        },
        {
          "internalType": "uint256",
          "name": "_minBalance",
          "type": "uint256"
        }
      ],
      "name": "setGatingToken",
      "outputs": [],
      "stateMutability": "nonpayable",
      "type": "function"
    },
    {
      "inputs": [
        {
          "internalType": "uint256",
          "name": "_minPrized",
          "type": "uint256"
        },
        {
          "internalType": "uint256",
          "name": "_minNonPrized",
          "type": "uint256"
        },
        {
          "internalType": "uint256",
          "name": "_max",
          "type": "uint256"
        }
      ],
      "name": "setSlotLimits",
      "outputs": [],
      "stateMutability": "nonpayable",
      "type": "function"
    },
    {
      "inputs": [],
      "name": "socialEngagementFee",
      "outputs": [
        {
          "internalType": "uint256",
          "name": "",
          "type": "uint256"
        }
      ],
      "stateMutability": "view",
      "type": "function"
    },
    {
      "inputs": [],
      "name": "socialEngagementManager",
      "outputs": [
        {
          "internalType": "address",
          "name": "",
          "type": "address"
        }
      ],
      "stateMutability": "view",
      "type": "function"
    },
    {
      "inputs": [
        {
          "internalType": "bytes4",
          "name": "interfaceId",
          "type": "bytes4"
        }
      ],
      "name": "supportsInterface",
      "outputs": [
        {
          "internalType": "bool",
          "name": "",
          "type": "bool"
        }
      ],
      "stateMutability": "view",
      "type": "function"
    },
    {
      "inputs": [
        {
          "internalType": "address",
          "name": "newOwner",
          "type": "address"
        }
      ],
      "name": "transferOwnership",
      "outputs": [],
      "stateMutability": "nonpayable",
      "type": "function"
    },
    {
      "inputs": [],
      "name": "transferOwnershipToManager",
      "outputs": [],
      "stateMutability": "nonpayable",
      "type": "function"
    },
    {
      "inputs": [
        {
          "internalType": "address",
          "name": "_poolImplementation",
          "type": "address"
        }
      ],
      "name": "updatePoolImplementation",
      "outputs": [],
      "stateMutability": "nonpayable",
      "type": "function"
    }
  ],
  "bytecode": "0x608034620000d057601f6200366638819003918201601f19168301916001600160401b03831184841017620000d5578084926040948552833981010312620000d0576200005a60206200005283620000eb565b9201620000eb565b60008054336001600160a01b0319808316821784556040519590946001600160a01b03949093859391908416907f8be0079c531659141344cd1fd0a4f28419497f9722a3daafe3b4186f6b6457e09080a36001805516836002541617600255169060035416176003556135659081620001018239f35b600080fd5b634e487b7160e01b600052604160045260246000fd5b51906001600160a01b0382168203620000d05756fe608080604052600436101561001357600080fd5b600090813560e01c90816301ffc9a714612e9557508063026cf60114612df75780630402a28a14612dd9578063065bc36f14612d2a578063150b7a0214612cd35780631e7278ad14612caa578063431ba460146102ed578063565e3eff14612c8c57806359c810c114612c6e5780636b90bda914612c45578063715018a614612beb57806376dc3c3114612b565780637b5b7878146109865780637c93fbf71461083c5780638da5cb5b146108155780638e50e509146107f75780639c2dcafb146107d9578063a21d131c14610775578063a2b3273214610757578063a9dd230514610715578063ab4b6692146106ec578063ada5c132146106ce578063b546ba4a1461069c578063bc197c811461060c578063bd12dd64146105e9578063bd1bd38714610555578063cd931e40146104bf578063cefa779914610496578063d91043f214610478578063dbd5ef6d1461036a578063e4741da414610344578063e720c00514610326578063ec66705f146102ed578063f23a6e6114610292578063f2fde38b14610201578063f9d90986146101e35763ff3cd61e146101b857600080fd5b346101e057806003193601126101e057600d546040516001600160a01b039091168152602090f35b80fd5b50346101e057806003193601126101e0576020601054604051908152f35b50346101e05760203660031901126101e05761021b612eea565b610223612f73565b6001600160a01b0381161561023e5761023b90612fcb565b80f35b60405162461bcd60e51b815260206004820152602660248201527f4f776e61626c653a206e6577206f776e657220697320746865207a65726f206160448201526564647265737360d01b6064820152608490fd5b50346101e05760a03660031901126101e0576102ac612eea565b506102b5612f00565b506084356001600160401b0381116102e9576102d5903690600401612f16565b505060405163f23a6e6160e01b8152602090f35b5080fd5b50346101e05760203660031901126101e0576020906040906001600160a01b03610315612eea565b168152601283522054604051908152f35b50346101e057806003193601126101e0576020600754604051908152f35b50346101e057806003193601126101e057602060ff600e5460a01c166040519015158152f35b50346101e05760803660031901126101e057604435602435600435606435610390612f73565b6127108084116104335784116103ee577f58ee77c9f5b50426dc036dff11919df1099b3ca39cf4823cecb182e34465a2f7936080938360095580600a5581600b5582600c55604051938452602084015260408301526060820152a180f35b60405162461bcd60e51b815260206004820152601f60248201527f4372656174696f6e206665652063616e6e6f74206578636565642031303025006044820152606490fd5b60405162461bcd60e51b815260206004820152601f60248201527f50726f746f636f6c206665652063616e6e6f74206578636565642031303025006044820152606490fd5b50346101e057806003193601126101e0576020600b54604051908152f35b50346101e057806003193601126101e0576002546040516001600160a01b039091168152602090f35b50346101e05760403660031901126101e0577fb74ce24e1b912d339e2e92f0ab4cc7567a0b11bb3874d76b9d6e675ffbd6e3ec6104fa612eea565b610502612f00565b9061050b612f73565b600d80546001600160a01b039283166001600160a01b03199182168117909255600e8054949093169316831790915560408051918252602082019290925290819081015b0390a180f35b50346101e05760403660031901126101e0577f237fbe5cd573051d8d3fae25c11141b3cfe5ac4498a663e8046b11a9679c3df2610590612eea565b60243561059b612f73565b600f80546001600160a01b0319166001600160a01b039390931692831790556010819055600e546040805160a09290921c60ff1615158252602082019390935291820152806060810161054f565b50346101e057806003193601126101e057602060ff601154166040519015158152f35b50346101e05760a03660031901126101e057610626612eea565b5061062f612f00565b506001600160401b0360443581811161069857610650903690600401612f43565b50506064358181116106985761066a903690600401612f43565b50506084359081116102e957610684903690600401612f16565b505060405163bc197c8160e01b8152602090f35b8280fd5b50346101e05760203660031901126101e0576004359081151582036101e05760206106c683613012565b604051908152f35b50346101e057806003193601126101e0576020600c54604051908152f35b50346101e057806003193601126101e0576003546040516001600160a01b039091168152602090f35b50346101e057806003193601126101e05780546001600160a01b0390811633036107465761023b9060035416612fcb565b6040516282b42960e81b8152600490fd5b50346101e057806003193601126101e0576020600954604051908152f35b50346101e05760203660031901126101e0576004358015158091036102e95760207fae839565b74a95bdf72da1e1fd680e746316fe6293600baec220c8ceab210f58916107c0612f73565b60ff196011541660ff821617601155604051908152a180f35b50346101e057806003193601126101e0576020600854604051908152f35b50346101e057806003193601126101e0576020600a54604051908152f35b50346101e057806003193601126101e057546040516001600160a01b039091168152602090f35b50346101e05760603660031901126101e05760443560243560043561085f612f73565b801561094857811561090357808311806108fa575b156108be577feb78458964f69dce3bc3e472dc9c3abca68f6735dae4c8dc5d5742c92e59d1fc9260609282600455806005558160065560405192835260208301526040820152a180f35b60405162461bcd60e51b81526020600482015260146024820152734d6178206d75737420657863656564206d696e7360601b6044820152606490fd5b50818311610874565b60405162461bcd60e51b815260206004820152601a60248201527f4d696e206e6f6e2d7072697a6564206d757374206265203e20300000000000006044820152606490fd5b60405162461bcd60e51b815260206004820152601660248201527504d696e207072697a6564206d757374206265203e20360541b6044820152606490fd5b506003196020368201126102e9576001600160401b03600435116102e9576103a090600435360301126101e057600260015414612b11576002600155333203612b005760ff600e5460a01c16612a38575b600f548190819081906001600160a01b031680151580612a2d575b6129b0575b50610a076102e460043501613057565b61299b575b600954829180151580612992575b610a2860c460043501613057565b80612978575b612960575b83341061294e57612874575b5060ff601154166128625742602460043501351061285057610a6d610a6860c460043501613057565b613012565b606460043501351061283e57600654606460043501351161283e576084600435013515611f8457606460043501356084600435013511611f8457600435608401356064818102918204900361282a57601e60646004350135818102929181840414901517156128165711611f845760075460446004350135101580612804575b156127cc576001600160a01b03610b09600435610244016130af565b16612793575b610b1d60c460043501613057565b612740575b60e46004350135151593848495610b3d60c460043501613057565b156126ce5780156126c85760e460043501355b935b84156118c757610b676101c4600435016130af565b60a8610bcd610b7a6004803501806130c3565b92908360405194859260208401976bffffffffffffffffffffffff199060601b1688524260348501524360548501523260601b607485015260888401378101346088820152036088810184520182613036565b519020600254608881901c62ffffff16763d602d80600a3d3981f3363d3d373d3d3d363d7300000017895260781b6effffffffffffffffffffffffffffff19166e5af43d82803e903d91602b57fd5bf3176020526037600989f56001600160a01b03811698909290891561268357610c4a610144600435016130af565b9a89948a93610c5e6102e460043501613057565b6125d5575b610c7160c460043501613057565b611676575b508b8b52601260205260408b204290556003546001600160a01b0316610ca16004356101c4016130af565b91813b15611672576040516335b380b960e21b81526001600160a01b039182166004820152921660248301528b908290604490829084905af180156114f657908b9161165e575b5050610cf96101c4600435016130af565b92610d0961010460043501613057565b8015611649575b80611629575b611536575b5089610d2c61010460043501613057565b8015611521575b80611501575b611462575b600461016481350135101561145e576004356101640135600303611457576102246004350135975b15918261144f575b5081611447575b8161143e575b6003546001600160a01b031696610d966004803501806130c3565b9490600a5495600b54976040519b8c6001600160401b036101a0828181011092011117611420576101a08d016040528c526001600160a01b031660208c0152610dde81613064565b91610dec6040519384613036565b818352368282011161143a578f9180602092838601378301015260408a01526064600435013560608a015260a4600435013560808a01526084600435013560a08a0152151560c0890152151560e088015215156101008701521515610120860152610140850152610160840152610180830152610e6e6101e4600435016130af565b60405198896101008101106001600160401b036101008c011117611420576101008a01604052610ea561016460043501358b613202565b6001600160a01b0390811660208b015260043561018481013560408c01526101a481013560608c0152911660808a015261020481013560a08a015261022481013560c08a015290151560e0890152610f0090610244016130af565b92600461026481350135101561143657604051938460808101106001600160401b0360808701111761142057608085016040526001600160a01b03168452610f52600435610264013560208601613202565b60043561028481013560408601526102c48101356060860152610f78906102e401613057565b90610f886101c4600435016130af565b610f9660c460043501613057565b92893b1561141c5760408051630f1d734960e21b8152610260600482015286516001600160a01b03908116610264830152602088015116610284820152908601516101a06102a483015280516104048301819052909c919890969091908b5b888110611405575094610424948a98939460608a98968f9c9a9560e0906101808f9a8d9b8d8c8e010152858101516102c48d015260808101516102e48d015260a08101516103048d015260c081015115156103248d01528381015115156103448d015261010081015115156103648d015261012081015115156103848d01526101408101516103a48d01526101608101516103c48d015201516103e48b01526110a260248b018251613224565b6020818101516001600160a01b0390811660448d0152604083015160648d01528583015160848d01526080830151811660a48d015260a083015160c48d015260c083015160e48d0152929091015115156101048b015282519091166101248a0152810151611115906101448a0190613224565b6040810151610164890152015161018487015215156101a48601526001600160a01b03166101c485015260043560248101356101e4860152604401356102048501526102248401521515610244830152601f01601f19168101030191885af180156113fa579083916113e6575b50508034036113a8575b506001600160a01b0390506111a66004356101c4016130af565b16817ff8a0462f666b427ea753848be7e91f9ce413975906f6f39950be296ca9a4d5246020604051428152a361032460043501906111e9826004356004016130c3565b92905061034460043501611202816004356004016130c3565b919050610364600435019461121c866004356004016130c3565b90506103846004350193611235856004356004016130c3565b938091501580159061139f575b8015611396575b801561138d575b611264575b60208860018055604051908152f35b6103e81061137b5760c8106113695760c8106113575760c810611345576112d66113366112e46020976113287f4e2fb815c48f38871c1a97680d69ecfc7db86ce1f02e00f1f438d6bdbb92b3a0966112f261131a6112c88c9b6004356004016130c3565b9890996004356004016130c3565b9690956004356004016130c3565b9290936004356004016130c3565b95909661130c6040519b8c9b60808d5260808d01916130f5565b918a830360208c01526130f5565b9187830360408901526130f5565b9184830360608601526130f5565b0390a282808080808080611255565b60405163621c786f60e01b8152600490fd5b60405163f94023a960e01b8152600490fd5b604051637a59f6af60e11b8152600490fd5b604051630d7cfc5960e41b8152600490fd5b50831515611250565b50821515611249565b50811515611242565b8180809234036113bd6101c4600435016130af565b5af16113c761307f565b50156113d457818061118c565b604051633c31275160e21b8152600490fd5b6113ef90613023565b6102e9578184611182565b6040513d85823e3d90fd5b8e81016020908101518c8301610424015201610ff5565b8880fd5b634e487b7160e01b600052604160045260246000fd5b8580fd5b8f80fd5b85159150610d7b565b869150610d75565b915038610d6e565b8a97610d66565b8a80fd5b506003546001600160a01b03166020611480600435610144016130af565b604051631a74b3f360e01b81526001600160a01b03909116600482015291829060249082905afa9081156114f6578b916114bc575b5015610d3e565b90506020813d6020116114ee575b816114d760209383613036565b8101031261145e576114e890613135565b386114b5565b3d91506114ca565b6040513d8d823e3d90fd5b506001600160a01b03611519600435610144016130af565b161515610d39565b5061153161012460043501613057565b610d33565b6001600160a01b0381161561157e575b6115556101c4600435016130af565b6001600160a01b038281169116141580611577575b15610d1b57925038610d1b565b508661156a565b50600461016481350135101561162557600435610164013561160b57600460206001600160a01b036115b48335610144016130af565b1660405192838092638da5cb5b60e01b82525afa9081156114f6578b916115dc575b50611546565b6115fe915060203d602011611604575b6115f68183613036565b810190613116565b386115d6565b503d6115ec565b600460206001600160a01b036115b48335610144016130af565b8980fd5b506001600160a01b03611641600435610144016130af565b161515610d16565b5061165961012460043501613057565b610d10565b61166790613023565b611625578938610ce8565b8c80fd5b909560046101648135013510156118155760043561016401356002036118eb57506001600160a01b036116ae600435610144016130af565b16611865576102046004350135156118d9576116e06116da608460043501356102046004350135613184565b156131a4565b6118c75760a4600435013515611877576102246004350135611865576001948a602061176d6001600160a01b0361171c6004356101e4016130af565b1661172c6101c4600435016130af565b6040516323b872dd60e01b81526001600160a01b03909116600480830191909152306024830152356102040135604482015293849283919082906064820190565b03925af180156118215761182c575b506001600160a01b036117946004356101e4016130af565b60405163a9059cbb60e01b81526001600160a01b038416600480830191909152356102040135602482015291602091839116818f816044810103925af18015611821576117e4575b505b38610c76565b6020813d602011611819575b816117fd60209383613036565b810103126118155761180e90613135565b50386117dc565b8b80fd5b3d91506117f0565b6040513d8e823e3d90fd5b6020813d60201161185d575b8161184560209383613036565b810103126118155761185690613135565b503861177c565b3d9150611838565b604051631558dc5f60e31b8152600490fd5b60405162461bcd60e51b815260206004820152602260248201527f4d617820736c6f747320706572207061727469636970616e7420726571756972604482015261195960f21b6064820152608490fd5b604051633c8e6e6960e11b8152600490fd5b604051630193f71f60e51b8152600490fd5b600435610164013560030361197757506001600160a01b036119126004356101e4016130af565b16611865576001600160a01b0361192e600435610144016130af565b166118655761194d6116da608460043501356102246004350135613184565b6118c75760a4600435013515611965576001946117de565b6040516313b558f960e01b8152600490fd5b9060043561016401356120905760016101a46004350135116118d9576001600160a01b036119aa600435610144016130af565b1615158061207a575b15611b8b575050600160846004350135116118d957602460206001600160a01b036119e3600435610144016130af565b16604051928380926331a9108f60e11b8252610184600435013560048301525afa9081156114f6578b91611b6c575b506001600160a01b03611a2a6004356101c4016130af565b166001600160a01b0390911603611b5a576001946001600160a01b03611a55600435610144016130af565b16611a656101c4600435016130af565b813b1561167257604051632142170760e11b81526001600160a01b039091166004808301919091523060248301523561018401356044820152908c9082908183816064810103925af1801561182157908c91611b46575b506001600160a01b039050611ad6600435610144016130af565b16803b1561181557604051632142170760e11b8152306004808301919091526001600160a01b03841660248301523561018401356044820152908c908290606490829084905af1801561182157908c91611b32575b50506117de565b611b3b90613023565b61145e578a38611b2b565b611b4f90613023565b61145e578a38611abc565b604051632d346a9760e01b8152600490fd5b611b85915060203d602011611604576115f68183613036565b38611a12565b9095906001600160a01b03611ba5600435610144016130af565b16151580612065575b611bb9575b506117de565b9850955091506001600160a01b03611bd6600435610144016130af565b6040516301ffc9a760e01b81526380ac58cd60e01b6004820152911690602081602481855afa9081156114f6578b9161202b575b5015611fdf576040516301ffc9a760e01b8152637c97ded960e11b600482015290602090829060249082905afa908115611f79578a91611ff1575b5015611fdf57600460206001600160a01b03611c658335610144016130af565b1660405192838092633f6615ab60e11b82525afa908115611f79578a91611fa8575b506084600435013511611f965760016084600435013514611f845761016460043501356118655760049160206001600160a01b03611cc98535610144016130af565b1660405194858092638da5cb5b60e01b82525afa928315611f79578a93611f58575b5082611cfc6101c4600435016130af565b6001600160a01b03908116911603611da3578715611d9d5760e460043501355b97955b6001600160a01b03611d36600435610144016130af565b16803b15611815576040516227675f60e01b81526001600160a01b03831660048083019190915235608401356024820152908c908290604490829084905af1801561182157908c91611d89575b50611bb3565b611d9290613023565b61145e578a38611d83565b83611d1c565b9496946001600160a01b03611dbd600435610144016130af565b1660c0611dcf6101c4600435016130af565b6040516317f6397960e01b81526001600160a01b03909116600482015291829060249082905afa80156114f6578b908182938392611f1f575b501561074657611e1791613177565b6084600435013511611f0d57611e3261010460043501613057565b611f04575b80611eea575083978a96611ed8575b6001600160a01b03611e5d600435610144016130af565b16611e6d6101c4600435016130af565b813b15611672576040516334ea162f60e11b81526001600160a01b0390911660048083019190915235608401356024820152908c9082908183816044810103925af1801561182157908c91611ec4575b5050611d1f565b611ecd90613023565b61145e578a38611ebd565b60405163805596b160e01b8152600490fd5b809198965060e4600435013503611ed85796600195611e46565b60019250611e37565b604051630161dc7d60e21b8152600490fd5b92505050611f44915060c03d8111611f51575b611f3c8183613036565b810190613142565b9294919350389050611e08565b503d611f32565b611f7291935060203d602011611604576115f68183613036565b9138611ceb565b6040513d8c823e3d90fd5b60405163c827d5c360e01b8152600490fd5b604051632fb7debb60e11b8152600490fd5b90506020813d602011611fd7575b81611fc360209383613036565b81010312611fd2575138611c87565b600080fd5b3d9150611fb6565b6040516359071b0760e11b8152600490fd5b90506020813d602011612023575b8161200c60209383613036565b810103126116255761201d90613135565b38611c45565b3d9150611fff565b90506020813d60201161205d575b8161204660209383613036565b8101031261145e5761205790613135565b38611c0a565b3d9150612039565b5061207561010460043501613057565b611bae565b5061208a61010460043501613057565b156119b3565b9095906004356101640135600103612597576101a4600435013515612552576001600160a01b036120c6600435610144016130af565b1615158061253d575b6120d957506117de565b9850955091506001600160a01b036120f6600435610144016130af565b6040516301ffc9a760e01b8152636cdb3d1360e11b6004820152911690602081602481855afa9081156114f6578b91612503575b5015611fdf576040516301ffc9a760e01b81526315ba79c360e11b600482015290602090829060249082905afa908115611f79578a916124c9575b5015611fdf5760016084600435013514611f845760043560848101356101a4909101358082029190910490036124b357602460206001600160a01b036121b0600435610144016130af565b1660405192838092633570cb2960e21b8252610184600435013560048301525afa908115611f79578a91612481575b506101a46004350135608460043501350211611f965760049160206001600160a01b036122108535610144016130af565b1660405194858092638da5cb5b60e01b82525afa928315611f79578a93612460575b50826122436101c4600435016130af565b6001600160a01b039081169116036122df5787156122d95760e460043501355b97955b6001600160a01b0361227d600435610144016130af565b16803b15611815578b809160648f60405194859384926309de21c160e41b84526004840152610184600435013560248401526101a46004350135608460043501350260448401525af1801561182157908c91611d895750611bb3565b83612263565b9496946001600160a01b036122f9600435610144016130af565b1660c061230b6101c4600435016130af565b6040516317f6397960e01b81526001600160a01b03909116600482015291829060249082905afa80156114f6578b908182938392612437575b50156107465761235391613177565b6084600435013511611f0d5761236e61012460043501613057565b61242e575b80612414575083978a96611ed8575b6001600160a01b03612399600435610144016130af565b166123a96101c4600435016130af565b813b15611672576040516334ea162f60e11b81526001600160a01b0390911660048083019190915235608401356024820152908c9082908183816044810103925af1801561182157908c91612400575b5050612266565b61240990613023565b61145e578a386123f9565b809198965060e4600435013503611ed85796600195612382565b60019250612373565b92505050612453915060c03d8111611f5157611f3c8183613036565b9294919350389050612344565b61247a91935060203d602011611604576115f68183613036565b9138612232565b90506020813d6020116124ab575b8161249c60209383613036565b81010312611fd25751386121df565b3d915061248f565b634e487b7160e01b600052601160045260246000fd5b90506020813d6020116124fb575b816124e460209383613036565b81010312611625576124f590613135565b38612165565b3d91506124d7565b90506020813d602011612535575b8161251e60209383613036565b8101031261145e5761252f90613135565b3861212a565b3d9150612511565b5061254d61012460043501613057565b6120cf565b60405162461bcd60e51b815260206004820152601d60248201527f416d6f756e74207065722077696e6e6572206d757374206265203e20300000006044820152606490fd5b60405162461bcd60e51b8152602060048201526016602482015275556e737570706f72746564207072697a65207479706560501b6044820152606490fd5b600e546001600160a01b03168015612671576125fc610304600435016004356004016130c3565b8291923b1561266d57918f918f92938361263a95604051968795869485936386aec17960e01b855260048501526040602485015260448401916130f5565b03925af180156126625761264f575b50610c63565b61265b909c919c613023565b9a38612649565b6040513d8f823e3d90fd5b8e80fd5b6040516369ecf6c760e11b8152600490fd5b60405162461bcd60e51b815260206004820152601760248201527f455243313136373a2063726561746532206661696c65640000000000000000006044820152606490fd5b83610b50565b85915083816118c757600160a460043501351161272e576001600160a01b036126fc600435610144016130af565b1661272e5761271061010460043501613057565b61272e57610184600435013561272e576101a4600435013515610b52575b604051630309cb8760e51b8152600490fd5b606460043501358080046001149015171561277f576103e8606460043501350460a460043501351115610b22576040516313b558f960e01b8152600490fd5b634e487b7160e01b83526011600452602483fd5b6127a2610244600435016130af565b60046102648135013510156127c8576127c390610264600435013590613231565b610b0f565b8380fd5b60405162461bcd60e51b815260206004820152601060248201526f24b73b30b634b210323ab930ba34b7b760811b6044820152606490fd5b50600854604460043501351115610aed565b634e487b7160e01b85526011600452602485fd5b634e487b7160e01b84526011600452602484fd5b60405163ac255ca760e01b8152600490fd5b604051632ca4094f60e21b8152600490fd5b6040516316247b3f60e11b8152600490fd5b600d546001600160a01b031680156129095760405191635e5bc1c560e11b6020840152806024840152602483528260608101106001600160401b036060850111176128f55791859291839260608301604052602083519301915af16128d761307f565b50156128e35738610a3f565b604051635b5b44c760e01b8152600490fd5b634e487b7160e01b86526041600452602486fd5b60405162461bcd60e51b815260206004820152601760248201527f526576656e7565206d616e61676572206e6f74207365740000000000000000006044820152606490fd5b60405163dbc3a71f60e01b8152600490fd5b92610224600435013581018091116128165792610a33565b506101646004350135600481101561143657600314610a2e565b92508092610a1a565b50600c548315610a0c5760019250821c610a0c565b6040516370a0823160e01b8152336004820152919450602090829060249082905afa908115612a225782916129f0575b5060105460021b111592386109f7565b90506020813d602011612a1a575b81612a0b60209383613036565b810103126102e95751386129e0565b3d91506129fe565b6040513d84823e3d90fd5b5060105415156109f2565b600f546001600160a01b03168015612ac4576020602491604051928380926370a0823160e01b82523360048301525afa908115612a22578291612a92575b5060105411156109d757604051633991498960e11b8152600490fd5b90506020813d602011612abc575b81612aad60209383613036565b810103126102e9575138612a76565b3d9150612aa0565b60405162461bcd60e51b815260206004820152601460248201527311d85d1a5b99c81d1bdad95b881b9bdd081cd95d60621b6044820152606490fd5b604051628b531560e01b8152600490fd5b60405162461bcd60e51b815260206004820152601f60248201527f5265656e7472616e637947756172643a207265656e7472616e742063616c6c006044820152606490fd5b50346101e05760203660031901126101e05760043580151590818103610698577f237fbe5cd573051d8d3fae25c11141b3cfe5ac4498a663e8046b11a9679c3df291612ba0612f73565b600e805460ff60a01b191660a09290921b60ff60a01b16919091179055600f546010546040805193151584526001600160a01b0392909216602084015290820152806060810161054f565b50346101e057806003193601126101e057612c04612f73565b80546001600160a01b03198116825581906001600160a01b03167f8be0079c531659141344cd1fd0a4f28419497f9722a3daafe3b4186f6b6457e08280a380f35b50346101e057806003193601126101e057600e546040516001600160a01b039091168152602090f35b50346101e057806003193601126101e0576020600554604051908152f35b50346101e057806003193601126101e0576020600454604051908152f35b50346101e057806003193601126101e057600f546040516001600160a01b039091168152602090f35b50346101e05760803660031901126101e057612ced612eea565b50612cf6612f00565b506064356001600160401b0381116102e957612d16903690600401612f16565b5050604051630a85bd0160e11b8152602090f35b50346101e05760203660031901126101e057612d44612eea565b612d4c612f73565b6001600160a01b03168015612d9457600280546001600160a01b031916821790557f1eed81ce21a92b04ae795cb172e51fb0f8c7f90ec3cd2dc2b4c6395d8d39456f8280a280f35b60405162461bcd60e51b815260206004820152601b60248201527f496e76616c696420506f6f6c20696d706c656d656e746174696f6e00000000006044820152606490fd5b50346101e057806003193601126101e0576020600654604051908152f35b50346101e05760403660031901126101e057600435602435612e17612f73565b81811115612e5a57816040917f060e9bb7b24700e1f67f61d02209b1fb7e61dcb50699bd88a5004e8649f3e4ec936007558060085582519182526020820152a180f35b60405162461bcd60e51b815260206004820152601360248201527226b0bc1036bab9ba1032bc31b2b2b21036b4b760691b6044820152606490fd5b9050346102e95760203660031901126102e95760043563ffffffff60e01b81168091036106985760209250630a85bd0160e11b8114908115612ed9575b5015158152f35b630271189760e51b14905038612ed2565b600435906001600160a01b0382168203611fd257565b602435906001600160a01b0382168203611fd257565b9181601f84011215611fd2578235916001600160401b038311611fd25760208381860195010111611fd257565b9181601f84011215611fd2578235916001600160401b038311611fd2576020808501948460051b010111611fd257565b6000546001600160a01b03163303612f8757565b606460405162461bcd60e51b815260206004820152602060248201527f4f776e61626c653a2063616c6c6572206973206e6f7420746865206f776e65726044820152fd5b600080546001600160a01b039283166001600160a01b03198216811783559216907f8be0079c531659141344cd1fd0a4f28419497f9722a3daafe3b4186f6b6457e09080a3565b1561301d5760045490565b60055490565b6001600160401b03811161142057604052565b90601f801991011681019081106001600160401b0382111761142057604052565b358015158103611fd25790565b6001600160401b03811161142057601f01601f191660200190565b3d156130aa573d9061309082613064565b9161309e6040519384613036565b82523d6000602084013e565b606090565b356001600160a01b0381168103611fd25790565b903590601e1981360301821215611fd257018035906001600160401b038211611fd257602001918136038313611fd257565b908060209392818452848401376000828201840152601f01601f1916010190565b90816020910312611fd257516001600160a01b0381168103611fd25790565b51908115158203611fd257565b91908260c0910312611fd25761315782613135565b9160208101519160408201519160608101519160a0608083015192015190565b919082039182116124b357565b811561318e570690565b634e487b7160e01b600052601260045260246000fd5b156131ab57565b60405162461bcd60e51b815260206004820152602960248201527f5072697a6520616d6f756e74206d75737420626520646976697369626c652062604482015268792077696e6e65727360b81b6064820152608490fd5b600482101561320e5752565b634e487b7160e01b600052602160045260246000fd5b90600482101561320e5752565b9091906001600160a01b03811690811561351d573b1561351d5760049283811015613508576002810361332457506040516318160ddd60e01b81526020908180828781875afa91826132fb575b50506132955760405163137f48d760e31b81528490fd5b80602492604051938480926370a0823160e01b825230898301525afa91826132d2575b50506132ce575060405163137f48d760e31b8152fd5b9050565b813d83116132f4575b6132e58183613036565b81010312611fd25738806132b8565b503d6132db565b813d831161331d575b61330e8183613036565b81010312611fd257813861327e565b503d613304565b9192918061343f575060409081516301ffc9a760e01b80825280858301526020918281602481875afa60009181613408575b5061336b57845163137f48d760e31b81528690fd5b156133f8578190602485518095819382526380ac58cd60e01b898301525afa9182916000936133bf575b50506133a957505163137f48d760e31b8152fd5b156133b2575050565b5163137f48d760e31b8152fd5b8181949293943d83116133f1575b6133d78183613036565b810103126101e057506133e990613135565b903880613395565b503d6133cd565b5050505163137f48d760e31b8152fd5b90918482813d8311613438575b61341f8183613036565b810103126101e0575061343190613135565b9038613356565b503d613415565b6001036134f85760409081516301ffc9a760e01b80825280858301526020918281602481875afa600091816134c1575b5061348457845163137f48d760e31b81528690fd5b156133f857819060248551809581938252636cdb3d1360e11b898301525afa9182916000936133bf5750506133a957505163137f48d760e31b8152fd5b90918482813d83116134f1575b6134d88183613036565b810103126101e057506134ea90613135565b903861346f565b503d6134ce565b5060405163137f48d760e31b8152fd5b602184634e487b7160e01b6000525260246000fd5b60405163137f48d760e31b8152600490fdfea264697066735822122070d4a8c440d9d6338a15a7841608e1cc52028e9661635fb240b1de6a81f7213f64736f6c63430008130033",
  "linkReferences": {},
  "deployedLinkReferences": {}
}