{
  "_format": "hh-sol-artifact-1",
  "contractName": "ProtocolManager",
  "sourceName": "contracts/ProtocolManager.sol",
  "abi": [
    {
      "inputs": [
        {
          "internalType": "address",
          "name": "_vrfCoordinator",
          "type": "address"
        },
        {
          "internalType": "bytes32",
          "name": "_keyHash",
          "type": "bytes32"
        },
        {
          "internalType": "address",
          "name": "_linkToken",
          "type": "address"
        },
        {
          "internalType": "uint32",
          "name": "_callbackGasLimit",
          "type": "uint32"
        },
        {
          "internalType": "uint16",
          "name": "_requestConfirmations",
          "type": "uint16"
        }
      ],
      "stateMutability": "nonpayable",
      "type": "constructor"
    },
    {
      "anonymous": false,
      "inputs": [
        {
          "indexed": false,
          "internalType": "string",
          "name": "contractType",
          "type": "string"
        },
        {
          "indexed": false,
          "internalType": "address",
          "name": "newAddress",
          "type": "address"
        }
      ],
      "name": "ContractReplaced",
      "type": "event"
    },
    {
      "anonymous": false,
      "inputs": [
        {
          "indexed": false,
          "internalType": "uint256",
          "name": "newPercentage",
          "type": "uint256"
        }
      ],
      "name": "CreationFeePercentageUpdated",
      "type": "event"
    },
    {
      "anonymous": false,
      "inputs": [
        {
          "indexed": false,
          "internalType": "bool",
          "name": "enabled",
          "type": "bool"
        }
      ],
      "name": "CreatorTokenFeeToggled",
      "type": "event"
    },
    {
      "anonymous": false,
      "inputs": [
        {
          "indexed": false,
          "internalType": "bool",
          "name": "enabled",
          "type": "bool"
        }
      ],
      "name": "CreatorTokenGatedToggled",
      "type": "event"
    },
    {
      "anonymous": false,
      "inputs": [
        {
          "indexed": false,
          "internalType": "uint256",
          "name": "min",
          "type": "uint256"
        },
        {
          "indexed": false,
          "internalType": "uint256",
          "name": "max",
          "type": "uint256"
        }
      ],
      "name": "DurationLimitsUpdated",
      "type": "event"
    },
    {
      "anonymous": false,
      "inputs": [
        {
          "indexed": false,
          "internalType": "uint256",
          "name": "newFee",
          "type": "uint256"
        }
      ],
      "name": "GlobalSlotFeeUpdated",
      "type": "event"
    },
    {
      "anonymous": false,
      "inputs": [
        {
          "indexed": true,
          "internalType": "address",
          "name": "collection",
          "type": "address"
        }
      ],
      "name": "InternalCollectionAdded",
      "type": "event"
    },
    {
      "anonymous": false,
      "inputs": [
        {
          "indexed": false,
          "internalType": "address",
          "name": "newLinkToken",
          "type": "address"
        }
      ],
      "name": "LinkTokenUpdated",
      "type": "event"
    },
    {
      "anonymous": false,
      "inputs": [
        {
          "indexed": false,
          "internalType": "uint256",
          "name": "newLimit",
          "type": "uint256"
        }
      ],
      "name": "MaxSlotsPerAddressUpdated",
      "type": "event"
    },
    {
      "anonymous": false,
      "inputs": [
        {
          "indexed": false,
          "internalType": "uint256",
          "name": "newMin",
          "type": "uint256"
        }
      ],
      "name": "MinSlotLimitNonPrizedUpdated",
      "type": "event"
    },
    {
      "anonymous": false,
      "inputs": [
        {
          "indexed": true,
          "internalType": "address",
          "name": "erc721Implementation",
          "type": "address"
        },
        {
          "indexed": true,
          "internalType": "address",
          "name": "erc1155Implementation",
          "type": "address"
        }
      ],
      "name": "NFTFactoryImplementationsUpdated",
      "type": "event"
    },
    {
      "anonymous": false,
      "inputs": [
        {
          "indexed": false,
          "internalType": "address",
          "name": "operator",
          "type": "address"
        },
        {
          "indexed": false,
          "internalType": "bool",
          "name": "status",
          "type": "bool"
        }
      ],
      "name": "OperatorUpdated",
      "type": "event"
    },
    {
      "anonymous": false,
      "inputs": [
        {
          "indexed": true,
          "internalType": "address",
          "name": "previousOwner",
          "type": "address"
        },
        {
          "indexed": true,
          "internalType": "address",
          "name": "newOwner",
          "type": "address"
        }
      ],
      "name": "OwnershipTransferred",
      "type": "event"
    },
    {
      "anonymous": false,
      "inputs": [
        {
          "indexed": false,
          "internalType": "bool",
          "name": "paused",
          "type": "bool"
        }
      ],
      "name": "PoolCreationPaused",
      "type": "event"
    },
    {
      "anonymous": false,
      "inputs": [
        {
          "indexed": true,
          "internalType": "address",
          "name": "poolImplementation",
          "type": "address"
        }
      ],
      "name": "PoolDeployerImplementationUpdated",
      "type": "event"
    },
    {
      "anonymous": false,
      "inputs": [
        {
          "indexed": true,
          "internalType": "address",
          "name": "pool",
          "type": "address"
        }
      ],
      "name": "PoolRegistered",
      "type": "event"
    },
    {
      "anonymous": false,
      "inputs": [
        {
          "indexed": false,
          "internalType": "uint256",
          "name": "newPercentage",
          "type": "uint256"
        }
      ],
      "name": "ProtocolFeeUpdated",
      "type": "event"
    },
    {
      "anonymous": false,
      "inputs": [
        {
          "indexed": false,
          "internalType": "address",
          "name": "newAddress",
          "type": "address"
        }
      ],
      "name": "RevenueManagerUpdated",
      "type": "event"
    },
    {
      "anonymous": false,
      "inputs": [
        {
          "indexed": false,
          "internalType": "uint256",
          "name": "minSlotLimit",
          "type": "uint256"
        },
        {
          "indexed": false,
          "internalType": "uint256",
          "name": "maxSlotLimit",
          "type": "uint256"
        }
      ],
      "name": "SlotLimitsUpdated",
      "type": "event"
    },
    {
      "anonymous": false,
      "inputs": [
        {
          "indexed": true,
          "internalType": "uint256",
          "name": "subscriptionId",
          "type": "uint256"
        }
      ],
      "name": "SubscriptionCreated",
      "type": "event"
    },
    {
      "anonymous": false,
      "inputs": [
        {
          "indexed": false,
          "internalType": "uint96",
          "name": "amount",
          "type": "uint96"
        }
      ],
      "name": "SubscriptionFunded",
      "type": "event"
    },
    {
      "anonymous": false,
      "inputs": [
        {
          "indexed": true,
          "internalType": "uint256",
          "name": "subscriptionId",
          "type": "uint256"
        },
        {
          "indexed": false,
          "internalType": "uint96",
          "name": "amount",
          "type": "uint96"
        }
      ],
      "name": "SubscriptionFundedWithDetails",
      "type": "event"
    },
    {
      "anonymous": false,
      "inputs": [
        {
          "indexed": true,
          "internalType": "address",
          "name": "pool",
          "type": "address"
        },
        {
          "indexed": true,
          "internalType": "uint256",
          "name": "assignedSubscriptionId",
          "type": "uint256"
        }
      ],
      "name": "SubscriptionPreAssigned",
      "type": "event"
    },
    {
      "anonymous": false,
      "inputs": [
        {
          "indexed": true,
          "internalType": "address",
          "name": "consumer",
          "type": "address"
        },
        {
          "indexed": true,
          "internalType": "uint256",
          "name": "subscriptionId",
          "type": "uint256"
        }
      ],
      "name": "VRFConsumerAddedToSubscription",
      "type": "event"
    },
    {
      "anonymous": false,
      "inputs": [
        {
          "indexed": true,
          "internalType": "address",
          "name": "consumer",
          "type": "address"
        },
        {
          "indexed": true,
          "internalType": "uint256",
          "name": "subscriptionId",
          "type": "uint256"
        }
      ],
      "name": "VRFConsumerRemovedFromSubscription",
      "type": "event"
    },
    {
      "anonymous": false,
      "inputs": [],
      "name": "VRFParamsUpdated",
      "type": "event"
    },
    {
      "anonymous": false,
      "inputs": [
        {
          "indexed": true,
          "internalType": "uint256",
          "name": "subscriptionId",
          "type": "uint256"
        },
        {
          "indexed": false,
          "internalType": "uint256",
          "name": "index",
          "type": "uint256"
        }
      ],
      "name": "VRFSubscriptionAdded",
      "type": "event"
    },
    {
      "anonymous": false,
      "inputs": [],
      "name": "VRFSubscriptionCancelled",
      "type": "event"
    },
    {
      "anonymous": false,
      "inputs": [
        {
          "indexed": true,
          "internalType": "uint256",
          "name": "subscriptionId",
          "type": "uint256"
        }
      ],
      "name": "VRFSubscriptionRemoved",
      "type": "event"
    },
    {
      "inputs": [
        {
          "internalType": "uint256",
          "name": "subscriptionId",
          "type": "uint256"
        }
      ],
      "name": "acceptVRFOwnership",
      "outputs": [],
      "stateMutability": "nonpayable",
      "type": "function"
    },
    {
      "inputs": [],
      "name": "activeSubscriptionCount",
      "outputs": [
        {
          "internalType": "uint256",
          "name": "",
          "type": "uint256"
        }
      ],
      "stateMutability": "view",
      "type": "function"
    },
    {
      "inputs": [
        {
          "internalType": "address",
          "name": "_collection",
          "type": "address"
        }
      ],
      "name": "addInternalCollection",
      "outputs": [],
      "stateMutability": "nonpayable",
      "type": "function"
    },
    {
      "inputs": [
        {
          "internalType": "address",
          "name": "consumer",
          "type": "address"
        },
        {
          "internalType": "uint256",
          "name": "subscriptionId",
          "type": "uint256"
        }
      ],
      "name": "addVRFConsumer",
      "outputs": [],
      "stateMutability": "nonpayable",
      "type": "function"
    },
    {
      "inputs": [
        {
          "internalType": "uint256",
          "name": "subscriptionId",
          "type": "uint256"
        }
      ],
      "name": "addVRFSubscription",
      "outputs": [],
      "stateMutability": "nonpayable",
      "type": "function"
    },
    {
      "inputs": [
        {
          "internalType": "uint256",
          "name": "",
          "type": "uint256"
        }
      ],
      "name": "allPools",
      "outputs": [
        {
          "internalType": "address",
          "name": "",
          "type": "address"
        }
      ],
      "stateMutability": "view",
      "type": "function"
    },
    {
      "inputs": [
        {
          "internalType": "address",
          "name": "pool",
          "type": "address"
        },
        {
          "internalType": "address",
          "name": "creator",
          "type": "address"
        },
        {
          "internalType": "uint256",
          "name": "timestamp",
          "type": "uint256"
        }
      ],
      "name": "batchSetupPool",
      "outputs": [],
      "stateMutability": "nonpayable",
      "type": "function"
    },
    {
      "inputs": [],
      "name": "callbackGasLimit",
      "outputs": [
        {
          "internalType": "uint32",
          "name": "",
          "type": "uint32"
        }
      ],
      "stateMutability": "view",
      "type": "function"
    },
    {
      "inputs": [],
      "name": "cancelVRFSubscription",
      "outputs": [],
      "stateMutability": "nonpayable",
      "type": "function"
    },
    {
      "inputs": [],
      "name": "createVRFSubscription",
      "outputs": [],
      "stateMutability": "nonpayable",
      "type": "function"
    },
    {
      "inputs": [],
      "name": "creationFeePercentage",
      "outputs": [
        {
          "internalType": "uint256",
          "name": "",
          "type": "uint256"
        }
      ],
      "stateMutability": "view",
      "type": "function"
    },
    {
      "inputs": [],
      "name": "creationPaused",
      "outputs": [
        {
          "internalType": "bool",
          "name": "",
          "type": "bool"
        }
      ],
      "stateMutability": "view",
      "type": "function"
    },
    {
      "inputs": [],
      "name": "creatorToken",
      "outputs": [
        {
          "internalType": "address",
          "name": "",
          "type": "address"
        }
      ],
      "stateMutability": "view",
      "type": "function"
    },
    {
      "inputs": [
        {
          "internalType": "uint96",
          "name": "amountPerSubscription",
          "type": "uint96"
        }
      ],
      "name": "fundAllSubscriptionsWithNative",
      "outputs": [],
      "stateMutability": "payable",
      "type": "function"
    },
    {
      "inputs": [
        {
          "internalType": "uint96",
          "name": "amount",
          "type": "uint96"
        }
      ],
      "name": "fundVRFSubscriptionWithLink",
      "outputs": [],
      "stateMutability": "nonpayable",
      "type": "function"
    },
    {
      "inputs": [
        {
          "internalType": "uint256",
          "name": "subscriptionId",
          "type": "uint256"
        },
        {
          "internalType": "uint96",
          "name": "amount",
          "type": "uint96"
        }
      ],
      "name": "fundVRFSubscriptionWithLinkById",
      "outputs": [],
      "stateMutability": "nonpayable",
      "type": "function"
    },
    {
      "inputs": [
        {
          "internalType": "uint96",
          "name": "amount",
          "type": "uint96"
        }
      ],
      "name": "fundVRFSubscriptionWithNative",
      "outputs": [],
      "stateMutability": "payable",
      "type": "function"
    },
    {
      "inputs": [
        {
          "internalType": "uint256",
          "name": "subscriptionId",
          "type": "uint256"
        },
        {
          "internalType": "uint96",
          "name": "amount",
          "type": "uint96"
        }
      ],
      "name": "fundVRFSubscriptionWithNativeById",
      "outputs": [],
      "stateMutability": "payable",
      "type": "function"
    },
    {
      "inputs": [],
      "name": "getAllInternalCollections",
      "outputs": [
        {
          "internalType": "address[]",
          "name": "",
          "type": "address[]"
        }
      ],
      "stateMutability": "view",
      "type": "function"
    },
    {
      "inputs": [
        {
          "internalType": "uint256",
          "name": "cursor",
          "type": "uint256"
        },
        {
          "internalType": "uint256",
          "name": "pageSize",
          "type": "uint256"
        }
      ],
      "name": "getAllPools",
      "outputs": [
        {
          "internalType": "address[]",
          "name": "pools",
          "type": "address[]"
        },
        {
          "internalType": "uint256",
          "name": "newCursor",
          "type": "uint256"
        },
        {
          "internalType": "bool",
          "name": "hasMore",
          "type": "bool"
        }
      ],
      "stateMutability": "view",
      "type": "function"
    },
    {
      "inputs": [],
      "name": "getAllSlotLimits",
      "outputs": [
        {
          "internalType": "uint256",
          "name": "minPrized",
          "type": "uint256"
        },
        {
          "internalType": "uint256",
          "name": "minNonPrized",
          "type": "uint256"
        },
        {
          "internalType": "uint256",
          "name": "max",
          "type": "uint256"
        }
      ],
      "stateMutability": "view",
      "type": "function"
    },
    {
      "inputs": [],
      "name": "getAllSubscriptions",
      "outputs": [
        {
          "internalType": "uint256[]",
          "name": "ids",
          "type": "uint256[]"
        },
        {
          "internalType": "bool[]",
          "name": "active",
          "type": "bool[]"
        },
        {
          "internalType": "uint256[]",
          "name": "consumerCounts",
          "type": "uint256[]"
        }
      ],
      "stateMutability": "view",
      "type": "function"
    },
    {
      "inputs": [],
      "name": "getCreationFeePercentage",
      "outputs": [
        {
          "internalType": "uint256",
          "name": "",
          "type": "uint256"
        }
      ],
      "stateMutability": "view",
      "type": "function"
    },
    {
      "inputs": [],
      "name": "getDurationLimits",
      "outputs": [
        {
          "internalType": "uint256",
          "name": "",
          "type": "uint256"
        },
        {
          "internalType": "uint256",
          "name": "",
          "type": "uint256"
        }
      ],
      "stateMutability": "view",
      "type": "function"
    },
    {
      "inputs": [],
      "name": "getMaxSlotsPerAddress",
      "outputs": [
        {
          "internalType": "uint256",
          "name": "",
          "type": "uint256"
        }
      ],
      "stateMutability": "view",
      "type": "function"
    },
    {
      "inputs": [
        {
          "internalType": "bool",
          "name": "isPrized",
          "type": "bool"
        }
      ],
      "name": "getMinSlotLimit",
      "outputs": [
        {
          "internalType": "uint256",
          "name": "",
          "type": "uint256"
        }
      ],
      "stateMutability": "view",
      "type": "function"
    },
    {
      "inputs": [],
      "name": "getNextVRFSubscription",
      "outputs": [
        {
          "internalType": "uint256",
          "name": "",
          "type": "uint256"
        }
      ],
      "stateMutability": "nonpayable",
      "type": "function"
    },
    {
      "inputs": [],
      "name": "getPoolConfig",
      "outputs": [
        {
          "internalType": "uint256",
          "name": "",
          "type": "uint256"
        },
        {
          "internalType": "uint256",
          "name": "",
          "type": "uint256"
        },
        {
          "internalType": "uint256",
          "name": "",
          "type": "uint256"
        }
      ],
      "stateMutability": "view",
      "type": "function"
    },
    {
      "inputs": [],
      "name": "getPoolCount",
      "outputs": [
        {
          "internalType": "uint256",
          "name": "",
          "type": "uint256"
        }
      ],
      "stateMutability": "view",
      "type": "function"
    },
    {
      "inputs": [
        {
          "internalType": "address",
          "name": "pool",
          "type": "address"
        }
      ],
      "name": "getPoolCreator",
      "outputs": [
        {
          "internalType": "address",
          "name": "",
          "type": "address"
        }
      ],
      "stateMutability": "view",
      "type": "function"
    },
    {
      "inputs": [
        {
          "internalType": "address",
          "name": "pool",
          "type": "address"
        }
      ],
      "name": "getPoolSubscription",
      "outputs": [
        {
          "internalType": "uint256",
          "name": "",
          "type": "uint256"
        }
      ],
      "stateMutability": "view",
      "type": "function"
    },
    {
      "inputs": [
        {
          "internalType": "address",
          "name": "creator",
          "type": "address"
        },
        {
          "internalType": "uint256",
          "name": "cursor",
          "type": "uint256"
        },
        {
          "internalType": "uint256",
          "name": "pageSize",
          "type": "uint256"
        }
      ],
      "name": "getPoolsByCreator",
      "outputs": [
        {
          "internalType": "address[]",
          "name": "pools",
          "type": "address[]"
        },
        {
          "internalType": "uint256",
          "name": "newCursor",
          "type": "uint256"
        },
        {
          "internalType": "bool",
          "name": "hasMore",
          "type": "bool"
        }
      ],
      "stateMutability": "view",
      "type": "function"
    },
    {
      "inputs": [],
      "name": "getRevenueManager",
      "outputs": [
        {
          "internalType": "address",
          "name": "",
          "type": "address"
        }
      ],
      "stateMutability": "view",
      "type": "function"
    },
    {
      "inputs": [],
      "name": "getRevenueParameters",
      "outputs": [
        {
          "internalType": "uint256",
          "name": "_protocolFee",
          "type": "uint256"
        },
        {
          "internalType": "uint256",
          "name": "_creationFeePercentage",
          "type": "uint256"
        }
      ],
      "stateMutability": "view",
      "type": "function"
    },
    {
      "inputs": [],
      "name": "getSlotFee",
      "outputs": [
        {
          "internalType": "uint256",
          "name": "",
          "type": "uint256"
        }
      ],
      "stateMutability": "view",
      "type": "function"
    },
    {
      "inputs": [],
      "name": "getSlotLimits",
      "outputs": [
        {
          "internalType": "uint256",
          "name": "",
          "type": "uint256"
        },
        {
          "internalType": "uint256",
          "name": "",
          "type": "uint256"
        }
      ],
      "stateMutability": "view",
      "type": "function"
    },
    {
      "inputs": [],
      "name": "getSubscriptionId",
      "outputs": [
        {
          "internalType": "uint256",
          "name": "",
          "type": "uint256"
        }
      ],
      "stateMutability": "view",
      "type": "function"
    },
    {
      "inputs": [],
      "name": "getVRFParams",
      "outputs": [
        {
          "internalType": "address",
          "name": "",
          "type": "address"
        },
        {
          "internalType": "uint256",
          "name": "",
          "type": "uint256"
        },
        {
          "internalType": "bytes32",
          "name": "",
          "type": "bytes32"
        },
        {
          "internalType": "uint32",
          "name": "",
          "type": "uint32"
        },
        {
          "internalType": "uint16",
          "name": "",
          "type": "uint16"
        }
      ],
      "stateMutability": "view",
      "type": "function"
    },
    {
      "inputs": [],
      "name": "globalSlotFee",
      "outputs": [
        {
          "internalType": "uint256",
          "name": "",
          "type": "uint256"
        }
      ],
      "stateMutability": "view",
      "type": "function"
    },
    {
      "inputs": [
        {
          "internalType": "uint256",
          "name": "",
          "type": "uint256"
        }
      ],
      "name": "internalCollections",
      "outputs": [
        {
          "internalType": "address",
          "name": "",
          "type": "address"
        }
      ],
      "stateMutability": "view",
      "type": "function"
    },
    {
      "inputs": [
        {
          "internalType": "uint256",
          "name": "",
          "type": "uint256"
        }
      ],
      "name": "isActiveSubscription",
      "outputs": [
        {
          "internalType": "bool",
          "name": "",
          "type": "bool"
        }
      ],
      "stateMutability": "view",
      "type": "function"
    },
    {
      "inputs": [],
      "name": "isCreationPaused",
      "outputs": [
        {
          "internalType": "bool",
          "name": "",
          "type": "bool"
        }
      ],
      "stateMutability": "view",
      "type": "function"
    },
    {
      "inputs": [],
      "name": "isCreatorTokenFeeEnabled",
      "outputs": [
        {
          "internalType": "bool",
          "name": "",
          "type": "bool"
        }
      ],
      "stateMutability": "view",
      "type": "function"
    },
    {
      "inputs": [],
      "name": "isCreatorTokenGated",
      "outputs": [
        {
          "internalType": "bool",
          "name": "",
          "type": "bool"
        }
      ],
      "stateMutability": "view",
      "type": "function"
    },
    {
      "inputs": [
        {
          "internalType": "address",
          "name": "",
          "type": "address"
        }
      ],
      "name": "isInternalCollection",
      "outputs": [
        {
          "internalType": "bool",
          "name": "",
          "type": "bool"
        }
      ],
      "stateMutability": "view",
      "type": "function"
    },
    {
      "inputs": [
        {
          "internalType": "address",
          "name": "operator",
          "type": "address"
        }
      ],
      "name": "isOperator",
      "outputs": [
        {
          "internalType": "bool",
          "name": "",
          "type": "bool"
        }
      ],
      "stateMutability": "view",
      "type": "function"
    },
    {
      "inputs": [
        {
          "internalType": "address",
          "name": "_address",
          "type": "address"
        }
      ],
      "name": "isPoolContract",
      "outputs": [
        {
          "internalType": "bool",
          "name": "",
          "type": "bool"
        }
      ],
      "stateMutability": "view",
      "type": "function"
    },
    {
      "inputs": [],
      "name": "keyHash",
      "outputs": [
        {
          "internalType": "bytes32",
          "name": "",
          "type": "bytes32"
        }
      ],
      "stateMutability": "view",
      "type": "function"
    },
    {
      "inputs": [],
      "name": "linkToken",
      "outputs": [
        {
          "internalType": "contract ILinkTransferAndCall",
          "name": "",
          "type": "address"
        }
      ],
      "stateMutability": "view",
      "type": "function"
    },
    {
      "inputs": [],
      "name": "maxPoolDuration",
      "outputs": [
        {
          "internalType": "uint256",
          "name": "",
          "type": "uint256"
        }
      ],
      "stateMutability": "view",
      "type": "function"
    },
    {
      "inputs": [],
      "name": "maxSlotLimit",
      "outputs": [
        {
          "internalType": "uint256",
          "name": "",
          "type": "uint256"
        }
      ],
      "stateMutability": "view",
      "type": "function"
    },
    {
      "inputs": [],
      "name": "maxSlotsPerAddress",
      "outputs": [
        {
          "internalType": "uint256",
          "name": "",
          "type": "uint256"
        }
      ],
      "stateMutability": "view",
      "type": "function"
    },
    {
      "inputs": [],
      "name": "minCreatorTokenBalance",
      "outputs": [
        {
          "internalType": "uint256",
          "name": "",
          "type": "uint256"
        }
      ],
      "stateMutability": "view",
      "type": "function"
    },
    {
      "inputs": [],
      "name": "minPoolDuration",
      "outputs": [
        {
          "internalType": "uint256",
          "name": "",
          "type": "uint256"
        }
      ],
      "stateMutability": "view",
      "type": "function"
    },
    {
      "inputs": [],
      "name": "minSlotLimit",
      "outputs": [
        {
          "internalType": "uint256",
          "name": "",
          "type": "uint256"
        }
      ],
      "stateMutability": "view",
      "type": "function"
    },
    {
      "inputs": [],
      "name": "minSlotLimitNonPrized",
      "outputs": [
        {
          "internalType": "uint256",
          "name": "",
          "type": "uint256"
        }
      ],
      "stateMutability": "view",
      "type": "function"
    },
    {
      "inputs": [],
      "name": "nftFactory",
      "outputs": [
        {
          "internalType": "address",
          "name": "",
          "type": "address"
        }
      ],
      "stateMutability": "view",
      "type": "function"
    },
    {
      "inputs": [
        {
          "internalType": "address",
          "name": "",
          "type": "address"
        }
      ],
      "name": "operators",
      "outputs": [
        {
          "internalType": "bool",
          "name": "",
          "type": "bool"
        }
      ],
      "stateMutability": "view",
      "type": "function"
    },
    {
      "inputs": [],
      "name": "owner",
      "outputs": [
        {
          "internalType": "address",
          "name": "",
          "type": "address"
        }
      ],
      "stateMutability": "view",
      "type": "function"
    },
    {
      "inputs": [
        {
          "internalType": "bool",
          "name": "pause",
          "type": "bool"
        }
      ],
      "name": "pausePoolCreation",
      "outputs": [],
      "stateMutability": "nonpayable",
      "type": "function"
    },
    {
      "inputs": [
        {
          "internalType": "address",
          "name": "",
          "type": "address"
        }
      ],
      "name": "poolCreationTimestamps",
      "outputs": [
        {
          "internalType": "uint256",
          "name": "",
          "type": "uint256"
        }
      ],
      "stateMutability": "view",
      "type": "function"
    },
    {
      "inputs": [
        {
          "internalType": "address",
          "name": "",
          "type": "address"
        }
      ],
      "name": "poolCreators",
      "outputs": [
        {
          "internalType": "address",
          "name": "",
          "type": "address"
        }
      ],
      "stateMutability": "view",
      "type": "function"
    },
    {
      "inputs": [],
      "name": "poolDeployer",
      "outputs": [
        {
          "internalType": "address",
          "name": "",
          "type": "address"
        }
      ],
      "stateMutability": "view",
      "type": "function"
    },
    {
      "inputs": [
        {
          "internalType": "address",
          "name": "",
          "type": "address"
        }
      ],
      "name": "poolToSubscriptionId",
      "outputs": [
        {
          "internalType": "uint256",
          "name": "",
          "type": "uint256"
        }
      ],
      "stateMutability": "view",
      "type": "function"
    },
    {
      "inputs": [],
      "name": "protocolFeePercentage",
      "outputs": [
        {
          "internalType": "uint256",
          "name": "",
          "type": "uint256"
        }
      ],
      "stateMutability": "view",
      "type": "function"
    },
    {
      "inputs": [
        {
          "internalType": "address",
          "name": "consumer",
          "type": "address"
        },
        {
          "internalType": "uint256",
          "name": "subscriptionId",
          "type": "uint256"
        }
      ],
      "name": "removeVRFConsumer",
      "outputs": [],
      "stateMutability": "nonpayable",
      "type": "function"
    },
    {
      "inputs": [
        {
          "internalType": "uint256",
          "name": "subscriptionId",
          "type": "uint256"
        }
      ],
      "name": "removeVRFSubscription",
      "outputs": [],
      "stateMutability": "nonpayable",
      "type": "function"
    },
    {
      "inputs": [],
      "name": "renounceOwnership",
      "outputs": [],
      "stateMutability": "nonpayable",
      "type": "function"
    },
    {
      "inputs": [
        {
          "internalType": "string",
          "name": "contractType",
          "type": "string"
        },
        {
          "internalType": "address",
          "name": "newAddress",
          "type": "address"
        }
      ],
      "name": "replaceContract",
      "outputs": [],
      "stateMutability": "nonpayable",
      "type": "function"
    },
    {
      "inputs": [],
      "name": "requestConfirmations",
      "outputs": [
        {
          "internalType": "uint16",
          "name": "",
          "type": "uint16"
        }
      ],
      "stateMutability": "view",
      "type": "function"
    },
    {
      "inputs": [],
      "name": "revenueManager",
      "outputs": [
        {
          "internalType": "address",
          "name": "",
          "type": "address"
        }
      ],
      "stateMutability": "view",
      "type": "function"
    },
    {
      "inputs": [],
      "name": "rewardsFlywheel",
      "outputs": [
        {
          "internalType": "address",
          "name": "",
          "type": "address"
        }
      ],
      "stateMutability": "view",
      "type": "function"
    },
    {
      "inputs": [
        {
          "internalType": "uint256",
          "name": "_percentage",
          "type": "uint256"
        }
      ],
      "name": "setCreationFeePercentage",
      "outputs": [],
      "stateMutability": "nonpayable",
      "type": "function"
    },
    {
      "inputs": [
        {
          "internalType": "address",
          "name": "_token",
          "type": "address"
        },
        {
          "internalType": "uint256",
          "name": "_minBalance",
          "type": "uint256"
        }
      ],
      "name": "setCreatorToken",
      "outputs": [],
      "stateMutability": "nonpayable",
      "type": "function"
    },
    {
      "inputs": [
        {
          "internalType": "uint256",
          "name": "_min",
          "type": "uint256"
        },
        {
          "internalType": "uint256",
          "name": "_max",
          "type": "uint256"
        }
      ],
      "name": "setDurationLimits",
      "outputs": [],
      "stateMutability": "nonpayable",
      "type": "function"
    },
    {
      "inputs": [
        {
          "internalType": "uint256",
          "name": "_fee",
          "type": "uint256"
        }
      ],
      "name": "setGlobalSlotFee",
      "outputs": [],
      "stateMutability": "nonpayable",
      "type": "function"
    },
    {
      "inputs": [
        {
          "internalType": "address",
          "name": "_linkToken",
          "type": "address"
        }
      ],
      "name": "setLinkToken",
      "outputs": [],
      "stateMutability": "nonpayable",
      "type": "function"
    },
    {
      "inputs": [
        {
          "internalType": "uint256",
          "name": "_maxSlots",
          "type": "uint256"
        }
      ],
      "name": "setMaxSlotsPerAddress",
      "outputs": [],
      "stateMutability": "nonpayable",
      "type": "function"
    },
    {
      "inputs": [
        {
          "internalType": "uint256",
          "name": "_min",
          "type": "uint256"
        }
      ],
      "name": "setMinSlotLimitNonPrized",
      "outputs": [],
      "stateMutability": "nonpayable",
      "type": "function"
    },
    {
      "inputs": [
        {
          "internalType": "address",
          "name": "_nftFactory",
          "type": "address"
        }
      ],
      "name": "setNFTFactory",
      "outputs": [],
      "stateMutability": "nonpayable",
      "type": "function"
    },
    {
      "inputs": [
        {
          "internalType": "address",
          "name": "operator",
          "type": "address"
        },
        {
          "internalType": "bool",
          "name": "status",
          "type": "bool"
        }
      ],
      "name": "setOperator",
      "outputs": [],
      "stateMutability": "nonpayable",
      "type": "function"
    },
    {
      "inputs": [
        {
          "internalType": "address",
          "name": "_poolDeployer",
          "type": "address"
        }
      ],
      "name": "setPoolDeployer",
      "outputs": [],
      "stateMutability": "nonpayable",
      "type": "function"
    },
    {
      "inputs": [
        {
          "internalType": "uint256",
          "name": "_percentage",
          "type": "uint256"
        }
      ],
      "name": "setProtocolFee",
      "outputs": [],
      "stateMutability": "nonpayable",
      "type": "function"
    },
    {
      "inputs": [
        {
          "internalType": "address",
          "name": "_revenueManager",
          "type": "address"
        }
      ],
      "name": "setRevenueManager",
      "outputs": [],
      "stateMutability": "nonpayable",
      "type": "function"
    },
    {
      "inputs": [
        {
          "internalType": "address",
          "name": "_rewardsFlywheel",
          "type": "address"
        }
      ],
      "name": "setRewardsFlywheel",
      "outputs": [],
      "stateMutability": "nonpayable",
      "type": "function"
    },
    {
      "inputs": [
        {
          "internalType": "uint256",
          "name": "_min",
          "type": "uint256"
        },
        {
          "internalType": "uint256",
          "name": "_max",
          "type": "uint256"
        }
      ],
      "name": "setSlotLimits",
      "outputs": [],
      "stateMutability": "nonpayable",
      "type": "function"
    },
    {
      "inputs": [
        {
          "internalType": "uint256",
          "name": "_fee",
          "type": "uint256"
        }
      ],
      "name": "setSocialEngagementFee",
      "outputs": [],
      "stateMutability": "nonpayable",
      "type": "function"
    },
    {
      "inputs": [
        {
          "internalType": "address",
          "name": "_manager",
          "type": "address"
        }
      ],
      "name": "setSocialEngagementManager",
      "outputs": [],
      "stateMutability": "nonpayable",
      "type": "function"
    },
    {
      "inputs": [
        {
          "internalType": "address",
          "name": "_coordinator",
          "type": "address"
        },
        {
          "internalType": "bytes32",
          "name": "_keyHash",
          "type": "bytes32"
        },
        {
          "internalType": "uint32",
          "name": "_gasLimit",
          "type": "uint32"
        }
      ],
      "name": "setVRFParams",
      "outputs": [],
      "stateMutability": "nonpayable",
      "type": "function"
    },
    {
      "inputs": [],
      "name": "socialEngagementFee",
      "outputs": [
        {
          "internalType": "uint256",
          "name": "",
          "type": "uint256"
        }
      ],
      "stateMutability": "view",
      "type": "function"
    },
    {
      "inputs": [],
      "name": "socialEngagementManager",
      "outputs": [
        {
          "internalType": "address",
          "name": "",
          "type": "address"
        }
      ],
      "stateMutability": "view",
      "type": "function"
    },
    {
      "inputs": [
        {
          "internalType": "uint256",
          "name": "",
          "type": "uint256"
        }
      ],
      "name": "subscriptionConsumerCount",
      "outputs": [
        {
          "internalType": "uint256",
          "name": "",
          "type": "uint256"
        }
      ],
      "stateMutability": "view",
      "type": "function"
    },
    {
      "inputs": [
        {
          "internalType": "bool",
          "name": "_enabled",
          "type": "bool"
        }
      ],
      "name": "toggleCreatorTokenFee",
      "outputs": [],
      "stateMutability": "nonpayable",
      "type": "function"
    },
    {
      "inputs": [
        {
          "internalType": "bool",
          "name": "_enabled",
          "type": "bool"
        }
      ],
      "name": "toggleCreatorTokenGated",
      "outputs": [],
      "stateMutability": "nonpayable",
      "type": "function"
    },
    {
      "inputs": [
        {
          "internalType": "address",
          "name": "newOwner",
          "type": "address"
        }
      ],
      "name": "transferOwnership",
      "outputs": [],
      "stateMutability": "nonpayable",
      "type": "function"
    },
    {
      "inputs": [
        {
          "internalType": "address",
          "name": "_erc721Implementation",
          "type": "address"
        },
        {
          "internalType": "address",
          "name": "_erc1155Implementation",
          "type": "address"
        }
      ],
      "name": "updateNFTFactoryImplementations",
      "outputs": [],
      "stateMutability": "nonpayable",
      "type": "function"
    },
    {
      "inputs": [
        {
          "internalType": "address",
          "name": "_poolImplementation",
          "type": "address"
        }
      ],
      "name": "updatePoolDeployerImplementation",
      "outputs": [],
      "stateMutability": "nonpayable",
      "type": "function"
    },
    {
      "inputs": [
        {
          "internalType": "address",
          "name": "consumer",
          "type": "address"
        },
        {
          "internalType": "uint256",
          "name": "subscriptionId",
          "type": "uint256"
        }
      ],
      "name": "updatePoolToSubscription",
      "outputs": [],
      "stateMutability": "nonpayable",
      "type": "function"
    },
    {
      "inputs": [],
      "name": "vrfCoordinator",
      "outputs": [
        {
          "internalType": "contract VRFCoordinatorV2PlusInterface",
          "name": "",
          "type": "address"
        }
      ],
      "stateMutability": "view",
      "type": "function"
    },
    {
      "inputs": [],
      "name": "vrfSubscriptionId",
      "outputs": [
        {
          "internalType": "uint256",
          "name": "",
          "type": "uint256"
        }
      ],
      "stateMutability": "view",
      "type": "function"
    },
    {
      "inputs": [
        {
          "internalType": "uint256",
          "name": "",
          "type": "uint256"
        }
      ],
      "name": "vrfSubscriptionIds",
      "outputs": [
        {
          "internalType": "uint256",
          "name": "",
          "type": "uint256"
        }
      ],
      "stateMutability": "view",
      "type": "function"
    }
  ],
  "bytecode": "0x60808060405234620001c45760a08162003ecf8038038091620000238285620001c9565b833981010312620001c457620000398162000203565b60209081830151926200004f6040820162000203565b9060608101519063ffffffff8216809203620001c457608001519261ffff84168403620001c4578492600491600097889182549565ffff0000000060018060a01b031999338b8a161786556040519a8b998a9860018060a01b0391823391167f8be0079c531659141344cd1fd0a4f28419497f9722a3daafe3b4186f6b6457e08b80a3818b54976103e880601255601355612710601455610e1060155562278d0060165564e8d4a51000601755600a60195516978884600154161760015560035516906009541617600955891b169165ffffffffffff19161717845563288688f960e21b83525af1918215620001b957839262000181575b5050806002557f6a2b70dde6ae0193f84b6a9eeb3b0ebdc3a35e99d9167b88c570158dd09cb0f76040519280a2613cb69081620002198239f35b90809250813d8311620001b1575b6200019b8183620001c9565b81010312620001ad5751388062000147565b5080fd5b503d6200018f565b6040513d85823e3d90fd5b600080fd5b601f909101601f19168101906001600160401b03821190821017620001ed57604052565b634e487b7160e01b600052604160045260246000fd5b51906001600160a01b0382168203620001c45756fe6040608081526004908136101561001557600080fd5b600091823560e01c8063026cf601146133495780630402a28a1461332a57806304199eeb146132cf578063065426c2146131335780630cfd049e146130465780630dd87a501461301f5780630e3f753a14612f355780630f6e867314612f115780630fee72c114612d8e57806313e7c9d814611e435780631a74b3f314612d505780631aa3e95d14612cd65780631f7dde6e14612cb25780632128b92814610e1357806324f7469714612c8e57806325974de614612c3457806325bc429414612b8a5780632ba207fe14612aa55780632e4a33cb14612a365780633119049a14612a0d5780633329b331146128c55780633d40f28f146126f0578381633dc7aad41461264557508063414e56ca1461171057806341d1de971461260557806342217404146125785780634434386014612436578063483a5f14146124095780634a2e22d31461230f5780634c0e35b1146122f05780634ef7d225146122bd578063524d530b1461061b5780635557005d14612039578063558a729714612237578063565e3eff1461221857806356eb00a11461210057806357970e93146120d757806359c810c1146120b85780635e7b8eea1461209357806361728f391461207457806363e3625814612039578063685f9b3f14611f9357806369298b6c14611ea95780636b90bda914611e815780636c19f9f8146116185780636d70f7ae14611e435780636ec7f37d14611dae5780636f116a6a14611d825780636f6f8c5d146118d8578063715018a614611d28578063773b8e9014611cdb578063787dce3d14611c80578381638d0cbf6a14611c0d575080638da5cb5b14611be55780638e50e50914611bc65780638eec5d7014611ba7578063931c5bf8146119f65780639c24ea40146119875780639c2dcafb146119685780639d0f5ef1146119435780639df98977146118f7578063a2b32732146118d8578063a3e56fa8146118af578063a7753f0914611884578063aafc51c31461184c578063ada5c1321461182d578063b0d96580146117f6578063b0fb162f146117d2578063b16abdd4146117b3578063b546ba4a1461177a578063b5e1a3c014610e4b578063bacb927e14611756578063bbbfd28814611734578063bd12dd6414611710578063be83191914611637578063c58fe16214611618578063c91f0cfc146115db578063cb2d93ce14611563578063d1a922881461153e578063d333aed314611344578063d49f66f41461131b578063d5a6d60c146110c5578063d63843cd1461109c578063d7c7752414610e6a578063d91043f214610e4b578063dd6eba7e14610e13578063de3d9fb714610b23578063e449c18414610d8a578063e48f37da14610c05578063e720c00514610be6578063ec644ddd14610b7a578063ec66705f14610b42578063ed647d2114610b23578063f112bd9914610ac2578063f25949f91461096a578063f2fde38b146108a3578063f45d809a146107a357838163f726272c146106d557508063fd62120e14610648578063ff3cd61e1461061b5763ffe89fc61461047e57600080fd5b34610617576060366003190112610617576104976133af565b916104a06133c5565b601e546001600160a01b0390811633036105e057806104bd613af7565b9516938487526010602052858488205585156105915760115490600160401b82101561057c57508060016104f49201601155613437565b81549060031b908387831b921b1916179055838652600760205282862091166001600160601b0360a01b825416179055600860205260443590842055807f9cc152f4650ca2829a210a21551537f4cc4d48c2611ec06974f835e911921b908480a27faefe964a6ba1785c0718ded8476dce9589b858a69235c089b121271e1dae2d938380a380f35b604190634e487b7160e01b6000525260246000fd5b608490602085519162461bcd60e51b83528201526024808201527f506f6f6c206d757374206861766520737562736372697074696f6e206173736960448201526319db995960e21b6064820152fd5b825162461bcd60e51b8152602081860152601160248201527027b7363c902837b7b62232b83637bcb2b960791b6044820152606490fd5b8280fd5b50503461064457816003193601126106445760185490516001600160a01b039091168152602090f35b5080fd5b838234610644576060366003190112610644576106636133af565b6044359063ffffffff82168092036106d15761067d61352f565b60018060a01b03166001600160601b0360a01b600154161760015560243560035563ffffffff198254161790557f4c6a50dab5e2b4bdf345de73b06a62ca5c45dde34eecef3c38eb568564f6547c8180a180f35b8380fd5b9290503461079f578260031936011261079f576106f061352f565b60015460025484549093916001600160a01b039182169116803b1561079b578351622b825560e61b81529283019485526001600160a01b03909116602085015290928491849182908490829060400103925af1908115610792575061077b575b506002557fad9127d67531701fd4222369e46413ad989a276f8ae432b7a2bb01a147a1be9e8180a180f35b61078490613605565b61078f578038610750565b80fd5b513d84823e3d90fd5b8580fd5b5050fd5b50346106175781600319360112610617576107bc6133af565b90602435926107c961352f565b6001600160a01b0383161561086057831561080b57505060238054610100600160a81b03191660089290921b610100600160a81b031691909117905560245580f35b906020608492519162461bcd60e51b8352820152602960248201527f4d696e696d756d2062616c616e6365206d7573742062652067726561746572206044820152687468616e207a65726f60b81b6064820152fd5b906020606492519162461bcd60e51b8352820152601c60248201527f546f6b656e20616464726573732063616e6e6f74206265207a65726f000000006044820152fd5b5034610617576020366003190112610617576108bd6133af565b906108c661352f565b6001600160a01b03918216928315610918575050600054826001600160601b0360a01b821617600055167f8be0079c531659141344cd1fd0a4f28419497f9722a3daafe3b4186f6b6457e0600080a380f35b906020608492519162461bcd60e51b8352820152602660248201527f4f776e61626c653a206e6577206f776e657220697320746865207a65726f206160448201526564647265737360d01b6064820152fd5b5034610617578160031936011261061757803567ffffffffffffffff91828211610abe5736602383011215610abe578101359182116106d157602481019060248336920101116106d157600080516020613c618339815191529282606092816109d16133c5565b916109da61352f565b7f4b35529e56b244d05ef40bce36fd9c95cd911003461d7436e70939aa537dd07d610a0636848461385a565b6020815191012014600014610a6657601e80546001600160a01b0319166001600160a01b0385161790555b84519685889687528601528585013782820184018790526001600160a01b03166020830152601f01601f19168101030190a180f35b7fd826c10e37a7770f02c01ddf03373f8c12e6ec73eac52b5d0ff825017dc682ef610a9236848461385a565b6020815191012003610a3157601f80546001600160a01b0319166001600160a01b038516179055610a31565b8480fd5b5050346106445760203660031901126106445760207f3387d2b55c2294aa390fd99c3e1429775aa0e41d3da9f40db18bb3668d2e7c3391610b016133db565b610b0961352f565b15159060ff19601a541660ff831617601a5551908152a180f35b5050346106445781600319360112610644576020906002549051908152f35b5050346106445760203660031901126106445760209181906001600160a01b03610b6a6133af565b1681526008845220549051908152f35b50346106175782600319360112610617573383526010602052918190205460a09261ffff918015610bdc57905b600180861b0360015416936003549154928151958652602086015284015263ffffffff8116606084015260201c166080820152f35b5060025490610ba7565b5050346106445781600319360112610644576020906015549051908152f35b506020928360031936011261078f57610c1c613484565b92610c2561352f565b6001600160601b03841691600b54808402908482041484151715610d77573403610d3457805b600a54811015610d3057610c5e816133ea565b90549060031b1c808352600e885260ff8484205416610c87575b50610c82906136b7565b610c4b565b6001546001600160a01b0316803b156106d1578451634cf94d8760e01b81528088018381526001600160601b038a1660208201529091859183919082908a90829060400103925af18015610d2657908491610d12575b505090610c82917f24761a552e7853f2c57abfbcc0b0e9698da9811db99b96034c7b7fefb067860a898651888152a290610c78565b610d1b90613605565b610617578238610cdd565b85513d86823e3d90fd5b5080f35b815162461bcd60e51b8152808501879052601a60248201527f496e636f727265637420746f74616c2045544820616d6f756e740000000000006044820152606490fd5b634e487b7160e01b825260118552602482fd5b505034610644576020366003190112610644576080600080516020613c6183398151915291610db76133af565b610dbf61352f565b6001600160a01b0316610dd3811515613587565b806001600160601b0360a01b6021541617602155600f8251928084528301526e14995dd85c991cd19b1e5dda19595b608a1b60608301526020820152a180f35b5050346106445760203660031901126106445760209181906001600160a01b03610e3b6133af565b1681526010845220549051908152f35b505034610644578160031936011261064457602090601c549051908152f35b50829034610644576020908160031936011261061757610e88613484565b90610e9161352f565b60095485516323b872dd60e01b8152338382019081523060208201526001600160601b03851660408201526001600160a01b03928691839185169082908a90829060600103925af1908115611092578691611075575b501561100c578381610f3192600954169060015416908588600254938b519486860152858552610f168561362f565b8b51630200057560e51b8152968795869485938b8501613a90565b03925af1908115611002578591610fd5575b5015610f7e57506001600160601b037f0148caca16863fb5a77543489023e89a5d3360fe9229a1e6f9d553b800aa916993945191168152a180f35b845162461bcd60e51b8152908101839052602b60248201527f4c494e4b207472616e73666572416e6443616c6c20746f20636f6f7264696e6160448201526a3a37b9103330b4b632b21760a91b6064820152608490fd5b610ff59150843d8611610ffb575b610fed818361364b565b810190613a78565b86610f43565b503d610fe3565b86513d87823e3d90fd5b855162461bcd60e51b8152808301859052603e60248201527f4c494e4b207472616e7366657246726f6d206661696c65642e2044696420796f60448201527f7520617070726f7665207468652050726f746f636f6c4d616e616765723f00006064820152608490fd5b61108c9150853d8711610ffb57610fed818361364b565b87610ee7565b87513d88823e3d90fd5b505034610644578160031936011261064457601f5490516001600160a01b039091168152602090f35b503461061757602091826003193601126106d1578135926110e461352f565b838552600e81526110fa60ff8387205416613978565b838552600f8152818520546112da576001600b54111561128657838552600d815281852054600a5460001991908281019081116112735761113a816133ea565b90549060031b1c90820361123c575b5050600a548015611229579080600e93920190611165826133ea565b909182549160031b1b19169055600a55848652600d815260008387205552832060ff198154169055611198600b54613a28565b600b5581600254146111cd575b507fc0d777cb9485c91def1a14a6e7787be4cc14b102d3475a0435ef9639c9c560998280a280f35b600a5415806112215761120c5750600a6000527fc65a7bb8d6351c1cf70c95a316cc6a92839c986682d98bc35f958f4883f9d2a8545b600255386111a5565b603290634e487b7160e01b6000525260246000fd5b505081611203565b634e487b7160e01b875260318552602487fd5b61126281611249846133ea565b90919082549060031b91821b91600019901b1916179055565b8752600d8352838720553880611149565b634e487b7160e01b885260118652602488fd5b905162461bcd60e51b815291820152602a60248201527f43616e6e6f742072656d6f766520746865206f6e6c79206163746976652073756044820152693139b1b934b83a34b7b760b11b6064820152608490fd5b905162461bcd60e51b815291820181905260248201527f537562736372697074696f6e207374696c6c2068617320636f6e73756d6572736044820152606490fd5b50503461064457816003193601126106445760215490516001600160a01b039091168152602090f35b503461061757816003193601126106175780359161136061346e565b9061136961352f565b838552602092600e845261138260ff8388205416613978565b60095482516323b872dd60e01b8152338382019081523060208201526001600160601b03861660408201526001600160a01b03928791839185169082908c90829060600103925af1908115611534578891611517575b50156114d557848161141f9260095416906001541690868a8751938b868601528585526114048561362f565b8851630200057560e51b8152968795869485938b8501613a90565b03925af19081156114cb5787916114ae575b501561146d5750906001600160601b037f24761a552e7853f2c57abfbcc0b0e9698da9811db99b96034c7b7fefb067860a93925191168152a280f35b83606492519162461bcd60e51b8352820152601b60248201527f4c494e4b207472616e73666572416e6443616c6c206661696c656400000000006044820152fd5b6114c59150853d8711610ffb57610fed818361364b565b38611431565b83513d89823e3d90fd5b5083606492519162461bcd60e51b8352820152601860248201527f4c494e4b207472616e7366657246726f6d206661696c656400000000000000006044820152fd5b61152e9150863d8811610ffb57610fed818361364b565b386113d8565b84513d8a823e3d90fd5b82843461078f578060031936011261078f5750601b54601c5482519182526020820152f35b505034610644576020366003190112610644576080600080516020613c61833981519152916115906133af565b61159861352f565b60018060a01b0316806001600160601b0360a01b601f541617601f55600a825192808452830152694e4654466163746f727960b01b60608301526020820152a180f35b505034610644576020366003190112610644576020916001600160a01b03908290826116056133af565b1681526007855220541615159051908152f35b5050346106445781600319360112610644576020906019549051908152f35b50906020366003190112610617578261164e613484565b61165661352f565b6001600160601b0381169361166c853414613a35565b60015460025492906001600160a01b0316803b15610abe578551634cf94d8760e01b81529283019384526001600160601b03909116602084015290918391839182908890829060400103925af18015611706576116f2575b507f0148caca16863fb5a77543489023e89a5d3360fe9229a1e6f9d553b800aa91696020848451908152a180f35b6116fb90613605565b6106175782386116c4565b83513d84823e3d90fd5b50503461064457816003193601126106445760209060ff601a541690519015158152f35b8382346106445760203660031901126106445761174f61352f565b35601d5580f35b50503461064457816003193601126106445760209060ff6025541690519015158152f35b505034610644576020366003190112610644576020916117986133db565b1590506117aa57601254905b51908152f35b601354906117a4565b505034610644578160031936011261064457602090600b549051908152f35b50913461078f578060031936011261078f575061ffff60209254915191831c168152f35b82843461078f578060031936011261078f5750601254601454601954925191825260208201526040810191909152606090f35b0390f35b505034610644578160031936011261064457602090601d549051908152f35b5034610617576020366003190112610617573591600a5483101561078f57506118766020926133ea565b91905490519160031b1c8152f35b50503461064457611829906118a161189b36613399565b906136fd565b90939192519384938461350b565b50503461064457816003193601126106445760015490516001600160a01b039091168152602090f35b5050346106445781600319360112610644576020906017549051908152f35b833461078f57602036600319011261078f576119116133af565b61191961352f565b6001600160a01b031661192d811515613587565b6001600160601b0360a01b602054161760205580f35b82843461078f578060031936011261078f575060125460145482519182526020820152f35b5050346106445781600319360112610644576020906016549051908152f35b5050346106445760203660031901126106445760207fe2d763f65bbed04f8954b0f0a3af42f687469bdd154132ba533accf0f0291a2b916119c66133af565b6119ce61352f565b600980546001600160a01b0319166001600160a01b039290921691821790559051908152a180f35b82843461078f57606036600319011261078f57611a116133af565b6024359060443580151580611b9c575b611a2d909491946135c5565b8080928160115460018060a01b03809316935b81811080611b93575b15611ab95783611a5882613437565b90549060031b1c168352600760205284848b8520541614611a82575b611a7d906136b7565b611a40565b9587811015611aa0575b611a98611a7d916136b7565b969050611a74565b94611a98611ab0611a7d926136b7565b96915050611a8c565b50945087959392611ac984613685565b90828095815b89811080611b8a575b15611b6c5786611ae782613437565b919054600392831b1c168452600760205284888d8620541614611b14575b50611b0f906136b7565b611acf565b87908a8a939a1015611b36575b5050611b2f611b0f916136b7565b9790611b05565b611b0f9297611b2f92611b6292611b4c8d613437565b9054911b1c16611b5c828a6136e9565b526136b7565b9691889150611b21565b8a8861182987611b7c868e6136dc565b93519384938110918461350b565b50818610611ad8565b50888610611a49565b506064811115611a21565b5050346106445781600319360112610644576020906011549051908152f35b505034610644578160031936011261064457602090601b549051908152f35b505034610644578160031936011261064457905490516001600160a01b039091168152602090f35b9290503461079f57602036600319011261079f57611c2961352f565b6001546001600160a01b031691823b15611c7b578392602484928451958693849263b2a7cac560e01b84528035908401525af19081156107925750611c6b5750f35b611c7490613605565b61078f5780f35b505050fd5b5034610617576020366003190112610617577fd10d75876659a287a59a6ccfa2e3fff42f84d94b542837acd30bc184d562de40916020913590611cc161352f565b611ccf612710831115613819565b81601b5551908152a180f35b5034610617576020366003190112610617577f81b14762c94592dd09a55cccc0bd4ee552bbc23f54115e475f4af6ad92ec6b1b916020913590611d1c61352f565b8160175551908152a180f35b833461078f578060031936011261078f57611d4161352f565b600080546001600160a01b0319811682556001600160a01b03167f8be0079c531659141344cd1fd0a4f28419497f9722a3daafe3b4186f6b6457e08280a380f35b5034610617576020366003190112610617578160209360ff92358152600e855220541690519015158152f35b50503461064457816003193601126106445780519081809360065490818552602080950191600682527ff652222313e28459528d920b65115c16c04f3efc82aaedc97be59f3f377c0d3f915b86828210611e2357859061182988611e148489038561364b565b519282849384528301906134ce565b83546001600160a01b031685528895509093019260019283019201611dfa565b5050346106445760203660031901126106445760209160ff9082906001600160a01b03611e6e6133af565b1681526022855220541690519015158152f35b5050346106445781600319360112610644576020805491516001600160a01b03909216825290f35b503461061757602036600319011261061757611ec36133db565b9081611ecd61352f565b611f12575b507fd51f4da6908aaf82430091852ae91fca16288cc00688962b02a4c925e7e5e5e29160209115159060ff196023541660ff83161760235551908152a180f35b60ff6025541615611ed25760a490602084519162461bcd60e51b8352820152604460248201527f43616e6e6f7420656e61626c652063726561746f7220746f6b656e206761746960448201527f6e67207768696c652063726561746f7220746f6b656e206665652069732061636064820152637469766560e01b6084820152fd5b50903461061757602036600319011261061757813591611fb161352f565b611fbc8315156137d4565b6014548311611ff75750816020917f291daec6a47f71c520266280decf6541de28bfc533f4fcb9008ef998e80d6b439360135551908152a180f35b6020606492519162461bcd60e51b8352820152601760248201527f43616e6e6f7420657863656564206d6178206c696d69740000000000000000006044820152fd5b505034610644576020366003190112610644576020916001600160a01b03908290826120636133af565b168152600785522054169051908152f35b5050346106445781600319360112610644576020906003549051908152f35b82843461078f578060031936011261078f575060155460165482519182526020820152f35b5050346106445781600319360112610644576020906013549051908152f35b50503461064457816003193601126106445760095490516001600160a01b039091168152602090f35b505034610644578160031936011261064457600a5461211e81613685565b916121288261366d565b936121358251958661364b565b8285526121418361366d565b60208087019691601f190136883761215885613685565b94835b8181106121ba5750508061217985519760608952606089019061349a565b928784038289015251928381520196925b8281106121a4578688038588015286806118298a8961349a565b835115158852968101969281019260010161218a565b806121cb61220f92969495966133ea565b90549060031b1c806121dd838c6136e9565b52808552600e865260ff88862054166121f683896136e9565b90151590528452600f855286842054611b5c828a6136e9565b9392919361215b565b5050346106445781600319360112610644576020906012549051908152f35b5050346106445780600319360112610644576122516133af565b906024358015158091036122b8577f966c160e1c4dbc7df8d69af4ace01e9297c3cf016397b7914971f2fbfa32672d9261228961352f565b60018060a01b031690818552602260205282852060ff1981541660ff831617905582519182526020820152a180f35b600080fd5b82843461078f578060031936011261078f5750601254601354601454925191825260208201526040810191909152606090f35b5050346106445781600319360112610644576020906024549051908152f35b5034610617576020366003190112610617576123296133af565b601f546001600160a01b039190821633036123d357168084526005602052918320805460ff1916600117905560065490600160401b82101561057c57600182018060065582101561120c575060066000527ff652222313e28459528d920b65115c16c04f3efc82aaedc97be59f3f377c0d3f0180546001600160a01b031916821790557feb4d1b1ad6245003e8b460f686262712b4f75c37e82b6aa0f9445acef51699258280a280f35b835162461bcd60e51b8152602081850152601060248201526f4f6e6c79204e465420666163746f727960801b6044820152606490fd5b505034610644578160031936011261064457602354905160089190911c6001600160a01b03168152602090f35b5090346106175780600319360112610617576124506133af565b60243561249660018060a01b038093169182875261247a60209460078652868920541615156138a1565b6124858115156138e0565b82875260108452848720541461392c565b825163c19d93fb60e01b815282818681855afa869181612549575b506124f957835162461bcd60e51b8152602081870181815260159181019190915274125b9d985b1a59081c1bdbdb0818dbdb9d1c9858dd605a1b604082015281906060010390fd5b60088196959610156125365791601091612522846007600097961490811561252b575b506139dc565b85525282205580f35b60059150148861251c565b634e487b7160e01b855260218652602485fd5b61256a919250843d8611612571575b612562818361364b565b8101906139c4565b90386124b1565b503d612558565b5090346106175760203660031901126106175781359161259661352f565b82156125ce5750816020917f51b17c1cf4bad8abd9519f7d72ef52d6ced78524842df41c2e64f2213365d4769360195551908152a180f35b6020606492519162461bcd60e51b835282015260126024820152714d757374206265206174206c65617374203160701b6044820152fd5b503461061757602036600319011261061757359160115483101561078f575061262f602092613437565b905491519160018060a01b039160031b1c168152f35b9190503461064457816003193601126106445760209061266361352f565b600154845163288688f960e21b8152938492918391906001600160a01b03165af1918215610792575082916126bf575b50806002557f6a2b70dde6ae0193f84b6a9eeb3b0ebdc3a35e99d9167b88c570158dd09cb0f78280a280f35b90506020813d82116126e8575b816126d96020938361364b565b81010312610644575138612693565b3d91506126cc565b50903461061757806003193601126106175761270a6133af565b6024359060018060a01b03808216918287526020916007835261273381878a20541615156138a1565b61273e8515156138e0565b8388526010835261275385878a20541461392c565b855163c19d93fb60e01b815283818981885afa8991816128a6575b506127b657865162461bcd60e51b81526020818a0181815260159181019190915274125b9d985b1a59081c1bdbdb0818dbdb9d1c9858dd605a1b604082015281906060010390fd5b889692918160088a93101561289357906127dd82848b9695941490811561288857506139dc565b6001541691823b156106d157845163cb63179760e01b81529182018881526001600160a01b0390911660208201529091839183919082908490829060400103925af1801561170657612874575b506000928560109252600f81528287206128448154613a28565b9055848752528420557f46d7f264cf963b550773f629b4cd2668e69e465b630a862303300db477104e9e8380a380f35b61287d90613605565b610abe57848661282a565b60069150148b61251c565b634e487b7160e01b895260218352602489fd5b6128be919250853d871161257157612562818361364b565b903861276e565b5090346106175780600319360112610617576128df6133af565b916128e86133c5565b916128f161352f565b6001600160a01b039384169283156129ca5784169384156129875790859291601f541691823b156106d15784604485928385519687948593630d76b84160e21b85528401528a60248401525af19081156107925750612973575b50807f055d29287d43159ed5b46366888181c01552bd982dcbd9380ade3dc5a1069f4491a380f35b61297c90613605565b61061757823861294b565b815162461bcd60e51b8152602081850152601e60248201527f496e76616c6964204552433131353520696d706c656d656e746174696f6e00006044820152606490fd5b815162461bcd60e51b8152602081850152601d60248201527f496e76616c69642045524337323120696d706c656d656e746174696f6e0000006044820152606490fd5b505034610644578160031936011261064457601e5490516001600160a01b039091168152602090f35b5050346106445760203660031901126106445760207ffd76f8ed4d910bcb9cc812e605a5c8b31f7b84ab658feb2d9bf60de6f7adf07291612a756133af565b612a7d61352f565b601880546001600160a01b0319166001600160a01b039290921691821790559051908152a180f35b50816003193601126106175780359183612abd61346e565b612ac561352f565b848252600e602052612adc60ff8484205416613978565b6001600160601b03811693612af2853414613a35565b6001546001600160a01b031691823b156106d1578451634cf94d8760e01b81529182018781526001600160601b0390911660208201529091839183919082908890829060400103925af1801561170657612b76575b50507f24761a552e7853f2c57abfbcc0b0e9698da9811db99b96034c7b7fefb067860a9160209151908152a280f35b612b7f90613605565b6106d1578338612b47565b5091903461064457612b9b36613399565b93612ba461352f565b612baf8215156137d4565b81851115612bf157507faae06c8bb7d45661a4b277b7040cb05af4d0e488b1310072e5d30e9f9fcb8dfe9293816012558060145582519182526020820152a180f35b606490602084519162461bcd60e51b8352820152601c60248201527f4d6178206d7573742062652067726561746572207468616e206d696e000000006044820152fd5b503461061757602036600319011261061757356006548110156106175760066000527ff652222313e28459528d920b65115c16c04f3efc82aaedc97be59f3f377c0d3f015490516001600160a01b03909116815260209150f35b50913461078f578060031936011261078f575063ffffffff60209254169051908152f35b50503461064457816003193601126106445760209060ff6023541690519015158152f35b505034610644576020366003190112610644576080600080516020613c6183398151915291612d036133af565b612d0b61352f565b60018060a01b0316806001600160601b0360a01b601e541617601e55600c8251928084528301526b2837b7b62232b83637bcb2b960a11b60608301526020820152a180f35b5050346106445760203660031901126106445760209160ff9082906001600160a01b03612d7b6133af565b1681526005855220541690519015158152f35b509190346106445760208060031936011261061757833591612dae61352f565b8215612ece57828452600e825260ff8185205416612e8b57600a54838552600d83528082862055600160401b811015612e785783611249826001612df59401600a556133ea565b828452600e8252808420600160ff19825416179055612e15600b546136b7565b600b55600a549060018214612e6f575b6000198201918211612e5c57519081527fb2615094a1e63e6d2b94b964165480ab14d38fc7bb17dc29b281e00209d08d5c9190a280f35b634e487b7160e01b855260118652602485fd5b83600255612e25565b634e487b7160e01b855260418652602485fd5b5162461bcd60e51b815280850191909152601a60248201527f537562736372697074696f6e20616c72656164792061646465640000000000006044820152606490fd5b5162461bcd60e51b815280850191909152601760248201527f496e76616c696420737562736372697074696f6e2049440000000000000000006044820152606490fd5b505034610644578160031936011261064457602090612f2e613af7565b9051908152f35b503461061757602036600319011261061757612f4f6133db565b9081612f5961352f565b612f9e575b507fbdf23e00552699ae5a512ee5aa85d84b038a9ed4d266ef34f1e887de46896d8d9160209115159060ff196025541660ff83161760255551908152a180f35b60ff6023541615612f5e5760a490602084519162461bcd60e51b8352820152604460248201527f43616e6e6f7420656e61626c652063726561746f7220746f6b656e206665652060448201527f7768696c652063726561746f7220746f6b656e20676174696e672069732061636064820152637469766560e01b6084820152fd5b5034610617576020366003190112610617576020928291358152600f845220549051908152f35b5034610617576020366003190112610617576130606133af565b9161306961352f565b6001600160a01b039283169283156130f05790849291601e541691823b156106d1578460248592838551968794859363065bc36f60e01b85528401525af190811561079257506130dc575b50807f4b841241ca1157d14ee4f0de82ff8f53fe31591f97ca699ca65ffaf45ea07ab591a280f35b6130e590613605565b6106445781386130b4565b815162461bcd60e51b8152602081850152601b60248201527f496e76616c696420506f6f6c20696d706c656d656e746174696f6e00000000006044820152606490fd5b50903461061757806003193601126106175761314d6133af565b906024359260018060a01b039085828516948582526020936007855261317981878520541615156138a1565b8683526010855261319988878520546131938115156138e0565b1461392c565b878352600e85526131af60ff8785205416613978565b878352600f85526064868420541015613265575b60015416803b15610617578551632fb1302360e21b81529384018881526001600160a01b039092166020830152839182908490829060400103925af1801561325b57613247575b50600f9084865252832061321e81546136b7565b90557f8b4d66174491b3a6145331b676769c46f933c290811400f713f6dd7e0f7ada9f8380a380f35b94613254600f9296613605565b949061320a565b83513d88823e3d90fd5b96509050613271613af7565b95861561328c579087918683526010855287868420556131c3565b845162461bcd60e51b8152808401859052601e60248201527f4e6f20617661696c61626c652056524620737562736372697074696f6e7300006044820152606490fd5b5034610617576020366003190112610617577facd3908fc55d712582462490cee05d9057e65c26303b042525311532c62d20df91602091359061331061352f565b61331e612710831115613819565b81601c5551908152a180f35b5050346106445781600319360112610644576020906014549051908152f35b505034610644577f060e9bb7b24700e1f67f61d02209b1fb7e61dcb50699bd88a5004e8649f3e4ec9061337b36613399565b61338361352f565b816015558060165582519182526020820152a180f35b60409060031901126122b8576004359060243590565b600435906001600160a01b03821682036122b857565b602435906001600160a01b03821682036122b857565b6004359081151582036122b857565b600a5481101561342157600a6000527fc65a7bb8d6351c1cf70c95a316cc6a92839c986682d98bc35f958f4883f9d2a80190600090565b634e487b7160e01b600052603260045260246000fd5b6011548110156134215760116000527f31ecc21a745e3968a04e9570e4425bc18fa8019c68028196b546d1669c200c680190600090565b602435906001600160601b03821682036122b857565b600435906001600160601b03821682036122b857565b90815180825260208080930193019160005b8281106134ba575050505090565b8351855293810193928101926001016134ac565b90815180825260208080930193019160005b8281106134ee575050505090565b83516001600160a01b0316855293810193928101926001016134e0565b9193926135226040926060855260608501906134ce565b9460208401521515910152565b6000546001600160a01b0316330361354357565b606460405162461bcd60e51b815260206004820152602060248201527f4f776e61626c653a2063616c6c6572206973206e6f7420746865206f776e65726044820152fd5b1561358e57565b60405162461bcd60e51b815260206004820152600f60248201526e496e76616c6964206164647265737360881b6044820152606490fd5b156135cc57565b60405162461bcd60e51b8152602060048201526011602482015270496e76616c696420706167652073697a6560781b6044820152606490fd5b67ffffffffffffffff811161361957604052565b634e487b7160e01b600052604160045260246000fd5b6040810190811067ffffffffffffffff82111761361957604052565b90601f8019910116810190811067ffffffffffffffff82111761361957604052565b67ffffffffffffffff81116136195760051b60200190565b9061368f8261366d565b61369c604051918261364b565b82815280926136ad601f199161366d565b0190602036910137565b60001981146136c65760010190565b634e487b7160e01b600052601160045260246000fd5b919082018092116136c657565b80518210156134215760209160051b010190565b91811515806137c9575b613710906135c5565b601154918284101561379957838303908382116136c657808210156137915750905b61373b82613685565b9160005b81811061375a5750613753919293946136dc565b9192821090565b8061377061376b61378c93896136dc565b613437565b905460039190911b1c6001600160a01b0316611b5c82876136e9565b61373f565b905090613732565b5090506040516020810181811067ffffffffffffffff821117613619576040526000815260003681379190600090565b506064821115613707565b156137db57565b60405162461bcd60e51b81526020600482015260166024820152754d696e206d757374206265206174206c65617374203160501b6044820152606490fd5b1561382057565b60405162461bcd60e51b815260206004820152601260248201527143616e6e6f7420657863656564203130302560701b6044820152606490fd5b92919267ffffffffffffffff82116136195760405191613884601f8201601f19166020018461364b565b8294818452818301116122b8578281602093846000960137010152565b156138a857565b60405162461bcd60e51b815260206004820152601060248201526f139bdd0818481d985b1a59081c1bdbdb60821b6044820152606490fd5b156138e757565b60405162461bcd60e51b815260206004820152601860248201527f4e6f20737562736372697074696f6e2061737369676e656400000000000000006044820152606490fd5b1561393357565b60405162461bcd60e51b815260206004820152601d60248201527f496e76616c696420737562736372697074696f6e20666f7220706f6f6c0000006044820152606490fd5b1561397f57565b60405162461bcd60e51b815260206004820152601760248201527f537562736372697074696f6e206e6f74206163746976650000000000000000006044820152606490fd5b908160209103126122b8575160088110156122b85790565b156139e357565b60405162461bcd60e51b815260206004820152601e60248201527f506f6f6c206d75737420626520696e207465726d696e616c20737461746500006044820152606490fd5b80156136c6576000190190565b15613a3c57565b60405162461bcd60e51b8152602060048201526014602482015273125b98dbdc9c9958dd0811551208185b5bdd5b9d60621b6044820152606490fd5b908160209103126122b8575180151581036122b85790565b9193929060018060a01b031682526001600160601b0360209416848301526060604083015280519081606084015260005b828110613ae357505060809293506000838284010152601f8019910116010190565b818101860151848201608001528501613ac1565b600090600b5415613c1b57600c9081549083905b600a5480831015613c10578454613b21816133ea565b90549060031b1c8088526020600e8152604060ff818b2054169182613bfd575b5050613bf2575060018101809111613bde578115613bca578491613b699106938487556136b7565b921480613bc1575b15613b0b5750505050505b60405162461bcd60e51b815260206004820152601d60248201527f416c6c20737562736372697074696f6e732061742063617061636974790000006044820152606490fd5b50811515613b71565b634e487b7160e01b87526012600452602487fd5b634e487b7160e01b87526011600452602487fd5b955050509350505090565b60649250600f9052892054103880613b41565b505050505050613b7c565b60405162461bcd60e51b815260206004820152601760248201527f4e6f2061637469766520737562736372697074696f6e730000000000000000006044820152606490fdfe1592f515c298c578903964a58733180fe97bdf05860fc70a7e21b61e8cc2d1b1a264697066735822122086d61f61434c3b7eae961f432929f15a687009c63d78ae4eddd4c96232fc9d4f64736f6c63430008130033",
  "linkReferences": {},
  "deployedLinkReferences": {}
}