{
  "_format": "hh-sol-artifact-1",
  "contractName": "ProtocolManager",
  "sourceName": "contracts/ProtocolManager.sol",
  "abi": [
    {
      "inputs": [
        {
          "internalType": "address",
          "name": "_vrfCoordinator",
          "type": "address"
        },
        {
          "internalType": "bytes32",
          "name": "_keyHash",
          "type": "bytes32"
        },
        {
          "internalType": "address",
          "name": "_linkToken",
          "type": "address"
        },
        {
          "internalType": "uint32",
          "name": "_callbackGasLimit",
          "type": "uint32"
        },
        {
          "internalType": "uint16",
          "name": "_requestConfirmations",
          "type": "uint16"
        }
      ],
      "stateMutability": "nonpayable",
      "type": "constructor"
    },
    {
      "anonymous": false,
      "inputs": [
        {
          "indexed": false,
          "internalType": "string",
          "name": "contractType",
          "type": "string"
        },
        {
          "indexed": false,
          "internalType": "address",
          "name": "newAddress",
          "type": "address"
        }
      ],
      "name": "ContractReplaced",
      "type": "event"
    },
    {
      "anonymous": false,
      "inputs": [
        {
          "indexed": false,
          "internalType": "uint256",
          "name": "newPercentage",
          "type": "uint256"
        }
      ],
      "name": "CreationFeePercentageUpdated",
      "type": "event"
    },
    {
      "anonymous": false,
      "inputs": [
        {
          "indexed": false,
          "internalType": "bool",
          "name": "enabled",
          "type": "bool"
        }
      ],
      "name": "CreatorTokenFeeToggled",
      "type": "event"
    },
    {
      "anonymous": false,
      "inputs": [
        {
          "indexed": false,
          "internalType": "bool",
          "name": "enabled",
          "type": "bool"
        }
      ],
      "name": "CreatorTokenGatedToggled",
      "type": "event"
    },
    {
      "anonymous": false,
      "inputs": [
        {
          "indexed": false,
          "internalType": "uint256",
          "name": "min",
          "type": "uint256"
        },
        {
          "indexed": false,
          "internalType": "uint256",
          "name": "max",
          "type": "uint256"
        }
      ],
      "name": "DurationLimitsUpdated",
      "type": "event"
    },
    {
      "anonymous": false,
      "inputs": [
        {
          "indexed": false,
          "internalType": "uint256",
          "name": "newFee",
          "type": "uint256"
        }
      ],
      "name": "GlobalSlotFeeUpdated",
      "type": "event"
    },
    {
      "anonymous": false,
      "inputs": [
        {
          "indexed": true,
          "internalType": "address",
          "name": "collection",
          "type": "address"
        }
      ],
      "name": "InternalCollectionAdded",
      "type": "event"
    },
    {
      "anonymous": false,
      "inputs": [
        {
          "indexed": false,
          "internalType": "address",
          "name": "newLinkToken",
          "type": "address"
        }
      ],
      "name": "LinkTokenUpdated",
      "type": "event"
    },
    {
      "anonymous": false,
      "inputs": [
        {
          "indexed": false,
          "internalType": "uint256",
          "name": "newLimit",
          "type": "uint256"
        }
      ],
      "name": "MaxSlotsPerAddressUpdated",
      "type": "event"
    },
    {
      "anonymous": false,
      "inputs": [
        {
          "indexed": false,
          "internalType": "uint256",
          "name": "newMin",
          "type": "uint256"
        }
      ],
      "name": "MinSlotLimitNonPrizedUpdated",
      "type": "event"
    },
    {
      "anonymous": false,
      "inputs": [
        {
          "indexed": true,
          "internalType": "address",
          "name": "erc721Implementation",
          "type": "address"
        },
        {
          "indexed": true,
          "internalType": "address",
          "name": "erc1155Implementation",
          "type": "address"
        }
      ],
      "name": "NFTFactoryImplementationsUpdated",
      "type": "event"
    },
    {
      "anonymous": false,
      "inputs": [
        {
          "indexed": false,
          "internalType": "address",
          "name": "operator",
          "type": "address"
        },
        {
          "indexed": false,
          "internalType": "bool",
          "name": "status",
          "type": "bool"
        }
      ],
      "name": "OperatorUpdated",
      "type": "event"
    },
    {
      "anonymous": false,
      "inputs": [
        {
          "indexed": true,
          "internalType": "address",
          "name": "previousOwner",
          "type": "address"
        },
        {
          "indexed": true,
          "internalType": "address",
          "name": "newOwner",
          "type": "address"
        }
      ],
      "name": "OwnershipTransferred",
      "type": "event"
    },
    {
      "anonymous": false,
      "inputs": [
        {
          "indexed": false,
          "internalType": "bool",
          "name": "paused",
          "type": "bool"
        }
      ],
      "name": "PoolCreationPaused",
      "type": "event"
    },
    {
      "anonymous": false,
      "inputs": [
        {
          "indexed": true,
          "internalType": "address",
          "name": "poolImplementation",
          "type": "address"
        }
      ],
      "name": "PoolDeployerImplementationUpdated",
      "type": "event"
    },
    {
      "anonymous": false,
      "inputs": [
        {
          "indexed": true,
          "internalType": "address",
          "name": "pool",
          "type": "address"
        }
      ],
      "name": "PoolRegistered",
      "type": "event"
    },
    {
      "anonymous": false,
      "inputs": [
        {
          "indexed": false,
          "internalType": "uint256",
          "name": "newPercentage",
          "type": "uint256"
        }
      ],
      "name": "ProtocolFeeUpdated",
      "type": "event"
    },
    {
      "anonymous": false,
      "inputs": [
        {
          "indexed": false,
          "internalType": "address",
          "name": "newAddress",
          "type": "address"
        }
      ],
      "name": "RevenueManagerUpdated",
      "type": "event"
    },
    {
      "anonymous": false,
      "inputs": [
        {
          "indexed": false,
          "internalType": "uint256",
          "name": "minSlotLimit",
          "type": "uint256"
        },
        {
          "indexed": false,
          "internalType": "uint256",
          "name": "maxSlotLimit",
          "type": "uint256"
        }
      ],
      "name": "SlotLimitsUpdated",
      "type": "event"
    },
    {
      "anonymous": false,
      "inputs": [
        {
          "indexed": true,
          "internalType": "uint256",
          "name": "subscriptionId",
          "type": "uint256"
        }
      ],
      "name": "SubscriptionCreated",
      "type": "event"
    },
    {
      "anonymous": false,
      "inputs": [
        {
          "indexed": false,
          "internalType": "uint96",
          "name": "amount",
          "type": "uint96"
        }
      ],
      "name": "SubscriptionFunded",
      "type": "event"
    },
    {
      "anonymous": false,
      "inputs": [
        {
          "indexed": true,
          "internalType": "uint256",
          "name": "subscriptionId",
          "type": "uint256"
        },
        {
          "indexed": false,
          "internalType": "uint96",
          "name": "amount",
          "type": "uint96"
        }
      ],
      "name": "SubscriptionFundedWithDetails",
      "type": "event"
    },
    {
      "anonymous": false,
      "inputs": [
        {
          "indexed": true,
          "internalType": "address",
          "name": "pool",
          "type": "address"
        },
        {
          "indexed": true,
          "internalType": "uint256",
          "name": "assignedSubscriptionId",
          "type": "uint256"
        }
      ],
      "name": "SubscriptionPreAssigned",
      "type": "event"
    },
    {
      "anonymous": false,
      "inputs": [
        {
          "indexed": true,
          "internalType": "address",
          "name": "consumer",
          "type": "address"
        },
        {
          "indexed": true,
          "internalType": "uint256",
          "name": "subscriptionId",
          "type": "uint256"
        }
      ],
      "name": "VRFConsumerAddedToSubscription",
      "type": "event"
    },
    {
      "anonymous": false,
      "inputs": [
        {
          "indexed": true,
          "internalType": "address",
          "name": "consumer",
          "type": "address"
        },
        {
          "indexed": true,
          "internalType": "uint256",
          "name": "subscriptionId",
          "type": "uint256"
        }
      ],
      "name": "VRFConsumerRemovedFromSubscription",
      "type": "event"
    },
    {
      "anonymous": false,
      "inputs": [],
      "name": "VRFParamsUpdated",
      "type": "event"
    },
    {
      "anonymous": false,
      "inputs": [
        {
          "indexed": true,
          "internalType": "uint256",
          "name": "subscriptionId",
          "type": "uint256"
        },
        {
          "indexed": false,
          "internalType": "uint256",
          "name": "index",
          "type": "uint256"
        }
      ],
      "name": "VRFSubscriptionAdded",
      "type": "event"
    },
    {
      "anonymous": false,
      "inputs": [],
      "name": "VRFSubscriptionCancelled",
      "type": "event"
    },
    {
      "anonymous": false,
      "inputs": [
        {
          "indexed": true,
          "internalType": "uint256",
          "name": "subscriptionId",
          "type": "uint256"
        }
      ],
      "name": "VRFSubscriptionRemoved",
      "type": "event"
    },
    {
      "inputs": [
        {
          "internalType": "uint256",
          "name": "subscriptionId",
          "type": "uint256"
        }
      ],
      "name": "acceptVRFOwnership",
      "outputs": [],
      "stateMutability": "nonpayable",
      "type": "function"
    },
    {
      "inputs": [],
      "name": "activeSubscriptionCount",
      "outputs": [
        {
          "internalType": "uint256",
          "name": "",
          "type": "uint256"
        }
      ],
      "stateMutability": "view",
      "type": "function"
    },
    {
      "inputs": [
        {
          "internalType": "address",
          "name": "_collection",
          "type": "address"
        }
      ],
      "name": "addInternalCollection",
      "outputs": [],
      "stateMutability": "nonpayable",
      "type": "function"
    },
    {
      "inputs": [
        {
          "internalType": "address",
          "name": "consumer",
          "type": "address"
        },
        {
          "internalType": "uint256",
          "name": "subscriptionId",
          "type": "uint256"
        }
      ],
      "name": "addVRFConsumer",
      "outputs": [],
      "stateMutability": "nonpayable",
      "type": "function"
    },
    {
      "inputs": [
        {
          "internalType": "uint256",
          "name": "subscriptionId",
          "type": "uint256"
        }
      ],
      "name": "addVRFSubscription",
      "outputs": [],
      "stateMutability": "nonpayable",
      "type": "function"
    },
    {
      "inputs": [
        {
          "internalType": "uint256",
          "name": "",
          "type": "uint256"
        }
      ],
      "name": "allPools",
      "outputs": [
        {
          "internalType": "address",
          "name": "",
          "type": "address"
        }
      ],
      "stateMutability": "view",
      "type": "function"
    },
    {
      "inputs": [
        {
          "internalType": "address",
          "name": "pool",
          "type": "address"
        },
        {
          "internalType": "address",
          "name": "creator",
          "type": "address"
        },
        {
          "internalType": "uint256",
          "name": "timestamp",
          "type": "uint256"
        }
      ],
      "name": "batchSetupPool",
      "outputs": [],
      "stateMutability": "nonpayable",
      "type": "function"
    },
    {
      "inputs": [],
      "name": "callbackGasLimit",
      "outputs": [
        {
          "internalType": "uint32",
          "name": "",
          "type": "uint32"
        }
      ],
      "stateMutability": "view",
      "type": "function"
    },
    {
      "inputs": [],
      "name": "cancelVRFSubscription",
      "outputs": [],
      "stateMutability": "nonpayable",
      "type": "function"
    },
    {
      "inputs": [],
      "name": "createVRFSubscription",
      "outputs": [],
      "stateMutability": "nonpayable",
      "type": "function"
    },
    {
      "inputs": [],
      "name": "creationFeePercentage",
      "outputs": [
        {
          "internalType": "uint256",
          "name": "",
          "type": "uint256"
        }
      ],
      "stateMutability": "view",
      "type": "function"
    },
    {
      "inputs": [],
      "name": "creationPaused",
      "outputs": [
        {
          "internalType": "bool",
          "name": "",
          "type": "bool"
        }
      ],
      "stateMutability": "view",
      "type": "function"
    },
    {
      "inputs": [],
      "name": "creatorToken",
      "outputs": [
        {
          "internalType": "address",
          "name": "",
          "type": "address"
        }
      ],
      "stateMutability": "view",
      "type": "function"
    },
    {
      "inputs": [
        {
          "internalType": "uint96",
          "name": "amountPerSubscription",
          "type": "uint96"
        }
      ],
      "name": "fundAllSubscriptionsWithNative",
      "outputs": [],
      "stateMutability": "payable",
      "type": "function"
    },
    {
      "inputs": [
        {
          "internalType": "uint96",
          "name": "amount",
          "type": "uint96"
        }
      ],
      "name": "fundVRFSubscriptionWithLink",
      "outputs": [],
      "stateMutability": "nonpayable",
      "type": "function"
    },
    {
      "inputs": [
        {
          "internalType": "uint256",
          "name": "subscriptionId",
          "type": "uint256"
        },
        {
          "internalType": "uint96",
          "name": "amount",
          "type": "uint96"
        }
      ],
      "name": "fundVRFSubscriptionWithLinkById",
      "outputs": [],
      "stateMutability": "nonpayable",
      "type": "function"
    },
    {
      "inputs": [
        {
          "internalType": "uint96",
          "name": "amount",
          "type": "uint96"
        }
      ],
      "name": "fundVRFSubscriptionWithNative",
      "outputs": [],
      "stateMutability": "payable",
      "type": "function"
    },
    {
      "inputs": [
        {
          "internalType": "uint256",
          "name": "subscriptionId",
          "type": "uint256"
        },
        {
          "internalType": "uint96",
          "name": "amount",
          "type": "uint96"
        }
      ],
      "name": "fundVRFSubscriptionWithNativeById",
      "outputs": [],
      "stateMutability": "payable",
      "type": "function"
    },
    {
      "inputs": [],
      "name": "getAllPools",
      "outputs": [
        {
          "internalType": "address[]",
          "name": "",
          "type": "address[]"
        }
      ],
      "stateMutability": "view",
      "type": "function"
    },
    {
      "inputs": [],
      "name": "getAllSlotLimits",
      "outputs": [
        {
          "internalType": "uint256",
          "name": "minPrized",
          "type": "uint256"
        },
        {
          "internalType": "uint256",
          "name": "minNonPrized",
          "type": "uint256"
        },
        {
          "internalType": "uint256",
          "name": "max",
          "type": "uint256"
        }
      ],
      "stateMutability": "view",
      "type": "function"
    },
    {
      "inputs": [],
      "name": "getAllSubscriptions",
      "outputs": [
        {
          "internalType": "uint256[]",
          "name": "ids",
          "type": "uint256[]"
        },
        {
          "internalType": "bool[]",
          "name": "active",
          "type": "bool[]"
        },
        {
          "internalType": "uint256[]",
          "name": "consumerCounts",
          "type": "uint256[]"
        }
      ],
      "stateMutability": "view",
      "type": "function"
    },
    {
      "inputs": [],
      "name": "getCreationFeePercentage",
      "outputs": [
        {
          "internalType": "uint256",
          "name": "",
          "type": "uint256"
        }
      ],
      "stateMutability": "view",
      "type": "function"
    },
    {
      "inputs": [],
      "name": "getDurationLimits",
      "outputs": [
        {
          "internalType": "uint256",
          "name": "",
          "type": "uint256"
        },
        {
          "internalType": "uint256",
          "name": "",
          "type": "uint256"
        }
      ],
      "stateMutability": "view",
      "type": "function"
    },
    {
      "inputs": [],
      "name": "getMaxSlotsPerAddress",
      "outputs": [
        {
          "internalType": "uint256",
          "name": "",
          "type": "uint256"
        }
      ],
      "stateMutability": "view",
      "type": "function"
    },
    {
      "inputs": [
        {
          "internalType": "bool",
          "name": "isPrized",
          "type": "bool"
        }
      ],
      "name": "getMinSlotLimit",
      "outputs": [
        {
          "internalType": "uint256",
          "name": "",
          "type": "uint256"
        }
      ],
      "stateMutability": "view",
      "type": "function"
    },
    {
      "inputs": [],
      "name": "getNextVRFSubscription",
      "outputs": [
        {
          "internalType": "uint256",
          "name": "",
          "type": "uint256"
        }
      ],
      "stateMutability": "nonpayable",
      "type": "function"
    },
    {
      "inputs": [],
      "name": "getPoolConfig",
      "outputs": [
        {
          "internalType": "uint256",
          "name": "",
          "type": "uint256"
        },
        {
          "internalType": "uint256",
          "name": "",
          "type": "uint256"
        },
        {
          "internalType": "uint256",
          "name": "",
          "type": "uint256"
        }
      ],
      "stateMutability": "view",
      "type": "function"
    },
    {
      "inputs": [
        {
          "internalType": "address",
          "name": "pool",
          "type": "address"
        }
      ],
      "name": "getPoolCreator",
      "outputs": [
        {
          "internalType": "address",
          "name": "",
          "type": "address"
        }
      ],
      "stateMutability": "view",
      "type": "function"
    },
    {
      "inputs": [
        {
          "internalType": "address",
          "name": "pool",
          "type": "address"
        }
      ],
      "name": "getPoolSubscription",
      "outputs": [
        {
          "internalType": "uint256",
          "name": "",
          "type": "uint256"
        }
      ],
      "stateMutability": "view",
      "type": "function"
    },
    {
      "inputs": [
        {
          "internalType": "address",
          "name": "creator",
          "type": "address"
        }
      ],
      "name": "getPoolsByCreator",
      "outputs": [
        {
          "internalType": "address[]",
          "name": "",
          "type": "address[]"
        }
      ],
      "stateMutability": "view",
      "type": "function"
    },
    {
      "inputs": [],
      "name": "getRevenueManager",
      "outputs": [
        {
          "internalType": "address",
          "name": "",
          "type": "address"
        }
      ],
      "stateMutability": "view",
      "type": "function"
    },
    {
      "inputs": [],
      "name": "getRevenueParameters",
      "outputs": [
        {
          "internalType": "uint256",
          "name": "_protocolFee",
          "type": "uint256"
        },
        {
          "internalType": "uint256",
          "name": "_creationFeePercentage",
          "type": "uint256"
        }
      ],
      "stateMutability": "view",
      "type": "function"
    },
    {
      "inputs": [],
      "name": "getSlotFee",
      "outputs": [
        {
          "internalType": "uint256",
          "name": "",
          "type": "uint256"
        }
      ],
      "stateMutability": "view",
      "type": "function"
    },
    {
      "inputs": [],
      "name": "getSlotLimits",
      "outputs": [
        {
          "internalType": "uint256",
          "name": "",
          "type": "uint256"
        },
        {
          "internalType": "uint256",
          "name": "",
          "type": "uint256"
        }
      ],
      "stateMutability": "view",
      "type": "function"
    },
    {
      "inputs": [],
      "name": "getSubscriptionId",
      "outputs": [
        {
          "internalType": "uint256",
          "name": "",
          "type": "uint256"
        }
      ],
      "stateMutability": "view",
      "type": "function"
    },
    {
      "inputs": [],
      "name": "getVRFParams",
      "outputs": [
        {
          "internalType": "address",
          "name": "",
          "type": "address"
        },
        {
          "internalType": "uint256",
          "name": "",
          "type": "uint256"
        },
        {
          "internalType": "bytes32",
          "name": "",
          "type": "bytes32"
        },
        {
          "internalType": "uint32",
          "name": "",
          "type": "uint32"
        },
        {
          "internalType": "uint16",
          "name": "",
          "type": "uint16"
        }
      ],
      "stateMutability": "view",
      "type": "function"
    },
    {
      "inputs": [],
      "name": "globalSlotFee",
      "outputs": [
        {
          "internalType": "uint256",
          "name": "",
          "type": "uint256"
        }
      ],
      "stateMutability": "view",
      "type": "function"
    },
    {
      "inputs": [
        {
          "internalType": "uint256",
          "name": "",
          "type": "uint256"
        }
      ],
      "name": "isActiveSubscription",
      "outputs": [
        {
          "internalType": "bool",
          "name": "",
          "type": "bool"
        }
      ],
      "stateMutability": "view",
      "type": "function"
    },
    {
      "inputs": [],
      "name": "isCreationPaused",
      "outputs": [
        {
          "internalType": "bool",
          "name": "",
          "type": "bool"
        }
      ],
      "stateMutability": "view",
      "type": "function"
    },
    {
      "inputs": [],
      "name": "isCreatorTokenFeeEnabled",
      "outputs": [
        {
          "internalType": "bool",
          "name": "",
          "type": "bool"
        }
      ],
      "stateMutability": "view",
      "type": "function"
    },
    {
      "inputs": [],
      "name": "isCreatorTokenGated",
      "outputs": [
        {
          "internalType": "bool",
          "name": "",
          "type": "bool"
        }
      ],
      "stateMutability": "view",
      "type": "function"
    },
    {
      "inputs": [
        {
          "internalType": "address",
          "name": "",
          "type": "address"
        }
      ],
      "name": "isInternalCollection",
      "outputs": [
        {
          "internalType": "bool",
          "name": "",
          "type": "bool"
        }
      ],
      "stateMutability": "view",
      "type": "function"
    },
    {
      "inputs": [
        {
          "internalType": "address",
          "name": "operator",
          "type": "address"
        }
      ],
      "name": "isOperator",
      "outputs": [
        {
          "internalType": "bool",
          "name": "",
          "type": "bool"
        }
      ],
      "stateMutability": "view",
      "type": "function"
    },
    {
      "inputs": [
        {
          "internalType": "address",
          "name": "_address",
          "type": "address"
        }
      ],
      "name": "isPoolContract",
      "outputs": [
        {
          "internalType": "bool",
          "name": "",
          "type": "bool"
        }
      ],
      "stateMutability": "view",
      "type": "function"
    },
    {
      "inputs": [],
      "name": "keyHash",
      "outputs": [
        {
          "internalType": "bytes32",
          "name": "",
          "type": "bytes32"
        }
      ],
      "stateMutability": "view",
      "type": "function"
    },
    {
      "inputs": [],
      "name": "linkToken",
      "outputs": [
        {
          "internalType": "contract ILinkTransferAndCall",
          "name": "",
          "type": "address"
        }
      ],
      "stateMutability": "view",
      "type": "function"
    },
    {
      "inputs": [],
      "name": "maxPoolDuration",
      "outputs": [
        {
          "internalType": "uint256",
          "name": "",
          "type": "uint256"
        }
      ],
      "stateMutability": "view",
      "type": "function"
    },
    {
      "inputs": [],
      "name": "maxSlotLimit",
      "outputs": [
        {
          "internalType": "uint256",
          "name": "",
          "type": "uint256"
        }
      ],
      "stateMutability": "view",
      "type": "function"
    },
    {
      "inputs": [],
      "name": "maxSlotsPerAddress",
      "outputs": [
        {
          "internalType": "uint256",
          "name": "",
          "type": "uint256"
        }
      ],
      "stateMutability": "view",
      "type": "function"
    },
    {
      "inputs": [],
      "name": "minCreatorTokenBalance",
      "outputs": [
        {
          "internalType": "uint256",
          "name": "",
          "type": "uint256"
        }
      ],
      "stateMutability": "view",
      "type": "function"
    },
    {
      "inputs": [],
      "name": "minPoolDuration",
      "outputs": [
        {
          "internalType": "uint256",
          "name": "",
          "type": "uint256"
        }
      ],
      "stateMutability": "view",
      "type": "function"
    },
    {
      "inputs": [],
      "name": "minSlotLimit",
      "outputs": [
        {
          "internalType": "uint256",
          "name": "",
          "type": "uint256"
        }
      ],
      "stateMutability": "view",
      "type": "function"
    },
    {
      "inputs": [],
      "name": "minSlotLimitNonPrized",
      "outputs": [
        {
          "internalType": "uint256",
          "name": "",
          "type": "uint256"
        }
      ],
      "stateMutability": "view",
      "type": "function"
    },
    {
      "inputs": [],
      "name": "nftFactory",
      "outputs": [
        {
          "internalType": "address",
          "name": "",
          "type": "address"
        }
      ],
      "stateMutability": "view",
      "type": "function"
    },
    {
      "inputs": [
        {
          "internalType": "address",
          "name": "",
          "type": "address"
        }
      ],
      "name": "operators",
      "outputs": [
        {
          "internalType": "bool",
          "name": "",
          "type": "bool"
        }
      ],
      "stateMutability": "view",
      "type": "function"
    },
    {
      "inputs": [],
      "name": "owner",
      "outputs": [
        {
          "internalType": "address",
          "name": "",
          "type": "address"
        }
      ],
      "stateMutability": "view",
      "type": "function"
    },
    {
      "inputs": [
        {
          "internalType": "bool",
          "name": "pause",
          "type": "bool"
        }
      ],
      "name": "pausePoolCreation",
      "outputs": [],
      "stateMutability": "nonpayable",
      "type": "function"
    },
    {
      "inputs": [
        {
          "internalType": "address",
          "name": "",
          "type": "address"
        }
      ],
      "name": "poolCreationTimestamps",
      "outputs": [
        {
          "internalType": "uint256",
          "name": "",
          "type": "uint256"
        }
      ],
      "stateMutability": "view",
      "type": "function"
    },
    {
      "inputs": [
        {
          "internalType": "address",
          "name": "",
          "type": "address"
        }
      ],
      "name": "poolCreators",
      "outputs": [
        {
          "internalType": "address",
          "name": "",
          "type": "address"
        }
      ],
      "stateMutability": "view",
      "type": "function"
    },
    {
      "inputs": [],
      "name": "poolDeployer",
      "outputs": [
        {
          "internalType": "address",
          "name": "",
          "type": "address"
        }
      ],
      "stateMutability": "view",
      "type": "function"
    },
    {
      "inputs": [
        {
          "internalType": "address",
          "name": "",
          "type": "address"
        }
      ],
      "name": "poolToSubscriptionId",
      "outputs": [
        {
          "internalType": "uint256",
          "name": "",
          "type": "uint256"
        }
      ],
      "stateMutability": "view",
      "type": "function"
    },
    {
      "inputs": [
        {
          "internalType": "address",
          "name": "pool",
          "type": "address"
        },
        {
          "internalType": "uint256",
          "name": "subscriptionId",
          "type": "uint256"
        }
      ],
      "name": "preAssignSubscription",
      "outputs": [],
      "stateMutability": "nonpayable",
      "type": "function"
    },
    {
      "inputs": [],
      "name": "protocolFeePercentage",
      "outputs": [
        {
          "internalType": "uint256",
          "name": "",
          "type": "uint256"
        }
      ],
      "stateMutability": "view",
      "type": "function"
    },
    {
      "inputs": [
        {
          "internalType": "address",
          "name": "consumer",
          "type": "address"
        },
        {
          "internalType": "uint256",
          "name": "subscriptionId",
          "type": "uint256"
        }
      ],
      "name": "removeVRFConsumer",
      "outputs": [],
      "stateMutability": "nonpayable",
      "type": "function"
    },
    {
      "inputs": [
        {
          "internalType": "uint256",
          "name": "subscriptionId",
          "type": "uint256"
        }
      ],
      "name": "removeVRFSubscription",
      "outputs": [],
      "stateMutability": "nonpayable",
      "type": "function"
    },
    {
      "inputs": [],
      "name": "renounceOwnership",
      "outputs": [],
      "stateMutability": "nonpayable",
      "type": "function"
    },
    {
      "inputs": [
        {
          "internalType": "string",
          "name": "contractType",
          "type": "string"
        },
        {
          "internalType": "address",
          "name": "newAddress",
          "type": "address"
        }
      ],
      "name": "replaceContract",
      "outputs": [],
      "stateMutability": "nonpayable",
      "type": "function"
    },
    {
      "inputs": [],
      "name": "requestConfirmations",
      "outputs": [
        {
          "internalType": "uint16",
          "name": "",
          "type": "uint16"
        }
      ],
      "stateMutability": "view",
      "type": "function"
    },
    {
      "inputs": [],
      "name": "revenueManager",
      "outputs": [
        {
          "internalType": "address",
          "name": "",
          "type": "address"
        }
      ],
      "stateMutability": "view",
      "type": "function"
    },
    {
      "inputs": [],
      "name": "rewardsFlywheel",
      "outputs": [
        {
          "internalType": "address",
          "name": "",
          "type": "address"
        }
      ],
      "stateMutability": "view",
      "type": "function"
    },
    {
      "inputs": [
        {
          "internalType": "uint256",
          "name": "_percentage",
          "type": "uint256"
        }
      ],
      "name": "setCreationFeePercentage",
      "outputs": [],
      "stateMutability": "nonpayable",
      "type": "function"
    },
    {
      "inputs": [
        {
          "internalType": "address",
          "name": "_token",
          "type": "address"
        },
        {
          "internalType": "uint256",
          "name": "_minBalance",
          "type": "uint256"
        }
      ],
      "name": "setCreatorToken",
      "outputs": [],
      "stateMutability": "nonpayable",
      "type": "function"
    },
    {
      "inputs": [
        {
          "internalType": "uint256",
          "name": "_min",
          "type": "uint256"
        },
        {
          "internalType": "uint256",
          "name": "_max",
          "type": "uint256"
        }
      ],
      "name": "setDurationLimits",
      "outputs": [],
      "stateMutability": "nonpayable",
      "type": "function"
    },
    {
      "inputs": [
        {
          "internalType": "uint256",
          "name": "_fee",
          "type": "uint256"
        }
      ],
      "name": "setGlobalSlotFee",
      "outputs": [],
      "stateMutability": "nonpayable",
      "type": "function"
    },
    {
      "inputs": [
        {
          "internalType": "address",
          "name": "_linkToken",
          "type": "address"
        }
      ],
      "name": "setLinkToken",
      "outputs": [],
      "stateMutability": "nonpayable",
      "type": "function"
    },
    {
      "inputs": [
        {
          "internalType": "uint256",
          "name": "_maxSlots",
          "type": "uint256"
        }
      ],
      "name": "setMaxSlotsPerAddress",
      "outputs": [],
      "stateMutability": "nonpayable",
      "type": "function"
    },
    {
      "inputs": [
        {
          "internalType": "uint256",
          "name": "_min",
          "type": "uint256"
        }
      ],
      "name": "setMinSlotLimitNonPrized",
      "outputs": [],
      "stateMutability": "nonpayable",
      "type": "function"
    },
    {
      "inputs": [
        {
          "internalType": "address",
          "name": "_nftFactory",
          "type": "address"
        }
      ],
      "name": "setNFTFactory",
      "outputs": [],
      "stateMutability": "nonpayable",
      "type": "function"
    },
    {
      "inputs": [
        {
          "internalType": "address",
          "name": "operator",
          "type": "address"
        },
        {
          "internalType": "bool",
          "name": "status",
          "type": "bool"
        }
      ],
      "name": "setOperator",
      "outputs": [],
      "stateMutability": "nonpayable",
      "type": "function"
    },
    {
      "inputs": [
        {
          "internalType": "address",
          "name": "_poolDeployer",
          "type": "address"
        }
      ],
      "name": "setPoolDeployer",
      "outputs": [],
      "stateMutability": "nonpayable",
      "type": "function"
    },
    {
      "inputs": [
        {
          "internalType": "uint256",
          "name": "_percentage",
          "type": "uint256"
        }
      ],
      "name": "setProtocolFee",
      "outputs": [],
      "stateMutability": "nonpayable",
      "type": "function"
    },
    {
      "inputs": [
        {
          "internalType": "address",
          "name": "_revenueManager",
          "type": "address"
        }
      ],
      "name": "setRevenueManager",
      "outputs": [],
      "stateMutability": "nonpayable",
      "type": "function"
    },
    {
      "inputs": [
        {
          "internalType": "address",
          "name": "_rewardsFlywheel",
          "type": "address"
        }
      ],
      "name": "setRewardsFlywheel",
      "outputs": [],
      "stateMutability": "nonpayable",
      "type": "function"
    },
    {
      "inputs": [
        {
          "internalType": "uint256",
          "name": "_min",
          "type": "uint256"
        },
        {
          "internalType": "uint256",
          "name": "_max",
          "type": "uint256"
        }
      ],
      "name": "setSlotLimits",
      "outputs": [],
      "stateMutability": "nonpayable",
      "type": "function"
    },
    {
      "inputs": [
        {
          "internalType": "uint256",
          "name": "_fee",
          "type": "uint256"
        }
      ],
      "name": "setSocialEngagementFee",
      "outputs": [],
      "stateMutability": "nonpayable",
      "type": "function"
    },
    {
      "inputs": [
        {
          "internalType": "address",
          "name": "_manager",
          "type": "address"
        }
      ],
      "name": "setSocialEngagementManager",
      "outputs": [],
      "stateMutability": "nonpayable",
      "type": "function"
    },
    {
      "inputs": [
        {
          "internalType": "address",
          "name": "_coordinator",
          "type": "address"
        },
        {
          "internalType": "bytes32",
          "name": "_keyHash",
          "type": "bytes32"
        },
        {
          "internalType": "uint32",
          "name": "_gasLimit",
          "type": "uint32"
        }
      ],
      "name": "setVRFParams",
      "outputs": [],
      "stateMutability": "nonpayable",
      "type": "function"
    },
    {
      "inputs": [],
      "name": "socialEngagementFee",
      "outputs": [
        {
          "internalType": "uint256",
          "name": "",
          "type": "uint256"
        }
      ],
      "stateMutability": "view",
      "type": "function"
    },
    {
      "inputs": [],
      "name": "socialEngagementManager",
      "outputs": [
        {
          "internalType": "address",
          "name": "",
          "type": "address"
        }
      ],
      "stateMutability": "view",
      "type": "function"
    },
    {
      "inputs": [
        {
          "internalType": "uint256",
          "name": "",
          "type": "uint256"
        }
      ],
      "name": "subscriptionConsumerCount",
      "outputs": [
        {
          "internalType": "uint256",
          "name": "",
          "type": "uint256"
        }
      ],
      "stateMutability": "view",
      "type": "function"
    },
    {
      "inputs": [
        {
          "internalType": "bool",
          "name": "_enabled",
          "type": "bool"
        }
      ],
      "name": "toggleCreatorTokenFee",
      "outputs": [],
      "stateMutability": "nonpayable",
      "type": "function"
    },
    {
      "inputs": [
        {
          "internalType": "bool",
          "name": "_enabled",
          "type": "bool"
        }
      ],
      "name": "toggleCreatorTokenGated",
      "outputs": [],
      "stateMutability": "nonpayable",
      "type": "function"
    },
    {
      "inputs": [
        {
          "internalType": "address",
          "name": "newOwner",
          "type": "address"
        }
      ],
      "name": "transferOwnership",
      "outputs": [],
      "stateMutability": "nonpayable",
      "type": "function"
    },
    {
      "inputs": [
        {
          "internalType": "address",
          "name": "_erc721Implementation",
          "type": "address"
        },
        {
          "internalType": "address",
          "name": "_erc1155Implementation",
          "type": "address"
        }
      ],
      "name": "updateNFTFactoryImplementations",
      "outputs": [],
      "stateMutability": "nonpayable",
      "type": "function"
    },
    {
      "inputs": [
        {
          "internalType": "address",
          "name": "_poolImplementation",
          "type": "address"
        }
      ],
      "name": "updatePoolDeployerImplementation",
      "outputs": [],
      "stateMutability": "nonpayable",
      "type": "function"
    },
    {
      "inputs": [
        {
          "internalType": "address",
          "name": "consumer",
          "type": "address"
        },
        {
          "internalType": "uint256",
          "name": "subscriptionId",
          "type": "uint256"
        }
      ],
      "name": "updatePoolToSubscription",
      "outputs": [],
      "stateMutability": "nonpayable",
      "type": "function"
    },
    {
      "inputs": [],
      "name": "vrfCoordinator",
      "outputs": [
        {
          "internalType": "contract VRFCoordinatorV2PlusInterface",
          "name": "",
          "type": "address"
        }
      ],
      "stateMutability": "view",
      "type": "function"
    },
    {
      "inputs": [],
      "name": "vrfSubscriptionId",
      "outputs": [
        {
          "internalType": "uint256",
          "name": "",
          "type": "uint256"
        }
      ],
      "stateMutability": "view",
      "type": "function"
    },
    {
      "inputs": [
        {
          "internalType": "uint256",
          "name": "",
          "type": "uint256"
        }
      ],
      "name": "vrfSubscriptionIds",
      "outputs": [
        {
          "internalType": "uint256",
          "name": "",
          "type": "uint256"
        }
      ],
      "stateMutability": "view",
      "type": "function"
    }
  ],
  "bytecode": "0x60808060405234620001c45760a08162003f728038038091620000238285620001c9565b833981010312620001c457620000398162000203565b60209081830151926200004f6040820162000203565b9060608101519063ffffffff8216809203620001c457608001519261ffff84168403620001c4578492600491600097889182549565ffff0000000060018060a01b031999338b8a161786556040519a8b998a9860018060a01b0391823391167f8be0079c531659141344cd1fd0a4f28419497f9722a3daafe3b4186f6b6457e08b80a3818b54976103e880601055601155612710601255610e1060135562278d0060145564e8d4a51000601555600a60175516978884600154161760015560035516906008541617600855891b169165ffffffffffff19161717845563288688f960e21b83525af1918215620001b957839262000181575b5050806002557f6a2b70dde6ae0193f84b6a9eeb3b0ebdc3a35e99d9167b88c570158dd09cb0f76040519280a2613d599081620002198239f35b90809250813d8311620001b1575b6200019b8183620001c9565b81010312620001ad5751388062000147565b5080fd5b503d6200018f565b6040513d85823e3d90fd5b600080fd5b601f909101601f19168101906001600160401b03821190821017620001ed57604052565b634e487b7160e01b600052604160045260246000fd5b51906001600160a01b0382168203620001c45756fe6080604052600436101561001257600080fd5b60003560e01c8063026cf6011461061a5780630402a28a1461061557806304199eeb14610610578063065426c21461060b5780630cfd049e146106065780630dd87a50146106015780630e3f753a146105fc5780630f6e8673146105f75780630fee72c1146105f257806313e7c9d81461055c5780631a74b3f3146105ed5780631aa3e95d146105e85780631f7dde6e146105e35780632128b928146104a357806324f74697146105de57806325bc4294146105d95780632ba207fe146105d45780632e4a33cb146105cf5780633119049a146105ca5780633329b331146105c55780633d40f28f146105c05780633dc7aad4146105bb578063414e56ca146104e957806341d1de97146105b657806342217404146105b157806344343860146105ac578063483a5f14146105a75780634a2e22d3146105a25780634c0e35b11461059d5780634ef7d22514610598578063524d530b146104625780635557005d14610570578063558a729714610593578063565e3eff1461058e57806356eb00a11461058957806357970e931461058457806359c810c11461057f5780635e7b8eea1461057a57806361728f391461057557806363e3625814610570578063685f9b3f1461056b57806369298b6c146105665780636b90bda9146105615780636c19f9f8146104df5780636d70f7ae1461055c5780636f116a6a146105575780636f6f8c5d1461051b578063715018a614610552578063773b8e901461054d578063787dce3d14610548578063802bb2f0146105435780638d0cbf6a1461053e5780638da5cb5b146105395780638e50e509146105345780639c24ea401461052f5780639c2dcafb1461052a5780639d0f5ef1146105255780639df9897714610520578063a2b327321461051b578063a3e56fa814610516578063aafc51c314610511578063ada5c1321461050c578063b0d9658014610507578063b0fb162f14610502578063b16abdd4146104fd578063b546ba4a146104f8578063b5e1a3c0146104a8578063bacb927e146104f3578063bbbfd288146104ee578063bd12dd64146104e9578063be831919146104e4578063c58fe162146104df578063c84728ef146104da578063c91f0cfc146104d5578063cb2d93ce146104d0578063d1a92288146104cb578063d333aed3146104c6578063d49f66f4146104c1578063d5a6d60c146104bc578063d63843cd146104b7578063d7c77524146104b2578063d88ff1f4146104ad578063d91043f2146104a8578063dd6eba7e146104a3578063de3d9fb714610485578063e449c1841461049e578063e48f37da14610499578063e720c00514610494578063ec644ddd1461048f578063ec66705f1461048a578063ed647d2114610485578063f112bd9914610480578063f25949f91461047b578063f2fde38b14610476578063f45d809a14610471578063f726272c1461046c578063fd62120e14610467578063ff3cd61e146104625763ffe89fc61461045d57600080fd5b6130f4565b6117cc565b61306b565b612fad565b612ea9565b612de6565b612c8f565b612c2d565b612984565b612bf3565b612b83565b612b65565b612a2b565b6129a2565b610d6e565b61214c565b612906565b6127a9565b612780565b61269e565b612675565b6124b0565b612487565b61240f565b6123d2565b6122bb565b611c9b565b6121ae565b611400565b61218d565b61216a565b612113565b6120f5565b6120d1565b61209f565b612081565b612042565b612019565b611cea565b611fcc565b611fa3565b611f85565b611f19565b611efb565b611ed2565b611e66565b611e09565b611daf565b611d63565b611d08565b611cb9565b610c54565b611c72565b611b8a565b611ae4565b6117f5565b611ac6565b611a9d565b611a7f565b611a56565b61196b565b6118b4565b611830565b611796565b611778565b6116d0565b6116a3565b61155e565b6114d1565b611488565b611353565b61113c565b611054565b61102b565b610fbf565b610eb5565b610dcc565b610da8565b610d4b565b610cd1565b610c92565b610b2a565b610b07565b610a0d565b6109d7565b6108ce565b610737565b6106b1565b610693565b34610683576040366003190112610683577f060e9bb7b24700e1f67f61d02209b1fb7e61dcb50699bd88a5004e8649f3e4ec60243560043561065a61324e565b806013558160145561067e6040519283928360209093929193604081019481520152565b0390a1005b600080fd5b600091031261068357565b34610683576000366003190112610683576020601254604051908152f35b34610683576020366003190112610683577facd3908fc55d712582462490cee05d9057e65c26303b042525311532c62d20df60206004356106f061324e565b6106fe61271082111561337a565b80601a55604051908152a1005b600435906001600160a01b038216820361068357565b602435906001600160a01b038216820361068357565b346106835760403660031901126106835761075061070b565b6001600160a01b038181166000908152600660205260409020602435919061078e908290610786905b546001600160a01b031690565b161515613597565b6001600160a01b0383166000908152600e602052604090206107be908390546107b88115156135d6565b14613622565b6107e46107df6107d884600052600c602052604060002090565b5460ff1690565b6134e6565b61080460646107fd84600052600d602052604060002090565b541061366e565b600154610821906001600160a01b03165b6001600160a01b031690565b92833b1561068357604051632fb1302360e21b8152600481018490526001600160a01b038216602482015260009485908290604490829084905af180156108c9576108b0575b5061087c83600052600d602052604060002090565b6108868154613560565b9055167f8b4d66174491b3a6145331b676769c46f933c290811400f713f6dd7e0f7ada9f8380a380f35b806108bd6108c3926132fa565b80610688565b38610867565b61349a565b34610683576020366003190112610683576108e761070b565b6108ef61324e565b6001600160a01b038116801561099257601c5461091690610815906001600160a01b031681565b91823b156106835760405163065bc36f60e01b81526001600160a01b0391909116600482015260009283908290602490829084905af180156108c95761097f575b507f4b841241ca1157d14ee4f0de82ff8f53fe31591f97ca699ca65ffaf45ea07ab58280a280f35b806108bd61098c926132fa565b38610957565b60405162461bcd60e51b815260206004820152601b60248201527f496e76616c696420506f6f6c20696d706c656d656e746174696f6e00000000006044820152606490fd5b3461068357602036600319011261068357600435600052600d6020526020604060002054604051908152f35b8015150361068357565b3461068357602036600319011261068357600435610a2a81610a03565b80610a3361324e565b610a85575b61067e81610a737fbdf23e00552699ae5a512ee5aa85d84b038a9ed4d266ef34f1e887de46896d8d9360ff8019602354169115151617602355565b60405190151581529081906020820190565b60ff6021541615610a385760a460405162461bcd60e51b815260206004820152604460248201527f43616e6e6f7420656e61626c652063726561746f7220746f6b656e206665652060448201527f7768696c652063726561746f7220746f6b656e20676174696e672069732061636064820152637469766560e01b6084820152fd5b34610683576000366003190112610683576020610b22613a91565b604051908152f35b3461068357602036600319011261068357600435610b4661324e565b8015610c0f57610b72610b6d610b696107d884600052600c602052604060002090565b1590565b613986565b610b7b816139d2565b610b9f610b9282600052600c602052604060002090565b805460ff19166001179055565b610bb2610bad600a54613560565b600a55565b600160095414610c01575b7fb2615094a1e63e6d2b94b964165480ab14d38fc7bb17dc29b281e00209d08d5c610bfc610bec600954613a08565b6040519081529081906020820190565b0390a2005b610c0a81600255565b610bbd565b60405162461bcd60e51b815260206004820152601760248201527f496e76616c696420737562736372697074696f6e2049440000000000000000006044820152606490fd5b34610683576020366003190112610683576001600160a01b03610c7561070b565b1660005260208052602060ff604060002054166040519015158152f35b34610683576020366003190112610683576001600160a01b03610cb361070b565b166000526005602052602060ff604060002054166040519015158152f35b3461068357602036600319011261068357600080516020613ce48339815191526080610cfb61070b565b610d0361324e565b60018060a01b0316806001600160601b0360a01b601c541617601c556040519060408252600c60408301526b2837b7b62232b83637bcb2b960a11b60608301526020820152a1005b3461068357600036600319011261068357602060ff602154166040519015158152f35b34610683576020366003190112610683576001600160a01b03610d8f61070b565b16600052600e6020526020604060002054604051908152f35b3461068357600036600319011261068357602063ffffffff60045416604051908152f35b3461068357604036600319011261068357600435602435610deb61324e565b610df6821515613335565b81811115610e4457817faae06c8bb7d45661a4b277b7040cb05af4d0e488b1310072e5d30e9f9fcb8dfe926010558160125561067e6040519283928360209093929193604081019481520152565b60405162461bcd60e51b815260206004820152601c60248201527f4d6178206d7573742062652067726561746572207468616e206d696e000000006044820152606490fd5b602435906001600160601b038216820361068357565b600435906001600160601b038216820361068357565b604036600319011261068357600435610ecc610e89565b90610ed561324e565b600091818352600c602052610ef26107df6040852060ff90541690565b6001600160601b03811690610f088234146137f5565b6001548490610f1f906001600160a01b0316610815565b92833b15610fbb57604051634cf94d8760e01b8152600481018690526001600160601b03841660248201529384916044918391905af19081156108c9577f24761a552e7853f2c57abfbcc0b0e9698da9811db99b96034c7b7fefb067860a92610fa292610fa8575b506040516001600160601b0390911681529081906020820190565b0390a280f35b806108bd610fb5926132fa565b38610f87565b5080fd5b34610683576020366003190112610683577ffd76f8ed4d910bcb9cc812e605a5c8b31f7b84ab658feb2d9bf60de6f7adf0726020610ffb61070b565b61100361324e565b601680546001600160a01b0319166001600160a01b03929092169182179055604051908152a1005b3461068357600036600319011261068357601c546040516001600160a01b039091168152602090f35b346106835760403660031901126106835761106d61070b565b611075610721565b61107d61324e565b6001600160a01b0382811690611094821515613402565b8216916110a283151561344e565b601d546110b990610815906001600160a01b031681565b90813b1561068357604051630d76b84160e21b81526001600160a01b039586166004820152941660248501526000939084908290604490829084905af180156108c957611129575b507f055d29287d43159ed5b46366888181c01552bd982dcbd9380ade3dc5a1069f448380a380f35b806108bd611136926132fa565b38611101565b346106835760403660031901126106835761115561070b565b6001600160a01b03808216600090815260066020526040902060243592919061118390829061078690610779565b61118e8315156135d6565b6001600160a01b0382166000908152600e602052604090206111b49084905b5414613622565b81169060405163c19d93fb60e01b8152602081600481865afa60009181611323575b506112185760405162461bcd60e51b8152602060048201526015602482015274125b9d985b1a59081c1bdbdb0818dbdb9d1c9858dd605a1b6044820152606490fd5b80611225611237926136d2565b6004811490811561130f575b506136f2565b60015461124c906001600160a01b0316610815565b90813b156106835760405163cb63179760e01b8152600481018590526001600160a01b0382166024820152916000908390604490829084905af19081156108c9576000926112d4926112fc575b506112ae85600052600d602052604060002090565b6112b8815461373e565b90556001600160a01b03166000908152600e6020526040902090565b557f46d7f264cf963b550773f629b4cd2668e69e465b630a862303300db477104e9e600080a3005b806108bd611309926132fa565b38611299565b6006915061131c816136d2565b1438611231565b61134591925060203d811161134c575b61133d8183613313565b8101906136ba565b90386111d6565b503d611333565b34610683576000806003193601126113fd5761136d61324e565b60015460405163288688f960e21b8152906020908290600490829086906001600160a01b03165af19081156108c95782916113cf575b50806002557f6a2b70dde6ae0193f84b6a9eeb3b0ebdc3a35e99d9167b88c570158dd09cb0f78280a280f35b6113f0915060203d81116113f6575b6113e88183613313565b810190613588565b386113a3565b503d6113de565b80fd5b3461068357600036600319011261068357602060ff601854166040519015158152f35b634e487b7160e01b600052603260045260246000fd5b600f5481101561145e57600f600052600080516020613d048339815191520190600090565b611423565b60095481101561145e576009600052600080516020613cc48339815191520190600090565b3461068357602036600319011261068357600435600f5481101561068357600f600052600080516020613d0483398151915201546040516001600160a01b039091168152602090f35b34610683576020366003190112610683576004356114ed61324e565b8015611524576020817f51b17c1cf4bad8abd9519f7d72ef52d6ced78524842df41c2e64f2213365d47692601755604051908152a1005b60405162461bcd60e51b81526020600482015260126024820152714d757374206265206174206c65617374203160701b6044820152606490fd5b346106835760403660031901126106835761157761070b565b600460206024356115d460018060a01b03916115ac836107866107798960018060a01b03166000526006602052604060002090565b6115b78115156135d6565b6001600160a01b0386166000908152600e602052604090206111ad565b60405163c19d93fb60e01b8152928391829086165afa60009181611683575b506116355760405162461bcd60e51b8152602060048201526015602482015274125b9d985b1a59081c1bdbdb0818dbdb9d1c9858dd605a1b6044820152606490fd5b60009161165982611648611673946136d2565b6007811490811561167657506136f2565b6001600160a01b03166000908152600e6020526040902090565b55005b6005915061131c816136d2565b61169c91925060203d811161134c5761133d8183613313565b90386115f3565b346106835760003660031901126106835760215460405160089190911c6001600160a01b03168152602090f35b34610683576020366003190112610683576116e961070b565b601d546001600160a01b0391908216330361174057166000818152600560205260408120805460ff19166001179055907feb4d1b1ad6245003e8b460f686262712b4f75c37e82b6aa0f9445acef51699258280a280f35b60405162461bcd60e51b815260206004820152601060248201526f4f6e6c79204e465420666163746f727960801b6044820152606490fd5b34610683576000366003190112610683576020602254604051908152f35b346106835760003660031901126106835760105460115460125460408051938452602084019290925290820152606090f35b0390f35b34610683576000366003190112610683576016546040516001600160a01b039091168152602090f35b346106835760203660031901126106835760206001600160a01b038061181961070b565b166000526006825260406000205416604051908152f35b34610683576040366003190112610683577f966c160e1c4dbc7df8d69af4ace01e9297c3cf016397b7914971f2fbfa32672d604061186c61070b565b6024359061187982610a03565b61188161324e565b60018060a01b0316908160005260208052826000209015159060ff1981541660ff831617905582519182526020820152a1005b34610683576000366003190112610683576020601054604051908152f35b90815180825260208080930193019160005b8281106118f2575050505090565b8351855293810193928101926001016118e4565b93929061191b906060865260608601906118d2565b936020948181038683015285808551928381520194019060005b8181106119555750505061195293945060408184039101526118d2565b90565b8251151586529487019491870191600101611935565b34610683576000806003193601126113fd5760099081549061198c82613b9a565b9161199681613532565b936119a46040519586613313565b818552601f196119b383613532565b013660208701376119c382613b9a565b92805b8381106119dd57604051806117c8878a8a84611906565b611a5190838352611a4081600080516020613cc4833981519152015480611a04848b613574565b52611a30611a1f6107d883600052600c602052604060002090565b611a29858d613574565b9015159052565b600052600d602052604060002090565b54611a4b8288613574565b52613560565b6119c6565b34610683576000366003190112610683576008546040516001600160a01b039091168152602090f35b34610683576000366003190112610683576020601154604051908152f35b346106835760003660031901126106835760135460145460408051928352602083019190915290f35b34610683576000366003190112610683576020600354604051908152f35b3461068357602036600319011261068357600435611b0061324e565b611b0b811515613335565b6012548111611b45576020817f291daec6a47f71c520266280decf6541de28bfc533f4fcb9008ef998e80d6b4392601155604051908152a1005b60405162461bcd60e51b815260206004820152601760248201527f43616e6e6f7420657863656564206d6178206c696d69740000000000000000006044820152606490fd5b3461068357602036600319011261068357600435611ba781610a03565b80611bb061324e565b611bf0575b61067e81610a737fd51f4da6908aaf82430091852ae91fca16288cc00688962b02a4c925e7e5e5e29360ff8019602154169115151617602155565b60ff6023541615611bb55760a460405162461bcd60e51b815260206004820152604460248201527f43616e6e6f7420656e61626c652063726561746f7220746f6b656e206761746960448201527f6e67207768696c652063726561746f7220746f6b656e206665652069732061636064820152637469766560e01b6084820152fd5b3461068357600036600319011261068357601e546040516001600160a01b039091168152602090f35b34610683576000366003190112610683576020601754604051908152f35b3461068357602036600319011261068357600435600052600c602052602060ff604060002054166040519015158152f35b34610683576000366003190112610683576020601554604051908152f35b34610683576000806003193601126113fd57611d2261324e565b80546001600160a01b03198116825581906001600160a01b03167f8be0079c531659141344cd1fd0a4f28419497f9722a3daafe3b4186f6b6457e08280a380f35b34610683576020366003190112610683577f81b14762c94592dd09a55cccc0bd4ee552bbc23f54115e475f4af6ad92ec6b1b6020600435611da261324e565b80601555604051908152a1005b34610683576020366003190112610683577fd10d75876659a287a59a6ccfa2e3fff42f84d94b542837acd30bc184d562de406020600435611dee61324e565b611dfc61271082111561337a565b80601955604051908152a1005b3461068357604036600319011261068357611e2261070b565b60243560018060a01b03611e3b81601c541633146134a6565b600092828452600c602052611e5660ff6040862054166134e6565b168252600e602052604082205580f35b3461068357600060203660031901126113fd57611e8161324e565b60015481906001600160a01b0316803b15611ecf57819060246040518094819363b2a7cac560e01b835260043560048401525af180156108c957611ec3575080f35b611ecc906132fa565b80f35b50fd5b34610683576000366003190112610683576000546040516001600160a01b039091168152602090f35b34610683576000366003190112610683576020601954604051908152f35b34610683576020366003190112610683577fe2d763f65bbed04f8954b0f0a3af42f687469bdd154132ba533accf0f0291a2b6020611f5561070b565b611f5d61324e565b600880546001600160a01b0319166001600160a01b03929092169182179055604051908152a1005b34610683576000366003190112610683576020601454604051908152f35b346106835760003660031901126106835760105460125460408051928352602083019190915290f35b3461068357602036600319011261068357611fe561070b565b611fed61324e565b6001600160a01b03166120018115156132a6565b6001600160601b0360a01b601e541617601e55600080f35b34610683576000366003190112610683576001546040516001600160a01b039091168152602090f35b3461068357602036600319011261068357600435600954811015610683576020906009600052600080516020613cc48339815191520154604051908152f35b34610683576000366003190112610683576020601b54604051908152f35b346106835760003660031901126106835760105460125460175460408051938452602084019290925290820152606090f35b3461068357600036600319011261068357602060045461ffff60405191831c168152f35b34610683576000366003190112610683576020600a54604051908152f35b346106835760203660031901126106835760043561213081610a03565b15612142576020601054604051908152f35b6020601154610b22565b34610683576000366003190112610683576020601a54604051908152f35b3461068357600036600319011261068357602060ff602354166040519015158152f35b34610683576020366003190112610683576121a661324e565b600435601b55005b6020366003190112610683576121c2610e9f565b6121ca61324e565b6001600160601b038116906121e08234146137f5565b6001546002546001600160a01b0390911692833b1561068357604051634cf94d8760e01b815260048101929092526001600160601b03831660248301529092600091849160449183915af19081156108c9577f0148caca16863fb5a77543489023e89a5d3360fe9229a1e6f9d553b800aa91699261067e92610fa857506040516001600160601b0390911681529081906020820190565b6020908160408183019282815285518094520193019160005b82811061229e575050505090565b83516001600160a01b031685529381019392810192600101612290565b34610683576020366003190112610683576122d461070b565b600f908154906122e382613532565b916122f16040519384613313565b808352601f1961230082613532565b0136602085013760009384926001600160a01b0390811691845b84811061233257858752604051806117c88982612277565b818852600080516020613d048339815191528101546001600160a01b031660009081526006602052604090208490849061236b90610779565b1614612380575b61237b90613560565b61231a565b946123ca61237b916123c56123ac6123978a611439565b905460039190911b1c6001600160a01b031690565b6123b6838c613574565b6001600160a01b039091169052565b613560565b959050612372565b346106835760203660031901126106835760206001600160a01b03806123f661070b565b1660005260068252604060002054161515604051908152f35b3461068357602036600319011261068357600080516020613ce4833981519152608061243961070b565b61244161324e565b60018060a01b0316806001600160601b0360a01b601d541617601d556040519060408252600a6040830152694e4654466163746f727960b01b60608301526020820152a1005b3461068357600036600319011261068357601954601a5460408051928352602083019190915290f35b34610683576040366003190112610683576004356124cc610e89565b906124d561324e565b6124ef6107df6107d883600052600c602052604060002090565b600854612504906001600160a01b0316610815565b6040516323b872dd60e01b81523360048201523060248201526001600160601b038416604482015260009360209283908390606490829089905af19182156108c9576125ce9261255b918791612658575b50613bcc565b6008548390612572906001600160a01b0316610815565b600154612587906001600160a01b0316610815565b908388604051936125b1856125a38c8983019190602083019252565b03601f198101875286613313565b604051630200057560e51b815297889586948593600485016138bf565b03925af19283156108c9577f24761a552e7853f2c57abfbcc0b0e9698da9811db99b96034c7b7fefb067860a93610fa29361261192889261262b575b5050613c18565b6040516001600160601b0390911681529081906020820190565b61264a9250803d10612651575b6126428183613313565b810190613838565b388061260a565b503d612638565b61266f9150853d8711612651576126428183613313565b38612555565b3461068357600036600319011261068357601f546040516001600160a01b039091168152602090f35b34610683576020366003190112610683576004356126ba61324e565b600090808252600c6020526126d560ff6040842054166134e6565b808252600d602052604082205461273c576127076126fd82600052600c602052604060002090565b805460ff19169055565b612715610bad600a5461373e565b7fc0d777cb9485c91def1a14a6e7787be4cc14b102d3475a0435ef9639c9c560998280a280f35b606460405162461bcd60e51b815260206004820152602060248201527f537562736372697074696f6e207374696c6c2068617320636f6e73756d6572736044820152fd5b3461068357600036600319011261068357601d546040516001600160a01b039091168152602090f35b3461068357602080600319360112610683576127c3610e9f565b906127cc61324e565b6008546127e1906001600160a01b0316610815565b6040516323b872dd60e01b81523360048201523060248201526001600160601b03841660448201529092828280606481010381600080985af19182156108c957612883926128369186916128e9575b5061384d565b60085483906125a390612851906001600160a01b0316610815565b6001548490889061286a906001600160a01b0316610815565b6125b16002546040519687918983019190602083019252565b03925af19283156108c9577f0148caca16863fb5a77543489023e89a5d3360fe9229a1e6f9d553b800aa9169936128c6936126119287926128cc575b5050613926565b0390a180f35b6128e29250803d10612651576126428183613313565b38806128bf565b6129009150853d8711612651576126428183613313565b38612830565b346106835760003660031901126106835760405180600f5491828152602080910192600f600052600080516020613d04833981519152916000905b828210612964576117c88561295881890382613313565b60405191829182612277565b83546001600160a01b031686529485019460019384019390910190612941565b34610683576000366003190112610683576020600254604051908152f35b3461068357602036600319011261068357600080516020613ce483398151915260806129cc61070b565b6129d461324e565b6001600160a01b03166129e88115156132a6565b806001600160601b0360a01b601f541617601f556040519060408252600f60408301526e14995dd85c991cd19b1e5dda19595b608a1b60608301526020820152a1005b602036600319011261068357612a3f610e9f565b612a4761324e565b6001600160601b03811690612a68612a61600a5484613c64565b3414613c77565b60005b600954811015612b6357612a8b612a8182611463565b90549060031b1c90565b90612aa36107d883600052600c602052604060002090565b612ab7575b612ab29150613560565b612a6b565b600154612acc906001600160a01b0316610815565b91823b156106835760408051634cf94d8760e01b8152600481018390526001600160601b038616602482015293600090859060449082908a905af19081156108c957612ab2947f24761a552e7853f2c57abfbcc0b0e9698da9811db99b96034c7b7fefb067860a92612b50575b50516001600160601b0386168152602090a2612aa8565b806108bd612b5d926132fa565b38612b39565b005b34610683576000366003190112610683576020601354604051908152f35b34610683576000806003193601126113fd57338152600e60205260409020548015612be85760a0905b61ffff600180841b036001541691600354600454916040519485526020850152604084015263ffffffff8116606084015260201c166080820152f35b5060a0600254612bac565b34610683576020366003190112610683576001600160a01b03612c1461070b565b1660005260076020526020604060002054604051908152f35b34610683576020366003190112610683577f3387d2b55c2294aa390fd99c3e1429775aa0e41d3da9f40db18bb3668d2e7c336020600435612c6d81610a03565b612c7561324e565b151560ff196018541660ff821617601855604051908152a1005b346106835760403660031901126106835760043567ffffffffffffffff80821161068357366023830112156106835781600401359081116106835760248201916024823692010111610683576060600080516020613ce48339815191529282612cf6610721565b612cfe61324e565b7f4b35529e56b244d05ef40bce36fd9c95cd911003461d7436e70939aa537dd07d612d2a3684866133bb565b6020815191012014600014612d8e57601c80546001600160a01b0319166001600160a01b0383161790555b604051948593604085528160408601528585013760008383018501526001600160a01b03166020830152601f01601f19168101030190a1005b7fd826c10e37a7770f02c01ddf03373f8c12e6ec73eac52b5d0ff825017dc682ef612dba3684866133bb565b6020815191012003612d5557601d80546001600160a01b0319166001600160a01b038316179055612d55565b3461068357602036600319011261068357612dff61070b565b612e0761324e565b6001600160a01b039081168015612e5557600080546001600160a01b03198116831782559092167f8be0079c531659141344cd1fd0a4f28419497f9722a3daafe3b4186f6b6457e08380a380f35b60405162461bcd60e51b815260206004820152602660248201527f4f776e61626c653a206e6577206f776e657220697320746865207a65726f206160448201526564647265737360d01b6064820152608490fd5b3461068357604036600319011261068357612ec261070b565b602435612ecd61324e565b6001600160a01b03821615612f68578015612f115760218054610100600160a81b03191660089390931b610100600160a81b031692909217909155612b6390602255565b60405162461bcd60e51b815260206004820152602960248201527f4d696e696d756d2062616c616e6365206d7573742062652067726561746572206044820152687468616e207a65726f60b81b6064820152608490fd5b60405162461bcd60e51b815260206004820152601c60248201527f546f6b656e20616464726573732063616e6e6f74206265207a65726f000000006044820152606490fd5b34610683576000806003193601126113fd57612fc761324e565b6001546002548254909183916001600160a01b039081169116803b1561306757604051622b825560e61b815260048101949094526001600160a01b039190911660248401528290604490829084905af180156108c957613054575b5061302d6000600255565b7fad9127d67531701fd4222369e46413ad989a276f8ae432b7a2bb01a147a1be9e8180a180f35b806108bd613061926132fa565b38613022565b8280fd5b346106835760603660031901126106835761308461070b565b6044359063ffffffff82168092036106835761309e61324e565b60018060a01b03166001600160601b0360a01b600154161760015560243560035563ffffffff1960045416176004557f4c6a50dab5e2b4bdf345de73b06a62ca5c45dde34eecef3c38eb568564f6547c600080a1005b346106835760603660031901126106835761310d61070b565b613115610721565b9060018060a01b0361312c81601c541633146134a6565b60405191630f6e867360e01b835260009360208460048188305af19384156108c957859461322a575b506001600160a01b0382166000908152600e602052604090208490556131c09061318085151561374b565b613189836137a3565b6001600160a01b038316600090815260066020526040902080546001600160a01b0319166001600160a01b03909216919091179055565b6001600160a01b0381166000908152600760205260409020604435905516807f9cc152f4650ca2829a210a21551537f4cc4d48c2611ec06974f835e911921b908480a27faefe964a6ba1785c0718ded8476dce9589b858a69235c089b121271e1dae2d938380a380f35b6131c09194506132479060203d81116113f6576113e88183613313565b9390613155565b6000546001600160a01b0316330361326257565b606460405162461bcd60e51b815260206004820152602060248201527f4f776e61626c653a2063616c6c6572206973206e6f7420746865206f776e65726044820152fd5b156132ad57565b60405162461bcd60e51b815260206004820152600f60248201526e496e76616c6964206164647265737360881b6044820152606490fd5b634e487b7160e01b600052604160045260246000fd5b67ffffffffffffffff811161330e57604052565b6132e4565b90601f8019910116810190811067ffffffffffffffff82111761330e57604052565b1561333c57565b60405162461bcd60e51b81526020600482015260166024820152754d696e206d757374206265206174206c65617374203160501b6044820152606490fd5b1561338157565b60405162461bcd60e51b815260206004820152601260248201527143616e6e6f7420657863656564203130302560701b6044820152606490fd5b92919267ffffffffffffffff821161330e57604051916133e5601f8201601f191660200184613313565b829481845281830111610683578281602093846000960137010152565b1561340957565b60405162461bcd60e51b815260206004820152601d60248201527f496e76616c69642045524337323120696d706c656d656e746174696f6e0000006044820152606490fd5b1561345557565b60405162461bcd60e51b815260206004820152601e60248201527f496e76616c6964204552433131353520696d706c656d656e746174696f6e00006044820152606490fd5b6040513d6000823e3d90fd5b156134ad57565b60405162461bcd60e51b815260206004820152601160248201527027b7363c902837b7b62232b83637bcb2b960791b6044820152606490fd5b156134ed57565b60405162461bcd60e51b815260206004820152601760248201527f537562736372697074696f6e206e6f74206163746976650000000000000000006044820152606490fd5b67ffffffffffffffff811161330e5760051b60200190565b634e487b7160e01b600052601160045260246000fd5b600019811461356f5760010190565b61354a565b805182101561145e5760209160051b010190565b90816020910312610683575190565b1561359e57565b60405162461bcd60e51b815260206004820152601060248201526f139bdd0818481d985b1a59081c1bdbdb60821b6044820152606490fd5b156135dd57565b60405162461bcd60e51b815260206004820152601860248201527f4e6f20737562736372697074696f6e2061737369676e656400000000000000006044820152606490fd5b1561362957565b60405162461bcd60e51b815260206004820152601d60248201527f496e76616c696420737562736372697074696f6e20666f7220706f6f6c0000006044820152606490fd5b1561367557565b60405162461bcd60e51b815260206004820152601860248201527f537562736372697074696f6e20617420636170616369747900000000000000006044820152606490fd5b90816020910312610683575160088110156106835790565b600811156136dc57565b634e487b7160e01b600052602160045260246000fd5b156136f957565b60405162461bcd60e51b815260206004820152601e60248201527f506f6f6c206d75737420626520696e207465726d696e616c20737461746500006044820152606490fd5b801561356f576000190190565b1561375257565b60405162461bcd60e51b8152602060048201526024808201527f506f6f6c206d757374206861766520737562736372697074696f6e206173736960448201526319db995960e21b6064820152608490fd5b600f54600160401b81101561330e576001810180600f5581101561145e57600f600052600080516020613d048339815191520180546001600160a01b0319166001600160a01b03909216919091179055565b156137fc57565b60405162461bcd60e51b8152602060048201526014602482015273125b98dbdc9c9958dd0811551208185b5bdd5b9d60621b6044820152606490fd5b90816020910312610683575161195281610a03565b1561385457565b60405162461bcd60e51b815260206004820152603e60248201527f4c494e4b207472616e7366657246726f6d206661696c65642e2044696420796f60448201527f7520617070726f7665207468652050726f746f636f6c4d616e616765723f00006064820152608490fd5b9193929060018060a01b031682526001600160601b0360209416848301526060604083015280519081606084015260005b82811061391257505060809293506000838284010152601f8019910116010190565b8181018601518482016080015285016138f0565b1561392d57565b60405162461bcd60e51b815260206004820152602b60248201527f4c494e4b207472616e73666572416e6443616c6c20746f20636f6f7264696e6160448201526a3a37b9103330b4b632b21760a91b6064820152608490fd5b1561398d57565b60405162461bcd60e51b815260206004820152601a60248201527f537562736372697074696f6e20616c72656164792061646465640000000000006044820152606490fd5b600954600160401b81101561330e57600181018060095581101561145e576009600052600080516020613cc48339815191520155565b60001981019190821161356f57565b15613a1e57565b60405162461bcd60e51b815260206004820152601760248201527f4e6f2061637469766520737562736372697074696f6e730000000000000000006044820152606490fd5b906001820180921161356f57565b8115613a7b570690565b634e487b7160e01b600052601260045260246000fd5b613a9e600a541515613a17565b600b9081549060005b60095480821015613b90578454613ac0612a8182611463565b613ad76107d882600052600c602052604060002090565b80613b72575b613b685750613afb613b009392613af66123c593613a63565b613a71565b600b55565b908284541480613b5f575b613b155790613aa7565b505050505b60405162461bcd60e51b815260206004820152601d60248201527f416c6c20737562736372697074696f6e732061742063617061636974790000006044820152606490fd5b50811515613b0b565b9450505050915090565b506064613b8982600052600d602052604060002090565b5410613add565b5050505050613b1a565b90613ba482613532565b613bb16040519182613313565b8281528092613bc2601f1991613532565b0190602036910137565b15613bd357565b60405162461bcd60e51b815260206004820152601860248201527f4c494e4b207472616e7366657246726f6d206661696c656400000000000000006044820152606490fd5b15613c1f57565b60405162461bcd60e51b815260206004820152601b60248201527f4c494e4b207472616e73666572416e6443616c6c206661696c656400000000006044820152606490fd5b8181029291811591840414171561356f57565b15613c7e57565b60405162461bcd60e51b815260206004820152601a60248201527f496e636f727265637420746f74616c2045544820616d6f756e740000000000006044820152606490fdfe6e1540171b6c0c960b71a7020d9f60077f6af931a8bbf590da0223dacf75c7af1592f515c298c578903964a58733180fe97bdf05860fc70a7e21b61e8cc2d1b18d1108e10bcb7c27dddfc02ed9d693a074039d026cf4ea4240b40f7d581ac802a264697066735822122001af81ff6f0b1552a02eaaf0b0f122dc3195de1a5c454ce422c887e9218bdf2164736f6c63430008130033",
  "linkReferences": {},
  "deployedLinkReferences": {}
}