{
  "_format": "hh-sol-artifact-1",
  "contractName": "ProtocolManager",
  "sourceName": "contracts/ProtocolManager.sol",
  "abi": [
    {
      "inputs": [
        {
          "internalType": "address",
          "name": "_vrfCoordinator",
          "type": "address"
        },
        {
          "internalType": "bytes32",
          "name": "_keyHash",
          "type": "bytes32"
        },
        {
          "internalType": "address",
          "name": "_linkToken",
          "type": "address"
        },
        {
          "internalType": "uint32",
          "name": "_callbackGasLimit",
          "type": "uint32"
        },
        {
          "internalType": "uint16",
          "name": "_requestConfirmations",
          "type": "uint16"
        }
      ],
      "stateMutability": "nonpayable",
      "type": "constructor"
    },
    {
      "anonymous": false,
      "inputs": [
        {
          "indexed": false,
          "internalType": "string",
          "name": "contractType",
          "type": "string"
        },
        {
          "indexed": false,
          "internalType": "address",
          "name": "newAddress",
          "type": "address"
        }
      ],
      "name": "ContractReplaced",
      "type": "event"
    },
    {
      "anonymous": false,
      "inputs": [
        {
          "indexed": false,
          "internalType": "uint256",
          "name": "newPercentage",
          "type": "uint256"
        }
      ],
      "name": "CreationFeePercentageUpdated",
      "type": "event"
    },
    {
      "anonymous": false,
      "inputs": [
        {
          "indexed": false,
          "internalType": "bool",
          "name": "enabled",
          "type": "bool"
        }
      ],
      "name": "CreatorTokenFeeToggled",
      "type": "event"
    },
    {
      "anonymous": false,
      "inputs": [
        {
          "indexed": false,
          "internalType": "uint256",
          "name": "feeAmount",
          "type": "uint256"
        },
        {
          "indexed": false,
          "internalType": "uint256",
          "name": "burnRatio",
          "type": "uint256"
        },
        {
          "indexed": false,
          "internalType": "uint256",
          "name": "revenueRatio",
          "type": "uint256"
        }
      ],
      "name": "CreatorTokenFeeUpdated",
      "type": "event"
    },
    {
      "anonymous": false,
      "inputs": [
        {
          "indexed": false,
          "internalType": "bool",
          "name": "enabled",
          "type": "bool"
        }
      ],
      "name": "CreatorTokenGatedToggled",
      "type": "event"
    },
    {
      "anonymous": false,
      "inputs": [
        {
          "indexed": false,
          "internalType": "uint256",
          "name": "min",
          "type": "uint256"
        },
        {
          "indexed": false,
          "internalType": "uint256",
          "name": "max",
          "type": "uint256"
        }
      ],
      "name": "DurationLimitsUpdated",
      "type": "event"
    },
    {
      "anonymous": false,
      "inputs": [
        {
          "indexed": false,
          "internalType": "uint256",
          "name": "newFee",
          "type": "uint256"
        }
      ],
      "name": "GlobalSlotFeeUpdated",
      "type": "event"
    },
    {
      "anonymous": false,
      "inputs": [
        {
          "indexed": true,
          "internalType": "address",
          "name": "collection",
          "type": "address"
        }
      ],
      "name": "InternalCollectionAdded",
      "type": "event"
    },
    {
      "anonymous": false,
      "inputs": [
        {
          "indexed": false,
          "internalType": "address",
          "name": "newLinkToken",
          "type": "address"
        }
      ],
      "name": "LinkTokenUpdated",
      "type": "event"
    },
    {
      "anonymous": false,
      "inputs": [
        {
          "indexed": false,
          "internalType": "uint256",
          "name": "newLimit",
          "type": "uint256"
        }
      ],
      "name": "MaxSlotsPerParticipantUpdated",
      "type": "event"
    },
    {
      "anonymous": false,
      "inputs": [
        {
          "indexed": false,
          "internalType": "uint256",
          "name": "newMin",
          "type": "uint256"
        }
      ],
      "name": "MinSlotLimitNonPrizedUpdated",
      "type": "event"
    },
    {
      "anonymous": false,
      "inputs": [
        {
          "indexed": true,
          "internalType": "address",
          "name": "erc721Implementation",
          "type": "address"
        },
        {
          "indexed": true,
          "internalType": "address",
          "name": "erc1155Implementation",
          "type": "address"
        }
      ],
      "name": "NFTFactoryImplementationsUpdated",
      "type": "event"
    },
    {
      "anonymous": false,
      "inputs": [
        {
          "indexed": false,
          "internalType": "address",
          "name": "operator",
          "type": "address"
        },
        {
          "indexed": false,
          "internalType": "bool",
          "name": "status",
          "type": "bool"
        }
      ],
      "name": "OperatorUpdated",
      "type": "event"
    },
    {
      "anonymous": false,
      "inputs": [
        {
          "indexed": true,
          "internalType": "address",
          "name": "previousOwner",
          "type": "address"
        },
        {
          "indexed": true,
          "internalType": "address",
          "name": "newOwner",
          "type": "address"
        }
      ],
      "name": "OwnershipTransferred",
      "type": "event"
    },
    {
      "anonymous": false,
      "inputs": [
        {
          "indexed": false,
          "internalType": "bool",
          "name": "paused",
          "type": "bool"
        }
      ],
      "name": "PoolCreationPaused",
      "type": "event"
    },
    {
      "anonymous": false,
      "inputs": [
        {
          "indexed": true,
          "internalType": "address",
          "name": "poolImplementation",
          "type": "address"
        }
      ],
      "name": "PoolDeployerImplementationUpdated",
      "type": "event"
    },
    {
      "anonymous": false,
      "inputs": [
        {
          "indexed": true,
          "internalType": "address",
          "name": "pool",
          "type": "address"
        }
      ],
      "name": "PoolRegistered",
      "type": "event"
    },
    {
      "anonymous": false,
      "inputs": [
        {
          "indexed": false,
          "internalType": "uint256",
          "name": "newPercentage",
          "type": "uint256"
        }
      ],
      "name": "ProtocolFeeUpdated",
      "type": "event"
    },
    {
      "anonymous": false,
      "inputs": [
        {
          "indexed": false,
          "internalType": "address",
          "name": "newAddress",
          "type": "address"
        }
      ],
      "name": "RevenueManagerUpdated",
      "type": "event"
    },
    {
      "anonymous": false,
      "inputs": [
        {
          "indexed": false,
          "internalType": "uint256",
          "name": "minSlotLimit",
          "type": "uint256"
        },
        {
          "indexed": false,
          "internalType": "uint256",
          "name": "maxSlotLimit",
          "type": "uint256"
        }
      ],
      "name": "SlotLimitsUpdated",
      "type": "event"
    },
    {
      "anonymous": false,
      "inputs": [
        {
          "indexed": true,
          "internalType": "uint256",
          "name": "subscriptionId",
          "type": "uint256"
        }
      ],
      "name": "SubscriptionCreated",
      "type": "event"
    },
    {
      "anonymous": false,
      "inputs": [
        {
          "indexed": false,
          "internalType": "uint96",
          "name": "amount",
          "type": "uint96"
        }
      ],
      "name": "SubscriptionFunded",
      "type": "event"
    },
    {
      "anonymous": false,
      "inputs": [
        {
          "indexed": true,
          "internalType": "uint256",
          "name": "subscriptionId",
          "type": "uint256"
        },
        {
          "indexed": false,
          "internalType": "uint96",
          "name": "amount",
          "type": "uint96"
        }
      ],
      "name": "SubscriptionFundedWithDetails",
      "type": "event"
    },
    {
      "anonymous": false,
      "inputs": [
        {
          "indexed": true,
          "internalType": "address",
          "name": "pool",
          "type": "address"
        },
        {
          "indexed": true,
          "internalType": "uint256",
          "name": "assignedSubscriptionId",
          "type": "uint256"
        }
      ],
      "name": "SubscriptionPreAssigned",
      "type": "event"
    },
    {
      "anonymous": false,
      "inputs": [
        {
          "indexed": true,
          "internalType": "address",
          "name": "consumer",
          "type": "address"
        }
      ],
      "name": "VRFConsumerAdded",
      "type": "event"
    },
    {
      "anonymous": false,
      "inputs": [
        {
          "indexed": true,
          "internalType": "address",
          "name": "consumer",
          "type": "address"
        },
        {
          "indexed": true,
          "internalType": "uint256",
          "name": "subscriptionId",
          "type": "uint256"
        }
      ],
      "name": "VRFConsumerAddedToSubscription",
      "type": "event"
    },
    {
      "anonymous": false,
      "inputs": [
        {
          "indexed": true,
          "internalType": "address",
          "name": "consumer",
          "type": "address"
        }
      ],
      "name": "VRFConsumerRemoved",
      "type": "event"
    },
    {
      "anonymous": false,
      "inputs": [
        {
          "indexed": true,
          "internalType": "address",
          "name": "consumer",
          "type": "address"
        },
        {
          "indexed": true,
          "internalType": "uint256",
          "name": "subscriptionId",
          "type": "uint256"
        }
      ],
      "name": "VRFConsumerRemovedFromSubscription",
      "type": "event"
    },
    {
      "anonymous": false,
      "inputs": [],
      "name": "VRFParamsUpdated",
      "type": "event"
    },
    {
      "anonymous": false,
      "inputs": [
        {
          "indexed": true,
          "internalType": "uint256",
          "name": "subscriptionId",
          "type": "uint256"
        },
        {
          "indexed": false,
          "internalType": "uint256",
          "name": "index",
          "type": "uint256"
        }
      ],
      "name": "VRFSubscriptionAdded",
      "type": "event"
    },
    {
      "anonymous": false,
      "inputs": [],
      "name": "VRFSubscriptionCancelled",
      "type": "event"
    },
    {
      "anonymous": false,
      "inputs": [
        {
          "indexed": true,
          "internalType": "uint256",
          "name": "subscriptionId",
          "type": "uint256"
        }
      ],
      "name": "VRFSubscriptionRemoved",
      "type": "event"
    },
    {
      "inputs": [
        {
          "internalType": "uint256",
          "name": "subscriptionId",
          "type": "uint256"
        }
      ],
      "name": "acceptVRFOwnership",
      "outputs": [],
      "stateMutability": "nonpayable",
      "type": "function"
    },
    {
      "inputs": [],
      "name": "activeSubscriptionCount",
      "outputs": [
        {
          "internalType": "uint256",
          "name": "",
          "type": "uint256"
        }
      ],
      "stateMutability": "view",
      "type": "function"
    },
    {
      "inputs": [
        {
          "internalType": "address",
          "name": "_collection",
          "type": "address"
        }
      ],
      "name": "addInternalCollection",
      "outputs": [],
      "stateMutability": "nonpayable",
      "type": "function"
    },
    {
      "inputs": [
        {
          "internalType": "address",
          "name": "consumer",
          "type": "address"
        },
        {
          "internalType": "uint256",
          "name": "subscriptionId",
          "type": "uint256"
        }
      ],
      "name": "addVRFConsumer",
      "outputs": [],
      "stateMutability": "nonpayable",
      "type": "function"
    },
    {
      "inputs": [
        {
          "internalType": "uint256",
          "name": "subscriptionId",
          "type": "uint256"
        }
      ],
      "name": "addVRFSubscription",
      "outputs": [],
      "stateMutability": "nonpayable",
      "type": "function"
    },
    {
      "inputs": [
        {
          "internalType": "uint256",
          "name": "",
          "type": "uint256"
        }
      ],
      "name": "allPools",
      "outputs": [
        {
          "internalType": "address",
          "name": "",
          "type": "address"
        }
      ],
      "stateMutability": "view",
      "type": "function"
    },
    {
      "inputs": [
        {
          "internalType": "address",
          "name": "pool",
          "type": "address"
        },
        {
          "internalType": "address",
          "name": "creator",
          "type": "address"
        },
        {
          "internalType": "uint256",
          "name": "timestamp",
          "type": "uint256"
        }
      ],
      "name": "batchSetupPool",
      "outputs": [],
      "stateMutability": "nonpayable",
      "type": "function"
    },
    {
      "inputs": [],
      "name": "callbackGasLimit",
      "outputs": [
        {
          "internalType": "uint32",
          "name": "",
          "type": "uint32"
        }
      ],
      "stateMutability": "view",
      "type": "function"
    },
    {
      "inputs": [],
      "name": "cancelVRFSubscription",
      "outputs": [],
      "stateMutability": "nonpayable",
      "type": "function"
    },
    {
      "inputs": [],
      "name": "createVRFSubscription",
      "outputs": [],
      "stateMutability": "nonpayable",
      "type": "function"
    },
    {
      "inputs": [],
      "name": "creationFeePercentage",
      "outputs": [
        {
          "internalType": "uint256",
          "name": "",
          "type": "uint256"
        }
      ],
      "stateMutability": "view",
      "type": "function"
    },
    {
      "inputs": [],
      "name": "creationPaused",
      "outputs": [
        {
          "internalType": "bool",
          "name": "",
          "type": "bool"
        }
      ],
      "stateMutability": "view",
      "type": "function"
    },
    {
      "inputs": [],
      "name": "creatorToken",
      "outputs": [
        {
          "internalType": "address",
          "name": "",
          "type": "address"
        }
      ],
      "stateMutability": "view",
      "type": "function"
    },
    {
      "inputs": [],
      "name": "creatorTokenFeeAmount",
      "outputs": [
        {
          "internalType": "uint256",
          "name": "",
          "type": "uint256"
        }
      ],
      "stateMutability": "view",
      "type": "function"
    },
    {
      "inputs": [
        {
          "internalType": "uint96",
          "name": "amountPerSubscription",
          "type": "uint96"
        }
      ],
      "name": "fundAllSubscriptionsWithNative",
      "outputs": [],
      "stateMutability": "payable",
      "type": "function"
    },
    {
      "inputs": [
        {
          "internalType": "uint96",
          "name": "amount",
          "type": "uint96"
        }
      ],
      "name": "fundVRFSubscriptionWithLink",
      "outputs": [],
      "stateMutability": "nonpayable",
      "type": "function"
    },
    {
      "inputs": [
        {
          "internalType": "uint256",
          "name": "subscriptionId",
          "type": "uint256"
        },
        {
          "internalType": "uint96",
          "name": "amount",
          "type": "uint96"
        }
      ],
      "name": "fundVRFSubscriptionWithLinkById",
      "outputs": [],
      "stateMutability": "nonpayable",
      "type": "function"
    },
    {
      "inputs": [
        {
          "internalType": "uint96",
          "name": "amount",
          "type": "uint96"
        }
      ],
      "name": "fundVRFSubscriptionWithNative",
      "outputs": [],
      "stateMutability": "payable",
      "type": "function"
    },
    {
      "inputs": [
        {
          "internalType": "uint256",
          "name": "subscriptionId",
          "type": "uint256"
        },
        {
          "internalType": "uint96",
          "name": "amount",
          "type": "uint96"
        }
      ],
      "name": "fundVRFSubscriptionWithNativeById",
      "outputs": [],
      "stateMutability": "payable",
      "type": "function"
    },
    {
      "inputs": [],
      "name": "getAllPools",
      "outputs": [
        {
          "internalType": "address[]",
          "name": "",
          "type": "address[]"
        }
      ],
      "stateMutability": "view",
      "type": "function"
    },
    {
      "inputs": [],
      "name": "getAllSlotLimits",
      "outputs": [
        {
          "internalType": "uint256",
          "name": "minPrized",
          "type": "uint256"
        },
        {
          "internalType": "uint256",
          "name": "minNonPrized",
          "type": "uint256"
        },
        {
          "internalType": "uint256",
          "name": "max",
          "type": "uint256"
        }
      ],
      "stateMutability": "view",
      "type": "function"
    },
    {
      "inputs": [],
      "name": "getAllSubscriptions",
      "outputs": [
        {
          "internalType": "uint256[]",
          "name": "ids",
          "type": "uint256[]"
        },
        {
          "internalType": "bool[]",
          "name": "active",
          "type": "bool[]"
        },
        {
          "internalType": "uint256[]",
          "name": "consumerCounts",
          "type": "uint256[]"
        }
      ],
      "stateMutability": "view",
      "type": "function"
    },
    {
      "inputs": [],
      "name": "getCreationFeePercentage",
      "outputs": [
        {
          "internalType": "uint256",
          "name": "",
          "type": "uint256"
        }
      ],
      "stateMutability": "view",
      "type": "function"
    },
    {
      "inputs": [],
      "name": "getDurationLimits",
      "outputs": [
        {
          "internalType": "uint256",
          "name": "",
          "type": "uint256"
        },
        {
          "internalType": "uint256",
          "name": "",
          "type": "uint256"
        }
      ],
      "stateMutability": "view",
      "type": "function"
    },
    {
      "inputs": [],
      "name": "getMaxSlotsPerParticipant",
      "outputs": [
        {
          "internalType": "uint256",
          "name": "",
          "type": "uint256"
        }
      ],
      "stateMutability": "view",
      "type": "function"
    },
    {
      "inputs": [
        {
          "internalType": "bool",
          "name": "isPrized",
          "type": "bool"
        }
      ],
      "name": "getMinSlotLimit",
      "outputs": [
        {
          "internalType": "uint256",
          "name": "",
          "type": "uint256"
        }
      ],
      "stateMutability": "view",
      "type": "function"
    },
    {
      "inputs": [],
      "name": "getNextVRFSubscription",
      "outputs": [
        {
          "internalType": "uint256",
          "name": "",
          "type": "uint256"
        }
      ],
      "stateMutability": "nonpayable",
      "type": "function"
    },
    {
      "inputs": [],
      "name": "getPoolConfig",
      "outputs": [
        {
          "internalType": "uint256",
          "name": "",
          "type": "uint256"
        },
        {
          "internalType": "uint256",
          "name": "",
          "type": "uint256"
        },
        {
          "internalType": "uint256",
          "name": "",
          "type": "uint256"
        }
      ],
      "stateMutability": "view",
      "type": "function"
    },
    {
      "inputs": [
        {
          "internalType": "address",
          "name": "pool",
          "type": "address"
        }
      ],
      "name": "getPoolCreator",
      "outputs": [
        {
          "internalType": "address",
          "name": "",
          "type": "address"
        }
      ],
      "stateMutability": "view",
      "type": "function"
    },
    {
      "inputs": [
        {
          "internalType": "address",
          "name": "pool",
          "type": "address"
        }
      ],
      "name": "getPoolSubscription",
      "outputs": [
        {
          "internalType": "uint256",
          "name": "",
          "type": "uint256"
        }
      ],
      "stateMutability": "view",
      "type": "function"
    },
    {
      "inputs": [
        {
          "internalType": "address",
          "name": "creator",
          "type": "address"
        }
      ],
      "name": "getPoolsByCreator",
      "outputs": [
        {
          "internalType": "address[]",
          "name": "",
          "type": "address[]"
        }
      ],
      "stateMutability": "view",
      "type": "function"
    },
    {
      "inputs": [],
      "name": "getRevenueManager",
      "outputs": [
        {
          "internalType": "address",
          "name": "",
          "type": "address"
        }
      ],
      "stateMutability": "view",
      "type": "function"
    },
    {
      "inputs": [],
      "name": "getRevenueParameters",
      "outputs": [
        {
          "internalType": "uint256",
          "name": "_protocolFee",
          "type": "uint256"
        },
        {
          "internalType": "uint256",
          "name": "_creationFeePercentage",
          "type": "uint256"
        }
      ],
      "stateMutability": "view",
      "type": "function"
    },
    {
      "inputs": [],
      "name": "getSlotFee",
      "outputs": [
        {
          "internalType": "uint256",
          "name": "",
          "type": "uint256"
        }
      ],
      "stateMutability": "view",
      "type": "function"
    },
    {
      "inputs": [],
      "name": "getSlotLimits",
      "outputs": [
        {
          "internalType": "uint256",
          "name": "",
          "type": "uint256"
        },
        {
          "internalType": "uint256",
          "name": "",
          "type": "uint256"
        }
      ],
      "stateMutability": "view",
      "type": "function"
    },
    {
      "inputs": [],
      "name": "getSubscriptionId",
      "outputs": [
        {
          "internalType": "uint256",
          "name": "",
          "type": "uint256"
        }
      ],
      "stateMutability": "view",
      "type": "function"
    },
    {
      "inputs": [],
      "name": "getVRFParams",
      "outputs": [
        {
          "internalType": "address",
          "name": "",
          "type": "address"
        },
        {
          "internalType": "uint256",
          "name": "",
          "type": "uint256"
        },
        {
          "internalType": "bytes32",
          "name": "",
          "type": "bytes32"
        },
        {
          "internalType": "uint32",
          "name": "",
          "type": "uint32"
        },
        {
          "internalType": "uint16",
          "name": "",
          "type": "uint16"
        }
      ],
      "stateMutability": "view",
      "type": "function"
    },
    {
      "inputs": [],
      "name": "globalSlotFee",
      "outputs": [
        {
          "internalType": "uint256",
          "name": "",
          "type": "uint256"
        }
      ],
      "stateMutability": "view",
      "type": "function"
    },
    {
      "inputs": [
        {
          "internalType": "uint256",
          "name": "",
          "type": "uint256"
        }
      ],
      "name": "isActiveSubscription",
      "outputs": [
        {
          "internalType": "bool",
          "name": "",
          "type": "bool"
        }
      ],
      "stateMutability": "view",
      "type": "function"
    },
    {
      "inputs": [],
      "name": "isCreationPaused",
      "outputs": [
        {
          "internalType": "bool",
          "name": "",
          "type": "bool"
        }
      ],
      "stateMutability": "view",
      "type": "function"
    },
    {
      "inputs": [],
      "name": "isCreatorTokenFeeEnabled",
      "outputs": [
        {
          "internalType": "bool",
          "name": "",
          "type": "bool"
        }
      ],
      "stateMutability": "view",
      "type": "function"
    },
    {
      "inputs": [],
      "name": "isCreatorTokenGated",
      "outputs": [
        {
          "internalType": "bool",
          "name": "",
          "type": "bool"
        }
      ],
      "stateMutability": "view",
      "type": "function"
    },
    {
      "inputs": [
        {
          "internalType": "address",
          "name": "",
          "type": "address"
        }
      ],
      "name": "isInternalCollection",
      "outputs": [
        {
          "internalType": "bool",
          "name": "",
          "type": "bool"
        }
      ],
      "stateMutability": "view",
      "type": "function"
    },
    {
      "inputs": [
        {
          "internalType": "address",
          "name": "operator",
          "type": "address"
        }
      ],
      "name": "isOperator",
      "outputs": [
        {
          "internalType": "bool",
          "name": "",
          "type": "bool"
        }
      ],
      "stateMutability": "view",
      "type": "function"
    },
    {
      "inputs": [
        {
          "internalType": "address",
          "name": "_address",
          "type": "address"
        }
      ],
      "name": "isPoolContract",
      "outputs": [
        {
          "internalType": "bool",
          "name": "",
          "type": "bool"
        }
      ],
      "stateMutability": "view",
      "type": "function"
    },
    {
      "inputs": [],
      "name": "keyHash",
      "outputs": [
        {
          "internalType": "bytes32",
          "name": "",
          "type": "bytes32"
        }
      ],
      "stateMutability": "view",
      "type": "function"
    },
    {
      "inputs": [],
      "name": "linkToken",
      "outputs": [
        {
          "internalType": "contract ILinkTransferAndCall",
          "name": "",
          "type": "address"
        }
      ],
      "stateMutability": "view",
      "type": "function"
    },
    {
      "inputs": [],
      "name": "maxPoolDuration",
      "outputs": [
        {
          "internalType": "uint256",
          "name": "",
          "type": "uint256"
        }
      ],
      "stateMutability": "view",
      "type": "function"
    },
    {
      "inputs": [],
      "name": "maxSlotLimit",
      "outputs": [
        {
          "internalType": "uint256",
          "name": "",
          "type": "uint256"
        }
      ],
      "stateMutability": "view",
      "type": "function"
    },
    {
      "inputs": [],
      "name": "maxSlotsPerParticipant",
      "outputs": [
        {
          "internalType": "uint256",
          "name": "",
          "type": "uint256"
        }
      ],
      "stateMutability": "view",
      "type": "function"
    },
    {
      "inputs": [],
      "name": "minCreatorTokenBalance",
      "outputs": [
        {
          "internalType": "uint256",
          "name": "",
          "type": "uint256"
        }
      ],
      "stateMutability": "view",
      "type": "function"
    },
    {
      "inputs": [],
      "name": "minPoolDuration",
      "outputs": [
        {
          "internalType": "uint256",
          "name": "",
          "type": "uint256"
        }
      ],
      "stateMutability": "view",
      "type": "function"
    },
    {
      "inputs": [],
      "name": "minSlotLimit",
      "outputs": [
        {
          "internalType": "uint256",
          "name": "",
          "type": "uint256"
        }
      ],
      "stateMutability": "view",
      "type": "function"
    },
    {
      "inputs": [],
      "name": "minSlotLimitNonPrized",
      "outputs": [
        {
          "internalType": "uint256",
          "name": "",
          "type": "uint256"
        }
      ],
      "stateMutability": "view",
      "type": "function"
    },
    {
      "inputs": [],
      "name": "nftFactory",
      "outputs": [
        {
          "internalType": "address",
          "name": "",
          "type": "address"
        }
      ],
      "stateMutability": "view",
      "type": "function"
    },
    {
      "inputs": [
        {
          "internalType": "address",
          "name": "",
          "type": "address"
        }
      ],
      "name": "operators",
      "outputs": [
        {
          "internalType": "bool",
          "name": "",
          "type": "bool"
        }
      ],
      "stateMutability": "view",
      "type": "function"
    },
    {
      "inputs": [],
      "name": "owner",
      "outputs": [
        {
          "internalType": "address",
          "name": "",
          "type": "address"
        }
      ],
      "stateMutability": "view",
      "type": "function"
    },
    {
      "inputs": [
        {
          "internalType": "bool",
          "name": "pause",
          "type": "bool"
        }
      ],
      "name": "pausePoolCreation",
      "outputs": [],
      "stateMutability": "nonpayable",
      "type": "function"
    },
    {
      "inputs": [
        {
          "internalType": "address",
          "name": "",
          "type": "address"
        }
      ],
      "name": "poolCreationTimestamps",
      "outputs": [
        {
          "internalType": "uint256",
          "name": "",
          "type": "uint256"
        }
      ],
      "stateMutability": "view",
      "type": "function"
    },
    {
      "inputs": [
        {
          "internalType": "address",
          "name": "",
          "type": "address"
        }
      ],
      "name": "poolCreators",
      "outputs": [
        {
          "internalType": "address",
          "name": "",
          "type": "address"
        }
      ],
      "stateMutability": "view",
      "type": "function"
    },
    {
      "inputs": [],
      "name": "poolDeployer",
      "outputs": [
        {
          "internalType": "address",
          "name": "",
          "type": "address"
        }
      ],
      "stateMutability": "view",
      "type": "function"
    },
    {
      "inputs": [
        {
          "internalType": "address",
          "name": "",
          "type": "address"
        }
      ],
      "name": "poolToSubscriptionId",
      "outputs": [
        {
          "internalType": "uint256",
          "name": "",
          "type": "uint256"
        }
      ],
      "stateMutability": "view",
      "type": "function"
    },
    {
      "inputs": [
        {
          "internalType": "address",
          "name": "pool",
          "type": "address"
        },
        {
          "internalType": "uint256",
          "name": "subscriptionId",
          "type": "uint256"
        }
      ],
      "name": "preAssignSubscription",
      "outputs": [],
      "stateMutability": "nonpayable",
      "type": "function"
    },
    {
      "inputs": [],
      "name": "protocolFeePercentage",
      "outputs": [
        {
          "internalType": "uint256",
          "name": "",
          "type": "uint256"
        }
      ],
      "stateMutability": "view",
      "type": "function"
    },
    {
      "inputs": [
        {
          "internalType": "address",
          "name": "consumer",
          "type": "address"
        },
        {
          "internalType": "uint256",
          "name": "subscriptionId",
          "type": "uint256"
        }
      ],
      "name": "removeVRFConsumer",
      "outputs": [],
      "stateMutability": "nonpayable",
      "type": "function"
    },
    {
      "inputs": [
        {
          "internalType": "uint256",
          "name": "subscriptionId",
          "type": "uint256"
        }
      ],
      "name": "removeVRFSubscription",
      "outputs": [],
      "stateMutability": "nonpayable",
      "type": "function"
    },
    {
      "inputs": [],
      "name": "renounceOwnership",
      "outputs": [],
      "stateMutability": "nonpayable",
      "type": "function"
    },
    {
      "inputs": [
        {
          "internalType": "string",
          "name": "contractType",
          "type": "string"
        },
        {
          "internalType": "address",
          "name": "newAddress",
          "type": "address"
        }
      ],
      "name": "replaceContract",
      "outputs": [],
      "stateMutability": "nonpayable",
      "type": "function"
    },
    {
      "inputs": [],
      "name": "requestConfirmations",
      "outputs": [
        {
          "internalType": "uint16",
          "name": "",
          "type": "uint16"
        }
      ],
      "stateMutability": "view",
      "type": "function"
    },
    {
      "inputs": [],
      "name": "revenueManager",
      "outputs": [
        {
          "internalType": "address",
          "name": "",
          "type": "address"
        }
      ],
      "stateMutability": "view",
      "type": "function"
    },
    {
      "inputs": [
        {
          "internalType": "uint256",
          "name": "_percentage",
          "type": "uint256"
        }
      ],
      "name": "setCreationFeePercentage",
      "outputs": [],
      "stateMutability": "nonpayable",
      "type": "function"
    },
    {
      "inputs": [
        {
          "internalType": "address",
          "name": "_token",
          "type": "address"
        },
        {
          "internalType": "uint256",
          "name": "_minBalance",
          "type": "uint256"
        }
      ],
      "name": "setCreatorToken",
      "outputs": [],
      "stateMutability": "nonpayable",
      "type": "function"
    },
    {
      "inputs": [
        {
          "internalType": "uint256",
          "name": "_min",
          "type": "uint256"
        },
        {
          "internalType": "uint256",
          "name": "_max",
          "type": "uint256"
        }
      ],
      "name": "setDurationLimits",
      "outputs": [],
      "stateMutability": "nonpayable",
      "type": "function"
    },
    {
      "inputs": [
        {
          "internalType": "uint256",
          "name": "_fee",
          "type": "uint256"
        }
      ],
      "name": "setGlobalSlotFee",
      "outputs": [],
      "stateMutability": "nonpayable",
      "type": "function"
    },
    {
      "inputs": [
        {
          "internalType": "address",
          "name": "_linkToken",
          "type": "address"
        }
      ],
      "name": "setLinkToken",
      "outputs": [],
      "stateMutability": "nonpayable",
      "type": "function"
    },
    {
      "inputs": [
        {
          "internalType": "uint256",
          "name": "_maxSlots",
          "type": "uint256"
        }
      ],
      "name": "setMaxSlotsPerParticipant",
      "outputs": [],
      "stateMutability": "nonpayable",
      "type": "function"
    },
    {
      "inputs": [
        {
          "internalType": "uint256",
          "name": "_min",
          "type": "uint256"
        }
      ],
      "name": "setMinSlotLimitNonPrized",
      "outputs": [],
      "stateMutability": "nonpayable",
      "type": "function"
    },
    {
      "inputs": [
        {
          "internalType": "address",
          "name": "_nftFactory",
          "type": "address"
        }
      ],
      "name": "setNFTFactory",
      "outputs": [],
      "stateMutability": "nonpayable",
      "type": "function"
    },
    {
      "inputs": [
        {
          "internalType": "address",
          "name": "operator",
          "type": "address"
        },
        {
          "internalType": "bool",
          "name": "status",
          "type": "bool"
        }
      ],
      "name": "setOperator",
      "outputs": [],
      "stateMutability": "nonpayable",
      "type": "function"
    },
    {
      "inputs": [
        {
          "internalType": "address",
          "name": "_poolDeployer",
          "type": "address"
        }
      ],
      "name": "setPoolDeployer",
      "outputs": [],
      "stateMutability": "nonpayable",
      "type": "function"
    },
    {
      "inputs": [
        {
          "internalType": "uint256",
          "name": "_percentage",
          "type": "uint256"
        }
      ],
      "name": "setProtocolFee",
      "outputs": [],
      "stateMutability": "nonpayable",
      "type": "function"
    },
    {
      "inputs": [
        {
          "internalType": "address",
          "name": "_revenueManager",
          "type": "address"
        }
      ],
      "name": "setRevenueManager",
      "outputs": [],
      "stateMutability": "nonpayable",
      "type": "function"
    },
    {
      "inputs": [
        {
          "internalType": "uint256",
          "name": "_min",
          "type": "uint256"
        },
        {
          "internalType": "uint256",
          "name": "_max",
          "type": "uint256"
        }
      ],
      "name": "setSlotLimits",
      "outputs": [],
      "stateMutability": "nonpayable",
      "type": "function"
    },
    {
      "inputs": [
        {
          "internalType": "uint256",
          "name": "_fee",
          "type": "uint256"
        }
      ],
      "name": "setSocialEngagementFee",
      "outputs": [],
      "stateMutability": "nonpayable",
      "type": "function"
    },
    {
      "inputs": [
        {
          "internalType": "address",
          "name": "_manager",
          "type": "address"
        }
      ],
      "name": "setSocialEngagementManager",
      "outputs": [],
      "stateMutability": "nonpayable",
      "type": "function"
    },
    {
      "inputs": [
        {
          "internalType": "address",
          "name": "_coordinator",
          "type": "address"
        },
        {
          "internalType": "bytes32",
          "name": "_keyHash",
          "type": "bytes32"
        },
        {
          "internalType": "uint32",
          "name": "_gasLimit",
          "type": "uint32"
        }
      ],
      "name": "setVRFParams",
      "outputs": [],
      "stateMutability": "nonpayable",
      "type": "function"
    },
    {
      "inputs": [],
      "name": "socialEngagementFee",
      "outputs": [
        {
          "internalType": "uint256",
          "name": "",
          "type": "uint256"
        }
      ],
      "stateMutability": "view",
      "type": "function"
    },
    {
      "inputs": [],
      "name": "socialEngagementManager",
      "outputs": [
        {
          "internalType": "address",
          "name": "",
          "type": "address"
        }
      ],
      "stateMutability": "view",
      "type": "function"
    },
    {
      "inputs": [
        {
          "internalType": "uint256",
          "name": "",
          "type": "uint256"
        }
      ],
      "name": "subscriptionConsumerCount",
      "outputs": [
        {
          "internalType": "uint256",
          "name": "",
          "type": "uint256"
        }
      ],
      "stateMutability": "view",
      "type": "function"
    },
    {
      "inputs": [
        {
          "internalType": "bool",
          "name": "_enabled",
          "type": "bool"
        }
      ],
      "name": "toggleCreatorTokenFee",
      "outputs": [],
      "stateMutability": "nonpayable",
      "type": "function"
    },
    {
      "inputs": [
        {
          "internalType": "bool",
          "name": "_enabled",
          "type": "bool"
        }
      ],
      "name": "toggleCreatorTokenGated",
      "outputs": [],
      "stateMutability": "nonpayable",
      "type": "function"
    },
    {
      "inputs": [
        {
          "internalType": "address",
          "name": "newOwner",
          "type": "address"
        }
      ],
      "name": "transferOwnership",
      "outputs": [],
      "stateMutability": "nonpayable",
      "type": "function"
    },
    {
      "inputs": [
        {
          "internalType": "address",
          "name": "_erc721Implementation",
          "type": "address"
        },
        {
          "internalType": "address",
          "name": "_erc1155Implementation",
          "type": "address"
        }
      ],
      "name": "updateNFTFactoryImplementations",
      "outputs": [],
      "stateMutability": "nonpayable",
      "type": "function"
    },
    {
      "inputs": [
        {
          "internalType": "address",
          "name": "_poolImplementation",
          "type": "address"
        }
      ],
      "name": "updatePoolDeployerImplementation",
      "outputs": [],
      "stateMutability": "nonpayable",
      "type": "function"
    },
    {
      "inputs": [],
      "name": "vrfCoordinator",
      "outputs": [
        {
          "internalType": "contract VRFCoordinatorV2PlusInterface",
          "name": "",
          "type": "address"
        }
      ],
      "stateMutability": "view",
      "type": "function"
    },
    {
      "inputs": [],
      "name": "vrfSubscriptionId",
      "outputs": [
        {
          "internalType": "uint256",
          "name": "",
          "type": "uint256"
        }
      ],
      "stateMutability": "view",
      "type": "function"
    },
    {
      "inputs": [
        {
          "internalType": "uint256",
          "name": "",
          "type": "uint256"
        }
      ],
      "name": "vrfSubscriptionIds",
      "outputs": [
        {
          "internalType": "uint256",
          "name": "",
          "type": "uint256"
        }
      ],
      "stateMutability": "view",
      "type": "function"
    }
  ],
  "bytecode": "0x60808060405234620001c45760a08162003dd08038038091620000238285620001c9565b833981010312620001c457620000398162000203565b60209081830151926200004f6040820162000203565b9060608101519063ffffffff8216809203620001c457608001519261ffff84168403620001c4578492600491600097889182549565ffff0000000060018060a01b031999338b8a161786556040519a8b998a9860018060a01b0391823391167f8be0079c531659141344cd1fd0a4f28419497f9722a3daafe3b4186f6b6457e08b80a3818b54976103e880601055601155612710601255610e1060135562278d0060145564e8d4a51000601555600a60175516978884600154161760015560035516906008541617600855891b169165ffffffffffff19161717845563288688f960e21b83525af1918215620001b957839262000181575b5050806002557f6a2b70dde6ae0193f84b6a9eeb3b0ebdc3a35e99d9167b88c570158dd09cb0f76040519280a2613bb79081620002198239f35b90809250813d8311620001b1575b6200019b8183620001c9565b81010312620001ad5751388062000147565b5080fd5b503d6200018f565b6040513d85823e3d90fd5b600080fd5b601f909101601f19168101906001600160401b03821190821017620001ed57604052565b634e487b7160e01b600052604160045260246000fd5b51906001600160a01b0382168203620001c45756fe6080604052600436101561001257600080fd5b60003560e01c8063026cf601146105fa5780630402a28a146105f557806304199eeb146105f0578063065426c2146105eb5780630c272871146105e65780630cfd049e146105e15780630dd87a50146105dc5780630e3f753a146105d75780630f6e8673146105d25780630fee72c1146105cd57806313e7c9d8146105415780631a74b3f3146105c85780631aa3e95d146105c35780631f7dde6e146105be5780632128b9281461048857806324f74697146105b957806325bc4294146105b45780632a3eea381461048d5780632ba207fe146105af5780632e4a33cb146105aa5780633119049a146105a55780633329b331146105a05780633d40f28f1461059b5780633dc7aad414610596578063414e56ca146104c957806341d1de9714610591578063483a5f141461058c5780634a2e22d3146105875780634c0e35b1146105825780634ef7d2251461057d578063524d530b1461044c5780635557005d14610555578063558a729714610578578063565e3eff1461057357806356eb00a11461056e57806357970e931461056957806359c810c1146105645780635e7b8eea1461055f57806361728f391461055a57806363e3625814610555578063685f9b3f1461055057806369298b6c1461054b5780636b90bda9146105465780636d70f7ae146105415780636f10934e1461053c5780636f116a6a146105375780636f6f8c5d146104fb578063715018a614610532578063773b8e901461052d578063787dce3d14610528578063802bb2f0146105235780638d0cbf6a1461051e5780638da5cb5b146105195780638e50e509146105145780639c24ea401461050f5780639c2dcafb1461050a5780639d0f5ef1146105055780639df9897714610500578063a2b32732146104fb578063a3e56fa8146104f6578063aafc51c3146104f1578063ada5c132146104ec578063b0d96580146104e7578063b0fb162f146104e2578063b16abdd4146104dd578063b546ba4a146104d8578063b5e1a3c014610492578063bacb927e146104d3578063bbbfd288146104ce578063bd12dd64146104c9578063be831919146104c4578063c84728ef146104bf578063c91f0cfc146104ba578063cb2d93ce146104b5578063d1a92288146104b0578063d333aed3146104ab578063d5a6d60c146104a6578063d63843cd146104a1578063d7c775241461049c578063d88ff1f414610497578063d91043f214610492578063dc52834e1461048d578063dd6eba7e14610488578063de3d9fb71461046f578063e48f37da14610483578063e720c0051461047e578063ec644ddd14610479578063ec66705f14610474578063ed647d211461046f578063f112bd991461046a578063f25949f914610465578063f2fde38b14610460578063f45d809a1461045b578063f726272c14610456578063fd62120e14610451578063ff3cd61e1461044c5763ffe89fc61461044757600080fd5b612fb0565b611674565b612f27565b612e69565b612d65565b612ca2565b612b39565b612ad7565b6128b7565b612a9d565b612a2d565b612a0f565b6128d5565b610d7e565b610e99565b612096565b612839565b6126dc565b6126b3565b6125d1565b61240c565b6123e3565b612359565b61231c565b612205565b6120f8565b61147c565b6120d7565b6120b4565b61205d565b61203f565b61201b565b611fe9565b611fcb565b611f8c565b611f63565b611c02565b611ee4565b611ebb565b611e9d565b611e31565b611e13565b611dea565b611d7e565b611d21565b611cc7565b611c7b565b611c20565b611bd1565b611b44565b610c52565b611b1b565b611a33565b61198d565b61169d565b61196f565b611946565b611928565b6118ff565b611814565b61175d565b6116d8565b61163e565b611620565b611578565b61154d565b611504565b6113cf565b61116a565b611082565b611059565b610fed565b610ee3565b610ddc565b610db8565b610d5c565b610cd0565b610c91565b610b28565b610b05565b610a0b565b6109d5565b6108cc565b6108ae565b610717565b610691565b610673565b34610663576040366003190112610663577f060e9bb7b24700e1f67f61d02209b1fb7e61dcb50699bd88a5004e8649f3e4ec60243560043561063a61310a565b806013558160145561065e6040519283928360209093929193604081019481520152565b0390a1005b600080fd5b600091031261066357565b34610663576000366003190112610663576020601254604051908152f35b34610663576020366003190112610663577facd3908fc55d712582462490cee05d9057e65c26303b042525311532c62d20df60206004356106d061310a565b6106de6127108211156131f8565b80601a55604051908152a1005b600435906001600160a01b038216820361066357565b602435906001600160a01b038216820361066357565b34610663576040366003190112610663576107306106eb565b6001600160a01b038181166000908152600660205260409020602435919061076e908290610766905b546001600160a01b031690565b161515613415565b6001600160a01b0383166000908152600e6020526040902061079e90839054610798811515613454565b146134a0565b6107c46107bf6107b884600052600c602052604060002090565b5460ff1690565b613364565b6107e460646107dd84600052600d602052604060002090565b54106134ec565b600154610801906001600160a01b03165b6001600160a01b031690565b92833b1561066357604051632fb1302360e21b8152600481018490526001600160a01b038216602482015260009485908290604490829084905af180156108a957610890575b5061085c83600052600d602052604060002090565b61086681546133de565b9055167f8b4d66174491b3a6145331b676769c46f933c290811400f713f6dd7e0f7ada9f8380a380f35b8061089d6108a392613178565b80610668565b38610847565b613318565b34610663576000366003190112610663576020602354604051908152f35b34610663576020366003190112610663576108e56106eb565b6108ed61310a565b6001600160a01b038116801561099057601c54610914906107f5906001600160a01b031681565b91823b156106635760405163065bc36f60e01b81526001600160a01b0391909116600482015260009283908290602490829084905af180156108a95761097d575b507f4b841241ca1157d14ee4f0de82ff8f53fe31591f97ca699ca65ffaf45ea07ab58280a280f35b8061089d61098a92613178565b38610955565b60405162461bcd60e51b815260206004820152601b60248201527f496e76616c696420506f6f6c20696d706c656d656e746174696f6e00000000006044820152606490fd5b3461066357602036600319011261066357600435600052600d6020526020604060002054604051908152f35b8015150361066357565b3461066357602036600319011261066357600435610a2881610a01565b80610a3161310a565b610a83575b61065e81610a717fbdf23e00552699ae5a512ee5aa85d84b038a9ed4d266ef34f1e887de46896d8d9360ff8019602254169115151617602255565b60405190151581529081906020820190565b60ff6020541615610a365760a460405162461bcd60e51b815260206004820152604460248201527f43616e6e6f7420656e61626c652063726561746f7220746f6b656e206665652060448201527f7768696c652063726561746f7220746f6b656e20676174696e672069732061636064820152637469766560e01b6084820152fd5b34610663576000366003190112610663576020610b2061390f565b604051908152f35b3461066357602036600319011261066357600435610b4461310a565b8015610c0d57610b70610b6b610b676107b884600052600c602052604060002090565b1590565b613804565b610b7981613850565b610b9d610b9082600052600c602052604060002090565b805460ff19166001179055565b610bb0610bab600a546133de565b600a55565b600160095414610bff575b7fb2615094a1e63e6d2b94b964165480ab14d38fc7bb17dc29b281e00209d08d5c610bfa610bea600954613886565b6040519081529081906020820190565b0390a2005b610c0881600255565b610bbb565b60405162461bcd60e51b815260206004820152601760248201527f496e76616c696420737562736372697074696f6e2049440000000000000000006044820152606490fd5b34610663576020366003190112610663576001600160a01b03610c736106eb565b16600052601f602052602060ff604060002054166040519015158152f35b34610663576020366003190112610663576001600160a01b03610cb26106eb565b166000526005602052602060ff604060002054166040519015158152f35b34610663576020366003190112610663577f1592f515c298c578903964a58733180fe97bdf05860fc70a7e21b61e8cc2d1b16080610d0c6106eb565b610d1461310a565b60018060a01b0316806001600160601b0360a01b601c541617601c556040519060408252600c60408301526b2837b7b62232b83637bcb2b960a11b60608301526020820152a1005b3461066357600036600319011261066357602060ff8154166040519015158152f35b34610663576020366003190112610663576001600160a01b03610d9f6106eb565b16600052600e6020526020604060002054604051908152f35b3461066357600036600319011261066357602063ffffffff60045416604051908152f35b3461066357604036600319011261066357600435602435610dfb61310a565b610e068215156131b3565b81811115610e5457817faae06c8bb7d45661a4b277b7040cb05af4d0e488b1310072e5d30e9f9fcb8dfe926010558160125561065e6040519283928360209093929193604081019481520152565b60405162461bcd60e51b815260206004820152601c60248201527f4d6178206d7573742062652067726561746572207468616e206d696e000000006044820152606490fd5b34610663576000366003190112610663576020601754604051908152f35b602435906001600160601b038216820361066357565b600435906001600160601b038216820361066357565b604036600319011261066357600435610efa610eb7565b90610f0361310a565b600091818352600c602052610f206107bf6040852060ff90541690565b6001600160601b03811690610f36823414613673565b6001548490610f4d906001600160a01b03166107f5565b92833b15610fe957604051634cf94d8760e01b8152600481018690526001600160601b03841660248201529384916044918391905af19081156108a9577f24761a552e7853f2c57abfbcc0b0e9698da9811db99b96034c7b7fefb067860a92610fd092610fd6575b506040516001600160601b0390911681529081906020820190565b0390a280f35b8061089d610fe392613178565b38610fb5565b5080fd5b34610663576020366003190112610663577ffd76f8ed4d910bcb9cc812e605a5c8b31f7b84ab658feb2d9bf60de6f7adf07260206110296106eb565b61103161310a565b601680546001600160a01b0319166001600160a01b03929092169182179055604051908152a1005b3461066357600036600319011261066357601c546040516001600160a01b039091168152602090f35b346106635760403660031901126106635761109b6106eb565b6110a3610701565b6110ab61310a565b6001600160a01b03828116906110c2821515613280565b8216916110d08315156132cc565b601d546110e7906107f5906001600160a01b031681565b90813b1561066357604051630d76b84160e21b81526001600160a01b039586166004820152941660248501526000939084908290604490829084905af180156108a957611157575b507f055d29287d43159ed5b46366888181c01552bd982dcbd9380ade3dc5a1069f448380a380f35b8061089d61116492613178565b3861112f565b34610663576040366003190112610663576111836106eb565b6001600160a01b0380821660009081526006602052604090206024359291906111b190829061076690610759565b6111bc831515613454565b6001600160a01b0382166000908152600e60205260409020546111e09084146134a0565b81169060405163c19d93fb60e01b8152602081600481865afa6000918161139f575b506112445760405162461bcd60e51b8152602060048201526015602482015274125b9d985b1a59081c1bdbdb0818dbdb9d1c9858dd605a1b6044820152606490fd5b8061125161127192613550565b6004811490811561138a575b8115611375575b8115611361575b50613570565b600154611286906001600160a01b03166107f5565b90813b156106635760405163cb63179760e01b8152600481018590526001600160a01b038216602482015260009283908290604490829084905af1908161134e575b50158214611310576001600160a01b03166000908152600e602052604090205b557f46d7f264cf963b550773f629b4cd2668e69e465b630a862303300db477104e9e600080a3005b6112e89061132885600052600d602052604060002090565b61133281546135bc565b90556001600160a01b03166000908152600e6020526040902090565b8061089d61135b92613178565b386112c8565b6006915061136e81613550565b143861126b565b905061138081613550565b6005811490611264565b905061139581613550565b600781149061125d565b6113c191925060203d81116113c8575b6113b98183613191565b810190613538565b9038611202565b503d6113af565b3461066357600080600319360112611479576113e961310a565b60015460405163288688f960e21b8152906020908290600490829086906001600160a01b03165af19081156108a957829161144b575b50806002557f6a2b70dde6ae0193f84b6a9eeb3b0ebdc3a35e99d9167b88c570158dd09cb0f78280a280f35b61146c915060203d8111611472575b6114648183613191565b810190613406565b3861141f565b503d61145a565b80fd5b3461066357600036600319011261066357602060ff601854166040519015158152f35b634e487b7160e01b600052603260045260246000fd5b600f548110156114da57600f600052600080516020613b628339815191520190600090565b61149f565b6009548110156114da576009600052600080516020613b428339815191520190600090565b3461066357602036600319011261066357600435600f5481101561066357600f600052600080516020613b6283398151915201546040516001600160a01b039091168152602090f35b34610663576000366003190112610663576020805460405160089190911c6001600160a01b03168152f35b34610663576020366003190112610663576115916106eb565b601d546001600160a01b039190821633036115e857166000818152600560205260408120805460ff19166001179055907feb4d1b1ad6245003e8b460f686262712b4f75c37e82b6aa0f9445acef51699258280a280f35b60405162461bcd60e51b815260206004820152601060248201526f4f6e6c79204e465420666163746f727960801b6044820152606490fd5b34610663576000366003190112610663576020602154604051908152f35b346106635760003660031901126106635760105460115460125460408051938452602084019290925290820152606090f35b0390f35b34610663576000366003190112610663576016546040516001600160a01b039091168152602090f35b346106635760203660031901126106635760206001600160a01b03806116c16106eb565b166000526006825260406000205416604051908152f35b34610663576040366003190112610663577f966c160e1c4dbc7df8d69af4ace01e9297c3cf016397b7914971f2fbfa32672d60406117146106eb565b6024359061172182610a01565b61172961310a565b60018060a01b03169081600052601f602052826000209015159060ff1981541660ff831617905582519182526020820152a1005b34610663576000366003190112610663576020601054604051908152f35b90815180825260208080930193019160005b82811061179b575050505090565b83518552938101939281019260010161178d565b9392906117c49060608652606086019061177b565b936020948181038683015285808551928381520194019060005b8181106117fe575050506117fb939450604081840391015261177b565b90565b82511515865294870194918701916001016117de565b34610663576000806003193601126114795760099081549061183582613a18565b9161183f816133b0565b9361184d6040519586613191565b818552601f1961185c836133b0565b0136602087013761186c82613a18565b92805b8381106118865760405180611670878a8a846117af565b6118fa908383526118e981600080516020613b428339815191520154806118ad848b6133f2565b526118d96118c86107b883600052600c602052604060002090565b6118d2858d6133f2565b9015159052565b600052600d602052604060002090565b546118f482886133f2565b526133de565b61186f565b34610663576000366003190112610663576008546040516001600160a01b039091168152602090f35b34610663576000366003190112610663576020601154604051908152f35b346106635760003660031901126106635760135460145460408051928352602083019190915290f35b34610663576000366003190112610663576020600354604051908152f35b34610663576020366003190112610663576004356119a961310a565b6119b48115156131b3565b60125481116119ee576020817f291daec6a47f71c520266280decf6541de28bfc533f4fcb9008ef998e80d6b4392601155604051908152a1005b60405162461bcd60e51b815260206004820152601760248201527f43616e6e6f7420657863656564206d6178206c696d69740000000000000000006044820152606490fd5b3461066357602036600319011261066357600435611a5081610a01565b80611a5961310a565b611a99575b61065e81610a717fd51f4da6908aaf82430091852ae91fca16288cc00688962b02a4c925e7e5e5e29360ff8019602054169115151617602055565b60ff6022541615611a5e5760a460405162461bcd60e51b815260206004820152604460248201527f43616e6e6f7420656e61626c652063726561746f7220746f6b656e206761746960448201527f6e67207768696c652063726561746f7220746f6b656e206665652069732061636064820152637469766560e01b6084820152fd5b3461066357600036600319011261066357601e546040516001600160a01b039091168152602090f35b3461066357602036600319011261066357600435611b6061310a565b8015611b97576020817f9c84a9f70e768195c39390d1116ced0dc727c5e18b8d1d35def06c413d69153c92601755604051908152a1005b60405162461bcd60e51b81526020600482015260126024820152714d757374206265206174206c65617374203160701b6044820152606490fd5b3461066357602036600319011261066357600435600052600c602052602060ff604060002054166040519015158152f35b34610663576000366003190112610663576020601554604051908152f35b346106635760008060031936011261147957611c3a61310a565b80546001600160a01b03198116825581906001600160a01b03167f8be0079c531659141344cd1fd0a4f28419497f9722a3daafe3b4186f6b6457e08280a380f35b34610663576020366003190112610663577f81b14762c94592dd09a55cccc0bd4ee552bbc23f54115e475f4af6ad92ec6b1b6020600435611cba61310a565b80601555604051908152a1005b34610663576020366003190112610663577fd10d75876659a287a59a6ccfa2e3fff42f84d94b542837acd30bc184d562de406020600435611d0661310a565b611d146127108211156131f8565b80601955604051908152a1005b3461066357604036600319011261066357611d3a6106eb565b60243560018060a01b03611d5381601c54163314613324565b600092828452600c602052611d6e60ff604086205416613364565b168252600e602052604082205580f35b34610663576000602036600319011261147957611d9961310a565b60015481906001600160a01b0316803b15611de757819060246040518094819363b2a7cac560e01b835260043560048401525af180156108a957611ddb575080f35b611de490613178565b80f35b50fd5b34610663576000366003190112610663576000546040516001600160a01b039091168152602090f35b34610663576000366003190112610663576020601954604051908152f35b34610663576020366003190112610663577fe2d763f65bbed04f8954b0f0a3af42f687469bdd154132ba533accf0f0291a2b6020611e6d6106eb565b611e7561310a565b600880546001600160a01b0319166001600160a01b03929092169182179055604051908152a1005b34610663576000366003190112610663576020601454604051908152f35b346106635760003660031901126106635760105460125460408051928352602083019190915290f35b3461066357602036600319011261066357611efd6106eb565b611f0561310a565b6001600160a01b03168015611f2c576001600160601b0360a01b601e541617601e55600080f35b60405162461bcd60e51b815260206004820152600f60248201526e496e76616c6964206164647265737360881b6044820152606490fd5b34610663576000366003190112610663576001546040516001600160a01b039091168152602090f35b3461066357602036600319011261066357600435600954811015610663576020906009600052600080516020613b428339815191520154604051908152f35b34610663576000366003190112610663576020601b54604051908152f35b346106635760003660031901126106635760105460125460175460408051938452602084019290925290820152606090f35b3461066357600036600319011261066357602060045461ffff60405191831c168152f35b34610663576000366003190112610663576020600a54604051908152f35b346106635760203660031901126106635760043561207a81610a01565b1561208c576020601054604051908152f35b6020601154610b20565b34610663576000366003190112610663576020601a54604051908152f35b3461066357600036600319011261066357602060ff602254166040519015158152f35b34610663576020366003190112610663576120f061310a565b600435601b55005b60203660031901126106635761210c610ecd565b61211461310a565b6001600160601b0381169061212a823414613673565b6001546002546001600160a01b0390911692833b1561066357604051634cf94d8760e01b815260048101929092526001600160601b03831660248301529092600091849160449183915af19081156108a9577f0148caca16863fb5a77543489023e89a5d3360fe9229a1e6f9d553b800aa91699261065e92610fd657506040516001600160601b0390911681529081906020820190565b6020908160408183019282815285518094520193019160005b8281106121e8575050505090565b83516001600160a01b0316855293810193928101926001016121da565b346106635760203660031901126106635761221e6106eb565b600f9081549061222d826133b0565b9161223b6040519384613191565b808352601f1961224a826133b0565b0136602085013760009384926001600160a01b0390811691845b84811061227c578587526040518061167089826121c1565b818852600080516020613b628339815191528101546001600160a01b03166000908152600660205260409020849084906122b590610759565b16146122ca575b6122c5906133de565b612264565b946123146122c59161230f6122f66122e18a6114b5565b905460039190911b1c6001600160a01b031690565b612300838c6133f2565b6001600160a01b039091169052565b6133de565b9590506122bc565b346106635760203660031901126106635760206001600160a01b03806123406106eb565b1660005260068252604060002054161515604051908152f35b34610663576020366003190112610663577f1592f515c298c578903964a58733180fe97bdf05860fc70a7e21b61e8cc2d1b160806123956106eb565b61239d61310a565b60018060a01b0316806001600160601b0360a01b601d541617601d556040519060408252600a6040830152694e4654466163746f727960b01b60608301526020820152a1005b3461066357600036600319011261066357601954601a5460408051928352602083019190915290f35b3461066357604036600319011261066357600435612428610eb7565b9061243161310a565b61244b6107bf6107b883600052600c602052604060002090565b600854612460906001600160a01b03166107f5565b6040516323b872dd60e01b81523360048201523060248201526001600160601b038416604482015260009360209283908390606490829089905af19182156108a95761252a926124b79187916125b4575b50613a4a565b60085483906124ce906001600160a01b03166107f5565b6001546124e3906001600160a01b03166107f5565b9083886040519361250d856124ff8c8983019190602083019252565b03601f198101875286613191565b604051630200057560e51b8152978895869485936004850161373d565b03925af19283156108a9577f24761a552e7853f2c57abfbcc0b0e9698da9811db99b96034c7b7fefb067860a93610fd09361256d928892612587575b5050613a96565b6040516001600160601b0390911681529081906020820190565b6125a69250803d106125ad575b61259e8183613191565b8101906136b6565b3880612566565b503d612594565b6125cb9150853d87116125ad5761259e8183613191565b386124b1565b34610663576020366003190112610663576004356125ed61310a565b600090808252600c60205261260860ff604084205416613364565b808252600d602052604082205461266f5761263a61263082600052600c602052604060002090565b805460ff19169055565b612648610bab600a546135bc565b7fc0d777cb9485c91def1a14a6e7787be4cc14b102d3475a0435ef9639c9c560998280a280f35b606460405162461bcd60e51b815260206004820152602060248201527f537562736372697074696f6e207374696c6c2068617320636f6e73756d6572736044820152fd5b3461066357600036600319011261066357601d546040516001600160a01b039091168152602090f35b3461066357602080600319360112610663576126f6610ecd565b906126ff61310a565b600854612714906001600160a01b03166107f5565b6040516323b872dd60e01b81523360048201523060248201526001600160601b03841660448201529092828280606481010381600080985af19182156108a9576127b69261276991869161281c575b506136cb565b60085483906124ff90612784906001600160a01b03166107f5565b6001548490889061279d906001600160a01b03166107f5565b61250d6002546040519687918983019190602083019252565b03925af19283156108a9577f0148caca16863fb5a77543489023e89a5d3360fe9229a1e6f9d553b800aa9169936127f99361256d9287926127ff575b50506137a4565b0390a180f35b6128159250803d106125ad5761259e8183613191565b38806127f2565b6128339150853d87116125ad5761259e8183613191565b38612763565b346106635760003660031901126106635760405180600f5491828152602080910192600f600052600080516020613b62833981519152916000905b828210612897576116708561288b81890382613191565b604051918291826121c1565b83546001600160a01b031686529485019460019384019390910190612874565b34610663576000366003190112610663576020600254604051908152f35b6020366003190112610663576128e9610ecd565b6128f161310a565b6001600160601b0381169061291261290b600a5484613ae2565b3414613af5565b60005b600954811015612a0d5761293561292b826114df565b90549060031b1c90565b9061294d6107b883600052600c602052604060002090565b612961575b61295c91506133de565b612915565b600154612976906001600160a01b03166107f5565b91823b156106635760408051634cf94d8760e01b8152600481018390526001600160601b038616602482015293600090859060449082908a905af19081156108a95761295c947f24761a552e7853f2c57abfbcc0b0e9698da9811db99b96034c7b7fefb067860a926129fa575b50516001600160601b0386168152602090a2612952565b8061089d612a0792613178565b386129e3565b005b34610663576000366003190112610663576020601354604051908152f35b346106635760008060031936011261147957338152600e60205260409020548015612a925760a0905b61ffff600180841b036001541691600354600454916040519485526020850152604084015263ffffffff8116606084015260201c166080820152f35b5060a0600254612a56565b34610663576020366003190112610663576001600160a01b03612abe6106eb565b1660005260076020526020604060002054604051908152f35b34610663576020366003190112610663577f3387d2b55c2294aa390fd99c3e1429775aa0e41d3da9f40db18bb3668d2e7c336020600435612b1781610a01565b612b1f61310a565b151560ff196018541660ff821617601855604051908152a1005b346106635760403660031901126106635760043567ffffffffffffffff808211610663573660238301121561066357816004013590811161066357602482019160248236920101116106635760607f1592f515c298c578903964a58733180fe97bdf05860fc70a7e21b61e8cc2d1b19282612bb2610701565b612bba61310a565b7f4b35529e56b244d05ef40bce36fd9c95cd911003461d7436e70939aa537dd07d612be6368486613239565b6020815191012014600014612c4a57601c80546001600160a01b0319166001600160a01b0383161790555b604051948593604085528160408601528585013760008383018501526001600160a01b03166020830152601f01601f19168101030190a1005b7fd826c10e37a7770f02c01ddf03373f8c12e6ec73eac52b5d0ff825017dc682ef612c76368486613239565b6020815191012003612c1157601d80546001600160a01b0319166001600160a01b038316179055612c11565b3461066357602036600319011261066357612cbb6106eb565b612cc361310a565b6001600160a01b039081168015612d1157600080546001600160a01b03198116831782559092167f8be0079c531659141344cd1fd0a4f28419497f9722a3daafe3b4186f6b6457e08380a380f35b60405162461bcd60e51b815260206004820152602660248201527f4f776e61626c653a206e6577206f776e657220697320746865207a65726f206160448201526564647265737360d01b6064820152608490fd5b3461066357604036600319011261066357612d7e6106eb565b602435612d8961310a565b6001600160a01b03821615612e24578015612dcd5760208054610100600160a81b03191660089390931b610100600160a81b031692909217909155612a0d90602155565b60405162461bcd60e51b815260206004820152602960248201527f4d696e696d756d2062616c616e6365206d7573742062652067726561746572206044820152687468616e207a65726f60b81b6064820152608490fd5b60405162461bcd60e51b815260206004820152601c60248201527f546f6b656e20616464726573732063616e6e6f74206265207a65726f000000006044820152606490fd5b346106635760008060031936011261147957612e8361310a565b6001546002548254909183916001600160a01b039081169116803b15612f2357604051622b825560e61b815260048101949094526001600160a01b039190911660248401528290604490829084905af180156108a957612f10575b50612ee96000600255565b7fad9127d67531701fd4222369e46413ad989a276f8ae432b7a2bb01a147a1be9e8180a180f35b8061089d612f1d92613178565b38612ede565b8280fd5b3461066357606036600319011261066357612f406106eb565b6044359063ffffffff821680920361066357612f5a61310a565b60018060a01b03166001600160601b0360a01b600154161760015560243560035563ffffffff1960045416176004557f4c6a50dab5e2b4bdf345de73b06a62ca5c45dde34eecef3c38eb568564f6547c600080a1005b3461066357606036600319011261066357612fc96106eb565b612fd1610701565b9060018060a01b03612fe881601c54163314613324565b60405191630f6e867360e01b835260009360208460048188305af19384156108a95785946130e6575b506001600160a01b0382166000908152600e6020526040902084905561307c9061303c8515156135c9565b61304583613621565b6001600160a01b038316600090815260066020526040902080546001600160a01b0319166001600160a01b03909216919091179055565b6001600160a01b0381166000908152600760205260409020604435905516807f9cc152f4650ca2829a210a21551537f4cc4d48c2611ec06974f835e911921b908480a27faefe964a6ba1785c0718ded8476dce9589b858a69235c089b121271e1dae2d938380a380f35b61307c9194506131039060203d8111611472576114648183613191565b9390613011565b6000546001600160a01b0316330361311e57565b606460405162461bcd60e51b815260206004820152602060248201527f4f776e61626c653a2063616c6c6572206973206e6f7420746865206f776e65726044820152fd5b634e487b7160e01b600052604160045260246000fd5b67ffffffffffffffff811161318c57604052565b613162565b90601f8019910116810190811067ffffffffffffffff82111761318c57604052565b156131ba57565b60405162461bcd60e51b81526020600482015260166024820152754d696e206d757374206265206174206c65617374203160501b6044820152606490fd5b156131ff57565b60405162461bcd60e51b815260206004820152601260248201527143616e6e6f7420657863656564203130302560701b6044820152606490fd5b92919267ffffffffffffffff821161318c5760405191613263601f8201601f191660200184613191565b829481845281830111610663578281602093846000960137010152565b1561328757565b60405162461bcd60e51b815260206004820152601d60248201527f496e76616c69642045524337323120696d706c656d656e746174696f6e0000006044820152606490fd5b156132d357565b60405162461bcd60e51b815260206004820152601e60248201527f496e76616c6964204552433131353520696d706c656d656e746174696f6e00006044820152606490fd5b6040513d6000823e3d90fd5b1561332b57565b60405162461bcd60e51b815260206004820152601160248201527027b7363c902837b7b62232b83637bcb2b960791b6044820152606490fd5b1561336b57565b60405162461bcd60e51b815260206004820152601760248201527f537562736372697074696f6e206e6f74206163746976650000000000000000006044820152606490fd5b67ffffffffffffffff811161318c5760051b60200190565b634e487b7160e01b600052601160045260246000fd5b60001981146133ed5760010190565b6133c8565b80518210156114da5760209160051b010190565b90816020910312610663575190565b1561341c57565b60405162461bcd60e51b815260206004820152601060248201526f139bdd0818481d985b1a59081c1bdbdb60821b6044820152606490fd5b1561345b57565b60405162461bcd60e51b815260206004820152601860248201527f4e6f20737562736372697074696f6e2061737369676e656400000000000000006044820152606490fd5b156134a757565b60405162461bcd60e51b815260206004820152601d60248201527f496e76616c696420737562736372697074696f6e20666f7220706f6f6c0000006044820152606490fd5b156134f357565b60405162461bcd60e51b815260206004820152601860248201527f537562736372697074696f6e20617420636170616369747900000000000000006044820152606490fd5b90816020910312610663575160088110156106635790565b6008111561355a57565b634e487b7160e01b600052602160045260246000fd5b1561357757565b60405162461bcd60e51b815260206004820152601e60248201527f506f6f6c206d75737420626520696e207465726d696e616c20737461746500006044820152606490fd5b80156133ed576000190190565b156135d057565b60405162461bcd60e51b8152602060048201526024808201527f506f6f6c206d757374206861766520737562736372697074696f6e206173736960448201526319db995960e21b6064820152608490fd5b600f54600160401b81101561318c576001810180600f558110156114da57600f600052600080516020613b628339815191520180546001600160a01b0319166001600160a01b03909216919091179055565b1561367a57565b60405162461bcd60e51b8152602060048201526014602482015273125b98dbdc9c9958dd0811551208185b5bdd5b9d60621b6044820152606490fd5b9081602091031261066357516117fb81610a01565b156136d257565b60405162461bcd60e51b815260206004820152603e60248201527f4c494e4b207472616e7366657246726f6d206661696c65642e2044696420796f60448201527f7520617070726f7665207468652050726f746f636f6c4d616e616765723f00006064820152608490fd5b9193929060018060a01b031682526001600160601b0360209416848301526060604083015280519081606084015260005b82811061379057505060809293506000838284010152601f8019910116010190565b81810186015184820160800152850161376e565b156137ab57565b60405162461bcd60e51b815260206004820152602b60248201527f4c494e4b207472616e73666572416e6443616c6c20746f20636f6f7264696e6160448201526a3a37b9103330b4b632b21760a91b6064820152608490fd5b1561380b57565b60405162461bcd60e51b815260206004820152601a60248201527f537562736372697074696f6e20616c72656164792061646465640000000000006044820152606490fd5b600954600160401b81101561318c5760018101806009558110156114da576009600052600080516020613b428339815191520155565b6000198101919082116133ed57565b1561389c57565b60405162461bcd60e51b815260206004820152601760248201527f4e6f2061637469766520737562736372697074696f6e730000000000000000006044820152606490fd5b90600182018092116133ed57565b81156138f9570690565b634e487b7160e01b600052601260045260246000fd5b61391c600a541515613895565b600b9081549060005b60095480821015613a0e57845461393e61292b826114df565b6139556107b882600052600c602052604060002090565b806139f0575b6139e6575061397961397e939261397461230f936138e1565b6138ef565b600b55565b9082845414806139dd575b6139935790613925565b505050505b60405162461bcd60e51b815260206004820152601d60248201527f416c6c20737562736372697074696f6e732061742063617061636974790000006044820152606490fd5b50811515613989565b9450505050915090565b506064613a0782600052600d602052604060002090565b541061395b565b5050505050613998565b90613a22826133b0565b613a2f6040519182613191565b8281528092613a40601f19916133b0565b0190602036910137565b15613a5157565b60405162461bcd60e51b815260206004820152601860248201527f4c494e4b207472616e7366657246726f6d206661696c656400000000000000006044820152606490fd5b15613a9d57565b60405162461bcd60e51b815260206004820152601b60248201527f4c494e4b207472616e73666572416e6443616c6c206661696c656400000000006044820152606490fd5b818102929181159184041417156133ed57565b15613afc57565b60405162461bcd60e51b815260206004820152601a60248201527f496e636f727265637420746f74616c2045544820616d6f756e740000000000006044820152606490fdfe6e1540171b6c0c960b71a7020d9f60077f6af931a8bbf590da0223dacf75c7af8d1108e10bcb7c27dddfc02ed9d693a074039d026cf4ea4240b40f7d581ac802a2646970667358221220d524f277063ed01f89a77c685f634509e722fff761dbcd35b1396adb4577907364736f6c63430008130033",
  "linkReferences": {},
  "deployedLinkReferences": {}
}