{
  "_format": "hh-sol-artifact-1",
  "contractName": "ProtocolManager",
  "sourceName": "contracts/ProtocolManager.sol",
  "abi": [
    {
      "inputs": [
        {
          "internalType": "address",
          "name": "_vrfCoordinator",
          "type": "address"
        },
        {
          "internalType": "bytes32",
          "name": "_keyHash",
          "type": "bytes32"
        },
        {
          "internalType": "address",
          "name": "_linkToken",
          "type": "address"
        },
        {
          "internalType": "uint32",
          "name": "_callbackGasLimit",
          "type": "uint32"
        },
        {
          "internalType": "uint16",
          "name": "_requestConfirmations",
          "type": "uint16"
        }
      ],
      "stateMutability": "nonpayable",
      "type": "constructor"
    },
    {
      "anonymous": false,
      "inputs": [
        {
          "indexed": false,
          "internalType": "string",
          "name": "contractType",
          "type": "string"
        },
        {
          "indexed": false,
          "internalType": "address",
          "name": "newAddress",
          "type": "address"
        }
      ],
      "name": "ContractReplaced",
      "type": "event"
    },
    {
      "anonymous": false,
      "inputs": [
        {
          "indexed": false,
          "internalType": "uint256",
          "name": "newPercentage",
          "type": "uint256"
        }
      ],
      "name": "CreationFeePercentageUpdated",
      "type": "event"
    },
    {
      "anonymous": false,
      "inputs": [
        {
          "indexed": false,
          "internalType": "bool",
          "name": "enabled",
          "type": "bool"
        }
      ],
      "name": "CreatorTokenFeeToggled",
      "type": "event"
    },
    {
      "anonymous": false,
      "inputs": [
        {
          "indexed": false,
          "internalType": "uint256",
          "name": "feeAmount",
          "type": "uint256"
        },
        {
          "indexed": false,
          "internalType": "uint256",
          "name": "burnRatio",
          "type": "uint256"
        },
        {
          "indexed": false,
          "internalType": "uint256",
          "name": "revenueRatio",
          "type": "uint256"
        }
      ],
      "name": "CreatorTokenFeeUpdated",
      "type": "event"
    },
    {
      "anonymous": false,
      "inputs": [
        {
          "indexed": false,
          "internalType": "bool",
          "name": "enabled",
          "type": "bool"
        }
      ],
      "name": "CreatorTokenGatedToggled",
      "type": "event"
    },
    {
      "anonymous": false,
      "inputs": [
        {
          "indexed": false,
          "internalType": "uint256",
          "name": "min",
          "type": "uint256"
        },
        {
          "indexed": false,
          "internalType": "uint256",
          "name": "max",
          "type": "uint256"
        }
      ],
      "name": "DurationLimitsUpdated",
      "type": "event"
    },
    {
      "anonymous": false,
      "inputs": [
        {
          "indexed": false,
          "internalType": "uint256",
          "name": "newFee",
          "type": "uint256"
        }
      ],
      "name": "GlobalSlotFeeUpdated",
      "type": "event"
    },
    {
      "anonymous": false,
      "inputs": [
        {
          "indexed": true,
          "internalType": "address",
          "name": "collection",
          "type": "address"
        }
      ],
      "name": "InternalCollectionAdded",
      "type": "event"
    },
    {
      "anonymous": false,
      "inputs": [
        {
          "indexed": false,
          "internalType": "address",
          "name": "newLinkToken",
          "type": "address"
        }
      ],
      "name": "LinkTokenUpdated",
      "type": "event"
    },
    {
      "anonymous": false,
      "inputs": [
        {
          "indexed": false,
          "internalType": "uint256",
          "name": "newLimit",
          "type": "uint256"
        }
      ],
      "name": "MaxSlotsPerParticipantUpdated",
      "type": "event"
    },
    {
      "anonymous": false,
      "inputs": [
        {
          "indexed": false,
          "internalType": "uint256",
          "name": "newMin",
          "type": "uint256"
        }
      ],
      "name": "MinSlotLimitNonPrizedUpdated",
      "type": "event"
    },
    {
      "anonymous": false,
      "inputs": [
        {
          "indexed": true,
          "internalType": "address",
          "name": "erc721Implementation",
          "type": "address"
        },
        {
          "indexed": true,
          "internalType": "address",
          "name": "erc1155Implementation",
          "type": "address"
        }
      ],
      "name": "NFTFactoryImplementationsUpdated",
      "type": "event"
    },
    {
      "anonymous": false,
      "inputs": [
        {
          "indexed": false,
          "internalType": "address",
          "name": "operator",
          "type": "address"
        },
        {
          "indexed": false,
          "internalType": "bool",
          "name": "status",
          "type": "bool"
        }
      ],
      "name": "OperatorUpdated",
      "type": "event"
    },
    {
      "anonymous": false,
      "inputs": [
        {
          "indexed": true,
          "internalType": "address",
          "name": "previousOwner",
          "type": "address"
        },
        {
          "indexed": true,
          "internalType": "address",
          "name": "newOwner",
          "type": "address"
        }
      ],
      "name": "OwnershipTransferred",
      "type": "event"
    },
    {
      "anonymous": false,
      "inputs": [
        {
          "indexed": false,
          "internalType": "bool",
          "name": "paused",
          "type": "bool"
        }
      ],
      "name": "PoolCreationPaused",
      "type": "event"
    },
    {
      "anonymous": false,
      "inputs": [
        {
          "indexed": true,
          "internalType": "address",
          "name": "poolImplementation",
          "type": "address"
        }
      ],
      "name": "PoolDeployerImplementationUpdated",
      "type": "event"
    },
    {
      "anonymous": false,
      "inputs": [
        {
          "indexed": true,
          "internalType": "address",
          "name": "pool",
          "type": "address"
        }
      ],
      "name": "PoolRegistered",
      "type": "event"
    },
    {
      "anonymous": false,
      "inputs": [
        {
          "indexed": false,
          "internalType": "uint256",
          "name": "newPercentage",
          "type": "uint256"
        }
      ],
      "name": "ProtocolFeeUpdated",
      "type": "event"
    },
    {
      "anonymous": false,
      "inputs": [
        {
          "indexed": false,
          "internalType": "address",
          "name": "newAddress",
          "type": "address"
        }
      ],
      "name": "RevenueManagerUpdated",
      "type": "event"
    },
    {
      "anonymous": false,
      "inputs": [
        {
          "indexed": false,
          "internalType": "uint256",
          "name": "minSlotLimit",
          "type": "uint256"
        },
        {
          "indexed": false,
          "internalType": "uint256",
          "name": "maxSlotLimit",
          "type": "uint256"
        }
      ],
      "name": "SlotLimitsUpdated",
      "type": "event"
    },
    {
      "anonymous": false,
      "inputs": [
        {
          "indexed": true,
          "internalType": "uint256",
          "name": "subscriptionId",
          "type": "uint256"
        }
      ],
      "name": "SubscriptionCreated",
      "type": "event"
    },
    {
      "anonymous": false,
      "inputs": [
        {
          "indexed": false,
          "internalType": "uint96",
          "name": "amount",
          "type": "uint96"
        }
      ],
      "name": "SubscriptionFunded",
      "type": "event"
    },
    {
      "anonymous": false,
      "inputs": [
        {
          "indexed": true,
          "internalType": "uint256",
          "name": "subscriptionId",
          "type": "uint256"
        },
        {
          "indexed": false,
          "internalType": "uint96",
          "name": "amount",
          "type": "uint96"
        }
      ],
      "name": "SubscriptionFundedWithDetails",
      "type": "event"
    },
    {
      "anonymous": false,
      "inputs": [
        {
          "indexed": true,
          "internalType": "address",
          "name": "consumer",
          "type": "address"
        }
      ],
      "name": "VRFConsumerAdded",
      "type": "event"
    },
    {
      "anonymous": false,
      "inputs": [
        {
          "indexed": true,
          "internalType": "address",
          "name": "consumer",
          "type": "address"
        },
        {
          "indexed": true,
          "internalType": "uint256",
          "name": "subscriptionId",
          "type": "uint256"
        }
      ],
      "name": "VRFConsumerAddedToSubscription",
      "type": "event"
    },
    {
      "anonymous": false,
      "inputs": [
        {
          "indexed": true,
          "internalType": "address",
          "name": "consumer",
          "type": "address"
        }
      ],
      "name": "VRFConsumerRemoved",
      "type": "event"
    },
    {
      "anonymous": false,
      "inputs": [
        {
          "indexed": true,
          "internalType": "address",
          "name": "consumer",
          "type": "address"
        },
        {
          "indexed": true,
          "internalType": "uint256",
          "name": "subscriptionId",
          "type": "uint256"
        }
      ],
      "name": "VRFConsumerRemovedFromSubscription",
      "type": "event"
    },
    {
      "anonymous": false,
      "inputs": [],
      "name": "VRFParamsUpdated",
      "type": "event"
    },
    {
      "anonymous": false,
      "inputs": [
        {
          "indexed": true,
          "internalType": "uint256",
          "name": "subscriptionId",
          "type": "uint256"
        },
        {
          "indexed": false,
          "internalType": "uint256",
          "name": "index",
          "type": "uint256"
        }
      ],
      "name": "VRFSubscriptionAdded",
      "type": "event"
    },
    {
      "anonymous": false,
      "inputs": [],
      "name": "VRFSubscriptionCancelled",
      "type": "event"
    },
    {
      "anonymous": false,
      "inputs": [
        {
          "indexed": true,
          "internalType": "uint256",
          "name": "subscriptionId",
          "type": "uint256"
        }
      ],
      "name": "VRFSubscriptionRemoved",
      "type": "event"
    },
    {
      "inputs": [
        {
          "internalType": "uint256",
          "name": "subscriptionId",
          "type": "uint256"
        }
      ],
      "name": "acceptVRFOwnership",
      "outputs": [],
      "stateMutability": "nonpayable",
      "type": "function"
    },
    {
      "inputs": [],
      "name": "activeSubscriptionCount",
      "outputs": [
        {
          "internalType": "uint256",
          "name": "",
          "type": "uint256"
        }
      ],
      "stateMutability": "view",
      "type": "function"
    },
    {
      "inputs": [
        {
          "internalType": "address",
          "name": "consumer",
          "type": "address"
        },
        {
          "internalType": "uint256",
          "name": "subscriptionId",
          "type": "uint256"
        }
      ],
      "name": "addVRFConsumer",
      "outputs": [],
      "stateMutability": "nonpayable",
      "type": "function"
    },
    {
      "inputs": [
        {
          "internalType": "uint256",
          "name": "subscriptionId",
          "type": "uint256"
        }
      ],
      "name": "addVRFSubscription",
      "outputs": [],
      "stateMutability": "nonpayable",
      "type": "function"
    },
    {
      "inputs": [
        {
          "internalType": "uint256",
          "name": "",
          "type": "uint256"
        }
      ],
      "name": "allPools",
      "outputs": [
        {
          "internalType": "address",
          "name": "",
          "type": "address"
        }
      ],
      "stateMutability": "view",
      "type": "function"
    },
    {
      "inputs": [
        {
          "internalType": "address",
          "name": "pool",
          "type": "address"
        },
        {
          "internalType": "address",
          "name": "creator",
          "type": "address"
        },
        {
          "internalType": "uint256",
          "name": "timestamp",
          "type": "uint256"
        },
        {
          "internalType": "uint256",
          "name": "subscriptionId",
          "type": "uint256"
        }
      ],
      "name": "batchSetupPool",
      "outputs": [],
      "stateMutability": "nonpayable",
      "type": "function"
    },
    {
      "inputs": [],
      "name": "callbackGasLimit",
      "outputs": [
        {
          "internalType": "uint32",
          "name": "",
          "type": "uint32"
        }
      ],
      "stateMutability": "view",
      "type": "function"
    },
    {
      "inputs": [],
      "name": "cancelVRFSubscription",
      "outputs": [],
      "stateMutability": "nonpayable",
      "type": "function"
    },
    {
      "inputs": [],
      "name": "createVRFSubscription",
      "outputs": [],
      "stateMutability": "nonpayable",
      "type": "function"
    },
    {
      "inputs": [],
      "name": "creationFeePercentage",
      "outputs": [
        {
          "internalType": "uint256",
          "name": "",
          "type": "uint256"
        }
      ],
      "stateMutability": "view",
      "type": "function"
    },
    {
      "inputs": [],
      "name": "creationPaused",
      "outputs": [
        {
          "internalType": "bool",
          "name": "",
          "type": "bool"
        }
      ],
      "stateMutability": "view",
      "type": "function"
    },
    {
      "inputs": [],
      "name": "creatorToken",
      "outputs": [
        {
          "internalType": "address",
          "name": "",
          "type": "address"
        }
      ],
      "stateMutability": "view",
      "type": "function"
    },
    {
      "inputs": [],
      "name": "creatorTokenFeeAmount",
      "outputs": [
        {
          "internalType": "uint256",
          "name": "",
          "type": "uint256"
        }
      ],
      "stateMutability": "view",
      "type": "function"
    },
    {
      "inputs": [
        {
          "internalType": "uint96",
          "name": "amountPerSubscription",
          "type": "uint96"
        }
      ],
      "name": "fundAllSubscriptionsWithNative",
      "outputs": [],
      "stateMutability": "payable",
      "type": "function"
    },
    {
      "inputs": [
        {
          "internalType": "uint96",
          "name": "amount",
          "type": "uint96"
        }
      ],
      "name": "fundVRFSubscriptionWithLink",
      "outputs": [],
      "stateMutability": "nonpayable",
      "type": "function"
    },
    {
      "inputs": [
        {
          "internalType": "uint256",
          "name": "subscriptionId",
          "type": "uint256"
        },
        {
          "internalType": "uint96",
          "name": "amount",
          "type": "uint96"
        }
      ],
      "name": "fundVRFSubscriptionWithLinkById",
      "outputs": [],
      "stateMutability": "nonpayable",
      "type": "function"
    },
    {
      "inputs": [
        {
          "internalType": "uint96",
          "name": "amount",
          "type": "uint96"
        }
      ],
      "name": "fundVRFSubscriptionWithNative",
      "outputs": [],
      "stateMutability": "payable",
      "type": "function"
    },
    {
      "inputs": [
        {
          "internalType": "uint256",
          "name": "subscriptionId",
          "type": "uint256"
        },
        {
          "internalType": "uint96",
          "name": "amount",
          "type": "uint96"
        }
      ],
      "name": "fundVRFSubscriptionWithNativeById",
      "outputs": [],
      "stateMutability": "payable",
      "type": "function"
    },
    {
      "inputs": [],
      "name": "getAllPools",
      "outputs": [
        {
          "internalType": "address[]",
          "name": "",
          "type": "address[]"
        }
      ],
      "stateMutability": "view",
      "type": "function"
    },
    {
      "inputs": [],
      "name": "getAllSlotLimits",
      "outputs": [
        {
          "internalType": "uint256",
          "name": "minPrized",
          "type": "uint256"
        },
        {
          "internalType": "uint256",
          "name": "minNonPrized",
          "type": "uint256"
        },
        {
          "internalType": "uint256",
          "name": "max",
          "type": "uint256"
        }
      ],
      "stateMutability": "view",
      "type": "function"
    },
    {
      "inputs": [],
      "name": "getAllSubscriptions",
      "outputs": [
        {
          "internalType": "uint256[]",
          "name": "ids",
          "type": "uint256[]"
        },
        {
          "internalType": "bool[]",
          "name": "active",
          "type": "bool[]"
        },
        {
          "internalType": "uint256[]",
          "name": "consumerCounts",
          "type": "uint256[]"
        }
      ],
      "stateMutability": "view",
      "type": "function"
    },
    {
      "inputs": [],
      "name": "getCreationFeePercentage",
      "outputs": [
        {
          "internalType": "uint256",
          "name": "",
          "type": "uint256"
        }
      ],
      "stateMutability": "view",
      "type": "function"
    },
    {
      "inputs": [],
      "name": "getDurationLimits",
      "outputs": [
        {
          "internalType": "uint256",
          "name": "",
          "type": "uint256"
        },
        {
          "internalType": "uint256",
          "name": "",
          "type": "uint256"
        }
      ],
      "stateMutability": "view",
      "type": "function"
    },
    {
      "inputs": [],
      "name": "getMaxSlotsPerParticipant",
      "outputs": [
        {
          "internalType": "uint256",
          "name": "",
          "type": "uint256"
        }
      ],
      "stateMutability": "view",
      "type": "function"
    },
    {
      "inputs": [
        {
          "internalType": "bool",
          "name": "isPrized",
          "type": "bool"
        }
      ],
      "name": "getMinSlotLimit",
      "outputs": [
        {
          "internalType": "uint256",
          "name": "",
          "type": "uint256"
        }
      ],
      "stateMutability": "view",
      "type": "function"
    },
    {
      "inputs": [],
      "name": "getNextVRFSubscription",
      "outputs": [
        {
          "internalType": "uint256",
          "name": "",
          "type": "uint256"
        }
      ],
      "stateMutability": "nonpayable",
      "type": "function"
    },
    {
      "inputs": [],
      "name": "getPoolConfig",
      "outputs": [
        {
          "internalType": "uint256",
          "name": "",
          "type": "uint256"
        },
        {
          "internalType": "uint256",
          "name": "",
          "type": "uint256"
        },
        {
          "internalType": "uint256",
          "name": "",
          "type": "uint256"
        }
      ],
      "stateMutability": "view",
      "type": "function"
    },
    {
      "inputs": [
        {
          "internalType": "address",
          "name": "pool",
          "type": "address"
        }
      ],
      "name": "getPoolCreator",
      "outputs": [
        {
          "internalType": "address",
          "name": "",
          "type": "address"
        }
      ],
      "stateMutability": "view",
      "type": "function"
    },
    {
      "inputs": [
        {
          "internalType": "address",
          "name": "pool",
          "type": "address"
        }
      ],
      "name": "getPoolSubscription",
      "outputs": [
        {
          "internalType": "uint256",
          "name": "",
          "type": "uint256"
        }
      ],
      "stateMutability": "view",
      "type": "function"
    },
    {
      "inputs": [
        {
          "internalType": "address",
          "name": "creator",
          "type": "address"
        }
      ],
      "name": "getPoolsByCreator",
      "outputs": [
        {
          "internalType": "address[]",
          "name": "",
          "type": "address[]"
        }
      ],
      "stateMutability": "view",
      "type": "function"
    },
    {
      "inputs": [],
      "name": "getRevenueManager",
      "outputs": [
        {
          "internalType": "address",
          "name": "",
          "type": "address"
        }
      ],
      "stateMutability": "view",
      "type": "function"
    },
    {
      "inputs": [],
      "name": "getRevenueParameters",
      "outputs": [
        {
          "internalType": "uint256",
          "name": "_protocolFee",
          "type": "uint256"
        },
        {
          "internalType": "uint256",
          "name": "_creationFeePercentage",
          "type": "uint256"
        }
      ],
      "stateMutability": "view",
      "type": "function"
    },
    {
      "inputs": [],
      "name": "getSlotFee",
      "outputs": [
        {
          "internalType": "uint256",
          "name": "",
          "type": "uint256"
        }
      ],
      "stateMutability": "view",
      "type": "function"
    },
    {
      "inputs": [],
      "name": "getSlotLimits",
      "outputs": [
        {
          "internalType": "uint256",
          "name": "",
          "type": "uint256"
        },
        {
          "internalType": "uint256",
          "name": "",
          "type": "uint256"
        }
      ],
      "stateMutability": "view",
      "type": "function"
    },
    {
      "inputs": [],
      "name": "getSubscriptionId",
      "outputs": [
        {
          "internalType": "uint256",
          "name": "",
          "type": "uint256"
        }
      ],
      "stateMutability": "view",
      "type": "function"
    },
    {
      "inputs": [],
      "name": "getVRFParams",
      "outputs": [
        {
          "internalType": "address",
          "name": "",
          "type": "address"
        },
        {
          "internalType": "uint256",
          "name": "",
          "type": "uint256"
        },
        {
          "internalType": "bytes32",
          "name": "",
          "type": "bytes32"
        },
        {
          "internalType": "uint32",
          "name": "",
          "type": "uint32"
        },
        {
          "internalType": "uint16",
          "name": "",
          "type": "uint16"
        }
      ],
      "stateMutability": "view",
      "type": "function"
    },
    {
      "inputs": [],
      "name": "getVrfConsumerCount",
      "outputs": [
        {
          "internalType": "uint256",
          "name": "",
          "type": "uint256"
        }
      ],
      "stateMutability": "view",
      "type": "function"
    },
    {
      "inputs": [],
      "name": "globalSlotFee",
      "outputs": [
        {
          "internalType": "uint256",
          "name": "",
          "type": "uint256"
        }
      ],
      "stateMutability": "view",
      "type": "function"
    },
    {
      "inputs": [
        {
          "internalType": "uint256",
          "name": "",
          "type": "uint256"
        }
      ],
      "name": "isActiveSubscription",
      "outputs": [
        {
          "internalType": "bool",
          "name": "",
          "type": "bool"
        }
      ],
      "stateMutability": "view",
      "type": "function"
    },
    {
      "inputs": [],
      "name": "isCreationPaused",
      "outputs": [
        {
          "internalType": "bool",
          "name": "",
          "type": "bool"
        }
      ],
      "stateMutability": "view",
      "type": "function"
    },
    {
      "inputs": [],
      "name": "isCreatorTokenFeeEnabled",
      "outputs": [
        {
          "internalType": "bool",
          "name": "",
          "type": "bool"
        }
      ],
      "stateMutability": "view",
      "type": "function"
    },
    {
      "inputs": [],
      "name": "isCreatorTokenGated",
      "outputs": [
        {
          "internalType": "bool",
          "name": "",
          "type": "bool"
        }
      ],
      "stateMutability": "view",
      "type": "function"
    },
    {
      "inputs": [
        {
          "internalType": "address",
          "name": "",
          "type": "address"
        }
      ],
      "name": "isInternalCollection",
      "outputs": [
        {
          "internalType": "bool",
          "name": "",
          "type": "bool"
        }
      ],
      "stateMutability": "view",
      "type": "function"
    },
    {
      "inputs": [
        {
          "internalType": "address",
          "name": "operator",
          "type": "address"
        }
      ],
      "name": "isOperator",
      "outputs": [
        {
          "internalType": "bool",
          "name": "",
          "type": "bool"
        }
      ],
      "stateMutability": "view",
      "type": "function"
    },
    {
      "inputs": [
        {
          "internalType": "address",
          "name": "_address",
          "type": "address"
        }
      ],
      "name": "isPoolContract",
      "outputs": [
        {
          "internalType": "bool",
          "name": "",
          "type": "bool"
        }
      ],
      "stateMutability": "view",
      "type": "function"
    },
    {
      "inputs": [
        {
          "internalType": "address",
          "name": "",
          "type": "address"
        }
      ],
      "name": "isVRFConsumer",
      "outputs": [
        {
          "internalType": "bool",
          "name": "",
          "type": "bool"
        }
      ],
      "stateMutability": "view",
      "type": "function"
    },
    {
      "inputs": [],
      "name": "keyHash",
      "outputs": [
        {
          "internalType": "bytes32",
          "name": "",
          "type": "bytes32"
        }
      ],
      "stateMutability": "view",
      "type": "function"
    },
    {
      "inputs": [],
      "name": "linkToken",
      "outputs": [
        {
          "internalType": "contract ILinkTransferAndCall",
          "name": "",
          "type": "address"
        }
      ],
      "stateMutability": "view",
      "type": "function"
    },
    {
      "inputs": [],
      "name": "maxPoolDuration",
      "outputs": [
        {
          "internalType": "uint256",
          "name": "",
          "type": "uint256"
        }
      ],
      "stateMutability": "view",
      "type": "function"
    },
    {
      "inputs": [],
      "name": "maxSlotLimit",
      "outputs": [
        {
          "internalType": "uint256",
          "name": "",
          "type": "uint256"
        }
      ],
      "stateMutability": "view",
      "type": "function"
    },
    {
      "inputs": [],
      "name": "maxSlotsPerParticipant",
      "outputs": [
        {
          "internalType": "uint256",
          "name": "",
          "type": "uint256"
        }
      ],
      "stateMutability": "view",
      "type": "function"
    },
    {
      "inputs": [],
      "name": "minCreatorTokenBalance",
      "outputs": [
        {
          "internalType": "uint256",
          "name": "",
          "type": "uint256"
        }
      ],
      "stateMutability": "view",
      "type": "function"
    },
    {
      "inputs": [],
      "name": "minPoolDuration",
      "outputs": [
        {
          "internalType": "uint256",
          "name": "",
          "type": "uint256"
        }
      ],
      "stateMutability": "view",
      "type": "function"
    },
    {
      "inputs": [],
      "name": "minSlotLimit",
      "outputs": [
        {
          "internalType": "uint256",
          "name": "",
          "type": "uint256"
        }
      ],
      "stateMutability": "view",
      "type": "function"
    },
    {
      "inputs": [],
      "name": "minSlotLimitNonPrized",
      "outputs": [
        {
          "internalType": "uint256",
          "name": "",
          "type": "uint256"
        }
      ],
      "stateMutability": "view",
      "type": "function"
    },
    {
      "inputs": [],
      "name": "nftFactory",
      "outputs": [
        {
          "internalType": "address",
          "name": "",
          "type": "address"
        }
      ],
      "stateMutability": "view",
      "type": "function"
    },
    {
      "inputs": [
        {
          "internalType": "address",
          "name": "",
          "type": "address"
        }
      ],
      "name": "operators",
      "outputs": [
        {
          "internalType": "bool",
          "name": "",
          "type": "bool"
        }
      ],
      "stateMutability": "view",
      "type": "function"
    },
    {
      "inputs": [],
      "name": "owner",
      "outputs": [
        {
          "internalType": "address",
          "name": "",
          "type": "address"
        }
      ],
      "stateMutability": "view",
      "type": "function"
    },
    {
      "inputs": [
        {
          "internalType": "bool",
          "name": "pause",
          "type": "bool"
        }
      ],
      "name": "pausePoolCreation",
      "outputs": [],
      "stateMutability": "nonpayable",
      "type": "function"
    },
    {
      "inputs": [
        {
          "internalType": "address",
          "name": "",
          "type": "address"
        }
      ],
      "name": "poolCreationTimestamps",
      "outputs": [
        {
          "internalType": "uint256",
          "name": "",
          "type": "uint256"
        }
      ],
      "stateMutability": "view",
      "type": "function"
    },
    {
      "inputs": [
        {
          "internalType": "address",
          "name": "",
          "type": "address"
        }
      ],
      "name": "poolCreators",
      "outputs": [
        {
          "internalType": "address",
          "name": "",
          "type": "address"
        }
      ],
      "stateMutability": "view",
      "type": "function"
    },
    {
      "inputs": [],
      "name": "poolDeployer",
      "outputs": [
        {
          "internalType": "address",
          "name": "",
          "type": "address"
        }
      ],
      "stateMutability": "view",
      "type": "function"
    },
    {
      "inputs": [
        {
          "internalType": "address",
          "name": "",
          "type": "address"
        }
      ],
      "name": "poolToSubscriptionId",
      "outputs": [
        {
          "internalType": "uint256",
          "name": "",
          "type": "uint256"
        }
      ],
      "stateMutability": "view",
      "type": "function"
    },
    {
      "inputs": [
        {
          "internalType": "address",
          "name": "pool",
          "type": "address"
        },
        {
          "internalType": "uint256",
          "name": "subscriptionId",
          "type": "uint256"
        }
      ],
      "name": "preAssignSubscription",
      "outputs": [],
      "stateMutability": "nonpayable",
      "type": "function"
    },
    {
      "inputs": [],
      "name": "protocolFeePercentage",
      "outputs": [
        {
          "internalType": "uint256",
          "name": "",
          "type": "uint256"
        }
      ],
      "stateMutability": "view",
      "type": "function"
    },
    {
      "inputs": [
        {
          "internalType": "address",
          "name": "consumer",
          "type": "address"
        }
      ],
      "name": "removeVRFConsumer",
      "outputs": [],
      "stateMutability": "nonpayable",
      "type": "function"
    },
    {
      "inputs": [
        {
          "internalType": "uint256",
          "name": "subscriptionId",
          "type": "uint256"
        }
      ],
      "name": "removeVRFSubscription",
      "outputs": [],
      "stateMutability": "nonpayable",
      "type": "function"
    },
    {
      "inputs": [],
      "name": "renounceOwnership",
      "outputs": [],
      "stateMutability": "nonpayable",
      "type": "function"
    },
    {
      "inputs": [
        {
          "internalType": "string",
          "name": "contractType",
          "type": "string"
        },
        {
          "internalType": "address",
          "name": "newAddress",
          "type": "address"
        }
      ],
      "name": "replaceContract",
      "outputs": [],
      "stateMutability": "nonpayable",
      "type": "function"
    },
    {
      "inputs": [],
      "name": "requestConfirmations",
      "outputs": [
        {
          "internalType": "uint16",
          "name": "",
          "type": "uint16"
        }
      ],
      "stateMutability": "view",
      "type": "function"
    },
    {
      "inputs": [],
      "name": "revenueManager",
      "outputs": [
        {
          "internalType": "address",
          "name": "",
          "type": "address"
        }
      ],
      "stateMutability": "view",
      "type": "function"
    },
    {
      "inputs": [
        {
          "internalType": "uint256",
          "name": "_percentage",
          "type": "uint256"
        }
      ],
      "name": "setCreationFeePercentage",
      "outputs": [],
      "stateMutability": "nonpayable",
      "type": "function"
    },
    {
      "inputs": [
        {
          "internalType": "address",
          "name": "_token",
          "type": "address"
        },
        {
          "internalType": "uint256",
          "name": "_minBalance",
          "type": "uint256"
        }
      ],
      "name": "setCreatorToken",
      "outputs": [],
      "stateMutability": "nonpayable",
      "type": "function"
    },
    {
      "inputs": [
        {
          "internalType": "uint256",
          "name": "_min",
          "type": "uint256"
        },
        {
          "internalType": "uint256",
          "name": "_max",
          "type": "uint256"
        }
      ],
      "name": "setDurationLimits",
      "outputs": [],
      "stateMutability": "nonpayable",
      "type": "function"
    },
    {
      "inputs": [
        {
          "internalType": "uint256",
          "name": "_fee",
          "type": "uint256"
        }
      ],
      "name": "setGlobalSlotFee",
      "outputs": [],
      "stateMutability": "nonpayable",
      "type": "function"
    },
    {
      "inputs": [
        {
          "internalType": "address",
          "name": "_linkToken",
          "type": "address"
        }
      ],
      "name": "setLinkToken",
      "outputs": [],
      "stateMutability": "nonpayable",
      "type": "function"
    },
    {
      "inputs": [
        {
          "internalType": "uint256",
          "name": "_maxSlots",
          "type": "uint256"
        }
      ],
      "name": "setMaxSlotsPerParticipant",
      "outputs": [],
      "stateMutability": "nonpayable",
      "type": "function"
    },
    {
      "inputs": [
        {
          "internalType": "uint256",
          "name": "_min",
          "type": "uint256"
        }
      ],
      "name": "setMinSlotLimitNonPrized",
      "outputs": [],
      "stateMutability": "nonpayable",
      "type": "function"
    },
    {
      "inputs": [
        {
          "internalType": "address",
          "name": "_nftFactory",
          "type": "address"
        }
      ],
      "name": "setNFTFactory",
      "outputs": [],
      "stateMutability": "nonpayable",
      "type": "function"
    },
    {
      "inputs": [
        {
          "internalType": "address",
          "name": "operator",
          "type": "address"
        },
        {
          "internalType": "bool",
          "name": "status",
          "type": "bool"
        }
      ],
      "name": "setOperator",
      "outputs": [],
      "stateMutability": "nonpayable",
      "type": "function"
    },
    {
      "inputs": [
        {
          "internalType": "address",
          "name": "_poolDeployer",
          "type": "address"
        }
      ],
      "name": "setPoolDeployer",
      "outputs": [],
      "stateMutability": "nonpayable",
      "type": "function"
    },
    {
      "inputs": [
        {
          "internalType": "uint256",
          "name": "_percentage",
          "type": "uint256"
        }
      ],
      "name": "setProtocolFee",
      "outputs": [],
      "stateMutability": "nonpayable",
      "type": "function"
    },
    {
      "inputs": [
        {
          "internalType": "address",
          "name": "_revenueManager",
          "type": "address"
        }
      ],
      "name": "setRevenueManager",
      "outputs": [],
      "stateMutability": "nonpayable",
      "type": "function"
    },
    {
      "inputs": [
        {
          "internalType": "uint256",
          "name": "_min",
          "type": "uint256"
        },
        {
          "internalType": "uint256",
          "name": "_max",
          "type": "uint256"
        }
      ],
      "name": "setSlotLimits",
      "outputs": [],
      "stateMutability": "nonpayable",
      "type": "function"
    },
    {
      "inputs": [
        {
          "internalType": "uint256",
          "name": "_fee",
          "type": "uint256"
        }
      ],
      "name": "setSocialEngagementFee",
      "outputs": [],
      "stateMutability": "nonpayable",
      "type": "function"
    },
    {
      "inputs": [
        {
          "internalType": "address",
          "name": "_manager",
          "type": "address"
        }
      ],
      "name": "setSocialEngagementManager",
      "outputs": [],
      "stateMutability": "nonpayable",
      "type": "function"
    },
    {
      "inputs": [
        {
          "internalType": "address",
          "name": "_coordinator",
          "type": "address"
        },
        {
          "internalType": "bytes32",
          "name": "_keyHash",
          "type": "bytes32"
        },
        {
          "internalType": "uint32",
          "name": "_gasLimit",
          "type": "uint32"
        }
      ],
      "name": "setVRFParams",
      "outputs": [],
      "stateMutability": "nonpayable",
      "type": "function"
    },
    {
      "inputs": [],
      "name": "socialEngagementFee",
      "outputs": [
        {
          "internalType": "uint256",
          "name": "",
          "type": "uint256"
        }
      ],
      "stateMutability": "view",
      "type": "function"
    },
    {
      "inputs": [],
      "name": "socialEngagementManager",
      "outputs": [
        {
          "internalType": "address",
          "name": "",
          "type": "address"
        }
      ],
      "stateMutability": "view",
      "type": "function"
    },
    {
      "inputs": [
        {
          "internalType": "uint256",
          "name": "",
          "type": "uint256"
        }
      ],
      "name": "subscriptionConsumerCount",
      "outputs": [
        {
          "internalType": "uint256",
          "name": "",
          "type": "uint256"
        }
      ],
      "stateMutability": "view",
      "type": "function"
    },
    {
      "inputs": [
        {
          "internalType": "bool",
          "name": "_enabled",
          "type": "bool"
        }
      ],
      "name": "toggleCreatorTokenFee",
      "outputs": [],
      "stateMutability": "nonpayable",
      "type": "function"
    },
    {
      "inputs": [
        {
          "internalType": "bool",
          "name": "_enabled",
          "type": "bool"
        }
      ],
      "name": "toggleCreatorTokenGated",
      "outputs": [],
      "stateMutability": "nonpayable",
      "type": "function"
    },
    {
      "inputs": [
        {
          "internalType": "address",
          "name": "newOwner",
          "type": "address"
        }
      ],
      "name": "transferOwnership",
      "outputs": [],
      "stateMutability": "nonpayable",
      "type": "function"
    },
    {
      "inputs": [
        {
          "internalType": "address",
          "name": "_erc721Implementation",
          "type": "address"
        },
        {
          "internalType": "address",
          "name": "_erc1155Implementation",
          "type": "address"
        }
      ],
      "name": "updateNFTFactoryImplementations",
      "outputs": [],
      "stateMutability": "nonpayable",
      "type": "function"
    },
    {
      "inputs": [
        {
          "internalType": "address",
          "name": "_poolImplementation",
          "type": "address"
        }
      ],
      "name": "updatePoolDeployerImplementation",
      "outputs": [],
      "stateMutability": "nonpayable",
      "type": "function"
    },
    {
      "inputs": [],
      "name": "vrfConsumerCount",
      "outputs": [
        {
          "internalType": "uint256",
          "name": "",
          "type": "uint256"
        }
      ],
      "stateMutability": "view",
      "type": "function"
    },
    {
      "inputs": [],
      "name": "vrfCoordinator",
      "outputs": [
        {
          "internalType": "contract VRFCoordinatorV2PlusInterface",
          "name": "",
          "type": "address"
        }
      ],
      "stateMutability": "view",
      "type": "function"
    },
    {
      "inputs": [],
      "name": "vrfSubscriptionId",
      "outputs": [
        {
          "internalType": "uint256",
          "name": "",
          "type": "uint256"
        }
      ],
      "stateMutability": "view",
      "type": "function"
    },
    {
      "inputs": [
        {
          "internalType": "uint256",
          "name": "",
          "type": "uint256"
        }
      ],
      "name": "vrfSubscriptionIds",
      "outputs": [
        {
          "internalType": "uint256",
          "name": "",
          "type": "uint256"
        }
      ],
      "stateMutability": "view",
      "type": "function"
    }
  ],
  "bytecode": "0x60808060405234620001c45760a08162003e258038038091620000238285620001c9565b833981010312620001c457620000398162000203565b60209081830151926200004f6040820162000203565b9060608101519063ffffffff8216809203620001c457608001519261ffff84168403620001c4578492600491600097889182549565ffff0000000060018060a01b031999338b8a161786556040519a8b998a9860018060a01b0391823391167f8be0079c531659141344cd1fd0a4f28419497f9722a3daafe3b4186f6b6457e08b80a3818b54976103e880601255601355612710601455610e1060155562278d0060165564e8d4a51000601755600a6019551697888460015416176001556003551690600a541617600a55891b169165ffffffffffff19161717845563288688f960e21b83525af1918215620001b957839262000181575b5050806002557f6a2b70dde6ae0193f84b6a9eeb3b0ebdc3a35e99d9167b88c570158dd09cb0f76040519280a2613c0c9081620002198239f35b90809250813d8311620001b1575b6200019b8183620001c9565b81010312620001ad5751388062000147565b5080fd5b503d6200018f565b6040513d85823e3d90fd5b600080fd5b601f909101601f19168101906001600160401b03821190821017620001ed57604052565b634e487b7160e01b600052604160045260246000fd5b51906001600160a01b0382168203620001c45756fe6080604052600436101561001257600080fd5b60003560e01c8063026cf601146106155780630402a28a1461061057806304199eeb1461060b578063065426c2146106065780630c272871146106015780630cfd049e146105fc5780630dd87a50146105f75780630e3f753a146105f25780630f6e8673146105ed5780630fee72c1146105e857806313e7c9d81461055c57806316accbeb146105e35780631a74b3f3146105de5780631aa3e95d146105d95780631ca3e583146105395780631f7dde6e146105d45780632128b9281461049957806324f74697146105cf57806325bc4294146105ca5780632a3eea381461049e5780632ba207fe146105c55780632e4a33cb146105c05780633119049a146105bb5780633329b331146105b65780633aaa8147146105b15780633dc7aad4146105ac578063414e56ca146104da57806341d1de97146105a7578063483a5f14146105a25780634c0e35b11461059d5780634ef7d22514610598578063524d530b1461045d5780635557005d14610570578063558a729714610593578063565e3eff1461058e57806356eb00a11461058957806357970e931461058457806359c810c11461057f5780635e7b8eea1461057a57806361728f391461057557806363e3625814610570578063685f9b3f1461056b57806369298b6c146105665780636b90bda9146105615780636d70f7ae1461055c5780636f10934e146105575780636f116a6a146105525780636f6f8c5d1461050c578063715018a61461054d578063773b8e9014610548578063787dce3d14610543578063802bb2f01461053e57806388c2d320146105395780638d0cbf6a146105345780638da5cb5b1461052f5780638e50e5091461052a5780639b5e8b8b146105255780639c24ea40146105205780639c2dcafb1461051b5780639d0f5ef1146105165780639df9897714610511578063a2b327321461050c578063a3e56fa814610507578063aafc51c314610502578063ada5c132146104fd578063b0d96580146104f8578063b0fb162f146104f3578063b16abdd4146104ee578063b546ba4a146104e9578063b5e1a3c0146104a3578063bacb927e146104e4578063bbbfd288146104df578063bd12dd64146104da578063be831919146104d5578063c84728ef146104d0578063c91f0cfc146104cb578063cb2d93ce146104c6578063d1a92288146104c1578063d333aed3146104bc578063d5a6d60c146104b7578063d63843cd146104b2578063d7c77524146104ad578063d88ff1f4146104a8578063d91043f2146104a3578063dc52834e1461049e578063dd6eba7e14610499578063de3d9fb714610480578063e48f37da14610494578063e720c0051461048f578063ec644ddd1461048a578063ec66705f14610485578063ed647d2114610480578063f112bd991461047b578063f25949f914610476578063f2fde38b14610471578063f45d809a1461046c578063f726272c14610467578063fd62120e146104625763ff3cd61e1461045d57600080fd5b61169b565b613030565b612f72565b612e6e565b612dab565b612c42565b612be0565b6129c0565b612ba6565b612b36565b612b18565b6129de565b610e2c565b610f47565b6121b0565b612942565b6127e5565b6127bc565b6126e4565b61251f565b6124f6565b61246c565b61242f565b61231f565b612212565b611549565b6121f1565b6121ce565b612177565b612159565b612135565b612103565b6120e5565b6120a6565b61207d565b611c27565b611ffe565b611fd5565b611fb7565b611f4b565b611e56565b611e38565b611e0f565b611da3565b610deb565b611d46565b611cec565b611ca0565b611c45565b611bf6565b611b69565b610ca2565b611b42565b611a5a565b6119b4565b6116c4565b611996565b61196d565b61194f565b611926565b61183b565b611784565b6116ff565b611665565b611647565b61161a565b6115d1565b611495565b611218565b611130565b611107565b61109b565b610f91565b610e8a565b610e66565b610e09565b610d5f565b610d20565b610ce1565b610b89565b610b51565b610a57565b610a21565b610918565b6108fa565b610732565b6106ac565b61068e565b3461067e57604036600319011261067e577f060e9bb7b24700e1f67f61d02209b1fb7e61dcb50699bd88a5004e8649f3e4ec6024356004356106556130b9565b80601555816016556106796040519283928360209093929193604081019481520152565b0390a1005b600080fd5b600091031261067e57565b3461067e57600036600319011261067e576020601454604051908152f35b3461067e57602036600319011261067e577facd3908fc55d712582462490cee05d9057e65c26303b042525311532c62d20df60206004356106eb6130b9565b6106f96127108211156131a2565b80601c55604051908152a1005b600435906001600160a01b038216820361067e57565b602435906001600160a01b038216820361067e57565b3461067e57604036600319011261067e5761074b610706565b60243560018060a01b0361076481601e541633146132ce565b6107996107946107906107898660018060a01b03166000526005602052604060002090565b5460ff1690565b1590565b613521565b6107b86107b361078984600052600e602052604060002090565b61330e565b6107d860646107d184600052600f602052604060002090565b5410613562565b6001546107f5906001600160a01b03165b6001600160a01b031690565b92833b1561067e57604051632fb1302360e21b8152600481018490526001600160a01b038216602482015260009485908290604490829084905af180156108f5576108dc575b506001600160a01b0381166000908152600560205260409020610866905b805460ff19166001179055565b61087a83600052600f602052604060002090565b6108848154613388565b90556001600160a01b03811660009081526010602052604090208390556108b46108af600954613388565b600955565b167f8b4d66174491b3a6145331b676769c46f933c290811400f713f6dd7e0f7ada9f8380a380f35b806108e96108ef92613127565b80610683565b3861083b565b6132c2565b3461067e57600036600319011261067e576020602554604051908152f35b3461067e57602036600319011261067e57610931610706565b6109396130b9565b6001600160a01b03811680156109dc57601e54610960906107e9906001600160a01b031681565b91823b1561067e5760405163065bc36f60e01b81526001600160a01b0391909116600482015260009283908290602490829084905af180156108f5576109c9575b507f4b841241ca1157d14ee4f0de82ff8f53fe31591f97ca699ca65ffaf45ea07ab58280a280f35b806108e96109d692613127565b386109a1565b60405162461bcd60e51b815260206004820152601b60248201527f496e76616c696420506f6f6c20696d706c656d656e746174696f6e00000000006044820152606490fd5b3461067e57602036600319011261067e57600435600052600f6020526020604060002054604051908152f35b8015150361067e57565b3461067e57602036600319011261067e57600435610a7481610a4d565b80610a7d6130b9565b610acf575b61067981610abd7fbdf23e00552699ae5a512ee5aa85d84b038a9ed4d266ef34f1e887de46896d8d9360ff8019602454169115151617602455565b60405190151581529081906020820190565b60ff6022541615610a825760a460405162461bcd60e51b815260206004820152604460248201527f43616e6e6f7420656e61626c652063726561746f7220746f6b656e206665652060448201527f7768696c652063726561746f7220746f6b656e20676174696e672069732061636064820152637469766560e01b6084820152fd5b3461067e57600036600319011261067e57610b7760018060a01b03601e541633146132ce565b6020610b81613964565b604051908152f35b3461067e57602036600319011261067e57600435610ba56130b9565b8015610c5d57610bcd610bc861079061078984600052600e602052604060002090565b613859565b610bd6816138a5565b610bed61085982600052600e602052604060002090565b610c00610bfb600c54613388565b600c55565b6001600b5414610c4f575b7fb2615094a1e63e6d2b94b964165480ab14d38fc7bb17dc29b281e00209d08d5c610c4a610c3a600b546138db565b6040519081529081906020820190565b0390a2005b610c5881600255565b610c0b565b60405162461bcd60e51b815260206004820152601760248201527f496e76616c696420737562736372697074696f6e2049440000000000000000006044820152606490fd5b3461067e57602036600319011261067e576001600160a01b03610cc3610706565b166000526021602052602060ff604060002054166040519015158152f35b3461067e57602036600319011261067e576001600160a01b03610d02610706565b166000526005602052602060ff604060002054166040519015158152f35b3461067e57602036600319011261067e576001600160a01b03610d41610706565b166000526006602052602060ff604060002054166040519015158152f35b3461067e57602036600319011261067e577f1592f515c298c578903964a58733180fe97bdf05860fc70a7e21b61e8cc2d1b16080610d9b610706565b610da36130b9565b60018060a01b0316806001600160601b0360a01b601e541617601e556040519060408252600c60408301526b2837b7b62232b83637bcb2b960a11b60608301526020820152a1005b3461067e57600036600319011261067e576020600954604051908152f35b3461067e57600036600319011261067e57602060ff602254166040519015158152f35b3461067e57602036600319011261067e576001600160a01b03610e4d610706565b1660005260106020526020604060002054604051908152f35b3461067e57600036600319011261067e57602063ffffffff60045416604051908152f35b3461067e57604036600319011261067e57600435602435610ea96130b9565b610eb482151561315d565b81811115610f0257817faae06c8bb7d45661a4b277b7040cb05af4d0e488b1310072e5d30e9f9fcb8dfe92601255816014556106796040519283928360209093929193604081019481520152565b60405162461bcd60e51b815260206004820152601c60248201527f4d6178206d7573742062652067726561746572207468616e206d696e000000006044820152606490fd5b3461067e57600036600319011261067e576020601954604051908152f35b602435906001600160601b038216820361067e57565b600435906001600160601b038216820361067e57565b604036600319011261067e57600435610fa8610f65565b90610fb16130b9565b600091818352600e602052610fce6107b36040852060ff90541690565b6001600160601b03811690610fe48234146136c8565b6001548490610ffb906001600160a01b03166107e9565b92833b1561109757604051634cf94d8760e01b8152600481018690526001600160601b03841660248201529384916044918391905af19081156108f5577f24761a552e7853f2c57abfbcc0b0e9698da9811db99b96034c7b7fefb067860a9261107e92611084575b506040516001600160601b0390911681529081906020820190565b0390a280f35b806108e961109192613127565b38611063565b5080fd5b3461067e57602036600319011261067e577ffd76f8ed4d910bcb9cc812e605a5c8b31f7b84ab658feb2d9bf60de6f7adf07260206110d7610706565b6110df6130b9565b601880546001600160a01b0319166001600160a01b03929092169182179055604051908152a1005b3461067e57600036600319011261067e57601e546040516001600160a01b039091168152602090f35b3461067e57604036600319011261067e57611149610706565b61115161071c565b6111596130b9565b6001600160a01b038281169061117082151561322a565b82169161117e831515613276565b601f54611195906107e9906001600160a01b031681565b90813b1561067e57604051630d76b84160e21b81526001600160a01b039586166004820152941660248501526000939084908290604490829084905af180156108f557611205575b507f055d29287d43159ed5b46366888181c01552bd982dcbd9380ade3dc5a1069f448380a380f35b806108e961121292613127565b386111dd565b3461067e57602036600319011261067e57611231610706565b6001600160a01b038116600090815260056020526040902061125b9061125690610789565b6135ae565b6001600160a01b038116600090815260106020526040902054906112808215156135eb565b60405163c19d93fb60e01b81526001600160a01b0382169190602081600481865afa60009181611465575b506112ed5760405162461bcd60e51b8152602060048201526015602482015274125b9d985b1a59081c1bdbdb0818dbdb9d1c9858dd605a1b6044820152606490fd5b806112fa61131a9261364f565b60048114908115611450575b811561143b575b8115611427575b5061366f565b60015461132f906001600160a01b03166107e9565b90813b1561067e5760405163cb63179760e01b8152600481018590526001600160a01b0382166024820152916000908390604490829084905af19081156108f5576000926113de92611414575b506001600160a01b03811660009081526005602052604090206113a4905b805460ff19169055565b6113b885600052600f602052604060002090565b6113c281546136bb565b90556001600160a01b0316600090815260106020526040902090565b556113ed6108af6009546136bb565b7f46d7f264cf963b550773f629b4cd2668e69e465b630a862303300db477104e9e600080a3005b806108e961142192613127565b3861137c565b600691506114348161364f565b1438611314565b90506114468161364f565b600581149061130d565b905061145b8161364f565b6007811490611306565b61148791925060203d811161148e575b61147f818361313b565b810190613637565b90386112ab565b503d611475565b3461067e57600080600319360112611546576114af6130b9565b60015460405163288688f960e21b8152906020908290600490829086906001600160a01b03165af180156108f5578290611513575b600255505b6002547f6a2b70dde6ae0193f84b6a9eeb3b0ebdc3a35e99d9167b88c570158dd09cb0f78280a280f35b506020813d821161153e575b8161152c6020938361313b565b81010312611097576114e990516114e4565b3d915061151f565b80fd5b3461067e57600036600319011261067e57602060ff601a54166040519015158152f35b634e487b7160e01b600052603260045260246000fd5b6011548110156115a7576011600052600080516020613b978339815191520190600090565b61156c565b600b548110156115a757600b600052600080516020613bb78339815191520190600090565b3461067e57602036600319011261067e5760043560115481101561067e576011600052600080516020613b9783398151915201546040516001600160a01b039091168152602090f35b3461067e57600036600319011261067e5760225460405160089190911c6001600160a01b03168152602090f35b3461067e57600036600319011261067e576020602354604051908152f35b3461067e57600036600319011261067e5760125460135460145460408051938452602084019290925290820152606090f35b0390f35b3461067e57600036600319011261067e576018546040516001600160a01b039091168152602090f35b3461067e57602036600319011261067e5760206001600160a01b03806116e8610706565b166000526007825260406000205416604051908152f35b3461067e57604036600319011261067e577f966c160e1c4dbc7df8d69af4ace01e9297c3cf016397b7914971f2fbfa32672d604061173b610706565b6024359061174882610a4d565b6117506130b9565b60018060a01b031690816000526021602052826000209015159060ff1981541660ff831617905582519182526020820152a1005b3461067e57600036600319011261067e576020601254604051908152f35b90815180825260208080930193019160005b8281106117c2575050505090565b8351855293810193928101926001016117b4565b9392906117eb906060865260608601906117a2565b936020948181038683015285808551928381520194019060005b8181106118255750505061182293945060408184039101526117a2565b90565b8251151586529487019491870191600101611805565b3461067e5760008060031936011261154657600b9081549061185c82613a6d565b916118668161335a565b93611874604051958661313b565b818552601f196118838361335a565b0136602087013761189382613a6d565b92805b8381106118ad5760405180611697878a8a846117d6565b6119219083835261191081600080516020613bb78339815191520154806118d4848b61339c565b526119006118ef61078983600052600e602052604060002090565b6118f9858d61339c565b9015159052565b600052600f602052604060002090565b5461191b828861339c565b52613388565b611896565b3461067e57600036600319011261067e57600a546040516001600160a01b039091168152602090f35b3461067e57600036600319011261067e576020601354604051908152f35b3461067e57600036600319011261067e5760155460165460408051928352602083019190915290f35b3461067e57600036600319011261067e576020600354604051908152f35b3461067e57602036600319011261067e576004356119d06130b9565b6119db81151561315d565b6014548111611a15576020817f291daec6a47f71c520266280decf6541de28bfc533f4fcb9008ef998e80d6b4392601355604051908152a1005b60405162461bcd60e51b815260206004820152601760248201527f43616e6e6f7420657863656564206d6178206c696d69740000000000000000006044820152606490fd5b3461067e57602036600319011261067e57600435611a7781610a4d565b80611a806130b9565b611ac0575b61067981610abd7fd51f4da6908aaf82430091852ae91fca16288cc00688962b02a4c925e7e5e5e29360ff8019602254169115151617602255565b60ff6024541615611a855760a460405162461bcd60e51b815260206004820152604460248201527f43616e6e6f7420656e61626c652063726561746f7220746f6b656e206761746960448201527f6e67207768696c652063726561746f7220746f6b656e206665652069732061636064820152637469766560e01b6084820152fd5b3461067e57600036600319011261067e57602080546040516001600160a01b039091168152f35b3461067e57602036600319011261067e57600435611b856130b9565b8015611bbc576020817f9c84a9f70e768195c39390d1116ced0dc727c5e18b8d1d35def06c413d69153c92601955604051908152a1005b60405162461bcd60e51b81526020600482015260126024820152714d757374206265206174206c65617374203160701b6044820152606490fd5b3461067e57602036600319011261067e57600435600052600e602052602060ff604060002054166040519015158152f35b3461067e57600036600319011261067e576020601754604051908152f35b3461067e5760008060031936011261154657611c5f6130b9565b80546001600160a01b03198116825581906001600160a01b03167f8be0079c531659141344cd1fd0a4f28419497f9722a3daafe3b4186f6b6457e08280a380f35b3461067e57602036600319011261067e577f81b14762c94592dd09a55cccc0bd4ee552bbc23f54115e475f4af6ad92ec6b1b6020600435611cdf6130b9565b80601755604051908152a1005b3461067e57602036600319011261067e577fd10d75876659a287a59a6ccfa2e3fff42f84d94b542837acd30bc184d562de406020600435611d2b6130b9565b611d396127108211156131a2565b80601b55604051908152a1005b3461067e57604036600319011261067e57611d5f610706565b60243560018060a01b03611d7881601e541633146132ce565b600092828452600e602052611d9360ff60408620541661330e565b1682526010602052604082205580f35b3461067e576000602036600319011261154657611dbe6130b9565b60015481906001600160a01b0316803b15611e0c57819060246040518094819363b2a7cac560e01b835260043560048401525af180156108f557611e00575080f35b611e0990613127565b80f35b50fd5b3461067e57600036600319011261067e576000546040516001600160a01b039091168152602090f35b3461067e57600036600319011261067e576020601b54604051908152f35b3461067e57608036600319011261067e57611e6f610706565b611e7761071c565b601e5490916001600160a01b0391611e9290831633146132ce565b60115490600160401b821015611f4657611eb5826001611f1f9401601155611582565b938083169482549060031b9186831b921b1916179055611ef96000948486526007602052604086209060018060a01b03166001600160601b0360a01b825416179055565b6001600160a01b03811660009081526008602052604090206044359055606435906133b0565b7f9cc152f4650ca2829a210a21551537f4cc4d48c2611ec06974f835e911921b908280a280f35b613111565b3461067e57602036600319011261067e577fe2d763f65bbed04f8954b0f0a3af42f687469bdd154132ba533accf0f0291a2b6020611f87610706565b611f8f6130b9565b600a80546001600160a01b0319166001600160a01b03929092169182179055604051908152a1005b3461067e57600036600319011261067e576020601654604051908152f35b3461067e57600036600319011261067e5760125460145460408051928352602083019190915290f35b3461067e57602036600319011261067e57612017610706565b61201f6130b9565b6001600160a01b03168015612046576001600160601b0360a01b6020541617602055600080f35b60405162461bcd60e51b815260206004820152600f60248201526e496e76616c6964206164647265737360881b6044820152606490fd5b3461067e57600036600319011261067e576001546040516001600160a01b039091168152602090f35b3461067e57602036600319011261067e57600435600b5481101561067e57602090600b600052600080516020613bb78339815191520154604051908152f35b3461067e57600036600319011261067e576020601d54604051908152f35b3461067e57600036600319011261067e5760125460145460195460408051938452602084019290925290820152606090f35b3461067e57600036600319011261067e57602060045461ffff60405191831c168152f35b3461067e57600036600319011261067e576020600c54604051908152f35b3461067e57602036600319011261067e5760043561219481610a4d565b156121a6576020601254604051908152f35b6020601354610b81565b3461067e57600036600319011261067e576020601c54604051908152f35b3461067e57600036600319011261067e57602060ff602454166040519015158152f35b3461067e57602036600319011261067e5761220a6130b9565b600435601d55005b602036600319011261067e57612226610f7b565b61222e6130b9565b6001600160601b038116906122448234146136c8565b6001546002546001600160a01b0390911692833b1561067e57604051634cf94d8760e01b815260048101929092526001600160601b03831660248301529092600091849160449183915af19081156108f5577f0148caca16863fb5a77543489023e89a5d3360fe9229a1e6f9d553b800aa9169926106799261108457506040516001600160601b0390911681529081906020820190565b6020908160408183019282815285518094520193019160005b828110612302575050505090565b83516001600160a01b0316855293810193928101926001016122f4565b3461067e57602036600319011261067e57612338610706565b6011908154906123478261335a565b91612355604051938461313b565b808352601f196123648261335a565b0136602085013760009384926001600160a01b0390811691845b848110612396578587526040518061169789826122db565b818852600080516020613b978339815191528101546001600160a01b0390811660009081526007602052604090205484161684146123dd575b6123d890613388565b61237e565b946124276123d8916124226124096123f48a611582565b905460039190911b1c6001600160a01b031690565b612413838c61339c565b6001600160a01b039091169052565b613388565b9590506123cf565b3461067e57602036600319011261067e5760206001600160a01b0380612453610706565b1660005260078252604060002054161515604051908152f35b3461067e57602036600319011261067e577f1592f515c298c578903964a58733180fe97bdf05860fc70a7e21b61e8cc2d1b160806124a8610706565b6124b06130b9565b60018060a01b0316806001600160601b0360a01b601f541617601f556040519060408252600a6040830152694e4654466163746f727960b01b60608301526020820152a1005b3461067e57600036600319011261067e57601b54601c5460408051928352602083019190915290f35b3461067e57604036600319011261067e5760043561253b610f65565b906125446130b9565b61255e6107b361078983600052600e602052604060002090565b600a54612573906001600160a01b03166107e9565b6040516323b872dd60e01b81523360048201523060248201526001600160601b038416604482015260009360209283908390606490829089905af19182156108f55761263d926125ca9187916126c7575b50613a9f565b600a5483906125e1906001600160a01b03166107e9565b6001546125f6906001600160a01b03166107e9565b90838860405193612620856126128c8983019190602083019252565b03601f19810187528661313b565b604051630200057560e51b81529788958694859360048501613792565b03925af19283156108f5577f24761a552e7853f2c57abfbcc0b0e9698da9811db99b96034c7b7fefb067860a9361107e9361268092889261269a575b5050613aeb565b6040516001600160601b0390911681529081906020820190565b6126b99250803d106126c0575b6126b1818361313b565b81019061370b565b3880612679565b503d6126a7565b6126de9150853d87116126c0576126b1818361313b565b386125c4565b3461067e57602036600319011261067e576004356127006130b9565b600090808252600e60205261271b60ff60408420541661330e565b808252600f60205260408220546127785761274361139a82600052600e602052604060002090565b612751610bfb600c546136bb565b7fc0d777cb9485c91def1a14a6e7787be4cc14b102d3475a0435ef9639c9c560998280a280f35b606460405162461bcd60e51b815260206004820152602060248201527f537562736372697074696f6e207374696c6c2068617320636f6e73756d6572736044820152fd5b3461067e57600036600319011261067e57601f546040516001600160a01b039091168152602090f35b3461067e5760208060031936011261067e576127ff610f7b565b906128086130b9565b600a5461281d906001600160a01b03166107e9565b6040516323b872dd60e01b81523360048201523060248201526001600160601b03841660448201529092828280606481010381600080985af19182156108f5576128bf92612872918691612925575b50613720565b600a5483906126129061288d906001600160a01b03166107e9565b600154849088906128a6906001600160a01b03166107e9565b6126206002546040519687918983019190602083019252565b03925af19283156108f5577f0148caca16863fb5a77543489023e89a5d3360fe9229a1e6f9d553b800aa91699361290293612680928792612908575b50506137f9565b0390a180f35b61291e9250803d106126c0576126b1818361313b565b38806128fb565b61293c9150853d87116126c0576126b1818361313b565b3861286c565b3461067e57600036600319011261067e5760405180601154918281526020809101926011600052600080516020613b97833981519152916000905b8282106129a057611697856129948189038261313b565b604051918291826122db565b83546001600160a01b03168652948501946001938401939091019061297d565b3461067e57600036600319011261067e576020600254604051908152f35b602036600319011261067e576129f2610f7b565b6129fa6130b9565b6001600160601b03811690612a1b612a14600c5484613b37565b3414613b4a565b60005b600b54811015612b1657612a3e612a34826115ac565b90549060031b1c90565b90612a5661078983600052600e602052604060002090565b612a6a575b612a659150613388565b612a1e565b600154612a7f906001600160a01b03166107e9565b91823b1561067e5760408051634cf94d8760e01b8152600481018390526001600160601b038616602482015293600090859060449082908a905af19081156108f557612a65947f24761a552e7853f2c57abfbcc0b0e9698da9811db99b96034c7b7fefb067860a92612b03575b50516001600160601b0386168152602090a2612a5b565b806108e9612b1092613127565b38612aec565b005b3461067e57600036600319011261067e576020601554604051908152f35b3461067e5760008060031936011261154657338152601060205260409020548015612b9b5760a0905b61ffff600180841b036001541691600354600454916040519485526020850152604084015263ffffffff8116606084015260201c166080820152f35b5060a0600254612b5f565b3461067e57602036600319011261067e576001600160a01b03612bc7610706565b1660005260086020526020604060002054604051908152f35b3461067e57602036600319011261067e577f3387d2b55c2294aa390fd99c3e1429775aa0e41d3da9f40db18bb3668d2e7c336020600435612c2081610a4d565b612c286130b9565b151560ff19601a541660ff821617601a55604051908152a1005b3461067e57604036600319011261067e5760043567ffffffffffffffff80821161067e573660238301121561067e57816004013590811161067e576024820191602482369201011161067e5760607f1592f515c298c578903964a58733180fe97bdf05860fc70a7e21b61e8cc2d1b19282612cbb61071c565b612cc36130b9565b7f4b35529e56b244d05ef40bce36fd9c95cd911003461d7436e70939aa537dd07d612cef3684866131e3565b6020815191012014600014612d5357601e80546001600160a01b0319166001600160a01b0383161790555b604051948593604085528160408601528585013760008383018501526001600160a01b03166020830152601f01601f19168101030190a1005b7fd826c10e37a7770f02c01ddf03373f8c12e6ec73eac52b5d0ff825017dc682ef612d7f3684866131e3565b6020815191012003612d1a57601f80546001600160a01b0319166001600160a01b038316179055612d1a565b3461067e57602036600319011261067e57612dc4610706565b612dcc6130b9565b6001600160a01b039081168015612e1a57600080546001600160a01b03198116831782559092167f8be0079c531659141344cd1fd0a4f28419497f9722a3daafe3b4186f6b6457e08380a380f35b60405162461bcd60e51b815260206004820152602660248201527f4f776e61626c653a206e6577206f776e657220697320746865207a65726f206160448201526564647265737360d01b6064820152608490fd5b3461067e57604036600319011261067e57612e87610706565b602435612e926130b9565b6001600160a01b03821615612f2d578015612ed65760228054610100600160a81b03191660089390931b610100600160a81b031692909217909155612b1690602355565b60405162461bcd60e51b815260206004820152602960248201527f4d696e696d756d2062616c616e6365206d7573742062652067726561746572206044820152687468616e207a65726f60b81b6064820152608490fd5b60405162461bcd60e51b815260206004820152601c60248201527f546f6b656e20616464726573732063616e6e6f74206265207a65726f000000006044820152606490fd5b3461067e5760008060031936011261154657612f8c6130b9565b6001546002548254909183916001600160a01b039081169116803b1561302c57604051622b825560e61b815260048101949094526001600160a01b039190911660248401528290604490829084905af180156108f557613019575b50612ff26000600255565b7fad9127d67531701fd4222369e46413ad989a276f8ae432b7a2bb01a147a1be9e8180a180f35b806108e961302692613127565b38612fe7565b8280fd5b3461067e57606036600319011261067e57613049610706565b6044359063ffffffff821680920361067e576130636130b9565b60018060a01b03166001600160601b0360a01b600154161760015560243560035563ffffffff1960045416176004557f4c6a50dab5e2b4bdf345de73b06a62ca5c45dde34eecef3c38eb568564f6547c600080a1005b6000546001600160a01b031633036130cd57565b606460405162461bcd60e51b815260206004820152602060248201527f4f776e61626c653a2063616c6c6572206973206e6f7420746865206f776e65726044820152fd5b634e487b7160e01b600052604160045260246000fd5b67ffffffffffffffff8111611f4657604052565b90601f8019910116810190811067ffffffffffffffff821117611f4657604052565b1561316457565b60405162461bcd60e51b81526020600482015260166024820152754d696e206d757374206265206174206c65617374203160501b6044820152606490fd5b156131a957565b60405162461bcd60e51b815260206004820152601260248201527143616e6e6f7420657863656564203130302560701b6044820152606490fd5b92919267ffffffffffffffff8211611f46576040519161320d601f8201601f19166020018461313b565b82948184528183011161067e578281602093846000960137010152565b1561323157565b60405162461bcd60e51b815260206004820152601d60248201527f496e76616c69642045524337323120696d706c656d656e746174696f6e0000006044820152606490fd5b1561327d57565b60405162461bcd60e51b815260206004820152601e60248201527f496e76616c6964204552433131353520696d706c656d656e746174696f6e00006044820152606490fd5b6040513d6000823e3d90fd5b156132d557565b60405162461bcd60e51b815260206004820152601160248201527027b7363c902837b7b62232b83637bcb2b960791b6044820152606490fd5b1561331557565b60405162461bcd60e51b815260206004820152601760248201527f537562736372697074696f6e206e6f74206163746976650000000000000000006044820152606490fd5b67ffffffffffffffff8111611f465760051b60200190565b634e487b7160e01b600052601160045260246000fd5b60001981146133975760010190565b613372565b80518210156115a75760209160051b010190565b601e546001600160a01b0391906133ca90831633146132ce565b6133ef6107946107906107898460018060a01b03166000526005602052604060002090565b6134096107b361078985600052600e602052604060002090565b61342260646107d185600052600f602052604060002090565b600154613437906001600160a01b03166107e9565b803b1561067e57604051632fb1302360e21b8152600481018590526001600160a01b0383166024820152906000908290604490829084905af180156108f55761350e575b506001600160a01b038116600090815260056020526040902061349d90610859565b6134b183600052600f602052604060002090565b6134bb8154613388565b90556001600160a01b03811660009081526010602052604090208390556134e66108af600954613388565b167f8b4d66174491b3a6145331b676769c46f933c290811400f713f6dd7e0f7ada9f600080a3565b806108e961351b92613127565b3861347b565b1561352857565b60405162461bcd60e51b815260206004820152601260248201527120b63932b0b23c90309031b7b739bab6b2b960711b6044820152606490fd5b1561356957565b60405162461bcd60e51b815260206004820152601860248201527f537562736372697074696f6e20617420636170616369747900000000000000006044820152606490fd5b156135b557565b60405162461bcd60e51b815260206004820152600e60248201526d2737ba10309031b7b739bab6b2b960911b6044820152606490fd5b156135f257565b60405162461bcd60e51b815260206004820152601860248201527f4e6f20737562736372697074696f6e2061737369676e656400000000000000006044820152606490fd5b9081602091031261067e5751600881101561067e5790565b6008111561365957565b634e487b7160e01b600052602160045260246000fd5b1561367657565b60405162461bcd60e51b815260206004820152601e60248201527f506f6f6c206d75737420626520696e207465726d696e616c20737461746500006044820152606490fd5b8015613397576000190190565b156136cf57565b60405162461bcd60e51b8152602060048201526014602482015273125b98dbdc9c9958dd0811551208185b5bdd5b9d60621b6044820152606490fd5b9081602091031261067e575161182281610a4d565b1561372757565b60405162461bcd60e51b815260206004820152603e60248201527f4c494e4b207472616e7366657246726f6d206661696c65642e2044696420796f60448201527f7520617070726f7665207468652050726f746f636f6c4d616e616765723f00006064820152608490fd5b9193929060018060a01b031682526001600160601b0360209416848301526060604083015280519081606084015260005b8281106137e557505060809293506000838284010152601f8019910116010190565b8181018601518482016080015285016137c3565b1561380057565b60405162461bcd60e51b815260206004820152602b60248201527f4c494e4b207472616e73666572416e6443616c6c20746f20636f6f7264696e6160448201526a3a37b9103330b4b632b21760a91b6064820152608490fd5b1561386057565b60405162461bcd60e51b815260206004820152601a60248201527f537562736372697074696f6e20616c72656164792061646465640000000000006044820152606490fd5b600b54600160401b811015611f46576001810180600b558110156115a757600b600052600080516020613bb78339815191520155565b60001981019190821161339757565b156138f157565b60405162461bcd60e51b815260206004820152601760248201527f4e6f2061637469766520737562736372697074696f6e730000000000000000006044820152606490fd5b906001820180921161339757565b811561394e570690565b634e487b7160e01b600052601260045260246000fd5b613971600c5415156138ea565b600d9081549060005b600b5480821015613a63578454613993612a34826115ac565b6139aa61078982600052600e602052604060002090565b80613a45575b613a3b57506139ce6139d393926139c961242293613936565b613944565b600d55565b908284541480613a32575b6139e8579061397a565b505050505b60405162461bcd60e51b815260206004820152601d60248201527f416c6c20737562736372697074696f6e732061742063617061636974790000006044820152606490fd5b508115156139de565b9450505050915090565b506064613a5c82600052600f602052604060002090565b54106139b0565b50505050506139ed565b90613a778261335a565b613a84604051918261313b565b8281528092613a95601f199161335a565b0190602036910137565b15613aa657565b60405162461bcd60e51b815260206004820152601860248201527f4c494e4b207472616e7366657246726f6d206661696c656400000000000000006044820152606490fd5b15613af257565b60405162461bcd60e51b815260206004820152601b60248201527f4c494e4b207472616e73666572416e6443616c6c206661696c656400000000006044820152606490fd5b8181029291811591840414171561339757565b15613b5157565b60405162461bcd60e51b815260206004820152601a60248201527f496e636f727265637420746f74616c2045544820616d6f756e740000000000006044820152606490fdfe31ecc21a745e3968a04e9570e4425bc18fa8019c68028196b546d1669c200c680175b7a638427703f0dbe7bb9bbf987a2551717b34e79f33b5b1008d1fa01db9a2646970667358221220fe8a1f03d21db667059c5f22182f55da335bd09449546c6899ff5479f527154864736f6c63430008130033",
  "linkReferences": {},
  "deployedLinkReferences": {}
}