{
  "_format": "hh-sol-artifact-1",
  "contractName": "ProtocolManager",
  "sourceName": "contracts/ProtocolManager.sol",
  "abi": [
    {
      "inputs": [
        {
          "internalType": "address",
          "name": "_vrfCoordinator",
          "type": "address"
        },
        {
          "internalType": "bytes32",
          "name": "_keyHash",
          "type": "bytes32"
        },
        {
          "internalType": "address",
          "name": "_linkToken",
          "type": "address"
        },
        {
          "internalType": "uint32",
          "name": "_callbackGasLimit",
          "type": "uint32"
        },
        {
          "internalType": "uint16",
          "name": "_requestConfirmations",
          "type": "uint16"
        }
      ],
      "stateMutability": "nonpayable",
      "type": "constructor"
    },
    {
      "anonymous": false,
      "inputs": [
        {
          "indexed": false,
          "internalType": "string",
          "name": "contractType",
          "type": "string"
        },
        {
          "indexed": false,
          "internalType": "address",
          "name": "newAddress",
          "type": "address"
        }
      ],
      "name": "ContractReplaced",
      "type": "event"
    },
    {
      "anonymous": false,
      "inputs": [
        {
          "indexed": false,
          "internalType": "uint256",
          "name": "newPercentage",
          "type": "uint256"
        }
      ],
      "name": "CreationFeePercentageUpdated",
      "type": "event"
    },
    {
      "anonymous": false,
      "inputs": [
        {
          "indexed": false,
          "internalType": "bool",
          "name": "enabled",
          "type": "bool"
        }
      ],
      "name": "CreatorTokenFeeToggled",
      "type": "event"
    },
    {
      "anonymous": false,
      "inputs": [
        {
          "indexed": false,
          "internalType": "bool",
          "name": "enabled",
          "type": "bool"
        }
      ],
      "name": "CreatorTokenGatedToggled",
      "type": "event"
    },
    {
      "anonymous": false,
      "inputs": [
        {
          "indexed": false,
          "internalType": "uint256",
          "name": "min",
          "type": "uint256"
        },
        {
          "indexed": false,
          "internalType": "uint256",
          "name": "max",
          "type": "uint256"
        }
      ],
      "name": "DurationLimitsUpdated",
      "type": "event"
    },
    {
      "anonymous": false,
      "inputs": [
        {
          "indexed": false,
          "internalType": "uint256",
          "name": "newFee",
          "type": "uint256"
        }
      ],
      "name": "GlobalSlotFeeUpdated",
      "type": "event"
    },
    {
      "anonymous": false,
      "inputs": [
        {
          "indexed": true,
          "internalType": "address",
          "name": "collection",
          "type": "address"
        }
      ],
      "name": "InternalCollectionAdded",
      "type": "event"
    },
    {
      "anonymous": false,
      "inputs": [
        {
          "indexed": false,
          "internalType": "address",
          "name": "newLinkToken",
          "type": "address"
        }
      ],
      "name": "LinkTokenUpdated",
      "type": "event"
    },
    {
      "anonymous": false,
      "inputs": [
        {
          "indexed": false,
          "internalType": "uint256",
          "name": "newLimit",
          "type": "uint256"
        }
      ],
      "name": "MaxSlotsPerParticipantUpdated",
      "type": "event"
    },
    {
      "anonymous": false,
      "inputs": [
        {
          "indexed": false,
          "internalType": "uint256",
          "name": "newMin",
          "type": "uint256"
        }
      ],
      "name": "MinSlotLimitNonPrizedUpdated",
      "type": "event"
    },
    {
      "anonymous": false,
      "inputs": [
        {
          "indexed": true,
          "internalType": "address",
          "name": "erc721Implementation",
          "type": "address"
        },
        {
          "indexed": true,
          "internalType": "address",
          "name": "erc1155Implementation",
          "type": "address"
        }
      ],
      "name": "NFTFactoryImplementationsUpdated",
      "type": "event"
    },
    {
      "anonymous": false,
      "inputs": [
        {
          "indexed": false,
          "internalType": "address",
          "name": "operator",
          "type": "address"
        },
        {
          "indexed": false,
          "internalType": "bool",
          "name": "status",
          "type": "bool"
        }
      ],
      "name": "OperatorUpdated",
      "type": "event"
    },
    {
      "anonymous": false,
      "inputs": [
        {
          "indexed": true,
          "internalType": "address",
          "name": "previousOwner",
          "type": "address"
        },
        {
          "indexed": true,
          "internalType": "address",
          "name": "newOwner",
          "type": "address"
        }
      ],
      "name": "OwnershipTransferred",
      "type": "event"
    },
    {
      "anonymous": false,
      "inputs": [
        {
          "indexed": false,
          "internalType": "bool",
          "name": "paused",
          "type": "bool"
        }
      ],
      "name": "PoolCreationPaused",
      "type": "event"
    },
    {
      "anonymous": false,
      "inputs": [
        {
          "indexed": true,
          "internalType": "address",
          "name": "poolImplementation",
          "type": "address"
        }
      ],
      "name": "PoolDeployerImplementationUpdated",
      "type": "event"
    },
    {
      "anonymous": false,
      "inputs": [
        {
          "indexed": true,
          "internalType": "address",
          "name": "pool",
          "type": "address"
        }
      ],
      "name": "PoolRegistered",
      "type": "event"
    },
    {
      "anonymous": false,
      "inputs": [
        {
          "indexed": false,
          "internalType": "uint256",
          "name": "newPercentage",
          "type": "uint256"
        }
      ],
      "name": "ProtocolFeeUpdated",
      "type": "event"
    },
    {
      "anonymous": false,
      "inputs": [
        {
          "indexed": false,
          "internalType": "address",
          "name": "newAddress",
          "type": "address"
        }
      ],
      "name": "RevenueManagerUpdated",
      "type": "event"
    },
    {
      "anonymous": false,
      "inputs": [
        {
          "indexed": false,
          "internalType": "uint256",
          "name": "minSlotLimit",
          "type": "uint256"
        },
        {
          "indexed": false,
          "internalType": "uint256",
          "name": "maxSlotLimit",
          "type": "uint256"
        }
      ],
      "name": "SlotLimitsUpdated",
      "type": "event"
    },
    {
      "anonymous": false,
      "inputs": [
        {
          "indexed": true,
          "internalType": "uint256",
          "name": "subscriptionId",
          "type": "uint256"
        }
      ],
      "name": "SubscriptionCreated",
      "type": "event"
    },
    {
      "anonymous": false,
      "inputs": [
        {
          "indexed": false,
          "internalType": "uint96",
          "name": "amount",
          "type": "uint96"
        }
      ],
      "name": "SubscriptionFunded",
      "type": "event"
    },
    {
      "anonymous": false,
      "inputs": [
        {
          "indexed": true,
          "internalType": "uint256",
          "name": "subscriptionId",
          "type": "uint256"
        },
        {
          "indexed": false,
          "internalType": "uint96",
          "name": "amount",
          "type": "uint96"
        }
      ],
      "name": "SubscriptionFundedWithDetails",
      "type": "event"
    },
    {
      "anonymous": false,
      "inputs": [
        {
          "indexed": true,
          "internalType": "address",
          "name": "pool",
          "type": "address"
        },
        {
          "indexed": true,
          "internalType": "uint256",
          "name": "assignedSubscriptionId",
          "type": "uint256"
        }
      ],
      "name": "SubscriptionPreAssigned",
      "type": "event"
    },
    {
      "anonymous": false,
      "inputs": [
        {
          "indexed": true,
          "internalType": "address",
          "name": "consumer",
          "type": "address"
        },
        {
          "indexed": true,
          "internalType": "uint256",
          "name": "subscriptionId",
          "type": "uint256"
        }
      ],
      "name": "VRFConsumerAddedToSubscription",
      "type": "event"
    },
    {
      "anonymous": false,
      "inputs": [
        {
          "indexed": true,
          "internalType": "address",
          "name": "consumer",
          "type": "address"
        },
        {
          "indexed": true,
          "internalType": "uint256",
          "name": "subscriptionId",
          "type": "uint256"
        }
      ],
      "name": "VRFConsumerRemovedFromSubscription",
      "type": "event"
    },
    {
      "anonymous": false,
      "inputs": [],
      "name": "VRFParamsUpdated",
      "type": "event"
    },
    {
      "anonymous": false,
      "inputs": [
        {
          "indexed": true,
          "internalType": "uint256",
          "name": "subscriptionId",
          "type": "uint256"
        },
        {
          "indexed": false,
          "internalType": "uint256",
          "name": "index",
          "type": "uint256"
        }
      ],
      "name": "VRFSubscriptionAdded",
      "type": "event"
    },
    {
      "anonymous": false,
      "inputs": [],
      "name": "VRFSubscriptionCancelled",
      "type": "event"
    },
    {
      "anonymous": false,
      "inputs": [
        {
          "indexed": true,
          "internalType": "uint256",
          "name": "subscriptionId",
          "type": "uint256"
        }
      ],
      "name": "VRFSubscriptionRemoved",
      "type": "event"
    },
    {
      "inputs": [
        {
          "internalType": "uint256",
          "name": "subscriptionId",
          "type": "uint256"
        }
      ],
      "name": "acceptVRFOwnership",
      "outputs": [],
      "stateMutability": "nonpayable",
      "type": "function"
    },
    {
      "inputs": [],
      "name": "activeSubscriptionCount",
      "outputs": [
        {
          "internalType": "uint256",
          "name": "",
          "type": "uint256"
        }
      ],
      "stateMutability": "view",
      "type": "function"
    },
    {
      "inputs": [
        {
          "internalType": "address",
          "name": "_collection",
          "type": "address"
        }
      ],
      "name": "addInternalCollection",
      "outputs": [],
      "stateMutability": "nonpayable",
      "type": "function"
    },
    {
      "inputs": [
        {
          "internalType": "address",
          "name": "consumer",
          "type": "address"
        },
        {
          "internalType": "uint256",
          "name": "subscriptionId",
          "type": "uint256"
        }
      ],
      "name": "addVRFConsumer",
      "outputs": [],
      "stateMutability": "nonpayable",
      "type": "function"
    },
    {
      "inputs": [
        {
          "internalType": "uint256",
          "name": "subscriptionId",
          "type": "uint256"
        }
      ],
      "name": "addVRFSubscription",
      "outputs": [],
      "stateMutability": "nonpayable",
      "type": "function"
    },
    {
      "inputs": [
        {
          "internalType": "uint256",
          "name": "",
          "type": "uint256"
        }
      ],
      "name": "allPools",
      "outputs": [
        {
          "internalType": "address",
          "name": "",
          "type": "address"
        }
      ],
      "stateMutability": "view",
      "type": "function"
    },
    {
      "inputs": [
        {
          "internalType": "address",
          "name": "pool",
          "type": "address"
        },
        {
          "internalType": "address",
          "name": "creator",
          "type": "address"
        },
        {
          "internalType": "uint256",
          "name": "timestamp",
          "type": "uint256"
        }
      ],
      "name": "batchSetupPool",
      "outputs": [],
      "stateMutability": "nonpayable",
      "type": "function"
    },
    {
      "inputs": [],
      "name": "callbackGasLimit",
      "outputs": [
        {
          "internalType": "uint32",
          "name": "",
          "type": "uint32"
        }
      ],
      "stateMutability": "view",
      "type": "function"
    },
    {
      "inputs": [],
      "name": "cancelVRFSubscription",
      "outputs": [],
      "stateMutability": "nonpayable",
      "type": "function"
    },
    {
      "inputs": [],
      "name": "createVRFSubscription",
      "outputs": [],
      "stateMutability": "nonpayable",
      "type": "function"
    },
    {
      "inputs": [],
      "name": "creationFeePercentage",
      "outputs": [
        {
          "internalType": "uint256",
          "name": "",
          "type": "uint256"
        }
      ],
      "stateMutability": "view",
      "type": "function"
    },
    {
      "inputs": [],
      "name": "creationPaused",
      "outputs": [
        {
          "internalType": "bool",
          "name": "",
          "type": "bool"
        }
      ],
      "stateMutability": "view",
      "type": "function"
    },
    {
      "inputs": [],
      "name": "creatorToken",
      "outputs": [
        {
          "internalType": "address",
          "name": "",
          "type": "address"
        }
      ],
      "stateMutability": "view",
      "type": "function"
    },
    {
      "inputs": [
        {
          "internalType": "uint96",
          "name": "amountPerSubscription",
          "type": "uint96"
        }
      ],
      "name": "fundAllSubscriptionsWithNative",
      "outputs": [],
      "stateMutability": "payable",
      "type": "function"
    },
    {
      "inputs": [
        {
          "internalType": "uint96",
          "name": "amount",
          "type": "uint96"
        }
      ],
      "name": "fundVRFSubscriptionWithLink",
      "outputs": [],
      "stateMutability": "nonpayable",
      "type": "function"
    },
    {
      "inputs": [
        {
          "internalType": "uint256",
          "name": "subscriptionId",
          "type": "uint256"
        },
        {
          "internalType": "uint96",
          "name": "amount",
          "type": "uint96"
        }
      ],
      "name": "fundVRFSubscriptionWithLinkById",
      "outputs": [],
      "stateMutability": "nonpayable",
      "type": "function"
    },
    {
      "inputs": [
        {
          "internalType": "uint96",
          "name": "amount",
          "type": "uint96"
        }
      ],
      "name": "fundVRFSubscriptionWithNative",
      "outputs": [],
      "stateMutability": "payable",
      "type": "function"
    },
    {
      "inputs": [
        {
          "internalType": "uint256",
          "name": "subscriptionId",
          "type": "uint256"
        },
        {
          "internalType": "uint96",
          "name": "amount",
          "type": "uint96"
        }
      ],
      "name": "fundVRFSubscriptionWithNativeById",
      "outputs": [],
      "stateMutability": "payable",
      "type": "function"
    },
    {
      "inputs": [],
      "name": "getAllPools",
      "outputs": [
        {
          "internalType": "address[]",
          "name": "",
          "type": "address[]"
        }
      ],
      "stateMutability": "view",
      "type": "function"
    },
    {
      "inputs": [],
      "name": "getAllSlotLimits",
      "outputs": [
        {
          "internalType": "uint256",
          "name": "minPrized",
          "type": "uint256"
        },
        {
          "internalType": "uint256",
          "name": "minNonPrized",
          "type": "uint256"
        },
        {
          "internalType": "uint256",
          "name": "max",
          "type": "uint256"
        }
      ],
      "stateMutability": "view",
      "type": "function"
    },
    {
      "inputs": [],
      "name": "getAllSubscriptions",
      "outputs": [
        {
          "internalType": "uint256[]",
          "name": "ids",
          "type": "uint256[]"
        },
        {
          "internalType": "bool[]",
          "name": "active",
          "type": "bool[]"
        },
        {
          "internalType": "uint256[]",
          "name": "consumerCounts",
          "type": "uint256[]"
        }
      ],
      "stateMutability": "view",
      "type": "function"
    },
    {
      "inputs": [],
      "name": "getCreationFeePercentage",
      "outputs": [
        {
          "internalType": "uint256",
          "name": "",
          "type": "uint256"
        }
      ],
      "stateMutability": "view",
      "type": "function"
    },
    {
      "inputs": [],
      "name": "getDurationLimits",
      "outputs": [
        {
          "internalType": "uint256",
          "name": "",
          "type": "uint256"
        },
        {
          "internalType": "uint256",
          "name": "",
          "type": "uint256"
        }
      ],
      "stateMutability": "view",
      "type": "function"
    },
    {
      "inputs": [],
      "name": "getMaxSlotsPerParticipant",
      "outputs": [
        {
          "internalType": "uint256",
          "name": "",
          "type": "uint256"
        }
      ],
      "stateMutability": "view",
      "type": "function"
    },
    {
      "inputs": [
        {
          "internalType": "bool",
          "name": "isPrized",
          "type": "bool"
        }
      ],
      "name": "getMinSlotLimit",
      "outputs": [
        {
          "internalType": "uint256",
          "name": "",
          "type": "uint256"
        }
      ],
      "stateMutability": "view",
      "type": "function"
    },
    {
      "inputs": [],
      "name": "getNextVRFSubscription",
      "outputs": [
        {
          "internalType": "uint256",
          "name": "",
          "type": "uint256"
        }
      ],
      "stateMutability": "nonpayable",
      "type": "function"
    },
    {
      "inputs": [],
      "name": "getPoolConfig",
      "outputs": [
        {
          "internalType": "uint256",
          "name": "",
          "type": "uint256"
        },
        {
          "internalType": "uint256",
          "name": "",
          "type": "uint256"
        },
        {
          "internalType": "uint256",
          "name": "",
          "type": "uint256"
        }
      ],
      "stateMutability": "view",
      "type": "function"
    },
    {
      "inputs": [
        {
          "internalType": "address",
          "name": "pool",
          "type": "address"
        }
      ],
      "name": "getPoolCreator",
      "outputs": [
        {
          "internalType": "address",
          "name": "",
          "type": "address"
        }
      ],
      "stateMutability": "view",
      "type": "function"
    },
    {
      "inputs": [
        {
          "internalType": "address",
          "name": "pool",
          "type": "address"
        }
      ],
      "name": "getPoolSubscription",
      "outputs": [
        {
          "internalType": "uint256",
          "name": "",
          "type": "uint256"
        }
      ],
      "stateMutability": "view",
      "type": "function"
    },
    {
      "inputs": [
        {
          "internalType": "address",
          "name": "creator",
          "type": "address"
        }
      ],
      "name": "getPoolsByCreator",
      "outputs": [
        {
          "internalType": "address[]",
          "name": "",
          "type": "address[]"
        }
      ],
      "stateMutability": "view",
      "type": "function"
    },
    {
      "inputs": [],
      "name": "getRevenueManager",
      "outputs": [
        {
          "internalType": "address",
          "name": "",
          "type": "address"
        }
      ],
      "stateMutability": "view",
      "type": "function"
    },
    {
      "inputs": [],
      "name": "getRevenueParameters",
      "outputs": [
        {
          "internalType": "uint256",
          "name": "_protocolFee",
          "type": "uint256"
        },
        {
          "internalType": "uint256",
          "name": "_creationFeePercentage",
          "type": "uint256"
        }
      ],
      "stateMutability": "view",
      "type": "function"
    },
    {
      "inputs": [],
      "name": "getSlotFee",
      "outputs": [
        {
          "internalType": "uint256",
          "name": "",
          "type": "uint256"
        }
      ],
      "stateMutability": "view",
      "type": "function"
    },
    {
      "inputs": [],
      "name": "getSlotLimits",
      "outputs": [
        {
          "internalType": "uint256",
          "name": "",
          "type": "uint256"
        },
        {
          "internalType": "uint256",
          "name": "",
          "type": "uint256"
        }
      ],
      "stateMutability": "view",
      "type": "function"
    },
    {
      "inputs": [],
      "name": "getSubscriptionId",
      "outputs": [
        {
          "internalType": "uint256",
          "name": "",
          "type": "uint256"
        }
      ],
      "stateMutability": "view",
      "type": "function"
    },
    {
      "inputs": [],
      "name": "getVRFParams",
      "outputs": [
        {
          "internalType": "address",
          "name": "",
          "type": "address"
        },
        {
          "internalType": "uint256",
          "name": "",
          "type": "uint256"
        },
        {
          "internalType": "bytes32",
          "name": "",
          "type": "bytes32"
        },
        {
          "internalType": "uint32",
          "name": "",
          "type": "uint32"
        },
        {
          "internalType": "uint16",
          "name": "",
          "type": "uint16"
        }
      ],
      "stateMutability": "view",
      "type": "function"
    },
    {
      "inputs": [],
      "name": "globalSlotFee",
      "outputs": [
        {
          "internalType": "uint256",
          "name": "",
          "type": "uint256"
        }
      ],
      "stateMutability": "view",
      "type": "function"
    },
    {
      "inputs": [
        {
          "internalType": "uint256",
          "name": "",
          "type": "uint256"
        }
      ],
      "name": "isActiveSubscription",
      "outputs": [
        {
          "internalType": "bool",
          "name": "",
          "type": "bool"
        }
      ],
      "stateMutability": "view",
      "type": "function"
    },
    {
      "inputs": [],
      "name": "isCreationPaused",
      "outputs": [
        {
          "internalType": "bool",
          "name": "",
          "type": "bool"
        }
      ],
      "stateMutability": "view",
      "type": "function"
    },
    {
      "inputs": [],
      "name": "isCreatorTokenFeeEnabled",
      "outputs": [
        {
          "internalType": "bool",
          "name": "",
          "type": "bool"
        }
      ],
      "stateMutability": "view",
      "type": "function"
    },
    {
      "inputs": [],
      "name": "isCreatorTokenGated",
      "outputs": [
        {
          "internalType": "bool",
          "name": "",
          "type": "bool"
        }
      ],
      "stateMutability": "view",
      "type": "function"
    },
    {
      "inputs": [
        {
          "internalType": "address",
          "name": "",
          "type": "address"
        }
      ],
      "name": "isInternalCollection",
      "outputs": [
        {
          "internalType": "bool",
          "name": "",
          "type": "bool"
        }
      ],
      "stateMutability": "view",
      "type": "function"
    },
    {
      "inputs": [
        {
          "internalType": "address",
          "name": "operator",
          "type": "address"
        }
      ],
      "name": "isOperator",
      "outputs": [
        {
          "internalType": "bool",
          "name": "",
          "type": "bool"
        }
      ],
      "stateMutability": "view",
      "type": "function"
    },
    {
      "inputs": [
        {
          "internalType": "address",
          "name": "_address",
          "type": "address"
        }
      ],
      "name": "isPoolContract",
      "outputs": [
        {
          "internalType": "bool",
          "name": "",
          "type": "bool"
        }
      ],
      "stateMutability": "view",
      "type": "function"
    },
    {
      "inputs": [],
      "name": "keyHash",
      "outputs": [
        {
          "internalType": "bytes32",
          "name": "",
          "type": "bytes32"
        }
      ],
      "stateMutability": "view",
      "type": "function"
    },
    {
      "inputs": [],
      "name": "linkToken",
      "outputs": [
        {
          "internalType": "contract ILinkTransferAndCall",
          "name": "",
          "type": "address"
        }
      ],
      "stateMutability": "view",
      "type": "function"
    },
    {
      "inputs": [],
      "name": "maxPoolDuration",
      "outputs": [
        {
          "internalType": "uint256",
          "name": "",
          "type": "uint256"
        }
      ],
      "stateMutability": "view",
      "type": "function"
    },
    {
      "inputs": [],
      "name": "maxSlotLimit",
      "outputs": [
        {
          "internalType": "uint256",
          "name": "",
          "type": "uint256"
        }
      ],
      "stateMutability": "view",
      "type": "function"
    },
    {
      "inputs": [],
      "name": "maxSlotsPerParticipant",
      "outputs": [
        {
          "internalType": "uint256",
          "name": "",
          "type": "uint256"
        }
      ],
      "stateMutability": "view",
      "type": "function"
    },
    {
      "inputs": [],
      "name": "minCreatorTokenBalance",
      "outputs": [
        {
          "internalType": "uint256",
          "name": "",
          "type": "uint256"
        }
      ],
      "stateMutability": "view",
      "type": "function"
    },
    {
      "inputs": [],
      "name": "minPoolDuration",
      "outputs": [
        {
          "internalType": "uint256",
          "name": "",
          "type": "uint256"
        }
      ],
      "stateMutability": "view",
      "type": "function"
    },
    {
      "inputs": [],
      "name": "minSlotLimit",
      "outputs": [
        {
          "internalType": "uint256",
          "name": "",
          "type": "uint256"
        }
      ],
      "stateMutability": "view",
      "type": "function"
    },
    {
      "inputs": [],
      "name": "minSlotLimitNonPrized",
      "outputs": [
        {
          "internalType": "uint256",
          "name": "",
          "type": "uint256"
        }
      ],
      "stateMutability": "view",
      "type": "function"
    },
    {
      "inputs": [],
      "name": "nftFactory",
      "outputs": [
        {
          "internalType": "address",
          "name": "",
          "type": "address"
        }
      ],
      "stateMutability": "view",
      "type": "function"
    },
    {
      "inputs": [
        {
          "internalType": "address",
          "name": "",
          "type": "address"
        }
      ],
      "name": "operators",
      "outputs": [
        {
          "internalType": "bool",
          "name": "",
          "type": "bool"
        }
      ],
      "stateMutability": "view",
      "type": "function"
    },
    {
      "inputs": [],
      "name": "owner",
      "outputs": [
        {
          "internalType": "address",
          "name": "",
          "type": "address"
        }
      ],
      "stateMutability": "view",
      "type": "function"
    },
    {
      "inputs": [
        {
          "internalType": "bool",
          "name": "pause",
          "type": "bool"
        }
      ],
      "name": "pausePoolCreation",
      "outputs": [],
      "stateMutability": "nonpayable",
      "type": "function"
    },
    {
      "inputs": [
        {
          "internalType": "address",
          "name": "",
          "type": "address"
        }
      ],
      "name": "poolCreationTimestamps",
      "outputs": [
        {
          "internalType": "uint256",
          "name": "",
          "type": "uint256"
        }
      ],
      "stateMutability": "view",
      "type": "function"
    },
    {
      "inputs": [
        {
          "internalType": "address",
          "name": "",
          "type": "address"
        }
      ],
      "name": "poolCreators",
      "outputs": [
        {
          "internalType": "address",
          "name": "",
          "type": "address"
        }
      ],
      "stateMutability": "view",
      "type": "function"
    },
    {
      "inputs": [],
      "name": "poolDeployer",
      "outputs": [
        {
          "internalType": "address",
          "name": "",
          "type": "address"
        }
      ],
      "stateMutability": "view",
      "type": "function"
    },
    {
      "inputs": [
        {
          "internalType": "address",
          "name": "",
          "type": "address"
        }
      ],
      "name": "poolToSubscriptionId",
      "outputs": [
        {
          "internalType": "uint256",
          "name": "",
          "type": "uint256"
        }
      ],
      "stateMutability": "view",
      "type": "function"
    },
    {
      "inputs": [
        {
          "internalType": "address",
          "name": "pool",
          "type": "address"
        },
        {
          "internalType": "uint256",
          "name": "subscriptionId",
          "type": "uint256"
        }
      ],
      "name": "preAssignSubscription",
      "outputs": [],
      "stateMutability": "nonpayable",
      "type": "function"
    },
    {
      "inputs": [],
      "name": "protocolFeePercentage",
      "outputs": [
        {
          "internalType": "uint256",
          "name": "",
          "type": "uint256"
        }
      ],
      "stateMutability": "view",
      "type": "function"
    },
    {
      "inputs": [
        {
          "internalType": "address",
          "name": "consumer",
          "type": "address"
        },
        {
          "internalType": "uint256",
          "name": "subscriptionId",
          "type": "uint256"
        }
      ],
      "name": "removeVRFConsumer",
      "outputs": [],
      "stateMutability": "nonpayable",
      "type": "function"
    },
    {
      "inputs": [
        {
          "internalType": "uint256",
          "name": "subscriptionId",
          "type": "uint256"
        }
      ],
      "name": "removeVRFSubscription",
      "outputs": [],
      "stateMutability": "nonpayable",
      "type": "function"
    },
    {
      "inputs": [],
      "name": "renounceOwnership",
      "outputs": [],
      "stateMutability": "nonpayable",
      "type": "function"
    },
    {
      "inputs": [
        {
          "internalType": "string",
          "name": "contractType",
          "type": "string"
        },
        {
          "internalType": "address",
          "name": "newAddress",
          "type": "address"
        }
      ],
      "name": "replaceContract",
      "outputs": [],
      "stateMutability": "nonpayable",
      "type": "function"
    },
    {
      "inputs": [],
      "name": "requestConfirmations",
      "outputs": [
        {
          "internalType": "uint16",
          "name": "",
          "type": "uint16"
        }
      ],
      "stateMutability": "view",
      "type": "function"
    },
    {
      "inputs": [],
      "name": "revenueManager",
      "outputs": [
        {
          "internalType": "address",
          "name": "",
          "type": "address"
        }
      ],
      "stateMutability": "view",
      "type": "function"
    },
    {
      "inputs": [
        {
          "internalType": "uint256",
          "name": "_percentage",
          "type": "uint256"
        }
      ],
      "name": "setCreationFeePercentage",
      "outputs": [],
      "stateMutability": "nonpayable",
      "type": "function"
    },
    {
      "inputs": [
        {
          "internalType": "address",
          "name": "_token",
          "type": "address"
        },
        {
          "internalType": "uint256",
          "name": "_minBalance",
          "type": "uint256"
        }
      ],
      "name": "setCreatorToken",
      "outputs": [],
      "stateMutability": "nonpayable",
      "type": "function"
    },
    {
      "inputs": [
        {
          "internalType": "uint256",
          "name": "_min",
          "type": "uint256"
        },
        {
          "internalType": "uint256",
          "name": "_max",
          "type": "uint256"
        }
      ],
      "name": "setDurationLimits",
      "outputs": [],
      "stateMutability": "nonpayable",
      "type": "function"
    },
    {
      "inputs": [
        {
          "internalType": "uint256",
          "name": "_fee",
          "type": "uint256"
        }
      ],
      "name": "setGlobalSlotFee",
      "outputs": [],
      "stateMutability": "nonpayable",
      "type": "function"
    },
    {
      "inputs": [
        {
          "internalType": "address",
          "name": "_linkToken",
          "type": "address"
        }
      ],
      "name": "setLinkToken",
      "outputs": [],
      "stateMutability": "nonpayable",
      "type": "function"
    },
    {
      "inputs": [
        {
          "internalType": "uint256",
          "name": "_maxSlots",
          "type": "uint256"
        }
      ],
      "name": "setMaxSlotsPerParticipant",
      "outputs": [],
      "stateMutability": "nonpayable",
      "type": "function"
    },
    {
      "inputs": [
        {
          "internalType": "uint256",
          "name": "_min",
          "type": "uint256"
        }
      ],
      "name": "setMinSlotLimitNonPrized",
      "outputs": [],
      "stateMutability": "nonpayable",
      "type": "function"
    },
    {
      "inputs": [
        {
          "internalType": "address",
          "name": "_nftFactory",
          "type": "address"
        }
      ],
      "name": "setNFTFactory",
      "outputs": [],
      "stateMutability": "nonpayable",
      "type": "function"
    },
    {
      "inputs": [
        {
          "internalType": "address",
          "name": "operator",
          "type": "address"
        },
        {
          "internalType": "bool",
          "name": "status",
          "type": "bool"
        }
      ],
      "name": "setOperator",
      "outputs": [],
      "stateMutability": "nonpayable",
      "type": "function"
    },
    {
      "inputs": [
        {
          "internalType": "address",
          "name": "_poolDeployer",
          "type": "address"
        }
      ],
      "name": "setPoolDeployer",
      "outputs": [],
      "stateMutability": "nonpayable",
      "type": "function"
    },
    {
      "inputs": [
        {
          "internalType": "uint256",
          "name": "_percentage",
          "type": "uint256"
        }
      ],
      "name": "setProtocolFee",
      "outputs": [],
      "stateMutability": "nonpayable",
      "type": "function"
    },
    {
      "inputs": [
        {
          "internalType": "address",
          "name": "_revenueManager",
          "type": "address"
        }
      ],
      "name": "setRevenueManager",
      "outputs": [],
      "stateMutability": "nonpayable",
      "type": "function"
    },
    {
      "inputs": [
        {
          "internalType": "uint256",
          "name": "_min",
          "type": "uint256"
        },
        {
          "internalType": "uint256",
          "name": "_max",
          "type": "uint256"
        }
      ],
      "name": "setSlotLimits",
      "outputs": [],
      "stateMutability": "nonpayable",
      "type": "function"
    },
    {
      "inputs": [
        {
          "internalType": "uint256",
          "name": "_fee",
          "type": "uint256"
        }
      ],
      "name": "setSocialEngagementFee",
      "outputs": [],
      "stateMutability": "nonpayable",
      "type": "function"
    },
    {
      "inputs": [
        {
          "internalType": "address",
          "name": "_manager",
          "type": "address"
        }
      ],
      "name": "setSocialEngagementManager",
      "outputs": [],
      "stateMutability": "nonpayable",
      "type": "function"
    },
    {
      "inputs": [
        {
          "internalType": "address",
          "name": "_coordinator",
          "type": "address"
        },
        {
          "internalType": "bytes32",
          "name": "_keyHash",
          "type": "bytes32"
        },
        {
          "internalType": "uint32",
          "name": "_gasLimit",
          "type": "uint32"
        }
      ],
      "name": "setVRFParams",
      "outputs": [],
      "stateMutability": "nonpayable",
      "type": "function"
    },
    {
      "inputs": [],
      "name": "socialEngagementFee",
      "outputs": [
        {
          "internalType": "uint256",
          "name": "",
          "type": "uint256"
        }
      ],
      "stateMutability": "view",
      "type": "function"
    },
    {
      "inputs": [],
      "name": "socialEngagementManager",
      "outputs": [
        {
          "internalType": "address",
          "name": "",
          "type": "address"
        }
      ],
      "stateMutability": "view",
      "type": "function"
    },
    {
      "inputs": [
        {
          "internalType": "uint256",
          "name": "",
          "type": "uint256"
        }
      ],
      "name": "subscriptionConsumerCount",
      "outputs": [
        {
          "internalType": "uint256",
          "name": "",
          "type": "uint256"
        }
      ],
      "stateMutability": "view",
      "type": "function"
    },
    {
      "inputs": [
        {
          "internalType": "bool",
          "name": "_enabled",
          "type": "bool"
        }
      ],
      "name": "toggleCreatorTokenFee",
      "outputs": [],
      "stateMutability": "nonpayable",
      "type": "function"
    },
    {
      "inputs": [
        {
          "internalType": "bool",
          "name": "_enabled",
          "type": "bool"
        }
      ],
      "name": "toggleCreatorTokenGated",
      "outputs": [],
      "stateMutability": "nonpayable",
      "type": "function"
    },
    {
      "inputs": [
        {
          "internalType": "address",
          "name": "newOwner",
          "type": "address"
        }
      ],
      "name": "transferOwnership",
      "outputs": [],
      "stateMutability": "nonpayable",
      "type": "function"
    },
    {
      "inputs": [
        {
          "internalType": "address",
          "name": "_erc721Implementation",
          "type": "address"
        },
        {
          "internalType": "address",
          "name": "_erc1155Implementation",
          "type": "address"
        }
      ],
      "name": "updateNFTFactoryImplementations",
      "outputs": [],
      "stateMutability": "nonpayable",
      "type": "function"
    },
    {
      "inputs": [
        {
          "internalType": "address",
          "name": "_poolImplementation",
          "type": "address"
        }
      ],
      "name": "updatePoolDeployerImplementation",
      "outputs": [],
      "stateMutability": "nonpayable",
      "type": "function"
    },
    {
      "inputs": [
        {
          "internalType": "address",
          "name": "consumer",
          "type": "address"
        },
        {
          "internalType": "uint256",
          "name": "subscriptionId",
          "type": "uint256"
        }
      ],
      "name": "updatePoolToSubscription",
      "outputs": [],
      "stateMutability": "nonpayable",
      "type": "function"
    },
    {
      "inputs": [],
      "name": "vrfCoordinator",
      "outputs": [
        {
          "internalType": "contract VRFCoordinatorV2PlusInterface",
          "name": "",
          "type": "address"
        }
      ],
      "stateMutability": "view",
      "type": "function"
    },
    {
      "inputs": [],
      "name": "vrfSubscriptionId",
      "outputs": [
        {
          "internalType": "uint256",
          "name": "",
          "type": "uint256"
        }
      ],
      "stateMutability": "view",
      "type": "function"
    },
    {
      "inputs": [
        {
          "internalType": "uint256",
          "name": "",
          "type": "uint256"
        }
      ],
      "name": "vrfSubscriptionIds",
      "outputs": [
        {
          "internalType": "uint256",
          "name": "",
          "type": "uint256"
        }
      ],
      "stateMutability": "view",
      "type": "function"
    }
  ],
  "bytecode": "0x60808060405234620001c45760a08162003ea98038038091620000238285620001c9565b833981010312620001c457620000398162000203565b60209081830151926200004f6040820162000203565b9060608101519063ffffffff8216809203620001c457608001519261ffff84168403620001c4578492600491600097889182549565ffff0000000060018060a01b031999338b8a161786556040519a8b998a9860018060a01b0391823391167f8be0079c531659141344cd1fd0a4f28419497f9722a3daafe3b4186f6b6457e08b80a3818b54976103e880601055601155612710601255610e1060135562278d0060145564e8d4a51000601555600a60175516978884600154161760015560035516906008541617600855891b169165ffffffffffff19161717845563288688f960e21b83525af1918215620001b957839262000181575b5050806002557f6a2b70dde6ae0193f84b6a9eeb3b0ebdc3a35e99d9167b88c570158dd09cb0f76040519280a2613c909081620002198239f35b90809250813d8311620001b1575b6200019b8183620001c9565b81010312620001ad5751388062000147565b5080fd5b503d6200018f565b6040513d85823e3d90fd5b600080fd5b601f909101601f19168101906001600160401b03821190821017620001ed57604052565b634e487b7160e01b600052604160045260246000fd5b51906001600160a01b0382168203620001c45756fe6080604052600436101561001257600080fd5b60003560e01c8063026cf601146105fa5780630402a28a146105f557806304199eeb146105f0578063065426c2146105eb5780630cfd049e146105e65780630dd87a50146105e15780630e3f753a146105dc5780630f6e8673146105d75780630fee72c1146105d257806313e7c9d8146105415780631a74b3f3146105cd5780631aa3e95d146105c85780631f7dde6e146105c35780632128b9281461048857806324f74697146105be57806325bc4294146105b95780632a3eea381461048d5780632ba207fe146105b45780632e4a33cb146105af5780633119049a146105aa5780633329b331146105a55780633d40f28f146105a05780633dc7aad41461059b578063414e56ca146104c957806341d1de97146105965780634434386014610591578063483a5f141461058c5780634a2e22d3146105875780634c0e35b1146105825780634ef7d2251461057d578063524d530b1461044c5780635557005d14610555578063558a729714610578578063565e3eff1461057357806356eb00a11461056e57806357970e931461056957806359c810c1146105645780635e7b8eea1461055f57806361728f391461055a57806363e3625814610555578063685f9b3f1461055057806369298b6c1461054b5780636b90bda9146105465780636d70f7ae146105415780636f10934e1461053c5780636f116a6a146105375780636f6f8c5d146104fb578063715018a614610532578063773b8e901461052d578063787dce3d14610528578063802bb2f0146105235780638d0cbf6a1461051e5780638da5cb5b146105195780638e50e509146105145780639c24ea401461050f5780639c2dcafb1461050a5780639d0f5ef1146105055780639df9897714610500578063a2b32732146104fb578063a3e56fa8146104f6578063aafc51c3146104f1578063ada5c132146104ec578063b0d96580146104e7578063b0fb162f146104e2578063b16abdd4146104dd578063b546ba4a146104d8578063b5e1a3c014610492578063bacb927e146104d3578063bbbfd288146104ce578063bd12dd64146104c9578063be831919146104c4578063c84728ef146104bf578063c91f0cfc146104ba578063cb2d93ce146104b5578063d1a92288146104b0578063d333aed3146104ab578063d5a6d60c146104a6578063d63843cd146104a1578063d7c775241461049c578063d88ff1f414610497578063d91043f214610492578063dc52834e1461048d578063dd6eba7e14610488578063de3d9fb71461046f578063e48f37da14610483578063e720c0051461047e578063ec644ddd14610479578063ec66705f14610474578063ed647d211461046f578063f112bd991461046a578063f25949f914610465578063f2fde38b14610460578063f45d809a1461045b578063f726272c14610456578063fd62120e14610451578063ff3cd61e1461044c5763ffe89fc61461044757600080fd5b613089565b61174d565b613000565b612f42565b612e3e565b612d7b565b612c12565b612bb0565b612990565b612b76565b612b06565b612ae8565b6129ae565b610d60565b610e7b565b61216f565b612912565b6127b5565b61278c565b6126aa565b6124e5565b6124bc565b612432565b6123f5565b6122de565b6121d1565b611410565b6121b0565b61218d565b612136565b612118565b6120f4565b6120c2565b6120a4565b612065565b61203c565b611cdb565b611fbd565b611f94565b611f76565b611f0a565b611eec565b611ec3565b611e57565b611dfa565b611da0565b611d54565b611cf9565b611caa565b611c1d565b610c34565b611bf4565b611b0c565b611a66565b611776565b611a48565b611a1f565b611a01565b6119d8565b6118ed565b611836565b6117b1565b611717565b6116f9565b611651565b611626565b6114e1565b611498565b611363565b61114c565b611064565b61103b565b610fcf565b610ec5565b610dbe565b610d9a565b610d3e565b610cb2565b610c73565b610b0a565b610ae7565b6109ed565b6109b7565b6108ae565b610717565b610691565b610673565b34610663576040366003190112610663577f060e9bb7b24700e1f67f61d02209b1fb7e61dcb50699bd88a5004e8649f3e4ec60243560043561063a6131e3565b806013558160145561065e6040519283928360209093929193604081019481520152565b0390a1005b600080fd5b600091031261066357565b34610663576000366003190112610663576020601254604051908152f35b34610663576020366003190112610663577facd3908fc55d712582462490cee05d9057e65c26303b042525311532c62d20df60206004356106d06131e3565b6106de6127108211156132d1565b80601a55604051908152a1005b600435906001600160a01b038216820361066357565b602435906001600160a01b038216820361066357565b34610663576040366003190112610663576107306106eb565b6001600160a01b038181166000908152600660205260409020602435919061076e908290610766905b546001600160a01b031690565b1615156134ee565b6001600160a01b0383166000908152600e6020526040902061079e9083905461079881151561352d565b14613579565b6107c46107bf6107b884600052600c602052604060002090565b5460ff1690565b61343d565b6107e460646107dd84600052600d602052604060002090565b54106135c5565b600154610801906001600160a01b03165b6001600160a01b031690565b92833b1561066357604051632fb1302360e21b8152600481018490526001600160a01b038216602482015260009485908290604490829084905af180156108a957610890575b5061085c83600052600d602052604060002090565b61086681546134b7565b9055167f8b4d66174491b3a6145331b676769c46f933c290811400f713f6dd7e0f7ada9f8380a380f35b8061089d6108a392613251565b80610668565b38610847565b6133f1565b34610663576020366003190112610663576108c76106eb565b6108cf6131e3565b6001600160a01b038116801561097257601c546108f6906107f5906001600160a01b031681565b91823b156106635760405163065bc36f60e01b81526001600160a01b0391909116600482015260009283908290602490829084905af180156108a95761095f575b507f4b841241ca1157d14ee4f0de82ff8f53fe31591f97ca699ca65ffaf45ea07ab58280a280f35b8061089d61096c92613251565b38610937565b60405162461bcd60e51b815260206004820152601b60248201527f496e76616c696420506f6f6c20696d706c656d656e746174696f6e00000000006044820152606490fd5b3461066357602036600319011261066357600435600052600d6020526020604060002054604051908152f35b8015150361066357565b3461066357602036600319011261066357600435610a0a816109e3565b80610a136131e3565b610a65575b61065e81610a537fbdf23e00552699ae5a512ee5aa85d84b038a9ed4d266ef34f1e887de46896d8d9360ff8019602254169115151617602255565b60405190151581529081906020820190565b60ff6020541615610a185760a460405162461bcd60e51b815260206004820152604460248201527f43616e6e6f7420656e61626c652063726561746f7220746f6b656e206665652060448201527f7768696c652063726561746f7220746f6b656e20676174696e672069732061636064820152637469766560e01b6084820152fd5b34610663576000366003190112610663576020610b026139e8565b604051908152f35b3461066357602036600319011261066357600435610b266131e3565b8015610bef57610b52610b4d610b496107b884600052600c602052604060002090565b1590565b6138dd565b610b5b81613929565b610b7f610b7282600052600c602052604060002090565b805460ff19166001179055565b610b92610b8d600a546134b7565b600a55565b600160095414610be1575b7fb2615094a1e63e6d2b94b964165480ab14d38fc7bb17dc29b281e00209d08d5c610bdc610bcc60095461395f565b6040519081529081906020820190565b0390a2005b610bea81600255565b610b9d565b60405162461bcd60e51b815260206004820152601760248201527f496e76616c696420737562736372697074696f6e2049440000000000000000006044820152606490fd5b34610663576020366003190112610663576001600160a01b03610c556106eb565b16600052601f602052602060ff604060002054166040519015158152f35b34610663576020366003190112610663576001600160a01b03610c946106eb565b166000526005602052602060ff604060002054166040519015158152f35b34610663576020366003190112610663577f1592f515c298c578903964a58733180fe97bdf05860fc70a7e21b61e8cc2d1b16080610cee6106eb565b610cf66131e3565b60018060a01b0316806001600160601b0360a01b601c541617601c556040519060408252600c60408301526b2837b7b62232b83637bcb2b960a11b60608301526020820152a1005b3461066357600036600319011261066357602060ff8154166040519015158152f35b34610663576020366003190112610663576001600160a01b03610d816106eb565b16600052600e6020526020604060002054604051908152f35b3461066357600036600319011261066357602063ffffffff60045416604051908152f35b3461066357604036600319011261066357600435602435610ddd6131e3565b610de882151561328c565b81811115610e3657817faae06c8bb7d45661a4b277b7040cb05af4d0e488b1310072e5d30e9f9fcb8dfe926010558160125561065e6040519283928360209093929193604081019481520152565b60405162461bcd60e51b815260206004820152601c60248201527f4d6178206d7573742062652067726561746572207468616e206d696e000000006044820152606490fd5b34610663576000366003190112610663576020601754604051908152f35b602435906001600160601b038216820361066357565b600435906001600160601b038216820361066357565b604036600319011261066357600435610edc610e99565b90610ee56131e3565b600091818352600c602052610f026107bf6040852060ff90541690565b6001600160601b03811690610f1882341461374c565b6001548490610f2f906001600160a01b03166107f5565b92833b15610fcb57604051634cf94d8760e01b8152600481018690526001600160601b03841660248201529384916044918391905af19081156108a9577f24761a552e7853f2c57abfbcc0b0e9698da9811db99b96034c7b7fefb067860a92610fb292610fb8575b506040516001600160601b0390911681529081906020820190565b0390a280f35b8061089d610fc592613251565b38610f97565b5080fd5b34610663576020366003190112610663577ffd76f8ed4d910bcb9cc812e605a5c8b31f7b84ab658feb2d9bf60de6f7adf072602061100b6106eb565b6110136131e3565b601680546001600160a01b0319166001600160a01b03929092169182179055604051908152a1005b3461066357600036600319011261066357601c546040516001600160a01b039091168152602090f35b346106635760403660031901126106635761107d6106eb565b611085610701565b61108d6131e3565b6001600160a01b03828116906110a4821515613359565b8216916110b28315156133a5565b601d546110c9906107f5906001600160a01b031681565b90813b1561066357604051630d76b84160e21b81526001600160a01b039586166004820152941660248501526000939084908290604490829084905af180156108a957611139575b507f055d29287d43159ed5b46366888181c01552bd982dcbd9380ade3dc5a1069f448380a380f35b8061089d61114692613251565b38611111565b34610663576040366003190112610663576111656106eb565b6001600160a01b03808216600090815260066020526040902060243592919061119390829061076690610759565b61119e83151561352d565b6001600160a01b0382166000908152600e602052604090206111c49084905b5414613579565b81169060405163c19d93fb60e01b8152602081600481865afa60009181611333575b506112285760405162461bcd60e51b8152602060048201526015602482015274125b9d985b1a59081c1bdbdb0818dbdb9d1c9858dd605a1b6044820152606490fd5b8061123561124792613629565b6004811490811561131f575b50613649565b60015461125c906001600160a01b03166107f5565b90813b156106635760405163cb63179760e01b8152600481018590526001600160a01b0382166024820152916000908390604490829084905af19081156108a9576000926112e49261130c575b506112be85600052600d602052604060002090565b6112c88154613695565b90556001600160a01b03166000908152600e6020526040902090565b557f46d7f264cf963b550773f629b4cd2668e69e465b630a862303300db477104e9e600080a3005b8061089d61131992613251565b386112a9565b6006915061132c81613629565b1438611241565b61135591925060203d811161135c575b61134d818361326a565b810190613611565b90386111e6565b503d611343565b346106635760008060031936011261140d5761137d6131e3565b60015460405163288688f960e21b8152906020908290600490829086906001600160a01b03165af19081156108a95782916113df575b50806002557f6a2b70dde6ae0193f84b6a9eeb3b0ebdc3a35e99d9167b88c570158dd09cb0f78280a280f35b611400915060203d8111611406575b6113f8818361326a565b8101906134df565b386113b3565b503d6113ee565b80fd5b3461066357600036600319011261066357602060ff601854166040519015158152f35b634e487b7160e01b600052603260045260246000fd5b600f5481101561146e57600f600052600080516020613c3b8339815191520190600090565b611433565b60095481101561146e576009600052600080516020613c1b8339815191520190600090565b3461066357602036600319011261066357600435600f5481101561066357600f600052600080516020613c3b83398151915201546040516001600160a01b039091168152602090f35b34610663576040366003190112610663576114fa6106eb565b6004602060243561155760018060a01b039161152f836107666107598960018060a01b03166000526006602052604060002090565b61153a81151561352d565b6001600160a01b0386166000908152600e602052604090206111bd565b60405163c19d93fb60e01b8152928391829086165afa60009181611606575b506115b85760405162461bcd60e51b8152602060048201526015602482015274125b9d985b1a59081c1bdbdb0818dbdb9d1c9858dd605a1b6044820152606490fd5b6000916115dc826115cb6115f694613629565b600781149081156115f95750613649565b6001600160a01b03166000908152600e6020526040902090565b55005b6005915061132c81613629565b61161f91925060203d811161135c5761134d818361326a565b9038611576565b34610663576000366003190112610663576020805460405160089190911c6001600160a01b03168152f35b346106635760203660031901126106635761166a6106eb565b601d546001600160a01b039190821633036116c157166000818152600560205260408120805460ff19166001179055907feb4d1b1ad6245003e8b460f686262712b4f75c37e82b6aa0f9445acef51699258280a280f35b60405162461bcd60e51b815260206004820152601060248201526f4f6e6c79204e465420666163746f727960801b6044820152606490fd5b34610663576000366003190112610663576020602154604051908152f35b346106635760003660031901126106635760105460115460125460408051938452602084019290925290820152606090f35b0390f35b34610663576000366003190112610663576016546040516001600160a01b039091168152602090f35b346106635760203660031901126106635760206001600160a01b038061179a6106eb565b166000526006825260406000205416604051908152f35b34610663576040366003190112610663577f966c160e1c4dbc7df8d69af4ace01e9297c3cf016397b7914971f2fbfa32672d60406117ed6106eb565b602435906117fa826109e3565b6118026131e3565b60018060a01b03169081600052601f602052826000209015159060ff1981541660ff831617905582519182526020820152a1005b34610663576000366003190112610663576020601054604051908152f35b90815180825260208080930193019160005b828110611874575050505090565b835185529381019392810192600101611866565b93929061189d90606086526060860190611854565b936020948181038683015285808551928381520194019060005b8181106118d7575050506118d49394506040818403910152611854565b90565b82511515865294870194918701916001016118b7565b346106635760008060031936011261140d5760099081549061190e82613af1565b9161191881613489565b93611926604051958661326a565b818552601f1961193583613489565b0136602087013761194582613af1565b92805b83811061195f5760405180611749878a8a84611888565b6119d3908383526119c281600080516020613c1b833981519152015480611986848b6134cb565b526119b26119a16107b883600052600c602052604060002090565b6119ab858d6134cb565b9015159052565b600052600d602052604060002090565b546119cd82886134cb565b526134b7565b611948565b34610663576000366003190112610663576008546040516001600160a01b039091168152602090f35b34610663576000366003190112610663576020601154604051908152f35b346106635760003660031901126106635760135460145460408051928352602083019190915290f35b34610663576000366003190112610663576020600354604051908152f35b3461066357602036600319011261066357600435611a826131e3565b611a8d81151561328c565b6012548111611ac7576020817f291daec6a47f71c520266280decf6541de28bfc533f4fcb9008ef998e80d6b4392601155604051908152a1005b60405162461bcd60e51b815260206004820152601760248201527f43616e6e6f7420657863656564206d6178206c696d69740000000000000000006044820152606490fd5b3461066357602036600319011261066357600435611b29816109e3565b80611b326131e3565b611b72575b61065e81610a537fd51f4da6908aaf82430091852ae91fca16288cc00688962b02a4c925e7e5e5e29360ff8019602054169115151617602055565b60ff6022541615611b375760a460405162461bcd60e51b815260206004820152604460248201527f43616e6e6f7420656e61626c652063726561746f7220746f6b656e206761746960448201527f6e67207768696c652063726561746f7220746f6b656e206665652069732061636064820152637469766560e01b6084820152fd5b3461066357600036600319011261066357601e546040516001600160a01b039091168152602090f35b3461066357602036600319011261066357600435611c396131e3565b8015611c70576020817f9c84a9f70e768195c39390d1116ced0dc727c5e18b8d1d35def06c413d69153c92601755604051908152a1005b60405162461bcd60e51b81526020600482015260126024820152714d757374206265206174206c65617374203160701b6044820152606490fd5b3461066357602036600319011261066357600435600052600c602052602060ff604060002054166040519015158152f35b34610663576000366003190112610663576020601554604051908152f35b346106635760008060031936011261140d57611d136131e3565b80546001600160a01b03198116825581906001600160a01b03167f8be0079c531659141344cd1fd0a4f28419497f9722a3daafe3b4186f6b6457e08280a380f35b34610663576020366003190112610663577f81b14762c94592dd09a55cccc0bd4ee552bbc23f54115e475f4af6ad92ec6b1b6020600435611d936131e3565b80601555604051908152a1005b34610663576020366003190112610663577fd10d75876659a287a59a6ccfa2e3fff42f84d94b542837acd30bc184d562de406020600435611ddf6131e3565b611ded6127108211156132d1565b80601955604051908152a1005b3461066357604036600319011261066357611e136106eb565b60243560018060a01b03611e2c81601c541633146133fd565b600092828452600c602052611e4760ff60408620541661343d565b168252600e602052604082205580f35b34610663576000602036600319011261140d57611e726131e3565b60015481906001600160a01b0316803b15611ec057819060246040518094819363b2a7cac560e01b835260043560048401525af180156108a957611eb4575080f35b611ebd90613251565b80f35b50fd5b34610663576000366003190112610663576000546040516001600160a01b039091168152602090f35b34610663576000366003190112610663576020601954604051908152f35b34610663576020366003190112610663577fe2d763f65bbed04f8954b0f0a3af42f687469bdd154132ba533accf0f0291a2b6020611f466106eb565b611f4e6131e3565b600880546001600160a01b0319166001600160a01b03929092169182179055604051908152a1005b34610663576000366003190112610663576020601454604051908152f35b346106635760003660031901126106635760105460125460408051928352602083019190915290f35b3461066357602036600319011261066357611fd66106eb565b611fde6131e3565b6001600160a01b03168015612005576001600160601b0360a01b601e541617601e55600080f35b60405162461bcd60e51b815260206004820152600f60248201526e496e76616c6964206164647265737360881b6044820152606490fd5b34610663576000366003190112610663576001546040516001600160a01b039091168152602090f35b3461066357602036600319011261066357600435600954811015610663576020906009600052600080516020613c1b8339815191520154604051908152f35b34610663576000366003190112610663576020601b54604051908152f35b346106635760003660031901126106635760105460125460175460408051938452602084019290925290820152606090f35b3461066357600036600319011261066357602060045461ffff60405191831c168152f35b34610663576000366003190112610663576020600a54604051908152f35b3461066357602036600319011261066357600435612153816109e3565b15612165576020601054604051908152f35b6020601154610b02565b34610663576000366003190112610663576020601a54604051908152f35b3461066357600036600319011261066357602060ff602254166040519015158152f35b34610663576020366003190112610663576121c96131e3565b600435601b55005b6020366003190112610663576121e5610eaf565b6121ed6131e3565b6001600160601b0381169061220382341461374c565b6001546002546001600160a01b0390911692833b1561066357604051634cf94d8760e01b815260048101929092526001600160601b03831660248301529092600091849160449183915af19081156108a9577f0148caca16863fb5a77543489023e89a5d3360fe9229a1e6f9d553b800aa91699261065e92610fb857506040516001600160601b0390911681529081906020820190565b6020908160408183019282815285518094520193019160005b8281106122c1575050505090565b83516001600160a01b0316855293810193928101926001016122b3565b34610663576020366003190112610663576122f76106eb565b600f9081549061230682613489565b91612314604051938461326a565b808352601f1961232382613489565b0136602085013760009384926001600160a01b0390811691845b8481106123555785875260405180611749898261229a565b818852600080516020613c3b8339815191528101546001600160a01b031660009081526006602052604090208490849061238e90610759565b16146123a3575b61239e906134b7565b61233d565b946123ed61239e916123e86123cf6123ba8a611449565b905460039190911b1c6001600160a01b031690565b6123d9838c6134cb565b6001600160a01b039091169052565b6134b7565b959050612395565b346106635760203660031901126106635760206001600160a01b03806124196106eb565b1660005260068252604060002054161515604051908152f35b34610663576020366003190112610663577f1592f515c298c578903964a58733180fe97bdf05860fc70a7e21b61e8cc2d1b1608061246e6106eb565b6124766131e3565b60018060a01b0316806001600160601b0360a01b601d541617601d556040519060408252600a6040830152694e4654466163746f727960b01b60608301526020820152a1005b3461066357600036600319011261066357601954601a5460408051928352602083019190915290f35b3461066357604036600319011261066357600435612501610e99565b9061250a6131e3565b6125246107bf6107b883600052600c602052604060002090565b600854612539906001600160a01b03166107f5565b6040516323b872dd60e01b81523360048201523060248201526001600160601b038416604482015260009360209283908390606490829089905af19182156108a9576126039261259091879161268d575b50613b23565b60085483906125a7906001600160a01b03166107f5565b6001546125bc906001600160a01b03166107f5565b908388604051936125e6856125d88c8983019190602083019252565b03601f19810187528661326a565b604051630200057560e51b81529788958694859360048501613816565b03925af19283156108a9577f24761a552e7853f2c57abfbcc0b0e9698da9811db99b96034c7b7fefb067860a93610fb293612646928892612660575b5050613b6f565b6040516001600160601b0390911681529081906020820190565b61267f9250803d10612686575b612677818361326a565b81019061378f565b388061263f565b503d61266d565b6126a49150853d871161268657612677818361326a565b3861258a565b34610663576020366003190112610663576004356126c66131e3565b600090808252600c6020526126e160ff60408420541661343d565b808252600d60205260408220546127485761271361270982600052600c602052604060002090565b805460ff19169055565b612721610b8d600a54613695565b7fc0d777cb9485c91def1a14a6e7787be4cc14b102d3475a0435ef9639c9c560998280a280f35b606460405162461bcd60e51b815260206004820152602060248201527f537562736372697074696f6e207374696c6c2068617320636f6e73756d6572736044820152fd5b3461066357600036600319011261066357601d546040516001600160a01b039091168152602090f35b3461066357602080600319360112610663576127cf610eaf565b906127d86131e3565b6008546127ed906001600160a01b03166107f5565b6040516323b872dd60e01b81523360048201523060248201526001600160601b03841660448201529092828280606481010381600080985af19182156108a95761288f926128429186916128f5575b506137a4565b60085483906125d89061285d906001600160a01b03166107f5565b60015484908890612876906001600160a01b03166107f5565b6125e66002546040519687918983019190602083019252565b03925af19283156108a9577f0148caca16863fb5a77543489023e89a5d3360fe9229a1e6f9d553b800aa9169936128d2936126469287926128d8575b505061387d565b0390a180f35b6128ee9250803d1061268657612677818361326a565b38806128cb565b61290c9150853d871161268657612677818361326a565b3861283c565b346106635760003660031901126106635760405180600f5491828152602080910192600f600052600080516020613c3b833981519152916000905b82821061297057611749856129648189038261326a565b6040519182918261229a565b83546001600160a01b03168652948501946001938401939091019061294d565b34610663576000366003190112610663576020600254604051908152f35b6020366003190112610663576129c2610eaf565b6129ca6131e3565b6001600160601b038116906129eb6129e4600a5484613bbb565b3414613bce565b60005b600954811015612ae657612a0e612a0482611473565b90549060031b1c90565b90612a266107b883600052600c602052604060002090565b612a3a575b612a3591506134b7565b6129ee565b600154612a4f906001600160a01b03166107f5565b91823b156106635760408051634cf94d8760e01b8152600481018390526001600160601b038616602482015293600090859060449082908a905af19081156108a957612a35947f24761a552e7853f2c57abfbcc0b0e9698da9811db99b96034c7b7fefb067860a92612ad3575b50516001600160601b0386168152602090a2612a2b565b8061089d612ae092613251565b38612abc565b005b34610663576000366003190112610663576020601354604051908152f35b346106635760008060031936011261140d57338152600e60205260409020548015612b6b5760a0905b61ffff600180841b036001541691600354600454916040519485526020850152604084015263ffffffff8116606084015260201c166080820152f35b5060a0600254612b2f565b34610663576020366003190112610663576001600160a01b03612b976106eb565b1660005260076020526020604060002054604051908152f35b34610663576020366003190112610663577f3387d2b55c2294aa390fd99c3e1429775aa0e41d3da9f40db18bb3668d2e7c336020600435612bf0816109e3565b612bf86131e3565b151560ff196018541660ff821617601855604051908152a1005b346106635760403660031901126106635760043567ffffffffffffffff808211610663573660238301121561066357816004013590811161066357602482019160248236920101116106635760607f1592f515c298c578903964a58733180fe97bdf05860fc70a7e21b61e8cc2d1b19282612c8b610701565b612c936131e3565b7f4b35529e56b244d05ef40bce36fd9c95cd911003461d7436e70939aa537dd07d612cbf368486613312565b6020815191012014600014612d2357601c80546001600160a01b0319166001600160a01b0383161790555b604051948593604085528160408601528585013760008383018501526001600160a01b03166020830152601f01601f19168101030190a1005b7fd826c10e37a7770f02c01ddf03373f8c12e6ec73eac52b5d0ff825017dc682ef612d4f368486613312565b6020815191012003612cea57601d80546001600160a01b0319166001600160a01b038316179055612cea565b3461066357602036600319011261066357612d946106eb565b612d9c6131e3565b6001600160a01b039081168015612dea57600080546001600160a01b03198116831782559092167f8be0079c531659141344cd1fd0a4f28419497f9722a3daafe3b4186f6b6457e08380a380f35b60405162461bcd60e51b815260206004820152602660248201527f4f776e61626c653a206e6577206f776e657220697320746865207a65726f206160448201526564647265737360d01b6064820152608490fd5b3461066357604036600319011261066357612e576106eb565b602435612e626131e3565b6001600160a01b03821615612efd578015612ea65760208054610100600160a81b03191660089390931b610100600160a81b031692909217909155612ae690602155565b60405162461bcd60e51b815260206004820152602960248201527f4d696e696d756d2062616c616e6365206d7573742062652067726561746572206044820152687468616e207a65726f60b81b6064820152608490fd5b60405162461bcd60e51b815260206004820152601c60248201527f546f6b656e20616464726573732063616e6e6f74206265207a65726f000000006044820152606490fd5b346106635760008060031936011261140d57612f5c6131e3565b6001546002548254909183916001600160a01b039081169116803b15612ffc57604051622b825560e61b815260048101949094526001600160a01b039190911660248401528290604490829084905af180156108a957612fe9575b50612fc26000600255565b7fad9127d67531701fd4222369e46413ad989a276f8ae432b7a2bb01a147a1be9e8180a180f35b8061089d612ff692613251565b38612fb7565b8280fd5b34610663576060366003190112610663576130196106eb565b6044359063ffffffff8216809203610663576130336131e3565b60018060a01b03166001600160601b0360a01b600154161760015560243560035563ffffffff1960045416176004557f4c6a50dab5e2b4bdf345de73b06a62ca5c45dde34eecef3c38eb568564f6547c600080a1005b34610663576060366003190112610663576130a26106eb565b6130aa610701565b9060018060a01b036130c181601c541633146133fd565b60405191630f6e867360e01b835260009360208460048188305af19384156108a95785946131bf575b506001600160a01b0382166000908152600e60205260409020849055613155906131158515156136a2565b61311e836136fa565b6001600160a01b038316600090815260066020526040902080546001600160a01b0319166001600160a01b03909216919091179055565b6001600160a01b0381166000908152600760205260409020604435905516807f9cc152f4650ca2829a210a21551537f4cc4d48c2611ec06974f835e911921b908480a27faefe964a6ba1785c0718ded8476dce9589b858a69235c089b121271e1dae2d938380a380f35b6131559194506131dc9060203d8111611406576113f8818361326a565b93906130ea565b6000546001600160a01b031633036131f757565b606460405162461bcd60e51b815260206004820152602060248201527f4f776e61626c653a2063616c6c6572206973206e6f7420746865206f776e65726044820152fd5b634e487b7160e01b600052604160045260246000fd5b67ffffffffffffffff811161326557604052565b61323b565b90601f8019910116810190811067ffffffffffffffff82111761326557604052565b1561329357565b60405162461bcd60e51b81526020600482015260166024820152754d696e206d757374206265206174206c65617374203160501b6044820152606490fd5b156132d857565b60405162461bcd60e51b815260206004820152601260248201527143616e6e6f7420657863656564203130302560701b6044820152606490fd5b92919267ffffffffffffffff8211613265576040519161333c601f8201601f19166020018461326a565b829481845281830111610663578281602093846000960137010152565b1561336057565b60405162461bcd60e51b815260206004820152601d60248201527f496e76616c69642045524337323120696d706c656d656e746174696f6e0000006044820152606490fd5b156133ac57565b60405162461bcd60e51b815260206004820152601e60248201527f496e76616c6964204552433131353520696d706c656d656e746174696f6e00006044820152606490fd5b6040513d6000823e3d90fd5b1561340457565b60405162461bcd60e51b815260206004820152601160248201527027b7363c902837b7b62232b83637bcb2b960791b6044820152606490fd5b1561344457565b60405162461bcd60e51b815260206004820152601760248201527f537562736372697074696f6e206e6f74206163746976650000000000000000006044820152606490fd5b67ffffffffffffffff81116132655760051b60200190565b634e487b7160e01b600052601160045260246000fd5b60001981146134c65760010190565b6134a1565b805182101561146e5760209160051b010190565b90816020910312610663575190565b156134f557565b60405162461bcd60e51b815260206004820152601060248201526f139bdd0818481d985b1a59081c1bdbdb60821b6044820152606490fd5b1561353457565b60405162461bcd60e51b815260206004820152601860248201527f4e6f20737562736372697074696f6e2061737369676e656400000000000000006044820152606490fd5b1561358057565b60405162461bcd60e51b815260206004820152601d60248201527f496e76616c696420737562736372697074696f6e20666f7220706f6f6c0000006044820152606490fd5b156135cc57565b60405162461bcd60e51b815260206004820152601860248201527f537562736372697074696f6e20617420636170616369747900000000000000006044820152606490fd5b90816020910312610663575160088110156106635790565b6008111561363357565b634e487b7160e01b600052602160045260246000fd5b1561365057565b60405162461bcd60e51b815260206004820152601e60248201527f506f6f6c206d75737420626520696e207465726d696e616c20737461746500006044820152606490fd5b80156134c6576000190190565b156136a957565b60405162461bcd60e51b8152602060048201526024808201527f506f6f6c206d757374206861766520737562736372697074696f6e206173736960448201526319db995960e21b6064820152608490fd5b600f54600160401b811015613265576001810180600f5581101561146e57600f600052600080516020613c3b8339815191520180546001600160a01b0319166001600160a01b03909216919091179055565b1561375357565b60405162461bcd60e51b8152602060048201526014602482015273125b98dbdc9c9958dd0811551208185b5bdd5b9d60621b6044820152606490fd5b9081602091031261066357516118d4816109e3565b156137ab57565b60405162461bcd60e51b815260206004820152603e60248201527f4c494e4b207472616e7366657246726f6d206661696c65642e2044696420796f60448201527f7520617070726f7665207468652050726f746f636f6c4d616e616765723f00006064820152608490fd5b9193929060018060a01b031682526001600160601b0360209416848301526060604083015280519081606084015260005b82811061386957505060809293506000838284010152601f8019910116010190565b818101860151848201608001528501613847565b1561388457565b60405162461bcd60e51b815260206004820152602b60248201527f4c494e4b207472616e73666572416e6443616c6c20746f20636f6f7264696e6160448201526a3a37b9103330b4b632b21760a91b6064820152608490fd5b156138e457565b60405162461bcd60e51b815260206004820152601a60248201527f537562736372697074696f6e20616c72656164792061646465640000000000006044820152606490fd5b600954600160401b81101561326557600181018060095581101561146e576009600052600080516020613c1b8339815191520155565b6000198101919082116134c657565b1561397557565b60405162461bcd60e51b815260206004820152601760248201527f4e6f2061637469766520737562736372697074696f6e730000000000000000006044820152606490fd5b90600182018092116134c657565b81156139d2570690565b634e487b7160e01b600052601260045260246000fd5b6139f5600a54151561396e565b600b9081549060005b60095480821015613ae7578454613a17612a0482611473565b613a2e6107b882600052600c602052604060002090565b80613ac9575b613abf5750613a52613a579392613a4d6123e8936139ba565b6139c8565b600b55565b908284541480613ab6575b613a6c57906139fe565b505050505b60405162461bcd60e51b815260206004820152601d60248201527f416c6c20737562736372697074696f6e732061742063617061636974790000006044820152606490fd5b50811515613a62565b9450505050915090565b506064613ae082600052600d602052604060002090565b5410613a34565b5050505050613a71565b90613afb82613489565b613b08604051918261326a565b8281528092613b19601f1991613489565b0190602036910137565b15613b2a57565b60405162461bcd60e51b815260206004820152601860248201527f4c494e4b207472616e7366657246726f6d206661696c656400000000000000006044820152606490fd5b15613b7657565b60405162461bcd60e51b815260206004820152601b60248201527f4c494e4b207472616e73666572416e6443616c6c206661696c656400000000006044820152606490fd5b818102929181159184041417156134c657565b15613bd557565b60405162461bcd60e51b815260206004820152601a60248201527f496e636f727265637420746f74616c2045544820616d6f756e740000000000006044820152606490fdfe6e1540171b6c0c960b71a7020d9f60077f6af931a8bbf590da0223dacf75c7af8d1108e10bcb7c27dddfc02ed9d693a074039d026cf4ea4240b40f7d581ac802a26469706673582212203ddf881a0ec19c5924a8c5149221fc3a4e7df3ce37ad1ed35b31e27e056b7ac764736f6c63430008130033",
  "linkReferences": {},
  "deployedLinkReferences": {}
}