{
  "_format": "hh-sol-artifact-1",
  "contractName": "ProtocolManager",
  "sourceName": "contracts/ProtocolManager.sol",
  "abi": [
    {
      "inputs": [
        {
          "internalType": "address",
          "name": "_vrfCoordinator",
          "type": "address"
        },
        {
          "internalType": "bytes32",
          "name": "_keyHash",
          "type": "bytes32"
        },
        {
          "internalType": "address",
          "name": "_linkToken",
          "type": "address"
        },
        {
          "internalType": "uint32",
          "name": "_callbackGasLimit",
          "type": "uint32"
        },
        {
          "internalType": "uint16",
          "name": "_requestConfirmations",
          "type": "uint16"
        }
      ],
      "stateMutability": "nonpayable",
      "type": "constructor"
    },
    {
      "anonymous": false,
      "inputs": [
        {
          "indexed": false,
          "internalType": "string",
          "name": "contractType",
          "type": "string"
        },
        {
          "indexed": false,
          "internalType": "address",
          "name": "newAddress",
          "type": "address"
        }
      ],
      "name": "ContractReplaced",
      "type": "event"
    },
    {
      "anonymous": false,
      "inputs": [
        {
          "indexed": true,
          "internalType": "address",
          "name": "collection",
          "type": "address"
        }
      ],
      "name": "InternalCollectionAdded",
      "type": "event"
    },
    {
      "anonymous": false,
      "inputs": [
        {
          "indexed": false,
          "internalType": "address",
          "name": "newLinkToken",
          "type": "address"
        }
      ],
      "name": "LinkTokenUpdated",
      "type": "event"
    },
    {
      "anonymous": false,
      "inputs": [
        {
          "indexed": true,
          "internalType": "address",
          "name": "erc721Implementation",
          "type": "address"
        },
        {
          "indexed": true,
          "internalType": "address",
          "name": "erc1155Implementation",
          "type": "address"
        }
      ],
      "name": "NFTFactoryImplementationsUpdated",
      "type": "event"
    },
    {
      "anonymous": false,
      "inputs": [
        {
          "indexed": false,
          "internalType": "address",
          "name": "operator",
          "type": "address"
        },
        {
          "indexed": false,
          "internalType": "bool",
          "name": "status",
          "type": "bool"
        }
      ],
      "name": "OperatorUpdated",
      "type": "event"
    },
    {
      "anonymous": false,
      "inputs": [
        {
          "indexed": true,
          "internalType": "address",
          "name": "previousOwner",
          "type": "address"
        },
        {
          "indexed": true,
          "internalType": "address",
          "name": "newOwner",
          "type": "address"
        }
      ],
      "name": "OwnershipTransferred",
      "type": "event"
    },
    {
      "anonymous": false,
      "inputs": [
        {
          "indexed": true,
          "internalType": "address",
          "name": "poolImplementation",
          "type": "address"
        }
      ],
      "name": "PoolDeployerImplementationUpdated",
      "type": "event"
    },
    {
      "anonymous": false,
      "inputs": [
        {
          "indexed": true,
          "internalType": "address",
          "name": "pool",
          "type": "address"
        }
      ],
      "name": "PoolRegistered",
      "type": "event"
    },
    {
      "anonymous": false,
      "inputs": [
        {
          "indexed": false,
          "internalType": "address",
          "name": "newAddress",
          "type": "address"
        }
      ],
      "name": "RevenueManagerUpdated",
      "type": "event"
    },
    {
      "anonymous": false,
      "inputs": [
        {
          "indexed": true,
          "internalType": "uint256",
          "name": "subscriptionId",
          "type": "uint256"
        }
      ],
      "name": "SubscriptionCreated",
      "type": "event"
    },
    {
      "anonymous": false,
      "inputs": [
        {
          "indexed": false,
          "internalType": "uint96",
          "name": "amount",
          "type": "uint96"
        }
      ],
      "name": "SubscriptionFunded",
      "type": "event"
    },
    {
      "anonymous": false,
      "inputs": [
        {
          "indexed": true,
          "internalType": "uint256",
          "name": "subscriptionId",
          "type": "uint256"
        },
        {
          "indexed": false,
          "internalType": "uint96",
          "name": "amount",
          "type": "uint96"
        }
      ],
      "name": "SubscriptionFundedWithDetails",
      "type": "event"
    },
    {
      "anonymous": false,
      "inputs": [
        {
          "indexed": true,
          "internalType": "address",
          "name": "pool",
          "type": "address"
        },
        {
          "indexed": true,
          "internalType": "uint256",
          "name": "assignedSubscriptionId",
          "type": "uint256"
        }
      ],
      "name": "SubscriptionPreAssigned",
      "type": "event"
    },
    {
      "anonymous": false,
      "inputs": [
        {
          "indexed": true,
          "internalType": "address",
          "name": "consumer",
          "type": "address"
        },
        {
          "indexed": true,
          "internalType": "uint256",
          "name": "subscriptionId",
          "type": "uint256"
        }
      ],
      "name": "VRFConsumerAddedToSubscription",
      "type": "event"
    },
    {
      "anonymous": false,
      "inputs": [
        {
          "indexed": true,
          "internalType": "address",
          "name": "consumer",
          "type": "address"
        },
        {
          "indexed": true,
          "internalType": "uint256",
          "name": "subscriptionId",
          "type": "uint256"
        }
      ],
      "name": "VRFConsumerRemovedFromSubscription",
      "type": "event"
    },
    {
      "anonymous": false,
      "inputs": [],
      "name": "VRFParamsUpdated",
      "type": "event"
    },
    {
      "anonymous": false,
      "inputs": [
        {
          "indexed": true,
          "internalType": "uint256",
          "name": "subscriptionId",
          "type": "uint256"
        },
        {
          "indexed": false,
          "internalType": "uint256",
          "name": "index",
          "type": "uint256"
        }
      ],
      "name": "VRFSubscriptionAdded",
      "type": "event"
    },
    {
      "anonymous": false,
      "inputs": [],
      "name": "VRFSubscriptionCancelled",
      "type": "event"
    },
    {
      "anonymous": false,
      "inputs": [
        {
          "indexed": true,
          "internalType": "uint256",
          "name": "subscriptionId",
          "type": "uint256"
        }
      ],
      "name": "VRFSubscriptionRemoved",
      "type": "event"
    },
    {
      "inputs": [
        {
          "internalType": "uint256",
          "name": "subscriptionId",
          "type": "uint256"
        }
      ],
      "name": "acceptVRFOwnership",
      "outputs": [],
      "stateMutability": "nonpayable",
      "type": "function"
    },
    {
      "inputs": [],
      "name": "activeSubscriptionCount",
      "outputs": [
        {
          "internalType": "uint256",
          "name": "",
          "type": "uint256"
        }
      ],
      "stateMutability": "view",
      "type": "function"
    },
    {
      "inputs": [
        {
          "internalType": "address",
          "name": "_collection",
          "type": "address"
        }
      ],
      "name": "addInternalCollection",
      "outputs": [],
      "stateMutability": "nonpayable",
      "type": "function"
    },
    {
      "inputs": [
        {
          "internalType": "address",
          "name": "consumer",
          "type": "address"
        },
        {
          "internalType": "uint256",
          "name": "subscriptionId",
          "type": "uint256"
        }
      ],
      "name": "addVRFConsumer",
      "outputs": [],
      "stateMutability": "nonpayable",
      "type": "function"
    },
    {
      "inputs": [
        {
          "internalType": "uint256",
          "name": "subscriptionId",
          "type": "uint256"
        }
      ],
      "name": "addVRFSubscription",
      "outputs": [],
      "stateMutability": "nonpayable",
      "type": "function"
    },
    {
      "inputs": [
        {
          "internalType": "uint256",
          "name": "",
          "type": "uint256"
        }
      ],
      "name": "allPools",
      "outputs": [
        {
          "internalType": "address",
          "name": "",
          "type": "address"
        }
      ],
      "stateMutability": "view",
      "type": "function"
    },
    {
      "inputs": [
        {
          "internalType": "address",
          "name": "pool",
          "type": "address"
        },
        {
          "internalType": "address",
          "name": "creator",
          "type": "address"
        },
        {
          "internalType": "uint256",
          "name": "timestamp",
          "type": "uint256"
        }
      ],
      "name": "batchSetupPool",
      "outputs": [],
      "stateMutability": "nonpayable",
      "type": "function"
    },
    {
      "inputs": [],
      "name": "callbackGasLimit",
      "outputs": [
        {
          "internalType": "uint32",
          "name": "",
          "type": "uint32"
        }
      ],
      "stateMutability": "view",
      "type": "function"
    },
    {
      "inputs": [],
      "name": "cancelVRFSubscription",
      "outputs": [],
      "stateMutability": "nonpayable",
      "type": "function"
    },
    {
      "inputs": [],
      "name": "createVRFSubscription",
      "outputs": [],
      "stateMutability": "nonpayable",
      "type": "function"
    },
    {
      "inputs": [
        {
          "internalType": "uint96",
          "name": "amountPerSubscription",
          "type": "uint96"
        }
      ],
      "name": "fundAllSubscriptionsWithNative",
      "outputs": [],
      "stateMutability": "payable",
      "type": "function"
    },
    {
      "inputs": [
        {
          "internalType": "uint96",
          "name": "amount",
          "type": "uint96"
        }
      ],
      "name": "fundVRFSubscriptionWithLink",
      "outputs": [],
      "stateMutability": "nonpayable",
      "type": "function"
    },
    {
      "inputs": [
        {
          "internalType": "uint256",
          "name": "subscriptionId",
          "type": "uint256"
        },
        {
          "internalType": "uint96",
          "name": "amount",
          "type": "uint96"
        }
      ],
      "name": "fundVRFSubscriptionWithLinkById",
      "outputs": [],
      "stateMutability": "nonpayable",
      "type": "function"
    },
    {
      "inputs": [
        {
          "internalType": "uint96",
          "name": "amount",
          "type": "uint96"
        }
      ],
      "name": "fundVRFSubscriptionWithNative",
      "outputs": [],
      "stateMutability": "payable",
      "type": "function"
    },
    {
      "inputs": [
        {
          "internalType": "uint256",
          "name": "subscriptionId",
          "type": "uint256"
        },
        {
          "internalType": "uint96",
          "name": "amount",
          "type": "uint96"
        }
      ],
      "name": "fundVRFSubscriptionWithNativeById",
      "outputs": [],
      "stateMutability": "payable",
      "type": "function"
    },
    {
      "inputs": [],
      "name": "getAllInternalCollections",
      "outputs": [
        {
          "internalType": "address[]",
          "name": "",
          "type": "address[]"
        }
      ],
      "stateMutability": "view",
      "type": "function"
    },
    {
      "inputs": [
        {
          "internalType": "uint256",
          "name": "cursor",
          "type": "uint256"
        },
        {
          "internalType": "uint256",
          "name": "pageSize",
          "type": "uint256"
        }
      ],
      "name": "getAllPools",
      "outputs": [
        {
          "internalType": "address[]",
          "name": "pools",
          "type": "address[]"
        },
        {
          "internalType": "uint256",
          "name": "newCursor",
          "type": "uint256"
        },
        {
          "internalType": "bool",
          "name": "hasMore",
          "type": "bool"
        }
      ],
      "stateMutability": "view",
      "type": "function"
    },
    {
      "inputs": [],
      "name": "getAllSubscriptions",
      "outputs": [
        {
          "internalType": "uint256[]",
          "name": "ids",
          "type": "uint256[]"
        },
        {
          "internalType": "bool[]",
          "name": "active",
          "type": "bool[]"
        },
        {
          "internalType": "uint256[]",
          "name": "consumerCounts",
          "type": "uint256[]"
        }
      ],
      "stateMutability": "view",
      "type": "function"
    },
    {
      "inputs": [],
      "name": "getNextVRFSubscription",
      "outputs": [
        {
          "internalType": "uint256",
          "name": "",
          "type": "uint256"
        }
      ],
      "stateMutability": "nonpayable",
      "type": "function"
    },
    {
      "inputs": [],
      "name": "getPoolCount",
      "outputs": [
        {
          "internalType": "uint256",
          "name": "",
          "type": "uint256"
        }
      ],
      "stateMutability": "view",
      "type": "function"
    },
    {
      "inputs": [
        {
          "internalType": "address",
          "name": "pool",
          "type": "address"
        }
      ],
      "name": "getPoolCreator",
      "outputs": [
        {
          "internalType": "address",
          "name": "",
          "type": "address"
        }
      ],
      "stateMutability": "view",
      "type": "function"
    },
    {
      "inputs": [
        {
          "internalType": "address",
          "name": "pool",
          "type": "address"
        }
      ],
      "name": "getPoolSubscription",
      "outputs": [
        {
          "internalType": "uint256",
          "name": "",
          "type": "uint256"
        }
      ],
      "stateMutability": "view",
      "type": "function"
    },
    {
      "inputs": [
        {
          "internalType": "address",
          "name": "creator",
          "type": "address"
        },
        {
          "internalType": "uint256",
          "name": "cursor",
          "type": "uint256"
        },
        {
          "internalType": "uint256",
          "name": "pageSize",
          "type": "uint256"
        }
      ],
      "name": "getPoolsByCreator",
      "outputs": [
        {
          "internalType": "address[]",
          "name": "pools",
          "type": "address[]"
        },
        {
          "internalType": "uint256",
          "name": "newCursor",
          "type": "uint256"
        },
        {
          "internalType": "bool",
          "name": "hasMore",
          "type": "bool"
        }
      ],
      "stateMutability": "view",
      "type": "function"
    },
    {
      "inputs": [],
      "name": "getRevenueManager",
      "outputs": [
        {
          "internalType": "address",
          "name": "",
          "type": "address"
        }
      ],
      "stateMutability": "view",
      "type": "function"
    },
    {
      "inputs": [],
      "name": "getSubscriptionId",
      "outputs": [
        {
          "internalType": "uint256",
          "name": "",
          "type": "uint256"
        }
      ],
      "stateMutability": "view",
      "type": "function"
    },
    {
      "inputs": [],
      "name": "getVRFParams",
      "outputs": [
        {
          "internalType": "address",
          "name": "",
          "type": "address"
        },
        {
          "internalType": "uint256",
          "name": "",
          "type": "uint256"
        },
        {
          "internalType": "bytes32",
          "name": "",
          "type": "bytes32"
        },
        {
          "internalType": "uint32",
          "name": "",
          "type": "uint32"
        },
        {
          "internalType": "uint16",
          "name": "",
          "type": "uint16"
        }
      ],
      "stateMutability": "view",
      "type": "function"
    },
    {
      "inputs": [
        {
          "internalType": "uint256",
          "name": "",
          "type": "uint256"
        }
      ],
      "name": "internalCollections",
      "outputs": [
        {
          "internalType": "address",
          "name": "",
          "type": "address"
        }
      ],
      "stateMutability": "view",
      "type": "function"
    },
    {
      "inputs": [
        {
          "internalType": "uint256",
          "name": "",
          "type": "uint256"
        }
      ],
      "name": "isActiveSubscription",
      "outputs": [
        {
          "internalType": "bool",
          "name": "",
          "type": "bool"
        }
      ],
      "stateMutability": "view",
      "type": "function"
    },
    {
      "inputs": [
        {
          "internalType": "address",
          "name": "",
          "type": "address"
        }
      ],
      "name": "isInternalCollection",
      "outputs": [
        {
          "internalType": "bool",
          "name": "",
          "type": "bool"
        }
      ],
      "stateMutability": "view",
      "type": "function"
    },
    {
      "inputs": [
        {
          "internalType": "address",
          "name": "operator",
          "type": "address"
        }
      ],
      "name": "isOperator",
      "outputs": [
        {
          "internalType": "bool",
          "name": "",
          "type": "bool"
        }
      ],
      "stateMutability": "view",
      "type": "function"
    },
    {
      "inputs": [
        {
          "internalType": "address",
          "name": "_address",
          "type": "address"
        }
      ],
      "name": "isPoolContract",
      "outputs": [
        {
          "internalType": "bool",
          "name": "",
          "type": "bool"
        }
      ],
      "stateMutability": "view",
      "type": "function"
    },
    {
      "inputs": [],
      "name": "keyHash",
      "outputs": [
        {
          "internalType": "bytes32",
          "name": "",
          "type": "bytes32"
        }
      ],
      "stateMutability": "view",
      "type": "function"
    },
    {
      "inputs": [],
      "name": "linkToken",
      "outputs": [
        {
          "internalType": "contract ILinkTransferAndCall",
          "name": "",
          "type": "address"
        }
      ],
      "stateMutability": "view",
      "type": "function"
    },
    {
      "inputs": [],
      "name": "nftFactory",
      "outputs": [
        {
          "internalType": "address",
          "name": "",
          "type": "address"
        }
      ],
      "stateMutability": "view",
      "type": "function"
    },
    {
      "inputs": [
        {
          "internalType": "address",
          "name": "",
          "type": "address"
        }
      ],
      "name": "operators",
      "outputs": [
        {
          "internalType": "bool",
          "name": "",
          "type": "bool"
        }
      ],
      "stateMutability": "view",
      "type": "function"
    },
    {
      "inputs": [],
      "name": "owner",
      "outputs": [
        {
          "internalType": "address",
          "name": "",
          "type": "address"
        }
      ],
      "stateMutability": "view",
      "type": "function"
    },
    {
      "inputs": [
        {
          "internalType": "address",
          "name": "",
          "type": "address"
        }
      ],
      "name": "poolCreationTimestamps",
      "outputs": [
        {
          "internalType": "uint256",
          "name": "",
          "type": "uint256"
        }
      ],
      "stateMutability": "view",
      "type": "function"
    },
    {
      "inputs": [
        {
          "internalType": "address",
          "name": "",
          "type": "address"
        }
      ],
      "name": "poolCreators",
      "outputs": [
        {
          "internalType": "address",
          "name": "",
          "type": "address"
        }
      ],
      "stateMutability": "view",
      "type": "function"
    },
    {
      "inputs": [],
      "name": "poolDeployer",
      "outputs": [
        {
          "internalType": "address",
          "name": "",
          "type": "address"
        }
      ],
      "stateMutability": "view",
      "type": "function"
    },
    {
      "inputs": [
        {
          "internalType": "address",
          "name": "",
          "type": "address"
        }
      ],
      "name": "poolToSubscriptionId",
      "outputs": [
        {
          "internalType": "uint256",
          "name": "",
          "type": "uint256"
        }
      ],
      "stateMutability": "view",
      "type": "function"
    },
    {
      "inputs": [
        {
          "internalType": "address",
          "name": "consumer",
          "type": "address"
        },
        {
          "internalType": "uint256",
          "name": "subscriptionId",
          "type": "uint256"
        }
      ],
      "name": "removeVRFConsumer",
      "outputs": [],
      "stateMutability": "nonpayable",
      "type": "function"
    },
    {
      "inputs": [
        {
          "internalType": "uint256",
          "name": "subscriptionId",
          "type": "uint256"
        }
      ],
      "name": "removeVRFSubscription",
      "outputs": [],
      "stateMutability": "nonpayable",
      "type": "function"
    },
    {
      "inputs": [],
      "name": "renounceOwnership",
      "outputs": [],
      "stateMutability": "nonpayable",
      "type": "function"
    },
    {
      "inputs": [
        {
          "internalType": "string",
          "name": "contractType",
          "type": "string"
        },
        {
          "internalType": "address",
          "name": "newAddress",
          "type": "address"
        }
      ],
      "name": "replaceContract",
      "outputs": [],
      "stateMutability": "nonpayable",
      "type": "function"
    },
    {
      "inputs": [],
      "name": "requestConfirmations",
      "outputs": [
        {
          "internalType": "uint16",
          "name": "",
          "type": "uint16"
        }
      ],
      "stateMutability": "view",
      "type": "function"
    },
    {
      "inputs": [],
      "name": "revenueManager",
      "outputs": [
        {
          "internalType": "address",
          "name": "",
          "type": "address"
        }
      ],
      "stateMutability": "view",
      "type": "function"
    },
    {
      "inputs": [],
      "name": "rewardsFlywheel",
      "outputs": [
        {
          "internalType": "address",
          "name": "",
          "type": "address"
        }
      ],
      "stateMutability": "view",
      "type": "function"
    },
    {
      "inputs": [
        {
          "internalType": "address",
          "name": "_linkToken",
          "type": "address"
        }
      ],
      "name": "setLinkToken",
      "outputs": [],
      "stateMutability": "nonpayable",
      "type": "function"
    },
    {
      "inputs": [
        {
          "internalType": "address",
          "name": "_nftFactory",
          "type": "address"
        }
      ],
      "name": "setNFTFactory",
      "outputs": [],
      "stateMutability": "nonpayable",
      "type": "function"
    },
    {
      "inputs": [
        {
          "internalType": "address",
          "name": "operator",
          "type": "address"
        },
        {
          "internalType": "bool",
          "name": "status",
          "type": "bool"
        }
      ],
      "name": "setOperator",
      "outputs": [],
      "stateMutability": "nonpayable",
      "type": "function"
    },
    {
      "inputs": [
        {
          "internalType": "address",
          "name": "_poolDeployer",
          "type": "address"
        }
      ],
      "name": "setPoolDeployer",
      "outputs": [],
      "stateMutability": "nonpayable",
      "type": "function"
    },
    {
      "inputs": [
        {
          "internalType": "address",
          "name": "_revenueManager",
          "type": "address"
        }
      ],
      "name": "setRevenueManager",
      "outputs": [],
      "stateMutability": "nonpayable",
      "type": "function"
    },
    {
      "inputs": [
        {
          "internalType": "address",
          "name": "_rewardsFlywheel",
          "type": "address"
        }
      ],
      "name": "setRewardsFlywheel",
      "outputs": [],
      "stateMutability": "nonpayable",
      "type": "function"
    },
    {
      "inputs": [
        {
          "internalType": "address",
          "name": "_manager",
          "type": "address"
        }
      ],
      "name": "setSocialEngagementManager",
      "outputs": [],
      "stateMutability": "nonpayable",
      "type": "function"
    },
    {
      "inputs": [
        {
          "internalType": "address",
          "name": "_coordinator",
          "type": "address"
        },
        {
          "internalType": "bytes32",
          "name": "_keyHash",
          "type": "bytes32"
        },
        {
          "internalType": "uint32",
          "name": "_gasLimit",
          "type": "uint32"
        }
      ],
      "name": "setVRFParams",
      "outputs": [],
      "stateMutability": "nonpayable",
      "type": "function"
    },
    {
      "inputs": [],
      "name": "socialEngagementManager",
      "outputs": [
        {
          "internalType": "address",
          "name": "",
          "type": "address"
        }
      ],
      "stateMutability": "view",
      "type": "function"
    },
    {
      "inputs": [
        {
          "internalType": "uint256",
          "name": "",
          "type": "uint256"
        }
      ],
      "name": "subscriptionConsumerCount",
      "outputs": [
        {
          "internalType": "uint256",
          "name": "",
          "type": "uint256"
        }
      ],
      "stateMutability": "view",
      "type": "function"
    },
    {
      "inputs": [
        {
          "internalType": "address",
          "name": "newOwner",
          "type": "address"
        }
      ],
      "name": "transferOwnership",
      "outputs": [],
      "stateMutability": "nonpayable",
      "type": "function"
    },
    {
      "inputs": [
        {
          "internalType": "address",
          "name": "_erc721Implementation",
          "type": "address"
        },
        {
          "internalType": "address",
          "name": "_erc1155Implementation",
          "type": "address"
        }
      ],
      "name": "updateNFTFactoryImplementations",
      "outputs": [],
      "stateMutability": "nonpayable",
      "type": "function"
    },
    {
      "inputs": [
        {
          "internalType": "address",
          "name": "consumer",
          "type": "address"
        },
        {
          "internalType": "uint256",
          "name": "subscriptionId",
          "type": "uint256"
        }
      ],
      "name": "updatePoolToSubscription",
      "outputs": [],
      "stateMutability": "nonpayable",
      "type": "function"
    },
    {
      "inputs": [],
      "name": "vrfCoordinator",
      "outputs": [
        {
          "internalType": "contract VRFCoordinatorV2PlusInterface",
          "name": "",
          "type": "address"
        }
      ],
      "stateMutability": "view",
      "type": "function"
    },
    {
      "inputs": [],
      "name": "vrfSubscriptionId",
      "outputs": [
        {
          "internalType": "uint256",
          "name": "",
          "type": "uint256"
        }
      ],
      "stateMutability": "view",
      "type": "function"
    },
    {
      "inputs": [
        {
          "internalType": "uint256",
          "name": "",
          "type": "uint256"
        }
      ],
      "name": "vrfSubscriptionIds",
      "outputs": [
        {
          "internalType": "uint256",
          "name": "",
          "type": "uint256"
        }
      ],
      "stateMutability": "view",
      "type": "function"
    }
  ],
  "bytecode": "0x60808060405234620001995760a081620031ef80380380916200002382856200019e565b83398101031262000199576200003981620001d8565b60209081830151926200004f60408201620001d8565b9060608101519063ffffffff82168092036200019957608001519261ffff8416840362000199578492600491600097889182549565ffff0000000060018060a01b031999338b8a161786556040519a8b998a9860018060a01b0391823391167f8be0079c531659141344cd1fd0a4f28419497f9722a3daafe3b4186f6b6457e08b80a3818b549716978884600154161760015560035516906009541617600955891b169165ffffffffffff19161717845563288688f960e21b83525af19182156200018e57839262000156575b5050806002557f6a2b70dde6ae0193f84b6a9eeb3b0ebdc3a35e99d9167b88c570158dd09cb0f76040519280a26130019081620001ee8239f35b90809250813d831162000186575b6200017081836200019e565b8101031262000182575138806200011c565b5080fd5b503d62000164565b6040513d85823e3d90fd5b600080fd5b601f909101601f19168101906001600160401b03821190821017620001c257604052565b634e487b7160e01b600052604160045260246000fd5b51906001600160a01b0382168203620001995756fe6040608081526004908136101561001557600080fd5b600091823560e01c8063065426c2146125ee5780630dd87a50146125c75780630f6e8673146125a35780630fee72c11461242057806313e7c9d8146118a65780631a74b3f3146123e25780631aa3e95d146123685780632128b92814610af157806324f746971461234457806325974de6146122ea5780632ba207fe146122055780632e4a33cb146121965780633119049a1461216d5780633329b331146120255780633d40f28f14611e50578381633dc7aad414611da55750806341d1de9714611d655780634434386014611c235780634a2e22d314611b29578063524d530b146104795780635557005d1461190d578063558a729714611aa857806356eb00a11461199057806357970e931461196757806361728f391461194857806363e362581461190d5780636b90bda9146118e45780636d70f7ae146118a65780636ec7f37d146118115780636f116a6a146117e5578063715018a61461178b578381638d0cbf6a14611718575080638da5cb5b146116f05780638eec5d70146116d1578063931c5bf8146115205780639c24ea40146114b15780639df9897714611465578063a3e56fa81461143c578063a7753f0914611406578063aafc51c3146113ce578063b0fb162f146113aa578063b16abdd41461138b578063be831919146112b2578063c91f0cfc14611275578063cb2d93ce146111fd578063d333aed314611003578063d49f66f414610fda578063d5a6d60c14610d84578063d63843cd14610d5b578063d7c7752414610b29578063dd6eba7e14610af1578063de3d9fb714610820578063e449c18414610a68578063e48f37da146108e3578063ec644ddd14610877578063ec66705f1461083f578063ed647d2114610820578063f25949f9146106c8578063f2fde38b1461060157838163f726272c1461053357508063fd62120e146104a6578063ff3cd61e146104795763ffe89fc6146102dc57600080fd5b34610475576060366003190112610475576102f561278a565b916102fe6127a5565b6013546001600160a01b03908116330361043e578061031b612e42565b9516938487526010602052858488205585156103ef5760115490600160401b8210156103da57508060016103529201601155612808565b81549060031b908387831b921b1916179055838652600760205282862091166001600160601b0360a01b825416179055600860205260443590842055807f9cc152f4650ca2829a210a21551537f4cc4d48c2611ec06974f835e911921b908480a27faefe964a6ba1785c0718ded8476dce9589b858a69235c089b121271e1dae2d938380a380f35b604190634e487b7160e01b6000525260246000fd5b608490602085519162461bcd60e51b83528201526024808201527f506f6f6c206d757374206861766520737562736372697074696f6e206173736960448201526319db995960e21b6064820152fd5b825162461bcd60e51b8152602081860152601160248201527027b7363c902837b7b62232b83637bcb2b960791b6044820152606490fd5b8280fd5b5050346104a257816003193601126104a25760125490516001600160a01b039091168152602090f35b5080fd5b8382346104a25760603660031901126104a2576104c161278a565b6044359063ffffffff821680920361052f576104db612900565b60018060a01b03166001600160601b0360a01b600154161760015560243560035563ffffffff198254161790557f4c6a50dab5e2b4bdf345de73b06a62ca5c45dde34eecef3c38eb568564f6547c8180a180f35b8380fd5b929050346105fd57826003193601126105fd5761054e612900565b60015460025484549093916001600160a01b039182169116803b156105f9578351622b825560e61b81529283019485526001600160a01b03909116602085015290928491849182908490829060400103925af19081156105f057506105d9575b506002557fad9127d67531701fd4222369e46413ad989a276f8ae432b7a2bb01a147a1be9e8180a180f35b6105e2906129d6565b6105ed5780386105ae565b80fd5b513d84823e3d90fd5b8580fd5b5050fd5b50346104755760203660031901126104755761061b61278a565b90610624612900565b6001600160a01b03918216928315610676575050600054826001600160601b0360a01b821617600055167f8be0079c531659141344cd1fd0a4f28419497f9722a3daafe3b4186f6b6457e0600080a380f35b906020608492519162461bcd60e51b8352820152602660248201527f4f776e61626c653a206e6577206f776e657220697320746865207a65726f206160448201526564647265737360d01b6064820152fd5b5034610475578160031936011261047557803567ffffffffffffffff9182821161081c573660238301121561081c5781013591821161052f576024810190602483369201011161052f57600080516020612fac83398151915292826060928161072f6127a5565b91610738612900565b7f4b35529e56b244d05ef40bce36fd9c95cd911003461d7436e70939aa537dd07d610764368484612ba5565b60208151910120146000146107c457601380546001600160a01b0319166001600160a01b0385161790555b84519685889687528601528585013782820184018790526001600160a01b03166020830152601f01601f19168101030190a180f35b7fd826c10e37a7770f02c01ddf03373f8c12e6ec73eac52b5d0ff825017dc682ef6107f0368484612ba5565b602081519101200361078f57601480546001600160a01b0319166001600160a01b03851617905561078f565b8480fd5b5050346104a257816003193601126104a2576020906002549051908152f35b5050346104a25760203660031901126104a25760209181906001600160a01b0361086761278a565b1681526008845220549051908152f35b50346104755782600319360112610475573383526010602052918190205460a09261ffff9180156108d957905b600180861b0360015416936003549154928151958652602086015284015263ffffffff8116606084015260201c166080820152f35b50600254906108a4565b50602092836003193601126105ed576108fa612855565b92610903612900565b6001600160601b03841691600b54808402908482041484151715610a55573403610a1257805b600a54811015610a0e5761093c816127bb565b90549060031b1c808352600e885260ff8484205416610965575b5061096090612a88565b610929565b6001546001600160a01b0316803b1561052f578451634cf94d8760e01b81528088018381526001600160601b038a1660208201529091859183919082908a90829060400103925af18015610a04579084916109f0575b505090610960917f24761a552e7853f2c57abfbcc0b0e9698da9811db99b96034c7b7fefb067860a898651888152a290610956565b6109f9906129d6565b6104755782386109bb565b85513d86823e3d90fd5b5080f35b815162461bcd60e51b8152808501879052601a60248201527f496e636f727265637420746f74616c2045544820616d6f756e740000000000006044820152606490fd5b634e487b7160e01b825260118552602482fd5b5050346104a25760203660031901126104a2576080600080516020612fac83398151915291610a9561278a565b610a9d612900565b6001600160a01b0316610ab1811515612958565b806001600160601b0360a01b6016541617601655600f8251928084528301526e14995dd85c991cd19b1e5dda19595b608a1b60608301526020820152a180f35b5050346104a25760203660031901126104a25760209181906001600160a01b03610b1961278a565b1681526010845220549051908152f35b508290346104a2576020908160031936011261047557610b47612855565b90610b50612900565b60095485516323b872dd60e01b8152338382019081523060208201526001600160601b03851660408201526001600160a01b03928691839185169082908a90829060600103925af1908115610d51578691610d34575b5015610ccb578381610bf092600954169060015416908588600254938b519486860152858552610bd585612a00565b8b51630200057560e51b8152968795869485938b8501612ddb565b03925af1908115610cc1578591610c94575b5015610c3d57506001600160601b037f0148caca16863fb5a77543489023e89a5d3360fe9229a1e6f9d553b800aa916993945191168152a180f35b845162461bcd60e51b8152908101839052602b60248201527f4c494e4b207472616e73666572416e6443616c6c20746f20636f6f7264696e6160448201526a3a37b9103330b4b632b21760a91b6064820152608490fd5b610cb49150843d8611610cba575b610cac8183612a1c565b810190612dc3565b86610c02565b503d610ca2565b86513d87823e3d90fd5b855162461bcd60e51b8152808301859052603e60248201527f4c494e4b207472616e7366657246726f6d206661696c65642e2044696420796f60448201527f7520617070726f7665207468652050726f746f636f6c4d616e616765723f00006064820152608490fd5b610d4b9150853d8711610cba57610cac8183612a1c565b87610ba6565b87513d88823e3d90fd5b5050346104a257816003193601126104a25760145490516001600160a01b039091168152602090f35b5034610475576020918260031936011261052f57813592610da3612900565b838552600e8152610db960ff8387205416612cc3565b838552600f815281852054610f99576001600b541115610f4557838552600d815281852054600a546000199190828101908111610f3257610df9816127bb565b90549060031b1c908203610efb575b5050600a548015610ee8579080600e93920190610e24826127bb565b909182549160031b1b19169055600a55848652600d815260008387205552832060ff198154169055610e57600b54612d73565b600b558160025414610e8c575b507fc0d777cb9485c91def1a14a6e7787be4cc14b102d3475a0435ef9639c9c560998280a280f35b600a541580610ee057610ecb5750600a6000527fc65a7bb8d6351c1cf70c95a316cc6a92839c986682d98bc35f958f4883f9d2a8545b60025538610e64565b603290634e487b7160e01b6000525260246000fd5b505081610ec2565b634e487b7160e01b875260318552602487fd5b610f2181610f08846127bb565b90919082549060031b91821b91600019901b1916179055565b8752600d8352838720553880610e08565b634e487b7160e01b885260118652602488fd5b905162461bcd60e51b815291820152602a60248201527f43616e6e6f742072656d6f766520746865206f6e6c79206163746976652073756044820152693139b1b934b83a34b7b760b11b6064820152608490fd5b905162461bcd60e51b815291820181905260248201527f537562736372697074696f6e207374696c6c2068617320636f6e73756d6572736044820152606490fd5b5050346104a257816003193601126104a25760165490516001600160a01b039091168152602090f35b503461047557816003193601126104755780359161101f61283f565b90611028612900565b838552602092600e845261104160ff8388205416612cc3565b60095482516323b872dd60e01b8152338382019081523060208201526001600160601b03861660408201526001600160a01b03928791839185169082908c90829060600103925af19081156111f35788916111d6575b50156111945784816110de9260095416906001541690868a8751938b868601528585526110c385612a00565b8851630200057560e51b8152968795869485938b8501612ddb565b03925af190811561118a57879161116d575b501561112c5750906001600160601b037f24761a552e7853f2c57abfbcc0b0e9698da9811db99b96034c7b7fefb067860a93925191168152a280f35b83606492519162461bcd60e51b8352820152601b60248201527f4c494e4b207472616e73666572416e6443616c6c206661696c656400000000006044820152fd5b6111849150853d8711610cba57610cac8183612a1c565b386110f0565b83513d89823e3d90fd5b5083606492519162461bcd60e51b8352820152601860248201527f4c494e4b207472616e7366657246726f6d206661696c656400000000000000006044820152fd5b6111ed9150863d8811610cba57610cac8183612a1c565b38611097565b84513d8a823e3d90fd5b5050346104a25760203660031901126104a2576080600080516020612fac8339815191529161122a61278a565b611232612900565b60018060a01b0316806001600160601b0360a01b6014541617601455600a825192808452830152694e4654466163746f727960b01b60608301526020820152a180f35b5050346104a25760203660031901126104a2576020916001600160a01b039082908261129f61278a565b1681526007855220541615159051908152f35b5090602036600319011261047557826112c9612855565b6112d1612900565b6001600160601b038116936112e7853414612d80565b60015460025492906001600160a01b0316803b1561081c578551634cf94d8760e01b81529283019384526001600160601b03909116602084015290918391839182908890829060400103925af180156113815761136d575b507f0148caca16863fb5a77543489023e89a5d3360fe9229a1e6f9d553b800aa91696020848451908152a180f35b611376906129d6565b61047557823861133f565b83513d84823e3d90fd5b5050346104a257816003193601126104a257602090600b549051908152f35b5091346105ed57806003193601126105ed575061ffff60209254915191831c168152f35b5034610475576020366003190112610475573591600a548310156105ed57506113f86020926127bb565b91905490519160031b1c8152f35b5091346105ed57816003193601126105ed575061142a611438926024359035612ace565b9093919251938493846128dc565b0390f35b5050346104a257816003193601126104a25760015490516001600160a01b039091168152602090f35b83346105ed5760203660031901126105ed5761147f61278a565b611487612900565b6001600160a01b031661149b811515612958565b6001600160601b0360a01b601554161760155580f35b5050346104a25760203660031901126104a25760207fe2d763f65bbed04f8954b0f0a3af42f687469bdd154132ba533accf0f0291a2b916114f061278a565b6114f8612900565b600980546001600160a01b0319166001600160a01b039290921691821790559051908152a180f35b8284346105ed5760603660031901126105ed5761153b61278a565b60243590604435801515806116c6575b61155790949194612996565b8080928160115460018060a01b03809316935b818110806116bd575b156115e3578361158282612808565b90549060031b1c168352600760205284848b85205416146115ac575b6115a790612a88565b61156a565b95878110156115ca575b6115c26115a791612a88565b96905061159e565b946115c26115da6115a792612a88565b969150506115b6565b509450879593926115f384612a56565b90828095815b898110806116b4575b15611696578661161182612808565b919054600392831b1c168452600760205284888d862054161461163e575b5061163990612a88565b6115f9565b87908a8a939a1015611660575b505061165961163991612a88565b979061162f565b61163992976116599261168c926116768d612808565b9054911b1c16611686828a612aba565b52612a88565b969188915061164b565b8a88611438876116a6868e612aad565b9351938493811091846128dc565b50818610611602565b50888610611573565b50606481111561154b565b5050346104a257816003193601126104a2576020906011549051908152f35b5050346104a257816003193601126104a257905490516001600160a01b039091168152602090f35b929050346105fd5760203660031901126105fd57611734612900565b6001546001600160a01b031691823b15611786578392602484928451958693849263b2a7cac560e01b84528035908401525af19081156105f057506117765750f35b61177f906129d6565b6105ed5780f35b505050fd5b83346105ed57806003193601126105ed576117a4612900565b600080546001600160a01b0319811682556001600160a01b03167f8be0079c531659141344cd1fd0a4f28419497f9722a3daafe3b4186f6b6457e08280a380f35b5034610475576020366003190112610475578160209360ff92358152600e855220541690519015158152f35b5050346104a257816003193601126104a25780519081809360065490818552602080950191600682527ff652222313e28459528d920b65115c16c04f3efc82aaedc97be59f3f377c0d3f915b868282106118865785906114388861187784890385612a1c565b5192828493845283019061289f565b83546001600160a01b03168552889550909301926001928301920161185d565b5050346104a25760203660031901126104a25760209160ff9082906001600160a01b036118d161278a565b1681526017855220541690519015158152f35b5050346104a257816003193601126104a25760155490516001600160a01b039091168152602090f35b5050346104a25760203660031901126104a2576020916001600160a01b039082908261193761278a565b168152600785522054169051908152f35b5050346104a257816003193601126104a2576020906003549051908152f35b5050346104a257816003193601126104a25760095490516001600160a01b039091168152602090f35b5050346104a257816003193601126104a257600a546119ae81612a56565b916119b882612a3e565b936119c582519586612a1c565b8285526119d183612a3e565b60208087019691601f19013688376119e885612a56565b94835b818110611a4a57505080611a0985519760608952606089019061286b565b928784038289015251928381520196925b828110611a34578688038588015286806114388a8961286b565b8351151588529681019692810192600101611a1a565b80611a5b611a9f92969495966127bb565b90549060031b1c80611a6d838c612aba565b52808552600e865260ff8886205416611a868389612aba565b90151590528452600f855286842054611686828a612aba565b939291936119eb565b5050346104a257806003193601126104a257611ac261278a565b9060243580151580910361052f577f966c160e1c4dbc7df8d69af4ace01e9297c3cf016397b7914971f2fbfa32672d92611afa612900565b60018060a01b031690818552601760205282852060ff1981541660ff831617905582519182526020820152a180f35b503461047557602036600319011261047557611b4361278a565b6014546001600160a01b03919082163303611bed57168084526005602052918320805460ff1916600117905560065490600160401b8210156103da576001820180600655821015610ecb575060066000527ff652222313e28459528d920b65115c16c04f3efc82aaedc97be59f3f377c0d3f0180546001600160a01b031916821790557feb4d1b1ad6245003e8b460f686262712b4f75c37e82b6aa0f9445acef51699258280a280f35b835162461bcd60e51b8152602081850152601060248201526f4f6e6c79204e465420666163746f727960801b6044820152606490fd5b509034610475578060031936011261047557611c3d61278a565b602435611c8360018060a01b0380931691828752611c676020946007865286892054161515612bec565b611c72811515612c2b565b828752601084528487205414612c77565b825163c19d93fb60e01b815282818681855afa869181611d36575b50611ce657835162461bcd60e51b8152602081870181815260159181019190915274125b9d985b1a59081c1bdbdb0818dbdb9d1c9858dd605a1b604082015281906060010390fd5b6008819695961015611d235791601091611d0f8460076000979614908115611d18575b50612d27565b85525282205580f35b600591501488611d09565b634e487b7160e01b855260218652602485fd5b611d57919250843d8611611d5e575b611d4f8183612a1c565b810190612d0f565b9038611c9e565b503d611d45565b50346104755760203660031901126104755735916011548310156105ed5750611d8f602092612808565b905491519160018060a01b039160031b1c168152f35b919050346104a257816003193601126104a257602090611dc3612900565b600154845163288688f960e21b8152938492918391906001600160a01b03165af19182156105f057508291611e1f575b50806002557f6a2b70dde6ae0193f84b6a9eeb3b0ebdc3a35e99d9167b88c570158dd09cb0f78280a280f35b90506020813d8211611e48575b81611e3960209383612a1c565b810103126104a2575138611df3565b3d9150611e2c565b509034610475578060031936011261047557611e6a61278a565b6024359060018060a01b038082169182875260209160078352611e9381878a2054161515612bec565b611e9e851515612c2b565b83885260108352611eb385878a205414612c77565b855163c19d93fb60e01b815283818981885afa899181612006575b50611f1657865162461bcd60e51b81526020818a0181815260159181019190915274125b9d985b1a59081c1bdbdb0818dbdb9d1c9858dd605a1b604082015281906060010390fd5b889692918160088a931015611ff35790611f3d82848b96959414908115611fe85750612d27565b6001541691823b1561052f57845163cb63179760e01b81529182018881526001600160a01b0390911660208201529091839183919082908490829060400103925af1801561138157611fd4575b506000928560109252600f8152828720611fa48154612d73565b9055848752528420557f46d7f264cf963b550773f629b4cd2668e69e465b630a862303300db477104e9e8380a380f35b611fdd906129d6565b61081c578486611f8a565b60069150148b611d09565b634e487b7160e01b895260218352602489fd5b61201e919250853d8711611d5e57611d4f8183612a1c565b9038611ece565b50903461047557806003193601126104755761203f61278a565b916120486127a5565b91612051612900565b6001600160a01b0393841692831561212a5784169384156120e757908592916014541691823b1561052f5784604485928385519687948593630d76b84160e21b85528401528a60248401525af19081156105f057506120d3575b50807f055d29287d43159ed5b46366888181c01552bd982dcbd9380ade3dc5a1069f4491a380f35b6120dc906129d6565b6104755782386120ab565b815162461bcd60e51b8152602081850152601e60248201527f496e76616c6964204552433131353520696d706c656d656e746174696f6e00006044820152606490fd5b815162461bcd60e51b8152602081850152601d60248201527f496e76616c69642045524337323120696d706c656d656e746174696f6e0000006044820152606490fd5b5050346104a257816003193601126104a25760135490516001600160a01b039091168152602090f35b5050346104a25760203660031901126104a25760207ffd76f8ed4d910bcb9cc812e605a5c8b31f7b84ab658feb2d9bf60de6f7adf072916121d561278a565b6121dd612900565b601280546001600160a01b0319166001600160a01b039290921691821790559051908152a180f35b5081600319360112610475578035918361221d61283f565b612225612900565b848252600e60205261223c60ff8484205416612cc3565b6001600160601b03811693612252853414612d80565b6001546001600160a01b031691823b1561052f578451634cf94d8760e01b81529182018781526001600160601b0390911660208201529091839183919082908890829060400103925af18015611381576122d6575b50507f24761a552e7853f2c57abfbcc0b0e9698da9811db99b96034c7b7fefb067860a9160209151908152a280f35b6122df906129d6565b61052f5783386122a7565b503461047557602036600319011261047557356006548110156104755760066000527ff652222313e28459528d920b65115c16c04f3efc82aaedc97be59f3f377c0d3f015490516001600160a01b03909116815260209150f35b5091346105ed57806003193601126105ed575063ffffffff60209254169051908152f35b5050346104a25760203660031901126104a2576080600080516020612fac8339815191529161239561278a565b61239d612900565b60018060a01b0316806001600160601b0360a01b6013541617601355600c8251928084528301526b2837b7b62232b83637bcb2b960a11b60608301526020820152a180f35b5050346104a25760203660031901126104a25760209160ff9082906001600160a01b0361240d61278a565b1681526005855220541690519015158152f35b509190346104a25760208060031936011261047557833591612440612900565b821561256057828452600e825260ff818520541661251d57600a54838552600d83528082862055600160401b81101561250a5783610f088260016124879401600a556127bb565b828452600e8252808420600160ff198254161790556124a7600b54612a88565b600b55600a549060018214612501575b60001982019182116124ee57519081527fb2615094a1e63e6d2b94b964165480ab14d38fc7bb17dc29b281e00209d08d5c9190a280f35b634e487b7160e01b855260118652602485fd5b836002556124b7565b634e487b7160e01b855260418652602485fd5b5162461bcd60e51b815280850191909152601a60248201527f537562736372697074696f6e20616c72656164792061646465640000000000006044820152606490fd5b5162461bcd60e51b815280850191909152601760248201527f496e76616c696420737562736372697074696f6e2049440000000000000000006044820152606490fd5b5050346104a257816003193601126104a2576020906125c0612e42565b9051908152f35b5034610475576020366003190112610475576020928291358152600f845220549051908152f35b50903461047557806003193601126104755761260861278a565b906024359260018060a01b03908582851694858252602093600785526126348187852054161515612bec565b86835260108552612654888785205461264e811515612c2b565b14612c77565b878352600e855261266a60ff8785205416612cc3565b878352600f85526064868420541015612720575b60015416803b15610475578551632fb1302360e21b81529384018881526001600160a01b039092166020830152839182908490829060400103925af1801561271657612702575b50600f908486525283206126d98154612a88565b90557f8b4d66174491b3a6145331b676769c46f933c290811400f713f6dd7e0f7ada9f8380a380f35b9461270f600f92966129d6565b94906126c5565b83513d88823e3d90fd5b9650905061272c612e42565b9586156127475790879186835260108552878684205561267e565b845162461bcd60e51b8152808401859052601e60248201527f4e6f20617661696c61626c652056524620737562736372697074696f6e7300006044820152606490fd5b600435906001600160a01b03821682036127a057565b600080fd5b602435906001600160a01b03821682036127a057565b600a548110156127f257600a6000527fc65a7bb8d6351c1cf70c95a316cc6a92839c986682d98bc35f958f4883f9d2a80190600090565b634e487b7160e01b600052603260045260246000fd5b6011548110156127f25760116000527f31ecc21a745e3968a04e9570e4425bc18fa8019c68028196b546d1669c200c680190600090565b602435906001600160601b03821682036127a057565b600435906001600160601b03821682036127a057565b90815180825260208080930193019160005b82811061288b575050505090565b83518552938101939281019260010161287d565b90815180825260208080930193019160005b8281106128bf575050505090565b83516001600160a01b0316855293810193928101926001016128b1565b9193926128f360409260608552606085019061289f565b9460208401521515910152565b6000546001600160a01b0316330361291457565b606460405162461bcd60e51b815260206004820152602060248201527f4f776e61626c653a2063616c6c6572206973206e6f7420746865206f776e65726044820152fd5b1561295f57565b60405162461bcd60e51b815260206004820152600f60248201526e496e76616c6964206164647265737360881b6044820152606490fd5b1561299d57565b60405162461bcd60e51b8152602060048201526011602482015270496e76616c696420706167652073697a6560781b6044820152606490fd5b67ffffffffffffffff81116129ea57604052565b634e487b7160e01b600052604160045260246000fd5b6040810190811067ffffffffffffffff8211176129ea57604052565b90601f8019910116810190811067ffffffffffffffff8211176129ea57604052565b67ffffffffffffffff81116129ea5760051b60200190565b90612a6082612a3e565b612a6d6040519182612a1c565b8281528092612a7e601f1991612a3e565b0190602036910137565b6000198114612a975760010190565b634e487b7160e01b600052601160045260246000fd5b91908201809211612a9757565b80518210156127f25760209160051b010190565b9181151580612b9a575b612ae190612996565b6011549182841015612b6a5783830390838211612a975780821015612b625750905b612b0c82612a56565b9160005b818110612b2b5750612b2491929394612aad565b9192821090565b80612b41612b3c612b5d9389612aad565b612808565b905460039190911b1c6001600160a01b03166116868287612aba565b612b10565b905090612b03565b5090506040516020810181811067ffffffffffffffff8211176129ea576040526000815260003681379190600090565b506064821115612ad8565b92919267ffffffffffffffff82116129ea5760405191612bcf601f8201601f191660200184612a1c565b8294818452818301116127a0578281602093846000960137010152565b15612bf357565b60405162461bcd60e51b815260206004820152601060248201526f139bdd0818481d985b1a59081c1bdbdb60821b6044820152606490fd5b15612c3257565b60405162461bcd60e51b815260206004820152601860248201527f4e6f20737562736372697074696f6e2061737369676e656400000000000000006044820152606490fd5b15612c7e57565b60405162461bcd60e51b815260206004820152601d60248201527f496e76616c696420737562736372697074696f6e20666f7220706f6f6c0000006044820152606490fd5b15612cca57565b60405162461bcd60e51b815260206004820152601760248201527f537562736372697074696f6e206e6f74206163746976650000000000000000006044820152606490fd5b908160209103126127a0575160088110156127a05790565b15612d2e57565b60405162461bcd60e51b815260206004820152601e60248201527f506f6f6c206d75737420626520696e207465726d696e616c20737461746500006044820152606490fd5b8015612a97576000190190565b15612d8757565b60405162461bcd60e51b8152602060048201526014602482015273125b98dbdc9c9958dd0811551208185b5bdd5b9d60621b6044820152606490fd5b908160209103126127a0575180151581036127a05790565b9193929060018060a01b031682526001600160601b0360209416848301526060604083015280519081606084015260005b828110612e2e57505060809293506000838284010152601f8019910116010190565b818101860151848201608001528501612e0c565b600090600b5415612f6657600c9081549083905b600a5480831015612f5b578454612e6c816127bb565b90549060031b1c8088526020600e8152604060ff818b2054169182612f48575b5050612f3d575060018101809111612f29578115612f15578491612eb4910693848755612a88565b921480612f0c575b15612e565750505050505b60405162461bcd60e51b815260206004820152601d60248201527f416c6c20737562736372697074696f6e732061742063617061636974790000006044820152606490fd5b50811515612ebc565b634e487b7160e01b87526012600452602487fd5b634e487b7160e01b87526011600452602487fd5b955050509350505090565b60649250600f9052892054103880612e8c565b505050505050612ec7565b60405162461bcd60e51b815260206004820152601760248201527f4e6f2061637469766520737562736372697074696f6e730000000000000000006044820152606490fdfe1592f515c298c578903964a58733180fe97bdf05860fc70a7e21b61e8cc2d1b1a2646970667358221220c7c2fc2f72c50f4d9dc1d84dbf5f798e44cc1a9551343665672dda4716137f7164736f6c63430008130033",
  "linkReferences": {},
  "deployedLinkReferences": {}
}