{
  "_format": "hh-sol-artifact-1",
  "contractName": "ProtocolManager",
  "sourceName": "contracts/ProtocolManager.sol",
  "abi": [
    {
      "inputs": [
        {
          "internalType": "address",
          "name": "_vrfCoordinator",
          "type": "address"
        },
        {
          "internalType": "bytes32",
          "name": "_keyHash",
          "type": "bytes32"
        },
        {
          "internalType": "address",
          "name": "_linkToken",
          "type": "address"
        },
        {
          "internalType": "uint32",
          "name": "_callbackGasLimit",
          "type": "uint32"
        },
        {
          "internalType": "uint16",
          "name": "_requestConfirmations",
          "type": "uint16"
        }
      ],
      "stateMutability": "nonpayable",
      "type": "constructor"
    },
    {
      "anonymous": false,
      "inputs": [
        {
          "indexed": false,
          "internalType": "string",
          "name": "contractType",
          "type": "string"
        },
        {
          "indexed": false,
          "internalType": "address",
          "name": "newAddress",
          "type": "address"
        }
      ],
      "name": "ContractReplaced",
      "type": "event"
    },
    {
      "anonymous": false,
      "inputs": [
        {
          "indexed": true,
          "internalType": "address",
          "name": "collection",
          "type": "address"
        }
      ],
      "name": "InternalCollectionAdded",
      "type": "event"
    },
    {
      "anonymous": false,
      "inputs": [
        {
          "indexed": false,
          "internalType": "address",
          "name": "newLinkToken",
          "type": "address"
        }
      ],
      "name": "LinkTokenUpdated",
      "type": "event"
    },
    {
      "anonymous": false,
      "inputs": [
        {
          "indexed": true,
          "internalType": "address",
          "name": "erc721Implementation",
          "type": "address"
        },
        {
          "indexed": true,
          "internalType": "address",
          "name": "erc1155Implementation",
          "type": "address"
        }
      ],
      "name": "NFTFactoryImplementationsUpdated",
      "type": "event"
    },
    {
      "anonymous": false,
      "inputs": [
        {
          "indexed": false,
          "internalType": "address",
          "name": "operator",
          "type": "address"
        },
        {
          "indexed": false,
          "internalType": "bool",
          "name": "status",
          "type": "bool"
        }
      ],
      "name": "OperatorUpdated",
      "type": "event"
    },
    {
      "anonymous": false,
      "inputs": [
        {
          "indexed": true,
          "internalType": "address",
          "name": "previousOwner",
          "type": "address"
        },
        {
          "indexed": true,
          "internalType": "address",
          "name": "newOwner",
          "type": "address"
        }
      ],
      "name": "OwnershipTransferred",
      "type": "event"
    },
    {
      "anonymous": false,
      "inputs": [
        {
          "indexed": true,
          "internalType": "address",
          "name": "poolImplementation",
          "type": "address"
        }
      ],
      "name": "PoolDeployerImplementationUpdated",
      "type": "event"
    },
    {
      "anonymous": false,
      "inputs": [
        {
          "indexed": true,
          "internalType": "address",
          "name": "pool",
          "type": "address"
        }
      ],
      "name": "PoolRegistered",
      "type": "event"
    },
    {
      "anonymous": false,
      "inputs": [
        {
          "indexed": false,
          "internalType": "address",
          "name": "newAddress",
          "type": "address"
        }
      ],
      "name": "RevenueManagerUpdated",
      "type": "event"
    },
    {
      "anonymous": false,
      "inputs": [
        {
          "indexed": true,
          "internalType": "uint256",
          "name": "subscriptionId",
          "type": "uint256"
        }
      ],
      "name": "SubscriptionCreated",
      "type": "event"
    },
    {
      "anonymous": false,
      "inputs": [
        {
          "indexed": false,
          "internalType": "uint96",
          "name": "amount",
          "type": "uint96"
        }
      ],
      "name": "SubscriptionFunded",
      "type": "event"
    },
    {
      "anonymous": false,
      "inputs": [
        {
          "indexed": true,
          "internalType": "uint256",
          "name": "subscriptionId",
          "type": "uint256"
        },
        {
          "indexed": false,
          "internalType": "uint96",
          "name": "amount",
          "type": "uint96"
        }
      ],
      "name": "SubscriptionFundedWithDetails",
      "type": "event"
    },
    {
      "anonymous": false,
      "inputs": [
        {
          "indexed": true,
          "internalType": "address",
          "name": "pool",
          "type": "address"
        },
        {
          "indexed": true,
          "internalType": "uint256",
          "name": "assignedSubscriptionId",
          "type": "uint256"
        }
      ],
      "name": "SubscriptionPreAssigned",
      "type": "event"
    },
    {
      "anonymous": false,
      "inputs": [
        {
          "indexed": true,
          "internalType": "address",
          "name": "consumer",
          "type": "address"
        },
        {
          "indexed": true,
          "internalType": "uint256",
          "name": "subscriptionId",
          "type": "uint256"
        }
      ],
      "name": "VRFConsumerAddedToSubscription",
      "type": "event"
    },
    {
      "anonymous": false,
      "inputs": [
        {
          "indexed": true,
          "internalType": "address",
          "name": "consumer",
          "type": "address"
        },
        {
          "indexed": true,
          "internalType": "uint256",
          "name": "subscriptionId",
          "type": "uint256"
        }
      ],
      "name": "VRFConsumerRemovedFromSubscription",
      "type": "event"
    },
    {
      "anonymous": false,
      "inputs": [],
      "name": "VRFParamsUpdated",
      "type": "event"
    },
    {
      "anonymous": false,
      "inputs": [
        {
          "indexed": true,
          "internalType": "uint256",
          "name": "subscriptionId",
          "type": "uint256"
        },
        {
          "indexed": false,
          "internalType": "uint256",
          "name": "index",
          "type": "uint256"
        }
      ],
      "name": "VRFSubscriptionAdded",
      "type": "event"
    },
    {
      "anonymous": false,
      "inputs": [],
      "name": "VRFSubscriptionCancelled",
      "type": "event"
    },
    {
      "anonymous": false,
      "inputs": [
        {
          "indexed": true,
          "internalType": "uint256",
          "name": "subscriptionId",
          "type": "uint256"
        }
      ],
      "name": "VRFSubscriptionRemoved",
      "type": "event"
    },
    {
      "inputs": [
        {
          "internalType": "uint256",
          "name": "subscriptionId",
          "type": "uint256"
        }
      ],
      "name": "acceptVRFOwnership",
      "outputs": [],
      "stateMutability": "nonpayable",
      "type": "function"
    },
    {
      "inputs": [],
      "name": "activeSubscriptionCount",
      "outputs": [
        {
          "internalType": "uint256",
          "name": "",
          "type": "uint256"
        }
      ],
      "stateMutability": "view",
      "type": "function"
    },
    {
      "inputs": [
        {
          "internalType": "address",
          "name": "_collection",
          "type": "address"
        }
      ],
      "name": "addInternalCollection",
      "outputs": [],
      "stateMutability": "nonpayable",
      "type": "function"
    },
    {
      "inputs": [
        {
          "internalType": "address",
          "name": "consumer",
          "type": "address"
        },
        {
          "internalType": "uint256",
          "name": "subscriptionId",
          "type": "uint256"
        }
      ],
      "name": "addVRFConsumer",
      "outputs": [],
      "stateMutability": "nonpayable",
      "type": "function"
    },
    {
      "inputs": [
        {
          "internalType": "uint256",
          "name": "subscriptionId",
          "type": "uint256"
        }
      ],
      "name": "addVRFSubscription",
      "outputs": [],
      "stateMutability": "nonpayable",
      "type": "function"
    },
    {
      "inputs": [
        {
          "internalType": "address",
          "name": "pool",
          "type": "address"
        },
        {
          "internalType": "address",
          "name": "creator",
          "type": "address"
        }
      ],
      "name": "batchSetupPool",
      "outputs": [],
      "stateMutability": "nonpayable",
      "type": "function"
    },
    {
      "inputs": [],
      "name": "callbackGasLimit",
      "outputs": [
        {
          "internalType": "uint32",
          "name": "",
          "type": "uint32"
        }
      ],
      "stateMutability": "view",
      "type": "function"
    },
    {
      "inputs": [],
      "name": "cancelVRFSubscription",
      "outputs": [],
      "stateMutability": "nonpayable",
      "type": "function"
    },
    {
      "inputs": [],
      "name": "createVRFSubscription",
      "outputs": [],
      "stateMutability": "nonpayable",
      "type": "function"
    },
    {
      "inputs": [
        {
          "internalType": "uint96",
          "name": "amountPerSubscription",
          "type": "uint96"
        }
      ],
      "name": "fundAllSubscriptionsWithNative",
      "outputs": [],
      "stateMutability": "payable",
      "type": "function"
    },
    {
      "inputs": [
        {
          "internalType": "uint96",
          "name": "amount",
          "type": "uint96"
        }
      ],
      "name": "fundVRFSubscriptionWithLink",
      "outputs": [],
      "stateMutability": "nonpayable",
      "type": "function"
    },
    {
      "inputs": [
        {
          "internalType": "uint256",
          "name": "subscriptionId",
          "type": "uint256"
        },
        {
          "internalType": "uint96",
          "name": "amount",
          "type": "uint96"
        }
      ],
      "name": "fundVRFSubscriptionWithLinkById",
      "outputs": [],
      "stateMutability": "nonpayable",
      "type": "function"
    },
    {
      "inputs": [
        {
          "internalType": "uint96",
          "name": "amount",
          "type": "uint96"
        }
      ],
      "name": "fundVRFSubscriptionWithNative",
      "outputs": [],
      "stateMutability": "payable",
      "type": "function"
    },
    {
      "inputs": [
        {
          "internalType": "uint256",
          "name": "subscriptionId",
          "type": "uint256"
        },
        {
          "internalType": "uint96",
          "name": "amount",
          "type": "uint96"
        }
      ],
      "name": "fundVRFSubscriptionWithNativeById",
      "outputs": [],
      "stateMutability": "payable",
      "type": "function"
    },
    {
      "inputs": [],
      "name": "getAllSubscriptions",
      "outputs": [
        {
          "internalType": "uint256[]",
          "name": "ids",
          "type": "uint256[]"
        },
        {
          "internalType": "bool[]",
          "name": "active",
          "type": "bool[]"
        },
        {
          "internalType": "uint256[]",
          "name": "consumerCounts",
          "type": "uint256[]"
        }
      ],
      "stateMutability": "view",
      "type": "function"
    },
    {
      "inputs": [],
      "name": "getNextVRFSubscription",
      "outputs": [
        {
          "internalType": "uint256",
          "name": "",
          "type": "uint256"
        }
      ],
      "stateMutability": "nonpayable",
      "type": "function"
    },
    {
      "inputs": [
        {
          "internalType": "address",
          "name": "pool",
          "type": "address"
        }
      ],
      "name": "getPoolCreator",
      "outputs": [
        {
          "internalType": "address",
          "name": "",
          "type": "address"
        }
      ],
      "stateMutability": "view",
      "type": "function"
    },
    {
      "inputs": [
        {
          "internalType": "address",
          "name": "pool",
          "type": "address"
        }
      ],
      "name": "getPoolSubscription",
      "outputs": [
        {
          "internalType": "uint256",
          "name": "",
          "type": "uint256"
        }
      ],
      "stateMutability": "view",
      "type": "function"
    },
    {
      "inputs": [],
      "name": "getRevenueManager",
      "outputs": [
        {
          "internalType": "address",
          "name": "",
          "type": "address"
        }
      ],
      "stateMutability": "view",
      "type": "function"
    },
    {
      "inputs": [],
      "name": "getSubscriptionId",
      "outputs": [
        {
          "internalType": "uint256",
          "name": "",
          "type": "uint256"
        }
      ],
      "stateMutability": "view",
      "type": "function"
    },
    {
      "inputs": [],
      "name": "getVRFParams",
      "outputs": [
        {
          "internalType": "address",
          "name": "",
          "type": "address"
        },
        {
          "internalType": "uint256",
          "name": "",
          "type": "uint256"
        },
        {
          "internalType": "bytes32",
          "name": "",
          "type": "bytes32"
        },
        {
          "internalType": "uint32",
          "name": "",
          "type": "uint32"
        },
        {
          "internalType": "uint16",
          "name": "",
          "type": "uint16"
        }
      ],
      "stateMutability": "view",
      "type": "function"
    },
    {
      "inputs": [
        {
          "internalType": "uint256",
          "name": "",
          "type": "uint256"
        }
      ],
      "name": "isActiveSubscription",
      "outputs": [
        {
          "internalType": "bool",
          "name": "",
          "type": "bool"
        }
      ],
      "stateMutability": "view",
      "type": "function"
    },
    {
      "inputs": [
        {
          "internalType": "address",
          "name": "",
          "type": "address"
        }
      ],
      "name": "isInternalCollection",
      "outputs": [
        {
          "internalType": "bool",
          "name": "",
          "type": "bool"
        }
      ],
      "stateMutability": "view",
      "type": "function"
    },
    {
      "inputs": [
        {
          "internalType": "address",
          "name": "operator",
          "type": "address"
        }
      ],
      "name": "isOperator",
      "outputs": [
        {
          "internalType": "bool",
          "name": "",
          "type": "bool"
        }
      ],
      "stateMutability": "view",
      "type": "function"
    },
    {
      "inputs": [
        {
          "internalType": "address",
          "name": "_address",
          "type": "address"
        }
      ],
      "name": "isPoolContract",
      "outputs": [
        {
          "internalType": "bool",
          "name": "",
          "type": "bool"
        }
      ],
      "stateMutability": "view",
      "type": "function"
    },
    {
      "inputs": [],
      "name": "keyHash",
      "outputs": [
        {
          "internalType": "bytes32",
          "name": "",
          "type": "bytes32"
        }
      ],
      "stateMutability": "view",
      "type": "function"
    },
    {
      "inputs": [],
      "name": "linkToken",
      "outputs": [
        {
          "internalType": "contract ILinkTransferAndCall",
          "name": "",
          "type": "address"
        }
      ],
      "stateMutability": "view",
      "type": "function"
    },
    {
      "inputs": [],
      "name": "nftFactory",
      "outputs": [
        {
          "internalType": "address",
          "name": "",
          "type": "address"
        }
      ],
      "stateMutability": "view",
      "type": "function"
    },
    {
      "inputs": [
        {
          "internalType": "address",
          "name": "",
          "type": "address"
        }
      ],
      "name": "operators",
      "outputs": [
        {
          "internalType": "bool",
          "name": "",
          "type": "bool"
        }
      ],
      "stateMutability": "view",
      "type": "function"
    },
    {
      "inputs": [],
      "name": "owner",
      "outputs": [
        {
          "internalType": "address",
          "name": "",
          "type": "address"
        }
      ],
      "stateMutability": "view",
      "type": "function"
    },
    {
      "inputs": [
        {
          "internalType": "address",
          "name": "",
          "type": "address"
        }
      ],
      "name": "poolCreators",
      "outputs": [
        {
          "internalType": "address",
          "name": "",
          "type": "address"
        }
      ],
      "stateMutability": "view",
      "type": "function"
    },
    {
      "inputs": [],
      "name": "poolDeployer",
      "outputs": [
        {
          "internalType": "address",
          "name": "",
          "type": "address"
        }
      ],
      "stateMutability": "view",
      "type": "function"
    },
    {
      "inputs": [
        {
          "internalType": "address",
          "name": "",
          "type": "address"
        }
      ],
      "name": "poolToSubscriptionId",
      "outputs": [
        {
          "internalType": "uint256",
          "name": "",
          "type": "uint256"
        }
      ],
      "stateMutability": "view",
      "type": "function"
    },
    {
      "inputs": [
        {
          "internalType": "address",
          "name": "consumer",
          "type": "address"
        },
        {
          "internalType": "uint256",
          "name": "subscriptionId",
          "type": "uint256"
        }
      ],
      "name": "removeVRFConsumer",
      "outputs": [],
      "stateMutability": "nonpayable",
      "type": "function"
    },
    {
      "inputs": [
        {
          "internalType": "uint256",
          "name": "subscriptionId",
          "type": "uint256"
        }
      ],
      "name": "removeVRFSubscription",
      "outputs": [],
      "stateMutability": "nonpayable",
      "type": "function"
    },
    {
      "inputs": [],
      "name": "renounceOwnership",
      "outputs": [],
      "stateMutability": "nonpayable",
      "type": "function"
    },
    {
      "inputs": [
        {
          "internalType": "string",
          "name": "contractType",
          "type": "string"
        },
        {
          "internalType": "address",
          "name": "newAddress",
          "type": "address"
        }
      ],
      "name": "replaceContract",
      "outputs": [],
      "stateMutability": "nonpayable",
      "type": "function"
    },
    {
      "inputs": [],
      "name": "requestConfirmations",
      "outputs": [
        {
          "internalType": "uint16",
          "name": "",
          "type": "uint16"
        }
      ],
      "stateMutability": "view",
      "type": "function"
    },
    {
      "inputs": [],
      "name": "revenueManager",
      "outputs": [
        {
          "internalType": "address",
          "name": "",
          "type": "address"
        }
      ],
      "stateMutability": "view",
      "type": "function"
    },
    {
      "inputs": [],
      "name": "rewardsFlywheel",
      "outputs": [
        {
          "internalType": "address",
          "name": "",
          "type": "address"
        }
      ],
      "stateMutability": "view",
      "type": "function"
    },
    {
      "inputs": [
        {
          "internalType": "address",
          "name": "_linkToken",
          "type": "address"
        }
      ],
      "name": "setLinkToken",
      "outputs": [],
      "stateMutability": "nonpayable",
      "type": "function"
    },
    {
      "inputs": [
        {
          "internalType": "address",
          "name": "_nftFactory",
          "type": "address"
        }
      ],
      "name": "setNFTFactory",
      "outputs": [],
      "stateMutability": "nonpayable",
      "type": "function"
    },
    {
      "inputs": [
        {
          "internalType": "address",
          "name": "operator",
          "type": "address"
        },
        {
          "internalType": "bool",
          "name": "status",
          "type": "bool"
        }
      ],
      "name": "setOperator",
      "outputs": [],
      "stateMutability": "nonpayable",
      "type": "function"
    },
    {
      "inputs": [
        {
          "internalType": "address",
          "name": "_poolDeployer",
          "type": "address"
        }
      ],
      "name": "setPoolDeployer",
      "outputs": [],
      "stateMutability": "nonpayable",
      "type": "function"
    },
    {
      "inputs": [
        {
          "internalType": "address",
          "name": "_revenueManager",
          "type": "address"
        }
      ],
      "name": "setRevenueManager",
      "outputs": [],
      "stateMutability": "nonpayable",
      "type": "function"
    },
    {
      "inputs": [
        {
          "internalType": "address",
          "name": "_rewardsFlywheel",
          "type": "address"
        }
      ],
      "name": "setRewardsFlywheel",
      "outputs": [],
      "stateMutability": "nonpayable",
      "type": "function"
    },
    {
      "inputs": [
        {
          "internalType": "address",
          "name": "_manager",
          "type": "address"
        }
      ],
      "name": "setSocialEngagementManager",
      "outputs": [],
      "stateMutability": "nonpayable",
      "type": "function"
    },
    {
      "inputs": [
        {
          "internalType": "address",
          "name": "_coordinator",
          "type": "address"
        },
        {
          "internalType": "bytes32",
          "name": "_keyHash",
          "type": "bytes32"
        },
        {
          "internalType": "uint32",
          "name": "_gasLimit",
          "type": "uint32"
        }
      ],
      "name": "setVRFParams",
      "outputs": [],
      "stateMutability": "nonpayable",
      "type": "function"
    },
    {
      "inputs": [],
      "name": "socialEngagementManager",
      "outputs": [
        {
          "internalType": "address",
          "name": "",
          "type": "address"
        }
      ],
      "stateMutability": "view",
      "type": "function"
    },
    {
      "inputs": [
        {
          "internalType": "uint256",
          "name": "",
          "type": "uint256"
        }
      ],
      "name": "subscriptionConsumerCount",
      "outputs": [
        {
          "internalType": "uint256",
          "name": "",
          "type": "uint256"
        }
      ],
      "stateMutability": "view",
      "type": "function"
    },
    {
      "inputs": [
        {
          "internalType": "address",
          "name": "newOwner",
          "type": "address"
        }
      ],
      "name": "transferOwnership",
      "outputs": [],
      "stateMutability": "nonpayable",
      "type": "function"
    },
    {
      "inputs": [
        {
          "internalType": "address",
          "name": "_erc721Implementation",
          "type": "address"
        },
        {
          "internalType": "address",
          "name": "_erc1155Implementation",
          "type": "address"
        }
      ],
      "name": "updateNFTFactoryImplementations",
      "outputs": [],
      "stateMutability": "nonpayable",
      "type": "function"
    },
    {
      "inputs": [
        {
          "internalType": "address",
          "name": "consumer",
          "type": "address"
        },
        {
          "internalType": "uint256",
          "name": "subscriptionId",
          "type": "uint256"
        }
      ],
      "name": "updatePoolToSubscription",
      "outputs": [],
      "stateMutability": "nonpayable",
      "type": "function"
    },
    {
      "inputs": [],
      "name": "vrfCoordinator",
      "outputs": [
        {
          "internalType": "contract VRFCoordinatorV2PlusInterface",
          "name": "",
          "type": "address"
        }
      ],
      "stateMutability": "view",
      "type": "function"
    },
    {
      "inputs": [],
      "name": "vrfSubscriptionId",
      "outputs": [
        {
          "internalType": "uint256",
          "name": "",
          "type": "uint256"
        }
      ],
      "stateMutability": "view",
      "type": "function"
    },
    {
      "inputs": [
        {
          "internalType": "uint256",
          "name": "",
          "type": "uint256"
        }
      ],
      "name": "vrfSubscriptionIds",
      "outputs": [
        {
          "internalType": "uint256",
          "name": "",
          "type": "uint256"
        }
      ],
      "stateMutability": "view",
      "type": "function"
    }
  ],
  "bytecode": "0x60808060405234620001995760a08162002c1680380380916200002382856200019e565b83398101031262000199576200003981620001d8565b60209081830151926200004f60408201620001d8565b9060608101519063ffffffff82168092036200019957608001519261ffff8416840362000199578492600491600097889182549565ffff0000000060018060a01b031999338b8a161786556040519a8b998a9860018060a01b0391823391167f8be0079c531659141344cd1fd0a4f28419497f9722a3daafe3b4186f6b6457e08b80a3818b549716978884600154161760015560035516906007541617600755891b169165ffffffffffff19161717845563288688f960e21b83525af19182156200018e57839262000156575b5050806002557f6a2b70dde6ae0193f84b6a9eeb3b0ebdc3a35e99d9167b88c570158dd09cb0f76040519280a2612a289081620001ee8239f35b90809250813d831162000186575b6200017081836200019e565b8101031262000182575138806200011c565b5080fd5b503d62000164565b6040513d85823e3d90fd5b600080fd5b601f909101601f19168101906001600160401b03821190821017620001c257604052565b634e487b7160e01b600052604160045260246000fd5b51906001600160a01b0382168203620001995756fe6040608081526004908136101561001557600080fd5b600091823560e01c908163065426c2146121d05781630dd87a50146121a85781630f6e8673146121845781630fee72c114611ffd57816313e7c9d81461153c5781631a74b3f314611fbf5781631aa3e95d14611f455781632128b928146108d757816324f7469714611f215781632ba207fe14611e3b5781632e4a33cb14611dcc5781633119049a14611da35781633329b33114611c5a5781633d40f28f14611a84578382633dc7aad4146119da5750816344343860146118975781634a2e22d3146117f2578163524d530b146117c95781635557005d146115a3578163558a72971461174857816356eb00a11461162657816357970e93146115fd57816361728f39146115de57816363e36258146115a35781636b90bda91461157a5781636d70f7ae1461153c5781636f116a6a1461150f578163715018a6146114b5578382638d0cbf6a14611442575081638da5cb5b1461141a5781639c24ea40146113ab5781639df989771461135f578163a3e56fa814611336578163aafc51c3146112fd578163b0fb162f146112d9578163b16abdd4146112ba578163be831919146111e0578163c91f0cfc146111a3578163cb2d93ce1461112b578163d333aed314610f30578163d49f66f414610f07578163d5a6d60c14610cb0578163d63843cd14610c87578163d6ce02e414610b41578163d7c775241461090f578163dd6eba7e146108d7578163de3d9fb71461063c578163e449c1841461084e578163e48f37da146106c8578163ec644ddd1461065b578163ed647d211461063c578163f25949f9146104e3578163f2fde38b1461041757838263f726272c1461034957508163fd62120e146102bc575063ff3cd61e1461029157600080fd5b346102b857816003193601126102b857600f5490516001600160a01b039091168152602090f35b5080fd5b8390346102b85760603660031901126102b8576102d761236d565b6044359063ffffffff8216809203610345576102f161244b565b60018060a01b03166001600160601b0360a01b600154161760015560243560035563ffffffff198254161790557f4c6a50dab5e2b4bdf345de73b06a62ca5c45dde34eecef3c38eb568564f6547c8180a180f35b8380fd5b8091843461041357826003193601126104135761036461244b565b60015460025484549093916001600160a01b039182169116803b1561040f578351622b825560e61b81529283019485526001600160a01b03909116602085015290928491849182908490829060400103925af190811561040657506103ef575b506002557fad9127d67531701fd4222369e46413ad989a276f8ae432b7a2bb01a147a1be9e8180a180f35b6103f8906124e1565b6104035780826103c4565b80fd5b513d84823e3d90fd5b8580fd5b5050fd5b9050346104df5760203660031901126104df5761043261236d565b9061043b61244b565b6001600160a01b0391821692831561048d575050600054826001600160601b0360a01b821617600055167f8be0079c531659141344cd1fd0a4f28419497f9722a3daafe3b4186f6b6457e0600080a380f35b906020608492519162461bcd60e51b8352820152602660248201527f4f776e61626c653a206e6577206f776e657220697320746865207a65726f206160448201526564647265737360d01b6064820152fd5b8280fd5b9050346104df57816003193601126104df57803567ffffffffffffffff918282116106385736602383011215610638578101359182116103455760248101906024833692010111610345576000805160206129d383398151915292826060928161054b612388565b9161055461244b565b7f4b35529e56b244d05ef40bce36fd9c95cd911003461d7436e70939aa537dd07d610580368484612549565b60208151910120146000146105e057601080546001600160a01b0319166001600160a01b0385161790555b84519685889687528601528585013782820184018790526001600160a01b03166020830152601f01601f19168101030190a180f35b7fd826c10e37a7770f02c01ddf03373f8c12e6ec73eac52b5d0ff825017dc682ef61060c368484612549565b60208151910120036105ab57601180546001600160a01b0319166001600160a01b0385161790556105ab565b8480fd5b5050346102b857816003193601126102b8576020906002549051908152f35b9050346104df57826003193601126104df57338352600e602052918190205460a09261ffff9180156106be57905b600180861b0360015416936003549154928151958652602086015284015263ffffffff8116606084015260201c166080820152f35b5060025490610689565b905060209283600319360112610403576106e06123b4565b926106e961244b565b6001600160601b0384169160095480840290848204148415171561083b5734036107f857805b6008548110156107f457610722816123fe565b90549060031b1c808352600c885260ff848420541661074b575b50610746906126b3565b61070f565b6001546001600160a01b0316803b15610345578451634cf94d8760e01b81528088018381526001600160601b038a1660208201529091859183919082908a90829060400103925af180156107ea579084916107d6575b505090610746917f24761a552e7853f2c57abfbcc0b0e9698da9811db99b96034c7b7fefb067860a898651888152a29061073c565b6107df906124e1565b6104df5782386107a1565b85513d86823e3d90fd5b5080f35b815162461bcd60e51b8152808501879052601a60248201527f496e636f727265637420746f74616c2045544820616d6f756e740000000000006044820152606490fd5b634e487b7160e01b825260118552602482fd5b5050346102b85760203660031901126102b85760806000805160206129d38339815191529161087b61236d565b61088361244b565b6001600160a01b03166108978115156124a3565b806001600160601b0360a01b6013541617601355600f8251928084528301526e14995dd85c991cd19b1e5dda19595b608a1b60608301526020820152a180f35b5050346102b85760203660031901126102b85760209181906001600160a01b036108ff61236d565b168152600e845220549051908152f35b839150346102b857602090816003193601126104df5761092d6123b4565b9061093661244b565b60075485516323b872dd60e01b8152338382019081523060208201526001600160601b03851660408201526001600160a01b03928691839185169082908a90829060600103925af1908115610b37578691610b1a575b5015610ab15783816109d692600754169060015416908588600254938b5194868601528585526109bb8561250b565b8b51630200057560e51b8152968795869485938b85016127a4565b03925af1908115610aa7578591610a7a575b5015610a2357506001600160601b037f0148caca16863fb5a77543489023e89a5d3360fe9229a1e6f9d553b800aa916993945191168152a180f35b845162461bcd60e51b8152908101839052602b60248201527f4c494e4b207472616e73666572416e6443616c6c20746f20636f6f7264696e6160448201526a3a37b9103330b4b632b21760a91b6064820152608490fd5b610a9a9150843d8611610aa0575b610a928183612527565b81019061278c565b866109e8565b503d610a88565b86513d87823e3d90fd5b855162461bcd60e51b8152808301859052603e60248201527f4c494e4b207472616e7366657246726f6d206661696c65642e2044696420796f60448201527f7520617070726f7665207468652050726f746f636f6c4d616e616765723f00006064820152608490fd5b610b319150853d8711610aa057610a928183612527565b8761098c565b87513d88823e3d90fd5b9050346104df57816003193601126104df57610b5b61236d565b91610b64612388565b60105490916001600160a01b039182163303610c515781610b8361280b565b951693848752600e60205285828820558515610c0357508386526006602052852091166001600160601b0360a01b825416179055807f9cc152f4650ca2829a210a21551537f4cc4d48c2611ec06974f835e911921b908480a27faefe964a6ba1785c0718ded8476dce9589b858a69235c089b121271e1dae2d938380a380f35b6020608492519162461bcd60e51b83528201526024808201527f506f6f6c206d757374206861766520737562736372697074696f6e206173736960448201526319db995960e21b6064820152fd5b5162461bcd60e51b8152602081850152601160248201527027b7363c902837b7b62232b83637bcb2b960791b6044820152606490fd5b5050346102b857816003193601126102b85760115490516001600160a01b039091168152602090f35b9050346104df576020918260031936011261034557813592610cd061244b565b838552600c8152610ce660ff8387205416612667565b838552600d815281852054610ec65760016009541115610e7257838552600b8152818520546008546000199190828101908111610e5f57610d26816123fe565b90549060031b1c908203610e28575b50506008548015610e15579080600c93920190610d51826123fe565b909182549160031b1b19169055600855848652600b815260008387205552832060ff198154169055610d8460095461273c565b6009558160025414610db9575b507fc0d777cb9485c91def1a14a6e7787be4cc14b102d3475a0435ef9639c9c560998280a280f35b6008541580610e0d57610df8575060086000527ff3f7a9fe364faab93b216da50a3214154f22a0a2b415b23a84c8169e8b636ee3545b60025538610d91565b603290634e487b7160e01b6000525260246000fd5b505081610def565b634e487b7160e01b875260318552602487fd5b610e4e81610e35846123fe565b90919082549060031b91821b91600019901b1916179055565b8752600b8352838720553880610d35565b634e487b7160e01b885260118652602488fd5b905162461bcd60e51b815291820152602a60248201527f43616e6e6f742072656d6f766520746865206f6e6c79206163746976652073756044820152693139b1b934b83a34b7b760b11b6064820152608490fd5b905162461bcd60e51b815291820181905260248201527f537562736372697074696f6e207374696c6c2068617320636f6e73756d6572736044820152606490fd5b5050346102b857816003193601126102b85760135490516001600160a01b039091168152602090f35b9050346104df57816003193601126104df57803591610f4d61239e565b90610f5661244b565b838552602092600c8452610f6f60ff8388205416612667565b60075482516323b872dd60e01b8152338382019081523060208201526001600160601b03861660408201526001600160a01b03928791839185169082908c90829060600103925af1908115611121578891611104575b50156110c257848161100c9260075416906001541690868a8751938b86860152858552610ff18561250b565b8851630200057560e51b8152968795869485938b85016127a4565b03925af19081156110b857879161109b575b501561105a5750906001600160601b037f24761a552e7853f2c57abfbcc0b0e9698da9811db99b96034c7b7fefb067860a93925191168152a280f35b83606492519162461bcd60e51b8352820152601b60248201527f4c494e4b207472616e73666572416e6443616c6c206661696c656400000000006044820152fd5b6110b29150853d8711610aa057610a928183612527565b3861101e565b83513d89823e3d90fd5b5083606492519162461bcd60e51b8352820152601860248201527f4c494e4b207472616e7366657246726f6d206661696c656400000000000000006044820152fd5b61111b9150863d8811610aa057610a928183612527565b38610fc5565b84513d8a823e3d90fd5b5050346102b85760203660031901126102b85760806000805160206129d38339815191529161115861236d565b61116061244b565b60018060a01b0316806001600160601b0360a01b6011541617601155600a825192808452830152694e4654466163746f727960b01b60608301526020820152a180f35b5050346102b85760203660031901126102b8576020916001600160a01b03908290826111cd61236d565b1681526006855220541615159051908152f35b91905060203660031901126104df57826111f86123b4565b61120061244b565b6001600160601b03811693611216853414612749565b60015460025492906001600160a01b0316803b15610638578551634cf94d8760e01b81529283019384526001600160601b03909116602084015290918391839182908890829060400103925af180156112b05761129c575b507f0148caca16863fb5a77543489023e89a5d3360fe9229a1e6f9d553b800aa91696020848451908152a180f35b6112a5906124e1565b6104df57823861126e565b83513d84823e3d90fd5b5050346102b857816003193601126102b8576020906009549051908152f35b8284346104035780600319360112610403575061ffff60209254915191831c168152f35b9050346104df5760203660031901126104df57359160085483101561040357506113286020926123fe565b91905490519160031b1c8152f35b5050346102b857816003193601126102b85760015490516001600160a01b039091168152602090f35b83346104035760203660031901126104035761137961236d565b61138161244b565b6001600160a01b03166113958115156124a3565b6001600160601b0360a01b601254161760125580f35b5050346102b85760203660031901126102b85760207fe2d763f65bbed04f8954b0f0a3af42f687469bdd154132ba533accf0f0291a2b916113ea61236d565b6113f261244b565b600780546001600160a01b0319166001600160a01b039290921691821790559051908152a180f35b5050346102b857816003193601126102b857905490516001600160a01b039091168152602090f35b809184346104135760203660031901126104135761145e61244b565b6001546001600160a01b031691823b156114b0578392602484928451958693849263b2a7cac560e01b84528035908401525af190811561040657506114a05750f35b6114a9906124e1565b6104035780f35b505050fd5b83346104035780600319360112610403576114ce61244b565b600080546001600160a01b0319811682556001600160a01b03167f8be0079c531659141344cd1fd0a4f28419497f9722a3daafe3b4186f6b6457e08280a380f35b9050346104df5760203660031901126104df578160209360ff92358152600c855220541690519015158152f35b5050346102b85760203660031901126102b85760209160ff9082906001600160a01b0361156761236d565b1681526014855220541690519015158152f35b5050346102b857816003193601126102b85760125490516001600160a01b039091168152602090f35b5050346102b85760203660031901126102b8576020916001600160a01b03908290826115cd61236d565b168152600685522054169051908152f35b5050346102b857816003193601126102b8576020906003549051908152f35b5050346102b857816003193601126102b85760075490516001600160a01b039091168152602090f35b5050346102b857816003193601126102b8576008546116448161298c565b9161164e82612974565b9361165b82519586612527565b82855261166783612974565b60208087019691601f190136883761167e8561298c565b94835b8181106116e45750508061169f8551976060895260608901906123ca565b928784038289015251928381520196925b8281106116ce578688038588015286806116ca8a896123ca565b0390f35b83511515885296810196928101926001016116b0565b806116f561173f92969495966123fe565b90549060031b1c80611707838c6129be565b52808552600c865260ff888620541661172083896129be565b90151590528452600d855286842054611739828a6129be565b526126b3565b93929193611681565b5050346102b857806003193601126102b85761176261236d565b90602435801515809103610345577f966c160e1c4dbc7df8d69af4ace01e9297c3cf016397b7914971f2fbfa32672d9261179a61244b565b60018060a01b031690818552601460205282852060ff1981541660ff831617905582519182526020820152a180f35b5050346102b857816003193601126102b857600f5490516001600160a01b039091168152602090f35b9050346104df5760203660031901126104df5761180d61236d565b6011546001600160a01b039290831633036118615750168083526005602052908220805460ff191660011790557feb4d1b1ad6245003e8b460f686262712b4f75c37e82b6aa0f9445acef51699258280a280f35b606490602085519162461bcd60e51b8352820152601060248201526f4f6e6c79204e465420666163746f727960801b6044820152fd5b919050346104df57806003193601126104df576118b261236d565b6024356118f860018060a01b03809316918287526118dc6020946006865286892054161515612590565b6118e78115156125cf565b828752600e8452848720541461261b565b825163c19d93fb60e01b815282818681855afa8691816119ab575b5061195b57835162461bcd60e51b8152602081870181815260159181019190915274125b9d985b1a59081c1bdbdb0818dbdb9d1c9858dd605a1b604082015281906060010390fd5b60088196959610156119985791600e91611984846007600097961490811561198d575b506126f0565b85525282205580f35b60059150148861197e565b634e487b7160e01b855260218652602485fd5b6119cc919250843d86116119d3575b6119c48183612527565b8101906126d8565b9038611913565b503d6119ba565b9150346102b857816003193601126102b8576020906119f761244b565b600154845163288688f960e21b8152938492918391906001600160a01b03165af191821561040657508291611a53575b50806002557f6a2b70dde6ae0193f84b6a9eeb3b0ebdc3a35e99d9167b88c570158dd09cb0f78280a280f35b90506020813d8211611a7c575b81611a6d60209383612527565b810103126102b8575138611a27565b3d9150611a60565b919050346104df57806003193601126104df57611a9f61236d565b6024359060018060a01b038082169182875260209160068352611ac881878a2054161515612590565b611ad38515156125cf565b838852600e8352611ae885878a20541461261b565b855163c19d93fb60e01b815283818981885afa899181611c3b575b50611b4b57865162461bcd60e51b81526020818a0181815260159181019190915274125b9d985b1a59081c1bdbdb0818dbdb9d1c9858dd605a1b604082015281906060010390fd5b889692918160088a931015611c285790611b7282848b96959414908115611c1d57506126f0565b6001541691823b1561034557845163cb63179760e01b81529182018881526001600160a01b0390911660208201529091839183919082908490829060400103925af180156112b057611c09575b5060009285600e9252600d8152828720611bd9815461273c565b9055848752528420557f46d7f264cf963b550773f629b4cd2668e69e465b630a862303300db477104e9e8380a380f35b611c12906124e1565b610638578486611bbf565b60069150148b61197e565b634e487b7160e01b895260218352602489fd5b611c53919250853d87116119d3576119c48183612527565b9038611b03565b919050346104df57806003193601126104df57611c7561236d565b91611c7e612388565b91611c8761244b565b6001600160a01b03938416928315611d60578416938415611d1d57908592916011541691823b156103455784604485928385519687948593630d76b84160e21b85528401528a60248401525af19081156104065750611d09575b50807f055d29287d43159ed5b46366888181c01552bd982dcbd9380ade3dc5a1069f4491a380f35b611d12906124e1565b6104df578238611ce1565b815162461bcd60e51b8152602081850152601e60248201527f496e76616c6964204552433131353520696d706c656d656e746174696f6e00006044820152606490fd5b815162461bcd60e51b8152602081850152601d60248201527f496e76616c69642045524337323120696d706c656d656e746174696f6e0000006044820152606490fd5b5050346102b857816003193601126102b85760105490516001600160a01b039091168152602090f35b5050346102b85760203660031901126102b85760207ffd76f8ed4d910bcb9cc812e605a5c8b31f7b84ab658feb2d9bf60de6f7adf07291611e0b61236d565b611e1361244b565b600f80546001600160a01b0319166001600160a01b039290921691821790559051908152a180f35b9050816003193601126104df5780359183611e5461239e565b611e5c61244b565b848252600c602052611e7360ff8484205416612667565b6001600160601b03811693611e89853414612749565b6001546001600160a01b031691823b15610345578451634cf94d8760e01b81529182018781526001600160601b0390911660208201529091839183919082908890829060400103925af180156112b057611f0d575b50507f24761a552e7853f2c57abfbcc0b0e9698da9811db99b96034c7b7fefb067860a9160209151908152a280f35b611f16906124e1565b610345578338611ede565b8284346104035780600319360112610403575063ffffffff60209254169051908152f35b5050346102b85760203660031901126102b85760806000805160206129d383398151915291611f7261236d565b611f7a61244b565b60018060a01b0316806001600160601b0360a01b6010541617601055600c8251928084528301526b2837b7b62232b83637bcb2b960a11b60608301526020820152a180f35b5050346102b85760203660031901126102b85760209160ff9082906001600160a01b03611fea61236d565b1681526005855220541690519015158152f35b8383346102b8576020806003193601126104df5783359161201c61244b565b821561214157828452600c825260ff81852054166120fe57600854838552600b83528082862055680100000000000000008110156120eb5783610e3582600161206894016008556123fe565b828452600c8252808420600160ff198254161790556120886009546126b3565b60095560085490600182146120e2575b60001982019182116120cf57519081527fb2615094a1e63e6d2b94b964165480ab14d38fc7bb17dc29b281e00209d08d5c9190a280f35b634e487b7160e01b855260118652602485fd5b83600255612098565b634e487b7160e01b855260418652602485fd5b5162461bcd60e51b815280850191909152601a60248201527f537562736372697074696f6e20616c72656164792061646465640000000000006044820152606490fd5b5162461bcd60e51b815280850191909152601760248201527f496e76616c696420737562736372697074696f6e2049440000000000000000006044820152606490fd5b5050346102b857816003193601126102b8576020906121a161280b565b9051908152f35b9050346104df5760203660031901126104df576020928291358152600d845220549051908152f35b919050346104df57806003193601126104df576121eb61236d565b906024359260018060a01b03908582851694858252602093600685526122178187852054161515612590565b868352600e855261223788878520546122318115156125cf565b1461261b565b878352600c855261224d60ff8785205416612667565b878352600d85526064868420541015612303575b60015416803b156104df578551632fb1302360e21b81529384018881526001600160a01b039092166020830152839182908490829060400103925af180156122f9576122e5575b50600d908486525283206122bc81546126b3565b90557f8b4d66174491b3a6145331b676769c46f933c290811400f713f6dd7e0f7ada9f8380a380f35b946122f2600d92966124e1565b94906122a8565b83513d88823e3d90fd5b9650905061230f61280b565b95861561232a57908791868352600e85528786842055612261565b845162461bcd60e51b8152808401859052601e60248201527f4e6f20617661696c61626c652056524620737562736372697074696f6e7300006044820152606490fd5b600435906001600160a01b038216820361238357565b600080fd5b602435906001600160a01b038216820361238357565b602435906001600160601b038216820361238357565b600435906001600160601b038216820361238357565b90815180825260208080930193019160005b8281106123ea575050505090565b8351855293810193928101926001016123dc565b6008548110156124355760086000527ff3f7a9fe364faab93b216da50a3214154f22a0a2b415b23a84c8169e8b636ee30190600090565b634e487b7160e01b600052603260045260246000fd5b6000546001600160a01b0316330361245f57565b606460405162461bcd60e51b815260206004820152602060248201527f4f776e61626c653a2063616c6c6572206973206e6f7420746865206f776e65726044820152fd5b156124aa57565b60405162461bcd60e51b815260206004820152600f60248201526e496e76616c6964206164647265737360881b6044820152606490fd5b67ffffffffffffffff81116124f557604052565b634e487b7160e01b600052604160045260246000fd5b6040810190811067ffffffffffffffff8211176124f557604052565b90601f8019910116810190811067ffffffffffffffff8211176124f557604052565b92919267ffffffffffffffff82116124f55760405191612573601f8201601f191660200184612527565b829481845281830111612383578281602093846000960137010152565b1561259757565b60405162461bcd60e51b815260206004820152601060248201526f139bdd0818481d985b1a59081c1bdbdb60821b6044820152606490fd5b156125d657565b60405162461bcd60e51b815260206004820152601860248201527f4e6f20737562736372697074696f6e2061737369676e656400000000000000006044820152606490fd5b1561262257565b60405162461bcd60e51b815260206004820152601d60248201527f496e76616c696420737562736372697074696f6e20666f7220706f6f6c0000006044820152606490fd5b1561266e57565b60405162461bcd60e51b815260206004820152601760248201527f537562736372697074696f6e206e6f74206163746976650000000000000000006044820152606490fd5b60001981146126c25760010190565b634e487b7160e01b600052601160045260246000fd5b90816020910312612383575160088110156123835790565b156126f757565b60405162461bcd60e51b815260206004820152601e60248201527f506f6f6c206d75737420626520696e207465726d696e616c20737461746500006044820152606490fd5b80156126c2576000190190565b1561275057565b60405162461bcd60e51b8152602060048201526014602482015273125b98dbdc9c9958dd0811551208185b5bdd5b9d60621b6044820152606490fd5b90816020910312612383575180151581036123835790565b9193929060018060a01b031682526001600160601b0360209416848301526060604083015280519081606084015260005b8281106127f757505060809293506000838284010152601f8019910116010190565b8181018601518482016080015285016127d5565b6000906009541561292f57600a9081549083905b60085480831015612924578454612835816123fe565b90549060031b1c8088526020600c8152604060ff818b2054169182612911575b50506129065750600181018091116128f25781156128de57849161287d9106938487556126b3565b9214806128d5575b1561281f5750505050505b60405162461bcd60e51b815260206004820152601d60248201527f416c6c20737562736372697074696f6e732061742063617061636974790000006044820152606490fd5b50811515612885565b634e487b7160e01b87526012600452602487fd5b634e487b7160e01b87526011600452602487fd5b955050509350505090565b60649250600d9052892054103880612855565b505050505050612890565b60405162461bcd60e51b815260206004820152601760248201527f4e6f2061637469766520737562736372697074696f6e730000000000000000006044820152606490fd5b67ffffffffffffffff81116124f55760051b60200190565b9061299682612974565b6129a36040519182612527565b82815280926129b4601f1991612974565b0190602036910137565b80518210156124355760209160051b01019056fe1592f515c298c578903964a58733180fe97bdf05860fc70a7e21b61e8cc2d1b1a2646970667358221220be95c0815375a964a94e4deb1859332856b8940e7891d6f0dec43f8b066f88d064736f6c63430008130033",
  "linkReferences": {},
  "deployedLinkReferences": {}
}