{
  "_format": "hh-sol-artifact-1",
  "contractName": "ProtocolManager",
  "sourceName": "contracts/ProtocolManager.sol",
  "abi": [
    {
      "inputs": [
        {
          "internalType": "address",
          "name": "_vrfCoordinator",
          "type": "address"
        },
        {
          "internalType": "bytes32",
          "name": "_keyHash",
          "type": "bytes32"
        },
        {
          "internalType": "address",
          "name": "_linkToken",
          "type": "address"
        },
        {
          "internalType": "uint32",
          "name": "_callbackGasLimit",
          "type": "uint32"
        },
        {
          "internalType": "uint16",
          "name": "_requestConfirmations",
          "type": "uint16"
        }
      ],
      "stateMutability": "nonpayable",
      "type": "constructor"
    },
    {
      "anonymous": false,
      "inputs": [
        {
          "indexed": false,
          "internalType": "string",
          "name": "contractType",
          "type": "string"
        },
        {
          "indexed": false,
          "internalType": "address",
          "name": "newAddress",
          "type": "address"
        }
      ],
      "name": "ContractReplaced",
      "type": "event"
    },
    {
      "anonymous": false,
      "inputs": [
        {
          "indexed": true,
          "internalType": "address",
          "name": "collection",
          "type": "address"
        }
      ],
      "name": "InternalCollectionAdded",
      "type": "event"
    },
    {
      "anonymous": false,
      "inputs": [
        {
          "indexed": false,
          "internalType": "address",
          "name": "newLinkToken",
          "type": "address"
        }
      ],
      "name": "LinkTokenUpdated",
      "type": "event"
    },
    {
      "anonymous": false,
      "inputs": [
        {
          "indexed": true,
          "internalType": "address",
          "name": "erc721Implementation",
          "type": "address"
        },
        {
          "indexed": true,
          "internalType": "address",
          "name": "erc1155Implementation",
          "type": "address"
        }
      ],
      "name": "NFTFactoryImplementationsUpdated",
      "type": "event"
    },
    {
      "anonymous": false,
      "inputs": [
        {
          "indexed": false,
          "internalType": "address",
          "name": "operator",
          "type": "address"
        },
        {
          "indexed": false,
          "internalType": "bool",
          "name": "status",
          "type": "bool"
        }
      ],
      "name": "OperatorUpdated",
      "type": "event"
    },
    {
      "anonymous": false,
      "inputs": [
        {
          "indexed": true,
          "internalType": "address",
          "name": "previousOwner",
          "type": "address"
        },
        {
          "indexed": true,
          "internalType": "address",
          "name": "newOwner",
          "type": "address"
        }
      ],
      "name": "OwnershipTransferred",
      "type": "event"
    },
    {
      "anonymous": false,
      "inputs": [
        {
          "indexed": true,
          "internalType": "address",
          "name": "poolImplementation",
          "type": "address"
        }
      ],
      "name": "PoolDeployerImplementationUpdated",
      "type": "event"
    },
    {
      "anonymous": false,
      "inputs": [
        {
          "indexed": true,
          "internalType": "address",
          "name": "pool",
          "type": "address"
        }
      ],
      "name": "PoolRegistered",
      "type": "event"
    },
    {
      "anonymous": false,
      "inputs": [
        {
          "indexed": false,
          "internalType": "address",
          "name": "newAddress",
          "type": "address"
        }
      ],
      "name": "RevenueManagerUpdated",
      "type": "event"
    },
    {
      "anonymous": false,
      "inputs": [
        {
          "indexed": true,
          "internalType": "uint256",
          "name": "subscriptionId",
          "type": "uint256"
        }
      ],
      "name": "SubscriptionCreated",
      "type": "event"
    },
    {
      "anonymous": false,
      "inputs": [
        {
          "indexed": false,
          "internalType": "uint96",
          "name": "amount",
          "type": "uint96"
        }
      ],
      "name": "SubscriptionFunded",
      "type": "event"
    },
    {
      "anonymous": false,
      "inputs": [
        {
          "indexed": true,
          "internalType": "uint256",
          "name": "subscriptionId",
          "type": "uint256"
        },
        {
          "indexed": false,
          "internalType": "uint96",
          "name": "amount",
          "type": "uint96"
        }
      ],
      "name": "SubscriptionFundedWithDetails",
      "type": "event"
    },
    {
      "anonymous": false,
      "inputs": [
        {
          "indexed": true,
          "internalType": "address",
          "name": "pool",
          "type": "address"
        },
        {
          "indexed": true,
          "internalType": "uint256",
          "name": "assignedSubscriptionId",
          "type": "uint256"
        }
      ],
      "name": "SubscriptionPreAssigned",
      "type": "event"
    },
    {
      "anonymous": false,
      "inputs": [
        {
          "indexed": true,
          "internalType": "address",
          "name": "consumer",
          "type": "address"
        },
        {
          "indexed": true,
          "internalType": "uint256",
          "name": "subscriptionId",
          "type": "uint256"
        }
      ],
      "name": "VRFConsumerAddedToSubscription",
      "type": "event"
    },
    {
      "anonymous": false,
      "inputs": [
        {
          "indexed": true,
          "internalType": "address",
          "name": "consumer",
          "type": "address"
        },
        {
          "indexed": true,
          "internalType": "uint256",
          "name": "subscriptionId",
          "type": "uint256"
        }
      ],
      "name": "VRFConsumerRemovedFromSubscription",
      "type": "event"
    },
    {
      "anonymous": false,
      "inputs": [],
      "name": "VRFParamsUpdated",
      "type": "event"
    },
    {
      "anonymous": false,
      "inputs": [
        {
          "indexed": true,
          "internalType": "uint256",
          "name": "subscriptionId",
          "type": "uint256"
        },
        {
          "indexed": false,
          "internalType": "uint256",
          "name": "index",
          "type": "uint256"
        }
      ],
      "name": "VRFSubscriptionAdded",
      "type": "event"
    },
    {
      "anonymous": false,
      "inputs": [],
      "name": "VRFSubscriptionCancelled",
      "type": "event"
    },
    {
      "anonymous": false,
      "inputs": [
        {
          "indexed": true,
          "internalType": "uint256",
          "name": "subscriptionId",
          "type": "uint256"
        }
      ],
      "name": "VRFSubscriptionRemoved",
      "type": "event"
    },
    {
      "inputs": [
        {
          "internalType": "uint256",
          "name": "subscriptionId",
          "type": "uint256"
        }
      ],
      "name": "acceptVRFOwnership",
      "outputs": [],
      "stateMutability": "nonpayable",
      "type": "function"
    },
    {
      "inputs": [],
      "name": "activeSubscriptionCount",
      "outputs": [
        {
          "internalType": "uint256",
          "name": "",
          "type": "uint256"
        }
      ],
      "stateMutability": "view",
      "type": "function"
    },
    {
      "inputs": [
        {
          "internalType": "address",
          "name": "_collection",
          "type": "address"
        }
      ],
      "name": "addInternalCollection",
      "outputs": [],
      "stateMutability": "nonpayable",
      "type": "function"
    },
    {
      "inputs": [
        {
          "internalType": "address",
          "name": "consumer",
          "type": "address"
        },
        {
          "internalType": "uint256",
          "name": "subscriptionId",
          "type": "uint256"
        }
      ],
      "name": "addVRFConsumer",
      "outputs": [],
      "stateMutability": "nonpayable",
      "type": "function"
    },
    {
      "inputs": [
        {
          "internalType": "uint256",
          "name": "subscriptionId",
          "type": "uint256"
        }
      ],
      "name": "addVRFSubscription",
      "outputs": [],
      "stateMutability": "nonpayable",
      "type": "function"
    },
    {
      "inputs": [
        {
          "internalType": "uint256",
          "name": "",
          "type": "uint256"
        }
      ],
      "name": "allPools",
      "outputs": [
        {
          "internalType": "address",
          "name": "",
          "type": "address"
        }
      ],
      "stateMutability": "view",
      "type": "function"
    },
    {
      "inputs": [
        {
          "internalType": "address",
          "name": "pool",
          "type": "address"
        },
        {
          "internalType": "address",
          "name": "creator",
          "type": "address"
        }
      ],
      "name": "batchSetupPool",
      "outputs": [],
      "stateMutability": "nonpayable",
      "type": "function"
    },
    {
      "inputs": [],
      "name": "callbackGasLimit",
      "outputs": [
        {
          "internalType": "uint32",
          "name": "",
          "type": "uint32"
        }
      ],
      "stateMutability": "view",
      "type": "function"
    },
    {
      "inputs": [],
      "name": "cancelVRFSubscription",
      "outputs": [],
      "stateMutability": "nonpayable",
      "type": "function"
    },
    {
      "inputs": [],
      "name": "createVRFSubscription",
      "outputs": [],
      "stateMutability": "nonpayable",
      "type": "function"
    },
    {
      "inputs": [
        {
          "internalType": "uint96",
          "name": "amountPerSubscription",
          "type": "uint96"
        }
      ],
      "name": "fundAllSubscriptionsWithNative",
      "outputs": [],
      "stateMutability": "payable",
      "type": "function"
    },
    {
      "inputs": [
        {
          "internalType": "uint96",
          "name": "amount",
          "type": "uint96"
        }
      ],
      "name": "fundVRFSubscriptionWithLink",
      "outputs": [],
      "stateMutability": "nonpayable",
      "type": "function"
    },
    {
      "inputs": [
        {
          "internalType": "uint256",
          "name": "subscriptionId",
          "type": "uint256"
        },
        {
          "internalType": "uint96",
          "name": "amount",
          "type": "uint96"
        }
      ],
      "name": "fundVRFSubscriptionWithLinkById",
      "outputs": [],
      "stateMutability": "nonpayable",
      "type": "function"
    },
    {
      "inputs": [
        {
          "internalType": "uint96",
          "name": "amount",
          "type": "uint96"
        }
      ],
      "name": "fundVRFSubscriptionWithNative",
      "outputs": [],
      "stateMutability": "payable",
      "type": "function"
    },
    {
      "inputs": [
        {
          "internalType": "uint256",
          "name": "subscriptionId",
          "type": "uint256"
        },
        {
          "internalType": "uint96",
          "name": "amount",
          "type": "uint96"
        }
      ],
      "name": "fundVRFSubscriptionWithNativeById",
      "outputs": [],
      "stateMutability": "payable",
      "type": "function"
    },
    {
      "inputs": [],
      "name": "getAllInternalCollections",
      "outputs": [
        {
          "internalType": "address[]",
          "name": "",
          "type": "address[]"
        }
      ],
      "stateMutability": "view",
      "type": "function"
    },
    {
      "inputs": [
        {
          "internalType": "uint256",
          "name": "cursor",
          "type": "uint256"
        },
        {
          "internalType": "uint256",
          "name": "pageSize",
          "type": "uint256"
        }
      ],
      "name": "getAllPools",
      "outputs": [
        {
          "internalType": "address[]",
          "name": "pools",
          "type": "address[]"
        },
        {
          "internalType": "uint256",
          "name": "newCursor",
          "type": "uint256"
        },
        {
          "internalType": "bool",
          "name": "hasMore",
          "type": "bool"
        }
      ],
      "stateMutability": "view",
      "type": "function"
    },
    {
      "inputs": [],
      "name": "getAllSubscriptions",
      "outputs": [
        {
          "internalType": "uint256[]",
          "name": "ids",
          "type": "uint256[]"
        },
        {
          "internalType": "bool[]",
          "name": "active",
          "type": "bool[]"
        },
        {
          "internalType": "uint256[]",
          "name": "consumerCounts",
          "type": "uint256[]"
        }
      ],
      "stateMutability": "view",
      "type": "function"
    },
    {
      "inputs": [],
      "name": "getNextVRFSubscription",
      "outputs": [
        {
          "internalType": "uint256",
          "name": "",
          "type": "uint256"
        }
      ],
      "stateMutability": "nonpayable",
      "type": "function"
    },
    {
      "inputs": [],
      "name": "getPoolCount",
      "outputs": [
        {
          "internalType": "uint256",
          "name": "",
          "type": "uint256"
        }
      ],
      "stateMutability": "view",
      "type": "function"
    },
    {
      "inputs": [
        {
          "internalType": "address",
          "name": "pool",
          "type": "address"
        }
      ],
      "name": "getPoolCreator",
      "outputs": [
        {
          "internalType": "address",
          "name": "",
          "type": "address"
        }
      ],
      "stateMutability": "view",
      "type": "function"
    },
    {
      "inputs": [
        {
          "internalType": "address",
          "name": "pool",
          "type": "address"
        }
      ],
      "name": "getPoolSubscription",
      "outputs": [
        {
          "internalType": "uint256",
          "name": "",
          "type": "uint256"
        }
      ],
      "stateMutability": "view",
      "type": "function"
    },
    {
      "inputs": [
        {
          "internalType": "address",
          "name": "creator",
          "type": "address"
        },
        {
          "internalType": "uint256",
          "name": "cursor",
          "type": "uint256"
        },
        {
          "internalType": "uint256",
          "name": "pageSize",
          "type": "uint256"
        }
      ],
      "name": "getPoolsByCreator",
      "outputs": [
        {
          "internalType": "address[]",
          "name": "pools",
          "type": "address[]"
        },
        {
          "internalType": "uint256",
          "name": "newCursor",
          "type": "uint256"
        },
        {
          "internalType": "bool",
          "name": "hasMore",
          "type": "bool"
        }
      ],
      "stateMutability": "view",
      "type": "function"
    },
    {
      "inputs": [],
      "name": "getRevenueManager",
      "outputs": [
        {
          "internalType": "address",
          "name": "",
          "type": "address"
        }
      ],
      "stateMutability": "view",
      "type": "function"
    },
    {
      "inputs": [],
      "name": "getSubscriptionId",
      "outputs": [
        {
          "internalType": "uint256",
          "name": "",
          "type": "uint256"
        }
      ],
      "stateMutability": "view",
      "type": "function"
    },
    {
      "inputs": [],
      "name": "getVRFParams",
      "outputs": [
        {
          "internalType": "address",
          "name": "",
          "type": "address"
        },
        {
          "internalType": "uint256",
          "name": "",
          "type": "uint256"
        },
        {
          "internalType": "bytes32",
          "name": "",
          "type": "bytes32"
        },
        {
          "internalType": "uint32",
          "name": "",
          "type": "uint32"
        },
        {
          "internalType": "uint16",
          "name": "",
          "type": "uint16"
        }
      ],
      "stateMutability": "view",
      "type": "function"
    },
    {
      "inputs": [
        {
          "internalType": "uint256",
          "name": "",
          "type": "uint256"
        }
      ],
      "name": "internalCollections",
      "outputs": [
        {
          "internalType": "address",
          "name": "",
          "type": "address"
        }
      ],
      "stateMutability": "view",
      "type": "function"
    },
    {
      "inputs": [
        {
          "internalType": "uint256",
          "name": "",
          "type": "uint256"
        }
      ],
      "name": "isActiveSubscription",
      "outputs": [
        {
          "internalType": "bool",
          "name": "",
          "type": "bool"
        }
      ],
      "stateMutability": "view",
      "type": "function"
    },
    {
      "inputs": [
        {
          "internalType": "address",
          "name": "",
          "type": "address"
        }
      ],
      "name": "isInternalCollection",
      "outputs": [
        {
          "internalType": "bool",
          "name": "",
          "type": "bool"
        }
      ],
      "stateMutability": "view",
      "type": "function"
    },
    {
      "inputs": [
        {
          "internalType": "address",
          "name": "operator",
          "type": "address"
        }
      ],
      "name": "isOperator",
      "outputs": [
        {
          "internalType": "bool",
          "name": "",
          "type": "bool"
        }
      ],
      "stateMutability": "view",
      "type": "function"
    },
    {
      "inputs": [
        {
          "internalType": "address",
          "name": "_address",
          "type": "address"
        }
      ],
      "name": "isPoolContract",
      "outputs": [
        {
          "internalType": "bool",
          "name": "",
          "type": "bool"
        }
      ],
      "stateMutability": "view",
      "type": "function"
    },
    {
      "inputs": [],
      "name": "keyHash",
      "outputs": [
        {
          "internalType": "bytes32",
          "name": "",
          "type": "bytes32"
        }
      ],
      "stateMutability": "view",
      "type": "function"
    },
    {
      "inputs": [],
      "name": "linkToken",
      "outputs": [
        {
          "internalType": "contract ILinkTransferAndCall",
          "name": "",
          "type": "address"
        }
      ],
      "stateMutability": "view",
      "type": "function"
    },
    {
      "inputs": [],
      "name": "nftFactory",
      "outputs": [
        {
          "internalType": "address",
          "name": "",
          "type": "address"
        }
      ],
      "stateMutability": "view",
      "type": "function"
    },
    {
      "inputs": [
        {
          "internalType": "address",
          "name": "",
          "type": "address"
        }
      ],
      "name": "operators",
      "outputs": [
        {
          "internalType": "bool",
          "name": "",
          "type": "bool"
        }
      ],
      "stateMutability": "view",
      "type": "function"
    },
    {
      "inputs": [],
      "name": "owner",
      "outputs": [
        {
          "internalType": "address",
          "name": "",
          "type": "address"
        }
      ],
      "stateMutability": "view",
      "type": "function"
    },
    {
      "inputs": [
        {
          "internalType": "address",
          "name": "",
          "type": "address"
        }
      ],
      "name": "poolCreators",
      "outputs": [
        {
          "internalType": "address",
          "name": "",
          "type": "address"
        }
      ],
      "stateMutability": "view",
      "type": "function"
    },
    {
      "inputs": [],
      "name": "poolDeployer",
      "outputs": [
        {
          "internalType": "address",
          "name": "",
          "type": "address"
        }
      ],
      "stateMutability": "view",
      "type": "function"
    },
    {
      "inputs": [
        {
          "internalType": "address",
          "name": "",
          "type": "address"
        }
      ],
      "name": "poolToSubscriptionId",
      "outputs": [
        {
          "internalType": "uint256",
          "name": "",
          "type": "uint256"
        }
      ],
      "stateMutability": "view",
      "type": "function"
    },
    {
      "inputs": [
        {
          "internalType": "address",
          "name": "consumer",
          "type": "address"
        },
        {
          "internalType": "uint256",
          "name": "subscriptionId",
          "type": "uint256"
        }
      ],
      "name": "removeVRFConsumer",
      "outputs": [],
      "stateMutability": "nonpayable",
      "type": "function"
    },
    {
      "inputs": [
        {
          "internalType": "uint256",
          "name": "subscriptionId",
          "type": "uint256"
        }
      ],
      "name": "removeVRFSubscription",
      "outputs": [],
      "stateMutability": "nonpayable",
      "type": "function"
    },
    {
      "inputs": [],
      "name": "renounceOwnership",
      "outputs": [],
      "stateMutability": "nonpayable",
      "type": "function"
    },
    {
      "inputs": [
        {
          "internalType": "string",
          "name": "contractType",
          "type": "string"
        },
        {
          "internalType": "address",
          "name": "newAddress",
          "type": "address"
        }
      ],
      "name": "replaceContract",
      "outputs": [],
      "stateMutability": "nonpayable",
      "type": "function"
    },
    {
      "inputs": [],
      "name": "requestConfirmations",
      "outputs": [
        {
          "internalType": "uint16",
          "name": "",
          "type": "uint16"
        }
      ],
      "stateMutability": "view",
      "type": "function"
    },
    {
      "inputs": [],
      "name": "revenueManager",
      "outputs": [
        {
          "internalType": "address",
          "name": "",
          "type": "address"
        }
      ],
      "stateMutability": "view",
      "type": "function"
    },
    {
      "inputs": [],
      "name": "rewardsFlywheel",
      "outputs": [
        {
          "internalType": "address",
          "name": "",
          "type": "address"
        }
      ],
      "stateMutability": "view",
      "type": "function"
    },
    {
      "inputs": [
        {
          "internalType": "address",
          "name": "_linkToken",
          "type": "address"
        }
      ],
      "name": "setLinkToken",
      "outputs": [],
      "stateMutability": "nonpayable",
      "type": "function"
    },
    {
      "inputs": [
        {
          "internalType": "address",
          "name": "_nftFactory",
          "type": "address"
        }
      ],
      "name": "setNFTFactory",
      "outputs": [],
      "stateMutability": "nonpayable",
      "type": "function"
    },
    {
      "inputs": [
        {
          "internalType": "address",
          "name": "operator",
          "type": "address"
        },
        {
          "internalType": "bool",
          "name": "status",
          "type": "bool"
        }
      ],
      "name": "setOperator",
      "outputs": [],
      "stateMutability": "nonpayable",
      "type": "function"
    },
    {
      "inputs": [
        {
          "internalType": "address",
          "name": "_poolDeployer",
          "type": "address"
        }
      ],
      "name": "setPoolDeployer",
      "outputs": [],
      "stateMutability": "nonpayable",
      "type": "function"
    },
    {
      "inputs": [
        {
          "internalType": "address",
          "name": "_revenueManager",
          "type": "address"
        }
      ],
      "name": "setRevenueManager",
      "outputs": [],
      "stateMutability": "nonpayable",
      "type": "function"
    },
    {
      "inputs": [
        {
          "internalType": "address",
          "name": "_rewardsFlywheel",
          "type": "address"
        }
      ],
      "name": "setRewardsFlywheel",
      "outputs": [],
      "stateMutability": "nonpayable",
      "type": "function"
    },
    {
      "inputs": [
        {
          "internalType": "address",
          "name": "_manager",
          "type": "address"
        }
      ],
      "name": "setSocialEngagementManager",
      "outputs": [],
      "stateMutability": "nonpayable",
      "type": "function"
    },
    {
      "inputs": [
        {
          "internalType": "address",
          "name": "_coordinator",
          "type": "address"
        },
        {
          "internalType": "bytes32",
          "name": "_keyHash",
          "type": "bytes32"
        },
        {
          "internalType": "uint32",
          "name": "_gasLimit",
          "type": "uint32"
        }
      ],
      "name": "setVRFParams",
      "outputs": [],
      "stateMutability": "nonpayable",
      "type": "function"
    },
    {
      "inputs": [],
      "name": "socialEngagementManager",
      "outputs": [
        {
          "internalType": "address",
          "name": "",
          "type": "address"
        }
      ],
      "stateMutability": "view",
      "type": "function"
    },
    {
      "inputs": [
        {
          "internalType": "uint256",
          "name": "",
          "type": "uint256"
        }
      ],
      "name": "subscriptionConsumerCount",
      "outputs": [
        {
          "internalType": "uint256",
          "name": "",
          "type": "uint256"
        }
      ],
      "stateMutability": "view",
      "type": "function"
    },
    {
      "inputs": [
        {
          "internalType": "address",
          "name": "newOwner",
          "type": "address"
        }
      ],
      "name": "transferOwnership",
      "outputs": [],
      "stateMutability": "nonpayable",
      "type": "function"
    },
    {
      "inputs": [
        {
          "internalType": "address",
          "name": "_erc721Implementation",
          "type": "address"
        },
        {
          "internalType": "address",
          "name": "_erc1155Implementation",
          "type": "address"
        }
      ],
      "name": "updateNFTFactoryImplementations",
      "outputs": [],
      "stateMutability": "nonpayable",
      "type": "function"
    },
    {
      "inputs": [
        {
          "internalType": "address",
          "name": "consumer",
          "type": "address"
        },
        {
          "internalType": "uint256",
          "name": "subscriptionId",
          "type": "uint256"
        }
      ],
      "name": "updatePoolToSubscription",
      "outputs": [],
      "stateMutability": "nonpayable",
      "type": "function"
    },
    {
      "inputs": [],
      "name": "vrfCoordinator",
      "outputs": [
        {
          "internalType": "contract VRFCoordinatorV2PlusInterface",
          "name": "",
          "type": "address"
        }
      ],
      "stateMutability": "view",
      "type": "function"
    },
    {
      "inputs": [],
      "name": "vrfSubscriptionId",
      "outputs": [
        {
          "internalType": "uint256",
          "name": "",
          "type": "uint256"
        }
      ],
      "stateMutability": "view",
      "type": "function"
    },
    {
      "inputs": [
        {
          "internalType": "uint256",
          "name": "",
          "type": "uint256"
        }
      ],
      "name": "vrfSubscriptionIds",
      "outputs": [
        {
          "internalType": "uint256",
          "name": "",
          "type": "uint256"
        }
      ],
      "stateMutability": "view",
      "type": "function"
    }
  ],
  "bytecode": "0x60808060405234620001995760a081620031d980380380916200002382856200019e565b83398101031262000199576200003981620001d8565b60209081830151926200004f60408201620001d8565b9060608101519063ffffffff82168092036200019957608001519261ffff8416840362000199578492600491600097889182549565ffff0000000060018060a01b031999338b8a161786556040519a8b998a9860018060a01b0391823391167f8be0079c531659141344cd1fd0a4f28419497f9722a3daafe3b4186f6b6457e08b80a3818b549716978884600154161760015560035516906008541617600855891b169165ffffffffffff19161717845563288688f960e21b83525af19182156200018e57839262000156575b5050806002557f6a2b70dde6ae0193f84b6a9eeb3b0ebdc3a35e99d9167b88c570158dd09cb0f76040519280a2612feb9081620001ee8239f35b90809250813d831162000186575b6200017081836200019e565b8101031262000182575138806200011c565b5080fd5b503d62000164565b6040513d85823e3d90fd5b600080fd5b601f909101601f19168101906001600160401b03821190821017620001c257604052565b634e487b7160e01b600052604160045260246000fd5b51906001600160a01b0382168203620001995756fe6040608081526004908136101561001557600080fd5b600091823560e01c908163065426c2146125d75781630dd87a50146125af5781630f6e86731461258b5781630fee72c11461240957816313e7c9d8146118605781631a74b3f3146123cb5781631aa3e95d146123515781632128b9281461091957816324f746971461232d57816325974de6146122d25781632ba207fe146121ec5781632e4a33cb1461217d5781633119049a146121545781633329b3311461200b5781633d40f28f14611e35578382633dc7aad414611d8b5750816341d1de9714611d4a5781634434386014611c075781634a2e22d314611b0c578163524d530b14611ae35781635557005d146118c7578163558a729714611a6257816356eb00a11461194a57816357970e931461192157816361728f391461190257816363e36258146118c75781636b90bda91461189e5781636d70f7ae146118605781636ec7f37d146117cb5781636f116a6a1461179e578163715018a614611744578382638d0cbf6a146116d1575081638da5cb5b146116a95781638eec5d701461168a578163931c5bf8146114d95781639c24ea401461146a5781639df989771461141e578163a3e56fa8146113f5578163a7753f09146113bf578163aafc51c314611386578163b0fb162f14611362578163b16abdd414611343578163be83191914611269578163c91f0cfc1461122c578163cb2d93ce146111b4578163d333aed314610fb9578163d49f66f414610f90578163d5a6d60c14610d39578163d63843cd14610d10578163d6ce02e414610b83578163d7c7752414610951578163dd6eba7e14610919578163de3d9fb71461067e578163e449c18414610890578163e48f37da1461070a578163ec644ddd1461069d578163ed647d211461067e578163f25949f914610525578163f2fde38b1461045957838263f726272c1461038b57508163fd62120e146102fe575063ff3cd61e146102d357600080fd5b346102fa57816003193601126102fa5760115490516001600160a01b039091168152602090f35b5080fd5b8390346102fa5760603660031901126102fa57610319612774565b6044359063ffffffff8216809203610387576103336128ea565b60018060a01b03166001600160601b0360a01b600154161760015560243560035563ffffffff198254161790557f4c6a50dab5e2b4bdf345de73b06a62ca5c45dde34eecef3c38eb568564f6547c8180a180f35b8380fd5b809184346104555782600319360112610455576103a66128ea565b60015460025484549093916001600160a01b039182169116803b15610451578351622b825560e61b81529283019485526001600160a01b03909116602085015290928491849182908490829060400103925af19081156104485750610431575b506002557fad9127d67531701fd4222369e46413ad989a276f8ae432b7a2bb01a147a1be9e8180a180f35b61043a906129c0565b610445578082610406565b80fd5b513d84823e3d90fd5b8580fd5b5050fd5b90503461052157602036600319011261052157610474612774565b9061047d6128ea565b6001600160a01b039182169283156104cf575050600054826001600160601b0360a01b821617600055167f8be0079c531659141344cd1fd0a4f28419497f9722a3daafe3b4186f6b6457e0600080a380f35b906020608492519162461bcd60e51b8352820152602660248201527f4f776e61626c653a206e6577206f776e657220697320746865207a65726f206160448201526564647265737360d01b6064820152fd5b8280fd5b905034610521578160031936011261052157803567ffffffffffffffff9182821161067a573660238301121561067a57810135918211610387576024810190602483369201011161038757600080516020612f9683398151915292826060928161058d61278f565b916105966128ea565b7f4b35529e56b244d05ef40bce36fd9c95cd911003461d7436e70939aa537dd07d6105c2368484612b8f565b602081519101201460001461062257601280546001600160a01b0319166001600160a01b0385161790555b84519685889687528601528585013782820184018790526001600160a01b03166020830152601f01601f19168101030190a180f35b7fd826c10e37a7770f02c01ddf03373f8c12e6ec73eac52b5d0ff825017dc682ef61064e368484612b8f565b60208151910120036105ed57601380546001600160a01b0319166001600160a01b0385161790556105ed565b8480fd5b5050346102fa57816003193601126102fa576020906002549051908152f35b905034610521578260031936011261052157338352600f602052918190205460a09261ffff91801561070057905b600180861b0360015416936003549154928151958652602086015284015263ffffffff8116606084015260201c166080820152f35b50600254906106cb565b9050602092836003193601126104455761072261283f565b9261072b6128ea565b6001600160601b03841691600a5480840290848204148415171561087d57340361083a57805b60095481101561083657610764816127a5565b90549060031b1c808352600d885260ff848420541661078d575b5061078890612a72565b610751565b6001546001600160a01b0316803b15610387578451634cf94d8760e01b81528088018381526001600160601b038a1660208201529091859183919082908a90829060400103925af1801561082c57908491610818575b505090610788917f24761a552e7853f2c57abfbcc0b0e9698da9811db99b96034c7b7fefb067860a898651888152a29061077e565b610821906129c0565b6105215782386107e3565b85513d86823e3d90fd5b5080f35b815162461bcd60e51b8152808501879052601a60248201527f496e636f727265637420746f74616c2045544820616d6f756e740000000000006044820152606490fd5b634e487b7160e01b825260118552602482fd5b5050346102fa5760203660031901126102fa576080600080516020612f96833981519152916108bd612774565b6108c56128ea565b6001600160a01b03166108d9811515612942565b806001600160601b0360a01b6015541617601555600f8251928084528301526e14995dd85c991cd19b1e5dda19595b608a1b60608301526020820152a180f35b5050346102fa5760203660031901126102fa5760209181906001600160a01b03610941612774565b168152600f845220549051908152f35b839150346102fa57602090816003193601126105215761096f61283f565b906109786128ea565b60085485516323b872dd60e01b8152338382019081523060208201526001600160601b03851660408201526001600160a01b03928691839185169082908a90829060600103925af1908115610b79578691610b5c575b5015610af3578381610a1892600854169060015416908588600254938b5194868601528585526109fd856129ea565b8b51630200057560e51b8152968795869485938b8501612dc5565b03925af1908115610ae9578591610abc575b5015610a6557506001600160601b037f0148caca16863fb5a77543489023e89a5d3360fe9229a1e6f9d553b800aa916993945191168152a180f35b845162461bcd60e51b8152908101839052602b60248201527f4c494e4b207472616e73666572416e6443616c6c20746f20636f6f7264696e6160448201526a3a37b9103330b4b632b21760a91b6064820152608490fd5b610adc9150843d8611610ae2575b610ad48183612a06565b810190612dad565b86610a2a565b503d610aca565b86513d87823e3d90fd5b855162461bcd60e51b8152808301859052603e60248201527f4c494e4b207472616e7366657246726f6d206661696c65642e2044696420796f60448201527f7520617070726f7665207468652050726f746f636f6c4d616e616765723f00006064820152608490fd5b610b739150853d8711610ae257610ad48183612a06565b876109ce565b87513d88823e3d90fd5b905034610521578160031936011261052157610b9d612774565b91610ba661278f565b60125490916001600160a01b039182163303610cda5781610bc5612e2c565b951693848752600f60205285828820558515610c8c5760105490600160401b821015610c775750806001610bfc92016010556127f2565b81549060031b908487831b921b19161790558386526007602052852091166001600160601b0360a01b825416179055807f9cc152f4650ca2829a210a21551537f4cc4d48c2611ec06974f835e911921b908480a27faefe964a6ba1785c0718ded8476dce9589b858a69235c089b121271e1dae2d938380a380f35b604190634e487b7160e01b6000525260246000fd5b6020608492519162461bcd60e51b83528201526024808201527f506f6f6c206d757374206861766520737562736372697074696f6e206173736960448201526319db995960e21b6064820152fd5b5162461bcd60e51b8152602081850152601160248201527027b7363c902837b7b62232b83637bcb2b960791b6044820152606490fd5b5050346102fa57816003193601126102fa5760135490516001600160a01b039091168152602090f35b905034610521576020918260031936011261038757813592610d596128ea565b838552600d8152610d6f60ff8387205416612cad565b838552600e815281852054610f4f576001600a541115610efb57838552600c8152818520546009546000199190828101908111610ee857610daf816127a5565b90549060031b1c908203610eb1575b50506009548015610e9e579080600d93920190610dda826127a5565b909182549160031b1b19169055600955848652600c815260008387205552832060ff198154169055610e0d600a54612d5d565b600a558160025414610e42575b507fc0d777cb9485c91def1a14a6e7787be4cc14b102d3475a0435ef9639c9c560998280a280f35b6009541580610e9657610e81575060096000527f6e1540171b6c0c960b71a7020d9f60077f6af931a8bbf590da0223dacf75c7af545b60025538610e1a565b603290634e487b7160e01b6000525260246000fd5b505081610e78565b634e487b7160e01b875260318552602487fd5b610ed781610ebe846127a5565b90919082549060031b91821b91600019901b1916179055565b8752600c8352838720553880610dbe565b634e487b7160e01b885260118652602488fd5b905162461bcd60e51b815291820152602a60248201527f43616e6e6f742072656d6f766520746865206f6e6c79206163746976652073756044820152693139b1b934b83a34b7b760b11b6064820152608490fd5b905162461bcd60e51b815291820181905260248201527f537562736372697074696f6e207374696c6c2068617320636f6e73756d6572736044820152606490fd5b5050346102fa57816003193601126102fa5760155490516001600160a01b039091168152602090f35b905034610521578160031936011261052157803591610fd6612829565b90610fdf6128ea565b838552602092600d8452610ff860ff8388205416612cad565b60085482516323b872dd60e01b8152338382019081523060208201526001600160601b03861660408201526001600160a01b03928791839185169082908c90829060600103925af19081156111aa57889161118d575b501561114b5784816110959260085416906001541690868a8751938b8686015285855261107a856129ea565b8851630200057560e51b8152968795869485938b8501612dc5565b03925af1908115611141578791611124575b50156110e35750906001600160601b037f24761a552e7853f2c57abfbcc0b0e9698da9811db99b96034c7b7fefb067860a93925191168152a280f35b83606492519162461bcd60e51b8352820152601b60248201527f4c494e4b207472616e73666572416e6443616c6c206661696c656400000000006044820152fd5b61113b9150853d8711610ae257610ad48183612a06565b386110a7565b83513d89823e3d90fd5b5083606492519162461bcd60e51b8352820152601860248201527f4c494e4b207472616e7366657246726f6d206661696c656400000000000000006044820152fd5b6111a49150863d8811610ae257610ad48183612a06565b3861104e565b84513d8a823e3d90fd5b5050346102fa5760203660031901126102fa576080600080516020612f96833981519152916111e1612774565b6111e96128ea565b60018060a01b0316806001600160601b0360a01b6013541617601355600a825192808452830152694e4654466163746f727960b01b60608301526020820152a180f35b5050346102fa5760203660031901126102fa576020916001600160a01b0390829082611256612774565b1681526007855220541615159051908152f35b9190506020366003190112610521578261128161283f565b6112896128ea565b6001600160601b0381169361129f853414612d6a565b60015460025492906001600160a01b0316803b1561067a578551634cf94d8760e01b81529283019384526001600160601b03909116602084015290918391839182908890829060400103925af1801561133957611325575b507f0148caca16863fb5a77543489023e89a5d3360fe9229a1e6f9d553b800aa91696020848451908152a180f35b61132e906129c0565b6105215782386112f7565b83513d84823e3d90fd5b5050346102fa57816003193601126102fa57602090600a549051908152f35b8284346104455780600319360112610445575061ffff60209254915191831c168152f35b90503461052157602036600319011261052157359160095483101561044557506113b16020926127a5565b91905490519160031b1c8152f35b828434610445578160031936011261044557506113e36113f1926024359035612ab8565b9093919251938493846128c6565b0390f35b5050346102fa57816003193601126102fa5760015490516001600160a01b039091168152602090f35b833461044557602036600319011261044557611438612774565b6114406128ea565b6001600160a01b0316611454811515612942565b6001600160601b0360a01b601454161760145580f35b5050346102fa5760203660031901126102fa5760207fe2d763f65bbed04f8954b0f0a3af42f687469bdd154132ba533accf0f0291a2b916114a9612774565b6114b16128ea565b600880546001600160a01b0319166001600160a01b039290921691821790559051908152a180f35b828434610445576060366003190112610445576114f4612774565b602435906044358015158061167f575b61151090949194612980565b8080928160105460018060a01b03809316935b81811080611676575b1561159c578361153b826127f2565b90549060031b1c168352600760205284848b8520541614611565575b61156090612a72565b611523565b9587811015611583575b61157b61156091612a72565b969050611557565b9461157b61159361156092612a72565b9691505061156f565b509450879593926115ac84612a40565b90828095815b8981108061166d575b1561164f57866115ca826127f2565b919054600392831b1c168452600760205284888d86205416146115f7575b506115f290612a72565b6115b2565b87908a8a939a1015611619575b50506116126115f291612a72565b97906115e8565b6115f29297611612926116459261162f8d6127f2565b9054911b1c1661163f828a612aa4565b52612a72565b9691889150611604565b8a886113f18761165f868e612a97565b9351938493811091846128c6565b508186106115bb565b5088861061152c565b506064811115611504565b5050346102fa57816003193601126102fa576020906010549051908152f35b5050346102fa57816003193601126102fa57905490516001600160a01b039091168152602090f35b80918434610455576020366003190112610455576116ed6128ea565b6001546001600160a01b031691823b1561173f578392602484928451958693849263b2a7cac560e01b84528035908401525af1908115610448575061172f5750f35b611738906129c0565b6104455780f35b505050fd5b833461044557806003193601126104455761175d6128ea565b600080546001600160a01b0319811682556001600160a01b03167f8be0079c531659141344cd1fd0a4f28419497f9722a3daafe3b4186f6b6457e08280a380f35b905034610521576020366003190112610521578160209360ff92358152600d855220541690519015158152f35b5050346102fa57816003193601126102fa5780519081809360065490818552602080950191600682527ff652222313e28459528d920b65115c16c04f3efc82aaedc97be59f3f377c0d3f915b868282106118405785906113f18861183184890385612a06565b51928284938452830190612889565b83546001600160a01b031685528895509093019260019283019201611817565b5050346102fa5760203660031901126102fa5760209160ff9082906001600160a01b0361188b612774565b1681526016855220541690519015158152f35b5050346102fa57816003193601126102fa5760145490516001600160a01b039091168152602090f35b5050346102fa5760203660031901126102fa576020916001600160a01b03908290826118f1612774565b168152600785522054169051908152f35b5050346102fa57816003193601126102fa576020906003549051908152f35b5050346102fa57816003193601126102fa5760085490516001600160a01b039091168152602090f35b5050346102fa57816003193601126102fa5760095461196881612a40565b9161197282612a28565b9361197f82519586612a06565b82855261198b83612a28565b60208087019691601f19013688376119a285612a40565b94835b818110611a04575050806119c3855197606089526060890190612855565b928784038289015251928381520196925b8281106119ee578688038588015286806113f18a89612855565b83511515885296810196928101926001016119d4565b80611a15611a5992969495966127a5565b90549060031b1c80611a27838c612aa4565b52808552600d865260ff8886205416611a408389612aa4565b90151590528452600e85528684205461163f828a612aa4565b939291936119a5565b5050346102fa57806003193601126102fa57611a7c612774565b90602435801515809103610387577f966c160e1c4dbc7df8d69af4ace01e9297c3cf016397b7914971f2fbfa32672d92611ab46128ea565b60018060a01b031690818552601660205282852060ff1981541660ff831617905582519182526020820152a180f35b5050346102fa57816003193601126102fa5760115490516001600160a01b039091168152602090f35b90503461052157602036600319011261052157611b27612774565b6013546001600160a01b03919082163303611bd157168084526005602052918320805460ff1916600117905560065490600160401b821015610c77576001820180600655821015610e81575060066000527ff652222313e28459528d920b65115c16c04f3efc82aaedc97be59f3f377c0d3f0180546001600160a01b031916821790557feb4d1b1ad6245003e8b460f686262712b4f75c37e82b6aa0f9445acef51699258280a280f35b835162461bcd60e51b8152602081850152601060248201526f4f6e6c79204e465420666163746f727960801b6044820152606490fd5b91905034610521578060031936011261052157611c22612774565b602435611c6860018060a01b0380931691828752611c4c6020946007865286892054161515612bd6565b611c57811515612c15565b828752600f84528487205414612c61565b825163c19d93fb60e01b815282818681855afa869181611d1b575b50611ccb57835162461bcd60e51b8152602081870181815260159181019190915274125b9d985b1a59081c1bdbdb0818dbdb9d1c9858dd605a1b604082015281906060010390fd5b6008819695961015611d085791600f91611cf48460076000979614908115611cfd575b50612d11565b85525282205580f35b600591501488611cee565b634e487b7160e01b855260218652602485fd5b611d3c919250843d8611611d43575b611d348183612a06565b810190612cf9565b9038611c83565b503d611d2a565b9050346105215760203660031901126105215735916010548310156104455750611d756020926127f2565b905491519160018060a01b039160031b1c168152f35b9150346102fa57816003193601126102fa57602090611da86128ea565b600154845163288688f960e21b8152938492918391906001600160a01b03165af191821561044857508291611e04575b50806002557f6a2b70dde6ae0193f84b6a9eeb3b0ebdc3a35e99d9167b88c570158dd09cb0f78280a280f35b90506020813d8211611e2d575b81611e1e60209383612a06565b810103126102fa575138611dd8565b3d9150611e11565b91905034610521578060031936011261052157611e50612774565b6024359060018060a01b038082169182875260209160078352611e7981878a2054161515612bd6565b611e84851515612c15565b838852600f8352611e9985878a205414612c61565b855163c19d93fb60e01b815283818981885afa899181611fec575b50611efc57865162461bcd60e51b81526020818a0181815260159181019190915274125b9d985b1a59081c1bdbdb0818dbdb9d1c9858dd605a1b604082015281906060010390fd5b889692918160088a931015611fd95790611f2382848b96959414908115611fce5750612d11565b6001541691823b1561038757845163cb63179760e01b81529182018881526001600160a01b0390911660208201529091839183919082908490829060400103925af1801561133957611fba575b5060009285600f9252600e8152828720611f8a8154612d5d565b9055848752528420557f46d7f264cf963b550773f629b4cd2668e69e465b630a862303300db477104e9e8380a380f35b611fc3906129c0565b61067a578486611f70565b60069150148b611cee565b634e487b7160e01b895260218352602489fd5b612004919250853d8711611d4357611d348183612a06565b9038611eb4565b91905034610521578060031936011261052157612026612774565b9161202f61278f565b916120386128ea565b6001600160a01b039384169283156121115784169384156120ce57908592916013541691823b156103875784604485928385519687948593630d76b84160e21b85528401528a60248401525af190811561044857506120ba575b50807f055d29287d43159ed5b46366888181c01552bd982dcbd9380ade3dc5a1069f4491a380f35b6120c3906129c0565b610521578238612092565b815162461bcd60e51b8152602081850152601e60248201527f496e76616c6964204552433131353520696d706c656d656e746174696f6e00006044820152606490fd5b815162461bcd60e51b8152602081850152601d60248201527f496e76616c69642045524337323120696d706c656d656e746174696f6e0000006044820152606490fd5b5050346102fa57816003193601126102fa5760125490516001600160a01b039091168152602090f35b5050346102fa5760203660031901126102fa5760207ffd76f8ed4d910bcb9cc812e605a5c8b31f7b84ab658feb2d9bf60de6f7adf072916121bc612774565b6121c46128ea565b601180546001600160a01b0319166001600160a01b039290921691821790559051908152a180f35b9050816003193601126105215780359183612205612829565b61220d6128ea565b848252600d60205261222460ff8484205416612cad565b6001600160601b0381169361223a853414612d6a565b6001546001600160a01b031691823b15610387578451634cf94d8760e01b81529182018781526001600160601b0390911660208201529091839183919082908890829060400103925af18015611339576122be575b50507f24761a552e7853f2c57abfbcc0b0e9698da9811db99b96034c7b7fefb067860a9160209151908152a280f35b6122c7906129c0565b61038757833861228f565b90503461052157602036600319011261052157356006548110156105215760066000527ff652222313e28459528d920b65115c16c04f3efc82aaedc97be59f3f377c0d3f015490516001600160a01b03909116815260209150f35b8284346104455780600319360112610445575063ffffffff60209254169051908152f35b5050346102fa5760203660031901126102fa576080600080516020612f968339815191529161237e612774565b6123866128ea565b60018060a01b0316806001600160601b0360a01b6012541617601255600c8251928084528301526b2837b7b62232b83637bcb2b960a11b60608301526020820152a180f35b5050346102fa5760203660031901126102fa5760209160ff9082906001600160a01b036123f6612774565b1681526005855220541690519015158152f35b8383346102fa57602080600319360112610521578335916124286128ea565b821561254857828452600d825260ff818520541661250557600954838552600c83528082862055600160401b8110156124f25783610ebe82600161246f94016009556127a5565b828452600d8252808420600160ff1982541617905561248f600a54612a72565b600a5560095490600182146124e9575b60001982019182116124d657519081527fb2615094a1e63e6d2b94b964165480ab14d38fc7bb17dc29b281e00209d08d5c9190a280f35b634e487b7160e01b855260118652602485fd5b8360025561249f565b634e487b7160e01b855260418652602485fd5b5162461bcd60e51b815280850191909152601a60248201527f537562736372697074696f6e20616c72656164792061646465640000000000006044820152606490fd5b5162461bcd60e51b815280850191909152601760248201527f496e76616c696420737562736372697074696f6e2049440000000000000000006044820152606490fd5b5050346102fa57816003193601126102fa576020906125a8612e2c565b9051908152f35b905034610521576020366003190112610521576020928291358152600e845220549051908152f35b919050346105215780600319360112610521576125f2612774565b906024359260018060a01b039085828516948582526020936007855261261e8187852054161515612bd6565b868352600f855261263e8887852054612638811515612c15565b14612c61565b878352600d855261265460ff8785205416612cad565b878352600e8552606486842054101561270a575b60015416803b15610521578551632fb1302360e21b81529384018881526001600160a01b039092166020830152839182908490829060400103925af18015612700576126ec575b50600e908486525283206126c38154612a72565b90557f8b4d66174491b3a6145331b676769c46f933c290811400f713f6dd7e0f7ada9f8380a380f35b946126f9600e92966129c0565b94906126af565b83513d88823e3d90fd5b96509050612716612e2c565b95861561273157908791868352600f85528786842055612668565b845162461bcd60e51b8152808401859052601e60248201527f4e6f20617661696c61626c652056524620737562736372697074696f6e7300006044820152606490fd5b600435906001600160a01b038216820361278a57565b600080fd5b602435906001600160a01b038216820361278a57565b6009548110156127dc5760096000527f6e1540171b6c0c960b71a7020d9f60077f6af931a8bbf590da0223dacf75c7af0190600090565b634e487b7160e01b600052603260045260246000fd5b6010548110156127dc5760106000527f1b6847dc741a1b0cd08d278845f9d819d87b734759afb55fe2de5cb82a9ae6720190600090565b602435906001600160601b038216820361278a57565b600435906001600160601b038216820361278a57565b90815180825260208080930193019160005b828110612875575050505090565b835185529381019392810192600101612867565b90815180825260208080930193019160005b8281106128a9575050505090565b83516001600160a01b03168552938101939281019260010161289b565b9193926128dd604092606085526060850190612889565b9460208401521515910152565b6000546001600160a01b031633036128fe57565b606460405162461bcd60e51b815260206004820152602060248201527f4f776e61626c653a2063616c6c6572206973206e6f7420746865206f776e65726044820152fd5b1561294957565b60405162461bcd60e51b815260206004820152600f60248201526e496e76616c6964206164647265737360881b6044820152606490fd5b1561298757565b60405162461bcd60e51b8152602060048201526011602482015270496e76616c696420706167652073697a6560781b6044820152606490fd5b67ffffffffffffffff81116129d457604052565b634e487b7160e01b600052604160045260246000fd5b6040810190811067ffffffffffffffff8211176129d457604052565b90601f8019910116810190811067ffffffffffffffff8211176129d457604052565b67ffffffffffffffff81116129d45760051b60200190565b90612a4a82612a28565b612a576040519182612a06565b8281528092612a68601f1991612a28565b0190602036910137565b6000198114612a815760010190565b634e487b7160e01b600052601160045260246000fd5b91908201809211612a8157565b80518210156127dc5760209160051b010190565b9181151580612b84575b612acb90612980565b6010549182841015612b545783830390838211612a815780821015612b4c5750905b612af682612a40565b9160005b818110612b155750612b0e91929394612a97565b9192821090565b80612b2b612b26612b479389612a97565b6127f2565b905460039190911b1c6001600160a01b031661163f8287612aa4565b612afa565b905090612aed565b5090506040516020810181811067ffffffffffffffff8211176129d4576040526000815260003681379190600090565b506064821115612ac2565b92919267ffffffffffffffff82116129d45760405191612bb9601f8201601f191660200184612a06565b82948184528183011161278a578281602093846000960137010152565b15612bdd57565b60405162461bcd60e51b815260206004820152601060248201526f139bdd0818481d985b1a59081c1bdbdb60821b6044820152606490fd5b15612c1c57565b60405162461bcd60e51b815260206004820152601860248201527f4e6f20737562736372697074696f6e2061737369676e656400000000000000006044820152606490fd5b15612c6857565b60405162461bcd60e51b815260206004820152601d60248201527f496e76616c696420737562736372697074696f6e20666f7220706f6f6c0000006044820152606490fd5b15612cb457565b60405162461bcd60e51b815260206004820152601760248201527f537562736372697074696f6e206e6f74206163746976650000000000000000006044820152606490fd5b9081602091031261278a5751600881101561278a5790565b15612d1857565b60405162461bcd60e51b815260206004820152601e60248201527f506f6f6c206d75737420626520696e207465726d696e616c20737461746500006044820152606490fd5b8015612a81576000190190565b15612d7157565b60405162461bcd60e51b8152602060048201526014602482015273125b98dbdc9c9958dd0811551208185b5bdd5b9d60621b6044820152606490fd5b9081602091031261278a5751801515810361278a5790565b9193929060018060a01b031682526001600160601b0360209416848301526060604083015280519081606084015260005b828110612e1857505060809293506000838284010152601f8019910116010190565b818101860151848201608001528501612df6565b600090600a5415612f5057600b9081549083905b60095480831015612f45578454612e56816127a5565b90549060031b1c8088526020600d8152604060ff818b2054169182612f32575b5050612f27575060018101809111612f13578115612eff578491612e9e910693848755612a72565b921480612ef6575b15612e405750505050505b60405162461bcd60e51b815260206004820152601d60248201527f416c6c20737562736372697074696f6e732061742063617061636974790000006044820152606490fd5b50811515612ea6565b634e487b7160e01b87526012600452602487fd5b634e487b7160e01b87526011600452602487fd5b955050509350505090565b60649250600e9052892054103880612e76565b505050505050612eb1565b60405162461bcd60e51b815260206004820152601760248201527f4e6f2061637469766520737562736372697074696f6e730000000000000000006044820152606490fdfe1592f515c298c578903964a58733180fe97bdf05860fc70a7e21b61e8cc2d1b1a2646970667358221220c30d311138a9200d03e67a943ad5ce8145b19fa039a51ab1e4f88b6940ee965064736f6c63430008130033",
  "linkReferences": {},
  "deployedLinkReferences": {}
}