{
  "_format": "hh-sol-artifact-1",
  "contractName": "PurchaseAuthorizer",
  "sourceName": "contracts/PurchaseAuthorizer.sol",
  "abi": [
    {
      "inputs": [
        {
          "internalType": "address",
          "name": "_signer",
          "type": "address"
        }
      ],
      "stateMutability": "nonpayable",
      "type": "constructor"
    },
    {
      "inputs": [],
      "name": "InvalidShortString",
      "type": "error"
    },
    {
      "inputs": [
        {
          "internalType": "string",
          "name": "str",
          "type": "string"
        }
      ],
      "name": "StringTooLong",
      "type": "error"
    },
    {
      "anonymous": false,
      "inputs": [],
      "name": "EIP712DomainChanged",
      "type": "event"
    },
    {
      "anonymous": false,
      "inputs": [
        {
          "indexed": true,
          "internalType": "address",
          "name": "previousOwner",
          "type": "address"
        },
        {
          "indexed": true,
          "internalType": "address",
          "name": "newOwner",
          "type": "address"
        }
      ],
      "name": "OwnershipTransferred",
      "type": "event"
    },
    {
      "anonymous": false,
      "inputs": [
        {
          "indexed": true,
          "internalType": "address",
          "name": "buyer",
          "type": "address"
        },
        {
          "indexed": true,
          "internalType": "address",
          "name": "pool",
          "type": "address"
        },
        {
          "indexed": false,
          "internalType": "uint256",
          "name": "deadline",
          "type": "uint256"
        }
      ],
      "name": "PurchaseAuthorized",
      "type": "event"
    },
    {
      "anonymous": false,
      "inputs": [
        {
          "indexed": true,
          "internalType": "address",
          "name": "newSigner",
          "type": "address"
        }
      ],
      "name": "SignerUpdated",
      "type": "event"
    },
    {
      "inputs": [],
      "name": "PURCHASE_TYPEHASH",
      "outputs": [
        {
          "internalType": "bytes32",
          "name": "",
          "type": "bytes32"
        }
      ],
      "stateMutability": "view",
      "type": "function"
    },
    {
      "inputs": [],
      "name": "eip712Domain",
      "outputs": [
        {
          "internalType": "bytes1",
          "name": "fields",
          "type": "bytes1"
        },
        {
          "internalType": "string",
          "name": "name",
          "type": "string"
        },
        {
          "internalType": "string",
          "name": "version",
          "type": "string"
        },
        {
          "internalType": "uint256",
          "name": "chainId",
          "type": "uint256"
        },
        {
          "internalType": "address",
          "name": "verifyingContract",
          "type": "address"
        },
        {
          "internalType": "bytes32",
          "name": "salt",
          "type": "bytes32"
        },
        {
          "internalType": "uint256[]",
          "name": "extensions",
          "type": "uint256[]"
        }
      ],
      "stateMutability": "view",
      "type": "function"
    },
    {
      "inputs": [],
      "name": "owner",
      "outputs": [
        {
          "internalType": "address",
          "name": "",
          "type": "address"
        }
      ],
      "stateMutability": "view",
      "type": "function"
    },
    {
      "inputs": [],
      "name": "renounceOwnership",
      "outputs": [],
      "stateMutability": "nonpayable",
      "type": "function"
    },
    {
      "inputs": [
        {
          "internalType": "address",
          "name": "_newSigner",
          "type": "address"
        }
      ],
      "name": "setSigner",
      "outputs": [],
      "stateMutability": "nonpayable",
      "type": "function"
    },
    {
      "inputs": [],
      "name": "signer",
      "outputs": [
        {
          "internalType": "address",
          "name": "",
          "type": "address"
        }
      ],
      "stateMutability": "view",
      "type": "function"
    },
    {
      "inputs": [
        {
          "internalType": "address",
          "name": "newOwner",
          "type": "address"
        }
      ],
      "name": "transferOwnership",
      "outputs": [],
      "stateMutability": "nonpayable",
      "type": "function"
    },
    {
      "inputs": [
        {
          "internalType": "address",
          "name": "_buyer",
          "type": "address"
        },
        {
          "internalType": "address",
          "name": "_pool",
          "type": "address"
        },
        {
          "internalType": "uint256",
          "name": "_deadline",
          "type": "uint256"
        },
        {
          "internalType": "bytes",
          "name": "_signature",
          "type": "bytes"
        }
      ],
      "name": "verifyPurchase",
      "outputs": [],
      "stateMutability": "nonpayable",
      "type": "function"
    }
  ],
  "bytecode": "0x6101603462000243576001600160401b0390601f6200127638819003918201601f1916830192919084841183851017620002485781602092849260409687528339810103126200024357516001600160a01b03918282169182900362000243578051916200006d836200025e565b601c835260208301937f44726f707220507572636861736520417574686f72697a6174696f6e000000008552825195620000a7876200025e565b600187526020870196603160f81b8852600097885460018060a01b03199433868316178b553391167f8be0079c531659141344cd1fd0a4f28419497f9722a3daafe3b4186f6b6457e08b80a3620000fe876200027a565b97610120988952620001108362000451565b97610140988952519020918260e0525190209061010098828a524660a05286519260208401927f8b73c3c69bb8fe3d512ecc4cf759cc79239f7b179b0ffacaa9a75d522b39400f84528885015260608401524660808401523060a084015260a0835260c0830193838510908511176200022f5750828652815190206080523060c0528315620001eb57505060035416176003555191610c6c93846200060a853960805184610b44015260a05184610c10015260c05184610b0e015260e05184610b9301525183610bb9015251826103ba015251816103e40152f35b62461bcd60e51b8252602060c4820152601660e48201527f496e76616c6964207369676e657220616464726573730000000000000000000061010490910152606490fd5b634e487b7160e01b81526041600452602490fd5b600080fd5b634e487b7160e01b600052604160045260246000fd5b604081019081106001600160401b038211176200024857604052565b805160209081811015620003175750601f825111620002b65780825192015190808310620002a757501790565b82600019910360031b1b161790565b90604051809263305a27a960e01b82528060048301528251908160248401526000935b828510620002fd575050604492506000838284010152601f80199101168101030190fd5b8481018201518686016044015293810193859350620002d9565b9192916001600160401b038111620002485760019182548381811c9116801562000446575b828210146200043057601f8111620003f7575b5080601f83116001146200038f57508192939460009262000383575b5050600019600383901b1c191690821b17905560ff90565b0151905038806200036b565b90601f198316958460005282600020926000905b888210620003df5750508385969710620003c5575b505050811b01905560ff90565b015160001960f88460031b161c19169055388080620003b8565b808785968294968601518155019501930190620003a3565b8360005283601f83600020920160051c820191601f850160051c015b828110620004235750506200034f565b6000815501849062000413565b634e487b7160e01b600052602260045260246000fd5b90607f16906200033c565b805160209081811015620004df5750601f8251116200047e5780825192015190808310620002a757501790565b90604051809263305a27a960e01b82528060048301528251908160248401526000935b828510620004c5575050604492506000838284010152601f80199101168101030190fd5b8481018201518686016044015293810193859350620004a1565b906001600160401b0382116200024857600254926001938481811c91168015620005fe575b838210146200043057601f8111620005c4575b5081601f84116001146200055857509282939183926000946200054c575b50501b916000199060031b1c19161760025560ff90565b01519250388062000535565b919083601f198116600260005284600020946000905b88838310620005a957505050106200058f575b505050811b0160025560ff90565b015160001960f88460031b161c1916905538808062000581565b8587015188559096019594850194879350908101906200056e565b600260005284601f84600020920160051c820191601f860160051c015b828110620005f157505062000517565b60008155018590620005e1565b90607f16906200050456fe6080604081815260048036101561001557600080fd5b600092833560e01c908163238ac93314610601575080636c19e78314610558578063715018a6146104fb5780637eb6f6e1146104c057806384b0196e146103a35780638da5cb5b14610377578063d3b1809b146101405763f2fde38b1461007b57600080fd5b3461013c57602036600319011261013c57610094610626565b9061009d610681565b6001600160a01b039182169283156100ea57505082546001600160a01b0319811683178455167f8be0079c531659141344cd1fd0a4f28419497f9722a3daafe3b4186f6b6457e08380a380f35b906020608492519162461bcd60e51b8352820152602660248201527f4f776e61626c653a206e6577206f776e657220697320746865207a65726f206160448201526564647265737360d01b6064820152fd5b8280fd5b503461013c57608036600319011261013c5761015a610626565b602480359360018060a01b039384861680960361037357604435926064359567ffffffffffffffff9687811161036f573660238201121561036f578084013588811161036b573684828401011161036b57893303610332578642116102f857855197602098848a8201927fd48c3bae6dbe280e9cba0efd243a3484d564ec16b7820fb180cd0588c5324dbf8452169a8b898301528c60608301528960808301526080825260a0820190828210908211176102e6578a60428f929461026d96946102759998968d5251902061022c610b0b565b908c519161190160f01b835260028301526022820152209280898c519661025c85601f19601f860116018961070b565b828852018387013784010152610a44565b92909261092a565b80600354169116036102ae575050519081527f61c22660a22039fc70048b169909b855d71ead13289dcc420853f885b30b9afd9190a380f35b60159085606494519362461bcd60e51b85528401528201527424b73b30b634b21030baba3437b934bd30ba34b7b760591b6044820152fd5b634e487b7160e01b8e5260418852868efd5b855162461bcd60e51b815260208187015260158186015274105d5d1a1bdc9a5e985d1a5bdb88195e1c1a5c9959605a1b6044820152606490fd5b855162461bcd60e51b8152602081870152601481860152734f6e6c7920706f6f6c2063616e2076657269667960601b6044820152606490fd5b8a80fd5b8980fd5b8680fd5b50503461039f578160031936011261039f57905490516001600160a01b039091168152602090f35b5080fd5b50903461013c578260031936011261013c576103de7f000000000000000000000000000000000000000000000000000000000000000061072d565b926104087f0000000000000000000000000000000000000000000000000000000000000000610854565b908251926020928385019585871067ffffffffffffffff8811176104ad57509280610463838896610456998b9996528686528151998a99600f60f81b8b5260e0868c015260e08b0190610641565b91898303908a0152610641565b924660608801523060808801528460a088015286840360c088015251928381520193925b82811061049657505050500390f35b835185528695509381019392810192600101610487565b634e487b7160e01b845260419052602483fd5b50503461039f578160031936011261039f57602090517fd48c3bae6dbe280e9cba0efd243a3484d564ec16b7820fb180cd0588c5324dbf8152f35b8334610555578060031936011261055557610514610681565b80546001600160a01b03198116825581906001600160a01b03167f8be0079c531659141344cd1fd0a4f28419497f9722a3daafe3b4186f6b6457e08280a380f35b80fd5b503461013c57602036600319011261013c57610572610626565b61057a610681565b6001600160a01b03169182156105c5575050600380546001600160a01b031916821790557f5553331329228fbd4123164423717a4a7539f6dfa1c3279a923b98fd681a6c738280a280f35b906020606492519162461bcd60e51b83528201526016602482015275496e76616c6964207369676e6572206164647265737360501b6044820152fd5b84903461039f578160031936011261039f576003546001600160a01b03168152602090f35b600435906001600160a01b038216820361063c57565b600080fd5b919082519283825260005b84811061066d575050826000602080949584010152601f8019910116010190565b60208183018101518483018201520161064c565b6000546001600160a01b0316330361069557565b606460405162461bcd60e51b815260206004820152602060248201527f4f776e61626c653a2063616c6c6572206973206e6f7420746865206f776e65726044820152fd5b6040810190811067ffffffffffffffff8211176106f557604052565b634e487b7160e01b600052604160045260246000fd5b90601f8019910116810190811067ffffffffffffffff8211176106f557604052565b60ff811461076b5760ff811690601f8211610759576040519161074f836106d9565b8252602082015290565b604051632cd44ac360e21b8152600490fd5b50604051600060019081549182811c9080841693841561084a575b6020948584108114610836578387528694939291811561081657506001146107ba575b50506107b79250038261070b565b90565b60008181527fb10e2d527612073b26eecdfd717e6a320cf44b4afac2b0732d9fcbe2b7fa0cf695935091905b8183106107fe5750506107b7935082010138806107a9565b855487840185015294850194869450918301916107e6565b9150506107b794925060ff191682840152151560051b82010138806107a9565b634e487b7160e01b85526022600452602485fd5b91607f1691610786565b60ff81146108765760ff811690601f8211610759576040519161074f836106d9565b50604051600060025490600182811c90808416938415610920575b6020948584108114610836578387528694939291811561081657506001146108c15750506107b79250038261070b565b9093915060026000527f405787fa12a823e0f2b7631cc41b3ba8828b3321ca811111fa75cd3aa3bb5ace936000915b8183106109085750506107b7935082010138806107a9565b855487840185015294850194869450918301916108f0565b91607f1691610891565b6005811015610a2e578061093b5750565b600181036109885760405162461bcd60e51b815260206004820152601860248201527f45434453413a20696e76616c6964207369676e617475726500000000000000006044820152606490fd5b600281036109d55760405162461bcd60e51b815260206004820152601f60248201527f45434453413a20696e76616c6964207369676e6174757265206c656e677468006044820152606490fd5b6003146109de57565b60405162461bcd60e51b815260206004820152602260248201527f45434453413a20696e76616c6964207369676e6174757265202773272076616c604482015261756560f01b6064820152608490fd5b634e487b7160e01b600052602160045260246000fd5b906041815114600014610a7257610a6e916020820151906060604084015193015160001a90610a7c565b9091565b5050600090600290565b9291907f7fffffffffffffffffffffffffffffff5d576e7357a4501ddfe92f46681b20a08311610aff5791608094939160ff602094604051948552168484015260408301526060820152600093849182805260015afa15610af25781516001600160a01b03811615610aec579190565b50600190565b50604051903d90823e3d90fd5b50505050600090600390565b307f00000000000000000000000000000000000000000000000000000000000000006001600160a01b03161480610c0d575b15610b66577f000000000000000000000000000000000000000000000000000000000000000090565b60405160208101907f8b73c3c69bb8fe3d512ecc4cf759cc79239f7b179b0ffacaa9a75d522b39400f82527f000000000000000000000000000000000000000000000000000000000000000060408201527f000000000000000000000000000000000000000000000000000000000000000060608201524660808201523060a082015260a0815260c0810181811067ffffffffffffffff8211176106f55760405251902090565b507f00000000000000000000000000000000000000000000000000000000000000004614610b3d56fea26469706673582212202565c8755a376c742a8bbe2020ac2226f5772150e9383aaf6c3fa1ffead1dcbf64736f6c63430008130033",
  "linkReferences": {},
  "deployedLinkReferences": {}
}