{
  "_format": "hh-sol-artifact-1",
  "contractName": "RevenueManager",
  "sourceName": "contracts/RevenueManager.sol",
  "abi": [
    {
      "inputs": [
        {
          "internalType": "address",
          "name": "initialOwner",
          "type": "address"
        }
      ],
      "stateMutability": "nonpayable",
      "type": "constructor"
    },
    {
      "anonymous": false,
      "inputs": [
        {
          "indexed": true,
          "internalType": "address",
          "name": "from",
          "type": "address"
        },
        {
          "indexed": false,
          "internalType": "uint256",
          "name": "amount",
          "type": "uint256"
        }
      ],
      "name": "AdminDeposit",
      "type": "event"
    },
    {
      "anonymous": false,
      "inputs": [
        {
          "indexed": true,
          "internalType": "address",
          "name": "creator",
          "type": "address"
        },
        {
          "indexed": false,
          "internalType": "uint256",
          "name": "amount",
          "type": "uint256"
        }
      ],
      "name": "AdminWithdrawn",
      "type": "event"
    },
    {
      "anonymous": false,
      "inputs": [
        {
          "indexed": true,
          "internalType": "address",
          "name": "recipient",
          "type": "address"
        }
      ],
      "name": "FeeRecipientSet",
      "type": "event"
    },
    {
      "anonymous": false,
      "inputs": [],
      "name": "FeeTransferActivated",
      "type": "event"
    },
    {
      "anonymous": false,
      "inputs": [
        {
          "indexed": true,
          "internalType": "address",
          "name": "recipient",
          "type": "address"
        },
        {
          "indexed": false,
          "internalType": "uint256",
          "name": "feeAmount",
          "type": "uint256"
        }
      ],
      "name": "FeeTransferred",
      "type": "event"
    },
    {
      "anonymous": false,
      "inputs": [
        {
          "indexed": true,
          "internalType": "address",
          "name": "previousOwner",
          "type": "address"
        },
        {
          "indexed": true,
          "internalType": "address",
          "name": "newOwner",
          "type": "address"
        }
      ],
      "name": "OwnershipTransferred",
      "type": "event"
    },
    {
      "inputs": [],
      "name": "BASIS_POINTS_TOTAL",
      "outputs": [
        {
          "internalType": "uint256",
          "name": "",
          "type": "uint256"
        }
      ],
      "stateMutability": "view",
      "type": "function"
    },
    {
      "inputs": [],
      "name": "FEE_BASIS_POINTS",
      "outputs": [
        {
          "internalType": "uint256",
          "name": "",
          "type": "uint256"
        }
      ],
      "stateMutability": "view",
      "type": "function"
    },
    {
      "inputs": [],
      "name": "activateFeeTransfer",
      "outputs": [],
      "stateMutability": "nonpayable",
      "type": "function"
    },
    {
      "inputs": [],
      "name": "adminRevenue",
      "outputs": [
        {
          "internalType": "uint256",
          "name": "",
          "type": "uint256"
        }
      ],
      "stateMutability": "view",
      "type": "function"
    },
    {
      "inputs": [
        {
          "internalType": "uint256",
          "name": "amount",
          "type": "uint256"
        }
      ],
      "name": "depositAdmin",
      "outputs": [],
      "stateMutability": "payable",
      "type": "function"
    },
    {
      "inputs": [],
      "name": "feeRecipient",
      "outputs": [
        {
          "internalType": "address",
          "name": "",
          "type": "address"
        }
      ],
      "stateMutability": "view",
      "type": "function"
    },
    {
      "inputs": [],
      "name": "feeTransferActivated",
      "outputs": [
        {
          "internalType": "bool",
          "name": "",
          "type": "bool"
        }
      ],
      "stateMutability": "view",
      "type": "function"
    },
    {
      "inputs": [],
      "name": "owner",
      "outputs": [
        {
          "internalType": "address",
          "name": "",
          "type": "address"
        }
      ],
      "stateMutability": "view",
      "type": "function"
    },
    {
      "inputs": [],
      "name": "renounceOwnership",
      "outputs": [],
      "stateMutability": "nonpayable",
      "type": "function"
    },
    {
      "inputs": [
        {
          "internalType": "address",
          "name": "_feeRecipient",
          "type": "address"
        }
      ],
      "name": "setFeeRecipient",
      "outputs": [],
      "stateMutability": "nonpayable",
      "type": "function"
    },
    {
      "inputs": [
        {
          "internalType": "address",
          "name": "newOwner",
          "type": "address"
        }
      ],
      "name": "transferOwnership",
      "outputs": [],
      "stateMutability": "nonpayable",
      "type": "function"
    },
    {
      "inputs": [],
      "name": "withdraw",
      "outputs": [],
      "stateMutability": "nonpayable",
      "type": "function"
    }
  ],
  "bytecode": "0x6080346100bf57601f610a1638819003918201601f19168301916001600160401b038311848410176100c4578084926020946040528339810103126100bf57516001600160a01b0381168082036100bf57610059336100da565b600180551561007a5761006b906100da565b6040516108f490816101228239f35b60405162461bcd60e51b815260206004820152601560248201527f496e76616c6964206f776e6572206164647265737300000000000000000000006044820152606490fd5b600080fd5b634e487b7160e01b600052604160045260246000fd5b600080546001600160a01b039283166001600160a01b03198216811783559216907f8be0079c531659141344cd1fd0a4f28419497f9722a3daafe3b4186f6b6457e09080a356fe608060408181526004908136101561001657600080fd5b600092833560e01c9081633ccfd60b1461055c5750806346904840146105335780634777441e14610516578063715018a6146104b95780638da5cb5b14610491578063a525ad3c14610474578063ac3d0db41461044d578063b53a077f1461042e578063b7b2e7671461033f578063bcb7838a146102a1578063e74b981b146101745763f2fde38b146100a857600080fd5b34610170576020366003190112610170576001600160a01b0382358181169391929084900361016c576100d96107b9565b831561011a57505082546001600160a01b0319811683178455167f8be0079c531659141344cd1fd0a4f28419497f9722a3daafe3b4186f6b6457e08380a380f35b906020608492519162461bcd60e51b8352820152602660248201527f4f776e61626c653a206e6577206f776e657220697320746865207a65726f206160448201526564647265737360d01b6064820152fd5b8480fd5b8280fd5b5091903461029d57602036600319011261029d5780356001600160a01b0381169190829003610170576101a56107b9565b811561025a576003549060ff8260a01c166101f157506001600160a01b03191681176003557fbf9a9534339a9d6b81696e05dcfb614b7dc518a31d48be3cfb757988381fb3238280a280f35b608490602086519162461bcd60e51b8352820152603860248201527f466565207472616e7366657220616c726561647920616374697661746564202d60448201527f2063616e6e6f74206368616e676520726563697069656e7400000000000000006064820152fd5b606490602085519162461bcd60e51b8352820152601d60248201527f496e76616c69642066656520726563697069656e7420616464726573730000006044820152fd5b5080fd5b5060203660031901126101705781359182340361030a57600254908382018092116102f75750600255519081527fce8f50bef0c9b984189b343b8bf9264667774780224a0b53de9005bb2d384a9f60203392a280f35b634e487b7160e01b855260119052602484fd5b6020606492519162461bcd60e51b8352820152601060248201526f125b98dbdc9c9958dd08185b5bdd5b9d60821b6044820152fd5b5090346101705782600319360112610170576103596107b9565b6003549160ff8360a01c166103eb576001600160a01b038316156103b057505060ff60a01b1916600160a01b176003557f202c98248874b588dde8b2931943faf6e675cc02ed3bf5b950de8c78bccf976a8180a180f35b906020606492519162461bcd60e51b83528201526015602482015274119959481c9958da5c1a595b9d081b9bdd081cd95d605a1b6044820152fd5b906020606492519162461bcd60e51b8352820152601e60248201527f466565207472616e7366657220616c72656164792061637469766174656400006044820152fd5b83823461029d578160031936011261029d576020906002549051908152f35b83823461029d578160031936011261029d5760209060ff60035460a01c1690519015158152f35b83823461029d578160031936011261029d57602090516107d08152f35b83823461029d578160031936011261029d57905490516001600160a01b039091168152602090f35b83346105135780600319360112610513576104d26107b9565b80546001600160a01b03198116825581906001600160a01b03167f8be0079c531659141344cd1fd0a4f28419497f9722a3daafe3b4186f6b6457e08280a380f35b80fd5b83823461029d578160031936011261029d57602090516127108152f35b83823461029d578160031936011261029d5760035490516001600160a01b039091168152602090f35b9050346107b557836003193601126107b557600260015414610774575060026001556105866107b9565b6002548015610731578360025560ff60035460a01c166000146106e4576107d081026107cf19828204016106d157612710900490818103938185116106be578261062f575b50036105dc575b50505b6001805580f35b6105fe838080808660018060a01b038254165af16105f8610811565b50610872565b519081527fca1cf43de312865665f595e88f569f9d5246690c07df26e86aba01147e6d131460203392a238806105d2565b60018060a01b0390868080808786600354165af161064b610811565b50156106855750600354167f34e8a84e537ed93d93ddf39a78816dcbc74df8397c635838b8cc973d4fa943f860208551858152a2386105cb565b606490602086519162461bcd60e51b83528201526013602482015272119959481d1c985b9cd9995c8819985a5b1959606a1b6044820152fd5b634e487b7160e01b865260119052602485fd5b634e487b7160e01b855260118452602485fd5b9150610702838080808660018060a01b038254165af16105f8610811565b519081527fca1cf43de312865665f595e88f569f9d5246690c07df26e86aba01147e6d131460203392a26105d5565b815162461bcd60e51b8152602081850152601a60248201527f4e6f2061646d696e20726576656e756520617661696c61626c650000000000006044820152606490fd5b62461bcd60e51b8152602083820152601f60248201527f5265656e7472616e637947756172643a207265656e7472616e742063616c6c006044820152606490fd5b8380fd5b6000546001600160a01b031633036107cd57565b606460405162461bcd60e51b815260206004820152602060248201527f4f776e61626c653a2063616c6c6572206973206e6f7420746865206f776e65726044820152fd5b3d1561086d5767ffffffffffffffff903d8281116108575760405192601f8201601f19908116603f01168401908111848210176108575760405282523d6000602084013e565b634e487b7160e01b600052604160045260246000fd5b606090565b1561087957565b60405162461bcd60e51b815260206004820152601760248201527f41646d696e207769746864726177616c206661696c65640000000000000000006044820152606490fdfea26469706673582212209d141a3e966f235832c8908506c4281a950b582a31ec1b05bc9a85b9de88079164736f6c63430008130033",
  "linkReferences": {},
  "deployedLinkReferences": {}
}