{
  "_format": "hh-sol-artifact-1",
  "contractName": "RevenueManager",
  "sourceName": "contracts/RevenueManager.sol",
  "abi": [
    {
      "inputs": [
        {
          "internalType": "address",
          "name": "initialOwner",
          "type": "address"
        }
      ],
      "stateMutability": "nonpayable",
      "type": "constructor"
    },
    {
      "anonymous": false,
      "inputs": [
        {
          "indexed": true,
          "internalType": "address",
          "name": "from",
          "type": "address"
        },
        {
          "indexed": false,
          "internalType": "uint256",
          "name": "amount",
          "type": "uint256"
        }
      ],
      "name": "AdminDepositSuccessful",
      "type": "event"
    },
    {
      "anonymous": false,
      "inputs": [
        {
          "indexed": true,
          "internalType": "address",
          "name": "previousOwner",
          "type": "address"
        },
        {
          "indexed": true,
          "internalType": "address",
          "name": "newOwner",
          "type": "address"
        }
      ],
      "name": "OwnershipTransferred",
      "type": "event"
    },
    {
      "anonymous": false,
      "inputs": [
        {
          "indexed": true,
          "internalType": "address",
          "name": "creator",
          "type": "address"
        },
        {
          "indexed": false,
          "internalType": "uint256",
          "name": "amount",
          "type": "uint256"
        }
      ],
      "name": "RevenueWithdrawn",
      "type": "event"
    },
    {
      "inputs": [],
      "name": "adminRevenue",
      "outputs": [
        {
          "internalType": "uint256",
          "name": "",
          "type": "uint256"
        }
      ],
      "stateMutability": "view",
      "type": "function"
    },
    {
      "inputs": [
        {
          "internalType": "uint256",
          "name": "amount",
          "type": "uint256"
        }
      ],
      "name": "depositAdmin",
      "outputs": [],
      "stateMutability": "payable",
      "type": "function"
    },
    {
      "inputs": [],
      "name": "owner",
      "outputs": [
        {
          "internalType": "address",
          "name": "",
          "type": "address"
        }
      ],
      "stateMutability": "view",
      "type": "function"
    },
    {
      "inputs": [],
      "name": "renounceOwnership",
      "outputs": [],
      "stateMutability": "nonpayable",
      "type": "function"
    },
    {
      "inputs": [
        {
          "internalType": "address",
          "name": "newOwner",
          "type": "address"
        }
      ],
      "name": "transferOwnership",
      "outputs": [],
      "stateMutability": "nonpayable",
      "type": "function"
    },
    {
      "inputs": [],
      "name": "withdraw",
      "outputs": [],
      "stateMutability": "nonpayable",
      "type": "function"
    }
  ],
  "bytecode": "0x6080346100bf57601f6105dd38819003918201601f19168301916001600160401b038311848410176100c4578084926020946040528339810103126100bf57516001600160a01b0381168082036100bf57610059336100da565b600180551561007a5761006b906100da565b6040516104bb90816101228239f35b60405162461bcd60e51b815260206004820152601560248201527f496e76616c6964206f776e6572206164647265737300000000000000000000006044820152606490fd5b600080fd5b634e487b7160e01b600052604160045260246000fd5b600080546001600160a01b039283166001600160a01b03198216811783559216907f8be0079c531659141344cd1fd0a4f28419497f9722a3daafe3b4186f6b6457e09080a356fe608060408181526004908136101561001657600080fd5b600092833560e01c9081633ccfd60b1461027857508063715018a61461021b5780638da5cb5b146101f3578063b53a077f146101d0578063bcb7838a146101325763f2fde38b1461006657600080fd5b3461012e57602036600319011261012e576001600160a01b0382358181169391929084900361012a5761009761042d565b83156100d857505082546001600160a01b0319811683178455167f8be0079c531659141344cd1fd0a4f28419497f9722a3daafe3b4186f6b6457e08380a380f35b906020608492519162461bcd60e51b8352820152602660248201527f4f776e61626c653a206e6577206f776e657220697320746865207a65726f206160448201526564647265737360d01b6064820152fd5b8480fd5b8280fd5b50602036600319011261012e5781359182340361019b57600254908382018092116101885750600255519081527f245fe1eb32e123af60bb060411afebbc8f8ca19942357808a10775a1496c667e60203392a280f35b634e487b7160e01b855260119052602484fd5b6020606492519162461bcd60e51b8352820152601060248201526f125b98dbdc9c9958dd08185b5bdd5b9d60821b6044820152fd5b8382346101ef57816003193601126101ef576020906002549051908152f35b5080fd5b8382346101ef57816003193601126101ef57905490516001600160a01b039091168152602090f35b833461027557806003193601126102755761023461042d565b80546001600160a01b03198116825581906001600160a01b03167f8be0079c531659141344cd1fd0a4f28419497f9722a3daafe3b4186f6b6457e08280a380f35b80fd5b9050346104295783600319360112610429576002600154146103e8575060026001556102a261042d565b6002549182156103a65783600255838080808660018060a01b038254165af13d156103a15767ffffffffffffffff3d81811161038e57845191601f8201601f19908116603f011683019081118382101761037b57855281528560203d92013e5b156103395750519081527f86a5cc8fe9af9ae68fb50f62885307a7755a30cbd290131644377f0bd94a718160203392a26001805580f35b6020606492519162461bcd60e51b8352820152601760248201527f41646d696e207769746864726177616c206661696c65640000000000000000006044820152fd5b634e487b7160e01b885260418552602488fd5b634e487b7160e01b875260418452602487fd5b610302565b6020606492519162461bcd60e51b8352820152601a60248201527f4e6f2061646d696e20726576656e756520617661696c61626c650000000000006044820152fd5b62461bcd60e51b8152602083820152601f60248201527f5265656e7472616e637947756172643a207265656e7472616e742063616c6c006044820152606490fd5b8380fd5b6000546001600160a01b0316330361044157565b606460405162461bcd60e51b815260206004820152602060248201527f4f776e61626c653a2063616c6c6572206973206e6f7420746865206f776e65726044820152fdfea2646970667358221220416263ce0b0a7e889d1ddf46cbae8985f88b2ff64c48a3505adfea729fb22bd064736f6c63430008130033",
  "linkReferences": {},
  "deployedLinkReferences": {}
}