{
  "_format": "hh-sol-artifact-1",
  "contractName": "RewardsFlywheel",
  "sourceName": "contracts/RewardsFlywheel.sol",
  "abi": [
    {
      "inputs": [
        {
          "internalType": "address",
          "name": "_protocolManager",
          "type": "address"
        }
      ],
      "stateMutability": "nonpayable",
      "type": "constructor"
    },
    {
      "anonymous": false,
      "inputs": [
        {
          "indexed": true,
          "internalType": "address",
          "name": "token",
          "type": "address"
        },
        {
          "indexed": false,
          "internalType": "uint128",
          "name": "oldAmount",
          "type": "uint128"
        },
        {
          "indexed": false,
          "internalType": "uint128",
          "name": "newAmount",
          "type": "uint128"
        }
      ],
      "name": "CreatorRewardAmountUpdated",
      "type": "event"
    },
    {
      "anonymous": false,
      "inputs": [
        {
          "indexed": true,
          "internalType": "address",
          "name": "pool",
          "type": "address"
        },
        {
          "indexed": true,
          "internalType": "address",
          "name": "creator",
          "type": "address"
        },
        {
          "indexed": true,
          "internalType": "address",
          "name": "token",
          "type": "address"
        },
        {
          "indexed": false,
          "internalType": "uint256",
          "name": "amount",
          "type": "uint256"
        },
        {
          "indexed": false,
          "internalType": "uint256",
          "name": "fillPercentage",
          "type": "uint256"
        }
      ],
      "name": "CreatorRewardsClaimed",
      "type": "event"
    },
    {
      "anonymous": false,
      "inputs": [
        {
          "indexed": true,
          "internalType": "address",
          "name": "token",
          "type": "address"
        },
        {
          "indexed": false,
          "internalType": "uint256",
          "name": "amount",
          "type": "uint256"
        },
        {
          "indexed": false,
          "internalType": "uint128",
          "name": "rewardAmount",
          "type": "uint128"
        },
        {
          "indexed": false,
          "internalType": "uint256",
          "name": "eligiblePoolCount",
          "type": "uint256"
        }
      ],
      "name": "CreatorRewardsDeposited",
      "type": "event"
    },
    {
      "anonymous": false,
      "inputs": [
        {
          "indexed": true,
          "internalType": "address",
          "name": "token",
          "type": "address"
        },
        {
          "indexed": false,
          "internalType": "uint256",
          "name": "amount",
          "type": "uint256"
        }
      ],
      "name": "CreatorRewardsWithdrawn",
      "type": "event"
    },
    {
      "anonymous": false,
      "inputs": [],
      "name": "PointsClaimsActivated",
      "type": "event"
    },
    {
      "anonymous": false,
      "inputs": [
        {
          "indexed": true,
          "internalType": "address",
          "name": "user",
          "type": "address"
        },
        {
          "indexed": false,
          "internalType": "uint256",
          "name": "pointsClaimed",
          "type": "uint256"
        },
        {
          "indexed": false,
          "internalType": "uint256",
          "name": "tokenAmount",
          "type": "uint256"
        }
      ],
      "name": "PointsRewardClaimed",
      "type": "event"
    },
    {
      "anonymous": false,
      "inputs": [
        {
          "indexed": true,
          "internalType": "address",
          "name": "token",
          "type": "address"
        },
        {
          "indexed": false,
          "internalType": "uint256",
          "name": "amount",
          "type": "uint256"
        }
      ],
      "name": "PointsRewardTokenDeposited",
      "type": "event"
    },
    {
      "anonymous": false,
      "inputs": [
        {
          "indexed": false,
          "internalType": "bool",
          "name": "active",
          "type": "bool"
        }
      ],
      "name": "PointsSystemActivated",
      "type": "event"
    },
    {
      "anonymous": false,
      "inputs": [
        {
          "indexed": true,
          "internalType": "address",
          "name": "token",
          "type": "address"
        }
      ],
      "name": "ProtocolNativeTokenUpdated",
      "type": "event"
    },
    {
      "anonymous": false,
      "inputs": [
        {
          "indexed": true,
          "internalType": "address",
          "name": "pool",
          "type": "address"
        },
        {
          "indexed": false,
          "internalType": "uint256",
          "name": "rewardPerSlot",
          "type": "uint256"
        },
        {
          "indexed": false,
          "internalType": "uint256",
          "name": "totalEligibleSlots",
          "type": "uint256"
        }
      ],
      "name": "RewardPerSlotCalculated",
      "type": "event"
    },
    {
      "anonymous": false,
      "inputs": [
        {
          "indexed": true,
          "internalType": "address",
          "name": "pool",
          "type": "address"
        },
        {
          "indexed": true,
          "internalType": "address",
          "name": "user",
          "type": "address"
        },
        {
          "indexed": true,
          "internalType": "address",
          "name": "token",
          "type": "address"
        },
        {
          "indexed": false,
          "internalType": "uint256",
          "name": "amount",
          "type": "uint256"
        }
      ],
      "name": "RewardsClaimed",
      "type": "event"
    },
    {
      "anonymous": false,
      "inputs": [
        {
          "indexed": true,
          "internalType": "address",
          "name": "pool",
          "type": "address"
        },
        {
          "indexed": true,
          "internalType": "address",
          "name": "token",
          "type": "address"
        },
        {
          "indexed": false,
          "internalType": "uint256",
          "name": "amount",
          "type": "uint256"
        },
        {
          "indexed": true,
          "internalType": "address",
          "name": "depositor",
          "type": "address"
        }
      ],
      "name": "RewardsDeposited",
      "type": "event"
    },
    {
      "anonymous": false,
      "inputs": [
        {
          "indexed": true,
          "internalType": "address",
          "name": "pool",
          "type": "address"
        },
        {
          "indexed": true,
          "internalType": "address",
          "name": "token",
          "type": "address"
        },
        {
          "indexed": false,
          "internalType": "uint256",
          "name": "amount",
          "type": "uint256"
        },
        {
          "indexed": true,
          "internalType": "address",
          "name": "depositor",
          "type": "address"
        }
      ],
      "name": "RewardsWithdrawn",
      "type": "event"
    },
    {
      "inputs": [],
      "name": "activatePointsClaims",
      "outputs": [],
      "stateMutability": "nonpayable",
      "type": "function"
    },
    {
      "inputs": [
        {
          "internalType": "address",
          "name": "pool",
          "type": "address"
        }
      ],
      "name": "allocateCreatorPoints",
      "outputs": [],
      "stateMutability": "nonpayable",
      "type": "function"
    },
    {
      "inputs": [
        {
          "internalType": "address",
          "name": "pool",
          "type": "address"
        },
        {
          "internalType": "address",
          "name": "user",
          "type": "address"
        },
        {
          "internalType": "uint256",
          "name": "slots",
          "type": "uint256"
        }
      ],
      "name": "allocateParticipantPoints",
      "outputs": [],
      "stateMutability": "nonpayable",
      "type": "function"
    },
    {
      "inputs": [
        {
          "internalType": "address",
          "name": "pool",
          "type": "address"
        },
        {
          "internalType": "address",
          "name": "token",
          "type": "address"
        }
      ],
      "name": "claimCreatorRewards",
      "outputs": [],
      "stateMutability": "nonpayable",
      "type": "function"
    },
    {
      "inputs": [],
      "name": "claimPointsRewards",
      "outputs": [],
      "stateMutability": "nonpayable",
      "type": "function"
    },
    {
      "inputs": [
        {
          "internalType": "address",
          "name": "pool",
          "type": "address"
        }
      ],
      "name": "claimRewards",
      "outputs": [],
      "stateMutability": "nonpayable",
      "type": "function"
    },
    {
      "inputs": [
        {
          "internalType": "address",
          "name": "",
          "type": "address"
        },
        {
          "internalType": "address",
          "name": "",
          "type": "address"
        },
        {
          "internalType": "address",
          "name": "",
          "type": "address"
        }
      ],
      "name": "creatorHasClaimed",
      "outputs": [
        {
          "internalType": "bool",
          "name": "",
          "type": "bool"
        }
      ],
      "stateMutability": "view",
      "type": "function"
    },
    {
      "inputs": [
        {
          "internalType": "address",
          "name": "",
          "type": "address"
        }
      ],
      "name": "creatorPointsAllocated",
      "outputs": [
        {
          "internalType": "bool",
          "name": "",
          "type": "bool"
        }
      ],
      "stateMutability": "view",
      "type": "function"
    },
    {
      "inputs": [
        {
          "internalType": "address",
          "name": "",
          "type": "address"
        },
        {
          "internalType": "uint256",
          "name": "",
          "type": "uint256"
        }
      ],
      "name": "creatorRewardBatches",
      "outputs": [
        {
          "internalType": "uint128",
          "name": "rewardAmountPerPool",
          "type": "uint128"
        },
        {
          "internalType": "uint256",
          "name": "depositTimestamp",
          "type": "uint256"
        },
        {
          "internalType": "uint256",
          "name": "eligiblePoolCount",
          "type": "uint256"
        },
        {
          "internalType": "uint256",
          "name": "claimedCount",
          "type": "uint256"
        },
        {
          "internalType": "uint256",
          "name": "totalDeposited",
          "type": "uint256"
        }
      ],
      "stateMutability": "view",
      "type": "function"
    },
    {
      "inputs": [
        {
          "internalType": "address",
          "name": "",
          "type": "address"
        }
      ],
      "name": "creatorRewardTokenBalance",
      "outputs": [
        {
          "internalType": "uint256",
          "name": "",
          "type": "uint256"
        }
      ],
      "stateMutability": "view",
      "type": "function"
    },
    {
      "inputs": [
        {
          "internalType": "uint256",
          "name": "",
          "type": "uint256"
        }
      ],
      "name": "creatorRewardTokens",
      "outputs": [
        {
          "internalType": "address",
          "name": "",
          "type": "address"
        }
      ],
      "stateMutability": "view",
      "type": "function"
    },
    {
      "inputs": [
        {
          "internalType": "address",
          "name": "token",
          "type": "address"
        },
        {
          "internalType": "uint256",
          "name": "amount",
          "type": "uint256"
        },
        {
          "internalType": "uint128",
          "name": "rewardAmountPerPool",
          "type": "uint128"
        },
        {
          "internalType": "uint256",
          "name": "eligiblePoolCount",
          "type": "uint256"
        }
      ],
      "name": "depositCreatorRewards",
      "outputs": [],
      "stateMutability": "nonpayable",
      "type": "function"
    },
    {
      "inputs": [
        {
          "internalType": "address",
          "name": "pool",
          "type": "address"
        },
        {
          "internalType": "address",
          "name": "token",
          "type": "address"
        },
        {
          "internalType": "uint256",
          "name": "amount",
          "type": "uint256"
        }
      ],
      "name": "depositERC20Rewards",
      "outputs": [],
      "stateMutability": "nonpayable",
      "type": "function"
    },
    {
      "inputs": [
        {
          "internalType": "address",
          "name": "pool",
          "type": "address"
        }
      ],
      "name": "depositNativeRewards",
      "outputs": [],
      "stateMutability": "payable",
      "type": "function"
    },
    {
      "inputs": [
        {
          "internalType": "address",
          "name": "token",
          "type": "address"
        },
        {
          "internalType": "uint256",
          "name": "amount",
          "type": "uint256"
        }
      ],
      "name": "depositPointsRewardToken",
      "outputs": [],
      "stateMutability": "nonpayable",
      "type": "function"
    },
    {
      "inputs": [
        {
          "internalType": "address",
          "name": "token",
          "type": "address"
        },
        {
          "internalType": "uint256",
          "name": "amount",
          "type": "uint256"
        }
      ],
      "name": "emergencyWithdraw",
      "outputs": [],
      "stateMutability": "nonpayable",
      "type": "function"
    },
    {
      "inputs": [
        {
          "internalType": "address",
          "name": "user",
          "type": "address"
        }
      ],
      "name": "getClaimablePointsReward",
      "outputs": [
        {
          "internalType": "uint256",
          "name": "claimablePoints",
          "type": "uint256"
        },
        {
          "internalType": "uint256",
          "name": "tokenAmount",
          "type": "uint256"
        }
      ],
      "stateMutability": "view",
      "type": "function"
    },
    {
      "inputs": [
        {
          "internalType": "address",
          "name": "pool",
          "type": "address"
        },
        {
          "internalType": "address",
          "name": "user",
          "type": "address"
        }
      ],
      "name": "getClaimableReward",
      "outputs": [
        {
          "internalType": "uint256",
          "name": "",
          "type": "uint256"
        }
      ],
      "stateMutability": "view",
      "type": "function"
    },
    {
      "inputs": [
        {
          "internalType": "address",
          "name": "pool",
          "type": "address"
        },
        {
          "internalType": "address",
          "name": "token",
          "type": "address"
        }
      ],
      "name": "getCreatorClaimableAmount",
      "outputs": [
        {
          "internalType": "uint256",
          "name": "",
          "type": "uint256"
        }
      ],
      "stateMutability": "view",
      "type": "function"
    },
    {
      "inputs": [
        {
          "internalType": "address",
          "name": "token",
          "type": "address"
        },
        {
          "internalType": "uint256",
          "name": "batchIndex",
          "type": "uint256"
        }
      ],
      "name": "getCreatorRewardBatch",
      "outputs": [
        {
          "internalType": "uint128",
          "name": "rewardAmountPerPool",
          "type": "uint128"
        },
        {
          "internalType": "uint256",
          "name": "depositTimestamp",
          "type": "uint256"
        },
        {
          "internalType": "uint256",
          "name": "eligiblePoolCount",
          "type": "uint256"
        },
        {
          "internalType": "uint256",
          "name": "claimedCount",
          "type": "uint256"
        },
        {
          "internalType": "uint256",
          "name": "totalDeposited",
          "type": "uint256"
        }
      ],
      "stateMutability": "view",
      "type": "function"
    },
    {
      "inputs": [
        {
          "internalType": "address",
          "name": "token",
          "type": "address"
        }
      ],
      "name": "getCreatorRewardBatchCount",
      "outputs": [
        {
          "internalType": "uint256",
          "name": "",
          "type": "uint256"
        }
      ],
      "stateMutability": "view",
      "type": "function"
    },
    {
      "inputs": [
        {
          "internalType": "address",
          "name": "token",
          "type": "address"
        }
      ],
      "name": "getCreatorRewardConfig",
      "outputs": [
        {
          "internalType": "uint128",
          "name": "latestRewardAmount",
          "type": "uint128"
        },
        {
          "internalType": "uint256",
          "name": "totalBalance",
          "type": "uint256"
        },
        {
          "internalType": "uint256",
          "name": "batchCount",
          "type": "uint256"
        }
      ],
      "stateMutability": "view",
      "type": "function"
    },
    {
      "inputs": [],
      "name": "getCreatorRewardTokens",
      "outputs": [
        {
          "internalType": "address[]",
          "name": "",
          "type": "address[]"
        }
      ],
      "stateMutability": "view",
      "type": "function"
    },
    {
      "inputs": [
        {
          "internalType": "address",
          "name": "token",
          "type": "address"
        }
      ],
      "name": "getCreatorRewardWithdrawableAmount",
      "outputs": [
        {
          "internalType": "uint256",
          "name": "available",
          "type": "uint256"
        },
        {
          "internalType": "uint256",
          "name": "reserved",
          "type": "uint256"
        },
        {
          "internalType": "uint256",
          "name": "total",
          "type": "uint256"
        }
      ],
      "stateMutability": "view",
      "type": "function"
    },
    {
      "inputs": [],
      "name": "getGlobalCooldownInfo",
      "outputs": [
        {
          "internalType": "uint256",
          "name": "currentPeriodStart",
          "type": "uint256"
        },
        {
          "internalType": "uint256",
          "name": "nextPeriodStart",
          "type": "uint256"
        }
      ],
      "stateMutability": "view",
      "type": "function"
    },
    {
      "inputs": [],
      "name": "getPointsSystemInfo",
      "outputs": [
        {
          "internalType": "bool",
          "name": "active",
          "type": "bool"
        },
        {
          "internalType": "bool",
          "name": "claimsActive",
          "type": "bool"
        },
        {
          "internalType": "address",
          "name": "token",
          "type": "address"
        },
        {
          "internalType": "uint256",
          "name": "rate",
          "type": "uint256"
        },
        {
          "internalType": "uint256",
          "name": "totalDeposited",
          "type": "uint256"
        }
      ],
      "stateMutability": "view",
      "type": "function"
    },
    {
      "inputs": [
        {
          "internalType": "address",
          "name": "pool",
          "type": "address"
        }
      ],
      "name": "getRewardInfo",
      "outputs": [
        {
          "internalType": "uint256",
          "name": "totalDeposited",
          "type": "uint256"
        },
        {
          "internalType": "uint256",
          "name": "rewardPerSlot",
          "type": "uint256"
        },
        {
          "internalType": "uint256",
          "name": "totalEligibleSlots",
          "type": "uint256"
        },
        {
          "internalType": "uint256",
          "name": "claimedSlots",
          "type": "uint256"
        }
      ],
      "stateMutability": "view",
      "type": "function"
    },
    {
      "inputs": [
        {
          "internalType": "address",
          "name": "user",
          "type": "address"
        }
      ],
      "name": "getTimeUntilNextClaim",
      "outputs": [
        {
          "internalType": "uint256",
          "name": "secondsRemaining",
          "type": "uint256"
        }
      ],
      "stateMutability": "view",
      "type": "function"
    },
    {
      "inputs": [
        {
          "internalType": "address",
          "name": "user",
          "type": "address"
        }
      ],
      "name": "getUserPoints",
      "outputs": [
        {
          "internalType": "uint256",
          "name": "totalPoints",
          "type": "uint256"
        },
        {
          "internalType": "uint256",
          "name": "claimedPoints",
          "type": "uint256"
        },
        {
          "internalType": "uint256",
          "name": "lastClaimTime",
          "type": "uint256"
        }
      ],
      "stateMutability": "view",
      "type": "function"
    },
    {
      "inputs": [
        {
          "internalType": "address",
          "name": "pool",
          "type": "address"
        },
        {
          "internalType": "address",
          "name": "user",
          "type": "address"
        }
      ],
      "name": "hasClaimed",
      "outputs": [
        {
          "internalType": "bool",
          "name": "",
          "type": "bool"
        }
      ],
      "stateMutability": "view",
      "type": "function"
    },
    {
      "inputs": [
        {
          "internalType": "address",
          "name": "pool",
          "type": "address"
        }
      ],
      "name": "isCreatorPointsAllocated",
      "outputs": [
        {
          "internalType": "bool",
          "name": "",
          "type": "bool"
        }
      ],
      "stateMutability": "view",
      "type": "function"
    },
    {
      "inputs": [
        {
          "internalType": "address",
          "name": "pool",
          "type": "address"
        },
        {
          "internalType": "address",
          "name": "user",
          "type": "address"
        }
      ],
      "name": "isParticipantPointsAllocated",
      "outputs": [
        {
          "internalType": "bool",
          "name": "",
          "type": "bool"
        }
      ],
      "stateMutability": "view",
      "type": "function"
    },
    {
      "inputs": [],
      "name": "lastGlobalClaimReset",
      "outputs": [
        {
          "internalType": "uint256",
          "name": "",
          "type": "uint256"
        }
      ],
      "stateMutability": "view",
      "type": "function"
    },
    {
      "inputs": [
        {
          "internalType": "address",
          "name": "",
          "type": "address"
        },
        {
          "internalType": "address",
          "name": "",
          "type": "address"
        }
      ],
      "name": "participantPointsAllocated",
      "outputs": [
        {
          "internalType": "bool",
          "name": "",
          "type": "bool"
        }
      ],
      "stateMutability": "view",
      "type": "function"
    },
    {
      "inputs": [],
      "name": "pointsClaimsActive",
      "outputs": [
        {
          "internalType": "bool",
          "name": "",
          "type": "bool"
        }
      ],
      "stateMutability": "view",
      "type": "function"
    },
    {
      "inputs": [],
      "name": "pointsPerToken",
      "outputs": [
        {
          "internalType": "uint256",
          "name": "",
          "type": "uint256"
        }
      ],
      "stateMutability": "view",
      "type": "function"
    },
    {
      "inputs": [],
      "name": "pointsRewardBalance",
      "outputs": [
        {
          "internalType": "uint256",
          "name": "",
          "type": "uint256"
        }
      ],
      "stateMutability": "view",
      "type": "function"
    },
    {
      "inputs": [],
      "name": "pointsRewardToken",
      "outputs": [
        {
          "internalType": "address",
          "name": "",
          "type": "address"
        }
      ],
      "stateMutability": "view",
      "type": "function"
    },
    {
      "inputs": [],
      "name": "pointsSystemActive",
      "outputs": [
        {
          "internalType": "bool",
          "name": "",
          "type": "bool"
        }
      ],
      "stateMutability": "view",
      "type": "function"
    },
    {
      "inputs": [
        {
          "internalType": "address",
          "name": "",
          "type": "address"
        },
        {
          "internalType": "address",
          "name": "",
          "type": "address"
        }
      ],
      "name": "poolClaimedBatchId",
      "outputs": [
        {
          "internalType": "uint256",
          "name": "",
          "type": "uint256"
        }
      ],
      "stateMutability": "view",
      "type": "function"
    },
    {
      "inputs": [
        {
          "internalType": "address",
          "name": "",
          "type": "address"
        }
      ],
      "name": "poolRewards",
      "outputs": [
        {
          "internalType": "uint128",
          "name": "totalDeposited",
          "type": "uint128"
        },
        {
          "internalType": "uint128",
          "name": "rewardPerSlot",
          "type": "uint128"
        },
        {
          "internalType": "uint32",
          "name": "totalEligibleSlots",
          "type": "uint32"
        },
        {
          "internalType": "uint32",
          "name": "claimedSlots",
          "type": "uint32"
        },
        {
          "internalType": "uint128",
          "name": "totalClaimedAmount",
          "type": "uint128"
        },
        {
          "internalType": "address",
          "name": "token",
          "type": "address"
        },
        {
          "internalType": "address",
          "name": "depositor",
          "type": "address"
        },
        {
          "internalType": "bool",
          "name": "rewardPerSlotCalculated",
          "type": "bool"
        }
      ],
      "stateMutability": "view",
      "type": "function"
    },
    {
      "inputs": [],
      "name": "protocolManager",
      "outputs": [
        {
          "internalType": "contract IProtocolManager",
          "name": "",
          "type": "address"
        }
      ],
      "stateMutability": "view",
      "type": "function"
    },
    {
      "inputs": [],
      "name": "protocolNativeToken",
      "outputs": [
        {
          "internalType": "address",
          "name": "",
          "type": "address"
        }
      ],
      "stateMutability": "view",
      "type": "function"
    },
    {
      "inputs": [
        {
          "internalType": "uint256",
          "name": "rate",
          "type": "uint256"
        }
      ],
      "name": "setPointsPerToken",
      "outputs": [],
      "stateMutability": "nonpayable",
      "type": "function"
    },
    {
      "inputs": [
        {
          "internalType": "bool",
          "name": "active",
          "type": "bool"
        }
      ],
      "name": "setPointsSystemActive",
      "outputs": [],
      "stateMutability": "nonpayable",
      "type": "function"
    },
    {
      "inputs": [
        {
          "internalType": "address",
          "name": "token",
          "type": "address"
        }
      ],
      "name": "setProtocolNativeToken",
      "outputs": [],
      "stateMutability": "nonpayable",
      "type": "function"
    },
    {
      "inputs": [],
      "name": "totalPointsAllocated",
      "outputs": [
        {
          "internalType": "uint256",
          "name": "",
          "type": "uint256"
        }
      ],
      "stateMutability": "view",
      "type": "function"
    },
    {
      "inputs": [],
      "name": "totalPointsClaimed",
      "outputs": [
        {
          "internalType": "uint256",
          "name": "",
          "type": "uint256"
        }
      ],
      "stateMutability": "view",
      "type": "function"
    },
    {
      "inputs": [
        {
          "internalType": "address",
          "name": "token",
          "type": "address"
        },
        {
          "internalType": "uint128",
          "name": "newAmount",
          "type": "uint128"
        }
      ],
      "name": "updateCreatorRewardAmount",
      "outputs": [],
      "stateMutability": "nonpayable",
      "type": "function"
    },
    {
      "inputs": [
        {
          "internalType": "address",
          "name": "",
          "type": "address"
        }
      ],
      "name": "userClaimedPoints",
      "outputs": [
        {
          "internalType": "uint256",
          "name": "",
          "type": "uint256"
        }
      ],
      "stateMutability": "view",
      "type": "function"
    },
    {
      "inputs": [
        {
          "internalType": "address",
          "name": "",
          "type": "address"
        },
        {
          "internalType": "address",
          "name": "",
          "type": "address"
        }
      ],
      "name": "userHasClaimed",
      "outputs": [
        {
          "internalType": "bool",
          "name": "",
          "type": "bool"
        }
      ],
      "stateMutability": "view",
      "type": "function"
    },
    {
      "inputs": [
        {
          "internalType": "address",
          "name": "",
          "type": "address"
        }
      ],
      "name": "userLastClaimTime",
      "outputs": [
        {
          "internalType": "uint256",
          "name": "",
          "type": "uint256"
        }
      ],
      "stateMutability": "view",
      "type": "function"
    },
    {
      "inputs": [
        {
          "internalType": "address",
          "name": "",
          "type": "address"
        }
      ],
      "name": "userTotalPoints",
      "outputs": [
        {
          "internalType": "uint256",
          "name": "",
          "type": "uint256"
        }
      ],
      "stateMutability": "view",
      "type": "function"
    },
    {
      "inputs": [
        {
          "internalType": "address",
          "name": "token",
          "type": "address"
        },
        {
          "internalType": "uint256",
          "name": "amount",
          "type": "uint256"
        }
      ],
      "name": "withdrawCreatorRewardsToken",
      "outputs": [],
      "stateMutability": "nonpayable",
      "type": "function"
    },
    {
      "inputs": [
        {
          "internalType": "address",
          "name": "pool",
          "type": "address"
        }
      ],
      "name": "withdrawDepositedRewards",
      "outputs": [],
      "stateMutability": "nonpayable",
      "type": "function"
    },
    {
      "inputs": [
        {
          "internalType": "uint256",
          "name": "amount",
          "type": "uint256"
        }
      ],
      "name": "withdrawPointsRewardToken",
      "outputs": [],
      "stateMutability": "nonpayable",
      "type": "function"
    },
    {
      "stateMutability": "payable",
      "type": "receive"
    }
  ],
  "bytecode": "0x60a0346200012c57601f62004aca38819003918201601f19168301916001600160401b0383118484101762000131578084926020946040528339810103126200012c57516001600160a01b038116908190036200012c5760016000558015620000e7576080526040516149829081620001488239608051818181610ae501528181610be401528181611085015281816112be015281816114480152818161151c0152818161165c01528181611ac501528181612218015281816125f10152818161285d015281816131ca01528181613369015281816136100152818161400201526148e70152f35b60405162461bcd60e51b815260206004820152601860248201527f496e76616c69642070726f746f636f6c206d616e6167657200000000000000006044820152606490fd5b600080fd5b634e487b7160e01b600052604160045260246000fdfe60806040818152600480361015610021575b505050361561001f57600080fd5b005b600092833560e01c90816306032d741461396b57508063069770ba1461394c57806306ab47101461390357806306ef7812146135d457806312be62c3146135b5578063168ecc461461359157806319677505146135515780631d581d211461348b57806321e91dea1461345d5780632363783a146134285780632922a0ef1461333d5780632cddef46146124d45780632ea8ed7f1461318c57806331294fde1461316d5780633786ca91146131355780633e5d604a1461253157806346ad5edd14612dda5780634fcb6f3a14612dbb578063521381fd14612d67578063556cb5d7146124865780635bbd564614612cf357806363a568e114612b17578063643ea5de14612a1457806364bceff1146129eb5780636d07b7e5146129c55780636e15a1f91461297c5780636e43ade21461280d5780636e4e881c146127625780637505fc89146125b7578063766b00721461257f5780637aa2a336146125315780637abf5f99146125125780637e2276da146124d457806389266f60146124865780638a096a5d1461245f5780638a19fa57146123f257806390eeb4b6146123cb57806394a59d8f146122f45783816395ccea67146121d65750806397b55ffd14611a8d5780639a60de7d14611a555780639c1e1dd91461177d578063a586680914611750578063a6ecbaf91461168b578063ab4b669214611647578063aeefe31f146115eb578063b2e5167e146115b6578063b536ae5e146114ea578063b66590141461140d578063cfeb45ba14611280578063d7ccae2714611051578063dcefcfff14611019578063dd5aba4b14610f7c578063dd674d8314610b88578063ef16263814610aa95763ef5cfb8c03610011573461091c57602080600319360112610aa5576102ae6139d0565b906102b7613cd1565b6001600160a01b039182168086526001825284862080546001600160801b0395929492919086168015610a6b5785895260028552878920338a52855261030360ff898b20541615613dfe565b875163c19d93fb60e01b8152858185818a5afa908115610701578a91610a3e575b50600881101580610a1e57600582141580610a31575b8181610a0d575b50156109d1576109be57808461036092149081156109b3575b50613e54565b600382019081549160ff8360a01c161561070b575b50508751630214865d60e21b8152338482015290506024858282818a5afa918215610701578a926106ce575b50811561069857885163d17d135960e01b808252338683015290878184818c5afa90811561068e578c9161065d575b50156106485789519081523385820152868183818b5afa90811561063e578b9161060d575b50808311156105cb5761040b6104169184613c04565b845460801c90613bb6565b60021c975b610426891515613f1c565b878b5260028752898b20338c528752898b20600160ff19825416179055600184019283549263ffffffff80921682858b1c16019182116105ba5750916002939177ffffffffffffffffffffffffffffffff00000000000000006104b08d67ffffffff000000008c9b9a99978f9d1b1693808d16918567ffffffff0000000019881617901c16614476565b8d1b1691640100000000600160c01b03191617179055019082825416908115600014610523575050610512888080807f5637d7f962248a7f05a7ab69eec6446e31f3d0a299d997f135a65c62806e789198335af161050c614491565b506144d1565b541694519384523393a46001815580f35b885163a9059cbb60e01b81523391810191825260208201969096528491869182908c90829060400103925af19384156105b0577f5637d7f962248a7f05a7ab69eec6446e31f3d0a299d997f135a65c62806e789194610583575b50610512565b6105a290843d86116105a9575b61059a8183613a9f565b810190613bdf565b503861057d565b503d610590565b87513d8a823e3d90fd5b634e487b7160e01b8d52601187528cfd5b895162461bcd60e51b81528086018890526018818401527f596f752068617665206e6f206c6f73696e6720736c6f747300000000000000006044820152606490fd5b90508681813d8311610637575b6106248183613a9f565b810103126106335751386103f5565b8a80fd5b503d61061a565b8a513d8d823e3d90fd5b50610657835460801c83613bb6565b9761041b565b90508781813d8311610687575b6106748183613a9f565b810103126106835751386103d0565b8b80fd5b503d61066a565b8b513d8e823e3d90fd5b836012606492888c519362461bcd60e51b855284015282015271139bc81cdb1bdd1cc81c1d5c98da185cd95960721b6044820152fd5b9091508581813d83116106fa575b6106e68183613a9f565b810103126106f6575190386103a1565b8980fd5b503d6106dc565b89513d8c823e3d90fd5b8951631957f54360e31b81528b888288818d5afa8c81156109a8578b8b918a95859461096f575b5051638bc5328560e01b815294859182905afa80156109655788938391610930575b508d8b8d825196878092634971381160e01b82525afa908115610927578d8d918c9787946108ed575b50516321de360b60e21b815296879182905afa9384156108e2578b6107cf9563ffffffff978f84926108b5575b505016151590816108ab575b50156108a35750905b6107ca828211613eb5565b613c04565b1691600185018363ffffffff198254161790558215610890576001600160801b031983820460801b161780855560801c92831561084d5760ff60a01b1916600160a01b17905588519182528582015285907fc05844e085396ac5e7a1769a8c2e08b9e8ccee17624f17ca7a08689f41359c70908990a2388080610375565b8a5162461bcd60e51b8152808701899052601760248201527f5265776172642070657220736c6f74206973207a65726f0000000000000000006044820152606490fd5b634e487b7160e01b8c526012865260248cfd5b9050906107bf565b82841091506107b6565b6108d49250803d106108db575b6108cc8183613a9f565b810190613ad7565b388f6107aa565b503d6108c2565b8f51903d90823e3d90fd5b97505050905084813d8311610920575b6109078183613a9f565b8101031261091c578d8b8d8b9651923861077d565b8280fd5b503d6108fd565b513d85823e3d90fd5b8094508b8092503d831161095e575b6109498183613a9f565b8101031261095a5787925138610754565b5080fd5b503d61093f565b8d513d84823e3d90fd5b95505050905082813d83116109a1575b6109898183613a9f565b8101031261099e578b898b8994519238610732565b80fd5b503d61097f565b51913d9150823e3d90fd5b60069150143861035a565b634e487b7160e01b8a526021845260248afd5b895162461bcd60e51b81528086018890526016602482015275506f6f6c20696e207465726d696e616c20737461746560501b6044820152606490fd5b9050610a1e57600282141581610341565b634e487b7160e01b8b526021855260248bfd5b505089600782141561033a565b610a5e9150863d8811610a64575b610a568183613a9f565b810190613e3c565b38610324565b503d610a4c565b875162461bcd60e51b81528084018690526014602482015273139bc81c995dd85c991cc819195c1bdcda5d195960621b6044820152606490fd5b8380fd5b503461091c57602036600319011261091c57803590811515809203610aa5578251638da5cb5b60e01b81526001600160a01b03916020908290817f000000000000000000000000000000000000000000000000000000000000000086165afa908115610b7e57602093927f89f8e36471904614b0d19f9cbecb037d8cc2adf494123741b26a0e43c883aaac9592610b4a928891610b61575b50163314613af6565b60ff196009541660ff83161760095551908152a180f35b610b789150863d81116108db576108cc8183613a9f565b38610b41565b84513d87823e3d90fd5b503461091c57608036600319011261091c57610ba26139d0565b90602492833592604435906001600160801b0395868316809303610f78578351638da5cb5b60e01b81526001600160a01b0397606435966020949092858185817f00000000000000000000000000000000000000000000000000000000000000008f165afa908c8215610f6d578c9392610c2692859291610f565750163314613af6565b1698610c338a1515613b2e565b610c3e891515613b6a565b8515610f09578715610eb457610c548887613bb6565b8910610e66578a85610c9a8c8c8b519485809481936323b872dd60e01b835230338d850160409194939294606082019560018060a01b0380921683521660208201520152565b03925af18015610e5c57610e3f575b50898b526007855260ff878c20541615610de0575b50818452858a209086519060a0820182811067ffffffffffffffff821117610dce57908c9291895287825286820190428252898301928b84526060810194855260808101958d8752805490600160401b821015610dba5790610d2591600182018155613a83565b989098610daa57509160609b99979593917fa71d7acad05294eb6740b95a015ced5139c0ed6792a11c0b85f452182eafc9ac9d9b9997959351166001600160801b03198754161786555160018601555160028501555160038401555191015587895260058152828920610d99868254613bf7565b90558251948552840152820152a280f35b8f8089634e487b7160e01b825252fd5b5050634e487b7160e01b8f5260418752878ffd5b634e487b7160e01b8d5260418552858dfd5b600654600160401b811015610e2d57806001610dff9201600655613a01565b819291549060031b918c831b921b1916179055888a5260078452858a20600160ff1982541617905538610cbe565b634e487b7160e01b8c5260418452848cfd5b610e5590863d88116105a95761059a8183613a9f565b5038610ca9565b88513d8e823e3d90fd5b865162461bcd60e51b81528084018690526023818601527f496e73756666696369656e74206465706f73697420666f7220706f6f6c20636f6044820152621d5b9d60ea1b6064820152608490fd5b865162461bcd60e51b8152808401869052602a818601527f456c696769626c6520706f6f6c20636f756e74206d75737420626520677265616044820152690746572207468616e20360b41b6064820152608490fd5b60848385878a519262461bcd60e51b8452830152808201527f52657761726420616d6f756e74206d75737420626520677265617465722074686044820152630616e20360e41b6064820152fd5b610b789150893d8b116108db576108cc8183613a9f565b8951903d90823e3d90fd5b8780fd5b50503461095a57602036600319011261095a576101009160ff906001600160a01b0390839082610faa6139d0565b16815260016020522090815491600181015492600383600284015416920154938651966001600160801b0392838116895260801c602089015263ffffffff808316828a01528260201c1660608901521c16608086015260a0850152811660c084015260a01c16151560e0820152f35b50503461095a57602036600319011261095a5760209181906001600160a01b036110416139d0565b168152600f845220549051908152f35b5091903461095a576020908160031936011261091c578051638da5cb5b60e01b81528435906001600160a01b0390848188817f000000000000000000000000000000000000000000000000000000000000000086165afa908115611276576110c4918391889161125f5750163314613af6565b6009549060ff821661120657600b546110df81851115613c11565b6110ee60105460115490613c04565b879080158015806111fb575b61119f575b505096849392611132889996839b946111609a988082116000146111955761112a6107ca9183613c04565b831115613c54565b600b55865163a9059cbb60e01b81523393810193845260208401959095529396879485939091849160400190565b039360101c165af19081156109275750611178578280f35b8161118e92903d106105a95761059a8183613a9f565b5038808280f35b506107ca8561112a565b909150670de0b6b3a76400008083029283041417156111e85796849392611132889996839b946111d66111609b99600a5490613e95565b9450949b9a50508194959698506110ff565b634e487b7160e01b885260118952602488fd5b50600a5415156110fa565b835162461bcd60e51b8152808801869052602d60248201527f43616e6e6f74207769746864726177207768696c6520706f696e74732073797360448201526c74656d2069732061637469766560981b6064820152608490fd5b610b789150873d89116108db576108cc8183613a9f565b84513d88823e3d90fd5b503461091c578160031936011261091c576112996139d0565b8251638da5cb5b60e01b8152909160209160243591906001600160a01b0390848184817f000000000000000000000000000000000000000000000000000000000000000086165afa9081156105b0579282611305879487946113879b978d9161125f5750163314613af6565b80881697611314891515613b2e565b61131f841515613b6a565b88600954928360101c1680156000146113fb57505062010000600160b01b031990911660109190911b62010000600160b01b0316176009555b83516323b872dd60e01b8152339181019182523060208301526040820192909252909687918291606090910190565b038189885af19485156113f1577f62b0b930e3d87ad3821b5ed18dc2e107e89940c4222217956d9fb3aff238b77494956113d4575b506113c982600b54613bf7565b600b5551908152a280f35b6113ea90843d86116105a95761059a8183613a9f565b50386113bc565b81513d88823e3d90fd5b6114089350149050614439565b611358565b50903461091c57602036600319011261091c576114286139d0565b8151638da5cb5b60e01b81526001600160a01b03939192916020908290817f000000000000000000000000000000000000000000000000000000000000000088165afa9182156114e1575061148891849186916114c95750163314613af6565b16806bffffffffffffffffffffffff60a01b60145416176014557fd7bf0f8dfcad9578195fe49d08a76c2b5940ac7a794ae517754c0d1dace1f1418280a280f35b610b78915060203d81116108db576108cc8183613a9f565b513d86823e3d90fd5b503461091c57602036600319011261091c578151638da5cb5b60e01b8152813592906001600160a01b039060208185817f000000000000000000000000000000000000000000000000000000000000000086165afa9081156115ac579061155b929187916114c95750163314613af6565b8215611569575050600a5580f35b906020606492519162461bcd60e51b8352820152601b60248201527f52617465206d7573742062652067726561746572207468616e203000000000006044820152fd5b83513d88823e3d90fd5b50503461095a578060031936011261095a576020906115e46115d66139d0565b6115de6139eb565b90613fdf565b9051908152f35b50503461095a57602036600319011261095a576001600160a01b0361160e6139d0565b168252600d602090815281832054600e825282842054600f835293839020549251908152908101929092526040820152606090f35b0390f35b50503461095a578160031936011261095a57517f00000000000000000000000000000000000000000000000000000000000000006001600160a01b03168152602090f35b82843461099e578060031936011261099e579080519182906006549182855260208095018093600684527ff652222313e28459528d920b65115c16c04f3efc82aaedc97be59f3f377c0d3f90845b81811061173357505050816116ef910382613a9f565b83519485948186019282875251809352850193925b82811061171357505050500390f35b83516001600160a01b031685528695509381019392810192600101611704565b82546001600160a01b0316845292880192600192830192016116d9565b50503461095a578160031936011261095a57600954905160109190911c6001600160a01b03168152602090f35b5091903461095a576020908160031936011261091c5761179b6139d0565b916117a4613cd1565b60018060a01b03809316908185526001938482528386209660038801548281163303611a2257855163c19d93fb60e01b815284818481895afa908115611a185789916119fb575b5060088110156119e857600581149081156119dd575b5015611942575b506001600160801b0397888154168988830154881c16900398808a1161192f576002979899169687910191838354169081156000146118a55750509061187a898080807fd715fae03bf6c4bf278c7b9f28932008df13c1fff57f3c4136ea069353a3904c989796335af161050c614491565b848952878352886003878220828155828b8201558260028201550155541693519485523394a4815580f35b875163a9059cbb60e01b81523391810191825260208201939093528591839182908d90829060400103925af1801561192557907fd715fae03bf6c4bf278c7b9f28932008df13c1fff57f3c4136ea069353a3904c94939291611908575b5061187a565b61191e90843d86116105a95761059a8183613a9f565b5038611902565b86513d8b823e3d90fd5b634e487b7160e01b895260118352602489fd5b60a01c60ff16156119a3578588015463ffffffff80821691851c16106119685738611808565b845162461bcd60e51b81529081018390526015602482015274139bdd08185b1b081cdb1bdd1cc818db185a5b5959605a1b6044820152606490fd5b845162461bcd60e51b8152908101839052601460248201527310db185a5b5a5b99c81b9bdd081cdd185c9d195960621b6044820152606490fd5b600791501438611801565b634e487b7160e01b895260218352602489fd5b611a129150853d8711610a6457610a568183613a9f565b386117eb565b87513d8b823e3d90fd5b855162461bcd60e51b8152808301859052600d60248201526c2737ba103232b837b9b4ba37b960991b6044820152606490fd5b50503461095a57602036600319011261095a5760209181906001600160a01b03611a7d6139d0565b168152600d845220549051908152f35b5082903461095a578260031936011261095a57611aa86139d0565b90611ab16139eb565b90611aba613cd1565b60018060a01b0394857f0000000000000000000000000000000000000000000000000000000000000000169286825195633247c33f60e21b875216928381870152602090602496828189818a5afa9081156121af5790611b21918a916121b9575b50613dc3565b83516302d05d3f60e01b81529082828281895afa9182156121af578992612190575b508982169687330361215b57899a878b9a9b5260038552868a20898b528552611b7e60ff88808d209c848a169d8e8252895220541615613dfe565b865163c19d93fb60e01b8152858185818c5afa908115611f57578d9161213e575b5087516358ac12d760e11b81528d90878187818e5afa918215611f7e5791612121575b50156120f657600881101561207757600681036120a9575b600881101590816120975760058114159182612089575b82612065575b50501561202b57865163898b36db60e01b8152858185818c5afa908115611f57578d91611ffe575b508751631957f54360e31b81528d90878187818e5afa918215611f7e5791611fcd575b508015611f9b5760648102908104606403611f895790611c6191613e95565b958c848760328a101595611c7487613eb5565b8b5163188c824d60e11b815292839182905afa918215611f7e57908892611f61575b508d8b8b519586938492630218dd2360e51b84528a840152165afa908115611f57578d91611f22575b611cc99250613f5f565b6001600160801b03929192918282168015611edf578e9180611ed5575b15611e8757505060016001607f1b03915060011c16995b611d088b1515613f1c565b898c5260058552868c20548b11611e4657878c526003808652878d208a8e528652878d208b8e528652878d20805460ff19166001179055838652878d20611d50908490613a83565b5001611d5c8154613d27565b9055898c5260058552868c20611d738c8254613c04565b905560018201809211611e355750868b5260088452858b20898c528452858b2055845163a9059cbb60e01b81526001600160a01b0390921690820190815260208101899052909792919081908990819060400103818c8b5af1978815611e2b577fba55e0b7c0eec6a9457d75ceff108c5e6d141dbaf5f124e414386b64194ebfa995969798611e0e575b508351928352820152a46001815580f35b611e2490823d84116105a95761059a8183613a9f565b5089611dfd565b84513d8b823e3d90fd5b634e487b7160e01b8c52601183528bfd5b82601a606492878a519362461bcd60e51b85528401528201527f496e73756666696369656e7420746f6b656e2062616c616e63650000000000006044820152fd5b604b89101580611ecb575b15611eae57505081611ea5606492613f01565b16041699611cfd565b91509b9150605f871015611ec3575b50611cfd565b9a508c611ebd565b50605f8910611e92565b50604b8910611ce6565b50885162461bcd60e51b81528086018890526018818f01527f4e6f20656c696769626c652072657761726420626174636800000000000000006044820152606490fd5b90508582813d8311611f50575b611f398183613a9f565b81010312611f4c57611cc9915190611cbf565b8c80fd5b503d611f2f565b88513d8f823e3d90fd5b611f789150823d84116108db576108cc8183613a9f565b8f611c96565b8a51903d90823e3d90fd5b634e487b7160e01b8e52601185528c8efd5b885162461bcd60e51b8152808601889052600d818f01526c139bc81cdb1bdd1cc81cdbdb19609a1b6044820152606490fd5b90508681813d8311611ff7575b611fe48183613a9f565b81010312611ff357518e611c42565b8d80fd5b503d611fda565b90508581813d8311612024575b6120158183613a9f565b81010312611f4c57518d611c1f565b503d61200b565b865162461bcd60e51b81528084018690526015818d015274506f6f6c20696e20696e76616c696420737461746560581b6044820152606490fd5b90915061207757600714158d80611bf7565b634e487b7160e01b8d52602184528b8dfd5b50600281141591508d611bf1565b634e487b7160e01b8e52602185528c8efd5b875162461bcd60e51b81528085018790526022818e01527f506f6f6c206e6f7420696e20416c6c5072697a6573436c61696d656420737461604482015261746560f01b6064820152608490fd5b6008811015612077578381148015612117575b61211290613e54565b611bda565b5060068114612109565b6121389150873d89116105a95761059a8183613a9f565b8e611bc2565b6121559150863d8811610a6457610a568183613a9f565b8d611b9f565b855162461bcd60e51b81528083018590526010818b01526f2737ba103837b7b61031b932b0ba37b960811b6044820152606490fd5b6121a8919250833d85116108db576108cc8183613a9f565b908a611b43565b85513d8b823e3d90fd5b6121d09150843d86116105a95761059a8183613a9f565b8b611b1b565b9190503461095a578260031936011261095a576121f16139d0565b8351638da5cb5b60e01b815260209460243593909290916001600160a01b039190878185817f000000000000000000000000000000000000000000000000000000000000000087165afa9081156122ea5761225791849189916122d35750163314613af6565b16908161227857505050612275925081808092335af161050c614491565b80f35b825163a9059cbb60e01b8152339181019182526020820194909452929391928592859291839190829060400103925af190811561092757506122b957505080f35b816122cf92903d106105a95761059a8183613a9f565b5080f35b610b7891508a3d8c116108db576108cc8183613a9f565b85513d89823e3d90fd5b50913461099e578160031936011261099e5761230e6139d0565b6001600160a01b0316808252602084905282822054602435929190831015612392579183826116439461234694528660205220613a83565b508054600182015460028301546003840154969093015494516001600160801b0390921682526020820152604081019190915260608101939093526080830191909152819060a0820190565b835162461bcd60e51b81526020818701526013602482015272092dcecc2d8d2c840c4c2e8c6d040d2dcc8caf606b1b6044820152606490fd5b50503461095a578160031936011261095a5760209060ff60095460081c1690519015158152f35b50503461095a57606036600319011261095a5761240d6139d0565b6124156139eb565b6001600160a01b03604435818116939084900361245b57928492826020979360ff9616845260038852848420911683528652828220908252855220541690519015158152f35b8580fd5b82843461099e578060031936011261099e575061247a61487d565b82519182526020820152f35b50503461095a578060031936011261095a5760ff816020936124a66139d0565b6124ae6139eb565b6001600160a01b0391821683526002875283832091168252855220549151911615158152f35b50503461095a57602036600319011261095a5760209160ff9082906001600160a01b036124ff6139d0565b1681526013855220541690519015158152f35b50503461095a578160031936011261095a57602090600c549051908152f35b50503461095a578060031936011261095a5760ff816020936125516139d0565b6125596139eb565b6001600160a01b0391821683526012875283832091168252855220549151911615158152f35b50503461095a57602036600319011261095a5760209181906001600160a01b036125a76139d0565b1681526005845220549051908152f35b5091903461095a576125c836613a4e565b8351633247c33f60e21b81523387820152909392602092916001600160a01b03919084816024817f000000000000000000000000000000000000000000000000000000000000000087165afa90811561273b5783929161262f918a91612745575b506146e3565b61263d60ff6009541661472f565b1690845163c19d93fb60e01b815284818a81865afa90811561273b57889161271e575b50600881101561270b57808961267e92149081156109b35750613e54565b8187526012845284872092169182875283526126a060ff858820541615614774565b8552601282528285208186528252828520600160ff19825416179055600a840293808504600a14901517156126f8576126f2939291600d9186525283206126e8828254613bf7565b9055601054613bf7565b60105580f35b634e487b7160e01b855260118652602485fd5b634e487b7160e01b885260218952602488fd5b6127359150853d8711610a6457610a568183613a9f565b38612660565b86513d8a823e3d90fd5b61275c9150873d89116105a95761059a8183613a9f565b38612629565b50913461099e57602036600319011261099e5761277d6139d0565b6001600160a01b031681526020838152828220546005909152828220549192909183836127c2575b50606094506001600160801b038251941684526020840152820152f35b909350846020528181206000198401918483116127fa5750606095506001600160801b03916127f091613a83565b50541692386127a5565b634e487b7160e01b815260118752602490fd5b5091903461095a578060031936011261095a576128286139d0565b906024356001600160801b0390818116809103612978578251638da5cb5b60e01b81526020946001600160a01b039186818a817f000000000000000000000000000000000000000000000000000000000000000087165afa90811561273b5761289c9184918a91610f565750163314613af6565b16936128a9851515613b2e565b848652868152838620541561293f5784865286815283862054600019810190811161292c57612903908798877f855a15ff4d8c529cec3c0519246d95132462d14297706f75d079d8fc755edee99899528352858920613a83565b5080546fffffffffffffffffffffffffffffffff1981168417909155845193168352820152a280f35b634e487b7160e01b875260118852602487fd5b8660649185519162461bcd60e51b835282015260146024820152732737903130ba31b432b9903337b9103a37b5b2b760611b6044820152fd5b8480fd5b50913461099e578160031936011261099e576129966139d0565b6001600160a01b0316815260208390528181208054602435929083101561099e57506116439161234691613a83565b50503461095a57602036600319011261095a576020906115e46129e66139d0565b6147f8565b50503461095a578160031936011261095a5760145490516001600160a01b039091168152602090f35b5050602036600319011261095a5781612a2b6139d0565b91612a34613cd1565b612a3d836148bd565b6001600160a01b03928316808352600160205281832060028101805492959192918216158015612b05575b612a7190614439565b612a968354926001600160801b0392838516918215612ad7575b505082341690614476565b16906001600160801b03191617905551913483527ff9496ae049978b5594df600f32f9487312cc8eb4e61ae005bf4c36768161c04160203394a46001815580f35b6001600160a01b03191690556003850180546001600160a81b0319163360ff60a01b19161790553880612a8b565b5082546001600160801b031615612a68565b5091903461095a57612b2836613a4e565b9290612b32613cd1565b6001600160a01b03908116928190612b4b851515613b2e565b612b56861515613b6a565b612b5f816148bd565b169182865260209160018352818720906003820160ff815460a01c16612cb0578488612bcf9a9b896002870195865416148015612c9e575b612ba090614439565b86516323b872dd60e01b8152339181019182523060208301526040820192909252909a8b918291606090910190565b03818d8b5af1988915612c94577ff9496ae049978b5594df600f32f9487312cc8eb4e61ae005bf4c36768161c04196979899612c77575b50612c2c8354926001600160801b0392838516918215612c49575b5050828b1690614476565b16906001600160801b031916179055519485523394a46001815580f35b80546001600160a01b0319168c17905580546001600160a81b0319163360ff60a01b19161790553880612c21565b612c8d90863d88116105a95761059a8183613a9f565b5038612c06565b84513d8c823e3d90fd5b5085546001600160801b031615612b97565b835162461bcd60e51b8152808b01869052601860248201527f436c61696d696e6720616c7265616479207374617274656400000000000000006044820152606490fd5b50503461095a57602036600319011261095a57611643612d116139d0565b6001600160a01b038116845260056020528284205490612d3090613d36565b9384821115612d615750612d448482613c04565b925b51938493846040919493926060820195825260208201520152565b92612d46565b50503461095a578160031936011261095a5760a09060095490600a54600b549180519360ff81161515855260ff8160081c1615156020860152600180871b039060101c169084015260608301526080820152f35b50503461095a578160031936011261095a57602090600a549051908152f35b5091903461095a578160031936011261095a57612df5613cd1565b6009549060ff8260081c16156130ff576001600160a01b039160101c8216156130c657600a54918215613083573384526020600d81528285205491600e8252612e418487205484613c04565b94851561304b57338752600f835284872054612e5b6147c0565b9080612ff0575b5050670de0b6b3a76400008602670de0b6b3a763ffff19878204016111e85790612e8b91613e95565b928315612fb457600b548411612f7157612f0e969783928592338b52600e8552878b2055600f845242878b2055612ec488601154613bf7565b601155612ed383600b54613c04565b600b55600954875163a9059cbb60e01b81523393810193845260208401949094529298899360101c919091169183918b918391604090910190565b03925af19485156115ac577f5260f9fc34cca96c4a0659d67cdc5cd13ecc75159bee5b6ad0d7ce3e1c081f5f9495612f54575b5082519485528401523392a26001815580f35b612f6a90823d84116105a95761059a8183613a9f565b5038612f41565b845162461bcd60e51b8152808901849052601b60248201527f496e73756666696369656e74207265776172642062616c616e636500000000006044820152606490fd5b845162461bcd60e51b81528089018490526016602482015275151bdad95b88185b5bdd5b9d081d1bdbc81cdb585b1b60521b6044820152606490fd5b1015612ffd573880612e62565b845162461bcd60e51b8152808901849052602260248201527f4d757374207761697420666f72206e65787420636f6f6c646f776e20706572696044820152611bd960f21b6064820152608490fd5b845162461bcd60e51b815280890184905260126024820152714e6f20706f696e747320746f20636c61696d60701b6044820152606490fd5b815162461bcd60e51b8152602081870152601760248201527f436f6e76657273696f6e2072617465206e6f74207365740000000000000000006044820152606490fd5b5162461bcd60e51b8152602081850152601460248201527314995dd85c99081d1bdad95b881b9bdd081cd95d60621b6044820152606490fd5b5162461bcd60e51b81526020818501526011602482015270436c61696d73206e6f742061637469766560781b6044820152606490fd5b50503461095a57602036600319011261095a5760209181906001600160a01b0361315d6139d0565b168152600e845220549051908152f35b50503461095a578160031936011261095a576020906010549051908152f35b503461091c578160031936011261091c576131a56139d0565b8251638da5cb5b60e01b8152909160209160243591906001600160a01b0390848184817f000000000000000000000000000000000000000000000000000000000000000086165afa908882156133325783613215889588956132b19c9895613251959161331b5750163314613af6565b61321d613cd1565b88169761322b891515613b2e565b613236841515613b6a565b888b526005855261324c84878d20541015613c11565b613d36565b878a5260058452848a205481811115613310576132719161112a91613c04565b86895260058352838920613286838254613c04565b9055835163a9059cbb60e01b8152339181019182526020820192909252909687918291604090910190565b038189885af19485156113f1577f47019f29e196958fc72e493f0a3c7974aa750d68481a13c3b3592dc91a61a72794956132f3575b5051908152a26001815580f35b61330990843d86116105a95761059a8183613a9f565b50386132e6565b50506132718961112a565b610b789150883d8a116108db576108cc8183613a9f565b8851903d90823e3d90fd5b503461091c578260031936011261091c578151638da5cb5b60e01b81526001600160a01b0360208284817f000000000000000000000000000000000000000000000000000000000000000085165afa8015610b7e576133a59286916114c95750163314613af6565b6009549160ff8360081c166133ed5761ff001983166101001760095542600c55837fc28330c7e4a96d93611e91e2be5c02356b3881b39c76d8f5e0b6c9c3377f60788180a180f35b906020606492519162461bcd60e51b83528201526015602482015274436c61696d7320616c72656164792061637469766560581b6044820152fd5b503461091c57602036600319011261091c5760209282916001600160a01b0361344f6139d0565b168252845220549051908152f35b50503461095a578060031936011261095a576020906115e461347d6139d0565b6134856139eb565b90614513565b5082903461095a57602036600319011261095a576134a76139d0565b90829160018060a01b03168352600d6020526134cf84842054600e6020528585205490613c04565b92831591821580613546575b6134ef575b50505082519182526020820152f35b90919250670de0b6b3a76400009283850293858504141715613533575050600a5461351991613e95565b600b5480821161352b575b80806134e0565b905083613524565b634e487b7160e01b825260119052602490fd5b50600a5415156134db565b503461091c57602036600319011261091c57359160065483101561099e575061357b602092613a01565b905491519160018060a01b039160031b1c168152f35b50503461095a578160031936011261095a5760209060ff6009541690519015158152f35b50503461095a578160031936011261095a576020906011549051908152f35b503461091c57602080600319360112610aa5576135ef6139d0565b8351633247c33f60e21b815233848201526001600160a01b039183826024817f000000000000000000000000000000000000000000000000000000000000000087165afa9182156138b257839261364c9189916138ec57506146e3565b61365a60ff6009541661472f565b1692845163c19d93fb60e01b815283818381885afa9081156138b25787916138cf575b5060088110156138bc57808261369b92149081156109b35750613e54565b838652601383526136b260ff868820541615614774565b83865260138352848620805460ff19166001179055845163898b36db60e01b815283818381885afa9081156138b2578791613881575b508551631957f54360e31b815284818481895afa9081156105b0578891613854575b50606481029080820460641490151715613841579061372891613e95565b6064810361382a57506064935b85516321de360b60e21b815284818481855afa9081156105b057889161380d575b508360145416848115159283613801575b5050506137d4575b83908651928380926302d05d3f60e01b82525afa9081156137ca57916126f2959391600d9388916137ad575b501686525283206126e8828254613bf7565b6137c49150833d85116108db576108cc8183613a9f565b3861379b565b85513d88823e3d90fd5b938060011b90808204600214901517156137ee579361376f565b634e487b7160e01b875260118252602487fd5b16149050388481613767565b6138249150853d87116108db576108cc8183613a9f565b38613756565b604b1161383957604b93613735565b603293613735565b634e487b7160e01b885260118352602488fd5b90508481813d831161387a575b61386b8183613a9f565b81010312610f7857513861370a565b503d613861565b90508381813d83116138ab575b6138988183613a9f565b810103126138a75751386136e8565b8680fd5b503d61388e565b86513d89823e3d90fd5b634e487b7160e01b875260218252602487fd5b6138e69150843d8611610a6457610a568183613a9f565b3861367d565b61275c9150863d88116105a95761059a8183613a9f565b50503461095a578060031936011261095a57806020926139216139d0565b6139296139eb565b6001600160a01b0391821683526008865283832091168252845220549051908152f35b50503461095a578160031936011261095a57602090600b549051908152f35b8490843461091c57602036600319011261091c5760809281906001600160a01b036139946139d0565b16815260016020522060018154910154906001600160801b0381168452841c602084015263ffffffff918282169084015260201c166060820152f35b600435906001600160a01b03821682036139e657565b600080fd5b602435906001600160a01b03821682036139e657565b600654811015613a385760066000527ff652222313e28459528d920b65115c16c04f3efc82aaedc97be59f3f377c0d3f0190600090565b634e487b7160e01b600052603260045260246000fd5b60609060031901126139e6576001600160a01b039060043582811681036139e6579160243590811681036139e6579060443590565b8054821015613a38576000526005602060002091020190600090565b90601f8019910116810190811067ffffffffffffffff821117613ac157604052565b634e487b7160e01b600052604160045260246000fd5b908160209103126139e657516001600160a01b03811681036139e65790565b15613afd57565b60405162461bcd60e51b81526020600482015260096024820152682737ba1037bbb732b960b91b6044820152606490fd5b15613b3557565b60405162461bcd60e51b815260206004820152600d60248201526c24b73b30b634b2103a37b5b2b760991b6044820152606490fd5b15613b7157565b60405162461bcd60e51b815260206004820152601d60248201527f416d6f756e74206d7573742062652067726561746572207468616e20300000006044820152606490fd5b81810292918115918404141715613bc957565b634e487b7160e01b600052601160045260246000fd5b908160209103126139e6575180151581036139e65790565b91908201809211613bc957565b91908203918211613bc957565b15613c1857565b60405162461bcd60e51b8152602060048201526014602482015273496e73756666696369656e742062616c616e636560601b6044820152606490fd5b15613c5b57565b60405162461bcd60e51b815260206004820152604260248201527f416d6f756e74206578636565647320617661696c61626c652062616c616e636560448201527f20616674657220726573657276696e6720756e636c61696d6564207265776172606482015261647360f01b608482015260a490fd5b600260005414613ce2576002600055565b60405162461bcd60e51b815260206004820152601f60248201527f5265656e7472616e637947756172643a207265656e7472616e742063616c6c006044820152606490fd5b6000198114613bc95760010190565b6001600160a01b03166000908152600460205260408120805490929190815b818110613d63575090925050565b613d6d8186613a83565b50613d816002820154600383015490613c04565b9081613d98575b5050613d9390613d27565b613d55565b93613db5613dbb926001600160801b03613d939597541690613bb6565b90613bf7565b929038613d88565b15613dca57565b60405162461bcd60e51b815260206004820152600c60248201526b125b9d985b1a59081c1bdbdb60a21b6044820152606490fd5b15613e0557565b60405162461bcd60e51b815260206004820152600f60248201526e105b1c9958591e4818db185a5b5959608a1b6044820152606490fd5b908160209103126139e6575160088110156139e65790565b15613e5b57565b60405162461bcd60e51b8152602060048201526012602482015271141bdbdb081b9bdd0818dbdb5c1b195d195960721b6044820152606490fd5b8115613e9f570490565b634e487b7160e01b600052601260045260246000fd5b15613ebc57565b60405162461bcd60e51b815260206004820152601760248201527f496e73756666696369656e7420736c6f742073616c65730000000000000000006044820152606490fd5b90604b6001600160801b0380931602918216918203613bc957565b15613f2357565b60405162461bcd60e51b81526020600482015260146024820152734e6f207265776172647320617661696c61626c6560601b6044820152606490fd5b6001600160a01b0316600090815260046020526040812080549392915b848110613f90575050509050600090600090565b613f9a8183613a83565b506001810154841180613fce575b613fbb5750613fb690613d27565b613f7c565b915093506001600160801b039150541690565b506003810154600282015411613fa8565b60408051633247c33f60e21b81526001600160a01b0392831660048083018290527f000000000000000000000000000000000000000000000000000000000000000085169594929091602091602490838183818c5afa90811561428d5760009161441c575b501561432e5785516302d05d3f60e01b815283818681865afa90811561428d576000916143ff575b50826000526003845285876000209116600052835285600020858816600052835260ff86600020541661432e57855163c19d93fb60e01b815283818681865afa90811561428d576000916143e2575b5086516358ac12d760e11b815260009085818881885afa9081156143d85782916143bb575b501561438d5750600881101561434f57600681145b15908115614378575b8115614363575b811561433b575b5061432e57855163898b36db60e01b815283818681865afa90811561428d57600091614301575b508651631957f54360e31b815284818781875afa9081156142f6576000916142c9575b5080156142ba57606481029081046064036142a6579061417591613e95565b97603289106142985783859188519687809263188c824d60e11b82525afa94851561428d5760009561426e575b5083949587519687948593630218dd2360e51b8552840152165afa9283156142645750600092614233575b50506141d891613f5f565b90506001600160801b039182821690811561422a57604b81101561420957505060016001607f1b03915060011c1690565b605f111561422457508161421e606492613f01565b16041690565b91505090565b50505050600090565b81819392933d831161425d575b61424a8183613a9f565b8101031261099e5750516141d8386141cd565b503d614240565b513d6000823e3d90fd5b84955061428790853d87116108db576108cc8183613a9f565b946141a2565b87513d6000823e3d90fd5b505050505050505050600090565b82601187634e487b7160e01b600052526000fd5b50505050505050505050600090565b908582813d83116142ef575b6142df8183613a9f565b8101031261099e57505138614156565b503d6142d5565b88513d6000823e3d90fd5b908482813d8311614327575b6143178183613a9f565b8101031261099e57505138614133565b503d61430d565b5050505050505050600090565b9050600881101561434f576007143861410c565b50634e487b7160e01b600090815260218552fd5b9050600881101561434f576002811490614105565b9050600881101561434f5760058114906140fe565b60088210156143a95750848114806140f55750600681146140f5565b634e487b7160e01b8152602186529050fd5b6143d29150863d88116105a95761059a8183613a9f565b386140e0565b89513d84823e3d90fd5b6143f99150843d8611610a6457610a568183613a9f565b386140bb565b6144169150843d86116108db576108cc8183613a9f565b3861406c565b6144339150843d86116105a95761059a8183613a9f565b38614044565b1561444057565b60405162461bcd60e51b815260206004820152600e60248201526d0a8ded6cadc40dad2e6dac2e8c6d60931b6044820152606490fd5b9190916001600160801b0380809416911601918211613bc957565b3d156144cc573d9067ffffffffffffffff8211613ac157604051916144c0601f8201601f191660200184613a9f565b82523d6000602084013e565b606090565b156144d857565b60405162461bcd60e51b8152602060048201526013602482015272115512081d1c985b9cd9995c8819985a5b1959606a1b6044820152606490fd5b60018060a01b038091169160008381526020936001855260409485832054946001600160801b0386161580156146c8575b614685578651630214865d60e21b81529416600485018190528185602481865afa9485156146be57849561468f575b50841561468557865163d17d135960e01b80825260048201839052908381602481885afa90811561467b57869161464e575b501561463757906024839289519586938492835260048301525afa95861561462e575082956145fe575b5050838211156145f757506145f1926145e791613c04565b9060801c90613bb6565b60021c90565b9250505090565b9080929550813d8311614627575b6146168183613a9f565b81010312610aa557519238806145cf565b503d61460c565b513d84823e3d90fd5b50505050509061464b925060801c90613bb6565b90565b90508381813d8311614674575b6146658183613a9f565b8101031261245b5751386145a5565b503d61465b565b89513d88823e3d90fd5b5050509250505090565b9094508181813d83116146b7575b6146a78183613a9f565b81010312610aa557519338614573565b503d61469d565b87513d86823e3d90fd5b50600282528684208186168552825260ff8785205416614544565b156146ea57565b60405162461bcd60e51b815260206004820152601a60248201527f43616c6c6572206e6f74206120706f6f6c20636f6e74726163740000000000006044820152606490fd5b1561473657565b60405162461bcd60e51b8152602060048201526016602482015275506f696e74732073797374656d20696e61637469766560501b6044820152606490fd5b1561477b57565b60405162461bcd60e51b815260206004820152601860248201527f506f696e747320616c726561647920616c6c6f636174656400000000000000006044820152606490fd5b600c5480156147f25762093a80806147d88342613c04565b04818102918183041490151715613bc95761464b91613bf7565b50600090565b60ff60095460081c16158015614873575b6147f2576001600160a01b03166000908152600f6020526040812054801561485b576148336147c0565b80911061485b5762093a80810180911161485f578042101561485b5761464b91504290613c04565b5090565b634e487b7160e01b82526011600452602482fd5b50600c5415614809565b60ff60095460081c161580156148b3575b6148ab5761489a6147c0565b9062093a808201808311613bc95790565b600090600090565b50600c541561488e565b604051633247c33f60e21b81526001600160a01b03918216600482015290602090829060249082907f0000000000000000000000000000000000000000000000000000000000000000165afa801561494057614920916000916149225750613dc3565b565b61493a915060203d81116105a95761059a8183613a9f565b38611b1b565b6040513d6000823e3d90fdfea26469706673582212204e2652342da5ad09438bdced375a98a11a02447b7b0040014710c36d38b156bc64736f6c63430008130033",
  "linkReferences": {},
  "deployedLinkReferences": {}
}