{
  "_format": "hh-sol-artifact-1",
  "contractName": "RewardsFlywheel",
  "sourceName": "contracts/RewardsFlywheel.sol",
  "abi": [
    {
      "inputs": [
        {
          "internalType": "address",
          "name": "_protocolManager",
          "type": "address"
        }
      ],
      "stateMutability": "nonpayable",
      "type": "constructor"
    },
    {
      "inputs": [],
      "name": "AlreadyClaimed",
      "type": "error"
    },
    {
      "inputs": [],
      "name": "InsufficientRewards",
      "type": "error"
    },
    {
      "inputs": [],
      "name": "InsufficientSlotSales",
      "type": "error"
    },
    {
      "inputs": [],
      "name": "InvalidAmount",
      "type": "error"
    },
    {
      "inputs": [],
      "name": "InvalidPool",
      "type": "error"
    },
    {
      "inputs": [],
      "name": "InvalidState",
      "type": "error"
    },
    {
      "inputs": [],
      "name": "InvalidToken",
      "type": "error"
    },
    {
      "inputs": [],
      "name": "NoRewards",
      "type": "error"
    },
    {
      "inputs": [],
      "name": "NoSlotsSold",
      "type": "error"
    },
    {
      "inputs": [],
      "name": "NotCreator",
      "type": "error"
    },
    {
      "inputs": [],
      "name": "NotDepositor",
      "type": "error"
    },
    {
      "inputs": [],
      "name": "NotEligible",
      "type": "error"
    },
    {
      "inputs": [],
      "name": "NotOwner",
      "type": "error"
    },
    {
      "inputs": [],
      "name": "TokenMismatch",
      "type": "error"
    },
    {
      "inputs": [],
      "name": "TransferFailed",
      "type": "error"
    },
    {
      "anonymous": false,
      "inputs": [
        {
          "indexed": true,
          "internalType": "address",
          "name": "token",
          "type": "address"
        },
        {
          "indexed": false,
          "internalType": "uint128",
          "name": "oldAmount",
          "type": "uint128"
        },
        {
          "indexed": false,
          "internalType": "uint128",
          "name": "newAmount",
          "type": "uint128"
        }
      ],
      "name": "CreatorRewardAmountUpdated",
      "type": "event"
    },
    {
      "anonymous": false,
      "inputs": [
        {
          "indexed": true,
          "internalType": "address",
          "name": "pool",
          "type": "address"
        },
        {
          "indexed": true,
          "internalType": "address",
          "name": "creator",
          "type": "address"
        },
        {
          "indexed": true,
          "internalType": "address",
          "name": "token",
          "type": "address"
        },
        {
          "indexed": false,
          "internalType": "uint256",
          "name": "amount",
          "type": "uint256"
        },
        {
          "indexed": false,
          "internalType": "uint256",
          "name": "fillPercentage",
          "type": "uint256"
        }
      ],
      "name": "CreatorRewardsClaimed",
      "type": "event"
    },
    {
      "anonymous": false,
      "inputs": [
        {
          "indexed": true,
          "internalType": "address",
          "name": "token",
          "type": "address"
        },
        {
          "indexed": false,
          "internalType": "uint256",
          "name": "amount",
          "type": "uint256"
        },
        {
          "indexed": false,
          "internalType": "uint128",
          "name": "rewardAmount",
          "type": "uint128"
        }
      ],
      "name": "CreatorRewardsDeposited",
      "type": "event"
    },
    {
      "anonymous": false,
      "inputs": [
        {
          "indexed": true,
          "internalType": "address",
          "name": "pool",
          "type": "address"
        },
        {
          "indexed": false,
          "internalType": "uint256",
          "name": "rewardPerSlot",
          "type": "uint256"
        },
        {
          "indexed": false,
          "internalType": "uint256",
          "name": "totalEligibleSlots",
          "type": "uint256"
        }
      ],
      "name": "RewardPerSlotCalculated",
      "type": "event"
    },
    {
      "anonymous": false,
      "inputs": [
        {
          "indexed": true,
          "internalType": "address",
          "name": "pool",
          "type": "address"
        },
        {
          "indexed": true,
          "internalType": "address",
          "name": "user",
          "type": "address"
        },
        {
          "indexed": true,
          "internalType": "address",
          "name": "token",
          "type": "address"
        },
        {
          "indexed": false,
          "internalType": "uint256",
          "name": "amount",
          "type": "uint256"
        }
      ],
      "name": "RewardsClaimed",
      "type": "event"
    },
    {
      "anonymous": false,
      "inputs": [
        {
          "indexed": true,
          "internalType": "address",
          "name": "pool",
          "type": "address"
        },
        {
          "indexed": true,
          "internalType": "address",
          "name": "token",
          "type": "address"
        },
        {
          "indexed": false,
          "internalType": "uint256",
          "name": "amount",
          "type": "uint256"
        },
        {
          "indexed": true,
          "internalType": "address",
          "name": "depositor",
          "type": "address"
        }
      ],
      "name": "RewardsDeposited",
      "type": "event"
    },
    {
      "anonymous": false,
      "inputs": [
        {
          "indexed": true,
          "internalType": "address",
          "name": "pool",
          "type": "address"
        },
        {
          "indexed": true,
          "internalType": "address",
          "name": "token",
          "type": "address"
        },
        {
          "indexed": false,
          "internalType": "uint256",
          "name": "amount",
          "type": "uint256"
        },
        {
          "indexed": true,
          "internalType": "address",
          "name": "depositor",
          "type": "address"
        }
      ],
      "name": "RewardsWithdrawn",
      "type": "event"
    },
    {
      "inputs": [
        {
          "internalType": "address",
          "name": "pool",
          "type": "address"
        },
        {
          "internalType": "address",
          "name": "token",
          "type": "address"
        }
      ],
      "name": "claimCreatorRewards",
      "outputs": [],
      "stateMutability": "nonpayable",
      "type": "function"
    },
    {
      "inputs": [
        {
          "internalType": "address",
          "name": "pool",
          "type": "address"
        }
      ],
      "name": "claimRewards",
      "outputs": [],
      "stateMutability": "nonpayable",
      "type": "function"
    },
    {
      "inputs": [
        {
          "internalType": "address",
          "name": "",
          "type": "address"
        },
        {
          "internalType": "address",
          "name": "",
          "type": "address"
        }
      ],
      "name": "creatorHasClaimed",
      "outputs": [
        {
          "internalType": "bool",
          "name": "",
          "type": "bool"
        }
      ],
      "stateMutability": "view",
      "type": "function"
    },
    {
      "inputs": [
        {
          "internalType": "uint256",
          "name": "",
          "type": "uint256"
        }
      ],
      "name": "creatorRewardTokens",
      "outputs": [
        {
          "internalType": "address",
          "name": "",
          "type": "address"
        }
      ],
      "stateMutability": "view",
      "type": "function"
    },
    {
      "inputs": [
        {
          "internalType": "address",
          "name": "",
          "type": "address"
        }
      ],
      "name": "creatorRewards",
      "outputs": [
        {
          "internalType": "uint128",
          "name": "rewardAmount",
          "type": "uint128"
        },
        {
          "internalType": "address",
          "name": "token",
          "type": "address"
        },
        {
          "internalType": "uint256",
          "name": "totalDeposited",
          "type": "uint256"
        }
      ],
      "stateMutability": "view",
      "type": "function"
    },
    {
      "inputs": [
        {
          "internalType": "address",
          "name": "token",
          "type": "address"
        },
        {
          "internalType": "uint256",
          "name": "amount",
          "type": "uint256"
        },
        {
          "internalType": "uint128",
          "name": "rewardAmountPerPool",
          "type": "uint128"
        }
      ],
      "name": "depositCreatorRewards",
      "outputs": [],
      "stateMutability": "nonpayable",
      "type": "function"
    },
    {
      "inputs": [
        {
          "internalType": "address",
          "name": "pool",
          "type": "address"
        },
        {
          "internalType": "address",
          "name": "token",
          "type": "address"
        },
        {
          "internalType": "uint256",
          "name": "amount",
          "type": "uint256"
        }
      ],
      "name": "depositERC20Rewards",
      "outputs": [],
      "stateMutability": "nonpayable",
      "type": "function"
    },
    {
      "inputs": [
        {
          "internalType": "address",
          "name": "pool",
          "type": "address"
        }
      ],
      "name": "depositNativeRewards",
      "outputs": [],
      "stateMutability": "payable",
      "type": "function"
    },
    {
      "inputs": [
        {
          "internalType": "address",
          "name": "token",
          "type": "address"
        },
        {
          "internalType": "uint256",
          "name": "amount",
          "type": "uint256"
        }
      ],
      "name": "emergencyWithdraw",
      "outputs": [],
      "stateMutability": "nonpayable",
      "type": "function"
    },
    {
      "inputs": [
        {
          "internalType": "address",
          "name": "pool",
          "type": "address"
        },
        {
          "internalType": "address",
          "name": "user",
          "type": "address"
        }
      ],
      "name": "getClaimableReward",
      "outputs": [
        {
          "internalType": "uint256",
          "name": "",
          "type": "uint256"
        }
      ],
      "stateMutability": "view",
      "type": "function"
    },
    {
      "inputs": [
        {
          "internalType": "address",
          "name": "pool",
          "type": "address"
        },
        {
          "internalType": "address",
          "name": "token",
          "type": "address"
        }
      ],
      "name": "getCreatorClaimableAmount",
      "outputs": [
        {
          "internalType": "uint256",
          "name": "",
          "type": "uint256"
        }
      ],
      "stateMutability": "view",
      "type": "function"
    },
    {
      "inputs": [
        {
          "internalType": "address",
          "name": "token",
          "type": "address"
        }
      ],
      "name": "getCreatorRewardConfig",
      "outputs": [
        {
          "internalType": "uint128",
          "name": "rewardAmount",
          "type": "uint128"
        },
        {
          "internalType": "uint256",
          "name": "totalDeposited",
          "type": "uint256"
        },
        {
          "internalType": "address",
          "name": "tokenAddress",
          "type": "address"
        }
      ],
      "stateMutability": "view",
      "type": "function"
    },
    {
      "inputs": [],
      "name": "getCreatorRewardTokens",
      "outputs": [
        {
          "internalType": "address[]",
          "name": "",
          "type": "address[]"
        }
      ],
      "stateMutability": "view",
      "type": "function"
    },
    {
      "inputs": [
        {
          "internalType": "address",
          "name": "pool",
          "type": "address"
        }
      ],
      "name": "getRewardInfo",
      "outputs": [
        {
          "internalType": "uint256",
          "name": "totalDeposited",
          "type": "uint256"
        },
        {
          "internalType": "uint256",
          "name": "rewardPerSlot",
          "type": "uint256"
        },
        {
          "internalType": "uint256",
          "name": "totalEligibleSlots",
          "type": "uint256"
        },
        {
          "internalType": "uint256",
          "name": "claimedSlots",
          "type": "uint256"
        }
      ],
      "stateMutability": "view",
      "type": "function"
    },
    {
      "inputs": [
        {
          "internalType": "address",
          "name": "pool",
          "type": "address"
        },
        {
          "internalType": "address",
          "name": "user",
          "type": "address"
        }
      ],
      "name": "hasClaimed",
      "outputs": [
        {
          "internalType": "bool",
          "name": "",
          "type": "bool"
        }
      ],
      "stateMutability": "view",
      "type": "function"
    },
    {
      "inputs": [
        {
          "internalType": "address",
          "name": "",
          "type": "address"
        }
      ],
      "name": "poolRewards",
      "outputs": [
        {
          "internalType": "uint128",
          "name": "totalDeposited",
          "type": "uint128"
        },
        {
          "internalType": "uint128",
          "name": "rewardPerSlot",
          "type": "uint128"
        },
        {
          "internalType": "uint32",
          "name": "totalEligibleSlots",
          "type": "uint32"
        },
        {
          "internalType": "uint32",
          "name": "claimedSlots",
          "type": "uint32"
        },
        {
          "internalType": "uint128",
          "name": "totalClaimedAmount",
          "type": "uint128"
        },
        {
          "internalType": "address",
          "name": "token",
          "type": "address"
        },
        {
          "internalType": "address",
          "name": "depositor",
          "type": "address"
        },
        {
          "internalType": "bool",
          "name": "rewardPerSlotCalculated",
          "type": "bool"
        }
      ],
      "stateMutability": "view",
      "type": "function"
    },
    {
      "inputs": [],
      "name": "protocolManager",
      "outputs": [
        {
          "internalType": "contract IProtocolManager",
          "name": "",
          "type": "address"
        }
      ],
      "stateMutability": "view",
      "type": "function"
    },
    {
      "inputs": [
        {
          "internalType": "address",
          "name": "token",
          "type": "address"
        },
        {
          "internalType": "uint128",
          "name": "newAmount",
          "type": "uint128"
        }
      ],
      "name": "updateCreatorRewardAmount",
      "outputs": [],
      "stateMutability": "nonpayable",
      "type": "function"
    },
    {
      "inputs": [
        {
          "internalType": "address",
          "name": "",
          "type": "address"
        },
        {
          "internalType": "address",
          "name": "",
          "type": "address"
        }
      ],
      "name": "userHasClaimed",
      "outputs": [
        {
          "internalType": "bool",
          "name": "",
          "type": "bool"
        }
      ],
      "stateMutability": "view",
      "type": "function"
    },
    {
      "inputs": [
        {
          "internalType": "address",
          "name": "pool",
          "type": "address"
        }
      ],
      "name": "withdrawDepositedRewards",
      "outputs": [],
      "stateMutability": "nonpayable",
      "type": "function"
    },
    {
      "stateMutability": "payable",
      "type": "receive"
    }
  ],
  "bytecode": "0x60a0346100b257601f61251438819003918201601f19168301916001600160401b038311848410176100b7578084926020946040528339810103126100b257516001600160a01b038116908190036100b257600160005580156100a15760805260405161244690816100ce823960805181818161092b01528181610baa01528181610f5001528181611461015281816116b201528181611d9d015261239c0152f35b60405162820f3560e61b8152600490fd5b600080fd5b634e487b7160e01b600052604160045260246000fdfe60806040818152600480361015610021575b505050361561001f57600080fd5b005b600092833560e01c90816306032d7414611b3f575080631967750514611aff57806321e91dea14611ad1578063293371be14611a75578063556cb5d71461156b57806363a568e1146118b4578063643ea5de146117a05780636e43ade2146116625780636e4e881c146116065780637e7449b6146115b957806389266f601461156b57806395ccea671461142457806397b55ffd14610efd5780639c1e1dd914610ca1578063a6ecbaf914610bd9578063ab4b669214610b95578063b2e5167e14610b60578063c413975e146108d5578063dd5aba4b146108345763ef5cfb8c0361001157346108305760208060031936011261082c57610120611ba4565b91610129611d1a565b6001600160a01b039283168086526001835284862080546001600160801b039592949291908616801561081c5785895260028452878920338a52845260ff888a20541661080c57875163c19d93fb60e01b8152848187818a5afa9081156104de578a916107df575b506008811015806107c0576005821480156107d3575b8181156107b0575b506107a05761078d57858114159081610781575b50610771578751638bc5328560e01b815290848287818a5afa9182156104de578a92610742575b508851634971381160e01b80825292868289818c5afa918215610738578c92610705575b50106106f5576003830180549260ff8460a01c1615610585575b50505050865195630214865d60e21b875233858801528387602481895afa96871561057b578997610548575b50861561053857875163d17d135960e01b80825233878301529085816024818b5afa90811561052e578b916104fd575b50156104e8578851908152338682015284816024818a5afa9081156104de578a916104ad575b508088111561049d576102c06102cb9189611d0d565b835460801c90611ca9565b60021c965b871561048d57868a5260028552888a20338b528552888a20600160ff19825416179055600183019182549163ffffffff8091168184891c160190811161047a5777ffffffffffffffffffffffffffffffff000000000000000061035b8c8460029897969567ffffffff000000008f968d1b169516918567ffffffff0000000019881617901c16612147565b8c1b1691640100000000600160c01b0319161717905501858282541680156000146103e1575088808080939794959697335af1610396612162565b50156103d35750907f5637d7f962248a7f05a7ab69eec6446e31f3d0a299d997f135a65c62806e789192915b541694519384523393a46001815580f35b86516312171d8360e31b8152fd5b885163a9059cbb60e01b815233968101968752602087019290925290948491869182908c90829060400103925af1938415610470577f5637d7f962248a7f05a7ab69eec6446e31f3d0a299d997f135a65c62806e789194610443575b506103c2565b61046290843d8611610469575b61045a8183611c22565b810190611c79565b503861043d565b503d610450565b87513d8a823e3d90fd5b634e487b7160e01b8c526011885260248cfd5b8851630fec21fd60e21b81528690fd5b8851637c75aa6f60e11b81528690fd5b90508481813d83116104d7575b6104c48183611c22565b810103126104d35751386102aa565b8980fd5b503d6104ba565b89513d8c823e3d90fd5b506104f7825460801c88611ca9565b966102d0565b90508581813d8311610527575b6105148183611c22565b81010312610523575138610284565b8a80fd5b503d61050a565b8a513d8d823e3d90fd5b8751637c75aa6f60e11b81528590fd5b9096508381813d8311610574575b6105608183611c22565b8101031261057057519538610254565b8880fd5b503d610556565b88513d8b823e3d90fd5b8a51631957f54360e31b815287818a818d5afa9081156106be578d916106c8575b508b5191825287828a818d5afa9182156106be578d9261068b575b508181111561067b5763ffffffff916105d991611d0d565b1691600185018363ffffffff198254161790558215610668576001600160801b031983820460801b161780855560801c9283156106585760ff60a01b1916600160a01b17905588519182528482015285907fc05844e085396ac5e7a1769a8c2e08b9e8ccee17624f17ca7a08689f41359c70908990a238808080610228565b8a5163162908e360e11b81528890fd5b634e487b7160e01b8c526012885260248cfd5b8b516365eb0c6760e11b81528990fd5b9091508781813d83116106b7575b6106a38183611c22565b810103126106b3575190386105c1565b8c80fd5b503d610699565b8c513d8f823e3d90fd5b90508781813d83116106ee575b6106df8183611c22565b810103126106b35751386105a6565b503d6106d5565b885163baf3f0f760e01b81528690fd5b9091508681813d8311610731575b61071d8183611c22565b8101031261072d5751903861020e565b8b80fd5b503d610713565b8b513d8e823e3d90fd5b9091508481813d831161076a575b61075a8183611c22565b810103126104d3575190386101ea565b503d610750565b875163baf3f0f760e01b81528590fd5b600691501415386101c3565b634e487b7160e01b8a526021865260248afd5b895163baf3f0f760e01b81528790fd5b90506107c05760028214816101af565b634e487b7160e01b8b526021875260248bfd5b505089600782146101a7565b6107ff9150853d8711610805575b6107f78183611c22565b810190611c91565b38610191565b503d6107ed565b8751630c8d9eab60e31b81528590fd5b8751630fec21fd60e21b81528590fd5b8380fd5b8280fd5b5050346108d15760203660031901126108d1576101009160ff906001600160a01b0390839082610862611ba4565b16815260016020522090815491600181015492600383600284015416920154938651966001600160801b0392838116895260801c602089015263ffffffff808316828a01528260201c1660608901521c16608086015260a0850152811660c084015260a01c16151560e0820152f35b5080fd5b509190346108d15760603660031901126108d1576108f1611ba4565b90602435604435926001600160801b03808516809503610b5c578351638da5cb5b60e01b81526001600160a01b0395602093909184818b817f00000000000000000000000000000000000000000000000000000000000000008c165afa908115610af5579088918a91610b2f575b50163303610b1f578616958615610b0f578415610aff578115610aff5785516323b872dd60e01b815233818b019081523060208201526040810187905285908290819060600103818c8c5af18015610af557610ad8575b508688526003845285882091600183018281541615600014610ac25780546001600160a01b0319168917905582546001600160801b031916178255600684528588205460ff1615610a5d575b505b60028101805490858201809211610a4a577ff79a48d77c98c4632ba0bd92c1f853d15abb4c83ee0e422af98645c1e65eff9c97989950555416908351928352820152a280f35b634e487b7160e01b895260118a52602489fd5b60055468010000000000000000811015610aaf57806001610a819201600555611bd5565b819291549060031b9189831b921b191617905585875260068352848720600160ff1982541617905538610a02565b634e487b7160e01b895260418a52602489fd5b5082546001600160801b03191617825550610a04565b610aee90853d87116104695761045a8183611c22565b50386109b6565b87513d8b823e3d90fd5b855163162908e360e11b81528990fd5b855163c1ab6dc160e01b81528990fd5b85516330cd747160e01b81528990fd5b610b4f9150863d8811610b55575b610b478183611c22565b810190611c5a565b3861095f565b503d610b3d565b8580fd5b5050346108d157806003193601126108d157602090610b8e610b80611ba4565b610b88611bbf565b90611d70565b9051908152f35b5050346108d157816003193601126108d157517f00000000000000000000000000000000000000000000000000000000000000006001600160a01b03168152602090f35b828434610c9e5780600319360112610c9e579080519182906005549182855260208095018093600584527f036b6384b5eca791c62761152d0c79bb0604c104a5fb6f4eb0703f3154bb3db090845b818110610c815750505081610c3d910382611c22565b83519485948186019282875251809352850193925b828110610c6157505050500390f35b83516001600160a01b031685528695509381019392810192600101610c52565b82546001600160a01b031684529288019260019283019201610c27565b80fd5b5034610830576020918260031936011261082c57610cbd611ba4565b92610cc6611d1a565b60018060a01b03809416908186526001948582528387209460038601548281163303610eee57855163c19d93fb60e01b815284818481895afa908115610ee4578a91610ec7575b506008811015610eb45760058114908115610ea9575b5015610e75575b506001600160801b03808754168189890154881c169003818111610e625790600291169601908387848454168015600014610dd757508a808093508092335af1610d72612162565b5015610dc95750907fd715fae03bf6c4bf278c7b9f28932008df13c1fff57f3c4136ea069353a3904c92915b848952878352886003878220828155828b8201558260028201550155541693519485523394a4815580f35b85516312171d8360e31b8152fd5b885163a9059cbb60e01b8152339481019485526020850192909252909283919082908d90829060400103925af18015610e5857907fd715fae03bf6c4bf278c7b9f28932008df13c1fff57f3c4136ea069353a3904c94939291610e3b575b50610d9e565b610e5190843d86116104695761045a8183611c22565b5038610e35565b86513d8b823e3d90fd5b634e487b7160e01b8a526011835260248afd5b60a01c60ff1615610e9b578686015463ffffffff80821691851c1610610e9b5738610d2a565b845163baf3f0f760e01b8152fd5b600791501438610d23565b634e487b7160e01b8a526021835260248afd5b610ede9150853d8711610805576107f78183611c22565b38610d0d565b87513d8c823e3d90fd5b508451633cc50b4560e01b8152fd5b5034610830578160031936011261083057610f16611ba4565b610f1e611bbf565b610f26611d1a565b8351633247c33f60e21b81526001600160a01b0392831684820181905292946024939290916020907f000000000000000000000000000000000000000000000000000000000000000088169082818881855afa90811561141a578a916113fd575b50156113ee57818691855192838092630c7c6c4b60e31b8252898c8301525afa9081156111e05789916113d1575b50878116958633036113c157858a52878352848a20878b52835260ff858b2054166113b157845163c19d93fb60e01b815283818a818a5afa9081156112d8578b91611394575b50855163d0704cbd60e01b815284818b818b5afa90811561129f578c91611377575b50156113445760088110156113035760068103611334575b600881101590816113225760058114918215611315575b82156112f2575b50506112e257845163898b36db60e01b81529083828a818a5afa9182156112d8578b926112a9575b508551631957f54360e31b81529084828b818b5afa91821561129f578c92611270575b508115611260576064820291820460640361124f5750906110be91611cd2565b926032841061123f57881696878a5260038352848a209860018a01541615611231576002890198895490546001600160801b039182821680911061122157604b8710156111f9575060016001607f1b03915060011c16985b89156111ea57918392918a959492888d528184528c8a89822091528452878d20600160ff1982541617905561114c878254611d0d565b9055865163a9059cbb60e01b81526001600160a01b03909216908201908152602081019a909a52988990819060400103818c8b5af19788156111e0577fba55e0b7c0eec6a9457d75ceff108c5e6d141dbaf5f124e414386b64194ebfa9959697986111c3575b508351928352820152a46001815580f35b6111d990823d84116104695761045a8183611c22565b50386111b2565b84513d8b823e3d90fd5b508451630fec21fd60e21b8152fd5b9050605f8610156112195781611210606492611cf2565b16041698611116565b905098611116565b87516356e16dff60e11b81528490fd5b845163c1ab6dc160e01b8152fd5b84516365eb0c6760e11b81528890fd5b634e487b7160e01b8c5260118a528bfd5b865163a8b982ed60e01b81528a90fd5b9091508481813d8311611298575b6112888183611c22565b8101031261072d5751903861109e565b503d61127e565b87513d8e823e3d90fd5b9091508381813d83116112d1575b6112c18183611c22565b810103126105235751903861107b565b503d6112b7565b86513d8d823e3d90fd5b845163baf3f0f760e01b81528890fd5b909150611303576007143880611053565b50634e487b7160e01b8a526021885289fd5b506002811491508b61104c565b634e487b7160e01b8c5260218a52828cfd5b855163baf3f0f760e01b81528990fd5b600881101561130357888114158061136c575b1561103557855163baf3f0f760e01b81528990fd5b506006811415611357565b61138e9150853d87116104695761045a8183611c22565b3861101d565b6113ab9150843d8611610805576107f78183611c22565b38610ffb565b8451630c8d9eab60e31b81528890fd5b84516393687c0b60e01b81528890fd5b6113e89150823d8411610b5557610b478183611c22565b38610fb5565b835162820f3560e61b81528790fd5b6114149150833d85116104695761045a8183611c22565b38610f87565b85513d8c823e3d90fd5b503461083057816003193601126108305761143d611ba4565b8251638da5cb5b60e01b815260209391602435916001600160a01b039190868187817f000000000000000000000000000000000000000000000000000000000000000087165afa908115611561579083918991611544575b501633036115345786929116806114d257508180939495508091335af16114ba612162565b50156114c557505080f35b516312171d8360e31b8152fd5b835163a9059cbb60e01b815233958101958652602086019290925290938592859291839190829060400103925af190811561152b575061151157505080f35b8161152792903d106104695761045a8183611c22565b5080f35b513d85823e3d90fd5b505050516330cd747160e01b8152fd5b61155b9150883d8a11610b5557610b478183611c22565b38611495565b85513d8a823e3d90fd5b5050346108d157806003193601126108d15760ff8160209361158b611ba4565b611593611bbf565b6001600160a01b0391821683526002875283832091168252855220549151911615158152f35b50346108305781600319360112610830578160209360ff926115d9611ba4565b6115e1611bbf565b6001600160a01b03918216845291875283832091168252855220549151911615158152f35b5050346108d15760203660031901126108d1576060916001600160a01b039190819083611631611ba4565b168152600360205220906001600160801b038254169260016002840154930154169181519384526020840152820152f35b509190346108d157806003193601126108d15761167d611ba4565b90602435916001600160801b039283811680910361179c578251638da5cb5b60e01b81526001600160a01b03929060208189817f000000000000000000000000000000000000000000000000000000000000000088165afa908115611792579084918891611774575b501633036117645782169384156117545784865260036020528386209260018401541615611754577f855a15ff4d8c529cec3c0519246d95132462d14297706f75d079d8fc755edee994959650825492826001600160801b031985161790558351921682526020820152a280f35b835163c1ab6dc160e01b81528790fd5b83516330cd747160e01b81528790fd5b61178c915060203d8111610b5557610b478183611c22565b386116e6565b85513d89823e3d90fd5b8480fd5b50919060203660031901126108d1576117b7611ba4565b906117c0611d1a565b6117c982612372565b6001600160a01b039182168084526001602052818420600281018054929491929182161515806118a1575b6118915790829161182287959454926001600160801b0392838516918215611863575b505082341690612147565b16906001600160801b03191617905551913483527ff9496ae049978b5594df600f32f9487312cc8eb4e61ae005bf4c36768161c04160203394a46001815580f35b6001600160a01b03191690556003850180546001600160a81b0319163360ff60a01b19161790558980611817565b835163936bb5ad60e01b81528790fd5b506001600160801b0383541615156117f4565b509034610830576060366003190112610830576118cf611ba4565b906118d8611bbf565b90604435936118e5611d1a565b6001600160a01b03928316938415611a66578515611a5757806119088592612372565b1692838752600160205282872091600383019060ff825460a01c16610e9b57866002850193845416141580611a44575b611a365784516323b872dd60e01b81523391810191825230602083810191909152604083018a905290918290819060600103818c8b5af18015611a2c57611a0e575b506119a08354926001600160801b03928385169182156119e0575b505082891690612147565b16906001600160801b031916179055519283527ff9496ae049978b5594df600f32f9487312cc8eb4e61ae005bf4c36768161c04160203394a46001815580f35b80546001600160a01b0319168a17905580546001600160a81b0319163360ff60a01b19161790553880611995565b611a259060203d81116104695761045a8183611c22565b503861197a565b85513d8b823e3d90fd5b845163936bb5ad60e01b8152fd5b506001600160801b038454161515611938565b50905163162908e360e11b8152fd5b50905163c1ab6dc160e01b8152fd5b5050346108d15760203660031901126108d1576060916001600160a01b039190819083611aa0611ba4565b1681526003602052209060026001600160801b03835416936001840154169201549181519384526020840152820152f35b5050346108d157806003193601126108d157602090610b8e611af1611ba4565b611af9611bbf565b906121a2565b5034610830576020366003190112610830573591600554831015610c9e5750611b29602092611bd5565b905491519160018060a01b039160031b1c168152f35b849084346108305760203660031901126108305760809281906001600160a01b03611b68611ba4565b16815260016020522060018154910154906001600160801b0381168452841c602084015263ffffffff918282169084015260201c166060820152f35b600435906001600160a01b0382168203611bba57565b600080fd5b602435906001600160a01b0382168203611bba57565b600554811015611c0c5760056000527f036b6384b5eca791c62761152d0c79bb0604c104a5fb6f4eb0703f3154bb3db00190600090565b634e487b7160e01b600052603260045260246000fd5b90601f8019910116810190811067ffffffffffffffff821117611c4457604052565b634e487b7160e01b600052604160045260246000fd5b90816020910312611bba57516001600160a01b0381168103611bba5790565b90816020910312611bba57518015158103611bba5790565b90816020910312611bba57516008811015611bba5790565b81810292918115918404141715611cbc57565b634e487b7160e01b600052601160045260246000fd5b8115611cdc570490565b634e487b7160e01b600052601260045260246000fd5b90604b6001600160801b0380931602918216918203611cbc57565b91908203918211611cbc57565b600260005414611d2b576002600055565b60405162461bcd60e51b815260206004820152601f60248201527f5265656e7472616e637947756172643a207265656e7472616e742063616c6c006044820152606490fd5b60408051633247c33f60e21b81526001600160a01b039283166004808301829052939460209490926024907f000000000000000000000000000000000000000000000000000000000000000088169087818481855afa90811561213c5760009161211f575b5015611fb957868291875192838092630c7c6c4b60e31b825288888301525afa908115611ff557600091612102575b508360005282875287866000209116600052865260ff85600020541661203257845163c19d93fb60e01b815286818481875afa908115611ff5576000916120e5575b50855163d0704cbd60e01b815260009088818681895afa9081156120db5782916120be575b50156120905750600881101561205257600681145b1590811561207b575b8115612066575b811561203e575b5061203257845163898b36db60e01b81529286848481845afa938415611ff557908791600095612000575b50908391875194858092631957f54360e31b82525afa928315611ff557600093611fc6575b508215611fb95760648302928304606403611fa657505090611f0891611cd2565b9260328410611f9c5784600392166000525260002091600183015416158015611f85575b611f7e57604b811015611f4a57505460011c60016001607f1b031690565b605f1115611f71576064611f6b916001600160801b03928380925416611cf2565b16041690565b546001600160801b031690565b5050600090565b5060028201546001600160801b0383541611611f2c565b5050505050600090565b601190634e487b7160e01b600052526000fd5b5050505050505050600090565b90928782813d8311611fee575b611fdd8183611c22565b81010312610c9e5750519138611ee7565b503d611fd3565b86513d6000823e3d90fd5b9182819692963d831161202b575b6120188183611c22565b81010312610c9e57505192869083611ec2565b503d61200e565b50505050505050600090565b905060088110156120525760071438611e97565b50634e487b7160e01b600090815260218352fd5b90506008811015612052576002811490611e90565b90506008811015612052576005811490611e89565b60088210156120ac575082811480611e80575060068114611e80565b634e487b7160e01b8152602184529050fd5b6120d59150893d8b116104695761045a8183611c22565b38611e6b565b88513d84823e3d90fd5b6120fc9150873d8911610805576107f78183611c22565b38611e46565b6121199150873d8911610b5557610b478183611c22565b38611e04565b6121369150883d8a116104695761045a8183611c22565b38611dd5565b87513d6000823e3d90fd5b9190916001600160801b0380809416911601918211611cbc57565b3d1561219d573d9067ffffffffffffffff8211611c445760405191612191601f8201601f191660200184611c22565b82523d6000602084013e565b606090565b60018060a01b038091169160008381526020936001855260409485832054946001600160801b038616158015612357575b612314578651630214865d60e21b81529416600485018190528185602481865afa94851561234d57849561231e575b50841561231457865163d17d135960e01b80825260048201839052908381602481885afa90811561230a5786916122dd575b50156122c657906024839289519586938492835260048301525afa9586156122bd5750829561228d575b50508382111561228657506122809261227691611d0d565b9060801c90611ca9565b60021c90565b9250505090565b9080929550813d83116122b6575b6122a58183611c22565b8101031261082c575192388061225e565b503d61229b565b513d84823e3d90fd5b5050505050906122da925060801c90611ca9565b90565b90508381813d8311612303575b6122f48183611c22565b81010312610b5c575138612234565b503d6122ea565b89513d88823e3d90fd5b5050509250505090565b9094508181813d8311612346575b6123368183611c22565b8101031261082c57519338612202565b503d61232c565b87513d86823e3d90fd5b50600282528684208186168552825260ff87852054166121d3565b604051633247c33f60e21b81526001600160a01b03918216600482015290602090829060249082907f0000000000000000000000000000000000000000000000000000000000000000165afa908115612404576000916123e6575b50156123d557565b60405162820f3560e61b8152600490fd5b6123fe915060203d81116104695761045a8183611c22565b386123cd565b6040513d6000823e3d90fdfea2646970667358221220bf75bf2500c190a71ad523163945cd07f1b3adea0a2b510ffd03dc2e5bd4117064736f6c63430008130033",
  "linkReferences": {},
  "deployedLinkReferences": {}
}