{
  "_format": "hh-sol-artifact-1",
  "contractName": "SocialEngagementManager",
  "sourceName": "contracts/SocialEngagementManager.sol",
  "abi": [
    {
      "inputs": [
        {
          "internalType": "address",
          "name": "_signer",
          "type": "address"
        },
        {
          "internalType": "address",
          "name": "_protocolManager",
          "type": "address"
        }
      ],
      "stateMutability": "nonpayable",
      "type": "constructor"
    },
    {
      "inputs": [],
      "name": "InvalidShortString",
      "type": "error"
    },
    {
      "inputs": [
        {
          "internalType": "string",
          "name": "str",
          "type": "string"
        }
      ],
      "name": "StringTooLong",
      "type": "error"
    },
    {
      "anonymous": false,
      "inputs": [],
      "name": "EIP712DomainChanged",
      "type": "event"
    },
    {
      "anonymous": false,
      "inputs": [
        {
          "indexed": true,
          "internalType": "uint256",
          "name": "oldValue",
          "type": "uint256"
        },
        {
          "indexed": true,
          "internalType": "uint256",
          "name": "newValue",
          "type": "uint256"
        }
      ],
      "name": "MaxDescriptionLengthUpdated",
      "type": "event"
    },
    {
      "anonymous": false,
      "inputs": [
        {
          "indexed": true,
          "internalType": "uint256",
          "name": "oldValue",
          "type": "uint256"
        },
        {
          "indexed": true,
          "internalType": "uint256",
          "name": "newValue",
          "type": "uint256"
        }
      ],
      "name": "MaxTasksUpdated",
      "type": "event"
    },
    {
      "anonymous": false,
      "inputs": [
        {
          "indexed": true,
          "internalType": "address",
          "name": "previousOwner",
          "type": "address"
        },
        {
          "indexed": true,
          "internalType": "address",
          "name": "newOwner",
          "type": "address"
        }
      ],
      "name": "OwnershipTransferred",
      "type": "event"
    },
    {
      "anonymous": false,
      "inputs": [
        {
          "indexed": true,
          "internalType": "address",
          "name": "user",
          "type": "address"
        },
        {
          "indexed": true,
          "internalType": "address",
          "name": "pool",
          "type": "address"
        },
        {
          "indexed": false,
          "internalType": "uint256",
          "name": "newNonce",
          "type": "uint256"
        }
      ],
      "name": "SignatureCancelled",
      "type": "event"
    },
    {
      "anonymous": false,
      "inputs": [
        {
          "indexed": true,
          "internalType": "address",
          "name": "newSigner",
          "type": "address"
        }
      ],
      "name": "SignerUpdated",
      "type": "event"
    },
    {
      "anonymous": false,
      "inputs": [
        {
          "indexed": true,
          "internalType": "address",
          "name": "user",
          "type": "address"
        },
        {
          "indexed": true,
          "internalType": "address",
          "name": "pool",
          "type": "address"
        },
        {
          "indexed": false,
          "internalType": "uint256",
          "name": "nonce",
          "type": "uint256"
        }
      ],
      "name": "SocialEngagementVerified",
      "type": "event"
    },
    {
      "anonymous": false,
      "inputs": [
        {
          "indexed": true,
          "internalType": "bool",
          "name": "isPaused",
          "type": "bool"
        }
      ],
      "name": "TaskAssignmentsToggled",
      "type": "event"
    },
    {
      "anonymous": false,
      "inputs": [
        {
          "indexed": true,
          "internalType": "address",
          "name": "pool",
          "type": "address"
        },
        {
          "indexed": false,
          "internalType": "string",
          "name": "taskDescription",
          "type": "string"
        }
      ],
      "name": "TaskSet",
      "type": "event"
    },
    {
      "inputs": [],
      "name": "VERIFICATION_TYPEHASH",
      "outputs": [
        {
          "internalType": "bytes32",
          "name": "",
          "type": "bytes32"
        }
      ],
      "stateMutability": "view",
      "type": "function"
    },
    {
      "inputs": [
        {
          "internalType": "address",
          "name": "_pool",
          "type": "address"
        }
      ],
      "name": "cancelSignature",
      "outputs": [],
      "stateMutability": "nonpayable",
      "type": "function"
    },
    {
      "inputs": [],
      "name": "eip712Domain",
      "outputs": [
        {
          "internalType": "bytes1",
          "name": "fields",
          "type": "bytes1"
        },
        {
          "internalType": "string",
          "name": "name",
          "type": "string"
        },
        {
          "internalType": "string",
          "name": "version",
          "type": "string"
        },
        {
          "internalType": "uint256",
          "name": "chainId",
          "type": "uint256"
        },
        {
          "internalType": "address",
          "name": "verifyingContract",
          "type": "address"
        },
        {
          "internalType": "bytes32",
          "name": "salt",
          "type": "bytes32"
        },
        {
          "internalType": "uint256[]",
          "name": "extensions",
          "type": "uint256[]"
        }
      ],
      "stateMutability": "view",
      "type": "function"
    },
    {
      "inputs": [
        {
          "internalType": "address",
          "name": "_user",
          "type": "address"
        },
        {
          "internalType": "address",
          "name": "_pool",
          "type": "address"
        }
      ],
      "name": "getNonce",
      "outputs": [
        {
          "internalType": "uint256",
          "name": "",
          "type": "uint256"
        }
      ],
      "stateMutability": "view",
      "type": "function"
    },
    {
      "inputs": [],
      "name": "isTaskAssignmentPaused",
      "outputs": [
        {
          "internalType": "bool",
          "name": "",
          "type": "bool"
        }
      ],
      "stateMutability": "view",
      "type": "function"
    },
    {
      "inputs": [],
      "name": "maxDescriptionLength",
      "outputs": [
        {
          "internalType": "uint256",
          "name": "",
          "type": "uint256"
        }
      ],
      "stateMutability": "view",
      "type": "function"
    },
    {
      "inputs": [],
      "name": "maxTasks",
      "outputs": [
        {
          "internalType": "uint256",
          "name": "",
          "type": "uint256"
        }
      ],
      "stateMutability": "view",
      "type": "function"
    },
    {
      "inputs": [
        {
          "internalType": "address",
          "name": "",
          "type": "address"
        },
        {
          "internalType": "address",
          "name": "",
          "type": "address"
        }
      ],
      "name": "nonces",
      "outputs": [
        {
          "internalType": "uint256",
          "name": "",
          "type": "uint256"
        }
      ],
      "stateMutability": "view",
      "type": "function"
    },
    {
      "inputs": [],
      "name": "owner",
      "outputs": [
        {
          "internalType": "address",
          "name": "",
          "type": "address"
        }
      ],
      "stateMutability": "view",
      "type": "function"
    },
    {
      "inputs": [],
      "name": "protocolManager",
      "outputs": [
        {
          "internalType": "contract IProtocolManager",
          "name": "",
          "type": "address"
        }
      ],
      "stateMutability": "view",
      "type": "function"
    },
    {
      "inputs": [],
      "name": "renounceOwnership",
      "outputs": [],
      "stateMutability": "nonpayable",
      "type": "function"
    },
    {
      "inputs": [
        {
          "internalType": "uint256",
          "name": "_maxDescriptionLength",
          "type": "uint256"
        }
      ],
      "name": "setMaxDescriptionLength",
      "outputs": [],
      "stateMutability": "nonpayable",
      "type": "function"
    },
    {
      "inputs": [
        {
          "internalType": "uint256",
          "name": "_maxTasks",
          "type": "uint256"
        }
      ],
      "name": "setMaxTasks",
      "outputs": [],
      "stateMutability": "nonpayable",
      "type": "function"
    },
    {
      "inputs": [
        {
          "internalType": "address",
          "name": "_newSigner",
          "type": "address"
        }
      ],
      "name": "setSigner",
      "outputs": [],
      "stateMutability": "nonpayable",
      "type": "function"
    },
    {
      "inputs": [
        {
          "internalType": "address",
          "name": "_pool",
          "type": "address"
        },
        {
          "internalType": "string",
          "name": "_taskDescription",
          "type": "string"
        }
      ],
      "name": "setTask",
      "outputs": [],
      "stateMutability": "nonpayable",
      "type": "function"
    },
    {
      "inputs": [
        {
          "internalType": "uint256",
          "name": "_maxTasks",
          "type": "uint256"
        },
        {
          "internalType": "uint256",
          "name": "_maxDescriptionLength",
          "type": "uint256"
        }
      ],
      "name": "setTaskValidationLimits",
      "outputs": [],
      "stateMutability": "nonpayable",
      "type": "function"
    },
    {
      "inputs": [],
      "name": "signer",
      "outputs": [
        {
          "internalType": "address",
          "name": "",
          "type": "address"
        }
      ],
      "stateMutability": "view",
      "type": "function"
    },
    {
      "inputs": [
        {
          "internalType": "address",
          "name": "",
          "type": "address"
        }
      ],
      "name": "tasks",
      "outputs": [
        {
          "internalType": "string",
          "name": "",
          "type": "string"
        }
      ],
      "stateMutability": "view",
      "type": "function"
    },
    {
      "inputs": [],
      "name": "toggleTaskAssignments",
      "outputs": [],
      "stateMutability": "nonpayable",
      "type": "function"
    },
    {
      "inputs": [
        {
          "internalType": "address",
          "name": "newOwner",
          "type": "address"
        }
      ],
      "name": "transferOwnership",
      "outputs": [],
      "stateMutability": "nonpayable",
      "type": "function"
    },
    {
      "inputs": [
        {
          "internalType": "address",
          "name": "_user",
          "type": "address"
        },
        {
          "internalType": "address",
          "name": "_pool",
          "type": "address"
        },
        {
          "internalType": "uint256",
          "name": "_nonce",
          "type": "uint256"
        },
        {
          "internalType": "uint256",
          "name": "_deadline",
          "type": "uint256"
        },
        {
          "internalType": "bytes",
          "name": "_signature",
          "type": "bytes"
        }
      ],
      "name": "verify",
      "outputs": [],
      "stateMutability": "nonpayable",
      "type": "function"
    }
  ],
  "bytecode": "0x61016034620002b9576001600160401b039062001daa90601f38839003908101601f191682019084821183831017620002be5780839160409586948552833981010312620002b9576200005281620002f0565b91620000626020809301620002f0565b918151926200007184620002d4565b601b8452818401947f4661697250616420536f6369616c20566572696669636174696f6e00000000008652835190620000aa82620002d4565b60018252603160f81b848301908152600080546001600160a01b0319808216339081178455929b90966001600160a01b039590949193909286167f8be0079c531659141344cd1fd0a4f28419497f9722a3daafe3b4186f6b6457e08e80a3620001138a62000305565b9a6101209b8c526200012587620004dc565b9a6101409b8c52519020958660e052519020946101009b868d524660a052895196898801927f8b73c3c69bb8fe3d512ecc4cf759cc79239f7b179b0ffacaa9a75d522b39400f84528b89015260608801524660808801523060a088015260a0875260c087019387851090851117620002a55750828952855190206080523060c05283169384156200026357505016928315620002205750816003541617600355600454161760045560036007556103e860085551916117159384620006958539608051846115fe015260a051846116b9015260c051846115c8015260e0518461164d01525183611673015251826105f50152518161061f0152f35b60649085519062461bcd60e51b82526004820152601860248201527f496e76616c69642070726f746f636f6c206d616e6167657200000000000000006044820152fd5b907f496e76616c6964207369676e65722061646472657373000000000000000000006101046064938962461bcd60e51b855260c4820152601660e48201520152fd5b634e487b7160e01b81526041600452602490fd5b600080fd5b634e487b7160e01b600052604160045260246000fd5b604081019081106001600160401b03821117620002be57604052565b51906001600160a01b0382168203620002b957565b805160209081811015620003a25750601f8251116200034157808251920151908083106200033257501790565b82600019910360031b1b161790565b90604051809263305a27a960e01b82528060048301528251908160248401526000935b82851062000388575050604492506000838284010152601f80199101168101030190fd5b848101820151868601604401529381019385935062000364565b9192916001600160401b038111620002be5760019182548381811c91168015620004d1575b82821014620004bb57601f811162000482575b5080601f83116001146200041a5750819293946000926200040e575b5050600019600383901b1c191690821b17905560ff90565b015190503880620003f6565b90601f198316958460005282600020926000905b8882106200046a575050838596971062000450575b505050811b01905560ff90565b015160001960f88460031b161c1916905538808062000443565b8087859682949686015181550195019301906200042e565b8360005283601f83600020920160051c820191601f850160051c015b828110620004ae575050620003da565b600081550184906200049e565b634e487b7160e01b600052602260045260246000fd5b90607f1690620003c7565b8051602090818110156200056a5750601f8251116200050957808251920151908083106200033257501790565b90604051809263305a27a960e01b82528060048301528251908160248401526000935b82851062000550575050604492506000838284010152601f80199101168101030190fd5b84810182015186860160440152938101938593506200052c565b906001600160401b038211620002be57600254926001938481811c9116801562000689575b83821014620004bb57601f81116200064f575b5081601f8411600114620005e35750928293918392600094620005d7575b50501b916000199060031b1c19161760025560ff90565b015192503880620005c0565b919083601f198116600260005284600020946000905b888383106200063457505050106200061a575b505050811b0160025560ff90565b015160001960f88460031b161c191690553880806200060c565b858701518855909601959485019487935090810190620005f9565b600260005284601f84600020920160051c820191601f860160051c015b8281106200067c575050620005a2565b600081550185906200066c565b90607f16906200058f56fe6040608081526004908136101561001557600080fd5b600091823560e01c8063200dffbe14610eb1578063238ac93314610e885780633b13d73214610e6957806340c06aa914610e2e57806345f9204e14610d845780636c19e78314610cdb578063715018a614610c8157806373107a2914610c2b57806377c237fd14610b3f57806383e8ce5a146106fb57806384b0196e146105de5780638da5cb5b146105b65780639333fbda14610214578063ab4b66921461058f578063b6faa4801461050a578063be474c5f146104a7578063cffc18eb1461025d578063d828435d14610214578063ddb193e5146101f5578063e15b6bda146101cd5763f2fde38b1461010857600080fd5b346101c95760203660031901126101c957610121610f13565b9061012a61105c565b6001600160a01b0391821692831561017757505082546001600160a01b0319811683178455167f8be0079c531659141344cd1fd0a4f28419497f9722a3daafe3b4186f6b6457e08380a380f35b906020608492519162461bcd60e51b8352820152602660248201527f4f776e61626c653a206e6577206f776e657220697320746865207a65726f206160448201526564647265737360d01b6064820152fd5b8280fd5b5050346101f157816003193601126101f15760209060ff6009541690519015158152f35b5080fd5b5050346101f157816003193601126101f1576020906007549051908152f35b5050346101f157806003193601126101f15780602092610232610f13565b61023a610f2e565b6001600160a01b0391821683526006865283832091168252845220549051908152f35b50346101c95760a03660031901126101c957610277610f13565b90610280610f2e565b9260443590606435926084359467ffffffffffffffff958681116104a3576102ab903690840161102e565b86929192421161046c5760018060a01b0380921697888b526020976006895283878d209b169a8b8d528952868c205488036104395760429087518a8101917fea754bff2ecfedf19f419ccb869cd20a2d72e430b18b20e3d77c0ad4e8c1755883528c8a8301528d60608301528a608083015260a082015260a0815261032f81610f7e565b51902061033a6115c5565b9088519161190160f01b835260028301526022820152209082116104265785519061036e601f8401601f19168a0183610fcc565b8282528b36848701116104235789846103929561039a9883870137840101526114fe565b9290926113e4565b80600354169116036103f15750907fd4b9ddbabe64792c5c270f25dad09661bb50061d879c09830ef291f3fbe2b52492918487526006835280872086885283528087206103e781546113bf565b905551908152a380f35b83606492519162461bcd60e51b8352820152600e60248201526d24b73b30b634b21039b4b3b732b960911b6044820152fd5b80fd5b634e487b7160e01b8b526041855260248bfd5b865162461bcd60e51b81528087018a9052600d60248201526c496e76616c6964206e6f6e636560981b6044820152606490fd5b845162461bcd60e51b8152602081860152601160248201527014da59db985d1d5c9948195e1c1a5c9959607a1b6044820152606490fd5b8880fd5b8382346101f15760203660031901126101f157356104c361105c565b6104ce8115156112ff565b6104dc611388821115611361565b600854816008557f9d45a69f7f5ed5af20a598b309dc5fc83b70a3717f051a080b579c1b92ac280d8380a380f35b5050346101f157602090816003193601126101c9577f0109d97cc8c487de1b0f2607a20d7e83c81fce3e2c55a1bb719906cc468770c4610548610f13565b92338552600681528285209360018060a01b031693848652815282852061056f81546113bf565b90553385526006815282852084865281528285205492519283523392a380f35b50346101c957826003193601126101c9575490516001600160a01b03909116815260209150f35b5050346101f157816003193601126101f157905490516001600160a01b039091168152602090f35b5090346101c957826003193601126101c9576106197f00000000000000000000000000000000000000000000000000000000000000006110b4565b926106437f00000000000000000000000000000000000000000000000000000000000000006111ae565b908251926020928385019585871067ffffffffffffffff8811176106e85750928061069e838896610691998b9996528686528151998a99600f60f81b8b5260e0868c015260e08b0190610fee565b91898303908a0152610fee565b924660608801523060808801528460a088015286840360c088015251928381520193925b8281106106d157505050500390f35b8351855286955093810193928101926001016106c2565b634e487b7160e01b845260419052602483fd5b508290346101f157826003193601126101f157610716610f13565b67ffffffffffffffff93602435858111610b3b57610737903690850161102e565b8454835163188c824d60e11b81529194602093926001600160a01b0392859082908a90829087165afa908115610b31579083918a91610af7575b50163303610ab45760ff60095416610a715785151580610a65575b15610a22576001885b87811061096857506007541061092c5716948587526005835283872097851161091957506107c38754610f44565b601f81116108d6575b508596601f8511600114610850578491829182899a7f67423c56cfa16672f130b0215930a190dcbed4a837bd80d3a82cd9451ebb7a78999a91610845575b508360011b906000198560031b1c19161790555b8451958487958652850152848401378181018301879052601f01601f19168101030190a280f35b90508201358b61080a565b808752828720601f198616885b8181106108bf5750918693917f67423c56cfa16672f130b0215930a190dcbed4a837bd80d3a82cd9451ebb7a7898999a858095106108a5575b5050600183811b01905561081e565b830135600019600386901b60f8161c191690558a80610896565b848b0135835599850199600190920191850161085d565b878752828720601f860160051c81019184871061090f575b601f0160051c01905b81811061090457506107cc565b8781556001016108f7565b90915081906108ee565b634e487b7160e01b875260419052602486fd5b845162461bcd60e51b81526020818901818152600e918101919091526d546f6f206d616e79207461736b7360901b604082015281906060010390fd5b6001600160f81b03198186013516601f60fa1b8114908115610a14575b8115610a06575b81156109f8575b506109a7575b6109a2906113bf565b610795565b906109b1906113bf565b9060075482111561099957865162461bcd60e51b81526020818b01818152600e918101919091526d546f6f206d616e79207461736b7360901b604082015281906060010390fd5b600560f91b1490508c610993565b603b60f81b8114915061098c565b600b60fa1b81149150610985565b845162461bcd60e51b8152808801859052601a60248201527f496e76616c6964206465736372697074696f6e206c656e6774680000000000006044820152606490fd5b5060085486111561078c565b845162461bcd60e51b8152808801859052601960248201527f5461736b2061737369676e6d656e7420697320706175736564000000000000006044820152606490fd5b845162461bcd60e51b8152808801859052601f60248201527f4f6e6c7920506f6f6c4465706c6f7965722063616e20736574207461736b73006044820152606490fd5b809250868092503d8311610b2a575b610b108183610fcc565b810103126104a3575182811681036104a35782908b610771565b503d610b06565b86513d8b823e3d90fd5b8480fd5b5050346101f157602090816003193601126101c9576001600160a01b03610b64610f13565b16835260058252808320815193849181815490610b8082610f44565b92838652600192888482169182600014610c01575050600114610bc3575b8588610bbf89610bb0848a0385610fcc565b51928284938452830190610fee565b0390f35b87945081939291528383205b828410610be95750505082010181610bb0610bbf38610b9e565b8054848a018601528895508794909301928101610bcf565b60ff19168882015294151560051b87019094019450859350610bb09250610bbf9150389050610b9e565b8334610423578060031936011261042357610c4461105c565b60095460ff8082161516809160ff19161760095515157fd76f76e022b9f64762d47f484b911f9dbde1a11ec016cc9d813b9b6ee4c5a9ee8280a280f35b8334610423578060031936011261042357610c9a61105c565b80546001600160a01b03198116825581906001600160a01b03167f8be0079c531659141344cd1fd0a4f28419497f9722a3daafe3b4186f6b6457e08280a380f35b50346101c95760203660031901126101c957610cf5610f13565b610cfd61105c565b6001600160a01b0316918215610d48575050600380546001600160a01b031916821790557f5553331329228fbd4123164423717a4a7539f6dfa1c3279a923b98fd681a6c738280a280f35b906020606492519162461bcd60e51b83528201526016602482015275496e76616c6964207369676e6572206164647265737360501b6044820152fd5b5090346101c9573660031901126101f1573560243590610da261105c565b610dad811515611268565b610db88215156112ff565b610dc5600a8211156112b3565b610dd3611388831115611361565b600754906008549181600755836008557f251246c2e8cc534b61db1bbefcb3e26cae72f9587c07b0d534802e00b58e9b318580a37f9d45a69f7f5ed5af20a598b309dc5fc83b70a3717f051a080b579c1b92ac280d8380a380f35b5050346101f157816003193601126101f157602090517fea754bff2ecfedf19f419ccb869cd20a2d72e430b18b20e3d77c0ad4e8c175588152f35b5050346101f157816003193601126101f1576020906008549051908152f35b5050346101f157816003193601126101f15760035490516001600160a01b039091168152602090f35b8382346101f15760203660031901126101f15735610ecd61105c565b610ed8811515611268565b610ee5600a8211156112b3565b600754816007557f251246c2e8cc534b61db1bbefcb3e26cae72f9587c07b0d534802e00b58e9b318380a380f35b600435906001600160a01b0382168203610f2957565b600080fd5b602435906001600160a01b0382168203610f2957565b90600182811c92168015610f74575b6020831014610f5e57565b634e487b7160e01b600052602260045260246000fd5b91607f1691610f53565b60c0810190811067ffffffffffffffff821117610f9a57604052565b634e487b7160e01b600052604160045260246000fd5b6040810190811067ffffffffffffffff821117610f9a57604052565b90601f8019910116810190811067ffffffffffffffff821117610f9a57604052565b919082519283825260005b84811061101a575050826000602080949584010152601f8019910116010190565b602081830181015184830182015201610ff9565b9181601f84011215610f295782359167ffffffffffffffff8311610f295760208381860195010111610f2957565b6000546001600160a01b0316330361107057565b606460405162461bcd60e51b815260206004820152602060248201527f4f776e61626c653a2063616c6c6572206973206e6f7420746865206f776e65726044820152fd5b60ff81146110f25760ff811690601f82116110e057604051916110d683610fb0565b8252602082015290565b604051632cd44ac360e21b8152600490fd5b5060405160008160019182549261110884610f44565b8084529381811690811561118c575060011461112f575b5061112c92500382610fcc565b90565b600081815291507fb10e2d527612073b26eecdfd717e6a320cf44b4afac2b0732d9fcbe2b7fa0cf65b848310611171575061112c93505081016020013861111f565b81935090816020925483858901015201910190918492611158565b90506020925061112c94915060ff191682840152151560051b8201013861111f565b60ff81146111d05760ff811690601f82116110e057604051916110d683610fb0565b506040516002548160006111e383610f44565b8083529260019081811690811561118c5750600114611209575061112c92500382610fcc565b6002600090815291507f405787fa12a823e0f2b7631cc41b3ba8828b3321ca811111fa75cd3aa3bb5ace5b84831061124d575061112c93505081016020013861111f565b81935090816020925483858901015201910190918492611234565b1561126f57565b606460405162461bcd60e51b815260206004820152602060248201527f4d6178207461736b73206d7573742062652067726561746572207468616e20306044820152fd5b156112ba57565b60405162461bcd60e51b815260206004820152601a60248201527f4d6178207461736b732063616e6e6f74206578636565642031300000000000006044820152606490fd5b1561130657565b60405162461bcd60e51b815260206004820152602d60248201527f4d6178206465736372697074696f6e206c656e677468206d757374206265206760448201526c0726561746572207468616e203609c1b6064820152608490fd5b1561136857565b60405162461bcd60e51b815260206004820152602960248201527f4d6178206465736372697074696f6e206c656e6774682063616e6e6f7420657860448201526806365656420353030360bc1b6064820152608490fd5b60001981146113ce5760010190565b634e487b7160e01b600052601160045260246000fd5b60058110156114e857806113f55750565b600181036114425760405162461bcd60e51b815260206004820152601860248201527f45434453413a20696e76616c6964207369676e617475726500000000000000006044820152606490fd5b6002810361148f5760405162461bcd60e51b815260206004820152601f60248201527f45434453413a20696e76616c6964207369676e6174757265206c656e677468006044820152606490fd5b60031461149857565b60405162461bcd60e51b815260206004820152602260248201527f45434453413a20696e76616c6964207369676e6174757265202773272076616c604482015261756560f01b6064820152608490fd5b634e487b7160e01b600052602160045260246000fd5b90604181511460001461152c57611528916020820151906060604084015193015160001a90611536565b9091565b5050600090600290565b9291907f7fffffffffffffffffffffffffffffff5d576e7357a4501ddfe92f46681b20a083116115b95791608094939160ff602094604051948552168484015260408301526060820152600093849182805260015afa156115ac5781516001600160a01b038116156115a6579190565b50600190565b50604051903d90823e3d90fd5b50505050600090600390565b307f00000000000000000000000000000000000000000000000000000000000000006001600160a01b031614806116b6575b15611620577f000000000000000000000000000000000000000000000000000000000000000090565b60405160208101907f8b73c3c69bb8fe3d512ecc4cf759cc79239f7b179b0ffacaa9a75d522b39400f82527f000000000000000000000000000000000000000000000000000000000000000060408201527f000000000000000000000000000000000000000000000000000000000000000060608201524660808201523060a082015260a081526116b081610f7e565b51902090565b507f000000000000000000000000000000000000000000000000000000000000000046146115f756fea264697066735822122079815d42e5a725f3d85e4666e75cbb688c60925644246388f5f55b4a118ca4ca64736f6c63430008130033",
  "linkReferences": {},
  "deployedLinkReferences": {}
}