{
  "_format": "hh-sol-artifact-1",
  "contractName": "SocialEngagementManager",
  "sourceName": "contracts/SocialEngagementManager.sol",
  "abi": [
    {
      "inputs": [
        {
          "internalType": "address",
          "name": "_signer",
          "type": "address"
        },
        {
          "internalType": "address",
          "name": "_protocolManager",
          "type": "address"
        }
      ],
      "stateMutability": "nonpayable",
      "type": "constructor"
    },
    {
      "inputs": [],
      "name": "InvalidShortString",
      "type": "error"
    },
    {
      "inputs": [
        {
          "internalType": "string",
          "name": "str",
          "type": "string"
        }
      ],
      "name": "StringTooLong",
      "type": "error"
    },
    {
      "anonymous": false,
      "inputs": [],
      "name": "EIP712DomainChanged",
      "type": "event"
    },
    {
      "anonymous": false,
      "inputs": [
        {
          "indexed": true,
          "internalType": "uint256",
          "name": "oldValue",
          "type": "uint256"
        },
        {
          "indexed": true,
          "internalType": "uint256",
          "name": "newValue",
          "type": "uint256"
        }
      ],
      "name": "MaxTasksUpdated",
      "type": "event"
    },
    {
      "anonymous": false,
      "inputs": [
        {
          "indexed": true,
          "internalType": "address",
          "name": "previousOwner",
          "type": "address"
        },
        {
          "indexed": true,
          "internalType": "address",
          "name": "newOwner",
          "type": "address"
        }
      ],
      "name": "OwnershipTransferred",
      "type": "event"
    },
    {
      "anonymous": false,
      "inputs": [
        {
          "indexed": true,
          "internalType": "address",
          "name": "user",
          "type": "address"
        },
        {
          "indexed": true,
          "internalType": "address",
          "name": "pool",
          "type": "address"
        },
        {
          "indexed": false,
          "internalType": "uint256",
          "name": "newNonce",
          "type": "uint256"
        }
      ],
      "name": "SignatureCancelled",
      "type": "event"
    },
    {
      "anonymous": false,
      "inputs": [
        {
          "indexed": true,
          "internalType": "address",
          "name": "newSigner",
          "type": "address"
        }
      ],
      "name": "SignerUpdated",
      "type": "event"
    },
    {
      "anonymous": false,
      "inputs": [
        {
          "indexed": true,
          "internalType": "address",
          "name": "user",
          "type": "address"
        },
        {
          "indexed": true,
          "internalType": "address",
          "name": "pool",
          "type": "address"
        },
        {
          "indexed": false,
          "internalType": "uint256",
          "name": "nonce",
          "type": "uint256"
        }
      ],
      "name": "SocialEngagementVerified",
      "type": "event"
    },
    {
      "anonymous": false,
      "inputs": [
        {
          "indexed": true,
          "internalType": "address",
          "name": "pool",
          "type": "address"
        },
        {
          "indexed": false,
          "internalType": "string",
          "name": "taskDescription",
          "type": "string"
        }
      ],
      "name": "SocialTasksEnabled",
      "type": "event"
    },
    {
      "anonymous": false,
      "inputs": [
        {
          "indexed": true,
          "internalType": "bool",
          "name": "isPaused",
          "type": "bool"
        }
      ],
      "name": "TaskAssignmentsToggled",
      "type": "event"
    },
    {
      "inputs": [],
      "name": "VERIFICATION_TYPEHASH",
      "outputs": [
        {
          "internalType": "bytes32",
          "name": "",
          "type": "bytes32"
        }
      ],
      "stateMutability": "view",
      "type": "function"
    },
    {
      "inputs": [
        {
          "internalType": "address",
          "name": "_pool",
          "type": "address"
        }
      ],
      "name": "cancelSignature",
      "outputs": [],
      "stateMutability": "nonpayable",
      "type": "function"
    },
    {
      "inputs": [],
      "name": "eip712Domain",
      "outputs": [
        {
          "internalType": "bytes1",
          "name": "fields",
          "type": "bytes1"
        },
        {
          "internalType": "string",
          "name": "name",
          "type": "string"
        },
        {
          "internalType": "string",
          "name": "version",
          "type": "string"
        },
        {
          "internalType": "uint256",
          "name": "chainId",
          "type": "uint256"
        },
        {
          "internalType": "address",
          "name": "verifyingContract",
          "type": "address"
        },
        {
          "internalType": "bytes32",
          "name": "salt",
          "type": "bytes32"
        },
        {
          "internalType": "uint256[]",
          "name": "extensions",
          "type": "uint256[]"
        }
      ],
      "stateMutability": "view",
      "type": "function"
    },
    {
      "inputs": [
        {
          "internalType": "address",
          "name": "_pool",
          "type": "address"
        },
        {
          "internalType": "string",
          "name": "_taskDescription",
          "type": "string"
        }
      ],
      "name": "enableSocialTasks",
      "outputs": [],
      "stateMutability": "nonpayable",
      "type": "function"
    },
    {
      "inputs": [
        {
          "internalType": "address",
          "name": "_pool",
          "type": "address"
        }
      ],
      "name": "hasSocialTasks",
      "outputs": [
        {
          "internalType": "bool",
          "name": "",
          "type": "bool"
        }
      ],
      "stateMutability": "view",
      "type": "function"
    },
    {
      "inputs": [],
      "name": "isTaskAssignmentPaused",
      "outputs": [
        {
          "internalType": "bool",
          "name": "",
          "type": "bool"
        }
      ],
      "stateMutability": "view",
      "type": "function"
    },
    {
      "inputs": [],
      "name": "maxTasks",
      "outputs": [
        {
          "internalType": "uint256",
          "name": "",
          "type": "uint256"
        }
      ],
      "stateMutability": "view",
      "type": "function"
    },
    {
      "inputs": [],
      "name": "owner",
      "outputs": [
        {
          "internalType": "address",
          "name": "",
          "type": "address"
        }
      ],
      "stateMutability": "view",
      "type": "function"
    },
    {
      "inputs": [],
      "name": "protocolManager",
      "outputs": [
        {
          "internalType": "contract IProtocolManager",
          "name": "",
          "type": "address"
        }
      ],
      "stateMutability": "view",
      "type": "function"
    },
    {
      "inputs": [],
      "name": "renounceOwnership",
      "outputs": [],
      "stateMutability": "nonpayable",
      "type": "function"
    },
    {
      "inputs": [
        {
          "internalType": "uint256",
          "name": "_maxTasks",
          "type": "uint256"
        }
      ],
      "name": "setMaxTasks",
      "outputs": [],
      "stateMutability": "nonpayable",
      "type": "function"
    },
    {
      "inputs": [
        {
          "internalType": "address",
          "name": "_newSigner",
          "type": "address"
        }
      ],
      "name": "setSigner",
      "outputs": [],
      "stateMutability": "nonpayable",
      "type": "function"
    },
    {
      "inputs": [
        {
          "internalType": "uint256",
          "name": "_maxTasks",
          "type": "uint256"
        }
      ],
      "name": "setTaskValidationLimits",
      "outputs": [],
      "stateMutability": "nonpayable",
      "type": "function"
    },
    {
      "inputs": [],
      "name": "signer",
      "outputs": [
        {
          "internalType": "address",
          "name": "",
          "type": "address"
        }
      ],
      "stateMutability": "view",
      "type": "function"
    },
    {
      "inputs": [
        {
          "internalType": "address",
          "name": "",
          "type": "address"
        }
      ],
      "name": "socialTasksEnabled",
      "outputs": [
        {
          "internalType": "bool",
          "name": "",
          "type": "bool"
        }
      ],
      "stateMutability": "view",
      "type": "function"
    },
    {
      "inputs": [],
      "name": "toggleTaskAssignments",
      "outputs": [],
      "stateMutability": "nonpayable",
      "type": "function"
    },
    {
      "inputs": [
        {
          "internalType": "address",
          "name": "newOwner",
          "type": "address"
        }
      ],
      "name": "transferOwnership",
      "outputs": [],
      "stateMutability": "nonpayable",
      "type": "function"
    },
    {
      "inputs": [
        {
          "internalType": "address",
          "name": "_user",
          "type": "address"
        },
        {
          "internalType": "address",
          "name": "_pool",
          "type": "address"
        },
        {
          "internalType": "uint256",
          "name": "_deadline",
          "type": "uint256"
        },
        {
          "internalType": "bytes",
          "name": "_signature",
          "type": "bytes"
        }
      ],
      "name": "verify",
      "outputs": [],
      "stateMutability": "nonpayable",
      "type": "function"
    }
  ],
  "bytecode": "0x61016034620002b3576001600160401b0390620017fa90601f38839003908101601f191682019084821183831017620002b85780839160409586948552833981010312620002b3576200005281620002ea565b91620000626020809301620002ea565b918151926200007184620002ce565b60198452818401947f44726f707220536f6369616c20566572696669636174696f6e000000000000008652835190620000aa82620002ce565b60018252603160f81b848301908152600080546001600160a01b0319808216339081178455929b90966001600160a01b039590949193909286167f8be0079c531659141344cd1fd0a4f28419497f9722a3daafe3b4186f6b6457e08e80a3620001138a620002ff565b9a6101209b8c526200012587620004d6565b9a6101409b8c52519020958660e052519020946101009b868d524660a052895196898801927f8b73c3c69bb8fe3d512ecc4cf759cc79239f7b179b0ffacaa9a75d522b39400f84528b89015260608801524660808801523060a088015260a0875260c0870193878510908511176200029f5750828952855190206080523060c05283169384156200025d575050169283156200021a575081600354161760035560045416176004556003600655519161116b93846200068f853960805184611043015260a0518461110f015260c0518461100d015260e05184611092015251836110b801525182610747015251816107710152f35b60649085519062461bcd60e51b82526004820152601860248201527f496e76616c69642070726f746f636f6c206d616e6167657200000000000000006044820152fd5b907f496e76616c6964207369676e65722061646472657373000000000000000000006101046064938962461bcd60e51b855260c4820152601660e48201520152fd5b634e487b7160e01b81526041600452602490fd5b600080fd5b634e487b7160e01b600052604160045260246000fd5b604081019081106001600160401b03821117620002b857604052565b51906001600160a01b0382168203620002b357565b8051602090818110156200039c5750601f8251116200033b57808251920151908083106200032c57501790565b82600019910360031b1b161790565b90604051809263305a27a960e01b82528060048301528251908160248401526000935b82851062000382575050604492506000838284010152601f80199101168101030190fd5b84810182015186860160440152938101938593506200035e565b9192916001600160401b038111620002b85760019182548381811c91168015620004cb575b82821014620004b557601f81116200047c575b5080601f83116001146200041457508192939460009262000408575b5050600019600383901b1c191690821b17905560ff90565b015190503880620003f0565b90601f198316958460005282600020926000905b8882106200046457505083859697106200044a575b505050811b01905560ff90565b015160001960f88460031b161c191690553880806200043d565b80878596829496860151815501950193019062000428565b8360005283601f83600020920160051c820191601f850160051c015b828110620004a8575050620003d4565b6000815501849062000498565b634e487b7160e01b600052602260045260246000fd5b90607f1690620003c1565b805160209081811015620005645750601f8251116200050357808251920151908083106200032c57501790565b90604051809263305a27a960e01b82528060048301528251908160248401526000935b8285106200054a575050604492506000838284010152601f80199101168101030190fd5b848101820151868601604401529381019385935062000526565b906001600160401b038211620002b857600254926001938481811c9116801562000683575b83821014620004b557601f811162000649575b5081601f8411600114620005dd5750928293918392600094620005d1575b50501b916000199060031b1c19161760025560ff90565b015192503880620005ba565b919083601f198116600260005284600020946000905b888383106200062e575050501062000614575b505050811b0160025560ff90565b015160001960f88460031b161c1916905538808062000606565b858701518855909601959485019487935090810190620005f3565b600260005284601f84600020920160051c820191601f860160051c015b828110620006765750506200059c565b6000815501859062000666565b90607f16906200058956fe6040608081526004908136101561001557600080fd5b600091823560e01c8063200dffbe146109a6578063216c2ddf1461024a578063238ac93314610a0957806340c06aa9146109ce57806341ff3868146109a65780636c19e783146108fd578063715018a6146108a357806373107a291461084d57806384b0196e1461073057806386aec179146104cd5780638da5cb5b146104a557806393e9f8fc146102af578063ab4b669214610288578063b63d1e871461024a578063b6faa480146101f3578063ddb193e5146101d4578063e15b6bda146101ac5763f2fde38b146100e757600080fd5b346101a85760203660031901126101a857610100610a32565b90610109610abb565b6001600160a01b0391821692831561015657505082546001600160a01b0319811683178455167f8be0079c531659141344cd1fd0a4f28419497f9722a3daafe3b4186f6b6457e08380a380f35b906020608492519162461bcd60e51b8352820152602660248201527f4f776e61626c653a206e6577206f776e657220697320746865207a65726f206160448201526564647265737360d01b6064820152fd5b8280fd5b5050346101d057816003193601126101d05760209060ff6007541690519015158152f35b5080fd5b5050346101d057816003193601126101d0576020906006549051908152f35b5050346101d05760203660031901126101d05761020e610a32565b90518281526001600160a01b039091169033907f0109d97cc8c487de1b0f2607a20d7e83c81fce3e2c55a1bb719906cc468770c490602090a380f35b5050346101d05760203660031901126101d05760209160ff9082906001600160a01b03610275610a32565b1681526005855220541690519015158152f35b50346101a857826003193601126101a8575490516001600160a01b03909116815260209150f35b50346101a85760803660031901126101a8576102c9610a32565b6001600160a01b03602435818116949193908590036104a1576044359367ffffffffffffffff9060643582811161049d576103079036908501610a8d565b90928742116104665785519660209784898201927f60e9a4547c30238071874c2aa0e7b964d213dc48bf1dc05b3c7c244d8dfcbd8a845216998a898301528b606083015260808201526080815260a081018181108482111761045357885251902060429061037361100a565b9088519161190160f01b83526002830152602282015220908211610440578551906103a7601f8401601f1916890183610b45565b8282528a368487011161043d5788846103cb956103d3988387013784010152610f43565b929092610e29565b806003541691160361040b5750907fd4b9ddbabe64792c5c270f25dad09661bb50061d879c09830ef291f3fbe2b5249151858152a380f35b82606492519162461bcd60e51b8352820152600e60248201526d24b73b30b634b21039b4b3b732b960911b6044820152fd5b80fd5b634e487b7160e01b8a526041855260248afd5b634e487b7160e01b8d526041885260248dfd5b855162461bcd60e51b8152602081870152601160248201527014da59db985d1d5c9948195e1c1a5c9959607a1b6044820152606490fd5b8880fd5b8580fd5b5050346101d057816003193601126101d057905490516001600160a01b039091168152602090f35b5090346101a857806003193601126101a8576104e7610a32565b9060243567ffffffffffffffff811161072c576105079036908501610a8d565b8454835163188c824d60e11b81529194602093926001600160a01b0392859082908a90829087165afa908115610722579083918a916106e8575b5016330361069a5760ff600754166106575716948587526005835260ff84882054166106145784156105d157509083807f86d3d91767f607589d632ac7bd8a5f04cf3e9cd324598861d2954302ac3d144995949387895260058452848920600160ff198254161790558451958487958652850152848401378181018301879052601f01601f19168101030190a280f35b835162461bcd60e51b8152908101839052601b60248201527f4465736372697074696f6e2063616e6e6f7420626520656d70747900000000006044820152606490fd5b835162461bcd60e51b8152908101839052601c60248201527f536f6369616c207461736b7320616c726561647920656e61626c6564000000006044820152606490fd5b845162461bcd60e51b8152808801859052601960248201527f5461736b2061737369676e6d656e7420697320706175736564000000000000006044820152606490fd5b845162461bcd60e51b8152808801859052602260248201527f4f6e6c7920506f6f6c4465706c6f7965722063616e20656e61626c65207461736044820152616b7360f01b6064820152608490fd5b809250868092503d831161071b575b6107018183610b45565b8101031261049d5751828116810361049d57829038610541565b503d6106f7565b86513d8b823e3d90fd5b8480fd5b5090346101a857826003193601126101a85761076b7f0000000000000000000000000000000000000000000000000000000000000000610b67565b926107957f0000000000000000000000000000000000000000000000000000000000000000610c8e565b908251926020928385019585871067ffffffffffffffff88111761083a575092806107f08388966107e3998b9996528686528151998a99600f60f81b8b5260e0868c015260e08b0190610a4d565b91898303908a0152610a4d565b924660608801523060808801528460a088015286840360c088015251928381520193925b82811061082357505050500390f35b835185528695509381019392810192600101610814565b634e487b7160e01b845260419052602483fd5b833461043d578060031936011261043d57610866610abb565b60075460ff8082161516809160ff19161760075515157fd76f76e022b9f64762d47f484b911f9dbde1a11ec016cc9d813b9b6ee4c5a9ee8280a280f35b833461043d578060031936011261043d576108bc610abb565b80546001600160a01b03198116825581906001600160a01b03167f8be0079c531659141344cd1fd0a4f28419497f9722a3daafe3b4186f6b6457e08280a380f35b50346101a85760203660031901126101a857610917610a32565b61091f610abb565b6001600160a01b031691821561096a575050600380546001600160a01b031916821790557f5553331329228fbd4123164423717a4a7539f6dfa1c3279a923b98fd681a6c738280a280f35b906020606492519162461bcd60e51b83528201526016602482015275496e76616c6964207369676e6572206164647265737360501b6044820152fd5b8382346101d05760203660031901126101d0576109cb906109c5610abb565b35610d64565b80f35b5050346101d057816003193601126101d057602090517f60e9a4547c30238071874c2aa0e7b964d213dc48bf1dc05b3c7c244d8dfcbd8a8152f35b5050346101d057816003193601126101d05760035490516001600160a01b039091168152602090f35b600435906001600160a01b0382168203610a4857565b600080fd5b919082519283825260005b848110610a79575050826000602080949584010152601f8019910116010190565b602081830181015184830182015201610a58565b9181601f84011215610a485782359167ffffffffffffffff8311610a485760208381860195010111610a4857565b6000546001600160a01b03163303610acf57565b606460405162461bcd60e51b815260206004820152602060248201527f4f776e61626c653a2063616c6c6572206973206e6f7420746865206f776e65726044820152fd5b6040810190811067ffffffffffffffff821117610b2f57604052565b634e487b7160e01b600052604160045260246000fd5b90601f8019910116810190811067ffffffffffffffff821117610b2f57604052565b60ff8114610ba55760ff811690601f8211610b935760405191610b8983610b13565b8252602082015290565b604051632cd44ac360e21b8152600490fd5b50604051600060019081549182811c90808416938415610c84575b6020948584108114610c705783875286949392918115610c505750600114610bf4575b5050610bf192500382610b45565b90565b60008181527fb10e2d527612073b26eecdfd717e6a320cf44b4afac2b0732d9fcbe2b7fa0cf695935091905b818310610c38575050610bf193508201013880610be3565b85548784018501529485019486945091830191610c20565b915050610bf194925060ff191682840152151560051b8201013880610be3565b634e487b7160e01b85526022600452602485fd5b91607f1691610bc0565b60ff8114610cb05760ff811690601f8211610b935760405191610b8983610b13565b50604051600060025490600182811c90808416938415610d5a575b6020948584108114610c705783875286949392918115610c505750600114610cfb575050610bf192500382610b45565b9093915060026000527f405787fa12a823e0f2b7631cc41b3ba8828b3321ca811111fa75cd3aa3bb5ace936000915b818310610d42575050610bf193508201013880610be3565b85548784018501529485019486945091830191610d2a565b91607f1691610ccb565b8015610de557600a8111610da057600654816006557f251246c2e8cc534b61db1bbefcb3e26cae72f9587c07b0d534802e00b58e9b31600080a3565b60405162461bcd60e51b815260206004820152601a60248201527f4d6178207461736b732063616e6e6f74206578636565642031300000000000006044820152606490fd5b606460405162461bcd60e51b815260206004820152602060248201527f4d6178207461736b73206d7573742062652067726561746572207468616e20306044820152fd5b6005811015610f2d5780610e3a5750565b60018103610e875760405162461bcd60e51b815260206004820152601860248201527f45434453413a20696e76616c6964207369676e617475726500000000000000006044820152606490fd5b60028103610ed45760405162461bcd60e51b815260206004820152601f60248201527f45434453413a20696e76616c6964207369676e6174757265206c656e677468006044820152606490fd5b600314610edd57565b60405162461bcd60e51b815260206004820152602260248201527f45434453413a20696e76616c6964207369676e6174757265202773272076616c604482015261756560f01b6064820152608490fd5b634e487b7160e01b600052602160045260246000fd5b906041815114600014610f7157610f6d916020820151906060604084015193015160001a90610f7b565b9091565b5050600090600290565b9291907f7fffffffffffffffffffffffffffffff5d576e7357a4501ddfe92f46681b20a08311610ffe5791608094939160ff602094604051948552168484015260408301526060820152600093849182805260015afa15610ff15781516001600160a01b03811615610feb579190565b50600190565b50604051903d90823e3d90fd5b50505050600090600390565b307f00000000000000000000000000000000000000000000000000000000000000006001600160a01b0316148061110c575b15611065577f000000000000000000000000000000000000000000000000000000000000000090565b60405160208101907f8b73c3c69bb8fe3d512ecc4cf759cc79239f7b179b0ffacaa9a75d522b39400f82527f000000000000000000000000000000000000000000000000000000000000000060408201527f000000000000000000000000000000000000000000000000000000000000000060608201524660808201523060a082015260a0815260c0810181811067ffffffffffffffff821117610b2f5760405251902090565b507f0000000000000000000000000000000000000000000000000000000000000000461461103c56fea2646970667358221220be373b225df9fbe7bd1a7e13b0e97dae1971f319799b7bc42ab4cd51c980861b64736f6c63430008130033",
  "linkReferences": {},
  "deployedLinkReferences": {}
}