{
  "_format": "hh-sol-artifact-1",
  "contractName": "SocialEngagementManager",
  "sourceName": "contracts/SocialEngagementManager.sol",
  "abi": [
    {
      "inputs": [
        {
          "internalType": "address",
          "name": "_signer",
          "type": "address"
        },
        {
          "internalType": "address",
          "name": "_protocolManager",
          "type": "address"
        }
      ],
      "stateMutability": "nonpayable",
      "type": "constructor"
    },
    {
      "inputs": [],
      "name": "InvalidShortString",
      "type": "error"
    },
    {
      "inputs": [
        {
          "internalType": "string",
          "name": "str",
          "type": "string"
        }
      ],
      "name": "StringTooLong",
      "type": "error"
    },
    {
      "anonymous": false,
      "inputs": [],
      "name": "EIP712DomainChanged",
      "type": "event"
    },
    {
      "anonymous": false,
      "inputs": [
        {
          "indexed": true,
          "internalType": "uint256",
          "name": "oldValue",
          "type": "uint256"
        },
        {
          "indexed": true,
          "internalType": "uint256",
          "name": "newValue",
          "type": "uint256"
        }
      ],
      "name": "MaxDescriptionLengthUpdated",
      "type": "event"
    },
    {
      "anonymous": false,
      "inputs": [
        {
          "indexed": true,
          "internalType": "uint256",
          "name": "oldValue",
          "type": "uint256"
        },
        {
          "indexed": true,
          "internalType": "uint256",
          "name": "newValue",
          "type": "uint256"
        }
      ],
      "name": "MaxTasksUpdated",
      "type": "event"
    },
    {
      "anonymous": false,
      "inputs": [
        {
          "indexed": true,
          "internalType": "address",
          "name": "previousOwner",
          "type": "address"
        },
        {
          "indexed": true,
          "internalType": "address",
          "name": "newOwner",
          "type": "address"
        }
      ],
      "name": "OwnershipTransferred",
      "type": "event"
    },
    {
      "anonymous": false,
      "inputs": [
        {
          "indexed": true,
          "internalType": "address",
          "name": "user",
          "type": "address"
        },
        {
          "indexed": true,
          "internalType": "address",
          "name": "pool",
          "type": "address"
        },
        {
          "indexed": false,
          "internalType": "uint256",
          "name": "newNonce",
          "type": "uint256"
        }
      ],
      "name": "SignatureCancelled",
      "type": "event"
    },
    {
      "anonymous": false,
      "inputs": [
        {
          "indexed": true,
          "internalType": "address",
          "name": "newSigner",
          "type": "address"
        }
      ],
      "name": "SignerUpdated",
      "type": "event"
    },
    {
      "anonymous": false,
      "inputs": [
        {
          "indexed": true,
          "internalType": "address",
          "name": "user",
          "type": "address"
        },
        {
          "indexed": true,
          "internalType": "address",
          "name": "pool",
          "type": "address"
        },
        {
          "indexed": false,
          "internalType": "uint256",
          "name": "nonce",
          "type": "uint256"
        }
      ],
      "name": "SocialEngagementVerified",
      "type": "event"
    },
    {
      "anonymous": false,
      "inputs": [
        {
          "indexed": true,
          "internalType": "bool",
          "name": "isPaused",
          "type": "bool"
        }
      ],
      "name": "TaskAssignmentsToggled",
      "type": "event"
    },
    {
      "anonymous": false,
      "inputs": [
        {
          "indexed": true,
          "internalType": "address",
          "name": "pool",
          "type": "address"
        },
        {
          "indexed": false,
          "internalType": "string",
          "name": "taskDescription",
          "type": "string"
        }
      ],
      "name": "TaskSet",
      "type": "event"
    },
    {
      "inputs": [],
      "name": "VERIFICATION_TYPEHASH",
      "outputs": [
        {
          "internalType": "bytes32",
          "name": "",
          "type": "bytes32"
        }
      ],
      "stateMutability": "view",
      "type": "function"
    },
    {
      "inputs": [
        {
          "internalType": "address",
          "name": "_pool",
          "type": "address"
        }
      ],
      "name": "cancelSignature",
      "outputs": [],
      "stateMutability": "nonpayable",
      "type": "function"
    },
    {
      "inputs": [],
      "name": "eip712Domain",
      "outputs": [
        {
          "internalType": "bytes1",
          "name": "fields",
          "type": "bytes1"
        },
        {
          "internalType": "string",
          "name": "name",
          "type": "string"
        },
        {
          "internalType": "string",
          "name": "version",
          "type": "string"
        },
        {
          "internalType": "uint256",
          "name": "chainId",
          "type": "uint256"
        },
        {
          "internalType": "address",
          "name": "verifyingContract",
          "type": "address"
        },
        {
          "internalType": "bytes32",
          "name": "salt",
          "type": "bytes32"
        },
        {
          "internalType": "uint256[]",
          "name": "extensions",
          "type": "uint256[]"
        }
      ],
      "stateMutability": "view",
      "type": "function"
    },
    {
      "inputs": [],
      "name": "isTaskAssignmentPaused",
      "outputs": [
        {
          "internalType": "bool",
          "name": "",
          "type": "bool"
        }
      ],
      "stateMutability": "view",
      "type": "function"
    },
    {
      "inputs": [],
      "name": "maxDescriptionLength",
      "outputs": [
        {
          "internalType": "uint256",
          "name": "",
          "type": "uint256"
        }
      ],
      "stateMutability": "view",
      "type": "function"
    },
    {
      "inputs": [],
      "name": "maxTasks",
      "outputs": [
        {
          "internalType": "uint256",
          "name": "",
          "type": "uint256"
        }
      ],
      "stateMutability": "view",
      "type": "function"
    },
    {
      "inputs": [],
      "name": "owner",
      "outputs": [
        {
          "internalType": "address",
          "name": "",
          "type": "address"
        }
      ],
      "stateMutability": "view",
      "type": "function"
    },
    {
      "inputs": [],
      "name": "protocolManager",
      "outputs": [
        {
          "internalType": "contract IProtocolManager",
          "name": "",
          "type": "address"
        }
      ],
      "stateMutability": "view",
      "type": "function"
    },
    {
      "inputs": [],
      "name": "renounceOwnership",
      "outputs": [],
      "stateMutability": "nonpayable",
      "type": "function"
    },
    {
      "inputs": [
        {
          "internalType": "uint256",
          "name": "_maxDescriptionLength",
          "type": "uint256"
        }
      ],
      "name": "setMaxDescriptionLength",
      "outputs": [],
      "stateMutability": "nonpayable",
      "type": "function"
    },
    {
      "inputs": [
        {
          "internalType": "uint256",
          "name": "_maxTasks",
          "type": "uint256"
        }
      ],
      "name": "setMaxTasks",
      "outputs": [],
      "stateMutability": "nonpayable",
      "type": "function"
    },
    {
      "inputs": [
        {
          "internalType": "address",
          "name": "_newSigner",
          "type": "address"
        }
      ],
      "name": "setSigner",
      "outputs": [],
      "stateMutability": "nonpayable",
      "type": "function"
    },
    {
      "inputs": [
        {
          "internalType": "address",
          "name": "_pool",
          "type": "address"
        },
        {
          "internalType": "string",
          "name": "_taskDescription",
          "type": "string"
        }
      ],
      "name": "setTask",
      "outputs": [],
      "stateMutability": "nonpayable",
      "type": "function"
    },
    {
      "inputs": [
        {
          "internalType": "uint256",
          "name": "_maxTasks",
          "type": "uint256"
        },
        {
          "internalType": "uint256",
          "name": "_maxDescriptionLength",
          "type": "uint256"
        }
      ],
      "name": "setTaskValidationLimits",
      "outputs": [],
      "stateMutability": "nonpayable",
      "type": "function"
    },
    {
      "inputs": [],
      "name": "signer",
      "outputs": [
        {
          "internalType": "address",
          "name": "",
          "type": "address"
        }
      ],
      "stateMutability": "view",
      "type": "function"
    },
    {
      "inputs": [
        {
          "internalType": "address",
          "name": "",
          "type": "address"
        }
      ],
      "name": "tasks",
      "outputs": [
        {
          "internalType": "string",
          "name": "",
          "type": "string"
        }
      ],
      "stateMutability": "view",
      "type": "function"
    },
    {
      "inputs": [],
      "name": "toggleTaskAssignments",
      "outputs": [],
      "stateMutability": "nonpayable",
      "type": "function"
    },
    {
      "inputs": [
        {
          "internalType": "address",
          "name": "newOwner",
          "type": "address"
        }
      ],
      "name": "transferOwnership",
      "outputs": [],
      "stateMutability": "nonpayable",
      "type": "function"
    },
    {
      "inputs": [
        {
          "internalType": "address",
          "name": "_user",
          "type": "address"
        },
        {
          "internalType": "address",
          "name": "_pool",
          "type": "address"
        },
        {
          "internalType": "uint256",
          "name": "_deadline",
          "type": "uint256"
        },
        {
          "internalType": "bytes",
          "name": "_signature",
          "type": "bytes"
        }
      ],
      "name": "verify",
      "outputs": [],
      "stateMutability": "nonpayable",
      "type": "function"
    }
  ],
  "bytecode": "0x61016034620002b9576001600160401b039062001ca890601f38839003908101601f191682019084821183831017620002be5780839160409586948552833981010312620002b9576200005281620002f0565b91620000626020809301620002f0565b918151926200007184620002d4565b60198452818401947f44726f707220536f6369616c20566572696669636174696f6e000000000000008652835190620000aa82620002d4565b60018252603160f81b848301908152600080546001600160a01b0319808216339081178455929b90966001600160a01b039590949193909286167f8be0079c531659141344cd1fd0a4f28419497f9722a3daafe3b4186f6b6457e08e80a3620001138a62000305565b9a6101209b8c526200012587620004dc565b9a6101409b8c52519020958660e052519020946101009b868d524660a052895196898801927f8b73c3c69bb8fe3d512ecc4cf759cc79239f7b179b0ffacaa9a75d522b39400f84528b89015260608801524660808801523060a088015260a0875260c087019387851090851117620002a55750828952855190206080523060c05283169384156200026357505016928315620002205750816003541617600355600454161760045560036006556103e860075551916116139384620006958539608051846114eb015260a051846115b7015260c051846114b5015260e0518461153a01525183611560015251826105140152518161053e0152f35b60649085519062461bcd60e51b82526004820152601860248201527f496e76616c69642070726f746f636f6c206d616e6167657200000000000000006044820152fd5b907f496e76616c6964207369676e65722061646472657373000000000000000000006101046064938962461bcd60e51b855260c4820152601660e48201520152fd5b634e487b7160e01b81526041600452602490fd5b600080fd5b634e487b7160e01b600052604160045260246000fd5b604081019081106001600160401b03821117620002be57604052565b51906001600160a01b0382168203620002b957565b805160209081811015620003a25750601f8251116200034157808251920151908083106200033257501790565b82600019910360031b1b161790565b90604051809263305a27a960e01b82528060048301528251908160248401526000935b82851062000388575050604492506000838284010152601f80199101168101030190fd5b848101820151868601604401529381019385935062000364565b9192916001600160401b038111620002be5760019182548381811c91168015620004d1575b82821014620004bb57601f811162000482575b5080601f83116001146200041a5750819293946000926200040e575b5050600019600383901b1c191690821b17905560ff90565b015190503880620003f6565b90601f198316958460005282600020926000905b8882106200046a575050838596971062000450575b505050811b01905560ff90565b015160001960f88460031b161c1916905538808062000443565b8087859682949686015181550195019301906200042e565b8360005283601f83600020920160051c820191601f850160051c015b828110620004ae575050620003da565b600081550184906200049e565b634e487b7160e01b600052602260045260246000fd5b90607f1690620003c7565b8051602090818110156200056a5750601f8251116200050957808251920151908083106200033257501790565b90604051809263305a27a960e01b82528060048301528251908160248401526000935b82851062000550575050604492506000838284010152601f80199101168101030190fd5b84810182015186860160440152938101938593506200052c565b906001600160401b038211620002be57600254926001938481811c9116801562000689575b83821014620004bb57601f81116200064f575b5081601f8411600114620005e35750928293918392600094620005d7575b50501b916000199060031b1c19161760025560ff90565b015192503880620005c0565b919083601f198116600260005284600020946000905b888383106200063457505050106200061a575b505050811b0160025560ff90565b015160001960f88460031b161c191690553880806200060c565b858701518855909601959485019487935090810190620005f9565b600260005284601f84600020920160051c820191601f860160051c015b8281106200067c575050620005a2565b600081550185906200066c565b90607f16906200058f56fe6040608081526004908136101561001557600080fd5b600091823560e01c8063200dffbe14610dd0578063238ac93314610da75780633b13d73214610d8857806340c06aa914610d4d57806345f9204e14610ca35780636c19e78314610bfa578063715018a614610ba057806373107a2914610b4a57806377c237fd14610a5e57806383e8ce5a1461061a57806384b0196e146104fd5780638da5cb5b146104d557806393e9f8fc146102df578063ab4b6692146102b8578063b6faa48014610261578063be474c5f146101fe578063ddb193e5146101df578063e15b6bda146101b75763f2fde38b146100f257600080fd5b346101b35760203660031901126101b35761010b610e32565b90610114610f49565b6001600160a01b0391821692831561016157505082546001600160a01b0319811683178455167f8be0079c531659141344cd1fd0a4f28419497f9722a3daafe3b4186f6b6457e08380a380f35b906020608492519162461bcd60e51b8352820152602660248201527f4f776e61626c653a206e6577206f776e657220697320746865207a65726f206160448201526564647265737360d01b6064820152fd5b8280fd5b5050346101db57816003193601126101db5760209060ff6008541690519015158152f35b5080fd5b5050346101db57816003193601126101db576020906006549051908152f35b8382346101db5760203660031901126101db573561021a610f49565b6102258115156111ec565b61023361138882111561124e565b600754816007557f9d45a69f7f5ed5af20a598b309dc5fc83b70a3717f051a080b579c1b92ac280d8380a380f35b5050346101db5760203660031901126101db5761027c610e32565b90518281526001600160a01b039091169033907f0109d97cc8c487de1b0f2607a20d7e83c81fce3e2c55a1bb719906cc468770c490602090a380f35b50346101b357826003193601126101b3575490516001600160a01b03909116815260209150f35b50346101b35760803660031901126101b3576102f9610e32565b6001600160a01b03602435818116949193908590036104d1576044359367ffffffffffffffff906064358281116104cd576103379036908501610f1b565b90928742116104965785519660209784898201927f60e9a4547c30238071874c2aa0e7b964d213dc48bf1dc05b3c7c244d8dfcbd8a845216998a898301528b606083015260808201526080815260a08101818110848211176104835788525190206042906103a36114b2565b9088519161190160f01b83526002830152602282015220908211610470578551906103d7601f8401601f1916890183610eb9565b8282528a368487011161046d5788846103fb956104039883870137840101526113eb565b9290926112d1565b806003541691160361043b5750907fd4b9ddbabe64792c5c270f25dad09661bb50061d879c09830ef291f3fbe2b5249151858152a380f35b82606492519162461bcd60e51b8352820152600e60248201526d24b73b30b634b21039b4b3b732b960911b6044820152fd5b80fd5b634e487b7160e01b8a526041855260248afd5b634e487b7160e01b8d526041885260248dfd5b855162461bcd60e51b8152602081870152601160248201527014da59db985d1d5c9948195e1c1a5c9959607a1b6044820152606490fd5b8880fd5b8580fd5b5050346101db57816003193601126101db57905490516001600160a01b039091168152602090f35b5090346101b357826003193601126101b3576105387f0000000000000000000000000000000000000000000000000000000000000000610fa1565b926105627f000000000000000000000000000000000000000000000000000000000000000061109b565b908251926020928385019585871067ffffffffffffffff881117610607575092806105bd8388966105b0998b9996528686528151998a99600f60f81b8b5260e0868c015260e08b0190610edb565b91898303908a0152610edb565b924660608801523060808801528460a088015286840360c088015251928381520193925b8281106105f057505050500390f35b8351855286955093810193928101926001016105e1565b634e487b7160e01b845260419052602483fd5b508290346101db57826003193601126101db57610635610e32565b67ffffffffffffffff93602435858111610a5a576106569036908501610f1b565b8454835163188c824d60e11b81529194602093926001600160a01b0392859082908a90829087165afa908115610a50579083918a91610a16575b501633036109d35760ff600854166109905785151580610984575b15610941576001885b87811061088757506006541061084b5716948587526005835283872097851161083857506106e28754610e4d565b601f81116107f5575b508596601f851160011461076f578491829182899a7f67423c56cfa16672f130b0215930a190dcbed4a837bd80d3a82cd9451ebb7a78999a91610764575b508360011b906000198560031b1c19161790555b8451958487958652850152848401378181018301879052601f01601f19168101030190a280f35b90508201358b610729565b808752828720601f198616885b8181106107de5750918693917f67423c56cfa16672f130b0215930a190dcbed4a837bd80d3a82cd9451ebb7a7898999a858095106107c4575b5050600183811b01905561073d565b830135600019600386901b60f8161c191690558a806107b5565b848b0135835599850199600190920191850161077c565b878752828720601f860160051c81019184871061082e575b601f0160051c01905b81811061082357506106eb565b878155600101610816565b909150819061080d565b634e487b7160e01b875260419052602486fd5b845162461bcd60e51b81526020818901818152600e918101919091526d546f6f206d616e79207461736b7360901b604082015281906060010390fd5b6001600160f81b03198186013516601f60fa1b8114908115610933575b8115610925575b8115610917575b506108c6575b6108c1906112ac565b6106b4565b906108d0906112ac565b906006548211156108b857865162461bcd60e51b81526020818b01818152600e918101919091526d546f6f206d616e79207461736b7360901b604082015281906060010390fd5b600560f91b1490508c6108b2565b603b60f81b811491506108ab565b600b60fa1b811491506108a4565b845162461bcd60e51b8152808801859052601a60248201527f496e76616c6964206465736372697074696f6e206c656e6774680000000000006044820152606490fd5b506007548611156106ab565b845162461bcd60e51b8152808801859052601960248201527f5461736b2061737369676e6d656e7420697320706175736564000000000000006044820152606490fd5b845162461bcd60e51b8152808801859052601f60248201527f4f6e6c7920506f6f6c4465706c6f7965722063616e20736574207461736b73006044820152606490fd5b809250868092503d8311610a49575b610a2f8183610eb9565b810103126104cd575182811681036104cd5782908b610690565b503d610a25565b86513d8b823e3d90fd5b8480fd5b5050346101db57602090816003193601126101b3576001600160a01b03610a83610e32565b16835260058252808320815193849181815490610a9f82610e4d565b92838652600192888482169182600014610b20575050600114610ae2575b8588610ade89610acf848a0385610eb9565b51928284938452830190610edb565b0390f35b87945081939291528383205b828410610b085750505082010181610acf610ade38610abd565b8054848a018601528895508794909301928101610aee565b60ff19168882015294151560051b87019094019450859350610acf9250610ade9150389050610abd565b833461046d578060031936011261046d57610b63610f49565b60085460ff8082161516809160ff19161760085515157fd76f76e022b9f64762d47f484b911f9dbde1a11ec016cc9d813b9b6ee4c5a9ee8280a280f35b833461046d578060031936011261046d57610bb9610f49565b80546001600160a01b03198116825581906001600160a01b03167f8be0079c531659141344cd1fd0a4f28419497f9722a3daafe3b4186f6b6457e08280a380f35b50346101b35760203660031901126101b357610c14610e32565b610c1c610f49565b6001600160a01b0316918215610c67575050600380546001600160a01b031916821790557f5553331329228fbd4123164423717a4a7539f6dfa1c3279a923b98fd681a6c738280a280f35b906020606492519162461bcd60e51b83528201526016602482015275496e76616c6964207369676e6572206164647265737360501b6044820152fd5b5090346101b3573660031901126101db573560243590610cc1610f49565b610ccc811515611155565b610cd78215156111ec565b610ce4600a8211156111a0565b610cf261138883111561124e565b600654906007549181600655836007557f251246c2e8cc534b61db1bbefcb3e26cae72f9587c07b0d534802e00b58e9b318580a37f9d45a69f7f5ed5af20a598b309dc5fc83b70a3717f051a080b579c1b92ac280d8380a380f35b5050346101db57816003193601126101db57602090517f60e9a4547c30238071874c2aa0e7b964d213dc48bf1dc05b3c7c244d8dfcbd8a8152f35b5050346101db57816003193601126101db576020906007549051908152f35b5050346101db57816003193601126101db5760035490516001600160a01b039091168152602090f35b8382346101db5760203660031901126101db5735610dec610f49565b610df7811515611155565b610e04600a8211156111a0565b600654816006557f251246c2e8cc534b61db1bbefcb3e26cae72f9587c07b0d534802e00b58e9b318380a380f35b600435906001600160a01b0382168203610e4857565b600080fd5b90600182811c92168015610e7d575b6020831014610e6757565b634e487b7160e01b600052602260045260246000fd5b91607f1691610e5c565b6040810190811067ffffffffffffffff821117610ea357604052565b634e487b7160e01b600052604160045260246000fd5b90601f8019910116810190811067ffffffffffffffff821117610ea357604052565b919082519283825260005b848110610f07575050826000602080949584010152601f8019910116010190565b602081830181015184830182015201610ee6565b9181601f84011215610e485782359167ffffffffffffffff8311610e485760208381860195010111610e4857565b6000546001600160a01b03163303610f5d57565b606460405162461bcd60e51b815260206004820152602060248201527f4f776e61626c653a2063616c6c6572206973206e6f7420746865206f776e65726044820152fd5b60ff8114610fdf5760ff811690601f8211610fcd5760405191610fc383610e87565b8252602082015290565b604051632cd44ac360e21b8152600490fd5b50604051600081600191825492610ff584610e4d565b80845293818116908115611079575060011461101c575b5061101992500382610eb9565b90565b600081815291507fb10e2d527612073b26eecdfd717e6a320cf44b4afac2b0732d9fcbe2b7fa0cf65b84831061105e575061101993505081016020013861100c565b81935090816020925483858901015201910190918492611045565b90506020925061101994915060ff191682840152151560051b8201013861100c565b60ff81146110bd5760ff811690601f8211610fcd5760405191610fc383610e87565b506040516002548160006110d083610e4d565b8083529260019081811690811561107957506001146110f6575061101992500382610eb9565b6002600090815291507f405787fa12a823e0f2b7631cc41b3ba8828b3321ca811111fa75cd3aa3bb5ace5b84831061113a575061101993505081016020013861100c565b81935090816020925483858901015201910190918492611121565b1561115c57565b606460405162461bcd60e51b815260206004820152602060248201527f4d6178207461736b73206d7573742062652067726561746572207468616e20306044820152fd5b156111a757565b60405162461bcd60e51b815260206004820152601a60248201527f4d6178207461736b732063616e6e6f74206578636565642031300000000000006044820152606490fd5b156111f357565b60405162461bcd60e51b815260206004820152602d60248201527f4d6178206465736372697074696f6e206c656e677468206d757374206265206760448201526c0726561746572207468616e203609c1b6064820152608490fd5b1561125557565b60405162461bcd60e51b815260206004820152602960248201527f4d6178206465736372697074696f6e206c656e6774682063616e6e6f7420657860448201526806365656420353030360bc1b6064820152608490fd5b60001981146112bb5760010190565b634e487b7160e01b600052601160045260246000fd5b60058110156113d557806112e25750565b6001810361132f5760405162461bcd60e51b815260206004820152601860248201527f45434453413a20696e76616c6964207369676e617475726500000000000000006044820152606490fd5b6002810361137c5760405162461bcd60e51b815260206004820152601f60248201527f45434453413a20696e76616c6964207369676e6174757265206c656e677468006044820152606490fd5b60031461138557565b60405162461bcd60e51b815260206004820152602260248201527f45434453413a20696e76616c6964207369676e6174757265202773272076616c604482015261756560f01b6064820152608490fd5b634e487b7160e01b600052602160045260246000fd5b90604181511460001461141957611415916020820151906060604084015193015160001a90611423565b9091565b5050600090600290565b9291907f7fffffffffffffffffffffffffffffff5d576e7357a4501ddfe92f46681b20a083116114a65791608094939160ff602094604051948552168484015260408301526060820152600093849182805260015afa156114995781516001600160a01b03811615611493579190565b50600190565b50604051903d90823e3d90fd5b50505050600090600390565b307f00000000000000000000000000000000000000000000000000000000000000006001600160a01b031614806115b4575b1561150d577f000000000000000000000000000000000000000000000000000000000000000090565b60405160208101907f8b73c3c69bb8fe3d512ecc4cf759cc79239f7b179b0ffacaa9a75d522b39400f82527f000000000000000000000000000000000000000000000000000000000000000060408201527f000000000000000000000000000000000000000000000000000000000000000060608201524660808201523060a082015260a0815260c0810181811067ffffffffffffffff821117610ea35760405251902090565b507f000000000000000000000000000000000000000000000000000000000000000046146114e456fea26469706673582212201ac194d6caf8d69f9415d5960f3785ae7f882729cb8e597a14638e41096c646064736f6c63430008130033",
  "linkReferences": {},
  "deployedLinkReferences": {}
}